{
  "_format": "hh-sol-artifact-1",
  "contractName": "PatriotPledgeNFTV7",
  "sourceName": "contracts/PatriotPledgeNFTV7.sol",
  "abi": [
    {
      "inputs": [
        {
          "internalType": "address",
          "name": "_platformTreasury",
          "type": "address"
        },
        {
          "internalType": "uint16",
          "name": "_platformFeeBps",
          "type": "uint16"
        }
      ],
      "stateMutability": "nonpayable",
      "type": "constructor"
    },
    {
      "inputs": [
        {
          "internalType": "uint256",
          "name": "numerator",
          "type": "uint256"
        },
        {
          "internalType": "uint256",
          "name": "denominator",
          "type": "uint256"
        }
      ],
      "name": "ERC2981InvalidDefaultRoyalty",
      "type": "error"
    },
    {
      "inputs": [
        {
          "internalType": "address",
          "name": "receiver",
          "type": "address"
        }
      ],
      "name": "ERC2981InvalidDefaultRoyaltyReceiver",
      "type": "error"
    },
    {
      "inputs": [
        {
          "internalType": "uint256",
          "name": "tokenId",
          "type": "uint256"
        },
        {
          "internalType": "uint256",
          "name": "numerator",
          "type": "uint256"
        },
        {
          "internalType": "uint256",
          "name": "denominator",
          "type": "uint256"
        }
      ],
      "name": "ERC2981InvalidTokenRoyalty",
      "type": "error"
    },
    {
      "inputs": [
        {
          "internalType": "uint256",
          "name": "tokenId",
          "type": "uint256"
        },
        {
          "internalType": "address",
          "name": "receiver",
          "type": "address"
        }
      ],
      "name": "ERC2981InvalidTokenRoyaltyReceiver",
      "type": "error"
    },
    {
      "inputs": [],
      "name": "ERC721EnumerableForbiddenBatchMint",
      "type": "error"
    },
    {
      "inputs": [
        {
          "internalType": "address",
          "name": "sender",
          "type": "address"
        },
        {
          "internalType": "uint256",
          "name": "tokenId",
          "type": "uint256"
        },
        {
          "internalType": "address",
          "name": "owner",
          "type": "address"
        }
      ],
      "name": "ERC721IncorrectOwner",
      "type": "error"
    },
    {
      "inputs": [
        {
          "internalType": "address",
          "name": "operator",
          "type": "address"
        },
        {
          "internalType": "uint256",
          "name": "tokenId",
          "type": "uint256"
        }
      ],
      "name": "ERC721InsufficientApproval",
      "type": "error"
    },
    {
      "inputs": [
        {
          "internalType": "address",
          "name": "approver",
          "type": "address"
        }
      ],
      "name": "ERC721InvalidApprover",
      "type": "error"
    },
    {
      "inputs": [
        {
          "internalType": "address",
          "name": "operator",
          "type": "address"
        }
      ],
      "name": "ERC721InvalidOperator",
      "type": "error"
    },
    {
      "inputs": [
        {
          "internalType": "address",
          "name": "owner",
          "type": "address"
        }
      ],
      "name": "ERC721InvalidOwner",
      "type": "error"
    },
    {
      "inputs": [
        {
          "internalType": "address",
          "name": "receiver",
          "type": "address"
        }
      ],
      "name": "ERC721InvalidReceiver",
      "type": "error"
    },
    {
      "inputs": [
        {
          "internalType": "address",
          "name": "sender",
          "type": "address"
        }
      ],
      "name": "ERC721InvalidSender",
      "type": "error"
    },
    {
      "inputs": [
        {
          "internalType": "uint256",
          "name": "tokenId",
          "type": "uint256"
        }
      ],
      "name": "ERC721NonexistentToken",
      "type": "error"
    },
    {
      "inputs": [
        {
          "internalType": "address",
          "name": "owner",
          "type": "address"
        },
        {
          "internalType": "uint256",
          "name": "index",
          "type": "uint256"
        }
      ],
      "name": "ERC721OutOfBoundsIndex",
      "type": "error"
    },
    {
      "inputs": [],
      "name": "EnforcedPause",
      "type": "error"
    },
    {
      "inputs": [],
      "name": "ExpectedPause",
      "type": "error"
    },
    {
      "inputs": [
        {
          "internalType": "address",
          "name": "owner",
          "type": "address"
        }
      ],
      "name": "OwnableInvalidOwner",
      "type": "error"
    },
    {
      "inputs": [
        {
          "internalType": "address",
          "name": "account",
          "type": "address"
        }
      ],
      "name": "OwnableUnauthorizedAccount",
      "type": "error"
    },
    {
      "inputs": [],
      "name": "ReentrancyGuardReentrantCall",
      "type": "error"
    },
    {
      "anonymous": false,
      "inputs": [
        {
          "indexed": true,
          "internalType": "address",
          "name": "addr",
          "type": "address"
        },
        {
          "indexed": false,
          "internalType": "bool",
          "name": "blacklisted",
          "type": "bool"
        }
      ],
      "name": "AddressBlacklisted",
      "type": "event"
    },
    {
      "anonymous": false,
      "inputs": [
        {
          "indexed": true,
          "internalType": "address",
          "name": "owner",
          "type": "address"
        },
        {
          "indexed": true,
          "internalType": "address",
          "name": "approved",
          "type": "address"
        },
        {
          "indexed": true,
          "internalType": "uint256",
          "name": "tokenId",
          "type": "uint256"
        }
      ],
      "name": "Approval",
      "type": "event"
    },
    {
      "anonymous": false,
      "inputs": [
        {
          "indexed": true,
          "internalType": "address",
          "name": "owner",
          "type": "address"
        },
        {
          "indexed": true,
          "internalType": "address",
          "name": "operator",
          "type": "address"
        },
        {
          "indexed": false,
          "internalType": "bool",
          "name": "approved",
          "type": "bool"
        }
      ],
      "name": "ApprovalForAll",
      "type": "event"
    },
    {
      "anonymous": false,
      "inputs": [
        {
          "indexed": false,
          "internalType": "uint256",
          "name": "_fromTokenId",
          "type": "uint256"
        },
        {
          "indexed": false,
          "internalType": "uint256",
          "name": "_toTokenId",
          "type": "uint256"
        }
      ],
      "name": "BatchMetadataUpdate",
      "type": "event"
    },
    {
      "anonymous": false,
      "inputs": [
        {
          "indexed": true,
          "internalType": "address",
          "name": "funder",
          "type": "address"
        },
        {
          "indexed": false,
          "internalType": "uint256",
          "name": "amount",
          "type": "uint256"
        }
      ],
      "name": "BugBountyFunded",
      "type": "event"
    },
    {
      "anonymous": false,
      "inputs": [
        {
          "indexed": true,
          "internalType": "address",
          "name": "recipient",
          "type": "address"
        },
        {
          "indexed": false,
          "internalType": "uint256",
          "name": "amount",
          "type": "uint256"
        },
        {
          "indexed": false,
          "internalType": "string",
          "name": "reportId",
          "type": "string"
        }
      ],
      "name": "BugBountyPaid",
      "type": "event"
    },
    {
      "anonymous": false,
      "inputs": [
        {
          "indexed": true,
          "internalType": "uint256",
          "name": "campaignId",
          "type": "uint256"
        }
      ],
      "name": "CampaignClosed",
      "type": "event"
    },
    {
      "anonymous": false,
      "inputs": [
        {
          "indexed": true,
          "internalType": "uint256",
          "name": "campaignId",
          "type": "uint256"
        },
        {
          "indexed": true,
          "internalType": "address",
          "name": "nonprofit",
          "type": "address"
        },
        {
          "indexed": true,
          "internalType": "address",
          "name": "submitter",
          "type": "address"
        },
        {
          "indexed": false,
          "internalType": "string",
          "name": "category",
          "type": "string"
        },
        {
          "indexed": false,
          "internalType": "uint256",
          "name": "goal",
          "type": "uint256"
        },
        {
          "indexed": false,
          "internalType": "uint256",
          "name": "maxEditions",
          "type": "uint256"
        },
        {
          "indexed": false,
          "internalType": "uint256",
          "name": "pricePerEdition",
          "type": "uint256"
        },
        {
          "indexed": false,
          "internalType": "bool",
          "name": "immediatePayoutEnabled",
          "type": "bool"
        }
      ],
      "name": "CampaignCreated",
      "type": "event"
    },
    {
      "anonymous": false,
      "inputs": [
        {
          "indexed": true,
          "internalType": "uint256",
          "name": "campaignId",
          "type": "uint256"
        },
        {
          "indexed": false,
          "internalType": "string",
          "name": "newBaseURI",
          "type": "string"
        }
      ],
      "name": "CampaignMetadataUpdated",
      "type": "event"
    },
    {
      "anonymous": false,
      "inputs": [
        {
          "indexed": true,
          "internalType": "uint256",
          "name": "campaignId",
          "type": "uint256"
        }
      ],
      "name": "CampaignRefunded",
      "type": "event"
    },
    {
      "anonymous": false,
      "inputs": [
        {
          "indexed": true,
          "internalType": "uint256",
          "name": "campaignId",
          "type": "uint256"
        },
        {
          "indexed": false,
          "internalType": "string",
          "name": "field",
          "type": "string"
        }
      ],
      "name": "CampaignUpdated",
      "type": "event"
    },
    {
      "anonymous": false,
      "inputs": [
        {
          "indexed": true,
          "internalType": "uint256",
          "name": "campaignId",
          "type": "uint256"
        },
        {
          "indexed": false,
          "internalType": "uint256",
          "name": "gross",
          "type": "uint256"
        },
        {
          "indexed": false,
          "internalType": "uint256",
          "name": "net",
          "type": "uint256"
        },
        {
          "indexed": false,
          "internalType": "uint256",
          "name": "tip",
          "type": "uint256"
        },
        {
          "indexed": false,
          "internalType": "bool",
          "name": "isOnchain",
          "type": "bool"
        }
      ],
      "name": "ContributionRecorded",
      "type": "event"
    },
    {
      "anonymous": false,
      "inputs": [
        {
          "indexed": false,
          "internalType": "uint96",
          "name": "newRoyaltyBps",
          "type": "uint96"
        }
      ],
      "name": "DefaultRoyaltyUpdated",
      "type": "event"
    },
    {
      "anonymous": false,
      "inputs": [
        {
          "indexed": true,
          "internalType": "uint256",
          "name": "campaignId",
          "type": "uint256"
        },
        {
          "indexed": true,
          "internalType": "uint256",
          "name": "tokenId",
          "type": "uint256"
        },
        {
          "indexed": true,
          "internalType": "address",
          "name": "donor",
          "type": "address"
        },
        {
          "indexed": false,
          "internalType": "uint256",
          "name": "editionNumber",
          "type": "uint256"
        },
        {
          "indexed": false,
          "internalType": "uint256",
          "name": "amountPaid",
          "type": "uint256"
        }
      ],
      "name": "EditionMinted",
      "type": "event"
    },
    {
      "anonymous": false,
      "inputs": [
        {
          "indexed": true,
          "internalType": "address",
          "name": "to",
          "type": "address"
        },
        {
          "indexed": false,
          "internalType": "uint256",
          "name": "amount",
          "type": "uint256"
        }
      ],
      "name": "EmergencyWithdraw",
      "type": "event"
    },
    {
      "anonymous": false,
      "inputs": [
        {
          "indexed": false,
          "internalType": "uint16",
          "name": "platformFeeBps",
          "type": "uint16"
        },
        {
          "indexed": false,
          "internalType": "bool",
          "name": "immediatePayout",
          "type": "bool"
        }
      ],
      "name": "FeeConfigUpdated",
      "type": "event"
    },
    {
      "anonymous": false,
      "inputs": [
        {
          "indexed": true,
          "internalType": "uint256",
          "name": "campaignId",
          "type": "uint256"
        },
        {
          "indexed": true,
          "internalType": "address",
          "name": "submitter",
          "type": "address"
        },
        {
          "indexed": false,
          "internalType": "uint256",
          "name": "submitterAmount",
          "type": "uint256"
        },
        {
          "indexed": false,
          "internalType": "uint256",
          "name": "platformFee",
          "type": "uint256"
        },
        {
          "indexed": false,
          "internalType": "uint256",
          "name": "nonprofitFee",
          "type": "uint256"
        },
        {
          "indexed": false,
          "internalType": "uint256",
          "name": "tipAmount",
          "type": "uint256"
        }
      ],
      "name": "FundsDistributed",
      "type": "event"
    },
    {
      "anonymous": false,
      "inputs": [
        {
          "indexed": true,
          "internalType": "uint256",
          "name": "campaignId",
          "type": "uint256"
        },
        {
          "indexed": true,
          "internalType": "address",
          "name": "recipient",
          "type": "address"
        },
        {
          "indexed": false,
          "internalType": "uint256",
          "name": "amount",
          "type": "uint256"
        },
        {
          "indexed": false,
          "internalType": "string",
          "name": "recipientType",
          "type": "string"
        }
      ],
      "name": "ImmediatePayoutSent",
      "type": "event"
    },
    {
      "anonymous": false,
      "inputs": [
        {
          "indexed": false,
          "internalType": "uint256",
          "name": "_tokenId",
          "type": "uint256"
        }
      ],
      "name": "MetadataUpdate",
      "type": "event"
    },
    {
      "anonymous": false,
      "inputs": [
        {
          "indexed": true,
          "internalType": "address",
          "name": "previousOwner",
          "type": "address"
        },
        {
          "indexed": true,
          "internalType": "address",
          "name": "newOwner",
          "type": "address"
        }
      ],
      "name": "OwnershipTransferred",
      "type": "event"
    },
    {
      "anonymous": false,
      "inputs": [
        {
          "indexed": false,
          "internalType": "address",
          "name": "account",
          "type": "address"
        }
      ],
      "name": "Paused",
      "type": "event"
    },
    {
      "anonymous": false,
      "inputs": [
        {
          "indexed": true,
          "internalType": "uint256",
          "name": "tokenId",
          "type": "uint256"
        },
        {
          "indexed": true,
          "internalType": "address",
          "name": "burner",
          "type": "address"
        }
      ],
      "name": "TokenBurned",
      "type": "event"
    },
    {
      "anonymous": false,
      "inputs": [
        {
          "indexed": true,
          "internalType": "uint256",
          "name": "tokenId",
          "type": "uint256"
        },
        {
          "indexed": false,
          "internalType": "bool",
          "name": "frozen",
          "type": "bool"
        }
      ],
      "name": "TokenFrozen",
      "type": "event"
    },
    {
      "anonymous": false,
      "inputs": [
        {
          "indexed": true,
          "internalType": "uint256",
          "name": "tokenId",
          "type": "uint256"
        },
        {
          "indexed": false,
          "internalType": "bool",
          "name": "soulbound",
          "type": "bool"
        }
      ],
      "name": "TokenSoulbound",
      "type": "event"
    },
    {
      "anonymous": false,
      "inputs": [
        {
          "indexed": true,
          "internalType": "uint256",
          "name": "tokenId",
          "type": "uint256"
        },
        {
          "indexed": false,
          "internalType": "string",
          "name": "newURI",
          "type": "string"
        }
      ],
      "name": "TokenURIFixed",
      "type": "event"
    },
    {
      "anonymous": false,
      "inputs": [
        {
          "indexed": true,
          "internalType": "address",
          "name": "from",
          "type": "address"
        },
        {
          "indexed": true,
          "internalType": "address",
          "name": "to",
          "type": "address"
        },
        {
          "indexed": true,
          "internalType": "uint256",
          "name": "tokenId",
          "type": "uint256"
        }
      ],
      "name": "Transfer",
      "type": "event"
    },
    {
      "anonymous": false,
      "inputs": [
        {
          "indexed": true,
          "internalType": "address",
          "name": "oldTreasury",
          "type": "address"
        },
        {
          "indexed": true,
          "internalType": "address",
          "name": "newTreasury",
          "type": "address"
        }
      ],
      "name": "TreasuryUpdated",
      "type": "event"
    },
    {
      "anonymous": false,
      "inputs": [
        {
          "indexed": false,
          "internalType": "address",
          "name": "account",
          "type": "address"
        }
      ],
      "name": "Unpaused",
      "type": "event"
    },
    {
      "stateMutability": "payable",
      "type": "fallback"
    },
    {
      "inputs": [],
      "name": "BPS_DENOMINATOR",
      "outputs": [
        {
          "internalType": "uint256",
          "name": "",
          "type": "uint256"
        }
      ],
      "stateMutability": "view",
      "type": "function"
    },
    {
      "inputs": [],
      "name": "MAX_BATCH_SIZE",
      "outputs": [
        {
          "internalType": "uint256",
          "name": "",
          "type": "uint256"
        }
      ],
      "stateMutability": "view",
      "type": "function"
    },
    {
      "inputs": [],
      "name": "MAX_FEE_BPS",
      "outputs": [
        {
          "internalType": "uint256",
          "name": "",
          "type": "uint256"
        }
      ],
      "stateMutability": "view",
      "type": "function"
    },
    {
      "inputs": [
        {
          "internalType": "uint256",
          "name": "tokenId",
          "type": "uint256"
        }
      ],
      "name": "adminBurn",
      "outputs": [],
      "stateMutability": "nonpayable",
      "type": "function"
    },
    {
      "inputs": [
        {
          "internalType": "address",
          "name": "to",
          "type": "address"
        },
        {
          "internalType": "uint256",
          "name": "tokenId",
          "type": "uint256"
        }
      ],
      "name": "approve",
      "outputs": [],
      "stateMutability": "nonpayable",
      "type": "function"
    },
    {
      "inputs": [
        {
          "internalType": "address",
          "name": "owner",
          "type": "address"
        }
      ],
      "name": "balanceOf",
      "outputs": [
        {
          "internalType": "uint256",
          "name": "",
          "type": "uint256"
        }
      ],
      "stateMutability": "view",
      "type": "function"
    },
    {
      "inputs": [
        {
          "internalType": "uint256[]",
          "name": "tokenIds",
          "type": "uint256[]"
        },
        {
          "internalType": "uint256",
          "name": "campaignId",
          "type": "uint256"
        }
      ],
      "name": "batchFixTokenCampaignLink",
      "outputs": [],
      "stateMutability": "nonpayable",
      "type": "function"
    },
    {
      "inputs": [
        {
          "internalType": "uint256[]",
          "name": "tokenIds",
          "type": "uint256[]"
        },
        {
          "internalType": "bool",
          "name": "freeze",
          "type": "bool"
        }
      ],
      "name": "batchFreezeTokens",
      "outputs": [],
      "stateMutability": "nonpayable",
      "type": "function"
    },
    {
      "inputs": [
        {
          "internalType": "uint256[]",
          "name": "tokenIds",
          "type": "uint256[]"
        },
        {
          "internalType": "string",
          "name": "uri",
          "type": "string"
        }
      ],
      "name": "batchSetTokenURI",
      "outputs": [],
      "stateMutability": "nonpayable",
      "type": "function"
    },
    {
      "inputs": [
        {
          "internalType": "address",
          "name": "addr",
          "type": "address"
        }
      ],
      "name": "blacklistAddress",
      "outputs": [],
      "stateMutability": "nonpayable",
      "type": "function"
    },
    {
      "inputs": [
        {
          "internalType": "address",
          "name": "",
          "type": "address"
        }
      ],
      "name": "blacklisted",
      "outputs": [
        {
          "internalType": "bool",
          "name": "",
          "type": "bool"
        }
      ],
      "stateMutability": "view",
      "type": "function"
    },
    {
      "inputs": [],
      "name": "bugBountyPool",
      "outputs": [
        {
          "internalType": "uint256",
          "name": "",
          "type": "uint256"
        }
      ],
      "stateMutability": "view",
      "type": "function"
    },
    {
      "inputs": [
        {
          "internalType": "uint256",
          "name": "tokenId",
          "type": "uint256"
        }
      ],
      "name": "burn",
      "outputs": [],
      "stateMutability": "nonpayable",
      "type": "function"
    },
    {
      "inputs": [
        {
          "internalType": "uint256",
          "name": "",
          "type": "uint256"
        }
      ],
      "name": "campaignDistributed",
      "outputs": [
        {
          "internalType": "uint256",
          "name": "",
          "type": "uint256"
        }
      ],
      "stateMutability": "view",
      "type": "function"
    },
    {
      "inputs": [
        {
          "internalType": "uint256",
          "name": "",
          "type": "uint256"
        },
        {
          "internalType": "uint256",
          "name": "",
          "type": "uint256"
        }
      ],
      "name": "campaignEditions",
      "outputs": [
        {
          "internalType": "uint256",
          "name": "",
          "type": "uint256"
        }
      ],
      "stateMutability": "view",
      "type": "function"
    },
    {
      "inputs": [
        {
          "internalType": "uint256",
          "name": "",
          "type": "uint256"
        }
      ],
      "name": "campaigns",
      "outputs": [
        {
          "internalType": "string",
          "name": "category",
          "type": "string"
        },
        {
          "internalType": "string",
          "name": "baseURI",
          "type": "string"
        },
        {
          "internalType": "uint256",
          "name": "goal",
          "type": "uint256"
        },
        {
          "internalType": "uint256",
          "name": "grossRaised",
          "type": "uint256"
        },
        {
          "internalType": "uint256",
          "name": "netRaised",
          "type": "uint256"
        },
        {
          "internalType": "uint256",
          "name": "tipsReceived",
          "type": "uint256"
        },
        {
          "internalType": "uint256",
          "name": "editionsMinted",
          "type": "uint256"
        },
        {
          "internalType": "uint256",
          "name": "maxEditions",
          "type": "uint256"
        },
        {
          "internalType": "uint256",
          "name": "pricePerEdition",
          "type": "uint256"
        },
        {
          "internalType": "address",
          "name": "nonprofit",
          "type": "address"
        },
        {
          "internalType": "address",
          "name": "submitter",
          "type": "address"
        },
        {
          "internalType": "bool",
          "name": "active",
          "type": "bool"
        },
        {
          "internalType": "bool",
          "name": "closed",
          "type": "bool"
        },
        {
          "internalType": "bool",
          "name": "refunded",
          "type": "bool"
        },
        {
          "internalType": "bool",
          "name": "immediatePayoutEnabled",
          "type": "bool"
        }
      ],
      "stateMutability": "view",
      "type": "function"
    },
    {
      "inputs": [
        {
          "internalType": "uint256",
          "name": "campaignId",
          "type": "uint256"
        }
      ],
      "name": "closeCampaign",
      "outputs": [],
      "stateMutability": "nonpayable",
      "type": "function"
    },
    {
      "inputs": [
        {
          "internalType": "string",
          "name": "category",
          "type": "string"
        },
        {
          "internalType": "string",
          "name": "baseURI",
          "type": "string"
        },
        {
          "internalType": "uint256",
          "name": "goal",
          "type": "uint256"
        },
        {
          "internalType": "uint256",
          "name": "maxEditions",
          "type": "uint256"
        },
        {
          "internalType": "uint256",
          "name": "pricePerEdition",
          "type": "uint256"
        },
        {
          "internalType": "address",
          "name": "nonprofit",
          "type": "address"
        },
        {
          "internalType": "address",
          "name": "submitter",
          "type": "address"
        },
        {
          "internalType": "bool",
          "name": "immediatePayoutEnabled",
          "type": "bool"
        }
      ],
      "name": "createCampaign",
      "outputs": [
        {
          "internalType": "uint256",
          "name": "",
          "type": "uint256"
        }
      ],
      "stateMutability": "nonpayable",
      "type": "function"
    },
    {
      "inputs": [
        {
          "internalType": "uint256",
          "name": "campaignId",
          "type": "uint256"
        }
      ],
      "name": "deactivateCampaign",
      "outputs": [],
      "stateMutability": "nonpayable",
      "type": "function"
    },
    {
      "inputs": [],
      "name": "defaultRoyaltyBps",
      "outputs": [
        {
          "internalType": "uint96",
          "name": "",
          "type": "uint96"
        }
      ],
      "stateMutability": "view",
      "type": "function"
    },
    {
      "inputs": [],
      "name": "deleteDefaultRoyalty",
      "outputs": [],
      "stateMutability": "nonpayable",
      "type": "function"
    },
    {
      "inputs": [],
      "name": "deploymentChainId",
      "outputs": [
        {
          "internalType": "uint256",
          "name": "",
          "type": "uint256"
        }
      ],
      "stateMutability": "view",
      "type": "function"
    },
    {
      "inputs": [
        {
          "internalType": "uint256",
          "name": "campaignId",
          "type": "uint256"
        }
      ],
      "name": "distributePendingFunds",
      "outputs": [],
      "stateMutability": "nonpayable",
      "type": "function"
    },
    {
      "inputs": [],
      "name": "emergencyWithdraw",
      "outputs": [],
      "stateMutability": "nonpayable",
      "type": "function"
    },
    {
      "inputs": [
        {
          "internalType": "uint256",
          "name": "fromTokenId",
          "type": "uint256"
        },
        {
          "internalType": "uint256",
          "name": "toTokenId",
          "type": "uint256"
        }
      ],
      "name": "emitBatchMetadataUpdate",
      "outputs": [],
      "stateMutability": "nonpayable",
      "type": "function"
    },
    {
      "inputs": [
        {
          "internalType": "uint256",
          "name": "tokenId",
          "type": "uint256"
        }
      ],
      "name": "emitMetadataUpdate",
      "outputs": [],
      "stateMutability": "nonpayable",
      "type": "function"
    },
    {
      "inputs": [],
      "name": "feeConfig",
      "outputs": [
        {
          "internalType": "uint16",
          "name": "platformFeeBps",
          "type": "uint16"
        },
        {
          "internalType": "bool",
          "name": "immediatePayout",
          "type": "bool"
        }
      ],
      "stateMutability": "view",
      "type": "function"
    },
    {
      "inputs": [
        {
          "internalType": "uint256",
          "name": "tokenId",
          "type": "uint256"
        },
        {
          "internalType": "uint256",
          "name": "campaignId",
          "type": "uint256"
        }
      ],
      "name": "fixTokenCampaignLink",
      "outputs": [],
      "stateMutability": "nonpayable",
      "type": "function"
    },
    {
      "inputs": [
        {
          "internalType": "uint256",
          "name": "tokenId",
          "type": "uint256"
        }
      ],
      "name": "freezeToken",
      "outputs": [],
      "stateMutability": "nonpayable",
      "type": "function"
    },
    {
      "inputs": [
        {
          "internalType": "uint256",
          "name": "",
          "type": "uint256"
        }
      ],
      "name": "frozenTokens",
      "outputs": [
        {
          "internalType": "bool",
          "name": "",
          "type": "bool"
        }
      ],
      "stateMutability": "view",
      "type": "function"
    },
    {
      "inputs": [],
      "name": "fundBugBountyPool",
      "outputs": [],
      "stateMutability": "payable",
      "type": "function"
    },
    {
      "inputs": [
        {
          "internalType": "uint256",
          "name": "tokenId",
          "type": "uint256"
        }
      ],
      "name": "getApproved",
      "outputs": [
        {
          "internalType": "address",
          "name": "",
          "type": "address"
        }
      ],
      "stateMutability": "view",
      "type": "function"
    },
    {
      "inputs": [
        {
          "internalType": "uint256",
          "name": "campaignId",
          "type": "uint256"
        }
      ],
      "name": "getCampaign",
      "outputs": [
        {
          "internalType": "string",
          "name": "category",
          "type": "string"
        },
        {
          "internalType": "string",
          "name": "baseURI",
          "type": "string"
        },
        {
          "internalType": "uint256",
          "name": "goal",
          "type": "uint256"
        },
        {
          "internalType": "uint256",
          "name": "grossRaised",
          "type": "uint256"
        },
        {
          "internalType": "uint256",
          "name": "netRaised",
          "type": "uint256"
        },
        {
          "internalType": "uint256",
          "name": "editionsMinted",
          "type": "uint256"
        },
        {
          "internalType": "uint256",
          "name": "maxEditions",
          "type": "uint256"
        },
        {
          "internalType": "uint256",
          "name": "pricePerEdition",
          "type": "uint256"
        },
        {
          "internalType": "address",
          "name": "nonprofit",
          "type": "address"
        },
        {
          "internalType": "address",
          "name": "submitter",
          "type": "address"
        },
        {
          "internalType": "bool",
          "name": "active",
          "type": "bool"
        },
        {
          "internalType": "bool",
          "name": "closed",
          "type": "bool"
        },
        {
          "internalType": "bool",
          "name": "immediatePayoutEnabled",
          "type": "bool"
        }
      ],
      "stateMutability": "view",
      "type": "function"
    },
    {
      "inputs": [
        {
          "internalType": "uint256",
          "name": "campaignId",
          "type": "uint256"
        }
      ],
      "name": "getCampaignEditions",
      "outputs": [
        {
          "internalType": "uint256[]",
          "name": "",
          "type": "uint256[]"
        }
      ],
      "stateMutability": "view",
      "type": "function"
    },
    {
      "inputs": [
        {
          "internalType": "uint256",
          "name": "tokenId",
          "type": "uint256"
        }
      ],
      "name": "getEditionInfo",
      "outputs": [
        {
          "internalType": "uint256",
          "name": "campaignId",
          "type": "uint256"
        },
        {
          "internalType": "uint256",
          "name": "editionNumber",
          "type": "uint256"
        },
        {
          "internalType": "uint256",
          "name": "totalEditions",
          "type": "uint256"
        }
      ],
      "stateMutability": "view",
      "type": "function"
    },
    {
      "inputs": [],
      "name": "getFeeConfig",
      "outputs": [
        {
          "internalType": "uint16",
          "name": "platformFeeBps",
          "type": "uint16"
        },
        {
          "internalType": "bool",
          "name": "immediatePayout",
          "type": "bool"
        }
      ],
      "stateMutability": "view",
      "type": "function"
    },
    {
      "inputs": [
        {
          "internalType": "address",
          "name": "owner",
          "type": "address"
        },
        {
          "internalType": "address",
          "name": "operator",
          "type": "address"
        }
      ],
      "name": "isApprovedForAll",
      "outputs": [
        {
          "internalType": "bool",
          "name": "",
          "type": "bool"
        }
      ],
      "stateMutability": "view",
      "type": "function"
    },
    {
      "inputs": [
        {
          "internalType": "uint256",
          "name": "tokenId",
          "type": "uint256"
        }
      ],
      "name": "makeSoulbound",
      "outputs": [],
      "stateMutability": "nonpayable",
      "type": "function"
    },
    {
      "inputs": [
        {
          "internalType": "uint256",
          "name": "campaignId",
          "type": "uint256"
        }
      ],
      "name": "markCampaignRefunded",
      "outputs": [],
      "stateMutability": "nonpayable",
      "type": "function"
    },
    {
      "inputs": [
        {
          "internalType": "uint256",
          "name": "campaignId",
          "type": "uint256"
        },
        {
          "internalType": "uint256",
          "name": "quantity",
          "type": "uint256"
        }
      ],
      "name": "mintBatchWithBDAG",
      "outputs": [
        {
          "internalType": "uint256[]",
          "name": "",
          "type": "uint256[]"
        }
      ],
      "stateMutability": "payable",
      "type": "function"
    },
    {
      "inputs": [
        {
          "internalType": "uint256",
          "name": "campaignId",
          "type": "uint256"
        },
        {
          "internalType": "uint256",
          "name": "quantity",
          "type": "uint256"
        },
        {
          "internalType": "uint256",
          "name": "tipAmount",
          "type": "uint256"
        }
      ],
      "name": "mintBatchWithBDAGAndTip",
      "outputs": [
        {
          "internalType": "uint256[]",
          "name": "",
          "type": "uint256[]"
        }
      ],
      "stateMutability": "payable",
      "type": "function"
    },
    {
      "inputs": [
        {
          "internalType": "uint256",
          "name": "campaignId",
          "type": "uint256"
        },
        {
          "internalType": "uint256",
          "name": "quantity",
          "type": "uint256"
        }
      ],
      "name": "mintBatchWithImmediatePayout",
      "outputs": [
        {
          "internalType": "uint256[]",
          "name": "tokenIds",
          "type": "uint256[]"
        }
      ],
      "stateMutability": "payable",
      "type": "function"
    },
    {
      "inputs": [
        {
          "internalType": "uint256",
          "name": "campaignId",
          "type": "uint256"
        },
        {
          "internalType": "uint256",
          "name": "quantity",
          "type": "uint256"
        },
        {
          "internalType": "uint256",
          "name": "tipAmount",
          "type": "uint256"
        }
      ],
      "name": "mintBatchWithImmediatePayoutAndTip",
      "outputs": [
        {
          "internalType": "uint256[]",
          "name": "tokenIds",
          "type": "uint256[]"
        }
      ],
      "stateMutability": "payable",
      "type": "function"
    },
    {
      "inputs": [
        {
          "internalType": "uint256",
          "name": "campaignId",
          "type": "uint256"
        },
        {
          "internalType": "address",
          "name": "donor",
          "type": "address"
        },
        {
          "internalType": "uint256",
          "name": "amountPaid",
          "type": "uint256"
        }
      ],
      "name": "mintEditionToDonor",
      "outputs": [
        {
          "internalType": "uint256",
          "name": "",
          "type": "uint256"
        }
      ],
      "stateMutability": "nonpayable",
      "type": "function"
    },
    {
      "inputs": [
        {
          "internalType": "uint256",
          "name": "campaignId",
          "type": "uint256"
        }
      ],
      "name": "mintWithBDAG",
      "outputs": [
        {
          "internalType": "uint256",
          "name": "",
          "type": "uint256"
        }
      ],
      "stateMutability": "payable",
      "type": "function"
    },
    {
      "inputs": [
        {
          "internalType": "uint256",
          "name": "campaignId",
          "type": "uint256"
        },
        {
          "internalType": "uint256",
          "name": "tipAmount",
          "type": "uint256"
        }
      ],
      "name": "mintWithBDAGAndTip",
      "outputs": [
        {
          "internalType": "uint256",
          "name": "",
          "type": "uint256"
        }
      ],
      "stateMutability": "payable",
      "type": "function"
    },
    {
      "inputs": [
        {
          "internalType": "uint256",
          "name": "campaignId",
          "type": "uint256"
        }
      ],
      "name": "mintWithImmediatePayout",
      "outputs": [
        {
          "internalType": "uint256",
          "name": "",
          "type": "uint256"
        }
      ],
      "stateMutability": "payable",
      "type": "function"
    },
    {
      "inputs": [
        {
          "internalType": "uint256",
          "name": "campaignId",
          "type": "uint256"
        },
        {
          "internalType": "uint256",
          "name": "tipAmount",
          "type": "uint256"
        }
      ],
      "name": "mintWithImmediatePayoutAndTip",
      "outputs": [
        {
          "internalType": "uint256",
          "name": "",
          "type": "uint256"
        }
      ],
      "stateMutability": "payable",
      "type": "function"
    },
    {
      "inputs": [],
      "name": "name",
      "outputs": [
        {
          "internalType": "string",
          "name": "",
          "type": "string"
        }
      ],
      "stateMutability": "view",
      "type": "function"
    },
    {
      "inputs": [],
      "name": "owner",
      "outputs": [
        {
          "internalType": "address",
          "name": "",
          "type": "address"
        }
      ],
      "stateMutability": "view",
      "type": "function"
    },
    {
      "inputs": [
        {
          "internalType": "uint256",
          "name": "tokenId",
          "type": "uint256"
        }
      ],
      "name": "ownerOf",
      "outputs": [
        {
          "internalType": "address",
          "name": "",
          "type": "address"
        }
      ],
      "stateMutability": "view",
      "type": "function"
    },
    {
      "inputs": [],
      "name": "pause",
      "outputs": [],
      "stateMutability": "nonpayable",
      "type": "function"
    },
    {
      "inputs": [],
      "name": "paused",
      "outputs": [
        {
          "internalType": "bool",
          "name": "",
          "type": "bool"
        }
      ],
      "stateMutability": "view",
      "type": "function"
    },
    {
      "inputs": [
        {
          "internalType": "address payable",
          "name": "recipient",
          "type": "address"
        },
        {
          "internalType": "uint256",
          "name": "amount",
          "type": "uint256"
        },
        {
          "internalType": "string",
          "name": "reportId",
          "type": "string"
        }
      ],
      "name": "payBugBounty",
      "outputs": [],
      "stateMutability": "nonpayable",
      "type": "function"
    },
    {
      "inputs": [],
      "name": "platformTreasury",
      "outputs": [
        {
          "internalType": "address",
          "name": "",
          "type": "address"
        }
      ],
      "stateMutability": "view",
      "type": "function"
    },
    {
      "inputs": [
        {
          "internalType": "uint256",
          "name": "campaignId",
          "type": "uint256"
        }
      ],
      "name": "reactivateCampaign",
      "outputs": [],
      "stateMutability": "nonpayable",
      "type": "function"
    },
    {
      "inputs": [
        {
          "internalType": "uint256",
          "name": "campaignId",
          "type": "uint256"
        },
        {
          "internalType": "uint256",
          "name": "gross",
          "type": "uint256"
        },
        {
          "internalType": "uint256",
          "name": "net",
          "type": "uint256"
        },
        {
          "internalType": "uint256",
          "name": "tip",
          "type": "uint256"
        },
        {
          "internalType": "bool",
          "name": "isOnchain",
          "type": "bool"
        }
      ],
      "name": "recordContribution",
      "outputs": [],
      "stateMutability": "nonpayable",
      "type": "function"
    },
    {
      "inputs": [
        {
          "internalType": "address",
          "name": "addr",
          "type": "address"
        }
      ],
      "name": "removeBlacklist",
      "outputs": [],
      "stateMutability": "nonpayable",
      "type": "function"
    },
    {
      "inputs": [
        {
          "internalType": "uint256",
          "name": "tokenId",
          "type": "uint256"
        }
      ],
      "name": "removeSoulbound",
      "outputs": [],
      "stateMutability": "nonpayable",
      "type": "function"
    },
    {
      "inputs": [],
      "name": "renounceOwnership",
      "outputs": [],
      "stateMutability": "nonpayable",
      "type": "function"
    },
    {
      "inputs": [
        {
          "internalType": "uint256",
          "name": "campaignId",
          "type": "uint256"
        }
      ],
      "name": "reopenCampaign",
      "outputs": [],
      "stateMutability": "nonpayable",
      "type": "function"
    },
    {
      "inputs": [
        {
          "internalType": "uint256",
          "name": "tokenId",
          "type": "uint256"
        },
        {
          "internalType": "uint256",
          "name": "salePrice",
          "type": "uint256"
        }
      ],
      "name": "royaltyInfo",
      "outputs": [
        {
          "internalType": "address",
          "name": "receiver",
          "type": "address"
        },
        {
          "internalType": "uint256",
          "name": "amount",
          "type": "uint256"
        }
      ],
      "stateMutability": "view",
      "type": "function"
    },
    {
      "inputs": [
        {
          "internalType": "address",
          "name": "from",
          "type": "address"
        },
        {
          "internalType": "address",
          "name": "to",
          "type": "address"
        },
        {
          "internalType": "uint256",
          "name": "tokenId",
          "type": "uint256"
        }
      ],
      "name": "safeTransferFrom",
      "outputs": [],
      "stateMutability": "nonpayable",
      "type": "function"
    },
    {
      "inputs": [
        {
          "internalType": "address",
          "name": "from",
          "type": "address"
        },
        {
          "internalType": "address",
          "name": "to",
          "type": "address"
        },
        {
          "internalType": "uint256",
          "name": "tokenId",
          "type": "uint256"
        },
        {
          "internalType": "bytes",
          "name": "data",
          "type": "bytes"
        }
      ],
      "name": "safeTransferFrom",
      "outputs": [],
      "stateMutability": "nonpayable",
      "type": "function"
    },
    {
      "inputs": [
        {
          "internalType": "address",
          "name": "operator",
          "type": "address"
        },
        {
          "internalType": "bool",
          "name": "approved",
          "type": "bool"
        }
      ],
      "name": "setApprovalForAll",
      "outputs": [],
      "stateMutability": "nonpayable",
      "type": "function"
    },
    {
      "inputs": [
        {
          "internalType": "uint256",
          "name": "campaignId",
          "type": "uint256"
        },
        {
          "internalType": "bool",
          "name": "enabled",
          "type": "bool"
        }
      ],
      "name": "setCampaignImmediatePayout",
      "outputs": [],
      "stateMutability": "nonpayable",
      "type": "function"
    },
    {
      "inputs": [
        {
          "internalType": "address",
          "name": "receiver",
          "type": "address"
        },
        {
          "internalType": "uint96",
          "name": "feeNumerator",
          "type": "uint96"
        }
      ],
      "name": "setDefaultRoyalty",
      "outputs": [],
      "stateMutability": "nonpayable",
      "type": "function"
    },
    {
      "inputs": [
        {
          "internalType": "uint16",
          "name": "_platformFeeBps",
          "type": "uint16"
        },
        {
          "internalType": "bool",
          "name": "_immediatePayout",
          "type": "bool"
        }
      ],
      "name": "setFeeConfig",
      "outputs": [],
      "stateMutability": "nonpayable",
      "type": "function"
    },
    {
      "inputs": [
        {
          "internalType": "address",
          "name": "newTreasury",
          "type": "address"
        }
      ],
      "name": "setPlatformTreasury",
      "outputs": [],
      "stateMutability": "nonpayable",
      "type": "function"
    },
    {
      "inputs": [
        {
          "internalType": "uint256",
          "name": "tokenId",
          "type": "uint256"
        },
        {
          "internalType": "address",
          "name": "receiver",
          "type": "address"
        },
        {
          "internalType": "uint96",
          "name": "feeNumerator",
          "type": "uint96"
        }
      ],
      "name": "setTokenRoyalty",
      "outputs": [],
      "stateMutability": "nonpayable",
      "type": "function"
    },
    {
      "inputs": [
        {
          "internalType": "uint256",
          "name": "tokenId",
          "type": "uint256"
        },
        {
          "internalType": "string",
          "name": "uri",
          "type": "string"
        }
      ],
      "name": "setTokenURI",
      "outputs": [],
      "stateMutability": "nonpayable",
      "type": "function"
    },
    {
      "inputs": [
        {
          "internalType": "uint256",
          "name": "",
          "type": "uint256"
        }
      ],
      "name": "soulbound",
      "outputs": [
        {
          "internalType": "bool",
          "name": "",
          "type": "bool"
        }
      ],
      "stateMutability": "view",
      "type": "function"
    },
    {
      "inputs": [
        {
          "internalType": "bytes4",
          "name": "interfaceId",
          "type": "bytes4"
        }
      ],
      "name": "supportsInterface",
      "outputs": [
        {
          "internalType": "bool",
          "name": "",
          "type": "bool"
        }
      ],
      "stateMutability": "view",
      "type": "function"
    },
    {
      "inputs": [],
      "name": "symbol",
      "outputs": [
        {
          "internalType": "string",
          "name": "",
          "type": "string"
        }
      ],
      "stateMutability": "view",
      "type": "function"
    },
    {
      "inputs": [
        {
          "internalType": "uint256",
          "name": "index",
          "type": "uint256"
        }
      ],
      "name": "tokenByIndex",
      "outputs": [
        {
          "internalType": "uint256",
          "name": "",
          "type": "uint256"
        }
      ],
      "stateMutability": "view",
      "type": "function"
    },
    {
      "inputs": [
        {
          "internalType": "uint256",
          "name": "",
          "type": "uint256"
        }
      ],
      "name": "tokenEditionNumber",
      "outputs": [
        {
          "internalType": "uint256",
          "name": "",
          "type": "uint256"
        }
      ],
      "stateMutability": "view",
      "type": "function"
    },
    {
      "inputs": [
        {
          "internalType": "address",
          "name": "owner",
          "type": "address"
        },
        {
          "internalType": "uint256",
          "name": "index",
          "type": "uint256"
        }
      ],
      "name": "tokenOfOwnerByIndex",
      "outputs": [
        {
          "internalType": "uint256",
          "name": "",
          "type": "uint256"
        }
      ],
      "stateMutability": "view",
      "type": "function"
    },
    {
      "inputs": [
        {
          "internalType": "uint256",
          "name": "",
          "type": "uint256"
        }
      ],
      "name": "tokenToCampaign",
      "outputs": [
        {
          "internalType": "uint256",
          "name": "",
          "type": "uint256"
        }
      ],
      "stateMutability": "view",
      "type": "function"
    },
    {
      "inputs": [
        {
          "internalType": "uint256",
          "name": "tokenId",
          "type": "uint256"
        }
      ],
      "name": "tokenURI",
      "outputs": [
        {
          "internalType": "string",
          "name": "",
          "type": "string"
        }
      ],
      "stateMutability": "view",
      "type": "function"
    },
    {
      "inputs": [],
      "name": "totalCampaigns",
      "outputs": [
        {
          "internalType": "uint256",
          "name": "",
          "type": "uint256"
        }
      ],
      "stateMutability": "view",
      "type": "function"
    },
    {
      "inputs": [],
      "name": "totalSupply",
      "outputs": [
        {
          "internalType": "uint256",
          "name": "",
          "type": "uint256"
        }
      ],
      "stateMutability": "view",
      "type": "function"
    },
    {
      "inputs": [
        {
          "internalType": "address",
          "name": "from",
          "type": "address"
        },
        {
          "internalType": "address",
          "name": "to",
          "type": "address"
        },
        {
          "internalType": "uint256",
          "name": "tokenId",
          "type": "uint256"
        }
      ],
      "name": "transferFrom",
      "outputs": [],
      "stateMutability": "nonpayable",
      "type": "function"
    },
    {
      "inputs": [
        {
          "internalType": "address",
          "name": "newOwner",
          "type": "address"
        }
      ],
      "name": "transferOwnership",
      "outputs": [],
      "stateMutability": "nonpayable",
      "type": "function"
    },
    {
      "inputs": [
        {
          "internalType": "uint256",
          "name": "tokenId",
          "type": "uint256"
        }
      ],
      "name": "unfreezeToken",
      "outputs": [],
      "stateMutability": "nonpayable",
      "type": "function"
    },
    {
      "inputs": [],
      "name": "unpause",
      "outputs": [],
      "stateMutability": "nonpayable",
      "type": "function"
    },
    {
      "inputs": [
        {
          "internalType": "uint256",
          "name": "campaignId",
          "type": "uint256"
        },
        {
          "internalType": "string",
          "name": "newCategory",
          "type": "string"
        }
      ],
      "name": "updateCampaignCategory",
      "outputs": [],
      "stateMutability": "nonpayable",
      "type": "function"
    },
    {
      "inputs": [
        {
          "internalType": "uint256",
          "name": "campaignId",
          "type": "uint256"
        },
        {
          "internalType": "uint256",
          "name": "newGoal",
          "type": "uint256"
        }
      ],
      "name": "updateCampaignGoal",
      "outputs": [],
      "stateMutability": "nonpayable",
      "type": "function"
    },
    {
      "inputs": [
        {
          "internalType": "uint256",
          "name": "campaignId",
          "type": "uint256"
        },
        {
          "internalType": "uint256",
          "name": "newMax",
          "type": "uint256"
        }
      ],
      "name": "updateCampaignMaxEditions",
      "outputs": [],
      "stateMutability": "nonpayable",
      "type": "function"
    },
    {
      "inputs": [
        {
          "internalType": "uint256",
          "name": "campaignId",
          "type": "uint256"
        },
        {
          "internalType": "string",
          "name": "newBaseURI",
          "type": "string"
        }
      ],
      "name": "updateCampaignMetadata",
      "outputs": [],
      "stateMutability": "nonpayable",
      "type": "function"
    },
    {
      "inputs": [
        {
          "internalType": "uint256",
          "name": "campaignId",
          "type": "uint256"
        },
        {
          "internalType": "address",
          "name": "newNonprofit",
          "type": "address"
        }
      ],
      "name": "updateCampaignNonprofit",
      "outputs": [],
      "stateMutability": "nonpayable",
      "type": "function"
    },
    {
      "inputs": [
        {
          "internalType": "uint256",
          "name": "campaignId",
          "type": "uint256"
        },
        {
          "internalType": "uint256",
          "name": "newPrice",
          "type": "uint256"
        }
      ],
      "name": "updateCampaignPrice",
      "outputs": [],
      "stateMutability": "nonpayable",
      "type": "function"
    },
    {
      "inputs": [
        {
          "internalType": "uint256",
          "name": "campaignId",
          "type": "uint256"
        },
        {
          "internalType": "address",
          "name": "newSubmitter",
          "type": "address"
        }
      ],
      "name": "updateCampaignSubmitter",
      "outputs": [],
      "stateMutability": "nonpayable",
      "type": "function"
    },
    {
      "inputs": [
        {
          "internalType": "address payable",
          "name": "to",
          "type": "address"
        },
        {
          "internalType": "uint256",
          "name": "amount",
          "type": "uint256"
        }
      ],
      "name": "withdraw",
      "outputs": [],
      "stateMutability": "nonpayable",
      "type": "function"
    },
    {
      "stateMutability": "payable",
      "type": "receive"
    }
  ],
  "bytecode": "0x60a0604052346104c257615ea66040813803918261001c816104e5565b9384928339810103126104c25780516001600160a01b03811691908290036104c2576020015161ffff81168091036104c25761005860406104e5565b91601583527f50617472696f74506c656467652045646974696f6e0000000000000000000000602084015261008d60406104e5565b600381526250504560e81b602082015283519092906001600160401b0381116103d357600254600181811c911680156104b8575b60208210146103b557601f8111610455575b50602094601f82116001146103f2579481929394955f926103e7575b50508160011b915f199060031b1c1916176002555b82516001600160401b0381116103d357600354600181811c911680156103c9575b60208210146103b557601f8111610352575b506020601f82116001146102ef57819293945f926102e4575b50508160011b915f199060031b1c1916176003555b33156102d157600d5460405190336001600160a01b0382167f8be0079c531659141344cd1fd0a4f28419497f9722a3daafe3b4186f6b6457e05f80a36001600160a81b0319163360ff60a01b191617600d556001600e55601380546001600160601b03191660fa179055821561029c5750610bb8811161026857601180546001600160a01b03191683179055466080525f60206102006104c6565b838152015262ffffff19601754161760175560fa602061021e6104c6565b83815201526001600160a01b0316607d60a11b175f5560405161599b908161050b82396080518181816106fe015281816107c701528181610e3c01528181611ffc0152612a1c0152f35b60405162461bcd60e51b815260206004820152600c60248201526b08ccaca40e8dede40d0d2ced60a31b6044820152606490fd5b62461bcd60e51b815260206004820152601060248201526f496e76616c696420747265617375727960801b6044820152606490fd5b631e4fbdf760e01b5f525f60045260245ffd5b015190505f80610150565b601f1982169060035f52805f20915f5b81811061033a57509583600195969710610322575b505050811b01600355610165565b01515f1960f88460031b161c191690555f8080610314565b9192602060018192868b0151815501940192016102ff565b60035f527fc2575a0e9e593c00f959f8c92f12db2869c3395a3b0502d05e2516446f71f85b601f830160051c810191602084106103ab575b601f0160051c01905b8181106103a05750610137565b5f8155600101610393565b909150819061038a565b634e487b7160e01b5f52602260045260245ffd5b90607f1690610125565b634e487b7160e01b5f52604160045260245ffd5b015190505f806100ef565b601f1982169560025f52805f20915f5b88811061043d57508360019596979810610425575b505050811b01600255610104565b01515f1960f88460031b161c191690555f8080610417565b91926020600181928685015181550194019201610402565b60025f527f405787fa12a823e0f2b7631cc41b3ba8828b3321ca811111fa75cd3aa3bb5ace601f830160051c810191602084106104ae575b601f0160051c01905b8181106104a357506100d3565b5f8155600101610496565b909150819061048d565b90607f16906100c1565b5f80fd5b60408051919082016001600160401b038111838210176103d357604052565b6040519190601f01601f191682016001600160401b038111838210176103d35760405256fe6080806040526004361015610011575b005b5f905f3560e01c90816301ffc9a714613a5f5750806302932f5614613a4257806304634d8d1461395257806306fdde0314613888578063081812fc1461384c578063095ea7b314613762578063141961bc1461365557806315e5b793146135b1578063162094c4146135305780631797c8f2146134f957806318160ddd146134dc57806318d33e41146134b65780631cc76d75146133e65780631dda279b1461325f5780631e2b89831461314f5780631e5eb1d0146124cb5780631fdc217c1461307a57806323b872dd1461306357806325532ecd14612faa5780632a55205a14612f315780632a76d55314612e1d5780632f745c5914612dab5780633190b9ea14612d645780633705f2a814612cf45780633f4ba83a14612c86578063407de9df14612c5757806342842e0e14612c2857806342966c6814612b785780634639cfaa14612a9e57806347c735fc14612a4257806349942b0f146129de5780634cbdbfa9146129595780634d787ea9146128fd5780634db7bfff146128ae5780634f6ccce7146128605780635049e52f1461284357806351a0bbb2146127db5780635598f8cc146126e8578063573a2427146126be57806357487aa5146125eb5780635944c753146125215780635c975abb146124fc5780635fbbc0d2146124cb5780636352211e1461249b57806364094ced146123f35780636fb8696c1461234757806370a082311461231c578063715018a6146122c15780637a181597146122925780637cd86d60146121e75780637eca30fe146121755780638079ca0c1461212257806380b2f18d14611fbe5780638456cb5914611f5d5780638583d7c014611ddf5780638da5cb5b14611db35780638e20f98c14611ba35780638f52d21a14611a9157806395d89b41146119c257806396ab0493146119a25780639b640d43146114ca578063a0a441bb14611464578063a22cb465146113c0578063a483011414611378578063a591eea1146112f5578063aa1b103f146112d6578063b0e1c1e114611271578063b6358d9914611247578063b6854f96146111c4578063b88d4fde14611151578063badb97ff146110cc578063c1692213146110a2578063c608e72a14610f5c578063c87b56dd14610f28578063c9d5084c14610e5f578063cd0d009614610e24578063cfdbf25414610e08578063d55be8c614610deb578063d83b4f9914610cfc578063d88d6ef314610b31578063db2e21bc14610a79578063dbac26e914610a3a578063e138818c14610a11578063e1a45218146109f4578063e2ec62f91461078e578063e985e9c514610736578063eb4d68fd146106c0578063eb91e65114610653578063f2fde38b146105ca578063f3290d751461055b578063f3fef3a3146104be578063f401f8a01461048f5763fb77211c0361000f573461048c5761042636613ceb565b61042e614bc8565b818352601860205260086040842061045060ff600a83015460a81c1615613e50565b01555f5160206159065f395f51905f52606060405160208152600f60208201526e383934b1b2a832b922b234ba34b7b760891b6040820152a280f35b80fd5b503461048c57602036600319011261048c5760ff60406020926004358152601484522054166040519015158152f35b503461048c57604036600319011261048c576104d8613b18565b6024356104e3614bc8565b6104eb614d56565b80471061051f576105179183918291829182916001600160a01b03165af1610511614959565b50614988565b6001600e5580f35b60405162461bcd60e51b8152602060048201526014602482015273496e73756666696369656e742062616c616e636560601b6044820152606490fd5b503461048c57602036600319011261048c57610575613b18565b61057d614bc8565b60018060a01b0316808252601560205260408220600160ff198254161790557f97b7af35c8c05eca90f543eb78b16fdf2664d3e6c9a907286f310647d9813b71602060405160018152a280f35b503461048c57602036600319011261048c576105e4613b18565b6105ec614bc8565b6001600160a01b0316801561063f57600d80546001600160a01b0319811683179091556001600160a01b03167f8be0079c531659141344cd1fd0a4f28419497f9722a3daafe3b4186f6b6457e08380a380f35b631e4fbdf760e01b82526004829052602482fd5b503461048c57602036600319011261048c5761066d613b18565b610675614bc8565b6001600160a01b0316808252601560209081526040808420805460ff19169055518381527f97b7af35c8c05eca90f543eb78b16fdf2664d3e6c9a907286f310647d9813b719190a280f35b60206107296040846106f160ff6106d636613ceb565b9490936106e1614d38565b3381526015885220541615613ef1565b6106f9614d56565b6107247f00000000000000000000000000000000000000000000000000000000000000004614614519565b614a3d565b6001600e55604051908152f35b503461048c57604036600319011261048c576040610752613b18565b9161075b613b2e565b9260018060a01b031681526007602052209060018060a01b03165f52602052602060ff60405f2054166040519015158152f35b5061079836613ceb565b906107a1614d38565b33835260156020526107ba60ff60408520541615613ef1565b6107c2614d56565b6107ed7f00000000000000000000000000000000000000000000000000000000000000004614614519565b808352601860205260408320600a810161082b60ff8254610812828260a01c16614448565b610821828260a81c1615613e50565b60b01c1615614553565b831515806109e9575b61083d90614593565b610855600783015480159081156109d1575b506145d2565b61086e610866856008850154614417565b341015614615565b6108778461466f565b93610882813461442a565b86600685019160018601915b84811061092e5761090689895f5160206159265f395f51905f5260808e8c60ff8d600383016108be34825461440a565b90555460b81c168061091f575b1561090a57506108db34856153d1565b60405190348252346020830152604082015260016060820152a26001600e5560405191829182613d6b565b0390f35b60040161091834825461440a565b90556108db565b5060ff60175460101c166108cb565b8084846109666109aa6001958f8f908f60406109a592899261097e610978600f549b8c9b8c9761095d896144cd565b600f55546144cd565b809e556109738733614d76565b613bdc565b85614c23565b83825260196020528083832055838252601a6020528a838320558152601b60205220613fd2565b6146ae565b526040519182528460208301528a5f5160206158e65f395f51905f5260403394a40161088e565b90506109e186600686015461440a565b11155f61084f565b506032841115610834565b503461048c578060031936011261048c5760206040516127108152f35b503461048c578060031936011261048c576011546040516001600160a01b039091168152602090f35b503461048c57602036600319011261048c5760209060ff906040906001600160a01b03610a65613b18565b168152601584522054166040519015158152f35b503461048c578060031936011261048c57610a92614bc8565b610a9a614d56565b478015610aff57610abe828080808560018060a01b03601154165af1610511614959565b6011546040519182526001600160a01b0316907f5fafa99d0643513820be26656b45130b01e1c03062e1266bf36f88cbd3bd969590602090a26001600e5580f35b60405162461bcd60e51b815260206004820152600a6024820152694e6f2062616c616e636560b01b6044820152606490fd5b50602036600319011261048c57600435610b49614d38565b3382526015602052610b6260ff60408420541615613ef1565b610b6a614d56565b80825260186020526040822090600a8201610b9060ff8254610812828260a01c16614448565b610ba860078401548015908115610cee575b5061448a565b60088301549380610cda5750610bc2602094341015614615565b600f5492610bcf846144cd565b600f5560ff6006820192610be384546144cd565b809455610bf08633614d76565b610c05610bff60018501613bdc565b87614c23565b855f52601987528460405f2055855f52601a87528360405f2055845f52601b8752610c338660405f20613fd2565b60038301610c4234825461440a565b90555460b81c1680610ccb575b15610cb65750610c605f34846155f4565b604051908152348482015282825f5160206158e65f395f51905f5260403394a45f5160206159265f395f51905f52608060405134815234868201525f604082015260016060820152a26001600e55604051908152f35b600401610cc434825461440a565b9055610c60565b5060ff60175460101c16610c4f565b634e487b7160e01b81526011600452602490fd5b90506006850154105f610ba2565b503461048c57604036600319011261048c5760043561ffff811690818103610de757610d26613c7c565b90610d2f614bc8565b610bb88311610db35760207f910a28ccd5b8f99f5cbc7d92ef87e3f7ec688263eba2ae9ebb65d0b327a89c0093604051610d6881613ba0565b818152841515928391015262ff00006017549260101b169162ffffff19161717601755610dad6040519283928390929160209061ffff60408401951683521515910152565b0390a180f35b60405162461bcd60e51b815260206004820152600c60248201526b08ccaca40e8dede40d0d2ced60a31b6044820152606490fd5b8280fd5b503461048c578060031936011261048c576020604051610bb88152f35b503461048c578060031936011261048c57602060405160328152f35b503461048c578060031936011261048c5760206040517f00000000000000000000000000000000000000000000000000000000000000008152f35b503461048c57602036600319011261048c57600435610e7c614bc8565b8082526018602052600a6040832001805460ff8160a81c1615610eed57610ea960ff8260b01c1615613ff5565b600160a01b9061ffff60a01b19161790555f5160206159065f395f51905f5260606040516020815260086020820152671c995bdc195b995960c21b6040820152a280f35b60405162461bcd60e51b815260206004820152601360248201527210d85b5c185a59db881b9bdd0818db1bdcd959606a1b6044820152606490fd5b503461048c57602036600319011261048c57610906610f48600435615895565b604051918291602083526020830190613b44565b503461048c57610f6b36613cb8565b610f7793929193614bc8565b81835260186020526040832090610f9860ff600a84015460a81c1615613e50565b6001600160401b03811161108e57610fba81610fb48454613b68565b84613f36565b83601f821160011461102b5781908596610fea94959692611020575b50508160011b915f199060031b1c19161790565b90555b5f5160206159065f395f51905f52606060405160208152600860208201526763617465676f727960c01b6040820152a280f35b013590505f80610fd6565b601f198216958386526020862091865b8881106110765750836001959697981061105d575b505050811b019055610fed565b01355f19600384901b60f8161c191690555f8080611050565b9092602060018192868601358155019401910161103b565b634e487b7160e01b84526041600452602484fd5b503461048c57602036600319011261048c5760406020916004358152601983522054604051908152f35b503461048c57602036600319011261048c576004356110e9614bc8565b8082526004602052604082205461110a906001600160a01b03161515613e8e565b808252600460205260408220546001600160a01b03169061112a81615167565b7f33631bcd0a4d34a7e2c240ab0753d5adfb7284d8ac89dab6876ec785c0cfa0e68380a380f35b503461048c57608036600319011261048c5761116b613b18565b611173613b2e565b90604435606435926001600160401b0384116111c057366023850112156111c0576111ab6111bd943690602481600401359101613e1a565b926111b7838383614039565b33615798565b80f35b8480fd5b503461048c57602036600319011261048c576004356111e1614bc8565b80825260046020526040822054611202906001600160a01b03161515613e8e565b808252601460205260408220600160ff198254161790557fbf025f2b09b91dc81d2b137bed7b878fb0bd75a3bfe4708d69989fda3c63485a602060405160018152a280f35b503461048c57602036600319011261048c5760406020916004358152601a83522054604051908152f35b503461048c57602036600319011261048c5760043561128e614bc8565b808252601860205260408220600a01805461ffff60a01b1916600160a81b1790557f5e6eb33a418de5dbbc17f989f7ae362cdfbb1748c5d603137c767027a354edbc8280a280f35b503461048c578060031936011261048c576112ef614bc8565b80805580f35b503461048c57602036600319011261048c57600435611312614bc8565b80825260046020526040822054611333906001600160a01b03161515613e8e565b808252601660205260408220600160ff198254161790557f7fba17392135b4084a7d689c1f6d77139e1f1c18ee4651bf32dc35ae29ce9301602060405160018152a280f35b503461048c577f6bd5c950a8d8df17f772f5af37cb3655737899cbf903264b9795592da439661c60406113aa36613ceb565b6113b2614bc8565b82519182526020820152a180f35b503461048c57604036600319011261048c576113da613b18565b6113e2613c7c565b6001600160a01b0390911690811561145057338352600760205260408320825f5260205261141f8160405f209060ff801983541691151516179055565b60405190151581527f17307eab39ab6107e8899845ad3d59bd9653f200f220920489ca2b5937696c3160203392a380f35b630b61174360e31b83526004829052602483fd5b503461048c57602036600319011261048c57600435611481614bc8565b808252601860205260408220600a01805462ff00ff60a01b1916600160b01b1790557f4825b022b52da7a8de8063d9ea8fd654176315fff40077d4c0374f8e1d8a245b8280a280f35b503461048c5761010036600319011261048c576004356001600160401b03811161199e576114fc903690600401613c8b565b906024356001600160401b03811161199a5761151c903690600401613c8b565b909260a435929091906001600160a01b03841684036119965760c435926001600160a01b03841684036119925760e43593841515850361198e5761155e614bc8565b6115726001600160a01b03821615156148e8565b6115866001600160a01b03871615156148a8565b60105496611593886144cd565b601055604051946101e086018681106001600160401b03821117611918576040526115cd91906115c4368688613e1a565b87523691613e1a565b602085015260443560408501528760608501528760808501528760a08501528760c085015260643560e085015260843561010085015260018060a01b03861661012085015260018060a01b038116610140850152600161016085015287610180850152876101a08501528415156101c085015286885260186020526040882084518051906001600160401b038211611918576116738261166d8554613b68565b85613f36565b602090601f831160011461192c576116a192918c91836118715750508160011b915f199060031b1c19161790565b81555b60208501518051906001600160401b038211611918579060209a83926116de836116d560018f9b9a99980154613b68565b60018701613f36565b8c91601f841160011461187c5793611738847f2b284f3763c3f60985f9293b26f40161537c0fcc0bb7250a3eb0c1cb65e849ed9a9b956101c095600a9561182299926118715750508160011b915f199060031b1c19161790565b60018201555b60408401516002820155606084015160038201556080840151600482015560a080850151600583015560c0850151600683015560e0850151600783015561010085015160088301556101208501516009830180546001600160a01b0319166001600160a01b039283161790556101408601519390920180546101608701516101808801516101a089015197909801516001600160c01b0319909216959094169490941792151590911b60ff60a01b169190911793151560a81b60ff60a81b169390931791151560b01b60ff60b01b169190911790151560b81b60ff60b81b16179055565b61183960405193849360a0855260a0850191613ed1565b604435838b01526064356040840152608435606084015295151560808301526001600160a01b039081169616940390a4604051908152f35b015190505f80610fd6565b9893929190600184018a52818a20995b601f19841681106118fe5750926001837f2b284f3763c3f60985f9293b26f40161537c0fcc0bb7250a3eb0c1cb65e849ed9a9b600a9461182298976101c097601f198116106118e6575b505050811b01600182015561173e565b01515f1960f88460031b161c191690555f80806118d6565b828201518b556001909a01998d9950918e01918e0161188c565b634e487b7160e01b8b52604160045260248bfd5b838c52818c209190601f1984168d5b818110611976575090846001959493921061195e575b505050811b0181556116a4565b01515f1960f88460031b161c191690555f8080611951565b9293602060018192878601518155019501930161193b565b8780fd5b8680fd5b8580fd5b8380fd5b5080fd5b503461048c576111bd6119b436613ceb565b906119bd614bc8565b6149c6565b503461048c578060031936011261048c576040519080600354906119e582613b68565b8085529160018116908115611a6a5750600114611a0d575b61090684610f4881860382613bbb565b600381527fc2575a0e9e593c00f959f8c92f12db2869c3395a3b0502d05e2516446f71f85b939250905b808210611a5057509091508101602001610f48826119fd565b919260018160209254838588010152019101909291611a37565b60ff191660208087019190915292151560051b85019092019250610f4891508390506119fd565b503461048c57604036600319011261048c576004356001600160401b03811161199e57611ac2903690600401613d01565b6024356001600160401b03811161199a57611ae1903690600401613c8b565b9190611aeb614bc8565b845b828110611af8578580f35b6001906001600160a01b03611b2c611b1183878a613f85565b355f908152600460205260409020546001600160a01b031690565b16611b38575b01611aed565b611b58611b46828689613f85565b35611b52368887613e1a565b90614c23565b611b63818588613f85565b357fac6d62cb5d30a7fff578060cd3dcf46ff2df7991a71c2d2aabca7e558f130f786040516020815280611b9b602082018a89613ed1565b0390a2611b32565b611bac36613ceb565b611bb4614d38565b335f526015602052611bcd60ff60405f20541615613ef1565b611bd5614d56565b815f52601860205260405f2091600a830192611bfc60ff8554610812828260a01c16614448565b82151580611da8575b611c0e90614593565b611c2560078201548015908115611d9057506145d2565b611c36610866846008840154614417565b611c3f8361466f565b92611c4a813461442a565b6006830190600184015f5b848110611cf15761090688888860ff8d60038301611c7434825461440a565b90555460b81c1680611ce2575b15611ccd5750611c925f34836155f4565b5f5160206159265f395f51905f5260806040513481523460208201525f604082015260016060820152a26001600e5560405191829182613d6b565b600401611cdb34825461440a565b9055611c92565b5060ff60175460101c16611c81565b600190600f54611d00816144cd565b600f55611d0d86546144cd565b90818755611d1b8133614d76565b611d2d611d2786613bdc565b82614c23565b805f5260196020528960405f2055805f52601a6020528160405f2055895f52601b602052611d5e8160405f20613fd2565b80611d69848d6146ae565b52604051918252856020830152895f5160206158e65f395f51905f5260403394a401611c55565b9050611da085600685015461440a565b11158661084f565b506032831115611c05565b34611ddb575f366003190112611ddb57600d546040516001600160a01b039091168152602090f35b5f80fd5b34611ddb576060366003190112611ddb57611df8613b18565b602435906044356001600160401b038111611ddb57611e1b903690600401613c8b565b9091611e25614bc8565b611e2d614d56565b6001600160a01b0316928315611f24578015611eee57601254818110611eb5577fd24fd04b4a509fac28aab0419d3841217c53a8b375b372060993dc15c350ef7f93611e7c83611eab936146a1565b601255611e925f808080878b5af1610511614959565b6040519384938452604060208501526040840191613ed1565b0390a26001600e55005b60405162461bcd60e51b8152602060048201526011602482015270125b9cdd59999a58da595b9d081c1bdbdb607a1b6044820152606490fd5b60405162461bcd60e51b815260206004820152600e60248201526d125b9d985b1a5908185b5bdd5b9d60921b6044820152606490fd5b60405162461bcd60e51b8152602060048201526011602482015270125b9d985b1a59081c9958da5c1a595b9d607a1b6044820152606490fd5b34611ddb575f366003190112611ddb57611f75614bc8565b611f7d614d38565b600d805460ff60a01b1916600160a01b1790556040513381527f62e78cea01bee320cd4e420270b5ea74000d11b0c9f74754ebdbfc544b05a25890602090a1005b6020366003190112611ddb576020600435611fd7614d38565b335f5260158252611fef60ff60405f20541615613ef1565b611ff7614d56565b6120227f00000000000000000000000000000000000000000000000000000000000000004614614519565b805f526018825260405f2090600a820161204760ff8254610812828260a01c16614448565b61205e60078401548015908115612114575061448a565b61206e6008840154341015614615565b600f549261207b846144cd565b600f5560ff600682019261208f84546144cd565b80945561209c8633614d76565b6120ab610bff60018501613bdc565b855f52601987528460405f2055855f52601a87528360405f2055845f52601b87526120d98660405f20613fd2565b600383016120e834825461440a565b90555460b81c1680612105575b15610cb65750610c6034836153d1565b5060ff60175460101c166120f5565b905060068501541086610ba2565b34611ddb576020366003190112611ddb576060600435805f52601960205260405f2054905f52601a60205260405f2054815f526018602052600660405f2001549060405192835260208301526040820152f35b34611ddb576020366003190112611ddb57600435612191614bc8565b805f526018602052600a60405f200160ff60a01b1981541690555f5160206159065f395f51905f52604051806121e28160609060208152600660208201526561637469766560d01b60408201520190565b0390a2005b34611ddb576020366003190112611ddb57612200613b18565b612208614bc8565b6001600160a01b0316801561225a57601180546001600160a01b0319811683179091556001600160a01b03167f4ab5be82436d353e61ca18726e984e561f5c1cc7c6d38b29d2553c790434705a5f80a3005b60405162461bcd60e51b815260206004820152601060248201526f496e76616c696420747265617375727960801b6044820152606490fd5b34611ddb576020366003190112611ddb576004355f526016602052602060ff60405f2054166040519015158152f35b34611ddb575f366003190112611ddb576122d9614bc8565b600d80546001600160a01b031981169091555f906001600160a01b03167f8be0079c531659141344cd1fd0a4f28419497f9722a3daafe3b4186f6b6457e08280a3005b34611ddb576020366003190112611ddb57602061233f61233a613b18565b614928565b604051908152f35b34611ddb576040366003190112611ddb57600435612363613b2e565b61236b614bc8565b815f526018602052600a60405f20019061238c60ff835460a81c1615613e50565b6123a06001600160a01b03821615156148e8565b60018060a01b03166001600160601b0360a01b8254161790555f5160206159065f395f51905f5260405160208152806121e260208201604090600981526839bab136b4ba3a32b960b91b60208201520190565b34611ddb576040366003190112611ddb5760043561240f613b2e565b612417614bc8565b815f526018602052600960405f2061243960ff600a83015460a81c1615613e50565b61244d6001600160a01b03841615156148a8565b019060018060a01b03166001600160601b0360a01b8254161790555f5160206159065f395f51905f5260606040516020815260096020820152681b9bdb9c1c9bd99a5d60ba1b6040820152a2005b34611ddb576020366003190112611ddb5760206124b9600435614bef565b6040516001600160a01b039091168152f35b34611ddb575f366003190112611ddb576017546040805161ffff8316815260109290921c60ff161515602083015290f35b34611ddb575f366003190112611ddb57602060ff600d5460a01c166040519015158152f35b34611ddb576060366003190112611ddb5760043561253d613b2e565b604435906001600160601b038216809203611ddb5761255a614bc8565b61271082116125ce576001600160a01b03169182156125b8576040519261258084613ba0565b835260208084019283525f91825260019052604090209151905160a01b6001600160a01b0319166001600160a01b0391909116179055005b634b4f842960e11b5f526004525f60245260445ffd5b509063dfd1fc1b60e01b5f5260045260245261271060445260645ffd5b34611ddb576020366003190112611ddb57600435612607614bc8565b61260f614d56565b805f526018602052600460405f200190815490811561268657814710612641575f61263a93556153d1565b6001600e55005b60405162461bcd60e51b815260206004820152601d60248201527f496e73756666696369656e7420636f6e74726163742062616c616e63650000006044820152606490fd5b60405162461bcd60e51b815260206004820152601060248201526f4e6f2070656e64696e672066756e647360801b6044820152606490fd5b34611ddb576020366003190112611ddb576004355f52601c602052602060405f2054604051908152f35b34611ddb576020366003190112611ddb576004355f52601860205260405f206101a0600282015460ff8360038101546004820154600683015460078401549060088501549260018060a01b036009870154169461277b6127586001612751600a8b01549a613bdc565b9d01613bdc565b61276d6040519d8d8f9e8f9081520190613b44565b8c810360208e015290613b44565b9860408b015260608a0152608089015260a088015260c087015260e086015261010085015260018060a01b038116610120850152818160a01c161515610140850152818160a81c16151561016085015260b81c1615156101808301520390f35b34611ddb576127e936613ceb565b6127f1614bc8565b815f526018602052600260405f2061281360ff600a83015460a81c1615613e50565b01555f5160206159065f395f51905f52606060405160208152600460208201526319dbd85b60e21b6040820152a2005b34611ddb575f366003190112611ddb576020601254604051908152f35b34611ddb576020366003190112611ddb57600435600a5481101561289857612889602091613da4565b90549060031b1c604051908152f35b63295f44f760e21b5f525f60045260245260445ffd5b6109066128ec6128bd36613de5565b916128c6614d38565b335f5260156020526128df60ff60405f20541615613ef1565b6128e7614d56565b6146c2565b6001600e5560405191829182613d6b565b34611ddb576020366003190112611ddb57600435612919614bc8565b805f52601460205260405f2060ff1981541690557fbf025f2b09b91dc81d2b137bed7b878fb0bd75a3bfe4708d69989fda3c63485a60206040515f8152a2005b5f366003190112611ddb5734156129a7576129763460125461440a565b6012556040513481527f1da5cc6515d0bf0b6fb40cedcd4ef3eb9a5b820440278efc9321a4491b5dd1ef60203392a2005b60405162461bcd60e51b815260206004820152600f60248201526e4d7573742073656e642066756e647360881b6044820152606490fd5b6109066128ec6129ed36613de5565b916129f6614d38565b335f526015602052612a0f60ff60405f20541615613ef1565b612a17614d56565b6128e77f00000000000000000000000000000000000000000000000000000000000000004614614519565b34611ddb576020366003190112611ddb57600435612a5e614bc8565b805f52601660205260405f2060ff1981541690557f7fba17392135b4084a7d689c1f6d77139e1f1c18ee4651bf32dc35ae29ce930160206040515f8152a2005b34611ddb576040366003190112611ddb576004356001600160401b038111611ddb57612ace903690600401613d01565b90612ad7613c7c565b612adf614bc8565b5f5b838110612aea57005b6001906001600160a01b03612b03611b11838888613f85565b16612b0f575b01612ae1565b612b1a818686613f85565b355f526014602052612b3b8360405f209060ff801983541691151516179055565b612b46818686613f85565b357fbf025f2b09b91dc81d2b137bed7b878fb0bd75a3bfe4708d69989fda3c63485a60206040518615158152a2612b09565b34611ddb576020366003190112611ddb57600435805f52600460205260018060a01b0360405f2054163303612bf157805f526014602052612bc060ff60405f205416156144db565b612bc981615167565b33907f33631bcd0a4d34a7e2c240ab0753d5adfb7284d8ac89dab6876ec785c0cfa0e65f80a3005b60405162461bcd60e51b815260206004820152600f60248201526e2737ba103a37b5b2b71037bbb732b960891b6044820152606490fd5b34611ddb5761000f612c3936613d31565b9060405192612c49602085613bbb565b5f84526111b7838383614039565b34611ddb57612c6536613ceb565b905f52601b60205260405f208054821015611ddb5760209161288991613dd0565b34611ddb575f366003190112611ddb57612c9e614bc8565b600d5460ff8160a01c1615612ce55760ff60a01b1916600d556040513381527f5db9ee0a495bf2e6ff9c91a7834c1ba4fdd244a5e8aa4e537bd38aeae4b073aa90602090a1005b638dfc202b60e01b5f5260045ffd5b34611ddb576020366003190112611ddb576004355f52601b60205260405f206040519081602082549182815201915f5260205f20905f5b818110612d4e5761090685612d4281870382613bbb565b60405191829182613d6b565b8254845260209093019260019283019201612d2b565b34611ddb576020366003190112611ddb57612d7d614bc8565b7ff8e1a15aba9398e019f0b49df1a4fde98ee17ae345cb5f6b5e2c27f5033e8ce760206040516004358152a1005b34611ddb576040366003190112611ddb57612dc4613b18565b60243590612dd181614928565b821015612e005760018060a01b03165f52600860205260405f20905f52602052602060405f2054604051908152f35b63295f44f760e21b5f5260018060a01b031660045260245260445ffd5b34611ddb576060366003190112611ddb5760206040600435612e3d613b2e565b612e45614bc8565b815f5260188452825f2091612e7260ff600a850154612e68828260a01c16614448565b60a81c1615613e50565b612e8960078401548015908115612f23575061448a565b5f5160206158e65f395f51905f52600f54948593612ea6856144cd565b600f55612ed9612ed360016006890198612ec08a546144cd565b809a55612ecd8986614d76565b01613bdc565b86614c23565b845f526019885283825f2055845f52601a885285825f2055835f52601b8852612f0485835f20613fd2565b8151958652604435888701526001600160a01b031694a4604051908152f35b905060068501541087610ba2565b34611ddb576040612f4136613ceb565b5f918252600160205290829020546001600160a01b038116919060a01c8215612f93575b612710916001600160601b03612f7c921690614417565b83516001600160a01b039093168352046020820152f35b505f546001600160a01b038116925060a01c612f65565b34611ddb5760a0366003190112611ddb5760043560243560443560643591608435801515809103611ddb575f5160206159265f395f51905f5293608093612fef614bc8565b865f526018602052600560405f2061301160ff600a83015460a81c1615613e50565b61301b848761440a565b61302a6003830191825461440a565b90556004810161303b84825461440a565b90550161304983825461440a565b9055604051938452602084015260408301526060820152a2005b34611ddb5761000f61307436613d31565b91614039565b34611ddb576020366003190112611ddb57600435613096614bc8565b805f526018602052600a60405f2001805460ff8160a81c1661310a576130c260ff8260b01c1615613ff5565b60ff60a01b1916600160a01b1790556040805160208082526006908201526561637469766560d01b918101919091525f5160206159065f395f51905f529080606081016121e2565b60405162461bcd60e51b815260206004820152601b60248201527f43616d706169676e207065726d616e656e746c7920636c6f73656400000000006044820152606490fd5b34611ddb576040366003190112611ddb576004356001600160401b038111611ddb5761317f903690600401613d01565b906024359161318c614bc8565b5f5b81811061319757005b6001600160a01b036131ad611b11838587613f85565b166131bb575b60010161318e565b9291906131c9848284613f85565b355f5260196020528260405f2055825f52601b60205260405f20935f945f958154965b878110613226575b50600193949596501561320a575b5090506131b3565b61322090613219838688613f85565b3590613fd2565b85613202565b6132308184613dd0565b90549060031b1c613242858789613f85565b3514613250576001016131ec565b509495508594506001806131f4565b34611ddb5761326d36613cb8565b90613276614bc8565b825f526018602052600160405f2061329860ff600a83015460a81c1615613e50565b016001600160401b0383116133d2576132bb836132b58354613b68565b83613f36565b5f83601f811160011461336f57806132e7925f91613364575b508160011b915f199060031b1c19161790565b90555b825f52601b60205260405f205f5b8154811015613329578061332361331160019385613dd0565b90549060031b1c611b52368888613e1a565b016132f8565b50507fd0ed2732da48175aaae07fd675a2a78b1700515722f6675d7ff5f0e09f22f309916121e2604051928392602084526020840191613ed1565b9050840135876132d4565b50601f19841690825f528460205f20925f5b8181106133b757501061339e575b5050600183811b0190556132ea565b8301355f19600386901b60f8161c19169055848061338f565b86840135855560019094019360209384019388935001613381565b634e487b7160e01b5f52604160045260245ffd5b34611ddb576133f436613ceb565b6133fc614bc8565b815f52601860205260405f2061341c60ff600a83015460a81c1615613e50565b811580156134a8575b1561346357600701555f5160206159065f395f51905f52606060405160208152600b60208201526a6d617845646974696f6e7360a81b6040820152a2005b60405162461bcd60e51b815260206004820152601a60248201527f43616e6e6f74207265647563652062656c6f77206d696e7465640000000000006044820152606490fd5b506006810154821015613425565b34611ddb575f366003190112611ddb5760206001600160601b0360135416604051908152f35b34611ddb575f366003190112611ddb576020600a54604051908152f35b602061072961350736613ceb565b90613510614d38565b335f526015845261352860ff60405f20541615613ef1565b610724614d56565b34611ddb577fac6d62cb5d30a7fff578060cd3dcf46ff2df7991a71c2d2aabca7e558f130f7861355f36613cb8565b61356a939293614bc8565b5f8481526004602052604090205461358c906001600160a01b03161515613e8e565b61359a610978368385613e1a565b6121e2604051928392602084526020840191613ed1565b34611ddb576040366003190112611ddb576004356136156135d0613c7c565b6135d8614bc8565b825f526018602052600a60405f20016135f860ff825460a81c1615613e50565b805460ff60b81b191691151560b81b60ff60b81b16919091179055565b5f5160206159065f395f51905f5260606040516020815260166020820152751a5b5b59591a585d1954185e5bdd5d115b98589b195960521b6040820152a2005b34611ddb576020366003190112611ddb576004355f52601860205260405f206101e061368082613bdc565b9160ff61368f60018301613bdc565b6002830154926003810154600482015460058301546006840154906007850154926008860154946136ee600a60018060a01b0360098a015416980154986136e06040519e8f9e8f8181520190613b44565b8d810360208f015290613b44565b9960408c015260608b015260808a015260a089015260c088015260e087015261010086015261012085015260018060a01b038116610140850152818160a01c161515610160850152818160a81c161515610180850152818160b01c1615156101a085015260b81c1615156101c08301520390f35b34611ddb576040366003190112611ddb5761377b613b18565b60243561378781614bef565b33151580613839575b8061380c575b6137f95781906001600160a01b0384811691167f8c5be1e5ebec7d5bd14f71427d1e84f3dd0314c0f7b2291e5b200ac8c7c3b9255f80a45f90815260066020526040902080546001600160a01b0319166001600160a01b03909216919091179055005b63a9fbf51f60e01b5f523360045260245ffd5b506001600160a01b0381165f90815260076020908152604080832033845290915290205460ff1615613796565b506001600160a01b038116331415613790565b34611ddb576020366003190112611ddb5760043561386981614bef565b505f526006602052602060018060a01b0360405f205416604051908152f35b34611ddb575f366003190112611ddb576040515f6002546138a881613b68565b808452906001811690811561392e57506001146138d0575b61090683610f4881850382613bbb565b60025f9081527f405787fa12a823e0f2b7631cc41b3ba8828b3321ca811111fa75cd3aa3bb5ace939250905b80821061391457509091508101602001610f486138c0565b9192600181602092548385880101520191019092916138fc565b60ff191660208086019190915291151560051b84019091019150610f4890506138c0565b34611ddb576040366003190112611ddb5761396b613b18565b602435906001600160601b03821690818303611ddb57613989614bc8565b6127108211613a29576001600160a01b0316908115613a16577f35804d3532228d15c4fe3fa7a4fb8100c86dc285216e9c806f5d6f2cef5528399260209282846040516139d581613ba0565b83815201526001600160a01b031660a09190911b6001600160a01b031916175f55601380546bffffffffffffffffffffffff191682179055604051908152a1005b635b6cc80560e11b5f525f60045260245ffd5b50636f483d0960e01b5f5260045261271060245260445ffd5b34611ddb575f366003190112611ddb576020601054604051908152f35b34611ddb576020366003190112611ddb576004359063ffffffff60e01b8216809203611ddb57602091632483248360e11b8114908115613aa1575b5015158152f35b63780e9d6360e01b811491508115613abb575b5083613a9a565b6380ac58cd60e01b811491508115613b07575b8115613adc575b5083613ab4565b63152a902d60e11b811491508115613af6575b5083613ad5565b6301ffc9a760e01b14905083613aef565b635b5e139f60e01b81149150613ace565b600435906001600160a01b0382168203611ddb57565b602435906001600160a01b0382168203611ddb57565b805180835260209291819084018484015e5f828201840152601f01601f1916010190565b90600182811c92168015613b96575b6020831014613b8257565b634e487b7160e01b5f52602260045260245ffd5b91607f1691613b77565b604081019081106001600160401b038211176133d257604052565b90601f801991011681019081106001600160401b038211176133d257604052565b9060405191825f825492613bef84613b68565b8084529360018116908115613c5a5750600114613c16575b50613c1492500383613bbb565b565b90505f9291925260205f20905f915b818310613c3e575050906020613c14928201015f613c07565b6020919350806001915483858901015201910190918492613c25565b905060209250613c1494915060ff191682840152151560051b8201015f613c07565b602435908115158203611ddb57565b9181601f84011215611ddb578235916001600160401b038311611ddb5760208381860195010111611ddb57565b906040600319830112611ddb5760043591602435906001600160401b038211611ddb57613ce791600401613c8b565b9091565b6040906003190112611ddb576004359060243590565b9181601f84011215611ddb578235916001600160401b038311611ddb576020808501948460051b010111611ddb57565b6060906003190112611ddb576004356001600160a01b0381168103611ddb57906024356001600160a01b0381168103611ddb579060443590565b60206040818301928281528451809452019201905f5b818110613d8e5750505090565b8251845260209384019390920191600101613d81565b600a54811015613dbc57600a5f5260205f2001905f90565b634e487b7160e01b5f52603260045260245ffd5b8054821015613dbc575f5260205f2001905f90565b6060906003190112611ddb57600435906024359060443590565b6001600160401b0381116133d257601f01601f191660200190565b929192613e2682613dff565b91613e346040519384613bbb565b829481845281830111611ddb578281602093845f960137010152565b15613e5757565b60405162461bcd60e51b815260206004820152600f60248201526e10d85b5c185a59db8818db1bdcd959608a1b6044820152606490fd5b15613e9557565b60405162461bcd60e51b8152602060048201526014602482015273151bdad95b88191bd95cc81b9bdd08195e1a5cdd60621b6044820152606490fd5b908060209392818452848401375f828201840152601f01601f1916010190565b15613ef857565b60405162461bcd60e51b81526020600482015260166024820152751059191c995cdcc81a5cc8189b1858dadb1a5cdd195960521b6044820152606490fd5b601f8211613f4357505050565b5f5260205f20906020601f840160051c83019310613f7b575b601f0160051c01905b818110613f70575050565b5f8155600101613f65565b9091508190613f5c565b9190811015613dbc5760051b0190565b600a5490600160401b8210156133d257613fba826001613c149401600a55600a613dd0565b90919082549060031b91821b915f19901b1916179055565b90815491600160401b8310156133d25782613fba916001613c1495018155613dd0565b15613ffc57565b60405162461bcd60e51b815260206004820152601560248201527410d85b5c185a59db881dd85cc81c99599d5b991959605a1b6044820152606490fd5b9091906001600160a01b03831680156143f7575f838152600460205260409020546001600160a01b0316801515806143ef575b6142de575b505f838152600460205260409020546001600160a01b0316933315158061424e575b508415801561421b575b825f52600560205260405f2060018154019055845f52600460205260405f20836001600160601b0360a01b8254161790558483877fddf252ad1be2c89b69c2b068fc378daa952ba7f163c4a11628f55a4df523b3ef5f80a41561419e57600a54845f52600b60205260405f205561411384613f95565b81850361414a575b50506001600160a01b031680830361413257505050565b6364283d7b60e01b5f5260045260245260445260645ffd5b61415390614928565b5f1981019190821161418a575f52600860205260405f20815f526020528260405f2055825f52600960205260405f20555f8061411b565b634e487b7160e01b5f52601160045260245ffd5b848214614113576141ae85614928565b845f52600960205260405f205490865f52600860205260405f20918181036141f0575b50855f5260096020525f60408120555f526020525f6040812055614113565b815f528260205260405f2054815f52836020528060405f20555f52600960205260405f20555f6141d1565b5f85815260066020526040902080546001600160a01b0319169055855f52600560205260405f205f19815401905561409d565b8061428d575b1561425f575f614093565b838561427757637e27328960e01b5f5260045260245ffd5b63177e802f60e01b5f523360045260245260445ffd5b5033851480156142bc575b8061425457505f848152600660205260409020546001600160a01b03163314614254565b505f85815260076020908152604080832033845290915290205460ff16614298565b835f5260146020526142f760ff60405f205416156144db565b835f52601660205260ff60405f2054166143b5575f52601560205260ff60405f20541661437857805f52601560205260ff60405f205416614338575f614071565b60405162461bcd60e51b8152602060048201526018602482015277149958da5c1a595b9d081a5cc8189b1858dadb1a5cdd195960421b6044820152606490fd5b60405162461bcd60e51b815260206004820152601560248201527414d95b99195c881a5cc8189b1858dadb1a5cdd1959605a1b6044820152606490fd5b60405162461bcd60e51b8152602060048201526012602482015271151bdad95b881a5cc81cdbdd5b189bdd5b9960721b6044820152606490fd5b50600161406c565b633250574960e11b5f525f60045260245ffd5b9190820180921161418a57565b8181029291811591840414171561418a57565b8115614434570490565b634e487b7160e01b5f52601260045260245ffd5b1561444f57565b60405162461bcd60e51b815260206004820152601360248201527243616d706169676e206e6f742061637469766560681b6044820152606490fd5b1561449157565b60405162461bcd60e51b815260206004820152601460248201527313585e0819591a5d1a5bdb9cc81c995858da195960621b6044820152606490fd5b5f19811461418a5760010190565b156144e257565b60405162461bcd60e51b815260206004820152600f60248201526e2a37b5b2b71034b990333937bd32b760891b6044820152606490fd5b1561452057565b60405162461bcd60e51b815260206004820152600b60248201526a2bb937b7339031b430b4b760a91b6044820152606490fd5b1561455a57565b60405162461bcd60e51b815260206004820152601160248201527010d85b5c185a59db881c99599d5b991959607a1b6044820152606490fd5b1561459a57565b60405162461bcd60e51b815260206004820152601060248201526f496e76616c6964207175616e7469747960801b6044820152606490fd5b156145d957565b60405162461bcd60e51b815260206004820152601460248201527345786365656473206d61782065646974696f6e7360601b6044820152606490fd5b1561461c57565b60405162461bcd60e51b8152602060048201526014602482015273125b9cdd59999a58da595b9d081c185e5b595b9d60621b6044820152606490fd5b6001600160401b0381116133d25760051b60200190565b9061467982614658565b6146866040519182613bbb565b8281528092614697601f1991614658565b0190602036910137565b9190820391821161418a57565b8051821015613dbc5760209160051b010190565b90815f52601860205260405f2092600a8401936146ea60ff8654610812828260a01c16614448565b8215158061489d575b6146fc90614593565b6147136007820154801590811561488d57506145d2565b61472d61086683614728866008860154614417565b61440a565b6147368361466f565b9461474183346146a1565b9361474c813461442a565b6006840190600185015f5b8481106147f7575050505050918160ff60809460035f5160206159265f395f51905f5297950161478834825461440a565b90556005830161479985825461440a565b90555460b81c16806147e8575b156147d357506147b78183876155f4565b604051913483526020830152604082015260016060820152a290565b6004016147e183825461440a565b90556147b7565b5060ff60175460101c166147a6565b808a6001928d614866600f5492839261480f846144cd565b600f5561481c8b546144cd565b95868c5561482a8533614d76565b614836612ed38b613bdc565b845f5260196020528060405f2055845f52601a6020528660405f20555f52601b6020526109a58460405f20613fd2565b526040519182528560208301528c5f5160206158e65f395f51905f5260403394a401614757565b90506109e185600685015461440a565b5060328311156146f3565b156148af57565b60405162461bcd60e51b8152602060048201526011602482015270125b9d985b1a59081b9bdb9c1c9bd99a5d607a1b6044820152606490fd5b156148ef57565b60405162461bcd60e51b815260206004820152601160248201527024b73b30b634b21039bab136b4ba3a32b960791b6044820152606490fd5b6001600160a01b03168015614946575f52600560205260405f205490565b6322718ad960e21b5f525f60045260245ffd5b3d15614983573d9061496a82613dff565b916149786040519384613bbb565b82523d5f602084013e565b606090565b1561498f57565b60405162461bcd60e51b815260206004820152600f60248201526e151c985b9cd9995c8819985a5b1959608a1b6044820152606490fd5b90815f5260046020526149e660018060a01b0360405f2054161515613e8e565b815f5260196020528060405f20555f52601b60205260405f20905f918054925b838110614a185750613c149250613fd2565b82614a238284613dd0565b90549060031b1c14614a3757600101614a06565b50505050565b805f5260186020525f5160206159265f395f51905f52608060405f2093600a850190614a7460ff8354610812828260a01c16614448565b614a8b60078701548015908115614bba575061448a565b614a9c61086682600889015461440a565b600f5495614aa9876144cd565b600f556006810190614abb82546144cd565b80925560ff614aca84346146a1565b94614ad58a33614d76565b614aea614ae460018501613bdc565b8b614c23565b895f5260196020528860405f2055895f52601a6020528360405f2055885f52601b602052614b1b8a60405f20613fd2565b60038301614b2a34825461440a565b905560058301614b3b86825461440a565b90555460b81c1680614bab575b15614b965750614b598284886155f4565b60405190815234602082015286865f5160206158e65f395f51905f5260403394a4604051913483526020830152604082015260016060820152a290565b600401614ba484825461440a565b9055614b59565b5060ff60175460101c16614b48565b90506006880154105f610ba2565b600d546001600160a01b03163303614bdc57565b63118cdaa760e01b5f523360045260245ffd5b5f818152600460205260409020546001600160a01b0316908115614c11575090565b637e27328960e01b5f5260045260245ffd5b919091805f52600c60205260405f2083516001600160401b0381116133d257614c5081610fb48454613b68565b6020601f8211600114614cb057816020949392614ca4927ff8e1a15aba9398e019f0b49df1a4fde98ee17ae345cb5f6b5e2c27f5033e8ce797985f926118715750508160011b915f199060031b1c19161790565b90555b604051908152a1565b601f19821695835f52815f20965f5b818110614d20575096600192849260209796957ff8e1a15aba9398e019f0b49df1a4fde98ee17ae345cb5f6b5e2c27f5033e8ce7999a10614d08575b505050811b019055614ca7565b01515f1960f88460031b161c191690555f8080614cfb565b83830151895560019098019760209384019301614cbf565b60ff600d5460a01c16614d4757565b63d93c066560e01b5f5260045ffd5b6002600e5414614d67576002600e55565b633ee5aeb560e01b5f5260045ffd5b9060209060405190614d888383613bbb565b5f82526001600160a01b0384169384156143f7575f8281526004855260409020546001600160a01b03168015158061515f575b615052575b505f8281526004855260409020546001600160a01b031680158015919082615021575b875f526005875260405f2060018154019055845f526004875260405f20886001600160601b0360a01b8254161790558488837fddf252ad1be2c89b69c2b068fc378daa952ba7f163c4a11628f55a4df523b3ef5f80a415614fab57600a54845f52600b875260405f2055614e5684613f95565b868103614f70575b50614f5d573b614e6e5750505050565b91614eab91819495936040519384928392630a85bd0160e11b84523360048501525f60248501526044840152608060648401526084830190613b44565b03815f885af15f9181614f1d575b50614ee6575050614ec8614959565b80519182614ee35783633250574960e11b5f5260045260245ffd5b01fd5b909291506001600160e01b03191663757a42ff60e11b01614f0b57505f808080614a37565b633250574960e11b5f5260045260245ffd5b9091508381813d8311614f56575b614f358183613bbb565b81010312611ddb57516001600160e01b031981168103611ddb57905f614eb9565b503d614f2b565b6339e3563760e11b5f525f60045260245ffd5b614f7983614928565b5f19810190811161418a57875f526008875260405f20815f5287528460405f2055845f526009875260405f2055614e5e565b808714614e5657614fbb81614928565b845f526009875260405f205490825f526008885260405f2091818103614ff9575b50855f52600988525f60408120555f5286525f6040812055614e56565b815f5282895260405f2054815f52838a528060405f20555f526009895260405f20555f614fdc565b5f8581526006602052604080822080546001600160a01b031916905583825260058952902080545f19019055614de3565b825f526014855261506a60ff60405f205416156144db565b825f526016855260ff60405f205416615125575f526015845260ff60405f2054166150e857845f526015845260ff60405f2054166150a8575f614dc0565b60405162461bcd60e51b8152600481018590526018602482015277149958da5c1a595b9d081a5cc8189b1858dadb1a5cdd195960421b6044820152606490fd5b60405162461bcd60e51b815260048101859052601560248201527414d95b99195c881a5cc8189b1858dadb1a5cdd1959605a1b6044820152606490fd5b60405162461bcd60e51b8152600481018690526012602482015271151bdad95b881a5cc81cdbdd5b189bdd5b9960721b6044820152606490fd5b506001614dbb565b5f818152600460205260409020546001600160a01b0316801515806153ca575b615353575b505f818152600460205260409020546001600160a01b0316801590811580615320575b5f84815260046020526040812080546001600160a01b03191690558490837fddf252ad1be2c89b69c2b068fc378daa952ba7f163c4a11628f55a4df523b3ef8280a482156152a55750600a54835f52600b60205260405f205561521183613f95565b600a545f19810190811161418a57835f52600b60205261523560405f205491613da4565b90549060031b1c61524981613fba84613da4565b5f52600b60205260405f2055825f52600b6020525f6040812055600a548015615291575f190161527881613da4565b8154905f199060031b1b19169055600a5550614c115750565b634e487b7160e01b5f52603160045260245ffd5b15615211576152b381614928565b835f52600960205260405f205490825f52600860205260405f20918181036152f5575b50845f5260096020525f60408120555f526020525f6040812055615211565b815f528260205260405f2054815f52836020528060405f20555f52600960205260405f20555f6152d6565b5f84815260066020526040902080546001600160a01b0319169055815f52600560205260405f205f1981540190556151af565b815f52601460205261536c60ff60405f205416156144db565b815f52601660205260ff60405f2054166143b5575f52601560205260ff60405f205416614378575f805260156020527fa31547ce6245cdb9ecea19cf8c7eb9f5974025bb4075011409251ae855b30aed5460ff16614338575f61518c565b505f615187565b805f52601860205260405f206127106153f061ffff6017541685614417565b049261541f8461540081846146a1565b92855f52601c60205260405f2061541882825461440a565b90556146a1565b61542e6004840191825461440a565b905583615548575b80615476575b6080905f5160206159465f395f51905f5292600a60018060a01b03910154169460405191825260208201525f60408201525f6060820152a3565b600a8201905f8080808460018060a01b038754165af1615494614959565b5015615503575f5160206159465f395f51905f529260809260018060a01b03905416855f5160206158c65f395f51905f5260405185815260406020820152806154f760408201604090600981526839bab136b4ba3a32b960b91b60208201520190565b0390a39250905061543c565b60405162461bcd60e51b815260206004820152601960248201527f5375626d6974746572207472616e73666572206661696c6564000000000000006044820152606490fd5b5f8080808760018060a01b03601154165af1615562614959565b50156155af5760018060a01b0360115416835f5160206158c65f395f51905f526080604051888152604060208201526008604082015267706c6174666f726d60c01b6060820152a3615436565b60405162461bcd60e51b815260206004820152601c60248201527f506c6174666f726d20666565207472616e73666572206661696c6564000000006044820152606490fd5b90815f52601860205260405f209261271061561561ffff6017541684614417565b049361564b856156298461472883886146a1565b94615634858261440a565b875f52601c60205261541860405f2091825461440a565b61565a6004830191825461440a565b905584615731575b826156a2575b916080915f5160206159465f395f51905f5293600a60018060a01b03910154169560405192835260208301525f60408301526060820152a3565b91600a8301915f8080808560018060a01b038854165af16156c1614959565b5015615503575f5160206159465f395f51905f529360809360018060a01b03905416865f5160206158c65f395f51905f52604051868152604060208201528061572460408201604090600981526839bab136b4ba3a32b960b91b60208201520190565b0390a39193509150615668565b5f8080808860018060a01b03601154165af161574b614959565b50156155af5760018060a01b0360115416845f5160206158c65f395f51905f526080604051898152604060208201526008604082015267706c6174666f726d60c01b6060820152a3615662565b823b6157a6575b5050505050565b604051630a85bd0160e11b81526001600160a01b0391821660048201529181166024830152604482019390935260806064820152911691602090829081906157f2906084830190613b44565b03815f865af15f9181615850575b5061582e575061580e614959565b805190816158295782633250574960e11b5f5260045260245ffd5b602001fd5b6001600160e01b03191663757a42ff60e11b01614f0b57505f8080808061579f565b9091506020813d60201161588d575b8161586c60209383613bbb565b81010312611ddb57516001600160e01b031981168103611ddb57905f615800565b3d915061585f565b61589e81614bef565b505f52600c6020526158b260405f20613bdc565b5f6040516158c1602082613bbb565b529056fec5116d0bff033daa6db9b6cf401237ef4f85a0a6cbe32bfb53d189b3e6c4bad644a73422883fd5aac8dde6ef3688c62f25a4fb22e7a395bafb411ec4803ab1bd7a9a4f151cc0b6349bd7062416b8f68d1d73c3f457efc221520eb5547595d2d8f1a038a86c47446d2a26b7852348eee74e6d63d5a71792df01e40c2e6d0e1ca21459509071e134f17a163289d2286672b4e8c1af62c9cdd22eabdc6bee9217f3a26469706673582212200b967c3871a72fc07471b25433c40f25b476a52ec8f6b231454be7837abcaa3664736f6c634300081c0033",
  "linkReferences": {},
  "deployedLinkReferences": {}
}