{
  "_format": "hh-sol-artifact-1",
  "contractName": "PatriotPledgeNFTV7",
  "sourceName": "contracts/PatriotPledgeNFTV7.sol",
  "abi": [
    {
      "inputs": [
        {
          "internalType": "address",
          "name": "_platformTreasury",
          "type": "address"
        },
        {
          "internalType": "uint16",
          "name": "_platformFeeBps",
          "type": "uint16"
        }
      ],
      "stateMutability": "nonpayable",
      "type": "constructor"
    },
    {
      "inputs": [
        {
          "internalType": "uint256",
          "name": "numerator",
          "type": "uint256"
        },
        {
          "internalType": "uint256",
          "name": "denominator",
          "type": "uint256"
        }
      ],
      "name": "ERC2981InvalidDefaultRoyalty",
      "type": "error"
    },
    {
      "inputs": [
        {
          "internalType": "address",
          "name": "receiver",
          "type": "address"
        }
      ],
      "name": "ERC2981InvalidDefaultRoyaltyReceiver",
      "type": "error"
    },
    {
      "inputs": [
        {
          "internalType": "uint256",
          "name": "tokenId",
          "type": "uint256"
        },
        {
          "internalType": "uint256",
          "name": "numerator",
          "type": "uint256"
        },
        {
          "internalType": "uint256",
          "name": "denominator",
          "type": "uint256"
        }
      ],
      "name": "ERC2981InvalidTokenRoyalty",
      "type": "error"
    },
    {
      "inputs": [
        {
          "internalType": "uint256",
          "name": "tokenId",
          "type": "uint256"
        },
        {
          "internalType": "address",
          "name": "receiver",
          "type": "address"
        }
      ],
      "name": "ERC2981InvalidTokenRoyaltyReceiver",
      "type": "error"
    },
    {
      "inputs": [],
      "name": "ERC721EnumerableForbiddenBatchMint",
      "type": "error"
    },
    {
      "inputs": [
        {
          "internalType": "address",
          "name": "sender",
          "type": "address"
        },
        {
          "internalType": "uint256",
          "name": "tokenId",
          "type": "uint256"
        },
        {
          "internalType": "address",
          "name": "owner",
          "type": "address"
        }
      ],
      "name": "ERC721IncorrectOwner",
      "type": "error"
    },
    {
      "inputs": [
        {
          "internalType": "address",
          "name": "operator",
          "type": "address"
        },
        {
          "internalType": "uint256",
          "name": "tokenId",
          "type": "uint256"
        }
      ],
      "name": "ERC721InsufficientApproval",
      "type": "error"
    },
    {
      "inputs": [
        {
          "internalType": "address",
          "name": "approver",
          "type": "address"
        }
      ],
      "name": "ERC721InvalidApprover",
      "type": "error"
    },
    {
      "inputs": [
        {
          "internalType": "address",
          "name": "operator",
          "type": "address"
        }
      ],
      "name": "ERC721InvalidOperator",
      "type": "error"
    },
    {
      "inputs": [
        {
          "internalType": "address",
          "name": "owner",
          "type": "address"
        }
      ],
      "name": "ERC721InvalidOwner",
      "type": "error"
    },
    {
      "inputs": [
        {
          "internalType": "address",
          "name": "receiver",
          "type": "address"
        }
      ],
      "name": "ERC721InvalidReceiver",
      "type": "error"
    },
    {
      "inputs": [
        {
          "internalType": "address",
          "name": "sender",
          "type": "address"
        }
      ],
      "name": "ERC721InvalidSender",
      "type": "error"
    },
    {
      "inputs": [
        {
          "internalType": "uint256",
          "name": "tokenId",
          "type": "uint256"
        }
      ],
      "name": "ERC721NonexistentToken",
      "type": "error"
    },
    {
      "inputs": [
        {
          "internalType": "address",
          "name": "owner",
          "type": "address"
        },
        {
          "internalType": "uint256",
          "name": "index",
          "type": "uint256"
        }
      ],
      "name": "ERC721OutOfBoundsIndex",
      "type": "error"
    },
    {
      "inputs": [],
      "name": "EnforcedPause",
      "type": "error"
    },
    {
      "inputs": [],
      "name": "ExpectedPause",
      "type": "error"
    },
    {
      "inputs": [
        {
          "internalType": "address",
          "name": "owner",
          "type": "address"
        }
      ],
      "name": "OwnableInvalidOwner",
      "type": "error"
    },
    {
      "inputs": [
        {
          "internalType": "address",
          "name": "account",
          "type": "address"
        }
      ],
      "name": "OwnableUnauthorizedAccount",
      "type": "error"
    },
    {
      "inputs": [],
      "name": "ReentrancyGuardReentrantCall",
      "type": "error"
    },
    {
      "anonymous": false,
      "inputs": [
        {
          "indexed": true,
          "internalType": "address",
          "name": "addr",
          "type": "address"
        },
        {
          "indexed": false,
          "internalType": "bool",
          "name": "blacklisted",
          "type": "bool"
        }
      ],
      "name": "AddressBlacklisted",
      "type": "event"
    },
    {
      "anonymous": false,
      "inputs": [
        {
          "indexed": true,
          "internalType": "address",
          "name": "owner",
          "type": "address"
        },
        {
          "indexed": true,
          "internalType": "address",
          "name": "approved",
          "type": "address"
        },
        {
          "indexed": true,
          "internalType": "uint256",
          "name": "tokenId",
          "type": "uint256"
        }
      ],
      "name": "Approval",
      "type": "event"
    },
    {
      "anonymous": false,
      "inputs": [
        {
          "indexed": true,
          "internalType": "address",
          "name": "owner",
          "type": "address"
        },
        {
          "indexed": true,
          "internalType": "address",
          "name": "operator",
          "type": "address"
        },
        {
          "indexed": false,
          "internalType": "bool",
          "name": "approved",
          "type": "bool"
        }
      ],
      "name": "ApprovalForAll",
      "type": "event"
    },
    {
      "anonymous": false,
      "inputs": [
        {
          "indexed": false,
          "internalType": "uint256",
          "name": "_fromTokenId",
          "type": "uint256"
        },
        {
          "indexed": false,
          "internalType": "uint256",
          "name": "_toTokenId",
          "type": "uint256"
        }
      ],
      "name": "BatchMetadataUpdate",
      "type": "event"
    },
    {
      "anonymous": false,
      "inputs": [
        {
          "indexed": true,
          "internalType": "address",
          "name": "funder",
          "type": "address"
        },
        {
          "indexed": false,
          "internalType": "uint256",
          "name": "amount",
          "type": "uint256"
        }
      ],
      "name": "BugBountyFunded",
      "type": "event"
    },
    {
      "anonymous": false,
      "inputs": [
        {
          "indexed": true,
          "internalType": "address",
          "name": "recipient",
          "type": "address"
        },
        {
          "indexed": false,
          "internalType": "uint256",
          "name": "amount",
          "type": "uint256"
        },
        {
          "indexed": false,
          "internalType": "string",
          "name": "reportId",
          "type": "string"
        }
      ],
      "name": "BugBountyPaid",
      "type": "event"
    },
    {
      "anonymous": false,
      "inputs": [
        {
          "indexed": true,
          "internalType": "uint256",
          "name": "campaignId",
          "type": "uint256"
        }
      ],
      "name": "CampaignClosed",
      "type": "event"
    },
    {
      "anonymous": false,
      "inputs": [
        {
          "indexed": true,
          "internalType": "uint256",
          "name": "campaignId",
          "type": "uint256"
        },
        {
          "indexed": true,
          "internalType": "address",
          "name": "nonprofit",
          "type": "address"
        },
        {
          "indexed": true,
          "internalType": "address",
          "name": "submitter",
          "type": "address"
        },
        {
          "indexed": false,
          "internalType": "string",
          "name": "category",
          "type": "string"
        },
        {
          "indexed": false,
          "internalType": "uint256",
          "name": "goal",
          "type": "uint256"
        },
        {
          "indexed": false,
          "internalType": "uint256",
          "name": "maxEditions",
          "type": "uint256"
        },
        {
          "indexed": false,
          "internalType": "uint256",
          "name": "pricePerEdition",
          "type": "uint256"
        },
        {
          "indexed": false,
          "internalType": "bool",
          "name": "immediatePayoutEnabled",
          "type": "bool"
        }
      ],
      "name": "CampaignCreated",
      "type": "event"
    },
    {
      "anonymous": false,
      "inputs": [
        {
          "indexed": true,
          "internalType": "uint256",
          "name": "campaignId",
          "type": "uint256"
        },
        {
          "indexed": false,
          "internalType": "string",
          "name": "newBaseURI",
          "type": "string"
        }
      ],
      "name": "CampaignMetadataUpdated",
      "type": "event"
    },
    {
      "anonymous": false,
      "inputs": [
        {
          "indexed": true,
          "internalType": "uint256",
          "name": "campaignId",
          "type": "uint256"
        }
      ],
      "name": "CampaignRefunded",
      "type": "event"
    },
    {
      "anonymous": false,
      "inputs": [
        {
          "indexed": true,
          "internalType": "uint256",
          "name": "campaignId",
          "type": "uint256"
        },
        {
          "indexed": false,
          "internalType": "string",
          "name": "field",
          "type": "string"
        }
      ],
      "name": "CampaignUpdated",
      "type": "event"
    },
    {
      "anonymous": false,
      "inputs": [
        {
          "indexed": true,
          "internalType": "uint256",
          "name": "campaignId",
          "type": "uint256"
        },
        {
          "indexed": false,
          "internalType": "uint256",
          "name": "gross",
          "type": "uint256"
        },
        {
          "indexed": false,
          "internalType": "uint256",
          "name": "net",
          "type": "uint256"
        },
        {
          "indexed": false,
          "internalType": "uint256",
          "name": "tip",
          "type": "uint256"
        },
        {
          "indexed": false,
          "internalType": "bool",
          "name": "isOnchain",
          "type": "bool"
        }
      ],
      "name": "ContributionRecorded",
      "type": "event"
    },
    {
      "anonymous": false,
      "inputs": [
        {
          "indexed": false,
          "internalType": "uint96",
          "name": "newRoyaltyBps",
          "type": "uint96"
        }
      ],
      "name": "DefaultRoyaltyUpdated",
      "type": "event"
    },
    {
      "anonymous": false,
      "inputs": [
        {
          "indexed": true,
          "internalType": "uint256",
          "name": "campaignId",
          "type": "uint256"
        },
        {
          "indexed": true,
          "internalType": "uint256",
          "name": "tokenId",
          "type": "uint256"
        },
        {
          "indexed": true,
          "internalType": "address",
          "name": "donor",
          "type": "address"
        },
        {
          "indexed": false,
          "internalType": "uint256",
          "name": "editionNumber",
          "type": "uint256"
        },
        {
          "indexed": false,
          "internalType": "uint256",
          "name": "amountPaid",
          "type": "uint256"
        }
      ],
      "name": "EditionMinted",
      "type": "event"
    },
    {
      "anonymous": false,
      "inputs": [
        {
          "indexed": true,
          "internalType": "address",
          "name": "to",
          "type": "address"
        },
        {
          "indexed": false,
          "internalType": "uint256",
          "name": "amount",
          "type": "uint256"
        }
      ],
      "name": "EmergencyWithdraw",
      "type": "event"
    },
    {
      "anonymous": false,
      "inputs": [
        {
          "indexed": false,
          "internalType": "uint16",
          "name": "platformFeeBps",
          "type": "uint16"
        },
        {
          "indexed": false,
          "internalType": "bool",
          "name": "immediatePayout",
          "type": "bool"
        }
      ],
      "name": "FeeConfigUpdated",
      "type": "event"
    },
    {
      "anonymous": false,
      "inputs": [
        {
          "indexed": true,
          "internalType": "uint256",
          "name": "campaignId",
          "type": "uint256"
        },
        {
          "indexed": true,
          "internalType": "address",
          "name": "submitter",
          "type": "address"
        },
        {
          "indexed": false,
          "internalType": "uint256",
          "name": "submitterAmount",
          "type": "uint256"
        },
        {
          "indexed": false,
          "internalType": "uint256",
          "name": "platformFee",
          "type": "uint256"
        },
        {
          "indexed": false,
          "internalType": "uint256",
          "name": "nonprofitFee",
          "type": "uint256"
        },
        {
          "indexed": false,
          "internalType": "uint256",
          "name": "tipAmount",
          "type": "uint256"
        }
      ],
      "name": "FundsDistributed",
      "type": "event"
    },
    {
      "anonymous": false,
      "inputs": [
        {
          "indexed": true,
          "internalType": "uint256",
          "name": "campaignId",
          "type": "uint256"
        },
        {
          "indexed": true,
          "internalType": "address",
          "name": "recipient",
          "type": "address"
        },
        {
          "indexed": false,
          "internalType": "uint256",
          "name": "amount",
          "type": "uint256"
        },
        {
          "indexed": false,
          "internalType": "string",
          "name": "recipientType",
          "type": "string"
        }
      ],
      "name": "ImmediatePayoutSent",
      "type": "event"
    },
    {
      "anonymous": false,
      "inputs": [
        {
          "indexed": false,
          "internalType": "uint256",
          "name": "_tokenId",
          "type": "uint256"
        }
      ],
      "name": "MetadataUpdate",
      "type": "event"
    },
    {
      "anonymous": false,
      "inputs": [
        {
          "indexed": true,
          "internalType": "address",
          "name": "previousOwner",
          "type": "address"
        },
        {
          "indexed": true,
          "internalType": "address",
          "name": "newOwner",
          "type": "address"
        }
      ],
      "name": "OwnershipTransferred",
      "type": "event"
    },
    {
      "anonymous": false,
      "inputs": [
        {
          "indexed": false,
          "internalType": "address",
          "name": "account",
          "type": "address"
        }
      ],
      "name": "Paused",
      "type": "event"
    },
    {
      "anonymous": false,
      "inputs": [
        {
          "indexed": true,
          "internalType": "uint256",
          "name": "tokenId",
          "type": "uint256"
        },
        {
          "indexed": true,
          "internalType": "address",
          "name": "burner",
          "type": "address"
        }
      ],
      "name": "TokenBurned",
      "type": "event"
    },
    {
      "anonymous": false,
      "inputs": [
        {
          "indexed": true,
          "internalType": "uint256",
          "name": "tokenId",
          "type": "uint256"
        },
        {
          "indexed": false,
          "internalType": "bool",
          "name": "frozen",
          "type": "bool"
        }
      ],
      "name": "TokenFrozen",
      "type": "event"
    },
    {
      "anonymous": false,
      "inputs": [
        {
          "indexed": true,
          "internalType": "uint256",
          "name": "tokenId",
          "type": "uint256"
        },
        {
          "indexed": false,
          "internalType": "bool",
          "name": "soulbound",
          "type": "bool"
        }
      ],
      "name": "TokenSoulbound",
      "type": "event"
    },
    {
      "anonymous": false,
      "inputs": [
        {
          "indexed": true,
          "internalType": "uint256",
          "name": "tokenId",
          "type": "uint256"
        },
        {
          "indexed": false,
          "internalType": "string",
          "name": "newURI",
          "type": "string"
        }
      ],
      "name": "TokenURIFixed",
      "type": "event"
    },
    {
      "anonymous": false,
      "inputs": [
        {
          "indexed": true,
          "internalType": "address",
          "name": "from",
          "type": "address"
        },
        {
          "indexed": true,
          "internalType": "address",
          "name": "to",
          "type": "address"
        },
        {
          "indexed": true,
          "internalType": "uint256",
          "name": "tokenId",
          "type": "uint256"
        }
      ],
      "name": "Transfer",
      "type": "event"
    },
    {
      "anonymous": false,
      "inputs": [
        {
          "indexed": true,
          "internalType": "address",
          "name": "oldTreasury",
          "type": "address"
        },
        {
          "indexed": true,
          "internalType": "address",
          "name": "newTreasury",
          "type": "address"
        }
      ],
      "name": "TreasuryUpdated",
      "type": "event"
    },
    {
      "anonymous": false,
      "inputs": [
        {
          "indexed": false,
          "internalType": "address",
          "name": "account",
          "type": "address"
        }
      ],
      "name": "Unpaused",
      "type": "event"
    },
    {
      "stateMutability": "payable",
      "type": "fallback"
    },
    {
      "inputs": [],
      "name": "BPS_DENOMINATOR",
      "outputs": [
        {
          "internalType": "uint256",
          "name": "",
          "type": "uint256"
        }
      ],
      "stateMutability": "view",
      "type": "function"
    },
    {
      "inputs": [],
      "name": "MAX_BATCH_SIZE",
      "outputs": [
        {
          "internalType": "uint256",
          "name": "",
          "type": "uint256"
        }
      ],
      "stateMutability": "view",
      "type": "function"
    },
    {
      "inputs": [],
      "name": "MAX_FEE_BPS",
      "outputs": [
        {
          "internalType": "uint256",
          "name": "",
          "type": "uint256"
        }
      ],
      "stateMutability": "view",
      "type": "function"
    },
    {
      "inputs": [
        {
          "internalType": "uint256",
          "name": "tokenId",
          "type": "uint256"
        }
      ],
      "name": "adminBurn",
      "outputs": [],
      "stateMutability": "nonpayable",
      "type": "function"
    },
    {
      "inputs": [
        {
          "internalType": "address",
          "name": "to",
          "type": "address"
        },
        {
          "internalType": "uint256",
          "name": "tokenId",
          "type": "uint256"
        }
      ],
      "name": "approve",
      "outputs": [],
      "stateMutability": "nonpayable",
      "type": "function"
    },
    {
      "inputs": [
        {
          "internalType": "address",
          "name": "owner",
          "type": "address"
        }
      ],
      "name": "balanceOf",
      "outputs": [
        {
          "internalType": "uint256",
          "name": "",
          "type": "uint256"
        }
      ],
      "stateMutability": "view",
      "type": "function"
    },
    {
      "inputs": [
        {
          "internalType": "uint256[]",
          "name": "tokenIds",
          "type": "uint256[]"
        },
        {
          "internalType": "uint256",
          "name": "campaignId",
          "type": "uint256"
        }
      ],
      "name": "batchFixTokenCampaignLink",
      "outputs": [],
      "stateMutability": "nonpayable",
      "type": "function"
    },
    {
      "inputs": [
        {
          "internalType": "uint256[]",
          "name": "tokenIds",
          "type": "uint256[]"
        },
        {
          "internalType": "bool",
          "name": "freeze",
          "type": "bool"
        }
      ],
      "name": "batchFreezeTokens",
      "outputs": [],
      "stateMutability": "nonpayable",
      "type": "function"
    },
    {
      "inputs": [
        {
          "internalType": "uint256[]",
          "name": "tokenIds",
          "type": "uint256[]"
        },
        {
          "internalType": "string",
          "name": "uri",
          "type": "string"
        }
      ],
      "name": "batchSetTokenURI",
      "outputs": [],
      "stateMutability": "nonpayable",
      "type": "function"
    },
    {
      "inputs": [
        {
          "internalType": "address",
          "name": "addr",
          "type": "address"
        }
      ],
      "name": "blacklistAddress",
      "outputs": [],
      "stateMutability": "nonpayable",
      "type": "function"
    },
    {
      "inputs": [
        {
          "internalType": "address",
          "name": "",
          "type": "address"
        }
      ],
      "name": "blacklisted",
      "outputs": [
        {
          "internalType": "bool",
          "name": "",
          "type": "bool"
        }
      ],
      "stateMutability": "view",
      "type": "function"
    },
    {
      "inputs": [],
      "name": "bugBountyPool",
      "outputs": [
        {
          "internalType": "uint256",
          "name": "",
          "type": "uint256"
        }
      ],
      "stateMutability": "view",
      "type": "function"
    },
    {
      "inputs": [
        {
          "internalType": "uint256",
          "name": "tokenId",
          "type": "uint256"
        }
      ],
      "name": "burn",
      "outputs": [],
      "stateMutability": "nonpayable",
      "type": "function"
    },
    {
      "inputs": [
        {
          "internalType": "uint256",
          "name": "",
          "type": "uint256"
        }
      ],
      "name": "campaignDistributed",
      "outputs": [
        {
          "internalType": "uint256",
          "name": "",
          "type": "uint256"
        }
      ],
      "stateMutability": "view",
      "type": "function"
    },
    {
      "inputs": [
        {
          "internalType": "uint256",
          "name": "",
          "type": "uint256"
        },
        {
          "internalType": "uint256",
          "name": "",
          "type": "uint256"
        }
      ],
      "name": "campaignEditions",
      "outputs": [
        {
          "internalType": "uint256",
          "name": "",
          "type": "uint256"
        }
      ],
      "stateMutability": "view",
      "type": "function"
    },
    {
      "inputs": [
        {
          "internalType": "uint256",
          "name": "",
          "type": "uint256"
        }
      ],
      "name": "campaigns",
      "outputs": [
        {
          "internalType": "string",
          "name": "category",
          "type": "string"
        },
        {
          "internalType": "string",
          "name": "baseURI",
          "type": "string"
        },
        {
          "internalType": "uint256",
          "name": "goal",
          "type": "uint256"
        },
        {
          "internalType": "uint256",
          "name": "grossRaised",
          "type": "uint256"
        },
        {
          "internalType": "uint256",
          "name": "netRaised",
          "type": "uint256"
        },
        {
          "internalType": "uint256",
          "name": "tipsReceived",
          "type": "uint256"
        },
        {
          "internalType": "uint256",
          "name": "editionsMinted",
          "type": "uint256"
        },
        {
          "internalType": "uint256",
          "name": "maxEditions",
          "type": "uint256"
        },
        {
          "internalType": "uint256",
          "name": "pricePerEdition",
          "type": "uint256"
        },
        {
          "internalType": "address",
          "name": "nonprofit",
          "type": "address"
        },
        {
          "internalType": "address",
          "name": "submitter",
          "type": "address"
        },
        {
          "internalType": "bool",
          "name": "active",
          "type": "bool"
        },
        {
          "internalType": "bool",
          "name": "closed",
          "type": "bool"
        },
        {
          "internalType": "bool",
          "name": "refunded",
          "type": "bool"
        },
        {
          "internalType": "bool",
          "name": "immediatePayoutEnabled",
          "type": "bool"
        }
      ],
      "stateMutability": "view",
      "type": "function"
    },
    {
      "inputs": [
        {
          "internalType": "uint256",
          "name": "campaignId",
          "type": "uint256"
        }
      ],
      "name": "closeCampaign",
      "outputs": [],
      "stateMutability": "nonpayable",
      "type": "function"
    },
    {
      "inputs": [
        {
          "internalType": "string",
          "name": "category",
          "type": "string"
        },
        {
          "internalType": "string",
          "name": "baseURI",
          "type": "string"
        },
        {
          "internalType": "uint256",
          "name": "goal",
          "type": "uint256"
        },
        {
          "internalType": "uint256",
          "name": "maxEditions",
          "type": "uint256"
        },
        {
          "internalType": "uint256",
          "name": "pricePerEdition",
          "type": "uint256"
        },
        {
          "internalType": "address",
          "name": "nonprofit",
          "type": "address"
        },
        {
          "internalType": "address",
          "name": "submitter",
          "type": "address"
        },
        {
          "internalType": "bool",
          "name": "immediatePayoutEnabled",
          "type": "bool"
        }
      ],
      "name": "createCampaign",
      "outputs": [
        {
          "internalType": "uint256",
          "name": "",
          "type": "uint256"
        }
      ],
      "stateMutability": "nonpayable",
      "type": "function"
    },
    {
      "inputs": [
        {
          "internalType": "uint256",
          "name": "campaignId",
          "type": "uint256"
        }
      ],
      "name": "deactivateCampaign",
      "outputs": [],
      "stateMutability": "nonpayable",
      "type": "function"
    },
    {
      "inputs": [],
      "name": "defaultRoyaltyBps",
      "outputs": [
        {
          "internalType": "uint96",
          "name": "",
          "type": "uint96"
        }
      ],
      "stateMutability": "view",
      "type": "function"
    },
    {
      "inputs": [],
      "name": "deleteDefaultRoyalty",
      "outputs": [],
      "stateMutability": "nonpayable",
      "type": "function"
    },
    {
      "inputs": [],
      "name": "deploymentChainId",
      "outputs": [
        {
          "internalType": "uint256",
          "name": "",
          "type": "uint256"
        }
      ],
      "stateMutability": "view",
      "type": "function"
    },
    {
      "inputs": [
        {
          "internalType": "uint256",
          "name": "campaignId",
          "type": "uint256"
        }
      ],
      "name": "distributePendingFunds",
      "outputs": [],
      "stateMutability": "nonpayable",
      "type": "function"
    },
    {
      "inputs": [],
      "name": "emergencyWithdraw",
      "outputs": [],
      "stateMutability": "nonpayable",
      "type": "function"
    },
    {
      "inputs": [
        {
          "internalType": "uint256",
          "name": "fromTokenId",
          "type": "uint256"
        },
        {
          "internalType": "uint256",
          "name": "toTokenId",
          "type": "uint256"
        }
      ],
      "name": "emitBatchMetadataUpdate",
      "outputs": [],
      "stateMutability": "nonpayable",
      "type": "function"
    },
    {
      "inputs": [
        {
          "internalType": "uint256",
          "name": "tokenId",
          "type": "uint256"
        }
      ],
      "name": "emitMetadataUpdate",
      "outputs": [],
      "stateMutability": "nonpayable",
      "type": "function"
    },
    {
      "inputs": [],
      "name": "feeConfig",
      "outputs": [
        {
          "internalType": "uint16",
          "name": "platformFeeBps",
          "type": "uint16"
        },
        {
          "internalType": "bool",
          "name": "immediatePayout",
          "type": "bool"
        }
      ],
      "stateMutability": "view",
      "type": "function"
    },
    {
      "inputs": [
        {
          "internalType": "uint256",
          "name": "tokenId",
          "type": "uint256"
        },
        {
          "internalType": "uint256",
          "name": "campaignId",
          "type": "uint256"
        }
      ],
      "name": "fixTokenCampaignLink",
      "outputs": [],
      "stateMutability": "nonpayable",
      "type": "function"
    },
    {
      "inputs": [
        {
          "internalType": "uint256",
          "name": "tokenId",
          "type": "uint256"
        }
      ],
      "name": "freezeToken",
      "outputs": [],
      "stateMutability": "nonpayable",
      "type": "function"
    },
    {
      "inputs": [
        {
          "internalType": "uint256",
          "name": "",
          "type": "uint256"
        }
      ],
      "name": "frozenTokens",
      "outputs": [
        {
          "internalType": "bool",
          "name": "",
          "type": "bool"
        }
      ],
      "stateMutability": "view",
      "type": "function"
    },
    {
      "inputs": [],
      "name": "fundBugBountyPool",
      "outputs": [],
      "stateMutability": "payable",
      "type": "function"
    },
    {
      "inputs": [
        {
          "internalType": "uint256",
          "name": "tokenId",
          "type": "uint256"
        }
      ],
      "name": "getApproved",
      "outputs": [
        {
          "internalType": "address",
          "name": "",
          "type": "address"
        }
      ],
      "stateMutability": "view",
      "type": "function"
    },
    {
      "inputs": [
        {
          "internalType": "uint256",
          "name": "campaignId",
          "type": "uint256"
        }
      ],
      "name": "getCampaign",
      "outputs": [
        {
          "internalType": "string",
          "name": "category",
          "type": "string"
        },
        {
          "internalType": "string",
          "name": "baseURI",
          "type": "string"
        },
        {
          "internalType": "uint256",
          "name": "goal",
          "type": "uint256"
        },
        {
          "internalType": "uint256",
          "name": "grossRaised",
          "type": "uint256"
        },
        {
          "internalType": "uint256",
          "name": "netRaised",
          "type": "uint256"
        },
        {
          "internalType": "uint256",
          "name": "editionsMinted",
          "type": "uint256"
        },
        {
          "internalType": "uint256",
          "name": "maxEditions",
          "type": "uint256"
        },
        {
          "internalType": "uint256",
          "name": "pricePerEdition",
          "type": "uint256"
        },
        {
          "internalType": "address",
          "name": "nonprofit",
          "type": "address"
        },
        {
          "internalType": "address",
          "name": "submitter",
          "type": "address"
        },
        {
          "internalType": "bool",
          "name": "active",
          "type": "bool"
        },
        {
          "internalType": "bool",
          "name": "closed",
          "type": "bool"
        },
        {
          "internalType": "bool",
          "name": "immediatePayoutEnabled",
          "type": "bool"
        }
      ],
      "stateMutability": "view",
      "type": "function"
    },
    {
      "inputs": [
        {
          "internalType": "uint256",
          "name": "campaignId",
          "type": "uint256"
        }
      ],
      "name": "getCampaignEditions",
      "outputs": [
        {
          "internalType": "uint256[]",
          "name": "",
          "type": "uint256[]"
        }
      ],
      "stateMutability": "view",
      "type": "function"
    },
    {
      "inputs": [
        {
          "internalType": "uint256",
          "name": "tokenId",
          "type": "uint256"
        }
      ],
      "name": "getEditionInfo",
      "outputs": [
        {
          "internalType": "uint256",
          "name": "campaignId",
          "type": "uint256"
        },
        {
          "internalType": "uint256",
          "name": "editionNumber",
          "type": "uint256"
        },
        {
          "internalType": "uint256",
          "name": "totalEditions",
          "type": "uint256"
        }
      ],
      "stateMutability": "view",
      "type": "function"
    },
    {
      "inputs": [],
      "name": "getFeeConfig",
      "outputs": [
        {
          "internalType": "uint16",
          "name": "platformFeeBps",
          "type": "uint16"
        },
        {
          "internalType": "bool",
          "name": "immediatePayout",
          "type": "bool"
        }
      ],
      "stateMutability": "view",
      "type": "function"
    },
    {
      "inputs": [
        {
          "internalType": "address",
          "name": "owner",
          "type": "address"
        },
        {
          "internalType": "address",
          "name": "operator",
          "type": "address"
        }
      ],
      "name": "isApprovedForAll",
      "outputs": [
        {
          "internalType": "bool",
          "name": "",
          "type": "bool"
        }
      ],
      "stateMutability": "view",
      "type": "function"
    },
    {
      "inputs": [
        {
          "internalType": "uint256",
          "name": "tokenId",
          "type": "uint256"
        }
      ],
      "name": "makeSoulbound",
      "outputs": [],
      "stateMutability": "nonpayable",
      "type": "function"
    },
    {
      "inputs": [
        {
          "internalType": "uint256",
          "name": "campaignId",
          "type": "uint256"
        }
      ],
      "name": "markCampaignRefunded",
      "outputs": [],
      "stateMutability": "nonpayable",
      "type": "function"
    },
    {
      "inputs": [
        {
          "internalType": "uint256",
          "name": "campaignId",
          "type": "uint256"
        },
        {
          "internalType": "uint256",
          "name": "quantity",
          "type": "uint256"
        }
      ],
      "name": "mintBatchWithBDAG",
      "outputs": [
        {
          "internalType": "uint256[]",
          "name": "",
          "type": "uint256[]"
        }
      ],
      "stateMutability": "payable",
      "type": "function"
    },
    {
      "inputs": [
        {
          "internalType": "uint256",
          "name": "campaignId",
          "type": "uint256"
        },
        {
          "internalType": "uint256",
          "name": "quantity",
          "type": "uint256"
        },
        {
          "internalType": "uint256",
          "name": "tipAmount",
          "type": "uint256"
        }
      ],
      "name": "mintBatchWithBDAGAndTip",
      "outputs": [
        {
          "internalType": "uint256[]",
          "name": "",
          "type": "uint256[]"
        }
      ],
      "stateMutability": "payable",
      "type": "function"
    },
    {
      "inputs": [
        {
          "internalType": "uint256",
          "name": "campaignId",
          "type": "uint256"
        },
        {
          "internalType": "uint256",
          "name": "quantity",
          "type": "uint256"
        }
      ],
      "name": "mintBatchWithImmediatePayout",
      "outputs": [
        {
          "internalType": "uint256[]",
          "name": "tokenIds",
          "type": "uint256[]"
        }
      ],
      "stateMutability": "payable",
      "type": "function"
    },
    {
      "inputs": [
        {
          "internalType": "uint256",
          "name": "campaignId",
          "type": "uint256"
        },
        {
          "internalType": "uint256",
          "name": "quantity",
          "type": "uint256"
        },
        {
          "internalType": "uint256",
          "name": "tipAmount",
          "type": "uint256"
        }
      ],
      "name": "mintBatchWithImmediatePayoutAndTip",
      "outputs": [
        {
          "internalType": "uint256[]",
          "name": "tokenIds",
          "type": "uint256[]"
        }
      ],
      "stateMutability": "payable",
      "type": "function"
    },
    {
      "inputs": [
        {
          "internalType": "uint256",
          "name": "campaignId",
          "type": "uint256"
        },
        {
          "internalType": "address",
          "name": "donor",
          "type": "address"
        },
        {
          "internalType": "uint256",
          "name": "amountPaid",
          "type": "uint256"
        }
      ],
      "name": "mintEditionToDonor",
      "outputs": [
        {
          "internalType": "uint256",
          "name": "",
          "type": "uint256"
        }
      ],
      "stateMutability": "nonpayable",
      "type": "function"
    },
    {
      "inputs": [
        {
          "internalType": "uint256",
          "name": "campaignId",
          "type": "uint256"
        }
      ],
      "name": "mintWithBDAG",
      "outputs": [
        {
          "internalType": "uint256",
          "name": "",
          "type": "uint256"
        }
      ],
      "stateMutability": "payable",
      "type": "function"
    },
    {
      "inputs": [
        {
          "internalType": "uint256",
          "name": "campaignId",
          "type": "uint256"
        },
        {
          "internalType": "uint256",
          "name": "tipAmount",
          "type": "uint256"
        }
      ],
      "name": "mintWithBDAGAndTip",
      "outputs": [
        {
          "internalType": "uint256",
          "name": "",
          "type": "uint256"
        }
      ],
      "stateMutability": "payable",
      "type": "function"
    },
    {
      "inputs": [
        {
          "internalType": "uint256",
          "name": "campaignId",
          "type": "uint256"
        }
      ],
      "name": "mintWithImmediatePayout",
      "outputs": [
        {
          "internalType": "uint256",
          "name": "",
          "type": "uint256"
        }
      ],
      "stateMutability": "payable",
      "type": "function"
    },
    {
      "inputs": [
        {
          "internalType": "uint256",
          "name": "campaignId",
          "type": "uint256"
        },
        {
          "internalType": "uint256",
          "name": "tipAmount",
          "type": "uint256"
        }
      ],
      "name": "mintWithImmediatePayoutAndTip",
      "outputs": [
        {
          "internalType": "uint256",
          "name": "",
          "type": "uint256"
        }
      ],
      "stateMutability": "payable",
      "type": "function"
    },
    {
      "inputs": [],
      "name": "name",
      "outputs": [
        {
          "internalType": "string",
          "name": "",
          "type": "string"
        }
      ],
      "stateMutability": "view",
      "type": "function"
    },
    {
      "inputs": [],
      "name": "owner",
      "outputs": [
        {
          "internalType": "address",
          "name": "",
          "type": "address"
        }
      ],
      "stateMutability": "view",
      "type": "function"
    },
    {
      "inputs": [
        {
          "internalType": "uint256",
          "name": "tokenId",
          "type": "uint256"
        }
      ],
      "name": "ownerOf",
      "outputs": [
        {
          "internalType": "address",
          "name": "",
          "type": "address"
        }
      ],
      "stateMutability": "view",
      "type": "function"
    },
    {
      "inputs": [],
      "name": "pause",
      "outputs": [],
      "stateMutability": "nonpayable",
      "type": "function"
    },
    {
      "inputs": [],
      "name": "paused",
      "outputs": [
        {
          "internalType": "bool",
          "name": "",
          "type": "bool"
        }
      ],
      "stateMutability": "view",
      "type": "function"
    },
    {
      "inputs": [
        {
          "internalType": "address payable",
          "name": "recipient",
          "type": "address"
        },
        {
          "internalType": "uint256",
          "name": "amount",
          "type": "uint256"
        },
        {
          "internalType": "string",
          "name": "reportId",
          "type": "string"
        }
      ],
      "name": "payBugBounty",
      "outputs": [],
      "stateMutability": "nonpayable",
      "type": "function"
    },
    {
      "inputs": [],
      "name": "platformTreasury",
      "outputs": [
        {
          "internalType": "address",
          "name": "",
          "type": "address"
        }
      ],
      "stateMutability": "view",
      "type": "function"
    },
    {
      "inputs": [
        {
          "internalType": "uint256",
          "name": "campaignId",
          "type": "uint256"
        }
      ],
      "name": "reactivateCampaign",
      "outputs": [],
      "stateMutability": "nonpayable",
      "type": "function"
    },
    {
      "inputs": [
        {
          "internalType": "uint256",
          "name": "campaignId",
          "type": "uint256"
        },
        {
          "internalType": "uint256",
          "name": "gross",
          "type": "uint256"
        },
        {
          "internalType": "uint256",
          "name": "net",
          "type": "uint256"
        },
        {
          "internalType": "uint256",
          "name": "tip",
          "type": "uint256"
        },
        {
          "internalType": "bool",
          "name": "isOnchain",
          "type": "bool"
        }
      ],
      "name": "recordContribution",
      "outputs": [],
      "stateMutability": "nonpayable",
      "type": "function"
    },
    {
      "inputs": [
        {
          "internalType": "address",
          "name": "addr",
          "type": "address"
        }
      ],
      "name": "removeBlacklist",
      "outputs": [],
      "stateMutability": "nonpayable",
      "type": "function"
    },
    {
      "inputs": [
        {
          "internalType": "uint256",
          "name": "tokenId",
          "type": "uint256"
        }
      ],
      "name": "removeSoulbound",
      "outputs": [],
      "stateMutability": "nonpayable",
      "type": "function"
    },
    {
      "inputs": [],
      "name": "renounceOwnership",
      "outputs": [],
      "stateMutability": "nonpayable",
      "type": "function"
    },
    {
      "inputs": [
        {
          "internalType": "uint256",
          "name": "tokenId",
          "type": "uint256"
        },
        {
          "internalType": "uint256",
          "name": "salePrice",
          "type": "uint256"
        }
      ],
      "name": "royaltyInfo",
      "outputs": [
        {
          "internalType": "address",
          "name": "",
          "type": "address"
        },
        {
          "internalType": "uint256",
          "name": "",
          "type": "uint256"
        }
      ],
      "stateMutability": "view",
      "type": "function"
    },
    {
      "inputs": [
        {
          "internalType": "address",
          "name": "from",
          "type": "address"
        },
        {
          "internalType": "address",
          "name": "to",
          "type": "address"
        },
        {
          "internalType": "uint256",
          "name": "tokenId",
          "type": "uint256"
        }
      ],
      "name": "safeTransferFrom",
      "outputs": [],
      "stateMutability": "nonpayable",
      "type": "function"
    },
    {
      "inputs": [
        {
          "internalType": "address",
          "name": "from",
          "type": "address"
        },
        {
          "internalType": "address",
          "name": "to",
          "type": "address"
        },
        {
          "internalType": "uint256",
          "name": "tokenId",
          "type": "uint256"
        },
        {
          "internalType": "bytes",
          "name": "data",
          "type": "bytes"
        }
      ],
      "name": "safeTransferFrom",
      "outputs": [],
      "stateMutability": "nonpayable",
      "type": "function"
    },
    {
      "inputs": [
        {
          "internalType": "address",
          "name": "operator",
          "type": "address"
        },
        {
          "internalType": "bool",
          "name": "approved",
          "type": "bool"
        }
      ],
      "name": "setApprovalForAll",
      "outputs": [],
      "stateMutability": "nonpayable",
      "type": "function"
    },
    {
      "inputs": [
        {
          "internalType": "uint256",
          "name": "campaignId",
          "type": "uint256"
        },
        {
          "internalType": "bool",
          "name": "enabled",
          "type": "bool"
        }
      ],
      "name": "setCampaignImmediatePayout",
      "outputs": [],
      "stateMutability": "nonpayable",
      "type": "function"
    },
    {
      "inputs": [
        {
          "internalType": "address",
          "name": "receiver",
          "type": "address"
        },
        {
          "internalType": "uint96",
          "name": "feeNumerator",
          "type": "uint96"
        }
      ],
      "name": "setDefaultRoyalty",
      "outputs": [],
      "stateMutability": "nonpayable",
      "type": "function"
    },
    {
      "inputs": [
        {
          "internalType": "uint16",
          "name": "_platformFeeBps",
          "type": "uint16"
        },
        {
          "internalType": "bool",
          "name": "_immediatePayout",
          "type": "bool"
        }
      ],
      "name": "setFeeConfig",
      "outputs": [],
      "stateMutability": "nonpayable",
      "type": "function"
    },
    {
      "inputs": [
        {
          "internalType": "address",
          "name": "newTreasury",
          "type": "address"
        }
      ],
      "name": "setPlatformTreasury",
      "outputs": [],
      "stateMutability": "nonpayable",
      "type": "function"
    },
    {
      "inputs": [
        {
          "internalType": "uint256",
          "name": "tokenId",
          "type": "uint256"
        },
        {
          "internalType": "address",
          "name": "receiver",
          "type": "address"
        },
        {
          "internalType": "uint96",
          "name": "feeNumerator",
          "type": "uint96"
        }
      ],
      "name": "setTokenRoyalty",
      "outputs": [],
      "stateMutability": "nonpayable",
      "type": "function"
    },
    {
      "inputs": [
        {
          "internalType": "uint256",
          "name": "tokenId",
          "type": "uint256"
        },
        {
          "internalType": "string",
          "name": "uri",
          "type": "string"
        }
      ],
      "name": "setTokenURI",
      "outputs": [],
      "stateMutability": "nonpayable",
      "type": "function"
    },
    {
      "inputs": [
        {
          "internalType": "uint256",
          "name": "",
          "type": "uint256"
        }
      ],
      "name": "soulbound",
      "outputs": [
        {
          "internalType": "bool",
          "name": "",
          "type": "bool"
        }
      ],
      "stateMutability": "view",
      "type": "function"
    },
    {
      "inputs": [
        {
          "internalType": "bytes4",
          "name": "interfaceId",
          "type": "bytes4"
        }
      ],
      "name": "supportsInterface",
      "outputs": [
        {
          "internalType": "bool",
          "name": "",
          "type": "bool"
        }
      ],
      "stateMutability": "view",
      "type": "function"
    },
    {
      "inputs": [],
      "name": "symbol",
      "outputs": [
        {
          "internalType": "string",
          "name": "",
          "type": "string"
        }
      ],
      "stateMutability": "view",
      "type": "function"
    },
    {
      "inputs": [
        {
          "internalType": "uint256",
          "name": "index",
          "type": "uint256"
        }
      ],
      "name": "tokenByIndex",
      "outputs": [
        {
          "internalType": "uint256",
          "name": "",
          "type": "uint256"
        }
      ],
      "stateMutability": "view",
      "type": "function"
    },
    {
      "inputs": [
        {
          "internalType": "uint256",
          "name": "",
          "type": "uint256"
        }
      ],
      "name": "tokenEditionNumber",
      "outputs": [
        {
          "internalType": "uint256",
          "name": "",
          "type": "uint256"
        }
      ],
      "stateMutability": "view",
      "type": "function"
    },
    {
      "inputs": [
        {
          "internalType": "address",
          "name": "owner",
          "type": "address"
        },
        {
          "internalType": "uint256",
          "name": "index",
          "type": "uint256"
        }
      ],
      "name": "tokenOfOwnerByIndex",
      "outputs": [
        {
          "internalType": "uint256",
          "name": "",
          "type": "uint256"
        }
      ],
      "stateMutability": "view",
      "type": "function"
    },
    {
      "inputs": [
        {
          "internalType": "uint256",
          "name": "",
          "type": "uint256"
        }
      ],
      "name": "tokenToCampaign",
      "outputs": [
        {
          "internalType": "uint256",
          "name": "",
          "type": "uint256"
        }
      ],
      "stateMutability": "view",
      "type": "function"
    },
    {
      "inputs": [
        {
          "internalType": "uint256",
          "name": "tokenId",
          "type": "uint256"
        }
      ],
      "name": "tokenURI",
      "outputs": [
        {
          "internalType": "string",
          "name": "",
          "type": "string"
        }
      ],
      "stateMutability": "view",
      "type": "function"
    },
    {
      "inputs": [],
      "name": "totalCampaigns",
      "outputs": [
        {
          "internalType": "uint256",
          "name": "",
          "type": "uint256"
        }
      ],
      "stateMutability": "view",
      "type": "function"
    },
    {
      "inputs": [],
      "name": "totalSupply",
      "outputs": [
        {
          "internalType": "uint256",
          "name": "",
          "type": "uint256"
        }
      ],
      "stateMutability": "view",
      "type": "function"
    },
    {
      "inputs": [
        {
          "internalType": "address",
          "name": "from",
          "type": "address"
        },
        {
          "internalType": "address",
          "name": "to",
          "type": "address"
        },
        {
          "internalType": "uint256",
          "name": "tokenId",
          "type": "uint256"
        }
      ],
      "name": "transferFrom",
      "outputs": [],
      "stateMutability": "nonpayable",
      "type": "function"
    },
    {
      "inputs": [
        {
          "internalType": "address",
          "name": "newOwner",
          "type": "address"
        }
      ],
      "name": "transferOwnership",
      "outputs": [],
      "stateMutability": "nonpayable",
      "type": "function"
    },
    {
      "inputs": [
        {
          "internalType": "uint256",
          "name": "tokenId",
          "type": "uint256"
        }
      ],
      "name": "unfreezeToken",
      "outputs": [],
      "stateMutability": "nonpayable",
      "type": "function"
    },
    {
      "inputs": [],
      "name": "unpause",
      "outputs": [],
      "stateMutability": "nonpayable",
      "type": "function"
    },
    {
      "inputs": [
        {
          "internalType": "uint256",
          "name": "campaignId",
          "type": "uint256"
        },
        {
          "internalType": "string",
          "name": "newCategory",
          "type": "string"
        }
      ],
      "name": "updateCampaignCategory",
      "outputs": [],
      "stateMutability": "nonpayable",
      "type": "function"
    },
    {
      "inputs": [
        {
          "internalType": "uint256",
          "name": "campaignId",
          "type": "uint256"
        },
        {
          "internalType": "uint256",
          "name": "newGoal",
          "type": "uint256"
        }
      ],
      "name": "updateCampaignGoal",
      "outputs": [],
      "stateMutability": "nonpayable",
      "type": "function"
    },
    {
      "inputs": [
        {
          "internalType": "uint256",
          "name": "campaignId",
          "type": "uint256"
        },
        {
          "internalType": "uint256",
          "name": "newMax",
          "type": "uint256"
        }
      ],
      "name": "updateCampaignMaxEditions",
      "outputs": [],
      "stateMutability": "nonpayable",
      "type": "function"
    },
    {
      "inputs": [
        {
          "internalType": "uint256",
          "name": "campaignId",
          "type": "uint256"
        },
        {
          "internalType": "string",
          "name": "newBaseURI",
          "type": "string"
        }
      ],
      "name": "updateCampaignMetadata",
      "outputs": [],
      "stateMutability": "nonpayable",
      "type": "function"
    },
    {
      "inputs": [
        {
          "internalType": "uint256",
          "name": "campaignId",
          "type": "uint256"
        },
        {
          "internalType": "address",
          "name": "newNonprofit",
          "type": "address"
        }
      ],
      "name": "updateCampaignNonprofit",
      "outputs": [],
      "stateMutability": "nonpayable",
      "type": "function"
    },
    {
      "inputs": [
        {
          "internalType": "uint256",
          "name": "campaignId",
          "type": "uint256"
        },
        {
          "internalType": "uint256",
          "name": "newPrice",
          "type": "uint256"
        }
      ],
      "name": "updateCampaignPrice",
      "outputs": [],
      "stateMutability": "nonpayable",
      "type": "function"
    },
    {
      "inputs": [
        {
          "internalType": "uint256",
          "name": "campaignId",
          "type": "uint256"
        },
        {
          "internalType": "address",
          "name": "newSubmitter",
          "type": "address"
        }
      ],
      "name": "updateCampaignSubmitter",
      "outputs": [],
      "stateMutability": "nonpayable",
      "type": "function"
    },
    {
      "inputs": [
        {
          "internalType": "address payable",
          "name": "to",
          "type": "address"
        },
        {
          "internalType": "uint256",
          "name": "amount",
          "type": "uint256"
        }
      ],
      "name": "withdraw",
      "outputs": [],
      "stateMutability": "nonpayable",
      "type": "function"
    },
    {
      "stateMutability": "payable",
      "type": "receive"
    }
  ],
  "bytecode": "0x60a034620004cc5762005e9b90601f19906001600160401b03601f38859003818101851684019083821185831017620003de5780859160409889948552833981010312620004cc5782516001600160a01b038082169590929091869003620004cc576020809501519361ffff8516809503620004cc576200007f620004d1565b92601584527f50617472696f74506c656467652045646974696f6e000000000000000000000087850152620000b3620004d1565b926003938481526250504560e81b898201528551848111620003de576002546001978882811c92168015620004c1575b8c831014620003bd578b828685941162000467575b50508b908583116001146200040057600092620003f4575b505060001982881b1c191690871b176002555b8051938411620003de578454928684811c94168015620003d3575b8a851014620003bd57838386951162000363575b5089928411600114620002ff5750600092620002f3575b505060001982841b1c191690831b1790555b3315620002db57600d54865192339082167f8be0079c531659141344cd1fd0a4f28419497f9722a3daafe3b4186f6b6457e0600080a36001600160a81b0319163360ff60a01b191617600d55600e55601380546001600160601b03191660fa1790558315620002a65750610bb881116200027357601180546001600160a01b031916841790554660805260fa919060008262000216620004d1565b838152015262ffffff19601754161760175562000232620004d1565b8381520152607d60a11b17600055516159a99081620004f28239608051818181610705015281816107d001528181610e2401528181611e9f01526127d90152f35b835162461bcd60e51b815260048101839052600c60248201526b08ccaca40e8dede40d0d2ced60a31b6044820152606490fd5b62461bcd60e51b815260048101839052601060248201526f496e76616c696420747265617375727960801b6044820152606490fd5b8551631e4fbdf760e01b815260006004820152602490fd5b01519050388062000169565b8694929192169185600052896000209260005b8b8282106200034c575050841162000333575b505050811b0190556200017b565b015160001983861b60f8161c1916905538808062000325565b838501518655899790950194938401930162000312565b909192935085600052896000208480870160051c8201928c8810620003b3575b9187968a92969594930160051c01915b828110620003a357505062000152565b6000815587965089910162000393565b9250819262000383565b634e487b7160e01b600052602260045260246000fd5b93607f16936200013e565b634e487b7160e01b600052604160045260246000fd5b01519050388062000110565b908c91878b9516600260005283600020936000905b8282106200044f575050841162000436575b505050811b0160025562000123565b0151600019838a1b60f8161c1916905538808062000427565b8385015186558d979095019493840193018f62000415565b90919250600260005285826000209181860160051c8301938610620004b7575b918b91869594930160051c01915b828110620004a757508d9150620000f8565b600081558594508b910162000495565b9250819262000487565b91607f1691620000e3565b600080fd5b60408051919082016001600160401b03811183821017620003de5760405256fe608080604052600436101561001a575b50361561001857005b005b60003560e01c90816301ffc9a7146138ca5750806302932f56146138ac57806304634d8d146137bb57806306fdde031461370d578063081812fc146136cf578063095ea7b3146135e8578063141961bc146134db57806315e5b79314613434578063162094c4146133ac5780631797c8f21461337357806318160ddd1461335557806318d33e411461332e5780631cc76d751461325b5780631dda279b146130ca5780631e2b898314612fb45780631e5eb1d01461226c5780631fdc217c14612ea457806323b872dd14612e8d57806325532ecd14612dd15780632a55205a14612d1f5780632a76d55314612c045780632f745c5914612b805780633190b9ea14612b395780633705f2a814612ac05780633f4ba83a14612a4e578063407de9df14612a1d57806342842e0e146129ef57806342966c681461293a5780634639cfaa1461285e57806347c735fc146127ff57806349942b0f146127995780634cbdbfa9146127135780634d787ea9146126b45780634db7bfff146126635780634f6ccce71461260d5780635049e52f146125ef57806351a0bbb2146125845780635598f8cc14612494578063573a24271461246857806357487aa5146123995780635944c753146122c45780635c975abb1461229e5780635fbbc0d21461226c5780636352211e1461223c57806364094ced146121975780636fb8696c146120ef57806370a08231146120c4578063715018a6146120675780637a181597146120365780637cd86d6014611f8e5780637eca30fe14611f195780638079ca0c14611ec557806380b2f18d14611e5e5780638456cb5914611dfc5780638583d7c014611c7d5780638da5cb5b14611c545780638e20f98c14611b0d5780638f52d21a14611a0157806395d89b411461191e57806396ab0493146118ff5780639b640d431461142c578063a0a441bb146113c6578063a22cb4651461131b578063a4830114146112d5578063a591eea114611250578063aa1b103f14611231578063b0e1c1e1146111cc578063b6358d99146111a0578063b6854f961461111b578063b88d4fde146110b1578063badb97ff1461102f578063c169221314611003578063c608e72a14610ea0578063c87b56dd14610e47578063cd0d009614610e0c578063cfdbf25414610df0578063d55be8c614610dd3578063d83b4f9914610cea578063d88d6ef314610b3b578063db2e21bc14610a8c578063dbac26e914610a4d578063e138818c14610a24578063e1a4521814610a07578063e2ec62f914610793578063e985e9c51461073d578063eb4d68fd146106c7578063eb91e6511461065b578063f2fde38b146105d2578063f3290d7514610563578063f3fef3a3146104c7578063f401f8a0146104965763fb77211c1461041b573861000f565b346104915761042936613b94565b610431614a74565b8160005260186020526008604060002061045560ff600a83015460a81c1615613d1c565b0155600080516020615914833981519152606060405160208152600f60208201526e383934b1b2a832b922b234ba34b7b760891b6040820152a2005b600080fd5b34610491576020366003190112610491576004356000526014602052602060ff604060002054166040519015158152f35b34610491576040366003190112610491576104e0613983565b6024356104eb614a74565b6104f3614c2b565b80471061052757610520916000918291829182916001600160a01b03165af161051a614811565b50614841565b6001600e55005b60405162461bcd60e51b8152602060048201526014602482015273496e73756666696369656e742062616c616e636560601b6044820152606490fd5b346104915760203660031901126104915761057c613983565b610584614a74565b60018060a01b03168060005260156020526040600020600160ff198254161790557f97b7af35c8c05eca90f543eb78b16fdf2664d3e6c9a907286f310647d9813b71602060405160018152a2005b34610491576020366003190112610491576105eb613983565b6105f3614a74565b6001600160a01b0390811690811561064257600d54826001600160601b0360a01b821617600d55167f8be0079c531659141344cd1fd0a4f28419497f9722a3daafe3b4186f6b6457e0600080a3005b604051631e4fbdf760e01b815260006004820152602490fd5b3461049157602036600319011261049157610674613983565b61067c614a74565b6001600160a01b03166000818152601560209081526040808320805460ff19169055519182527f97b7af35c8c05eca90f543eb78b16fdf2664d3e6c9a907286f310647d9813b7191a2005b60206107306106d536613b94565b906106de614c0a565b33600052601584526106f860ff6040600020541615613dbe565b610700614c2b565b61072b7f000000000000000000000000000000000000000000000000000000000000000046146143a4565b6148f9565b6001600e55604051908152f35b3461049157604036600319011261049157610756613983565b61075e613999565b9060018060a01b03809116600052600760205260406000209116600052602052602060ff604060002054166040519015158152f35b61079c36613b94565b6107a4614c0a565b336000526020916015835260ff926107c3846040600020541615613dbe565b6107cb614c2b565b6107f67f000000000000000000000000000000000000000000000000000000000000000046146143a4565b8160005260188152604060002093600a850161083582825461081c828260a01c166142d2565b61082b828260a81c1615613d1c565b60b01c16156143de565b841515806109fc575b6108479061441e565b61085f600787015480159081156109e4575b5061445d565b61087861087086600889015461429f565b3410156144a0565b610881856144fa565b9461088c81346142b2565b906000600689019060019360018b01915b8481106109425761091a8b8b6000805160206159348339815191528f8d818e808f6003608096016108cf34825461427c565b90555460b81c169081610933575b501561091e57506108ee3485615382565b6040519034825234908201526000604082015260016060820152a26001600e5560405191829182613c0f565b0390f35b60040161092c34825461427c565b90556108ee565b905060175460101c16886108dd565b8084848c6109bd8f958b968f601b90600f9561098c6109868854998a996109688b614357565b90556109748c54614357565b809c556109818a33614c4e565b613a80565b88614adb565b866000526019825280604060002055601a825288604060002055600052526109b8846040600020613ea5565b614539565b52604051918252848c8301528c6000805160206158f483398151915260403394a40161089d565b90506109f48760068a015461427c565b111588610859565b50603285111561083e565b346104915760003660031901126104915760206040516127108152f35b34610491576000366003190112610491576011546040516001600160a01b039091168152602090f35b34610491576020366003190112610491576001600160a01b03610a6e613983565b166000526015602052602060ff604060002054166040519015158152f35b3461049157600036600319011261049157610aa5614a74565b610aad614c2b565b478015610b09577f5fafa99d0643513820be26656b45130b01e1c03062e1266bf36f88cbd3bd9695602060018060a01b03610af660008080808886601154165af161051a614811565b6011541692604051908152a26001600e55005b60405162461bcd60e51b815260206004820152600a6024820152694e6f2062616c616e636560b01b6044820152606490fd5b60208060031936011261049157600435610b53614c0a565b336000526015825260ff90610b6f826040600020541615613dbe565b610b77614c2b565b80600052601883526040600020600a810190610b9d84835461081c828260a01c166142d2565b610bb560078201548015908115610cdc575b50614314565b610bc560088201543410156144a0565b600f5493610bd285614357565b600f55806006830193610be58554614357565b809555610bf28733614c4e565b610c0161098660018601613a80565b866000526019885285604060002055601a88528460406000205585600052601b8852610c31876040600020613ea5565b60038401610c4034825461427c565b90555460b81c169081610ccd575b5015610cb85750610c5f3483615382565b604051908152348482015282826000805160206158f483398151915260403394a4600080516020615934833981519152608060405134815234868201526000604082015260016060820152a26001600e55604051908152f35b600401610cc634825461427c565b9055610c5f565b905060175460101c1686610c4e565b905060068301541087610baf565b346104915760403660031901126104915760043561ffff81169081810361049157610d13613b25565b90610d1c614a74565b610bb88311610d9f5760207f910a28ccd5b8f99f5cbc7d92ef87e3f7ec688263eba2ae9ebb65d0b327a89c0093604051610d5581613a29565b818152841515928391015262ff00006017549260101b169162ffffff19161717601755610d9a6040519283928390929160209061ffff60408401951683521515910152565b0390a1005b60405162461bcd60e51b815260206004820152600c60248201526b08ccaca40e8dede40d0d2ced60a31b6044820152606490fd5b34610491576000366003190112610491576020604051610bb88152f35b3461049157600036600319011261049157602060405160328152f35b346104915760003660031901126104915760206040517f00000000000000000000000000000000000000000000000000000000000000008152f35b3461049157602036600319011261049157600435610e6481614aa0565b50600052600c60205261091a610e7d6040600020613a80565b6000604051610e8b81613a44565b526040519182916020835260208301906139af565b3461049157610eae36613b61565b610eb9929192614a74565b8160005260209060188252604060002090610ede60ff600a84015460a81c1615613d1c565b6001600160401b038111610fed57610f0081610efa84546139ef565b84613e03565b6000601f8211600114610f7357816060949392610f45926000805160206159148339815191529798600092610f68575b50508160011b916000199060031b1c19161790565b90555b6008604051918083528201526763617465676f727960c01b6040820152a2005b013590508880610f30565b601f1982169083600052846000209160005b818110610fd657509160008051602061591483398151915296978492606097969560019510610fbc575b505050811b019055610f48565b0135600019600384901b60f8161c19169055878080610faf565b91928660018192868c013581550194019201610f85565b634e487b7160e01b600052604160045260246000fd5b346104915760203660031901126104915760043560005260196020526020604060002054604051908152f35b346104915760203660031901126104915760043561104b614a74565b6000818152600460205260409020546001600160a01b03906110709082161515613d5a565b816000526004602052604060002054169061108a8161506f565b7f33631bcd0a4d34a7e2c240ab0753d5adfb7284d8ac89dab6876ec785c0cfa0e6600080a3005b34610491576080366003190112610491576110ca613983565b6110d2613999565b90604435606435926001600160401b03841161049157366023850112156104915761110a610018943690602481600401359101613ce5565b92611116838383613ec8565b6157bb565b3461049157602036600319011261049157600435611137614a74565b60008181526004602052604090205461115a906001600160a01b03161515613d5a565b8060005260146020526040600020600160ff198254161790557fbf025f2b09b91dc81d2b137bed7b878fb0bd75a3bfe4708d69989fda3c63485a602060405160018152a2005b3461049157602036600319011261049157600435600052601a6020526020604060002054604051908152f35b34610491576020366003190112610491576004356111e8614a74565b6000818152601860205260408120600a01805461ffff60a01b1916600160a81b1790557f5e6eb33a418de5dbbc17f989f7ae362cdfbb1748c5d603137c767027a354edbc9080a2005b346104915760003660031901126104915761124a614a74565b60008055005b346104915760203660031901126104915760043561126c614a74565b60008181526004602052604090205461128f906001600160a01b03161515613d5a565b8060005260166020526040600020600160ff198254161790557f7fba17392135b4084a7d689c1f6d77139e1f1c18ee4651bf32dc35ae29ce9301602060405160018152a2005b34610491577f6bd5c950a8d8df17f772f5af37cb3655737899cbf903264b9795592da439661c604061130636613b94565b61130e614a74565b82519182526020820152a1005b3461049157604036600319011261049157611334613983565b61133c613b25565b6001600160a01b039091169081156113ad5733600052600760205260406000208260005260205261137d8160406000209060ff801983541691151516179055565b60405190151581527f17307eab39ab6107e8899845ad3d59bd9653f200f220920489ca2b5937696c3160203392a3005b604051630b61174360e31b815260048101839052602490fd5b34610491576020366003190112610491576004356113e2614a74565b6000818152601860205260408120600a01805462ff00ff60a01b1916600160b01b1790557f4825b022b52da7a8de8063d9ea8fd654176315fff40077d4c0374f8e1d8a245b9080a2005b3461049157610100366003190112610491576004356001600160401b0381116104915761145d903690600401613b34565b906024356001600160401b0381116104915761147d903690600401613b34565b9160a435916001600160a01b03831683036104915760c4356001600160a01b03811681036104915760e435928315158403610491576114ba614a74565b6114ce6001600160a01b0383161515614798565b6114e26001600160a01b0386161515614758565b601054956114ef87614357565b60105560405193846101e08101106001600160401b036101e087011117610fed57611530916101e08601604052611527368b86613ce5565b86523691613ce5565b602084015260443560408401526000606084015260006080840152600060a0840152600060c084015260643560e084015260843561010084015260018060a01b03851661012084015260018060a01b0382166101408401526001610160840152600061018084015260006101a08401528315156101c084015285600052601860205260406000209683518051906001600160401b038211610fed576115df826115d98c546139ef565b8c613e03565b602090601f83116001146118935761160f9291600091836118885750508160011b916000199060031b1c19161790565b88555b6020840151928351986001600160401b038a11610fed5789899561164860209c61163f60018601546139ef565b60018601613e03565b8b90601f83116001146117e85761178e936116a4847f2b284f3763c3f60985f9293b26f40161537c0fcc0bb7250a3eb0c1cb65e849ed9a9b956101c095600a956000926117dd5750508160011b916000199060031b1c19161790565b60018201555b60408401516002820155606084015160038201556080840151600482015560a080850151600583015560c0850151600683015560e0850151600783015561010085015160088301556101208501516009830180546001600160a01b0319166001600160a01b039283161790556101408601519390920180546101608701516101808801516101a089015197909801516001600160c01b0319909216959094169490941792151590911b60ff60a01b169190911793151560a81b60ff60a81b169390931791151560b01b60ff60b01b169190911790151560b81b60ff60b81b16179055565b6117a560405193849360a0855260a0850191613d9d565b604435838b01526064356040840152608435606084015295151560808301526001600160a01b039081169616940390a4604051908152f35b015190503880610f30565b97929190600183016000528c6000209860005b601f198416811061186e5750926001837f2b284f3763c3f60985f9293b26f40161537c0fcc0bb7250a3eb0c1cb65e849ed9a9b600a9461178e98976101c097601f19811610611855575b505050811b0160018201556116aa565b015160001960f88460031b161c19169055388080611845565b828201518b556001909a01998d9950918e01918e016117fb565b015190508b80610f30565b91908a6000526020600020906000935b601f19841685106118e4576001945083601f198116106118cb575b505050811b018855611612565b015160001960f88460031b161c191690558a80806118be565b818101518355602094850194600190930192909101906118a3565b346104915761001861191036613b94565b90611919614a74565b61487f565b3461049157600036600319011261049157604051600354600082611941836139ef565b91828252602093600190856001821691826000146119e1575050600114611984575b5061197092500383613a5f565b61091a6040519282849384528301906139af565b84915060036000527fc2575a0e9e593c00f959f8c92f12db2869c3395a3b0502d05e2516446f71f85b906000915b8583106119c9575050611970935082010185611963565b805483890185015287945086939092019181016119b2565b60ff19168582015261197095151560051b85010192508791506119639050565b34610491576040366003190112610491576001600160401b0360043581811161049157611a32903690600401613baa565b909160243590811161049157611a4c903690600401613b34565b9091611a56614a74565b60005b818110611a6257005b6001906001600160a01b03611a97611a7b83868a613e59565b356000908152600460205260409020546001600160a01b031690565b16611aa3575b01611a59565b611ac3611ab1828589613e59565b35611abd368789613ce5565b90614adb565b611ace818488613e59565b357fac6d62cb5d30a7fff578060cd3dcf46ff2df7991a71c2d2aabca7e558f130f7860405180611b0560208083528201898b613d9d565b0390a2611a9d565b611b1636613b94565b611b1e614c0a565b336000526020916015835260ff92611b3d846040600020541615613dbe565b611b45614c2b565b8160005260188152604060002093600a8501611b6b82825461081c828260a01c166142d2565b84151580611c49575b611b7d9061441e565b611b94600787015480159081156109e4575061445d565b611ba561087086600889015461429f565b611bae856144fa565b94611bb981346142b2565b906000600689019060019360018b01915b848110611bfc5761091a8b8b6000805160206159348339815191528f8d818e808f6003608096016108cf34825461427c565b8084848c611c228f958b968f601b90600f9561098c6109868854998a996109688b614357565b52604051918252848c8301528c6000805160206158f483398151915260403394a401611bca565b506032851115611b74565b3461049157600036600319011261049157600d546040516001600160a01b039091168152602090f35b3461049157606036600319011261049157611c96613983565b602435906044356001600160401b03811161049157611cb9903690600401613b34565b9091611cc3614a74565b611ccb614c2b565b6001600160a01b0316928315611dc3578015611d8d57601254818110611d54577fd24fd04b4a509fac28aab0419d3841217c53a8b375b372060993dc15c350ef7f93611d1a83611d4a9361452c565b601255611d316000808080878b5af161051a614811565b6040519384938452604060208501526040840191613d9d565b0390a26001600e55005b60405162461bcd60e51b8152602060048201526011602482015270125b9cdd59999a58da595b9d081c1bdbdb607a1b6044820152606490fd5b60405162461bcd60e51b815260206004820152600e60248201526d125b9d985b1a5908185b5bdd5b9d60921b6044820152606490fd5b60405162461bcd60e51b8152602060048201526011602482015270125b9d985b1a59081c9958da5c1a595b9d607a1b6044820152606490fd5b3461049157600036600319011261049157611e15614a74565b611e1d614c0a565b600d805460ff60a01b1916600160a01b1790556040513381527f62e78cea01bee320cd4e420270b5ea74000d11b0c9f74754ebdbfc544b05a25890602090a1005b60208060031936011261049157600435611e76614c0a565b336000526015825260ff90611e92826040600020541615613dbe565b611e9a614c2b565b610b777f000000000000000000000000000000000000000000000000000000000000000046146143a4565b346104915760203660031901126104915760043560005260196020526060604060002054601a6020526040600020548160005260186020526006604060002001549060405192835260208301526040820152f35b3461049157602036600319011261049157600435611f35614a74565b806000526018602052600a60406000200160ff60a01b19815416905560008051602061591483398151915260405180611f898160609060208152600660208201526561637469766560d01b60408201520190565b0390a2005b3461049157602036600319011261049157611fa7613983565b611faf614a74565b6001600160a01b03908116908115611ffe57601154826001600160601b0360a01b821617601155167f4ab5be82436d353e61ca18726e984e561f5c1cc7c6d38b29d2553c790434705a600080a3005b60405162461bcd60e51b815260206004820152601060248201526f496e76616c696420747265617375727960801b6044820152606490fd5b34610491576020366003190112610491576004356000526016602052602060ff604060002054166040519015158152f35b3461049157600036600319011261049157612080614a74565b600d80546001600160a01b031981169091556000906001600160a01b03167f8be0079c531659141344cd1fd0a4f28419497f9722a3daafe3b4186f6b6457e08280a3005b346104915760203660031901126104915760206120e76120e2613983565b6147d8565b604051908152f35b346104915760403660031901126104915760043561210b613999565b612113614a74565b816000526018602052600a6040600020019081549061213860ff8360a81c1615613d1c565b6001600160a01b03169061214d821515614798565b6001600160601b0360a01b161790556000805160206159148339815191526040516020815280611f8960208201604090600981526839bab136b4ba3a32b960b91b60208201520190565b34610491576040366003190112610491576004356121b3613999565b6121bb614a74565b81600052601860205260096040600020916121e060ff600a85015460a81c1615613d1c565b6001600160a01b0316916121f5831515614758565b01906001600160601b0360a01b82541617905560008051602061591483398151915260606040516020815260096020820152681b9bdb9c1c9bd99a5d60ba1b6040820152a2005b3461049157602036600319011261049157602061225a600435614aa0565b6040516001600160a01b039091168152f35b34610491576000366003190112610491576017546040805161ffff8316815260109290921c60ff161515602083015290f35b3461049157600036600319011261049157602060ff600d5460a01c166040519015158152f35b34610491576060366003190112610491576004356122e0613999565b604435906001600160601b038216809203610491576122fd614a74565b61271080831161237557506001600160a01b03908116928315612356576040519361232785613a29565b84526020808501938452600091825260019052604090209251915160a01b6001600160a01b0319169116179055005b60449060405190634b4f842960e11b8252600482015260006024820152fd5b83606491846040519263dfd1fc1b60e01b8452600484015260248301526044820152fd5b34610491576020366003190112610491576004356123b5614a74565b6123bd614c2b565b8060005260186020526004604060002001908154908115612430578147106123eb5760006105209355615382565b60405162461bcd60e51b815260206004820152601d60248201527f496e73756666696369656e7420636f6e74726163742062616c616e63650000006044820152606490fd5b60405162461bcd60e51b815260206004820152601060248201526f4e6f2070656e64696e672066756e647360801b6044820152606490fd5b3461049157602036600319011261049157600435600052601c6020526020604060002054604051908152f35b3461049157602036600319011261049157600435600052601860205261251d6040600020600281015460ff8260038101546004820154906006830154600784015460088501549160018060a01b0394856009880154169461252b6125086001612501600a8c01549b613a80565b9d01613a80565b6040519d8e9d8e6101a09081815201906139af565b8d810360208f0152906139af565b9960408c015260608b015260808a015260a089015260c088015260e08701526101008601528116610120850152818160a01c161515610140850152818160a81c16151561016085015260b81c1615156101808301520390f35b346104915761259236613b94565b61259a614a74565b816000526018602052600260406000206125be60ff600a83015460a81c1615613d1c565b0155600080516020615914833981519152606060405160208152600460208201526319dbd85b60e21b6040820152a2005b34610491576000366003190112610491576020601254604051908152f35b3461049157602036600319011261049157600435600a5481101561264457612636602091613c4b565b90546040519160031b1c8152f35b6044906040519063295f44f760e21b8252600060048301526024820152fd5b61091a6126a361267236613cb0565b9161267b614c0a565b33600052601560205261269660ff6040600020541615613dbe565b61269e614c2b565b61454d565b6001600e5560405191829182613c0f565b34610491576020366003190112610491576004356126d0614a74565b806000526014602052604060002060ff1981541690557fbf025f2b09b91dc81d2b137bed7b878fb0bd75a3bfe4708d69989fda3c63485a602060405160008152a2005b6000366003190112610491573415612762576127313460125461427c565b6012556040513481527f1da5cc6515d0bf0b6fb40cedcd4ef3eb9a5b820440278efc9321a4491b5dd1ef60203392a2005b60405162461bcd60e51b815260206004820152600f60248201526e4d7573742073656e642066756e647360881b6044820152606490fd5b61091a6126a36127a836613cb0565b916127b1614c0a565b3360005260156020526127cc60ff6040600020541615613dbe565b6127d4614c2b565b61269e7f000000000000000000000000000000000000000000000000000000000000000046146143a4565b346104915760203660031901126104915760043561281b614a74565b806000526016602052604060002060ff1981541690557f7fba17392135b4084a7d689c1f6d77139e1f1c18ee4651bf32dc35ae29ce9301602060405160008152a2005b34610491576040366003190112610491576004356001600160401b0381116104915761288e903690600401613baa565b612896613b25565b61289e614a74565b60005b8281106128aa57005b6001906001600160a01b036128c3611a7b838789613e59565b166128cf575b016128a1565b6128da818587613e59565b356000526020601481526128fe8460406000209060ff801983541691151516179055565b7fbf025f2b09b91dc81d2b137bed7b878fb0bd75a3bfe4708d69989fda3c63485a61292a838789613e59565b35916040518615158152a26128c9565b346104915760203660031901126104915760043580600052600460205260018060a01b036040600020541633036129b85780600052601460205261298660ff6040600020541615614366565b61298f8161506f565b33907f33631bcd0a4d34a7e2c240ab0753d5adfb7284d8ac89dab6876ec785c0cfa0e6600080a3005b60405162461bcd60e51b815260206004820152600f60248201526e2737ba103a37b5b2b71037bbb732b960891b6044820152606490fd5b3461049157610018612a0036613bda565b9060405192612a0e84613a44565b60008452611116838383613ec8565b3461049157612a2b36613b94565b90600052601b602052604060002080548210156104915760209161263691613c98565b3461049157600036600319011261049157612a67614a74565b600d5460ff8160a01c1615612aae5760ff60a01b1916600d556040513381527f5db9ee0a495bf2e6ff9c91a7834c1ba4fdd244a5e8aa4e537bd38aeae4b073aa90602090a1005b604051638dfc202b60e01b8152600490fd5b346104915760208060031936011261049157600435600052601b6020526040600020906040519081602084549182815201936000526020600020916000905b828210612b225761091a85612b1681890382613a5f565b60405191829182613c0f565b835486529485019460019384019390910190612aff565b3461049157602036600319011261049157612b52614a74565b7ff8e1a15aba9398e019f0b49df1a4fde98ee17ae345cb5f6b5e2c27f5033e8ce760206040516004358152a1005b3461049157604036600319011261049157612b99613983565b60243590612ba6816147d8565b821015612bd95760018060a01b031660005260086020526040600020906000526020526020604060002054604051908152f35b60405163295f44f760e21b81526001600160a01b039190911660048201526024810191909152604490fd5b34610491576060366003190112610491576004356040612c22613999565b91612c2b614a74565b80600052602092601884528260002091612c5d60ff600a850154612c53828260a01c166142d2565b60a81c1615613d1c565b612c7460078401548015908115612d115750614314565b6000805160206158f4833981519152600f54948593612c9285614357565b600f55612cc5612cbf60016006890198612cac8a54614357565b809a55612cb98986614c4e565b01613a80565b86614adb565b8460005260198852838260002055601a885285826000205583600052601b8852612cf28583600020613ea5565b8151958652604435888701526001600160a01b031694a4604051908152f35b905060068501541087610baf565b3461049157612d2d36613b94565b906000526001602052604060002060405190612d4882613a29565b546001600160a01b0380821680845260a09290921c602084015291929015612da4575b612d86612710916001600160601b036020860151169061429f565b925160408051939091166001600160a01b0316835292046020820152f35b9150612710612d86604051612db881613a29565b600054848116825260a01c602082015293915050612d6b565b346104915760a036600319011261049157600435602435604435606435916084358015158091036104915760008051602061593483398151915293608093612e17614a74565b86600052601860205260056040600020612e3b60ff600a83015460a81c1615613d1c565b612e45848761427c565b612e546003830191825461427c565b905560048101612e6584825461427c565b905501612e7383825461427c565b9055604051938452602084015260408301526060820152a2005b3461049157610018612e9e36613bda565b91613ec8565b3461049157602036600319011261049157600435612ec0614a74565b806000526018602052600a604060002001805460ff8160a81c16612f6f5760ff8160b01c16612f325760ff60a01b1916600160a01b1790556040805160208082526006908201526561637469766560d01b91810191909152600080516020615914833981519152908060608101611f89565b60405162461bcd60e51b815260206004820152601560248201527410d85b5c185a59db881dd85cc81c99599d5b991959605a1b6044820152606490fd5b60405162461bcd60e51b815260206004820152601b60248201527f43616d706169676e207065726d616e656e746c7920636c6f73656400000000006044820152606490fd5b34610491576040366003190112610491576004356001600160401b03811161049157612fe4903690600401613baa565b9060243591612ff1614a74565b60005b818110612ffd57005b6001600160a01b03613013611a7b838587613e59565b16613021575b600101612ff4565b92919061302f848284613e59565b35600052601b6020601981528460406000205584600052526040600020936000946000958154965b878110613091575b506001939495965015613075575b509050613019565b61308b90613084838688613e59565b3590613ea5565b8561306d565b61309b8184613c98565b90546130a886888a613e59565b359160031b1c146130bb57600101613057565b5094955085945060018061305f565b34610491576130d836613b61565b906130e1614a74565b8260005260209060188252604060002061310560ff600a83015460a81c1615613d1c565b60018091016001600160401b038511610fed5761312c8561312683546139ef565b83613e03565b600085601f81116001146131f6578061315b926000916131eb575b508160011b916000199060031b1c19161790565b90555b84600052601b83526040600020816000905b6131ad575b60405185815287907fd0ed2732da48175aaae07fd675a2a78b1700515722f6675d7ff5f0e09f22f3099080611f89818a018b8a613d9d565b81548110156131e6579082826131de6131c7839585613c98565b90546131d4368c8b613ce5565b9160031b1c614adb565b019091613170565b613175565b905085013589613147565b50601f198616908260005286866000209260005b8887838310613244575050501061322a575b50508185811b01905561315e565b840135600019600388901b60f8161c19169055868061321c565b858a0135875590950194938401938a93500161320a565b346104915761326936613b94565b613271614a74565b816000526018602052604060002061329360ff600a83015460a81c1615613d1c565b81158015613320575b156132db5760070155600080516020615914833981519152606060405160208152600b60208201526a6d617845646974696f6e7360a81b6040820152a2005b60405162461bcd60e51b815260206004820152601a60248201527f43616e6e6f74207265647563652062656c6f77206d696e7465640000000000006044820152606490fd5b50600681015482101561329c565b346104915760003660031901126104915760206001600160601b0360135416604051908152f35b34610491576000366003190112610491576020600a54604051908152f35b602061073061338136613b94565b9061338a614c0a565b33600052601584526133a460ff6040600020541615613dbe565b61072b614c2b565b34610491577fac6d62cb5d30a7fff578060cd3dcf46ff2df7991a71c2d2aabca7e558f130f786133db36613b61565b6133e6939293614a74565b600084815260046020526040902054613409906001600160a01b03161515613d5a565b61341d613417368385613ce5565b85614adb565b611f89604051928392602084526020840191613d9d565b346104915760403660031901126104915760043561349a613453613b25565b61345b614a74565b826000526018602052600a60406000200161347d60ff825460a81c1615613d1c565b805460ff60b81b191691151560b81b60ff60b81b16919091179055565b60008051602061591483398151915260606040516020815260166020820152751a5b5b59591a585d1954185e5bdd5d115b98589b195960521b6040820152a2005b34610491576020366003190112610491576004356000526018602052604060002061356d61350882613a80565b9160ff61351760018301613a80565b9360028301549260038101549060048101546005820154600683015460078401549160088501549360018060a01b039661357b600a8960098a015416980154996040519e8f9e8f926101e08085528401906139af565b9160208184039101526139af565b9a60408d015260608c015260808b015260a08a015260c089015260e08801526101008701526101208601528116610140850152818160a01c161515610160850152818160a81c161515610180850152818160b01c1615156101a085015260b81c1615156101c08301520390f35b3461049157604036600319011261049157613601613983565b60243561360d81614aa0565b331515806136bc575b8061368f575b613677576001600160a01b039283169282918491167f8c5be1e5ebec7d5bd14f71427d1e84f3dd0314c0f7b2291e5b200ac8c7c3b925600080a4600090815260066020526040902080546001600160a01b0319169091179055005b60405163a9fbf51f60e01b8152336004820152602490fd5b5060018060a01b038116600052600760205260406000203360005260205260ff604060002054161561361c565b506001600160a01b038116331415613616565b34610491576020366003190112610491576004356136ec81614aa0565b506000526006602052602060018060a01b0360406000205416604051908152f35b3461049157600036600319011261049157604051600254600082613730836139ef565b91828252602093600190856001821691826000146119e157505060011461375e575061197092500383613a5f565b84915060026000527f405787fa12a823e0f2b7631cc41b3ba8828b3321ca811111fa75cd3aa3bb5ace906000915b8583106137a3575050611970935082010185611963565b8054838901850152879450869390920191810161378c565b34610491576040366003190112610491576137d4613983565b6024356001600160601b03811691828203610491576137f1614a74565b61271080841161388e57506001600160a01b0316918215613875577f35804d3532228d15c4fe3fa7a4fb8100c86dc285216e9c806f5d6f2cef55283992602092828460405161383f81613a29565b848152015260a01b6001600160a01b03191617600055601380546bffffffffffffffffffffffff191682179055604051908152a1005b604051635b6cc80560e11b815260006004820152602490fd5b8360449160405191636f483d0960e01b835260048301526024820152fd5b34610491576000366003190112610491576020601054604051908152f35b34610491576020366003190112610491576004359063ffffffff60e01b821680920361049157602091632483248360e11b811490811561390c575b5015158152f35b63780e9d6360e01b811491508115613926575b5083613905565b6380ac58cd60e01b811491508115613972575b8115613947575b508361391f565b63152a902d60e11b811491508115613961575b5083613940565b6301ffc9a760e01b1490508361395a565b635b5e139f60e01b81149150613939565b600435906001600160a01b038216820361049157565b602435906001600160a01b038216820361049157565b919082519283825260005b8481106139db575050826000602080949584010152601f8019910116010190565b6020818301810151848301820152016139ba565b90600182811c92168015613a1f575b6020831014613a0957565b634e487b7160e01b600052602260045260246000fd5b91607f16916139fe565b604081019081106001600160401b03821117610fed57604052565b602081019081106001600160401b03821117610fed57604052565b90601f801991011681019081106001600160401b03821117610fed57604052565b90604051918260008254613a93816139ef565b90818452602094600191600181169081600014613b035750600114613ac4575b505050613ac292500383613a5f565b565b600090815285812095935091905b818310613aeb575050613ac29350820101388080613ab3565b85548884018501529485019487945091830191613ad2565b92505050613ac294925060ff191682840152151560051b820101388080613ab3565b60243590811515820361049157565b9181601f84011215610491578235916001600160401b038311610491576020838186019501011161049157565b9060406003198301126104915760043591602435906001600160401b03821161049157613b9091600401613b34565b9091565b6040906003190112610491576004359060243590565b9181601f84011215610491578235916001600160401b038311610491576020808501948460051b01011161049157565b6060906003190112610491576001600160a01b0390600435828116810361049157916024359081168103610491579060443590565b602090602060408183019282815285518094520193019160005b828110613c37575050505090565b835185529381019392810192600101613c29565b600a54811015613c8257600a6000527fc65a7bb8d6351c1cf70c95a316cc6a92839c986682d98bc35f958f4883f9d2a80190600090565b634e487b7160e01b600052603260045260246000fd5b8054821015613c825760005260206000200190600090565b606090600319011261049157600435906024359060443590565b6001600160401b038111610fed57601f01601f191660200190565b929192613cf182613cca565b91613cff6040519384613a5f565b829481845281830111610491578281602093846000960137010152565b15613d2357565b60405162461bcd60e51b815260206004820152600f60248201526e10d85b5c185a59db8818db1bdcd959608a1b6044820152606490fd5b15613d6157565b60405162461bcd60e51b8152602060048201526014602482015273151bdad95b88191bd95cc81b9bdd08195e1a5cdd60621b6044820152606490fd5b908060209392818452848401376000828201840152601f01601f1916010190565b15613dc557565b60405162461bcd60e51b81526020600482015260166024820152751059191c995cdcc81a5cc8189b1858dadb1a5cdd195960521b6044820152606490fd5b90601f8111613e1157505050565b6000916000526020600020906020601f850160051c83019410613e4f575b601f0160051c01915b828110613e4457505050565b818155600101613e38565b9092508290613e2f565b9190811015613c825760051b0190565b600a5490600160401b821015610fed57613e8c826001613ac29401600a55613c4b565b90919082549060031b91821b91600019901b1916179055565b90815491600160401b831015610fed5782613e8c916001613ac295018155613c98565b6001600160a01b038281169391908415614263576000918383526004956020938785526040948486832054168015158061425b575b61415d575b5086825288815284868320541697331515806140cb575b5088158015614098575b84845260058352878420805460010190558884528a835287842080546001600160a01b0319168617905588858b7fddf252ad1be2c89b69c2b068fc378daa952ba7f163c4a11628f55a4df523b3ef8780a41561401c57600a54888452600b835287842055613f9088613e69565b838903613fcb575b505050501690818403613fac575050505050565b516364283d7b60e01b8152938401526024830152604482015260649150fd5b613fd4906147d8565b600019810193908411614009578291600991889452600881528383208584528152888484205588835252205538808080613f98565b634e487b7160e01b835260118a52602483fd5b888414613f905761402c896147d8565b8884526009835287842054818103614061575b5088845283888120558984526008835287842090845282528287812055613f90565b8a8552600884528885208286528452888520548b8652600885528986208287528552808a872055855260098452888520553861403f565b600089815260066020526040902080546001600160a01b0319169055898452600583528784208054600019019055613f23565b8061411c575b156140dc5738613f19565b878a888b6140f957916024925191637e27328960e01b8352820152fd5b5163177e802f60e01b815233918101918252602082019290925281906040010390fd5b503389148015614141575b806140d157508783526006825233868885205416146140d1565b5088835260078252868320338452825260ff8784205416614127565b6014825261417160ff888520541615614366565b8783526016825260ff87842054166142235782526015815260ff86832054166141e9578282526015815260ff86832054166141ac5738613f02565b8860649187519162461bcd60e51b83528201526018602482015277149958da5c1a595b9d081a5cc8189b1858dadb1a5cdd195960421b6044820152fd5b8860649187519162461bcd60e51b8352820152601560248201527414d95b99195c881a5cc8189b1858dadb1a5cdd1959605a1b6044820152fd5b865162461bcd60e51b8152808b018390526012602482015271151bdad95b881a5cc81cdbdd5b189bdd5b9960721b6044820152606490fd5b506001613efd565b604051633250574960e11b815260006004820152602490fd5b9190820180921161428957565b634e487b7160e01b600052601160045260246000fd5b8181029291811591840414171561428957565b81156142bc570490565b634e487b7160e01b600052601260045260246000fd5b156142d957565b60405162461bcd60e51b815260206004820152601360248201527243616d706169676e206e6f742061637469766560681b6044820152606490fd5b1561431b57565b60405162461bcd60e51b815260206004820152601460248201527313585e0819591a5d1a5bdb9cc81c995858da195960621b6044820152606490fd5b60001981146142895760010190565b1561436d57565b60405162461bcd60e51b815260206004820152600f60248201526e2a37b5b2b71034b990333937bd32b760891b6044820152606490fd5b156143ab57565b60405162461bcd60e51b815260206004820152600b60248201526a2bb937b7339031b430b4b760a91b6044820152606490fd5b156143e557565b60405162461bcd60e51b815260206004820152601160248201527010d85b5c185a59db881c99599d5b991959607a1b6044820152606490fd5b1561442557565b60405162461bcd60e51b815260206004820152601060248201526f496e76616c6964207175616e7469747960801b6044820152606490fd5b1561446457565b60405162461bcd60e51b815260206004820152601460248201527345786365656473206d61782065646974696f6e7360601b6044820152606490fd5b156144a757565b60405162461bcd60e51b8152602060048201526014602482015273125b9cdd59999a58da595b9d081c185e5b595b9d60621b6044820152606490fd5b6001600160401b038111610fed5760051b60200190565b90614504826144e3565b6145116040519182613a5f565b8281528092614522601f19916144e3565b0190602036910137565b9190820391821161428957565b8051821015613c825760209160051b010190565b909160009082825260209160188352604090818120600a810161457b60ff825461081c828260a01c166142d2565b8715158061474d575b61458d9061441e565b6145a860078301548015908115614735575b5098939861445d565b6145c2610870866145bd86600887015461429f565b61427c565b6145cb836144fa565b976145d6863461452c565b936145e181346142b2565b600192906006860190848701838d8f5b87831061469357505050505050505050918160ff6080969460036000805160206159348339815191529997950161462934825461427c565b90556005830161463a87825461427c565b90555460b81c1680614684575b1561466f575061465883828961559c565b81519334855284015282015260016060820152a290565b60040161467d82825461427c565b9055614658565b5060ff60175460101c16614647565b868f92878f938695888a928f99600f898154998a9586936146b385614357565b905589546146c090614357565b998a90556146ce8433614c4e565b6146d790613a80565b6146e19084614adb565b828152601987528982822055601a87528882822055898152601b8752209061470891613ea5565b61471191614539565b52855192835282015233936000805160206158f483398151915291a4018d8f6145f1565b90506147458a600686015461427c565b11153861459f565b506032881115614584565b1561475f57565b60405162461bcd60e51b8152602060048201526011602482015270125b9d985b1a59081b9bdb9c1c9bd99a5d607a1b6044820152606490fd5b1561479f57565b60405162461bcd60e51b815260206004820152601160248201527024b73b30b634b21039bab136b4ba3a32b960791b6044820152606490fd5b6001600160a01b031680156147f857600052600560205260406000205490565b6040516322718ad960e21b815260006004820152602490fd5b3d1561483c573d9061482282613cca565b916148306040519384613a5f565b82523d6000602084013e565b606090565b1561484857565b60405162461bcd60e51b815260206004820152600f60248201526e151c985b9cd9995c8819985a5b1959608a1b6044820152606490fd5b6000818152600460205260408120549092906148a5906001600160a01b03161515613d5a565b81835260196020528060408420558252601b602052604082208054925b8381106148d45750613ac29250613ea5565b826148df8284613c98565b90549060031b1c146148f3576001016148c2565b50505050565b60008051602061593483398151915260806000938385526020906018825260408581882097600a89019861493860ff8b5461081c828260a01c166142d2565b61494f60078201548015908115614a665750614314565b61496061087086600884015461427c565b60ff600f549a61496f8c614357565b600f556149ce8c8760068601966149868854614357565b8098556149938b3461452c565b9861499e8433614c4e565b6149ad61341760018a01613a80565b83825260198d528083832055601a8d5288838320558152601b8c5220613ea5565b600383016149dd34825461427c565b9055600583016149ee88825461427c565b90555460b81c1680614a57575b15614a425750614a0c84838a61559c565b8251908152348582015288886000805160206158f4833981519152853394a481519334855284015282015260016060820152a290565b600401614a5083825461427c565b9055614a0c565b5060ff60175460101c166149fb565b905060068301541038610baf565b600d546001600160a01b03163303614a8857565b60405163118cdaa760e01b8152336004820152602490fd5b6000818152600460205260409020546001600160a01b0316908115614ac3575090565b60249060405190637e27328960e01b82526004820152fd5b919091600090808252602091600c835260408120908551956001600160401b038711614bf657614b1587614b0f85546139ef565b85613e03565b8491601f8811600114614b725796614b669281927ff8e1a15aba9398e019f0b49df1a4fde98ee17ae345cb5f6b5e2c27f5033e8ce79899926117dd5750508160011b916000199060031b1c19161790565b90555b604051908152a1565b9190601f198816848452868420935b818110614bdf57509160019391897ff8e1a15aba9398e019f0b49df1a4fde98ee17ae345cb5f6b5e2c27f5033e8ce7999a9410614bc6575b505050811b019055614b69565b015160001960f88460031b161c19169055388080614bb9565b929387600181928786015181550195019301614b81565b634e487b7160e01b82526041600452602482fd5b60ff600d5460a01c16614c1957565b60405163d93c066560e01b8152600490fd5b6002600e5414614c3c576002600e55565b604051633ee5aeb560e01b8152600490fd5b6040805190614c5c82613a44565b60008083526001600160a01b0394848616939091908415615057578282526004956020978789528086852054168015158061504f575b614f4f575b5084845287895285842054168681159182159283614f1c575b82875260058c52888720805460010190558787528a8c5288872080546001600160a01b031916841790558783837fddf252ad1be2c89b69c2b068fc378daa952ba7f163c4a11628f55a4df523b3ef8a80a415614e9e57600a54878752600b8c5288872055614d1d87613e69565b03614e52575b614e3b573b614d36575b50505050505050565b86614d73918596979899955180938192630a85bd0160e11b97888452338d85015287602485015260448401526080606484015260848301906139af565b0381858a5af190829082614df0575b5050614db857505050614d93614811565b80519485614db257505051633250574960e11b81529182015260249150fd5b85925001fd5b9195506001600160e01b031990911603614ddb5750505038808080808080614d2d565b51633250574960e11b81529182015260249150fd5b909192508881813d8311614e34575b614e098183613a5f565b81010312614e305751906001600160e01b031982168203614e2d5750903880614d82565b80fd5b5080fd5b503d614dff565b84516339e3563760e11b8152808801849052602490fd5b614e5b826147d8565b6000198101908111614e8b5787855260088a528685208186528a52858786205585855260098a5286852055614d23565b634e487b7160e01b855260118952602485fd5b808214614d1d57614eae816147d8565b87875260098c5288872054818103614ee3575b50878752868981205581875260088c528887209087528b528588812055614d1d565b82885260088d528988208289528d528c60088b8a205491858b52528d8b8a2090838b5252808b8a2055885260098d528988205538614ec1565b600088815260066020526040902080546001600160a01b031916905581875260058c528887208054600019019055614cb0565b60148a52614f6360ff888720541615614366565b85855260168a5260ff87862054166150175784526015895260ff8685205416614fdc578684526015895260ff8685205416614f9e5738614c97565b855162461bcd60e51b81528089018a90526018602482015277149958da5c1a595b9d081a5cc8189b1858dadb1a5cdd195960421b6044820152606490fd5b855162461bcd60e51b81528089018a9052601560248201527414d95b99195c881a5cc8189b1858dadb1a5cdd1959605a1b6044820152606490fd5b865162461bcd60e51b8152808a018b90526012602482015271151bdad95b881a5cc81cdbdd5b189bdd5b9960721b6044820152606490fd5b506001614c92565b8351633250574960e11b815260048101839052602490fd5b60009080825260049160209083825260018060a01b03916040928084842054168015158061537b575b61527b575b50848352858252838320541691821592831580615248575b86835287845285832080546001600160a01b03191690558683837fddf252ad1be2c89b69c2b068fc378daa952ba7f163c4a11628f55a4df523b3ef8280a484156151c7575050600a54858252600b83528482205561511285613e69565b600a54600019928382019182116151b457600b908784528181526151398785205493613c4b565b90549060031b1c61514d81613e8c86613c4b565b845252848220558481528084812055600a549081156151a1575081019061517382613c4b565b909182549160031b1b19169055600a5561518c57505050565b51637e27328960e01b81529182015260249150fd5b634e487b7160e01b815260318752602490fd5b634e487b7160e01b835260118852602483fd5b6151d2575b50615112565b6151db816147d8565b908683526009845285832054828103615211575b50868352828681205582526008835284822090825282528084812055386151cc565b81845260088552868420838552855286842054828552600886528785208286528652808886205584526009855286842055386151ef565b600087815260066020526040902080546001600160a01b03191690558183526005845285832080546000190190556150b5565b6014835261528f60ff868620541615614366565b8584526016835260ff85852054166153435783526015825260ff8484205416615308578280526015825260ff84842054166152ca573861509d565b835162461bcd60e51b81528087018390526018602482015277149958da5c1a595b9d081a5cc8189b1858dadb1a5cdd195960421b6044820152606490fd5b835162461bcd60e51b8152808701839052601560248201527414d95b99195c881a5cc8189b1858dadb1a5cdd1959605a1b6044820152606490fd5b845162461bcd60e51b81528088018490526012602482015271151bdad95b881a5cc81cdbdd5b189bdd5b9960721b6044820152606490fd5b5083615098565b6000918183526020926018845260408082206127106153a761ffff601754168661429f565b04906153d4826153b7818861452c565b96888752601c8a528587206153cd82825461427c565b905561452c565b6153e36004830191825461427c565b9055816154fa575b8461542a575b600a0154825194855295840152820181905260608201526001600160a01b039092169160008051602061595483398151915290608090a3565b600a810160018060a01b0390858080808a868654165af1615449614811565b50156154ba5792859392600080516020615954833981519152979592608097945416896000805160206158d48339815191528c868051918b8352820152806154aa888201604090600981526839bab136b4ba3a32b960b91b60208201520190565b0390a392509294509294506153f1565b845162461bcd60e51b8152600481018a9052601960248201527814dd589b5a5d1d195c881d1c985b9cd9995c8819985a5b1959603a1b6044820152606490fd5b60018060a01b03848080808685601154165af1615515614811565b50156155585760115416866000805160206158d483398151915260808651868152878c82015260088882015267706c6174666f726d60c01b6060820152a36153eb565b835162461bcd60e51b815260048101899052601c60248201527f506c6174666f726d20666565207472616e73666572206661696c6564000000006044820152606490fd5b906000928284526020936018855260408082206127106155c261ffff601754168761429f565b04906155f6826155d6876145bd838b61452c565b976155e1888261427c565b8a8852601c8c526153cd87892091825461427c565b6156056004830191825461427c565b905581615719575b8561564a575b600a015482519586529685015283015260608201526001600160a01b039092169160008051602061595483398151915290608090a3565b600a810160018060a01b0390858080808b868654165af1615669614811565b50156156d957916000805160206159548339815191529795939160809795935416896000805160206158d48339815191528c868051918b8352820152806156c9888201604090600981526839bab136b4ba3a32b960b91b60208201520190565b0390a39193955091939550615613565b845162461bcd60e51b8152600481018b9052601960248201527814dd589b5a5d1d195c881d1c985b9cd9995c8819985a5b1959603a1b6044820152606490fd5b60018060a01b03848080808685601154165af1615734614811565b50156157775760115416876000805160206158d483398151915260808651868152878d82015260088882015267706c6174666f726d60c01b6060820152a361560d565b835162461bcd60e51b8152600481018a9052601c60248201527f506c6174666f726d20666565207472616e73666572206661696c6564000000006044820152606490fd5b9190803b6157c95750505050565b61580b60018060a01b0380921694604051938493630a85bd0160e11b9687865233600487015216602485015260448401526080606484015260848301906139af565b03906020816000938185885af19082908261588a575b50506158595782615830614811565b805191908261585257604051633250574960e11b815260048101839052602490fd5b9050602001fd5b6001600160e01b031916036158725750388080806148f3565b60249060405190633250574960e11b82526004820152fd5b909192506020813d6020116158cb575b816158a760209383613a5f565b81010312614e305751906001600160e01b031982168203614e2d5750903880615821565b3d915061589a56fec5116d0bff033daa6db9b6cf401237ef4f85a0a6cbe32bfb53d189b3e6c4bad644a73422883fd5aac8dde6ef3688c62f25a4fb22e7a395bafb411ec4803ab1bd7a9a4f151cc0b6349bd7062416b8f68d1d73c3f457efc221520eb5547595d2d8f1a038a86c47446d2a26b7852348eee74e6d63d5a71792df01e40c2e6d0e1ca21459509071e134f17a163289d2286672b4e8c1af62c9cdd22eabdc6bee9217f3a2646970667358221220772a418294acbd2ac2618fe1294cd93f385e92a210e9f453eb373fc31a97535764736f6c63430008180033",
  "linkReferences": {},
  "deployedLinkReferences": {}
}