{"contracts/PatriotPledgeNFTV6.sol":{"PatriotPledgeNFTV6":{"abi":[{"inputs":[],"stateMutability":"nonpayable","type":"constructor"},{"inputs":[{"internalType":"uint256","name":"numerator","type":"uint256"},{"internalType":"uint256","name":"denominator","type":"uint256"}],"name":"ERC2981InvalidDefaultRoyalty","type":"error"},{"inputs":[{"internalType":"address","name":"receiver","type":"address"}],"name":"ERC2981InvalidDefaultRoyaltyReceiver","type":"error"},{"inputs":[{"internalType":"uint256","name":"tokenId","type":"uint256"},{"internalType":"uint256","name":"numerator","type":"uint256"},{"internalType":"uint256","name":"denominator","type":"uint256"}],"name":"ERC2981InvalidTokenRoyalty","type":"error"},{"inputs":[{"internalType":"uint256","name":"tokenId","type":"uint256"},{"internalType":"address","name":"receiver","type":"address"}],"name":"ERC2981InvalidTokenRoyaltyReceiver","type":"error"},{"inputs":[],"name":"ERC721EnumerableForbiddenBatchMint","type":"error"},{"inputs":[{"internalType":"address","name":"sender","type":"address"},{"internalType":"uint256","name":"tokenId","type":"uint256"},{"internalType":"address","name":"owner","type":"address"}],"name":"ERC721IncorrectOwner","type":"error"},{"inputs":[{"internalType":"address","name":"operator","type":"address"},{"internalType":"uint256","name":"tokenId","type":"uint256"}],"name":"ERC721InsufficientApproval","type":"error"},{"inputs":[{"internalType":"address","name":"approver","type":"address"}],"name":"ERC721InvalidApprover","type":"error"},{"inputs":[{"internalType":"address","name":"operator","type":"address"}],"name":"ERC721InvalidOperator","type":"error"},{"inputs":[{"internalType":"address","name":"owner","type":"address"}],"name":"ERC721InvalidOwner","type":"error"},{"inputs":[{"internalType":"address","name":"receiver","type":"address"}],"name":"ERC721InvalidReceiver","type":"error"},{"inputs":[{"internalType":"address","name":"sender","type":"address"}],"name":"ERC721InvalidSender","type":"error"},{"inputs":[{"internalType":"uint256","name":"tokenId","type":"uint256"}],"name":"ERC721NonexistentToken","type":"error"},{"inputs":[{"internalType":"address","name":"owner","type":"address"},{"internalType":"uint256","name":"index","type":"uint256"}],"name":"ERC721OutOfBoundsIndex","type":"error"},{"inputs":[],"name":"EnforcedPause","type":"error"},{"inputs":[],"name":"ExpectedPause","type":"error"},{"inputs":[{"internalType":"address","name":"owner","type":"address"}],"name":"OwnableInvalidOwner","type":"error"},{"inputs":[{"internalType":"address","name":"account","type":"address"}],"name":"OwnableUnauthorizedAccount","type":"error"},{"inputs":[],"name":"ReentrancyGuardReentrantCall","type":"error"},{"anonymous":false,"inputs":[{"indexed":true,"internalType":"address","name":"addr","type":"address"},{"indexed":false,"internalType":"bool","name":"blacklisted","type":"bool"}],"name":"AddressBlacklisted","type":"event"},{"anonymous":false,"inputs":[{"indexed":true,"internalType":"address","name":"owner","type":"address"},{"indexed":true,"internalType":"address","name":"approved","type":"address"},{"indexed":true,"internalType":"uint256","name":"tokenId","type":"uint256"}],"name":"Approval","type":"event"},{"anonymous":false,"inputs":[{"indexed":true,"internalType":"address","name":"owner","type":"address"},{"indexed":true,"internalType":"address","name":"operator","type":"address"},{"indexed":false,"internalType":"bool","name":"approved","type":"bool"}],"name":"ApprovalForAll","type":"event"},{"anonymous":false,"inputs":[{"indexed":false,"internalType":"uint256","name":"_fromTokenId","type":"uint256"},{"indexed":false,"internalType":"uint256","name":"_toTokenId","type":"uint256"}],"name":"BatchMetadataUpdate","type":"event"},{"anonymous":false,"inputs":[{"indexed":true,"internalType":"uint256","name":"campaignId","type":"uint256"}],"name":"CampaignClosed","type":"event"},{"anonymous":false,"inputs":[{"indexed":true,"internalType":"uint256","name":"campaignId","type":"uint256"},{"indexed":true,"internalType":"address","name":"nonprofit","type":"address"},{"indexed":false,"internalType":"string","name":"category","type":"string"},{"indexed":false,"internalType":"uint256","name":"goal","type":"uint256"},{"indexed":false,"internalType":"uint256","name":"maxEditions","type":"uint256"},{"indexed":false,"internalType":"uint256","name":"pricePerEdition","type":"uint256"}],"name":"CampaignCreated","type":"event"},{"anonymous":false,"inputs":[{"indexed":true,"internalType":"uint256","name":"campaignId","type":"uint256"},{"indexed":false,"internalType":"string","name":"newBaseURI","type":"string"}],"name":"CampaignMetadataUpdated","type":"event"},{"anonymous":false,"inputs":[{"indexed":true,"internalType":"uint256","name":"campaignId","type":"uint256"}],"name":"CampaignRefunded","type":"event"},{"anonymous":false,"inputs":[{"indexed":true,"internalType":"uint256","name":"campaignId","type":"uint256"},{"indexed":false,"internalType":"string","name":"field","type":"string"}],"name":"CampaignUpdated","type":"event"},{"anonymous":false,"inputs":[{"indexed":true,"internalType":"uint256","name":"campaignId","type":"uint256"},{"indexed":false,"internalType":"uint256","name":"gross","type":"uint256"},{"indexed":false,"internalType":"uint256","name":"net","type":"uint256"},{"indexed":false,"internalType":"uint256","name":"tip","type":"uint256"},{"indexed":false,"internalType":"bool","name":"isOnchain","type":"bool"}],"name":"ContributionRecorded","type":"event"},{"anonymous":false,"inputs":[{"indexed":false,"internalType":"uint96","name":"newRoyaltyBps","type":"uint96"}],"name":"DefaultRoyaltyUpdated","type":"event"},{"anonymous":false,"inputs":[{"indexed":true,"internalType":"uint256","name":"campaignId","type":"uint256"},{"indexed":true,"internalType":"uint256","name":"tokenId","type":"uint256"},{"indexed":true,"internalType":"address","name":"donor","type":"address"},{"indexed":false,"internalType":"uint256","name":"editionNumber","type":"uint256"},{"indexed":false,"internalType":"uint256","name":"amountPaid","type":"uint256"}],"name":"EditionMinted","type":"event"},{"anonymous":false,"inputs":[{"indexed":true,"internalType":"address","name":"to","type":"address"},{"indexed":false,"internalType":"uint256","name":"amount","type":"uint256"}],"name":"EmergencyWithdraw","type":"event"},{"anonymous":false,"inputs":[{"indexed":false,"internalType":"uint256","name":"_tokenId","type":"uint256"}],"name":"MetadataUpdate","type":"event"},{"anonymous":false,"inputs":[{"indexed":true,"internalType":"address","name":"previousOwner","type":"address"},{"indexed":true,"internalType":"address","name":"newOwner","type":"address"}],"name":"OwnershipTransferred","type":"event"},{"anonymous":false,"inputs":[{"indexed":false,"internalType":"address","name":"account","type":"address"}],"name":"Paused","type":"event"},{"anonymous":false,"inputs":[{"indexed":true,"internalType":"uint256","name":"tokenId","type":"uint256"},{"indexed":true,"internalType":"address","name":"burner","type":"address"}],"name":"TokenBurned","type":"event"},{"anonymous":false,"inputs":[{"indexed":true,"internalType":"uint256","name":"tokenId","type":"uint256"},{"indexed":false,"internalType":"bool","name":"frozen","type":"bool"}],"name":"TokenFrozen","type":"event"},{"anonymous":false,"inputs":[{"indexed":true,"internalType":"uint256","name":"tokenId","type":"uint256"},{"indexed":false,"internalType":"bool","name":"soulbound","type":"bool"}],"name":"TokenSoulbound","type":"event"},{"anonymous":false,"inputs":[{"indexed":true,"internalType":"uint256","name":"tokenId","type":"uint256"},{"indexed":false,"internalType":"string","name":"newURI","type":"string"}],"name":"TokenURIFixed","type":"event"},{"anonymous":false,"inputs":[{"indexed":true,"internalType":"address","name":"from","type":"address"},{"indexed":true,"internalType":"address","name":"to","type":"address"},{"indexed":true,"internalType":"uint256","name":"tokenId","type":"uint256"}],"name":"Transfer","type":"event"},{"anonymous":false,"inputs":[{"indexed":true,"internalType":"address","name":"oldTreasury","type":"address"},{"indexed":true,"internalType":"address","name":"newTreasury","type":"address"}],"name":"TreasuryUpdated","type":"event"},{"anonymous":false,"inputs":[{"indexed":false,"internalType":"address","name":"account","type":"address"}],"name":"Unpaused","type":"event"},{"stateMutability":"payable","type":"fallback"},{"inputs":[{"internalType":"uint256","name":"tokenId","type":"uint256"}],"name":"adminBurn","outputs":[],"stateMutability":"nonpayable","type":"function"},{"inputs":[{"internalType":"address","name":"to","type":"address"},{"internalType":"uint256","name":"tokenId","type":"uint256"}],"name":"approve","outputs":[],"stateMutability":"nonpayable","type":"function"},{"inputs":[{"internalType":"address","name":"owner","type":"address"}],"name":"balanceOf","outputs":[{"internalType":"uint256","name":"","type":"uint256"}],"stateMutability":"view","type":"function"},{"inputs":[{"internalType":"uint256[]","name":"tokenIds","type":"uint256[]"},{"internalType":"uint256","name":"campaignId","type":"uint256"}],"name":"batchFixTokenCampaignLink","outputs":[],"stateMutability":"nonpayable","type":"function"},{"inputs":[{"internalType":"uint256[]","name":"tokenIds","type":"uint256[]"},{"internalType":"bool","name":"freeze","type":"bool"}],"name":"batchFreezeTokens","outputs":[],"stateMutability":"nonpayable","type":"function"},{"inputs":[{"internalType":"uint256[]","name":"tokenIds","type":"uint256[]"},{"internalType":"string","name":"uri","type":"string"}],"name":"batchSetTokenURI","outputs":[],"stateMutability":"nonpayable","type":"function"},{"inputs":[{"internalType":"address","name":"addr","type":"address"}],"name":"blacklistAddress","outputs":[],"stateMutability":"nonpayable","type":"function"},{"inputs":[{"internalType":"address","name":"","type":"address"}],"name":"blacklisted","outputs":[{"internalType":"bool","name":"","type":"bool"}],"stateMutability":"view","type":"function"},{"inputs":[{"internalType":"uint256","name":"tokenId","type":"uint256"}],"name":"burn","outputs":[],"stateMutability":"nonpayable","type":"function"},{"inputs":[{"internalType":"uint256","name":"","type":"uint256"},{"internalType":"uint256","name":"","type":"uint256"}],"name":"campaignEditions","outputs":[{"internalType":"uint256","name":"","type":"uint256"}],"stateMutability":"view","type":"function"},{"inputs":[{"internalType":"uint256","name":"","type":"uint256"}],"name":"campaigns","outputs":[{"internalType":"string","name":"category","type":"string"},{"internalType":"string","name":"baseURI","type":"string"},{"internalType":"uint256","name":"goal","type":"uint256"},{"internalType":"uint256","name":"grossRaised","type":"uint256"},{"internalType":"uint256","name":"netRaised","type":"uint256"},{"internalType":"uint256","name":"tipsReceived","type":"uint256"},{"internalType":"uint256","name":"editionsMinted","type":"uint256"},{"internalType":"uint256","name":"maxEditions","type":"uint256"},{"internalType":"uint256","name":"pricePerEdition","type":"uint256"},{"internalType":"uint256","name":"nonprofitFeeRate","type":"uint256"},{"internalType":"address","name":"nonprofit","type":"address"},{"internalType":"address","name":"submitter","type":"address"},{"internalType":"bool","name":"active","type":"bool"},{"internalType":"bool","name":"closed","type":"bool"},{"internalType":"bool","name":"refunded","type":"bool"}],"stateMutability":"view","type":"function"},{"inputs":[{"internalType":"uint256","name":"campaignId","type":"uint256"}],"name":"closeCampaign","outputs":[],"stateMutability":"nonpayable","type":"function"},{"inputs":[{"internalType":"string","name":"category","type":"string"},{"internalType":"string","name":"baseURI","type":"string"},{"internalType":"uint256","name":"goal","type":"uint256"},{"internalType":"uint256","name":"maxEditions","type":"uint256"},{"internalType":"uint256","name":"pricePerEdition","type":"uint256"},{"internalType":"uint256","name":"feeRate","type":"uint256"},{"internalType":"address","name":"submitter","type":"address"}],"name":"createCampaign","outputs":[{"internalType":"uint256","name":"","type":"uint256"}],"stateMutability":"nonpayable","type":"function"},{"inputs":[{"internalType":"uint256","name":"campaignId","type":"uint256"}],"name":"deactivateCampaign","outputs":[],"stateMutability":"nonpayable","type":"function"},{"inputs":[],"name":"defaultRoyaltyBps","outputs":[{"internalType":"uint96","name":"","type":"uint96"}],"stateMutability":"view","type":"function"},{"inputs":[],"name":"deleteDefaultRoyalty","outputs":[],"stateMutability":"nonpayable","type":"function"},{"inputs":[],"name":"emergencyWithdraw","outputs":[],"stateMutability":"nonpayable","type":"function"},{"inputs":[{"internalType":"uint256","name":"fromTokenId","type":"uint256"},{"internalType":"uint256","name":"toTokenId","type":"uint256"}],"name":"emitBatchMetadataUpdate","outputs":[],"stateMutability":"nonpayable","type":"function"},{"inputs":[{"internalType":"uint256","name":"tokenId","type":"uint256"}],"name":"emitMetadataUpdate","outputs":[],"stateMutability":"nonpayable","type":"function"},{"inputs":[{"internalType":"uint256","name":"tokenId","type":"uint256"},{"internalType":"uint256","name":"campaignId","type":"uint256"}],"name":"fixTokenCampaignLink","outputs":[],"stateMutability":"nonpayable","type":"function"},{"inputs":[{"internalType":"uint256","name":"tokenId","type":"uint256"}],"name":"freezeToken","outputs":[],"stateMutability":"nonpayable","type":"function"},{"inputs":[{"internalType":"uint256","name":"","type":"uint256"}],"name":"frozenTokens","outputs":[{"internalType":"bool","name":"","type":"bool"}],"stateMutability":"view","type":"function"},{"inputs":[{"internalType":"uint256","name":"tokenId","type":"uint256"}],"name":"getApproved","outputs":[{"internalType":"address","name":"","type":"address"}],"stateMutability":"view","type":"function"},{"inputs":[{"internalType":"uint256","name":"campaignId","type":"uint256"}],"name":"getCampaign","outputs":[{"internalType":"string","name":"category","type":"string"},{"internalType":"string","name":"baseURI","type":"string"},{"internalType":"uint256","name":"goal","type":"uint256"},{"internalType":"uint256","name":"grossRaised","type":"uint256"},{"internalType":"uint256","name":"netRaised","type":"uint256"},{"internalType":"uint256","name":"editionsMinted","type":"uint256"},{"internalType":"uint256","name":"maxEditions","type":"uint256"},{"internalType":"uint256","name":"pricePerEdition","type":"uint256"},{"internalType":"bool","name":"active","type":"bool"},{"internalType":"bool","name":"closed","type":"bool"}],"stateMutability":"view","type":"function"},{"inputs":[{"internalType":"uint256","name":"campaignId","type":"uint256"}],"name":"getCampaignEditions","outputs":[{"internalType":"uint256[]","name":"","type":"uint256[]"}],"stateMutability":"view","type":"function"},{"inputs":[{"internalType":"uint256","name":"tokenId","type":"uint256"}],"name":"getEditionInfo","outputs":[{"internalType":"uint256","name":"campaignId","type":"uint256"},{"internalType":"uint256","name":"editionNumber","type":"uint256"},{"internalType":"uint256","name":"totalEditions","type":"uint256"}],"stateMutability":"view","type":"function"},{"inputs":[{"internalType":"address","name":"owner","type":"address"},{"internalType":"address","name":"operator","type":"address"}],"name":"isApprovedForAll","outputs":[{"internalType":"bool","name":"","type":"bool"}],"stateMutability":"view","type":"function"},{"inputs":[{"internalType":"uint256","name":"tokenId","type":"uint256"}],"name":"makeSoulbound","outputs":[],"stateMutability":"nonpayable","type":"function"},{"inputs":[{"internalType":"uint256","name":"campaignId","type":"uint256"}],"name":"markCampaignRefunded","outputs":[],"stateMutability":"nonpayable","type":"function"},{"inputs":[{"internalType":"uint256","name":"campaignId","type":"uint256"},{"internalType":"uint256","name":"quantity","type":"uint256"}],"name":"mintBatchWithBDAG","outputs":[{"internalType":"uint256[]","name":"tokenIds","type":"uint256[]"}],"stateMutability":"payable","type":"function"},{"inputs":[{"internalType":"uint256","name":"campaignId","type":"uint256"},{"internalType":"uint256","name":"quantity","type":"uint256"},{"internalType":"uint256","name":"tipAmount","type":"uint256"}],"name":"mintBatchWithBDAGAndTip","outputs":[{"internalType":"uint256[]","name":"tokenIds","type":"uint256[]"}],"stateMutability":"payable","type":"function"},{"inputs":[{"internalType":"uint256","name":"campaignId","type":"uint256"},{"internalType":"address","name":"donor","type":"address"},{"internalType":"uint256","name":"amountPaid","type":"uint256"}],"name":"mintEditionToDonor","outputs":[{"internalType":"uint256","name":"","type":"uint256"}],"stateMutability":"nonpayable","type":"function"},{"inputs":[{"internalType":"uint256","name":"campaignId","type":"uint256"}],"name":"mintWithBDAG","outputs":[{"internalType":"uint256","name":"","type":"uint256"}],"stateMutability":"payable","type":"function"},{"inputs":[{"internalType":"uint256","name":"campaignId","type":"uint256"},{"internalType":"uint256","name":"tipAmount","type":"uint256"}],"name":"mintWithBDAGAndTip","outputs":[{"internalType":"uint256","name":"","type":"uint256"}],"stateMutability":"payable","type":"function"},{"inputs":[],"name":"name","outputs":[{"internalType":"string","name":"","type":"string"}],"stateMutability":"view","type":"function"},{"inputs":[],"name":"owner","outputs":[{"internalType":"address","name":"","type":"address"}],"stateMutability":"view","type":"function"},{"inputs":[{"internalType":"uint256","name":"tokenId","type":"uint256"}],"name":"ownerOf","outputs":[{"internalType":"address","name":"","type":"address"}],"stateMutability":"view","type":"function"},{"inputs":[],"name":"pause","outputs":[],"stateMutability":"nonpayable","type":"function"},{"inputs":[],"name":"paused","outputs":[{"internalType":"bool","name":"","type":"bool"}],"stateMutability":"view","type":"function"},{"inputs":[{"internalType":"uint256","name":"campaignId","type":"uint256"}],"name":"reactivateCampaign","outputs":[],"stateMutability":"nonpayable","type":"function"},{"inputs":[{"internalType":"uint256","name":"campaignId","type":"uint256"},{"internalType":"uint256","name":"gross","type":"uint256"},{"internalType":"uint256","name":"net","type":"uint256"},{"internalType":"uint256","name":"tip","type":"uint256"},{"internalType":"bool","name":"isOnchain","type":"bool"}],"name":"recordContribution","outputs":[],"stateMutability":"nonpayable","type":"function"},{"inputs":[{"internalType":"address","name":"addr","type":"address"}],"name":"removeBlacklist","outputs":[],"stateMutability":"nonpayable","type":"function"},{"inputs":[{"internalType":"uint256","name":"tokenId","type":"uint256"}],"name":"removeSoulbound","outputs":[],"stateMutability":"nonpayable","type":"function"},{"inputs":[],"name":"renounceOwnership","outputs":[],"stateMutability":"nonpayable","type":"function"},{"inputs":[{"internalType":"uint256","name":"tokenId","type":"uint256"},{"internalType":"uint256","name":"salePrice","type":"uint256"}],"name":"royaltyInfo","outputs":[{"internalType":"address","name":"","type":"address"},{"internalType":"uint256","name":"","type":"uint256"}],"stateMutability":"view","type":"function"},{"inputs":[{"internalType":"address","name":"from","type":"address"},{"internalType":"address","name":"to","type":"address"},{"internalType":"uint256","name":"tokenId","type":"uint256"}],"name":"safeTransferFrom","outputs":[],"stateMutability":"nonpayable","type":"function"},{"inputs":[{"internalType":"address","name":"from","type":"address"},{"internalType":"address","name":"to","type":"address"},{"internalType":"uint256","name":"tokenId","type":"uint256"},{"internalType":"bytes","name":"data","type":"bytes"}],"name":"safeTransferFrom","outputs":[],"stateMutability":"nonpayable","type":"function"},{"inputs":[{"internalType":"address","name":"operator","type":"address"},{"internalType":"bool","name":"approved","type":"bool"}],"name":"setApprovalForAll","outputs":[],"stateMutability":"nonpayable","type":"function"},{"inputs":[{"internalType":"address","name":"receiver","type":"address"},{"internalType":"uint96","name":"feeNumerator","type":"uint96"}],"name":"setDefaultRoyalty","outputs":[],"stateMutability":"nonpayable","type":"function"},{"inputs":[{"internalType":"uint256","name":"tokenId","type":"uint256"},{"internalType":"address","name":"receiver","type":"address"},{"internalType":"uint96","name":"feeNumerator","type":"uint96"}],"name":"setTokenRoyalty","outputs":[],"stateMutability":"nonpayable","type":"function"},{"inputs":[{"internalType":"uint256","name":"tokenId","type":"uint256"},{"internalType":"string","name":"uri","type":"string"}],"name":"setTokenURI","outputs":[],"stateMutability":"nonpayable","type":"function"},{"inputs":[{"internalType":"address","name":"newTreasury","type":"address"}],"name":"setTreasury","outputs":[],"stateMutability":"nonpayable","type":"function"},{"inputs":[{"internalType":"uint256","name":"","type":"uint256"}],"name":"soulbound","outputs":[{"internalType":"bool","name":"","type":"bool"}],"stateMutability":"view","type":"function"},{"inputs":[{"internalType":"bytes4","name":"interfaceId","type":"bytes4"}],"name":"supportsInterface","outputs":[{"internalType":"bool","name":"","type":"bool"}],"stateMutability":"view","type":"function"},{"inputs":[],"name":"symbol","outputs":[{"internalType":"string","name":"","type":"string"}],"stateMutability":"view","type":"function"},{"inputs":[{"internalType":"uint256","name":"index","type":"uint256"}],"name":"tokenByIndex","outputs":[{"internalType":"uint256","name":"","type":"uint256"}],"stateMutability":"view","type":"function"},{"inputs":[{"internalType":"uint256","name":"","type":"uint256"}],"name":"tokenEditionNumber","outputs":[{"internalType":"uint256","name":"","type":"uint256"}],"stateMutability":"view","type":"function"},{"inputs":[{"internalType":"address","name":"owner","type":"address"},{"internalType":"uint256","name":"index","type":"uint256"}],"name":"tokenOfOwnerByIndex","outputs":[{"internalType":"uint256","name":"","type":"uint256"}],"stateMutability":"view","type":"function"},{"inputs":[{"internalType":"uint256","name":"","type":"uint256"}],"name":"tokenToCampaign","outputs":[{"internalType":"uint256","name":"","type":"uint256"}],"stateMutability":"view","type":"function"},{"inputs":[{"internalType":"uint256","name":"tokenId","type":"uint256"}],"name":"tokenURI","outputs":[{"internalType":"string","name":"","type":"string"}],"stateMutability":"view","type":"function"},{"inputs":[],"name":"totalCampaigns","outputs":[{"internalType":"uint256","name":"","type":"uint256"}],"stateMutability":"view","type":"function"},{"inputs":[],"name":"totalSupply","outputs":[{"internalType":"uint256","name":"","type":"uint256"}],"stateMutability":"view","type":"function"},{"inputs":[{"internalType":"address","name":"from","type":"address"},{"internalType":"address","name":"to","type":"address"},{"internalType":"uint256","name":"tokenId","type":"uint256"}],"name":"transferFrom","outputs":[],"stateMutability":"nonpayable","type":"function"},{"inputs":[{"internalType":"address","name":"newOwner","type":"address"}],"name":"transferOwnership","outputs":[],"stateMutability":"nonpayable","type":"function"},{"inputs":[],"name":"treasury","outputs":[{"internalType":"address","name":"","type":"address"}],"stateMutability":"view","type":"function"},{"inputs":[{"internalType":"uint256","name":"tokenId","type":"uint256"}],"name":"unfreezeToken","outputs":[],"stateMutability":"nonpayable","type":"function"},{"inputs":[],"name":"unpause","outputs":[],"stateMutability":"nonpayable","type":"function"},{"inputs":[{"internalType":"uint256","name":"campaignId","type":"uint256"},{"internalType":"string","name":"newCategory","type":"string"}],"name":"updateCampaignCategory","outputs":[],"stateMutability":"nonpayable","type":"function"},{"inputs":[{"internalType":"uint256","name":"campaignId","type":"uint256"},{"internalType":"uint256","name":"newFeeRate","type":"uint256"}],"name":"updateCampaignFeeRate","outputs":[],"stateMutability":"nonpayable","type":"function"},{"inputs":[{"internalType":"uint256","name":"campaignId","type":"uint256"},{"internalType":"uint256","name":"newGoal","type":"uint256"}],"name":"updateCampaignGoal","outputs":[],"stateMutability":"nonpayable","type":"function"},{"inputs":[{"internalType":"uint256","name":"campaignId","type":"uint256"},{"internalType":"uint256","name":"newMax","type":"uint256"}],"name":"updateCampaignMaxEditions","outputs":[],"stateMutability":"nonpayable","type":"function"},{"inputs":[{"internalType":"uint256","name":"campaignId","type":"uint256"},{"internalType":"string","name":"newBaseURI","type":"string"}],"name":"updateCampaignMetadata","outputs":[],"stateMutability":"nonpayable","type":"function"},{"inputs":[{"internalType":"uint256","name":"campaignId","type":"uint256"},{"internalType":"uint256","name":"newPrice","type":"uint256"}],"name":"updateCampaignPrice","outputs":[],"stateMutability":"nonpayable","type":"function"},{"inputs":[{"internalType":"uint256","name":"campaignId","type":"uint256"},{"internalType":"address","name":"newSubmitter","type":"address"}],"name":"updateCampaignSubmitter","outputs":[],"stateMutability":"nonpayable","type":"function"},{"inputs":[{"internalType":"address payable","name":"to","type":"address"},{"internalType":"uint256","name":"amount","type":"uint256"}],"name":"withdraw","outputs":[],"stateMutability":"nonpayable","type":"function"},{"stateMutability":"payable","type":"receive"}],"evm":{"bytecode":{"linkReferences":{},"object":"60406080815234620003dc5762000015620003e1565b601581526020907f50617472696f74506c656467652045646974696f6e0000000000000000000000828201526200004b620003e1565b60038082526250504560e81b8483015282516001600160401b039492858211620001cf57600254916001958684811c94168015620003d1575b86851014620002e4578190601f948581116200037a575b508690858311600114620003115760009262000305575b505060001982861b1c191690861b176002555b805191868311620001cf578354918683811c93168015620002fa575b86841014620002e45782828594116200028c575b5085918311600114620002255760009262000219575b505060001982841b1c191690841b1790555b33156200020157600d5484519290336001600160a01b0382167f8be0079c531659141344cd1fd0a4f28419497f9722a3daafe3b4186f6b6457e0600080a36001600160a81b0319163360ff60a01b19811691909117600d55600e91909155607d60a11b1760118190559260a084901c92612710808511620001e557505084519081860190811182821017620001cf578552338152015260018060a01b0319163317600055516149799081620004028239f35b634e487b7160e01b600052604160045260246000fd5b636f483d0960e01b825260048201859052602482015260449150fd5b8351631e4fbdf760e01b815260006004820152602490fd5b0151905038806200010b565b90869350601f1983169185600052866000209260005b888282106200027557505084116200025c575b505050811b0190556200011d565b015160001983861b60f8161c191690553880806200024e565b8385015186558a979095019493840193016200023b565b9091925084600052856000208380860160051c820192888710620002da575b9186958a929594930160051c01915b828110620002ca575050620000f5565b60008155869550899101620002ba565b92508192620002ab565b634e487b7160e01b600052602260045260246000fd5b92607f1692620000e1565b015190503880620000b2565b90889350601f198316916002600052886000209260005b8a8282106200036357505084116200034a575b505050811b01600255620000c5565b015160001983881b60f8161c191690553880806200033b565b8385015186558c9790950194938401930162000328565b9091506002600052866000208580850160051c820192898610620003c7575b918a91869594930160051c01915b828110620003b75750506200009b565b600081558594508a9101620003a7565b9250819262000399565b93607f169362000084565b600080fd5b60408051919082016001600160401b03811183821017620001cf5760405256fe608080604052600436101561001a575b50361561001857005b005b60003560e01c90816301ffc9a71461317b5750806302932f561461315d57806304634d8d1461307657806306fdde0314612fc8578063081812fc14612f8a578063095ea7b314612ea35780630d6f0d2b14612dde578063141961bc14612cd1578063162094c414612c495780631797c8f214612ac057806318160ddd14612aa257806318d33e4114612a815780631cc76d75146129ae5780631dda279b1461281d5780631e2b8983146127075780631fdc217c146125f757806323b872dd146125e057806325532ecd146125245780632a55205a146124725780632a76d5531461235d5780632f745c59146122d95780633190b9ea146122925780633705f2a8146122195780633f4ba83a146121a7578063407de9df1461217657806342842e0e1461214857806342966c68146120935780634639cfaa14611fb757806347c735fc14611f585780634d787ea914611ef95780634db7bfff14611d335780634f6ccce714611cdd57806351a0bbb214611c725780635598f8cc14611bae5780635944c75314611ad95780635c975abb14611ab357806361d027b314611a8a5780636352211e14611a5a5780636fb8696c146119c557806370a082311461199a578063715018a61461193d5780637a1815971461190c5780637eca30fe146118975780638079ca0c146118435780638456cb59146117e15780638da5cb5b146117b85780638e20f98c146115c45780638f52d21a146114b857806395d89b41146113d557806396ab0493146113b6578063a0a441bb14611350578063a22cb465146112a5578063a48301141461125f578063a591eea1146111da578063aa1b103f146111bb578063b0e1c1e114611156578063b6358d991461112a578063b6854f96146110a5578063b88d4fde1461103b578063badb97ff14610fb9578063c169221314610f8d578063c608e72a14610e41578063c87b56dd14610de4578063cc3c300814610985578063d88d6ef3146107eb578063db2e21bc1461074e578063dbac26e91461070f578063e985e9c5146106b9578063eb91e6511461064d578063f0f44260146105a5578063f2fde38b1461051c578063f3290d75146104ad578063f3fef3a31461040c578063f401f8a0146103db5763fb77211c14610360573861000f565b346103d65761036e366132a0565b610376613e6a565b8160005260156020526008604060002061039a60ff600b83015460a81c16156135b3565b0155600080516020614904833981519152606060405160208152600f60208201526e383934b1b2a832b922b234ba34b7b760891b6040820152a2005b600080fd5b346103d65760203660031901126103d6576004356000526012602052602060ff604060002054166040519015158152f35b346103d65760403660031901126103d6576004356001600160a01b038116908190036103d6576024359061043e613e6a565b8147106104715760008080938193828215610468575bf11561045c57005b6040513d6000823e3d90fd5b506108fc610454565b60405162461bcd60e51b8152602060048201526014602482015273496e73756666696369656e742062616c616e636560601b6044820152606490fd5b346103d65760203660031901126103d6576104c6613234565b6104ce613e6a565b60018060a01b03168060005260136020526040600020600160ff198254161790557f97b7af35c8c05eca90f543eb78b16fdf2664d3e6c9a907286f310647d9813b71602060405160018152a2005b346103d65760203660031901126103d657610535613234565b61053d613e6a565b6001600160a01b0390811690811561058c57600d54826001600160601b0360a01b821617600d55167f8be0079c531659141344cd1fd0a4f28419497f9722a3daafe3b4186f6b6457e0600080a3005b604051631e4fbdf760e01b815260006004820152602490fd5b346103d65760203660031901126103d6576105be613234565b6105c6613e6a565b6001600160a01b0390811690811561061557601154826001600160601b0360a01b821617601155167f4ab5be82436d353e61ca18726e984e561f5c1cc7c6d38b29d2553c790434705a600080a3005b60405162461bcd60e51b815260206004820152601060248201526f496e76616c696420747265617375727960801b6044820152606490fd5b346103d65760203660031901126103d657610666613234565b61066e613e6a565b6001600160a01b03166000818152601360209081526040808320805460ff19169055519182527f97b7af35c8c05eca90f543eb78b16fdf2664d3e6c9a907286f310647d9813b7191a2005b346103d65760403660031901126103d6576106d2613234565b6106da61324a565b9060018060a01b03809116600052600760205260406000209116600052602052602060ff604060002054166040519015158152f35b346103d65760203660031901126103d6576001600160a01b03610730613234565b166000526013602052602060ff604060002054166040519015158152f35b346103d65760003660031901126103d657610767613e6a565b4780156107b95760018060a01b03600080808085856011541682f11561045c5760207f5fafa99d0643513820be26656b45130b01e1c03062e1266bf36f88cbd3bd9695916011541692604051908152a2005b60405162461bcd60e51b815260206004820152600a6024820152694e6f2062616c616e636560b01b6044820152606490fd5b6020806003193601126103d65760043561080361400b565b336000526013825261081d60ff6040600020541615613655565b61082561402c565b806000526015825260406000209061086460ff600b84015461084b828260a01c1661369a565b61085a828260a81c16156135b3565b60b01c16156136dc565b61087c60078301548015908115610977575b5061371c565b61088c6008830154341015613782565b600f5491610899836137c5565b600f556108ee6108e8600160068401936108b385546137c5565b809555600381016108c534825461375f565b9055600481016108d634825461375f565b90556108e2873361404f565b01613347565b84613ed1565b8260005260168452816040600020556017845280604060002055816000526018845261091e83604060002061381d565b604051908152348482015282826000805160206148e483398151915260403394a4600080516020614924833981519152608060405134815234868201526000604082015260016060820152a26001600e55604051908152f35b905060068401541085610876565b346103d65760e03660031901126103d6576004356001600160401b0381116103d6576109b59036906004016133ec565b6024356001600160401b0381116103d6576109d49036906004016133ec565b919060c4356001600160a01b03811681036103d6576109f1613e6a565b601054936109fe856137c5565b601055604051926101e08401918483106001600160401b03841117610d5757610a3892604052610a2f36878a61357c565b8552369161357c565b602083015260443560408301526000606083015260006080830152600060a0830152600060c083015260643560e083015260843561010083015260a4356101208301523361014083015260018060a01b0316610160820152600161018082015260006101a082015260006101c082015282600052601560205260406000209381518051906001600160401b038211610d5757610ade82610ad889546132b6565b89613840565b602090601f8311600114610d7857610b0f929160009183610d6d575b50508160011b916000199060031b1c19161790565b85555b6020820151918251956001600160401b038711610d5757868694610b48602099610b3f60018601546132b6565b60018601613840565b8890601f8311600114610cbd5792610ba183610c8c9694600b947f9a6f279818b6c3ecad22dd882c63460a80cee0df2841c888adb08588aff26c229997600092610cb25750508160011b916000199060031b1c19161790565b60018201555b60408301516002820155606083015160038201556080830151600482015560a0830151600582015560c0830151600682015560e0830151600782015561010083015160088201556101208301516009820155600a810160018060a01b03610140850151166001600160601b0360a01b825416179055019060018060a01b03610160820151169082549160ff60a01b610180830151151560a01b169060ff60a81b6101a0840151151560a81b16926101c060ff60b01b910151151560b01b169368ffffffffffffffffff60b81b1617171717905560405194608086526080860191613634565b9260443586820152606435604082015260843560608201528033940390a3604051908152f35b015190508d80610afa565b9060018401600052896000209160005b601f1985168110610d3d575083600b937f9a6f279818b6c3ecad22dd882c63460a80cee0df2841c888adb08588aff26c22989693600193610c8c9997601f19811610610d24575b505050811b016001820155610ba7565b015160001960f88460031b161c191690558c8080610d14565b8183015184558a9850600190930192918b01918b01610ccd565b634e487b7160e01b600052604160045260246000fd5b015190508880610afa565b9190876000526020600020906000935b601f1984168510610dc9576001945083601f19811610610db0575b505050811b018555610b12565b015160001960f88460031b161c19169055878080610da3565b81810151835560209485019460019093019290910190610d88565b346103d65760203660031901126103d657600435610e0181613e96565b50600052600c602052610e3d610e1a6040600020613347565b6000604051610e288161330b565b52604051918291602083526020830190613260565b0390f35b346103d657610e4f36613419565b610e5a929192613e6a565b8160005260209060158252604060002090610e7f60ff600b84015460a81c16156135b3565b6001600160401b038111610d5757610ea181610e9b84546132b6565b84613840565b6000601f8211600114610f1357816060949392610ee5926000805160206149048339815191529798600092610f085750508160011b916000199060031b1c19161790565b90555b6008604051918083528201526763617465676f727960c01b6040820152a2005b013590508880610afa565b601f1982169083600052846000209160005b818110610f7657509160008051602061490483398151915296978492606097969560019510610f5c575b505050811b019055610ee8565b0135600019600384901b60f8161c19169055878080610f4f565b91928660018192868c013581550194019201610f25565b346103d65760203660031901126103d65760043560005260166020526020604060002054604051908152f35b346103d65760203660031901126103d657600435610fd5613e6a565b6000818152600460205260409020546001600160a01b0390610ffa90821615156135f1565b81600052600460205260406000205416906110148161448d565b7f33631bcd0a4d34a7e2c240ab0753d5adfb7284d8ac89dab6876ec785c0cfa0e6600080a3005b346103d65760803660031901126103d657611054613234565b61105c61324a565b90604435606435926001600160401b0384116103d657366023850112156103d65761109461001894369060248160040135910161357c565b926110a08383836138a6565b6147a0565b346103d65760203660031901126103d6576004356110c1613e6a565b6000818152600460205260409020546110e4906001600160a01b031615156135f1565b8060005260126020526040600020600160ff198254161790557fbf025f2b09b91dc81d2b137bed7b878fb0bd75a3bfe4708d69989fda3c63485a602060405160018152a2005b346103d65760203660031901126103d65760043560005260176020526020604060002054604051908152f35b346103d65760203660031901126103d657600435611172613e6a565b6000818152601560205260408120600b01805461ffff60a01b1916600160a81b1790557f5e6eb33a418de5dbbc17f989f7ae362cdfbb1748c5d603137c767027a354edbc9080a2005b346103d65760003660031901126103d6576111d4613e6a565b60008055005b346103d65760203660031901126103d6576004356111f6613e6a565b600081815260046020526040902054611219906001600160a01b031615156135f1565b8060005260146020526040600020600160ff198254161790557f7fba17392135b4084a7d689c1f6d77139e1f1c18ee4651bf32dc35ae29ce9301602060405160018152a2005b346103d6577f6bd5c950a8d8df17f772f5af37cb3655737899cbf903264b9795592da439661c6040611290366132a0565b611298613e6a565b82519182526020820152a1005b346103d65760403660031901126103d6576112be613234565b6112c66134b1565b6001600160a01b03909116908115611337573360005260076020526040600020826000526020526113078160406000209060ff801983541691151516179055565b60405190151581527f17307eab39ab6107e8899845ad3d59bd9653f200f220920489ca2b5937696c3160203392a3005b604051630b61174360e31b815260048101839052602490fd5b346103d65760203660031901126103d65760043561136c613e6a565b6000818152601560205260408120600b01805462ff00ff60a01b1916600160b01b1790557f4825b022b52da7a8de8063d9ea8fd654176315fff40077d4c0374f8e1d8a245b9080a2005b346103d6576100186113c7366132a0565b906113d0613e6a565b613df0565b346103d65760003660031901126103d6576040516003546000826113f8836132b6565b918282526020936001908560018216918260001461149857505060011461143b575b5061142792500383613326565b610e3d604051928284938452830190613260565b84915060036000527fc2575a0e9e593c00f959f8c92f12db2869c3395a3b0502d05e2516446f71f85b906000915b85831061148057505061142793508201018561141a565b80548389018501528794508693909201918101611469565b60ff19168582015261142795151560051b850101925087915061141a9050565b346103d65760403660031901126103d6576001600160401b036004358181116103d6576114e990369060040161344c565b90916024359081116103d6576115039036906004016133ec565b909161150d613e6a565b60005b81811061151957005b6001906001600160a01b0361154e61153283868a613896565b356000908152600460205260409020546001600160a01b031690565b1661155a575b01611510565b61157a611568828589613896565b3561157436878961357c565b90613ed1565b611585818488613896565b357fac6d62cb5d30a7fff578060cd3dcf46ff2df7991a71c2d2aabca7e558f130f78604051806115bc60208083528201898b613634565b0390a2611554565b6115cd366132a0565b6115d561400b565b33600052602091601383526115f260ff6040600020541615613655565b6115fa61402c565b806000526015835260406000209261162060ff600b86015461084b828260a01c1661369a565b821515806117ad575b61163290613ccb565b61164a60078501548015908115611795575b50613d17565b61166361165b846008870154613c5a565b341015613782565b61166c83613d71565b926116778134613c6d565b906000600687019060019360018901915b8481106116f55750610e3d888860008051602061492483398151915260808a60048f600381016116b934825461375f565b9055016116c734825461375f565b90556040519034825234908201526000604082015260016060820152a26001600e55604051918291826134c0565b8084848a61176e8a958e60188e600f9561173d6117378854998a996117198b6137c5565b90556117258c546137c5565b809c556117328a3361404f565b613347565b88613ed1565b86600052601682528060406000205560178252886040600020556000525261176984604060002061381d565b613da3565b52604051918252848a8301528a6000805160206148e483398151915260403394a401611688565b90506117a585600688015461375f565b111586611644565b506032831115611629565b346103d65760003660031901126103d657600d546040516001600160a01b039091168152602090f35b346103d65760003660031901126103d6576117fa613e6a565b61180261400b565b600d805460ff60a01b1916600160a01b1790556040513381527f62e78cea01bee320cd4e420270b5ea74000d11b0c9f74754ebdbfc544b05a25890602090a1005b346103d65760203660031901126103d6576004356000526016602052606060406000205460176020526040600020548160005260156020526006604060002001549060405192835260208301526040820152f35b346103d65760203660031901126103d6576004356118b3613e6a565b806000526015602052600b60406000200160ff60a01b198154169055600080516020614904833981519152604051806119078160609060208152600660208201526561637469766560d01b60408201520190565b0390a2005b346103d65760203660031901126103d6576004356000526014602052602060ff604060002054166040519015158152f35b346103d65760003660031901126103d657611956613e6a565b600d80546001600160a01b031981169091556000906001600160a01b03167f8be0079c531659141344cd1fd0a4f28419497f9722a3daafe3b4186f6b6457e08280a3005b346103d65760203660031901126103d65760206119bd6119b8613234565b613db7565b604051908152f35b346103d65760403660031901126103d6576004356119e161324a565b6119e9613e6a565b816000526015602052600b60406000200190815490611a0e60ff8360a81c16156135b3565b60018060a01b0316906001600160601b0360a01b16179055600080516020614904833981519152606060405160208152600960208201526839bab136b4ba3a32b960b91b6040820152a2005b346103d65760203660031901126103d6576020611a78600435613e96565b6040516001600160a01b039091168152f35b346103d65760003660031901126103d6576011546040516001600160a01b039091168152602090f35b346103d65760003660031901126103d657602060ff600d5460a01c166040519015158152f35b346103d65760603660031901126103d657600435611af561324a565b604435906001600160601b0382168092036103d657611b12613e6a565b612710808311611b8a57506001600160a01b03908116928315611b6b5760405193611b3c856132f0565b84526020808501938452600091825260019052604090209251915160a01b6001600160a01b0319169116179055005b60449060405190634b4f842960e11b8252600482015260006024820152fd5b83606491846040519263dfd1fc1b60e01b8452600484015260248301526044820152fd5b346103d65760203660031901126103d6576004356000526015602052611c276040600020600281015460ff600383015460048401546006850154600786015490600887015492600b88015494611c35611c126001611c0b8c613347565b9b01613347565b6040519b8c9b8c6101408091528d0190613260565b908b820360208d0152613260565b9760408a01526060890152608088015260a087015260c086015260e0850152818160a01c16151561010085015260a81c1615156101208301520390f35b346103d657611c80366132a0565b611c88613e6a565b81600052601560205260026040600020611cac60ff600b83015460a81c16156135b3565b0155600080516020614904833981519152606060405160208152600460208201526319dbd85b60e21b6040820152a2005b346103d65760203660031901126103d657600435600a54811015611d1457611d066020916134fc565b90546040519160031b1c8152f35b6044906040519063295f44f760e21b8252600060048301526024820152fd5b60603660031901126103d657604435602435600435611d5061400b565b33600052602060138152611d6c60ff6040600020541615613655565b611d7461402c565b8160005260158152604060002092611d9a60ff600b86015461084b828260a01c1661369a565b80151580611eee575b611dac90613ccb565b611dc360078501548015908115611ed65750613d17565b611ddd61165b86611dd8846008890154613c5a565b61375f565b611de681613d71565b93611df186346137d4565b91611dfc8134613c6d565b906000600684019060019360018601915b848110611e8957610e3d8b8b6000805160206149248339815191528f8d6080918e60058f60038101611e4034825461375f565b905560048101611e5184825461375f565b905501611e5f83825461375f565b905560405192348452830152604082015260016060820152a26001600e55604051918291826134c0565b8084848c611eaf8f958b968f601890600f9561173d6117378854998a996117198b6137c5565b52604051918252848c8301528c6000805160206148e483398151915260403394a401611e0d565b9050611ee683600688015461375f565b111587611644565b506032811115611da3565b346103d65760203660031901126103d657600435611f15613e6a565b806000526012602052604060002060ff1981541690557fbf025f2b09b91dc81d2b137bed7b878fb0bd75a3bfe4708d69989fda3c63485a602060405160008152a2005b346103d65760203660031901126103d657600435611f74613e6a565b806000526014602052604060002060ff1981541690557f7fba17392135b4084a7d689c1f6d77139e1f1c18ee4651bf32dc35ae29ce9301602060405160008152a2005b346103d65760403660031901126103d6576004356001600160401b0381116103d657611fe790369060040161344c565b611fef6134b1565b611ff7613e6a565b60005b82811061200357005b6001906001600160a01b0361201c611532838789613896565b16612028575b01611ffa565b612033818587613896565b356000526020601281526120578460406000209060ff801983541691151516179055565b7fbf025f2b09b91dc81d2b137bed7b878fb0bd75a3bfe4708d69989fda3c63485a612083838789613896565b35916040518615158152a2612022565b346103d65760203660031901126103d65760043580600052600460205260018060a01b03604060002054163303612111578060005260126020526120df60ff6040600020541615613c8d565b6120e88161448d565b33907f33631bcd0a4d34a7e2c240ab0753d5adfb7284d8ac89dab6876ec785c0cfa0e6600080a3005b60405162461bcd60e51b815260206004820152600f60248201526e2737ba103a37b5b2b71037bbb732b960891b6044820152606490fd5b346103d6576100186121593661347c565b90604051926121678461330b565b600084526110a08383836138a6565b346103d657612184366132a0565b906000526018602052604060002080548210156103d657602091611d0691613549565b346103d65760003660031901126103d6576121c0613e6a565b600d5460ff8160a01c16156122075760ff60a01b1916600d556040513381527f5db9ee0a495bf2e6ff9c91a7834c1ba4fdd244a5e8aa4e537bd38aeae4b073aa90602090a1005b604051638dfc202b60e01b8152600490fd5b346103d6576020806003193601126103d65760043560005260186020526040600020906040519081602084549182815201936000526020600020916000905b82821061227b57610e3d8561226f81890382613326565b604051918291826134c0565b835486529485019460019384019390910190612258565b346103d65760203660031901126103d6576122ab613e6a565b7ff8e1a15aba9398e019f0b49df1a4fde98ee17ae345cb5f6b5e2c27f5033e8ce760206040516004358152a1005b346103d65760403660031901126103d6576122f2613234565b602435906122ff81613db7565b8210156123325760018060a01b031660005260086020526040600020906000526020526020604060002054604051908152f35b60405163295f44f760e21b81526001600160a01b039190911660048201526024810191909152604490fd5b346103d65760603660031901126103d657600435604061237b61324a565b91612384613e6a565b806000526020926015845282600020916123b660ff600b8501546123ac828260a01c1661369a565b60a81c16156135b3565b6123cd60078401548015908115612464575061371c565b6000805160206148e4833981519152600f549485936123eb856137c5565b600f55612418612412600160068901986124058a546137c5565b809a556108e2898661404f565b86613ed1565b8460005260168852838260002055601788528582600020558360005260188852612445858360002061381d565b8151958652604435888701526001600160a01b031694a4604051908152f35b905060068501541087610876565b346103d657612480366132a0565b90600052600160205260406000206040519061249b826132f0565b546001600160a01b0380821680845260a09290921c6020840152919290156124f7575b6124d9612710916001600160601b0360208601511690613c5a565b925160408051939091166001600160a01b0316835292046020820152f35b91506127106124d960405161250b816132f0565b600054848116825260a01c6020820152939150506124be565b346103d65760a03660031901126103d657600435602435604435606435916084358015158091036103d6576000805160206149248339815191529360809361256a613e6a565b8660005260156020526005604060002061258e60ff600b83015460a81c16156135b3565b612598848761375f565b6125a76003830191825461375f565b9055600481016125b884825461375f565b9055016125c683825461375f565b9055604051938452602084015260408301526060820152a2005b346103d6576100186125f13661347c565b916138a6565b346103d65760203660031901126103d657600435612613613e6a565b806000526015602052600b604060002001805460ff8160a81c166126c25760ff8160b01c166126855760ff60a01b1916600160a01b1790556040805160208082526006908201526561637469766560d01b91810191909152600080516020614904833981519152908060608101611907565b60405162461bcd60e51b815260206004820152601560248201527410d85b5c185a59db881dd85cc81c99599d5b991959605a1b6044820152606490fd5b60405162461bcd60e51b815260206004820152601b60248201527f43616d706169676e207065726d616e656e746c7920636c6f73656400000000006044820152606490fd5b346103d65760403660031901126103d6576004356001600160401b0381116103d65761273790369060040161344c565b9060243591612744613e6a565b60005b81811061275057005b6001600160a01b03612766611532838587613896565b16612774575b600101612747565b929190612782848284613896565b3560005260186020601681528460406000205584600052526040600020936000946000958154965b8781106127e4575b5060019394959650156127c8575b50905061276c565b6127de906127d7838688613896565b359061381d565b856127c0565b6127ee8184613549565b90546127fb86888a613896565b359160031b1c1461280e576001016127aa565b509495508594506001806127b2565b346103d65761282b36613419565b90612834613e6a565b8260005260209060158252604060002061285860ff600b83015460a81c16156135b3565b60018091016001600160401b038511610d575761287f8561287983546132b6565b83613840565b600085601f811160011461294957806128ae9260009161293e575b508160011b916000199060031b1c19161790565b90555b84600052601883526040600020816000905b612900575b60405185815287907fd0ed2732da48175aaae07fd675a2a78b1700515722f6675d7ff5f0e09f22f3099080611907818a018b8a613634565b81548110156129395790828261293161291a839585613549565b9054612927368c8b61357c565b9160031b1c613ed1565b0190916128c3565b6128c8565b90508501358961289a565b50601f198616908260005286866000209260005b8887838310612997575050501061297d575b50508185811b0190556128b1565b840135600019600388901b60f8161c19169055868061296f565b858a0135875590950194938401938a93500161295d565b346103d6576129bc366132a0565b6129c4613e6a565b81600052601560205260406000206129e660ff600b83015460a81c16156135b3565b81158015612a73575b15612a2e5760070155600080516020614904833981519152606060405160208152600b60208201526a6d617845646974696f6e7360a81b6040820152a2005b60405162461bcd60e51b815260206004820152601a60248201527f43616e6e6f74207265647563652062656c6f77206d696e7465640000000000006044820152606490fd5b5060068101548210156129ef565b346103d65760003660031901126103d657602060115460a01c604051908152f35b346103d65760003660031901126103d6576020600a54604051908152f35b612ac9366132a0565b612ad161400b565b3360005260209160138352612aee60ff6040600020541615613655565b612af661402c565b806000526015835260008051602061492483398151915260806040600020612b2c60ff600b83015461084b828260a01c1661369a565b612b4360078201548015908115612c3b575061371c565b612b5461165b86600884015461375f565b600f5494612b61866137c5565b600f5560068201612b7281546137c5565b809155612bc56117376001612b8785346137d4565b9560038101612b9734825461375f565b905560048101612ba888825461375f565b905560058101612bb987825461375f565b90556108e28b3361404f565b86600052601688528560406000205560178852806040600020558560005260188852612bf587604060002061381d565b604051908152348882015286866000805160206148e483398151915260403394a46040519134835287830152604082015260016060820152a26001600e55604051908152f35b905060068301541088610876565b346103d6577fac6d62cb5d30a7fff578060cd3dcf46ff2df7991a71c2d2aabca7e558f130f78612c7836613419565b612c83939293613e6a565b600084815260046020526040902054612ca6906001600160a01b031615156135f1565b612cba612cb436838561357c565b85613ed1565b611907604051928392602084526020840191613634565b346103d65760203660031901126103d65760043560005260156020526040600020612cfb81613347565b612d0760018301613347565b91600281015490600381015490600481015490600581015460068201546007830154600884015491600985015493600160a01b600190039687600a8801541696600b0154986040519c8d9c8d6101e09081815201612d6491613260565b8d810360208f0152612d7591613260565b9a60408d015260608c015260808b015260a08a015260c089015260e088015261010087015261012086015261014085015281166101608401528060a01c60ff1615156101808401528060a81c60ff1615156101a084015260b01c60ff1615156101c08301520390f35b346103d657612dec366132a0565b612df4613e6a565b8160005260156020526040600020612e1660ff600b83015460a81c16156135b3565b6127108211612e5e5760090155600080516020614904833981519152606060405160208152601060208201526f6e6f6e70726f6669744665655261746560801b6040820152a2005b60405162461bcd60e51b815260206004820152601b60248201527f46656520726174652063616e6e6f7420657863656564203130302500000000006044820152606490fd5b346103d65760403660031901126103d657612ebc613234565b602435612ec881613e96565b33151580612f77575b80612f4a575b612f32576001600160a01b039283169282918491167f8c5be1e5ebec7d5bd14f71427d1e84f3dd0314c0f7b2291e5b200ac8c7c3b925600080a4600090815260066020526040902080546001600160a01b0319169091179055005b60405163a9fbf51f60e01b8152336004820152602490fd5b5060018060a01b038116600052600760205260406000203360005260205260ff6040600020541615612ed7565b506001600160a01b038116331415612ed1565b346103d65760203660031901126103d657600435612fa781613e96565b506000526006602052602060018060a01b0360406000205416604051908152f35b346103d65760003660031901126103d657604051600254600082612feb836132b6565b9182825260209360019085600182169182600014611498575050600114613019575061142792500383613326565b84915060026000527f405787fa12a823e0f2b7631cc41b3ba8828b3321ca811111fa75cd3aa3bb5ace906000915b85831061305e57505061142793508201018561141a565b80548389018501528794508693909201918101613047565b346103d65760403660031901126103d65761308f613234565b6024356001600160601b0381168082036103d6576130ab613e6a565b61271080821161313f57506001600160a01b039283168015613126577f35804d3532228d15c4fe3fa7a4fb8100c86dc285216e9c806f5d6f2cef5528399360209383856040516130fa816132f0565b85815201526001600160601b0360a01b9060a01b168092176000556011541617601155604051908152a1005b604051635b6cc80560e11b815260006004820152602490fd5b6044925060405191636f483d0960e01b835260048301526024820152fd5b346103d65760003660031901126103d6576020601054604051908152f35b346103d65760203660031901126103d6576004359063ffffffff60e01b82168092036103d657602091632483248360e11b81149081156131bd575b5015158152f35b63780e9d6360e01b8114915081156131d7575b50836131b6565b6380ac58cd60e01b811491508115613223575b81156131f8575b50836131d0565b63152a902d60e11b811491508115613212575b50836131f1565b6301ffc9a760e01b1490508361320b565b635b5e139f60e01b811491506131ea565b600435906001600160a01b03821682036103d657565b602435906001600160a01b03821682036103d657565b919082519283825260005b84811061328c575050826000602080949584010152601f8019910116010190565b60208183018101518483018201520161326b565b60409060031901126103d6576004359060243590565b90600182811c921680156132e6575b60208310146132d057565b634e487b7160e01b600052602260045260246000fd5b91607f16916132c5565b604081019081106001600160401b03821117610d5757604052565b602081019081106001600160401b03821117610d5757604052565b90601f801991011681019081106001600160401b03821117610d5757604052565b9060405191826000825461335a816132b6565b908184526020946001916001811690816000146133ca575060011461338b575b50505061338992500383613326565b565b600090815285812095935091905b8183106133b2575050613389935082010138808061337a565b85548884018501529485019487945091830191613399565b9250505061338994925060ff191682840152151560051b82010138808061337a565b9181601f840112156103d6578235916001600160401b0383116103d657602083818601950101116103d657565b9060406003198301126103d65760043591602435906001600160401b0382116103d657613448916004016133ec565b9091565b9181601f840112156103d6578235916001600160401b0383116103d6576020808501948460051b0101116103d657565b60609060031901126103d6576001600160a01b039060043582811681036103d6579160243590811681036103d6579060443590565b6024359081151582036103d657565b602090602060408183019282815285518094520193019160005b8281106134e8575050505090565b8351855293810193928101926001016134da565b600a5481101561353357600a6000527fc65a7bb8d6351c1cf70c95a316cc6a92839c986682d98bc35f958f4883f9d2a80190600090565b634e487b7160e01b600052603260045260246000fd5b80548210156135335760005260206000200190600090565b6001600160401b038111610d5757601f01601f191660200190565b92919261358882613561565b916135966040519384613326565b8294818452818301116103d6578281602093846000960137010152565b156135ba57565b60405162461bcd60e51b815260206004820152600f60248201526e10d85b5c185a59db8818db1bdcd959608a1b6044820152606490fd5b156135f857565b60405162461bcd60e51b8152602060048201526014602482015273151bdad95b88191bd95cc81b9bdd08195e1a5cdd60621b6044820152606490fd5b908060209392818452848401376000828201840152601f01601f1916010190565b1561365c57565b60405162461bcd60e51b81526020600482015260166024820152751059191c995cdcc81a5cc8189b1858dadb1a5cdd195960521b6044820152606490fd5b156136a157565b60405162461bcd60e51b815260206004820152601360248201527243616d706169676e206e6f742061637469766560681b6044820152606490fd5b156136e357565b60405162461bcd60e51b815260206004820152601160248201527010d85b5c185a59db881c99599d5b991959607a1b6044820152606490fd5b1561372357565b60405162461bcd60e51b815260206004820152601460248201527313585e0819591a5d1a5bdb9cc81c995858da195960621b6044820152606490fd5b9190820180921161376c57565b634e487b7160e01b600052601160045260246000fd5b1561378957565b60405162461bcd60e51b8152602060048201526014602482015273125b9cdd59999a58da595b9d081c185e5b595b9d60621b6044820152606490fd5b600019811461376c5760010190565b9190820391821161376c57565b600a5490600160401b821015610d57576138048260016133899401600a556134fc565b90919082549060031b91821b91600019901b1916179055565b90815491600160401b831015610d57578261380491600161338995018155613549565b90601f811161384e57505050565b6000916000526020600020906020601f850160051c8301941061388c575b601f0160051c01915b82811061388157505050565b818155600101613875565b909250829061386c565b91908110156135335760051b0190565b6001600160a01b038281169391908415613c415760009183835260049560209387855260409484868320541680151580613c39575b613b3b575b508682528881528486832054169733151580613aa9575b5088158015613a76575b84845260058352878420805460010190558884528a835287842080546001600160a01b0319168617905588858b7fddf252ad1be2c89b69c2b068fc378daa952ba7f163c4a11628f55a4df523b3ef8780a4156139fa57600a54888452600b83528784205561396e886137e1565b8389036139a9575b50505050169081840361398a575050505050565b516364283d7b60e01b8152938401526024830152604482015260649150fd5b6139b290613db7565b6000198101939084116139e7578291600991889452600881528383208584528152888484205588835252205538808080613976565b634e487b7160e01b835260118a52602483fd5b88841461396e57613a0a89613db7565b8884526009835287842054818103613a3f575b508884528388812055898452600883528784209084528252828781205561396e565b8a8552600884528885208286528452888520548b8652600885528986208287528552808a8720558552600984528885205538613a1d565b600089815260066020526040902080546001600160a01b0319169055898452600583528784208054600019019055613901565b80613afa575b15613aba57386138f7565b878a888b613ad757916024925191637e27328960e01b8352820152fd5b5163177e802f60e01b815233918101918252602082019290925281906040010390fd5b503389148015613b1f575b80613aaf5750878352600682523386888520541614613aaf565b5088835260078252868320338452825260ff8784205416613b05565b60128252613b4f60ff888520541615613c8d565b8783526014825260ff8784205416613c015782526013815260ff8683205416613bc7578282526013815260ff8683205416613b8a57386138e0565b8860649187519162461bcd60e51b83528201526018602482015277149958da5c1a595b9d081a5cc8189b1858dadb1a5cdd195960421b6044820152fd5b8860649187519162461bcd60e51b8352820152601560248201527414d95b99195c881a5cc8189b1858dadb1a5cdd1959605a1b6044820152fd5b865162461bcd60e51b8152808b018390526012602482015271151bdad95b881a5cc81cdbdd5b189bdd5b9960721b6044820152606490fd5b5060016138db565b604051633250574960e11b815260006004820152602490fd5b8181029291811591840414171561376c57565b8115613c77570490565b634e487b7160e01b600052601260045260246000fd5b15613c9457565b60405162461bcd60e51b815260206004820152600f60248201526e2a37b5b2b71034b990333937bd32b760891b6044820152606490fd5b15613cd257565b60405162461bcd60e51b815260206004820152601760248201527f496e76616c6964207175616e746974792028312d3530290000000000000000006044820152606490fd5b15613d1e57565b60405162461bcd60e51b815260206004820152601460248201527345786365656473206d61782065646974696f6e7360601b6044820152606490fd5b6001600160401b038111610d575760051b60200190565b90613d7b82613d5a565b613d886040519182613326565b8281528092613d99601f1991613d5a565b0190602036910137565b80518210156135335760209160051b010190565b6001600160a01b03168015613dd757600052600560205260406000205490565b6040516322718ad960e21b815260006004820152602490fd5b600081815260046020526040812054909290613e16906001600160a01b031615156135f1565b818352601660205280604084205582526018602052604082208054925b838110613e455750613389925061381d565b82613e508284613549565b90549060031b1c14613e6457600101613e33565b50505050565b600d546001600160a01b03163303613e7e57565b60405163118cdaa760e01b8152336004820152602490fd5b6000818152600460205260409020546001600160a01b0316908115613eb9575090565b60249060405190637e27328960e01b82526004820152fd5b919091600090808252602091600c835260408120908551956001600160401b038711613ff757613f0b87613f0585546132b6565b85613840565b8491601f8811600114613f735796613f5c9281927ff8e1a15aba9398e019f0b49df1a4fde98ee17ae345cb5f6b5e2c27f5033e8ce7989992613f685750508160011b916000199060031b1c19161790565b90555b604051908152a1565b015190503880610afa565b9190601f198816848452868420935b818110613fe057509160019391897ff8e1a15aba9398e019f0b49df1a4fde98ee17ae345cb5f6b5e2c27f5033e8ce7999a9410613fc7575b505050811b019055613f5f565b015160001960f88460031b161c19169055388080613fba565b929387600181928786015181550195019301613f82565b634e487b7160e01b82526041600452602482fd5b60ff600d5460a01c1661401a57565b60405163d93c066560e01b8152600490fd5b6002600e541461403d576002600e55565b604051633ee5aeb560e01b8152600490fd5b604080519061405d8261330b565b60008083526001600160a01b0394848616938415614475578183526004956020978789528086862054168015158061446d575b61436d575b508385528789528585205416868115918215928361433a575b82885260058c52888820805460010190558688528a8c5288882080546001600160a01b031916841790558683837fddf252ad1be2c89b69c2b068fc378daa952ba7f163c4a11628f55a4df523b3ef8b80a4156142bc57600a54868852600b8c528888205561411b866137e1565b03614270575b614259573b614134575b50505050505050565b8661417291859697989994955180938192630a85bd0160e11b96878452338d8501528960248501526044840152608060648401526084830190613260565b0381878a5af1849181614215575b506141de575050503d6000146141d6573d61419a81613561565b906141a784519283613326565b81528091863d92013e5b805194856141d057505051633250574960e11b81529182015260249150fd5b85925001fd5b5060606141b1565b919650915063ffffffff60e01b1603614200575050503880808080808061412b565b51633250574960e11b81529182015260249150fd5b9091508881813d8311614252575b61422d8183613326565b8101031261424e57516001600160e01b03198116810361424e579038614180565b8480fd5b503d614223565b84516339e3563760e11b8152808801859052602490fd5b61427982613db7565b60001981019081116142a95787865260088a528686208187528a52848787205584865260098a5286862055614121565b634e487b7160e01b865260118952602486fd5b80821461411b576142cc81613db7565b86885260098c5288882054818103614301575b50868852878981205581885260088c528888209088528b52868881205561411b565b82895260088d52898920828a528d528c60088b8b205491858c52528d8b8b2090838c5252808b8b2055895260098d5289892055386142df565b600087815260066020526040902080546001600160a01b031916905581885260058c5288882080546000190190556140ae565b60128a5261438160ff888820541615613c8d565b84865260148a5260ff87872054166144355785526013895260ff86862054166143fa578685526013895260ff86862054166143bc5738614095565b855162461bcd60e51b81528089018a90526018602482015277149958da5c1a595b9d081a5cc8189b1858dadb1a5cdd195960421b6044820152606490fd5b855162461bcd60e51b81528089018a9052601560248201527414d95b99195c881a5cc8189b1858dadb1a5cdd1959605a1b6044820152606490fd5b865162461bcd60e51b8152808a018b90526012602482015271151bdad95b881a5cc81cdbdd5b189bdd5b9960721b6044820152606490fd5b506001614090565b8351633250574960e11b815260048101849052602490fd5b60009080825260049160209083825260018060a01b039160409280848420541680151580614799575b614699575b50848352858252838320541691821592831580614666575b86835287845285832080546001600160a01b03191690558683837fddf252ad1be2c89b69c2b068fc378daa952ba7f163c4a11628f55a4df523b3ef8280a484156145e5575050600a54858252600b835284822055614530856137e1565b600a54600019928382019182116145d257600b9087845281815261455787852054936134fc565b90549060031b1c61456b81613804866134fc565b845252848220558481528084812055600a549081156145bf5750810190614591826134fc565b909182549160031b1b19169055600a556145aa57505050565b51637e27328960e01b81529182015260249150fd5b634e487b7160e01b815260318752602490fd5b634e487b7160e01b835260118852602483fd5b6145f0575b50614530565b6145f981613db7565b90868352600984528583205482810361462f575b50868352828681205582526008835284822090825282528084812055386145ea565b818452600885528684208385528552868420548285526008865287852082865286528088862055845260098552868420553861460d565b600087815260066020526040902080546001600160a01b03191690558183526005845285832080546000190190556144d3565b601283526146ad60ff868620541615613c8d565b8584526014835260ff85852054166147615783526013825260ff8484205416614726578280526013825260ff84842054166146e857386144bb565b835162461bcd60e51b81528087018390526018602482015277149958da5c1a595b9d081a5cc8189b1858dadb1a5cdd195960421b6044820152606490fd5b835162461bcd60e51b8152808701839052601560248201527414d95b99195c881a5cc8189b1858dadb1a5cdd1959605a1b6044820152606490fd5b845162461bcd60e51b81528088018490526012602482015271151bdad95b881a5cc81cdbdd5b189bdd5b9960721b6044820152606490fd5b50836144b6565b813b6147ac5750505050565b604051630a85bd0160e11b8082523360048301526001600160a01b039283166024830152604482019490945260806064820152602095929091169390929083906147fa906084830190613260565b039285816000958187895af18491816148a3575b5061486e575050503d600014614866573d61482881613561565b906148366040519283613326565b81528091843d92013e5b8051928361486157604051633250574960e11b815260048101849052602490fd5b019050fd5b506060614840565b919450915063ffffffff60e01b160361488b575038808080613e64565b60249060405190633250574960e11b82526004820152fd5b9091508681813d83116148dc575b6148bb8183613326565b8101031261424e57516001600160e01b03198116810361424e57903861480e565b503d6148b156fe44a73422883fd5aac8dde6ef3688c62f25a4fb22e7a395bafb411ec4803ab1bd7a9a4f151cc0b6349bd7062416b8f68d1d73c3f457efc221520eb5547595d2d8f1a038a86c47446d2a26b7852348eee74e6d63d5a71792df01e40c2e6d0e1ca2a2646970667358221220e28863923bb3d83e3d4f1993603e7cfc2c6aa2488432817e00d70cb2af61a82e64736f6c63430008180033","opcodes":"PUSH1 0x40 PUSH1 0x80 DUP2 MSTORE CALLVALUE PUSH3 0x3DC JUMPI PUSH3 0x15 PUSH3 0x3E1 JUMP JUMPDEST PUSH1 0x15 DUP2 MSTORE PUSH1 0x20 SWAP1 PUSH32 0x50617472696F74506C656467652045646974696F6E0000000000000000000000 DUP3 DUP3 ADD MSTORE PUSH3 0x4B PUSH3 0x3E1 JUMP JUMPDEST PUSH1 0x3 DUP1 DUP3 MSTORE PUSH3 0x505045 PUSH1 0xE8 SHL DUP5 DUP4 ADD MSTORE DUP3 MLOAD PUSH1 0x1 PUSH1 0x1 PUSH1 0x40 SHL SUB SWAP5 SWAP3 DUP6 DUP3 GT PUSH3 0x1CF JUMPI PUSH1 0x2 SLOAD SWAP2 PUSH1 0x1 SWAP6 DUP7 DUP5 DUP2 SHR SWAP5 AND DUP1 ISZERO PUSH3 0x3D1 JUMPI JUMPDEST DUP7 DUP6 LT EQ PUSH3 0x2E4 JUMPI DUP2 SWAP1 PUSH1 0x1F SWAP5 DUP6 DUP2 GT PUSH3 0x37A JUMPI JUMPDEST POP DUP7 SWAP1 DUP6 DUP4 GT PUSH1 0x1 EQ PUSH3 0x311 JUMPI PUSH1 0x0 SWAP3 PUSH3 0x305 JUMPI JUMPDEST POP POP PUSH1 0x0 NOT DUP3 DUP7 SHL SHR NOT AND SWAP1 DUP7 SHL OR PUSH1 0x2 SSTORE JUMPDEST DUP1 MLOAD SWAP2 DUP7 DUP4 GT PUSH3 0x1CF JUMPI DUP4 SLOAD SWAP2 DUP7 DUP4 DUP2 SHR SWAP4 AND DUP1 ISZERO PUSH3 0x2FA JUMPI JUMPDEST DUP7 DUP5 LT EQ PUSH3 0x2E4 JUMPI DUP3 DUP3 DUP6 SWAP5 GT PUSH3 0x28C JUMPI JUMPDEST POP DUP6 SWAP2 DUP4 GT PUSH1 0x1 EQ PUSH3 0x225 JUMPI PUSH1 0x0 SWAP3 PUSH3 0x219 JUMPI JUMPDEST POP POP PUSH1 0x0 NOT DUP3 DUP5 SHL SHR NOT AND SWAP1 DUP5 SHL OR SWAP1 SSTORE JUMPDEST CALLER ISZERO PUSH3 0x201 JUMPI PUSH1 0xD SLOAD DUP5 MLOAD SWAP3 SWAP1 CALLER PUSH1 0x1 PUSH1 0x1 PUSH1 0xA0 SHL SUB DUP3 AND PUSH32 0x8BE0079C531659141344CD1FD0A4F28419497F9722A3DAAFE3B4186F6B6457E0 PUSH1 0x0 DUP1 LOG3 PUSH1 0x1 PUSH1 0x1 PUSH1 0xA8 SHL SUB NOT AND CALLER PUSH1 0xFF PUSH1 0xA0 SHL NOT DUP2 AND SWAP2 SWAP1 SWAP2 OR PUSH1 0xD SSTORE PUSH1 0xE SWAP2 SWAP1 SWAP2 SSTORE PUSH1 0x7D PUSH1 0xA1 SHL OR PUSH1 0x11 DUP2 SWAP1 SSTORE SWAP3 PUSH1 0xA0 DUP5 SWAP1 SHR SWAP3 PUSH2 0x2710 DUP1 DUP6 GT PUSH3 0x1E5 JUMPI POP POP DUP5 MLOAD SWAP1 DUP2 DUP7 ADD SWAP1 DUP2 GT DUP3 DUP3 LT OR PUSH3 0x1CF JUMPI DUP6 MSTORE CALLER DUP2 MSTORE ADD MSTORE PUSH1 0x1 DUP1 PUSH1 0xA0 SHL SUB NOT AND CALLER OR PUSH1 0x0 SSTORE MLOAD PUSH2 0x4979 SWAP1 DUP2 PUSH3 0x402 DUP3 CODECOPY RETURN JUMPDEST PUSH4 0x4E487B71 PUSH1 0xE0 SHL PUSH1 0x0 MSTORE PUSH1 0x41 PUSH1 0x4 MSTORE PUSH1 0x24 PUSH1 0x0 REVERT JUMPDEST PUSH4 0x6F483D09 PUSH1 0xE0 SHL DUP3 MSTORE PUSH1 0x4 DUP3 ADD DUP6 SWAP1 MSTORE PUSH1 0x24 DUP3 ADD MSTORE PUSH1 0x44 SWAP2 POP REVERT JUMPDEST DUP4 MLOAD PUSH4 0x1E4FBDF7 PUSH1 0xE0 SHL DUP2 MSTORE PUSH1 0x0 PUSH1 0x4 DUP3 ADD MSTORE PUSH1 0x24 SWAP1 REVERT JUMPDEST ADD MLOAD SWAP1 POP CODESIZE DUP1 PUSH3 0x10B JUMP JUMPDEST SWAP1 DUP7 SWAP4 POP PUSH1 0x1F NOT DUP4 AND SWAP2 DUP6 PUSH1 0x0 MSTORE DUP7 PUSH1 0x0 KECCAK256 SWAP3 PUSH1 0x0 JUMPDEST DUP9 DUP3 DUP3 LT PUSH3 0x275 JUMPI POP POP DUP5 GT PUSH3 0x25C JUMPI JUMPDEST POP POP POP DUP2 SHL ADD SWAP1 SSTORE PUSH3 0x11D JUMP JUMPDEST ADD MLOAD PUSH1 0x0 NOT DUP4 DUP7 SHL PUSH1 0xF8 AND SHR NOT AND SWAP1 SSTORE CODESIZE DUP1 DUP1 PUSH3 0x24E JUMP JUMPDEST DUP4 DUP6 ADD MLOAD DUP7 SSTORE DUP11 SWAP8 SWAP1 SWAP6 ADD SWAP5 SWAP4 DUP5 ADD SWAP4 ADD PUSH3 0x23B JUMP JUMPDEST SWAP1 SWAP2 SWAP3 POP DUP5 PUSH1 0x0 MSTORE DUP6 PUSH1 0x0 KECCAK256 DUP4 DUP1 DUP7 ADD PUSH1 0x5 SHR DUP3 ADD SWAP3 DUP9 DUP8 LT PUSH3 0x2DA JUMPI JUMPDEST SWAP2 DUP7 SWAP6 DUP11 SWAP3 SWAP6 SWAP5 SWAP4 ADD PUSH1 0x5 SHR ADD SWAP2 JUMPDEST DUP3 DUP2 LT PUSH3 0x2CA JUMPI POP POP PUSH3 0xF5 JUMP JUMPDEST PUSH1 0x0 DUP2 SSTORE DUP7 SWAP6 POP DUP10 SWAP2 ADD PUSH3 0x2BA JUMP JUMPDEST SWAP3 POP DUP2 SWAP3 PUSH3 0x2AB JUMP JUMPDEST PUSH4 0x4E487B71 PUSH1 0xE0 SHL PUSH1 0x0 MSTORE PUSH1 0x22 PUSH1 0x4 MSTORE PUSH1 0x24 PUSH1 0x0 REVERT JUMPDEST SWAP3 PUSH1 0x7F AND SWAP3 PUSH3 0xE1 JUMP JUMPDEST ADD MLOAD SWAP1 POP CODESIZE DUP1 PUSH3 0xB2 JUMP JUMPDEST SWAP1 DUP9 SWAP4 POP PUSH1 0x1F NOT DUP4 AND SWAP2 PUSH1 0x2 PUSH1 0x0 MSTORE DUP9 PUSH1 0x0 KECCAK256 SWAP3 PUSH1 0x0 JUMPDEST DUP11 DUP3 DUP3 LT PUSH3 0x363 JUMPI POP POP DUP5 GT PUSH3 0x34A JUMPI JUMPDEST POP POP POP DUP2 SHL ADD PUSH1 0x2 SSTORE PUSH3 0xC5 JUMP JUMPDEST ADD MLOAD PUSH1 0x0 NOT DUP4 DUP9 SHL PUSH1 0xF8 AND SHR NOT AND SWAP1 SSTORE CODESIZE DUP1 DUP1 PUSH3 0x33B JUMP JUMPDEST DUP4 DUP6 ADD MLOAD DUP7 SSTORE DUP13 SWAP8 SWAP1 SWAP6 ADD SWAP5 SWAP4 DUP5 ADD SWAP4 ADD PUSH3 0x328 JUMP JUMPDEST SWAP1 SWAP2 POP PUSH1 0x2 PUSH1 0x0 MSTORE DUP7 PUSH1 0x0 KECCAK256 DUP6 DUP1 DUP6 ADD PUSH1 0x5 SHR DUP3 ADD SWAP3 DUP10 DUP7 LT PUSH3 0x3C7 JUMPI JUMPDEST SWAP2 DUP11 SWAP2 DUP7 SWAP6 SWAP5 SWAP4 ADD PUSH1 0x5 SHR ADD SWAP2 JUMPDEST DUP3 DUP2 LT PUSH3 0x3B7 JUMPI POP POP PUSH3 0x9B JUMP JUMPDEST PUSH1 0x0 DUP2 SSTORE DUP6 SWAP5 POP DUP11 SWAP2 ADD PUSH3 0x3A7 JUMP JUMPDEST SWAP3 POP DUP2 SWAP3 PUSH3 0x399 JUMP JUMPDEST SWAP4 PUSH1 0x7F AND SWAP4 PUSH3 0x84 JUMP JUMPDEST PUSH1 0x0 DUP1 REVERT JUMPDEST PUSH1 0x40 DUP1 MLOAD SWAP2 SWAP1 DUP3 ADD PUSH1 0x1 PUSH1 0x1 PUSH1 0x40 SHL SUB DUP2 GT DUP4 DUP3 LT OR PUSH3 0x1CF JUMPI PUSH1 0x40 MSTORE JUMP INVALID PUSH1 0x80 DUP1 PUSH1 0x40 MSTORE PUSH1 0x4 CALLDATASIZE LT ISZERO PUSH2 0x1A JUMPI JUMPDEST POP CALLDATASIZE ISZERO PUSH2 0x18 JUMPI STOP JUMPDEST STOP JUMPDEST PUSH1 0x0 CALLDATALOAD PUSH1 0xE0 SHR SWAP1 DUP2 PUSH4 0x1FFC9A7 EQ PUSH2 0x317B JUMPI POP DUP1 PUSH4 0x2932F56 EQ PUSH2 0x315D JUMPI DUP1 PUSH4 0x4634D8D EQ PUSH2 0x3076 JUMPI DUP1 PUSH4 0x6FDDE03 EQ PUSH2 0x2FC8 JUMPI DUP1 PUSH4 0x81812FC EQ PUSH2 0x2F8A JUMPI DUP1 PUSH4 0x95EA7B3 EQ PUSH2 0x2EA3 JUMPI DUP1 PUSH4 0xD6F0D2B EQ PUSH2 0x2DDE JUMPI DUP1 PUSH4 0x141961BC EQ PUSH2 0x2CD1 JUMPI DUP1 PUSH4 0x162094C4 EQ PUSH2 0x2C49 JUMPI DUP1 PUSH4 0x1797C8F2 EQ PUSH2 0x2AC0 JUMPI DUP1 PUSH4 0x18160DDD EQ PUSH2 0x2AA2 JUMPI DUP1 PUSH4 0x18D33E41 EQ PUSH2 0x2A81 JUMPI DUP1 PUSH4 0x1CC76D75 EQ PUSH2 0x29AE JUMPI DUP1 PUSH4 0x1DDA279B EQ PUSH2 0x281D JUMPI DUP1 PUSH4 0x1E2B8983 EQ PUSH2 0x2707 JUMPI DUP1 PUSH4 0x1FDC217C EQ PUSH2 0x25F7 JUMPI DUP1 PUSH4 0x23B872DD EQ PUSH2 0x25E0 JUMPI DUP1 PUSH4 0x25532ECD EQ PUSH2 0x2524 JUMPI DUP1 PUSH4 0x2A55205A EQ PUSH2 0x2472 JUMPI DUP1 PUSH4 0x2A76D553 EQ PUSH2 0x235D JUMPI DUP1 PUSH4 0x2F745C59 EQ PUSH2 0x22D9 JUMPI DUP1 PUSH4 0x3190B9EA EQ PUSH2 0x2292 JUMPI DUP1 PUSH4 0x3705F2A8 EQ PUSH2 0x2219 JUMPI DUP1 PUSH4 0x3F4BA83A EQ PUSH2 0x21A7 JUMPI DUP1 PUSH4 0x407DE9DF EQ PUSH2 0x2176 JUMPI DUP1 PUSH4 0x42842E0E EQ PUSH2 0x2148 JUMPI DUP1 PUSH4 0x42966C68 EQ PUSH2 0x2093 JUMPI DUP1 PUSH4 0x4639CFAA EQ PUSH2 0x1FB7 JUMPI DUP1 PUSH4 0x47C735FC EQ PUSH2 0x1F58 JUMPI DUP1 PUSH4 0x4D787EA9 EQ PUSH2 0x1EF9 JUMPI DUP1 PUSH4 0x4DB7BFFF EQ PUSH2 0x1D33 JUMPI DUP1 PUSH4 0x4F6CCCE7 EQ PUSH2 0x1CDD JUMPI DUP1 PUSH4 0x51A0BBB2 EQ PUSH2 0x1C72 JUMPI DUP1 PUSH4 0x5598F8CC EQ PUSH2 0x1BAE JUMPI DUP1 PUSH4 0x5944C753 EQ PUSH2 0x1AD9 JUMPI DUP1 PUSH4 0x5C975ABB EQ PUSH2 0x1AB3 JUMPI DUP1 PUSH4 0x61D027B3 EQ PUSH2 0x1A8A JUMPI DUP1 PUSH4 0x6352211E EQ PUSH2 0x1A5A JUMPI DUP1 PUSH4 0x6FB8696C EQ PUSH2 0x19C5 JUMPI DUP1 PUSH4 0x70A08231 EQ PUSH2 0x199A JUMPI DUP1 PUSH4 0x715018A6 EQ PUSH2 0x193D JUMPI DUP1 PUSH4 0x7A181597 EQ PUSH2 0x190C JUMPI DUP1 PUSH4 0x7ECA30FE EQ PUSH2 0x1897 JUMPI DUP1 PUSH4 0x8079CA0C EQ PUSH2 0x1843 JUMPI DUP1 PUSH4 0x8456CB59 EQ PUSH2 0x17E1 JUMPI DUP1 PUSH4 0x8DA5CB5B EQ PUSH2 0x17B8 JUMPI DUP1 PUSH4 0x8E20F98C EQ PUSH2 0x15C4 JUMPI DUP1 PUSH4 0x8F52D21A EQ PUSH2 0x14B8 JUMPI DUP1 PUSH4 0x95D89B41 EQ PUSH2 0x13D5 JUMPI DUP1 PUSH4 0x96AB0493 EQ PUSH2 0x13B6 JUMPI DUP1 PUSH4 0xA0A441BB EQ PUSH2 0x1350 JUMPI DUP1 PUSH4 0xA22CB465 EQ PUSH2 0x12A5 JUMPI DUP1 PUSH4 0xA4830114 EQ PUSH2 0x125F JUMPI DUP1 PUSH4 0xA591EEA1 EQ PUSH2 0x11DA JUMPI DUP1 PUSH4 0xAA1B103F EQ PUSH2 0x11BB JUMPI DUP1 PUSH4 0xB0E1C1E1 EQ PUSH2 0x1156 JUMPI DUP1 PUSH4 0xB6358D99 EQ PUSH2 0x112A JUMPI DUP1 PUSH4 0xB6854F96 EQ PUSH2 0x10A5 JUMPI DUP1 PUSH4 0xB88D4FDE EQ PUSH2 0x103B JUMPI DUP1 PUSH4 0xBADB97FF EQ PUSH2 0xFB9 JUMPI DUP1 PUSH4 0xC1692213 EQ PUSH2 0xF8D JUMPI DUP1 PUSH4 0xC608E72A EQ PUSH2 0xE41 JUMPI DUP1 PUSH4 0xC87B56DD EQ PUSH2 0xDE4 JUMPI DUP1 PUSH4 0xCC3C3008 EQ PUSH2 0x985 JUMPI DUP1 PUSH4 0xD88D6EF3 EQ PUSH2 0x7EB JUMPI DUP1 PUSH4 0xDB2E21BC EQ PUSH2 0x74E JUMPI DUP1 PUSH4 0xDBAC26E9 EQ PUSH2 0x70F JUMPI DUP1 PUSH4 0xE985E9C5 EQ PUSH2 0x6B9 JUMPI DUP1 PUSH4 0xEB91E651 EQ PUSH2 0x64D JUMPI DUP1 PUSH4 0xF0F44260 EQ PUSH2 0x5A5 JUMPI DUP1 PUSH4 0xF2FDE38B EQ PUSH2 0x51C JUMPI DUP1 PUSH4 0xF3290D75 EQ PUSH2 0x4AD JUMPI DUP1 PUSH4 0xF3FEF3A3 EQ PUSH2 0x40C JUMPI DUP1 PUSH4 0xF401F8A0 EQ PUSH2 0x3DB JUMPI PUSH4 0xFB77211C EQ PUSH2 0x360 JUMPI CODESIZE PUSH2 0xF JUMP JUMPDEST CALLVALUE PUSH2 0x3D6 JUMPI PUSH2 0x36E CALLDATASIZE PUSH2 0x32A0 JUMP JUMPDEST PUSH2 0x376 PUSH2 0x3E6A JUMP JUMPDEST DUP2 PUSH1 0x0 MSTORE PUSH1 0x15 PUSH1 0x20 MSTORE PUSH1 0x8 PUSH1 0x40 PUSH1 0x0 KECCAK256 PUSH2 0x39A PUSH1 0xFF PUSH1 0xB DUP4 ADD SLOAD PUSH1 0xA8 SHR AND ISZERO PUSH2 0x35B3 JUMP JUMPDEST ADD SSTORE PUSH1 0x0 DUP1 MLOAD PUSH1 0x20 PUSH2 0x4904 DUP4 CODECOPY DUP2 MLOAD SWAP2 MSTORE PUSH1 0x60 PUSH1 0x40 MLOAD PUSH1 0x20 DUP2 MSTORE PUSH1 0xF PUSH1 0x20 DUP3 ADD MSTORE PUSH15 0x383934B1B2A832B922B234BA34B7B7 PUSH1 0x89 SHL PUSH1 0x40 DUP3 ADD MSTORE LOG2 STOP JUMPDEST PUSH1 0x0 DUP1 REVERT JUMPDEST CALLVALUE PUSH2 0x3D6 JUMPI PUSH1 0x20 CALLDATASIZE PUSH1 0x3 NOT ADD SLT PUSH2 0x3D6 JUMPI PUSH1 0x4 CALLDATALOAD PUSH1 0x0 MSTORE PUSH1 0x12 PUSH1 0x20 MSTORE PUSH1 0x20 PUSH1 0xFF PUSH1 0x40 PUSH1 0x0 KECCAK256 SLOAD AND PUSH1 0x40 MLOAD SWAP1 ISZERO ISZERO DUP2 MSTORE RETURN JUMPDEST CALLVALUE PUSH2 0x3D6 JUMPI PUSH1 0x40 CALLDATASIZE PUSH1 0x3 NOT ADD SLT PUSH2 0x3D6 JUMPI PUSH1 0x4 CALLDATALOAD PUSH1 0x1 PUSH1 0x1 PUSH1 0xA0 SHL SUB DUP2 AND SWAP1 DUP2 SWAP1 SUB PUSH2 0x3D6 JUMPI PUSH1 0x24 CALLDATALOAD SWAP1 PUSH2 0x43E PUSH2 0x3E6A JUMP JUMPDEST DUP2 SELFBALANCE LT PUSH2 0x471 JUMPI PUSH1 0x0 DUP1 DUP1 SWAP4 DUP2 SWAP4 DUP3 DUP3 ISZERO PUSH2 0x468 JUMPI JUMPDEST CALL ISZERO PUSH2 0x45C JUMPI STOP JUMPDEST PUSH1 0x40 MLOAD RETURNDATASIZE PUSH1 0x0 DUP3 RETURNDATACOPY RETURNDATASIZE SWAP1 REVERT JUMPDEST POP PUSH2 0x8FC PUSH2 0x454 JUMP JUMPDEST PUSH1 0x40 MLOAD PUSH3 0x461BCD PUSH1 0xE5 SHL DUP2 MSTORE PUSH1 0x20 PUSH1 0x4 DUP3 ADD MSTORE PUSH1 0x14 PUSH1 0x24 DUP3 ADD MSTORE PUSH20 0x496E73756666696369656E742062616C616E6365 PUSH1 0x60 SHL PUSH1 0x44 DUP3 ADD MSTORE PUSH1 0x64 SWAP1 REVERT JUMPDEST CALLVALUE PUSH2 0x3D6 JUMPI PUSH1 0x20 CALLDATASIZE PUSH1 0x3 NOT ADD SLT PUSH2 0x3D6 JUMPI PUSH2 0x4C6 PUSH2 0x3234 JUMP JUMPDEST PUSH2 0x4CE PUSH2 0x3E6A JUMP JUMPDEST PUSH1 0x1 DUP1 PUSH1 0xA0 SHL SUB AND DUP1 PUSH1 0x0 MSTORE PUSH1 0x13 PUSH1 0x20 MSTORE PUSH1 0x40 PUSH1 0x0 KECCAK256 PUSH1 0x1 PUSH1 0xFF NOT DUP3 SLOAD AND OR SWAP1 SSTORE PUSH32 0x97B7AF35C8C05ECA90F543EB78B16FDF2664D3E6C9A907286F310647D9813B71 PUSH1 0x20 PUSH1 0x40 MLOAD PUSH1 0x1 DUP2 MSTORE LOG2 STOP JUMPDEST CALLVALUE PUSH2 0x3D6 JUMPI PUSH1 0x20 CALLDATASIZE PUSH1 0x3 NOT ADD SLT PUSH2 0x3D6 JUMPI PUSH2 0x535 PUSH2 0x3234 JUMP JUMPDEST PUSH2 0x53D PUSH2 0x3E6A JUMP JUMPDEST PUSH1 0x1 PUSH1 0x1 PUSH1 0xA0 SHL SUB SWAP1 DUP2 AND SWAP1 DUP2 ISZERO PUSH2 0x58C JUMPI PUSH1 0xD SLOAD DUP3 PUSH1 0x1 PUSH1 0x1 PUSH1 0x60 SHL SUB PUSH1 0xA0 SHL DUP3 AND OR PUSH1 0xD SSTORE AND PUSH32 0x8BE0079C531659141344CD1FD0A4F28419497F9722A3DAAFE3B4186F6B6457E0 PUSH1 0x0 DUP1 LOG3 STOP JUMPDEST PUSH1 0x40 MLOAD PUSH4 0x1E4FBDF7 PUSH1 0xE0 SHL DUP2 MSTORE PUSH1 0x0 PUSH1 0x4 DUP3 ADD MSTORE PUSH1 0x24 SWAP1 REVERT JUMPDEST CALLVALUE PUSH2 0x3D6 JUMPI PUSH1 0x20 CALLDATASIZE PUSH1 0x3 NOT ADD SLT PUSH2 0x3D6 JUMPI PUSH2 0x5BE PUSH2 0x3234 JUMP JUMPDEST PUSH2 0x5C6 PUSH2 0x3E6A JUMP JUMPDEST PUSH1 0x1 PUSH1 0x1 PUSH1 0xA0 SHL SUB SWAP1 DUP2 AND SWAP1 DUP2 ISZERO PUSH2 0x615 JUMPI PUSH1 0x11 SLOAD DUP3 PUSH1 0x1 PUSH1 0x1 PUSH1 0x60 SHL SUB PUSH1 0xA0 SHL DUP3 AND OR PUSH1 0x11 SSTORE AND PUSH32 0x4AB5BE82436D353E61CA18726E984E561F5C1CC7C6D38B29D2553C790434705A PUSH1 0x0 DUP1 LOG3 STOP JUMPDEST PUSH1 0x40 MLOAD PUSH3 0x461BCD PUSH1 0xE5 SHL DUP2 MSTORE PUSH1 0x20 PUSH1 0x4 DUP3 ADD MSTORE PUSH1 0x10 PUSH1 0x24 DUP3 ADD MSTORE PUSH16 0x496E76616C6964207472656173757279 PUSH1 0x80 SHL PUSH1 0x44 DUP3 ADD MSTORE PUSH1 0x64 SWAP1 REVERT JUMPDEST CALLVALUE PUSH2 0x3D6 JUMPI PUSH1 0x20 CALLDATASIZE PUSH1 0x3 NOT ADD SLT PUSH2 0x3D6 JUMPI PUSH2 0x666 PUSH2 0x3234 JUMP JUMPDEST PUSH2 0x66E PUSH2 0x3E6A JUMP JUMPDEST PUSH1 0x1 PUSH1 0x1 PUSH1 0xA0 SHL SUB AND PUSH1 0x0 DUP2 DUP2 MSTORE PUSH1 0x13 PUSH1 0x20 SWAP1 DUP2 MSTORE PUSH1 0x40 DUP1 DUP4 KECCAK256 DUP1 SLOAD PUSH1 0xFF NOT AND SWAP1 SSTORE MLOAD SWAP2 DUP3 MSTORE PUSH32 0x97B7AF35C8C05ECA90F543EB78B16FDF2664D3E6C9A907286F310647D9813B71 SWAP2 LOG2 STOP JUMPDEST CALLVALUE PUSH2 0x3D6 JUMPI PUSH1 0x40 CALLDATASIZE PUSH1 0x3 NOT ADD SLT PUSH2 0x3D6 JUMPI PUSH2 0x6D2 PUSH2 0x3234 JUMP JUMPDEST PUSH2 0x6DA PUSH2 0x324A JUMP JUMPDEST SWAP1 PUSH1 0x1 DUP1 PUSH1 0xA0 SHL SUB DUP1 SWAP2 AND PUSH1 0x0 MSTORE PUSH1 0x7 PUSH1 0x20 MSTORE PUSH1 0x40 PUSH1 0x0 KECCAK256 SWAP2 AND PUSH1 0x0 MSTORE PUSH1 0x20 MSTORE PUSH1 0x20 PUSH1 0xFF PUSH1 0x40 PUSH1 0x0 KECCAK256 SLOAD AND PUSH1 0x40 MLOAD SWAP1 ISZERO ISZERO DUP2 MSTORE RETURN JUMPDEST CALLVALUE PUSH2 0x3D6 JUMPI PUSH1 0x20 CALLDATASIZE PUSH1 0x3 NOT ADD SLT PUSH2 0x3D6 JUMPI PUSH1 0x1 PUSH1 0x1 PUSH1 0xA0 SHL SUB PUSH2 0x730 PUSH2 0x3234 JUMP JUMPDEST AND PUSH1 0x0 MSTORE PUSH1 0x13 PUSH1 0x20 MSTORE PUSH1 0x20 PUSH1 0xFF PUSH1 0x40 PUSH1 0x0 KECCAK256 SLOAD AND PUSH1 0x40 MLOAD SWAP1 ISZERO ISZERO DUP2 MSTORE RETURN JUMPDEST CALLVALUE PUSH2 0x3D6 JUMPI PUSH1 0x0 CALLDATASIZE PUSH1 0x3 NOT ADD SLT PUSH2 0x3D6 JUMPI PUSH2 0x767 PUSH2 0x3E6A JUMP JUMPDEST SELFBALANCE DUP1 ISZERO PUSH2 0x7B9 JUMPI PUSH1 0x1 DUP1 PUSH1 0xA0 SHL SUB PUSH1 0x0 DUP1 DUP1 DUP1 DUP6 DUP6 PUSH1 0x11 SLOAD AND DUP3 CALL ISZERO PUSH2 0x45C JUMPI PUSH1 0x20 PUSH32 0x5FAFA99D0643513820BE26656B45130B01E1C03062E1266BF36F88CBD3BD9695 SWAP2 PUSH1 0x11 SLOAD AND SWAP3 PUSH1 0x40 MLOAD SWAP1 DUP2 MSTORE LOG2 STOP JUMPDEST PUSH1 0x40 MLOAD PUSH3 0x461BCD PUSH1 0xE5 SHL DUP2 MSTORE PUSH1 0x20 PUSH1 0x4 DUP3 ADD MSTORE PUSH1 0xA PUSH1 0x24 DUP3 ADD MSTORE PUSH10 0x4E6F2062616C616E6365 PUSH1 0xB0 SHL PUSH1 0x44 DUP3 ADD MSTORE PUSH1 0x64 SWAP1 REVERT JUMPDEST PUSH1 0x20 DUP1 PUSH1 0x3 NOT CALLDATASIZE ADD SLT PUSH2 0x3D6 JUMPI PUSH1 0x4 CALLDATALOAD PUSH2 0x803 PUSH2 0x400B JUMP JUMPDEST CALLER PUSH1 0x0 MSTORE PUSH1 0x13 DUP3 MSTORE PUSH2 0x81D PUSH1 0xFF PUSH1 0x40 PUSH1 0x0 KECCAK256 SLOAD AND ISZERO PUSH2 0x3655 JUMP JUMPDEST PUSH2 0x825 PUSH2 0x402C JUMP JUMPDEST DUP1 PUSH1 0x0 MSTORE PUSH1 0x15 DUP3 MSTORE PUSH1 0x40 PUSH1 0x0 KECCAK256 SWAP1 PUSH2 0x864 PUSH1 0xFF PUSH1 0xB DUP5 ADD SLOAD PUSH2 0x84B DUP3 DUP3 PUSH1 0xA0 SHR AND PUSH2 0x369A JUMP JUMPDEST PUSH2 0x85A DUP3 DUP3 PUSH1 0xA8 SHR AND ISZERO PUSH2 0x35B3 JUMP JUMPDEST PUSH1 0xB0 SHR AND ISZERO PUSH2 0x36DC JUMP JUMPDEST PUSH2 0x87C PUSH1 0x7 DUP4 ADD SLOAD DUP1 ISZERO SWAP1 DUP2 ISZERO PUSH2 0x977 JUMPI JUMPDEST POP PUSH2 0x371C JUMP JUMPDEST PUSH2 0x88C PUSH1 0x8 DUP4 ADD SLOAD CALLVALUE LT ISZERO PUSH2 0x3782 JUMP JUMPDEST PUSH1 0xF SLOAD SWAP2 PUSH2 0x899 DUP4 PUSH2 0x37C5 JUMP JUMPDEST PUSH1 0xF SSTORE PUSH2 0x8EE PUSH2 0x8E8 PUSH1 0x1 PUSH1 0x6 DUP5 ADD SWAP4 PUSH2 0x8B3 DUP6 SLOAD PUSH2 0x37C5 JUMP JUMPDEST DUP1 SWAP6 SSTORE PUSH1 0x3 DUP2 ADD PUSH2 0x8C5 CALLVALUE DUP3 SLOAD PUSH2 0x375F JUMP JUMPDEST SWAP1 SSTORE PUSH1 0x4 DUP2 ADD PUSH2 0x8D6 CALLVALUE DUP3 SLOAD PUSH2 0x375F JUMP JUMPDEST SWAP1 SSTORE PUSH2 0x8E2 DUP8 CALLER PUSH2 0x404F JUMP JUMPDEST ADD PUSH2 0x3347 JUMP JUMPDEST DUP5 PUSH2 0x3ED1 JUMP JUMPDEST DUP3 PUSH1 0x0 MSTORE PUSH1 0x16 DUP5 MSTORE DUP2 PUSH1 0x40 PUSH1 0x0 KECCAK256 SSTORE PUSH1 0x17 DUP5 MSTORE DUP1 PUSH1 0x40 PUSH1 0x0 KECCAK256 SSTORE DUP2 PUSH1 0x0 MSTORE PUSH1 0x18 DUP5 MSTORE PUSH2 0x91E DUP4 PUSH1 0x40 PUSH1 0x0 KECCAK256 PUSH2 0x381D JUMP JUMPDEST PUSH1 0x40 MLOAD SWAP1 DUP2 MSTORE CALLVALUE DUP5 DUP3 ADD MSTORE DUP3 DUP3 PUSH1 0x0 DUP1 MLOAD PUSH1 0x20 PUSH2 0x48E4 DUP4 CODECOPY DUP2 MLOAD SWAP2 MSTORE PUSH1 0x40 CALLER SWAP5 LOG4 PUSH1 0x0 DUP1 MLOAD PUSH1 0x20 PUSH2 0x4924 DUP4 CODECOPY DUP2 MLOAD SWAP2 MSTORE PUSH1 0x80 PUSH1 0x40 MLOAD CALLVALUE DUP2 MSTORE CALLVALUE DUP7 DUP3 ADD MSTORE PUSH1 0x0 PUSH1 0x40 DUP3 ADD MSTORE PUSH1 0x1 PUSH1 0x60 DUP3 ADD MSTORE LOG2 PUSH1 0x1 PUSH1 0xE SSTORE PUSH1 0x40 MLOAD SWAP1 DUP2 MSTORE RETURN JUMPDEST SWAP1 POP PUSH1 0x6 DUP5 ADD SLOAD LT DUP6 PUSH2 0x876 JUMP JUMPDEST CALLVALUE PUSH2 0x3D6 JUMPI PUSH1 0xE0 CALLDATASIZE PUSH1 0x3 NOT ADD SLT PUSH2 0x3D6 JUMPI PUSH1 0x4 CALLDATALOAD PUSH1 0x1 PUSH1 0x1 PUSH1 0x40 SHL SUB DUP2 GT PUSH2 0x3D6 JUMPI PUSH2 0x9B5 SWAP1 CALLDATASIZE SWAP1 PUSH1 0x4 ADD PUSH2 0x33EC JUMP JUMPDEST PUSH1 0x24 CALLDATALOAD PUSH1 0x1 PUSH1 0x1 PUSH1 0x40 SHL SUB DUP2 GT PUSH2 0x3D6 JUMPI PUSH2 0x9D4 SWAP1 CALLDATASIZE SWAP1 PUSH1 0x4 ADD PUSH2 0x33EC JUMP JUMPDEST SWAP2 SWAP1 PUSH1 0xC4 CALLDATALOAD PUSH1 0x1 PUSH1 0x1 PUSH1 0xA0 SHL SUB DUP2 AND DUP2 SUB PUSH2 0x3D6 JUMPI PUSH2 0x9F1 PUSH2 0x3E6A JUMP JUMPDEST PUSH1 0x10 SLOAD SWAP4 PUSH2 0x9FE DUP6 PUSH2 0x37C5 JUMP JUMPDEST PUSH1 0x10 SSTORE PUSH1 0x40 MLOAD SWAP3 PUSH2 0x1E0 DUP5 ADD SWAP2 DUP5 DUP4 LT PUSH1 0x1 PUSH1 0x1 PUSH1 0x40 SHL SUB DUP5 GT OR PUSH2 0xD57 JUMPI PUSH2 0xA38 SWAP3 PUSH1 0x40 MSTORE PUSH2 0xA2F CALLDATASIZE DUP8 DUP11 PUSH2 0x357C JUMP JUMPDEST DUP6 MSTORE CALLDATASIZE SWAP2 PUSH2 0x357C JUMP JUMPDEST PUSH1 0x20 DUP4 ADD MSTORE PUSH1 0x44 CALLDATALOAD PUSH1 0x40 DUP4 ADD MSTORE PUSH1 0x0 PUSH1 0x60 DUP4 ADD MSTORE PUSH1 0x0 PUSH1 0x80 DUP4 ADD MSTORE PUSH1 0x0 PUSH1 0xA0 DUP4 ADD MSTORE PUSH1 0x0 PUSH1 0xC0 DUP4 ADD MSTORE PUSH1 0x64 CALLDATALOAD PUSH1 0xE0 DUP4 ADD MSTORE PUSH1 0x84 CALLDATALOAD PUSH2 0x100 DUP4 ADD MSTORE PUSH1 0xA4 CALLDATALOAD PUSH2 0x120 DUP4 ADD MSTORE CALLER PUSH2 0x140 DUP4 ADD MSTORE PUSH1 0x1 DUP1 PUSH1 0xA0 SHL SUB AND PUSH2 0x160 DUP3 ADD MSTORE PUSH1 0x1 PUSH2 0x180 DUP3 ADD MSTORE PUSH1 0x0 PUSH2 0x1A0 DUP3 ADD MSTORE PUSH1 0x0 PUSH2 0x1C0 DUP3 ADD MSTORE DUP3 PUSH1 0x0 MSTORE PUSH1 0x15 PUSH1 0x20 MSTORE PUSH1 0x40 PUSH1 0x0 KECCAK256 SWAP4 DUP2 MLOAD DUP1 MLOAD SWAP1 PUSH1 0x1 PUSH1 0x1 PUSH1 0x40 SHL SUB DUP3 GT PUSH2 0xD57 JUMPI PUSH2 0xADE DUP3 PUSH2 0xAD8 DUP10 SLOAD PUSH2 0x32B6 JUMP JUMPDEST DUP10 PUSH2 0x3840 JUMP JUMPDEST PUSH1 0x20 SWAP1 PUSH1 0x1F DUP4 GT PUSH1 0x1 EQ PUSH2 0xD78 JUMPI PUSH2 0xB0F SWAP3 SWAP2 PUSH1 0x0 SWAP2 DUP4 PUSH2 0xD6D JUMPI JUMPDEST POP POP DUP2 PUSH1 0x1 SHL SWAP2 PUSH1 0x0 NOT SWAP1 PUSH1 0x3 SHL SHR NOT AND OR SWAP1 JUMP JUMPDEST DUP6 SSTORE JUMPDEST PUSH1 0x20 DUP3 ADD MLOAD SWAP2 DUP3 MLOAD SWAP6 PUSH1 0x1 PUSH1 0x1 PUSH1 0x40 SHL SUB DUP8 GT PUSH2 0xD57 JUMPI DUP7 DUP7 SWAP5 PUSH2 0xB48 PUSH1 0x20 SWAP10 PUSH2 0xB3F PUSH1 0x1 DUP7 ADD SLOAD PUSH2 0x32B6 JUMP JUMPDEST PUSH1 0x1 DUP7 ADD PUSH2 0x3840 JUMP JUMPDEST DUP9 SWAP1 PUSH1 0x1F DUP4 GT PUSH1 0x1 EQ PUSH2 0xCBD JUMPI SWAP3 PUSH2 0xBA1 DUP4 PUSH2 0xC8C SWAP7 SWAP5 PUSH1 0xB SWAP5 PUSH32 0x9A6F279818B6C3ECAD22DD882C63460A80CEE0DF2841C888ADB08588AFF26C22 SWAP10 SWAP8 PUSH1 0x0 SWAP3 PUSH2 0xCB2 JUMPI POP POP DUP2 PUSH1 0x1 SHL SWAP2 PUSH1 0x0 NOT SWAP1 PUSH1 0x3 SHL SHR NOT AND OR SWAP1 JUMP JUMPDEST PUSH1 0x1 DUP3 ADD SSTORE JUMPDEST PUSH1 0x40 DUP4 ADD MLOAD PUSH1 0x2 DUP3 ADD SSTORE PUSH1 0x60 DUP4 ADD MLOAD PUSH1 0x3 DUP3 ADD SSTORE PUSH1 0x80 DUP4 ADD MLOAD PUSH1 0x4 DUP3 ADD SSTORE PUSH1 0xA0 DUP4 ADD MLOAD PUSH1 0x5 DUP3 ADD SSTORE PUSH1 0xC0 DUP4 ADD MLOAD PUSH1 0x6 DUP3 ADD SSTORE PUSH1 0xE0 DUP4 ADD MLOAD PUSH1 0x7 DUP3 ADD SSTORE PUSH2 0x100 DUP4 ADD MLOAD PUSH1 0x8 DUP3 ADD SSTORE PUSH2 0x120 DUP4 ADD MLOAD PUSH1 0x9 DUP3 ADD SSTORE PUSH1 0xA DUP2 ADD PUSH1 0x1 DUP1 PUSH1 0xA0 SHL SUB PUSH2 0x140 DUP6 ADD MLOAD AND PUSH1 0x1 PUSH1 0x1 PUSH1 0x60 SHL SUB PUSH1 0xA0 SHL DUP3 SLOAD AND OR SWAP1 SSTORE ADD SWAP1 PUSH1 0x1 DUP1 PUSH1 0xA0 SHL SUB PUSH2 0x160 DUP3 ADD MLOAD AND SWAP1 DUP3 SLOAD SWAP2 PUSH1 0xFF PUSH1 0xA0 SHL PUSH2 0x180 DUP4 ADD MLOAD ISZERO ISZERO PUSH1 0xA0 SHL AND SWAP1 PUSH1 0xFF PUSH1 0xA8 SHL PUSH2 0x1A0 DUP5 ADD MLOAD ISZERO ISZERO PUSH1 0xA8 SHL AND SWAP3 PUSH2 0x1C0 PUSH1 0xFF PUSH1 0xB0 SHL SWAP2 ADD MLOAD ISZERO ISZERO PUSH1 0xB0 SHL AND SWAP4 PUSH9 0xFFFFFFFFFFFFFFFFFF PUSH1 0xB8 SHL AND OR OR OR OR SWAP1 SSTORE PUSH1 0x40 MLOAD SWAP5 PUSH1 0x80 DUP7 MSTORE PUSH1 0x80 DUP7 ADD SWAP2 PUSH2 0x3634 JUMP JUMPDEST SWAP3 PUSH1 0x44 CALLDATALOAD DUP7 DUP3 ADD MSTORE PUSH1 0x64 CALLDATALOAD PUSH1 0x40 DUP3 ADD MSTORE PUSH1 0x84 CALLDATALOAD PUSH1 0x60 DUP3 ADD MSTORE DUP1 CALLER SWAP5 SUB SWAP1 LOG3 PUSH1 0x40 MLOAD SWAP1 DUP2 MSTORE RETURN JUMPDEST ADD MLOAD SWAP1 POP DUP14 DUP1 PUSH2 0xAFA JUMP JUMPDEST SWAP1 PUSH1 0x1 DUP5 ADD PUSH1 0x0 MSTORE DUP10 PUSH1 0x0 KECCAK256 SWAP2 PUSH1 0x0 JUMPDEST PUSH1 0x1F NOT DUP6 AND DUP2 LT PUSH2 0xD3D JUMPI POP DUP4 PUSH1 0xB SWAP4 PUSH32 0x9A6F279818B6C3ECAD22DD882C63460A80CEE0DF2841C888ADB08588AFF26C22 SWAP9 SWAP7 SWAP4 PUSH1 0x1 SWAP4 PUSH2 0xC8C SWAP10 SWAP8 PUSH1 0x1F NOT DUP2 AND LT PUSH2 0xD24 JUMPI JUMPDEST POP POP POP DUP2 SHL ADD PUSH1 0x1 DUP3 ADD SSTORE PUSH2 0xBA7 JUMP JUMPDEST ADD MLOAD PUSH1 0x0 NOT PUSH1 0xF8 DUP5 PUSH1 0x3 SHL AND SHR NOT AND SWAP1 SSTORE DUP13 DUP1 DUP1 PUSH2 0xD14 JUMP JUMPDEST DUP2 DUP4 ADD MLOAD DUP5 SSTORE DUP11 SWAP9 POP PUSH1 0x1 SWAP1 SWAP4 ADD SWAP3 SWAP2 DUP12 ADD SWAP2 DUP12 ADD PUSH2 0xCCD JUMP JUMPDEST PUSH4 0x4E487B71 PUSH1 0xE0 SHL PUSH1 0x0 MSTORE PUSH1 0x41 PUSH1 0x4 MSTORE PUSH1 0x24 PUSH1 0x0 REVERT JUMPDEST ADD MLOAD SWAP1 POP DUP9 DUP1 PUSH2 0xAFA JUMP JUMPDEST SWAP2 SWAP1 DUP8 PUSH1 0x0 MSTORE PUSH1 0x20 PUSH1 0x0 KECCAK256 SWAP1 PUSH1 0x0 SWAP4 JUMPDEST PUSH1 0x1F NOT DUP5 AND DUP6 LT PUSH2 0xDC9 JUMPI PUSH1 0x1 SWAP5 POP DUP4 PUSH1 0x1F NOT DUP2 AND LT PUSH2 0xDB0 JUMPI JUMPDEST POP POP POP DUP2 SHL ADD DUP6 SSTORE PUSH2 0xB12 JUMP JUMPDEST ADD MLOAD PUSH1 0x0 NOT PUSH1 0xF8 DUP5 PUSH1 0x3 SHL AND SHR NOT AND SWAP1 SSTORE DUP8 DUP1 DUP1 PUSH2 0xDA3 JUMP JUMPDEST DUP2 DUP2 ADD MLOAD DUP4 SSTORE PUSH1 0x20 SWAP5 DUP6 ADD SWAP5 PUSH1 0x1 SWAP1 SWAP4 ADD SWAP3 SWAP1 SWAP2 ADD SWAP1 PUSH2 0xD88 JUMP JUMPDEST CALLVALUE PUSH2 0x3D6 JUMPI PUSH1 0x20 CALLDATASIZE PUSH1 0x3 NOT ADD SLT PUSH2 0x3D6 JUMPI PUSH1 0x4 CALLDATALOAD PUSH2 0xE01 DUP2 PUSH2 0x3E96 JUMP JUMPDEST POP PUSH1 0x0 MSTORE PUSH1 0xC PUSH1 0x20 MSTORE PUSH2 0xE3D PUSH2 0xE1A PUSH1 0x40 PUSH1 0x0 KECCAK256 PUSH2 0x3347 JUMP JUMPDEST PUSH1 0x0 PUSH1 0x40 MLOAD PUSH2 0xE28 DUP2 PUSH2 0x330B JUMP JUMPDEST MSTORE PUSH1 0x40 MLOAD SWAP2 DUP3 SWAP2 PUSH1 0x20 DUP4 MSTORE PUSH1 0x20 DUP4 ADD SWAP1 PUSH2 0x3260 JUMP JUMPDEST SUB SWAP1 RETURN JUMPDEST CALLVALUE PUSH2 0x3D6 JUMPI PUSH2 0xE4F CALLDATASIZE PUSH2 0x3419 JUMP JUMPDEST PUSH2 0xE5A SWAP3 SWAP2 SWAP3 PUSH2 0x3E6A JUMP JUMPDEST DUP2 PUSH1 0x0 MSTORE PUSH1 0x20 SWAP1 PUSH1 0x15 DUP3 MSTORE PUSH1 0x40 PUSH1 0x0 KECCAK256 SWAP1 PUSH2 0xE7F PUSH1 0xFF PUSH1 0xB DUP5 ADD SLOAD PUSH1 0xA8 SHR AND ISZERO PUSH2 0x35B3 JUMP JUMPDEST PUSH1 0x1 PUSH1 0x1 PUSH1 0x40 SHL SUB DUP2 GT PUSH2 0xD57 JUMPI PUSH2 0xEA1 DUP2 PUSH2 0xE9B DUP5 SLOAD PUSH2 0x32B6 JUMP JUMPDEST DUP5 PUSH2 0x3840 JUMP JUMPDEST PUSH1 0x0 PUSH1 0x1F DUP3 GT PUSH1 0x1 EQ PUSH2 0xF13 JUMPI DUP2 PUSH1 0x60 SWAP5 SWAP4 SWAP3 PUSH2 0xEE5 SWAP3 PUSH1 0x0 DUP1 MLOAD PUSH1 0x20 PUSH2 0x4904 DUP4 CODECOPY DUP2 MLOAD SWAP2 MSTORE SWAP8 SWAP9 PUSH1 0x0 SWAP3 PUSH2 0xF08 JUMPI POP POP DUP2 PUSH1 0x1 SHL SWAP2 PUSH1 0x0 NOT SWAP1 PUSH1 0x3 SHL SHR NOT AND OR SWAP1 JUMP JUMPDEST SWAP1 SSTORE JUMPDEST PUSH1 0x8 PUSH1 0x40 MLOAD SWAP2 DUP1 DUP4 MSTORE DUP3 ADD MSTORE PUSH8 0x63617465676F7279 PUSH1 0xC0 SHL PUSH1 0x40 DUP3 ADD MSTORE LOG2 STOP JUMPDEST ADD CALLDATALOAD SWAP1 POP DUP9 DUP1 PUSH2 0xAFA JUMP JUMPDEST PUSH1 0x1F NOT DUP3 AND SWAP1 DUP4 PUSH1 0x0 MSTORE DUP5 PUSH1 0x0 KECCAK256 SWAP2 PUSH1 0x0 JUMPDEST DUP2 DUP2 LT PUSH2 0xF76 JUMPI POP SWAP2 PUSH1 0x0 DUP1 MLOAD PUSH1 0x20 PUSH2 0x4904 DUP4 CODECOPY DUP2 MLOAD SWAP2 MSTORE SWAP7 SWAP8 DUP5 SWAP3 PUSH1 0x60 SWAP8 SWAP7 SWAP6 PUSH1 0x1 SWAP6 LT PUSH2 0xF5C JUMPI JUMPDEST POP POP POP DUP2 SHL ADD SWAP1 SSTORE PUSH2 0xEE8 JUMP JUMPDEST ADD CALLDATALOAD PUSH1 0x0 NOT PUSH1 0x3 DUP5 SWAP1 SHL PUSH1 0xF8 AND SHR NOT AND SWAP1 SSTORE DUP8 DUP1 DUP1 PUSH2 0xF4F JUMP JUMPDEST SWAP2 SWAP3 DUP7 PUSH1 0x1 DUP2 SWAP3 DUP7 DUP13 ADD CALLDATALOAD DUP2 SSTORE ADD SWAP5 ADD SWAP3 ADD PUSH2 0xF25 JUMP JUMPDEST CALLVALUE PUSH2 0x3D6 JUMPI PUSH1 0x20 CALLDATASIZE PUSH1 0x3 NOT ADD SLT PUSH2 0x3D6 JUMPI PUSH1 0x4 CALLDATALOAD PUSH1 0x0 MSTORE PUSH1 0x16 PUSH1 0x20 MSTORE PUSH1 0x20 PUSH1 0x40 PUSH1 0x0 KECCAK256 SLOAD PUSH1 0x40 MLOAD SWAP1 DUP2 MSTORE RETURN JUMPDEST CALLVALUE PUSH2 0x3D6 JUMPI PUSH1 0x20 CALLDATASIZE PUSH1 0x3 NOT ADD SLT PUSH2 0x3D6 JUMPI PUSH1 0x4 CALLDATALOAD PUSH2 0xFD5 PUSH2 0x3E6A JUMP JUMPDEST PUSH1 0x0 DUP2 DUP2 MSTORE PUSH1 0x4 PUSH1 0x20 MSTORE PUSH1 0x40 SWAP1 KECCAK256 SLOAD PUSH1 0x1 PUSH1 0x1 PUSH1 0xA0 SHL SUB SWAP1 PUSH2 0xFFA SWAP1 DUP3 AND ISZERO ISZERO PUSH2 0x35F1 JUMP JUMPDEST DUP2 PUSH1 0x0 MSTORE PUSH1 0x4 PUSH1 0x20 MSTORE PUSH1 0x40 PUSH1 0x0 KECCAK256 SLOAD AND SWAP1 PUSH2 0x1014 DUP2 PUSH2 0x448D JUMP JUMPDEST PUSH32 0x33631BCD0A4D34A7E2C240AB0753D5ADFB7284D8AC89DAB6876EC785C0CFA0E6 PUSH1 0x0 DUP1 LOG3 STOP JUMPDEST CALLVALUE PUSH2 0x3D6 JUMPI PUSH1 0x80 CALLDATASIZE PUSH1 0x3 NOT ADD SLT PUSH2 0x3D6 JUMPI PUSH2 0x1054 PUSH2 0x3234 JUMP JUMPDEST PUSH2 0x105C PUSH2 0x324A JUMP JUMPDEST SWAP1 PUSH1 0x44 CALLDATALOAD PUSH1 0x64 CALLDATALOAD SWAP3 PUSH1 0x1 PUSH1 0x1 PUSH1 0x40 SHL SUB DUP5 GT PUSH2 0x3D6 JUMPI CALLDATASIZE PUSH1 0x23 DUP6 ADD SLT ISZERO PUSH2 0x3D6 JUMPI PUSH2 0x1094 PUSH2 0x18 SWAP5 CALLDATASIZE SWAP1 PUSH1 0x24 DUP2 PUSH1 0x4 ADD CALLDATALOAD SWAP2 ADD PUSH2 0x357C JUMP JUMPDEST SWAP3 PUSH2 0x10A0 DUP4 DUP4 DUP4 PUSH2 0x38A6 JUMP JUMPDEST PUSH2 0x47A0 JUMP JUMPDEST CALLVALUE PUSH2 0x3D6 JUMPI PUSH1 0x20 CALLDATASIZE PUSH1 0x3 NOT ADD SLT PUSH2 0x3D6 JUMPI PUSH1 0x4 CALLDATALOAD PUSH2 0x10C1 PUSH2 0x3E6A JUMP JUMPDEST PUSH1 0x0 DUP2 DUP2 MSTORE PUSH1 0x4 PUSH1 0x20 MSTORE PUSH1 0x40 SWAP1 KECCAK256 SLOAD PUSH2 0x10E4 SWAP1 PUSH1 0x1 PUSH1 0x1 PUSH1 0xA0 SHL SUB AND ISZERO ISZERO PUSH2 0x35F1 JUMP JUMPDEST DUP1 PUSH1 0x0 MSTORE PUSH1 0x12 PUSH1 0x20 MSTORE PUSH1 0x40 PUSH1 0x0 KECCAK256 PUSH1 0x1 PUSH1 0xFF NOT DUP3 SLOAD AND OR SWAP1 SSTORE PUSH32 0xBF025F2B09B91DC81D2B137BED7B878FB0BD75A3BFE4708D69989FDA3C63485A PUSH1 0x20 PUSH1 0x40 MLOAD PUSH1 0x1 DUP2 MSTORE LOG2 STOP JUMPDEST CALLVALUE PUSH2 0x3D6 JUMPI PUSH1 0x20 CALLDATASIZE PUSH1 0x3 NOT ADD SLT PUSH2 0x3D6 JUMPI PUSH1 0x4 CALLDATALOAD PUSH1 0x0 MSTORE PUSH1 0x17 PUSH1 0x20 MSTORE PUSH1 0x20 PUSH1 0x40 PUSH1 0x0 KECCAK256 SLOAD PUSH1 0x40 MLOAD SWAP1 DUP2 MSTORE RETURN JUMPDEST CALLVALUE PUSH2 0x3D6 JUMPI PUSH1 0x20 CALLDATASIZE PUSH1 0x3 NOT ADD SLT PUSH2 0x3D6 JUMPI PUSH1 0x4 CALLDATALOAD PUSH2 0x1172 PUSH2 0x3E6A JUMP JUMPDEST PUSH1 0x0 DUP2 DUP2 MSTORE PUSH1 0x15 PUSH1 0x20 MSTORE PUSH1 0x40 DUP2 KECCAK256 PUSH1 0xB ADD DUP1 SLOAD PUSH2 0xFFFF PUSH1 0xA0 SHL NOT AND PUSH1 0x1 PUSH1 0xA8 SHL OR SWAP1 SSTORE PUSH32 0x5E6EB33A418DE5DBBC17F989F7AE362CDFBB1748C5D603137C767027A354EDBC SWAP1 DUP1 LOG2 STOP JUMPDEST CALLVALUE PUSH2 0x3D6 JUMPI PUSH1 0x0 CALLDATASIZE PUSH1 0x3 NOT ADD SLT PUSH2 0x3D6 JUMPI PUSH2 0x11D4 PUSH2 0x3E6A JUMP JUMPDEST PUSH1 0x0 DUP1 SSTORE STOP JUMPDEST CALLVALUE PUSH2 0x3D6 JUMPI PUSH1 0x20 CALLDATASIZE PUSH1 0x3 NOT ADD SLT PUSH2 0x3D6 JUMPI PUSH1 0x4 CALLDATALOAD PUSH2 0x11F6 PUSH2 0x3E6A JUMP JUMPDEST PUSH1 0x0 DUP2 DUP2 MSTORE PUSH1 0x4 PUSH1 0x20 MSTORE PUSH1 0x40 SWAP1 KECCAK256 SLOAD PUSH2 0x1219 SWAP1 PUSH1 0x1 PUSH1 0x1 PUSH1 0xA0 SHL SUB AND ISZERO ISZERO PUSH2 0x35F1 JUMP JUMPDEST DUP1 PUSH1 0x0 MSTORE PUSH1 0x14 PUSH1 0x20 MSTORE PUSH1 0x40 PUSH1 0x0 KECCAK256 PUSH1 0x1 PUSH1 0xFF NOT DUP3 SLOAD AND OR SWAP1 SSTORE PUSH32 0x7FBA17392135B4084A7D689C1F6D77139E1F1C18EE4651BF32DC35AE29CE9301 PUSH1 0x20 PUSH1 0x40 MLOAD PUSH1 0x1 DUP2 MSTORE LOG2 STOP JUMPDEST CALLVALUE PUSH2 0x3D6 JUMPI PUSH32 0x6BD5C950A8D8DF17F772F5AF37CB3655737899CBF903264B9795592DA439661C PUSH1 0x40 PUSH2 0x1290 CALLDATASIZE PUSH2 0x32A0 JUMP JUMPDEST PUSH2 0x1298 PUSH2 0x3E6A JUMP JUMPDEST DUP3 MLOAD SWAP2 DUP3 MSTORE PUSH1 0x20 DUP3 ADD MSTORE LOG1 STOP JUMPDEST CALLVALUE PUSH2 0x3D6 JUMPI PUSH1 0x40 CALLDATASIZE PUSH1 0x3 NOT ADD SLT PUSH2 0x3D6 JUMPI PUSH2 0x12BE PUSH2 0x3234 JUMP JUMPDEST PUSH2 0x12C6 PUSH2 0x34B1 JUMP JUMPDEST PUSH1 0x1 PUSH1 0x1 PUSH1 0xA0 SHL SUB SWAP1 SWAP2 AND SWAP1 DUP2 ISZERO PUSH2 0x1337 JUMPI CALLER PUSH1 0x0 MSTORE PUSH1 0x7 PUSH1 0x20 MSTORE PUSH1 0x40 PUSH1 0x0 KECCAK256 DUP3 PUSH1 0x0 MSTORE PUSH1 0x20 MSTORE PUSH2 0x1307 DUP2 PUSH1 0x40 PUSH1 0x0 KECCAK256 SWAP1 PUSH1 0xFF DUP1 NOT DUP4 SLOAD AND SWAP2 ISZERO ISZERO AND OR SWAP1 SSTORE JUMP JUMPDEST PUSH1 0x40 MLOAD SWAP1 ISZERO ISZERO DUP2 MSTORE PUSH32 0x17307EAB39AB6107E8899845AD3D59BD9653F200F220920489CA2B5937696C31 PUSH1 0x20 CALLER SWAP3 LOG3 STOP JUMPDEST PUSH1 0x40 MLOAD PUSH4 0xB611743 PUSH1 0xE3 SHL DUP2 MSTORE PUSH1 0x4 DUP2 ADD DUP4 SWAP1 MSTORE PUSH1 0x24 SWAP1 REVERT JUMPDEST CALLVALUE PUSH2 0x3D6 JUMPI PUSH1 0x20 CALLDATASIZE PUSH1 0x3 NOT ADD SLT PUSH2 0x3D6 JUMPI PUSH1 0x4 CALLDATALOAD PUSH2 0x136C PUSH2 0x3E6A JUMP JUMPDEST PUSH1 0x0 DUP2 DUP2 MSTORE PUSH1 0x15 PUSH1 0x20 MSTORE PUSH1 0x40 DUP2 KECCAK256 PUSH1 0xB ADD DUP1 SLOAD PUSH3 0xFF00FF PUSH1 0xA0 SHL NOT AND PUSH1 0x1 PUSH1 0xB0 SHL OR SWAP1 SSTORE PUSH32 0x4825B022B52DA7A8DE8063D9EA8FD654176315FFF40077D4C0374F8E1D8A245B SWAP1 DUP1 LOG2 STOP JUMPDEST CALLVALUE PUSH2 0x3D6 JUMPI PUSH2 0x18 PUSH2 0x13C7 CALLDATASIZE PUSH2 0x32A0 JUMP JUMPDEST SWAP1 PUSH2 0x13D0 PUSH2 0x3E6A JUMP JUMPDEST PUSH2 0x3DF0 JUMP JUMPDEST CALLVALUE PUSH2 0x3D6 JUMPI PUSH1 0x0 CALLDATASIZE PUSH1 0x3 NOT ADD SLT PUSH2 0x3D6 JUMPI PUSH1 0x40 MLOAD PUSH1 0x3 SLOAD PUSH1 0x0 DUP3 PUSH2 0x13F8 DUP4 PUSH2 0x32B6 JUMP JUMPDEST SWAP2 DUP3 DUP3 MSTORE PUSH1 0x20 SWAP4 PUSH1 0x1 SWAP1 DUP6 PUSH1 0x1 DUP3 AND SWAP2 DUP3 PUSH1 0x0 EQ PUSH2 0x1498 JUMPI POP POP PUSH1 0x1 EQ PUSH2 0x143B JUMPI JUMPDEST POP PUSH2 0x1427 SWAP3 POP SUB DUP4 PUSH2 0x3326 JUMP JUMPDEST PUSH2 0xE3D PUSH1 0x40 MLOAD SWAP3 DUP3 DUP5 SWAP4 DUP5 MSTORE DUP4 ADD SWAP1 PUSH2 0x3260 JUMP JUMPDEST DUP5 SWAP2 POP PUSH1 0x3 PUSH1 0x0 MSTORE PUSH32 0xC2575A0E9E593C00F959F8C92F12DB2869C3395A3B0502D05E2516446F71F85B SWAP1 PUSH1 0x0 SWAP2 JUMPDEST DUP6 DUP4 LT PUSH2 0x1480 JUMPI POP POP PUSH2 0x1427 SWAP4 POP DUP3 ADD ADD DUP6 PUSH2 0x141A JUMP JUMPDEST DUP1 SLOAD DUP4 DUP10 ADD DUP6 ADD MSTORE DUP8 SWAP5 POP DUP7 SWAP4 SWAP1 SWAP3 ADD SWAP2 DUP2 ADD PUSH2 0x1469 JUMP JUMPDEST PUSH1 0xFF NOT AND DUP6 DUP3 ADD MSTORE PUSH2 0x1427 SWAP6 ISZERO ISZERO PUSH1 0x5 SHL DUP6 ADD ADD SWAP3 POP DUP8 SWAP2 POP PUSH2 0x141A SWAP1 POP JUMP JUMPDEST CALLVALUE PUSH2 0x3D6 JUMPI PUSH1 0x40 CALLDATASIZE PUSH1 0x3 NOT ADD SLT PUSH2 0x3D6 JUMPI PUSH1 0x1 PUSH1 0x1 PUSH1 0x40 SHL SUB PUSH1 0x4 CALLDATALOAD DUP2 DUP2 GT PUSH2 0x3D6 JUMPI PUSH2 0x14E9 SWAP1 CALLDATASIZE SWAP1 PUSH1 0x4 ADD PUSH2 0x344C JUMP JUMPDEST SWAP1 SWAP2 PUSH1 0x24 CALLDATALOAD SWAP1 DUP2 GT PUSH2 0x3D6 JUMPI PUSH2 0x1503 SWAP1 CALLDATASIZE SWAP1 PUSH1 0x4 ADD PUSH2 0x33EC JUMP JUMPDEST SWAP1 SWAP2 PUSH2 0x150D PUSH2 0x3E6A JUMP JUMPDEST PUSH1 0x0 JUMPDEST DUP2 DUP2 LT PUSH2 0x1519 JUMPI STOP JUMPDEST PUSH1 0x1 SWAP1 PUSH1 0x1 PUSH1 0x1 PUSH1 0xA0 SHL SUB PUSH2 0x154E PUSH2 0x1532 DUP4 DUP7 DUP11 PUSH2 0x3896 JUMP JUMPDEST CALLDATALOAD PUSH1 0x0 SWAP1 DUP2 MSTORE PUSH1 0x4 PUSH1 0x20 MSTORE PUSH1 0x40 SWAP1 KECCAK256 SLOAD PUSH1 0x1 PUSH1 0x1 PUSH1 0xA0 SHL SUB AND SWAP1 JUMP JUMPDEST AND PUSH2 0x155A JUMPI JUMPDEST ADD PUSH2 0x1510 JUMP JUMPDEST PUSH2 0x157A PUSH2 0x1568 DUP3 DUP6 DUP10 PUSH2 0x3896 JUMP JUMPDEST CALLDATALOAD PUSH2 0x1574 CALLDATASIZE DUP8 DUP10 PUSH2 0x357C JUMP JUMPDEST SWAP1 PUSH2 0x3ED1 JUMP JUMPDEST PUSH2 0x1585 DUP2 DUP5 DUP9 PUSH2 0x3896 JUMP JUMPDEST CALLDATALOAD PUSH32 0xAC6D62CB5D30A7FFF578060CD3DCF46FF2DF7991A71C2D2AABCA7E558F130F78 PUSH1 0x40 MLOAD DUP1 PUSH2 0x15BC PUSH1 0x20 DUP1 DUP4 MSTORE DUP3 ADD DUP10 DUP12 PUSH2 0x3634 JUMP JUMPDEST SUB SWAP1 LOG2 PUSH2 0x1554 JUMP JUMPDEST PUSH2 0x15CD CALLDATASIZE PUSH2 0x32A0 JUMP JUMPDEST PUSH2 0x15D5 PUSH2 0x400B JUMP JUMPDEST CALLER PUSH1 0x0 MSTORE PUSH1 0x20 SWAP2 PUSH1 0x13 DUP4 MSTORE PUSH2 0x15F2 PUSH1 0xFF PUSH1 0x40 PUSH1 0x0 KECCAK256 SLOAD AND ISZERO PUSH2 0x3655 JUMP JUMPDEST PUSH2 0x15FA PUSH2 0x402C JUMP JUMPDEST DUP1 PUSH1 0x0 MSTORE PUSH1 0x15 DUP4 MSTORE PUSH1 0x40 PUSH1 0x0 KECCAK256 SWAP3 PUSH2 0x1620 PUSH1 0xFF PUSH1 0xB DUP7 ADD SLOAD PUSH2 0x84B DUP3 DUP3 PUSH1 0xA0 SHR AND PUSH2 0x369A JUMP JUMPDEST DUP3 ISZERO ISZERO DUP1 PUSH2 0x17AD JUMPI JUMPDEST PUSH2 0x1632 SWAP1 PUSH2 0x3CCB JUMP JUMPDEST PUSH2 0x164A PUSH1 0x7 DUP6 ADD SLOAD DUP1 ISZERO SWAP1 DUP2 ISZERO PUSH2 0x1795 JUMPI JUMPDEST POP PUSH2 0x3D17 JUMP JUMPDEST PUSH2 0x1663 PUSH2 0x165B DUP5 PUSH1 0x8 DUP8 ADD SLOAD PUSH2 0x3C5A JUMP JUMPDEST CALLVALUE LT ISZERO PUSH2 0x3782 JUMP JUMPDEST PUSH2 0x166C DUP4 PUSH2 0x3D71 JUMP JUMPDEST SWAP3 PUSH2 0x1677 DUP2 CALLVALUE PUSH2 0x3C6D JUMP JUMPDEST SWAP1 PUSH1 0x0 PUSH1 0x6 DUP8 ADD SWAP1 PUSH1 0x1 SWAP4 PUSH1 0x1 DUP10 ADD SWAP2 JUMPDEST DUP5 DUP2 LT PUSH2 0x16F5 JUMPI POP PUSH2 0xE3D DUP9 DUP9 PUSH1 0x0 DUP1 MLOAD PUSH1 0x20 PUSH2 0x4924 DUP4 CODECOPY DUP2 MLOAD SWAP2 MSTORE PUSH1 0x80 DUP11 PUSH1 0x4 DUP16 PUSH1 0x3 DUP2 ADD PUSH2 0x16B9 CALLVALUE DUP3 SLOAD PUSH2 0x375F JUMP JUMPDEST SWAP1 SSTORE ADD PUSH2 0x16C7 CALLVALUE DUP3 SLOAD PUSH2 0x375F JUMP JUMPDEST SWAP1 SSTORE PUSH1 0x40 MLOAD SWAP1 CALLVALUE DUP3 MSTORE CALLVALUE SWAP1 DUP3 ADD MSTORE PUSH1 0x0 PUSH1 0x40 DUP3 ADD MSTORE PUSH1 0x1 PUSH1 0x60 DUP3 ADD MSTORE LOG2 PUSH1 0x1 PUSH1 0xE SSTORE PUSH1 0x40 MLOAD SWAP2 DUP3 SWAP2 DUP3 PUSH2 0x34C0 JUMP JUMPDEST DUP1 DUP5 DUP5 DUP11 PUSH2 0x176E DUP11 SWAP6 DUP15 PUSH1 0x18 DUP15 PUSH1 0xF SWAP6 PUSH2 0x173D PUSH2 0x1737 DUP9 SLOAD SWAP10 DUP11 SWAP10 PUSH2 0x1719 DUP12 PUSH2 0x37C5 JUMP JUMPDEST SWAP1 SSTORE PUSH2 0x1725 DUP13 SLOAD PUSH2 0x37C5 JUMP JUMPDEST DUP1 SWAP13 SSTORE PUSH2 0x1732 DUP11 CALLER PUSH2 0x404F JUMP JUMPDEST PUSH2 0x3347 JUMP JUMPDEST DUP9 PUSH2 0x3ED1 JUMP JUMPDEST DUP7 PUSH1 0x0 MSTORE PUSH1 0x16 DUP3 MSTORE DUP1 PUSH1 0x40 PUSH1 0x0 KECCAK256 SSTORE PUSH1 0x17 DUP3 MSTORE DUP9 PUSH1 0x40 PUSH1 0x0 KECCAK256 SSTORE PUSH1 0x0 MSTORE MSTORE PUSH2 0x1769 DUP5 PUSH1 0x40 PUSH1 0x0 KECCAK256 PUSH2 0x381D JUMP JUMPDEST PUSH2 0x3DA3 JUMP JUMPDEST MSTORE PUSH1 0x40 MLOAD SWAP2 DUP3 MSTORE DUP5 DUP11 DUP4 ADD MSTORE DUP11 PUSH1 0x0 DUP1 MLOAD PUSH1 0x20 PUSH2 0x48E4 DUP4 CODECOPY DUP2 MLOAD SWAP2 MSTORE PUSH1 0x40 CALLER SWAP5 LOG4 ADD PUSH2 0x1688 JUMP JUMPDEST SWAP1 POP PUSH2 0x17A5 DUP6 PUSH1 0x6 DUP9 ADD SLOAD PUSH2 0x375F JUMP JUMPDEST GT ISZERO DUP7 PUSH2 0x1644 JUMP JUMPDEST POP PUSH1 0x32 DUP4 GT ISZERO PUSH2 0x1629 JUMP JUMPDEST CALLVALUE PUSH2 0x3D6 JUMPI PUSH1 0x0 CALLDATASIZE PUSH1 0x3 NOT ADD SLT PUSH2 0x3D6 JUMPI PUSH1 0xD SLOAD PUSH1 0x40 MLOAD PUSH1 0x1 PUSH1 0x1 PUSH1 0xA0 SHL SUB SWAP1 SWAP2 AND DUP2 MSTORE PUSH1 0x20 SWAP1 RETURN JUMPDEST CALLVALUE PUSH2 0x3D6 JUMPI PUSH1 0x0 CALLDATASIZE PUSH1 0x3 NOT ADD SLT PUSH2 0x3D6 JUMPI PUSH2 0x17FA PUSH2 0x3E6A JUMP JUMPDEST PUSH2 0x1802 PUSH2 0x400B JUMP JUMPDEST PUSH1 0xD DUP1 SLOAD PUSH1 0xFF PUSH1 0xA0 SHL NOT AND PUSH1 0x1 PUSH1 0xA0 SHL OR SWAP1 SSTORE PUSH1 0x40 MLOAD CALLER DUP2 MSTORE PUSH32 0x62E78CEA01BEE320CD4E420270B5EA74000D11B0C9F74754EBDBFC544B05A258 SWAP1 PUSH1 0x20 SWAP1 LOG1 STOP JUMPDEST CALLVALUE PUSH2 0x3D6 JUMPI PUSH1 0x20 CALLDATASIZE PUSH1 0x3 NOT ADD SLT PUSH2 0x3D6 JUMPI PUSH1 0x4 CALLDATALOAD PUSH1 0x0 MSTORE PUSH1 0x16 PUSH1 0x20 MSTORE PUSH1 0x60 PUSH1 0x40 PUSH1 0x0 KECCAK256 SLOAD PUSH1 0x17 PUSH1 0x20 MSTORE PUSH1 0x40 PUSH1 0x0 KECCAK256 SLOAD DUP2 PUSH1 0x0 MSTORE PUSH1 0x15 PUSH1 0x20 MSTORE PUSH1 0x6 PUSH1 0x40 PUSH1 0x0 KECCAK256 ADD SLOAD SWAP1 PUSH1 0x40 MLOAD SWAP3 DUP4 MSTORE PUSH1 0x20 DUP4 ADD MSTORE PUSH1 0x40 DUP3 ADD MSTORE RETURN JUMPDEST CALLVALUE PUSH2 0x3D6 JUMPI PUSH1 0x20 CALLDATASIZE PUSH1 0x3 NOT ADD SLT PUSH2 0x3D6 JUMPI PUSH1 0x4 CALLDATALOAD PUSH2 0x18B3 PUSH2 0x3E6A JUMP JUMPDEST DUP1 PUSH1 0x0 MSTORE PUSH1 0x15 PUSH1 0x20 MSTORE PUSH1 0xB PUSH1 0x40 PUSH1 0x0 KECCAK256 ADD PUSH1 0xFF PUSH1 0xA0 SHL NOT DUP2 SLOAD AND SWAP1 SSTORE PUSH1 0x0 DUP1 MLOAD PUSH1 0x20 PUSH2 0x4904 DUP4 CODECOPY DUP2 MLOAD SWAP2 MSTORE PUSH1 0x40 MLOAD DUP1 PUSH2 0x1907 DUP2 PUSH1 0x60 SWAP1 PUSH1 0x20 DUP2 MSTORE PUSH1 0x6 PUSH1 0x20 DUP3 ADD MSTORE PUSH6 0x616374697665 PUSH1 0xD0 SHL PUSH1 0x40 DUP3 ADD MSTORE ADD SWAP1 JUMP JUMPDEST SUB SWAP1 LOG2 STOP JUMPDEST CALLVALUE PUSH2 0x3D6 JUMPI PUSH1 0x20 CALLDATASIZE PUSH1 0x3 NOT ADD SLT PUSH2 0x3D6 JUMPI PUSH1 0x4 CALLDATALOAD PUSH1 0x0 MSTORE PUSH1 0x14 PUSH1 0x20 MSTORE PUSH1 0x20 PUSH1 0xFF PUSH1 0x40 PUSH1 0x0 KECCAK256 SLOAD AND PUSH1 0x40 MLOAD SWAP1 ISZERO ISZERO DUP2 MSTORE RETURN JUMPDEST CALLVALUE PUSH2 0x3D6 JUMPI PUSH1 0x0 CALLDATASIZE PUSH1 0x3 NOT ADD SLT PUSH2 0x3D6 JUMPI PUSH2 0x1956 PUSH2 0x3E6A JUMP JUMPDEST PUSH1 0xD DUP1 SLOAD PUSH1 0x1 PUSH1 0x1 PUSH1 0xA0 SHL SUB NOT DUP2 AND SWAP1 SWAP2 SSTORE PUSH1 0x0 SWAP1 PUSH1 0x1 PUSH1 0x1 PUSH1 0xA0 SHL SUB AND PUSH32 0x8BE0079C531659141344CD1FD0A4F28419497F9722A3DAAFE3B4186F6B6457E0 DUP3 DUP1 LOG3 STOP JUMPDEST CALLVALUE PUSH2 0x3D6 JUMPI PUSH1 0x20 CALLDATASIZE PUSH1 0x3 NOT ADD SLT PUSH2 0x3D6 JUMPI PUSH1 0x20 PUSH2 0x19BD PUSH2 0x19B8 PUSH2 0x3234 JUMP JUMPDEST PUSH2 0x3DB7 JUMP JUMPDEST PUSH1 0x40 MLOAD SWAP1 DUP2 MSTORE RETURN JUMPDEST CALLVALUE PUSH2 0x3D6 JUMPI PUSH1 0x40 CALLDATASIZE PUSH1 0x3 NOT ADD SLT PUSH2 0x3D6 JUMPI PUSH1 0x4 CALLDATALOAD PUSH2 0x19E1 PUSH2 0x324A JUMP JUMPDEST PUSH2 0x19E9 PUSH2 0x3E6A JUMP JUMPDEST DUP2 PUSH1 0x0 MSTORE PUSH1 0x15 PUSH1 0x20 MSTORE PUSH1 0xB PUSH1 0x40 PUSH1 0x0 KECCAK256 ADD SWAP1 DUP2 SLOAD SWAP1 PUSH2 0x1A0E PUSH1 0xFF DUP4 PUSH1 0xA8 SHR AND ISZERO PUSH2 0x35B3 JUMP JUMPDEST PUSH1 0x1 DUP1 PUSH1 0xA0 SHL SUB AND SWAP1 PUSH1 0x1 PUSH1 0x1 PUSH1 0x60 SHL SUB PUSH1 0xA0 SHL AND OR SWAP1 SSTORE PUSH1 0x0 DUP1 MLOAD PUSH1 0x20 PUSH2 0x4904 DUP4 CODECOPY DUP2 MLOAD SWAP2 MSTORE PUSH1 0x60 PUSH1 0x40 MLOAD PUSH1 0x20 DUP2 MSTORE PUSH1 0x9 PUSH1 0x20 DUP3 ADD MSTORE PUSH9 0x39BAB136B4BA3A32B9 PUSH1 0xB9 SHL PUSH1 0x40 DUP3 ADD MSTORE LOG2 STOP JUMPDEST CALLVALUE PUSH2 0x3D6 JUMPI PUSH1 0x20 CALLDATASIZE PUSH1 0x3 NOT ADD SLT PUSH2 0x3D6 JUMPI PUSH1 0x20 PUSH2 0x1A78 PUSH1 0x4 CALLDATALOAD PUSH2 0x3E96 JUMP JUMPDEST PUSH1 0x40 MLOAD PUSH1 0x1 PUSH1 0x1 PUSH1 0xA0 SHL SUB SWAP1 SWAP2 AND DUP2 MSTORE RETURN JUMPDEST CALLVALUE PUSH2 0x3D6 JUMPI PUSH1 0x0 CALLDATASIZE PUSH1 0x3 NOT ADD SLT PUSH2 0x3D6 JUMPI PUSH1 0x11 SLOAD PUSH1 0x40 MLOAD PUSH1 0x1 PUSH1 0x1 PUSH1 0xA0 SHL SUB SWAP1 SWAP2 AND DUP2 MSTORE PUSH1 0x20 SWAP1 RETURN JUMPDEST CALLVALUE PUSH2 0x3D6 JUMPI PUSH1 0x0 CALLDATASIZE PUSH1 0x3 NOT ADD SLT PUSH2 0x3D6 JUMPI PUSH1 0x20 PUSH1 0xFF PUSH1 0xD SLOAD PUSH1 0xA0 SHR AND PUSH1 0x40 MLOAD SWAP1 ISZERO ISZERO DUP2 MSTORE RETURN JUMPDEST CALLVALUE PUSH2 0x3D6 JUMPI PUSH1 0x60 CALLDATASIZE PUSH1 0x3 NOT ADD SLT PUSH2 0x3D6 JUMPI PUSH1 0x4 CALLDATALOAD PUSH2 0x1AF5 PUSH2 0x324A JUMP JUMPDEST PUSH1 0x44 CALLDATALOAD SWAP1 PUSH1 0x1 PUSH1 0x1 PUSH1 0x60 SHL SUB DUP3 AND DUP1 SWAP3 SUB PUSH2 0x3D6 JUMPI PUSH2 0x1B12 PUSH2 0x3E6A JUMP JUMPDEST PUSH2 0x2710 DUP1 DUP4 GT PUSH2 0x1B8A JUMPI POP PUSH1 0x1 PUSH1 0x1 PUSH1 0xA0 SHL SUB SWAP1 DUP2 AND SWAP3 DUP4 ISZERO PUSH2 0x1B6B JUMPI PUSH1 0x40 MLOAD SWAP4 PUSH2 0x1B3C DUP6 PUSH2 0x32F0 JUMP JUMPDEST DUP5 MSTORE PUSH1 0x20 DUP1 DUP6 ADD SWAP4 DUP5 MSTORE PUSH1 0x0 SWAP2 DUP3 MSTORE PUSH1 0x1 SWAP1 MSTORE PUSH1 0x40 SWAP1 KECCAK256 SWAP3 MLOAD SWAP2 MLOAD PUSH1 0xA0 SHL PUSH1 0x1 PUSH1 0x1 PUSH1 0xA0 SHL SUB NOT AND SWAP2 AND OR SWAP1 SSTORE STOP JUMPDEST PUSH1 0x44 SWAP1 PUSH1 0x40 MLOAD SWAP1 PUSH4 0x4B4F8429 PUSH1 0xE1 SHL DUP3 MSTORE PUSH1 0x4 DUP3 ADD MSTORE PUSH1 0x0 PUSH1 0x24 DUP3 ADD MSTORE REVERT JUMPDEST DUP4 PUSH1 0x64 SWAP2 DUP5 PUSH1 0x40 MLOAD SWAP3 PUSH4 0xDFD1FC1B PUSH1 0xE0 SHL DUP5 MSTORE PUSH1 0x4 DUP5 ADD MSTORE PUSH1 0x24 DUP4 ADD MSTORE PUSH1 0x44 DUP3 ADD MSTORE REVERT JUMPDEST CALLVALUE PUSH2 0x3D6 JUMPI PUSH1 0x20 CALLDATASIZE PUSH1 0x3 NOT ADD SLT PUSH2 0x3D6 JUMPI PUSH1 0x4 CALLDATALOAD PUSH1 0x0 MSTORE PUSH1 0x15 PUSH1 0x20 MSTORE PUSH2 0x1C27 PUSH1 0x40 PUSH1 0x0 KECCAK256 PUSH1 0x2 DUP2 ADD SLOAD PUSH1 0xFF PUSH1 0x3 DUP4 ADD SLOAD PUSH1 0x4 DUP5 ADD SLOAD PUSH1 0x6 DUP6 ADD SLOAD PUSH1 0x7 DUP7 ADD SLOAD SWAP1 PUSH1 0x8 DUP8 ADD SLOAD SWAP3 PUSH1 0xB DUP9 ADD SLOAD SWAP5 PUSH2 0x1C35 PUSH2 0x1C12 PUSH1 0x1 PUSH2 0x1C0B DUP13 PUSH2 0x3347 JUMP JUMPDEST SWAP12 ADD PUSH2 0x3347 JUMP JUMPDEST PUSH1 0x40 MLOAD SWAP12 DUP13 SWAP12 DUP13 PUSH2 0x140 DUP1 SWAP2 MSTORE DUP14 ADD SWAP1 PUSH2 0x3260 JUMP JUMPDEST SWAP1 DUP12 DUP3 SUB PUSH1 0x20 DUP14 ADD MSTORE PUSH2 0x3260 JUMP JUMPDEST SWAP8 PUSH1 0x40 DUP11 ADD MSTORE PUSH1 0x60 DUP10 ADD MSTORE PUSH1 0x80 DUP9 ADD MSTORE PUSH1 0xA0 DUP8 ADD MSTORE PUSH1 0xC0 DUP7 ADD MSTORE PUSH1 0xE0 DUP6 ADD MSTORE DUP2 DUP2 PUSH1 0xA0 SHR AND ISZERO ISZERO PUSH2 0x100 DUP6 ADD MSTORE PUSH1 0xA8 SHR AND ISZERO ISZERO PUSH2 0x120 DUP4 ADD MSTORE SUB SWAP1 RETURN JUMPDEST CALLVALUE PUSH2 0x3D6 JUMPI PUSH2 0x1C80 CALLDATASIZE PUSH2 0x32A0 JUMP JUMPDEST PUSH2 0x1C88 PUSH2 0x3E6A JUMP JUMPDEST DUP2 PUSH1 0x0 MSTORE PUSH1 0x15 PUSH1 0x20 MSTORE PUSH1 0x2 PUSH1 0x40 PUSH1 0x0 KECCAK256 PUSH2 0x1CAC PUSH1 0xFF PUSH1 0xB DUP4 ADD SLOAD PUSH1 0xA8 SHR AND ISZERO PUSH2 0x35B3 JUMP JUMPDEST ADD SSTORE PUSH1 0x0 DUP1 MLOAD PUSH1 0x20 PUSH2 0x4904 DUP4 CODECOPY DUP2 MLOAD SWAP2 MSTORE PUSH1 0x60 PUSH1 0x40 MLOAD PUSH1 0x20 DUP2 MSTORE PUSH1 0x4 PUSH1 0x20 DUP3 ADD MSTORE PUSH4 0x19DBD85B PUSH1 0xE2 SHL PUSH1 0x40 DUP3 ADD MSTORE LOG2 STOP JUMPDEST CALLVALUE PUSH2 0x3D6 JUMPI PUSH1 0x20 CALLDATASIZE PUSH1 0x3 NOT ADD SLT PUSH2 0x3D6 JUMPI PUSH1 0x4 CALLDATALOAD PUSH1 0xA SLOAD DUP2 LT ISZERO PUSH2 0x1D14 JUMPI PUSH2 0x1D06 PUSH1 0x20 SWAP2 PUSH2 0x34FC JUMP JUMPDEST SWAP1 SLOAD PUSH1 0x40 MLOAD SWAP2 PUSH1 0x3 SHL SHR DUP2 MSTORE RETURN JUMPDEST PUSH1 0x44 SWAP1 PUSH1 0x40 MLOAD SWAP1 PUSH4 0x295F44F7 PUSH1 0xE2 SHL DUP3 MSTORE PUSH1 0x0 PUSH1 0x4 DUP4 ADD MSTORE PUSH1 0x24 DUP3 ADD MSTORE REVERT JUMPDEST PUSH1 0x60 CALLDATASIZE PUSH1 0x3 NOT ADD SLT PUSH2 0x3D6 JUMPI PUSH1 0x44 CALLDATALOAD PUSH1 0x24 CALLDATALOAD PUSH1 0x4 CALLDATALOAD PUSH2 0x1D50 PUSH2 0x400B JUMP JUMPDEST CALLER PUSH1 0x0 MSTORE PUSH1 0x20 PUSH1 0x13 DUP2 MSTORE PUSH2 0x1D6C PUSH1 0xFF PUSH1 0x40 PUSH1 0x0 KECCAK256 SLOAD AND ISZERO PUSH2 0x3655 JUMP JUMPDEST PUSH2 0x1D74 PUSH2 0x402C JUMP JUMPDEST DUP2 PUSH1 0x0 MSTORE PUSH1 0x15 DUP2 MSTORE PUSH1 0x40 PUSH1 0x0 KECCAK256 SWAP3 PUSH2 0x1D9A PUSH1 0xFF PUSH1 0xB DUP7 ADD SLOAD PUSH2 0x84B DUP3 DUP3 PUSH1 0xA0 SHR AND PUSH2 0x369A JUMP JUMPDEST DUP1 ISZERO ISZERO DUP1 PUSH2 0x1EEE JUMPI JUMPDEST PUSH2 0x1DAC SWAP1 PUSH2 0x3CCB JUMP JUMPDEST PUSH2 0x1DC3 PUSH1 0x7 DUP6 ADD SLOAD DUP1 ISZERO SWAP1 DUP2 ISZERO PUSH2 0x1ED6 JUMPI POP PUSH2 0x3D17 JUMP JUMPDEST PUSH2 0x1DDD PUSH2 0x165B DUP7 PUSH2 0x1DD8 DUP5 PUSH1 0x8 DUP10 ADD SLOAD PUSH2 0x3C5A JUMP JUMPDEST PUSH2 0x375F JUMP JUMPDEST PUSH2 0x1DE6 DUP2 PUSH2 0x3D71 JUMP JUMPDEST SWAP4 PUSH2 0x1DF1 DUP7 CALLVALUE PUSH2 0x37D4 JUMP JUMPDEST SWAP2 PUSH2 0x1DFC DUP2 CALLVALUE PUSH2 0x3C6D JUMP JUMPDEST SWAP1 PUSH1 0x0 PUSH1 0x6 DUP5 ADD SWAP1 PUSH1 0x1 SWAP4 PUSH1 0x1 DUP7 ADD SWAP2 JUMPDEST DUP5 DUP2 LT PUSH2 0x1E89 JUMPI PUSH2 0xE3D DUP12 DUP12 PUSH1 0x0 DUP1 MLOAD PUSH1 0x20 PUSH2 0x4924 DUP4 CODECOPY DUP2 MLOAD SWAP2 MSTORE DUP16 DUP14 PUSH1 0x80 SWAP2 DUP15 PUSH1 0x5 DUP16 PUSH1 0x3 DUP2 ADD PUSH2 0x1E40 CALLVALUE DUP3 SLOAD PUSH2 0x375F JUMP JUMPDEST SWAP1 SSTORE PUSH1 0x4 DUP2 ADD PUSH2 0x1E51 DUP5 DUP3 SLOAD PUSH2 0x375F JUMP JUMPDEST SWAP1 SSTORE ADD PUSH2 0x1E5F DUP4 DUP3 SLOAD PUSH2 0x375F JUMP JUMPDEST SWAP1 SSTORE PUSH1 0x40 MLOAD SWAP3 CALLVALUE DUP5 MSTORE DUP4 ADD MSTORE PUSH1 0x40 DUP3 ADD MSTORE PUSH1 0x1 PUSH1 0x60 DUP3 ADD MSTORE LOG2 PUSH1 0x1 PUSH1 0xE SSTORE PUSH1 0x40 MLOAD SWAP2 DUP3 SWAP2 DUP3 PUSH2 0x34C0 JUMP JUMPDEST DUP1 DUP5 DUP5 DUP13 PUSH2 0x1EAF DUP16 SWAP6 DUP12 SWAP7 DUP16 PUSH1 0x18 SWAP1 PUSH1 0xF SWAP6 PUSH2 0x173D PUSH2 0x1737 DUP9 SLOAD SWAP10 DUP11 SWAP10 PUSH2 0x1719 DUP12 PUSH2 0x37C5 JUMP JUMPDEST MSTORE PUSH1 0x40 MLOAD SWAP2 DUP3 MSTORE DUP5 DUP13 DUP4 ADD MSTORE DUP13 PUSH1 0x0 DUP1 MLOAD PUSH1 0x20 PUSH2 0x48E4 DUP4 CODECOPY DUP2 MLOAD SWAP2 MSTORE PUSH1 0x40 CALLER SWAP5 LOG4 ADD PUSH2 0x1E0D JUMP JUMPDEST SWAP1 POP PUSH2 0x1EE6 DUP4 PUSH1 0x6 DUP9 ADD SLOAD PUSH2 0x375F JUMP JUMPDEST GT ISZERO DUP8 PUSH2 0x1644 JUMP JUMPDEST POP PUSH1 0x32 DUP2 GT ISZERO PUSH2 0x1DA3 JUMP JUMPDEST CALLVALUE PUSH2 0x3D6 JUMPI PUSH1 0x20 CALLDATASIZE PUSH1 0x3 NOT ADD SLT PUSH2 0x3D6 JUMPI PUSH1 0x4 CALLDATALOAD PUSH2 0x1F15 PUSH2 0x3E6A JUMP JUMPDEST DUP1 PUSH1 0x0 MSTORE PUSH1 0x12 PUSH1 0x20 MSTORE PUSH1 0x40 PUSH1 0x0 KECCAK256 PUSH1 0xFF NOT DUP2 SLOAD AND SWAP1 SSTORE PUSH32 0xBF025F2B09B91DC81D2B137BED7B878FB0BD75A3BFE4708D69989FDA3C63485A PUSH1 0x20 PUSH1 0x40 MLOAD PUSH1 0x0 DUP2 MSTORE LOG2 STOP JUMPDEST CALLVALUE PUSH2 0x3D6 JUMPI PUSH1 0x20 CALLDATASIZE PUSH1 0x3 NOT ADD SLT PUSH2 0x3D6 JUMPI PUSH1 0x4 CALLDATALOAD PUSH2 0x1F74 PUSH2 0x3E6A JUMP JUMPDEST DUP1 PUSH1 0x0 MSTORE PUSH1 0x14 PUSH1 0x20 MSTORE PUSH1 0x40 PUSH1 0x0 KECCAK256 PUSH1 0xFF NOT DUP2 SLOAD AND SWAP1 SSTORE PUSH32 0x7FBA17392135B4084A7D689C1F6D77139E1F1C18EE4651BF32DC35AE29CE9301 PUSH1 0x20 PUSH1 0x40 MLOAD PUSH1 0x0 DUP2 MSTORE LOG2 STOP JUMPDEST CALLVALUE PUSH2 0x3D6 JUMPI PUSH1 0x40 CALLDATASIZE PUSH1 0x3 NOT ADD SLT PUSH2 0x3D6 JUMPI PUSH1 0x4 CALLDATALOAD PUSH1 0x1 PUSH1 0x1 PUSH1 0x40 SHL SUB DUP2 GT PUSH2 0x3D6 JUMPI PUSH2 0x1FE7 SWAP1 CALLDATASIZE SWAP1 PUSH1 0x4 ADD PUSH2 0x344C JUMP JUMPDEST PUSH2 0x1FEF PUSH2 0x34B1 JUMP JUMPDEST PUSH2 0x1FF7 PUSH2 0x3E6A JUMP JUMPDEST PUSH1 0x0 JUMPDEST DUP3 DUP2 LT PUSH2 0x2003 JUMPI STOP JUMPDEST PUSH1 0x1 SWAP1 PUSH1 0x1 PUSH1 0x1 PUSH1 0xA0 SHL SUB PUSH2 0x201C PUSH2 0x1532 DUP4 DUP8 DUP10 PUSH2 0x3896 JUMP JUMPDEST AND PUSH2 0x2028 JUMPI JUMPDEST ADD PUSH2 0x1FFA JUMP JUMPDEST PUSH2 0x2033 DUP2 DUP6 DUP8 PUSH2 0x3896 JUMP JUMPDEST CALLDATALOAD PUSH1 0x0 MSTORE PUSH1 0x20 PUSH1 0x12 DUP2 MSTORE PUSH2 0x2057 DUP5 PUSH1 0x40 PUSH1 0x0 KECCAK256 SWAP1 PUSH1 0xFF DUP1 NOT DUP4 SLOAD AND SWAP2 ISZERO ISZERO AND OR SWAP1 SSTORE JUMP JUMPDEST PUSH32 0xBF025F2B09B91DC81D2B137BED7B878FB0BD75A3BFE4708D69989FDA3C63485A PUSH2 0x2083 DUP4 DUP8 DUP10 PUSH2 0x3896 JUMP JUMPDEST CALLDATALOAD SWAP2 PUSH1 0x40 MLOAD DUP7 ISZERO ISZERO DUP2 MSTORE LOG2 PUSH2 0x2022 JUMP JUMPDEST CALLVALUE PUSH2 0x3D6 JUMPI PUSH1 0x20 CALLDATASIZE PUSH1 0x3 NOT ADD SLT PUSH2 0x3D6 JUMPI PUSH1 0x4 CALLDATALOAD DUP1 PUSH1 0x0 MSTORE PUSH1 0x4 PUSH1 0x20 MSTORE PUSH1 0x1 DUP1 PUSH1 0xA0 SHL SUB PUSH1 0x40 PUSH1 0x0 KECCAK256 SLOAD AND CALLER SUB PUSH2 0x2111 JUMPI DUP1 PUSH1 0x0 MSTORE PUSH1 0x12 PUSH1 0x20 MSTORE PUSH2 0x20DF PUSH1 0xFF PUSH1 0x40 PUSH1 0x0 KECCAK256 SLOAD AND ISZERO PUSH2 0x3C8D JUMP JUMPDEST PUSH2 0x20E8 DUP2 PUSH2 0x448D JUMP JUMPDEST CALLER SWAP1 PUSH32 0x33631BCD0A4D34A7E2C240AB0753D5ADFB7284D8AC89DAB6876EC785C0CFA0E6 PUSH1 0x0 DUP1 LOG3 STOP JUMPDEST PUSH1 0x40 MLOAD PUSH3 0x461BCD PUSH1 0xE5 SHL DUP2 MSTORE PUSH1 0x20 PUSH1 0x4 DUP3 ADD MSTORE PUSH1 0xF PUSH1 0x24 DUP3 ADD MSTORE PUSH15 0x2737BA103A37B5B2B71037BBB732B9 PUSH1 0x89 SHL PUSH1 0x44 DUP3 ADD MSTORE PUSH1 0x64 SWAP1 REVERT JUMPDEST CALLVALUE PUSH2 0x3D6 JUMPI PUSH2 0x18 PUSH2 0x2159 CALLDATASIZE PUSH2 0x347C JUMP JUMPDEST SWAP1 PUSH1 0x40 MLOAD SWAP3 PUSH2 0x2167 DUP5 PUSH2 0x330B JUMP JUMPDEST PUSH1 0x0 DUP5 MSTORE PUSH2 0x10A0 DUP4 DUP4 DUP4 PUSH2 0x38A6 JUMP JUMPDEST CALLVALUE PUSH2 0x3D6 JUMPI PUSH2 0x2184 CALLDATASIZE PUSH2 0x32A0 JUMP JUMPDEST SWAP1 PUSH1 0x0 MSTORE PUSH1 0x18 PUSH1 0x20 MSTORE PUSH1 0x40 PUSH1 0x0 KECCAK256 DUP1 SLOAD DUP3 LT ISZERO PUSH2 0x3D6 JUMPI PUSH1 0x20 SWAP2 PUSH2 0x1D06 SWAP2 PUSH2 0x3549 JUMP JUMPDEST CALLVALUE PUSH2 0x3D6 JUMPI PUSH1 0x0 CALLDATASIZE PUSH1 0x3 NOT ADD SLT PUSH2 0x3D6 JUMPI PUSH2 0x21C0 PUSH2 0x3E6A JUMP JUMPDEST PUSH1 0xD SLOAD PUSH1 0xFF DUP2 PUSH1 0xA0 SHR AND ISZERO PUSH2 0x2207 JUMPI PUSH1 0xFF PUSH1 0xA0 SHL NOT AND PUSH1 0xD SSTORE PUSH1 0x40 MLOAD CALLER DUP2 MSTORE PUSH32 0x5DB9EE0A495BF2E6FF9C91A7834C1BA4FDD244A5E8AA4E537BD38AEAE4B073AA SWAP1 PUSH1 0x20 SWAP1 LOG1 STOP JUMPDEST PUSH1 0x40 MLOAD PUSH4 0x8DFC202B PUSH1 0xE0 SHL DUP2 MSTORE PUSH1 0x4 SWAP1 REVERT JUMPDEST CALLVALUE PUSH2 0x3D6 JUMPI PUSH1 0x20 DUP1 PUSH1 0x3 NOT CALLDATASIZE ADD SLT PUSH2 0x3D6 JUMPI PUSH1 0x4 CALLDATALOAD PUSH1 0x0 MSTORE PUSH1 0x18 PUSH1 0x20 MSTORE PUSH1 0x40 PUSH1 0x0 KECCAK256 SWAP1 PUSH1 0x40 MLOAD SWAP1 DUP2 PUSH1 0x20 DUP5 SLOAD SWAP2 DUP3 DUP2 MSTORE ADD SWAP4 PUSH1 0x0 MSTORE PUSH1 0x20 PUSH1 0x0 KECCAK256 SWAP2 PUSH1 0x0 SWAP1 JUMPDEST DUP3 DUP3 LT PUSH2 0x227B JUMPI PUSH2 0xE3D DUP6 PUSH2 0x226F DUP2 DUP10 SUB DUP3 PUSH2 0x3326 JUMP JUMPDEST PUSH1 0x40 MLOAD SWAP2 DUP3 SWAP2 DUP3 PUSH2 0x34C0 JUMP JUMPDEST DUP4 SLOAD DUP7 MSTORE SWAP5 DUP6 ADD SWAP5 PUSH1 0x1 SWAP4 DUP5 ADD SWAP4 SWAP1 SWAP2 ADD SWAP1 PUSH2 0x2258 JUMP JUMPDEST CALLVALUE PUSH2 0x3D6 JUMPI PUSH1 0x20 CALLDATASIZE PUSH1 0x3 NOT ADD SLT PUSH2 0x3D6 JUMPI PUSH2 0x22AB PUSH2 0x3E6A JUMP JUMPDEST PUSH32 0xF8E1A15ABA9398E019F0B49DF1A4FDE98EE17AE345CB5F6B5E2C27F5033E8CE7 PUSH1 0x20 PUSH1 0x40 MLOAD PUSH1 0x4 CALLDATALOAD DUP2 MSTORE LOG1 STOP JUMPDEST CALLVALUE PUSH2 0x3D6 JUMPI PUSH1 0x40 CALLDATASIZE PUSH1 0x3 NOT ADD SLT PUSH2 0x3D6 JUMPI PUSH2 0x22F2 PUSH2 0x3234 JUMP JUMPDEST PUSH1 0x24 CALLDATALOAD SWAP1 PUSH2 0x22FF DUP2 PUSH2 0x3DB7 JUMP JUMPDEST DUP3 LT ISZERO PUSH2 0x2332 JUMPI PUSH1 0x1 DUP1 PUSH1 0xA0 SHL SUB AND PUSH1 0x0 MSTORE PUSH1 0x8 PUSH1 0x20 MSTORE PUSH1 0x40 PUSH1 0x0 KECCAK256 SWAP1 PUSH1 0x0 MSTORE PUSH1 0x20 MSTORE PUSH1 0x20 PUSH1 0x40 PUSH1 0x0 KECCAK256 SLOAD PUSH1 0x40 MLOAD SWAP1 DUP2 MSTORE RETURN JUMPDEST PUSH1 0x40 MLOAD PUSH4 0x295F44F7 PUSH1 0xE2 SHL DUP2 MSTORE PUSH1 0x1 PUSH1 0x1 PUSH1 0xA0 SHL SUB SWAP2 SWAP1 SWAP2 AND PUSH1 0x4 DUP3 ADD MSTORE PUSH1 0x24 DUP2 ADD SWAP2 SWAP1 SWAP2 MSTORE PUSH1 0x44 SWAP1 REVERT JUMPDEST CALLVALUE PUSH2 0x3D6 JUMPI PUSH1 0x60 CALLDATASIZE PUSH1 0x3 NOT ADD SLT PUSH2 0x3D6 JUMPI PUSH1 0x4 CALLDATALOAD PUSH1 0x40 PUSH2 0x237B PUSH2 0x324A JUMP JUMPDEST SWAP2 PUSH2 0x2384 PUSH2 0x3E6A JUMP JUMPDEST DUP1 PUSH1 0x0 MSTORE PUSH1 0x20 SWAP3 PUSH1 0x15 DUP5 MSTORE DUP3 PUSH1 0x0 KECCAK256 SWAP2 PUSH2 0x23B6 PUSH1 0xFF PUSH1 0xB DUP6 ADD SLOAD PUSH2 0x23AC DUP3 DUP3 PUSH1 0xA0 SHR AND PUSH2 0x369A JUMP JUMPDEST PUSH1 0xA8 SHR AND ISZERO PUSH2 0x35B3 JUMP JUMPDEST PUSH2 0x23CD PUSH1 0x7 DUP5 ADD SLOAD DUP1 ISZERO SWAP1 DUP2 ISZERO PUSH2 0x2464 JUMPI POP PUSH2 0x371C JUMP JUMPDEST PUSH1 0x0 DUP1 MLOAD PUSH1 0x20 PUSH2 0x48E4 DUP4 CODECOPY DUP2 MLOAD SWAP2 MSTORE PUSH1 0xF SLOAD SWAP5 DUP6 SWAP4 PUSH2 0x23EB DUP6 PUSH2 0x37C5 JUMP JUMPDEST PUSH1 0xF SSTORE PUSH2 0x2418 PUSH2 0x2412 PUSH1 0x1 PUSH1 0x6 DUP10 ADD SWAP9 PUSH2 0x2405 DUP11 SLOAD PUSH2 0x37C5 JUMP JUMPDEST DUP1 SWAP11 SSTORE PUSH2 0x8E2 DUP10 DUP7 PUSH2 0x404F JUMP JUMPDEST DUP7 PUSH2 0x3ED1 JUMP JUMPDEST DUP5 PUSH1 0x0 MSTORE PUSH1 0x16 DUP9 MSTORE DUP4 DUP3 PUSH1 0x0 KECCAK256 SSTORE PUSH1 0x17 DUP9 MSTORE DUP6 DUP3 PUSH1 0x0 KECCAK256 SSTORE DUP4 PUSH1 0x0 MSTORE PUSH1 0x18 DUP9 MSTORE PUSH2 0x2445 DUP6 DUP4 PUSH1 0x0 KECCAK256 PUSH2 0x381D JUMP JUMPDEST DUP2 MLOAD SWAP6 DUP7 MSTORE PUSH1 0x44 CALLDATALOAD DUP9 DUP8 ADD MSTORE PUSH1 0x1 PUSH1 0x1 PUSH1 0xA0 SHL SUB AND SWAP5 LOG4 PUSH1 0x40 MLOAD SWAP1 DUP2 MSTORE RETURN JUMPDEST SWAP1 POP PUSH1 0x6 DUP6 ADD SLOAD LT DUP8 PUSH2 0x876 JUMP JUMPDEST CALLVALUE PUSH2 0x3D6 JUMPI PUSH2 0x2480 CALLDATASIZE PUSH2 0x32A0 JUMP JUMPDEST SWAP1 PUSH1 0x0 MSTORE PUSH1 0x1 PUSH1 0x20 MSTORE PUSH1 0x40 PUSH1 0x0 KECCAK256 PUSH1 0x40 MLOAD SWAP1 PUSH2 0x249B DUP3 PUSH2 0x32F0 JUMP JUMPDEST SLOAD PUSH1 0x1 PUSH1 0x1 PUSH1 0xA0 SHL SUB DUP1 DUP3 AND DUP1 DUP5 MSTORE PUSH1 0xA0 SWAP3 SWAP1 SWAP3 SHR PUSH1 0x20 DUP5 ADD MSTORE SWAP2 SWAP3 SWAP1 ISZERO PUSH2 0x24F7 JUMPI JUMPDEST PUSH2 0x24D9 PUSH2 0x2710 SWAP2 PUSH1 0x1 PUSH1 0x1 PUSH1 0x60 SHL SUB PUSH1 0x20 DUP7 ADD MLOAD AND SWAP1 PUSH2 0x3C5A JUMP JUMPDEST SWAP3 MLOAD PUSH1 0x40 DUP1 MLOAD SWAP4 SWAP1 SWAP2 AND PUSH1 0x1 PUSH1 0x1 PUSH1 0xA0 SHL SUB AND DUP4 MSTORE SWAP3 DIV PUSH1 0x20 DUP3 ADD MSTORE RETURN JUMPDEST SWAP2 POP PUSH2 0x2710 PUSH2 0x24D9 PUSH1 0x40 MLOAD PUSH2 0x250B DUP2 PUSH2 0x32F0 JUMP JUMPDEST PUSH1 0x0 SLOAD DUP5 DUP2 AND DUP3 MSTORE PUSH1 0xA0 SHR PUSH1 0x20 DUP3 ADD MSTORE SWAP4 SWAP2 POP POP PUSH2 0x24BE JUMP JUMPDEST CALLVALUE PUSH2 0x3D6 JUMPI PUSH1 0xA0 CALLDATASIZE PUSH1 0x3 NOT ADD SLT PUSH2 0x3D6 JUMPI PUSH1 0x4 CALLDATALOAD PUSH1 0x24 CALLDATALOAD PUSH1 0x44 CALLDATALOAD PUSH1 0x64 CALLDATALOAD SWAP2 PUSH1 0x84 CALLDATALOAD DUP1 ISZERO ISZERO DUP1 SWAP2 SUB PUSH2 0x3D6 JUMPI PUSH1 0x0 DUP1 MLOAD PUSH1 0x20 PUSH2 0x4924 DUP4 CODECOPY DUP2 MLOAD SWAP2 MSTORE SWAP4 PUSH1 0x80 SWAP4 PUSH2 0x256A PUSH2 0x3E6A JUMP JUMPDEST DUP7 PUSH1 0x0 MSTORE PUSH1 0x15 PUSH1 0x20 MSTORE PUSH1 0x5 PUSH1 0x40 PUSH1 0x0 KECCAK256 PUSH2 0x258E PUSH1 0xFF PUSH1 0xB DUP4 ADD SLOAD PUSH1 0xA8 SHR AND ISZERO PUSH2 0x35B3 JUMP JUMPDEST PUSH2 0x2598 DUP5 DUP8 PUSH2 0x375F JUMP JUMPDEST PUSH2 0x25A7 PUSH1 0x3 DUP4 ADD SWAP2 DUP3 SLOAD PUSH2 0x375F JUMP JUMPDEST SWAP1 SSTORE PUSH1 0x4 DUP2 ADD PUSH2 0x25B8 DUP5 DUP3 SLOAD PUSH2 0x375F JUMP JUMPDEST SWAP1 SSTORE ADD PUSH2 0x25C6 DUP4 DUP3 SLOAD PUSH2 0x375F JUMP JUMPDEST SWAP1 SSTORE PUSH1 0x40 MLOAD SWAP4 DUP5 MSTORE PUSH1 0x20 DUP5 ADD MSTORE PUSH1 0x40 DUP4 ADD MSTORE PUSH1 0x60 DUP3 ADD MSTORE LOG2 STOP JUMPDEST CALLVALUE PUSH2 0x3D6 JUMPI PUSH2 0x18 PUSH2 0x25F1 CALLDATASIZE PUSH2 0x347C JUMP JUMPDEST SWAP2 PUSH2 0x38A6 JUMP JUMPDEST CALLVALUE PUSH2 0x3D6 JUMPI PUSH1 0x20 CALLDATASIZE PUSH1 0x3 NOT ADD SLT PUSH2 0x3D6 JUMPI PUSH1 0x4 CALLDATALOAD PUSH2 0x2613 PUSH2 0x3E6A JUMP JUMPDEST DUP1 PUSH1 0x0 MSTORE PUSH1 0x15 PUSH1 0x20 MSTORE PUSH1 0xB PUSH1 0x40 PUSH1 0x0 KECCAK256 ADD DUP1 SLOAD PUSH1 0xFF DUP2 PUSH1 0xA8 SHR AND PUSH2 0x26C2 JUMPI PUSH1 0xFF DUP2 PUSH1 0xB0 SHR AND PUSH2 0x2685 JUMPI PUSH1 0xFF PUSH1 0xA0 SHL NOT AND PUSH1 0x1 PUSH1 0xA0 SHL OR SWAP1 SSTORE PUSH1 0x40 DUP1 MLOAD PUSH1 0x20 DUP1 DUP3 MSTORE PUSH1 0x6 SWAP1 DUP3 ADD MSTORE PUSH6 0x616374697665 PUSH1 0xD0 SHL SWAP2 DUP2 ADD SWAP2 SWAP1 SWAP2 MSTORE PUSH1 0x0 DUP1 MLOAD PUSH1 0x20 PUSH2 0x4904 DUP4 CODECOPY DUP2 MLOAD SWAP2 MSTORE SWAP1 DUP1 PUSH1 0x60 DUP2 ADD PUSH2 0x1907 JUMP JUMPDEST PUSH1 0x40 MLOAD PUSH3 0x461BCD PUSH1 0xE5 SHL DUP2 MSTORE PUSH1 0x20 PUSH1 0x4 DUP3 ADD MSTORE PUSH1 0x15 PUSH1 0x24 DUP3 ADD MSTORE PUSH21 0x10D85B5C185A59DB881DD85CC81C99599D5B991959 PUSH1 0x5A SHL PUSH1 0x44 DUP3 ADD MSTORE PUSH1 0x64 SWAP1 REVERT JUMPDEST PUSH1 0x40 MLOAD PUSH3 0x461BCD PUSH1 0xE5 SHL DUP2 MSTORE PUSH1 0x20 PUSH1 0x4 DUP3 ADD MSTORE PUSH1 0x1B PUSH1 0x24 DUP3 ADD MSTORE PUSH32 0x43616D706169676E207065726D616E656E746C7920636C6F7365640000000000 PUSH1 0x44 DUP3 ADD MSTORE PUSH1 0x64 SWAP1 REVERT JUMPDEST CALLVALUE PUSH2 0x3D6 JUMPI PUSH1 0x40 CALLDATASIZE PUSH1 0x3 NOT ADD SLT PUSH2 0x3D6 JUMPI PUSH1 0x4 CALLDATALOAD PUSH1 0x1 PUSH1 0x1 PUSH1 0x40 SHL SUB DUP2 GT PUSH2 0x3D6 JUMPI PUSH2 0x2737 SWAP1 CALLDATASIZE SWAP1 PUSH1 0x4 ADD PUSH2 0x344C JUMP JUMPDEST SWAP1 PUSH1 0x24 CALLDATALOAD SWAP2 PUSH2 0x2744 PUSH2 0x3E6A JUMP JUMPDEST PUSH1 0x0 JUMPDEST DUP2 DUP2 LT PUSH2 0x2750 JUMPI STOP JUMPDEST PUSH1 0x1 PUSH1 0x1 PUSH1 0xA0 SHL SUB PUSH2 0x2766 PUSH2 0x1532 DUP4 DUP6 DUP8 PUSH2 0x3896 JUMP JUMPDEST AND PUSH2 0x2774 JUMPI JUMPDEST PUSH1 0x1 ADD PUSH2 0x2747 JUMP JUMPDEST SWAP3 SWAP2 SWAP1 PUSH2 0x2782 DUP5 DUP3 DUP5 PUSH2 0x3896 JUMP JUMPDEST CALLDATALOAD PUSH1 0x0 MSTORE PUSH1 0x18 PUSH1 0x20 PUSH1 0x16 DUP2 MSTORE DUP5 PUSH1 0x40 PUSH1 0x0 KECCAK256 SSTORE DUP5 PUSH1 0x0 MSTORE MSTORE PUSH1 0x40 PUSH1 0x0 KECCAK256 SWAP4 PUSH1 0x0 SWAP5 PUSH1 0x0 SWAP6 DUP2 SLOAD SWAP7 JUMPDEST DUP8 DUP2 LT PUSH2 0x27E4 JUMPI JUMPDEST POP PUSH1 0x1 SWAP4 SWAP5 SWAP6 SWAP7 POP ISZERO PUSH2 0x27C8 JUMPI JUMPDEST POP SWAP1 POP PUSH2 0x276C JUMP JUMPDEST PUSH2 0x27DE SWAP1 PUSH2 0x27D7 DUP4 DUP7 DUP9 PUSH2 0x3896 JUMP JUMPDEST CALLDATALOAD SWAP1 PUSH2 0x381D JUMP JUMPDEST DUP6 PUSH2 0x27C0 JUMP JUMPDEST PUSH2 0x27EE DUP2 DUP5 PUSH2 0x3549 JUMP JUMPDEST SWAP1 SLOAD PUSH2 0x27FB DUP7 DUP9 DUP11 PUSH2 0x3896 JUMP JUMPDEST CALLDATALOAD SWAP2 PUSH1 0x3 SHL SHR EQ PUSH2 0x280E JUMPI PUSH1 0x1 ADD PUSH2 0x27AA JUMP JUMPDEST POP SWAP5 SWAP6 POP DUP6 SWAP5 POP PUSH1 0x1 DUP1 PUSH2 0x27B2 JUMP JUMPDEST CALLVALUE PUSH2 0x3D6 JUMPI PUSH2 0x282B CALLDATASIZE PUSH2 0x3419 JUMP JUMPDEST SWAP1 PUSH2 0x2834 PUSH2 0x3E6A JUMP JUMPDEST DUP3 PUSH1 0x0 MSTORE PUSH1 0x20 SWAP1 PUSH1 0x15 DUP3 MSTORE PUSH1 0x40 PUSH1 0x0 KECCAK256 PUSH2 0x2858 PUSH1 0xFF PUSH1 0xB DUP4 ADD SLOAD PUSH1 0xA8 SHR AND ISZERO PUSH2 0x35B3 JUMP JUMPDEST PUSH1 0x1 DUP1 SWAP2 ADD PUSH1 0x1 PUSH1 0x1 PUSH1 0x40 SHL SUB DUP6 GT PUSH2 0xD57 JUMPI PUSH2 0x287F DUP6 PUSH2 0x2879 DUP4 SLOAD PUSH2 0x32B6 JUMP JUMPDEST DUP4 PUSH2 0x3840 JUMP JUMPDEST PUSH1 0x0 DUP6 PUSH1 0x1F DUP2 GT PUSH1 0x1 EQ PUSH2 0x2949 JUMPI DUP1 PUSH2 0x28AE SWAP3 PUSH1 0x0 SWAP2 PUSH2 0x293E JUMPI JUMPDEST POP DUP2 PUSH1 0x1 SHL SWAP2 PUSH1 0x0 NOT SWAP1 PUSH1 0x3 SHL SHR NOT AND OR SWAP1 JUMP JUMPDEST SWAP1 SSTORE JUMPDEST DUP5 PUSH1 0x0 MSTORE PUSH1 0x18 DUP4 MSTORE PUSH1 0x40 PUSH1 0x0 KECCAK256 DUP2 PUSH1 0x0 SWAP1 JUMPDEST PUSH2 0x2900 JUMPI JUMPDEST PUSH1 0x40 MLOAD DUP6 DUP2 MSTORE DUP8 SWAP1 PUSH32 0xD0ED2732DA48175AAAE07FD675A2A78B1700515722F6675D7FF5F0E09F22F309 SWAP1 DUP1 PUSH2 0x1907 DUP2 DUP11 ADD DUP12 DUP11 PUSH2 0x3634 JUMP JUMPDEST DUP2 SLOAD DUP2 LT ISZERO PUSH2 0x2939 JUMPI SWAP1 DUP3 DUP3 PUSH2 0x2931 PUSH2 0x291A DUP4 SWAP6 DUP6 PUSH2 0x3549 JUMP JUMPDEST SWAP1 SLOAD PUSH2 0x2927 CALLDATASIZE DUP13 DUP12 PUSH2 0x357C JUMP JUMPDEST SWAP2 PUSH1 0x3 SHL SHR PUSH2 0x3ED1 JUMP JUMPDEST ADD SWAP1 SWAP2 PUSH2 0x28C3 JUMP JUMPDEST PUSH2 0x28C8 JUMP JUMPDEST SWAP1 POP DUP6 ADD CALLDATALOAD DUP10 PUSH2 0x289A JUMP JUMPDEST POP PUSH1 0x1F NOT DUP7 AND SWAP1 DUP3 PUSH1 0x0 MSTORE DUP7 DUP7 PUSH1 0x0 KECCAK256 SWAP3 PUSH1 0x0 JUMPDEST DUP9 DUP8 DUP4 DUP4 LT PUSH2 0x2997 JUMPI POP POP POP LT PUSH2 0x297D JUMPI JUMPDEST POP POP DUP2 DUP6 DUP2 SHL ADD SWAP1 SSTORE PUSH2 0x28B1 JUMP JUMPDEST DUP5 ADD CALLDATALOAD PUSH1 0x0 NOT PUSH1 0x3 DUP9 SWAP1 SHL PUSH1 0xF8 AND SHR NOT AND SWAP1 SSTORE DUP7 DUP1 PUSH2 0x296F JUMP JUMPDEST DUP6 DUP11 ADD CALLDATALOAD DUP8 SSTORE SWAP1 SWAP6 ADD SWAP5 SWAP4 DUP5 ADD SWAP4 DUP11 SWAP4 POP ADD PUSH2 0x295D JUMP JUMPDEST CALLVALUE PUSH2 0x3D6 JUMPI PUSH2 0x29BC CALLDATASIZE PUSH2 0x32A0 JUMP JUMPDEST PUSH2 0x29C4 PUSH2 0x3E6A JUMP JUMPDEST DUP2 PUSH1 0x0 MSTORE PUSH1 0x15 PUSH1 0x20 MSTORE PUSH1 0x40 PUSH1 0x0 KECCAK256 PUSH2 0x29E6 PUSH1 0xFF PUSH1 0xB DUP4 ADD SLOAD PUSH1 0xA8 SHR AND ISZERO PUSH2 0x35B3 JUMP JUMPDEST DUP2 ISZERO DUP1 ISZERO PUSH2 0x2A73 JUMPI JUMPDEST ISZERO PUSH2 0x2A2E JUMPI PUSH1 0x7 ADD SSTORE PUSH1 0x0 DUP1 MLOAD PUSH1 0x20 PUSH2 0x4904 DUP4 CODECOPY DUP2 MLOAD SWAP2 MSTORE PUSH1 0x60 PUSH1 0x40 MLOAD PUSH1 0x20 DUP2 MSTORE PUSH1 0xB PUSH1 0x20 DUP3 ADD MSTORE PUSH11 0x6D617845646974696F6E73 PUSH1 0xA8 SHL PUSH1 0x40 DUP3 ADD MSTORE LOG2 STOP JUMPDEST PUSH1 0x40 MLOAD PUSH3 0x461BCD PUSH1 0xE5 SHL DUP2 MSTORE PUSH1 0x20 PUSH1 0x4 DUP3 ADD MSTORE PUSH1 0x1A PUSH1 0x24 DUP3 ADD MSTORE PUSH32 0x43616E6E6F74207265647563652062656C6F77206D696E746564000000000000 PUSH1 0x44 DUP3 ADD MSTORE PUSH1 0x64 SWAP1 REVERT JUMPDEST POP PUSH1 0x6 DUP2 ADD SLOAD DUP3 LT ISZERO PUSH2 0x29EF JUMP JUMPDEST CALLVALUE PUSH2 0x3D6 JUMPI PUSH1 0x0 CALLDATASIZE PUSH1 0x3 NOT ADD SLT PUSH2 0x3D6 JUMPI PUSH1 0x20 PUSH1 0x11 SLOAD PUSH1 0xA0 SHR PUSH1 0x40 MLOAD SWAP1 DUP2 MSTORE RETURN JUMPDEST CALLVALUE PUSH2 0x3D6 JUMPI PUSH1 0x0 CALLDATASIZE PUSH1 0x3 NOT ADD SLT PUSH2 0x3D6 JUMPI PUSH1 0x20 PUSH1 0xA SLOAD PUSH1 0x40 MLOAD SWAP1 DUP2 MSTORE RETURN JUMPDEST PUSH2 0x2AC9 CALLDATASIZE PUSH2 0x32A0 JUMP JUMPDEST PUSH2 0x2AD1 PUSH2 0x400B JUMP JUMPDEST CALLER PUSH1 0x0 MSTORE PUSH1 0x20 SWAP2 PUSH1 0x13 DUP4 MSTORE PUSH2 0x2AEE PUSH1 0xFF PUSH1 0x40 PUSH1 0x0 KECCAK256 SLOAD AND ISZERO PUSH2 0x3655 JUMP JUMPDEST PUSH2 0x2AF6 PUSH2 0x402C JUMP JUMPDEST DUP1 PUSH1 0x0 MSTORE PUSH1 0x15 DUP4 MSTORE PUSH1 0x0 DUP1 MLOAD PUSH1 0x20 PUSH2 0x4924 DUP4 CODECOPY DUP2 MLOAD SWAP2 MSTORE PUSH1 0x80 PUSH1 0x40 PUSH1 0x0 KECCAK256 PUSH2 0x2B2C PUSH1 0xFF PUSH1 0xB DUP4 ADD SLOAD PUSH2 0x84B DUP3 DUP3 PUSH1 0xA0 SHR AND PUSH2 0x369A JUMP JUMPDEST PUSH2 0x2B43 PUSH1 0x7 DUP3 ADD SLOAD DUP1 ISZERO SWAP1 DUP2 ISZERO PUSH2 0x2C3B JUMPI POP PUSH2 0x371C JUMP JUMPDEST PUSH2 0x2B54 PUSH2 0x165B DUP7 PUSH1 0x8 DUP5 ADD SLOAD PUSH2 0x375F JUMP JUMPDEST PUSH1 0xF SLOAD SWAP5 PUSH2 0x2B61 DUP7 PUSH2 0x37C5 JUMP JUMPDEST PUSH1 0xF SSTORE PUSH1 0x6 DUP3 ADD PUSH2 0x2B72 DUP2 SLOAD PUSH2 0x37C5 JUMP JUMPDEST DUP1 SWAP2 SSTORE PUSH2 0x2BC5 PUSH2 0x1737 PUSH1 0x1 PUSH2 0x2B87 DUP6 CALLVALUE PUSH2 0x37D4 JUMP JUMPDEST SWAP6 PUSH1 0x3 DUP2 ADD PUSH2 0x2B97 CALLVALUE DUP3 SLOAD PUSH2 0x375F JUMP JUMPDEST SWAP1 SSTORE PUSH1 0x4 DUP2 ADD PUSH2 0x2BA8 DUP9 DUP3 SLOAD PUSH2 0x375F JUMP JUMPDEST SWAP1 SSTORE PUSH1 0x5 DUP2 ADD PUSH2 0x2BB9 DUP8 DUP3 SLOAD PUSH2 0x375F JUMP JUMPDEST SWAP1 SSTORE PUSH2 0x8E2 DUP12 CALLER PUSH2 0x404F JUMP JUMPDEST DUP7 PUSH1 0x0 MSTORE PUSH1 0x16 DUP9 MSTORE DUP6 PUSH1 0x40 PUSH1 0x0 KECCAK256 SSTORE PUSH1 0x17 DUP9 MSTORE DUP1 PUSH1 0x40 PUSH1 0x0 KECCAK256 SSTORE DUP6 PUSH1 0x0 MSTORE PUSH1 0x18 DUP9 MSTORE PUSH2 0x2BF5 DUP8 PUSH1 0x40 PUSH1 0x0 KECCAK256 PUSH2 0x381D JUMP JUMPDEST PUSH1 0x40 MLOAD SWAP1 DUP2 MSTORE CALLVALUE DUP9 DUP3 ADD MSTORE DUP7 DUP7 PUSH1 0x0 DUP1 MLOAD PUSH1 0x20 PUSH2 0x48E4 DUP4 CODECOPY DUP2 MLOAD SWAP2 MSTORE PUSH1 0x40 CALLER SWAP5 LOG4 PUSH1 0x40 MLOAD SWAP2 CALLVALUE DUP4 MSTORE DUP8 DUP4 ADD MSTORE PUSH1 0x40 DUP3 ADD MSTORE PUSH1 0x1 PUSH1 0x60 DUP3 ADD MSTORE LOG2 PUSH1 0x1 PUSH1 0xE SSTORE PUSH1 0x40 MLOAD SWAP1 DUP2 MSTORE RETURN JUMPDEST SWAP1 POP PUSH1 0x6 DUP4 ADD SLOAD LT DUP9 PUSH2 0x876 JUMP JUMPDEST CALLVALUE PUSH2 0x3D6 JUMPI PUSH32 0xAC6D62CB5D30A7FFF578060CD3DCF46FF2DF7991A71C2D2AABCA7E558F130F78 PUSH2 0x2C78 CALLDATASIZE PUSH2 0x3419 JUMP JUMPDEST PUSH2 0x2C83 SWAP4 SWAP3 SWAP4 PUSH2 0x3E6A JUMP JUMPDEST PUSH1 0x0 DUP5 DUP2 MSTORE PUSH1 0x4 PUSH1 0x20 MSTORE PUSH1 0x40 SWAP1 KECCAK256 SLOAD PUSH2 0x2CA6 SWAP1 PUSH1 0x1 PUSH1 0x1 PUSH1 0xA0 SHL SUB AND ISZERO ISZERO PUSH2 0x35F1 JUMP JUMPDEST PUSH2 0x2CBA PUSH2 0x2CB4 CALLDATASIZE DUP4 DUP6 PUSH2 0x357C JUMP JUMPDEST DUP6 PUSH2 0x3ED1 JUMP JUMPDEST PUSH2 0x1907 PUSH1 0x40 MLOAD SWAP3 DUP4 SWAP3 PUSH1 0x20 DUP5 MSTORE PUSH1 0x20 DUP5 ADD SWAP2 PUSH2 0x3634 JUMP JUMPDEST CALLVALUE PUSH2 0x3D6 JUMPI PUSH1 0x20 CALLDATASIZE PUSH1 0x3 NOT ADD SLT PUSH2 0x3D6 JUMPI PUSH1 0x4 CALLDATALOAD PUSH1 0x0 MSTORE PUSH1 0x15 PUSH1 0x20 MSTORE PUSH1 0x40 PUSH1 0x0 KECCAK256 PUSH2 0x2CFB DUP2 PUSH2 0x3347 JUMP JUMPDEST PUSH2 0x2D07 PUSH1 0x1 DUP4 ADD PUSH2 0x3347 JUMP JUMPDEST SWAP2 PUSH1 0x2 DUP2 ADD SLOAD SWAP1 PUSH1 0x3 DUP2 ADD SLOAD SWAP1 PUSH1 0x4 DUP2 ADD SLOAD SWAP1 PUSH1 0x5 DUP2 ADD SLOAD PUSH1 0x6 DUP3 ADD SLOAD PUSH1 0x7 DUP4 ADD SLOAD PUSH1 0x8 DUP5 ADD SLOAD SWAP2 PUSH1 0x9 DUP6 ADD SLOAD SWAP4 PUSH1 0x1 PUSH1 0xA0 SHL PUSH1 0x1 SWAP1 SUB SWAP7 DUP8 PUSH1 0xA DUP9 ADD SLOAD AND SWAP7 PUSH1 0xB ADD SLOAD SWAP9 PUSH1 0x40 MLOAD SWAP13 DUP14 SWAP13 DUP14 PUSH2 0x1E0 SWAP1 DUP2 DUP2 MSTORE ADD PUSH2 0x2D64 SWAP2 PUSH2 0x3260 JUMP JUMPDEST DUP14 DUP2 SUB PUSH1 0x20 DUP16 ADD MSTORE PUSH2 0x2D75 SWAP2 PUSH2 0x3260 JUMP JUMPDEST SWAP11 PUSH1 0x40 DUP14 ADD MSTORE PUSH1 0x60 DUP13 ADD MSTORE PUSH1 0x80 DUP12 ADD MSTORE PUSH1 0xA0 DUP11 ADD MSTORE PUSH1 0xC0 DUP10 ADD MSTORE PUSH1 0xE0 DUP9 ADD MSTORE PUSH2 0x100 DUP8 ADD MSTORE PUSH2 0x120 DUP7 ADD MSTORE PUSH2 0x140 DUP6 ADD MSTORE DUP2 AND PUSH2 0x160 DUP5 ADD MSTORE DUP1 PUSH1 0xA0 SHR PUSH1 0xFF AND ISZERO ISZERO PUSH2 0x180 DUP5 ADD MSTORE DUP1 PUSH1 0xA8 SHR PUSH1 0xFF AND ISZERO ISZERO PUSH2 0x1A0 DUP5 ADD MSTORE PUSH1 0xB0 SHR PUSH1 0xFF AND ISZERO ISZERO PUSH2 0x1C0 DUP4 ADD MSTORE SUB SWAP1 RETURN JUMPDEST CALLVALUE PUSH2 0x3D6 JUMPI PUSH2 0x2DEC CALLDATASIZE PUSH2 0x32A0 JUMP JUMPDEST PUSH2 0x2DF4 PUSH2 0x3E6A JUMP JUMPDEST DUP2 PUSH1 0x0 MSTORE PUSH1 0x15 PUSH1 0x20 MSTORE PUSH1 0x40 PUSH1 0x0 KECCAK256 PUSH2 0x2E16 PUSH1 0xFF PUSH1 0xB DUP4 ADD SLOAD PUSH1 0xA8 SHR AND ISZERO PUSH2 0x35B3 JUMP JUMPDEST PUSH2 0x2710 DUP3 GT PUSH2 0x2E5E JUMPI PUSH1 0x9 ADD SSTORE PUSH1 0x0 DUP1 MLOAD PUSH1 0x20 PUSH2 0x4904 DUP4 CODECOPY DUP2 MLOAD SWAP2 MSTORE PUSH1 0x60 PUSH1 0x40 MLOAD PUSH1 0x20 DUP2 MSTORE PUSH1 0x10 PUSH1 0x20 DUP3 ADD MSTORE PUSH16 0x6E6F6E70726F66697446656552617465 PUSH1 0x80 SHL PUSH1 0x40 DUP3 ADD MSTORE LOG2 STOP JUMPDEST PUSH1 0x40 MLOAD PUSH3 0x461BCD PUSH1 0xE5 SHL DUP2 MSTORE PUSH1 0x20 PUSH1 0x4 DUP3 ADD MSTORE PUSH1 0x1B PUSH1 0x24 DUP3 ADD MSTORE PUSH32 0x46656520726174652063616E6E6F742065786365656420313030250000000000 PUSH1 0x44 DUP3 ADD MSTORE PUSH1 0x64 SWAP1 REVERT JUMPDEST CALLVALUE PUSH2 0x3D6 JUMPI PUSH1 0x40 CALLDATASIZE PUSH1 0x3 NOT ADD SLT PUSH2 0x3D6 JUMPI PUSH2 0x2EBC PUSH2 0x3234 JUMP JUMPDEST PUSH1 0x24 CALLDATALOAD PUSH2 0x2EC8 DUP2 PUSH2 0x3E96 JUMP JUMPDEST CALLER ISZERO ISZERO DUP1 PUSH2 0x2F77 JUMPI JUMPDEST DUP1 PUSH2 0x2F4A JUMPI JUMPDEST PUSH2 0x2F32 JUMPI PUSH1 0x1 PUSH1 0x1 PUSH1 0xA0 SHL SUB SWAP3 DUP4 AND SWAP3 DUP3 SWAP2 DUP5 SWAP2 AND PUSH32 0x8C5BE1E5EBEC7D5BD14F71427D1E84F3DD0314C0F7B2291E5B200AC8C7C3B925 PUSH1 0x0 DUP1 LOG4 PUSH1 0x0 SWAP1 DUP2 MSTORE PUSH1 0x6 PUSH1 0x20 MSTORE PUSH1 0x40 SWAP1 KECCAK256 DUP1 SLOAD PUSH1 0x1 PUSH1 0x1 PUSH1 0xA0 SHL SUB NOT AND SWAP1 SWAP2 OR SWAP1 SSTORE STOP JUMPDEST PUSH1 0x40 MLOAD PUSH4 0xA9FBF51F PUSH1 0xE0 SHL DUP2 MSTORE CALLER PUSH1 0x4 DUP3 ADD MSTORE PUSH1 0x24 SWAP1 REVERT JUMPDEST POP PUSH1 0x1 DUP1 PUSH1 0xA0 SHL SUB DUP2 AND PUSH1 0x0 MSTORE PUSH1 0x7 PUSH1 0x20 MSTORE PUSH1 0x40 PUSH1 0x0 KECCAK256 CALLER PUSH1 0x0 MSTORE PUSH1 0x20 MSTORE PUSH1 0xFF PUSH1 0x40 PUSH1 0x0 KECCAK256 SLOAD AND ISZERO PUSH2 0x2ED7 JUMP JUMPDEST POP PUSH1 0x1 PUSH1 0x1 PUSH1 0xA0 SHL SUB DUP2 AND CALLER EQ ISZERO PUSH2 0x2ED1 JUMP JUMPDEST CALLVALUE PUSH2 0x3D6 JUMPI PUSH1 0x20 CALLDATASIZE PUSH1 0x3 NOT ADD SLT PUSH2 0x3D6 JUMPI PUSH1 0x4 CALLDATALOAD PUSH2 0x2FA7 DUP2 PUSH2 0x3E96 JUMP JUMPDEST POP PUSH1 0x0 MSTORE PUSH1 0x6 PUSH1 0x20 MSTORE PUSH1 0x20 PUSH1 0x1 DUP1 PUSH1 0xA0 SHL SUB PUSH1 0x40 PUSH1 0x0 KECCAK256 SLOAD AND PUSH1 0x40 MLOAD SWAP1 DUP2 MSTORE RETURN JUMPDEST CALLVALUE PUSH2 0x3D6 JUMPI PUSH1 0x0 CALLDATASIZE PUSH1 0x3 NOT ADD SLT PUSH2 0x3D6 JUMPI PUSH1 0x40 MLOAD PUSH1 0x2 SLOAD PUSH1 0x0 DUP3 PUSH2 0x2FEB DUP4 PUSH2 0x32B6 JUMP JUMPDEST SWAP2 DUP3 DUP3 MSTORE PUSH1 0x20 SWAP4 PUSH1 0x1 SWAP1 DUP6 PUSH1 0x1 DUP3 AND SWAP2 DUP3 PUSH1 0x0 EQ PUSH2 0x1498 JUMPI POP POP PUSH1 0x1 EQ PUSH2 0x3019 JUMPI POP PUSH2 0x1427 SWAP3 POP SUB DUP4 PUSH2 0x3326 JUMP JUMPDEST DUP5 SWAP2 POP PUSH1 0x2 PUSH1 0x0 MSTORE PUSH32 0x405787FA12A823E0F2B7631CC41B3BA8828B3321CA811111FA75CD3AA3BB5ACE SWAP1 PUSH1 0x0 SWAP2 JUMPDEST DUP6 DUP4 LT PUSH2 0x305E JUMPI POP POP PUSH2 0x1427 SWAP4 POP DUP3 ADD ADD DUP6 PUSH2 0x141A JUMP JUMPDEST DUP1 SLOAD DUP4 DUP10 ADD DUP6 ADD MSTORE DUP8 SWAP5 POP DUP7 SWAP4 SWAP1 SWAP3 ADD SWAP2 DUP2 ADD PUSH2 0x3047 JUMP JUMPDEST CALLVALUE PUSH2 0x3D6 JUMPI PUSH1 0x40 CALLDATASIZE PUSH1 0x3 NOT ADD SLT PUSH2 0x3D6 JUMPI PUSH2 0x308F PUSH2 0x3234 JUMP JUMPDEST PUSH1 0x24 CALLDATALOAD PUSH1 0x1 PUSH1 0x1 PUSH1 0x60 SHL SUB DUP2 AND DUP1 DUP3 SUB PUSH2 0x3D6 JUMPI PUSH2 0x30AB PUSH2 0x3E6A JUMP JUMPDEST PUSH2 0x2710 DUP1 DUP3 GT PUSH2 0x313F JUMPI POP PUSH1 0x1 PUSH1 0x1 PUSH1 0xA0 SHL SUB SWAP3 DUP4 AND DUP1 ISZERO PUSH2 0x3126 JUMPI PUSH32 0x35804D3532228D15C4FE3FA7A4FB8100C86DC285216E9C806F5D6F2CEF552839 SWAP4 PUSH1 0x20 SWAP4 DUP4 DUP6 PUSH1 0x40 MLOAD PUSH2 0x30FA DUP2 PUSH2 0x32F0 JUMP JUMPDEST DUP6 DUP2 MSTORE ADD MSTORE PUSH1 0x1 PUSH1 0x1 PUSH1 0x60 SHL SUB PUSH1 0xA0 SHL SWAP1 PUSH1 0xA0 SHL AND DUP1 SWAP3 OR PUSH1 0x0 SSTORE PUSH1 0x11 SLOAD AND OR PUSH1 0x11 SSTORE PUSH1 0x40 MLOAD SWAP1 DUP2 MSTORE LOG1 STOP JUMPDEST PUSH1 0x40 MLOAD PUSH4 0x5B6CC805 PUSH1 0xE1 SHL DUP2 MSTORE PUSH1 0x0 PUSH1 0x4 DUP3 ADD MSTORE PUSH1 0x24 SWAP1 REVERT JUMPDEST PUSH1 0x44 SWAP3 POP PUSH1 0x40 MLOAD SWAP2 PUSH4 0x6F483D09 PUSH1 0xE0 SHL DUP4 MSTORE PUSH1 0x4 DUP4 ADD MSTORE PUSH1 0x24 DUP3 ADD MSTORE REVERT JUMPDEST CALLVALUE PUSH2 0x3D6 JUMPI PUSH1 0x0 CALLDATASIZE PUSH1 0x3 NOT ADD SLT PUSH2 0x3D6 JUMPI PUSH1 0x20 PUSH1 0x10 SLOAD PUSH1 0x40 MLOAD SWAP1 DUP2 MSTORE RETURN JUMPDEST CALLVALUE PUSH2 0x3D6 JUMPI PUSH1 0x20 CALLDATASIZE PUSH1 0x3 NOT ADD SLT PUSH2 0x3D6 JUMPI PUSH1 0x4 CALLDATALOAD SWAP1 PUSH4 0xFFFFFFFF PUSH1 0xE0 SHL DUP3 AND DUP1 SWAP3 SUB PUSH2 0x3D6 JUMPI PUSH1 0x20 SWAP2 PUSH4 0x24832483 PUSH1 0xE1 SHL DUP2 EQ SWAP1 DUP2 ISZERO PUSH2 0x31BD JUMPI JUMPDEST POP ISZERO ISZERO DUP2 MSTORE RETURN JUMPDEST PUSH4 0x780E9D63 PUSH1 0xE0 SHL DUP2 EQ SWAP2 POP DUP2 ISZERO PUSH2 0x31D7 JUMPI JUMPDEST POP DUP4 PUSH2 0x31B6 JUMP JUMPDEST PUSH4 0x80AC58CD PUSH1 0xE0 SHL DUP2 EQ SWAP2 POP DUP2 ISZERO PUSH2 0x3223 JUMPI JUMPDEST DUP2 ISZERO PUSH2 0x31F8 JUMPI JUMPDEST POP DUP4 PUSH2 0x31D0 JUMP JUMPDEST PUSH4 0x152A902D PUSH1 0xE1 SHL DUP2 EQ SWAP2 POP DUP2 ISZERO PUSH2 0x3212 JUMPI JUMPDEST POP DUP4 PUSH2 0x31F1 JUMP JUMPDEST PUSH4 0x1FFC9A7 PUSH1 0xE0 SHL EQ SWAP1 POP DUP4 PUSH2 0x320B JUMP JUMPDEST PUSH4 0x5B5E139F PUSH1 0xE0 SHL DUP2 EQ SWAP2 POP PUSH2 0x31EA JUMP JUMPDEST PUSH1 0x4 CALLDATALOAD SWAP1 PUSH1 0x1 PUSH1 0x1 PUSH1 0xA0 SHL SUB DUP3 AND DUP3 SUB PUSH2 0x3D6 JUMPI JUMP JUMPDEST PUSH1 0x24 CALLDATALOAD SWAP1 PUSH1 0x1 PUSH1 0x1 PUSH1 0xA0 SHL SUB DUP3 AND DUP3 SUB PUSH2 0x3D6 JUMPI JUMP JUMPDEST SWAP2 SWAP1 DUP3 MLOAD SWAP3 DUP4 DUP3 MSTORE PUSH1 0x0 JUMPDEST DUP5 DUP2 LT PUSH2 0x328C JUMPI POP POP DUP3 PUSH1 0x0 PUSH1 0x20 DUP1 SWAP5 SWAP6 DUP5 ADD ADD MSTORE PUSH1 0x1F DUP1 NOT SWAP2 ADD AND ADD ADD SWAP1 JUMP JUMPDEST PUSH1 0x20 DUP2 DUP4 ADD DUP2 ADD MLOAD DUP5 DUP4 ADD DUP3 ADD MSTORE ADD PUSH2 0x326B JUMP JUMPDEST PUSH1 0x40 SWAP1 PUSH1 0x3 NOT ADD SLT PUSH2 0x3D6 JUMPI PUSH1 0x4 CALLDATALOAD SWAP1 PUSH1 0x24 CALLDATALOAD SWAP1 JUMP JUMPDEST SWAP1 PUSH1 0x1 DUP3 DUP2 SHR SWAP3 AND DUP1 ISZERO PUSH2 0x32E6 JUMPI JUMPDEST PUSH1 0x20 DUP4 LT EQ PUSH2 0x32D0 JUMPI JUMP JUMPDEST PUSH4 0x4E487B71 PUSH1 0xE0 SHL PUSH1 0x0 MSTORE PUSH1 0x22 PUSH1 0x4 MSTORE PUSH1 0x24 PUSH1 0x0 REVERT JUMPDEST SWAP2 PUSH1 0x7F AND SWAP2 PUSH2 0x32C5 JUMP JUMPDEST PUSH1 0x40 DUP2 ADD SWAP1 DUP2 LT PUSH1 0x1 PUSH1 0x1 PUSH1 0x40 SHL SUB DUP3 GT OR PUSH2 0xD57 JUMPI PUSH1 0x40 MSTORE JUMP JUMPDEST PUSH1 0x20 DUP2 ADD SWAP1 DUP2 LT PUSH1 0x1 PUSH1 0x1 PUSH1 0x40 SHL SUB DUP3 GT OR PUSH2 0xD57 JUMPI PUSH1 0x40 MSTORE JUMP JUMPDEST SWAP1 PUSH1 0x1F DUP1 NOT SWAP2 ADD AND DUP2 ADD SWAP1 DUP2 LT PUSH1 0x1 PUSH1 0x1 PUSH1 0x40 SHL SUB DUP3 GT OR PUSH2 0xD57 JUMPI PUSH1 0x40 MSTORE JUMP JUMPDEST SWAP1 PUSH1 0x40 MLOAD SWAP2 DUP3 PUSH1 0x0 DUP3 SLOAD PUSH2 0x335A DUP2 PUSH2 0x32B6 JUMP JUMPDEST SWAP1 DUP2 DUP5 MSTORE PUSH1 0x20 SWAP5 PUSH1 0x1 SWAP2 PUSH1 0x1 DUP2 AND SWAP1 DUP2 PUSH1 0x0 EQ PUSH2 0x33CA JUMPI POP PUSH1 0x1 EQ PUSH2 0x338B JUMPI JUMPDEST POP POP POP PUSH2 0x3389 SWAP3 POP SUB DUP4 PUSH2 0x3326 JUMP JUMPDEST JUMP JUMPDEST PUSH1 0x0 SWAP1 DUP2 MSTORE DUP6 DUP2 KECCAK256 SWAP6 SWAP4 POP SWAP2 SWAP1 JUMPDEST DUP2 DUP4 LT PUSH2 0x33B2 JUMPI POP POP PUSH2 0x3389 SWAP4 POP DUP3 ADD ADD CODESIZE DUP1 DUP1 PUSH2 0x337A JUMP JUMPDEST DUP6 SLOAD DUP9 DUP5 ADD DUP6 ADD MSTORE SWAP5 DUP6 ADD SWAP5 DUP8 SWAP5 POP SWAP2 DUP4 ADD SWAP2 PUSH2 0x3399 JUMP JUMPDEST SWAP3 POP POP POP PUSH2 0x3389 SWAP5 SWAP3 POP PUSH1 0xFF NOT AND DUP3 DUP5 ADD MSTORE ISZERO ISZERO PUSH1 0x5 SHL DUP3 ADD ADD CODESIZE DUP1 DUP1 PUSH2 0x337A JUMP JUMPDEST SWAP2 DUP2 PUSH1 0x1F DUP5 ADD SLT ISZERO PUSH2 0x3D6 JUMPI DUP3 CALLDATALOAD SWAP2 PUSH1 0x1 PUSH1 0x1 PUSH1 0x40 SHL SUB DUP4 GT PUSH2 0x3D6 JUMPI PUSH1 0x20 DUP4 DUP2 DUP7 ADD SWAP6 ADD ADD GT PUSH2 0x3D6 JUMPI JUMP JUMPDEST SWAP1 PUSH1 0x40 PUSH1 0x3 NOT DUP4 ADD SLT PUSH2 0x3D6 JUMPI PUSH1 0x4 CALLDATALOAD SWAP2 PUSH1 0x24 CALLDATALOAD SWAP1 PUSH1 0x1 PUSH1 0x1 PUSH1 0x40 SHL SUB DUP3 GT PUSH2 0x3D6 JUMPI PUSH2 0x3448 SWAP2 PUSH1 0x4 ADD PUSH2 0x33EC JUMP JUMPDEST SWAP1 SWAP2 JUMP JUMPDEST SWAP2 DUP2 PUSH1 0x1F DUP5 ADD SLT ISZERO PUSH2 0x3D6 JUMPI DUP3 CALLDATALOAD SWAP2 PUSH1 0x1 PUSH1 0x1 PUSH1 0x40 SHL SUB DUP4 GT PUSH2 0x3D6 JUMPI PUSH1 0x20 DUP1 DUP6 ADD SWAP5 DUP5 PUSH1 0x5 SHL ADD ADD GT PUSH2 0x3D6 JUMPI JUMP JUMPDEST PUSH1 0x60 SWAP1 PUSH1 0x3 NOT ADD SLT PUSH2 0x3D6 JUMPI PUSH1 0x1 PUSH1 0x1 PUSH1 0xA0 SHL SUB SWAP1 PUSH1 0x4 CALLDATALOAD DUP3 DUP2 AND DUP2 SUB PUSH2 0x3D6 JUMPI SWAP2 PUSH1 0x24 CALLDATALOAD SWAP1 DUP2 AND DUP2 SUB PUSH2 0x3D6 JUMPI SWAP1 PUSH1 0x44 CALLDATALOAD SWAP1 JUMP JUMPDEST PUSH1 0x24 CALLDATALOAD SWAP1 DUP2 ISZERO ISZERO DUP3 SUB PUSH2 0x3D6 JUMPI JUMP JUMPDEST PUSH1 0x20 SWAP1 PUSH1 0x20 PUSH1 0x40 DUP2 DUP4 ADD SWAP3 DUP3 DUP2 MSTORE DUP6 MLOAD DUP1 SWAP5 MSTORE ADD SWAP4 ADD SWAP2 PUSH1 0x0 JUMPDEST DUP3 DUP2 LT PUSH2 0x34E8 JUMPI POP POP POP POP SWAP1 JUMP JUMPDEST DUP4 MLOAD DUP6 MSTORE SWAP4 DUP2 ADD SWAP4 SWAP3 DUP2 ADD SWAP3 PUSH1 0x1 ADD PUSH2 0x34DA JUMP JUMPDEST PUSH1 0xA SLOAD DUP2 LT ISZERO PUSH2 0x3533 JUMPI PUSH1 0xA PUSH1 0x0 MSTORE PUSH32 0xC65A7BB8D6351C1CF70C95A316CC6A92839C986682D98BC35F958F4883F9D2A8 ADD SWAP1 PUSH1 0x0 SWAP1 JUMP JUMPDEST PUSH4 0x4E487B71 PUSH1 0xE0 SHL PUSH1 0x0 MSTORE PUSH1 0x32 PUSH1 0x4 MSTORE PUSH1 0x24 PUSH1 0x0 REVERT JUMPDEST DUP1 SLOAD DUP3 LT ISZERO PUSH2 0x3533 JUMPI PUSH1 0x0 MSTORE PUSH1 0x20 PUSH1 0x0 KECCAK256 ADD SWAP1 PUSH1 0x0 SWAP1 JUMP JUMPDEST PUSH1 0x1 PUSH1 0x1 PUSH1 0x40 SHL SUB DUP2 GT PUSH2 0xD57 JUMPI PUSH1 0x1F ADD PUSH1 0x1F NOT AND PUSH1 0x20 ADD SWAP1 JUMP JUMPDEST SWAP3 SWAP2 SWAP3 PUSH2 0x3588 DUP3 PUSH2 0x3561 JUMP JUMPDEST SWAP2 PUSH2 0x3596 PUSH1 0x40 MLOAD SWAP4 DUP5 PUSH2 0x3326 JUMP JUMPDEST DUP3 SWAP5 DUP2 DUP5 MSTORE DUP2 DUP4 ADD GT PUSH2 0x3D6 JUMPI DUP3 DUP2 PUSH1 0x20 SWAP4 DUP5 PUSH1 0x0 SWAP7 ADD CALLDATACOPY ADD ADD MSTORE JUMP JUMPDEST ISZERO PUSH2 0x35BA JUMPI JUMP JUMPDEST PUSH1 0x40 MLOAD PUSH3 0x461BCD PUSH1 0xE5 SHL DUP2 MSTORE PUSH1 0x20 PUSH1 0x4 DUP3 ADD MSTORE PUSH1 0xF PUSH1 0x24 DUP3 ADD MSTORE PUSH15 0x10D85B5C185A59DB8818DB1BDCD959 PUSH1 0x8A SHL PUSH1 0x44 DUP3 ADD MSTORE PUSH1 0x64 SWAP1 REVERT JUMPDEST ISZERO PUSH2 0x35F8 JUMPI JUMP JUMPDEST PUSH1 0x40 MLOAD PUSH3 0x461BCD PUSH1 0xE5 SHL DUP2 MSTORE PUSH1 0x20 PUSH1 0x4 DUP3 ADD MSTORE PUSH1 0x14 PUSH1 0x24 DUP3 ADD MSTORE PUSH20 0x151BDAD95B88191BD95CC81B9BDD08195E1A5CDD PUSH1 0x62 SHL PUSH1 0x44 DUP3 ADD MSTORE PUSH1 0x64 SWAP1 REVERT JUMPDEST SWAP1 DUP1 PUSH1 0x20 SWAP4 SWAP3 DUP2 DUP5 MSTORE DUP5 DUP5 ADD CALLDATACOPY PUSH1 0x0 DUP3 DUP3 ADD DUP5 ADD MSTORE PUSH1 0x1F ADD PUSH1 0x1F NOT AND ADD ADD SWAP1 JUMP JUMPDEST ISZERO PUSH2 0x365C JUMPI JUMP JUMPDEST PUSH1 0x40 MLOAD PUSH3 0x461BCD PUSH1 0xE5 SHL DUP2 MSTORE PUSH1 0x20 PUSH1 0x4 DUP3 ADD MSTORE PUSH1 0x16 PUSH1 0x24 DUP3 ADD MSTORE PUSH22 0x1059191C995CDCC81A5CC8189B1858DADB1A5CDD1959 PUSH1 0x52 SHL PUSH1 0x44 DUP3 ADD MSTORE PUSH1 0x64 SWAP1 REVERT JUMPDEST ISZERO PUSH2 0x36A1 JUMPI JUMP JUMPDEST PUSH1 0x40 MLOAD PUSH3 0x461BCD PUSH1 0xE5 SHL DUP2 MSTORE PUSH1 0x20 PUSH1 0x4 DUP3 ADD MSTORE PUSH1 0x13 PUSH1 0x24 DUP3 ADD MSTORE PUSH19 0x43616D706169676E206E6F7420616374697665 PUSH1 0x68 SHL PUSH1 0x44 DUP3 ADD MSTORE PUSH1 0x64 SWAP1 REVERT JUMPDEST ISZERO PUSH2 0x36E3 JUMPI JUMP JUMPDEST PUSH1 0x40 MLOAD PUSH3 0x461BCD PUSH1 0xE5 SHL DUP2 MSTORE PUSH1 0x20 PUSH1 0x4 DUP3 ADD MSTORE PUSH1 0x11 PUSH1 0x24 DUP3 ADD MSTORE PUSH17 0x10D85B5C185A59DB881C99599D5B991959 PUSH1 0x7A SHL PUSH1 0x44 DUP3 ADD MSTORE PUSH1 0x64 SWAP1 REVERT JUMPDEST ISZERO PUSH2 0x3723 JUMPI JUMP JUMPDEST PUSH1 0x40 MLOAD PUSH3 0x461BCD PUSH1 0xE5 SHL DUP2 MSTORE PUSH1 0x20 PUSH1 0x4 DUP3 ADD MSTORE PUSH1 0x14 PUSH1 0x24 DUP3 ADD MSTORE PUSH20 0x13585E0819591A5D1A5BDB9CC81C995858DA1959 PUSH1 0x62 SHL PUSH1 0x44 DUP3 ADD MSTORE PUSH1 0x64 SWAP1 REVERT JUMPDEST SWAP2 SWAP1 DUP3 ADD DUP1 SWAP3 GT PUSH2 0x376C JUMPI JUMP JUMPDEST PUSH4 0x4E487B71 PUSH1 0xE0 SHL PUSH1 0x0 MSTORE PUSH1 0x11 PUSH1 0x4 MSTORE PUSH1 0x24 PUSH1 0x0 REVERT JUMPDEST ISZERO PUSH2 0x3789 JUMPI JUMP JUMPDEST PUSH1 0x40 MLOAD PUSH3 0x461BCD PUSH1 0xE5 SHL DUP2 MSTORE PUSH1 0x20 PUSH1 0x4 DUP3 ADD MSTORE PUSH1 0x14 PUSH1 0x24 DUP3 ADD MSTORE PUSH20 0x125B9CDD59999A58DA595B9D081C185E5B595B9D PUSH1 0x62 SHL PUSH1 0x44 DUP3 ADD MSTORE PUSH1 0x64 SWAP1 REVERT JUMPDEST PUSH1 0x0 NOT DUP2 EQ PUSH2 0x376C JUMPI PUSH1 0x1 ADD SWAP1 JUMP JUMPDEST SWAP2 SWAP1 DUP3 SUB SWAP2 DUP3 GT PUSH2 0x376C JUMPI JUMP JUMPDEST PUSH1 0xA SLOAD SWAP1 PUSH1 0x1 PUSH1 0x40 SHL DUP3 LT ISZERO PUSH2 0xD57 JUMPI PUSH2 0x3804 DUP3 PUSH1 0x1 PUSH2 0x3389 SWAP5 ADD PUSH1 0xA SSTORE PUSH2 0x34FC JUMP JUMPDEST SWAP1 SWAP2 SWAP1 DUP3 SLOAD SWAP1 PUSH1 0x3 SHL SWAP2 DUP3 SHL SWAP2 PUSH1 0x0 NOT SWAP1 SHL NOT AND OR SWAP1 SSTORE JUMP JUMPDEST SWAP1 DUP2 SLOAD SWAP2 PUSH1 0x1 PUSH1 0x40 SHL DUP4 LT ISZERO PUSH2 0xD57 JUMPI DUP3 PUSH2 0x3804 SWAP2 PUSH1 0x1 PUSH2 0x3389 SWAP6 ADD DUP2 SSTORE PUSH2 0x3549 JUMP JUMPDEST SWAP1 PUSH1 0x1F DUP2 GT PUSH2 0x384E JUMPI POP POP POP JUMP JUMPDEST PUSH1 0x0 SWAP2 PUSH1 0x0 MSTORE PUSH1 0x20 PUSH1 0x0 KECCAK256 SWAP1 PUSH1 0x20 PUSH1 0x1F DUP6 ADD PUSH1 0x5 SHR DUP4 ADD SWAP5 LT PUSH2 0x388C JUMPI JUMPDEST PUSH1 0x1F ADD PUSH1 0x5 SHR ADD SWAP2 JUMPDEST DUP3 DUP2 LT PUSH2 0x3881 JUMPI POP POP POP JUMP JUMPDEST DUP2 DUP2 SSTORE PUSH1 0x1 ADD PUSH2 0x3875 JUMP JUMPDEST SWAP1 SWAP3 POP DUP3 SWAP1 PUSH2 0x386C JUMP JUMPDEST SWAP2 SWAP1 DUP2 LT ISZERO PUSH2 0x3533 JUMPI PUSH1 0x5 SHL ADD SWAP1 JUMP JUMPDEST PUSH1 0x1 PUSH1 0x1 PUSH1 0xA0 SHL SUB DUP3 DUP2 AND SWAP4 SWAP2 SWAP1 DUP5 ISZERO PUSH2 0x3C41 JUMPI PUSH1 0x0 SWAP2 DUP4 DUP4 MSTORE PUSH1 0x4 SWAP6 PUSH1 0x20 SWAP4 DUP8 DUP6 MSTORE PUSH1 0x40 SWAP5 DUP5 DUP7 DUP4 KECCAK256 SLOAD AND DUP1 ISZERO ISZERO DUP1 PUSH2 0x3C39 JUMPI JUMPDEST PUSH2 0x3B3B JUMPI JUMPDEST POP DUP7 DUP3 MSTORE DUP9 DUP2 MSTORE DUP5 DUP7 DUP4 KECCAK256 SLOAD AND SWAP8 CALLER ISZERO ISZERO DUP1 PUSH2 0x3AA9 JUMPI JUMPDEST POP DUP9 ISZERO DUP1 ISZERO PUSH2 0x3A76 JUMPI JUMPDEST DUP5 DUP5 MSTORE PUSH1 0x5 DUP4 MSTORE DUP8 DUP5 KECCAK256 DUP1 SLOAD PUSH1 0x1 ADD SWAP1 SSTORE DUP9 DUP5 MSTORE DUP11 DUP4 MSTORE DUP8 DUP5 KECCAK256 DUP1 SLOAD PUSH1 0x1 PUSH1 0x1 PUSH1 0xA0 SHL SUB NOT AND DUP7 OR SWAP1 SSTORE DUP9 DUP6 DUP12 PUSH32 0xDDF252AD1BE2C89B69C2B068FC378DAA952BA7F163C4A11628F55A4DF523B3EF DUP8 DUP1 LOG4 ISZERO PUSH2 0x39FA JUMPI PUSH1 0xA SLOAD DUP9 DUP5 MSTORE PUSH1 0xB DUP4 MSTORE DUP8 DUP5 KECCAK256 SSTORE PUSH2 0x396E DUP9 PUSH2 0x37E1 JUMP JUMPDEST DUP4 DUP10 SUB PUSH2 0x39A9 JUMPI JUMPDEST POP POP POP POP AND SWAP1 DUP2 DUP5 SUB PUSH2 0x398A JUMPI POP POP POP POP POP JUMP JUMPDEST MLOAD PUSH4 0x64283D7B PUSH1 0xE0 SHL DUP2 MSTORE SWAP4 DUP5 ADD MSTORE PUSH1 0x24 DUP4 ADD MSTORE PUSH1 0x44 DUP3 ADD MSTORE PUSH1 0x64 SWAP2 POP REVERT JUMPDEST PUSH2 0x39B2 SWAP1 PUSH2 0x3DB7 JUMP JUMPDEST PUSH1 0x0 NOT DUP2 ADD SWAP4 SWAP1 DUP5 GT PUSH2 0x39E7 JUMPI DUP3 SWAP2 PUSH1 0x9 SWAP2 DUP9 SWAP5 MSTORE PUSH1 0x8 DUP2 MSTORE DUP4 DUP4 KECCAK256 DUP6 DUP5 MSTORE DUP2 MSTORE DUP9 DUP5 DUP5 KECCAK256 SSTORE DUP9 DUP4 MSTORE MSTORE KECCAK256 SSTORE CODESIZE DUP1 DUP1 DUP1 PUSH2 0x3976 JUMP JUMPDEST PUSH4 0x4E487B71 PUSH1 0xE0 SHL DUP4 MSTORE PUSH1 0x11 DUP11 MSTORE PUSH1 0x24 DUP4 REVERT JUMPDEST DUP9 DUP5 EQ PUSH2 0x396E JUMPI PUSH2 0x3A0A DUP10 PUSH2 0x3DB7 JUMP JUMPDEST DUP9 DUP5 MSTORE PUSH1 0x9 DUP4 MSTORE DUP8 DUP5 KECCAK256 SLOAD DUP2 DUP2 SUB PUSH2 0x3A3F JUMPI JUMPDEST POP DUP9 DUP5 MSTORE DUP4 DUP9 DUP2 KECCAK256 SSTORE DUP10 DUP5 MSTORE PUSH1 0x8 DUP4 MSTORE DUP8 DUP5 KECCAK256 SWAP1 DUP5 MSTORE DUP3 MSTORE DUP3 DUP8 DUP2 KECCAK256 SSTORE PUSH2 0x396E JUMP JUMPDEST DUP11 DUP6 MSTORE PUSH1 0x8 DUP5 MSTORE DUP9 DUP6 KECCAK256 DUP3 DUP7 MSTORE DUP5 MSTORE DUP9 DUP6 KECCAK256 SLOAD DUP12 DUP7 MSTORE PUSH1 0x8 DUP6 MSTORE DUP10 DUP7 KECCAK256 DUP3 DUP8 MSTORE DUP6 MSTORE DUP1 DUP11 DUP8 KECCAK256 SSTORE DUP6 MSTORE PUSH1 0x9 DUP5 MSTORE DUP9 DUP6 KECCAK256 SSTORE CODESIZE PUSH2 0x3A1D JUMP JUMPDEST PUSH1 0x0 DUP10 DUP2 MSTORE PUSH1 0x6 PUSH1 0x20 MSTORE PUSH1 0x40 SWAP1 KECCAK256 DUP1 SLOAD PUSH1 0x1 PUSH1 0x1 PUSH1 0xA0 SHL SUB NOT AND SWAP1 SSTORE DUP10 DUP5 MSTORE PUSH1 0x5 DUP4 MSTORE DUP8 DUP5 KECCAK256 DUP1 SLOAD PUSH1 0x0 NOT ADD SWAP1 SSTORE PUSH2 0x3901 JUMP JUMPDEST DUP1 PUSH2 0x3AFA JUMPI JUMPDEST ISZERO PUSH2 0x3ABA JUMPI CODESIZE PUSH2 0x38F7 JUMP JUMPDEST DUP8 DUP11 DUP9 DUP12 PUSH2 0x3AD7 JUMPI SWAP2 PUSH1 0x24 SWAP3 MLOAD SWAP2 PUSH4 0x7E273289 PUSH1 0xE0 SHL DUP4 MSTORE DUP3 ADD MSTORE REVERT JUMPDEST MLOAD PUSH4 0x177E802F PUSH1 0xE0 SHL DUP2 MSTORE CALLER SWAP2 DUP2 ADD SWAP2 DUP3 MSTORE PUSH1 0x20 DUP3 ADD SWAP3 SWAP1 SWAP3 MSTORE DUP2 SWAP1 PUSH1 0x40 ADD SUB SWAP1 REVERT JUMPDEST POP CALLER DUP10 EQ DUP1 ISZERO PUSH2 0x3B1F JUMPI JUMPDEST DUP1 PUSH2 0x3AAF JUMPI POP DUP8 DUP4 MSTORE PUSH1 0x6 DUP3 MSTORE CALLER DUP7 DUP9 DUP6 KECCAK256 SLOAD AND EQ PUSH2 0x3AAF JUMP JUMPDEST POP DUP9 DUP4 MSTORE PUSH1 0x7 DUP3 MSTORE DUP7 DUP4 KECCAK256 CALLER DUP5 MSTORE DUP3 MSTORE PUSH1 0xFF DUP8 DUP5 KECCAK256 SLOAD AND PUSH2 0x3B05 JUMP JUMPDEST PUSH1 0x12 DUP3 MSTORE PUSH2 0x3B4F PUSH1 0xFF DUP9 DUP6 KECCAK256 SLOAD AND ISZERO PUSH2 0x3C8D JUMP JUMPDEST DUP8 DUP4 MSTORE PUSH1 0x14 DUP3 MSTORE PUSH1 0xFF DUP8 DUP5 KECCAK256 SLOAD AND PUSH2 0x3C01 JUMPI DUP3 MSTORE PUSH1 0x13 DUP2 MSTORE PUSH1 0xFF DUP7 DUP4 KECCAK256 SLOAD AND PUSH2 0x3BC7 JUMPI DUP3 DUP3 MSTORE PUSH1 0x13 DUP2 MSTORE PUSH1 0xFF DUP7 DUP4 KECCAK256 SLOAD AND PUSH2 0x3B8A JUMPI CODESIZE PUSH2 0x38E0 JUMP JUMPDEST DUP9 PUSH1 0x64 SWAP2 DUP8 MLOAD SWAP2 PUSH3 0x461BCD PUSH1 0xE5 SHL DUP4 MSTORE DUP3 ADD MSTORE PUSH1 0x18 PUSH1 0x24 DUP3 ADD MSTORE PUSH24 0x149958DA5C1A595B9D081A5CC8189B1858DADB1A5CDD1959 PUSH1 0x42 SHL PUSH1 0x44 DUP3 ADD MSTORE REVERT JUMPDEST DUP9 PUSH1 0x64 SWAP2 DUP8 MLOAD SWAP2 PUSH3 0x461BCD PUSH1 0xE5 SHL DUP4 MSTORE DUP3 ADD MSTORE PUSH1 0x15 PUSH1 0x24 DUP3 ADD MSTORE PUSH21 0x14D95B99195C881A5CC8189B1858DADB1A5CDD1959 PUSH1 0x5A SHL PUSH1 0x44 DUP3 ADD MSTORE REVERT JUMPDEST DUP7 MLOAD PUSH3 0x461BCD PUSH1 0xE5 SHL DUP2 MSTORE DUP1 DUP12 ADD DUP4 SWAP1 MSTORE PUSH1 0x12 PUSH1 0x24 DUP3 ADD MSTORE PUSH18 0x151BDAD95B881A5CC81CDBDD5B189BDD5B99 PUSH1 0x72 SHL PUSH1 0x44 DUP3 ADD MSTORE PUSH1 0x64 SWAP1 REVERT JUMPDEST POP PUSH1 0x1 PUSH2 0x38DB JUMP JUMPDEST PUSH1 0x40 MLOAD PUSH4 0x32505749 PUSH1 0xE1 SHL DUP2 MSTORE PUSH1 0x0 PUSH1 0x4 DUP3 ADD MSTORE PUSH1 0x24 SWAP1 REVERT JUMPDEST DUP2 DUP2 MUL SWAP3 SWAP2 DUP2 ISZERO SWAP2 DUP5 DIV EQ OR ISZERO PUSH2 0x376C JUMPI JUMP JUMPDEST DUP2 ISZERO PUSH2 0x3C77 JUMPI DIV SWAP1 JUMP JUMPDEST PUSH4 0x4E487B71 PUSH1 0xE0 SHL PUSH1 0x0 MSTORE PUSH1 0x12 PUSH1 0x4 MSTORE PUSH1 0x24 PUSH1 0x0 REVERT JUMPDEST ISZERO PUSH2 0x3C94 JUMPI JUMP JUMPDEST PUSH1 0x40 MLOAD PUSH3 0x461BCD PUSH1 0xE5 SHL DUP2 MSTORE PUSH1 0x20 PUSH1 0x4 DUP3 ADD MSTORE PUSH1 0xF PUSH1 0x24 DUP3 ADD MSTORE PUSH15 0x2A37B5B2B71034B990333937BD32B7 PUSH1 0x89 SHL PUSH1 0x44 DUP3 ADD MSTORE PUSH1 0x64 SWAP1 REVERT JUMPDEST ISZERO PUSH2 0x3CD2 JUMPI JUMP JUMPDEST PUSH1 0x40 MLOAD PUSH3 0x461BCD PUSH1 0xE5 SHL DUP2 MSTORE PUSH1 0x20 PUSH1 0x4 DUP3 ADD MSTORE PUSH1 0x17 PUSH1 0x24 DUP3 ADD MSTORE PUSH32 0x496E76616C6964207175616E746974792028312D353029000000000000000000 PUSH1 0x44 DUP3 ADD MSTORE PUSH1 0x64 SWAP1 REVERT JUMPDEST ISZERO PUSH2 0x3D1E JUMPI JUMP JUMPDEST PUSH1 0x40 MLOAD PUSH3 0x461BCD PUSH1 0xE5 SHL DUP2 MSTORE PUSH1 0x20 PUSH1 0x4 DUP3 ADD MSTORE PUSH1 0x14 PUSH1 0x24 DUP3 ADD MSTORE PUSH20 0x45786365656473206D61782065646974696F6E73 PUSH1 0x60 SHL PUSH1 0x44 DUP3 ADD MSTORE PUSH1 0x64 SWAP1 REVERT JUMPDEST PUSH1 0x1 PUSH1 0x1 PUSH1 0x40 SHL SUB DUP2 GT PUSH2 0xD57 JUMPI PUSH1 0x5 SHL PUSH1 0x20 ADD SWAP1 JUMP JUMPDEST SWAP1 PUSH2 0x3D7B DUP3 PUSH2 0x3D5A JUMP JUMPDEST PUSH2 0x3D88 PUSH1 0x40 MLOAD SWAP2 DUP3 PUSH2 0x3326 JUMP JUMPDEST DUP3 DUP2 MSTORE DUP1 SWAP3 PUSH2 0x3D99 PUSH1 0x1F NOT SWAP2 PUSH2 0x3D5A JUMP JUMPDEST ADD SWAP1 PUSH1 0x20 CALLDATASIZE SWAP2 ADD CALLDATACOPY JUMP JUMPDEST DUP1 MLOAD DUP3 LT ISZERO PUSH2 0x3533 JUMPI PUSH1 0x20 SWAP2 PUSH1 0x5 SHL ADD ADD SWAP1 JUMP JUMPDEST PUSH1 0x1 PUSH1 0x1 PUSH1 0xA0 SHL SUB AND DUP1 ISZERO PUSH2 0x3DD7 JUMPI PUSH1 0x0 MSTORE PUSH1 0x5 PUSH1 0x20 MSTORE PUSH1 0x40 PUSH1 0x0 KECCAK256 SLOAD SWAP1 JUMP JUMPDEST PUSH1 0x40 MLOAD PUSH4 0x22718AD9 PUSH1 0xE2 SHL DUP2 MSTORE PUSH1 0x0 PUSH1 0x4 DUP3 ADD MSTORE PUSH1 0x24 SWAP1 REVERT JUMPDEST PUSH1 0x0 DUP2 DUP2 MSTORE PUSH1 0x4 PUSH1 0x20 MSTORE PUSH1 0x40 DUP2 KECCAK256 SLOAD SWAP1 SWAP3 SWAP1 PUSH2 0x3E16 SWAP1 PUSH1 0x1 PUSH1 0x1 PUSH1 0xA0 SHL SUB AND ISZERO ISZERO PUSH2 0x35F1 JUMP JUMPDEST DUP2 DUP4 MSTORE PUSH1 0x16 PUSH1 0x20 MSTORE DUP1 PUSH1 0x40 DUP5 KECCAK256 SSTORE DUP3 MSTORE PUSH1 0x18 PUSH1 0x20 MSTORE PUSH1 0x40 DUP3 KECCAK256 DUP1 SLOAD SWAP3 JUMPDEST DUP4 DUP2 LT PUSH2 0x3E45 JUMPI POP PUSH2 0x3389 SWAP3 POP PUSH2 0x381D JUMP JUMPDEST DUP3 PUSH2 0x3E50 DUP3 DUP5 PUSH2 0x3549 JUMP JUMPDEST SWAP1 SLOAD SWAP1 PUSH1 0x3 SHL SHR EQ PUSH2 0x3E64 JUMPI PUSH1 0x1 ADD PUSH2 0x3E33 JUMP JUMPDEST POP POP POP POP JUMP JUMPDEST PUSH1 0xD SLOAD PUSH1 0x1 PUSH1 0x1 PUSH1 0xA0 SHL SUB AND CALLER SUB PUSH2 0x3E7E JUMPI JUMP JUMPDEST PUSH1 0x40 MLOAD PUSH4 0x118CDAA7 PUSH1 0xE0 SHL DUP2 MSTORE CALLER PUSH1 0x4 DUP3 ADD MSTORE PUSH1 0x24 SWAP1 REVERT JUMPDEST PUSH1 0x0 DUP2 DUP2 MSTORE PUSH1 0x4 PUSH1 0x20 MSTORE PUSH1 0x40 SWAP1 KECCAK256 SLOAD PUSH1 0x1 PUSH1 0x1 PUSH1 0xA0 SHL SUB AND SWAP1 DUP2 ISZERO PUSH2 0x3EB9 JUMPI POP SWAP1 JUMP JUMPDEST PUSH1 0x24 SWAP1 PUSH1 0x40 MLOAD SWAP1 PUSH4 0x7E273289 PUSH1 0xE0 SHL DUP3 MSTORE PUSH1 0x4 DUP3 ADD MSTORE REVERT JUMPDEST SWAP2 SWAP1 SWAP2 PUSH1 0x0 SWAP1 DUP1 DUP3 MSTORE PUSH1 0x20 SWAP2 PUSH1 0xC DUP4 MSTORE PUSH1 0x40 DUP2 KECCAK256 SWAP1 DUP6 MLOAD SWAP6 PUSH1 0x1 PUSH1 0x1 PUSH1 0x40 SHL SUB DUP8 GT PUSH2 0x3FF7 JUMPI PUSH2 0x3F0B DUP8 PUSH2 0x3F05 DUP6 SLOAD PUSH2 0x32B6 JUMP JUMPDEST DUP6 PUSH2 0x3840 JUMP JUMPDEST DUP5 SWAP2 PUSH1 0x1F DUP9 GT PUSH1 0x1 EQ PUSH2 0x3F73 JUMPI SWAP7 PUSH2 0x3F5C SWAP3 DUP2 SWAP3 PUSH32 0xF8E1A15ABA9398E019F0B49DF1A4FDE98EE17AE345CB5F6B5E2C27F5033E8CE7 SWAP9 SWAP10 SWAP3 PUSH2 0x3F68 JUMPI POP POP DUP2 PUSH1 0x1 SHL SWAP2 PUSH1 0x0 NOT SWAP1 PUSH1 0x3 SHL SHR NOT AND OR SWAP1 JUMP JUMPDEST SWAP1 SSTORE JUMPDEST PUSH1 0x40 MLOAD SWAP1 DUP2 MSTORE LOG1 JUMP JUMPDEST ADD MLOAD SWAP1 POP CODESIZE DUP1 PUSH2 0xAFA JUMP JUMPDEST SWAP2 SWAP1 PUSH1 0x1F NOT DUP9 AND DUP5 DUP5 MSTORE DUP7 DUP5 KECCAK256 SWAP4 JUMPDEST DUP2 DUP2 LT PUSH2 0x3FE0 JUMPI POP SWAP2 PUSH1 0x1 SWAP4 SWAP2 DUP10 PUSH32 0xF8E1A15ABA9398E019F0B49DF1A4FDE98EE17AE345CB5F6B5E2C27F5033E8CE7 SWAP10 SWAP11 SWAP5 LT PUSH2 0x3FC7 JUMPI JUMPDEST POP POP POP DUP2 SHL ADD SWAP1 SSTORE PUSH2 0x3F5F JUMP JUMPDEST ADD MLOAD PUSH1 0x0 NOT PUSH1 0xF8 DUP5 PUSH1 0x3 SHL AND SHR NOT AND SWAP1 SSTORE CODESIZE DUP1 DUP1 PUSH2 0x3FBA JUMP JUMPDEST SWAP3 SWAP4 DUP8 PUSH1 0x1 DUP2 SWAP3 DUP8 DUP7 ADD MLOAD DUP2 SSTORE ADD SWAP6 ADD SWAP4 ADD PUSH2 0x3F82 JUMP JUMPDEST PUSH4 0x4E487B71 PUSH1 0xE0 SHL DUP3 MSTORE PUSH1 0x41 PUSH1 0x4 MSTORE PUSH1 0x24 DUP3 REVERT JUMPDEST PUSH1 0xFF PUSH1 0xD SLOAD PUSH1 0xA0 SHR AND PUSH2 0x401A JUMPI JUMP JUMPDEST PUSH1 0x40 MLOAD PUSH4 0xD93C0665 PUSH1 0xE0 SHL DUP2 MSTORE PUSH1 0x4 SWAP1 REVERT JUMPDEST PUSH1 0x2 PUSH1 0xE SLOAD EQ PUSH2 0x403D JUMPI PUSH1 0x2 PUSH1 0xE SSTORE JUMP JUMPDEST PUSH1 0x40 MLOAD PUSH4 0x3EE5AEB5 PUSH1 0xE0 SHL DUP2 MSTORE PUSH1 0x4 SWAP1 REVERT JUMPDEST PUSH1 0x40 DUP1 MLOAD SWAP1 PUSH2 0x405D DUP3 PUSH2 0x330B JUMP JUMPDEST PUSH1 0x0 DUP1 DUP4 MSTORE PUSH1 0x1 PUSH1 0x1 PUSH1 0xA0 SHL SUB SWAP5 DUP5 DUP7 AND SWAP4 DUP5 ISZERO PUSH2 0x4475 JUMPI DUP2 DUP4 MSTORE PUSH1 0x4 SWAP6 PUSH1 0x20 SWAP8 DUP8 DUP10 MSTORE DUP1 DUP7 DUP7 KECCAK256 SLOAD AND DUP1 ISZERO ISZERO DUP1 PUSH2 0x446D JUMPI JUMPDEST PUSH2 0x436D JUMPI JUMPDEST POP DUP4 DUP6 MSTORE DUP8 DUP10 MSTORE DUP6 DUP6 KECCAK256 SLOAD AND DUP7 DUP2 ISZERO SWAP2 DUP3 ISZERO SWAP3 DUP4 PUSH2 0x433A JUMPI JUMPDEST DUP3 DUP9 MSTORE PUSH1 0x5 DUP13 MSTORE DUP9 DUP9 KECCAK256 DUP1 SLOAD PUSH1 0x1 ADD SWAP1 SSTORE DUP7 DUP9 MSTORE DUP11 DUP13 MSTORE DUP9 DUP9 KECCAK256 DUP1 SLOAD PUSH1 0x1 PUSH1 0x1 PUSH1 0xA0 SHL SUB NOT AND DUP5 OR SWAP1 SSTORE DUP7 DUP4 DUP4 PUSH32 0xDDF252AD1BE2C89B69C2B068FC378DAA952BA7F163C4A11628F55A4DF523B3EF DUP12 DUP1 LOG4 ISZERO PUSH2 0x42BC JUMPI PUSH1 0xA SLOAD DUP7 DUP9 MSTORE PUSH1 0xB DUP13 MSTORE DUP9 DUP9 KECCAK256 SSTORE PUSH2 0x411B DUP7 PUSH2 0x37E1 JUMP JUMPDEST SUB PUSH2 0x4270 JUMPI JUMPDEST PUSH2 0x4259 JUMPI EXTCODESIZE PUSH2 0x4134 JUMPI JUMPDEST POP POP POP POP POP POP POP JUMP JUMPDEST DUP7 PUSH2 0x4172 SWAP2 DUP6 SWAP7 SWAP8 SWAP9 SWAP10 SWAP5 SWAP6 MLOAD DUP1 SWAP4 DUP2 SWAP3 PUSH4 0xA85BD01 PUSH1 0xE1 SHL SWAP7 DUP8 DUP5 MSTORE CALLER DUP14 DUP6 ADD MSTORE DUP10 PUSH1 0x24 DUP6 ADD MSTORE PUSH1 0x44 DUP5 ADD MSTORE PUSH1 0x80 PUSH1 0x64 DUP5 ADD MSTORE PUSH1 0x84 DUP4 ADD SWAP1 PUSH2 0x3260 JUMP JUMPDEST SUB DUP2 DUP8 DUP11 GAS CALL DUP5 SWAP2 DUP2 PUSH2 0x4215 JUMPI JUMPDEST POP PUSH2 0x41DE JUMPI POP POP POP RETURNDATASIZE PUSH1 0x0 EQ PUSH2 0x41D6 JUMPI RETURNDATASIZE PUSH2 0x419A DUP2 PUSH2 0x3561 JUMP JUMPDEST SWAP1 PUSH2 0x41A7 DUP5 MLOAD SWAP3 DUP4 PUSH2 0x3326 JUMP JUMPDEST DUP2 MSTORE DUP1 SWAP2 DUP7 RETURNDATASIZE SWAP3 ADD RETURNDATACOPY JUMPDEST DUP1 MLOAD SWAP5 DUP6 PUSH2 0x41D0 JUMPI POP POP MLOAD PUSH4 0x32505749 PUSH1 0xE1 SHL DUP2 MSTORE SWAP2 DUP3 ADD MSTORE PUSH1 0x24 SWAP2 POP REVERT JUMPDEST DUP6 SWAP3 POP ADD REVERT JUMPDEST POP PUSH1 0x60 PUSH2 0x41B1 JUMP JUMPDEST SWAP2 SWAP7 POP SWAP2 POP PUSH4 0xFFFFFFFF PUSH1 0xE0 SHL AND SUB PUSH2 0x4200 JUMPI POP POP POP CODESIZE DUP1 DUP1 DUP1 DUP1 DUP1 DUP1 PUSH2 0x412B JUMP JUMPDEST MLOAD PUSH4 0x32505749 PUSH1 0xE1 SHL DUP2 MSTORE SWAP2 DUP3 ADD MSTORE PUSH1 0x24 SWAP2 POP REVERT JUMPDEST SWAP1 SWAP2 POP DUP9 DUP2 DUP2 RETURNDATASIZE DUP4 GT PUSH2 0x4252 JUMPI JUMPDEST PUSH2 0x422D DUP2 DUP4 PUSH2 0x3326 JUMP JUMPDEST DUP2 ADD SUB SLT PUSH2 0x424E JUMPI MLOAD PUSH1 0x1 PUSH1 0x1 PUSH1 0xE0 SHL SUB NOT DUP2 AND DUP2 SUB PUSH2 0x424E JUMPI SWAP1 CODESIZE PUSH2 0x4180 JUMP JUMPDEST DUP5 DUP1 REVERT JUMPDEST POP RETURNDATASIZE PUSH2 0x4223 JUMP JUMPDEST DUP5 MLOAD PUSH4 0x39E35637 PUSH1 0xE1 SHL DUP2 MSTORE DUP1 DUP9 ADD DUP6 SWAP1 MSTORE PUSH1 0x24 SWAP1 REVERT JUMPDEST PUSH2 0x4279 DUP3 PUSH2 0x3DB7 JUMP JUMPDEST PUSH1 0x0 NOT DUP2 ADD SWAP1 DUP2 GT PUSH2 0x42A9 JUMPI DUP8 DUP7 MSTORE PUSH1 0x8 DUP11 MSTORE DUP7 DUP7 KECCAK256 DUP2 DUP8 MSTORE DUP11 MSTORE DUP5 DUP8 DUP8 KECCAK256 SSTORE DUP5 DUP7 MSTORE PUSH1 0x9 DUP11 MSTORE DUP7 DUP7 KECCAK256 SSTORE PUSH2 0x4121 JUMP JUMPDEST PUSH4 0x4E487B71 PUSH1 0xE0 SHL DUP7 MSTORE PUSH1 0x11 DUP10 MSTORE PUSH1 0x24 DUP7 REVERT JUMPDEST DUP1 DUP3 EQ PUSH2 0x411B JUMPI PUSH2 0x42CC DUP2 PUSH2 0x3DB7 JUMP JUMPDEST DUP7 DUP9 MSTORE PUSH1 0x9 DUP13 MSTORE DUP9 DUP9 KECCAK256 SLOAD DUP2 DUP2 SUB PUSH2 0x4301 JUMPI JUMPDEST POP DUP7 DUP9 MSTORE DUP8 DUP10 DUP2 KECCAK256 SSTORE DUP2 DUP9 MSTORE PUSH1 0x8 DUP13 MSTORE DUP9 DUP9 KECCAK256 SWAP1 DUP9 MSTORE DUP12 MSTORE DUP7 DUP9 DUP2 KECCAK256 SSTORE PUSH2 0x411B JUMP JUMPDEST DUP3 DUP10 MSTORE PUSH1 0x8 DUP14 MSTORE DUP10 DUP10 KECCAK256 DUP3 DUP11 MSTORE DUP14 MSTORE DUP13 PUSH1 0x8 DUP12 DUP12 KECCAK256 SLOAD SWAP2 DUP6 DUP13 MSTORE MSTORE DUP14 DUP12 DUP12 KECCAK256 SWAP1 DUP4 DUP13 MSTORE MSTORE DUP1 DUP12 DUP12 KECCAK256 SSTORE DUP10 MSTORE PUSH1 0x9 DUP14 MSTORE DUP10 DUP10 KECCAK256 SSTORE CODESIZE PUSH2 0x42DF JUMP JUMPDEST PUSH1 0x0 DUP8 DUP2 MSTORE PUSH1 0x6 PUSH1 0x20 MSTORE PUSH1 0x40 SWAP1 KECCAK256 DUP1 SLOAD PUSH1 0x1 PUSH1 0x1 PUSH1 0xA0 SHL SUB NOT AND SWAP1 SSTORE DUP2 DUP9 MSTORE PUSH1 0x5 DUP13 MSTORE DUP9 DUP9 KECCAK256 DUP1 SLOAD PUSH1 0x0 NOT ADD SWAP1 SSTORE PUSH2 0x40AE JUMP JUMPDEST PUSH1 0x12 DUP11 MSTORE PUSH2 0x4381 PUSH1 0xFF DUP9 DUP9 KECCAK256 SLOAD AND ISZERO PUSH2 0x3C8D JUMP JUMPDEST DUP5 DUP7 MSTORE PUSH1 0x14 DUP11 MSTORE PUSH1 0xFF DUP8 DUP8 KECCAK256 SLOAD AND PUSH2 0x4435 JUMPI DUP6 MSTORE PUSH1 0x13 DUP10 MSTORE PUSH1 0xFF DUP7 DUP7 KECCAK256 SLOAD AND PUSH2 0x43FA JUMPI DUP7 DUP6 MSTORE PUSH1 0x13 DUP10 MSTORE PUSH1 0xFF DUP7 DUP7 KECCAK256 SLOAD AND PUSH2 0x43BC JUMPI CODESIZE PUSH2 0x4095 JUMP JUMPDEST DUP6 MLOAD PUSH3 0x461BCD PUSH1 0xE5 SHL DUP2 MSTORE DUP1 DUP10 ADD DUP11 SWAP1 MSTORE PUSH1 0x18 PUSH1 0x24 DUP3 ADD MSTORE PUSH24 0x149958DA5C1A595B9D081A5CC8189B1858DADB1A5CDD1959 PUSH1 0x42 SHL PUSH1 0x44 DUP3 ADD MSTORE PUSH1 0x64 SWAP1 REVERT JUMPDEST DUP6 MLOAD PUSH3 0x461BCD PUSH1 0xE5 SHL DUP2 MSTORE DUP1 DUP10 ADD DUP11 SWAP1 MSTORE PUSH1 0x15 PUSH1 0x24 DUP3 ADD MSTORE PUSH21 0x14D95B99195C881A5CC8189B1858DADB1A5CDD1959 PUSH1 0x5A SHL PUSH1 0x44 DUP3 ADD MSTORE PUSH1 0x64 SWAP1 REVERT JUMPDEST DUP7 MLOAD PUSH3 0x461BCD PUSH1 0xE5 SHL DUP2 MSTORE DUP1 DUP11 ADD DUP12 SWAP1 MSTORE PUSH1 0x12 PUSH1 0x24 DUP3 ADD MSTORE PUSH18 0x151BDAD95B881A5CC81CDBDD5B189BDD5B99 PUSH1 0x72 SHL PUSH1 0x44 DUP3 ADD MSTORE PUSH1 0x64 SWAP1 REVERT JUMPDEST POP PUSH1 0x1 PUSH2 0x4090 JUMP JUMPDEST DUP4 MLOAD PUSH4 0x32505749 PUSH1 0xE1 SHL DUP2 MSTORE PUSH1 0x4 DUP2 ADD DUP5 SWAP1 MSTORE PUSH1 0x24 SWAP1 REVERT JUMPDEST PUSH1 0x0 SWAP1 DUP1 DUP3 MSTORE PUSH1 0x4 SWAP2 PUSH1 0x20 SWAP1 DUP4 DUP3 MSTORE PUSH1 0x1 DUP1 PUSH1 0xA0 SHL SUB SWAP2 PUSH1 0x40 SWAP3 DUP1 DUP5 DUP5 KECCAK256 SLOAD AND DUP1 ISZERO ISZERO DUP1 PUSH2 0x4799 JUMPI JUMPDEST PUSH2 0x4699 JUMPI JUMPDEST POP DUP5 DUP4 MSTORE DUP6 DUP3 MSTORE DUP4 DUP4 KECCAK256 SLOAD AND SWAP2 DUP3 ISZERO SWAP3 DUP4 ISZERO DUP1 PUSH2 0x4666 JUMPI JUMPDEST DUP7 DUP4 MSTORE DUP8 DUP5 MSTORE DUP6 DUP4 KECCAK256 DUP1 SLOAD PUSH1 0x1 PUSH1 0x1 PUSH1 0xA0 SHL SUB NOT AND SWAP1 SSTORE DUP7 DUP4 DUP4 PUSH32 0xDDF252AD1BE2C89B69C2B068FC378DAA952BA7F163C4A11628F55A4DF523B3EF DUP3 DUP1 LOG4 DUP5 ISZERO PUSH2 0x45E5 JUMPI POP POP PUSH1 0xA SLOAD DUP6 DUP3 MSTORE PUSH1 0xB DUP4 MSTORE DUP5 DUP3 KECCAK256 SSTORE PUSH2 0x4530 DUP6 PUSH2 0x37E1 JUMP JUMPDEST PUSH1 0xA SLOAD PUSH1 0x0 NOT SWAP3 DUP4 DUP3 ADD SWAP2 DUP3 GT PUSH2 0x45D2 JUMPI PUSH1 0xB SWAP1 DUP8 DUP5 MSTORE DUP2 DUP2 MSTORE PUSH2 0x4557 DUP8 DUP6 KECCAK256 SLOAD SWAP4 PUSH2 0x34FC JUMP JUMPDEST SWAP1 SLOAD SWAP1 PUSH1 0x3 SHL SHR PUSH2 0x456B DUP2 PUSH2 0x3804 DUP7 PUSH2 0x34FC JUMP JUMPDEST DUP5 MSTORE MSTORE DUP5 DUP3 KECCAK256 SSTORE DUP5 DUP2 MSTORE DUP1 DUP5 DUP2 KECCAK256 SSTORE PUSH1 0xA SLOAD SWAP1 DUP2 ISZERO PUSH2 0x45BF JUMPI POP DUP2 ADD SWAP1 PUSH2 0x4591 DUP3 PUSH2 0x34FC JUMP JUMPDEST SWAP1 SWAP2 DUP3 SLOAD SWAP2 PUSH1 0x3 SHL SHL NOT AND SWAP1 SSTORE PUSH1 0xA SSTORE PUSH2 0x45AA JUMPI POP POP POP JUMP JUMPDEST MLOAD PUSH4 0x7E273289 PUSH1 0xE0 SHL DUP2 MSTORE SWAP2 DUP3 ADD MSTORE PUSH1 0x24 SWAP2 POP REVERT JUMPDEST PUSH4 0x4E487B71 PUSH1 0xE0 SHL DUP2 MSTORE PUSH1 0x31 DUP8 MSTORE PUSH1 0x24 SWAP1 REVERT JUMPDEST PUSH4 0x4E487B71 PUSH1 0xE0 SHL DUP4 MSTORE PUSH1 0x11 DUP9 MSTORE PUSH1 0x24 DUP4 REVERT JUMPDEST PUSH2 0x45F0 JUMPI JUMPDEST POP PUSH2 0x4530 JUMP JUMPDEST PUSH2 0x45F9 DUP2 PUSH2 0x3DB7 JUMP JUMPDEST SWAP1 DUP7 DUP4 MSTORE PUSH1 0x9 DUP5 MSTORE DUP6 DUP4 KECCAK256 SLOAD DUP3 DUP2 SUB PUSH2 0x462F JUMPI JUMPDEST POP DUP7 DUP4 MSTORE DUP3 DUP7 DUP2 KECCAK256 SSTORE DUP3 MSTORE PUSH1 0x8 DUP4 MSTORE DUP5 DUP3 KECCAK256 SWAP1 DUP3 MSTORE DUP3 MSTORE DUP1 DUP5 DUP2 KECCAK256 SSTORE CODESIZE PUSH2 0x45EA JUMP JUMPDEST DUP2 DUP5 MSTORE PUSH1 0x8 DUP6 MSTORE DUP7 DUP5 KECCAK256 DUP4 DUP6 MSTORE DUP6 MSTORE DUP7 DUP5 KECCAK256 SLOAD DUP3 DUP6 MSTORE PUSH1 0x8 DUP7 MSTORE DUP8 DUP6 KECCAK256 DUP3 DUP7 MSTORE DUP7 MSTORE DUP1 DUP9 DUP7 KECCAK256 SSTORE DUP5 MSTORE PUSH1 0x9 DUP6 MSTORE DUP7 DUP5 KECCAK256 SSTORE CODESIZE PUSH2 0x460D JUMP JUMPDEST PUSH1 0x0 DUP8 DUP2 MSTORE PUSH1 0x6 PUSH1 0x20 MSTORE PUSH1 0x40 SWAP1 KECCAK256 DUP1 SLOAD PUSH1 0x1 PUSH1 0x1 PUSH1 0xA0 SHL SUB NOT AND SWAP1 SSTORE DUP2 DUP4 MSTORE PUSH1 0x5 DUP5 MSTORE DUP6 DUP4 KECCAK256 DUP1 SLOAD PUSH1 0x0 NOT ADD SWAP1 SSTORE PUSH2 0x44D3 JUMP JUMPDEST PUSH1 0x12 DUP4 MSTORE PUSH2 0x46AD PUSH1 0xFF DUP7 DUP7 KECCAK256 SLOAD AND ISZERO PUSH2 0x3C8D JUMP JUMPDEST DUP6 DUP5 MSTORE PUSH1 0x14 DUP4 MSTORE PUSH1 0xFF DUP6 DUP6 KECCAK256 SLOAD AND PUSH2 0x4761 JUMPI DUP4 MSTORE PUSH1 0x13 DUP3 MSTORE PUSH1 0xFF DUP5 DUP5 KECCAK256 SLOAD AND PUSH2 0x4726 JUMPI DUP3 DUP1 MSTORE PUSH1 0x13 DUP3 MSTORE PUSH1 0xFF DUP5 DUP5 KECCAK256 SLOAD AND PUSH2 0x46E8 JUMPI CODESIZE PUSH2 0x44BB JUMP JUMPDEST DUP4 MLOAD PUSH3 0x461BCD PUSH1 0xE5 SHL DUP2 MSTORE DUP1 DUP8 ADD DUP4 SWAP1 MSTORE PUSH1 0x18 PUSH1 0x24 DUP3 ADD MSTORE PUSH24 0x149958DA5C1A595B9D081A5CC8189B1858DADB1A5CDD1959 PUSH1 0x42 SHL PUSH1 0x44 DUP3 ADD MSTORE PUSH1 0x64 SWAP1 REVERT JUMPDEST DUP4 MLOAD PUSH3 0x461BCD PUSH1 0xE5 SHL DUP2 MSTORE DUP1 DUP8 ADD DUP4 SWAP1 MSTORE PUSH1 0x15 PUSH1 0x24 DUP3 ADD MSTORE PUSH21 0x14D95B99195C881A5CC8189B1858DADB1A5CDD1959 PUSH1 0x5A SHL PUSH1 0x44 DUP3 ADD MSTORE PUSH1 0x64 SWAP1 REVERT JUMPDEST DUP5 MLOAD PUSH3 0x461BCD PUSH1 0xE5 SHL DUP2 MSTORE DUP1 DUP9 ADD DUP5 SWAP1 MSTORE PUSH1 0x12 PUSH1 0x24 DUP3 ADD MSTORE PUSH18 0x151BDAD95B881A5CC81CDBDD5B189BDD5B99 PUSH1 0x72 SHL PUSH1 0x44 DUP3 ADD MSTORE PUSH1 0x64 SWAP1 REVERT JUMPDEST POP DUP4 PUSH2 0x44B6 JUMP JUMPDEST DUP2 EXTCODESIZE PUSH2 0x47AC JUMPI POP POP POP POP JUMP JUMPDEST PUSH1 0x40 MLOAD PUSH4 0xA85BD01 PUSH1 0xE1 SHL DUP1 DUP3 MSTORE CALLER PUSH1 0x4 DUP4 ADD MSTORE PUSH1 0x1 PUSH1 0x1 PUSH1 0xA0 SHL SUB SWAP3 DUP4 AND PUSH1 0x24 DUP4 ADD MSTORE PUSH1 0x44 DUP3 ADD SWAP5 SWAP1 SWAP5 MSTORE PUSH1 0x80 PUSH1 0x64 DUP3 ADD MSTORE PUSH1 0x20 SWAP6 SWAP3 SWAP1 SWAP2 AND SWAP4 SWAP1 SWAP3 SWAP1 DUP4 SWAP1 PUSH2 0x47FA SWAP1 PUSH1 0x84 DUP4 ADD SWAP1 PUSH2 0x3260 JUMP JUMPDEST SUB SWAP3 DUP6 DUP2 PUSH1 0x0 SWAP6 DUP2 DUP8 DUP10 GAS CALL DUP5 SWAP2 DUP2 PUSH2 0x48A3 JUMPI JUMPDEST POP PUSH2 0x486E JUMPI POP POP POP RETURNDATASIZE PUSH1 0x0 EQ PUSH2 0x4866 JUMPI RETURNDATASIZE PUSH2 0x4828 DUP2 PUSH2 0x3561 JUMP JUMPDEST SWAP1 PUSH2 0x4836 PUSH1 0x40 MLOAD SWAP3 DUP4 PUSH2 0x3326 JUMP JUMPDEST DUP2 MSTORE DUP1 SWAP2 DUP5 RETURNDATASIZE SWAP3 ADD RETURNDATACOPY JUMPDEST DUP1 MLOAD SWAP3 DUP4 PUSH2 0x4861 JUMPI PUSH1 0x40 MLOAD PUSH4 0x32505749 PUSH1 0xE1 SHL DUP2 MSTORE PUSH1 0x4 DUP2 ADD DUP5 SWAP1 MSTORE PUSH1 0x24 SWAP1 REVERT JUMPDEST ADD SWAP1 POP REVERT JUMPDEST POP PUSH1 0x60 PUSH2 0x4840 JUMP JUMPDEST SWAP2 SWAP5 POP SWAP2 POP PUSH4 0xFFFFFFFF PUSH1 0xE0 SHL AND SUB PUSH2 0x488B JUMPI POP CODESIZE DUP1 DUP1 DUP1 PUSH2 0x3E64 JUMP JUMPDEST PUSH1 0x24 SWAP1 PUSH1 0x40 MLOAD SWAP1 PUSH4 0x32505749 PUSH1 0xE1 SHL DUP3 MSTORE PUSH1 0x4 DUP3 ADD MSTORE REVERT JUMPDEST SWAP1 SWAP2 POP DUP7 DUP2 DUP2 RETURNDATASIZE DUP4 GT PUSH2 0x48DC JUMPI JUMPDEST PUSH2 0x48BB DUP2 DUP4 PUSH2 0x3326 JUMP JUMPDEST DUP2 ADD SUB SLT PUSH2 0x424E JUMPI MLOAD PUSH1 0x1 PUSH1 0x1 PUSH1 0xE0 SHL SUB NOT DUP2 AND DUP2 SUB PUSH2 0x424E JUMPI SWAP1 CODESIZE PUSH2 0x480E JUMP JUMPDEST POP RETURNDATASIZE PUSH2 0x48B1 JUMP INVALID PREVRANDAO 0xA7 CALLVALUE 0x22 DUP9 EXTCODEHASH 0xD5 0xAA 0xC8 0xDD 0xE6 0xEF CALLDATASIZE DUP9 0xC6 0x2F 0x25 LOG4 0xFB 0x22 0xE7 LOG3 SWAP6 0xBA 0xFB COINBASE 0x1E 0xC4 DUP1 GASPRICE 0xB1 0xBD PUSH27 0x9A4F151CC0B6349BD7062416B8F68D1D73C3F457EFC221520EB554 PUSH22 0x95D2D8F1A038A86C47446D2A26B7852348EEE74E6D63 0xD5 0xA7 OR SWAP3 0xDF ADD 0xE4 0xC 0x2E PUSH14 0xE1CA2A2646970667358221220E2 DUP9 PUSH4 0x923BB3D8 RETURNDATACOPY RETURNDATASIZE 0x4F NOT SWAP4 PUSH1 0x3E PUSH29 0xFC2C6AA2488432817E00D70CB2AF61A82E64736F6C6343000818003300 "},"methodIdentifiers":{"adminBurn(uint256)":"badb97ff","approve(address,uint256)":"095ea7b3","balanceOf(address)":"70a08231","batchFixTokenCampaignLink(uint256[],uint256)":"1e2b8983","batchFreezeTokens(uint256[],bool)":"4639cfaa","batchSetTokenURI(uint256[],string)":"8f52d21a","blacklistAddress(address)":"f3290d75","blacklisted(address)":"dbac26e9","burn(uint256)":"42966c68","campaignEditions(uint256,uint256)":"407de9df","campaigns(uint256)":"141961bc","closeCampaign(uint256)":"b0e1c1e1","createCampaign(string,string,uint256,uint256,uint256,uint256,address)":"cc3c3008","deactivateCampaign(uint256)":"7eca30fe","defaultRoyaltyBps()":"18d33e41","deleteDefaultRoyalty()":"aa1b103f","emergencyWithdraw()":"db2e21bc","emitBatchMetadataUpdate(uint256,uint256)":"a4830114","emitMetadataUpdate(uint256)":"3190b9ea","fixTokenCampaignLink(uint256,uint256)":"96ab0493","freezeToken(uint256)":"b6854f96","frozenTokens(uint256)":"f401f8a0","getApproved(uint256)":"081812fc","getCampaign(uint256)":"5598f8cc","getCampaignEditions(uint256)":"3705f2a8","getEditionInfo(uint256)":"8079ca0c","isApprovedForAll(address,address)":"e985e9c5","makeSoulbound(uint256)":"a591eea1","markCampaignRefunded(uint256)":"a0a441bb","mintBatchWithBDAG(uint256,uint256)":"8e20f98c","mintBatchWithBDAGAndTip(uint256,uint256,uint256)":"4db7bfff","mintEditionToDonor(uint256,address,uint256)":"2a76d553","mintWithBDAG(uint256)":"d88d6ef3","mintWithBDAGAndTip(uint256,uint256)":"1797c8f2","name()":"06fdde03","owner()":"8da5cb5b","ownerOf(uint256)":"6352211e","pause()":"8456cb59","paused()":"5c975abb","reactivateCampaign(uint256)":"1fdc217c","recordContribution(uint256,uint256,uint256,uint256,bool)":"25532ecd","removeBlacklist(address)":"eb91e651","removeSoulbound(uint256)":"47c735fc","renounceOwnership()":"715018a6","royaltyInfo(uint256,uint256)":"2a55205a","safeTransferFrom(address,address,uint256)":"42842e0e","safeTransferFrom(address,address,uint256,bytes)":"b88d4fde","setApprovalForAll(address,bool)":"a22cb465","setDefaultRoyalty(address,uint96)":"04634d8d","setTokenRoyalty(uint256,address,uint96)":"5944c753","setTokenURI(uint256,string)":"162094c4","setTreasury(address)":"f0f44260","soulbound(uint256)":"7a181597","supportsInterface(bytes4)":"01ffc9a7","symbol()":"95d89b41","tokenByIndex(uint256)":"4f6ccce7","tokenEditionNumber(uint256)":"b6358d99","tokenOfOwnerByIndex(address,uint256)":"2f745c59","tokenToCampaign(uint256)":"c1692213","tokenURI(uint256)":"c87b56dd","totalCampaigns()":"02932f56","totalSupply()":"18160ddd","transferFrom(address,address,uint256)":"23b872dd","transferOwnership(address)":"f2fde38b","treasury()":"61d027b3","unfreezeToken(uint256)":"4d787ea9","unpause()":"3f4ba83a","updateCampaignCategory(uint256,string)":"c608e72a","updateCampaignFeeRate(uint256,uint256)":"0d6f0d2b","updateCampaignGoal(uint256,uint256)":"51a0bbb2","updateCampaignMaxEditions(uint256,uint256)":"1cc76d75","updateCampaignMetadata(uint256,string)":"1dda279b","updateCampaignPrice(uint256,uint256)":"fb77211c","updateCampaignSubmitter(uint256,address)":"6fb8696c","withdraw(address,uint256)":"f3fef3a3"}}}}}