{"contracts/PatriotPledgeNFTV8.sol":{"PatriotPledgeNFTV8":{"abi":[{"inputs":[{"internalType":"address","name":"_platformTreasury","type":"address"},{"internalType":"uint16","name":"_platformFeeBps","type":"uint16"}],"stateMutability":"nonpayable","type":"constructor"},{"inputs":[{"internalType":"uint256","name":"numerator","type":"uint256"},{"internalType":"uint256","name":"denominator","type":"uint256"}],"name":"ERC2981InvalidDefaultRoyalty","type":"error"},{"inputs":[{"internalType":"address","name":"receiver","type":"address"}],"name":"ERC2981InvalidDefaultRoyaltyReceiver","type":"error"},{"inputs":[{"internalType":"uint256","name":"tokenId","type":"uint256"},{"internalType":"uint256","name":"numerator","type":"uint256"},{"internalType":"uint256","name":"denominator","type":"uint256"}],"name":"ERC2981InvalidTokenRoyalty","type":"error"},{"inputs":[{"internalType":"uint256","name":"tokenId","type":"uint256"},{"internalType":"address","name":"receiver","type":"address"}],"name":"ERC2981InvalidTokenRoyaltyReceiver","type":"error"},{"inputs":[],"name":"ERC721EnumerableForbiddenBatchMint","type":"error"},{"inputs":[{"internalType":"address","name":"sender","type":"address"},{"internalType":"uint256","name":"tokenId","type":"uint256"},{"internalType":"address","name":"owner","type":"address"}],"name":"ERC721IncorrectOwner","type":"error"},{"inputs":[{"internalType":"address","name":"operator","type":"address"},{"internalType":"uint256","name":"tokenId","type":"uint256"}],"name":"ERC721InsufficientApproval","type":"error"},{"inputs":[{"internalType":"address","name":"approver","type":"address"}],"name":"ERC721InvalidApprover","type":"error"},{"inputs":[{"internalType":"address","name":"operator","type":"address"}],"name":"ERC721InvalidOperator","type":"error"},{"inputs":[{"internalType":"address","name":"owner","type":"address"}],"name":"ERC721InvalidOwner","type":"error"},{"inputs":[{"internalType":"address","name":"receiver","type":"address"}],"name":"ERC721InvalidReceiver","type":"error"},{"inputs":[{"internalType":"address","name":"sender","type":"address"}],"name":"ERC721InvalidSender","type":"error"},{"inputs":[{"internalType":"uint256","name":"tokenId","type":"uint256"}],"name":"ERC721NonexistentToken","type":"error"},{"inputs":[{"internalType":"address","name":"owner","type":"address"},{"internalType":"uint256","name":"index","type":"uint256"}],"name":"ERC721OutOfBoundsIndex","type":"error"},{"inputs":[],"name":"EnforcedPause","type":"error"},{"inputs":[],"name":"ExpectedPause","type":"error"},{"inputs":[{"internalType":"address","name":"owner","type":"address"}],"name":"OwnableInvalidOwner","type":"error"},{"inputs":[{"internalType":"address","name":"account","type":"address"}],"name":"OwnableUnauthorizedAccount","type":"error"},{"inputs":[],"name":"ReentrancyGuardReentrantCall","type":"error"},{"anonymous":false,"inputs":[{"indexed":true,"internalType":"address","name":"addr","type":"address"},{"indexed":false,"internalType":"bool","name":"blacklisted","type":"bool"}],"name":"AddressBlacklisted","type":"event"},{"anonymous":false,"inputs":[{"indexed":true,"internalType":"address","name":"owner","type":"address"},{"indexed":true,"internalType":"address","name":"approved","type":"address"},{"indexed":true,"internalType":"uint256","name":"tokenId","type":"uint256"}],"name":"Approval","type":"event"},{"anonymous":false,"inputs":[{"indexed":true,"internalType":"address","name":"owner","type":"address"},{"indexed":true,"internalType":"address","name":"operator","type":"address"},{"indexed":false,"internalType":"bool","name":"approved","type":"bool"}],"name":"ApprovalForAll","type":"event"},{"anonymous":false,"inputs":[{"indexed":false,"internalType":"uint256","name":"_fromTokenId","type":"uint256"},{"indexed":false,"internalType":"uint256","name":"_toTokenId","type":"uint256"}],"name":"BatchMetadataUpdate","type":"event"},{"anonymous":false,"inputs":[{"indexed":true,"internalType":"address","name":"funder","type":"address"},{"indexed":false,"internalType":"uint256","name":"amount","type":"uint256"}],"name":"BugBountyFunded","type":"event"},{"anonymous":false,"inputs":[{"indexed":true,"internalType":"address","name":"recipient","type":"address"},{"indexed":false,"internalType":"uint256","name":"amount","type":"uint256"},{"indexed":false,"internalType":"string","name":"reportId","type":"string"}],"name":"BugBountyPaid","type":"event"},{"anonymous":false,"inputs":[{"indexed":true,"internalType":"uint256","name":"campaignId","type":"uint256"}],"name":"CampaignClosed","type":"event"},{"anonymous":false,"inputs":[{"indexed":true,"internalType":"uint256","name":"campaignId","type":"uint256"},{"indexed":true,"internalType":"address","name":"nonprofit","type":"address"},{"indexed":true,"internalType":"address","name":"submitter","type":"address"},{"indexed":false,"internalType":"string","name":"category","type":"string"},{"indexed":false,"internalType":"uint256","name":"goalNative","type":"uint256"},{"indexed":false,"internalType":"uint256","name":"goalUsd","type":"uint256"},{"indexed":false,"internalType":"uint256","name":"maxEditions","type":"uint256"},{"indexed":false,"internalType":"uint256","name":"priceNative","type":"uint256"},{"indexed":false,"internalType":"uint256","name":"priceUsd","type":"uint256"},{"indexed":false,"internalType":"bool","name":"immediatePayoutEnabled","type":"bool"}],"name":"CampaignCreated","type":"event"},{"anonymous":false,"inputs":[{"indexed":true,"internalType":"uint256","name":"campaignId","type":"uint256"},{"indexed":false,"internalType":"string","name":"newBaseURI","type":"string"}],"name":"CampaignMetadataUpdated","type":"event"},{"anonymous":false,"inputs":[{"indexed":true,"internalType":"uint256","name":"campaignId","type":"uint256"}],"name":"CampaignPaused","type":"event"},{"anonymous":false,"inputs":[{"indexed":true,"internalType":"uint256","name":"campaignId","type":"uint256"}],"name":"CampaignRefunded","type":"event"},{"anonymous":false,"inputs":[{"indexed":true,"internalType":"uint256","name":"campaignId","type":"uint256"}],"name":"CampaignReopened","type":"event"},{"anonymous":false,"inputs":[{"indexed":true,"internalType":"uint256","name":"campaignId","type":"uint256"}],"name":"CampaignUnpaused","type":"event"},{"anonymous":false,"inputs":[{"indexed":true,"internalType":"uint256","name":"campaignId","type":"uint256"},{"indexed":false,"internalType":"string","name":"field","type":"string"}],"name":"CampaignUpdated","type":"event"},{"anonymous":false,"inputs":[{"indexed":true,"internalType":"uint256","name":"campaignId","type":"uint256"},{"indexed":false,"internalType":"uint256","name":"gross","type":"uint256"},{"indexed":false,"internalType":"uint256","name":"net","type":"uint256"},{"indexed":false,"internalType":"uint256","name":"tip","type":"uint256"},{"indexed":false,"internalType":"bool","name":"isOnchain","type":"bool"}],"name":"ContributionRecorded","type":"event"},{"anonymous":false,"inputs":[{"indexed":false,"internalType":"uint96","name":"newRoyaltyBps","type":"uint96"}],"name":"DefaultRoyaltyUpdated","type":"event"},{"anonymous":false,"inputs":[{"indexed":true,"internalType":"uint256","name":"campaignId","type":"uint256"},{"indexed":true,"internalType":"uint256","name":"tokenId","type":"uint256"},{"indexed":true,"internalType":"address","name":"donor","type":"address"},{"indexed":false,"internalType":"uint256","name":"editionNumber","type":"uint256"},{"indexed":false,"internalType":"uint256","name":"amountPaid","type":"uint256"}],"name":"EditionMinted","type":"event"},{"anonymous":false,"inputs":[{"indexed":true,"internalType":"address","name":"to","type":"address"},{"indexed":false,"internalType":"uint256","name":"amount","type":"uint256"}],"name":"EmergencyWithdraw","type":"event"},{"anonymous":false,"inputs":[{"indexed":true,"internalType":"uint256","name":"campaignId","type":"uint256"},{"indexed":true,"internalType":"address","name":"submitter","type":"address"},{"indexed":false,"internalType":"uint256","name":"submitterAmount","type":"uint256"},{"indexed":false,"internalType":"uint256","name":"platformFee","type":"uint256"},{"indexed":false,"internalType":"uint256","name":"tipAmount","type":"uint256"}],"name":"FundsDistributed","type":"event"},{"anonymous":false,"inputs":[{"indexed":true,"internalType":"uint256","name":"campaignId","type":"uint256"},{"indexed":true,"internalType":"address","name":"recipient","type":"address"},{"indexed":false,"internalType":"uint256","name":"amount","type":"uint256"},{"indexed":false,"internalType":"string","name":"recipientType","type":"string"}],"name":"ImmediatePayoutSent","type":"event"},{"anonymous":false,"inputs":[{"indexed":false,"internalType":"uint256","name":"_tokenId","type":"uint256"}],"name":"MetadataUpdate","type":"event"},{"anonymous":false,"inputs":[{"indexed":true,"internalType":"address","name":"previousOwner","type":"address"},{"indexed":true,"internalType":"address","name":"newOwner","type":"address"}],"name":"OwnershipTransferred","type":"event"},{"anonymous":false,"inputs":[{"indexed":false,"internalType":"address","name":"account","type":"address"}],"name":"Paused","type":"event"},{"anonymous":false,"inputs":[{"indexed":false,"internalType":"uint16","name":"oldFeeBps","type":"uint16"},{"indexed":false,"internalType":"uint16","name":"newFeeBps","type":"uint16"}],"name":"PlatformFeeUpdated","type":"event"},{"anonymous":false,"inputs":[{"indexed":true,"internalType":"uint256","name":"campaignId","type":"uint256"},{"indexed":false,"internalType":"uint256","name":"oldPriceNative","type":"uint256"},{"indexed":false,"internalType":"uint256","name":"newPriceNative","type":"uint256"},{"indexed":false,"internalType":"uint256","name":"newPriceUsd","type":"uint256"}],"name":"PriceUpdated","type":"event"},{"anonymous":false,"inputs":[{"indexed":true,"internalType":"uint256","name":"tokenId","type":"uint256"},{"indexed":true,"internalType":"address","name":"burner","type":"address"}],"name":"TokenBurned","type":"event"},{"anonymous":false,"inputs":[{"indexed":true,"internalType":"uint256","name":"tokenId","type":"uint256"},{"indexed":false,"internalType":"bool","name":"frozen","type":"bool"}],"name":"TokenFrozen","type":"event"},{"anonymous":false,"inputs":[{"indexed":true,"internalType":"uint256","name":"tokenId","type":"uint256"},{"indexed":false,"internalType":"bool","name":"soulbound","type":"bool"}],"name":"TokenSoulbound","type":"event"},{"anonymous":false,"inputs":[{"indexed":true,"internalType":"uint256","name":"tokenId","type":"uint256"},{"indexed":false,"internalType":"string","name":"newURI","type":"string"}],"name":"TokenURIFixed","type":"event"},{"anonymous":false,"inputs":[{"indexed":true,"internalType":"address","name":"from","type":"address"},{"indexed":true,"internalType":"address","name":"to","type":"address"},{"indexed":true,"internalType":"uint256","name":"tokenId","type":"uint256"}],"name":"Transfer","type":"event"},{"anonymous":false,"inputs":[{"indexed":true,"internalType":"address","name":"oldTreasury","type":"address"},{"indexed":true,"internalType":"address","name":"newTreasury","type":"address"}],"name":"TreasuryUpdated","type":"event"},{"anonymous":false,"inputs":[{"indexed":false,"internalType":"address","name":"account","type":"address"}],"name":"Unpaused","type":"event"},{"stateMutability":"payable","type":"fallback"},{"inputs":[],"name":"BPS_DENOMINATOR","outputs":[{"internalType":"uint256","name":"","type":"uint256"}],"stateMutability":"view","type":"function"},{"inputs":[],"name":"MAX_BATCH_SIZE","outputs":[{"internalType":"uint256","name":"","type":"uint256"}],"stateMutability":"view","type":"function"},{"inputs":[],"name":"MAX_FEE_BPS","outputs":[{"internalType":"uint256","name":"","type":"uint256"}],"stateMutability":"view","type":"function"},{"inputs":[],"name":"VERSION","outputs":[{"internalType":"uint256","name":"","type":"uint256"}],"stateMutability":"view","type":"function"},{"inputs":[{"internalType":"address","name":"to","type":"address"},{"internalType":"uint256","name":"tokenId","type":"uint256"}],"name":"approve","outputs":[],"stateMutability":"nonpayable","type":"function"},{"inputs":[{"internalType":"address","name":"owner","type":"address"}],"name":"balanceOf","outputs":[{"internalType":"uint256","name":"","type":"uint256"}],"stateMutability":"view","type":"function"},{"inputs":[{"internalType":"uint256","name":"campaignId","type":"uint256"},{"internalType":"uint256","name":"quantity","type":"uint256"}],"name":"batchMint","outputs":[{"internalType":"uint256[]","name":"","type":"uint256[]"}],"stateMutability":"payable","type":"function"},{"inputs":[{"internalType":"uint256","name":"campaignId","type":"uint256"},{"internalType":"uint256","name":"quantity","type":"uint256"},{"internalType":"uint256","name":"tipAmount","type":"uint256"}],"name":"batchMintWithTip","outputs":[{"internalType":"uint256[]","name":"","type":"uint256[]"}],"stateMutability":"payable","type":"function"},{"inputs":[{"internalType":"uint256[]","name":"tokenIds","type":"uint256[]"},{"internalType":"string","name":"uri","type":"string"}],"name":"batchSetTokenURI","outputs":[],"stateMutability":"nonpayable","type":"function"},{"inputs":[{"internalType":"address","name":"","type":"address"}],"name":"blacklisted","outputs":[{"internalType":"bool","name":"","type":"bool"}],"stateMutability":"view","type":"function"},{"inputs":[],"name":"bugBountyPool","outputs":[{"internalType":"uint256","name":"","type":"uint256"}],"stateMutability":"view","type":"function"},{"inputs":[{"internalType":"uint256","name":"","type":"uint256"}],"name":"campaignDistributed","outputs":[{"internalType":"uint256","name":"","type":"uint256"}],"stateMutability":"view","type":"function"},{"inputs":[{"internalType":"uint256","name":"","type":"uint256"},{"internalType":"uint256","name":"","type":"uint256"}],"name":"campaignEditions","outputs":[{"internalType":"uint256","name":"","type":"uint256"}],"stateMutability":"view","type":"function"},{"inputs":[{"internalType":"uint256","name":"","type":"uint256"}],"name":"campaigns","outputs":[{"internalType":"string","name":"category","type":"string"},{"internalType":"string","name":"baseURI","type":"string"},{"internalType":"uint256","name":"goalNative","type":"uint256"},{"internalType":"uint256","name":"goalUsd","type":"uint256"},{"internalType":"uint256","name":"grossRaised","type":"uint256"},{"internalType":"uint256","name":"netRaised","type":"uint256"},{"internalType":"uint256","name":"tipsReceived","type":"uint256"},{"internalType":"uint256","name":"editionsMinted","type":"uint256"},{"internalType":"uint256","name":"maxEditions","type":"uint256"},{"internalType":"uint256","name":"priceNative","type":"uint256"},{"internalType":"uint256","name":"priceUsd","type":"uint256"},{"internalType":"address","name":"nonprofit","type":"address"},{"internalType":"address","name":"submitter","type":"address"},{"internalType":"bool","name":"active","type":"bool"},{"internalType":"bool","name":"paused","type":"bool"},{"internalType":"bool","name":"closed","type":"bool"},{"internalType":"bool","name":"refunded","type":"bool"},{"internalType":"bool","name":"immediatePayoutEnabled","type":"bool"}],"stateMutability":"view","type":"function"},{"inputs":[{"internalType":"uint256","name":"campaignId","type":"uint256"}],"name":"closeCampaign","outputs":[],"stateMutability":"nonpayable","type":"function"},{"inputs":[{"internalType":"string","name":"category","type":"string"},{"internalType":"string","name":"baseURI","type":"string"},{"internalType":"uint256","name":"goalNative","type":"uint256"},{"internalType":"uint256","name":"goalUsd","type":"uint256"},{"internalType":"uint256","name":"maxEditions","type":"uint256"},{"internalType":"uint256","name":"priceNative","type":"uint256"},{"internalType":"uint256","name":"priceUsd","type":"uint256"},{"internalType":"address","name":"nonprofit","type":"address"},{"internalType":"address","name":"submitter","type":"address"},{"internalType":"bool","name":"immediatePayoutEnabled","type":"bool"}],"name":"createCampaign","outputs":[{"internalType":"uint256","name":"","type":"uint256"}],"stateMutability":"nonpayable","type":"function"},{"inputs":[{"internalType":"uint256","name":"campaignId","type":"uint256"}],"name":"deactivateCampaign","outputs":[],"stateMutability":"nonpayable","type":"function"},{"inputs":[],"name":"defaultRoyaltyBps","outputs":[{"internalType":"uint96","name":"","type":"uint96"}],"stateMutability":"view","type":"function"},{"inputs":[],"name":"deleteDefaultRoyalty","outputs":[],"stateMutability":"nonpayable","type":"function"},{"inputs":[],"name":"deploymentChainId","outputs":[{"internalType":"uint256","name":"","type":"uint256"}],"stateMutability":"view","type":"function"},{"inputs":[{"internalType":"uint256","name":"campaignId","type":"uint256"}],"name":"distributePendingFunds","outputs":[],"stateMutability":"nonpayable","type":"function"},{"inputs":[],"name":"emergencyWithdraw","outputs":[],"stateMutability":"nonpayable","type":"function"},{"inputs":[{"internalType":"uint256","name":"fromTokenId","type":"uint256"},{"internalType":"uint256","name":"toTokenId","type":"uint256"}],"name":"emitBatchMetadataUpdate","outputs":[],"stateMutability":"nonpayable","type":"function"},{"inputs":[{"internalType":"uint256","name":"tokenId","type":"uint256"}],"name":"emitMetadataUpdate","outputs":[],"stateMutability":"nonpayable","type":"function"},{"inputs":[{"internalType":"uint256","name":"","type":"uint256"}],"name":"frozenTokens","outputs":[{"internalType":"bool","name":"","type":"bool"}],"stateMutability":"view","type":"function"},{"inputs":[],"name":"fundBugBounty","outputs":[],"stateMutability":"payable","type":"function"},{"inputs":[{"internalType":"uint256","name":"tokenId","type":"uint256"}],"name":"getApproved","outputs":[{"internalType":"address","name":"","type":"address"}],"stateMutability":"view","type":"function"},{"inputs":[{"internalType":"uint256","name":"campaignId","type":"uint256"}],"name":"getCampaign","outputs":[{"components":[{"internalType":"uint256","name":"id","type":"uint256"},{"internalType":"string","name":"category","type":"string"},{"internalType":"string","name":"baseURI","type":"string"},{"internalType":"uint256","name":"goalNative","type":"uint256"},{"internalType":"uint256","name":"goalUsd","type":"uint256"},{"internalType":"uint256","name":"grossRaised","type":"uint256"},{"internalType":"uint256","name":"netRaised","type":"uint256"},{"internalType":"uint256","name":"tipsReceived","type":"uint256"},{"internalType":"uint256","name":"editionsMinted","type":"uint256"},{"internalType":"uint256","name":"maxEditions","type":"uint256"},{"internalType":"uint256","name":"priceNative","type":"uint256"},{"internalType":"uint256","name":"priceUsd","type":"uint256"},{"internalType":"address","name":"nonprofit","type":"address"},{"internalType":"address","name":"submitter","type":"address"},{"internalType":"bool","name":"active","type":"bool"},{"internalType":"bool","name":"paused","type":"bool"},{"internalType":"bool","name":"closed","type":"bool"},{"internalType":"bool","name":"refunded","type":"bool"},{"internalType":"bool","name":"immediatePayoutEnabled","type":"bool"}],"internalType":"struct PatriotPledgeNFTV8.CampaignView","name":"","type":"tuple"}],"stateMutability":"view","type":"function"},{"inputs":[{"internalType":"uint256","name":"campaignId","type":"uint256"}],"name":"getCampaignEditions","outputs":[{"internalType":"uint256[]","name":"","type":"uint256[]"}],"stateMutability":"view","type":"function"},{"inputs":[{"internalType":"uint256","name":"tokenId","type":"uint256"}],"name":"getEditionInfo","outputs":[{"internalType":"uint256","name":"campaignId","type":"uint256"},{"internalType":"uint256","name":"editionNumber","type":"uint256"},{"internalType":"uint256","name":"totalEditions","type":"uint256"}],"stateMutability":"view","type":"function"},{"inputs":[{"internalType":"address","name":"owner","type":"address"},{"internalType":"address","name":"operator","type":"address"}],"name":"isApprovedForAll","outputs":[{"internalType":"bool","name":"","type":"bool"}],"stateMutability":"view","type":"function"},{"inputs":[{"internalType":"uint256","name":"campaignId","type":"uint256"}],"name":"markCampaignRefunded","outputs":[],"stateMutability":"nonpayable","type":"function"},{"inputs":[{"internalType":"uint256","name":"campaignId","type":"uint256"}],"name":"mint","outputs":[{"internalType":"uint256","name":"","type":"uint256"}],"stateMutability":"payable","type":"function"},{"inputs":[{"internalType":"uint256","name":"campaignId","type":"uint256"},{"internalType":"address","name":"donor","type":"address"},{"internalType":"uint256","name":"amountPaid","type":"uint256"}],"name":"mintEditionToDonor","outputs":[{"internalType":"uint256","name":"","type":"uint256"}],"stateMutability":"nonpayable","type":"function"},{"inputs":[{"internalType":"uint256","name":"campaignId","type":"uint256"}],"name":"mintWithBDAG","outputs":[{"internalType":"uint256","name":"","type":"uint256"}],"stateMutability":"payable","type":"function"},{"inputs":[{"internalType":"uint256","name":"campaignId","type":"uint256"},{"internalType":"uint256","name":"tipAmount","type":"uint256"}],"name":"mintWithBDAGAndTip","outputs":[{"internalType":"uint256","name":"","type":"uint256"}],"stateMutability":"payable","type":"function"},{"inputs":[{"internalType":"uint256","name":"campaignId","type":"uint256"},{"internalType":"uint256","name":"tipAmount","type":"uint256"}],"name":"mintWithTip","outputs":[{"internalType":"uint256","name":"","type":"uint256"}],"stateMutability":"payable","type":"function"},{"inputs":[],"name":"name","outputs":[{"internalType":"string","name":"","type":"string"}],"stateMutability":"view","type":"function"},{"inputs":[],"name":"owner","outputs":[{"internalType":"address","name":"","type":"address"}],"stateMutability":"view","type":"function"},{"inputs":[{"internalType":"uint256","name":"tokenId","type":"uint256"}],"name":"ownerOf","outputs":[{"internalType":"address","name":"","type":"address"}],"stateMutability":"view","type":"function"},{"inputs":[],"name":"pause","outputs":[],"stateMutability":"nonpayable","type":"function"},{"inputs":[{"internalType":"uint256","name":"campaignId","type":"uint256"}],"name":"pauseCampaign","outputs":[],"stateMutability":"nonpayable","type":"function"},{"inputs":[],"name":"paused","outputs":[{"internalType":"bool","name":"","type":"bool"}],"stateMutability":"view","type":"function"},{"inputs":[{"internalType":"address payable","name":"recipient","type":"address"},{"internalType":"uint256","name":"amount","type":"uint256"},{"internalType":"string","name":"reportId","type":"string"}],"name":"payBugBounty","outputs":[],"stateMutability":"nonpayable","type":"function"},{"inputs":[],"name":"platformFeeBps","outputs":[{"internalType":"uint16","name":"","type":"uint16"}],"stateMutability":"view","type":"function"},{"inputs":[],"name":"platformTreasury","outputs":[{"internalType":"address","name":"","type":"address"}],"stateMutability":"view","type":"function"},{"inputs":[{"internalType":"uint256","name":"campaignId","type":"uint256"}],"name":"reactivateCampaign","outputs":[],"stateMutability":"nonpayable","type":"function"},{"inputs":[{"internalType":"uint256","name":"campaignId","type":"uint256"},{"internalType":"uint256","name":"gross","type":"uint256"},{"internalType":"uint256","name":"net","type":"uint256"},{"internalType":"uint256","name":"tip","type":"uint256"},{"internalType":"bool","name":"isOnchain","type":"bool"}],"name":"recordContribution","outputs":[],"stateMutability":"nonpayable","type":"function"},{"inputs":[],"name":"renounceOwnership","outputs":[],"stateMutability":"nonpayable","type":"function"},{"inputs":[{"internalType":"uint256","name":"campaignId","type":"uint256"}],"name":"reopenCampaign","outputs":[],"stateMutability":"nonpayable","type":"function"},{"inputs":[{"internalType":"uint256","name":"tokenId","type":"uint256"},{"internalType":"uint256","name":"salePrice","type":"uint256"}],"name":"royaltyInfo","outputs":[{"internalType":"address","name":"","type":"address"},{"internalType":"uint256","name":"","type":"uint256"}],"stateMutability":"view","type":"function"},{"inputs":[{"internalType":"address","name":"from","type":"address"},{"internalType":"address","name":"to","type":"address"},{"internalType":"uint256","name":"tokenId","type":"uint256"}],"name":"safeTransferFrom","outputs":[],"stateMutability":"nonpayable","type":"function"},{"inputs":[{"internalType":"address","name":"from","type":"address"},{"internalType":"address","name":"to","type":"address"},{"internalType":"uint256","name":"tokenId","type":"uint256"},{"internalType":"bytes","name":"data","type":"bytes"}],"name":"safeTransferFrom","outputs":[],"stateMutability":"nonpayable","type":"function"},{"inputs":[{"internalType":"address","name":"operator","type":"address"},{"internalType":"bool","name":"approved","type":"bool"}],"name":"setApprovalForAll","outputs":[],"stateMutability":"nonpayable","type":"function"},{"inputs":[{"internalType":"address","name":"addr","type":"address"},{"internalType":"bool","name":"status","type":"bool"}],"name":"setBlacklisted","outputs":[],"stateMutability":"nonpayable","type":"function"},{"inputs":[{"internalType":"uint256","name":"campaignId","type":"uint256"},{"internalType":"bool","name":"enabled","type":"bool"}],"name":"setCampaignImmediatePayout","outputs":[],"stateMutability":"nonpayable","type":"function"},{"inputs":[{"internalType":"address","name":"receiver","type":"address"},{"internalType":"uint96","name":"feeNumerator","type":"uint96"}],"name":"setDefaultRoyalty","outputs":[],"stateMutability":"nonpayable","type":"function"},{"inputs":[{"internalType":"uint16","name":"_newFeeBps","type":"uint16"}],"name":"setPlatformFee","outputs":[],"stateMutability":"nonpayable","type":"function"},{"inputs":[{"internalType":"address","name":"newTreasury","type":"address"}],"name":"setPlatformTreasury","outputs":[],"stateMutability":"nonpayable","type":"function"},{"inputs":[{"internalType":"uint256","name":"tokenId","type":"uint256"},{"internalType":"bool","name":"frozen","type":"bool"}],"name":"setTokenFrozen","outputs":[],"stateMutability":"nonpayable","type":"function"},{"inputs":[{"internalType":"uint256","name":"tokenId","type":"uint256"},{"internalType":"address","name":"receiver","type":"address"},{"internalType":"uint96","name":"feeNumerator","type":"uint96"}],"name":"setTokenRoyalty","outputs":[],"stateMutability":"nonpayable","type":"function"},{"inputs":[{"internalType":"uint256","name":"tokenId","type":"uint256"},{"internalType":"bool","name":"_soulbound","type":"bool"}],"name":"setTokenSoulbound","outputs":[],"stateMutability":"nonpayable","type":"function"},{"inputs":[{"internalType":"uint256","name":"tokenId","type":"uint256"},{"internalType":"string","name":"uri","type":"string"}],"name":"setTokenURI","outputs":[],"stateMutability":"nonpayable","type":"function"},{"inputs":[{"internalType":"uint256","name":"","type":"uint256"}],"name":"soulbound","outputs":[{"internalType":"bool","name":"","type":"bool"}],"stateMutability":"view","type":"function"},{"inputs":[{"internalType":"bytes4","name":"interfaceId","type":"bytes4"}],"name":"supportsInterface","outputs":[{"internalType":"bool","name":"","type":"bool"}],"stateMutability":"view","type":"function"},{"inputs":[],"name":"symbol","outputs":[{"internalType":"string","name":"","type":"string"}],"stateMutability":"view","type":"function"},{"inputs":[{"internalType":"uint256","name":"index","type":"uint256"}],"name":"tokenByIndex","outputs":[{"internalType":"uint256","name":"","type":"uint256"}],"stateMutability":"view","type":"function"},{"inputs":[{"internalType":"uint256","name":"","type":"uint256"}],"name":"tokenEditionNumber","outputs":[{"internalType":"uint256","name":"","type":"uint256"}],"stateMutability":"view","type":"function"},{"inputs":[{"internalType":"address","name":"owner","type":"address"},{"internalType":"uint256","name":"index","type":"uint256"}],"name":"tokenOfOwnerByIndex","outputs":[{"internalType":"uint256","name":"","type":"uint256"}],"stateMutability":"view","type":"function"},{"inputs":[{"internalType":"uint256","name":"","type":"uint256"}],"name":"tokenToCampaign","outputs":[{"internalType":"uint256","name":"","type":"uint256"}],"stateMutability":"view","type":"function"},{"inputs":[{"internalType":"uint256","name":"tokenId","type":"uint256"}],"name":"tokenURI","outputs":[{"internalType":"string","name":"","type":"string"}],"stateMutability":"view","type":"function"},{"inputs":[],"name":"totalCampaigns","outputs":[{"internalType":"uint256","name":"","type":"uint256"}],"stateMutability":"view","type":"function"},{"inputs":[],"name":"totalSupply","outputs":[{"internalType":"uint256","name":"","type":"uint256"}],"stateMutability":"view","type":"function"},{"inputs":[{"internalType":"address","name":"from","type":"address"},{"internalType":"address","name":"to","type":"address"},{"internalType":"uint256","name":"tokenId","type":"uint256"}],"name":"transferFrom","outputs":[],"stateMutability":"nonpayable","type":"function"},{"inputs":[{"internalType":"address","name":"newOwner","type":"address"}],"name":"transferOwnership","outputs":[],"stateMutability":"nonpayable","type":"function"},{"inputs":[],"name":"unpause","outputs":[],"stateMutability":"nonpayable","type":"function"},{"inputs":[{"internalType":"uint256","name":"campaignId","type":"uint256"}],"name":"unpauseCampaign","outputs":[],"stateMutability":"nonpayable","type":"function"},{"inputs":[{"internalType":"uint256","name":"campaignId","type":"uint256"},{"internalType":"uint256","name":"newGoalNative","type":"uint256"},{"internalType":"uint256","name":"newGoalUsd","type":"uint256"}],"name":"updateCampaignGoal","outputs":[],"stateMutability":"nonpayable","type":"function"},{"inputs":[{"internalType":"uint256","name":"campaignId","type":"uint256"},{"internalType":"uint256","name":"newMax","type":"uint256"}],"name":"updateCampaignMaxEditions","outputs":[],"stateMutability":"nonpayable","type":"function"},{"inputs":[{"internalType":"uint256","name":"campaignId","type":"uint256"},{"internalType":"string","name":"newBaseURI","type":"string"}],"name":"updateCampaignMetadata","outputs":[],"stateMutability":"nonpayable","type":"function"},{"inputs":[{"internalType":"uint256","name":"campaignId","type":"uint256"},{"internalType":"address","name":"newNonprofit","type":"address"}],"name":"updateCampaignNonprofit","outputs":[],"stateMutability":"nonpayable","type":"function"},{"inputs":[{"internalType":"uint256","name":"campaignId","type":"uint256"},{"internalType":"uint256","name":"newPriceNative","type":"uint256"},{"internalType":"uint256","name":"newPriceUsd","type":"uint256"}],"name":"updateCampaignPrice","outputs":[],"stateMutability":"nonpayable","type":"function"},{"inputs":[{"internalType":"uint256","name":"campaignId","type":"uint256"},{"internalType":"address","name":"newSubmitter","type":"address"}],"name":"updateCampaignSubmitter","outputs":[],"stateMutability":"nonpayable","type":"function"},{"inputs":[{"internalType":"address payable","name":"to","type":"address"},{"internalType":"uint256","name":"amount","type":"uint256"}],"name":"withdraw","outputs":[],"stateMutability":"nonpayable","type":"function"},{"stateMutability":"payable","type":"receive"}],"evm":{"bytecode":{"linkReferences":{},"object":"60a034620004e05762005b6290601f19906001600160401b0390601f38859003818101851683019084821184831017620002875780849160409889948552833981010312620004e05781516001600160a01b038082169590929091869003620004e0576020809401519161ffff831691828403620004e05762000081620004e5565b91601583527f50617472696f74506c656467652045646974696f6e000000000000000000000087840152620000b5620004e5565b906003928383526250504560e81b8984015284518a811162000287576002546001968782811c92168015620004d5575b8c831014620003e7578b82858594116200047b575b50508b90848311600114620004145760009262000408575b505060001982871b1c191690861b176002555b8251928a841162000287578454928684811c94168015620003fd575b8b851014620003e75783838695116200038d575b508a9284116001146200032957506000926200031d575b505060001982841b1c191690831b1790555b33156200030557600d54885194339082167f8be0079c531659141344cd1fd0a4f28419497f9722a3daafe3b4186f6b6457e0600080a36001600160a81b0319163360ff60a01b191617600d55600e55601354928615620002d05750610bb8106200029d57601180546001600160a01b031916861790556001600160701b031990911660609190911b6dffff000000000000000000000000161760fa1760135546608052835180850192831181841017620002875791845282825260fa910152607d60a11b176000555161565c908162000506823960805181818161076b01528181610e5401528181611114015281816115c30152818161283d0152818161319301526135350152f35b634e487b7160e01b600052604160045260246000fd5b855162461bcd60e51b815260048101849052600c60248201526b08ccaca40e8dede40d0d2ced60a31b6044820152606490fd5b62461bcd60e51b815260048101859052601060248201526f496e76616c696420747265617375727960801b6044820152606490fd5b8751631e4fbdf760e01b815260006004820152602490fd5b0151905038806200016c565b86949291921691856000528a6000209260005b8c8282106200037657505084116200035d575b505050811b0190556200017e565b015160001983861b60f8161c191690553880806200034f565b83850151865589979095019493840193016200033c565b9091929350856000528a6000208480870160051c8201928d8810620003dd575b9187968a92969594930160051c01915b828110620003cd57505062000155565b60008155879650899101620003bd565b92508192620003ad565b634e487b7160e01b600052602260045260246000fd5b93607f169362000141565b01519050388062000112565b908c91868a9516600260005283600020936000905b8282106200046357505084116200044a575b505050811b0160025562000125565b015160001983891b60f8161c191690553880806200043b565b8385015186558c979095019493840193018f62000429565b90919250600260005284826000209181860160051c8301938610620004cb575b918a91869594930160051c01915b828110620004bb57508d9150620000fa565b600081558594508a9101620004a9565b925081926200049b565b91607f1691620000e5565b600080fd5b60408051919082016001600160401b03811183821017620002875760405256fe608080604052600436101561001a575b50361561001857005b005b60003560e01c90816301ffc9a714613a6b5750806302932f5614613a4d57806304634d8d1461395c57806306fdde03146138ae578063081812fc14613870578063095ea7b3146137895780630ed64eff146134fb5780630f8321ab14613487578063141961bc1461334e57806315e5b793146132a7578063162094c41461321f5780631797c8f21461315557806318160ddd1461313757806318d33e41146131105780631c4d8bc7146130845780631cc76d7514612fb15780631dda279b14612e205780631fdc217c14612d4857806322dcd13e14612d2357806323b872dd14612d0c57806325532ecd14612c505780632a55205a14612b9e5780632a76d55314612a825780632f745c59146129fe5780633190b9ea146129b75780633705f2a81461293e57806337e7b0ee146128b35780633b080a96146127ff5780633f4ba83a1461278d578063407de9df1461275c57806342842e0e1461272e57806343a19a65146126d057806347aa0dd01461264a5780634f6ccce7146125f45780635049e52f146125d65780635598f8cc146122e1578063573a2427146122b557806357487aa514611fe95780635944c75314611f145780635c975abb14611eee5780635cbc742c14611e355780636352211e14611e0557806364094ced14611d605780636fb8696c14611cd057806370a0823114611ca5578063715018a614611c4857806378e652b514611bbd5780637a18159714611b8c5780637cd86d6014611ae45780637eca30fe14611a6f5780638079ca0c14611a0f5780638456cb59146119ad5780638583d7c01461185e5780638da5cb5b146118355780638f52d21a1461171c57806395d89b4114611639578063a0712d6814611580578063a0a441bb14611519578063a22cb4651461146e578063a483011414611428578063a575008a146110d9578063aa1b103f146110ba578063b0e1c1e114611054578063b6358d9914611028578063b88d4fde14610fbe578063c169221314610f92578063c87b56dd14610f35578063c9d5084c14610e77578063cd0d009614610e3c578063cfdbf25414610e20578063d01dd6d214610da1578063d55be8c614610d84578063d696c0911461082e578063d88d6ef314610728578063db2e21bc14610679578063dbac26e91461063a578063de99347a146105d6578063e138818c146105ad578063e1a4521814610590578063e985e9c51461053a578063f2fde38b146104b1578063f3fef3a314610415578063f401f8a0146103e45763ffa1ad74146103c3573861000f565b346103df5760003660031901126103df57602060405160088152f35b600080fd5b346103df5760203660031901126103df576004356000526014602052602060ff604060002054166040519015158152f35b346103df5760403660031901126103df5761042e613b24565b6024356104396147a0565b610441614828565b8047106104755761046e916000918291829182916001600160a01b03165af1610468614722565b50614752565b6001600e55005b60405162461bcd60e51b8152602060048201526014602482015273496e73756666696369656e742062616c616e636560601b6044820152606490fd5b346103df5760203660031901126103df576104ca613b24565b6104d26147a0565b6001600160a01b0390811690811561052157600d54826001600160601b0360a01b821617600d55167f8be0079c531659141344cd1fd0a4f28419497f9722a3daafe3b4186f6b6457e0600080a3005b604051631e4fbdf760e01b815260006004820152602490fd5b346103df5760403660031901126103df57610553613b24565b61055b613b3a565b9060018060a01b03809116600052600760205260406000209116600052602052602060ff604060002054166040519015158152f35b346103df5760003660031901126103df5760206040516127108152f35b346103df5760003660031901126103df576011546040516001600160a01b039091168152602090f35b346103df5760203660031901126103df576004356105f26147a0565b6000818152601760205260408120600c01805460ff60a81b1916600160a81b1790557fab1902ee37c92d1a78dda53814d64b815e7e3ee287d60843a3dbd6954e3206b49080a2005b346103df5760203660031901126103df576001600160a01b0361065b613b24565b166000526015602052602060ff604060002054166040519015158152f35b346103df5760003660031901126103df576106926147a0565b61069a614828565b4780156106f6577f5fafa99d0643513820be26656b45130b01e1c03062e1266bf36f88cbd3bd9695602060018060a01b036106e360008080808886601154165af1610468614722565b6011541692604051908152a26001600e55005b60405162461bcd60e51b815260206004820152600a6024820152694e6f2062616c616e636560b01b6044820152606490fd5b60203660031901126103df5760206107e4600435610744614807565b336000526015835261075e60ff6040600020541615613e93565b610766614828565b6107917f00000000000000000000000000000000000000000000000000000000000000004614613ed8565b80600052601783526107df60406000206107c9600c82015460ff8160a01c16908161081e575b8161080e575b816107ff575b50613fb4565b600881015480159182156107f1575b5050613ff8565b6149d4565b6001600e55604051908152f35b6007015410905085806107d8565b60ff915060b81c1615876107c3565b905060ff8160b01c1615906107bd565b905060ff8160a81c1615906107b7565b346103df576101403660031901126103df576004356001600160401b0381116103df5761085f903690600401613d5d565b6024356001600160401b0381116103df5761087e903690600401613d5d565b9160e435916001600160a01b03831683036103df57610104356001600160a01b03811690036103df57610124359182151583036103df576108bd6147a0565b6108d4610104356001600160a01b03161515614680565b6108e86001600160a01b0385161515614640565b601054946108f586614551565b60105560405192836102408101106001600160401b0361024086011117610cf75761093691610240850160405261092d36858b613e5c565b85523691613e5c565b60208301526044356040830152606435606083015260006080830152600060a0830152600060c0830152600060e083015260843561010083015260a43561012083015260c43561014083015260018060a01b03841661016083015260018060a01b03610104351661018083015260016101a083015260006101c083015260006101e0830152600061020083015282151561022083015284600052601760205260406000209582518051906001600160401b038211610cf757610a02826109fc8b54613bfc565b8b61403b565b602090601f8311600114610d1857610a33929160009183610d0d575b50508160011b916000199060031b1c19161790565b87555b6020830151928351976001600160401b038911610cf757888895610a6c60209b610a636001860154613bfc565b6001860161403b565b8a90601f8311600114610c5057600c7f2ab86ea50b72d4284fda128c06ded7fa727600fb09348d670d9fb391a375f8b7979694610acc85610be696610bf8999661022096600092610c455750508160011b916000199060031b1c19161790565b60018201555b60408401516002820155606084015160038201556080840151600482015560a080850151600583015560c080860151600684015560e0860151600784015561010086015160088401556101208601516009840155610140860151600a840155610160860151600b840180546001600160a01b0319166001600160a01b039283161790556101808701519490930180546101a08801516101c08901516101e08a01516102008b015199909a01516001600160c81b0319909316979096169690961795151590931b60ff60a01b169490941792151560a81b60ff60a81b169290921794151560b01b60ff60b01b169490941792151560b81b60ff60b81b169290921792151590911b60ff60c01b16919091179055565b6040519260e0845260e0840191613f93565b604435888301526064356040830152608435606083015260a435608083015260c43560a083015293151560c08201526001600160a01b0361010435811695169381900390a4604051908152f35b015190503880610a1e565b60018493929897969594016000528b6000209060005b601f1984168110610cdd5750610be693600184610220947f2ab86ea50b72d4284fda128c06ded7fa727600fb09348d670d9fb391a375f8b79b9c600c95610bf89b9a98601f19811610610cc4575b505050811b016001820155610ad2565b015160001960f88460031b161c19169055388080610cb4565b818a01518355988d01988c98506001909201918d01610c66565b634e487b7160e01b600052604160045260246000fd5b015190508a80610a1e565b9190896000526020600020906000935b601f1984168510610d69576001945083601f19811610610d50575b505050811b018755610a36565b015160001960f88460031b161c19169055898080610d43565b81810151835560209485019460019093019290910190610d28565b346103df5760003660031901126103df576020604051610bb88152f35b346103df5760403660031901126103df57610dba613b24565b7f97b7af35c8c05eca90f543eb78b16fdf2664d3e6c9a907286f310647d9813b716020610de5613d4e565b92610dee6147a0565b6001600160a01b031660008181526015835260409020805460ff191660ff86151516179055925b6040519015158152a2005b346103df5760003660031901126103df57602060405160328152f35b346103df5760003660031901126103df5760206040517f00000000000000000000000000000000000000000000000000000000000000008152f35b346103df5760203660031901126103df57600435610e936147a0565b806000526017602052600c604060002001805460ff8160b01c1615610efa57610ec260ff8260b81c1615614091565b62ff00ff60a01b1916600160a01b1790557fc939ebb08504f6f162e423778b5c8dc66880bd30e8ce585de4c0612b2c5a238e600080a2005b60405162461bcd60e51b815260206004820152601360248201527210d85b5c185a59db881b9bdd0818db1bdcd959606a1b6044820152606490fd5b346103df5760203660031901126103df57600435610f52816147cc565b50600052600c602052610f8e610f6b6040600020613ca9565b6000604051610f7981613c6d565b52604051918291602083526020830190613b50565b0390f35b346103df5760203660031901126103df5760043560005260186020526020604060002054604051908152f35b346103df5760803660031901126103df57610fd7613b24565b610fdf613b3a565b90604435606435926001600160401b0384116103df57366023850112156103df57611017610018943690602481600401359101613e5c565b926110238383836140d5565b61546d565b346103df5760203660031901126103df5760043560005260196020526020604060002054604051908152f35b346103df5760203660031901126103df576004356110706147a0565b6000818152601760205260408120600c01805462ff00ff60a01b1916600160b01b1790557f5e6eb33a418de5dbbc17f989f7ae362cdfbb1748c5d603137c767027a354edbc9080a2005b346103df5760003660031901126103df576110d36147a0565b60008055005b6110e236613be2565b90916110ec614807565b33600052601560205261110760ff6040600020541615613e93565b61110f614828565b61113a7f00000000000000000000000000000000000000000000000000000000000000004614613ed8565b806000526017602052604060002091611170600c84015460ff8160a01c169081611418575b81611408575b816113f95750613fb4565b831515806113ee575b156113b6576008830154801590811561139e575b5015611362576111b56111ad826111a88760098801546144dc565b6144b9565b34101561484b565b6111be8461488e565b926111cc6040519485613c88565b848452601f196111db8661488e565b013660208601376111ec8234614715565b946111f781346144ef565b60005b82811061129857505050610f8e94600080516020615607833981519152928260046080940161122a3482546144b9565b90556006810161123b8382546144b9565b9055600c81015460c01c60ff16156112835750611259818387615259565b604051913483526020830152604082015260016060820152a26001600e5560405191829182613ba6565b6005016112918382546144b9565b9055611259565b600f908154916112a783614551565b90556112b66007860154614551565b8060078701556112c68333614c15565b6112db6112d560018801613ca9565b846148a5565b8260005260186020528760406000205560196020528060406000205587600052601a60205261130e83604060002061459c565b885182101561134c578260019360208460051b8c010152604051918252846020830152886000805160206155a783398151915260403394a4016111fa565b634e487b7160e01b600052603260045260246000fd5b60405162461bcd60e51b815260206004820152601460248201527345786365656473206d61782065646974696f6e7360601b6044820152606490fd5b90506113ae8560078601546144b9565b11158561118d565b60405162461bcd60e51b815260206004820152601060248201526f496e76616c6964207175616e7469747960801b6044820152606490fd5b506032841115611179565b60ff915060b81c1615866107c3565b905060ff8160b01c161590611165565b905060ff8160a81c16159061115f565b346103df577f6bd5c950a8d8df17f772f5af37cb3655737899cbf903264b9795592da439661c604061145936613b90565b6114616147a0565b82519182526020820152a1005b346103df5760403660031901126103df57611487613b24565b61148f613d4e565b6001600160a01b03909116908115611500573360005260076020526040600020826000526020526114d08160406000209060ff801983541691151516179055565b60405190151581527f17307eab39ab6107e8899845ad3d59bd9653f200f220920489ca2b5937696c3160203392a3005b604051630b61174360e31b815260048101839052602490fd5b346103df5760203660031901126103df576004356115356147a0565b6000818152601760205260408120600c01805463ff0000ff60a01b1916600160b81b1790557f4825b022b52da7a8de8063d9ea8fd654176315fff40077d4c0374f8e1d8a245b9080a2005b60203660031901126103df5760206107e460043561159c614807565b33600052601583526115b660ff6040600020541615613e93565b6115be614828565b6115e97f00000000000000000000000000000000000000000000000000000000000000004614613ed8565b80600052601783526107df60406000206107c960ff600c830154611611828260a01c1661450f565b611620828260a81c16156145bf565b61162f828260b01c1615613f12565b60b81c1615614600565b346103df5760003660031901126103df5760405160035460008261165c83613bfc565b91828252602093600190856001821691826000146116fc57505060011461169f575b5061168b92500383613c88565b610f8e604051928284938452830190613b50565b84915060036000527fc2575a0e9e593c00f959f8c92f12db2869c3395a3b0502d05e2516446f71f85b906000915b8583106116e457505061168b93508201018561167e565b805483890185015287945086939092019181016116cd565b60ff19168582015261168b95151560051b850101925087915061167e9050565b346103df5760403660031901126103df576004356001600160401b038082116103df57366023830112156103df578160040135908082116103df576024830192602436918460051b0101116103df576024359081116103df57611783903690600401613d5d565b9161178c6147a0565b60005b81811061179857005b806117a66001928488614790565b35600052602060048152828060a01b03604060002054166117c9575b500161178f565b6117e96117d783868a614790565b356117e3368989613e5c565b906148a5565b7fac6d62cb5d30a7fff578060cd3dcf46ff2df7991a71c2d2aabca7e558f130f7861182c61181884878b614790565b359260405191818392835282018a8a613f93565b0390a2866117c2565b346103df5760003660031901126103df57600d546040516001600160a01b039091168152602090f35b346103df5760603660031901126103df57611877613b24565b6024356044356001600160401b0381116103df57611899903690600401613d5d565b90916118a36147a0565b6118ab614828565b60125493848211611968576001600160a01b031693841561192f577fd24fd04b4a509fac28aab0419d3841217c53a8b375b372060993dc15c350ef7f936118f58361192593614715565b60125561190c6000808080878b5af1610468614722565b6040519384938452604060208501526040840191613f93565b0390a26001600e55005b60405162461bcd60e51b8152602060048201526011602482015270125b9d985b1a59081c9958da5c1a595b9d607a1b6044820152606490fd5b60405162461bcd60e51b815260206004820152601860248201527f496e73756666696369656e7420626f756e747920706f6f6c00000000000000006044820152606490fd5b346103df5760003660031901126103df576119c66147a0565b6119ce614807565b600d805460ff60a01b1916600160a01b1790556040513381527f62e78cea01bee320cd4e420270b5ea74000d11b0c9f74754ebdbfc544b05a25890602090a1005b346103df5760203660031901126103df576004356000526018602052604060002054601960205260406000205490806000526017602052610f8e600760406000200154604051938493846040919493926060820195825260208201520152565b346103df5760203660031901126103df57600435611a8b6147a0565b806000526017602052600c60406000200160ff60a01b1981541690556000805160206155e783398151915260405180611adf8160609060208152600660208201526561637469766560d01b60408201520190565b0390a2005b346103df5760203660031901126103df57611afd613b24565b611b056147a0565b6001600160a01b03908116908115611b5457601154826001600160601b0360a01b821617601155167f4ab5be82436d353e61ca18726e984e561f5c1cc7c6d38b29d2553c790434705a600080a3005b60405162461bcd60e51b815260206004820152601060248201526f496e76616c696420747265617375727960801b6044820152606490fd5b346103df5760203660031901126103df576004356000526016602052602060ff604060002054166040519015158152f35b346103df5760403660031901126103df576004357fbf025f2b09b91dc81d2b137bed7b878fb0bd75a3bfe4708d69989fda3c63485a6020611bfc613d4e565b611c046147a0565b6000848152600483526040902054611c26906001600160a01b03161515613f50565b8360005260148252610e158160406000209060ff801983541691151516179055565b346103df5760003660031901126103df57611c616147a0565b600d80546001600160a01b031981169091556000906001600160a01b03167f8be0079c531659141344cd1fd0a4f28419497f9722a3daafe3b4186f6b6457e08280a3005b346103df5760203660031901126103df576020611cc8611cc3613b24565b6146dc565b604051908152f35b346103df5760403660031901126103df57600435611cec613b3a565b611cf46147a0565b816000526017602052600c60406000200190815490611d1960ff8360b01c1615613f12565b6001600160a01b031690611d2e821515614680565b6001600160601b0360a01b161790556000805160206155e78339815191526040516020815280611adf602082016146c0565b346103df5760403660031901126103df57600435611d7c613b3a565b611d846147a0565b816000526017602052600b604060002091611da960ff600c85015460b01c1615613f12565b6001600160a01b031691611dbe831515614640565b01906001600160601b0360a01b8254161790556000805160206155e783398151915260606040516020815260096020820152681b9bdb9c1c9bd99a5d60ba1b6040820152a2005b346103df5760203660031901126103df576020611e236004356147cc565b6040516001600160a01b039091168152f35b346103df5760203660031901126103df5760043561ffff808216918281036103df57611e5f6147a0565b610bb88311611eba577f84e4fe32bf74c4011a7e1fde79c63acdffaf92a0112cde153e7b0abee665bc6b926040926013549261ffff60601b9060601b1661ffff60601b1984161760135583519260601c1682526020820152a1005b60405162461bcd60e51b815260206004820152600c60248201526b08ccaca40e8dede40d0d2ced60a31b6044820152606490fd5b346103df5760003660031901126103df57602060ff600d5460a01c166040519015158152f35b346103df5760603660031901126103df57600435611f30613b3a565b604435906001600160601b0382168092036103df57611f4d6147a0565b612710808311611fc557506001600160a01b03908116928315611fa65760405193611f7785613c36565b84526020808501938452600091825260019052604090209251915160a01b6001600160a01b0319169116179055005b60449060405190634b4f842960e11b8252600482015260006024820152fd5b83606491846040519263dfd1fc1b60e01b8452600484015260248301526044820152fd5b346103df576020806003193601126103df576004356120066147a0565b61200e614828565b80600052601782526005604060002001805490811561227d5781471061223857600090558160005260178352604060002061271061205561ffff60135460601c16846144dc565b0490612085826120658186614715565b9486600052601b8852604060002061207e8282546144b9565b9055614715565b612094600583019182546144b9565b905581612191575b826120dc575b916060916000805160206155c783398151915293600c60018060a01b03910154169560405192835282015260006040820152a36001600e55005b600c810160018060a01b0390600080808088868654165af16120fc614722565b50156121505791606093916000805160206155c7833981519152959354168660008051602061558783398151915260405186815260408b82015280612143604082016146c0565b0390a391935091506120a2565b60405162461bcd60e51b815260048101889052601960248201527814dd589b5a5d1d195c881d1c985b9cd9995c8819985a5b1959603a1b6044820152606490fd5b60018060a01b0360008080808685601154165af16121ad614722565b50156121f3576011541684600080516020615587833981519152608060405186815260408a8201526008604082015267706c6174666f726d60c01b6060820152a361209c565b60405162461bcd60e51b815260048101879052601c60248201527f506c6174666f726d20666565207472616e73666572206661696c6564000000006044820152606490fd5b60405162461bcd60e51b815260048101859052601d60248201527f496e73756666696369656e7420636f6e74726163742062616c616e63650000006044820152606490fd5b60405162461bcd60e51b815260048101859052601060248201526f4e6f2070656e64696e672066756e647360801b6044820152606490fd5b346103df5760203660031901126103df57600435600052601b6020526020604060002054604051908152f35b346103df5760203660031901126103df576040516122fe81613c51565b60008152602081016060905260408101606090526060810160009052608081016000905260a081016000905260c081016000905260e08101600090526101008101600090526101208101600090526101408101600090526101608101600090526101808101600090526101a08101600090526101c08101600090526101e0810160009052610200810160009052610220810160009052610240016000905260043560005260176020526040600020600281015460038201546004830154600584015460068501546007860154600887015491600988015493600a89015495600160a01b60019003600b8b01541697600c8b0154996040519b6123ff8d613c51565b6004358d528c61240e82613ca9565b906020015260010161241f90613ca9565b60408d015260608c015260808b015260a08a015260c089015260e0880152610100870152610120860152610140850152610160840152610180830152600160a01b6001900381166101a08301528060a01c60ff1615156101c08301528060a81c60ff1615156101e08301528060b01c60ff1615156102008301528060b81c60ff16151561022083015260c01c60ff16151561024082015260405180916020825280516020830152602081015160408301610260905261028083016124e291613b50565b6040820151838203601f190160608501526124fd9190613b50565b9060608101516080840152608081015160a084015260a081015160c084015260c081015160e084015260e0810151610100840152610100810151610120840152610120810151610140840152610140810151610160840152610160810151610180840152600160a01b60019003610180820151166101a0840152600160a01b600190036101a0820151166101c08401526101c081015115156101e08401526101e0810151151561020084015261020081015115156102208401526102208101511515610240840152610240015115156102608301520390f35b346103df5760003660031901126103df576020601254604051908152f35b346103df5760203660031901126103df57600435600a5481101561262b5761261d602091613df2565b90546040519160031b1c8152f35b6044906040519063295f44f760e21b8252600060048301526024820152fd5b60003660031901126103df57341561269957612668346012546144b9565b6012556040513481527f1da5cc6515d0bf0b6fb40cedcd4ef3eb9a5b820440278efc9321a4491b5dd1ef60203392a2005b60405162461bcd60e51b815260206004820152600f60248201526e4d7573742073656e642066756e647360881b6044820152606490fd5b346103df5760203660031901126103df576004356126ec6147a0565b6000818152601760205260408120600c01805460ff60a81b191690557f11aa0bd3fb4d9c5622c703f91610a74140a4f88a7ebc7b4faaeaf52e3cb7aa949080a2005b346103df5761001861273f36613dbd565b906040519261274d84613c6d565b600084526110238383836140d5565b346103df5761276a36613b90565b90600052601a602052604060002080548210156103df5760209161261d91613e29565b346103df5760003660031901126103df576127a66147a0565b600d5460ff8160a01c16156127ed5760ff60a01b1916600d556040513381527f5db9ee0a495bf2e6ff9c91a7834c1ba4fdd244a5e8aa4e537bd38aeae4b073aa90602090a1005b604051638dfc202b60e01b8152600490fd5b60206107e461280d36613b90565b90612816614807565b336000526015845261283060ff6040600020541615613e93565b612838614828565b6128637f00000000000000000000000000000000000000000000000000000000000000004614613ed8565b80600052601784526128a0604060002061288b60ff600c830154611611828260a01c1661450f565b600881015480159182156128a5575050613ff8565b614aea565b6007015410905086806107d8565b346103df5760403660031901126103df576004357f7fba17392135b4084a7d689c1f6d77139e1f1c18ee4651bf32dc35ae29ce930160206128f2613d4e565b6128fa6147a0565b600084815260048352604090205461291c906001600160a01b03161515613f50565b8360005260168252610e158160406000209060ff801983541691151516179055565b346103df576020806003193601126103df57600435600052601a6020526040600020906040519081602084549182815201936000526020600020916000905b8282106129a057610f8e8561299481890382613c88565b60405191829182613ba6565b83548652948501946001938401939091019061297d565b346103df5760203660031901126103df576129d06147a0565b7ff8e1a15aba9398e019f0b49df1a4fde98ee17ae345cb5f6b5e2c27f5033e8ce760206040516004358152a1005b346103df5760403660031901126103df57612a17613b24565b60243590612a24816146dc565b821015612a575760018060a01b031660005260086020526040600020906000526020526020604060002054604051908152f35b60405163295f44f760e21b81526001600160a01b039190911660048201526024810191909152604490fd5b346103df5760603660031901126103df576004356040612aa0613b3a565b91612aa96147a0565b80600052602092601784528260002091612adb60ff600c850154612ad1828260a01c1661450f565b60b01c1615613f12565b612af360088401548015908115612b90575b50613ff8565b6000805160206155a7833981519152600f54948593612b1185614551565b600f55612b44612b3e60016007890198612b2b8a54614551565b809a55612b388986614c15565b01613ca9565b866148a5565b84600052601888528382600020556019885285826000205583600052601a8852612b71858360002061459c565b8151958652604435888701526001600160a01b031694a4604051908152f35b905060078501541087612aed565b346103df57612bac36613b90565b906000526001602052604060002060405190612bc782613c36565b546001600160a01b0380821680845260a09290921c602084015291929015612c23575b612c05612710916001600160601b03602086015116906144dc565b925160408051939091166001600160a01b0316835292046020820152f35b9150612710612c05604051612c3781613c36565b600054848116825260a01c602082015293915050612bea565b346103df5760a03660031901126103df57600435602435604435606435916084358015158091036103df5760008051602061560783398151915293608093612c966147a0565b86600052601760205260066040600020612cba60ff600c83015460b01c1615613f12565b612cc484876144b9565b612cd3600483019182546144b9565b905560058101612ce48482546144b9565b905501612cf28382546144b9565b9055604051938452602084015260408301526060820152a2005b346103df57610018612d1d36613dbd565b916140d5565b346103df5760003660031901126103df57602061ffff60135460601c16604051908152f35b346103df5760203660031901126103df57600435612d646147a0565b806000526017602052600c604060002001805460ff8160b01c16612ddb57612d9260ff8260b81c1615614091565b60ff60a01b1916600160a01b1790556040805160208082526006908201526561637469766560d01b918101919091526000805160206155e7833981519152908060608101611adf565b60405162461bcd60e51b815260206004820152601b60248201527f43616d706169676e207065726d616e656e746c7920636c6f73656400000000006044820152606490fd5b346103df57612e2e36613d8a565b90612e376147a0565b82600052602090601782526040600020612e5b60ff600c83015460b01c1615613f12565b60018091016001600160401b038511610cf757612e8285612e7c8354613bfc565b8361403b565b600085601f8111600114612f4c5780612eb192600091612f41575b508160011b916000199060031b1c19161790565b90555b84600052601a83526040600020816000905b612f03575b60405185815287907fd0ed2732da48175aaae07fd675a2a78b1700515722f6675d7ff5f0e09f22f3099080611adf818a018b8a613f93565b8154811015612f3c57908282612f34612f1d839585613e29565b9054612f2a368c8b613e5c565b9160031b1c6148a5565b019091612ec6565b612ecb565b905085013589612e9d565b50601f198616908260005286866000209260005b8887838310612f9a5750505010612f80575b50508185811b019055612eb4565b840135600019600388901b60f8161c191690558680612f72565b858a0135875590950194938401938a935001612f60565b346103df57612fbf36613b90565b612fc76147a0565b8160005260176020526040600020612fe960ff600c83015460b01c1615613f12565b81158015613076575b1561303157600801556000805160206155e7833981519152606060405160208152600b60208201526a6d617845646974696f6e7360a81b6040820152a2005b60405162461bcd60e51b815260206004820152601a60248201527f43616e6e6f74207265647563652062656c6f77206d696e7465640000000000006044820152606490fd5b506007810154821015612ff2565b346103df577fc6d3da45896ce1bca9d198309a2dbeea3c73a991748f8d88d796ffa06029de936130b336613be2565b6130be9392936147a0565b836000526017602052611adf6040600020916130e460ff600c85015460b01c1615613f12565b80600a600985019486865496550155604051938493846040919493926060820195825260208201520152565b346103df5760003660031901126103df5760206001600160601b0360135416604051908152f35b346103df5760003660031901126103df576020600a54604051908152f35b60206107e461316336613b90565b9061316c614807565b336000526015845261318660ff6040600020541615613e93565b61318e614828565b6131b97f00000000000000000000000000000000000000000000000000000000000000004614613ed8565b80600052601784526128a0604060002061288b600c82015460ff8160a01c16908161320f575b816131ff575b816131f05750613fb4565b60ff915060b81c1615886107c3565b905060ff8160b01c1615906131e5565b905060ff8160a81c1615906131df565b346103df577fac6d62cb5d30a7fff578060cd3dcf46ff2df7991a71c2d2aabca7e558f130f7861324e36613d8a565b6132599392936147a0565b60008481526004602052604090205461327c906001600160a01b03161515613f50565b61329061328a368385613e5c565b856148a5565b611adf604051928392602084526020840191613f93565b346103df5760403660031901126103df5760043561330d6132c6613d4e565b6132ce6147a0565b826000526017602052600c6040600020016132f060ff825460b01c1615613f12565b805460ff60c01b191691151560c01b60ff60c01b16919091179055565b6000805160206155e783398151915260606040516020815260166020820152751a5b5b59591a585d1954185e5bdd5d115b98589b195960521b6040820152a2005b346103df5760203660031901126103df576004356000526017602052604060002061337881613ca9565b61338460018301613ca9565b90600283015492600381015490600481015490600581015460068201546007830154600884015490600985015492600a86015494600160a01b600190039788600b8901541697600c0154996040519d8e9d8e809e61024080835282016133e991613b50565b9080820390602001526133fb91613b50565b9c6040015260608d015260808c015260a08b015260c08a015260e089015261010088015261012087015261014086015261016085015281166101808401528060a01c60ff1615156101a08401528060a81c60ff1615156101c08401528060b01c60ff1615156101e08401528060b81c60ff16151561020084015260c01c60ff1615156102208301520390f35b346103df57600361349736613be2565b9192906134a26147a0565b8360005260176020526040600020906134c560ff600c84015460b01c1615613f12565b600282015501556000805160206155e7833981519152606060405160208152600460208201526319dbd85b60e21b6040820152a2005b61350436613b90565b9061350d614807565b33600052601560205261352860ff6040600020541615613e93565b613530614828565b61355b7f00000000000000000000000000000000000000000000000000000000000000004614613ed8565b8060005260176020526040600020613590600c82015460ff8160a01c169081613779575b81613769575b8161375a5750613fb4565b8215158061374f575b156113b65760088101548015908115613737575b5015611362576135c46111ad8460098401546144dc565b6135cd8361488e565b926135db6040519485613c88565b808452601f196135ea8261488e565b013660208601376135fb81346144ef565b60005b82811061368957610f8e8686866004810161361a3482546144b9565b9055600c81015460c01c60ff161561367457506136373482615066565b60008051602061560783398151915260806040513481523460208201526000604082015260016060820152a26001600e5560405191829182613ba6565b6005016136823482546144b9565b9055613637565b600f9081549161369883614551565b90556136a76007860154614551565b8060078701556136b78333614c15565b6136c66112d560018801613ca9565b8260005260186020528660406000205560196020528060406000205586600052601a6020526136f983604060002061459c565b875182101561134c578260019360208460051b8b010152604051918252846020830152876000805160206155a783398151915260403394a4016135fe565b90506137478460078401546144b9565b1115846135ad565b506032831115613599565b60ff915060b81c1615856107c3565b905060ff8160b01c161590613585565b905060ff8160a81c16159061357f565b346103df5760403660031901126103df576137a2613b24565b6024356137ae816147cc565b3315158061385d575b80613830575b613818576001600160a01b039283169282918491167f8c5be1e5ebec7d5bd14f71427d1e84f3dd0314c0f7b2291e5b200ac8c7c3b925600080a4600090815260066020526040902080546001600160a01b0319169091179055005b60405163a9fbf51f60e01b8152336004820152602490fd5b5060018060a01b038116600052600760205260406000203360005260205260ff60406000205416156137bd565b506001600160a01b0381163314156137b7565b346103df5760203660031901126103df5760043561388d816147cc565b506000526006602052602060018060a01b0360406000205416604051908152f35b346103df5760003660031901126103df576040516002546000826138d183613bfc565b91828252602093600190856001821691826000146116fc5750506001146138ff575061168b92500383613c88565b84915060026000527f405787fa12a823e0f2b7631cc41b3ba8828b3321ca811111fa75cd3aa3bb5ace906000915b85831061394457505061168b93508201018561167e565b8054838901850152879450869390920191810161392d565b346103df5760403660031901126103df57613975613b24565b6024356001600160601b038116918282036103df576139926147a0565b612710808411613a2f57506001600160a01b0316918215613a16577f35804d3532228d15c4fe3fa7a4fb8100c86dc285216e9c806f5d6f2cef5528399260209282846040516139e081613c36565b848152015260a01b6001600160a01b03191617600055601380546bffffffffffffffffffffffff191682179055604051908152a1005b604051635b6cc80560e11b815260006004820152602490fd5b8360449160405191636f483d0960e01b835260048301526024820152fd5b346103df5760003660031901126103df576020601054604051908152f35b346103df5760203660031901126103df576004359063ffffffff60e01b82168092036103df57602091632483248360e11b8114908115613aad575b5015158152f35b63780e9d6360e01b811491508115613ac7575b5083613aa6565b6380ac58cd60e01b811491508115613b13575b8115613ae8575b5083613ac0565b63152a902d60e11b811491508115613b02575b5083613ae1565b6301ffc9a760e01b14905083613afb565b635b5e139f60e01b81149150613ada565b600435906001600160a01b03821682036103df57565b602435906001600160a01b03821682036103df57565b919082519283825260005b848110613b7c575050826000602080949584010152601f8019910116010190565b602081830181015184830182015201613b5b565b60409060031901126103df576004359060243590565b602090602060408183019282815285518094520193019160005b828110613bce575050505090565b835185529381019392810192600101613bc0565b60609060031901126103df57600435906024359060443590565b90600182811c92168015613c2c575b6020831014613c1657565b634e487b7160e01b600052602260045260246000fd5b91607f1691613c0b565b604081019081106001600160401b03821117610cf757604052565b61026081019081106001600160401b03821117610cf757604052565b602081019081106001600160401b03821117610cf757604052565b90601f801991011681019081106001600160401b03821117610cf757604052565b90604051918260008254613cbc81613bfc565b90818452602094600191600181169081600014613d2c5750600114613ced575b505050613ceb92500383613c88565b565b600090815285812095935091905b818310613d14575050613ceb9350820101388080613cdc565b85548884018501529485019487945091830191613cfb565b92505050613ceb94925060ff191682840152151560051b820101388080613cdc565b6024359081151582036103df57565b9181601f840112156103df578235916001600160401b0383116103df57602083818601950101116103df57565b9060406003198301126103df5760043591602435906001600160401b0382116103df57613db991600401613d5d565b9091565b60609060031901126103df576001600160a01b039060043582811681036103df579160243590811681036103df579060443590565b600a5481101561134c57600a6000527fc65a7bb8d6351c1cf70c95a316cc6a92839c986682d98bc35f958f4883f9d2a80190600090565b805482101561134c5760005260206000200190600090565b6001600160401b038111610cf757601f01601f191660200190565b929192613e6882613e41565b91613e766040519384613c88565b8294818452818301116103df578281602093846000960137010152565b15613e9a57565b60405162461bcd60e51b81526020600482015260166024820152751059191c995cdcc81a5cc8189b1858dadb1a5cdd195960521b6044820152606490fd5b15613edf57565b60405162461bcd60e51b815260206004820152600b60248201526a2bb937b7339031b430b4b760a91b6044820152606490fd5b15613f1957565b60405162461bcd60e51b815260206004820152600f60248201526e10d85b5c185a59db8818db1bdcd959608a1b6044820152606490fd5b15613f5757565b60405162461bcd60e51b8152602060048201526014602482015273151bdad95b88191bd95cc81b9bdd08195e1a5cdd60621b6044820152606490fd5b908060209392818452848401376000828201840152601f01601f1916010190565b15613fbb57565b60405162461bcd60e51b815260206004820152601560248201527443616d706169676e206e6f74206d696e7461626c6560581b6044820152606490fd5b15613fff57565b60405162461bcd60e51b815260206004820152601460248201527313585e0819591a5d1a5bdb9cc81c995858da195960621b6044820152606490fd5b90601f811161404957505050565b6000916000526020600020906020601f850160051c83019410614087575b601f0160051c01915b82811061407c57505050565b818155600101614070565b9092508290614067565b1561409857565b60405162461bcd60e51b815260206004820152601560248201527410d85b5c185a59db881dd85cc81c99599d5b991959605a1b6044820152606490fd5b6001600160a01b0382811693919084156144a05760009183835260049560209387855260409484868320541680151580614498575b61436a575b5086825288815284868320541697331515806142d8575b50881580156142a5575b84845260058352878420805460010190558884528a835287842080546001600160a01b0319168617905588858b7fddf252ad1be2c89b69c2b068fc378daa952ba7f163c4a11628f55a4df523b3ef8780a41561422957600a54888452600b83528784205561419d88614560565b8389036141d8575b5050505016908184036141b9575050505050565b516364283d7b60e01b8152938401526024830152604482015260649150fd5b6141e1906146dc565b6000198101939084116142165782916009918894526008815283832085845281528884842055888352522055388080806141a5565b634e487b7160e01b835260118a52602483fd5b88841461419d57614239896146dc565b888452600983528784205481810361426e575b508884528388812055898452600883528784209084528252828781205561419d565b8a8552600884528885208286528452888520548b8652600885528986208287528552808a872055855260098452888520553861424c565b600089815260066020526040902080546001600160a01b0319169055898452600583528784208054600019019055614130565b80614329575b156142e95738614126565b878a888b61430657916024925191637e27328960e01b8352820152fd5b5163177e802f60e01b815233918101918252602082019290925281906040010390fd5b50338914801561434e575b806142de57508783526006825233868885205416146142de565b5088835260078252868320338452825260ff8784205416614334565b6014825260ff8784205416614463578783526016825260ff878420541661442b5782526015815260ff86832054166143f1578282526015815260ff86832054166143b4573861410f565b8860649187519162461bcd60e51b83528201526018602482015277149958da5c1a595b9d081a5cc8189b1858dadb1a5cdd195960421b6044820152fd5b8860649187519162461bcd60e51b8352820152601560248201527414d95b99195c881a5cc8189b1858dadb1a5cdd1959605a1b6044820152fd5b865162461bcd60e51b8152808b018390526012602482015271151bdad95b881a5cc81cdbdd5b189bdd5b9960721b6044820152606490fd5b865162461bcd60e51b8152808b01839052600f60248201526e2a37b5b2b71034b990333937bd32b760891b6044820152606490fd5b50600161410a565b604051633250574960e11b815260006004820152602490fd5b919082018092116144c657565b634e487b7160e01b600052601160045260246000fd5b818102929181159184041417156144c657565b81156144f9570490565b634e487b7160e01b600052601260045260246000fd5b1561451657565b60405162461bcd60e51b815260206004820152601360248201527243616d706169676e206e6f742061637469766560681b6044820152606490fd5b60001981146144c65760010190565b600a5490600160401b821015610cf757614583826001613ceb9401600a55613df2565b90919082549060031b91821b91600019901b1916179055565b90815491600160401b831015610cf75782614583916001613ceb95018155613e29565b156145c657565b60405162461bcd60e51b815260206004820152601260248201527110d85b5c185a59db881a5cc81c185d5cd95960721b6044820152606490fd5b1561460757565b60405162461bcd60e51b815260206004820152601160248201527010d85b5c185a59db881c99599d5b991959607a1b6044820152606490fd5b1561464757565b60405162461bcd60e51b8152602060048201526011602482015270125b9d985b1a59081b9bdb9c1c9bd99a5d607a1b6044820152606490fd5b1561468757565b60405162461bcd60e51b815260206004820152601160248201527024b73b30b634b21039bab136b4ba3a32b960791b6044820152606490fd5b600981526839bab136b4ba3a32b960b91b602082015260400190565b6001600160a01b031680156146fc57600052600560205260406000205490565b6040516322718ad960e21b815260006004820152602490fd5b919082039182116144c657565b3d1561474d573d9061473382613e41565b916147416040519384613c88565b82523d6000602084013e565b606090565b1561475957565b60405162461bcd60e51b815260206004820152600f60248201526e151c985b9cd9995c8819985a5b1959608a1b6044820152606490fd5b919081101561134c5760051b0190565b600d546001600160a01b031633036147b457565b60405163118cdaa760e01b8152336004820152602490fd5b6000818152600460205260409020546001600160a01b03169081156147ef575090565b60249060405190637e27328960e01b82526004820152fd5b60ff600d5460a01c1661481657565b60405163d93c066560e01b8152600490fd5b6002600e5414614839576002600e55565b604051633ee5aeb560e01b8152600490fd5b1561485257565b60405162461bcd60e51b8152602060048201526014602482015273125b9cdd59999a58da595b9d081c185e5b595b9d60621b6044820152606490fd5b6001600160401b038111610cf75760051b60200190565b919091600090808252602091600c835260408120908551956001600160401b0387116149c0576148df876148d98554613bfc565b8561403b565b8491601f881160011461493c57966149309281927ff8e1a15aba9398e019f0b49df1a4fde98ee17ae345cb5f6b5e2c27f5033e8ce7989992610c455750508160011b916000199060031b1c19161790565b90555b604051908152a1565b9190601f198816848452868420935b8181106149a957509160019391897ff8e1a15aba9398e019f0b49df1a4fde98ee17ae345cb5f6b5e2c27f5033e8ce7999a9410614990575b505050811b019055614933565b015160001960f88460031b161c19169055388080614983565b92938760018192878601518155019501930161494b565b634e487b7160e01b82526041600452602482fd5b600090808252600080516020615607833981519152608060206017815260409485812095614a08600988015434101561484b565b600f5496614a1588614551565b600f556007810190614a278254614551565b809255614a348933614c15565b614a49614a4360018301613ca9565b8a6148a5565b888452601885528783852055601985528183852055878452601a8552614a718984862061459c565b60048101614a803482546144b9565b9055600c81015460c01c60ff1615614ad55750614a9d3488615066565b8151908152348482015287876000805160206155a7833981519152843394a4805192348452349084015282015260016060820152a290565b600501614ae33482546144b9565b9055614a9d565b600080516020615607833981519152608060009383855260209060178252604080872096614b1f6111ad8460098b01546144b9565b600f5497614b2c89614551565b600f556007810190614b3e8254614551565b809255614b8c8a85614b508834614715565b95614b5b8333614c15565b614b6a6112d560018701613ca9565b82815260188a528c8282205560198a5285828220558c8152601a8a522061459c565b60048101614b9b3482546144b9565b905560068101614bac8682546144b9565b9055600c81015460c01c60ff1615614c005750614bca84838a615259565b8251908152348582015288886000805160206155a7833981519152853394a481519334855284015282015260016060820152a290565b600501614c0e8382546144b9565b9055614bca565b6040805190614c2382613c6d565b60008083526001600160a01b039484861693909190841561504e5782825260049560209787895280868520541680151580615046575b614f16575b5084845287895285842054168681159182159283614ee3575b82875260058c52888720805460010190558787528a8c5288872080546001600160a01b031916841790558783837fddf252ad1be2c89b69c2b068fc378daa952ba7f163c4a11628f55a4df523b3ef8a80a415614e6557600a54878752600b8c5288872055614ce487614560565b03614e19575b614e02573b614cfd575b50505050505050565b86614d3a918596979899955180938192630a85bd0160e11b97888452338d8501528760248501526044840152608060648401526084830190613b50565b0381858a5af190829082614db7575b5050614d7f57505050614d5a614722565b80519485614d7957505051633250574960e11b81529182015260249150fd5b85925001fd5b9195506001600160e01b031990911603614da25750505038808080808080614cf4565b51633250574960e11b81529182015260249150fd5b909192508881813d8311614dfb575b614dd08183613c88565b81010312614df75751906001600160e01b031982168203614df45750903880614d49565b80fd5b5080fd5b503d614dc6565b84516339e3563760e11b8152808801849052602490fd5b614e22826146dc565b6000198101908111614e525787855260088a528685208186528a52858786205585855260098a5286852055614cea565b634e487b7160e01b855260118952602485fd5b808214614ce457614e75816146dc565b87875260098c5288872054818103614eaa575b50878752868981205581875260088c528887209087528b528588812055614ce4565b82885260088d528988208289528d528c60088b8a205491858b52528d8b8a2090838b5252808b8a2055885260098d528988205538614e88565b600088815260066020526040902080546001600160a01b031916905581875260058c528887208054600019019055614c77565b60148a5260ff87862054166150115785855260168a5260ff8786205416614fd95784526015895260ff8685205416614f9e578684526015895260ff8685205416614f605738614c5e565b855162461bcd60e51b81528089018a90526018602482015277149958da5c1a595b9d081a5cc8189b1858dadb1a5cdd195960421b6044820152606490fd5b855162461bcd60e51b81528089018a9052601560248201527414d95b99195c881a5cc8189b1858dadb1a5cdd1959605a1b6044820152606490fd5b865162461bcd60e51b8152808a018b90526012602482015271151bdad95b881a5cc81cdbdd5b189bdd5b9960721b6044820152606490fd5b865162461bcd60e51b8152808a018b9052600f60248201526e2a37b5b2b71034b990333937bd32b760891b6044820152606490fd5b506001614c59565b8351633250574960e11b815260048101839052602490fd5b60009181835260209260178452604080822061271061508e61ffff60135460601c16866144dc565b04906150b48261509e8188614715565b96888752601b8a5285872061207e8282546144b9565b6150c3600583019182546144b9565b9055816151b7575b84615103575b600c01548251948552958401528201526001600160a01b03909216916000805160206155c783398151915290606090a3565b600c810160018060a01b0390858080808a868654165af1615122614722565b5015615177579160609593916000805160206155c78339815191529795935416886000805160206155878339815191528551888152868d820152806151688882016146c0565b0390a3919395509193506150d1565b845162461bcd60e51b8152600481018a9052601960248201527814dd589b5a5d1d195c881d1c985b9cd9995c8819985a5b1959603a1b6044820152606490fd5b60018060a01b03848080808685601154165af16151d2614722565b501561521557601154168660008051602061558783398151915260808651868152878c82015260088882015267706c6174666f726d60c01b6060820152a36150cb565b835162461bcd60e51b815260048101899052601c60248201527f506c6174666f726d20666565207472616e73666572206661696c6564000000006044820152606490fd5b90600090828252602093601785526040948584209061271061528461ffff60135460601c16866144dc565b04946152b886615298866111a8838a614715565b966152a387826144b9565b8a8552601b865261207e8c86209182546144b9565b6152c7600585019182546144b9565b9055856153cb575b84615317575b5050600c01549451918252602082019290925260408101919091526001600160a01b03909216916000805160206155c78339815191529080606081015b0390a3565b600c830160018060a01b039180808089868654165af1615335614722565b501561538b57918760008051602061558783398151915261531295936000805160206155c7833981519152999897955416928b8051918983528201528061537d8d82016146c0565b0390a39181939495506152d5565b885162461bcd60e51b815260048101849052601960248201527814dd589b5a5d1d195c881d1c985b9cd9995c8819985a5b1959603a1b6044820152606490fd5b60018060a01b03818080808a85601154165af16153e6614722565b501561542957601154168760008051602061558783398151915260808b518a81528c8782015260088d82015267706c6174666f726d60c01b6060820152a36152cf565b885162461bcd60e51b815260048101849052601c60248201527f506c6174666f726d20666565207472616e73666572206661696c6564000000006044820152606490fd5b9190803b61547c575b50505050565b6154be60018060a01b0380921694604051938493630a85bd0160e11b968786523360048701521660248501526044840152608060648401526084830190613b50565b03906020816000938185885af19082908261553d575b505061550c57826154e3614722565b805191908261550557604051633250574960e11b815260048101839052602490fd5b9050602001fd5b6001600160e01b03191603615525575038808080615476565b60249060405190633250574960e11b82526004820152fd5b909192506020813d60201161557e575b8161555a60209383613c88565b81010312614df75751906001600160e01b031982168203614df457509038806154d4565b3d915061554d56fec5116d0bff033daa6db9b6cf401237ef4f85a0a6cbe32bfb53d189b3e6c4bad644a73422883fd5aac8dde6ef3688c62f25a4fb22e7a395bafb411ec4803ab1bde6bf69167ad8e0c635fcc1b7beeafcc578b34e3c24b18668a3a118279345414a7a9a4f151cc0b6349bd7062416b8f68d1d73c3f457efc221520eb5547595d2d8f1a038a86c47446d2a26b7852348eee74e6d63d5a71792df01e40c2e6d0e1ca2a264697066735822122031d96c1bbb8c35253141d0decb6a04fc7fcf7086be1bcdf45a7368afb129068c64736f6c63430008180033","opcodes":"PUSH1 0xA0 CALLVALUE PUSH3 0x4E0 JUMPI PUSH3 0x5B62 SWAP1 PUSH1 0x1F NOT SWAP1 PUSH1 0x1 PUSH1 0x1 PUSH1 0x40 SHL SUB SWAP1 PUSH1 0x1F CODESIZE DUP6 SWAP1 SUB DUP2 DUP2 ADD DUP6 AND DUP4 ADD SWAP1 DUP5 DUP3 GT DUP5 DUP4 LT OR PUSH3 0x287 JUMPI DUP1 DUP5 SWAP2 PUSH1 0x40 SWAP9 DUP10 SWAP5 DUP6 MSTORE DUP4 CODECOPY DUP2 ADD SUB SLT PUSH3 0x4E0 JUMPI DUP2 MLOAD PUSH1 0x1 PUSH1 0x1 PUSH1 0xA0 SHL SUB DUP1 DUP3 AND SWAP6 SWAP1 SWAP3 SWAP1 SWAP2 DUP7 SWAP1 SUB PUSH3 0x4E0 JUMPI PUSH1 0x20 DUP1 SWAP5 ADD MLOAD SWAP2 PUSH2 0xFFFF DUP4 AND SWAP2 DUP3 DUP5 SUB PUSH3 0x4E0 JUMPI PUSH3 0x81 PUSH3 0x4E5 JUMP JUMPDEST SWAP2 PUSH1 0x15 DUP4 MSTORE PUSH32 0x50617472696F74506C656467652045646974696F6E0000000000000000000000 DUP8 DUP5 ADD MSTORE PUSH3 0xB5 PUSH3 0x4E5 JUMP JUMPDEST SWAP1 PUSH1 0x3 SWAP3 DUP4 DUP4 MSTORE PUSH3 0x505045 PUSH1 0xE8 SHL DUP10 DUP5 ADD MSTORE DUP5 MLOAD DUP11 DUP2 GT PUSH3 0x287 JUMPI PUSH1 0x2 SLOAD PUSH1 0x1 SWAP7 DUP8 DUP3 DUP2 SHR SWAP3 AND DUP1 ISZERO PUSH3 0x4D5 JUMPI JUMPDEST DUP13 DUP4 LT EQ PUSH3 0x3E7 JUMPI DUP12 DUP3 DUP6 DUP6 SWAP5 GT PUSH3 0x47B JUMPI JUMPDEST POP POP DUP12 SWAP1 DUP5 DUP4 GT PUSH1 0x1 EQ PUSH3 0x414 JUMPI PUSH1 0x0 SWAP3 PUSH3 0x408 JUMPI JUMPDEST POP POP PUSH1 0x0 NOT DUP3 DUP8 SHL SHR NOT AND SWAP1 DUP7 SHL OR PUSH1 0x2 SSTORE JUMPDEST DUP3 MLOAD SWAP3 DUP11 DUP5 GT PUSH3 0x287 JUMPI DUP5 SLOAD SWAP3 DUP7 DUP5 DUP2 SHR SWAP5 AND DUP1 ISZERO PUSH3 0x3FD JUMPI JUMPDEST DUP12 DUP6 LT EQ PUSH3 0x3E7 JUMPI DUP4 DUP4 DUP7 SWAP6 GT PUSH3 0x38D JUMPI JUMPDEST POP DUP11 SWAP3 DUP5 GT PUSH1 0x1 EQ PUSH3 0x329 JUMPI POP PUSH1 0x0 SWAP3 PUSH3 0x31D JUMPI JUMPDEST POP POP PUSH1 0x0 NOT DUP3 DUP5 SHL SHR NOT AND SWAP1 DUP4 SHL OR SWAP1 SSTORE JUMPDEST CALLER ISZERO PUSH3 0x305 JUMPI PUSH1 0xD SLOAD DUP9 MLOAD SWAP5 CALLER SWAP1 DUP3 AND PUSH32 0x8BE0079C531659141344CD1FD0A4F28419497F9722A3DAAFE3B4186F6B6457E0 PUSH1 0x0 DUP1 LOG3 PUSH1 0x1 PUSH1 0x1 PUSH1 0xA8 SHL SUB NOT AND CALLER PUSH1 0xFF PUSH1 0xA0 SHL NOT AND OR PUSH1 0xD SSTORE PUSH1 0xE SSTORE PUSH1 0x13 SLOAD SWAP3 DUP7 ISZERO PUSH3 0x2D0 JUMPI POP PUSH2 0xBB8 LT PUSH3 0x29D JUMPI PUSH1 0x11 DUP1 SLOAD PUSH1 0x1 PUSH1 0x1 PUSH1 0xA0 SHL SUB NOT AND DUP7 OR SWAP1 SSTORE PUSH1 0x1 PUSH1 0x1 PUSH1 0x70 SHL SUB NOT SWAP1 SWAP2 AND PUSH1 0x60 SWAP2 SWAP1 SWAP2 SHL PUSH14 0xFFFF000000000000000000000000 AND OR PUSH1 0xFA OR PUSH1 0x13 SSTORE CHAINID PUSH1 0x80 MSTORE DUP4 MLOAD DUP1 DUP6 ADD SWAP3 DUP4 GT DUP2 DUP5 LT OR PUSH3 0x287 JUMPI SWAP2 DUP5 MSTORE DUP3 DUP3 MSTORE PUSH1 0xFA SWAP2 ADD MSTORE PUSH1 0x7D PUSH1 0xA1 SHL OR PUSH1 0x0 SSTORE MLOAD PUSH2 0x565C SWAP1 DUP2 PUSH3 0x506 DUP3 CODECOPY PUSH1 0x80 MLOAD DUP2 DUP2 DUP2 PUSH2 0x76B ADD MSTORE DUP2 DUP2 PUSH2 0xE54 ADD MSTORE DUP2 DUP2 PUSH2 0x1114 ADD MSTORE DUP2 DUP2 PUSH2 0x15C3 ADD MSTORE DUP2 DUP2 PUSH2 0x283D ADD MSTORE DUP2 DUP2 PUSH2 0x3193 ADD MSTORE PUSH2 0x3535 ADD MSTORE RETURN JUMPDEST PUSH4 0x4E487B71 PUSH1 0xE0 SHL PUSH1 0x0 MSTORE PUSH1 0x41 PUSH1 0x4 MSTORE PUSH1 0x24 PUSH1 0x0 REVERT JUMPDEST DUP6 MLOAD PUSH3 0x461BCD PUSH1 0xE5 SHL DUP2 MSTORE PUSH1 0x4 DUP2 ADD DUP5 SWAP1 MSTORE PUSH1 0xC PUSH1 0x24 DUP3 ADD MSTORE PUSH12 0x8CCACA40E8DEDE40D0D2CED PUSH1 0xA3 SHL PUSH1 0x44 DUP3 ADD MSTORE PUSH1 0x64 SWAP1 REVERT JUMPDEST PUSH3 0x461BCD PUSH1 0xE5 SHL DUP2 MSTORE PUSH1 0x4 DUP2 ADD DUP6 SWAP1 MSTORE PUSH1 0x10 PUSH1 0x24 DUP3 ADD MSTORE PUSH16 0x496E76616C6964207472656173757279 PUSH1 0x80 SHL PUSH1 0x44 DUP3 ADD MSTORE PUSH1 0x64 SWAP1 REVERT JUMPDEST DUP8 MLOAD PUSH4 0x1E4FBDF7 PUSH1 0xE0 SHL DUP2 MSTORE PUSH1 0x0 PUSH1 0x4 DUP3 ADD MSTORE PUSH1 0x24 SWAP1 REVERT JUMPDEST ADD MLOAD SWAP1 POP CODESIZE DUP1 PUSH3 0x16C JUMP JUMPDEST DUP7 SWAP5 SWAP3 SWAP2 SWAP3 AND SWAP2 DUP6 PUSH1 0x0 MSTORE DUP11 PUSH1 0x0 KECCAK256 SWAP3 PUSH1 0x0 JUMPDEST DUP13 DUP3 DUP3 LT PUSH3 0x376 JUMPI POP POP DUP5 GT PUSH3 0x35D JUMPI JUMPDEST POP POP POP DUP2 SHL ADD SWAP1 SSTORE PUSH3 0x17E JUMP JUMPDEST ADD MLOAD PUSH1 0x0 NOT DUP4 DUP7 SHL PUSH1 0xF8 AND SHR NOT AND SWAP1 SSTORE CODESIZE DUP1 DUP1 PUSH3 0x34F JUMP JUMPDEST DUP4 DUP6 ADD MLOAD DUP7 SSTORE DUP10 SWAP8 SWAP1 SWAP6 ADD SWAP5 SWAP4 DUP5 ADD SWAP4 ADD PUSH3 0x33C JUMP JUMPDEST SWAP1 SWAP2 SWAP3 SWAP4 POP DUP6 PUSH1 0x0 MSTORE DUP11 PUSH1 0x0 KECCAK256 DUP5 DUP1 DUP8 ADD PUSH1 0x5 SHR DUP3 ADD SWAP3 DUP14 DUP9 LT PUSH3 0x3DD JUMPI JUMPDEST SWAP2 DUP8 SWAP7 DUP11 SWAP3 SWAP7 SWAP6 SWAP5 SWAP4 ADD PUSH1 0x5 SHR ADD SWAP2 JUMPDEST DUP3 DUP2 LT PUSH3 0x3CD JUMPI POP POP PUSH3 0x155 JUMP JUMPDEST PUSH1 0x0 DUP2 SSTORE DUP8 SWAP7 POP DUP10 SWAP2 ADD PUSH3 0x3BD JUMP JUMPDEST SWAP3 POP DUP2 SWAP3 PUSH3 0x3AD JUMP JUMPDEST PUSH4 0x4E487B71 PUSH1 0xE0 SHL PUSH1 0x0 MSTORE PUSH1 0x22 PUSH1 0x4 MSTORE PUSH1 0x24 PUSH1 0x0 REVERT JUMPDEST SWAP4 PUSH1 0x7F AND SWAP4 PUSH3 0x141 JUMP JUMPDEST ADD MLOAD SWAP1 POP CODESIZE DUP1 PUSH3 0x112 JUMP JUMPDEST SWAP1 DUP13 SWAP2 DUP7 DUP11 SWAP6 AND PUSH1 0x2 PUSH1 0x0 MSTORE DUP4 PUSH1 0x0 KECCAK256 SWAP4 PUSH1 0x0 SWAP1 JUMPDEST DUP3 DUP3 LT PUSH3 0x463 JUMPI POP POP DUP5 GT PUSH3 0x44A JUMPI JUMPDEST POP POP POP DUP2 SHL ADD PUSH1 0x2 SSTORE PUSH3 0x125 JUMP JUMPDEST ADD MLOAD PUSH1 0x0 NOT DUP4 DUP10 SHL PUSH1 0xF8 AND SHR NOT AND SWAP1 SSTORE CODESIZE DUP1 DUP1 PUSH3 0x43B JUMP JUMPDEST DUP4 DUP6 ADD MLOAD DUP7 SSTORE DUP13 SWAP8 SWAP1 SWAP6 ADD SWAP5 SWAP4 DUP5 ADD SWAP4 ADD DUP16 PUSH3 0x429 JUMP JUMPDEST SWAP1 SWAP2 SWAP3 POP PUSH1 0x2 PUSH1 0x0 MSTORE DUP5 DUP3 PUSH1 0x0 KECCAK256 SWAP2 DUP2 DUP7 ADD PUSH1 0x5 SHR DUP4 ADD SWAP4 DUP7 LT PUSH3 0x4CB JUMPI JUMPDEST SWAP2 DUP11 SWAP2 DUP7 SWAP6 SWAP5 SWAP4 ADD PUSH1 0x5 SHR ADD SWAP2 JUMPDEST DUP3 DUP2 LT PUSH3 0x4BB JUMPI POP DUP14 SWAP2 POP PUSH3 0xFA JUMP JUMPDEST PUSH1 0x0 DUP2 SSTORE DUP6 SWAP5 POP DUP11 SWAP2 ADD PUSH3 0x4A9 JUMP JUMPDEST SWAP3 POP DUP2 SWAP3 PUSH3 0x49B JUMP JUMPDEST SWAP2 PUSH1 0x7F AND SWAP2 PUSH3 0xE5 JUMP JUMPDEST PUSH1 0x0 DUP1 REVERT JUMPDEST PUSH1 0x40 DUP1 MLOAD SWAP2 SWAP1 DUP3 ADD PUSH1 0x1 PUSH1 0x1 PUSH1 0x40 SHL SUB DUP2 GT DUP4 DUP3 LT OR PUSH3 0x287 JUMPI PUSH1 0x40 MSTORE JUMP INVALID PUSH1 0x80 DUP1 PUSH1 0x40 MSTORE PUSH1 0x4 CALLDATASIZE LT ISZERO PUSH2 0x1A JUMPI JUMPDEST POP CALLDATASIZE ISZERO PUSH2 0x18 JUMPI STOP JUMPDEST STOP JUMPDEST PUSH1 0x0 CALLDATALOAD PUSH1 0xE0 SHR SWAP1 DUP2 PUSH4 0x1FFC9A7 EQ PUSH2 0x3A6B JUMPI POP DUP1 PUSH4 0x2932F56 EQ PUSH2 0x3A4D JUMPI DUP1 PUSH4 0x4634D8D EQ PUSH2 0x395C JUMPI DUP1 PUSH4 0x6FDDE03 EQ PUSH2 0x38AE JUMPI DUP1 PUSH4 0x81812FC EQ PUSH2 0x3870 JUMPI DUP1 PUSH4 0x95EA7B3 EQ PUSH2 0x3789 JUMPI DUP1 PUSH4 0xED64EFF EQ PUSH2 0x34FB JUMPI DUP1 PUSH4 0xF8321AB EQ PUSH2 0x3487 JUMPI DUP1 PUSH4 0x141961BC EQ PUSH2 0x334E JUMPI DUP1 PUSH4 0x15E5B793 EQ PUSH2 0x32A7 JUMPI DUP1 PUSH4 0x162094C4 EQ PUSH2 0x321F JUMPI DUP1 PUSH4 0x1797C8F2 EQ PUSH2 0x3155 JUMPI DUP1 PUSH4 0x18160DDD EQ PUSH2 0x3137 JUMPI DUP1 PUSH4 0x18D33E41 EQ PUSH2 0x3110 JUMPI DUP1 PUSH4 0x1C4D8BC7 EQ PUSH2 0x3084 JUMPI DUP1 PUSH4 0x1CC76D75 EQ PUSH2 0x2FB1 JUMPI DUP1 PUSH4 0x1DDA279B EQ PUSH2 0x2E20 JUMPI DUP1 PUSH4 0x1FDC217C EQ PUSH2 0x2D48 JUMPI DUP1 PUSH4 0x22DCD13E EQ PUSH2 0x2D23 JUMPI DUP1 PUSH4 0x23B872DD EQ PUSH2 0x2D0C JUMPI DUP1 PUSH4 0x25532ECD EQ PUSH2 0x2C50 JUMPI DUP1 PUSH4 0x2A55205A EQ PUSH2 0x2B9E JUMPI DUP1 PUSH4 0x2A76D553 EQ PUSH2 0x2A82 JUMPI DUP1 PUSH4 0x2F745C59 EQ PUSH2 0x29FE JUMPI DUP1 PUSH4 0x3190B9EA EQ PUSH2 0x29B7 JUMPI DUP1 PUSH4 0x3705F2A8 EQ PUSH2 0x293E JUMPI DUP1 PUSH4 0x37E7B0EE EQ PUSH2 0x28B3 JUMPI DUP1 PUSH4 0x3B080A96 EQ PUSH2 0x27FF JUMPI DUP1 PUSH4 0x3F4BA83A EQ PUSH2 0x278D JUMPI DUP1 PUSH4 0x407DE9DF EQ PUSH2 0x275C JUMPI DUP1 PUSH4 0x42842E0E EQ PUSH2 0x272E JUMPI DUP1 PUSH4 0x43A19A65 EQ PUSH2 0x26D0 JUMPI DUP1 PUSH4 0x47AA0DD0 EQ PUSH2 0x264A JUMPI DUP1 PUSH4 0x4F6CCCE7 EQ PUSH2 0x25F4 JUMPI DUP1 PUSH4 0x5049E52F EQ PUSH2 0x25D6 JUMPI DUP1 PUSH4 0x5598F8CC EQ PUSH2 0x22E1 JUMPI DUP1 PUSH4 0x573A2427 EQ PUSH2 0x22B5 JUMPI DUP1 PUSH4 0x57487AA5 EQ PUSH2 0x1FE9 JUMPI DUP1 PUSH4 0x5944C753 EQ PUSH2 0x1F14 JUMPI DUP1 PUSH4 0x5C975ABB EQ PUSH2 0x1EEE JUMPI DUP1 PUSH4 0x5CBC742C EQ PUSH2 0x1E35 JUMPI DUP1 PUSH4 0x6352211E EQ PUSH2 0x1E05 JUMPI DUP1 PUSH4 0x64094CED EQ PUSH2 0x1D60 JUMPI DUP1 PUSH4 0x6FB8696C EQ PUSH2 0x1CD0 JUMPI DUP1 PUSH4 0x70A08231 EQ PUSH2 0x1CA5 JUMPI DUP1 PUSH4 0x715018A6 EQ PUSH2 0x1C48 JUMPI DUP1 PUSH4 0x78E652B5 EQ PUSH2 0x1BBD JUMPI DUP1 PUSH4 0x7A181597 EQ PUSH2 0x1B8C JUMPI DUP1 PUSH4 0x7CD86D60 EQ PUSH2 0x1AE4 JUMPI DUP1 PUSH4 0x7ECA30FE EQ PUSH2 0x1A6F JUMPI DUP1 PUSH4 0x8079CA0C EQ PUSH2 0x1A0F JUMPI DUP1 PUSH4 0x8456CB59 EQ PUSH2 0x19AD JUMPI DUP1 PUSH4 0x8583D7C0 EQ PUSH2 0x185E JUMPI DUP1 PUSH4 0x8DA5CB5B EQ PUSH2 0x1835 JUMPI DUP1 PUSH4 0x8F52D21A EQ PUSH2 0x171C JUMPI DUP1 PUSH4 0x95D89B41 EQ PUSH2 0x1639 JUMPI DUP1 PUSH4 0xA0712D68 EQ PUSH2 0x1580 JUMPI DUP1 PUSH4 0xA0A441BB EQ PUSH2 0x1519 JUMPI DUP1 PUSH4 0xA22CB465 EQ PUSH2 0x146E JUMPI DUP1 PUSH4 0xA4830114 EQ PUSH2 0x1428 JUMPI DUP1 PUSH4 0xA575008A EQ PUSH2 0x10D9 JUMPI DUP1 PUSH4 0xAA1B103F EQ PUSH2 0x10BA JUMPI DUP1 PUSH4 0xB0E1C1E1 EQ PUSH2 0x1054 JUMPI DUP1 PUSH4 0xB6358D99 EQ PUSH2 0x1028 JUMPI DUP1 PUSH4 0xB88D4FDE EQ PUSH2 0xFBE JUMPI DUP1 PUSH4 0xC1692213 EQ PUSH2 0xF92 JUMPI DUP1 PUSH4 0xC87B56DD EQ PUSH2 0xF35 JUMPI DUP1 PUSH4 0xC9D5084C EQ PUSH2 0xE77 JUMPI DUP1 PUSH4 0xCD0D0096 EQ PUSH2 0xE3C JUMPI DUP1 PUSH4 0xCFDBF254 EQ PUSH2 0xE20 JUMPI DUP1 PUSH4 0xD01DD6D2 EQ PUSH2 0xDA1 JUMPI DUP1 PUSH4 0xD55BE8C6 EQ PUSH2 0xD84 JUMPI DUP1 PUSH4 0xD696C091 EQ PUSH2 0x82E JUMPI DUP1 PUSH4 0xD88D6EF3 EQ PUSH2 0x728 JUMPI DUP1 PUSH4 0xDB2E21BC EQ PUSH2 0x679 JUMPI DUP1 PUSH4 0xDBAC26E9 EQ PUSH2 0x63A JUMPI DUP1 PUSH4 0xDE99347A EQ PUSH2 0x5D6 JUMPI DUP1 PUSH4 0xE138818C EQ PUSH2 0x5AD JUMPI DUP1 PUSH4 0xE1A45218 EQ PUSH2 0x590 JUMPI DUP1 PUSH4 0xE985E9C5 EQ PUSH2 0x53A JUMPI DUP1 PUSH4 0xF2FDE38B EQ PUSH2 0x4B1 JUMPI DUP1 PUSH4 0xF3FEF3A3 EQ PUSH2 0x415 JUMPI DUP1 PUSH4 0xF401F8A0 EQ PUSH2 0x3E4 JUMPI PUSH4 0xFFA1AD74 EQ PUSH2 0x3C3 JUMPI CODESIZE PUSH2 0xF JUMP JUMPDEST CALLVALUE PUSH2 0x3DF JUMPI PUSH1 0x0 CALLDATASIZE PUSH1 0x3 NOT ADD SLT PUSH2 0x3DF JUMPI PUSH1 0x20 PUSH1 0x40 MLOAD PUSH1 0x8 DUP2 MSTORE RETURN JUMPDEST PUSH1 0x0 DUP1 REVERT JUMPDEST CALLVALUE PUSH2 0x3DF JUMPI PUSH1 0x20 CALLDATASIZE PUSH1 0x3 NOT ADD SLT PUSH2 0x3DF JUMPI PUSH1 0x4 CALLDATALOAD PUSH1 0x0 MSTORE PUSH1 0x14 PUSH1 0x20 MSTORE PUSH1 0x20 PUSH1 0xFF PUSH1 0x40 PUSH1 0x0 KECCAK256 SLOAD AND PUSH1 0x40 MLOAD SWAP1 ISZERO ISZERO DUP2 MSTORE RETURN JUMPDEST CALLVALUE PUSH2 0x3DF JUMPI PUSH1 0x40 CALLDATASIZE PUSH1 0x3 NOT ADD SLT PUSH2 0x3DF JUMPI PUSH2 0x42E PUSH2 0x3B24 JUMP JUMPDEST PUSH1 0x24 CALLDATALOAD PUSH2 0x439 PUSH2 0x47A0 JUMP JUMPDEST PUSH2 0x441 PUSH2 0x4828 JUMP JUMPDEST DUP1 SELFBALANCE LT PUSH2 0x475 JUMPI PUSH2 0x46E SWAP2 PUSH1 0x0 SWAP2 DUP3 SWAP2 DUP3 SWAP2 DUP3 SWAP2 PUSH1 0x1 PUSH1 0x1 PUSH1 0xA0 SHL SUB AND GAS CALL PUSH2 0x468 PUSH2 0x4722 JUMP JUMPDEST POP PUSH2 0x4752 JUMP JUMPDEST PUSH1 0x1 PUSH1 0xE SSTORE STOP JUMPDEST PUSH1 0x40 MLOAD PUSH3 0x461BCD PUSH1 0xE5 SHL DUP2 MSTORE PUSH1 0x20 PUSH1 0x4 DUP3 ADD MSTORE PUSH1 0x14 PUSH1 0x24 DUP3 ADD MSTORE PUSH20 0x496E73756666696369656E742062616C616E6365 PUSH1 0x60 SHL PUSH1 0x44 DUP3 ADD MSTORE PUSH1 0x64 SWAP1 REVERT JUMPDEST CALLVALUE PUSH2 0x3DF JUMPI PUSH1 0x20 CALLDATASIZE PUSH1 0x3 NOT ADD SLT PUSH2 0x3DF JUMPI PUSH2 0x4CA PUSH2 0x3B24 JUMP JUMPDEST PUSH2 0x4D2 PUSH2 0x47A0 JUMP JUMPDEST PUSH1 0x1 PUSH1 0x1 PUSH1 0xA0 SHL SUB SWAP1 DUP2 AND SWAP1 DUP2 ISZERO PUSH2 0x521 JUMPI PUSH1 0xD SLOAD DUP3 PUSH1 0x1 PUSH1 0x1 PUSH1 0x60 SHL SUB PUSH1 0xA0 SHL DUP3 AND OR PUSH1 0xD SSTORE AND PUSH32 0x8BE0079C531659141344CD1FD0A4F28419497F9722A3DAAFE3B4186F6B6457E0 PUSH1 0x0 DUP1 LOG3 STOP JUMPDEST PUSH1 0x40 MLOAD PUSH4 0x1E4FBDF7 PUSH1 0xE0 SHL DUP2 MSTORE PUSH1 0x0 PUSH1 0x4 DUP3 ADD MSTORE PUSH1 0x24 SWAP1 REVERT JUMPDEST CALLVALUE PUSH2 0x3DF JUMPI PUSH1 0x40 CALLDATASIZE PUSH1 0x3 NOT ADD SLT PUSH2 0x3DF JUMPI PUSH2 0x553 PUSH2 0x3B24 JUMP JUMPDEST PUSH2 0x55B PUSH2 0x3B3A JUMP JUMPDEST SWAP1 PUSH1 0x1 DUP1 PUSH1 0xA0 SHL SUB DUP1 SWAP2 AND PUSH1 0x0 MSTORE PUSH1 0x7 PUSH1 0x20 MSTORE PUSH1 0x40 PUSH1 0x0 KECCAK256 SWAP2 AND PUSH1 0x0 MSTORE PUSH1 0x20 MSTORE PUSH1 0x20 PUSH1 0xFF PUSH1 0x40 PUSH1 0x0 KECCAK256 SLOAD AND PUSH1 0x40 MLOAD SWAP1 ISZERO ISZERO DUP2 MSTORE RETURN JUMPDEST CALLVALUE PUSH2 0x3DF JUMPI PUSH1 0x0 CALLDATASIZE PUSH1 0x3 NOT ADD SLT PUSH2 0x3DF JUMPI PUSH1 0x20 PUSH1 0x40 MLOAD PUSH2 0x2710 DUP2 MSTORE RETURN JUMPDEST CALLVALUE PUSH2 0x3DF JUMPI PUSH1 0x0 CALLDATASIZE PUSH1 0x3 NOT ADD SLT PUSH2 0x3DF JUMPI PUSH1 0x11 SLOAD PUSH1 0x40 MLOAD PUSH1 0x1 PUSH1 0x1 PUSH1 0xA0 SHL SUB SWAP1 SWAP2 AND DUP2 MSTORE PUSH1 0x20 SWAP1 RETURN JUMPDEST CALLVALUE PUSH2 0x3DF JUMPI PUSH1 0x20 CALLDATASIZE PUSH1 0x3 NOT ADD SLT PUSH2 0x3DF JUMPI PUSH1 0x4 CALLDATALOAD PUSH2 0x5F2 PUSH2 0x47A0 JUMP JUMPDEST PUSH1 0x0 DUP2 DUP2 MSTORE PUSH1 0x17 PUSH1 0x20 MSTORE PUSH1 0x40 DUP2 KECCAK256 PUSH1 0xC ADD DUP1 SLOAD PUSH1 0xFF PUSH1 0xA8 SHL NOT AND PUSH1 0x1 PUSH1 0xA8 SHL OR SWAP1 SSTORE PUSH32 0xAB1902EE37C92D1A78DDA53814D64B815E7E3EE287D60843A3DBD6954E3206B4 SWAP1 DUP1 LOG2 STOP JUMPDEST CALLVALUE PUSH2 0x3DF JUMPI PUSH1 0x20 CALLDATASIZE PUSH1 0x3 NOT ADD SLT PUSH2 0x3DF JUMPI PUSH1 0x1 PUSH1 0x1 PUSH1 0xA0 SHL SUB PUSH2 0x65B PUSH2 0x3B24 JUMP JUMPDEST AND PUSH1 0x0 MSTORE PUSH1 0x15 PUSH1 0x20 MSTORE PUSH1 0x20 PUSH1 0xFF PUSH1 0x40 PUSH1 0x0 KECCAK256 SLOAD AND PUSH1 0x40 MLOAD SWAP1 ISZERO ISZERO DUP2 MSTORE RETURN JUMPDEST CALLVALUE PUSH2 0x3DF JUMPI PUSH1 0x0 CALLDATASIZE PUSH1 0x3 NOT ADD SLT PUSH2 0x3DF JUMPI PUSH2 0x692 PUSH2 0x47A0 JUMP JUMPDEST PUSH2 0x69A PUSH2 0x4828 JUMP JUMPDEST SELFBALANCE DUP1 ISZERO PUSH2 0x6F6 JUMPI PUSH32 0x5FAFA99D0643513820BE26656B45130B01E1C03062E1266BF36F88CBD3BD9695 PUSH1 0x20 PUSH1 0x1 DUP1 PUSH1 0xA0 SHL SUB PUSH2 0x6E3 PUSH1 0x0 DUP1 DUP1 DUP1 DUP9 DUP7 PUSH1 0x11 SLOAD AND GAS CALL PUSH2 0x468 PUSH2 0x4722 JUMP JUMPDEST PUSH1 0x11 SLOAD AND SWAP3 PUSH1 0x40 MLOAD SWAP1 DUP2 MSTORE LOG2 PUSH1 0x1 PUSH1 0xE SSTORE STOP JUMPDEST PUSH1 0x40 MLOAD PUSH3 0x461BCD PUSH1 0xE5 SHL DUP2 MSTORE PUSH1 0x20 PUSH1 0x4 DUP3 ADD MSTORE PUSH1 0xA PUSH1 0x24 DUP3 ADD MSTORE PUSH10 0x4E6F2062616C616E6365 PUSH1 0xB0 SHL PUSH1 0x44 DUP3 ADD MSTORE PUSH1 0x64 SWAP1 REVERT JUMPDEST PUSH1 0x20 CALLDATASIZE PUSH1 0x3 NOT ADD SLT PUSH2 0x3DF JUMPI PUSH1 0x20 PUSH2 0x7E4 PUSH1 0x4 CALLDATALOAD PUSH2 0x744 PUSH2 0x4807 JUMP JUMPDEST CALLER PUSH1 0x0 MSTORE PUSH1 0x15 DUP4 MSTORE PUSH2 0x75E PUSH1 0xFF PUSH1 0x40 PUSH1 0x0 KECCAK256 SLOAD AND ISZERO PUSH2 0x3E93 JUMP JUMPDEST PUSH2 0x766 PUSH2 0x4828 JUMP JUMPDEST PUSH2 0x791 PUSH32 0x0 CHAINID EQ PUSH2 0x3ED8 JUMP JUMPDEST DUP1 PUSH1 0x0 MSTORE PUSH1 0x17 DUP4 MSTORE PUSH2 0x7DF PUSH1 0x40 PUSH1 0x0 KECCAK256 PUSH2 0x7C9 PUSH1 0xC DUP3 ADD SLOAD PUSH1 0xFF DUP2 PUSH1 0xA0 SHR AND SWAP1 DUP2 PUSH2 0x81E JUMPI JUMPDEST DUP2 PUSH2 0x80E JUMPI JUMPDEST DUP2 PUSH2 0x7FF JUMPI JUMPDEST POP PUSH2 0x3FB4 JUMP JUMPDEST PUSH1 0x8 DUP2 ADD SLOAD DUP1 ISZERO SWAP2 DUP3 ISZERO PUSH2 0x7F1 JUMPI JUMPDEST POP POP PUSH2 0x3FF8 JUMP JUMPDEST PUSH2 0x49D4 JUMP JUMPDEST PUSH1 0x1 PUSH1 0xE SSTORE PUSH1 0x40 MLOAD SWAP1 DUP2 MSTORE RETURN JUMPDEST PUSH1 0x7 ADD SLOAD LT SWAP1 POP DUP6 DUP1 PUSH2 0x7D8 JUMP JUMPDEST PUSH1 0xFF SWAP2 POP PUSH1 0xB8 SHR AND ISZERO DUP8 PUSH2 0x7C3 JUMP JUMPDEST SWAP1 POP PUSH1 0xFF DUP2 PUSH1 0xB0 SHR AND ISZERO SWAP1 PUSH2 0x7BD JUMP JUMPDEST SWAP1 POP PUSH1 0xFF DUP2 PUSH1 0xA8 SHR AND ISZERO SWAP1 PUSH2 0x7B7 JUMP JUMPDEST CALLVALUE PUSH2 0x3DF JUMPI PUSH2 0x140 CALLDATASIZE PUSH1 0x3 NOT ADD SLT PUSH2 0x3DF JUMPI PUSH1 0x4 CALLDATALOAD PUSH1 0x1 PUSH1 0x1 PUSH1 0x40 SHL SUB DUP2 GT PUSH2 0x3DF JUMPI PUSH2 0x85F SWAP1 CALLDATASIZE SWAP1 PUSH1 0x4 ADD PUSH2 0x3D5D JUMP JUMPDEST PUSH1 0x24 CALLDATALOAD PUSH1 0x1 PUSH1 0x1 PUSH1 0x40 SHL SUB DUP2 GT PUSH2 0x3DF JUMPI PUSH2 0x87E SWAP1 CALLDATASIZE SWAP1 PUSH1 0x4 ADD PUSH2 0x3D5D JUMP JUMPDEST SWAP2 PUSH1 0xE4 CALLDATALOAD SWAP2 PUSH1 0x1 PUSH1 0x1 PUSH1 0xA0 SHL SUB DUP4 AND DUP4 SUB PUSH2 0x3DF JUMPI PUSH2 0x104 CALLDATALOAD PUSH1 0x1 PUSH1 0x1 PUSH1 0xA0 SHL SUB DUP2 AND SWAP1 SUB PUSH2 0x3DF JUMPI PUSH2 0x124 CALLDATALOAD SWAP2 DUP3 ISZERO ISZERO DUP4 SUB PUSH2 0x3DF JUMPI PUSH2 0x8BD PUSH2 0x47A0 JUMP JUMPDEST PUSH2 0x8D4 PUSH2 0x104 CALLDATALOAD PUSH1 0x1 PUSH1 0x1 PUSH1 0xA0 SHL SUB AND ISZERO ISZERO PUSH2 0x4680 JUMP JUMPDEST PUSH2 0x8E8 PUSH1 0x1 PUSH1 0x1 PUSH1 0xA0 SHL SUB DUP6 AND ISZERO ISZERO PUSH2 0x4640 JUMP JUMPDEST PUSH1 0x10 SLOAD SWAP5 PUSH2 0x8F5 DUP7 PUSH2 0x4551 JUMP JUMPDEST PUSH1 0x10 SSTORE PUSH1 0x40 MLOAD SWAP3 DUP4 PUSH2 0x240 DUP2 ADD LT PUSH1 0x1 PUSH1 0x1 PUSH1 0x40 SHL SUB PUSH2 0x240 DUP7 ADD GT OR PUSH2 0xCF7 JUMPI PUSH2 0x936 SWAP2 PUSH2 0x240 DUP6 ADD PUSH1 0x40 MSTORE PUSH2 0x92D CALLDATASIZE DUP6 DUP12 PUSH2 0x3E5C JUMP JUMPDEST DUP6 MSTORE CALLDATASIZE SWAP2 PUSH2 0x3E5C JUMP JUMPDEST PUSH1 0x20 DUP4 ADD MSTORE PUSH1 0x44 CALLDATALOAD PUSH1 0x40 DUP4 ADD MSTORE PUSH1 0x64 CALLDATALOAD PUSH1 0x60 DUP4 ADD MSTORE PUSH1 0x0 PUSH1 0x80 DUP4 ADD MSTORE PUSH1 0x0 PUSH1 0xA0 DUP4 ADD MSTORE PUSH1 0x0 PUSH1 0xC0 DUP4 ADD MSTORE PUSH1 0x0 PUSH1 0xE0 DUP4 ADD MSTORE PUSH1 0x84 CALLDATALOAD PUSH2 0x100 DUP4 ADD MSTORE PUSH1 0xA4 CALLDATALOAD PUSH2 0x120 DUP4 ADD MSTORE PUSH1 0xC4 CALLDATALOAD PUSH2 0x140 DUP4 ADD MSTORE PUSH1 0x1 DUP1 PUSH1 0xA0 SHL SUB DUP5 AND PUSH2 0x160 DUP4 ADD MSTORE PUSH1 0x1 DUP1 PUSH1 0xA0 SHL SUB PUSH2 0x104 CALLDATALOAD AND PUSH2 0x180 DUP4 ADD MSTORE PUSH1 0x1 PUSH2 0x1A0 DUP4 ADD MSTORE PUSH1 0x0 PUSH2 0x1C0 DUP4 ADD MSTORE PUSH1 0x0 PUSH2 0x1E0 DUP4 ADD MSTORE PUSH1 0x0 PUSH2 0x200 DUP4 ADD MSTORE DUP3 ISZERO ISZERO PUSH2 0x220 DUP4 ADD MSTORE DUP5 PUSH1 0x0 MSTORE PUSH1 0x17 PUSH1 0x20 MSTORE PUSH1 0x40 PUSH1 0x0 KECCAK256 SWAP6 DUP3 MLOAD DUP1 MLOAD SWAP1 PUSH1 0x1 PUSH1 0x1 PUSH1 0x40 SHL SUB DUP3 GT PUSH2 0xCF7 JUMPI PUSH2 0xA02 DUP3 PUSH2 0x9FC DUP12 SLOAD PUSH2 0x3BFC JUMP JUMPDEST DUP12 PUSH2 0x403B JUMP JUMPDEST PUSH1 0x20 SWAP1 PUSH1 0x1F DUP4 GT PUSH1 0x1 EQ PUSH2 0xD18 JUMPI PUSH2 0xA33 SWAP3 SWAP2 PUSH1 0x0 SWAP2 DUP4 PUSH2 0xD0D JUMPI JUMPDEST POP POP DUP2 PUSH1 0x1 SHL SWAP2 PUSH1 0x0 NOT SWAP1 PUSH1 0x3 SHL SHR NOT AND OR SWAP1 JUMP JUMPDEST DUP8 SSTORE JUMPDEST PUSH1 0x20 DUP4 ADD MLOAD SWAP3 DUP4 MLOAD SWAP8 PUSH1 0x1 PUSH1 0x1 PUSH1 0x40 SHL SUB DUP10 GT PUSH2 0xCF7 JUMPI DUP9 DUP9 SWAP6 PUSH2 0xA6C PUSH1 0x20 SWAP12 PUSH2 0xA63 PUSH1 0x1 DUP7 ADD SLOAD PUSH2 0x3BFC JUMP JUMPDEST PUSH1 0x1 DUP7 ADD PUSH2 0x403B JUMP JUMPDEST DUP11 SWAP1 PUSH1 0x1F DUP4 GT PUSH1 0x1 EQ PUSH2 0xC50 JUMPI PUSH1 0xC PUSH32 0x2AB86EA50B72D4284FDA128C06DED7FA727600FB09348D670D9FB391A375F8B7 SWAP8 SWAP7 SWAP5 PUSH2 0xACC DUP6 PUSH2 0xBE6 SWAP7 PUSH2 0xBF8 SWAP10 SWAP7 PUSH2 0x220 SWAP7 PUSH1 0x0 SWAP3 PUSH2 0xC45 JUMPI POP POP DUP2 PUSH1 0x1 SHL SWAP2 PUSH1 0x0 NOT SWAP1 PUSH1 0x3 SHL SHR NOT AND OR SWAP1 JUMP JUMPDEST PUSH1 0x1 DUP3 ADD SSTORE JUMPDEST PUSH1 0x40 DUP5 ADD MLOAD PUSH1 0x2 DUP3 ADD SSTORE PUSH1 0x60 DUP5 ADD MLOAD PUSH1 0x3 DUP3 ADD SSTORE PUSH1 0x80 DUP5 ADD MLOAD PUSH1 0x4 DUP3 ADD SSTORE PUSH1 0xA0 DUP1 DUP6 ADD MLOAD PUSH1 0x5 DUP4 ADD SSTORE PUSH1 0xC0 DUP1 DUP7 ADD MLOAD PUSH1 0x6 DUP5 ADD SSTORE PUSH1 0xE0 DUP7 ADD MLOAD PUSH1 0x7 DUP5 ADD SSTORE PUSH2 0x100 DUP7 ADD MLOAD PUSH1 0x8 DUP5 ADD SSTORE PUSH2 0x120 DUP7 ADD MLOAD PUSH1 0x9 DUP5 ADD SSTORE PUSH2 0x140 DUP7 ADD MLOAD PUSH1 0xA DUP5 ADD SSTORE PUSH2 0x160 DUP7 ADD MLOAD PUSH1 0xB DUP5 ADD DUP1 SLOAD PUSH1 0x1 PUSH1 0x1 PUSH1 0xA0 SHL SUB NOT AND PUSH1 0x1 PUSH1 0x1 PUSH1 0xA0 SHL SUB SWAP3 DUP4 AND OR SWAP1 SSTORE PUSH2 0x180 DUP8 ADD MLOAD SWAP5 SWAP1 SWAP4 ADD DUP1 SLOAD PUSH2 0x1A0 DUP9 ADD MLOAD PUSH2 0x1C0 DUP10 ADD MLOAD PUSH2 0x1E0 DUP11 ADD MLOAD PUSH2 0x200 DUP12 ADD MLOAD SWAP10 SWAP1 SWAP11 ADD MLOAD PUSH1 0x1 PUSH1 0x1 PUSH1 0xC8 SHL SUB NOT SWAP1 SWAP4 AND SWAP8 SWAP1 SWAP7 AND SWAP7 SWAP1 SWAP7 OR SWAP6 ISZERO ISZERO SWAP1 SWAP4 SHL PUSH1 0xFF PUSH1 0xA0 SHL AND SWAP5 SWAP1 SWAP5 OR SWAP3 ISZERO ISZERO PUSH1 0xA8 SHL PUSH1 0xFF PUSH1 0xA8 SHL AND SWAP3 SWAP1 SWAP3 OR SWAP5 ISZERO ISZERO PUSH1 0xB0 SHL PUSH1 0xFF PUSH1 0xB0 SHL AND SWAP5 SWAP1 SWAP5 OR SWAP3 ISZERO ISZERO PUSH1 0xB8 SHL PUSH1 0xFF PUSH1 0xB8 SHL AND SWAP3 SWAP1 SWAP3 OR SWAP3 ISZERO ISZERO SWAP1 SWAP2 SHL PUSH1 0xFF PUSH1 0xC0 SHL AND SWAP2 SWAP1 SWAP2 OR SWAP1 SSTORE JUMP JUMPDEST PUSH1 0x40 MLOAD SWAP3 PUSH1 0xE0 DUP5 MSTORE PUSH1 0xE0 DUP5 ADD SWAP2 PUSH2 0x3F93 JUMP JUMPDEST PUSH1 0x44 CALLDATALOAD DUP9 DUP4 ADD MSTORE PUSH1 0x64 CALLDATALOAD PUSH1 0x40 DUP4 ADD MSTORE PUSH1 0x84 CALLDATALOAD PUSH1 0x60 DUP4 ADD MSTORE PUSH1 0xA4 CALLDATALOAD PUSH1 0x80 DUP4 ADD MSTORE PUSH1 0xC4 CALLDATALOAD PUSH1 0xA0 DUP4 ADD MSTORE SWAP4 ISZERO ISZERO PUSH1 0xC0 DUP3 ADD MSTORE PUSH1 0x1 PUSH1 0x1 PUSH1 0xA0 SHL SUB PUSH2 0x104 CALLDATALOAD DUP2 AND SWAP6 AND SWAP4 DUP2 SWAP1 SUB SWAP1 LOG4 PUSH1 0x40 MLOAD SWAP1 DUP2 MSTORE RETURN JUMPDEST ADD MLOAD SWAP1 POP CODESIZE DUP1 PUSH2 0xA1E JUMP JUMPDEST PUSH1 0x1 DUP5 SWAP4 SWAP3 SWAP9 SWAP8 SWAP7 SWAP6 SWAP5 ADD PUSH1 0x0 MSTORE DUP12 PUSH1 0x0 KECCAK256 SWAP1 PUSH1 0x0 JUMPDEST PUSH1 0x1F NOT DUP5 AND DUP2 LT PUSH2 0xCDD JUMPI POP PUSH2 0xBE6 SWAP4 PUSH1 0x1 DUP5 PUSH2 0x220 SWAP5 PUSH32 0x2AB86EA50B72D4284FDA128C06DED7FA727600FB09348D670D9FB391A375F8B7 SWAP12 SWAP13 PUSH1 0xC SWAP6 PUSH2 0xBF8 SWAP12 SWAP11 SWAP9 PUSH1 0x1F NOT DUP2 AND LT PUSH2 0xCC4 JUMPI JUMPDEST POP POP POP DUP2 SHL ADD PUSH1 0x1 DUP3 ADD SSTORE PUSH2 0xAD2 JUMP JUMPDEST ADD MLOAD PUSH1 0x0 NOT PUSH1 0xF8 DUP5 PUSH1 0x3 SHL AND SHR NOT AND SWAP1 SSTORE CODESIZE DUP1 DUP1 PUSH2 0xCB4 JUMP JUMPDEST DUP2 DUP11 ADD MLOAD DUP4 SSTORE SWAP9 DUP14 ADD SWAP9 DUP13 SWAP9 POP PUSH1 0x1 SWAP1 SWAP3 ADD SWAP2 DUP14 ADD PUSH2 0xC66 JUMP JUMPDEST PUSH4 0x4E487B71 PUSH1 0xE0 SHL PUSH1 0x0 MSTORE PUSH1 0x41 PUSH1 0x4 MSTORE PUSH1 0x24 PUSH1 0x0 REVERT JUMPDEST ADD MLOAD SWAP1 POP DUP11 DUP1 PUSH2 0xA1E JUMP JUMPDEST SWAP2 SWAP1 DUP10 PUSH1 0x0 MSTORE PUSH1 0x20 PUSH1 0x0 KECCAK256 SWAP1 PUSH1 0x0 SWAP4 JUMPDEST PUSH1 0x1F NOT DUP5 AND DUP6 LT PUSH2 0xD69 JUMPI PUSH1 0x1 SWAP5 POP DUP4 PUSH1 0x1F NOT DUP2 AND LT PUSH2 0xD50 JUMPI JUMPDEST POP POP POP DUP2 SHL ADD DUP8 SSTORE PUSH2 0xA36 JUMP JUMPDEST ADD MLOAD PUSH1 0x0 NOT PUSH1 0xF8 DUP5 PUSH1 0x3 SHL AND SHR NOT AND SWAP1 SSTORE DUP10 DUP1 DUP1 PUSH2 0xD43 JUMP JUMPDEST DUP2 DUP2 ADD MLOAD DUP4 SSTORE PUSH1 0x20 SWAP5 DUP6 ADD SWAP5 PUSH1 0x1 SWAP1 SWAP4 ADD SWAP3 SWAP1 SWAP2 ADD SWAP1 PUSH2 0xD28 JUMP JUMPDEST CALLVALUE PUSH2 0x3DF JUMPI PUSH1 0x0 CALLDATASIZE PUSH1 0x3 NOT ADD SLT PUSH2 0x3DF JUMPI PUSH1 0x20 PUSH1 0x40 MLOAD PUSH2 0xBB8 DUP2 MSTORE RETURN JUMPDEST CALLVALUE PUSH2 0x3DF JUMPI PUSH1 0x40 CALLDATASIZE PUSH1 0x3 NOT ADD SLT PUSH2 0x3DF JUMPI PUSH2 0xDBA PUSH2 0x3B24 JUMP JUMPDEST PUSH32 0x97B7AF35C8C05ECA90F543EB78B16FDF2664D3E6C9A907286F310647D9813B71 PUSH1 0x20 PUSH2 0xDE5 PUSH2 0x3D4E JUMP JUMPDEST SWAP3 PUSH2 0xDEE PUSH2 0x47A0 JUMP JUMPDEST PUSH1 0x1 PUSH1 0x1 PUSH1 0xA0 SHL SUB AND PUSH1 0x0 DUP2 DUP2 MSTORE PUSH1 0x15 DUP4 MSTORE PUSH1 0x40 SWAP1 KECCAK256 DUP1 SLOAD PUSH1 0xFF NOT AND PUSH1 0xFF DUP7 ISZERO ISZERO AND OR SWAP1 SSTORE SWAP3 JUMPDEST PUSH1 0x40 MLOAD SWAP1 ISZERO ISZERO DUP2 MSTORE LOG2 STOP JUMPDEST CALLVALUE PUSH2 0x3DF JUMPI PUSH1 0x0 CALLDATASIZE PUSH1 0x3 NOT ADD SLT PUSH2 0x3DF JUMPI PUSH1 0x20 PUSH1 0x40 MLOAD PUSH1 0x32 DUP2 MSTORE RETURN JUMPDEST CALLVALUE PUSH2 0x3DF JUMPI PUSH1 0x0 CALLDATASIZE PUSH1 0x3 NOT ADD SLT PUSH2 0x3DF JUMPI PUSH1 0x20 PUSH1 0x40 MLOAD PUSH32 0x0 DUP2 MSTORE RETURN JUMPDEST CALLVALUE PUSH2 0x3DF JUMPI PUSH1 0x20 CALLDATASIZE PUSH1 0x3 NOT ADD SLT PUSH2 0x3DF JUMPI PUSH1 0x4 CALLDATALOAD PUSH2 0xE93 PUSH2 0x47A0 JUMP JUMPDEST DUP1 PUSH1 0x0 MSTORE PUSH1 0x17 PUSH1 0x20 MSTORE PUSH1 0xC PUSH1 0x40 PUSH1 0x0 KECCAK256 ADD DUP1 SLOAD PUSH1 0xFF DUP2 PUSH1 0xB0 SHR AND ISZERO PUSH2 0xEFA JUMPI PUSH2 0xEC2 PUSH1 0xFF DUP3 PUSH1 0xB8 SHR AND ISZERO PUSH2 0x4091 JUMP JUMPDEST PUSH3 0xFF00FF PUSH1 0xA0 SHL NOT AND PUSH1 0x1 PUSH1 0xA0 SHL OR SWAP1 SSTORE PUSH32 0xC939EBB08504F6F162E423778B5C8DC66880BD30E8CE585DE4C0612B2C5A238E PUSH1 0x0 DUP1 LOG2 STOP JUMPDEST PUSH1 0x40 MLOAD PUSH3 0x461BCD PUSH1 0xE5 SHL DUP2 MSTORE PUSH1 0x20 PUSH1 0x4 DUP3 ADD MSTORE PUSH1 0x13 PUSH1 0x24 DUP3 ADD MSTORE PUSH19 0x10D85B5C185A59DB881B9BDD0818DB1BDCD959 PUSH1 0x6A SHL PUSH1 0x44 DUP3 ADD MSTORE PUSH1 0x64 SWAP1 REVERT JUMPDEST CALLVALUE PUSH2 0x3DF JUMPI PUSH1 0x20 CALLDATASIZE PUSH1 0x3 NOT ADD SLT PUSH2 0x3DF JUMPI PUSH1 0x4 CALLDATALOAD PUSH2 0xF52 DUP2 PUSH2 0x47CC JUMP JUMPDEST POP PUSH1 0x0 MSTORE PUSH1 0xC PUSH1 0x20 MSTORE PUSH2 0xF8E PUSH2 0xF6B PUSH1 0x40 PUSH1 0x0 KECCAK256 PUSH2 0x3CA9 JUMP JUMPDEST PUSH1 0x0 PUSH1 0x40 MLOAD PUSH2 0xF79 DUP2 PUSH2 0x3C6D JUMP JUMPDEST MSTORE PUSH1 0x40 MLOAD SWAP2 DUP3 SWAP2 PUSH1 0x20 DUP4 MSTORE PUSH1 0x20 DUP4 ADD SWAP1 PUSH2 0x3B50 JUMP JUMPDEST SUB SWAP1 RETURN JUMPDEST CALLVALUE PUSH2 0x3DF JUMPI PUSH1 0x20 CALLDATASIZE PUSH1 0x3 NOT ADD SLT PUSH2 0x3DF JUMPI PUSH1 0x4 CALLDATALOAD PUSH1 0x0 MSTORE PUSH1 0x18 PUSH1 0x20 MSTORE PUSH1 0x20 PUSH1 0x40 PUSH1 0x0 KECCAK256 SLOAD PUSH1 0x40 MLOAD SWAP1 DUP2 MSTORE RETURN JUMPDEST CALLVALUE PUSH2 0x3DF JUMPI PUSH1 0x80 CALLDATASIZE PUSH1 0x3 NOT ADD SLT PUSH2 0x3DF JUMPI PUSH2 0xFD7 PUSH2 0x3B24 JUMP JUMPDEST PUSH2 0xFDF PUSH2 0x3B3A JUMP JUMPDEST SWAP1 PUSH1 0x44 CALLDATALOAD PUSH1 0x64 CALLDATALOAD SWAP3 PUSH1 0x1 PUSH1 0x1 PUSH1 0x40 SHL SUB DUP5 GT PUSH2 0x3DF JUMPI CALLDATASIZE PUSH1 0x23 DUP6 ADD SLT ISZERO PUSH2 0x3DF JUMPI PUSH2 0x1017 PUSH2 0x18 SWAP5 CALLDATASIZE SWAP1 PUSH1 0x24 DUP2 PUSH1 0x4 ADD CALLDATALOAD SWAP2 ADD PUSH2 0x3E5C JUMP JUMPDEST SWAP3 PUSH2 0x1023 DUP4 DUP4 DUP4 PUSH2 0x40D5 JUMP JUMPDEST PUSH2 0x546D JUMP JUMPDEST CALLVALUE PUSH2 0x3DF JUMPI PUSH1 0x20 CALLDATASIZE PUSH1 0x3 NOT ADD SLT PUSH2 0x3DF JUMPI PUSH1 0x4 CALLDATALOAD PUSH1 0x0 MSTORE PUSH1 0x19 PUSH1 0x20 MSTORE PUSH1 0x20 PUSH1 0x40 PUSH1 0x0 KECCAK256 SLOAD PUSH1 0x40 MLOAD SWAP1 DUP2 MSTORE RETURN JUMPDEST CALLVALUE PUSH2 0x3DF JUMPI PUSH1 0x20 CALLDATASIZE PUSH1 0x3 NOT ADD SLT PUSH2 0x3DF JUMPI PUSH1 0x4 CALLDATALOAD PUSH2 0x1070 PUSH2 0x47A0 JUMP JUMPDEST PUSH1 0x0 DUP2 DUP2 MSTORE PUSH1 0x17 PUSH1 0x20 MSTORE PUSH1 0x40 DUP2 KECCAK256 PUSH1 0xC ADD DUP1 SLOAD PUSH3 0xFF00FF PUSH1 0xA0 SHL NOT AND PUSH1 0x1 PUSH1 0xB0 SHL OR SWAP1 SSTORE PUSH32 0x5E6EB33A418DE5DBBC17F989F7AE362CDFBB1748C5D603137C767027A354EDBC SWAP1 DUP1 LOG2 STOP JUMPDEST CALLVALUE PUSH2 0x3DF JUMPI PUSH1 0x0 CALLDATASIZE PUSH1 0x3 NOT ADD SLT PUSH2 0x3DF JUMPI PUSH2 0x10D3 PUSH2 0x47A0 JUMP JUMPDEST PUSH1 0x0 DUP1 SSTORE STOP JUMPDEST PUSH2 0x10E2 CALLDATASIZE PUSH2 0x3BE2 JUMP JUMPDEST SWAP1 SWAP2 PUSH2 0x10EC PUSH2 0x4807 JUMP JUMPDEST CALLER PUSH1 0x0 MSTORE PUSH1 0x15 PUSH1 0x20 MSTORE PUSH2 0x1107 PUSH1 0xFF PUSH1 0x40 PUSH1 0x0 KECCAK256 SLOAD AND ISZERO PUSH2 0x3E93 JUMP JUMPDEST PUSH2 0x110F PUSH2 0x4828 JUMP JUMPDEST PUSH2 0x113A PUSH32 0x0 CHAINID EQ PUSH2 0x3ED8 JUMP JUMPDEST DUP1 PUSH1 0x0 MSTORE PUSH1 0x17 PUSH1 0x20 MSTORE PUSH1 0x40 PUSH1 0x0 KECCAK256 SWAP2 PUSH2 0x1170 PUSH1 0xC DUP5 ADD SLOAD PUSH1 0xFF DUP2 PUSH1 0xA0 SHR AND SWAP1 DUP2 PUSH2 0x1418 JUMPI JUMPDEST DUP2 PUSH2 0x1408 JUMPI JUMPDEST DUP2 PUSH2 0x13F9 JUMPI POP PUSH2 0x3FB4 JUMP JUMPDEST DUP4 ISZERO ISZERO DUP1 PUSH2 0x13EE JUMPI JUMPDEST ISZERO PUSH2 0x13B6 JUMPI PUSH1 0x8 DUP4 ADD SLOAD DUP1 ISZERO SWAP1 DUP2 ISZERO PUSH2 0x139E JUMPI JUMPDEST POP ISZERO PUSH2 0x1362 JUMPI PUSH2 0x11B5 PUSH2 0x11AD DUP3 PUSH2 0x11A8 DUP8 PUSH1 0x9 DUP9 ADD SLOAD PUSH2 0x44DC JUMP JUMPDEST PUSH2 0x44B9 JUMP JUMPDEST CALLVALUE LT ISZERO PUSH2 0x484B JUMP JUMPDEST PUSH2 0x11BE DUP5 PUSH2 0x488E JUMP JUMPDEST SWAP3 PUSH2 0x11CC PUSH1 0x40 MLOAD SWAP5 DUP6 PUSH2 0x3C88 JUMP JUMPDEST DUP5 DUP5 MSTORE PUSH1 0x1F NOT PUSH2 0x11DB DUP7 PUSH2 0x488E JUMP JUMPDEST ADD CALLDATASIZE PUSH1 0x20 DUP7 ADD CALLDATACOPY PUSH2 0x11EC DUP3 CALLVALUE PUSH2 0x4715 JUMP JUMPDEST SWAP5 PUSH2 0x11F7 DUP2 CALLVALUE PUSH2 0x44EF JUMP JUMPDEST PUSH1 0x0 JUMPDEST DUP3 DUP2 LT PUSH2 0x1298 JUMPI POP POP POP PUSH2 0xF8E SWAP5 PUSH1 0x0 DUP1 MLOAD PUSH1 0x20 PUSH2 0x5607 DUP4 CODECOPY DUP2 MLOAD SWAP2 MSTORE SWAP3 DUP3 PUSH1 0x4 PUSH1 0x80 SWAP5 ADD PUSH2 0x122A CALLVALUE DUP3 SLOAD PUSH2 0x44B9 JUMP JUMPDEST SWAP1 SSTORE PUSH1 0x6 DUP2 ADD PUSH2 0x123B DUP4 DUP3 SLOAD PUSH2 0x44B9 JUMP JUMPDEST SWAP1 SSTORE PUSH1 0xC DUP2 ADD SLOAD PUSH1 0xC0 SHR PUSH1 0xFF AND ISZERO PUSH2 0x1283 JUMPI POP PUSH2 0x1259 DUP2 DUP4 DUP8 PUSH2 0x5259 JUMP JUMPDEST PUSH1 0x40 MLOAD SWAP2 CALLVALUE DUP4 MSTORE PUSH1 0x20 DUP4 ADD MSTORE PUSH1 0x40 DUP3 ADD MSTORE PUSH1 0x1 PUSH1 0x60 DUP3 ADD MSTORE LOG2 PUSH1 0x1 PUSH1 0xE SSTORE PUSH1 0x40 MLOAD SWAP2 DUP3 SWAP2 DUP3 PUSH2 0x3BA6 JUMP JUMPDEST PUSH1 0x5 ADD PUSH2 0x1291 DUP4 DUP3 SLOAD PUSH2 0x44B9 JUMP JUMPDEST SWAP1 SSTORE PUSH2 0x1259 JUMP JUMPDEST PUSH1 0xF SWAP1 DUP2 SLOAD SWAP2 PUSH2 0x12A7 DUP4 PUSH2 0x4551 JUMP JUMPDEST SWAP1 SSTORE PUSH2 0x12B6 PUSH1 0x7 DUP7 ADD SLOAD PUSH2 0x4551 JUMP JUMPDEST DUP1 PUSH1 0x7 DUP8 ADD SSTORE PUSH2 0x12C6 DUP4 CALLER PUSH2 0x4C15 JUMP JUMPDEST PUSH2 0x12DB PUSH2 0x12D5 PUSH1 0x1 DUP9 ADD PUSH2 0x3CA9 JUMP JUMPDEST DUP5 PUSH2 0x48A5 JUMP JUMPDEST DUP3 PUSH1 0x0 MSTORE PUSH1 0x18 PUSH1 0x20 MSTORE DUP8 PUSH1 0x40 PUSH1 0x0 KECCAK256 SSTORE PUSH1 0x19 PUSH1 0x20 MSTORE DUP1 PUSH1 0x40 PUSH1 0x0 KECCAK256 SSTORE DUP8 PUSH1 0x0 MSTORE PUSH1 0x1A PUSH1 0x20 MSTORE PUSH2 0x130E DUP4 PUSH1 0x40 PUSH1 0x0 KECCAK256 PUSH2 0x459C JUMP JUMPDEST DUP9 MLOAD DUP3 LT ISZERO PUSH2 0x134C JUMPI DUP3 PUSH1 0x1 SWAP4 PUSH1 0x20 DUP5 PUSH1 0x5 SHL DUP13 ADD ADD MSTORE PUSH1 0x40 MLOAD SWAP2 DUP3 MSTORE DUP5 PUSH1 0x20 DUP4 ADD MSTORE DUP9 PUSH1 0x0 DUP1 MLOAD PUSH1 0x20 PUSH2 0x55A7 DUP4 CODECOPY DUP2 MLOAD SWAP2 MSTORE PUSH1 0x40 CALLER SWAP5 LOG4 ADD PUSH2 0x11FA JUMP JUMPDEST PUSH4 0x4E487B71 PUSH1 0xE0 SHL PUSH1 0x0 MSTORE PUSH1 0x32 PUSH1 0x4 MSTORE PUSH1 0x24 PUSH1 0x0 REVERT JUMPDEST PUSH1 0x40 MLOAD PUSH3 0x461BCD PUSH1 0xE5 SHL DUP2 MSTORE PUSH1 0x20 PUSH1 0x4 DUP3 ADD MSTORE PUSH1 0x14 PUSH1 0x24 DUP3 ADD MSTORE PUSH20 0x45786365656473206D61782065646974696F6E73 PUSH1 0x60 SHL PUSH1 0x44 DUP3 ADD MSTORE PUSH1 0x64 SWAP1 REVERT JUMPDEST SWAP1 POP PUSH2 0x13AE DUP6 PUSH1 0x7 DUP7 ADD SLOAD PUSH2 0x44B9 JUMP JUMPDEST GT ISZERO DUP6 PUSH2 0x118D JUMP JUMPDEST PUSH1 0x40 MLOAD PUSH3 0x461BCD PUSH1 0xE5 SHL DUP2 MSTORE PUSH1 0x20 PUSH1 0x4 DUP3 ADD MSTORE PUSH1 0x10 PUSH1 0x24 DUP3 ADD MSTORE PUSH16 0x496E76616C6964207175616E74697479 PUSH1 0x80 SHL PUSH1 0x44 DUP3 ADD MSTORE PUSH1 0x64 SWAP1 REVERT JUMPDEST POP PUSH1 0x32 DUP5 GT ISZERO PUSH2 0x1179 JUMP JUMPDEST PUSH1 0xFF SWAP2 POP PUSH1 0xB8 SHR AND ISZERO DUP7 PUSH2 0x7C3 JUMP JUMPDEST SWAP1 POP PUSH1 0xFF DUP2 PUSH1 0xB0 SHR AND ISZERO SWAP1 PUSH2 0x1165 JUMP JUMPDEST SWAP1 POP PUSH1 0xFF DUP2 PUSH1 0xA8 SHR AND ISZERO SWAP1 PUSH2 0x115F JUMP JUMPDEST CALLVALUE PUSH2 0x3DF JUMPI PUSH32 0x6BD5C950A8D8DF17F772F5AF37CB3655737899CBF903264B9795592DA439661C PUSH1 0x40 PUSH2 0x1459 CALLDATASIZE PUSH2 0x3B90 JUMP JUMPDEST PUSH2 0x1461 PUSH2 0x47A0 JUMP JUMPDEST DUP3 MLOAD SWAP2 DUP3 MSTORE PUSH1 0x20 DUP3 ADD MSTORE LOG1 STOP JUMPDEST CALLVALUE PUSH2 0x3DF JUMPI PUSH1 0x40 CALLDATASIZE PUSH1 0x3 NOT ADD SLT PUSH2 0x3DF JUMPI PUSH2 0x1487 PUSH2 0x3B24 JUMP JUMPDEST PUSH2 0x148F PUSH2 0x3D4E JUMP JUMPDEST PUSH1 0x1 PUSH1 0x1 PUSH1 0xA0 SHL SUB SWAP1 SWAP2 AND SWAP1 DUP2 ISZERO PUSH2 0x1500 JUMPI CALLER PUSH1 0x0 MSTORE PUSH1 0x7 PUSH1 0x20 MSTORE PUSH1 0x40 PUSH1 0x0 KECCAK256 DUP3 PUSH1 0x0 MSTORE PUSH1 0x20 MSTORE PUSH2 0x14D0 DUP2 PUSH1 0x40 PUSH1 0x0 KECCAK256 SWAP1 PUSH1 0xFF DUP1 NOT DUP4 SLOAD AND SWAP2 ISZERO ISZERO AND OR SWAP1 SSTORE JUMP JUMPDEST PUSH1 0x40 MLOAD SWAP1 ISZERO ISZERO DUP2 MSTORE PUSH32 0x17307EAB39AB6107E8899845AD3D59BD9653F200F220920489CA2B5937696C31 PUSH1 0x20 CALLER SWAP3 LOG3 STOP JUMPDEST PUSH1 0x40 MLOAD PUSH4 0xB611743 PUSH1 0xE3 SHL DUP2 MSTORE PUSH1 0x4 DUP2 ADD DUP4 SWAP1 MSTORE PUSH1 0x24 SWAP1 REVERT JUMPDEST CALLVALUE PUSH2 0x3DF JUMPI PUSH1 0x20 CALLDATASIZE PUSH1 0x3 NOT ADD SLT PUSH2 0x3DF JUMPI PUSH1 0x4 CALLDATALOAD PUSH2 0x1535 PUSH2 0x47A0 JUMP JUMPDEST PUSH1 0x0 DUP2 DUP2 MSTORE PUSH1 0x17 PUSH1 0x20 MSTORE PUSH1 0x40 DUP2 KECCAK256 PUSH1 0xC ADD DUP1 SLOAD PUSH4 0xFF0000FF PUSH1 0xA0 SHL NOT AND PUSH1 0x1 PUSH1 0xB8 SHL OR SWAP1 SSTORE PUSH32 0x4825B022B52DA7A8DE8063D9EA8FD654176315FFF40077D4C0374F8E1D8A245B SWAP1 DUP1 LOG2 STOP JUMPDEST PUSH1 0x20 CALLDATASIZE PUSH1 0x3 NOT ADD SLT PUSH2 0x3DF JUMPI PUSH1 0x20 PUSH2 0x7E4 PUSH1 0x4 CALLDATALOAD PUSH2 0x159C PUSH2 0x4807 JUMP JUMPDEST CALLER PUSH1 0x0 MSTORE PUSH1 0x15 DUP4 MSTORE PUSH2 0x15B6 PUSH1 0xFF PUSH1 0x40 PUSH1 0x0 KECCAK256 SLOAD AND ISZERO PUSH2 0x3E93 JUMP JUMPDEST PUSH2 0x15BE PUSH2 0x4828 JUMP JUMPDEST PUSH2 0x15E9 PUSH32 0x0 CHAINID EQ PUSH2 0x3ED8 JUMP JUMPDEST DUP1 PUSH1 0x0 MSTORE PUSH1 0x17 DUP4 MSTORE PUSH2 0x7DF PUSH1 0x40 PUSH1 0x0 KECCAK256 PUSH2 0x7C9 PUSH1 0xFF PUSH1 0xC DUP4 ADD SLOAD PUSH2 0x1611 DUP3 DUP3 PUSH1 0xA0 SHR AND PUSH2 0x450F JUMP JUMPDEST PUSH2 0x1620 DUP3 DUP3 PUSH1 0xA8 SHR AND ISZERO PUSH2 0x45BF JUMP JUMPDEST PUSH2 0x162F DUP3 DUP3 PUSH1 0xB0 SHR AND ISZERO PUSH2 0x3F12 JUMP JUMPDEST PUSH1 0xB8 SHR AND ISZERO PUSH2 0x4600 JUMP JUMPDEST CALLVALUE PUSH2 0x3DF JUMPI PUSH1 0x0 CALLDATASIZE PUSH1 0x3 NOT ADD SLT PUSH2 0x3DF JUMPI PUSH1 0x40 MLOAD PUSH1 0x3 SLOAD PUSH1 0x0 DUP3 PUSH2 0x165C DUP4 PUSH2 0x3BFC JUMP JUMPDEST SWAP2 DUP3 DUP3 MSTORE PUSH1 0x20 SWAP4 PUSH1 0x1 SWAP1 DUP6 PUSH1 0x1 DUP3 AND SWAP2 DUP3 PUSH1 0x0 EQ PUSH2 0x16FC JUMPI POP POP PUSH1 0x1 EQ PUSH2 0x169F JUMPI JUMPDEST POP PUSH2 0x168B SWAP3 POP SUB DUP4 PUSH2 0x3C88 JUMP JUMPDEST PUSH2 0xF8E PUSH1 0x40 MLOAD SWAP3 DUP3 DUP5 SWAP4 DUP5 MSTORE DUP4 ADD SWAP1 PUSH2 0x3B50 JUMP JUMPDEST DUP5 SWAP2 POP PUSH1 0x3 PUSH1 0x0 MSTORE PUSH32 0xC2575A0E9E593C00F959F8C92F12DB2869C3395A3B0502D05E2516446F71F85B SWAP1 PUSH1 0x0 SWAP2 JUMPDEST DUP6 DUP4 LT PUSH2 0x16E4 JUMPI POP POP PUSH2 0x168B SWAP4 POP DUP3 ADD ADD DUP6 PUSH2 0x167E JUMP JUMPDEST DUP1 SLOAD DUP4 DUP10 ADD DUP6 ADD MSTORE DUP8 SWAP5 POP DUP7 SWAP4 SWAP1 SWAP3 ADD SWAP2 DUP2 ADD PUSH2 0x16CD JUMP JUMPDEST PUSH1 0xFF NOT AND DUP6 DUP3 ADD MSTORE PUSH2 0x168B SWAP6 ISZERO ISZERO PUSH1 0x5 SHL DUP6 ADD ADD SWAP3 POP DUP8 SWAP2 POP PUSH2 0x167E SWAP1 POP JUMP JUMPDEST CALLVALUE PUSH2 0x3DF JUMPI PUSH1 0x40 CALLDATASIZE PUSH1 0x3 NOT ADD SLT PUSH2 0x3DF JUMPI PUSH1 0x4 CALLDATALOAD PUSH1 0x1 PUSH1 0x1 PUSH1 0x40 SHL SUB DUP1 DUP3 GT PUSH2 0x3DF JUMPI CALLDATASIZE PUSH1 0x23 DUP4 ADD SLT ISZERO PUSH2 0x3DF JUMPI DUP2 PUSH1 0x4 ADD CALLDATALOAD SWAP1 DUP1 DUP3 GT PUSH2 0x3DF JUMPI PUSH1 0x24 DUP4 ADD SWAP3 PUSH1 0x24 CALLDATASIZE SWAP2 DUP5 PUSH1 0x5 SHL ADD ADD GT PUSH2 0x3DF JUMPI PUSH1 0x24 CALLDATALOAD SWAP1 DUP2 GT PUSH2 0x3DF JUMPI PUSH2 0x1783 SWAP1 CALLDATASIZE SWAP1 PUSH1 0x4 ADD PUSH2 0x3D5D JUMP JUMPDEST SWAP2 PUSH2 0x178C PUSH2 0x47A0 JUMP JUMPDEST PUSH1 0x0 JUMPDEST DUP2 DUP2 LT PUSH2 0x1798 JUMPI STOP JUMPDEST DUP1 PUSH2 0x17A6 PUSH1 0x1 SWAP3 DUP5 DUP9 PUSH2 0x4790 JUMP JUMPDEST CALLDATALOAD PUSH1 0x0 MSTORE PUSH1 0x20 PUSH1 0x4 DUP2 MSTORE DUP3 DUP1 PUSH1 0xA0 SHL SUB PUSH1 0x40 PUSH1 0x0 KECCAK256 SLOAD AND PUSH2 0x17C9 JUMPI JUMPDEST POP ADD PUSH2 0x178F JUMP JUMPDEST PUSH2 0x17E9 PUSH2 0x17D7 DUP4 DUP7 DUP11 PUSH2 0x4790 JUMP JUMPDEST CALLDATALOAD PUSH2 0x17E3 CALLDATASIZE DUP10 DUP10 PUSH2 0x3E5C JUMP JUMPDEST SWAP1 PUSH2 0x48A5 JUMP JUMPDEST PUSH32 0xAC6D62CB5D30A7FFF578060CD3DCF46FF2DF7991A71C2D2AABCA7E558F130F78 PUSH2 0x182C PUSH2 0x1818 DUP5 DUP8 DUP12 PUSH2 0x4790 JUMP JUMPDEST CALLDATALOAD SWAP3 PUSH1 0x40 MLOAD SWAP2 DUP2 DUP4 SWAP3 DUP4 MSTORE DUP3 ADD DUP11 DUP11 PUSH2 0x3F93 JUMP JUMPDEST SUB SWAP1 LOG2 DUP7 PUSH2 0x17C2 JUMP JUMPDEST CALLVALUE PUSH2 0x3DF JUMPI PUSH1 0x0 CALLDATASIZE PUSH1 0x3 NOT ADD SLT PUSH2 0x3DF JUMPI PUSH1 0xD SLOAD PUSH1 0x40 MLOAD PUSH1 0x1 PUSH1 0x1 PUSH1 0xA0 SHL SUB SWAP1 SWAP2 AND DUP2 MSTORE PUSH1 0x20 SWAP1 RETURN JUMPDEST CALLVALUE PUSH2 0x3DF JUMPI PUSH1 0x60 CALLDATASIZE PUSH1 0x3 NOT ADD SLT PUSH2 0x3DF JUMPI PUSH2 0x1877 PUSH2 0x3B24 JUMP JUMPDEST PUSH1 0x24 CALLDATALOAD PUSH1 0x44 CALLDATALOAD PUSH1 0x1 PUSH1 0x1 PUSH1 0x40 SHL SUB DUP2 GT PUSH2 0x3DF JUMPI PUSH2 0x1899 SWAP1 CALLDATASIZE SWAP1 PUSH1 0x4 ADD PUSH2 0x3D5D JUMP JUMPDEST SWAP1 SWAP2 PUSH2 0x18A3 PUSH2 0x47A0 JUMP JUMPDEST PUSH2 0x18AB PUSH2 0x4828 JUMP JUMPDEST PUSH1 0x12 SLOAD SWAP4 DUP5 DUP3 GT PUSH2 0x1968 JUMPI PUSH1 0x1 PUSH1 0x1 PUSH1 0xA0 SHL SUB AND SWAP4 DUP5 ISZERO PUSH2 0x192F JUMPI PUSH32 0xD24FD04B4A509FAC28AAB0419D3841217C53A8B375B372060993DC15C350EF7F SWAP4 PUSH2 0x18F5 DUP4 PUSH2 0x1925 SWAP4 PUSH2 0x4715 JUMP JUMPDEST PUSH1 0x12 SSTORE PUSH2 0x190C PUSH1 0x0 DUP1 DUP1 DUP1 DUP8 DUP12 GAS CALL PUSH2 0x468 PUSH2 0x4722 JUMP JUMPDEST PUSH1 0x40 MLOAD SWAP4 DUP5 SWAP4 DUP5 MSTORE PUSH1 0x40 PUSH1 0x20 DUP6 ADD MSTORE PUSH1 0x40 DUP5 ADD SWAP2 PUSH2 0x3F93 JUMP JUMPDEST SUB SWAP1 LOG2 PUSH1 0x1 PUSH1 0xE SSTORE STOP JUMPDEST PUSH1 0x40 MLOAD PUSH3 0x461BCD PUSH1 0xE5 SHL DUP2 MSTORE PUSH1 0x20 PUSH1 0x4 DUP3 ADD MSTORE PUSH1 0x11 PUSH1 0x24 DUP3 ADD MSTORE PUSH17 0x125B9D985B1A59081C9958DA5C1A595B9D PUSH1 0x7A SHL PUSH1 0x44 DUP3 ADD MSTORE PUSH1 0x64 SWAP1 REVERT JUMPDEST PUSH1 0x40 MLOAD PUSH3 0x461BCD PUSH1 0xE5 SHL DUP2 MSTORE PUSH1 0x20 PUSH1 0x4 DUP3 ADD MSTORE PUSH1 0x18 PUSH1 0x24 DUP3 ADD MSTORE PUSH32 0x496E73756666696369656E7420626F756E747920706F6F6C0000000000000000 PUSH1 0x44 DUP3 ADD MSTORE PUSH1 0x64 SWAP1 REVERT JUMPDEST CALLVALUE PUSH2 0x3DF JUMPI PUSH1 0x0 CALLDATASIZE PUSH1 0x3 NOT ADD SLT PUSH2 0x3DF JUMPI PUSH2 0x19C6 PUSH2 0x47A0 JUMP JUMPDEST PUSH2 0x19CE PUSH2 0x4807 JUMP JUMPDEST PUSH1 0xD DUP1 SLOAD PUSH1 0xFF PUSH1 0xA0 SHL NOT AND PUSH1 0x1 PUSH1 0xA0 SHL OR SWAP1 SSTORE PUSH1 0x40 MLOAD CALLER DUP2 MSTORE PUSH32 0x62E78CEA01BEE320CD4E420270B5EA74000D11B0C9F74754EBDBFC544B05A258 SWAP1 PUSH1 0x20 SWAP1 LOG1 STOP JUMPDEST CALLVALUE PUSH2 0x3DF JUMPI PUSH1 0x20 CALLDATASIZE PUSH1 0x3 NOT ADD SLT PUSH2 0x3DF JUMPI PUSH1 0x4 CALLDATALOAD PUSH1 0x0 MSTORE PUSH1 0x18 PUSH1 0x20 MSTORE PUSH1 0x40 PUSH1 0x0 KECCAK256 SLOAD PUSH1 0x19 PUSH1 0x20 MSTORE PUSH1 0x40 PUSH1 0x0 KECCAK256 SLOAD SWAP1 DUP1 PUSH1 0x0 MSTORE PUSH1 0x17 PUSH1 0x20 MSTORE PUSH2 0xF8E PUSH1 0x7 PUSH1 0x40 PUSH1 0x0 KECCAK256 ADD SLOAD PUSH1 0x40 MLOAD SWAP4 DUP5 SWAP4 DUP5 PUSH1 0x40 SWAP2 SWAP5 SWAP4 SWAP3 PUSH1 0x60 DUP3 ADD SWAP6 DUP3 MSTORE PUSH1 0x20 DUP3 ADD MSTORE ADD MSTORE JUMP JUMPDEST CALLVALUE PUSH2 0x3DF JUMPI PUSH1 0x20 CALLDATASIZE PUSH1 0x3 NOT ADD SLT PUSH2 0x3DF JUMPI PUSH1 0x4 CALLDATALOAD PUSH2 0x1A8B PUSH2 0x47A0 JUMP JUMPDEST DUP1 PUSH1 0x0 MSTORE PUSH1 0x17 PUSH1 0x20 MSTORE PUSH1 0xC PUSH1 0x40 PUSH1 0x0 KECCAK256 ADD PUSH1 0xFF PUSH1 0xA0 SHL NOT DUP2 SLOAD AND SWAP1 SSTORE PUSH1 0x0 DUP1 MLOAD PUSH1 0x20 PUSH2 0x55E7 DUP4 CODECOPY DUP2 MLOAD SWAP2 MSTORE PUSH1 0x40 MLOAD DUP1 PUSH2 0x1ADF DUP2 PUSH1 0x60 SWAP1 PUSH1 0x20 DUP2 MSTORE PUSH1 0x6 PUSH1 0x20 DUP3 ADD MSTORE PUSH6 0x616374697665 PUSH1 0xD0 SHL PUSH1 0x40 DUP3 ADD MSTORE ADD SWAP1 JUMP JUMPDEST SUB SWAP1 LOG2 STOP JUMPDEST CALLVALUE PUSH2 0x3DF JUMPI PUSH1 0x20 CALLDATASIZE PUSH1 0x3 NOT ADD SLT PUSH2 0x3DF JUMPI PUSH2 0x1AFD PUSH2 0x3B24 JUMP JUMPDEST PUSH2 0x1B05 PUSH2 0x47A0 JUMP JUMPDEST PUSH1 0x1 PUSH1 0x1 PUSH1 0xA0 SHL SUB SWAP1 DUP2 AND SWAP1 DUP2 ISZERO PUSH2 0x1B54 JUMPI PUSH1 0x11 SLOAD DUP3 PUSH1 0x1 PUSH1 0x1 PUSH1 0x60 SHL SUB PUSH1 0xA0 SHL DUP3 AND OR PUSH1 0x11 SSTORE AND PUSH32 0x4AB5BE82436D353E61CA18726E984E561F5C1CC7C6D38B29D2553C790434705A PUSH1 0x0 DUP1 LOG3 STOP JUMPDEST PUSH1 0x40 MLOAD PUSH3 0x461BCD PUSH1 0xE5 SHL DUP2 MSTORE PUSH1 0x20 PUSH1 0x4 DUP3 ADD MSTORE PUSH1 0x10 PUSH1 0x24 DUP3 ADD MSTORE PUSH16 0x496E76616C6964207472656173757279 PUSH1 0x80 SHL PUSH1 0x44 DUP3 ADD MSTORE PUSH1 0x64 SWAP1 REVERT JUMPDEST CALLVALUE PUSH2 0x3DF JUMPI PUSH1 0x20 CALLDATASIZE PUSH1 0x3 NOT ADD SLT PUSH2 0x3DF JUMPI PUSH1 0x4 CALLDATALOAD PUSH1 0x0 MSTORE PUSH1 0x16 PUSH1 0x20 MSTORE PUSH1 0x20 PUSH1 0xFF PUSH1 0x40 PUSH1 0x0 KECCAK256 SLOAD AND PUSH1 0x40 MLOAD SWAP1 ISZERO ISZERO DUP2 MSTORE RETURN JUMPDEST CALLVALUE PUSH2 0x3DF JUMPI PUSH1 0x40 CALLDATASIZE PUSH1 0x3 NOT ADD SLT PUSH2 0x3DF JUMPI PUSH1 0x4 CALLDATALOAD PUSH32 0xBF025F2B09B91DC81D2B137BED7B878FB0BD75A3BFE4708D69989FDA3C63485A PUSH1 0x20 PUSH2 0x1BFC PUSH2 0x3D4E JUMP JUMPDEST PUSH2 0x1C04 PUSH2 0x47A0 JUMP JUMPDEST PUSH1 0x0 DUP5 DUP2 MSTORE PUSH1 0x4 DUP4 MSTORE PUSH1 0x40 SWAP1 KECCAK256 SLOAD PUSH2 0x1C26 SWAP1 PUSH1 0x1 PUSH1 0x1 PUSH1 0xA0 SHL SUB AND ISZERO ISZERO PUSH2 0x3F50 JUMP JUMPDEST DUP4 PUSH1 0x0 MSTORE PUSH1 0x14 DUP3 MSTORE PUSH2 0xE15 DUP2 PUSH1 0x40 PUSH1 0x0 KECCAK256 SWAP1 PUSH1 0xFF DUP1 NOT DUP4 SLOAD AND SWAP2 ISZERO ISZERO AND OR SWAP1 SSTORE JUMP JUMPDEST CALLVALUE PUSH2 0x3DF JUMPI PUSH1 0x0 CALLDATASIZE PUSH1 0x3 NOT ADD SLT PUSH2 0x3DF JUMPI PUSH2 0x1C61 PUSH2 0x47A0 JUMP JUMPDEST PUSH1 0xD DUP1 SLOAD PUSH1 0x1 PUSH1 0x1 PUSH1 0xA0 SHL SUB NOT DUP2 AND SWAP1 SWAP2 SSTORE PUSH1 0x0 SWAP1 PUSH1 0x1 PUSH1 0x1 PUSH1 0xA0 SHL SUB AND PUSH32 0x8BE0079C531659141344CD1FD0A4F28419497F9722A3DAAFE3B4186F6B6457E0 DUP3 DUP1 LOG3 STOP JUMPDEST CALLVALUE PUSH2 0x3DF JUMPI PUSH1 0x20 CALLDATASIZE PUSH1 0x3 NOT ADD SLT PUSH2 0x3DF JUMPI PUSH1 0x20 PUSH2 0x1CC8 PUSH2 0x1CC3 PUSH2 0x3B24 JUMP JUMPDEST PUSH2 0x46DC JUMP JUMPDEST PUSH1 0x40 MLOAD SWAP1 DUP2 MSTORE RETURN JUMPDEST CALLVALUE PUSH2 0x3DF JUMPI PUSH1 0x40 CALLDATASIZE PUSH1 0x3 NOT ADD SLT PUSH2 0x3DF JUMPI PUSH1 0x4 CALLDATALOAD PUSH2 0x1CEC PUSH2 0x3B3A JUMP JUMPDEST PUSH2 0x1CF4 PUSH2 0x47A0 JUMP JUMPDEST DUP2 PUSH1 0x0 MSTORE PUSH1 0x17 PUSH1 0x20 MSTORE PUSH1 0xC PUSH1 0x40 PUSH1 0x0 KECCAK256 ADD SWAP1 DUP2 SLOAD SWAP1 PUSH2 0x1D19 PUSH1 0xFF DUP4 PUSH1 0xB0 SHR AND ISZERO PUSH2 0x3F12 JUMP JUMPDEST PUSH1 0x1 PUSH1 0x1 PUSH1 0xA0 SHL SUB AND SWAP1 PUSH2 0x1D2E DUP3 ISZERO ISZERO PUSH2 0x4680 JUMP JUMPDEST PUSH1 0x1 PUSH1 0x1 PUSH1 0x60 SHL SUB PUSH1 0xA0 SHL AND OR SWAP1 SSTORE PUSH1 0x0 DUP1 MLOAD PUSH1 0x20 PUSH2 0x55E7 DUP4 CODECOPY DUP2 MLOAD SWAP2 MSTORE PUSH1 0x40 MLOAD PUSH1 0x20 DUP2 MSTORE DUP1 PUSH2 0x1ADF PUSH1 0x20 DUP3 ADD PUSH2 0x46C0 JUMP JUMPDEST CALLVALUE PUSH2 0x3DF JUMPI PUSH1 0x40 CALLDATASIZE PUSH1 0x3 NOT ADD SLT PUSH2 0x3DF JUMPI PUSH1 0x4 CALLDATALOAD PUSH2 0x1D7C PUSH2 0x3B3A JUMP JUMPDEST PUSH2 0x1D84 PUSH2 0x47A0 JUMP JUMPDEST DUP2 PUSH1 0x0 MSTORE PUSH1 0x17 PUSH1 0x20 MSTORE PUSH1 0xB PUSH1 0x40 PUSH1 0x0 KECCAK256 SWAP2 PUSH2 0x1DA9 PUSH1 0xFF PUSH1 0xC DUP6 ADD SLOAD PUSH1 0xB0 SHR AND ISZERO PUSH2 0x3F12 JUMP JUMPDEST PUSH1 0x1 PUSH1 0x1 PUSH1 0xA0 SHL SUB AND SWAP2 PUSH2 0x1DBE DUP4 ISZERO ISZERO PUSH2 0x4640 JUMP JUMPDEST ADD SWAP1 PUSH1 0x1 PUSH1 0x1 PUSH1 0x60 SHL SUB PUSH1 0xA0 SHL DUP3 SLOAD AND OR SWAP1 SSTORE PUSH1 0x0 DUP1 MLOAD PUSH1 0x20 PUSH2 0x55E7 DUP4 CODECOPY DUP2 MLOAD SWAP2 MSTORE PUSH1 0x60 PUSH1 0x40 MLOAD PUSH1 0x20 DUP2 MSTORE PUSH1 0x9 PUSH1 0x20 DUP3 ADD MSTORE PUSH9 0x1B9BDB9C1C9BD99A5D PUSH1 0xBA SHL PUSH1 0x40 DUP3 ADD MSTORE LOG2 STOP JUMPDEST CALLVALUE PUSH2 0x3DF JUMPI PUSH1 0x20 CALLDATASIZE PUSH1 0x3 NOT ADD SLT PUSH2 0x3DF JUMPI PUSH1 0x20 PUSH2 0x1E23 PUSH1 0x4 CALLDATALOAD PUSH2 0x47CC JUMP JUMPDEST PUSH1 0x40 MLOAD PUSH1 0x1 PUSH1 0x1 PUSH1 0xA0 SHL SUB SWAP1 SWAP2 AND DUP2 MSTORE RETURN JUMPDEST CALLVALUE PUSH2 0x3DF JUMPI PUSH1 0x20 CALLDATASIZE PUSH1 0x3 NOT ADD SLT PUSH2 0x3DF JUMPI PUSH1 0x4 CALLDATALOAD PUSH2 0xFFFF DUP1 DUP3 AND SWAP2 DUP3 DUP2 SUB PUSH2 0x3DF JUMPI PUSH2 0x1E5F PUSH2 0x47A0 JUMP JUMPDEST PUSH2 0xBB8 DUP4 GT PUSH2 0x1EBA JUMPI PUSH32 0x84E4FE32BF74C4011A7E1FDE79C63ACDFFAF92A0112CDE153E7B0ABEE665BC6B SWAP3 PUSH1 0x40 SWAP3 PUSH1 0x13 SLOAD SWAP3 PUSH2 0xFFFF PUSH1 0x60 SHL SWAP1 PUSH1 0x60 SHL AND PUSH2 0xFFFF PUSH1 0x60 SHL NOT DUP5 AND OR PUSH1 0x13 SSTORE DUP4 MLOAD SWAP3 PUSH1 0x60 SHR AND DUP3 MSTORE PUSH1 0x20 DUP3 ADD MSTORE LOG1 STOP JUMPDEST PUSH1 0x40 MLOAD PUSH3 0x461BCD PUSH1 0xE5 SHL DUP2 MSTORE PUSH1 0x20 PUSH1 0x4 DUP3 ADD MSTORE PUSH1 0xC PUSH1 0x24 DUP3 ADD MSTORE PUSH12 0x8CCACA40E8DEDE40D0D2CED PUSH1 0xA3 SHL PUSH1 0x44 DUP3 ADD MSTORE PUSH1 0x64 SWAP1 REVERT JUMPDEST CALLVALUE PUSH2 0x3DF JUMPI PUSH1 0x0 CALLDATASIZE PUSH1 0x3 NOT ADD SLT PUSH2 0x3DF JUMPI PUSH1 0x20 PUSH1 0xFF PUSH1 0xD SLOAD PUSH1 0xA0 SHR AND PUSH1 0x40 MLOAD SWAP1 ISZERO ISZERO DUP2 MSTORE RETURN JUMPDEST CALLVALUE PUSH2 0x3DF JUMPI PUSH1 0x60 CALLDATASIZE PUSH1 0x3 NOT ADD SLT PUSH2 0x3DF JUMPI PUSH1 0x4 CALLDATALOAD PUSH2 0x1F30 PUSH2 0x3B3A JUMP JUMPDEST PUSH1 0x44 CALLDATALOAD SWAP1 PUSH1 0x1 PUSH1 0x1 PUSH1 0x60 SHL SUB DUP3 AND DUP1 SWAP3 SUB PUSH2 0x3DF JUMPI PUSH2 0x1F4D PUSH2 0x47A0 JUMP JUMPDEST PUSH2 0x2710 DUP1 DUP4 GT PUSH2 0x1FC5 JUMPI POP PUSH1 0x1 PUSH1 0x1 PUSH1 0xA0 SHL SUB SWAP1 DUP2 AND SWAP3 DUP4 ISZERO PUSH2 0x1FA6 JUMPI PUSH1 0x40 MLOAD SWAP4 PUSH2 0x1F77 DUP6 PUSH2 0x3C36 JUMP JUMPDEST DUP5 MSTORE PUSH1 0x20 DUP1 DUP6 ADD SWAP4 DUP5 MSTORE PUSH1 0x0 SWAP2 DUP3 MSTORE PUSH1 0x1 SWAP1 MSTORE PUSH1 0x40 SWAP1 KECCAK256 SWAP3 MLOAD SWAP2 MLOAD PUSH1 0xA0 SHL PUSH1 0x1 PUSH1 0x1 PUSH1 0xA0 SHL SUB NOT AND SWAP2 AND OR SWAP1 SSTORE STOP JUMPDEST PUSH1 0x44 SWAP1 PUSH1 0x40 MLOAD SWAP1 PUSH4 0x4B4F8429 PUSH1 0xE1 SHL DUP3 MSTORE PUSH1 0x4 DUP3 ADD MSTORE PUSH1 0x0 PUSH1 0x24 DUP3 ADD MSTORE REVERT JUMPDEST DUP4 PUSH1 0x64 SWAP2 DUP5 PUSH1 0x40 MLOAD SWAP3 PUSH4 0xDFD1FC1B PUSH1 0xE0 SHL DUP5 MSTORE PUSH1 0x4 DUP5 ADD MSTORE PUSH1 0x24 DUP4 ADD MSTORE PUSH1 0x44 DUP3 ADD MSTORE REVERT JUMPDEST CALLVALUE PUSH2 0x3DF JUMPI PUSH1 0x20 DUP1 PUSH1 0x3 NOT CALLDATASIZE ADD SLT PUSH2 0x3DF JUMPI PUSH1 0x4 CALLDATALOAD PUSH2 0x2006 PUSH2 0x47A0 JUMP JUMPDEST PUSH2 0x200E PUSH2 0x4828 JUMP JUMPDEST DUP1 PUSH1 0x0 MSTORE PUSH1 0x17 DUP3 MSTORE PUSH1 0x5 PUSH1 0x40 PUSH1 0x0 KECCAK256 ADD DUP1 SLOAD SWAP1 DUP2 ISZERO PUSH2 0x227D JUMPI DUP2 SELFBALANCE LT PUSH2 0x2238 JUMPI PUSH1 0x0 SWAP1 SSTORE DUP2 PUSH1 0x0 MSTORE PUSH1 0x17 DUP4 MSTORE PUSH1 0x40 PUSH1 0x0 KECCAK256 PUSH2 0x2710 PUSH2 0x2055 PUSH2 0xFFFF PUSH1 0x13 SLOAD PUSH1 0x60 SHR AND DUP5 PUSH2 0x44DC JUMP JUMPDEST DIV SWAP1 PUSH2 0x2085 DUP3 PUSH2 0x2065 DUP2 DUP7 PUSH2 0x4715 JUMP JUMPDEST SWAP5 DUP7 PUSH1 0x0 MSTORE PUSH1 0x1B DUP9 MSTORE PUSH1 0x40 PUSH1 0x0 KECCAK256 PUSH2 0x207E DUP3 DUP3 SLOAD PUSH2 0x44B9 JUMP JUMPDEST SWAP1 SSTORE PUSH2 0x4715 JUMP JUMPDEST PUSH2 0x2094 PUSH1 0x5 DUP4 ADD SWAP2 DUP3 SLOAD PUSH2 0x44B9 JUMP JUMPDEST SWAP1 SSTORE DUP2 PUSH2 0x2191 JUMPI JUMPDEST DUP3 PUSH2 0x20DC JUMPI JUMPDEST SWAP2 PUSH1 0x60 SWAP2 PUSH1 0x0 DUP1 MLOAD PUSH1 0x20 PUSH2 0x55C7 DUP4 CODECOPY DUP2 MLOAD SWAP2 MSTORE SWAP4 PUSH1 0xC PUSH1 0x1 DUP1 PUSH1 0xA0 SHL SUB SWAP2 ADD SLOAD AND SWAP6 PUSH1 0x40 MLOAD SWAP3 DUP4 MSTORE DUP3 ADD MSTORE PUSH1 0x0 PUSH1 0x40 DUP3 ADD MSTORE LOG3 PUSH1 0x1 PUSH1 0xE SSTORE STOP JUMPDEST PUSH1 0xC DUP2 ADD PUSH1 0x1 DUP1 PUSH1 0xA0 SHL SUB SWAP1 PUSH1 0x0 DUP1 DUP1 DUP1 DUP9 DUP7 DUP7 SLOAD AND GAS CALL PUSH2 0x20FC PUSH2 0x4722 JUMP JUMPDEST POP ISZERO PUSH2 0x2150 JUMPI SWAP2 PUSH1 0x60 SWAP4 SWAP2 PUSH1 0x0 DUP1 MLOAD PUSH1 0x20 PUSH2 0x55C7 DUP4 CODECOPY DUP2 MLOAD SWAP2 MSTORE SWAP6 SWAP4 SLOAD AND DUP7 PUSH1 0x0 DUP1 MLOAD PUSH1 0x20 PUSH2 0x5587 DUP4 CODECOPY DUP2 MLOAD SWAP2 MSTORE PUSH1 0x40 MLOAD DUP7 DUP2 MSTORE PUSH1 0x40 DUP12 DUP3 ADD MSTORE DUP1 PUSH2 0x2143 PUSH1 0x40 DUP3 ADD PUSH2 0x46C0 JUMP JUMPDEST SUB SWAP1 LOG3 SWAP2 SWAP4 POP SWAP2 POP PUSH2 0x20A2 JUMP JUMPDEST PUSH1 0x40 MLOAD PUSH3 0x461BCD PUSH1 0xE5 SHL DUP2 MSTORE PUSH1 0x4 DUP2 ADD DUP9 SWAP1 MSTORE PUSH1 0x19 PUSH1 0x24 DUP3 ADD MSTORE PUSH25 0x14DD589B5A5D1D195C881D1C985B9CD9995C8819985A5B1959 PUSH1 0x3A SHL PUSH1 0x44 DUP3 ADD MSTORE PUSH1 0x64 SWAP1 REVERT JUMPDEST PUSH1 0x1 DUP1 PUSH1 0xA0 SHL SUB PUSH1 0x0 DUP1 DUP1 DUP1 DUP7 DUP6 PUSH1 0x11 SLOAD AND GAS CALL PUSH2 0x21AD PUSH2 0x4722 JUMP JUMPDEST POP ISZERO PUSH2 0x21F3 JUMPI PUSH1 0x11 SLOAD AND DUP5 PUSH1 0x0 DUP1 MLOAD PUSH1 0x20 PUSH2 0x5587 DUP4 CODECOPY DUP2 MLOAD SWAP2 MSTORE PUSH1 0x80 PUSH1 0x40 MLOAD DUP7 DUP2 MSTORE PUSH1 0x40 DUP11 DUP3 ADD MSTORE PUSH1 0x8 PUSH1 0x40 DUP3 ADD MSTORE PUSH8 0x706C6174666F726D PUSH1 0xC0 SHL PUSH1 0x60 DUP3 ADD MSTORE LOG3 PUSH2 0x209C JUMP JUMPDEST PUSH1 0x40 MLOAD PUSH3 0x461BCD PUSH1 0xE5 SHL DUP2 MSTORE PUSH1 0x4 DUP2 ADD DUP8 SWAP1 MSTORE PUSH1 0x1C PUSH1 0x24 DUP3 ADD MSTORE PUSH32 0x506C6174666F726D20666565207472616E73666572206661696C656400000000 PUSH1 0x44 DUP3 ADD MSTORE PUSH1 0x64 SWAP1 REVERT JUMPDEST PUSH1 0x40 MLOAD PUSH3 0x461BCD PUSH1 0xE5 SHL DUP2 MSTORE PUSH1 0x4 DUP2 ADD DUP6 SWAP1 MSTORE PUSH1 0x1D PUSH1 0x24 DUP3 ADD MSTORE PUSH32 0x496E73756666696369656E7420636F6E74726163742062616C616E6365000000 PUSH1 0x44 DUP3 ADD MSTORE PUSH1 0x64 SWAP1 REVERT JUMPDEST PUSH1 0x40 MLOAD PUSH3 0x461BCD PUSH1 0xE5 SHL DUP2 MSTORE PUSH1 0x4 DUP2 ADD DUP6 SWAP1 MSTORE PUSH1 0x10 PUSH1 0x24 DUP3 ADD MSTORE PUSH16 0x4E6F2070656E64696E672066756E6473 PUSH1 0x80 SHL PUSH1 0x44 DUP3 ADD MSTORE PUSH1 0x64 SWAP1 REVERT JUMPDEST CALLVALUE PUSH2 0x3DF JUMPI PUSH1 0x20 CALLDATASIZE PUSH1 0x3 NOT ADD SLT PUSH2 0x3DF JUMPI PUSH1 0x4 CALLDATALOAD PUSH1 0x0 MSTORE PUSH1 0x1B PUSH1 0x20 MSTORE PUSH1 0x20 PUSH1 0x40 PUSH1 0x0 KECCAK256 SLOAD PUSH1 0x40 MLOAD SWAP1 DUP2 MSTORE RETURN JUMPDEST CALLVALUE PUSH2 0x3DF JUMPI PUSH1 0x20 CALLDATASIZE PUSH1 0x3 NOT ADD SLT PUSH2 0x3DF JUMPI PUSH1 0x40 MLOAD PUSH2 0x22FE DUP2 PUSH2 0x3C51 JUMP JUMPDEST PUSH1 0x0 DUP2 MSTORE PUSH1 0x20 DUP2 ADD PUSH1 0x60 SWAP1 MSTORE PUSH1 0x40 DUP2 ADD PUSH1 0x60 SWAP1 MSTORE PUSH1 0x60 DUP2 ADD PUSH1 0x0 SWAP1 MSTORE PUSH1 0x80 DUP2 ADD PUSH1 0x0 SWAP1 MSTORE PUSH1 0xA0 DUP2 ADD PUSH1 0x0 SWAP1 MSTORE PUSH1 0xC0 DUP2 ADD PUSH1 0x0 SWAP1 MSTORE PUSH1 0xE0 DUP2 ADD PUSH1 0x0 SWAP1 MSTORE PUSH2 0x100 DUP2 ADD PUSH1 0x0 SWAP1 MSTORE PUSH2 0x120 DUP2 ADD PUSH1 0x0 SWAP1 MSTORE PUSH2 0x140 DUP2 ADD PUSH1 0x0 SWAP1 MSTORE PUSH2 0x160 DUP2 ADD PUSH1 0x0 SWAP1 MSTORE PUSH2 0x180 DUP2 ADD PUSH1 0x0 SWAP1 MSTORE PUSH2 0x1A0 DUP2 ADD PUSH1 0x0 SWAP1 MSTORE PUSH2 0x1C0 DUP2 ADD PUSH1 0x0 SWAP1 MSTORE PUSH2 0x1E0 DUP2 ADD PUSH1 0x0 SWAP1 MSTORE PUSH2 0x200 DUP2 ADD PUSH1 0x0 SWAP1 MSTORE PUSH2 0x220 DUP2 ADD PUSH1 0x0 SWAP1 MSTORE PUSH2 0x240 ADD PUSH1 0x0 SWAP1 MSTORE PUSH1 0x4 CALLDATALOAD PUSH1 0x0 MSTORE PUSH1 0x17 PUSH1 0x20 MSTORE PUSH1 0x40 PUSH1 0x0 KECCAK256 PUSH1 0x2 DUP2 ADD SLOAD PUSH1 0x3 DUP3 ADD SLOAD PUSH1 0x4 DUP4 ADD SLOAD PUSH1 0x5 DUP5 ADD SLOAD PUSH1 0x6 DUP6 ADD SLOAD PUSH1 0x7 DUP7 ADD SLOAD PUSH1 0x8 DUP8 ADD SLOAD SWAP2 PUSH1 0x9 DUP9 ADD SLOAD SWAP4 PUSH1 0xA DUP10 ADD SLOAD SWAP6 PUSH1 0x1 PUSH1 0xA0 SHL PUSH1 0x1 SWAP1 SUB PUSH1 0xB DUP12 ADD SLOAD AND SWAP8 PUSH1 0xC DUP12 ADD SLOAD SWAP10 PUSH1 0x40 MLOAD SWAP12 PUSH2 0x23FF DUP14 PUSH2 0x3C51 JUMP JUMPDEST PUSH1 0x4 CALLDATALOAD DUP14 MSTORE DUP13 PUSH2 0x240E DUP3 PUSH2 0x3CA9 JUMP JUMPDEST SWAP1 PUSH1 0x20 ADD MSTORE PUSH1 0x1 ADD PUSH2 0x241F SWAP1 PUSH2 0x3CA9 JUMP JUMPDEST PUSH1 0x40 DUP14 ADD MSTORE PUSH1 0x60 DUP13 ADD MSTORE PUSH1 0x80 DUP12 ADD MSTORE PUSH1 0xA0 DUP11 ADD MSTORE PUSH1 0xC0 DUP10 ADD MSTORE PUSH1 0xE0 DUP9 ADD MSTORE PUSH2 0x100 DUP8 ADD MSTORE PUSH2 0x120 DUP7 ADD MSTORE PUSH2 0x140 DUP6 ADD MSTORE PUSH2 0x160 DUP5 ADD MSTORE PUSH2 0x180 DUP4 ADD MSTORE PUSH1 0x1 PUSH1 0xA0 SHL PUSH1 0x1 SWAP1 SUB DUP2 AND PUSH2 0x1A0 DUP4 ADD MSTORE DUP1 PUSH1 0xA0 SHR PUSH1 0xFF AND ISZERO ISZERO PUSH2 0x1C0 DUP4 ADD MSTORE DUP1 PUSH1 0xA8 SHR PUSH1 0xFF AND ISZERO ISZERO PUSH2 0x1E0 DUP4 ADD MSTORE DUP1 PUSH1 0xB0 SHR PUSH1 0xFF AND ISZERO ISZERO PUSH2 0x200 DUP4 ADD MSTORE DUP1 PUSH1 0xB8 SHR PUSH1 0xFF AND ISZERO ISZERO PUSH2 0x220 DUP4 ADD MSTORE PUSH1 0xC0 SHR PUSH1 0xFF AND ISZERO ISZERO PUSH2 0x240 DUP3 ADD MSTORE PUSH1 0x40 MLOAD DUP1 SWAP2 PUSH1 0x20 DUP3 MSTORE DUP1 MLOAD PUSH1 0x20 DUP4 ADD MSTORE PUSH1 0x20 DUP2 ADD MLOAD PUSH1 0x40 DUP4 ADD PUSH2 0x260 SWAP1 MSTORE PUSH2 0x280 DUP4 ADD PUSH2 0x24E2 SWAP2 PUSH2 0x3B50 JUMP JUMPDEST PUSH1 0x40 DUP3 ADD MLOAD DUP4 DUP3 SUB PUSH1 0x1F NOT ADD PUSH1 0x60 DUP6 ADD MSTORE PUSH2 0x24FD SWAP2 SWAP1 PUSH2 0x3B50 JUMP JUMPDEST SWAP1 PUSH1 0x60 DUP2 ADD MLOAD PUSH1 0x80 DUP5 ADD MSTORE PUSH1 0x80 DUP2 ADD MLOAD PUSH1 0xA0 DUP5 ADD MSTORE PUSH1 0xA0 DUP2 ADD MLOAD PUSH1 0xC0 DUP5 ADD MSTORE PUSH1 0xC0 DUP2 ADD MLOAD PUSH1 0xE0 DUP5 ADD MSTORE PUSH1 0xE0 DUP2 ADD MLOAD PUSH2 0x100 DUP5 ADD MSTORE PUSH2 0x100 DUP2 ADD MLOAD PUSH2 0x120 DUP5 ADD MSTORE PUSH2 0x120 DUP2 ADD MLOAD PUSH2 0x140 DUP5 ADD MSTORE PUSH2 0x140 DUP2 ADD MLOAD PUSH2 0x160 DUP5 ADD MSTORE PUSH2 0x160 DUP2 ADD MLOAD PUSH2 0x180 DUP5 ADD MSTORE PUSH1 0x1 PUSH1 0xA0 SHL PUSH1 0x1 SWAP1 SUB PUSH2 0x180 DUP3 ADD MLOAD AND PUSH2 0x1A0 DUP5 ADD MSTORE PUSH1 0x1 PUSH1 0xA0 SHL PUSH1 0x1 SWAP1 SUB PUSH2 0x1A0 DUP3 ADD MLOAD AND PUSH2 0x1C0 DUP5 ADD MSTORE PUSH2 0x1C0 DUP2 ADD MLOAD ISZERO ISZERO PUSH2 0x1E0 DUP5 ADD MSTORE PUSH2 0x1E0 DUP2 ADD MLOAD ISZERO ISZERO PUSH2 0x200 DUP5 ADD MSTORE PUSH2 0x200 DUP2 ADD MLOAD ISZERO ISZERO PUSH2 0x220 DUP5 ADD MSTORE PUSH2 0x220 DUP2 ADD MLOAD ISZERO ISZERO PUSH2 0x240 DUP5 ADD MSTORE PUSH2 0x240 ADD MLOAD ISZERO ISZERO PUSH2 0x260 DUP4 ADD MSTORE SUB SWAP1 RETURN JUMPDEST CALLVALUE PUSH2 0x3DF JUMPI PUSH1 0x0 CALLDATASIZE PUSH1 0x3 NOT ADD SLT PUSH2 0x3DF JUMPI PUSH1 0x20 PUSH1 0x12 SLOAD PUSH1 0x40 MLOAD SWAP1 DUP2 MSTORE RETURN JUMPDEST CALLVALUE PUSH2 0x3DF JUMPI PUSH1 0x20 CALLDATASIZE PUSH1 0x3 NOT ADD SLT PUSH2 0x3DF JUMPI PUSH1 0x4 CALLDATALOAD PUSH1 0xA SLOAD DUP2 LT ISZERO PUSH2 0x262B JUMPI PUSH2 0x261D PUSH1 0x20 SWAP2 PUSH2 0x3DF2 JUMP JUMPDEST SWAP1 SLOAD PUSH1 0x40 MLOAD SWAP2 PUSH1 0x3 SHL SHR DUP2 MSTORE RETURN JUMPDEST PUSH1 0x44 SWAP1 PUSH1 0x40 MLOAD SWAP1 PUSH4 0x295F44F7 PUSH1 0xE2 SHL DUP3 MSTORE PUSH1 0x0 PUSH1 0x4 DUP4 ADD MSTORE PUSH1 0x24 DUP3 ADD MSTORE REVERT JUMPDEST PUSH1 0x0 CALLDATASIZE PUSH1 0x3 NOT ADD SLT PUSH2 0x3DF JUMPI CALLVALUE ISZERO PUSH2 0x2699 JUMPI PUSH2 0x2668 CALLVALUE PUSH1 0x12 SLOAD PUSH2 0x44B9 JUMP JUMPDEST PUSH1 0x12 SSTORE PUSH1 0x40 MLOAD CALLVALUE DUP2 MSTORE PUSH32 0x1DA5CC6515D0BF0B6FB40CEDCD4EF3EB9A5B820440278EFC9321A4491B5DD1EF PUSH1 0x20 CALLER SWAP3 LOG2 STOP JUMPDEST PUSH1 0x40 MLOAD PUSH3 0x461BCD PUSH1 0xE5 SHL DUP2 MSTORE PUSH1 0x20 PUSH1 0x4 DUP3 ADD MSTORE PUSH1 0xF PUSH1 0x24 DUP3 ADD MSTORE PUSH15 0x4D7573742073656E642066756E6473 PUSH1 0x88 SHL PUSH1 0x44 DUP3 ADD MSTORE PUSH1 0x64 SWAP1 REVERT JUMPDEST CALLVALUE PUSH2 0x3DF JUMPI PUSH1 0x20 CALLDATASIZE PUSH1 0x3 NOT ADD SLT PUSH2 0x3DF JUMPI PUSH1 0x4 CALLDATALOAD PUSH2 0x26EC PUSH2 0x47A0 JUMP JUMPDEST PUSH1 0x0 DUP2 DUP2 MSTORE PUSH1 0x17 PUSH1 0x20 MSTORE PUSH1 0x40 DUP2 KECCAK256 PUSH1 0xC ADD DUP1 SLOAD PUSH1 0xFF PUSH1 0xA8 SHL NOT AND SWAP1 SSTORE PUSH32 0x11AA0BD3FB4D9C5622C703F91610A74140A4F88A7EBC7B4FAAEAF52E3CB7AA94 SWAP1 DUP1 LOG2 STOP JUMPDEST CALLVALUE PUSH2 0x3DF JUMPI PUSH2 0x18 PUSH2 0x273F CALLDATASIZE PUSH2 0x3DBD JUMP JUMPDEST SWAP1 PUSH1 0x40 MLOAD SWAP3 PUSH2 0x274D DUP5 PUSH2 0x3C6D JUMP JUMPDEST PUSH1 0x0 DUP5 MSTORE PUSH2 0x1023 DUP4 DUP4 DUP4 PUSH2 0x40D5 JUMP JUMPDEST CALLVALUE PUSH2 0x3DF JUMPI PUSH2 0x276A CALLDATASIZE PUSH2 0x3B90 JUMP JUMPDEST SWAP1 PUSH1 0x0 MSTORE PUSH1 0x1A PUSH1 0x20 MSTORE PUSH1 0x40 PUSH1 0x0 KECCAK256 DUP1 SLOAD DUP3 LT ISZERO PUSH2 0x3DF JUMPI PUSH1 0x20 SWAP2 PUSH2 0x261D SWAP2 PUSH2 0x3E29 JUMP JUMPDEST CALLVALUE PUSH2 0x3DF JUMPI PUSH1 0x0 CALLDATASIZE PUSH1 0x3 NOT ADD SLT PUSH2 0x3DF JUMPI PUSH2 0x27A6 PUSH2 0x47A0 JUMP JUMPDEST PUSH1 0xD SLOAD PUSH1 0xFF DUP2 PUSH1 0xA0 SHR AND ISZERO PUSH2 0x27ED JUMPI PUSH1 0xFF PUSH1 0xA0 SHL NOT AND PUSH1 0xD SSTORE PUSH1 0x40 MLOAD CALLER DUP2 MSTORE PUSH32 0x5DB9EE0A495BF2E6FF9C91A7834C1BA4FDD244A5E8AA4E537BD38AEAE4B073AA SWAP1 PUSH1 0x20 SWAP1 LOG1 STOP JUMPDEST PUSH1 0x40 MLOAD PUSH4 0x8DFC202B PUSH1 0xE0 SHL DUP2 MSTORE PUSH1 0x4 SWAP1 REVERT JUMPDEST PUSH1 0x20 PUSH2 0x7E4 PUSH2 0x280D CALLDATASIZE PUSH2 0x3B90 JUMP JUMPDEST SWAP1 PUSH2 0x2816 PUSH2 0x4807 JUMP JUMPDEST CALLER PUSH1 0x0 MSTORE PUSH1 0x15 DUP5 MSTORE PUSH2 0x2830 PUSH1 0xFF PUSH1 0x40 PUSH1 0x0 KECCAK256 SLOAD AND ISZERO PUSH2 0x3E93 JUMP JUMPDEST PUSH2 0x2838 PUSH2 0x4828 JUMP JUMPDEST PUSH2 0x2863 PUSH32 0x0 CHAINID EQ PUSH2 0x3ED8 JUMP JUMPDEST DUP1 PUSH1 0x0 MSTORE PUSH1 0x17 DUP5 MSTORE PUSH2 0x28A0 PUSH1 0x40 PUSH1 0x0 KECCAK256 PUSH2 0x288B PUSH1 0xFF PUSH1 0xC DUP4 ADD SLOAD PUSH2 0x1611 DUP3 DUP3 PUSH1 0xA0 SHR AND PUSH2 0x450F JUMP JUMPDEST PUSH1 0x8 DUP2 ADD SLOAD DUP1 ISZERO SWAP2 DUP3 ISZERO PUSH2 0x28A5 JUMPI POP POP PUSH2 0x3FF8 JUMP JUMPDEST PUSH2 0x4AEA JUMP JUMPDEST PUSH1 0x7 ADD SLOAD LT SWAP1 POP DUP7 DUP1 PUSH2 0x7D8 JUMP JUMPDEST CALLVALUE PUSH2 0x3DF JUMPI PUSH1 0x40 CALLDATASIZE PUSH1 0x3 NOT ADD SLT PUSH2 0x3DF JUMPI PUSH1 0x4 CALLDATALOAD PUSH32 0x7FBA17392135B4084A7D689C1F6D77139E1F1C18EE4651BF32DC35AE29CE9301 PUSH1 0x20 PUSH2 0x28F2 PUSH2 0x3D4E JUMP JUMPDEST PUSH2 0x28FA PUSH2 0x47A0 JUMP JUMPDEST PUSH1 0x0 DUP5 DUP2 MSTORE PUSH1 0x4 DUP4 MSTORE PUSH1 0x40 SWAP1 KECCAK256 SLOAD PUSH2 0x291C SWAP1 PUSH1 0x1 PUSH1 0x1 PUSH1 0xA0 SHL SUB AND ISZERO ISZERO PUSH2 0x3F50 JUMP JUMPDEST DUP4 PUSH1 0x0 MSTORE PUSH1 0x16 DUP3 MSTORE PUSH2 0xE15 DUP2 PUSH1 0x40 PUSH1 0x0 KECCAK256 SWAP1 PUSH1 0xFF DUP1 NOT DUP4 SLOAD AND SWAP2 ISZERO ISZERO AND OR SWAP1 SSTORE JUMP JUMPDEST CALLVALUE PUSH2 0x3DF JUMPI PUSH1 0x20 DUP1 PUSH1 0x3 NOT CALLDATASIZE ADD SLT PUSH2 0x3DF JUMPI PUSH1 0x4 CALLDATALOAD PUSH1 0x0 MSTORE PUSH1 0x1A PUSH1 0x20 MSTORE PUSH1 0x40 PUSH1 0x0 KECCAK256 SWAP1 PUSH1 0x40 MLOAD SWAP1 DUP2 PUSH1 0x20 DUP5 SLOAD SWAP2 DUP3 DUP2 MSTORE ADD SWAP4 PUSH1 0x0 MSTORE PUSH1 0x20 PUSH1 0x0 KECCAK256 SWAP2 PUSH1 0x0 SWAP1 JUMPDEST DUP3 DUP3 LT PUSH2 0x29A0 JUMPI PUSH2 0xF8E DUP6 PUSH2 0x2994 DUP2 DUP10 SUB DUP3 PUSH2 0x3C88 JUMP JUMPDEST PUSH1 0x40 MLOAD SWAP2 DUP3 SWAP2 DUP3 PUSH2 0x3BA6 JUMP JUMPDEST DUP4 SLOAD DUP7 MSTORE SWAP5 DUP6 ADD SWAP5 PUSH1 0x1 SWAP4 DUP5 ADD SWAP4 SWAP1 SWAP2 ADD SWAP1 PUSH2 0x297D JUMP JUMPDEST CALLVALUE PUSH2 0x3DF JUMPI PUSH1 0x20 CALLDATASIZE PUSH1 0x3 NOT ADD SLT PUSH2 0x3DF JUMPI PUSH2 0x29D0 PUSH2 0x47A0 JUMP JUMPDEST PUSH32 0xF8E1A15ABA9398E019F0B49DF1A4FDE98EE17AE345CB5F6B5E2C27F5033E8CE7 PUSH1 0x20 PUSH1 0x40 MLOAD PUSH1 0x4 CALLDATALOAD DUP2 MSTORE LOG1 STOP JUMPDEST CALLVALUE PUSH2 0x3DF JUMPI PUSH1 0x40 CALLDATASIZE PUSH1 0x3 NOT ADD SLT PUSH2 0x3DF JUMPI PUSH2 0x2A17 PUSH2 0x3B24 JUMP JUMPDEST PUSH1 0x24 CALLDATALOAD SWAP1 PUSH2 0x2A24 DUP2 PUSH2 0x46DC JUMP JUMPDEST DUP3 LT ISZERO PUSH2 0x2A57 JUMPI PUSH1 0x1 DUP1 PUSH1 0xA0 SHL SUB AND PUSH1 0x0 MSTORE PUSH1 0x8 PUSH1 0x20 MSTORE PUSH1 0x40 PUSH1 0x0 KECCAK256 SWAP1 PUSH1 0x0 MSTORE PUSH1 0x20 MSTORE PUSH1 0x20 PUSH1 0x40 PUSH1 0x0 KECCAK256 SLOAD PUSH1 0x40 MLOAD SWAP1 DUP2 MSTORE RETURN JUMPDEST PUSH1 0x40 MLOAD PUSH4 0x295F44F7 PUSH1 0xE2 SHL DUP2 MSTORE PUSH1 0x1 PUSH1 0x1 PUSH1 0xA0 SHL SUB SWAP2 SWAP1 SWAP2 AND PUSH1 0x4 DUP3 ADD MSTORE PUSH1 0x24 DUP2 ADD SWAP2 SWAP1 SWAP2 MSTORE PUSH1 0x44 SWAP1 REVERT JUMPDEST CALLVALUE PUSH2 0x3DF JUMPI PUSH1 0x60 CALLDATASIZE PUSH1 0x3 NOT ADD SLT PUSH2 0x3DF JUMPI PUSH1 0x4 CALLDATALOAD PUSH1 0x40 PUSH2 0x2AA0 PUSH2 0x3B3A JUMP JUMPDEST SWAP2 PUSH2 0x2AA9 PUSH2 0x47A0 JUMP JUMPDEST DUP1 PUSH1 0x0 MSTORE PUSH1 0x20 SWAP3 PUSH1 0x17 DUP5 MSTORE DUP3 PUSH1 0x0 KECCAK256 SWAP2 PUSH2 0x2ADB PUSH1 0xFF PUSH1 0xC DUP6 ADD SLOAD PUSH2 0x2AD1 DUP3 DUP3 PUSH1 0xA0 SHR AND PUSH2 0x450F JUMP JUMPDEST PUSH1 0xB0 SHR AND ISZERO PUSH2 0x3F12 JUMP JUMPDEST PUSH2 0x2AF3 PUSH1 0x8 DUP5 ADD SLOAD DUP1 ISZERO SWAP1 DUP2 ISZERO PUSH2 0x2B90 JUMPI JUMPDEST POP PUSH2 0x3FF8 JUMP JUMPDEST PUSH1 0x0 DUP1 MLOAD PUSH1 0x20 PUSH2 0x55A7 DUP4 CODECOPY DUP2 MLOAD SWAP2 MSTORE PUSH1 0xF SLOAD SWAP5 DUP6 SWAP4 PUSH2 0x2B11 DUP6 PUSH2 0x4551 JUMP JUMPDEST PUSH1 0xF SSTORE PUSH2 0x2B44 PUSH2 0x2B3E PUSH1 0x1 PUSH1 0x7 DUP10 ADD SWAP9 PUSH2 0x2B2B DUP11 SLOAD PUSH2 0x4551 JUMP JUMPDEST DUP1 SWAP11 SSTORE PUSH2 0x2B38 DUP10 DUP7 PUSH2 0x4C15 JUMP JUMPDEST ADD PUSH2 0x3CA9 JUMP JUMPDEST DUP7 PUSH2 0x48A5 JUMP JUMPDEST DUP5 PUSH1 0x0 MSTORE PUSH1 0x18 DUP9 MSTORE DUP4 DUP3 PUSH1 0x0 KECCAK256 SSTORE PUSH1 0x19 DUP9 MSTORE DUP6 DUP3 PUSH1 0x0 KECCAK256 SSTORE DUP4 PUSH1 0x0 MSTORE PUSH1 0x1A DUP9 MSTORE PUSH2 0x2B71 DUP6 DUP4 PUSH1 0x0 KECCAK256 PUSH2 0x459C JUMP JUMPDEST DUP2 MLOAD SWAP6 DUP7 MSTORE PUSH1 0x44 CALLDATALOAD DUP9 DUP8 ADD MSTORE PUSH1 0x1 PUSH1 0x1 PUSH1 0xA0 SHL SUB AND SWAP5 LOG4 PUSH1 0x40 MLOAD SWAP1 DUP2 MSTORE RETURN JUMPDEST SWAP1 POP PUSH1 0x7 DUP6 ADD SLOAD LT DUP8 PUSH2 0x2AED JUMP JUMPDEST CALLVALUE PUSH2 0x3DF JUMPI PUSH2 0x2BAC CALLDATASIZE PUSH2 0x3B90 JUMP JUMPDEST SWAP1 PUSH1 0x0 MSTORE PUSH1 0x1 PUSH1 0x20 MSTORE PUSH1 0x40 PUSH1 0x0 KECCAK256 PUSH1 0x40 MLOAD SWAP1 PUSH2 0x2BC7 DUP3 PUSH2 0x3C36 JUMP JUMPDEST SLOAD PUSH1 0x1 PUSH1 0x1 PUSH1 0xA0 SHL SUB DUP1 DUP3 AND DUP1 DUP5 MSTORE PUSH1 0xA0 SWAP3 SWAP1 SWAP3 SHR PUSH1 0x20 DUP5 ADD MSTORE SWAP2 SWAP3 SWAP1 ISZERO PUSH2 0x2C23 JUMPI JUMPDEST PUSH2 0x2C05 PUSH2 0x2710 SWAP2 PUSH1 0x1 PUSH1 0x1 PUSH1 0x60 SHL SUB PUSH1 0x20 DUP7 ADD MLOAD AND SWAP1 PUSH2 0x44DC JUMP JUMPDEST SWAP3 MLOAD PUSH1 0x40 DUP1 MLOAD SWAP4 SWAP1 SWAP2 AND PUSH1 0x1 PUSH1 0x1 PUSH1 0xA0 SHL SUB AND DUP4 MSTORE SWAP3 DIV PUSH1 0x20 DUP3 ADD MSTORE RETURN JUMPDEST SWAP2 POP PUSH2 0x2710 PUSH2 0x2C05 PUSH1 0x40 MLOAD PUSH2 0x2C37 DUP2 PUSH2 0x3C36 JUMP JUMPDEST PUSH1 0x0 SLOAD DUP5 DUP2 AND DUP3 MSTORE PUSH1 0xA0 SHR PUSH1 0x20 DUP3 ADD MSTORE SWAP4 SWAP2 POP POP PUSH2 0x2BEA JUMP JUMPDEST CALLVALUE PUSH2 0x3DF JUMPI PUSH1 0xA0 CALLDATASIZE PUSH1 0x3 NOT ADD SLT PUSH2 0x3DF JUMPI PUSH1 0x4 CALLDATALOAD PUSH1 0x24 CALLDATALOAD PUSH1 0x44 CALLDATALOAD PUSH1 0x64 CALLDATALOAD SWAP2 PUSH1 0x84 CALLDATALOAD DUP1 ISZERO ISZERO DUP1 SWAP2 SUB PUSH2 0x3DF JUMPI PUSH1 0x0 DUP1 MLOAD PUSH1 0x20 PUSH2 0x5607 DUP4 CODECOPY DUP2 MLOAD SWAP2 MSTORE SWAP4 PUSH1 0x80 SWAP4 PUSH2 0x2C96 PUSH2 0x47A0 JUMP JUMPDEST DUP7 PUSH1 0x0 MSTORE PUSH1 0x17 PUSH1 0x20 MSTORE PUSH1 0x6 PUSH1 0x40 PUSH1 0x0 KECCAK256 PUSH2 0x2CBA PUSH1 0xFF PUSH1 0xC DUP4 ADD SLOAD PUSH1 0xB0 SHR AND ISZERO PUSH2 0x3F12 JUMP JUMPDEST PUSH2 0x2CC4 DUP5 DUP8 PUSH2 0x44B9 JUMP JUMPDEST PUSH2 0x2CD3 PUSH1 0x4 DUP4 ADD SWAP2 DUP3 SLOAD PUSH2 0x44B9 JUMP JUMPDEST SWAP1 SSTORE PUSH1 0x5 DUP2 ADD PUSH2 0x2CE4 DUP5 DUP3 SLOAD PUSH2 0x44B9 JUMP JUMPDEST SWAP1 SSTORE ADD PUSH2 0x2CF2 DUP4 DUP3 SLOAD PUSH2 0x44B9 JUMP JUMPDEST SWAP1 SSTORE PUSH1 0x40 MLOAD SWAP4 DUP5 MSTORE PUSH1 0x20 DUP5 ADD MSTORE PUSH1 0x40 DUP4 ADD MSTORE PUSH1 0x60 DUP3 ADD MSTORE LOG2 STOP JUMPDEST CALLVALUE PUSH2 0x3DF JUMPI PUSH2 0x18 PUSH2 0x2D1D CALLDATASIZE PUSH2 0x3DBD JUMP JUMPDEST SWAP2 PUSH2 0x40D5 JUMP JUMPDEST CALLVALUE PUSH2 0x3DF JUMPI PUSH1 0x0 CALLDATASIZE PUSH1 0x3 NOT ADD SLT PUSH2 0x3DF JUMPI PUSH1 0x20 PUSH2 0xFFFF PUSH1 0x13 SLOAD PUSH1 0x60 SHR AND PUSH1 0x40 MLOAD SWAP1 DUP2 MSTORE RETURN JUMPDEST CALLVALUE PUSH2 0x3DF JUMPI PUSH1 0x20 CALLDATASIZE PUSH1 0x3 NOT ADD SLT PUSH2 0x3DF JUMPI PUSH1 0x4 CALLDATALOAD PUSH2 0x2D64 PUSH2 0x47A0 JUMP JUMPDEST DUP1 PUSH1 0x0 MSTORE PUSH1 0x17 PUSH1 0x20 MSTORE PUSH1 0xC PUSH1 0x40 PUSH1 0x0 KECCAK256 ADD DUP1 SLOAD PUSH1 0xFF DUP2 PUSH1 0xB0 SHR AND PUSH2 0x2DDB JUMPI PUSH2 0x2D92 PUSH1 0xFF DUP3 PUSH1 0xB8 SHR AND ISZERO PUSH2 0x4091 JUMP JUMPDEST PUSH1 0xFF PUSH1 0xA0 SHL NOT AND PUSH1 0x1 PUSH1 0xA0 SHL OR SWAP1 SSTORE PUSH1 0x40 DUP1 MLOAD PUSH1 0x20 DUP1 DUP3 MSTORE PUSH1 0x6 SWAP1 DUP3 ADD MSTORE PUSH6 0x616374697665 PUSH1 0xD0 SHL SWAP2 DUP2 ADD SWAP2 SWAP1 SWAP2 MSTORE PUSH1 0x0 DUP1 MLOAD PUSH1 0x20 PUSH2 0x55E7 DUP4 CODECOPY DUP2 MLOAD SWAP2 MSTORE SWAP1 DUP1 PUSH1 0x60 DUP2 ADD PUSH2 0x1ADF JUMP JUMPDEST PUSH1 0x40 MLOAD PUSH3 0x461BCD PUSH1 0xE5 SHL DUP2 MSTORE PUSH1 0x20 PUSH1 0x4 DUP3 ADD MSTORE PUSH1 0x1B PUSH1 0x24 DUP3 ADD MSTORE PUSH32 0x43616D706169676E207065726D616E656E746C7920636C6F7365640000000000 PUSH1 0x44 DUP3 ADD MSTORE PUSH1 0x64 SWAP1 REVERT JUMPDEST CALLVALUE PUSH2 0x3DF JUMPI PUSH2 0x2E2E CALLDATASIZE PUSH2 0x3D8A JUMP JUMPDEST SWAP1 PUSH2 0x2E37 PUSH2 0x47A0 JUMP JUMPDEST DUP3 PUSH1 0x0 MSTORE PUSH1 0x20 SWAP1 PUSH1 0x17 DUP3 MSTORE PUSH1 0x40 PUSH1 0x0 KECCAK256 PUSH2 0x2E5B PUSH1 0xFF PUSH1 0xC DUP4 ADD SLOAD PUSH1 0xB0 SHR AND ISZERO PUSH2 0x3F12 JUMP JUMPDEST PUSH1 0x1 DUP1 SWAP2 ADD PUSH1 0x1 PUSH1 0x1 PUSH1 0x40 SHL SUB DUP6 GT PUSH2 0xCF7 JUMPI PUSH2 0x2E82 DUP6 PUSH2 0x2E7C DUP4 SLOAD PUSH2 0x3BFC JUMP JUMPDEST DUP4 PUSH2 0x403B JUMP JUMPDEST PUSH1 0x0 DUP6 PUSH1 0x1F DUP2 GT PUSH1 0x1 EQ PUSH2 0x2F4C JUMPI DUP1 PUSH2 0x2EB1 SWAP3 PUSH1 0x0 SWAP2 PUSH2 0x2F41 JUMPI JUMPDEST POP DUP2 PUSH1 0x1 SHL SWAP2 PUSH1 0x0 NOT SWAP1 PUSH1 0x3 SHL SHR NOT AND OR SWAP1 JUMP JUMPDEST SWAP1 SSTORE JUMPDEST DUP5 PUSH1 0x0 MSTORE PUSH1 0x1A DUP4 MSTORE PUSH1 0x40 PUSH1 0x0 KECCAK256 DUP2 PUSH1 0x0 SWAP1 JUMPDEST PUSH2 0x2F03 JUMPI JUMPDEST PUSH1 0x40 MLOAD DUP6 DUP2 MSTORE DUP8 SWAP1 PUSH32 0xD0ED2732DA48175AAAE07FD675A2A78B1700515722F6675D7FF5F0E09F22F309 SWAP1 DUP1 PUSH2 0x1ADF DUP2 DUP11 ADD DUP12 DUP11 PUSH2 0x3F93 JUMP JUMPDEST DUP2 SLOAD DUP2 LT ISZERO PUSH2 0x2F3C JUMPI SWAP1 DUP3 DUP3 PUSH2 0x2F34 PUSH2 0x2F1D DUP4 SWAP6 DUP6 PUSH2 0x3E29 JUMP JUMPDEST SWAP1 SLOAD PUSH2 0x2F2A CALLDATASIZE DUP13 DUP12 PUSH2 0x3E5C JUMP JUMPDEST SWAP2 PUSH1 0x3 SHL SHR PUSH2 0x48A5 JUMP JUMPDEST ADD SWAP1 SWAP2 PUSH2 0x2EC6 JUMP JUMPDEST PUSH2 0x2ECB JUMP JUMPDEST SWAP1 POP DUP6 ADD CALLDATALOAD DUP10 PUSH2 0x2E9D JUMP JUMPDEST POP PUSH1 0x1F NOT DUP7 AND SWAP1 DUP3 PUSH1 0x0 MSTORE DUP7 DUP7 PUSH1 0x0 KECCAK256 SWAP3 PUSH1 0x0 JUMPDEST DUP9 DUP8 DUP4 DUP4 LT PUSH2 0x2F9A JUMPI POP POP POP LT PUSH2 0x2F80 JUMPI JUMPDEST POP POP DUP2 DUP6 DUP2 SHL ADD SWAP1 SSTORE PUSH2 0x2EB4 JUMP JUMPDEST DUP5 ADD CALLDATALOAD PUSH1 0x0 NOT PUSH1 0x3 DUP9 SWAP1 SHL PUSH1 0xF8 AND SHR NOT AND SWAP1 SSTORE DUP7 DUP1 PUSH2 0x2F72 JUMP JUMPDEST DUP6 DUP11 ADD CALLDATALOAD DUP8 SSTORE SWAP1 SWAP6 ADD SWAP5 SWAP4 DUP5 ADD SWAP4 DUP11 SWAP4 POP ADD PUSH2 0x2F60 JUMP JUMPDEST CALLVALUE PUSH2 0x3DF JUMPI PUSH2 0x2FBF CALLDATASIZE PUSH2 0x3B90 JUMP JUMPDEST PUSH2 0x2FC7 PUSH2 0x47A0 JUMP JUMPDEST DUP2 PUSH1 0x0 MSTORE PUSH1 0x17 PUSH1 0x20 MSTORE PUSH1 0x40 PUSH1 0x0 KECCAK256 PUSH2 0x2FE9 PUSH1 0xFF PUSH1 0xC DUP4 ADD SLOAD PUSH1 0xB0 SHR AND ISZERO PUSH2 0x3F12 JUMP JUMPDEST DUP2 ISZERO DUP1 ISZERO PUSH2 0x3076 JUMPI JUMPDEST ISZERO PUSH2 0x3031 JUMPI PUSH1 0x8 ADD SSTORE PUSH1 0x0 DUP1 MLOAD PUSH1 0x20 PUSH2 0x55E7 DUP4 CODECOPY DUP2 MLOAD SWAP2 MSTORE PUSH1 0x60 PUSH1 0x40 MLOAD PUSH1 0x20 DUP2 MSTORE PUSH1 0xB PUSH1 0x20 DUP3 ADD MSTORE PUSH11 0x6D617845646974696F6E73 PUSH1 0xA8 SHL PUSH1 0x40 DUP3 ADD MSTORE LOG2 STOP JUMPDEST PUSH1 0x40 MLOAD PUSH3 0x461BCD PUSH1 0xE5 SHL DUP2 MSTORE PUSH1 0x20 PUSH1 0x4 DUP3 ADD MSTORE PUSH1 0x1A PUSH1 0x24 DUP3 ADD MSTORE PUSH32 0x43616E6E6F74207265647563652062656C6F77206D696E746564000000000000 PUSH1 0x44 DUP3 ADD MSTORE PUSH1 0x64 SWAP1 REVERT JUMPDEST POP PUSH1 0x7 DUP2 ADD SLOAD DUP3 LT ISZERO PUSH2 0x2FF2 JUMP JUMPDEST CALLVALUE PUSH2 0x3DF JUMPI PUSH32 0xC6D3DA45896CE1BCA9D198309A2DBEEA3C73A991748F8D88D796FFA06029DE93 PUSH2 0x30B3 CALLDATASIZE PUSH2 0x3BE2 JUMP JUMPDEST PUSH2 0x30BE SWAP4 SWAP3 SWAP4 PUSH2 0x47A0 JUMP JUMPDEST DUP4 PUSH1 0x0 MSTORE PUSH1 0x17 PUSH1 0x20 MSTORE PUSH2 0x1ADF PUSH1 0x40 PUSH1 0x0 KECCAK256 SWAP2 PUSH2 0x30E4 PUSH1 0xFF PUSH1 0xC DUP6 ADD SLOAD PUSH1 0xB0 SHR AND ISZERO PUSH2 0x3F12 JUMP JUMPDEST DUP1 PUSH1 0xA PUSH1 0x9 DUP6 ADD SWAP5 DUP7 DUP7 SLOAD SWAP7 SSTORE ADD SSTORE PUSH1 0x40 MLOAD SWAP4 DUP5 SWAP4 DUP5 PUSH1 0x40 SWAP2 SWAP5 SWAP4 SWAP3 PUSH1 0x60 DUP3 ADD SWAP6 DUP3 MSTORE PUSH1 0x20 DUP3 ADD MSTORE ADD MSTORE JUMP JUMPDEST CALLVALUE PUSH2 0x3DF JUMPI PUSH1 0x0 CALLDATASIZE PUSH1 0x3 NOT ADD SLT PUSH2 0x3DF JUMPI PUSH1 0x20 PUSH1 0x1 PUSH1 0x1 PUSH1 0x60 SHL SUB PUSH1 0x13 SLOAD AND PUSH1 0x40 MLOAD SWAP1 DUP2 MSTORE RETURN JUMPDEST CALLVALUE PUSH2 0x3DF JUMPI PUSH1 0x0 CALLDATASIZE PUSH1 0x3 NOT ADD SLT PUSH2 0x3DF JUMPI PUSH1 0x20 PUSH1 0xA SLOAD PUSH1 0x40 MLOAD SWAP1 DUP2 MSTORE RETURN JUMPDEST PUSH1 0x20 PUSH2 0x7E4 PUSH2 0x3163 CALLDATASIZE PUSH2 0x3B90 JUMP JUMPDEST SWAP1 PUSH2 0x316C PUSH2 0x4807 JUMP JUMPDEST CALLER PUSH1 0x0 MSTORE PUSH1 0x15 DUP5 MSTORE PUSH2 0x3186 PUSH1 0xFF PUSH1 0x40 PUSH1 0x0 KECCAK256 SLOAD AND ISZERO PUSH2 0x3E93 JUMP JUMPDEST PUSH2 0x318E PUSH2 0x4828 JUMP JUMPDEST PUSH2 0x31B9 PUSH32 0x0 CHAINID EQ PUSH2 0x3ED8 JUMP JUMPDEST DUP1 PUSH1 0x0 MSTORE PUSH1 0x17 DUP5 MSTORE PUSH2 0x28A0 PUSH1 0x40 PUSH1 0x0 KECCAK256 PUSH2 0x288B PUSH1 0xC DUP3 ADD SLOAD PUSH1 0xFF DUP2 PUSH1 0xA0 SHR AND SWAP1 DUP2 PUSH2 0x320F JUMPI JUMPDEST DUP2 PUSH2 0x31FF JUMPI JUMPDEST DUP2 PUSH2 0x31F0 JUMPI POP PUSH2 0x3FB4 JUMP JUMPDEST PUSH1 0xFF SWAP2 POP PUSH1 0xB8 SHR AND ISZERO DUP9 PUSH2 0x7C3 JUMP JUMPDEST SWAP1 POP PUSH1 0xFF DUP2 PUSH1 0xB0 SHR AND ISZERO SWAP1 PUSH2 0x31E5 JUMP JUMPDEST SWAP1 POP PUSH1 0xFF DUP2 PUSH1 0xA8 SHR AND ISZERO SWAP1 PUSH2 0x31DF JUMP JUMPDEST CALLVALUE PUSH2 0x3DF JUMPI PUSH32 0xAC6D62CB5D30A7FFF578060CD3DCF46FF2DF7991A71C2D2AABCA7E558F130F78 PUSH2 0x324E CALLDATASIZE PUSH2 0x3D8A JUMP JUMPDEST PUSH2 0x3259 SWAP4 SWAP3 SWAP4 PUSH2 0x47A0 JUMP JUMPDEST PUSH1 0x0 DUP5 DUP2 MSTORE PUSH1 0x4 PUSH1 0x20 MSTORE PUSH1 0x40 SWAP1 KECCAK256 SLOAD PUSH2 0x327C SWAP1 PUSH1 0x1 PUSH1 0x1 PUSH1 0xA0 SHL SUB AND ISZERO ISZERO PUSH2 0x3F50 JUMP JUMPDEST PUSH2 0x3290 PUSH2 0x328A CALLDATASIZE DUP4 DUP6 PUSH2 0x3E5C JUMP JUMPDEST DUP6 PUSH2 0x48A5 JUMP JUMPDEST PUSH2 0x1ADF PUSH1 0x40 MLOAD SWAP3 DUP4 SWAP3 PUSH1 0x20 DUP5 MSTORE PUSH1 0x20 DUP5 ADD SWAP2 PUSH2 0x3F93 JUMP JUMPDEST CALLVALUE PUSH2 0x3DF JUMPI PUSH1 0x40 CALLDATASIZE PUSH1 0x3 NOT ADD SLT PUSH2 0x3DF JUMPI PUSH1 0x4 CALLDATALOAD PUSH2 0x330D PUSH2 0x32C6 PUSH2 0x3D4E JUMP JUMPDEST PUSH2 0x32CE PUSH2 0x47A0 JUMP JUMPDEST DUP3 PUSH1 0x0 MSTORE PUSH1 0x17 PUSH1 0x20 MSTORE PUSH1 0xC PUSH1 0x40 PUSH1 0x0 KECCAK256 ADD PUSH2 0x32F0 PUSH1 0xFF DUP3 SLOAD PUSH1 0xB0 SHR AND ISZERO PUSH2 0x3F12 JUMP JUMPDEST DUP1 SLOAD PUSH1 0xFF PUSH1 0xC0 SHL NOT AND SWAP2 ISZERO ISZERO PUSH1 0xC0 SHL PUSH1 0xFF PUSH1 0xC0 SHL AND SWAP2 SWAP1 SWAP2 OR SWAP1 SSTORE JUMP JUMPDEST PUSH1 0x0 DUP1 MLOAD PUSH1 0x20 PUSH2 0x55E7 DUP4 CODECOPY DUP2 MLOAD SWAP2 MSTORE PUSH1 0x60 PUSH1 0x40 MLOAD PUSH1 0x20 DUP2 MSTORE PUSH1 0x16 PUSH1 0x20 DUP3 ADD MSTORE PUSH22 0x1A5B5B59591A585D1954185E5BDD5D115B98589B1959 PUSH1 0x52 SHL PUSH1 0x40 DUP3 ADD MSTORE LOG2 STOP JUMPDEST CALLVALUE PUSH2 0x3DF JUMPI PUSH1 0x20 CALLDATASIZE PUSH1 0x3 NOT ADD SLT PUSH2 0x3DF JUMPI PUSH1 0x4 CALLDATALOAD PUSH1 0x0 MSTORE PUSH1 0x17 PUSH1 0x20 MSTORE PUSH1 0x40 PUSH1 0x0 KECCAK256 PUSH2 0x3378 DUP2 PUSH2 0x3CA9 JUMP JUMPDEST PUSH2 0x3384 PUSH1 0x1 DUP4 ADD PUSH2 0x3CA9 JUMP JUMPDEST SWAP1 PUSH1 0x2 DUP4 ADD SLOAD SWAP3 PUSH1 0x3 DUP2 ADD SLOAD SWAP1 PUSH1 0x4 DUP2 ADD SLOAD SWAP1 PUSH1 0x5 DUP2 ADD SLOAD PUSH1 0x6 DUP3 ADD SLOAD PUSH1 0x7 DUP4 ADD SLOAD PUSH1 0x8 DUP5 ADD SLOAD SWAP1 PUSH1 0x9 DUP6 ADD SLOAD SWAP3 PUSH1 0xA DUP7 ADD SLOAD SWAP5 PUSH1 0x1 PUSH1 0xA0 SHL PUSH1 0x1 SWAP1 SUB SWAP8 DUP9 PUSH1 0xB DUP10 ADD SLOAD AND SWAP8 PUSH1 0xC ADD SLOAD SWAP10 PUSH1 0x40 MLOAD SWAP14 DUP15 SWAP14 DUP15 DUP1 SWAP15 PUSH2 0x240 DUP1 DUP4 MSTORE DUP3 ADD PUSH2 0x33E9 SWAP2 PUSH2 0x3B50 JUMP JUMPDEST SWAP1 DUP1 DUP3 SUB SWAP1 PUSH1 0x20 ADD MSTORE PUSH2 0x33FB SWAP2 PUSH2 0x3B50 JUMP JUMPDEST SWAP13 PUSH1 0x40 ADD MSTORE PUSH1 0x60 DUP14 ADD MSTORE PUSH1 0x80 DUP13 ADD MSTORE PUSH1 0xA0 DUP12 ADD MSTORE PUSH1 0xC0 DUP11 ADD MSTORE PUSH1 0xE0 DUP10 ADD MSTORE PUSH2 0x100 DUP9 ADD MSTORE PUSH2 0x120 DUP8 ADD MSTORE PUSH2 0x140 DUP7 ADD MSTORE PUSH2 0x160 DUP6 ADD MSTORE DUP2 AND PUSH2 0x180 DUP5 ADD MSTORE DUP1 PUSH1 0xA0 SHR PUSH1 0xFF AND ISZERO ISZERO PUSH2 0x1A0 DUP5 ADD MSTORE DUP1 PUSH1 0xA8 SHR PUSH1 0xFF AND ISZERO ISZERO PUSH2 0x1C0 DUP5 ADD MSTORE DUP1 PUSH1 0xB0 SHR PUSH1 0xFF AND ISZERO ISZERO PUSH2 0x1E0 DUP5 ADD MSTORE DUP1 PUSH1 0xB8 SHR PUSH1 0xFF AND ISZERO ISZERO PUSH2 0x200 DUP5 ADD MSTORE PUSH1 0xC0 SHR PUSH1 0xFF AND ISZERO ISZERO PUSH2 0x220 DUP4 ADD MSTORE SUB SWAP1 RETURN JUMPDEST CALLVALUE PUSH2 0x3DF JUMPI PUSH1 0x3 PUSH2 0x3497 CALLDATASIZE PUSH2 0x3BE2 JUMP JUMPDEST SWAP2 SWAP3 SWAP1 PUSH2 0x34A2 PUSH2 0x47A0 JUMP JUMPDEST DUP4 PUSH1 0x0 MSTORE PUSH1 0x17 PUSH1 0x20 MSTORE PUSH1 0x40 PUSH1 0x0 KECCAK256 SWAP1 PUSH2 0x34C5 PUSH1 0xFF PUSH1 0xC DUP5 ADD SLOAD PUSH1 0xB0 SHR AND ISZERO PUSH2 0x3F12 JUMP JUMPDEST PUSH1 0x2 DUP3 ADD SSTORE ADD SSTORE PUSH1 0x0 DUP1 MLOAD PUSH1 0x20 PUSH2 0x55E7 DUP4 CODECOPY DUP2 MLOAD SWAP2 MSTORE PUSH1 0x60 PUSH1 0x40 MLOAD PUSH1 0x20 DUP2 MSTORE PUSH1 0x4 PUSH1 0x20 DUP3 ADD MSTORE PUSH4 0x19DBD85B PUSH1 0xE2 SHL PUSH1 0x40 DUP3 ADD MSTORE LOG2 STOP JUMPDEST PUSH2 0x3504 CALLDATASIZE PUSH2 0x3B90 JUMP JUMPDEST SWAP1 PUSH2 0x350D PUSH2 0x4807 JUMP JUMPDEST CALLER PUSH1 0x0 MSTORE PUSH1 0x15 PUSH1 0x20 MSTORE PUSH2 0x3528 PUSH1 0xFF PUSH1 0x40 PUSH1 0x0 KECCAK256 SLOAD AND ISZERO PUSH2 0x3E93 JUMP JUMPDEST PUSH2 0x3530 PUSH2 0x4828 JUMP JUMPDEST PUSH2 0x355B PUSH32 0x0 CHAINID EQ PUSH2 0x3ED8 JUMP JUMPDEST DUP1 PUSH1 0x0 MSTORE PUSH1 0x17 PUSH1 0x20 MSTORE PUSH1 0x40 PUSH1 0x0 KECCAK256 PUSH2 0x3590 PUSH1 0xC DUP3 ADD SLOAD PUSH1 0xFF DUP2 PUSH1 0xA0 SHR AND SWAP1 DUP2 PUSH2 0x3779 JUMPI JUMPDEST DUP2 PUSH2 0x3769 JUMPI JUMPDEST DUP2 PUSH2 0x375A JUMPI POP PUSH2 0x3FB4 JUMP JUMPDEST DUP3 ISZERO ISZERO DUP1 PUSH2 0x374F JUMPI JUMPDEST ISZERO PUSH2 0x13B6 JUMPI PUSH1 0x8 DUP2 ADD SLOAD DUP1 ISZERO SWAP1 DUP2 ISZERO PUSH2 0x3737 JUMPI JUMPDEST POP ISZERO PUSH2 0x1362 JUMPI PUSH2 0x35C4 PUSH2 0x11AD DUP5 PUSH1 0x9 DUP5 ADD SLOAD PUSH2 0x44DC JUMP JUMPDEST PUSH2 0x35CD DUP4 PUSH2 0x488E JUMP JUMPDEST SWAP3 PUSH2 0x35DB PUSH1 0x40 MLOAD SWAP5 DUP6 PUSH2 0x3C88 JUMP JUMPDEST DUP1 DUP5 MSTORE PUSH1 0x1F NOT PUSH2 0x35EA DUP3 PUSH2 0x488E JUMP JUMPDEST ADD CALLDATASIZE PUSH1 0x20 DUP7 ADD CALLDATACOPY PUSH2 0x35FB DUP2 CALLVALUE PUSH2 0x44EF JUMP JUMPDEST PUSH1 0x0 JUMPDEST DUP3 DUP2 LT PUSH2 0x3689 JUMPI PUSH2 0xF8E DUP7 DUP7 DUP7 PUSH1 0x4 DUP2 ADD PUSH2 0x361A CALLVALUE DUP3 SLOAD PUSH2 0x44B9 JUMP JUMPDEST SWAP1 SSTORE PUSH1 0xC DUP2 ADD SLOAD PUSH1 0xC0 SHR PUSH1 0xFF AND ISZERO PUSH2 0x3674 JUMPI POP PUSH2 0x3637 CALLVALUE DUP3 PUSH2 0x5066 JUMP JUMPDEST PUSH1 0x0 DUP1 MLOAD PUSH1 0x20 PUSH2 0x5607 DUP4 CODECOPY DUP2 MLOAD SWAP2 MSTORE PUSH1 0x80 PUSH1 0x40 MLOAD CALLVALUE DUP2 MSTORE CALLVALUE PUSH1 0x20 DUP3 ADD MSTORE PUSH1 0x0 PUSH1 0x40 DUP3 ADD MSTORE PUSH1 0x1 PUSH1 0x60 DUP3 ADD MSTORE LOG2 PUSH1 0x1 PUSH1 0xE SSTORE PUSH1 0x40 MLOAD SWAP2 DUP3 SWAP2 DUP3 PUSH2 0x3BA6 JUMP JUMPDEST PUSH1 0x5 ADD PUSH2 0x3682 CALLVALUE DUP3 SLOAD PUSH2 0x44B9 JUMP JUMPDEST SWAP1 SSTORE PUSH2 0x3637 JUMP JUMPDEST PUSH1 0xF SWAP1 DUP2 SLOAD SWAP2 PUSH2 0x3698 DUP4 PUSH2 0x4551 JUMP JUMPDEST SWAP1 SSTORE PUSH2 0x36A7 PUSH1 0x7 DUP7 ADD SLOAD PUSH2 0x4551 JUMP JUMPDEST DUP1 PUSH1 0x7 DUP8 ADD SSTORE PUSH2 0x36B7 DUP4 CALLER PUSH2 0x4C15 JUMP JUMPDEST PUSH2 0x36C6 PUSH2 0x12D5 PUSH1 0x1 DUP9 ADD PUSH2 0x3CA9 JUMP JUMPDEST DUP3 PUSH1 0x0 MSTORE PUSH1 0x18 PUSH1 0x20 MSTORE DUP7 PUSH1 0x40 PUSH1 0x0 KECCAK256 SSTORE PUSH1 0x19 PUSH1 0x20 MSTORE DUP1 PUSH1 0x40 PUSH1 0x0 KECCAK256 SSTORE DUP7 PUSH1 0x0 MSTORE PUSH1 0x1A PUSH1 0x20 MSTORE PUSH2 0x36F9 DUP4 PUSH1 0x40 PUSH1 0x0 KECCAK256 PUSH2 0x459C JUMP JUMPDEST DUP8 MLOAD DUP3 LT ISZERO PUSH2 0x134C JUMPI DUP3 PUSH1 0x1 SWAP4 PUSH1 0x20 DUP5 PUSH1 0x5 SHL DUP12 ADD ADD MSTORE PUSH1 0x40 MLOAD SWAP2 DUP3 MSTORE DUP5 PUSH1 0x20 DUP4 ADD MSTORE DUP8 PUSH1 0x0 DUP1 MLOAD PUSH1 0x20 PUSH2 0x55A7 DUP4 CODECOPY DUP2 MLOAD SWAP2 MSTORE PUSH1 0x40 CALLER SWAP5 LOG4 ADD PUSH2 0x35FE JUMP JUMPDEST SWAP1 POP PUSH2 0x3747 DUP5 PUSH1 0x7 DUP5 ADD SLOAD PUSH2 0x44B9 JUMP JUMPDEST GT ISZERO DUP5 PUSH2 0x35AD JUMP JUMPDEST POP PUSH1 0x32 DUP4 GT ISZERO PUSH2 0x3599 JUMP JUMPDEST PUSH1 0xFF SWAP2 POP PUSH1 0xB8 SHR AND ISZERO DUP6 PUSH2 0x7C3 JUMP JUMPDEST SWAP1 POP PUSH1 0xFF DUP2 PUSH1 0xB0 SHR AND ISZERO SWAP1 PUSH2 0x3585 JUMP JUMPDEST SWAP1 POP PUSH1 0xFF DUP2 PUSH1 0xA8 SHR AND ISZERO SWAP1 PUSH2 0x357F JUMP JUMPDEST CALLVALUE PUSH2 0x3DF JUMPI PUSH1 0x40 CALLDATASIZE PUSH1 0x3 NOT ADD SLT PUSH2 0x3DF JUMPI PUSH2 0x37A2 PUSH2 0x3B24 JUMP JUMPDEST PUSH1 0x24 CALLDATALOAD PUSH2 0x37AE DUP2 PUSH2 0x47CC JUMP JUMPDEST CALLER ISZERO ISZERO DUP1 PUSH2 0x385D JUMPI JUMPDEST DUP1 PUSH2 0x3830 JUMPI JUMPDEST PUSH2 0x3818 JUMPI PUSH1 0x1 PUSH1 0x1 PUSH1 0xA0 SHL SUB SWAP3 DUP4 AND SWAP3 DUP3 SWAP2 DUP5 SWAP2 AND PUSH32 0x8C5BE1E5EBEC7D5BD14F71427D1E84F3DD0314C0F7B2291E5B200AC8C7C3B925 PUSH1 0x0 DUP1 LOG4 PUSH1 0x0 SWAP1 DUP2 MSTORE PUSH1 0x6 PUSH1 0x20 MSTORE PUSH1 0x40 SWAP1 KECCAK256 DUP1 SLOAD PUSH1 0x1 PUSH1 0x1 PUSH1 0xA0 SHL SUB NOT AND SWAP1 SWAP2 OR SWAP1 SSTORE STOP JUMPDEST PUSH1 0x40 MLOAD PUSH4 0xA9FBF51F PUSH1 0xE0 SHL DUP2 MSTORE CALLER PUSH1 0x4 DUP3 ADD MSTORE PUSH1 0x24 SWAP1 REVERT JUMPDEST POP PUSH1 0x1 DUP1 PUSH1 0xA0 SHL SUB DUP2 AND PUSH1 0x0 MSTORE PUSH1 0x7 PUSH1 0x20 MSTORE PUSH1 0x40 PUSH1 0x0 KECCAK256 CALLER PUSH1 0x0 MSTORE PUSH1 0x20 MSTORE PUSH1 0xFF PUSH1 0x40 PUSH1 0x0 KECCAK256 SLOAD AND ISZERO PUSH2 0x37BD JUMP JUMPDEST POP PUSH1 0x1 PUSH1 0x1 PUSH1 0xA0 SHL SUB DUP2 AND CALLER EQ ISZERO PUSH2 0x37B7 JUMP JUMPDEST CALLVALUE PUSH2 0x3DF JUMPI PUSH1 0x20 CALLDATASIZE PUSH1 0x3 NOT ADD SLT PUSH2 0x3DF JUMPI PUSH1 0x4 CALLDATALOAD PUSH2 0x388D DUP2 PUSH2 0x47CC JUMP JUMPDEST POP PUSH1 0x0 MSTORE PUSH1 0x6 PUSH1 0x20 MSTORE PUSH1 0x20 PUSH1 0x1 DUP1 PUSH1 0xA0 SHL SUB PUSH1 0x40 PUSH1 0x0 KECCAK256 SLOAD AND PUSH1 0x40 MLOAD SWAP1 DUP2 MSTORE RETURN JUMPDEST CALLVALUE PUSH2 0x3DF JUMPI PUSH1 0x0 CALLDATASIZE PUSH1 0x3 NOT ADD SLT PUSH2 0x3DF JUMPI PUSH1 0x40 MLOAD PUSH1 0x2 SLOAD PUSH1 0x0 DUP3 PUSH2 0x38D1 DUP4 PUSH2 0x3BFC JUMP JUMPDEST SWAP2 DUP3 DUP3 MSTORE PUSH1 0x20 SWAP4 PUSH1 0x1 SWAP1 DUP6 PUSH1 0x1 DUP3 AND SWAP2 DUP3 PUSH1 0x0 EQ PUSH2 0x16FC JUMPI POP POP PUSH1 0x1 EQ PUSH2 0x38FF JUMPI POP PUSH2 0x168B SWAP3 POP SUB DUP4 PUSH2 0x3C88 JUMP JUMPDEST DUP5 SWAP2 POP PUSH1 0x2 PUSH1 0x0 MSTORE PUSH32 0x405787FA12A823E0F2B7631CC41B3BA8828B3321CA811111FA75CD3AA3BB5ACE SWAP1 PUSH1 0x0 SWAP2 JUMPDEST DUP6 DUP4 LT PUSH2 0x3944 JUMPI POP POP PUSH2 0x168B SWAP4 POP DUP3 ADD ADD DUP6 PUSH2 0x167E JUMP JUMPDEST DUP1 SLOAD DUP4 DUP10 ADD DUP6 ADD MSTORE DUP8 SWAP5 POP DUP7 SWAP4 SWAP1 SWAP3 ADD SWAP2 DUP2 ADD PUSH2 0x392D JUMP JUMPDEST CALLVALUE PUSH2 0x3DF JUMPI PUSH1 0x40 CALLDATASIZE PUSH1 0x3 NOT ADD SLT PUSH2 0x3DF JUMPI PUSH2 0x3975 PUSH2 0x3B24 JUMP JUMPDEST PUSH1 0x24 CALLDATALOAD PUSH1 0x1 PUSH1 0x1 PUSH1 0x60 SHL SUB DUP2 AND SWAP2 DUP3 DUP3 SUB PUSH2 0x3DF JUMPI PUSH2 0x3992 PUSH2 0x47A0 JUMP JUMPDEST PUSH2 0x2710 DUP1 DUP5 GT PUSH2 0x3A2F JUMPI POP PUSH1 0x1 PUSH1 0x1 PUSH1 0xA0 SHL SUB AND SWAP2 DUP3 ISZERO PUSH2 0x3A16 JUMPI PUSH32 0x35804D3532228D15C4FE3FA7A4FB8100C86DC285216E9C806F5D6F2CEF552839 SWAP3 PUSH1 0x20 SWAP3 DUP3 DUP5 PUSH1 0x40 MLOAD PUSH2 0x39E0 DUP2 PUSH2 0x3C36 JUMP JUMPDEST DUP5 DUP2 MSTORE ADD MSTORE PUSH1 0xA0 SHL PUSH1 0x1 PUSH1 0x1 PUSH1 0xA0 SHL SUB NOT AND OR PUSH1 0x0 SSTORE PUSH1 0x13 DUP1 SLOAD PUSH12 0xFFFFFFFFFFFFFFFFFFFFFFFF NOT AND DUP3 OR SWAP1 SSTORE PUSH1 0x40 MLOAD SWAP1 DUP2 MSTORE LOG1 STOP JUMPDEST PUSH1 0x40 MLOAD PUSH4 0x5B6CC805 PUSH1 0xE1 SHL DUP2 MSTORE PUSH1 0x0 PUSH1 0x4 DUP3 ADD MSTORE PUSH1 0x24 SWAP1 REVERT JUMPDEST DUP4 PUSH1 0x44 SWAP2 PUSH1 0x40 MLOAD SWAP2 PUSH4 0x6F483D09 PUSH1 0xE0 SHL DUP4 MSTORE PUSH1 0x4 DUP4 ADD MSTORE PUSH1 0x24 DUP3 ADD MSTORE REVERT JUMPDEST CALLVALUE PUSH2 0x3DF JUMPI PUSH1 0x0 CALLDATASIZE PUSH1 0x3 NOT ADD SLT PUSH2 0x3DF JUMPI PUSH1 0x20 PUSH1 0x10 SLOAD PUSH1 0x40 MLOAD SWAP1 DUP2 MSTORE RETURN JUMPDEST CALLVALUE PUSH2 0x3DF JUMPI PUSH1 0x20 CALLDATASIZE PUSH1 0x3 NOT ADD SLT PUSH2 0x3DF JUMPI PUSH1 0x4 CALLDATALOAD SWAP1 PUSH4 0xFFFFFFFF PUSH1 0xE0 SHL DUP3 AND DUP1 SWAP3 SUB PUSH2 0x3DF JUMPI PUSH1 0x20 SWAP2 PUSH4 0x24832483 PUSH1 0xE1 SHL DUP2 EQ SWAP1 DUP2 ISZERO PUSH2 0x3AAD JUMPI JUMPDEST POP ISZERO ISZERO DUP2 MSTORE RETURN JUMPDEST PUSH4 0x780E9D63 PUSH1 0xE0 SHL DUP2 EQ SWAP2 POP DUP2 ISZERO PUSH2 0x3AC7 JUMPI JUMPDEST POP DUP4 PUSH2 0x3AA6 JUMP JUMPDEST PUSH4 0x80AC58CD PUSH1 0xE0 SHL DUP2 EQ SWAP2 POP DUP2 ISZERO PUSH2 0x3B13 JUMPI JUMPDEST DUP2 ISZERO PUSH2 0x3AE8 JUMPI JUMPDEST POP DUP4 PUSH2 0x3AC0 JUMP JUMPDEST PUSH4 0x152A902D PUSH1 0xE1 SHL DUP2 EQ SWAP2 POP DUP2 ISZERO PUSH2 0x3B02 JUMPI JUMPDEST POP DUP4 PUSH2 0x3AE1 JUMP JUMPDEST PUSH4 0x1FFC9A7 PUSH1 0xE0 SHL EQ SWAP1 POP DUP4 PUSH2 0x3AFB JUMP JUMPDEST PUSH4 0x5B5E139F PUSH1 0xE0 SHL DUP2 EQ SWAP2 POP PUSH2 0x3ADA JUMP JUMPDEST PUSH1 0x4 CALLDATALOAD SWAP1 PUSH1 0x1 PUSH1 0x1 PUSH1 0xA0 SHL SUB DUP3 AND DUP3 SUB PUSH2 0x3DF JUMPI JUMP JUMPDEST PUSH1 0x24 CALLDATALOAD SWAP1 PUSH1 0x1 PUSH1 0x1 PUSH1 0xA0 SHL SUB DUP3 AND DUP3 SUB PUSH2 0x3DF JUMPI JUMP JUMPDEST SWAP2 SWAP1 DUP3 MLOAD SWAP3 DUP4 DUP3 MSTORE PUSH1 0x0 JUMPDEST DUP5 DUP2 LT PUSH2 0x3B7C JUMPI POP POP DUP3 PUSH1 0x0 PUSH1 0x20 DUP1 SWAP5 SWAP6 DUP5 ADD ADD MSTORE PUSH1 0x1F DUP1 NOT SWAP2 ADD AND ADD ADD SWAP1 JUMP JUMPDEST PUSH1 0x20 DUP2 DUP4 ADD DUP2 ADD MLOAD DUP5 DUP4 ADD DUP3 ADD MSTORE ADD PUSH2 0x3B5B JUMP JUMPDEST PUSH1 0x40 SWAP1 PUSH1 0x3 NOT ADD SLT PUSH2 0x3DF JUMPI PUSH1 0x4 CALLDATALOAD SWAP1 PUSH1 0x24 CALLDATALOAD SWAP1 JUMP JUMPDEST PUSH1 0x20 SWAP1 PUSH1 0x20 PUSH1 0x40 DUP2 DUP4 ADD SWAP3 DUP3 DUP2 MSTORE DUP6 MLOAD DUP1 SWAP5 MSTORE ADD SWAP4 ADD SWAP2 PUSH1 0x0 JUMPDEST DUP3 DUP2 LT PUSH2 0x3BCE JUMPI POP POP POP POP SWAP1 JUMP JUMPDEST DUP4 MLOAD DUP6 MSTORE SWAP4 DUP2 ADD SWAP4 SWAP3 DUP2 ADD SWAP3 PUSH1 0x1 ADD PUSH2 0x3BC0 JUMP JUMPDEST PUSH1 0x60 SWAP1 PUSH1 0x3 NOT ADD SLT PUSH2 0x3DF JUMPI PUSH1 0x4 CALLDATALOAD SWAP1 PUSH1 0x24 CALLDATALOAD SWAP1 PUSH1 0x44 CALLDATALOAD SWAP1 JUMP JUMPDEST SWAP1 PUSH1 0x1 DUP3 DUP2 SHR SWAP3 AND DUP1 ISZERO PUSH2 0x3C2C JUMPI JUMPDEST PUSH1 0x20 DUP4 LT EQ PUSH2 0x3C16 JUMPI JUMP JUMPDEST PUSH4 0x4E487B71 PUSH1 0xE0 SHL PUSH1 0x0 MSTORE PUSH1 0x22 PUSH1 0x4 MSTORE PUSH1 0x24 PUSH1 0x0 REVERT JUMPDEST SWAP2 PUSH1 0x7F AND SWAP2 PUSH2 0x3C0B JUMP JUMPDEST PUSH1 0x40 DUP2 ADD SWAP1 DUP2 LT PUSH1 0x1 PUSH1 0x1 PUSH1 0x40 SHL SUB DUP3 GT OR PUSH2 0xCF7 JUMPI PUSH1 0x40 MSTORE JUMP JUMPDEST PUSH2 0x260 DUP2 ADD SWAP1 DUP2 LT PUSH1 0x1 PUSH1 0x1 PUSH1 0x40 SHL SUB DUP3 GT OR PUSH2 0xCF7 JUMPI PUSH1 0x40 MSTORE JUMP JUMPDEST PUSH1 0x20 DUP2 ADD SWAP1 DUP2 LT PUSH1 0x1 PUSH1 0x1 PUSH1 0x40 SHL SUB DUP3 GT OR PUSH2 0xCF7 JUMPI PUSH1 0x40 MSTORE JUMP JUMPDEST SWAP1 PUSH1 0x1F DUP1 NOT SWAP2 ADD AND DUP2 ADD SWAP1 DUP2 LT PUSH1 0x1 PUSH1 0x1 PUSH1 0x40 SHL SUB DUP3 GT OR PUSH2 0xCF7 JUMPI PUSH1 0x40 MSTORE JUMP JUMPDEST SWAP1 PUSH1 0x40 MLOAD SWAP2 DUP3 PUSH1 0x0 DUP3 SLOAD PUSH2 0x3CBC DUP2 PUSH2 0x3BFC JUMP JUMPDEST SWAP1 DUP2 DUP5 MSTORE PUSH1 0x20 SWAP5 PUSH1 0x1 SWAP2 PUSH1 0x1 DUP2 AND SWAP1 DUP2 PUSH1 0x0 EQ PUSH2 0x3D2C JUMPI POP PUSH1 0x1 EQ PUSH2 0x3CED JUMPI JUMPDEST POP POP POP PUSH2 0x3CEB SWAP3 POP SUB DUP4 PUSH2 0x3C88 JUMP JUMPDEST JUMP JUMPDEST PUSH1 0x0 SWAP1 DUP2 MSTORE DUP6 DUP2 KECCAK256 SWAP6 SWAP4 POP SWAP2 SWAP1 JUMPDEST DUP2 DUP4 LT PUSH2 0x3D14 JUMPI POP POP PUSH2 0x3CEB SWAP4 POP DUP3 ADD ADD CODESIZE DUP1 DUP1 PUSH2 0x3CDC JUMP JUMPDEST DUP6 SLOAD DUP9 DUP5 ADD DUP6 ADD MSTORE SWAP5 DUP6 ADD SWAP5 DUP8 SWAP5 POP SWAP2 DUP4 ADD SWAP2 PUSH2 0x3CFB JUMP JUMPDEST SWAP3 POP POP POP PUSH2 0x3CEB SWAP5 SWAP3 POP PUSH1 0xFF NOT AND DUP3 DUP5 ADD MSTORE ISZERO ISZERO PUSH1 0x5 SHL DUP3 ADD ADD CODESIZE DUP1 DUP1 PUSH2 0x3CDC JUMP JUMPDEST PUSH1 0x24 CALLDATALOAD SWAP1 DUP2 ISZERO ISZERO DUP3 SUB PUSH2 0x3DF JUMPI JUMP JUMPDEST SWAP2 DUP2 PUSH1 0x1F DUP5 ADD SLT ISZERO PUSH2 0x3DF JUMPI DUP3 CALLDATALOAD SWAP2 PUSH1 0x1 PUSH1 0x1 PUSH1 0x40 SHL SUB DUP4 GT PUSH2 0x3DF JUMPI PUSH1 0x20 DUP4 DUP2 DUP7 ADD SWAP6 ADD ADD GT PUSH2 0x3DF JUMPI JUMP JUMPDEST SWAP1 PUSH1 0x40 PUSH1 0x3 NOT DUP4 ADD SLT PUSH2 0x3DF JUMPI PUSH1 0x4 CALLDATALOAD SWAP2 PUSH1 0x24 CALLDATALOAD SWAP1 PUSH1 0x1 PUSH1 0x1 PUSH1 0x40 SHL SUB DUP3 GT PUSH2 0x3DF JUMPI PUSH2 0x3DB9 SWAP2 PUSH1 0x4 ADD PUSH2 0x3D5D JUMP JUMPDEST SWAP1 SWAP2 JUMP JUMPDEST PUSH1 0x60 SWAP1 PUSH1 0x3 NOT ADD SLT PUSH2 0x3DF JUMPI PUSH1 0x1 PUSH1 0x1 PUSH1 0xA0 SHL SUB SWAP1 PUSH1 0x4 CALLDATALOAD DUP3 DUP2 AND DUP2 SUB PUSH2 0x3DF JUMPI SWAP2 PUSH1 0x24 CALLDATALOAD SWAP1 DUP2 AND DUP2 SUB PUSH2 0x3DF JUMPI SWAP1 PUSH1 0x44 CALLDATALOAD SWAP1 JUMP JUMPDEST PUSH1 0xA SLOAD DUP2 LT ISZERO PUSH2 0x134C JUMPI PUSH1 0xA PUSH1 0x0 MSTORE PUSH32 0xC65A7BB8D6351C1CF70C95A316CC6A92839C986682D98BC35F958F4883F9D2A8 ADD SWAP1 PUSH1 0x0 SWAP1 JUMP JUMPDEST DUP1 SLOAD DUP3 LT ISZERO PUSH2 0x134C JUMPI PUSH1 0x0 MSTORE PUSH1 0x20 PUSH1 0x0 KECCAK256 ADD SWAP1 PUSH1 0x0 SWAP1 JUMP JUMPDEST PUSH1 0x1 PUSH1 0x1 PUSH1 0x40 SHL SUB DUP2 GT PUSH2 0xCF7 JUMPI PUSH1 0x1F ADD PUSH1 0x1F NOT AND PUSH1 0x20 ADD SWAP1 JUMP JUMPDEST SWAP3 SWAP2 SWAP3 PUSH2 0x3E68 DUP3 PUSH2 0x3E41 JUMP JUMPDEST SWAP2 PUSH2 0x3E76 PUSH1 0x40 MLOAD SWAP4 DUP5 PUSH2 0x3C88 JUMP JUMPDEST DUP3 SWAP5 DUP2 DUP5 MSTORE DUP2 DUP4 ADD GT PUSH2 0x3DF JUMPI DUP3 DUP2 PUSH1 0x20 SWAP4 DUP5 PUSH1 0x0 SWAP7 ADD CALLDATACOPY ADD ADD MSTORE JUMP JUMPDEST ISZERO PUSH2 0x3E9A JUMPI JUMP JUMPDEST PUSH1 0x40 MLOAD PUSH3 0x461BCD PUSH1 0xE5 SHL DUP2 MSTORE PUSH1 0x20 PUSH1 0x4 DUP3 ADD MSTORE PUSH1 0x16 PUSH1 0x24 DUP3 ADD MSTORE PUSH22 0x1059191C995CDCC81A5CC8189B1858DADB1A5CDD1959 PUSH1 0x52 SHL PUSH1 0x44 DUP3 ADD MSTORE PUSH1 0x64 SWAP1 REVERT JUMPDEST ISZERO PUSH2 0x3EDF JUMPI JUMP JUMPDEST PUSH1 0x40 MLOAD PUSH3 0x461BCD PUSH1 0xE5 SHL DUP2 MSTORE PUSH1 0x20 PUSH1 0x4 DUP3 ADD MSTORE PUSH1 0xB PUSH1 0x24 DUP3 ADD MSTORE PUSH11 0x2BB937B7339031B430B4B7 PUSH1 0xA9 SHL PUSH1 0x44 DUP3 ADD MSTORE PUSH1 0x64 SWAP1 REVERT JUMPDEST ISZERO PUSH2 0x3F19 JUMPI JUMP JUMPDEST PUSH1 0x40 MLOAD PUSH3 0x461BCD PUSH1 0xE5 SHL DUP2 MSTORE PUSH1 0x20 PUSH1 0x4 DUP3 ADD MSTORE PUSH1 0xF PUSH1 0x24 DUP3 ADD MSTORE PUSH15 0x10D85B5C185A59DB8818DB1BDCD959 PUSH1 0x8A SHL PUSH1 0x44 DUP3 ADD MSTORE PUSH1 0x64 SWAP1 REVERT JUMPDEST ISZERO PUSH2 0x3F57 JUMPI JUMP JUMPDEST PUSH1 0x40 MLOAD PUSH3 0x461BCD PUSH1 0xE5 SHL DUP2 MSTORE PUSH1 0x20 PUSH1 0x4 DUP3 ADD MSTORE PUSH1 0x14 PUSH1 0x24 DUP3 ADD MSTORE PUSH20 0x151BDAD95B88191BD95CC81B9BDD08195E1A5CDD PUSH1 0x62 SHL PUSH1 0x44 DUP3 ADD MSTORE PUSH1 0x64 SWAP1 REVERT JUMPDEST SWAP1 DUP1 PUSH1 0x20 SWAP4 SWAP3 DUP2 DUP5 MSTORE DUP5 DUP5 ADD CALLDATACOPY PUSH1 0x0 DUP3 DUP3 ADD DUP5 ADD MSTORE PUSH1 0x1F ADD PUSH1 0x1F NOT AND ADD ADD SWAP1 JUMP JUMPDEST ISZERO PUSH2 0x3FBB JUMPI JUMP JUMPDEST PUSH1 0x40 MLOAD PUSH3 0x461BCD PUSH1 0xE5 SHL DUP2 MSTORE PUSH1 0x20 PUSH1 0x4 DUP3 ADD MSTORE PUSH1 0x15 PUSH1 0x24 DUP3 ADD MSTORE PUSH21 0x43616D706169676E206E6F74206D696E7461626C65 PUSH1 0x58 SHL PUSH1 0x44 DUP3 ADD MSTORE PUSH1 0x64 SWAP1 REVERT JUMPDEST ISZERO PUSH2 0x3FFF JUMPI JUMP JUMPDEST PUSH1 0x40 MLOAD PUSH3 0x461BCD PUSH1 0xE5 SHL DUP2 MSTORE PUSH1 0x20 PUSH1 0x4 DUP3 ADD MSTORE PUSH1 0x14 PUSH1 0x24 DUP3 ADD MSTORE PUSH20 0x13585E0819591A5D1A5BDB9CC81C995858DA1959 PUSH1 0x62 SHL PUSH1 0x44 DUP3 ADD MSTORE PUSH1 0x64 SWAP1 REVERT JUMPDEST SWAP1 PUSH1 0x1F DUP2 GT PUSH2 0x4049 JUMPI POP POP POP JUMP JUMPDEST PUSH1 0x0 SWAP2 PUSH1 0x0 MSTORE PUSH1 0x20 PUSH1 0x0 KECCAK256 SWAP1 PUSH1 0x20 PUSH1 0x1F DUP6 ADD PUSH1 0x5 SHR DUP4 ADD SWAP5 LT PUSH2 0x4087 JUMPI JUMPDEST PUSH1 0x1F ADD PUSH1 0x5 SHR ADD SWAP2 JUMPDEST DUP3 DUP2 LT PUSH2 0x407C JUMPI POP POP POP JUMP JUMPDEST DUP2 DUP2 SSTORE PUSH1 0x1 ADD PUSH2 0x4070 JUMP JUMPDEST SWAP1 SWAP3 POP DUP3 SWAP1 PUSH2 0x4067 JUMP JUMPDEST ISZERO PUSH2 0x4098 JUMPI JUMP JUMPDEST PUSH1 0x40 MLOAD PUSH3 0x461BCD PUSH1 0xE5 SHL DUP2 MSTORE PUSH1 0x20 PUSH1 0x4 DUP3 ADD MSTORE PUSH1 0x15 PUSH1 0x24 DUP3 ADD MSTORE PUSH21 0x10D85B5C185A59DB881DD85CC81C99599D5B991959 PUSH1 0x5A SHL PUSH1 0x44 DUP3 ADD MSTORE PUSH1 0x64 SWAP1 REVERT JUMPDEST PUSH1 0x1 PUSH1 0x1 PUSH1 0xA0 SHL SUB DUP3 DUP2 AND SWAP4 SWAP2 SWAP1 DUP5 ISZERO PUSH2 0x44A0 JUMPI PUSH1 0x0 SWAP2 DUP4 DUP4 MSTORE PUSH1 0x4 SWAP6 PUSH1 0x20 SWAP4 DUP8 DUP6 MSTORE PUSH1 0x40 SWAP5 DUP5 DUP7 DUP4 KECCAK256 SLOAD AND DUP1 ISZERO ISZERO DUP1 PUSH2 0x4498 JUMPI JUMPDEST PUSH2 0x436A JUMPI JUMPDEST POP DUP7 DUP3 MSTORE DUP9 DUP2 MSTORE DUP5 DUP7 DUP4 KECCAK256 SLOAD AND SWAP8 CALLER ISZERO ISZERO DUP1 PUSH2 0x42D8 JUMPI JUMPDEST POP DUP9 ISZERO DUP1 ISZERO PUSH2 0x42A5 JUMPI JUMPDEST DUP5 DUP5 MSTORE PUSH1 0x5 DUP4 MSTORE DUP8 DUP5 KECCAK256 DUP1 SLOAD PUSH1 0x1 ADD SWAP1 SSTORE DUP9 DUP5 MSTORE DUP11 DUP4 MSTORE DUP8 DUP5 KECCAK256 DUP1 SLOAD PUSH1 0x1 PUSH1 0x1 PUSH1 0xA0 SHL SUB NOT AND DUP7 OR SWAP1 SSTORE DUP9 DUP6 DUP12 PUSH32 0xDDF252AD1BE2C89B69C2B068FC378DAA952BA7F163C4A11628F55A4DF523B3EF DUP8 DUP1 LOG4 ISZERO PUSH2 0x4229 JUMPI PUSH1 0xA SLOAD DUP9 DUP5 MSTORE PUSH1 0xB DUP4 MSTORE DUP8 DUP5 KECCAK256 SSTORE PUSH2 0x419D DUP9 PUSH2 0x4560 JUMP JUMPDEST DUP4 DUP10 SUB PUSH2 0x41D8 JUMPI JUMPDEST POP POP POP POP AND SWAP1 DUP2 DUP5 SUB PUSH2 0x41B9 JUMPI POP POP POP POP POP JUMP JUMPDEST MLOAD PUSH4 0x64283D7B PUSH1 0xE0 SHL DUP2 MSTORE SWAP4 DUP5 ADD MSTORE PUSH1 0x24 DUP4 ADD MSTORE PUSH1 0x44 DUP3 ADD MSTORE PUSH1 0x64 SWAP2 POP REVERT JUMPDEST PUSH2 0x41E1 SWAP1 PUSH2 0x46DC JUMP JUMPDEST PUSH1 0x0 NOT DUP2 ADD SWAP4 SWAP1 DUP5 GT PUSH2 0x4216 JUMPI DUP3 SWAP2 PUSH1 0x9 SWAP2 DUP9 SWAP5 MSTORE PUSH1 0x8 DUP2 MSTORE DUP4 DUP4 KECCAK256 DUP6 DUP5 MSTORE DUP2 MSTORE DUP9 DUP5 DUP5 KECCAK256 SSTORE DUP9 DUP4 MSTORE MSTORE KECCAK256 SSTORE CODESIZE DUP1 DUP1 DUP1 PUSH2 0x41A5 JUMP JUMPDEST PUSH4 0x4E487B71 PUSH1 0xE0 SHL DUP4 MSTORE PUSH1 0x11 DUP11 MSTORE PUSH1 0x24 DUP4 REVERT JUMPDEST DUP9 DUP5 EQ PUSH2 0x419D JUMPI PUSH2 0x4239 DUP10 PUSH2 0x46DC JUMP JUMPDEST DUP9 DUP5 MSTORE PUSH1 0x9 DUP4 MSTORE DUP8 DUP5 KECCAK256 SLOAD DUP2 DUP2 SUB PUSH2 0x426E JUMPI JUMPDEST POP DUP9 DUP5 MSTORE DUP4 DUP9 DUP2 KECCAK256 SSTORE DUP10 DUP5 MSTORE PUSH1 0x8 DUP4 MSTORE DUP8 DUP5 KECCAK256 SWAP1 DUP5 MSTORE DUP3 MSTORE DUP3 DUP8 DUP2 KECCAK256 SSTORE PUSH2 0x419D JUMP JUMPDEST DUP11 DUP6 MSTORE PUSH1 0x8 DUP5 MSTORE DUP9 DUP6 KECCAK256 DUP3 DUP7 MSTORE DUP5 MSTORE DUP9 DUP6 KECCAK256 SLOAD DUP12 DUP7 MSTORE PUSH1 0x8 DUP6 MSTORE DUP10 DUP7 KECCAK256 DUP3 DUP8 MSTORE DUP6 MSTORE DUP1 DUP11 DUP8 KECCAK256 SSTORE DUP6 MSTORE PUSH1 0x9 DUP5 MSTORE DUP9 DUP6 KECCAK256 SSTORE CODESIZE PUSH2 0x424C JUMP JUMPDEST PUSH1 0x0 DUP10 DUP2 MSTORE PUSH1 0x6 PUSH1 0x20 MSTORE PUSH1 0x40 SWAP1 KECCAK256 DUP1 SLOAD PUSH1 0x1 PUSH1 0x1 PUSH1 0xA0 SHL SUB NOT AND SWAP1 SSTORE DUP10 DUP5 MSTORE PUSH1 0x5 DUP4 MSTORE DUP8 DUP5 KECCAK256 DUP1 SLOAD PUSH1 0x0 NOT ADD SWAP1 SSTORE PUSH2 0x4130 JUMP JUMPDEST DUP1 PUSH2 0x4329 JUMPI JUMPDEST ISZERO PUSH2 0x42E9 JUMPI CODESIZE PUSH2 0x4126 JUMP JUMPDEST DUP8 DUP11 DUP9 DUP12 PUSH2 0x4306 JUMPI SWAP2 PUSH1 0x24 SWAP3 MLOAD SWAP2 PUSH4 0x7E273289 PUSH1 0xE0 SHL DUP4 MSTORE DUP3 ADD MSTORE REVERT JUMPDEST MLOAD PUSH4 0x177E802F PUSH1 0xE0 SHL DUP2 MSTORE CALLER SWAP2 DUP2 ADD SWAP2 DUP3 MSTORE PUSH1 0x20 DUP3 ADD SWAP3 SWAP1 SWAP3 MSTORE DUP2 SWAP1 PUSH1 0x40 ADD SUB SWAP1 REVERT JUMPDEST POP CALLER DUP10 EQ DUP1 ISZERO PUSH2 0x434E JUMPI JUMPDEST DUP1 PUSH2 0x42DE JUMPI POP DUP8 DUP4 MSTORE PUSH1 0x6 DUP3 MSTORE CALLER DUP7 DUP9 DUP6 KECCAK256 SLOAD AND EQ PUSH2 0x42DE JUMP JUMPDEST POP DUP9 DUP4 MSTORE PUSH1 0x7 DUP3 MSTORE DUP7 DUP4 KECCAK256 CALLER DUP5 MSTORE DUP3 MSTORE PUSH1 0xFF DUP8 DUP5 KECCAK256 SLOAD AND PUSH2 0x4334 JUMP JUMPDEST PUSH1 0x14 DUP3 MSTORE PUSH1 0xFF DUP8 DUP5 KECCAK256 SLOAD AND PUSH2 0x4463 JUMPI DUP8 DUP4 MSTORE PUSH1 0x16 DUP3 MSTORE PUSH1 0xFF DUP8 DUP5 KECCAK256 SLOAD AND PUSH2 0x442B JUMPI DUP3 MSTORE PUSH1 0x15 DUP2 MSTORE PUSH1 0xFF DUP7 DUP4 KECCAK256 SLOAD AND PUSH2 0x43F1 JUMPI DUP3 DUP3 MSTORE PUSH1 0x15 DUP2 MSTORE PUSH1 0xFF DUP7 DUP4 KECCAK256 SLOAD AND PUSH2 0x43B4 JUMPI CODESIZE PUSH2 0x410F JUMP JUMPDEST DUP9 PUSH1 0x64 SWAP2 DUP8 MLOAD SWAP2 PUSH3 0x461BCD PUSH1 0xE5 SHL DUP4 MSTORE DUP3 ADD MSTORE PUSH1 0x18 PUSH1 0x24 DUP3 ADD MSTORE PUSH24 0x149958DA5C1A595B9D081A5CC8189B1858DADB1A5CDD1959 PUSH1 0x42 SHL PUSH1 0x44 DUP3 ADD MSTORE REVERT JUMPDEST DUP9 PUSH1 0x64 SWAP2 DUP8 MLOAD SWAP2 PUSH3 0x461BCD PUSH1 0xE5 SHL DUP4 MSTORE DUP3 ADD MSTORE PUSH1 0x15 PUSH1 0x24 DUP3 ADD MSTORE PUSH21 0x14D95B99195C881A5CC8189B1858DADB1A5CDD1959 PUSH1 0x5A SHL PUSH1 0x44 DUP3 ADD MSTORE REVERT JUMPDEST DUP7 MLOAD PUSH3 0x461BCD PUSH1 0xE5 SHL DUP2 MSTORE DUP1 DUP12 ADD DUP4 SWAP1 MSTORE PUSH1 0x12 PUSH1 0x24 DUP3 ADD MSTORE PUSH18 0x151BDAD95B881A5CC81CDBDD5B189BDD5B99 PUSH1 0x72 SHL PUSH1 0x44 DUP3 ADD MSTORE PUSH1 0x64 SWAP1 REVERT JUMPDEST DUP7 MLOAD PUSH3 0x461BCD PUSH1 0xE5 SHL DUP2 MSTORE DUP1 DUP12 ADD DUP4 SWAP1 MSTORE PUSH1 0xF PUSH1 0x24 DUP3 ADD MSTORE PUSH15 0x2A37B5B2B71034B990333937BD32B7 PUSH1 0x89 SHL PUSH1 0x44 DUP3 ADD MSTORE PUSH1 0x64 SWAP1 REVERT JUMPDEST POP PUSH1 0x1 PUSH2 0x410A JUMP JUMPDEST PUSH1 0x40 MLOAD PUSH4 0x32505749 PUSH1 0xE1 SHL DUP2 MSTORE PUSH1 0x0 PUSH1 0x4 DUP3 ADD MSTORE PUSH1 0x24 SWAP1 REVERT JUMPDEST SWAP2 SWAP1 DUP3 ADD DUP1 SWAP3 GT PUSH2 0x44C6 JUMPI JUMP JUMPDEST PUSH4 0x4E487B71 PUSH1 0xE0 SHL PUSH1 0x0 MSTORE PUSH1 0x11 PUSH1 0x4 MSTORE PUSH1 0x24 PUSH1 0x0 REVERT JUMPDEST DUP2 DUP2 MUL SWAP3 SWAP2 DUP2 ISZERO SWAP2 DUP5 DIV EQ OR ISZERO PUSH2 0x44C6 JUMPI JUMP JUMPDEST DUP2 ISZERO PUSH2 0x44F9 JUMPI DIV SWAP1 JUMP JUMPDEST PUSH4 0x4E487B71 PUSH1 0xE0 SHL PUSH1 0x0 MSTORE PUSH1 0x12 PUSH1 0x4 MSTORE PUSH1 0x24 PUSH1 0x0 REVERT JUMPDEST ISZERO PUSH2 0x4516 JUMPI JUMP JUMPDEST PUSH1 0x40 MLOAD PUSH3 0x461BCD PUSH1 0xE5 SHL DUP2 MSTORE PUSH1 0x20 PUSH1 0x4 DUP3 ADD MSTORE PUSH1 0x13 PUSH1 0x24 DUP3 ADD MSTORE PUSH19 0x43616D706169676E206E6F7420616374697665 PUSH1 0x68 SHL PUSH1 0x44 DUP3 ADD MSTORE PUSH1 0x64 SWAP1 REVERT JUMPDEST PUSH1 0x0 NOT DUP2 EQ PUSH2 0x44C6 JUMPI PUSH1 0x1 ADD SWAP1 JUMP JUMPDEST PUSH1 0xA SLOAD SWAP1 PUSH1 0x1 PUSH1 0x40 SHL DUP3 LT ISZERO PUSH2 0xCF7 JUMPI PUSH2 0x4583 DUP3 PUSH1 0x1 PUSH2 0x3CEB SWAP5 ADD PUSH1 0xA SSTORE PUSH2 0x3DF2 JUMP JUMPDEST SWAP1 SWAP2 SWAP1 DUP3 SLOAD SWAP1 PUSH1 0x3 SHL SWAP2 DUP3 SHL SWAP2 PUSH1 0x0 NOT SWAP1 SHL NOT AND OR SWAP1 SSTORE JUMP JUMPDEST SWAP1 DUP2 SLOAD SWAP2 PUSH1 0x1 PUSH1 0x40 SHL DUP4 LT ISZERO PUSH2 0xCF7 JUMPI DUP3 PUSH2 0x4583 SWAP2 PUSH1 0x1 PUSH2 0x3CEB SWAP6 ADD DUP2 SSTORE PUSH2 0x3E29 JUMP JUMPDEST ISZERO PUSH2 0x45C6 JUMPI JUMP JUMPDEST PUSH1 0x40 MLOAD PUSH3 0x461BCD PUSH1 0xE5 SHL DUP2 MSTORE PUSH1 0x20 PUSH1 0x4 DUP3 ADD MSTORE PUSH1 0x12 PUSH1 0x24 DUP3 ADD MSTORE PUSH18 0x10D85B5C185A59DB881A5CC81C185D5CD959 PUSH1 0x72 SHL PUSH1 0x44 DUP3 ADD MSTORE PUSH1 0x64 SWAP1 REVERT JUMPDEST ISZERO PUSH2 0x4607 JUMPI JUMP JUMPDEST PUSH1 0x40 MLOAD PUSH3 0x461BCD PUSH1 0xE5 SHL DUP2 MSTORE PUSH1 0x20 PUSH1 0x4 DUP3 ADD MSTORE PUSH1 0x11 PUSH1 0x24 DUP3 ADD MSTORE PUSH17 0x10D85B5C185A59DB881C99599D5B991959 PUSH1 0x7A SHL PUSH1 0x44 DUP3 ADD MSTORE PUSH1 0x64 SWAP1 REVERT JUMPDEST ISZERO PUSH2 0x4647 JUMPI JUMP JUMPDEST PUSH1 0x40 MLOAD PUSH3 0x461BCD PUSH1 0xE5 SHL DUP2 MSTORE PUSH1 0x20 PUSH1 0x4 DUP3 ADD MSTORE PUSH1 0x11 PUSH1 0x24 DUP3 ADD MSTORE PUSH17 0x125B9D985B1A59081B9BDB9C1C9BD99A5D PUSH1 0x7A SHL PUSH1 0x44 DUP3 ADD MSTORE PUSH1 0x64 SWAP1 REVERT JUMPDEST ISZERO PUSH2 0x4687 JUMPI JUMP JUMPDEST PUSH1 0x40 MLOAD PUSH3 0x461BCD PUSH1 0xE5 SHL DUP2 MSTORE PUSH1 0x20 PUSH1 0x4 DUP3 ADD MSTORE PUSH1 0x11 PUSH1 0x24 DUP3 ADD MSTORE PUSH17 0x24B73B30B634B21039BAB136B4BA3A32B9 PUSH1 0x79 SHL PUSH1 0x44 DUP3 ADD MSTORE PUSH1 0x64 SWAP1 REVERT JUMPDEST PUSH1 0x9 DUP2 MSTORE PUSH9 0x39BAB136B4BA3A32B9 PUSH1 0xB9 SHL PUSH1 0x20 DUP3 ADD MSTORE PUSH1 0x40 ADD SWAP1 JUMP JUMPDEST PUSH1 0x1 PUSH1 0x1 PUSH1 0xA0 SHL SUB AND DUP1 ISZERO PUSH2 0x46FC JUMPI PUSH1 0x0 MSTORE PUSH1 0x5 PUSH1 0x20 MSTORE PUSH1 0x40 PUSH1 0x0 KECCAK256 SLOAD SWAP1 JUMP JUMPDEST PUSH1 0x40 MLOAD PUSH4 0x22718AD9 PUSH1 0xE2 SHL DUP2 MSTORE PUSH1 0x0 PUSH1 0x4 DUP3 ADD MSTORE PUSH1 0x24 SWAP1 REVERT JUMPDEST SWAP2 SWAP1 DUP3 SUB SWAP2 DUP3 GT PUSH2 0x44C6 JUMPI JUMP JUMPDEST RETURNDATASIZE ISZERO PUSH2 0x474D JUMPI RETURNDATASIZE SWAP1 PUSH2 0x4733 DUP3 PUSH2 0x3E41 JUMP JUMPDEST SWAP2 PUSH2 0x4741 PUSH1 0x40 MLOAD SWAP4 DUP5 PUSH2 0x3C88 JUMP JUMPDEST DUP3 MSTORE RETURNDATASIZE PUSH1 0x0 PUSH1 0x20 DUP5 ADD RETURNDATACOPY JUMP JUMPDEST PUSH1 0x60 SWAP1 JUMP JUMPDEST ISZERO PUSH2 0x4759 JUMPI JUMP JUMPDEST PUSH1 0x40 MLOAD PUSH3 0x461BCD PUSH1 0xE5 SHL DUP2 MSTORE PUSH1 0x20 PUSH1 0x4 DUP3 ADD MSTORE PUSH1 0xF PUSH1 0x24 DUP3 ADD MSTORE PUSH15 0x151C985B9CD9995C8819985A5B1959 PUSH1 0x8A SHL PUSH1 0x44 DUP3 ADD MSTORE PUSH1 0x64 SWAP1 REVERT JUMPDEST SWAP2 SWAP1 DUP2 LT ISZERO PUSH2 0x134C JUMPI PUSH1 0x5 SHL ADD SWAP1 JUMP JUMPDEST PUSH1 0xD SLOAD PUSH1 0x1 PUSH1 0x1 PUSH1 0xA0 SHL SUB AND CALLER SUB PUSH2 0x47B4 JUMPI JUMP JUMPDEST PUSH1 0x40 MLOAD PUSH4 0x118CDAA7 PUSH1 0xE0 SHL DUP2 MSTORE CALLER PUSH1 0x4 DUP3 ADD MSTORE PUSH1 0x24 SWAP1 REVERT JUMPDEST PUSH1 0x0 DUP2 DUP2 MSTORE PUSH1 0x4 PUSH1 0x20 MSTORE PUSH1 0x40 SWAP1 KECCAK256 SLOAD PUSH1 0x1 PUSH1 0x1 PUSH1 0xA0 SHL SUB AND SWAP1 DUP2 ISZERO PUSH2 0x47EF JUMPI POP SWAP1 JUMP JUMPDEST PUSH1 0x24 SWAP1 PUSH1 0x40 MLOAD SWAP1 PUSH4 0x7E273289 PUSH1 0xE0 SHL DUP3 MSTORE PUSH1 0x4 DUP3 ADD MSTORE REVERT JUMPDEST PUSH1 0xFF PUSH1 0xD SLOAD PUSH1 0xA0 SHR AND PUSH2 0x4816 JUMPI JUMP JUMPDEST PUSH1 0x40 MLOAD PUSH4 0xD93C0665 PUSH1 0xE0 SHL DUP2 MSTORE PUSH1 0x4 SWAP1 REVERT JUMPDEST PUSH1 0x2 PUSH1 0xE SLOAD EQ PUSH2 0x4839 JUMPI PUSH1 0x2 PUSH1 0xE SSTORE JUMP JUMPDEST PUSH1 0x40 MLOAD PUSH4 0x3EE5AEB5 PUSH1 0xE0 SHL DUP2 MSTORE PUSH1 0x4 SWAP1 REVERT JUMPDEST ISZERO PUSH2 0x4852 JUMPI JUMP JUMPDEST PUSH1 0x40 MLOAD PUSH3 0x461BCD PUSH1 0xE5 SHL DUP2 MSTORE PUSH1 0x20 PUSH1 0x4 DUP3 ADD MSTORE PUSH1 0x14 PUSH1 0x24 DUP3 ADD MSTORE PUSH20 0x125B9CDD59999A58DA595B9D081C185E5B595B9D PUSH1 0x62 SHL PUSH1 0x44 DUP3 ADD MSTORE PUSH1 0x64 SWAP1 REVERT JUMPDEST PUSH1 0x1 PUSH1 0x1 PUSH1 0x40 SHL SUB DUP2 GT PUSH2 0xCF7 JUMPI PUSH1 0x5 SHL PUSH1 0x20 ADD SWAP1 JUMP JUMPDEST SWAP2 SWAP1 SWAP2 PUSH1 0x0 SWAP1 DUP1 DUP3 MSTORE PUSH1 0x20 SWAP2 PUSH1 0xC DUP4 MSTORE PUSH1 0x40 DUP2 KECCAK256 SWAP1 DUP6 MLOAD SWAP6 PUSH1 0x1 PUSH1 0x1 PUSH1 0x40 SHL SUB DUP8 GT PUSH2 0x49C0 JUMPI PUSH2 0x48DF DUP8 PUSH2 0x48D9 DUP6 SLOAD PUSH2 0x3BFC JUMP JUMPDEST DUP6 PUSH2 0x403B JUMP JUMPDEST DUP5 SWAP2 PUSH1 0x1F DUP9 GT PUSH1 0x1 EQ PUSH2 0x493C JUMPI SWAP7 PUSH2 0x4930 SWAP3 DUP2 SWAP3 PUSH32 0xF8E1A15ABA9398E019F0B49DF1A4FDE98EE17AE345CB5F6B5E2C27F5033E8CE7 SWAP9 SWAP10 SWAP3 PUSH2 0xC45 JUMPI POP POP DUP2 PUSH1 0x1 SHL SWAP2 PUSH1 0x0 NOT SWAP1 PUSH1 0x3 SHL SHR NOT AND OR SWAP1 JUMP JUMPDEST SWAP1 SSTORE JUMPDEST PUSH1 0x40 MLOAD SWAP1 DUP2 MSTORE LOG1 JUMP JUMPDEST SWAP2 SWAP1 PUSH1 0x1F NOT DUP9 AND DUP5 DUP5 MSTORE DUP7 DUP5 KECCAK256 SWAP4 JUMPDEST DUP2 DUP2 LT PUSH2 0x49A9 JUMPI POP SWAP2 PUSH1 0x1 SWAP4 SWAP2 DUP10 PUSH32 0xF8E1A15ABA9398E019F0B49DF1A4FDE98EE17AE345CB5F6B5E2C27F5033E8CE7 SWAP10 SWAP11 SWAP5 LT PUSH2 0x4990 JUMPI JUMPDEST POP POP POP DUP2 SHL ADD SWAP1 SSTORE PUSH2 0x4933 JUMP JUMPDEST ADD MLOAD PUSH1 0x0 NOT PUSH1 0xF8 DUP5 PUSH1 0x3 SHL AND SHR NOT AND SWAP1 SSTORE CODESIZE DUP1 DUP1 PUSH2 0x4983 JUMP JUMPDEST SWAP3 SWAP4 DUP8 PUSH1 0x1 DUP2 SWAP3 DUP8 DUP7 ADD MLOAD DUP2 SSTORE ADD SWAP6 ADD SWAP4 ADD PUSH2 0x494B JUMP JUMPDEST PUSH4 0x4E487B71 PUSH1 0xE0 SHL DUP3 MSTORE PUSH1 0x41 PUSH1 0x4 MSTORE PUSH1 0x24 DUP3 REVERT JUMPDEST PUSH1 0x0 SWAP1 DUP1 DUP3 MSTORE PUSH1 0x0 DUP1 MLOAD PUSH1 0x20 PUSH2 0x5607 DUP4 CODECOPY DUP2 MLOAD SWAP2 MSTORE PUSH1 0x80 PUSH1 0x20 PUSH1 0x17 DUP2 MSTORE PUSH1 0x40 SWAP5 DUP6 DUP2 KECCAK256 SWAP6 PUSH2 0x4A08 PUSH1 0x9 DUP9 ADD SLOAD CALLVALUE LT ISZERO PUSH2 0x484B JUMP JUMPDEST PUSH1 0xF SLOAD SWAP7 PUSH2 0x4A15 DUP9 PUSH2 0x4551 JUMP JUMPDEST PUSH1 0xF SSTORE PUSH1 0x7 DUP2 ADD SWAP1 PUSH2 0x4A27 DUP3 SLOAD PUSH2 0x4551 JUMP JUMPDEST DUP1 SWAP3 SSTORE PUSH2 0x4A34 DUP10 CALLER PUSH2 0x4C15 JUMP JUMPDEST PUSH2 0x4A49 PUSH2 0x4A43 PUSH1 0x1 DUP4 ADD PUSH2 0x3CA9 JUMP JUMPDEST DUP11 PUSH2 0x48A5 JUMP JUMPDEST DUP9 DUP5 MSTORE PUSH1 0x18 DUP6 MSTORE DUP8 DUP4 DUP6 KECCAK256 SSTORE PUSH1 0x19 DUP6 MSTORE DUP2 DUP4 DUP6 KECCAK256 SSTORE DUP8 DUP5 MSTORE PUSH1 0x1A DUP6 MSTORE PUSH2 0x4A71 DUP10 DUP5 DUP7 KECCAK256 PUSH2 0x459C JUMP JUMPDEST PUSH1 0x4 DUP2 ADD PUSH2 0x4A80 CALLVALUE DUP3 SLOAD PUSH2 0x44B9 JUMP JUMPDEST SWAP1 SSTORE PUSH1 0xC DUP2 ADD SLOAD PUSH1 0xC0 SHR PUSH1 0xFF AND ISZERO PUSH2 0x4AD5 JUMPI POP PUSH2 0x4A9D CALLVALUE DUP9 PUSH2 0x5066 JUMP JUMPDEST DUP2 MLOAD SWAP1 DUP2 MSTORE CALLVALUE DUP5 DUP3 ADD MSTORE DUP8 DUP8 PUSH1 0x0 DUP1 MLOAD PUSH1 0x20 PUSH2 0x55A7 DUP4 CODECOPY DUP2 MLOAD SWAP2 MSTORE DUP5 CALLER SWAP5 LOG4 DUP1 MLOAD SWAP3 CALLVALUE DUP5 MSTORE CALLVALUE SWAP1 DUP5 ADD MSTORE DUP3 ADD MSTORE PUSH1 0x1 PUSH1 0x60 DUP3 ADD MSTORE LOG2 SWAP1 JUMP JUMPDEST PUSH1 0x5 ADD PUSH2 0x4AE3 CALLVALUE DUP3 SLOAD PUSH2 0x44B9 JUMP JUMPDEST SWAP1 SSTORE PUSH2 0x4A9D JUMP JUMPDEST PUSH1 0x0 DUP1 MLOAD PUSH1 0x20 PUSH2 0x5607 DUP4 CODECOPY DUP2 MLOAD SWAP2 MSTORE PUSH1 0x80 PUSH1 0x0 SWAP4 DUP4 DUP6 MSTORE PUSH1 0x20 SWAP1 PUSH1 0x17 DUP3 MSTORE PUSH1 0x40 DUP1 DUP8 KECCAK256 SWAP7 PUSH2 0x4B1F PUSH2 0x11AD DUP5 PUSH1 0x9 DUP12 ADD SLOAD PUSH2 0x44B9 JUMP JUMPDEST PUSH1 0xF SLOAD SWAP8 PUSH2 0x4B2C DUP10 PUSH2 0x4551 JUMP JUMPDEST PUSH1 0xF SSTORE PUSH1 0x7 DUP2 ADD SWAP1 PUSH2 0x4B3E DUP3 SLOAD PUSH2 0x4551 JUMP JUMPDEST DUP1 SWAP3 SSTORE PUSH2 0x4B8C DUP11 DUP6 PUSH2 0x4B50 DUP9 CALLVALUE PUSH2 0x4715 JUMP JUMPDEST SWAP6 PUSH2 0x4B5B DUP4 CALLER PUSH2 0x4C15 JUMP JUMPDEST PUSH2 0x4B6A PUSH2 0x12D5 PUSH1 0x1 DUP8 ADD PUSH2 0x3CA9 JUMP JUMPDEST DUP3 DUP2 MSTORE PUSH1 0x18 DUP11 MSTORE DUP13 DUP3 DUP3 KECCAK256 SSTORE PUSH1 0x19 DUP11 MSTORE DUP6 DUP3 DUP3 KECCAK256 SSTORE DUP13 DUP2 MSTORE PUSH1 0x1A DUP11 MSTORE KECCAK256 PUSH2 0x459C JUMP JUMPDEST PUSH1 0x4 DUP2 ADD PUSH2 0x4B9B CALLVALUE DUP3 SLOAD PUSH2 0x44B9 JUMP JUMPDEST SWAP1 SSTORE PUSH1 0x6 DUP2 ADD PUSH2 0x4BAC DUP7 DUP3 SLOAD PUSH2 0x44B9 JUMP JUMPDEST SWAP1 SSTORE PUSH1 0xC DUP2 ADD SLOAD PUSH1 0xC0 SHR PUSH1 0xFF AND ISZERO PUSH2 0x4C00 JUMPI POP PUSH2 0x4BCA DUP5 DUP4 DUP11 PUSH2 0x5259 JUMP JUMPDEST DUP3 MLOAD SWAP1 DUP2 MSTORE CALLVALUE DUP6 DUP3 ADD MSTORE DUP9 DUP9 PUSH1 0x0 DUP1 MLOAD PUSH1 0x20 PUSH2 0x55A7 DUP4 CODECOPY DUP2 MLOAD SWAP2 MSTORE DUP6 CALLER SWAP5 LOG4 DUP2 MLOAD SWAP4 CALLVALUE DUP6 MSTORE DUP5 ADD MSTORE DUP3 ADD MSTORE PUSH1 0x1 PUSH1 0x60 DUP3 ADD MSTORE LOG2 SWAP1 JUMP JUMPDEST PUSH1 0x5 ADD PUSH2 0x4C0E DUP4 DUP3 SLOAD PUSH2 0x44B9 JUMP JUMPDEST SWAP1 SSTORE PUSH2 0x4BCA JUMP JUMPDEST PUSH1 0x40 DUP1 MLOAD SWAP1 PUSH2 0x4C23 DUP3 PUSH2 0x3C6D JUMP JUMPDEST PUSH1 0x0 DUP1 DUP4 MSTORE PUSH1 0x1 PUSH1 0x1 PUSH1 0xA0 SHL SUB SWAP5 DUP5 DUP7 AND SWAP4 SWAP1 SWAP2 SWAP1 DUP5 ISZERO PUSH2 0x504E JUMPI DUP3 DUP3 MSTORE PUSH1 0x4 SWAP6 PUSH1 0x20 SWAP8 DUP8 DUP10 MSTORE DUP1 DUP7 DUP6 KECCAK256 SLOAD AND DUP1 ISZERO ISZERO DUP1 PUSH2 0x5046 JUMPI JUMPDEST PUSH2 0x4F16 JUMPI JUMPDEST POP DUP5 DUP5 MSTORE DUP8 DUP10 MSTORE DUP6 DUP5 KECCAK256 SLOAD AND DUP7 DUP2 ISZERO SWAP2 DUP3 ISZERO SWAP3 DUP4 PUSH2 0x4EE3 JUMPI JUMPDEST DUP3 DUP8 MSTORE PUSH1 0x5 DUP13 MSTORE DUP9 DUP8 KECCAK256 DUP1 SLOAD PUSH1 0x1 ADD SWAP1 SSTORE DUP8 DUP8 MSTORE DUP11 DUP13 MSTORE DUP9 DUP8 KECCAK256 DUP1 SLOAD PUSH1 0x1 PUSH1 0x1 PUSH1 0xA0 SHL SUB NOT AND DUP5 OR SWAP1 SSTORE DUP8 DUP4 DUP4 PUSH32 0xDDF252AD1BE2C89B69C2B068FC378DAA952BA7F163C4A11628F55A4DF523B3EF DUP11 DUP1 LOG4 ISZERO PUSH2 0x4E65 JUMPI PUSH1 0xA SLOAD DUP8 DUP8 MSTORE PUSH1 0xB DUP13 MSTORE DUP9 DUP8 KECCAK256 SSTORE PUSH2 0x4CE4 DUP8 PUSH2 0x4560 JUMP JUMPDEST SUB PUSH2 0x4E19 JUMPI JUMPDEST PUSH2 0x4E02 JUMPI EXTCODESIZE PUSH2 0x4CFD JUMPI JUMPDEST POP POP POP POP POP POP POP JUMP JUMPDEST DUP7 PUSH2 0x4D3A SWAP2 DUP6 SWAP7 SWAP8 SWAP9 SWAP10 SWAP6 MLOAD DUP1 SWAP4 DUP2 SWAP3 PUSH4 0xA85BD01 PUSH1 0xE1 SHL SWAP8 DUP9 DUP5 MSTORE CALLER DUP14 DUP6 ADD MSTORE DUP8 PUSH1 0x24 DUP6 ADD MSTORE PUSH1 0x44 DUP5 ADD MSTORE PUSH1 0x80 PUSH1 0x64 DUP5 ADD MSTORE PUSH1 0x84 DUP4 ADD SWAP1 PUSH2 0x3B50 JUMP JUMPDEST SUB DUP2 DUP6 DUP11 GAS CALL SWAP1 DUP3 SWAP1 DUP3 PUSH2 0x4DB7 JUMPI JUMPDEST POP POP PUSH2 0x4D7F JUMPI POP POP POP PUSH2 0x4D5A PUSH2 0x4722 JUMP JUMPDEST DUP1 MLOAD SWAP5 DUP6 PUSH2 0x4D79 JUMPI POP POP MLOAD PUSH4 0x32505749 PUSH1 0xE1 SHL DUP2 MSTORE SWAP2 DUP3 ADD MSTORE PUSH1 0x24 SWAP2 POP REVERT JUMPDEST DUP6 SWAP3 POP ADD REVERT JUMPDEST SWAP2 SWAP6 POP PUSH1 0x1 PUSH1 0x1 PUSH1 0xE0 SHL SUB NOT SWAP1 SWAP2 AND SUB PUSH2 0x4DA2 JUMPI POP POP POP CODESIZE DUP1 DUP1 DUP1 DUP1 DUP1 DUP1 PUSH2 0x4CF4 JUMP JUMPDEST MLOAD PUSH4 0x32505749 PUSH1 0xE1 SHL DUP2 MSTORE SWAP2 DUP3 ADD MSTORE PUSH1 0x24 SWAP2 POP REVERT JUMPDEST SWAP1 SWAP2 SWAP3 POP DUP9 DUP2 DUP2 RETURNDATASIZE DUP4 GT PUSH2 0x4DFB JUMPI JUMPDEST PUSH2 0x4DD0 DUP2 DUP4 PUSH2 0x3C88 JUMP JUMPDEST DUP2 ADD SUB SLT PUSH2 0x4DF7 JUMPI MLOAD SWAP1 PUSH1 0x1 PUSH1 0x1 PUSH1 0xE0 SHL SUB NOT DUP3 AND DUP3 SUB PUSH2 0x4DF4 JUMPI POP SWAP1 CODESIZE DUP1 PUSH2 0x4D49 JUMP JUMPDEST DUP1 REVERT JUMPDEST POP DUP1 REVERT JUMPDEST POP RETURNDATASIZE PUSH2 0x4DC6 JUMP JUMPDEST DUP5 MLOAD PUSH4 0x39E35637 PUSH1 0xE1 SHL DUP2 MSTORE DUP1 DUP9 ADD DUP5 SWAP1 MSTORE PUSH1 0x24 SWAP1 REVERT JUMPDEST PUSH2 0x4E22 DUP3 PUSH2 0x46DC JUMP JUMPDEST PUSH1 0x0 NOT DUP2 ADD SWAP1 DUP2 GT PUSH2 0x4E52 JUMPI DUP8 DUP6 MSTORE PUSH1 0x8 DUP11 MSTORE DUP7 DUP6 KECCAK256 DUP2 DUP7 MSTORE DUP11 MSTORE DUP6 DUP8 DUP7 KECCAK256 SSTORE DUP6 DUP6 MSTORE PUSH1 0x9 DUP11 MSTORE DUP7 DUP6 KECCAK256 SSTORE PUSH2 0x4CEA JUMP JUMPDEST PUSH4 0x4E487B71 PUSH1 0xE0 SHL DUP6 MSTORE PUSH1 0x11 DUP10 MSTORE PUSH1 0x24 DUP6 REVERT JUMPDEST DUP1 DUP3 EQ PUSH2 0x4CE4 JUMPI PUSH2 0x4E75 DUP2 PUSH2 0x46DC JUMP JUMPDEST DUP8 DUP8 MSTORE PUSH1 0x9 DUP13 MSTORE DUP9 DUP8 KECCAK256 SLOAD DUP2 DUP2 SUB PUSH2 0x4EAA JUMPI JUMPDEST POP DUP8 DUP8 MSTORE DUP7 DUP10 DUP2 KECCAK256 SSTORE DUP2 DUP8 MSTORE PUSH1 0x8 DUP13 MSTORE DUP9 DUP8 KECCAK256 SWAP1 DUP8 MSTORE DUP12 MSTORE DUP6 DUP9 DUP2 KECCAK256 SSTORE PUSH2 0x4CE4 JUMP JUMPDEST DUP3 DUP9 MSTORE PUSH1 0x8 DUP14 MSTORE DUP10 DUP9 KECCAK256 DUP3 DUP10 MSTORE DUP14 MSTORE DUP13 PUSH1 0x8 DUP12 DUP11 KECCAK256 SLOAD SWAP2 DUP6 DUP12 MSTORE MSTORE DUP14 DUP12 DUP11 KECCAK256 SWAP1 DUP4 DUP12 MSTORE MSTORE DUP1 DUP12 DUP11 KECCAK256 SSTORE DUP9 MSTORE PUSH1 0x9 DUP14 MSTORE DUP10 DUP9 KECCAK256 SSTORE CODESIZE PUSH2 0x4E88 JUMP JUMPDEST PUSH1 0x0 DUP9 DUP2 MSTORE PUSH1 0x6 PUSH1 0x20 MSTORE PUSH1 0x40 SWAP1 KECCAK256 DUP1 SLOAD PUSH1 0x1 PUSH1 0x1 PUSH1 0xA0 SHL SUB NOT AND SWAP1 SSTORE DUP2 DUP8 MSTORE PUSH1 0x5 DUP13 MSTORE DUP9 DUP8 KECCAK256 DUP1 SLOAD PUSH1 0x0 NOT ADD SWAP1 SSTORE PUSH2 0x4C77 JUMP JUMPDEST PUSH1 0x14 DUP11 MSTORE PUSH1 0xFF DUP8 DUP7 KECCAK256 SLOAD AND PUSH2 0x5011 JUMPI DUP6 DUP6 MSTORE PUSH1 0x16 DUP11 MSTORE PUSH1 0xFF DUP8 DUP7 KECCAK256 SLOAD AND PUSH2 0x4FD9 JUMPI DUP5 MSTORE PUSH1 0x15 DUP10 MSTORE PUSH1 0xFF DUP7 DUP6 KECCAK256 SLOAD AND PUSH2 0x4F9E JUMPI DUP7 DUP5 MSTORE PUSH1 0x15 DUP10 MSTORE PUSH1 0xFF DUP7 DUP6 KECCAK256 SLOAD AND PUSH2 0x4F60 JUMPI CODESIZE PUSH2 0x4C5E JUMP JUMPDEST DUP6 MLOAD PUSH3 0x461BCD PUSH1 0xE5 SHL DUP2 MSTORE DUP1 DUP10 ADD DUP11 SWAP1 MSTORE PUSH1 0x18 PUSH1 0x24 DUP3 ADD MSTORE PUSH24 0x149958DA5C1A595B9D081A5CC8189B1858DADB1A5CDD1959 PUSH1 0x42 SHL PUSH1 0x44 DUP3 ADD MSTORE PUSH1 0x64 SWAP1 REVERT JUMPDEST DUP6 MLOAD PUSH3 0x461BCD PUSH1 0xE5 SHL DUP2 MSTORE DUP1 DUP10 ADD DUP11 SWAP1 MSTORE PUSH1 0x15 PUSH1 0x24 DUP3 ADD MSTORE PUSH21 0x14D95B99195C881A5CC8189B1858DADB1A5CDD1959 PUSH1 0x5A SHL PUSH1 0x44 DUP3 ADD MSTORE PUSH1 0x64 SWAP1 REVERT JUMPDEST DUP7 MLOAD PUSH3 0x461BCD PUSH1 0xE5 SHL DUP2 MSTORE DUP1 DUP11 ADD DUP12 SWAP1 MSTORE PUSH1 0x12 PUSH1 0x24 DUP3 ADD MSTORE PUSH18 0x151BDAD95B881A5CC81CDBDD5B189BDD5B99 PUSH1 0x72 SHL PUSH1 0x44 DUP3 ADD MSTORE PUSH1 0x64 SWAP1 REVERT JUMPDEST DUP7 MLOAD PUSH3 0x461BCD PUSH1 0xE5 SHL DUP2 MSTORE DUP1 DUP11 ADD DUP12 SWAP1 MSTORE PUSH1 0xF PUSH1 0x24 DUP3 ADD MSTORE PUSH15 0x2A37B5B2B71034B990333937BD32B7 PUSH1 0x89 SHL PUSH1 0x44 DUP3 ADD MSTORE PUSH1 0x64 SWAP1 REVERT JUMPDEST POP PUSH1 0x1 PUSH2 0x4C59 JUMP JUMPDEST DUP4 MLOAD PUSH4 0x32505749 PUSH1 0xE1 SHL DUP2 MSTORE PUSH1 0x4 DUP2 ADD DUP4 SWAP1 MSTORE PUSH1 0x24 SWAP1 REVERT JUMPDEST PUSH1 0x0 SWAP2 DUP2 DUP4 MSTORE PUSH1 0x20 SWAP3 PUSH1 0x17 DUP5 MSTORE PUSH1 0x40 DUP1 DUP3 KECCAK256 PUSH2 0x2710 PUSH2 0x508E PUSH2 0xFFFF PUSH1 0x13 SLOAD PUSH1 0x60 SHR AND DUP7 PUSH2 0x44DC JUMP JUMPDEST DIV SWAP1 PUSH2 0x50B4 DUP3 PUSH2 0x509E DUP2 DUP9 PUSH2 0x4715 JUMP JUMPDEST SWAP7 DUP9 DUP8 MSTORE PUSH1 0x1B DUP11 MSTORE DUP6 DUP8 KECCAK256 PUSH2 0x207E DUP3 DUP3 SLOAD PUSH2 0x44B9 JUMP JUMPDEST PUSH2 0x50C3 PUSH1 0x5 DUP4 ADD SWAP2 DUP3 SLOAD PUSH2 0x44B9 JUMP JUMPDEST SWAP1 SSTORE DUP2 PUSH2 0x51B7 JUMPI JUMPDEST DUP5 PUSH2 0x5103 JUMPI JUMPDEST PUSH1 0xC ADD SLOAD DUP3 MLOAD SWAP5 DUP6 MSTORE SWAP6 DUP5 ADD MSTORE DUP3 ADD MSTORE PUSH1 0x1 PUSH1 0x1 PUSH1 0xA0 SHL SUB SWAP1 SWAP3 AND SWAP2 PUSH1 0x0 DUP1 MLOAD PUSH1 0x20 PUSH2 0x55C7 DUP4 CODECOPY DUP2 MLOAD SWAP2 MSTORE SWAP1 PUSH1 0x60 SWAP1 LOG3 JUMP JUMPDEST PUSH1 0xC DUP2 ADD PUSH1 0x1 DUP1 PUSH1 0xA0 SHL SUB SWAP1 DUP6 DUP1 DUP1 DUP1 DUP11 DUP7 DUP7 SLOAD AND GAS CALL PUSH2 0x5122 PUSH2 0x4722 JUMP JUMPDEST POP ISZERO PUSH2 0x5177 JUMPI SWAP2 PUSH1 0x60 SWAP6 SWAP4 SWAP2 PUSH1 0x0 DUP1 MLOAD PUSH1 0x20 PUSH2 0x55C7 DUP4 CODECOPY DUP2 MLOAD SWAP2 MSTORE SWAP8 SWAP6 SWAP4 SLOAD AND DUP9 PUSH1 0x0 DUP1 MLOAD PUSH1 0x20 PUSH2 0x5587 DUP4 CODECOPY DUP2 MLOAD SWAP2 MSTORE DUP6 MLOAD DUP9 DUP2 MSTORE DUP7 DUP14 DUP3 ADD MSTORE DUP1 PUSH2 0x5168 DUP9 DUP3 ADD PUSH2 0x46C0 JUMP JUMPDEST SUB SWAP1 LOG3 SWAP2 SWAP4 SWAP6 POP SWAP2 SWAP4 POP PUSH2 0x50D1 JUMP JUMPDEST DUP5 MLOAD PUSH3 0x461BCD PUSH1 0xE5 SHL DUP2 MSTORE PUSH1 0x4 DUP2 ADD DUP11 SWAP1 MSTORE PUSH1 0x19 PUSH1 0x24 DUP3 ADD MSTORE PUSH25 0x14DD589B5A5D1D195C881D1C985B9CD9995C8819985A5B1959 PUSH1 0x3A SHL PUSH1 0x44 DUP3 ADD MSTORE PUSH1 0x64 SWAP1 REVERT JUMPDEST PUSH1 0x1 DUP1 PUSH1 0xA0 SHL SUB DUP5 DUP1 DUP1 DUP1 DUP7 DUP6 PUSH1 0x11 SLOAD AND GAS CALL PUSH2 0x51D2 PUSH2 0x4722 JUMP JUMPDEST POP ISZERO PUSH2 0x5215 JUMPI PUSH1 0x11 SLOAD AND DUP7 PUSH1 0x0 DUP1 MLOAD PUSH1 0x20 PUSH2 0x5587 DUP4 CODECOPY DUP2 MLOAD SWAP2 MSTORE PUSH1 0x80 DUP7 MLOAD DUP7 DUP2 MSTORE DUP8 DUP13 DUP3 ADD MSTORE PUSH1 0x8 DUP9 DUP3 ADD MSTORE PUSH8 0x706C6174666F726D PUSH1 0xC0 SHL PUSH1 0x60 DUP3 ADD MSTORE LOG3 PUSH2 0x50CB JUMP JUMPDEST DUP4 MLOAD PUSH3 0x461BCD PUSH1 0xE5 SHL DUP2 MSTORE PUSH1 0x4 DUP2 ADD DUP10 SWAP1 MSTORE PUSH1 0x1C PUSH1 0x24 DUP3 ADD MSTORE PUSH32 0x506C6174666F726D20666565207472616E73666572206661696C656400000000 PUSH1 0x44 DUP3 ADD MSTORE PUSH1 0x64 SWAP1 REVERT JUMPDEST SWAP1 PUSH1 0x0 SWAP1 DUP3 DUP3 MSTORE PUSH1 0x20 SWAP4 PUSH1 0x17 DUP6 MSTORE PUSH1 0x40 SWAP5 DUP6 DUP5 KECCAK256 SWAP1 PUSH2 0x2710 PUSH2 0x5284 PUSH2 0xFFFF PUSH1 0x13 SLOAD PUSH1 0x60 SHR AND DUP7 PUSH2 0x44DC JUMP JUMPDEST DIV SWAP5 PUSH2 0x52B8 DUP7 PUSH2 0x5298 DUP7 PUSH2 0x11A8 DUP4 DUP11 PUSH2 0x4715 JUMP JUMPDEST SWAP7 PUSH2 0x52A3 DUP8 DUP3 PUSH2 0x44B9 JUMP JUMPDEST DUP11 DUP6 MSTORE PUSH1 0x1B DUP7 MSTORE PUSH2 0x207E DUP13 DUP7 KECCAK256 SWAP2 DUP3 SLOAD PUSH2 0x44B9 JUMP JUMPDEST PUSH2 0x52C7 PUSH1 0x5 DUP6 ADD SWAP2 DUP3 SLOAD PUSH2 0x44B9 JUMP JUMPDEST SWAP1 SSTORE DUP6 PUSH2 0x53CB JUMPI JUMPDEST DUP5 PUSH2 0x5317 JUMPI JUMPDEST POP POP PUSH1 0xC ADD SLOAD SWAP5 MLOAD SWAP2 DUP3 MSTORE PUSH1 0x20 DUP3 ADD SWAP3 SWAP1 SWAP3 MSTORE PUSH1 0x40 DUP2 ADD SWAP2 SWAP1 SWAP2 MSTORE PUSH1 0x1 PUSH1 0x1 PUSH1 0xA0 SHL SUB SWAP1 SWAP3 AND SWAP2 PUSH1 0x0 DUP1 MLOAD PUSH1 0x20 PUSH2 0x55C7 DUP4 CODECOPY DUP2 MLOAD SWAP2 MSTORE SWAP1 DUP1 PUSH1 0x60 DUP2 ADD JUMPDEST SUB SWAP1 LOG3 JUMP JUMPDEST PUSH1 0xC DUP4 ADD PUSH1 0x1 DUP1 PUSH1 0xA0 SHL SUB SWAP2 DUP1 DUP1 DUP1 DUP10 DUP7 DUP7 SLOAD AND GAS CALL PUSH2 0x5335 PUSH2 0x4722 JUMP JUMPDEST POP ISZERO PUSH2 0x538B JUMPI SWAP2 DUP8 PUSH1 0x0 DUP1 MLOAD PUSH1 0x20 PUSH2 0x5587 DUP4 CODECOPY DUP2 MLOAD SWAP2 MSTORE PUSH2 0x5312 SWAP6 SWAP4 PUSH1 0x0 DUP1 MLOAD PUSH1 0x20 PUSH2 0x55C7 DUP4 CODECOPY DUP2 MLOAD SWAP2 MSTORE SWAP10 SWAP9 SWAP8 SWAP6 SLOAD AND SWAP3 DUP12 DUP1 MLOAD SWAP2 DUP10 DUP4 MSTORE DUP3 ADD MSTORE DUP1 PUSH2 0x537D DUP14 DUP3 ADD PUSH2 0x46C0 JUMP JUMPDEST SUB SWAP1 LOG3 SWAP2 DUP2 SWAP4 SWAP5 SWAP6 POP PUSH2 0x52D5 JUMP JUMPDEST DUP9 MLOAD PUSH3 0x461BCD PUSH1 0xE5 SHL DUP2 MSTORE PUSH1 0x4 DUP2 ADD DUP5 SWAP1 MSTORE PUSH1 0x19 PUSH1 0x24 DUP3 ADD MSTORE PUSH25 0x14DD589B5A5D1D195C881D1C985B9CD9995C8819985A5B1959 PUSH1 0x3A SHL PUSH1 0x44 DUP3 ADD MSTORE PUSH1 0x64 SWAP1 REVERT JUMPDEST PUSH1 0x1 DUP1 PUSH1 0xA0 SHL SUB DUP2 DUP1 DUP1 DUP1 DUP11 DUP6 PUSH1 0x11 SLOAD AND GAS CALL PUSH2 0x53E6 PUSH2 0x4722 JUMP JUMPDEST POP ISZERO PUSH2 0x5429 JUMPI PUSH1 0x11 SLOAD AND DUP8 PUSH1 0x0 DUP1 MLOAD PUSH1 0x20 PUSH2 0x5587 DUP4 CODECOPY DUP2 MLOAD SWAP2 MSTORE PUSH1 0x80 DUP12 MLOAD DUP11 DUP2 MSTORE DUP13 DUP8 DUP3 ADD MSTORE PUSH1 0x8 DUP14 DUP3 ADD MSTORE PUSH8 0x706C6174666F726D PUSH1 0xC0 SHL PUSH1 0x60 DUP3 ADD MSTORE LOG3 PUSH2 0x52CF JUMP JUMPDEST DUP9 MLOAD PUSH3 0x461BCD PUSH1 0xE5 SHL DUP2 MSTORE PUSH1 0x4 DUP2 ADD DUP5 SWAP1 MSTORE PUSH1 0x1C PUSH1 0x24 DUP3 ADD MSTORE PUSH32 0x506C6174666F726D20666565207472616E73666572206661696C656400000000 PUSH1 0x44 DUP3 ADD MSTORE PUSH1 0x64 SWAP1 REVERT JUMPDEST SWAP2 SWAP1 DUP1 EXTCODESIZE PUSH2 0x547C JUMPI JUMPDEST POP POP POP POP JUMP JUMPDEST PUSH2 0x54BE PUSH1 0x1 DUP1 PUSH1 0xA0 SHL SUB DUP1 SWAP3 AND SWAP5 PUSH1 0x40 MLOAD SWAP4 DUP5 SWAP4 PUSH4 0xA85BD01 PUSH1 0xE1 SHL SWAP7 DUP8 DUP7 MSTORE CALLER PUSH1 0x4 DUP8 ADD MSTORE AND PUSH1 0x24 DUP6 ADD MSTORE PUSH1 0x44 DUP5 ADD MSTORE PUSH1 0x80 PUSH1 0x64 DUP5 ADD MSTORE PUSH1 0x84 DUP4 ADD SWAP1 PUSH2 0x3B50 JUMP JUMPDEST SUB SWAP1 PUSH1 0x20 DUP2 PUSH1 0x0 SWAP4 DUP2 DUP6 DUP9 GAS CALL SWAP1 DUP3 SWAP1 DUP3 PUSH2 0x553D JUMPI JUMPDEST POP POP PUSH2 0x550C JUMPI DUP3 PUSH2 0x54E3 PUSH2 0x4722 JUMP JUMPDEST DUP1 MLOAD SWAP2 SWAP1 DUP3 PUSH2 0x5505 JUMPI PUSH1 0x40 MLOAD PUSH4 0x32505749 PUSH1 0xE1 SHL DUP2 MSTORE PUSH1 0x4 DUP2 ADD DUP4 SWAP1 MSTORE PUSH1 0x24 SWAP1 REVERT JUMPDEST SWAP1 POP PUSH1 0x20 ADD REVERT JUMPDEST PUSH1 0x1 PUSH1 0x1 PUSH1 0xE0 SHL SUB NOT AND SUB PUSH2 0x5525 JUMPI POP CODESIZE DUP1 DUP1 DUP1 PUSH2 0x5476 JUMP JUMPDEST PUSH1 0x24 SWAP1 PUSH1 0x40 MLOAD SWAP1 PUSH4 0x32505749 PUSH1 0xE1 SHL DUP3 MSTORE PUSH1 0x4 DUP3 ADD MSTORE REVERT JUMPDEST SWAP1 SWAP2 SWAP3 POP PUSH1 0x20 DUP2 RETURNDATASIZE PUSH1 0x20 GT PUSH2 0x557E JUMPI JUMPDEST DUP2 PUSH2 0x555A PUSH1 0x20 SWAP4 DUP4 PUSH2 0x3C88 JUMP JUMPDEST DUP2 ADD SUB SLT PUSH2 0x4DF7 JUMPI MLOAD SWAP1 PUSH1 0x1 PUSH1 0x1 PUSH1 0xE0 SHL SUB NOT DUP3 AND DUP3 SUB PUSH2 0x4DF4 JUMPI POP SWAP1 CODESIZE DUP1 PUSH2 0x54D4 JUMP JUMPDEST RETURNDATASIZE SWAP2 POP PUSH2 0x554D JUMP INVALID 0xC5 GT PUSH14 0xBFF033DAA6DB9B6CF401237EF4F DUP6 LOG0 0xA6 0xCB 0xE3 0x2B 0xFB MSTORE8 0xD1 DUP10 0xB3 0xE6 0xC4 0xBA 0xD6 PREVRANDAO 0xA7 CALLVALUE 0x22 DUP9 EXTCODEHASH 0xD5 0xAA 0xC8 0xDD 0xE6 0xEF CALLDATASIZE DUP9 0xC6 0x2F 0x25 LOG4 0xFB 0x22 0xE7 LOG3 SWAP6 0xBA 0xFB COINBASE 0x1E 0xC4 DUP1 GASPRICE 0xB1 0xBD 0xE6 0xBF PUSH10 0x167AD8E0C635FCC1B7BE 0xEA 0xFC 0xC5 PUSH25 0xB34E3C24B18668A3A118279345414A7A9A4F151CC0B6349BD7 MOD 0x24 AND 0xB8 0xF6 DUP14 SAR PUSH20 0xC3F457EFC221520EB5547595D2D8F1A038A86C47 PREVRANDAO PUSH14 0x2A26B7852348EEE74E6D63D5A717 SWAP3 0xDF ADD 0xE4 0xC 0x2E PUSH14 0xE1CA2A264697066735822122031 0xD9 PUSH13 0x1BBB8C35253141D0DECB6A04FC PUSH32 0xCF7086BE1BCDF45A7368AFB129068C64736F6C63430008180033000000000000 "},"methodIdentifiers":{"BPS_DENOMINATOR()":"e1a45218","MAX_BATCH_SIZE()":"cfdbf254","MAX_FEE_BPS()":"d55be8c6","VERSION()":"ffa1ad74","approve(address,uint256)":"095ea7b3","balanceOf(address)":"70a08231","batchMint(uint256,uint256)":"0ed64eff","batchMintWithTip(uint256,uint256,uint256)":"a575008a","batchSetTokenURI(uint256[],string)":"8f52d21a","blacklisted(address)":"dbac26e9","bugBountyPool()":"5049e52f","campaignDistributed(uint256)":"573a2427","campaignEditions(uint256,uint256)":"407de9df","campaigns(uint256)":"141961bc","closeCampaign(uint256)":"b0e1c1e1","createCampaign(string,string,uint256,uint256,uint256,uint256,uint256,address,address,bool)":"d696c091","deactivateCampaign(uint256)":"7eca30fe","defaultRoyaltyBps()":"18d33e41","deleteDefaultRoyalty()":"aa1b103f","deploymentChainId()":"cd0d0096","distributePendingFunds(uint256)":"57487aa5","emergencyWithdraw()":"db2e21bc","emitBatchMetadataUpdate(uint256,uint256)":"a4830114","emitMetadataUpdate(uint256)":"3190b9ea","frozenTokens(uint256)":"f401f8a0","fundBugBounty()":"47aa0dd0","getApproved(uint256)":"081812fc","getCampaign(uint256)":"5598f8cc","getCampaignEditions(uint256)":"3705f2a8","getEditionInfo(uint256)":"8079ca0c","isApprovedForAll(address,address)":"e985e9c5","markCampaignRefunded(uint256)":"a0a441bb","mint(uint256)":"a0712d68","mintEditionToDonor(uint256,address,uint256)":"2a76d553","mintWithBDAG(uint256)":"d88d6ef3","mintWithBDAGAndTip(uint256,uint256)":"1797c8f2","mintWithTip(uint256,uint256)":"3b080a96","name()":"06fdde03","owner()":"8da5cb5b","ownerOf(uint256)":"6352211e","pause()":"8456cb59","pauseCampaign(uint256)":"de99347a","paused()":"5c975abb","payBugBounty(address,uint256,string)":"8583d7c0","platformFeeBps()":"22dcd13e","platformTreasury()":"e138818c","reactivateCampaign(uint256)":"1fdc217c","recordContribution(uint256,uint256,uint256,uint256,bool)":"25532ecd","renounceOwnership()":"715018a6","reopenCampaign(uint256)":"c9d5084c","royaltyInfo(uint256,uint256)":"2a55205a","safeTransferFrom(address,address,uint256)":"42842e0e","safeTransferFrom(address,address,uint256,bytes)":"b88d4fde","setApprovalForAll(address,bool)":"a22cb465","setBlacklisted(address,bool)":"d01dd6d2","setCampaignImmediatePayout(uint256,bool)":"15e5b793","setDefaultRoyalty(address,uint96)":"04634d8d","setPlatformFee(uint16)":"5cbc742c","setPlatformTreasury(address)":"7cd86d60","setTokenFrozen(uint256,bool)":"78e652b5","setTokenRoyalty(uint256,address,uint96)":"5944c753","setTokenSoulbound(uint256,bool)":"37e7b0ee","setTokenURI(uint256,string)":"162094c4","soulbound(uint256)":"7a181597","supportsInterface(bytes4)":"01ffc9a7","symbol()":"95d89b41","tokenByIndex(uint256)":"4f6ccce7","tokenEditionNumber(uint256)":"b6358d99","tokenOfOwnerByIndex(address,uint256)":"2f745c59","tokenToCampaign(uint256)":"c1692213","tokenURI(uint256)":"c87b56dd","totalCampaigns()":"02932f56","totalSupply()":"18160ddd","transferFrom(address,address,uint256)":"23b872dd","transferOwnership(address)":"f2fde38b","unpause()":"3f4ba83a","unpauseCampaign(uint256)":"43a19a65","updateCampaignGoal(uint256,uint256,uint256)":"0f8321ab","updateCampaignMaxEditions(uint256,uint256)":"1cc76d75","updateCampaignMetadata(uint256,string)":"1dda279b","updateCampaignNonprofit(uint256,address)":"64094ced","updateCampaignPrice(uint256,uint256,uint256)":"1c4d8bc7","updateCampaignSubmitter(uint256,address)":"6fb8696c","withdraw(address,uint256)":"f3fef3a3"}}}}}