{"contracts/PatriotPledgeNFTV7.sol":{"PatriotPledgeNFTV7":{"abi":[{"inputs":[{"internalType":"address","name":"_platformTreasury","type":"address"},{"internalType":"uint16","name":"_platformFeeBps","type":"uint16"}],"stateMutability":"nonpayable","type":"constructor"},{"inputs":[{"internalType":"uint256","name":"numerator","type":"uint256"},{"internalType":"uint256","name":"denominator","type":"uint256"}],"name":"ERC2981InvalidDefaultRoyalty","type":"error"},{"inputs":[{"internalType":"address","name":"receiver","type":"address"}],"name":"ERC2981InvalidDefaultRoyaltyReceiver","type":"error"},{"inputs":[{"internalType":"uint256","name":"tokenId","type":"uint256"},{"internalType":"uint256","name":"numerator","type":"uint256"},{"internalType":"uint256","name":"denominator","type":"uint256"}],"name":"ERC2981InvalidTokenRoyalty","type":"error"},{"inputs":[{"internalType":"uint256","name":"tokenId","type":"uint256"},{"internalType":"address","name":"receiver","type":"address"}],"name":"ERC2981InvalidTokenRoyaltyReceiver","type":"error"},{"inputs":[],"name":"ERC721EnumerableForbiddenBatchMint","type":"error"},{"inputs":[{"internalType":"address","name":"sender","type":"address"},{"internalType":"uint256","name":"tokenId","type":"uint256"},{"internalType":"address","name":"owner","type":"address"}],"name":"ERC721IncorrectOwner","type":"error"},{"inputs":[{"internalType":"address","name":"operator","type":"address"},{"internalType":"uint256","name":"tokenId","type":"uint256"}],"name":"ERC721InsufficientApproval","type":"error"},{"inputs":[{"internalType":"address","name":"approver","type":"address"}],"name":"ERC721InvalidApprover","type":"error"},{"inputs":[{"internalType":"address","name":"operator","type":"address"}],"name":"ERC721InvalidOperator","type":"error"},{"inputs":[{"internalType":"address","name":"owner","type":"address"}],"name":"ERC721InvalidOwner","type":"error"},{"inputs":[{"internalType":"address","name":"receiver","type":"address"}],"name":"ERC721InvalidReceiver","type":"error"},{"inputs":[{"internalType":"address","name":"sender","type":"address"}],"name":"ERC721InvalidSender","type":"error"},{"inputs":[{"internalType":"uint256","name":"tokenId","type":"uint256"}],"name":"ERC721NonexistentToken","type":"error"},{"inputs":[{"internalType":"address","name":"owner","type":"address"},{"internalType":"uint256","name":"index","type":"uint256"}],"name":"ERC721OutOfBoundsIndex","type":"error"},{"inputs":[],"name":"EnforcedPause","type":"error"},{"inputs":[],"name":"ExpectedPause","type":"error"},{"inputs":[{"internalType":"address","name":"owner","type":"address"}],"name":"OwnableInvalidOwner","type":"error"},{"inputs":[{"internalType":"address","name":"account","type":"address"}],"name":"OwnableUnauthorizedAccount","type":"error"},{"inputs":[],"name":"ReentrancyGuardReentrantCall","type":"error"},{"anonymous":false,"inputs":[{"indexed":true,"internalType":"address","name":"addr","type":"address"},{"indexed":false,"internalType":"bool","name":"blacklisted","type":"bool"}],"name":"AddressBlacklisted","type":"event"},{"anonymous":false,"inputs":[{"indexed":true,"internalType":"address","name":"owner","type":"address"},{"indexed":true,"internalType":"address","name":"approved","type":"address"},{"indexed":true,"internalType":"uint256","name":"tokenId","type":"uint256"}],"name":"Approval","type":"event"},{"anonymous":false,"inputs":[{"indexed":true,"internalType":"address","name":"owner","type":"address"},{"indexed":true,"internalType":"address","name":"operator","type":"address"},{"indexed":false,"internalType":"bool","name":"approved","type":"bool"}],"name":"ApprovalForAll","type":"event"},{"anonymous":false,"inputs":[{"indexed":false,"internalType":"uint256","name":"_fromTokenId","type":"uint256"},{"indexed":false,"internalType":"uint256","name":"_toTokenId","type":"uint256"}],"name":"BatchMetadataUpdate","type":"event"},{"anonymous":false,"inputs":[{"indexed":true,"internalType":"address","name":"funder","type":"address"},{"indexed":false,"internalType":"uint256","name":"amount","type":"uint256"}],"name":"BugBountyFunded","type":"event"},{"anonymous":false,"inputs":[{"indexed":true,"internalType":"address","name":"recipient","type":"address"},{"indexed":false,"internalType":"uint256","name":"amount","type":"uint256"},{"indexed":false,"internalType":"string","name":"reportId","type":"string"}],"name":"BugBountyPaid","type":"event"},{"anonymous":false,"inputs":[{"indexed":true,"internalType":"uint256","name":"campaignId","type":"uint256"}],"name":"CampaignClosed","type":"event"},{"anonymous":false,"inputs":[{"indexed":true,"internalType":"uint256","name":"campaignId","type":"uint256"},{"indexed":true,"internalType":"address","name":"nonprofit","type":"address"},{"indexed":true,"internalType":"address","name":"submitter","type":"address"},{"indexed":false,"internalType":"string","name":"category","type":"string"},{"indexed":false,"internalType":"uint256","name":"goal","type":"uint256"},{"indexed":false,"internalType":"uint256","name":"maxEditions","type":"uint256"},{"indexed":false,"internalType":"uint256","name":"pricePerEdition","type":"uint256"},{"indexed":false,"internalType":"bool","name":"immediatePayoutEnabled","type":"bool"}],"name":"CampaignCreated","type":"event"},{"anonymous":false,"inputs":[{"indexed":true,"internalType":"uint256","name":"campaignId","type":"uint256"},{"indexed":false,"internalType":"string","name":"newBaseURI","type":"string"}],"name":"CampaignMetadataUpdated","type":"event"},{"anonymous":false,"inputs":[{"indexed":true,"internalType":"uint256","name":"campaignId","type":"uint256"}],"name":"CampaignRefunded","type":"event"},{"anonymous":false,"inputs":[{"indexed":true,"internalType":"uint256","name":"campaignId","type":"uint256"},{"indexed":false,"internalType":"string","name":"field","type":"string"}],"name":"CampaignUpdated","type":"event"},{"anonymous":false,"inputs":[{"indexed":true,"internalType":"uint256","name":"campaignId","type":"uint256"},{"indexed":false,"internalType":"uint256","name":"gross","type":"uint256"},{"indexed":false,"internalType":"uint256","name":"net","type":"uint256"},{"indexed":false,"internalType":"uint256","name":"tip","type":"uint256"},{"indexed":false,"internalType":"bool","name":"isOnchain","type":"bool"}],"name":"ContributionRecorded","type":"event"},{"anonymous":false,"inputs":[{"indexed":false,"internalType":"uint96","name":"newRoyaltyBps","type":"uint96"}],"name":"DefaultRoyaltyUpdated","type":"event"},{"anonymous":false,"inputs":[{"indexed":true,"internalType":"uint256","name":"campaignId","type":"uint256"},{"indexed":true,"internalType":"uint256","name":"tokenId","type":"uint256"},{"indexed":true,"internalType":"address","name":"donor","type":"address"},{"indexed":false,"internalType":"uint256","name":"editionNumber","type":"uint256"},{"indexed":false,"internalType":"uint256","name":"amountPaid","type":"uint256"}],"name":"EditionMinted","type":"event"},{"anonymous":false,"inputs":[{"indexed":true,"internalType":"address","name":"to","type":"address"},{"indexed":false,"internalType":"uint256","name":"amount","type":"uint256"}],"name":"EmergencyWithdraw","type":"event"},{"anonymous":false,"inputs":[{"indexed":false,"internalType":"uint16","name":"platformFeeBps","type":"uint16"},{"indexed":false,"internalType":"bool","name":"immediatePayout","type":"bool"}],"name":"FeeConfigUpdated","type":"event"},{"anonymous":false,"inputs":[{"indexed":true,"internalType":"uint256","name":"campaignId","type":"uint256"},{"indexed":true,"internalType":"address","name":"submitter","type":"address"},{"indexed":false,"internalType":"uint256","name":"submitterAmount","type":"uint256"},{"indexed":false,"internalType":"uint256","name":"platformFee","type":"uint256"},{"indexed":false,"internalType":"uint256","name":"nonprofitFee","type":"uint256"},{"indexed":false,"internalType":"uint256","name":"tipAmount","type":"uint256"}],"name":"FundsDistributed","type":"event"},{"anonymous":false,"inputs":[{"indexed":true,"internalType":"uint256","name":"campaignId","type":"uint256"},{"indexed":true,"internalType":"address","name":"recipient","type":"address"},{"indexed":false,"internalType":"uint256","name":"amount","type":"uint256"},{"indexed":false,"internalType":"string","name":"recipientType","type":"string"}],"name":"ImmediatePayoutSent","type":"event"},{"anonymous":false,"inputs":[{"indexed":false,"internalType":"uint256","name":"_tokenId","type":"uint256"}],"name":"MetadataUpdate","type":"event"},{"anonymous":false,"inputs":[{"indexed":true,"internalType":"address","name":"previousOwner","type":"address"},{"indexed":true,"internalType":"address","name":"newOwner","type":"address"}],"name":"OwnershipTransferred","type":"event"},{"anonymous":false,"inputs":[{"indexed":false,"internalType":"address","name":"account","type":"address"}],"name":"Paused","type":"event"},{"anonymous":false,"inputs":[{"indexed":true,"internalType":"uint256","name":"tokenId","type":"uint256"},{"indexed":true,"internalType":"address","name":"burner","type":"address"}],"name":"TokenBurned","type":"event"},{"anonymous":false,"inputs":[{"indexed":true,"internalType":"uint256","name":"tokenId","type":"uint256"},{"indexed":false,"internalType":"bool","name":"frozen","type":"bool"}],"name":"TokenFrozen","type":"event"},{"anonymous":false,"inputs":[{"indexed":true,"internalType":"uint256","name":"tokenId","type":"uint256"},{"indexed":false,"internalType":"bool","name":"soulbound","type":"bool"}],"name":"TokenSoulbound","type":"event"},{"anonymous":false,"inputs":[{"indexed":true,"internalType":"uint256","name":"tokenId","type":"uint256"},{"indexed":false,"internalType":"string","name":"newURI","type":"string"}],"name":"TokenURIFixed","type":"event"},{"anonymous":false,"inputs":[{"indexed":true,"internalType":"address","name":"from","type":"address"},{"indexed":true,"internalType":"address","name":"to","type":"address"},{"indexed":true,"internalType":"uint256","name":"tokenId","type":"uint256"}],"name":"Transfer","type":"event"},{"anonymous":false,"inputs":[{"indexed":true,"internalType":"address","name":"oldTreasury","type":"address"},{"indexed":true,"internalType":"address","name":"newTreasury","type":"address"}],"name":"TreasuryUpdated","type":"event"},{"anonymous":false,"inputs":[{"indexed":false,"internalType":"address","name":"account","type":"address"}],"name":"Unpaused","type":"event"},{"stateMutability":"payable","type":"fallback"},{"inputs":[],"name":"BPS_DENOMINATOR","outputs":[{"internalType":"uint256","name":"","type":"uint256"}],"stateMutability":"view","type":"function"},{"inputs":[],"name":"MAX_BATCH_SIZE","outputs":[{"internalType":"uint256","name":"","type":"uint256"}],"stateMutability":"view","type":"function"},{"inputs":[],"name":"MAX_FEE_BPS","outputs":[{"internalType":"uint256","name":"","type":"uint256"}],"stateMutability":"view","type":"function"},{"inputs":[{"internalType":"uint256","name":"tokenId","type":"uint256"}],"name":"adminBurn","outputs":[],"stateMutability":"nonpayable","type":"function"},{"inputs":[{"internalType":"address","name":"to","type":"address"},{"internalType":"uint256","name":"tokenId","type":"uint256"}],"name":"approve","outputs":[],"stateMutability":"nonpayable","type":"function"},{"inputs":[{"internalType":"address","name":"owner","type":"address"}],"name":"balanceOf","outputs":[{"internalType":"uint256","name":"","type":"uint256"}],"stateMutability":"view","type":"function"},{"inputs":[{"internalType":"uint256[]","name":"tokenIds","type":"uint256[]"},{"internalType":"uint256","name":"campaignId","type":"uint256"}],"name":"batchFixTokenCampaignLink","outputs":[],"stateMutability":"nonpayable","type":"function"},{"inputs":[{"internalType":"uint256[]","name":"tokenIds","type":"uint256[]"},{"internalType":"bool","name":"freeze","type":"bool"}],"name":"batchFreezeTokens","outputs":[],"stateMutability":"nonpayable","type":"function"},{"inputs":[{"internalType":"uint256[]","name":"tokenIds","type":"uint256[]"},{"internalType":"string","name":"uri","type":"string"}],"name":"batchSetTokenURI","outputs":[],"stateMutability":"nonpayable","type":"function"},{"inputs":[{"internalType":"address","name":"addr","type":"address"}],"name":"blacklistAddress","outputs":[],"stateMutability":"nonpayable","type":"function"},{"inputs":[{"internalType":"address","name":"","type":"address"}],"name":"blacklisted","outputs":[{"internalType":"bool","name":"","type":"bool"}],"stateMutability":"view","type":"function"},{"inputs":[],"name":"bugBountyPool","outputs":[{"internalType":"uint256","name":"","type":"uint256"}],"stateMutability":"view","type":"function"},{"inputs":[{"internalType":"uint256","name":"tokenId","type":"uint256"}],"name":"burn","outputs":[],"stateMutability":"nonpayable","type":"function"},{"inputs":[{"internalType":"uint256","name":"","type":"uint256"}],"name":"campaignDistributed","outputs":[{"internalType":"uint256","name":"","type":"uint256"}],"stateMutability":"view","type":"function"},{"inputs":[{"internalType":"uint256","name":"","type":"uint256"},{"internalType":"uint256","name":"","type":"uint256"}],"name":"campaignEditions","outputs":[{"internalType":"uint256","name":"","type":"uint256"}],"stateMutability":"view","type":"function"},{"inputs":[{"internalType":"uint256","name":"","type":"uint256"}],"name":"campaigns","outputs":[{"internalType":"string","name":"category","type":"string"},{"internalType":"string","name":"baseURI","type":"string"},{"internalType":"uint256","name":"goal","type":"uint256"},{"internalType":"uint256","name":"grossRaised","type":"uint256"},{"internalType":"uint256","name":"netRaised","type":"uint256"},{"internalType":"uint256","name":"tipsReceived","type":"uint256"},{"internalType":"uint256","name":"editionsMinted","type":"uint256"},{"internalType":"uint256","name":"maxEditions","type":"uint256"},{"internalType":"uint256","name":"pricePerEdition","type":"uint256"},{"internalType":"address","name":"nonprofit","type":"address"},{"internalType":"address","name":"submitter","type":"address"},{"internalType":"bool","name":"active","type":"bool"},{"internalType":"bool","name":"closed","type":"bool"},{"internalType":"bool","name":"refunded","type":"bool"},{"internalType":"bool","name":"immediatePayoutEnabled","type":"bool"}],"stateMutability":"view","type":"function"},{"inputs":[{"internalType":"uint256","name":"campaignId","type":"uint256"}],"name":"closeCampaign","outputs":[],"stateMutability":"nonpayable","type":"function"},{"inputs":[{"internalType":"string","name":"category","type":"string"},{"internalType":"string","name":"baseURI","type":"string"},{"internalType":"uint256","name":"goal","type":"uint256"},{"internalType":"uint256","name":"maxEditions","type":"uint256"},{"internalType":"uint256","name":"pricePerEdition","type":"uint256"},{"internalType":"address","name":"nonprofit","type":"address"},{"internalType":"address","name":"submitter","type":"address"},{"internalType":"bool","name":"immediatePayoutEnabled","type":"bool"}],"name":"createCampaign","outputs":[{"internalType":"uint256","name":"","type":"uint256"}],"stateMutability":"nonpayable","type":"function"},{"inputs":[{"internalType":"uint256","name":"campaignId","type":"uint256"}],"name":"deactivateCampaign","outputs":[],"stateMutability":"nonpayable","type":"function"},{"inputs":[],"name":"defaultRoyaltyBps","outputs":[{"internalType":"uint96","name":"","type":"uint96"}],"stateMutability":"view","type":"function"},{"inputs":[],"name":"deleteDefaultRoyalty","outputs":[],"stateMutability":"nonpayable","type":"function"},{"inputs":[],"name":"deploymentChainId","outputs":[{"internalType":"uint256","name":"","type":"uint256"}],"stateMutability":"view","type":"function"},{"inputs":[{"internalType":"uint256","name":"campaignId","type":"uint256"}],"name":"distributePendingFunds","outputs":[],"stateMutability":"nonpayable","type":"function"},{"inputs":[],"name":"emergencyWithdraw","outputs":[],"stateMutability":"nonpayable","type":"function"},{"inputs":[{"internalType":"uint256","name":"fromTokenId","type":"uint256"},{"internalType":"uint256","name":"toTokenId","type":"uint256"}],"name":"emitBatchMetadataUpdate","outputs":[],"stateMutability":"nonpayable","type":"function"},{"inputs":[{"internalType":"uint256","name":"tokenId","type":"uint256"}],"name":"emitMetadataUpdate","outputs":[],"stateMutability":"nonpayable","type":"function"},{"inputs":[],"name":"feeConfig","outputs":[{"internalType":"uint16","name":"platformFeeBps","type":"uint16"},{"internalType":"bool","name":"immediatePayout","type":"bool"}],"stateMutability":"view","type":"function"},{"inputs":[{"internalType":"uint256","name":"tokenId","type":"uint256"},{"internalType":"uint256","name":"campaignId","type":"uint256"}],"name":"fixTokenCampaignLink","outputs":[],"stateMutability":"nonpayable","type":"function"},{"inputs":[{"internalType":"uint256","name":"tokenId","type":"uint256"}],"name":"freezeToken","outputs":[],"stateMutability":"nonpayable","type":"function"},{"inputs":[{"internalType":"uint256","name":"","type":"uint256"}],"name":"frozenTokens","outputs":[{"internalType":"bool","name":"","type":"bool"}],"stateMutability":"view","type":"function"},{"inputs":[],"name":"fundBugBountyPool","outputs":[],"stateMutability":"payable","type":"function"},{"inputs":[{"internalType":"uint256","name":"tokenId","type":"uint256"}],"name":"getApproved","outputs":[{"internalType":"address","name":"","type":"address"}],"stateMutability":"view","type":"function"},{"inputs":[{"internalType":"uint256","name":"campaignId","type":"uint256"}],"name":"getCampaign","outputs":[{"internalType":"string","name":"category","type":"string"},{"internalType":"string","name":"baseURI","type":"string"},{"internalType":"uint256","name":"goal","type":"uint256"},{"internalType":"uint256","name":"grossRaised","type":"uint256"},{"internalType":"uint256","name":"netRaised","type":"uint256"},{"internalType":"uint256","name":"editionsMinted","type":"uint256"},{"internalType":"uint256","name":"maxEditions","type":"uint256"},{"internalType":"uint256","name":"pricePerEdition","type":"uint256"},{"internalType":"address","name":"nonprofit","type":"address"},{"internalType":"address","name":"submitter","type":"address"},{"internalType":"bool","name":"active","type":"bool"},{"internalType":"bool","name":"closed","type":"bool"},{"internalType":"bool","name":"immediatePayoutEnabled","type":"bool"}],"stateMutability":"view","type":"function"},{"inputs":[{"internalType":"uint256","name":"campaignId","type":"uint256"}],"name":"getCampaignEditions","outputs":[{"internalType":"uint256[]","name":"","type":"uint256[]"}],"stateMutability":"view","type":"function"},{"inputs":[{"internalType":"uint256","name":"tokenId","type":"uint256"}],"name":"getEditionInfo","outputs":[{"internalType":"uint256","name":"campaignId","type":"uint256"},{"internalType":"uint256","name":"editionNumber","type":"uint256"},{"internalType":"uint256","name":"totalEditions","type":"uint256"}],"stateMutability":"view","type":"function"},{"inputs":[],"name":"getFeeConfig","outputs":[{"internalType":"uint16","name":"platformFeeBps","type":"uint16"},{"internalType":"bool","name":"immediatePayout","type":"bool"}],"stateMutability":"view","type":"function"},{"inputs":[{"internalType":"address","name":"owner","type":"address"},{"internalType":"address","name":"operator","type":"address"}],"name":"isApprovedForAll","outputs":[{"internalType":"bool","name":"","type":"bool"}],"stateMutability":"view","type":"function"},{"inputs":[{"internalType":"uint256","name":"tokenId","type":"uint256"}],"name":"makeSoulbound","outputs":[],"stateMutability":"nonpayable","type":"function"},{"inputs":[{"internalType":"uint256","name":"campaignId","type":"uint256"}],"name":"markCampaignRefunded","outputs":[],"stateMutability":"nonpayable","type":"function"},{"inputs":[{"internalType":"uint256","name":"campaignId","type":"uint256"},{"internalType":"uint256","name":"quantity","type":"uint256"}],"name":"mintBatchWithBDAG","outputs":[{"internalType":"uint256[]","name":"","type":"uint256[]"}],"stateMutability":"payable","type":"function"},{"inputs":[{"internalType":"uint256","name":"campaignId","type":"uint256"},{"internalType":"uint256","name":"quantity","type":"uint256"},{"internalType":"uint256","name":"tipAmount","type":"uint256"}],"name":"mintBatchWithBDAGAndTip","outputs":[{"internalType":"uint256[]","name":"","type":"uint256[]"}],"stateMutability":"payable","type":"function"},{"inputs":[{"internalType":"uint256","name":"campaignId","type":"uint256"},{"internalType":"uint256","name":"quantity","type":"uint256"}],"name":"mintBatchWithImmediatePayout","outputs":[{"internalType":"uint256[]","name":"tokenIds","type":"uint256[]"}],"stateMutability":"payable","type":"function"},{"inputs":[{"internalType":"uint256","name":"campaignId","type":"uint256"},{"internalType":"uint256","name":"quantity","type":"uint256"},{"internalType":"uint256","name":"tipAmount","type":"uint256"}],"name":"mintBatchWithImmediatePayoutAndTip","outputs":[{"internalType":"uint256[]","name":"tokenIds","type":"uint256[]"}],"stateMutability":"payable","type":"function"},{"inputs":[{"internalType":"uint256","name":"campaignId","type":"uint256"},{"internalType":"address","name":"donor","type":"address"},{"internalType":"uint256","name":"amountPaid","type":"uint256"}],"name":"mintEditionToDonor","outputs":[{"internalType":"uint256","name":"","type":"uint256"}],"stateMutability":"nonpayable","type":"function"},{"inputs":[{"internalType":"uint256","name":"campaignId","type":"uint256"}],"name":"mintWithBDAG","outputs":[{"internalType":"uint256","name":"","type":"uint256"}],"stateMutability":"payable","type":"function"},{"inputs":[{"internalType":"uint256","name":"campaignId","type":"uint256"},{"internalType":"uint256","name":"tipAmount","type":"uint256"}],"name":"mintWithBDAGAndTip","outputs":[{"internalType":"uint256","name":"","type":"uint256"}],"stateMutability":"payable","type":"function"},{"inputs":[{"internalType":"uint256","name":"campaignId","type":"uint256"}],"name":"mintWithImmediatePayout","outputs":[{"internalType":"uint256","name":"","type":"uint256"}],"stateMutability":"payable","type":"function"},{"inputs":[{"internalType":"uint256","name":"campaignId","type":"uint256"},{"internalType":"uint256","name":"tipAmount","type":"uint256"}],"name":"mintWithImmediatePayoutAndTip","outputs":[{"internalType":"uint256","name":"","type":"uint256"}],"stateMutability":"payable","type":"function"},{"inputs":[],"name":"name","outputs":[{"internalType":"string","name":"","type":"string"}],"stateMutability":"view","type":"function"},{"inputs":[],"name":"owner","outputs":[{"internalType":"address","name":"","type":"address"}],"stateMutability":"view","type":"function"},{"inputs":[{"internalType":"uint256","name":"tokenId","type":"uint256"}],"name":"ownerOf","outputs":[{"internalType":"address","name":"","type":"address"}],"stateMutability":"view","type":"function"},{"inputs":[],"name":"pause","outputs":[],"stateMutability":"nonpayable","type":"function"},{"inputs":[],"name":"paused","outputs":[{"internalType":"bool","name":"","type":"bool"}],"stateMutability":"view","type":"function"},{"inputs":[{"internalType":"address payable","name":"recipient","type":"address"},{"internalType":"uint256","name":"amount","type":"uint256"},{"internalType":"string","name":"reportId","type":"string"}],"name":"payBugBounty","outputs":[],"stateMutability":"nonpayable","type":"function"},{"inputs":[],"name":"platformTreasury","outputs":[{"internalType":"address","name":"","type":"address"}],"stateMutability":"view","type":"function"},{"inputs":[{"internalType":"uint256","name":"campaignId","type":"uint256"}],"name":"reactivateCampaign","outputs":[],"stateMutability":"nonpayable","type":"function"},{"inputs":[{"internalType":"uint256","name":"campaignId","type":"uint256"},{"internalType":"uint256","name":"gross","type":"uint256"},{"internalType":"uint256","name":"net","type":"uint256"},{"internalType":"uint256","name":"tip","type":"uint256"},{"internalType":"bool","name":"isOnchain","type":"bool"}],"name":"recordContribution","outputs":[],"stateMutability":"nonpayable","type":"function"},{"inputs":[{"internalType":"address","name":"addr","type":"address"}],"name":"removeBlacklist","outputs":[],"stateMutability":"nonpayable","type":"function"},{"inputs":[{"internalType":"uint256","name":"tokenId","type":"uint256"}],"name":"removeSoulbound","outputs":[],"stateMutability":"nonpayable","type":"function"},{"inputs":[],"name":"renounceOwnership","outputs":[],"stateMutability":"nonpayable","type":"function"},{"inputs":[{"internalType":"uint256","name":"campaignId","type":"uint256"}],"name":"reopenCampaign","outputs":[],"stateMutability":"nonpayable","type":"function"},{"inputs":[{"internalType":"uint256","name":"tokenId","type":"uint256"},{"internalType":"uint256","name":"salePrice","type":"uint256"}],"name":"royaltyInfo","outputs":[{"internalType":"address","name":"","type":"address"},{"internalType":"uint256","name":"","type":"uint256"}],"stateMutability":"view","type":"function"},{"inputs":[{"internalType":"address","name":"from","type":"address"},{"internalType":"address","name":"to","type":"address"},{"internalType":"uint256","name":"tokenId","type":"uint256"}],"name":"safeTransferFrom","outputs":[],"stateMutability":"nonpayable","type":"function"},{"inputs":[{"internalType":"address","name":"from","type":"address"},{"internalType":"address","name":"to","type":"address"},{"internalType":"uint256","name":"tokenId","type":"uint256"},{"internalType":"bytes","name":"data","type":"bytes"}],"name":"safeTransferFrom","outputs":[],"stateMutability":"nonpayable","type":"function"},{"inputs":[{"internalType":"address","name":"operator","type":"address"},{"internalType":"bool","name":"approved","type":"bool"}],"name":"setApprovalForAll","outputs":[],"stateMutability":"nonpayable","type":"function"},{"inputs":[{"internalType":"uint256","name":"campaignId","type":"uint256"},{"internalType":"bool","name":"enabled","type":"bool"}],"name":"setCampaignImmediatePayout","outputs":[],"stateMutability":"nonpayable","type":"function"},{"inputs":[{"internalType":"address","name":"receiver","type":"address"},{"internalType":"uint96","name":"feeNumerator","type":"uint96"}],"name":"setDefaultRoyalty","outputs":[],"stateMutability":"nonpayable","type":"function"},{"inputs":[{"internalType":"uint16","name":"_platformFeeBps","type":"uint16"},{"internalType":"bool","name":"_immediatePayout","type":"bool"}],"name":"setFeeConfig","outputs":[],"stateMutability":"nonpayable","type":"function"},{"inputs":[{"internalType":"address","name":"newTreasury","type":"address"}],"name":"setPlatformTreasury","outputs":[],"stateMutability":"nonpayable","type":"function"},{"inputs":[{"internalType":"uint256","name":"tokenId","type":"uint256"},{"internalType":"address","name":"receiver","type":"address"},{"internalType":"uint96","name":"feeNumerator","type":"uint96"}],"name":"setTokenRoyalty","outputs":[],"stateMutability":"nonpayable","type":"function"},{"inputs":[{"internalType":"uint256","name":"tokenId","type":"uint256"},{"internalType":"string","name":"uri","type":"string"}],"name":"setTokenURI","outputs":[],"stateMutability":"nonpayable","type":"function"},{"inputs":[{"internalType":"uint256","name":"","type":"uint256"}],"name":"soulbound","outputs":[{"internalType":"bool","name":"","type":"bool"}],"stateMutability":"view","type":"function"},{"inputs":[{"internalType":"bytes4","name":"interfaceId","type":"bytes4"}],"name":"supportsInterface","outputs":[{"internalType":"bool","name":"","type":"bool"}],"stateMutability":"view","type":"function"},{"inputs":[],"name":"symbol","outputs":[{"internalType":"string","name":"","type":"string"}],"stateMutability":"view","type":"function"},{"inputs":[{"internalType":"uint256","name":"index","type":"uint256"}],"name":"tokenByIndex","outputs":[{"internalType":"uint256","name":"","type":"uint256"}],"stateMutability":"view","type":"function"},{"inputs":[{"internalType":"uint256","name":"","type":"uint256"}],"name":"tokenEditionNumber","outputs":[{"internalType":"uint256","name":"","type":"uint256"}],"stateMutability":"view","type":"function"},{"inputs":[{"internalType":"address","name":"owner","type":"address"},{"internalType":"uint256","name":"index","type":"uint256"}],"name":"tokenOfOwnerByIndex","outputs":[{"internalType":"uint256","name":"","type":"uint256"}],"stateMutability":"view","type":"function"},{"inputs":[{"internalType":"uint256","name":"","type":"uint256"}],"name":"tokenToCampaign","outputs":[{"internalType":"uint256","name":"","type":"uint256"}],"stateMutability":"view","type":"function"},{"inputs":[{"internalType":"uint256","name":"tokenId","type":"uint256"}],"name":"tokenURI","outputs":[{"internalType":"string","name":"","type":"string"}],"stateMutability":"view","type":"function"},{"inputs":[],"name":"totalCampaigns","outputs":[{"internalType":"uint256","name":"","type":"uint256"}],"stateMutability":"view","type":"function"},{"inputs":[],"name":"totalSupply","outputs":[{"internalType":"uint256","name":"","type":"uint256"}],"stateMutability":"view","type":"function"},{"inputs":[{"internalType":"address","name":"from","type":"address"},{"internalType":"address","name":"to","type":"address"},{"internalType":"uint256","name":"tokenId","type":"uint256"}],"name":"transferFrom","outputs":[],"stateMutability":"nonpayable","type":"function"},{"inputs":[{"internalType":"address","name":"newOwner","type":"address"}],"name":"transferOwnership","outputs":[],"stateMutability":"nonpayable","type":"function"},{"inputs":[{"internalType":"uint256","name":"tokenId","type":"uint256"}],"name":"unfreezeToken","outputs":[],"stateMutability":"nonpayable","type":"function"},{"inputs":[],"name":"unpause","outputs":[],"stateMutability":"nonpayable","type":"function"},{"inputs":[{"internalType":"uint256","name":"campaignId","type":"uint256"},{"internalType":"string","name":"newCategory","type":"string"}],"name":"updateCampaignCategory","outputs":[],"stateMutability":"nonpayable","type":"function"},{"inputs":[{"internalType":"uint256","name":"campaignId","type":"uint256"},{"internalType":"uint256","name":"newGoal","type":"uint256"}],"name":"updateCampaignGoal","outputs":[],"stateMutability":"nonpayable","type":"function"},{"inputs":[{"internalType":"uint256","name":"campaignId","type":"uint256"},{"internalType":"uint256","name":"newMax","type":"uint256"}],"name":"updateCampaignMaxEditions","outputs":[],"stateMutability":"nonpayable","type":"function"},{"inputs":[{"internalType":"uint256","name":"campaignId","type":"uint256"},{"internalType":"string","name":"newBaseURI","type":"string"}],"name":"updateCampaignMetadata","outputs":[],"stateMutability":"nonpayable","type":"function"},{"inputs":[{"internalType":"uint256","name":"campaignId","type":"uint256"},{"internalType":"address","name":"newNonprofit","type":"address"}],"name":"updateCampaignNonprofit","outputs":[],"stateMutability":"nonpayable","type":"function"},{"inputs":[{"internalType":"uint256","name":"campaignId","type":"uint256"},{"internalType":"uint256","name":"newPrice","type":"uint256"}],"name":"updateCampaignPrice","outputs":[],"stateMutability":"nonpayable","type":"function"},{"inputs":[{"internalType":"uint256","name":"campaignId","type":"uint256"},{"internalType":"address","name":"newSubmitter","type":"address"}],"name":"updateCampaignSubmitter","outputs":[],"stateMutability":"nonpayable","type":"function"},{"inputs":[{"internalType":"address payable","name":"to","type":"address"},{"internalType":"uint256","name":"amount","type":"uint256"}],"name":"withdraw","outputs":[],"stateMutability":"nonpayable","type":"function"},{"stateMutability":"payable","type":"receive"}],"evm":{"bytecode":{"linkReferences":{},"object":"60a034620004cc5762005f7c90601f19906001600160401b03601f38859003818101851684019083821185831017620003de5780859160409889948552833981010312620004cc5782516001600160a01b038082169590929091869003620004cc576020809501519361ffff8516809503620004cc576200007f620004d1565b92601584527f50617472696f74506c656467652045646974696f6e000000000000000000000087850152620000b3620004d1565b926003938481526250504560e81b898201528551848111620003de576002546001978882811c92168015620004c1575b8c831014620003bd578b828685941162000467575b50508b908583116001146200040057600092620003f4575b505060001982881b1c191690871b176002555b8051938411620003de578454928684811c94168015620003d3575b8a851014620003bd57838386951162000363575b5089928411600114620002ff5750600092620002f3575b505060001982841b1c191690831b1790555b3315620002db57600d54865192339082167f8be0079c531659141344cd1fd0a4f28419497f9722a3daafe3b4186f6b6457e0600080a36001600160a81b0319163360ff60a01b191617600d55600e55601380546001600160601b03191660fa1790558315620002a65750610bb881116200027357601180546001600160a01b031916841790554660805260fa919060008262000216620004d1565b838152015262ffffff19601754161760175562000232620004d1565b8381520152607d60a11b1760005551615a8a9081620004f28239608051818181610710015281816107db01528181610e2f01528181611f7401526128ae0152f35b835162461bcd60e51b815260048101839052600c60248201526b08ccaca40e8dede40d0d2ced60a31b6044820152606490fd5b62461bcd60e51b815260048101839052601060248201526f496e76616c696420747265617375727960801b6044820152606490fd5b8551631e4fbdf760e01b815260006004820152602490fd5b01519050388062000169565b8694929192169185600052896000209260005b8b8282106200034c575050841162000333575b505050811b0190556200017b565b015160001983861b60f8161c1916905538808062000325565b838501518655899790950194938401930162000312565b909192935085600052896000208480870160051c8201928c8810620003b3575b9187968a92969594930160051c01915b828110620003a357505062000152565b6000815587965089910162000393565b9250819262000383565b634e487b7160e01b600052602260045260246000fd5b93607f16936200013e565b634e487b7160e01b600052604160045260246000fd5b01519050388062000110565b908c91878b9516600260005283600020936000905b8282106200044f575050841162000436575b505050811b0160025562000123565b0151600019838a1b60f8161c1916905538808062000427565b8385015186558d979095019493840193018f62000415565b90919250600260005285826000209181860160051c8301938610620004b7575b918b91869594930160051c01915b828110620004a757508d9150620000f8565b600081558594508b910162000495565b9250819262000487565b91607f1691620000e3565b600080fd5b60408051919082016001600160401b03811183821017620003de5760405256fe608080604052600436101561001a575b50361561001857005b005b60003560e01c90816301ffc9a7146139675750806302932f561461394957806304634d8d1461385857806306fdde03146137aa578063081812fc1461376c578063095ea7b314613685578063141961bc1461357857806315e5b793146134d1578063162094c4146134495780631797c8f21461341057806318160ddd146133f257806318d33e41146133cb5780631cc76d75146132f85780631dda279b146131675780631e2b8983146130515780631e5eb1d0146123415780631fdc217c14612f7957806323b872dd14612f6257806325532ecd14612ea65780632a55205a14612df45780632a76d55314612cd95780632f745c5914612c555780633190b9ea14612c0e5780633705f2a814612b955780633f4ba83a14612b23578063407de9df14612af257806342842e0e14612ac457806342966c6814612a0f5780634639cfaa1461293357806347c735fc146128d457806349942b0f1461286e5780634cbdbfa9146127e85780634d787ea9146127895780634db7bfff146127385780634f6ccce7146126e25780635049e52f146126c457806351a0bbb2146126595780635598f8cc14612569578063573a24271461253d57806357487aa51461246e5780635944c753146123995780635c975abb146123735780635fbbc0d2146123415780636352211e1461231157806364094ced1461226c5780636fb8696c146121c457806370a0823114612199578063715018a61461213c5780637a1815971461210b5780637cd86d60146120635780637eca30fe14611fee5780638079ca0c14611f9a57806380b2f18d14611f335780638456cb5914611ed15780638583d7c014611d525780638da5cb5b14611d295780638e20f98c14611be25780638f52d21a14611ad657806395d89b41146119f357806396ab0493146119d45780639b640d4314611501578063a0a441bb1461149b578063a22cb465146113f0578063a4830114146113aa578063a591eea114611325578063aa1b103f14611306578063b0e1c1e1146112a1578063b6358d9914611275578063b6854f96146111f0578063b88d4fde14611186578063badb97ff14611104578063c1692213146110d8578063c608e72a14610f75578063c87b56dd14610f1c578063c9d5084c14610e52578063cd0d009614610e17578063cfdbf25414610dfb578063d55be8c614610dde578063d83b4f9914610cf5578063d88d6ef314610b46578063db2e21bc14610a97578063dbac26e914610a58578063e138818c14610a2f578063e1a4521814610a12578063e2ec62f91461079e578063e985e9c514610748578063eb4d68fd146106d2578063eb91e65114610666578063f2fde38b146105dd578063f3290d751461056e578063f3fef3a3146104d2578063f401f8a0146104a15763fb77211c14610426573861000f565b3461049c5761043436613c31565b61043c614b55565b8160005260186020526008604060002061046060ff600a83015460a81c1615613db9565b01556000805160206159f5833981519152606060405160208152600f60208201526e383934b1b2a832b922b234ba34b7b760891b6040820152a2005b600080fd5b3461049c57602036600319011261049c576004356000526014602052602060ff604060002054166040519015158152f35b3461049c57604036600319011261049c576104eb613a20565b6024356104f6614b55565b6104fe614d0c565b8047106105325761052b916000918291829182916001600160a01b03165af16105256148f2565b50614922565b6001600e55005b60405162461bcd60e51b8152602060048201526014602482015273496e73756666696369656e742062616c616e636560601b6044820152606490fd5b3461049c57602036600319011261049c57610587613a20565b61058f614b55565b60018060a01b03168060005260156020526040600020600160ff198254161790557f97b7af35c8c05eca90f543eb78b16fdf2664d3e6c9a907286f310647d9813b71602060405160018152a2005b3461049c57602036600319011261049c576105f6613a20565b6105fe614b55565b6001600160a01b0390811690811561064d57600d54826001600160601b0360a01b821617600d55167f8be0079c531659141344cd1fd0a4f28419497f9722a3daafe3b4186f6b6457e0600080a3005b604051631e4fbdf760e01b815260006004820152602490fd5b3461049c57602036600319011261049c5761067f613a20565b610687614b55565b6001600160a01b03166000818152601560209081526040808320805460ff19169055519182527f97b7af35c8c05eca90f543eb78b16fdf2664d3e6c9a907286f310647d9813b7191a2005b602061073b6106e036613c31565b906106e9614ceb565b336000526015845261070360ff6040600020541615613e5b565b61070b614d0c565b6107367f00000000000000000000000000000000000000000000000000000000000000004614614485565b6149da565b6001600e55604051908152f35b3461049c57604036600319011261049c57610761613a20565b610769613a36565b9060018060a01b03809116600052600760205260406000209116600052602052602060ff604060002054166040519015158152f35b6107a736613c31565b6107af614ceb565b336000526020916015835260ff926107ce846040600020541615613e5b565b6107d6614d0c565b6108017f00000000000000000000000000000000000000000000000000000000000000004614614485565b8160005260188152604060002093600a8501610840828254610827828260a01c166143b3565b610836828260a81c1615613db9565b60b01c16156144bf565b84151580610a07575b610852906144ff565b61086a600787015480159081156109ef575b5061453e565b61088361087b866008890154614380565b341015614581565b61088c856145db565b946108978134614393565b906000600689019060019360018b01915b84811061094d576109258b8b600080516020615a158339815191528f8d818e808f6003608096016108da34825461435d565b90555460b81c16908161093e575b501561092957506108f93485615463565b6040519034825234908201526000604082015260016060820152a26001600e5560405191829182613cac565b0390f35b60040161093734825461435d565b90556108f9565b905060175460101c16886108e8565b8084848c6109c88f958b968f601b90600f956109976109918854998a996109738b614438565b905561097f8c54614438565b809c5561098c8a33614d2f565b613b1d565b88614bbc565b866000526019825280604060002055601a825288604060002055600052526109c3846040600020613f42565b61461a565b52604051918252848c8301528c6000805160206159d583398151915260403394a4016108a8565b90506109ff8760068a015461435d565b111588610864565b506032851115610849565b3461049c57600036600319011261049c5760206040516127108152f35b3461049c57600036600319011261049c576011546040516001600160a01b039091168152602090f35b3461049c57602036600319011261049c576001600160a01b03610a79613a20565b166000526015602052602060ff604060002054166040519015158152f35b3461049c57600036600319011261049c57610ab0614b55565b610ab8614d0c565b478015610b14577f5fafa99d0643513820be26656b45130b01e1c03062e1266bf36f88cbd3bd9695602060018060a01b03610b0160008080808886601154165af16105256148f2565b6011541692604051908152a26001600e55005b60405162461bcd60e51b815260206004820152600a6024820152694e6f2062616c616e636560b01b6044820152606490fd5b60208060031936011261049c57600435610b5e614ceb565b336000526015825260ff90610b7a826040600020541615613e5b565b610b82614d0c565b80600052601883526040600020600a810190610ba8848354610827828260a01c166143b3565b610bc060078201548015908115610ce7575b506143f5565b610bd06008820154341015614581565b600f5493610bdd85614438565b600f55806006830193610bf08554614438565b809555610bfd8733614d2f565b610c0c61099160018601613b1d565b866000526019885285604060002055601a88528460406000205585600052601b8852610c3c876040600020613f42565b60038401610c4b34825461435d565b90555460b81c169081610cd8575b5015610cc35750610c6a3483615463565b604051908152348482015282826000805160206159d583398151915260403394a4600080516020615a15833981519152608060405134815234868201526000604082015260016060820152a26001600e55604051908152f35b600401610cd134825461435d565b9055610c6a565b905060175460101c1686610c59565b905060068301541087610bba565b3461049c57604036600319011261049c5760043561ffff81169081810361049c57610d1e613bc2565b90610d27614b55565b610bb88311610daa5760207f910a28ccd5b8f99f5cbc7d92ef87e3f7ec688263eba2ae9ebb65d0b327a89c0093604051610d6081613ac6565b818152841515928391015262ff00006017549260101b169162ffffff19161717601755610da56040519283928390929160209061ffff60408401951683521515910152565b0390a1005b60405162461bcd60e51b815260206004820152600c60248201526b08ccaca40e8dede40d0d2ced60a31b6044820152606490fd5b3461049c57600036600319011261049c576020604051610bb88152f35b3461049c57600036600319011261049c57602060405160328152f35b3461049c57600036600319011261049c5760206040517f00000000000000000000000000000000000000000000000000000000000000008152f35b3461049c57602036600319011261049c57600435610e6e614b55565b806000526018602052600a604060002001805460ff8160a81c1615610ee157610e9d60ff8260b01c1615613f65565b600160a01b9061ffff60a01b19161790556000805160206159f583398151915260606040516020815260086020820152671c995bdc195b995960c21b6040820152a2005b60405162461bcd60e51b815260206004820152601360248201527210d85b5c185a59db881b9bdd0818db1bdcd959606a1b6044820152606490fd5b3461049c57602036600319011261049c57600435610f3981614b81565b50600052600c602052610925610f526040600020613b1d565b6000604051610f6081613ae1565b52604051918291602083526020830190613a4c565b3461049c57610f8336613bfe565b610f8e929192614b55565b8160005260209060188252604060002090610fb360ff600a84015460a81c1615613db9565b6001600160401b0381116110c257610fd581610fcf8454613a8c565b84613ea0565b6000601f82116001146110485781606094939261101a926000805160206159f5833981519152979860009261103d575b50508160011b916000199060031b1c19161790565b90555b6008604051918083528201526763617465676f727960c01b6040820152a2005b013590508880611005565b601f1982169083600052846000209160005b8181106110ab5750916000805160206159f583398151915296978492606097969560019510611091575b505050811b01905561101d565b0135600019600384901b60f8161c19169055878080611084565b91928660018192868c01358155019401920161105a565b634e487b7160e01b600052604160045260246000fd5b3461049c57602036600319011261049c5760043560005260196020526020604060002054604051908152f35b3461049c57602036600319011261049c57600435611120614b55565b6000818152600460205260409020546001600160a01b03906111459082161515613df7565b816000526004602052604060002054169061115f81615150565b7f33631bcd0a4d34a7e2c240ab0753d5adfb7284d8ac89dab6876ec785c0cfa0e6600080a3005b3461049c57608036600319011261049c5761119f613a20565b6111a7613a36565b90604435606435926001600160401b03841161049c573660238501121561049c576111df610018943690602481600401359101613d82565b926111eb838383613fa9565b61589c565b3461049c57602036600319011261049c5760043561120c614b55565b60008181526004602052604090205461122f906001600160a01b03161515613df7565b8060005260146020526040600020600160ff198254161790557fbf025f2b09b91dc81d2b137bed7b878fb0bd75a3bfe4708d69989fda3c63485a602060405160018152a2005b3461049c57602036600319011261049c57600435600052601a6020526020604060002054604051908152f35b3461049c57602036600319011261049c576004356112bd614b55565b6000818152601860205260408120600a01805461ffff60a01b1916600160a81b1790557f5e6eb33a418de5dbbc17f989f7ae362cdfbb1748c5d603137c767027a354edbc9080a2005b3461049c57600036600319011261049c5761131f614b55565b60008055005b3461049c57602036600319011261049c57600435611341614b55565b600081815260046020526040902054611364906001600160a01b03161515613df7565b8060005260166020526040600020600160ff198254161790557f7fba17392135b4084a7d689c1f6d77139e1f1c18ee4651bf32dc35ae29ce9301602060405160018152a2005b3461049c577f6bd5c950a8d8df17f772f5af37cb3655737899cbf903264b9795592da439661c60406113db36613c31565b6113e3614b55565b82519182526020820152a1005b3461049c57604036600319011261049c57611409613a20565b611411613bc2565b6001600160a01b03909116908115611482573360005260076020526040600020826000526020526114528160406000209060ff801983541691151516179055565b60405190151581527f17307eab39ab6107e8899845ad3d59bd9653f200f220920489ca2b5937696c3160203392a3005b604051630b61174360e31b815260048101839052602490fd5b3461049c57602036600319011261049c576004356114b7614b55565b6000818152601860205260408120600a01805462ff00ff60a01b1916600160b01b1790557f4825b022b52da7a8de8063d9ea8fd654176315fff40077d4c0374f8e1d8a245b9080a2005b3461049c5761010036600319011261049c576004356001600160401b03811161049c57611532903690600401613bd1565b906024356001600160401b03811161049c57611552903690600401613bd1565b9160a435916001600160a01b038316830361049c5760c4356001600160a01b038116810361049c5760e43592831515840361049c5761158f614b55565b6115a36001600160a01b0383161515614879565b6115b76001600160a01b0386161515614839565b601054956115c487614438565b60105560405193846101e08101106001600160401b036101e0870111176110c257611605916101e086016040526115fc368b86613d82565b86523691613d82565b602084015260443560408401526000606084015260006080840152600060a0840152600060c084015260643560e084015260843561010084015260018060a01b03851661012084015260018060a01b0382166101408401526001610160840152600061018084015260006101a08401528315156101c084015285600052601860205260406000209683518051906001600160401b0382116110c2576116b4826116ae8c54613a8c565b8c613ea0565b602090601f8311600114611968576116e492916000918361195d5750508160011b916000199060031b1c19161790565b88555b6020840151928351986001600160401b038a116110c25789899561171d60209c6117146001860154613a8c565b60018601613ea0565b8b90601f83116001146118bd5761186393611779847f2b284f3763c3f60985f9293b26f40161537c0fcc0bb7250a3eb0c1cb65e849ed9a9b956101c095600a956000926118b25750508160011b916000199060031b1c19161790565b60018201555b60408401516002820155606084015160038201556080840151600482015560a080850151600583015560c0850151600683015560e0850151600783015561010085015160088301556101208501516009830180546001600160a01b0319166001600160a01b039283161790556101408601519390920180546101608701516101808801516101a089015197909801516001600160c01b0319909216959094169490941792151590911b60ff60a01b169190911793151560a81b60ff60a81b169390931791151560b01b60ff60b01b169190911790151560b81b60ff60b81b16179055565b61187a60405193849360a0855260a0850191613e3a565b604435838b01526064356040840152608435606084015295151560808301526001600160a01b039081169616940390a4604051908152f35b015190503880611005565b97929190600183016000528c6000209860005b601f19841681106119435750926001837f2b284f3763c3f60985f9293b26f40161537c0fcc0bb7250a3eb0c1cb65e849ed9a9b600a9461186398976101c097601f1981161061192a575b505050811b01600182015561177f565b015160001960f88460031b161c1916905538808061191a565b828201518b556001909a01998d9950918e01918e016118d0565b015190508b80611005565b91908a6000526020600020906000935b601f19841685106119b9576001945083601f198116106119a0575b505050811b0188556116e7565b015160001960f88460031b161c191690558a8080611993565b81810151835560209485019460019093019290910190611978565b3461049c576100186119e536613c31565b906119ee614b55565b614960565b3461049c57600036600319011261049c57604051600354600082611a1683613a8c565b9182825260209360019085600182169182600014611ab6575050600114611a59575b50611a4592500383613afc565b610925604051928284938452830190613a4c565b84915060036000527fc2575a0e9e593c00f959f8c92f12db2869c3395a3b0502d05e2516446f71f85b906000915b858310611a9e575050611a45935082010185611a38565b80548389018501528794508693909201918101611a87565b60ff191685820152611a4595151560051b8501019250879150611a389050565b3461049c57604036600319011261049c576001600160401b0360043581811161049c57611b07903690600401613c47565b909160243590811161049c57611b21903690600401613bd1565b9091611b2b614b55565b60005b818110611b3757005b6001906001600160a01b03611b6c611b5083868a613ef6565b356000908152600460205260409020546001600160a01b031690565b16611b78575b01611b2e565b611b98611b86828589613ef6565b35611b92368789613d82565b90614bbc565b611ba3818488613ef6565b357fac6d62cb5d30a7fff578060cd3dcf46ff2df7991a71c2d2aabca7e558f130f7860405180611bda60208083528201898b613e3a565b0390a2611b72565b611beb36613c31565b611bf3614ceb565b336000526020916015835260ff92611c12846040600020541615613e5b565b611c1a614d0c565b8160005260188152604060002093600a8501611c40828254610827828260a01c166143b3565b84151580611d1e575b611c52906144ff565b611c69600787015480159081156109ef575061453e565b611c7a61087b866008890154614380565b611c83856145db565b94611c8e8134614393565b906000600689019060019360018b01915b848110611cd1576109258b8b600080516020615a158339815191528f8d818e808f6003608096016108da34825461435d565b8084848c611cf78f958b968f601b90600f956109976109918854998a996109738b614438565b52604051918252848c8301528c6000805160206159d583398151915260403394a401611c9f565b506032851115611c49565b3461049c57600036600319011261049c57600d546040516001600160a01b039091168152602090f35b3461049c57606036600319011261049c57611d6b613a20565b602435906044356001600160401b03811161049c57611d8e903690600401613bd1565b9091611d98614b55565b611da0614d0c565b6001600160a01b0316928315611e98578015611e6257601254818110611e29577fd24fd04b4a509fac28aab0419d3841217c53a8b375b372060993dc15c350ef7f93611def83611e1f9361460d565b601255611e066000808080878b5af16105256148f2565b6040519384938452604060208501526040840191613e3a565b0390a26001600e55005b60405162461bcd60e51b8152602060048201526011602482015270125b9cdd59999a58da595b9d081c1bdbdb607a1b6044820152606490fd5b60405162461bcd60e51b815260206004820152600e60248201526d125b9d985b1a5908185b5bdd5b9d60921b6044820152606490fd5b60405162461bcd60e51b8152602060048201526011602482015270125b9d985b1a59081c9958da5c1a595b9d607a1b6044820152606490fd5b3461049c57600036600319011261049c57611eea614b55565b611ef2614ceb565b600d805460ff60a01b1916600160a01b1790556040513381527f62e78cea01bee320cd4e420270b5ea74000d11b0c9f74754ebdbfc544b05a25890602090a1005b60208060031936011261049c57600435611f4b614ceb565b336000526015825260ff90611f67826040600020541615613e5b565b611f6f614d0c565b610b827f00000000000000000000000000000000000000000000000000000000000000004614614485565b3461049c57602036600319011261049c5760043560005260196020526060604060002054601a6020526040600020548160005260186020526006604060002001549060405192835260208301526040820152f35b3461049c57602036600319011261049c5760043561200a614b55565b806000526018602052600a60406000200160ff60a01b1981541690556000805160206159f58339815191526040518061205e8160609060208152600660208201526561637469766560d01b60408201520190565b0390a2005b3461049c57602036600319011261049c5761207c613a20565b612084614b55565b6001600160a01b039081169081156120d357601154826001600160601b0360a01b821617601155167f4ab5be82436d353e61ca18726e984e561f5c1cc7c6d38b29d2553c790434705a600080a3005b60405162461bcd60e51b815260206004820152601060248201526f496e76616c696420747265617375727960801b6044820152606490fd5b3461049c57602036600319011261049c576004356000526016602052602060ff604060002054166040519015158152f35b3461049c57600036600319011261049c57612155614b55565b600d80546001600160a01b031981169091556000906001600160a01b03167f8be0079c531659141344cd1fd0a4f28419497f9722a3daafe3b4186f6b6457e08280a3005b3461049c57602036600319011261049c5760206121bc6121b7613a20565b6148b9565b604051908152f35b3461049c57604036600319011261049c576004356121e0613a36565b6121e8614b55565b816000526018602052600a6040600020019081549061220d60ff8360a81c1615613db9565b6001600160a01b031690612222821515614879565b6001600160601b0360a01b161790556000805160206159f5833981519152604051602081528061205e60208201604090600981526839bab136b4ba3a32b960b91b60208201520190565b3461049c57604036600319011261049c57600435612288613a36565b612290614b55565b81600052601860205260096040600020916122b560ff600a85015460a81c1615613db9565b6001600160a01b0316916122ca831515614839565b01906001600160601b0360a01b8254161790556000805160206159f583398151915260606040516020815260096020820152681b9bdb9c1c9bd99a5d60ba1b6040820152a2005b3461049c57602036600319011261049c57602061232f600435614b81565b6040516001600160a01b039091168152f35b3461049c57600036600319011261049c576017546040805161ffff8316815260109290921c60ff161515602083015290f35b3461049c57600036600319011261049c57602060ff600d5460a01c166040519015158152f35b3461049c57606036600319011261049c576004356123b5613a36565b604435906001600160601b03821680920361049c576123d2614b55565b61271080831161244a57506001600160a01b0390811692831561242b57604051936123fc85613ac6565b84526020808501938452600091825260019052604090209251915160a01b6001600160a01b0319169116179055005b60449060405190634b4f842960e11b8252600482015260006024820152fd5b83606491846040519263dfd1fc1b60e01b8452600484015260248301526044820152fd5b3461049c57602036600319011261049c5760043561248a614b55565b612492614d0c565b8060005260186020526004604060002001908154908115612505578147106124c057600061052b9355615463565b60405162461bcd60e51b815260206004820152601d60248201527f496e73756666696369656e7420636f6e74726163742062616c616e63650000006044820152606490fd5b60405162461bcd60e51b815260206004820152601060248201526f4e6f2070656e64696e672066756e647360801b6044820152606490fd5b3461049c57602036600319011261049c57600435600052601c6020526020604060002054604051908152f35b3461049c57602036600319011261049c5760043560005260186020526125f26040600020600281015460ff8260038101546004820154906006830154600784015460088501549160018060a01b039485600988015416946126006125dd60016125d6600a8c01549b613b1d565b9d01613b1d565b6040519d8e9d8e6101a0908181520190613a4c565b8d810360208f015290613a4c565b9960408c015260608b015260808a015260a089015260c088015260e08701526101008601528116610120850152818160a01c161515610140850152818160a81c16151561016085015260b81c1615156101808301520390f35b3461049c5761266736613c31565b61266f614b55565b8160005260186020526002604060002061269360ff600a83015460a81c1615613db9565b01556000805160206159f5833981519152606060405160208152600460208201526319dbd85b60e21b6040820152a2005b3461049c57600036600319011261049c576020601254604051908152f35b3461049c57602036600319011261049c57600435600a548110156127195761270b602091613ce8565b90546040519160031b1c8152f35b6044906040519063295f44f760e21b8252600060048301526024820152fd5b61092561277861274736613d4d565b91612750614ceb565b33600052601560205261276b60ff6040600020541615613e5b565b612773614d0c565b61462e565b6001600e5560405191829182613cac565b3461049c57602036600319011261049c576004356127a5614b55565b806000526014602052604060002060ff1981541690557fbf025f2b09b91dc81d2b137bed7b878fb0bd75a3bfe4708d69989fda3c63485a602060405160008152a2005b600036600319011261049c573415612837576128063460125461435d565b6012556040513481527f1da5cc6515d0bf0b6fb40cedcd4ef3eb9a5b820440278efc9321a4491b5dd1ef60203392a2005b60405162461bcd60e51b815260206004820152600f60248201526e4d7573742073656e642066756e647360881b6044820152606490fd5b61092561277861287d36613d4d565b91612886614ceb565b3360005260156020526128a160ff6040600020541615613e5b565b6128a9614d0c565b6127737f00000000000000000000000000000000000000000000000000000000000000004614614485565b3461049c57602036600319011261049c576004356128f0614b55565b806000526016602052604060002060ff1981541690557f7fba17392135b4084a7d689c1f6d77139e1f1c18ee4651bf32dc35ae29ce9301602060405160008152a2005b3461049c57604036600319011261049c576004356001600160401b03811161049c57612963903690600401613c47565b61296b613bc2565b612973614b55565b60005b82811061297f57005b6001906001600160a01b03612998611b50838789613ef6565b166129a4575b01612976565b6129af818587613ef6565b356000526020601481526129d38460406000209060ff801983541691151516179055565b7fbf025f2b09b91dc81d2b137bed7b878fb0bd75a3bfe4708d69989fda3c63485a6129ff838789613ef6565b35916040518615158152a261299e565b3461049c57602036600319011261049c5760043580600052600460205260018060a01b03604060002054163303612a8d57806000526014602052612a5b60ff6040600020541615614447565b612a6481615150565b33907f33631bcd0a4d34a7e2c240ab0753d5adfb7284d8ac89dab6876ec785c0cfa0e6600080a3005b60405162461bcd60e51b815260206004820152600f60248201526e2737ba103a37b5b2b71037bbb732b960891b6044820152606490fd5b3461049c57610018612ad536613c77565b9060405192612ae384613ae1565b600084526111eb838383613fa9565b3461049c57612b0036613c31565b90600052601b6020526040600020805482101561049c5760209161270b91613d35565b3461049c57600036600319011261049c57612b3c614b55565b600d5460ff8160a01c1615612b835760ff60a01b1916600d556040513381527f5db9ee0a495bf2e6ff9c91a7834c1ba4fdd244a5e8aa4e537bd38aeae4b073aa90602090a1005b604051638dfc202b60e01b8152600490fd5b3461049c5760208060031936011261049c57600435600052601b6020526040600020906040519081602084549182815201936000526020600020916000905b828210612bf75761092585612beb81890382613afc565b60405191829182613cac565b835486529485019460019384019390910190612bd4565b3461049c57602036600319011261049c57612c27614b55565b7ff8e1a15aba9398e019f0b49df1a4fde98ee17ae345cb5f6b5e2c27f5033e8ce760206040516004358152a1005b3461049c57604036600319011261049c57612c6e613a20565b60243590612c7b816148b9565b821015612cae5760018060a01b031660005260086020526040600020906000526020526020604060002054604051908152f35b60405163295f44f760e21b81526001600160a01b039190911660048201526024810191909152604490fd5b3461049c57606036600319011261049c576004356040612cf7613a36565b91612d00614b55565b80600052602092601884528260002091612d3260ff600a850154612d28828260a01c166143b3565b60a81c1615613db9565b612d4960078401548015908115612de657506143f5565b6000805160206159d5833981519152600f54948593612d6785614438565b600f55612d9a612d9460016006890198612d818a54614438565b809a55612d8e8986614d2f565b01613b1d565b86614bbc565b8460005260198852838260002055601a885285826000205583600052601b8852612dc78583600020613f42565b8151958652604435888701526001600160a01b031694a4604051908152f35b905060068501541087610bba565b3461049c57612e0236613c31565b906000526001602052604060002060405190612e1d82613ac6565b546001600160a01b0380821680845260a09290921c602084015291929015612e79575b612e5b612710916001600160601b0360208601511690614380565b925160408051939091166001600160a01b0316835292046020820152f35b9150612710612e5b604051612e8d81613ac6565b600054848116825260a01c602082015293915050612e40565b3461049c5760a036600319011261049c576004356024356044356064359160843580151580910361049c57600080516020615a1583398151915293608093612eec614b55565b86600052601860205260056040600020612f1060ff600a83015460a81c1615613db9565b612f1a848761435d565b612f296003830191825461435d565b905560048101612f3a84825461435d565b905501612f4883825461435d565b9055604051938452602084015260408301526060820152a2005b3461049c57610018612f7336613c77565b91613fa9565b3461049c57602036600319011261049c57600435612f95614b55565b806000526018602052600a604060002001805460ff8160a81c1661300c57612fc360ff8260b01c1615613f65565b60ff60a01b1916600160a01b1790556040805160208082526006908201526561637469766560d01b918101919091526000805160206159f583398151915290806060810161205e565b60405162461bcd60e51b815260206004820152601b60248201527f43616d706169676e207065726d616e656e746c7920636c6f73656400000000006044820152606490fd5b3461049c57604036600319011261049c576004356001600160401b03811161049c57613081903690600401613c47565b906024359161308e614b55565b60005b81811061309a57005b6001600160a01b036130b0611b50838587613ef6565b166130be575b600101613091565b9291906130cc848284613ef6565b35600052601b6020601981528460406000205584600052526040600020936000946000958154965b87811061312e575b506001939495965015613112575b5090506130b6565b61312890613121838688613ef6565b3590613f42565b8561310a565b6131388184613d35565b905461314586888a613ef6565b359160031b1c14613158576001016130f4565b509495508594506001806130fc565b3461049c5761317536613bfe565b9061317e614b55565b826000526020906018825260406000206131a260ff600a83015460a81c1615613db9565b60018091016001600160401b0385116110c2576131c9856131c38354613a8c565b83613ea0565b600085601f811160011461329357806131f892600091613288575b508160011b916000199060031b1c19161790565b90555b84600052601b83526040600020816000905b61324a575b60405185815287907fd0ed2732da48175aaae07fd675a2a78b1700515722f6675d7ff5f0e09f22f309908061205e818a018b8a613e3a565b81548110156132835790828261327b613264839585613d35565b9054613271368c8b613d82565b9160031b1c614bbc565b01909161320d565b613212565b9050850135896131e4565b50601f198616908260005286866000209260005b88878383106132e157505050106132c7575b50508185811b0190556131fb565b840135600019600388901b60f8161c1916905586806132b9565b858a0135875590950194938401938a9350016132a7565b3461049c5761330636613c31565b61330e614b55565b816000526018602052604060002061333060ff600a83015460a81c1615613db9565b811580156133bd575b1561337857600701556000805160206159f5833981519152606060405160208152600b60208201526a6d617845646974696f6e7360a81b6040820152a2005b60405162461bcd60e51b815260206004820152601a60248201527f43616e6e6f74207265647563652062656c6f77206d696e7465640000000000006044820152606490fd5b506006810154821015613339565b3461049c57600036600319011261049c5760206001600160601b0360135416604051908152f35b3461049c57600036600319011261049c576020600a54604051908152f35b602061073b61341e36613c31565b90613427614ceb565b336000526015845261344160ff6040600020541615613e5b565b610736614d0c565b3461049c577fac6d62cb5d30a7fff578060cd3dcf46ff2df7991a71c2d2aabca7e558f130f7861347836613bfe565b613483939293614b55565b6000848152600460205260409020546134a6906001600160a01b03161515613df7565b6134ba6134b4368385613d82565b85614bbc565b61205e604051928392602084526020840191613e3a565b3461049c57604036600319011261049c576004356135376134f0613bc2565b6134f8614b55565b826000526018602052600a60406000200161351a60ff825460a81c1615613db9565b805460ff60b81b191691151560b81b60ff60b81b16919091179055565b6000805160206159f583398151915260606040516020815260166020820152751a5b5b59591a585d1954185e5bdd5d115b98589b195960521b6040820152a2005b3461049c57602036600319011261049c576004356000526018602052604060002061360a6135a582613b1d565b9160ff6135b460018301613b1d565b9360028301549260038101549060048101546005820154600683015460078401549160088501549360018060a01b0396613618600a8960098a015416980154996040519e8f9e8f926101e0808552840190613a4c565b916020818403910152613a4c565b9a60408d015260608c015260808b015260a08a015260c089015260e08801526101008701526101208601528116610140850152818160a01c161515610160850152818160a81c161515610180850152818160b01c1615156101a085015260b81c1615156101c08301520390f35b3461049c57604036600319011261049c5761369e613a20565b6024356136aa81614b81565b33151580613759575b8061372c575b613714576001600160a01b039283169282918491167f8c5be1e5ebec7d5bd14f71427d1e84f3dd0314c0f7b2291e5b200ac8c7c3b925600080a4600090815260066020526040902080546001600160a01b0319169091179055005b60405163a9fbf51f60e01b8152336004820152602490fd5b5060018060a01b038116600052600760205260406000203360005260205260ff60406000205416156136b9565b506001600160a01b0381163314156136b3565b3461049c57602036600319011261049c5760043561378981614b81565b506000526006602052602060018060a01b0360406000205416604051908152f35b3461049c57600036600319011261049c576040516002546000826137cd83613a8c565b9182825260209360019085600182169182600014611ab65750506001146137fb5750611a4592500383613afc565b84915060026000527f405787fa12a823e0f2b7631cc41b3ba8828b3321ca811111fa75cd3aa3bb5ace906000915b858310613840575050611a45935082010185611a38565b80548389018501528794508693909201918101613829565b3461049c57604036600319011261049c57613871613a20565b6024356001600160601b0381169182820361049c5761388e614b55565b61271080841161392b57506001600160a01b0316918215613912577f35804d3532228d15c4fe3fa7a4fb8100c86dc285216e9c806f5d6f2cef5528399260209282846040516138dc81613ac6565b848152015260a01b6001600160a01b03191617600055601380546bffffffffffffffffffffffff191682179055604051908152a1005b604051635b6cc80560e11b815260006004820152602490fd5b8360449160405191636f483d0960e01b835260048301526024820152fd5b3461049c57600036600319011261049c576020601054604051908152f35b3461049c57602036600319011261049c576004359063ffffffff60e01b821680920361049c57602091632483248360e11b81149081156139a9575b5015158152f35b63780e9d6360e01b8114915081156139c3575b50836139a2565b6380ac58cd60e01b811491508115613a0f575b81156139e4575b50836139bc565b63152a902d60e11b8114915081156139fe575b50836139dd565b6301ffc9a760e01b149050836139f7565b635b5e139f60e01b811491506139d6565b600435906001600160a01b038216820361049c57565b602435906001600160a01b038216820361049c57565b919082519283825260005b848110613a78575050826000602080949584010152601f8019910116010190565b602081830181015184830182015201613a57565b90600182811c92168015613abc575b6020831014613aa657565b634e487b7160e01b600052602260045260246000fd5b91607f1691613a9b565b604081019081106001600160401b038211176110c257604052565b602081019081106001600160401b038211176110c257604052565b90601f801991011681019081106001600160401b038211176110c257604052565b90604051918260008254613b3081613a8c565b90818452602094600191600181169081600014613ba05750600114613b61575b505050613b5f92500383613afc565b565b600090815285812095935091905b818310613b88575050613b5f9350820101388080613b50565b85548884018501529485019487945091830191613b6f565b92505050613b5f94925060ff191682840152151560051b820101388080613b50565b60243590811515820361049c57565b9181601f8401121561049c578235916001600160401b03831161049c576020838186019501011161049c57565b90604060031983011261049c5760043591602435906001600160401b03821161049c57613c2d91600401613bd1565b9091565b604090600319011261049c576004359060243590565b9181601f8401121561049c578235916001600160401b03831161049c576020808501948460051b01011161049c57565b606090600319011261049c576001600160a01b0390600435828116810361049c5791602435908116810361049c579060443590565b602090602060408183019282815285518094520193019160005b828110613cd4575050505090565b835185529381019392810192600101613cc6565b600a54811015613d1f57600a6000527fc65a7bb8d6351c1cf70c95a316cc6a92839c986682d98bc35f958f4883f9d2a80190600090565b634e487b7160e01b600052603260045260246000fd5b8054821015613d1f5760005260206000200190600090565b606090600319011261049c57600435906024359060443590565b6001600160401b0381116110c257601f01601f191660200190565b929192613d8e82613d67565b91613d9c6040519384613afc565b82948184528183011161049c578281602093846000960137010152565b15613dc057565b60405162461bcd60e51b815260206004820152600f60248201526e10d85b5c185a59db8818db1bdcd959608a1b6044820152606490fd5b15613dfe57565b60405162461bcd60e51b8152602060048201526014602482015273151bdad95b88191bd95cc81b9bdd08195e1a5cdd60621b6044820152606490fd5b908060209392818452848401376000828201840152601f01601f1916010190565b15613e6257565b60405162461bcd60e51b81526020600482015260166024820152751059191c995cdcc81a5cc8189b1858dadb1a5cdd195960521b6044820152606490fd5b90601f8111613eae57505050565b6000916000526020600020906020601f850160051c83019410613eec575b601f0160051c01915b828110613ee157505050565b818155600101613ed5565b9092508290613ecc565b9190811015613d1f5760051b0190565b600a5490600160401b8210156110c257613f29826001613b5f9401600a55613ce8565b90919082549060031b91821b91600019901b1916179055565b90815491600160401b8310156110c25782613f29916001613b5f95018155613d35565b15613f6c57565b60405162461bcd60e51b815260206004820152601560248201527410d85b5c185a59db881dd85cc81c99599d5b991959605a1b6044820152606490fd5b6001600160a01b038281169391908415614344576000918383526004956020938785526040948486832054168015158061433c575b61423e575b5086825288815284868320541697331515806141ac575b5088158015614179575b84845260058352878420805460010190558884528a835287842080546001600160a01b0319168617905588858b7fddf252ad1be2c89b69c2b068fc378daa952ba7f163c4a11628f55a4df523b3ef8780a4156140fd57600a54888452600b83528784205561407188613f06565b8389036140ac575b50505050169081840361408d575050505050565b516364283d7b60e01b8152938401526024830152604482015260649150fd5b6140b5906148b9565b6000198101939084116140ea578291600991889452600881528383208584528152888484205588835252205538808080614079565b634e487b7160e01b835260118a52602483fd5b8884146140715761410d896148b9565b8884526009835287842054818103614142575b5088845283888120558984526008835287842090845282528287812055614071565b8a8552600884528885208286528452888520548b8652600885528986208287528552808a8720558552600984528885205538614120565b600089815260066020526040902080546001600160a01b0319169055898452600583528784208054600019019055614004565b806141fd575b156141bd5738613ffa565b878a888b6141da57916024925191637e27328960e01b8352820152fd5b5163177e802f60e01b815233918101918252602082019290925281906040010390fd5b503389148015614222575b806141b257508783526006825233868885205416146141b2565b5088835260078252868320338452825260ff8784205416614208565b6014825261425260ff888520541615614447565b8783526016825260ff87842054166143045782526015815260ff86832054166142ca578282526015815260ff868320541661428d5738613fe3565b8860649187519162461bcd60e51b83528201526018602482015277149958da5c1a595b9d081a5cc8189b1858dadb1a5cdd195960421b6044820152fd5b8860649187519162461bcd60e51b8352820152601560248201527414d95b99195c881a5cc8189b1858dadb1a5cdd1959605a1b6044820152fd5b865162461bcd60e51b8152808b018390526012602482015271151bdad95b881a5cc81cdbdd5b189bdd5b9960721b6044820152606490fd5b506001613fde565b604051633250574960e11b815260006004820152602490fd5b9190820180921161436a57565b634e487b7160e01b600052601160045260246000fd5b8181029291811591840414171561436a57565b811561439d570490565b634e487b7160e01b600052601260045260246000fd5b156143ba57565b60405162461bcd60e51b815260206004820152601360248201527243616d706169676e206e6f742061637469766560681b6044820152606490fd5b156143fc57565b60405162461bcd60e51b815260206004820152601460248201527313585e0819591a5d1a5bdb9cc81c995858da195960621b6044820152606490fd5b600019811461436a5760010190565b1561444e57565b60405162461bcd60e51b815260206004820152600f60248201526e2a37b5b2b71034b990333937bd32b760891b6044820152606490fd5b1561448c57565b60405162461bcd60e51b815260206004820152600b60248201526a2bb937b7339031b430b4b760a91b6044820152606490fd5b156144c657565b60405162461bcd60e51b815260206004820152601160248201527010d85b5c185a59db881c99599d5b991959607a1b6044820152606490fd5b1561450657565b60405162461bcd60e51b815260206004820152601060248201526f496e76616c6964207175616e7469747960801b6044820152606490fd5b1561454557565b60405162461bcd60e51b815260206004820152601460248201527345786365656473206d61782065646974696f6e7360601b6044820152606490fd5b1561458857565b60405162461bcd60e51b8152602060048201526014602482015273125b9cdd59999a58da595b9d081c185e5b595b9d60621b6044820152606490fd5b6001600160401b0381116110c25760051b60200190565b906145e5826145c4565b6145f26040519182613afc565b8281528092614603601f19916145c4565b0190602036910137565b9190820391821161436a57565b8051821015613d1f5760209160051b010190565b909160009082825260209160188352604090818120600a810161465c60ff8254610827828260a01c166143b3565b8715158061482e575b61466e906144ff565b61468960078301548015908115614816575b5098939861453e565b6146a361087b8661469e866008870154614380565b61435d565b6146ac836145db565b976146b7863461460d565b936146c28134614393565b600192906006860190848701838d8f5b87831061477457505050505050505050918160ff608096946003600080516020615a158339815191529997950161470a34825461435d565b90556005830161471b87825461435d565b90555460b81c1680614765575b15614750575061473983828961567d565b81519334855284015282015260016060820152a290565b60040161475e82825461435d565b9055614739565b5060ff60175460101c16614728565b868f92878f938695888a928f99600f898154998a95869361479485614438565b905589546147a190614438565b998a90556147af8433614d2f565b6147b890613b1d565b6147c29084614bbc565b828152601987528982822055601a87528882822055898152601b875220906147e991613f42565b6147f29161461a565b52855192835282015233936000805160206159d583398151915291a4018d8f6146d2565b90506148268a600686015461435d565b111538614680565b506032881115614665565b1561484057565b60405162461bcd60e51b8152602060048201526011602482015270125b9d985b1a59081b9bdb9c1c9bd99a5d607a1b6044820152606490fd5b1561488057565b60405162461bcd60e51b815260206004820152601160248201527024b73b30b634b21039bab136b4ba3a32b960791b6044820152606490fd5b6001600160a01b031680156148d957600052600560205260406000205490565b6040516322718ad960e21b815260006004820152602490fd5b3d1561491d573d9061490382613d67565b916149116040519384613afc565b82523d6000602084013e565b606090565b1561492957565b60405162461bcd60e51b815260206004820152600f60248201526e151c985b9cd9995c8819985a5b1959608a1b6044820152606490fd5b600081815260046020526040812054909290614986906001600160a01b03161515613df7565b81835260196020528060408420558252601b602052604082208054925b8381106149b55750613b5f9250613f42565b826149c08284613d35565b90549060031b1c146149d4576001016149a3565b50505050565b600080516020615a1583398151915260806000938385526020906018825260408581882097600a890198614a1960ff8b54610827828260a01c166143b3565b614a3060078201548015908115614b4757506143f5565b614a4161087b86600884015461435d565b60ff600f549a614a508c614438565b600f55614aaf8c876006860196614a678854614438565b809855614a748b3461460d565b98614a7f8433614d2f565b614a8e6134b460018a01613b1d565b83825260198d528083832055601a8d5288838320558152601b8c5220613f42565b60038301614abe34825461435d565b905560058301614acf88825461435d565b90555460b81c1680614b38575b15614b235750614aed84838a61567d565b8251908152348582015288886000805160206159d5833981519152853394a481519334855284015282015260016060820152a290565b600401614b3183825461435d565b9055614aed565b5060ff60175460101c16614adc565b905060068301541038610bba565b600d546001600160a01b03163303614b6957565b60405163118cdaa760e01b8152336004820152602490fd5b6000818152600460205260409020546001600160a01b0316908115614ba4575090565b60249060405190637e27328960e01b82526004820152fd5b919091600090808252602091600c835260408120908551956001600160401b038711614cd757614bf687614bf08554613a8c565b85613ea0565b8491601f8811600114614c535796614c479281927ff8e1a15aba9398e019f0b49df1a4fde98ee17ae345cb5f6b5e2c27f5033e8ce79899926118b25750508160011b916000199060031b1c19161790565b90555b604051908152a1565b9190601f198816848452868420935b818110614cc057509160019391897ff8e1a15aba9398e019f0b49df1a4fde98ee17ae345cb5f6b5e2c27f5033e8ce7999a9410614ca7575b505050811b019055614c4a565b015160001960f88460031b161c19169055388080614c9a565b929387600181928786015181550195019301614c62565b634e487b7160e01b82526041600452602482fd5b60ff600d5460a01c16614cfa57565b60405163d93c066560e01b8152600490fd5b6002600e5414614d1d576002600e55565b604051633ee5aeb560e01b8152600490fd5b6040805190614d3d82613ae1565b60008083526001600160a01b03948486169390919084156151385782825260049560209787895280868520541680151580615130575b615030575b5084845287895285842054168681159182159283614ffd575b82875260058c52888720805460010190558787528a8c5288872080546001600160a01b031916841790558783837fddf252ad1be2c89b69c2b068fc378daa952ba7f163c4a11628f55a4df523b3ef8a80a415614f7f57600a54878752600b8c5288872055614dfe87613f06565b03614f33575b614f1c573b614e17575b50505050505050565b86614e54918596979899955180938192630a85bd0160e11b97888452338d8501528760248501526044840152608060648401526084830190613a4c565b0381858a5af190829082614ed1575b5050614e9957505050614e746148f2565b80519485614e9357505051633250574960e11b81529182015260249150fd5b85925001fd5b9195506001600160e01b031990911603614ebc5750505038808080808080614e0e565b51633250574960e11b81529182015260249150fd5b909192508881813d8311614f15575b614eea8183613afc565b81010312614f115751906001600160e01b031982168203614f0e5750903880614e63565b80fd5b5080fd5b503d614ee0565b84516339e3563760e11b8152808801849052602490fd5b614f3c826148b9565b6000198101908111614f6c5787855260088a528685208186528a52858786205585855260098a5286852055614e04565b634e487b7160e01b855260118952602485fd5b808214614dfe57614f8f816148b9565b87875260098c5288872054818103614fc4575b50878752868981205581875260088c528887209087528b528588812055614dfe565b82885260088d528988208289528d528c60088b8a205491858b52528d8b8a2090838b5252808b8a2055885260098d528988205538614fa2565b600088815260066020526040902080546001600160a01b031916905581875260058c528887208054600019019055614d91565b60148a5261504460ff888720541615614447565b85855260168a5260ff87862054166150f85784526015895260ff86852054166150bd578684526015895260ff868520541661507f5738614d78565b855162461bcd60e51b81528089018a90526018602482015277149958da5c1a595b9d081a5cc8189b1858dadb1a5cdd195960421b6044820152606490fd5b855162461bcd60e51b81528089018a9052601560248201527414d95b99195c881a5cc8189b1858dadb1a5cdd1959605a1b6044820152606490fd5b865162461bcd60e51b8152808a018b90526012602482015271151bdad95b881a5cc81cdbdd5b189bdd5b9960721b6044820152606490fd5b506001614d73565b8351633250574960e11b815260048101839052602490fd5b60009080825260049160209083825260018060a01b03916040928084842054168015158061545c575b61535c575b50848352858252838320541691821592831580615329575b86835287845285832080546001600160a01b03191690558683837fddf252ad1be2c89b69c2b068fc378daa952ba7f163c4a11628f55a4df523b3ef8280a484156152a8575050600a54858252600b8352848220556151f385613f06565b600a546000199283820191821161529557600b9087845281815261521a8785205493613ce8565b90549060031b1c61522e81613f2986613ce8565b845252848220558481528084812055600a54908115615282575081019061525482613ce8565b909182549160031b1b19169055600a5561526d57505050565b51637e27328960e01b81529182015260249150fd5b634e487b7160e01b815260318752602490fd5b634e487b7160e01b835260118852602483fd5b6152b3575b506151f3565b6152bc816148b9565b9086835260098452858320548281036152f2575b50868352828681205582526008835284822090825282528084812055386152ad565b81845260088552868420838552855286842054828552600886528785208286528652808886205584526009855286842055386152d0565b600087815260066020526040902080546001600160a01b0319169055818352600584528583208054600019019055615196565b6014835261537060ff868620541615614447565b8584526016835260ff85852054166154245783526015825260ff84842054166153e9578280526015825260ff84842054166153ab573861517e565b835162461bcd60e51b81528087018390526018602482015277149958da5c1a595b9d081a5cc8189b1858dadb1a5cdd195960421b6044820152606490fd5b835162461bcd60e51b8152808701839052601560248201527414d95b99195c881a5cc8189b1858dadb1a5cdd1959605a1b6044820152606490fd5b845162461bcd60e51b81528088018490526012602482015271151bdad95b881a5cc81cdbdd5b189bdd5b9960721b6044820152606490fd5b5083615179565b60009181835260209260188452604080822061271061548861ffff6017541686614380565b04906154b582615498818861460d565b96888752601c8a528587206154ae82825461435d565b905561460d565b6154c46004830191825461435d565b9055816155db575b8461550b575b600a0154825194855295840152820181905260608201526001600160a01b0390921691600080516020615a3583398151915290608090a3565b600a810160018060a01b0390858080808a868654165af161552a6148f2565b501561559b5792859392600080516020615a35833981519152979592608097945416896000805160206159b58339815191528c868051918b83528201528061558b888201604090600981526839bab136b4ba3a32b960b91b60208201520190565b0390a392509294509294506154d2565b845162461bcd60e51b8152600481018a9052601960248201527814dd589b5a5d1d195c881d1c985b9cd9995c8819985a5b1959603a1b6044820152606490fd5b60018060a01b03848080808685601154165af16155f66148f2565b50156156395760115416866000805160206159b583398151915260808651868152878c82015260088882015267706c6174666f726d60c01b6060820152a36154cc565b835162461bcd60e51b815260048101899052601c60248201527f506c6174666f726d20666565207472616e73666572206661696c6564000000006044820152606490fd5b906000928284526020936018855260408082206127106156a361ffff6017541687614380565b04906156d7826156b78761469e838b61460d565b976156c2888261435d565b8a8852601c8c526154ae87892091825461435d565b6156e66004830191825461435d565b9055816157fa575b8561572b575b600a015482519586529685015283015260608201526001600160a01b0390921691600080516020615a3583398151915290608090a3565b600a810160018060a01b0390858080808b868654165af161574a6148f2565b50156157ba5791600080516020615a358339815191529795939160809795935416896000805160206159b58339815191528c868051918b8352820152806157aa888201604090600981526839bab136b4ba3a32b960b91b60208201520190565b0390a391939550919395506156f4565b845162461bcd60e51b8152600481018b9052601960248201527814dd589b5a5d1d195c881d1c985b9cd9995c8819985a5b1959603a1b6044820152606490fd5b60018060a01b03848080808685601154165af16158156148f2565b50156158585760115416876000805160206159b583398151915260808651868152878d82015260088882015267706c6174666f726d60c01b6060820152a36156ee565b835162461bcd60e51b8152600481018a9052601c60248201527f506c6174666f726d20666565207472616e73666572206661696c6564000000006044820152606490fd5b9190803b6158aa5750505050565b6158ec60018060a01b0380921694604051938493630a85bd0160e11b968786523360048701521660248501526044840152608060648401526084830190613a4c565b03906020816000938185885af19082908261596b575b505061593a57826159116148f2565b805191908261593357604051633250574960e11b815260048101839052602490fd5b9050602001fd5b6001600160e01b031916036159535750388080806149d4565b60249060405190633250574960e11b82526004820152fd5b909192506020813d6020116159ac575b8161598860209383613afc565b81010312614f115751906001600160e01b031982168203614f0e5750903880615902565b3d915061597b56fec5116d0bff033daa6db9b6cf401237ef4f85a0a6cbe32bfb53d189b3e6c4bad644a73422883fd5aac8dde6ef3688c62f25a4fb22e7a395bafb411ec4803ab1bd7a9a4f151cc0b6349bd7062416b8f68d1d73c3f457efc221520eb5547595d2d8f1a038a86c47446d2a26b7852348eee74e6d63d5a71792df01e40c2e6d0e1ca21459509071e134f17a163289d2286672b4e8c1af62c9cdd22eabdc6bee9217f3a264697066735822122045683ddfeacc8388eafff2f373f7f91d301f443a888ffbc66b48166d750599c964736f6c63430008180033","opcodes":"PUSH1 0xA0 CALLVALUE PUSH3 0x4CC JUMPI PUSH3 0x5F7C SWAP1 PUSH1 0x1F NOT SWAP1 PUSH1 0x1 PUSH1 0x1 PUSH1 0x40 SHL SUB PUSH1 0x1F CODESIZE DUP6 SWAP1 SUB DUP2 DUP2 ADD DUP6 AND DUP5 ADD SWAP1 DUP4 DUP3 GT DUP6 DUP4 LT OR PUSH3 0x3DE JUMPI DUP1 DUP6 SWAP2 PUSH1 0x40 SWAP9 DUP10 SWAP5 DUP6 MSTORE DUP4 CODECOPY DUP2 ADD SUB SLT PUSH3 0x4CC JUMPI DUP3 MLOAD PUSH1 0x1 PUSH1 0x1 PUSH1 0xA0 SHL SUB DUP1 DUP3 AND SWAP6 SWAP1 SWAP3 SWAP1 SWAP2 DUP7 SWAP1 SUB PUSH3 0x4CC JUMPI PUSH1 0x20 DUP1 SWAP6 ADD MLOAD SWAP4 PUSH2 0xFFFF DUP6 AND DUP1 SWAP6 SUB PUSH3 0x4CC JUMPI PUSH3 0x7F PUSH3 0x4D1 JUMP JUMPDEST SWAP3 PUSH1 0x15 DUP5 MSTORE PUSH32 0x50617472696F74506C656467652045646974696F6E0000000000000000000000 DUP8 DUP6 ADD MSTORE PUSH3 0xB3 PUSH3 0x4D1 JUMP JUMPDEST SWAP3 PUSH1 0x3 SWAP4 DUP5 DUP2 MSTORE PUSH3 0x505045 PUSH1 0xE8 SHL DUP10 DUP3 ADD MSTORE DUP6 MLOAD DUP5 DUP2 GT PUSH3 0x3DE JUMPI PUSH1 0x2 SLOAD PUSH1 0x1 SWAP8 DUP9 DUP3 DUP2 SHR SWAP3 AND DUP1 ISZERO PUSH3 0x4C1 JUMPI JUMPDEST DUP13 DUP4 LT EQ PUSH3 0x3BD JUMPI DUP12 DUP3 DUP7 DUP6 SWAP5 GT PUSH3 0x467 JUMPI JUMPDEST POP POP DUP12 SWAP1 DUP6 DUP4 GT PUSH1 0x1 EQ PUSH3 0x400 JUMPI PUSH1 0x0 SWAP3 PUSH3 0x3F4 JUMPI JUMPDEST POP POP PUSH1 0x0 NOT DUP3 DUP9 SHL SHR NOT AND SWAP1 DUP8 SHL OR PUSH1 0x2 SSTORE JUMPDEST DUP1 MLOAD SWAP4 DUP5 GT PUSH3 0x3DE JUMPI DUP5 SLOAD SWAP3 DUP7 DUP5 DUP2 SHR SWAP5 AND DUP1 ISZERO PUSH3 0x3D3 JUMPI JUMPDEST DUP11 DUP6 LT EQ PUSH3 0x3BD JUMPI DUP4 DUP4 DUP7 SWAP6 GT PUSH3 0x363 JUMPI JUMPDEST POP DUP10 SWAP3 DUP5 GT PUSH1 0x1 EQ PUSH3 0x2FF JUMPI POP PUSH1 0x0 SWAP3 PUSH3 0x2F3 JUMPI JUMPDEST POP POP PUSH1 0x0 NOT DUP3 DUP5 SHL SHR NOT AND SWAP1 DUP4 SHL OR SWAP1 SSTORE JUMPDEST CALLER ISZERO PUSH3 0x2DB JUMPI PUSH1 0xD SLOAD DUP7 MLOAD SWAP3 CALLER SWAP1 DUP3 AND PUSH32 0x8BE0079C531659141344CD1FD0A4F28419497F9722A3DAAFE3B4186F6B6457E0 PUSH1 0x0 DUP1 LOG3 PUSH1 0x1 PUSH1 0x1 PUSH1 0xA8 SHL SUB NOT AND CALLER PUSH1 0xFF PUSH1 0xA0 SHL NOT AND OR PUSH1 0xD SSTORE PUSH1 0xE SSTORE PUSH1 0x13 DUP1 SLOAD PUSH1 0x1 PUSH1 0x1 PUSH1 0x60 SHL SUB NOT AND PUSH1 0xFA OR SWAP1 SSTORE DUP4 ISZERO PUSH3 0x2A6 JUMPI POP PUSH2 0xBB8 DUP2 GT PUSH3 0x273 JUMPI PUSH1 0x11 DUP1 SLOAD PUSH1 0x1 PUSH1 0x1 PUSH1 0xA0 SHL SUB NOT AND DUP5 OR SWAP1 SSTORE CHAINID PUSH1 0x80 MSTORE PUSH1 0xFA SWAP2 SWAP1 PUSH1 0x0 DUP3 PUSH3 0x216 PUSH3 0x4D1 JUMP JUMPDEST DUP4 DUP2 MSTORE ADD MSTORE PUSH3 0xFFFFFF NOT PUSH1 0x17 SLOAD AND OR PUSH1 0x17 SSTORE PUSH3 0x232 PUSH3 0x4D1 JUMP JUMPDEST DUP4 DUP2 MSTORE ADD MSTORE PUSH1 0x7D PUSH1 0xA1 SHL OR PUSH1 0x0 SSTORE MLOAD PUSH2 0x5A8A SWAP1 DUP2 PUSH3 0x4F2 DUP3 CODECOPY PUSH1 0x80 MLOAD DUP2 DUP2 DUP2 PUSH2 0x710 ADD MSTORE DUP2 DUP2 PUSH2 0x7DB ADD MSTORE DUP2 DUP2 PUSH2 0xE2F ADD MSTORE DUP2 DUP2 PUSH2 0x1F74 ADD MSTORE PUSH2 0x28AE ADD MSTORE RETURN JUMPDEST DUP4 MLOAD PUSH3 0x461BCD PUSH1 0xE5 SHL DUP2 MSTORE PUSH1 0x4 DUP2 ADD DUP4 SWAP1 MSTORE PUSH1 0xC PUSH1 0x24 DUP3 ADD MSTORE PUSH12 0x8CCACA40E8DEDE40D0D2CED PUSH1 0xA3 SHL PUSH1 0x44 DUP3 ADD MSTORE PUSH1 0x64 SWAP1 REVERT JUMPDEST PUSH3 0x461BCD PUSH1 0xE5 SHL DUP2 MSTORE PUSH1 0x4 DUP2 ADD DUP4 SWAP1 MSTORE PUSH1 0x10 PUSH1 0x24 DUP3 ADD MSTORE PUSH16 0x496E76616C6964207472656173757279 PUSH1 0x80 SHL PUSH1 0x44 DUP3 ADD MSTORE PUSH1 0x64 SWAP1 REVERT JUMPDEST DUP6 MLOAD PUSH4 0x1E4FBDF7 PUSH1 0xE0 SHL DUP2 MSTORE PUSH1 0x0 PUSH1 0x4 DUP3 ADD MSTORE PUSH1 0x24 SWAP1 REVERT JUMPDEST ADD MLOAD SWAP1 POP CODESIZE DUP1 PUSH3 0x169 JUMP JUMPDEST DUP7 SWAP5 SWAP3 SWAP2 SWAP3 AND SWAP2 DUP6 PUSH1 0x0 MSTORE DUP10 PUSH1 0x0 KECCAK256 SWAP3 PUSH1 0x0 JUMPDEST DUP12 DUP3 DUP3 LT PUSH3 0x34C JUMPI POP POP DUP5 GT PUSH3 0x333 JUMPI JUMPDEST POP POP POP DUP2 SHL ADD SWAP1 SSTORE PUSH3 0x17B JUMP JUMPDEST ADD MLOAD PUSH1 0x0 NOT DUP4 DUP7 SHL PUSH1 0xF8 AND SHR NOT AND SWAP1 SSTORE CODESIZE DUP1 DUP1 PUSH3 0x325 JUMP JUMPDEST DUP4 DUP6 ADD MLOAD DUP7 SSTORE DUP10 SWAP8 SWAP1 SWAP6 ADD SWAP5 SWAP4 DUP5 ADD SWAP4 ADD PUSH3 0x312 JUMP JUMPDEST SWAP1 SWAP2 SWAP3 SWAP4 POP DUP6 PUSH1 0x0 MSTORE DUP10 PUSH1 0x0 KECCAK256 DUP5 DUP1 DUP8 ADD PUSH1 0x5 SHR DUP3 ADD SWAP3 DUP13 DUP9 LT PUSH3 0x3B3 JUMPI JUMPDEST SWAP2 DUP8 SWAP7 DUP11 SWAP3 SWAP7 SWAP6 SWAP5 SWAP4 ADD PUSH1 0x5 SHR ADD SWAP2 JUMPDEST DUP3 DUP2 LT PUSH3 0x3A3 JUMPI POP POP PUSH3 0x152 JUMP JUMPDEST PUSH1 0x0 DUP2 SSTORE DUP8 SWAP7 POP DUP10 SWAP2 ADD PUSH3 0x393 JUMP JUMPDEST SWAP3 POP DUP2 SWAP3 PUSH3 0x383 JUMP JUMPDEST PUSH4 0x4E487B71 PUSH1 0xE0 SHL PUSH1 0x0 MSTORE PUSH1 0x22 PUSH1 0x4 MSTORE PUSH1 0x24 PUSH1 0x0 REVERT JUMPDEST SWAP4 PUSH1 0x7F AND SWAP4 PUSH3 0x13E JUMP JUMPDEST PUSH4 0x4E487B71 PUSH1 0xE0 SHL PUSH1 0x0 MSTORE PUSH1 0x41 PUSH1 0x4 MSTORE PUSH1 0x24 PUSH1 0x0 REVERT JUMPDEST ADD MLOAD SWAP1 POP CODESIZE DUP1 PUSH3 0x110 JUMP JUMPDEST SWAP1 DUP13 SWAP2 DUP8 DUP12 SWAP6 AND PUSH1 0x2 PUSH1 0x0 MSTORE DUP4 PUSH1 0x0 KECCAK256 SWAP4 PUSH1 0x0 SWAP1 JUMPDEST DUP3 DUP3 LT PUSH3 0x44F JUMPI POP POP DUP5 GT PUSH3 0x436 JUMPI JUMPDEST POP POP POP DUP2 SHL ADD PUSH1 0x2 SSTORE PUSH3 0x123 JUMP JUMPDEST ADD MLOAD PUSH1 0x0 NOT DUP4 DUP11 SHL PUSH1 0xF8 AND SHR NOT AND SWAP1 SSTORE CODESIZE DUP1 DUP1 PUSH3 0x427 JUMP JUMPDEST DUP4 DUP6 ADD MLOAD DUP7 SSTORE DUP14 SWAP8 SWAP1 SWAP6 ADD SWAP5 SWAP4 DUP5 ADD SWAP4 ADD DUP16 PUSH3 0x415 JUMP JUMPDEST SWAP1 SWAP2 SWAP3 POP PUSH1 0x2 PUSH1 0x0 MSTORE DUP6 DUP3 PUSH1 0x0 KECCAK256 SWAP2 DUP2 DUP7 ADD PUSH1 0x5 SHR DUP4 ADD SWAP4 DUP7 LT PUSH3 0x4B7 JUMPI JUMPDEST SWAP2 DUP12 SWAP2 DUP7 SWAP6 SWAP5 SWAP4 ADD PUSH1 0x5 SHR ADD SWAP2 JUMPDEST DUP3 DUP2 LT PUSH3 0x4A7 JUMPI POP DUP14 SWAP2 POP PUSH3 0xF8 JUMP JUMPDEST PUSH1 0x0 DUP2 SSTORE DUP6 SWAP5 POP DUP12 SWAP2 ADD PUSH3 0x495 JUMP JUMPDEST SWAP3 POP DUP2 SWAP3 PUSH3 0x487 JUMP JUMPDEST SWAP2 PUSH1 0x7F AND SWAP2 PUSH3 0xE3 JUMP JUMPDEST PUSH1 0x0 DUP1 REVERT JUMPDEST PUSH1 0x40 DUP1 MLOAD SWAP2 SWAP1 DUP3 ADD PUSH1 0x1 PUSH1 0x1 PUSH1 0x40 SHL SUB DUP2 GT DUP4 DUP3 LT OR PUSH3 0x3DE JUMPI PUSH1 0x40 MSTORE JUMP INVALID PUSH1 0x80 DUP1 PUSH1 0x40 MSTORE PUSH1 0x4 CALLDATASIZE LT ISZERO PUSH2 0x1A JUMPI JUMPDEST POP CALLDATASIZE ISZERO PUSH2 0x18 JUMPI STOP JUMPDEST STOP JUMPDEST PUSH1 0x0 CALLDATALOAD PUSH1 0xE0 SHR SWAP1 DUP2 PUSH4 0x1FFC9A7 EQ PUSH2 0x3967 JUMPI POP DUP1 PUSH4 0x2932F56 EQ PUSH2 0x3949 JUMPI DUP1 PUSH4 0x4634D8D EQ PUSH2 0x3858 JUMPI DUP1 PUSH4 0x6FDDE03 EQ PUSH2 0x37AA JUMPI DUP1 PUSH4 0x81812FC EQ PUSH2 0x376C JUMPI DUP1 PUSH4 0x95EA7B3 EQ PUSH2 0x3685 JUMPI DUP1 PUSH4 0x141961BC EQ PUSH2 0x3578 JUMPI DUP1 PUSH4 0x15E5B793 EQ PUSH2 0x34D1 JUMPI DUP1 PUSH4 0x162094C4 EQ PUSH2 0x3449 JUMPI DUP1 PUSH4 0x1797C8F2 EQ PUSH2 0x3410 JUMPI DUP1 PUSH4 0x18160DDD EQ PUSH2 0x33F2 JUMPI DUP1 PUSH4 0x18D33E41 EQ PUSH2 0x33CB JUMPI DUP1 PUSH4 0x1CC76D75 EQ PUSH2 0x32F8 JUMPI DUP1 PUSH4 0x1DDA279B EQ PUSH2 0x3167 JUMPI DUP1 PUSH4 0x1E2B8983 EQ PUSH2 0x3051 JUMPI DUP1 PUSH4 0x1E5EB1D0 EQ PUSH2 0x2341 JUMPI DUP1 PUSH4 0x1FDC217C EQ PUSH2 0x2F79 JUMPI DUP1 PUSH4 0x23B872DD EQ PUSH2 0x2F62 JUMPI DUP1 PUSH4 0x25532ECD EQ PUSH2 0x2EA6 JUMPI DUP1 PUSH4 0x2A55205A EQ PUSH2 0x2DF4 JUMPI DUP1 PUSH4 0x2A76D553 EQ PUSH2 0x2CD9 JUMPI DUP1 PUSH4 0x2F745C59 EQ PUSH2 0x2C55 JUMPI DUP1 PUSH4 0x3190B9EA EQ PUSH2 0x2C0E JUMPI DUP1 PUSH4 0x3705F2A8 EQ PUSH2 0x2B95 JUMPI DUP1 PUSH4 0x3F4BA83A EQ PUSH2 0x2B23 JUMPI DUP1 PUSH4 0x407DE9DF EQ PUSH2 0x2AF2 JUMPI DUP1 PUSH4 0x42842E0E EQ PUSH2 0x2AC4 JUMPI DUP1 PUSH4 0x42966C68 EQ PUSH2 0x2A0F JUMPI DUP1 PUSH4 0x4639CFAA EQ PUSH2 0x2933 JUMPI DUP1 PUSH4 0x47C735FC EQ PUSH2 0x28D4 JUMPI DUP1 PUSH4 0x49942B0F EQ PUSH2 0x286E JUMPI DUP1 PUSH4 0x4CBDBFA9 EQ PUSH2 0x27E8 JUMPI DUP1 PUSH4 0x4D787EA9 EQ PUSH2 0x2789 JUMPI DUP1 PUSH4 0x4DB7BFFF EQ PUSH2 0x2738 JUMPI DUP1 PUSH4 0x4F6CCCE7 EQ PUSH2 0x26E2 JUMPI DUP1 PUSH4 0x5049E52F EQ PUSH2 0x26C4 JUMPI DUP1 PUSH4 0x51A0BBB2 EQ PUSH2 0x2659 JUMPI DUP1 PUSH4 0x5598F8CC EQ PUSH2 0x2569 JUMPI DUP1 PUSH4 0x573A2427 EQ PUSH2 0x253D JUMPI DUP1 PUSH4 0x57487AA5 EQ PUSH2 0x246E JUMPI DUP1 PUSH4 0x5944C753 EQ PUSH2 0x2399 JUMPI DUP1 PUSH4 0x5C975ABB EQ PUSH2 0x2373 JUMPI DUP1 PUSH4 0x5FBBC0D2 EQ PUSH2 0x2341 JUMPI DUP1 PUSH4 0x6352211E EQ PUSH2 0x2311 JUMPI DUP1 PUSH4 0x64094CED EQ PUSH2 0x226C JUMPI DUP1 PUSH4 0x6FB8696C EQ PUSH2 0x21C4 JUMPI DUP1 PUSH4 0x70A08231 EQ PUSH2 0x2199 JUMPI DUP1 PUSH4 0x715018A6 EQ PUSH2 0x213C JUMPI DUP1 PUSH4 0x7A181597 EQ PUSH2 0x210B JUMPI DUP1 PUSH4 0x7CD86D60 EQ PUSH2 0x2063 JUMPI DUP1 PUSH4 0x7ECA30FE EQ PUSH2 0x1FEE JUMPI DUP1 PUSH4 0x8079CA0C EQ PUSH2 0x1F9A JUMPI DUP1 PUSH4 0x80B2F18D EQ PUSH2 0x1F33 JUMPI DUP1 PUSH4 0x8456CB59 EQ PUSH2 0x1ED1 JUMPI DUP1 PUSH4 0x8583D7C0 EQ PUSH2 0x1D52 JUMPI DUP1 PUSH4 0x8DA5CB5B EQ PUSH2 0x1D29 JUMPI DUP1 PUSH4 0x8E20F98C EQ PUSH2 0x1BE2 JUMPI DUP1 PUSH4 0x8F52D21A EQ PUSH2 0x1AD6 JUMPI DUP1 PUSH4 0x95D89B41 EQ PUSH2 0x19F3 JUMPI DUP1 PUSH4 0x96AB0493 EQ PUSH2 0x19D4 JUMPI DUP1 PUSH4 0x9B640D43 EQ PUSH2 0x1501 JUMPI DUP1 PUSH4 0xA0A441BB EQ PUSH2 0x149B JUMPI DUP1 PUSH4 0xA22CB465 EQ PUSH2 0x13F0 JUMPI DUP1 PUSH4 0xA4830114 EQ PUSH2 0x13AA JUMPI DUP1 PUSH4 0xA591EEA1 EQ PUSH2 0x1325 JUMPI DUP1 PUSH4 0xAA1B103F EQ PUSH2 0x1306 JUMPI DUP1 PUSH4 0xB0E1C1E1 EQ PUSH2 0x12A1 JUMPI DUP1 PUSH4 0xB6358D99 EQ PUSH2 0x1275 JUMPI DUP1 PUSH4 0xB6854F96 EQ PUSH2 0x11F0 JUMPI DUP1 PUSH4 0xB88D4FDE EQ PUSH2 0x1186 JUMPI DUP1 PUSH4 0xBADB97FF EQ PUSH2 0x1104 JUMPI DUP1 PUSH4 0xC1692213 EQ PUSH2 0x10D8 JUMPI DUP1 PUSH4 0xC608E72A EQ PUSH2 0xF75 JUMPI DUP1 PUSH4 0xC87B56DD EQ PUSH2 0xF1C JUMPI DUP1 PUSH4 0xC9D5084C EQ PUSH2 0xE52 JUMPI DUP1 PUSH4 0xCD0D0096 EQ PUSH2 0xE17 JUMPI DUP1 PUSH4 0xCFDBF254 EQ PUSH2 0xDFB JUMPI DUP1 PUSH4 0xD55BE8C6 EQ PUSH2 0xDDE JUMPI DUP1 PUSH4 0xD83B4F99 EQ PUSH2 0xCF5 JUMPI DUP1 PUSH4 0xD88D6EF3 EQ PUSH2 0xB46 JUMPI DUP1 PUSH4 0xDB2E21BC EQ PUSH2 0xA97 JUMPI DUP1 PUSH4 0xDBAC26E9 EQ PUSH2 0xA58 JUMPI DUP1 PUSH4 0xE138818C EQ PUSH2 0xA2F JUMPI DUP1 PUSH4 0xE1A45218 EQ PUSH2 0xA12 JUMPI DUP1 PUSH4 0xE2EC62F9 EQ PUSH2 0x79E JUMPI DUP1 PUSH4 0xE985E9C5 EQ PUSH2 0x748 JUMPI DUP1 PUSH4 0xEB4D68FD EQ PUSH2 0x6D2 JUMPI DUP1 PUSH4 0xEB91E651 EQ PUSH2 0x666 JUMPI DUP1 PUSH4 0xF2FDE38B EQ PUSH2 0x5DD JUMPI DUP1 PUSH4 0xF3290D75 EQ PUSH2 0x56E JUMPI DUP1 PUSH4 0xF3FEF3A3 EQ PUSH2 0x4D2 JUMPI DUP1 PUSH4 0xF401F8A0 EQ PUSH2 0x4A1 JUMPI PUSH4 0xFB77211C EQ PUSH2 0x426 JUMPI CODESIZE PUSH2 0xF JUMP JUMPDEST CALLVALUE PUSH2 0x49C JUMPI PUSH2 0x434 CALLDATASIZE PUSH2 0x3C31 JUMP JUMPDEST PUSH2 0x43C PUSH2 0x4B55 JUMP JUMPDEST DUP2 PUSH1 0x0 MSTORE PUSH1 0x18 PUSH1 0x20 MSTORE PUSH1 0x8 PUSH1 0x40 PUSH1 0x0 KECCAK256 PUSH2 0x460 PUSH1 0xFF PUSH1 0xA DUP4 ADD SLOAD PUSH1 0xA8 SHR AND ISZERO PUSH2 0x3DB9 JUMP JUMPDEST ADD SSTORE PUSH1 0x0 DUP1 MLOAD PUSH1 0x20 PUSH2 0x59F5 DUP4 CODECOPY DUP2 MLOAD SWAP2 MSTORE PUSH1 0x60 PUSH1 0x40 MLOAD PUSH1 0x20 DUP2 MSTORE PUSH1 0xF PUSH1 0x20 DUP3 ADD MSTORE PUSH15 0x383934B1B2A832B922B234BA34B7B7 PUSH1 0x89 SHL PUSH1 0x40 DUP3 ADD MSTORE LOG2 STOP JUMPDEST PUSH1 0x0 DUP1 REVERT JUMPDEST CALLVALUE PUSH2 0x49C JUMPI PUSH1 0x20 CALLDATASIZE PUSH1 0x3 NOT ADD SLT PUSH2 0x49C JUMPI PUSH1 0x4 CALLDATALOAD PUSH1 0x0 MSTORE PUSH1 0x14 PUSH1 0x20 MSTORE PUSH1 0x20 PUSH1 0xFF PUSH1 0x40 PUSH1 0x0 KECCAK256 SLOAD AND PUSH1 0x40 MLOAD SWAP1 ISZERO ISZERO DUP2 MSTORE RETURN JUMPDEST CALLVALUE PUSH2 0x49C JUMPI PUSH1 0x40 CALLDATASIZE PUSH1 0x3 NOT ADD SLT PUSH2 0x49C JUMPI PUSH2 0x4EB PUSH2 0x3A20 JUMP JUMPDEST PUSH1 0x24 CALLDATALOAD PUSH2 0x4F6 PUSH2 0x4B55 JUMP JUMPDEST PUSH2 0x4FE PUSH2 0x4D0C JUMP JUMPDEST DUP1 SELFBALANCE LT PUSH2 0x532 JUMPI PUSH2 0x52B SWAP2 PUSH1 0x0 SWAP2 DUP3 SWAP2 DUP3 SWAP2 DUP3 SWAP2 PUSH1 0x1 PUSH1 0x1 PUSH1 0xA0 SHL SUB AND GAS CALL PUSH2 0x525 PUSH2 0x48F2 JUMP JUMPDEST POP PUSH2 0x4922 JUMP JUMPDEST PUSH1 0x1 PUSH1 0xE SSTORE STOP JUMPDEST PUSH1 0x40 MLOAD PUSH3 0x461BCD PUSH1 0xE5 SHL DUP2 MSTORE PUSH1 0x20 PUSH1 0x4 DUP3 ADD MSTORE PUSH1 0x14 PUSH1 0x24 DUP3 ADD MSTORE PUSH20 0x496E73756666696369656E742062616C616E6365 PUSH1 0x60 SHL PUSH1 0x44 DUP3 ADD MSTORE PUSH1 0x64 SWAP1 REVERT JUMPDEST CALLVALUE PUSH2 0x49C JUMPI PUSH1 0x20 CALLDATASIZE PUSH1 0x3 NOT ADD SLT PUSH2 0x49C JUMPI PUSH2 0x587 PUSH2 0x3A20 JUMP JUMPDEST PUSH2 0x58F PUSH2 0x4B55 JUMP JUMPDEST PUSH1 0x1 DUP1 PUSH1 0xA0 SHL SUB AND DUP1 PUSH1 0x0 MSTORE PUSH1 0x15 PUSH1 0x20 MSTORE PUSH1 0x40 PUSH1 0x0 KECCAK256 PUSH1 0x1 PUSH1 0xFF NOT DUP3 SLOAD AND OR SWAP1 SSTORE PUSH32 0x97B7AF35C8C05ECA90F543EB78B16FDF2664D3E6C9A907286F310647D9813B71 PUSH1 0x20 PUSH1 0x40 MLOAD PUSH1 0x1 DUP2 MSTORE LOG2 STOP JUMPDEST CALLVALUE PUSH2 0x49C JUMPI PUSH1 0x20 CALLDATASIZE PUSH1 0x3 NOT ADD SLT PUSH2 0x49C JUMPI PUSH2 0x5F6 PUSH2 0x3A20 JUMP JUMPDEST PUSH2 0x5FE PUSH2 0x4B55 JUMP JUMPDEST PUSH1 0x1 PUSH1 0x1 PUSH1 0xA0 SHL SUB SWAP1 DUP2 AND SWAP1 DUP2 ISZERO PUSH2 0x64D JUMPI PUSH1 0xD SLOAD DUP3 PUSH1 0x1 PUSH1 0x1 PUSH1 0x60 SHL SUB PUSH1 0xA0 SHL DUP3 AND OR PUSH1 0xD SSTORE AND PUSH32 0x8BE0079C531659141344CD1FD0A4F28419497F9722A3DAAFE3B4186F6B6457E0 PUSH1 0x0 DUP1 LOG3 STOP JUMPDEST PUSH1 0x40 MLOAD PUSH4 0x1E4FBDF7 PUSH1 0xE0 SHL DUP2 MSTORE PUSH1 0x0 PUSH1 0x4 DUP3 ADD MSTORE PUSH1 0x24 SWAP1 REVERT JUMPDEST CALLVALUE PUSH2 0x49C JUMPI PUSH1 0x20 CALLDATASIZE PUSH1 0x3 NOT ADD SLT PUSH2 0x49C JUMPI PUSH2 0x67F PUSH2 0x3A20 JUMP JUMPDEST PUSH2 0x687 PUSH2 0x4B55 JUMP JUMPDEST PUSH1 0x1 PUSH1 0x1 PUSH1 0xA0 SHL SUB AND PUSH1 0x0 DUP2 DUP2 MSTORE PUSH1 0x15 PUSH1 0x20 SWAP1 DUP2 MSTORE PUSH1 0x40 DUP1 DUP4 KECCAK256 DUP1 SLOAD PUSH1 0xFF NOT AND SWAP1 SSTORE MLOAD SWAP2 DUP3 MSTORE PUSH32 0x97B7AF35C8C05ECA90F543EB78B16FDF2664D3E6C9A907286F310647D9813B71 SWAP2 LOG2 STOP JUMPDEST PUSH1 0x20 PUSH2 0x73B PUSH2 0x6E0 CALLDATASIZE PUSH2 0x3C31 JUMP JUMPDEST SWAP1 PUSH2 0x6E9 PUSH2 0x4CEB JUMP JUMPDEST CALLER PUSH1 0x0 MSTORE PUSH1 0x15 DUP5 MSTORE PUSH2 0x703 PUSH1 0xFF PUSH1 0x40 PUSH1 0x0 KECCAK256 SLOAD AND ISZERO PUSH2 0x3E5B JUMP JUMPDEST PUSH2 0x70B PUSH2 0x4D0C JUMP JUMPDEST PUSH2 0x736 PUSH32 0x0 CHAINID EQ PUSH2 0x4485 JUMP JUMPDEST PUSH2 0x49DA JUMP JUMPDEST PUSH1 0x1 PUSH1 0xE SSTORE PUSH1 0x40 MLOAD SWAP1 DUP2 MSTORE RETURN JUMPDEST CALLVALUE PUSH2 0x49C JUMPI PUSH1 0x40 CALLDATASIZE PUSH1 0x3 NOT ADD SLT PUSH2 0x49C JUMPI PUSH2 0x761 PUSH2 0x3A20 JUMP JUMPDEST PUSH2 0x769 PUSH2 0x3A36 JUMP JUMPDEST SWAP1 PUSH1 0x1 DUP1 PUSH1 0xA0 SHL SUB DUP1 SWAP2 AND PUSH1 0x0 MSTORE PUSH1 0x7 PUSH1 0x20 MSTORE PUSH1 0x40 PUSH1 0x0 KECCAK256 SWAP2 AND PUSH1 0x0 MSTORE PUSH1 0x20 MSTORE PUSH1 0x20 PUSH1 0xFF PUSH1 0x40 PUSH1 0x0 KECCAK256 SLOAD AND PUSH1 0x40 MLOAD SWAP1 ISZERO ISZERO DUP2 MSTORE RETURN JUMPDEST PUSH2 0x7A7 CALLDATASIZE PUSH2 0x3C31 JUMP JUMPDEST PUSH2 0x7AF PUSH2 0x4CEB JUMP JUMPDEST CALLER PUSH1 0x0 MSTORE PUSH1 0x20 SWAP2 PUSH1 0x15 DUP4 MSTORE PUSH1 0xFF SWAP3 PUSH2 0x7CE DUP5 PUSH1 0x40 PUSH1 0x0 KECCAK256 SLOAD AND ISZERO PUSH2 0x3E5B JUMP JUMPDEST PUSH2 0x7D6 PUSH2 0x4D0C JUMP JUMPDEST PUSH2 0x801 PUSH32 0x0 CHAINID EQ PUSH2 0x4485 JUMP JUMPDEST DUP2 PUSH1 0x0 MSTORE PUSH1 0x18 DUP2 MSTORE PUSH1 0x40 PUSH1 0x0 KECCAK256 SWAP4 PUSH1 0xA DUP6 ADD PUSH2 0x840 DUP3 DUP3 SLOAD PUSH2 0x827 DUP3 DUP3 PUSH1 0xA0 SHR AND PUSH2 0x43B3 JUMP JUMPDEST PUSH2 0x836 DUP3 DUP3 PUSH1 0xA8 SHR AND ISZERO PUSH2 0x3DB9 JUMP JUMPDEST PUSH1 0xB0 SHR AND ISZERO PUSH2 0x44BF JUMP JUMPDEST DUP5 ISZERO ISZERO DUP1 PUSH2 0xA07 JUMPI JUMPDEST PUSH2 0x852 SWAP1 PUSH2 0x44FF JUMP JUMPDEST PUSH2 0x86A PUSH1 0x7 DUP8 ADD SLOAD DUP1 ISZERO SWAP1 DUP2 ISZERO PUSH2 0x9EF JUMPI JUMPDEST POP PUSH2 0x453E JUMP JUMPDEST PUSH2 0x883 PUSH2 0x87B DUP7 PUSH1 0x8 DUP10 ADD SLOAD PUSH2 0x4380 JUMP JUMPDEST CALLVALUE LT ISZERO PUSH2 0x4581 JUMP JUMPDEST PUSH2 0x88C DUP6 PUSH2 0x45DB JUMP JUMPDEST SWAP5 PUSH2 0x897 DUP2 CALLVALUE PUSH2 0x4393 JUMP JUMPDEST SWAP1 PUSH1 0x0 PUSH1 0x6 DUP10 ADD SWAP1 PUSH1 0x1 SWAP4 PUSH1 0x1 DUP12 ADD SWAP2 JUMPDEST DUP5 DUP2 LT PUSH2 0x94D JUMPI PUSH2 0x925 DUP12 DUP12 PUSH1 0x0 DUP1 MLOAD PUSH1 0x20 PUSH2 0x5A15 DUP4 CODECOPY DUP2 MLOAD SWAP2 MSTORE DUP16 DUP14 DUP2 DUP15 DUP1 DUP16 PUSH1 0x3 PUSH1 0x80 SWAP7 ADD PUSH2 0x8DA CALLVALUE DUP3 SLOAD PUSH2 0x435D JUMP JUMPDEST SWAP1 SSTORE SLOAD PUSH1 0xB8 SHR AND SWAP1 DUP2 PUSH2 0x93E JUMPI JUMPDEST POP ISZERO PUSH2 0x929 JUMPI POP PUSH2 0x8F9 CALLVALUE DUP6 PUSH2 0x5463 JUMP JUMPDEST PUSH1 0x40 MLOAD SWAP1 CALLVALUE DUP3 MSTORE CALLVALUE SWAP1 DUP3 ADD MSTORE PUSH1 0x0 PUSH1 0x40 DUP3 ADD MSTORE PUSH1 0x1 PUSH1 0x60 DUP3 ADD MSTORE LOG2 PUSH1 0x1 PUSH1 0xE SSTORE PUSH1 0x40 MLOAD SWAP2 DUP3 SWAP2 DUP3 PUSH2 0x3CAC JUMP JUMPDEST SUB SWAP1 RETURN JUMPDEST PUSH1 0x4 ADD PUSH2 0x937 CALLVALUE DUP3 SLOAD PUSH2 0x435D JUMP JUMPDEST SWAP1 SSTORE PUSH2 0x8F9 JUMP JUMPDEST SWAP1 POP PUSH1 0x17 SLOAD PUSH1 0x10 SHR AND DUP9 PUSH2 0x8E8 JUMP JUMPDEST DUP1 DUP5 DUP5 DUP13 PUSH2 0x9C8 DUP16 SWAP6 DUP12 SWAP7 DUP16 PUSH1 0x1B SWAP1 PUSH1 0xF SWAP6 PUSH2 0x997 PUSH2 0x991 DUP9 SLOAD SWAP10 DUP11 SWAP10 PUSH2 0x973 DUP12 PUSH2 0x4438 JUMP JUMPDEST SWAP1 SSTORE PUSH2 0x97F DUP13 SLOAD PUSH2 0x4438 JUMP JUMPDEST DUP1 SWAP13 SSTORE PUSH2 0x98C DUP11 CALLER PUSH2 0x4D2F JUMP JUMPDEST PUSH2 0x3B1D JUMP JUMPDEST DUP9 PUSH2 0x4BBC JUMP JUMPDEST DUP7 PUSH1 0x0 MSTORE PUSH1 0x19 DUP3 MSTORE DUP1 PUSH1 0x40 PUSH1 0x0 KECCAK256 SSTORE PUSH1 0x1A DUP3 MSTORE DUP9 PUSH1 0x40 PUSH1 0x0 KECCAK256 SSTORE PUSH1 0x0 MSTORE MSTORE PUSH2 0x9C3 DUP5 PUSH1 0x40 PUSH1 0x0 KECCAK256 PUSH2 0x3F42 JUMP JUMPDEST PUSH2 0x461A JUMP JUMPDEST MSTORE PUSH1 0x40 MLOAD SWAP2 DUP3 MSTORE DUP5 DUP13 DUP4 ADD MSTORE DUP13 PUSH1 0x0 DUP1 MLOAD PUSH1 0x20 PUSH2 0x59D5 DUP4 CODECOPY DUP2 MLOAD SWAP2 MSTORE PUSH1 0x40 CALLER SWAP5 LOG4 ADD PUSH2 0x8A8 JUMP JUMPDEST SWAP1 POP PUSH2 0x9FF DUP8 PUSH1 0x6 DUP11 ADD SLOAD PUSH2 0x435D JUMP JUMPDEST GT ISZERO DUP9 PUSH2 0x864 JUMP JUMPDEST POP PUSH1 0x32 DUP6 GT ISZERO PUSH2 0x849 JUMP JUMPDEST CALLVALUE PUSH2 0x49C JUMPI PUSH1 0x0 CALLDATASIZE PUSH1 0x3 NOT ADD SLT PUSH2 0x49C JUMPI PUSH1 0x20 PUSH1 0x40 MLOAD PUSH2 0x2710 DUP2 MSTORE RETURN JUMPDEST CALLVALUE PUSH2 0x49C JUMPI PUSH1 0x0 CALLDATASIZE PUSH1 0x3 NOT ADD SLT PUSH2 0x49C JUMPI PUSH1 0x11 SLOAD PUSH1 0x40 MLOAD PUSH1 0x1 PUSH1 0x1 PUSH1 0xA0 SHL SUB SWAP1 SWAP2 AND DUP2 MSTORE PUSH1 0x20 SWAP1 RETURN JUMPDEST CALLVALUE PUSH2 0x49C JUMPI PUSH1 0x20 CALLDATASIZE PUSH1 0x3 NOT ADD SLT PUSH2 0x49C JUMPI PUSH1 0x1 PUSH1 0x1 PUSH1 0xA0 SHL SUB PUSH2 0xA79 PUSH2 0x3A20 JUMP JUMPDEST AND PUSH1 0x0 MSTORE PUSH1 0x15 PUSH1 0x20 MSTORE PUSH1 0x20 PUSH1 0xFF PUSH1 0x40 PUSH1 0x0 KECCAK256 SLOAD AND PUSH1 0x40 MLOAD SWAP1 ISZERO ISZERO DUP2 MSTORE RETURN JUMPDEST CALLVALUE PUSH2 0x49C JUMPI PUSH1 0x0 CALLDATASIZE PUSH1 0x3 NOT ADD SLT PUSH2 0x49C JUMPI PUSH2 0xAB0 PUSH2 0x4B55 JUMP JUMPDEST PUSH2 0xAB8 PUSH2 0x4D0C JUMP JUMPDEST SELFBALANCE DUP1 ISZERO PUSH2 0xB14 JUMPI PUSH32 0x5FAFA99D0643513820BE26656B45130B01E1C03062E1266BF36F88CBD3BD9695 PUSH1 0x20 PUSH1 0x1 DUP1 PUSH1 0xA0 SHL SUB PUSH2 0xB01 PUSH1 0x0 DUP1 DUP1 DUP1 DUP9 DUP7 PUSH1 0x11 SLOAD AND GAS CALL PUSH2 0x525 PUSH2 0x48F2 JUMP JUMPDEST PUSH1 0x11 SLOAD AND SWAP3 PUSH1 0x40 MLOAD SWAP1 DUP2 MSTORE LOG2 PUSH1 0x1 PUSH1 0xE SSTORE STOP JUMPDEST PUSH1 0x40 MLOAD PUSH3 0x461BCD PUSH1 0xE5 SHL DUP2 MSTORE PUSH1 0x20 PUSH1 0x4 DUP3 ADD MSTORE PUSH1 0xA PUSH1 0x24 DUP3 ADD MSTORE PUSH10 0x4E6F2062616C616E6365 PUSH1 0xB0 SHL PUSH1 0x44 DUP3 ADD MSTORE PUSH1 0x64 SWAP1 REVERT JUMPDEST PUSH1 0x20 DUP1 PUSH1 0x3 NOT CALLDATASIZE ADD SLT PUSH2 0x49C JUMPI PUSH1 0x4 CALLDATALOAD PUSH2 0xB5E PUSH2 0x4CEB JUMP JUMPDEST CALLER PUSH1 0x0 MSTORE PUSH1 0x15 DUP3 MSTORE PUSH1 0xFF SWAP1 PUSH2 0xB7A DUP3 PUSH1 0x40 PUSH1 0x0 KECCAK256 SLOAD AND ISZERO PUSH2 0x3E5B JUMP JUMPDEST PUSH2 0xB82 PUSH2 0x4D0C JUMP JUMPDEST DUP1 PUSH1 0x0 MSTORE PUSH1 0x18 DUP4 MSTORE PUSH1 0x40 PUSH1 0x0 KECCAK256 PUSH1 0xA DUP2 ADD SWAP1 PUSH2 0xBA8 DUP5 DUP4 SLOAD PUSH2 0x827 DUP3 DUP3 PUSH1 0xA0 SHR AND PUSH2 0x43B3 JUMP JUMPDEST PUSH2 0xBC0 PUSH1 0x7 DUP3 ADD SLOAD DUP1 ISZERO SWAP1 DUP2 ISZERO PUSH2 0xCE7 JUMPI JUMPDEST POP PUSH2 0x43F5 JUMP JUMPDEST PUSH2 0xBD0 PUSH1 0x8 DUP3 ADD SLOAD CALLVALUE LT ISZERO PUSH2 0x4581 JUMP JUMPDEST PUSH1 0xF SLOAD SWAP4 PUSH2 0xBDD DUP6 PUSH2 0x4438 JUMP JUMPDEST PUSH1 0xF SSTORE DUP1 PUSH1 0x6 DUP4 ADD SWAP4 PUSH2 0xBF0 DUP6 SLOAD PUSH2 0x4438 JUMP JUMPDEST DUP1 SWAP6 SSTORE PUSH2 0xBFD DUP8 CALLER PUSH2 0x4D2F JUMP JUMPDEST PUSH2 0xC0C PUSH2 0x991 PUSH1 0x1 DUP7 ADD PUSH2 0x3B1D JUMP JUMPDEST DUP7 PUSH1 0x0 MSTORE PUSH1 0x19 DUP9 MSTORE DUP6 PUSH1 0x40 PUSH1 0x0 KECCAK256 SSTORE PUSH1 0x1A DUP9 MSTORE DUP5 PUSH1 0x40 PUSH1 0x0 KECCAK256 SSTORE DUP6 PUSH1 0x0 MSTORE PUSH1 0x1B DUP9 MSTORE PUSH2 0xC3C DUP8 PUSH1 0x40 PUSH1 0x0 KECCAK256 PUSH2 0x3F42 JUMP JUMPDEST PUSH1 0x3 DUP5 ADD PUSH2 0xC4B CALLVALUE DUP3 SLOAD PUSH2 0x435D JUMP JUMPDEST SWAP1 SSTORE SLOAD PUSH1 0xB8 SHR AND SWAP1 DUP2 PUSH2 0xCD8 JUMPI JUMPDEST POP ISZERO PUSH2 0xCC3 JUMPI POP PUSH2 0xC6A CALLVALUE DUP4 PUSH2 0x5463 JUMP JUMPDEST PUSH1 0x40 MLOAD SWAP1 DUP2 MSTORE CALLVALUE DUP5 DUP3 ADD MSTORE DUP3 DUP3 PUSH1 0x0 DUP1 MLOAD PUSH1 0x20 PUSH2 0x59D5 DUP4 CODECOPY DUP2 MLOAD SWAP2 MSTORE PUSH1 0x40 CALLER SWAP5 LOG4 PUSH1 0x0 DUP1 MLOAD PUSH1 0x20 PUSH2 0x5A15 DUP4 CODECOPY DUP2 MLOAD SWAP2 MSTORE PUSH1 0x80 PUSH1 0x40 MLOAD CALLVALUE DUP2 MSTORE CALLVALUE DUP7 DUP3 ADD MSTORE PUSH1 0x0 PUSH1 0x40 DUP3 ADD MSTORE PUSH1 0x1 PUSH1 0x60 DUP3 ADD MSTORE LOG2 PUSH1 0x1 PUSH1 0xE SSTORE PUSH1 0x40 MLOAD SWAP1 DUP2 MSTORE RETURN JUMPDEST PUSH1 0x4 ADD PUSH2 0xCD1 CALLVALUE DUP3 SLOAD PUSH2 0x435D JUMP JUMPDEST SWAP1 SSTORE PUSH2 0xC6A JUMP JUMPDEST SWAP1 POP PUSH1 0x17 SLOAD PUSH1 0x10 SHR AND DUP7 PUSH2 0xC59 JUMP JUMPDEST SWAP1 POP PUSH1 0x6 DUP4 ADD SLOAD LT DUP8 PUSH2 0xBBA JUMP JUMPDEST CALLVALUE PUSH2 0x49C JUMPI PUSH1 0x40 CALLDATASIZE PUSH1 0x3 NOT ADD SLT PUSH2 0x49C JUMPI PUSH1 0x4 CALLDATALOAD PUSH2 0xFFFF DUP2 AND SWAP1 DUP2 DUP2 SUB PUSH2 0x49C JUMPI PUSH2 0xD1E PUSH2 0x3BC2 JUMP JUMPDEST SWAP1 PUSH2 0xD27 PUSH2 0x4B55 JUMP JUMPDEST PUSH2 0xBB8 DUP4 GT PUSH2 0xDAA JUMPI PUSH1 0x20 PUSH32 0x910A28CCD5B8F99F5CBC7D92EF87E3F7EC688263EBA2AE9EBB65D0B327A89C00 SWAP4 PUSH1 0x40 MLOAD PUSH2 0xD60 DUP2 PUSH2 0x3AC6 JUMP JUMPDEST DUP2 DUP2 MSTORE DUP5 ISZERO ISZERO SWAP3 DUP4 SWAP2 ADD MSTORE PUSH3 0xFF0000 PUSH1 0x17 SLOAD SWAP3 PUSH1 0x10 SHL AND SWAP2 PUSH3 0xFFFFFF NOT AND OR OR PUSH1 0x17 SSTORE PUSH2 0xDA5 PUSH1 0x40 MLOAD SWAP3 DUP4 SWAP3 DUP4 SWAP1 SWAP3 SWAP2 PUSH1 0x20 SWAP1 PUSH2 0xFFFF PUSH1 0x40 DUP5 ADD SWAP6 AND DUP4 MSTORE ISZERO ISZERO SWAP2 ADD MSTORE JUMP JUMPDEST SUB SWAP1 LOG1 STOP JUMPDEST PUSH1 0x40 MLOAD PUSH3 0x461BCD PUSH1 0xE5 SHL DUP2 MSTORE PUSH1 0x20 PUSH1 0x4 DUP3 ADD MSTORE PUSH1 0xC PUSH1 0x24 DUP3 ADD MSTORE PUSH12 0x8CCACA40E8DEDE40D0D2CED PUSH1 0xA3 SHL PUSH1 0x44 DUP3 ADD MSTORE PUSH1 0x64 SWAP1 REVERT JUMPDEST CALLVALUE PUSH2 0x49C JUMPI PUSH1 0x0 CALLDATASIZE PUSH1 0x3 NOT ADD SLT PUSH2 0x49C JUMPI PUSH1 0x20 PUSH1 0x40 MLOAD PUSH2 0xBB8 DUP2 MSTORE RETURN JUMPDEST CALLVALUE PUSH2 0x49C JUMPI PUSH1 0x0 CALLDATASIZE PUSH1 0x3 NOT ADD SLT PUSH2 0x49C JUMPI PUSH1 0x20 PUSH1 0x40 MLOAD PUSH1 0x32 DUP2 MSTORE RETURN JUMPDEST CALLVALUE PUSH2 0x49C JUMPI PUSH1 0x0 CALLDATASIZE PUSH1 0x3 NOT ADD SLT PUSH2 0x49C JUMPI PUSH1 0x20 PUSH1 0x40 MLOAD PUSH32 0x0 DUP2 MSTORE RETURN JUMPDEST CALLVALUE PUSH2 0x49C JUMPI PUSH1 0x20 CALLDATASIZE PUSH1 0x3 NOT ADD SLT PUSH2 0x49C JUMPI PUSH1 0x4 CALLDATALOAD PUSH2 0xE6E PUSH2 0x4B55 JUMP JUMPDEST DUP1 PUSH1 0x0 MSTORE PUSH1 0x18 PUSH1 0x20 MSTORE PUSH1 0xA PUSH1 0x40 PUSH1 0x0 KECCAK256 ADD DUP1 SLOAD PUSH1 0xFF DUP2 PUSH1 0xA8 SHR AND ISZERO PUSH2 0xEE1 JUMPI PUSH2 0xE9D PUSH1 0xFF DUP3 PUSH1 0xB0 SHR AND ISZERO PUSH2 0x3F65 JUMP JUMPDEST PUSH1 0x1 PUSH1 0xA0 SHL SWAP1 PUSH2 0xFFFF PUSH1 0xA0 SHL NOT AND OR SWAP1 SSTORE PUSH1 0x0 DUP1 MLOAD PUSH1 0x20 PUSH2 0x59F5 DUP4 CODECOPY DUP2 MLOAD SWAP2 MSTORE PUSH1 0x60 PUSH1 0x40 MLOAD PUSH1 0x20 DUP2 MSTORE PUSH1 0x8 PUSH1 0x20 DUP3 ADD MSTORE PUSH8 0x1C995BDC195B9959 PUSH1 0xC2 SHL PUSH1 0x40 DUP3 ADD MSTORE LOG2 STOP JUMPDEST PUSH1 0x40 MLOAD PUSH3 0x461BCD PUSH1 0xE5 SHL DUP2 MSTORE PUSH1 0x20 PUSH1 0x4 DUP3 ADD MSTORE PUSH1 0x13 PUSH1 0x24 DUP3 ADD MSTORE PUSH19 0x10D85B5C185A59DB881B9BDD0818DB1BDCD959 PUSH1 0x6A SHL PUSH1 0x44 DUP3 ADD MSTORE PUSH1 0x64 SWAP1 REVERT JUMPDEST CALLVALUE PUSH2 0x49C JUMPI PUSH1 0x20 CALLDATASIZE PUSH1 0x3 NOT ADD SLT PUSH2 0x49C JUMPI PUSH1 0x4 CALLDATALOAD PUSH2 0xF39 DUP2 PUSH2 0x4B81 JUMP JUMPDEST POP PUSH1 0x0 MSTORE PUSH1 0xC PUSH1 0x20 MSTORE PUSH2 0x925 PUSH2 0xF52 PUSH1 0x40 PUSH1 0x0 KECCAK256 PUSH2 0x3B1D JUMP JUMPDEST PUSH1 0x0 PUSH1 0x40 MLOAD PUSH2 0xF60 DUP2 PUSH2 0x3AE1 JUMP JUMPDEST MSTORE PUSH1 0x40 MLOAD SWAP2 DUP3 SWAP2 PUSH1 0x20 DUP4 MSTORE PUSH1 0x20 DUP4 ADD SWAP1 PUSH2 0x3A4C JUMP JUMPDEST CALLVALUE PUSH2 0x49C JUMPI PUSH2 0xF83 CALLDATASIZE PUSH2 0x3BFE JUMP JUMPDEST PUSH2 0xF8E SWAP3 SWAP2 SWAP3 PUSH2 0x4B55 JUMP JUMPDEST DUP2 PUSH1 0x0 MSTORE PUSH1 0x20 SWAP1 PUSH1 0x18 DUP3 MSTORE PUSH1 0x40 PUSH1 0x0 KECCAK256 SWAP1 PUSH2 0xFB3 PUSH1 0xFF PUSH1 0xA DUP5 ADD SLOAD PUSH1 0xA8 SHR AND ISZERO PUSH2 0x3DB9 JUMP JUMPDEST PUSH1 0x1 PUSH1 0x1 PUSH1 0x40 SHL SUB DUP2 GT PUSH2 0x10C2 JUMPI PUSH2 0xFD5 DUP2 PUSH2 0xFCF DUP5 SLOAD PUSH2 0x3A8C JUMP JUMPDEST DUP5 PUSH2 0x3EA0 JUMP JUMPDEST PUSH1 0x0 PUSH1 0x1F DUP3 GT PUSH1 0x1 EQ PUSH2 0x1048 JUMPI DUP2 PUSH1 0x60 SWAP5 SWAP4 SWAP3 PUSH2 0x101A SWAP3 PUSH1 0x0 DUP1 MLOAD PUSH1 0x20 PUSH2 0x59F5 DUP4 CODECOPY DUP2 MLOAD SWAP2 MSTORE SWAP8 SWAP9 PUSH1 0x0 SWAP3 PUSH2 0x103D JUMPI JUMPDEST POP POP DUP2 PUSH1 0x1 SHL SWAP2 PUSH1 0x0 NOT SWAP1 PUSH1 0x3 SHL SHR NOT AND OR SWAP1 JUMP JUMPDEST SWAP1 SSTORE JUMPDEST PUSH1 0x8 PUSH1 0x40 MLOAD SWAP2 DUP1 DUP4 MSTORE DUP3 ADD MSTORE PUSH8 0x63617465676F7279 PUSH1 0xC0 SHL PUSH1 0x40 DUP3 ADD MSTORE LOG2 STOP JUMPDEST ADD CALLDATALOAD SWAP1 POP DUP9 DUP1 PUSH2 0x1005 JUMP JUMPDEST PUSH1 0x1F NOT DUP3 AND SWAP1 DUP4 PUSH1 0x0 MSTORE DUP5 PUSH1 0x0 KECCAK256 SWAP2 PUSH1 0x0 JUMPDEST DUP2 DUP2 LT PUSH2 0x10AB JUMPI POP SWAP2 PUSH1 0x0 DUP1 MLOAD PUSH1 0x20 PUSH2 0x59F5 DUP4 CODECOPY DUP2 MLOAD SWAP2 MSTORE SWAP7 SWAP8 DUP5 SWAP3 PUSH1 0x60 SWAP8 SWAP7 SWAP6 PUSH1 0x1 SWAP6 LT PUSH2 0x1091 JUMPI JUMPDEST POP POP POP DUP2 SHL ADD SWAP1 SSTORE PUSH2 0x101D JUMP JUMPDEST ADD CALLDATALOAD PUSH1 0x0 NOT PUSH1 0x3 DUP5 SWAP1 SHL PUSH1 0xF8 AND SHR NOT AND SWAP1 SSTORE DUP8 DUP1 DUP1 PUSH2 0x1084 JUMP JUMPDEST SWAP2 SWAP3 DUP7 PUSH1 0x1 DUP2 SWAP3 DUP7 DUP13 ADD CALLDATALOAD DUP2 SSTORE ADD SWAP5 ADD SWAP3 ADD PUSH2 0x105A JUMP JUMPDEST PUSH4 0x4E487B71 PUSH1 0xE0 SHL PUSH1 0x0 MSTORE PUSH1 0x41 PUSH1 0x4 MSTORE PUSH1 0x24 PUSH1 0x0 REVERT JUMPDEST CALLVALUE PUSH2 0x49C JUMPI PUSH1 0x20 CALLDATASIZE PUSH1 0x3 NOT ADD SLT PUSH2 0x49C JUMPI PUSH1 0x4 CALLDATALOAD PUSH1 0x0 MSTORE PUSH1 0x19 PUSH1 0x20 MSTORE PUSH1 0x20 PUSH1 0x40 PUSH1 0x0 KECCAK256 SLOAD PUSH1 0x40 MLOAD SWAP1 DUP2 MSTORE RETURN JUMPDEST CALLVALUE PUSH2 0x49C JUMPI PUSH1 0x20 CALLDATASIZE PUSH1 0x3 NOT ADD SLT PUSH2 0x49C JUMPI PUSH1 0x4 CALLDATALOAD PUSH2 0x1120 PUSH2 0x4B55 JUMP JUMPDEST PUSH1 0x0 DUP2 DUP2 MSTORE PUSH1 0x4 PUSH1 0x20 MSTORE PUSH1 0x40 SWAP1 KECCAK256 SLOAD PUSH1 0x1 PUSH1 0x1 PUSH1 0xA0 SHL SUB SWAP1 PUSH2 0x1145 SWAP1 DUP3 AND ISZERO ISZERO PUSH2 0x3DF7 JUMP JUMPDEST DUP2 PUSH1 0x0 MSTORE PUSH1 0x4 PUSH1 0x20 MSTORE PUSH1 0x40 PUSH1 0x0 KECCAK256 SLOAD AND SWAP1 PUSH2 0x115F DUP2 PUSH2 0x5150 JUMP JUMPDEST PUSH32 0x33631BCD0A4D34A7E2C240AB0753D5ADFB7284D8AC89DAB6876EC785C0CFA0E6 PUSH1 0x0 DUP1 LOG3 STOP JUMPDEST CALLVALUE PUSH2 0x49C JUMPI PUSH1 0x80 CALLDATASIZE PUSH1 0x3 NOT ADD SLT PUSH2 0x49C JUMPI PUSH2 0x119F PUSH2 0x3A20 JUMP JUMPDEST PUSH2 0x11A7 PUSH2 0x3A36 JUMP JUMPDEST SWAP1 PUSH1 0x44 CALLDATALOAD PUSH1 0x64 CALLDATALOAD SWAP3 PUSH1 0x1 PUSH1 0x1 PUSH1 0x40 SHL SUB DUP5 GT PUSH2 0x49C JUMPI CALLDATASIZE PUSH1 0x23 DUP6 ADD SLT ISZERO PUSH2 0x49C JUMPI PUSH2 0x11DF PUSH2 0x18 SWAP5 CALLDATASIZE SWAP1 PUSH1 0x24 DUP2 PUSH1 0x4 ADD CALLDATALOAD SWAP2 ADD PUSH2 0x3D82 JUMP JUMPDEST SWAP3 PUSH2 0x11EB DUP4 DUP4 DUP4 PUSH2 0x3FA9 JUMP JUMPDEST PUSH2 0x589C JUMP JUMPDEST CALLVALUE PUSH2 0x49C JUMPI PUSH1 0x20 CALLDATASIZE PUSH1 0x3 NOT ADD SLT PUSH2 0x49C JUMPI PUSH1 0x4 CALLDATALOAD PUSH2 0x120C PUSH2 0x4B55 JUMP JUMPDEST PUSH1 0x0 DUP2 DUP2 MSTORE PUSH1 0x4 PUSH1 0x20 MSTORE PUSH1 0x40 SWAP1 KECCAK256 SLOAD PUSH2 0x122F SWAP1 PUSH1 0x1 PUSH1 0x1 PUSH1 0xA0 SHL SUB AND ISZERO ISZERO PUSH2 0x3DF7 JUMP JUMPDEST DUP1 PUSH1 0x0 MSTORE PUSH1 0x14 PUSH1 0x20 MSTORE PUSH1 0x40 PUSH1 0x0 KECCAK256 PUSH1 0x1 PUSH1 0xFF NOT DUP3 SLOAD AND OR SWAP1 SSTORE PUSH32 0xBF025F2B09B91DC81D2B137BED7B878FB0BD75A3BFE4708D69989FDA3C63485A PUSH1 0x20 PUSH1 0x40 MLOAD PUSH1 0x1 DUP2 MSTORE LOG2 STOP JUMPDEST CALLVALUE PUSH2 0x49C JUMPI PUSH1 0x20 CALLDATASIZE PUSH1 0x3 NOT ADD SLT PUSH2 0x49C JUMPI PUSH1 0x4 CALLDATALOAD PUSH1 0x0 MSTORE PUSH1 0x1A PUSH1 0x20 MSTORE PUSH1 0x20 PUSH1 0x40 PUSH1 0x0 KECCAK256 SLOAD PUSH1 0x40 MLOAD SWAP1 DUP2 MSTORE RETURN JUMPDEST CALLVALUE PUSH2 0x49C JUMPI PUSH1 0x20 CALLDATASIZE PUSH1 0x3 NOT ADD SLT PUSH2 0x49C JUMPI PUSH1 0x4 CALLDATALOAD PUSH2 0x12BD PUSH2 0x4B55 JUMP JUMPDEST PUSH1 0x0 DUP2 DUP2 MSTORE PUSH1 0x18 PUSH1 0x20 MSTORE PUSH1 0x40 DUP2 KECCAK256 PUSH1 0xA ADD DUP1 SLOAD PUSH2 0xFFFF PUSH1 0xA0 SHL NOT AND PUSH1 0x1 PUSH1 0xA8 SHL OR SWAP1 SSTORE PUSH32 0x5E6EB33A418DE5DBBC17F989F7AE362CDFBB1748C5D603137C767027A354EDBC SWAP1 DUP1 LOG2 STOP JUMPDEST CALLVALUE PUSH2 0x49C JUMPI PUSH1 0x0 CALLDATASIZE PUSH1 0x3 NOT ADD SLT PUSH2 0x49C JUMPI PUSH2 0x131F PUSH2 0x4B55 JUMP JUMPDEST PUSH1 0x0 DUP1 SSTORE STOP JUMPDEST CALLVALUE PUSH2 0x49C JUMPI PUSH1 0x20 CALLDATASIZE PUSH1 0x3 NOT ADD SLT PUSH2 0x49C JUMPI PUSH1 0x4 CALLDATALOAD PUSH2 0x1341 PUSH2 0x4B55 JUMP JUMPDEST PUSH1 0x0 DUP2 DUP2 MSTORE PUSH1 0x4 PUSH1 0x20 MSTORE PUSH1 0x40 SWAP1 KECCAK256 SLOAD PUSH2 0x1364 SWAP1 PUSH1 0x1 PUSH1 0x1 PUSH1 0xA0 SHL SUB AND ISZERO ISZERO PUSH2 0x3DF7 JUMP JUMPDEST DUP1 PUSH1 0x0 MSTORE PUSH1 0x16 PUSH1 0x20 MSTORE PUSH1 0x40 PUSH1 0x0 KECCAK256 PUSH1 0x1 PUSH1 0xFF NOT DUP3 SLOAD AND OR SWAP1 SSTORE PUSH32 0x7FBA17392135B4084A7D689C1F6D77139E1F1C18EE4651BF32DC35AE29CE9301 PUSH1 0x20 PUSH1 0x40 MLOAD PUSH1 0x1 DUP2 MSTORE LOG2 STOP JUMPDEST CALLVALUE PUSH2 0x49C JUMPI PUSH32 0x6BD5C950A8D8DF17F772F5AF37CB3655737899CBF903264B9795592DA439661C PUSH1 0x40 PUSH2 0x13DB CALLDATASIZE PUSH2 0x3C31 JUMP JUMPDEST PUSH2 0x13E3 PUSH2 0x4B55 JUMP JUMPDEST DUP3 MLOAD SWAP2 DUP3 MSTORE PUSH1 0x20 DUP3 ADD MSTORE LOG1 STOP JUMPDEST CALLVALUE PUSH2 0x49C JUMPI PUSH1 0x40 CALLDATASIZE PUSH1 0x3 NOT ADD SLT PUSH2 0x49C JUMPI PUSH2 0x1409 PUSH2 0x3A20 JUMP JUMPDEST PUSH2 0x1411 PUSH2 0x3BC2 JUMP JUMPDEST PUSH1 0x1 PUSH1 0x1 PUSH1 0xA0 SHL SUB SWAP1 SWAP2 AND SWAP1 DUP2 ISZERO PUSH2 0x1482 JUMPI CALLER PUSH1 0x0 MSTORE PUSH1 0x7 PUSH1 0x20 MSTORE PUSH1 0x40 PUSH1 0x0 KECCAK256 DUP3 PUSH1 0x0 MSTORE PUSH1 0x20 MSTORE PUSH2 0x1452 DUP2 PUSH1 0x40 PUSH1 0x0 KECCAK256 SWAP1 PUSH1 0xFF DUP1 NOT DUP4 SLOAD AND SWAP2 ISZERO ISZERO AND OR SWAP1 SSTORE JUMP JUMPDEST PUSH1 0x40 MLOAD SWAP1 ISZERO ISZERO DUP2 MSTORE PUSH32 0x17307EAB39AB6107E8899845AD3D59BD9653F200F220920489CA2B5937696C31 PUSH1 0x20 CALLER SWAP3 LOG3 STOP JUMPDEST PUSH1 0x40 MLOAD PUSH4 0xB611743 PUSH1 0xE3 SHL DUP2 MSTORE PUSH1 0x4 DUP2 ADD DUP4 SWAP1 MSTORE PUSH1 0x24 SWAP1 REVERT JUMPDEST CALLVALUE PUSH2 0x49C JUMPI PUSH1 0x20 CALLDATASIZE PUSH1 0x3 NOT ADD SLT PUSH2 0x49C JUMPI PUSH1 0x4 CALLDATALOAD PUSH2 0x14B7 PUSH2 0x4B55 JUMP JUMPDEST PUSH1 0x0 DUP2 DUP2 MSTORE PUSH1 0x18 PUSH1 0x20 MSTORE PUSH1 0x40 DUP2 KECCAK256 PUSH1 0xA ADD DUP1 SLOAD PUSH3 0xFF00FF PUSH1 0xA0 SHL NOT AND PUSH1 0x1 PUSH1 0xB0 SHL OR SWAP1 SSTORE PUSH32 0x4825B022B52DA7A8DE8063D9EA8FD654176315FFF40077D4C0374F8E1D8A245B SWAP1 DUP1 LOG2 STOP JUMPDEST CALLVALUE PUSH2 0x49C JUMPI PUSH2 0x100 CALLDATASIZE PUSH1 0x3 NOT ADD SLT PUSH2 0x49C JUMPI PUSH1 0x4 CALLDATALOAD PUSH1 0x1 PUSH1 0x1 PUSH1 0x40 SHL SUB DUP2 GT PUSH2 0x49C JUMPI PUSH2 0x1532 SWAP1 CALLDATASIZE SWAP1 PUSH1 0x4 ADD PUSH2 0x3BD1 JUMP JUMPDEST SWAP1 PUSH1 0x24 CALLDATALOAD PUSH1 0x1 PUSH1 0x1 PUSH1 0x40 SHL SUB DUP2 GT PUSH2 0x49C JUMPI PUSH2 0x1552 SWAP1 CALLDATASIZE SWAP1 PUSH1 0x4 ADD PUSH2 0x3BD1 JUMP JUMPDEST SWAP2 PUSH1 0xA4 CALLDATALOAD SWAP2 PUSH1 0x1 PUSH1 0x1 PUSH1 0xA0 SHL SUB DUP4 AND DUP4 SUB PUSH2 0x49C JUMPI PUSH1 0xC4 CALLDATALOAD PUSH1 0x1 PUSH1 0x1 PUSH1 0xA0 SHL SUB DUP2 AND DUP2 SUB PUSH2 0x49C JUMPI PUSH1 0xE4 CALLDATALOAD SWAP3 DUP4 ISZERO ISZERO DUP5 SUB PUSH2 0x49C JUMPI PUSH2 0x158F PUSH2 0x4B55 JUMP JUMPDEST PUSH2 0x15A3 PUSH1 0x1 PUSH1 0x1 PUSH1 0xA0 SHL SUB DUP4 AND ISZERO ISZERO PUSH2 0x4879 JUMP JUMPDEST PUSH2 0x15B7 PUSH1 0x1 PUSH1 0x1 PUSH1 0xA0 SHL SUB DUP7 AND ISZERO ISZERO PUSH2 0x4839 JUMP JUMPDEST PUSH1 0x10 SLOAD SWAP6 PUSH2 0x15C4 DUP8 PUSH2 0x4438 JUMP JUMPDEST PUSH1 0x10 SSTORE PUSH1 0x40 MLOAD SWAP4 DUP5 PUSH2 0x1E0 DUP2 ADD LT PUSH1 0x1 PUSH1 0x1 PUSH1 0x40 SHL SUB PUSH2 0x1E0 DUP8 ADD GT OR PUSH2 0x10C2 JUMPI PUSH2 0x1605 SWAP2 PUSH2 0x1E0 DUP7 ADD PUSH1 0x40 MSTORE PUSH2 0x15FC CALLDATASIZE DUP12 DUP7 PUSH2 0x3D82 JUMP JUMPDEST DUP7 MSTORE CALLDATASIZE SWAP2 PUSH2 0x3D82 JUMP JUMPDEST PUSH1 0x20 DUP5 ADD MSTORE PUSH1 0x44 CALLDATALOAD PUSH1 0x40 DUP5 ADD MSTORE PUSH1 0x0 PUSH1 0x60 DUP5 ADD MSTORE PUSH1 0x0 PUSH1 0x80 DUP5 ADD MSTORE PUSH1 0x0 PUSH1 0xA0 DUP5 ADD MSTORE PUSH1 0x0 PUSH1 0xC0 DUP5 ADD MSTORE PUSH1 0x64 CALLDATALOAD PUSH1 0xE0 DUP5 ADD MSTORE PUSH1 0x84 CALLDATALOAD PUSH2 0x100 DUP5 ADD MSTORE PUSH1 0x1 DUP1 PUSH1 0xA0 SHL SUB DUP6 AND PUSH2 0x120 DUP5 ADD MSTORE PUSH1 0x1 DUP1 PUSH1 0xA0 SHL SUB DUP3 AND PUSH2 0x140 DUP5 ADD MSTORE PUSH1 0x1 PUSH2 0x160 DUP5 ADD MSTORE PUSH1 0x0 PUSH2 0x180 DUP5 ADD MSTORE PUSH1 0x0 PUSH2 0x1A0 DUP5 ADD MSTORE DUP4 ISZERO ISZERO PUSH2 0x1C0 DUP5 ADD MSTORE DUP6 PUSH1 0x0 MSTORE PUSH1 0x18 PUSH1 0x20 MSTORE PUSH1 0x40 PUSH1 0x0 KECCAK256 SWAP7 DUP4 MLOAD DUP1 MLOAD SWAP1 PUSH1 0x1 PUSH1 0x1 PUSH1 0x40 SHL SUB DUP3 GT PUSH2 0x10C2 JUMPI PUSH2 0x16B4 DUP3 PUSH2 0x16AE DUP13 SLOAD PUSH2 0x3A8C JUMP JUMPDEST DUP13 PUSH2 0x3EA0 JUMP JUMPDEST PUSH1 0x20 SWAP1 PUSH1 0x1F DUP4 GT PUSH1 0x1 EQ PUSH2 0x1968 JUMPI PUSH2 0x16E4 SWAP3 SWAP2 PUSH1 0x0 SWAP2 DUP4 PUSH2 0x195D JUMPI POP POP DUP2 PUSH1 0x1 SHL SWAP2 PUSH1 0x0 NOT SWAP1 PUSH1 0x3 SHL SHR NOT AND OR SWAP1 JUMP JUMPDEST DUP9 SSTORE JUMPDEST PUSH1 0x20 DUP5 ADD MLOAD SWAP3 DUP4 MLOAD SWAP9 PUSH1 0x1 PUSH1 0x1 PUSH1 0x40 SHL SUB DUP11 GT PUSH2 0x10C2 JUMPI DUP10 DUP10 SWAP6 PUSH2 0x171D PUSH1 0x20 SWAP13 PUSH2 0x1714 PUSH1 0x1 DUP7 ADD SLOAD PUSH2 0x3A8C JUMP JUMPDEST PUSH1 0x1 DUP7 ADD PUSH2 0x3EA0 JUMP JUMPDEST DUP12 SWAP1 PUSH1 0x1F DUP4 GT PUSH1 0x1 EQ PUSH2 0x18BD JUMPI PUSH2 0x1863 SWAP4 PUSH2 0x1779 DUP5 PUSH32 0x2B284F3763C3F60985F9293B26F40161537C0FCC0BB7250A3EB0C1CB65E849ED SWAP11 SWAP12 SWAP6 PUSH2 0x1C0 SWAP6 PUSH1 0xA SWAP6 PUSH1 0x0 SWAP3 PUSH2 0x18B2 JUMPI POP POP DUP2 PUSH1 0x1 SHL SWAP2 PUSH1 0x0 NOT SWAP1 PUSH1 0x3 SHL SHR NOT AND OR SWAP1 JUMP JUMPDEST PUSH1 0x1 DUP3 ADD SSTORE JUMPDEST PUSH1 0x40 DUP5 ADD MLOAD PUSH1 0x2 DUP3 ADD SSTORE PUSH1 0x60 DUP5 ADD MLOAD PUSH1 0x3 DUP3 ADD SSTORE PUSH1 0x80 DUP5 ADD MLOAD PUSH1 0x4 DUP3 ADD SSTORE PUSH1 0xA0 DUP1 DUP6 ADD MLOAD PUSH1 0x5 DUP4 ADD SSTORE PUSH1 0xC0 DUP6 ADD MLOAD PUSH1 0x6 DUP4 ADD SSTORE PUSH1 0xE0 DUP6 ADD MLOAD PUSH1 0x7 DUP4 ADD SSTORE PUSH2 0x100 DUP6 ADD MLOAD PUSH1 0x8 DUP4 ADD SSTORE PUSH2 0x120 DUP6 ADD MLOAD PUSH1 0x9 DUP4 ADD DUP1 SLOAD PUSH1 0x1 PUSH1 0x1 PUSH1 0xA0 SHL SUB NOT AND PUSH1 0x1 PUSH1 0x1 PUSH1 0xA0 SHL SUB SWAP3 DUP4 AND OR SWAP1 SSTORE PUSH2 0x140 DUP7 ADD MLOAD SWAP4 SWAP1 SWAP3 ADD DUP1 SLOAD PUSH2 0x160 DUP8 ADD MLOAD PUSH2 0x180 DUP9 ADD MLOAD PUSH2 0x1A0 DUP10 ADD MLOAD SWAP8 SWAP1 SWAP9 ADD MLOAD PUSH1 0x1 PUSH1 0x1 PUSH1 0xC0 SHL SUB NOT SWAP1 SWAP3 AND SWAP6 SWAP1 SWAP5 AND SWAP5 SWAP1 SWAP5 OR SWAP3 ISZERO ISZERO SWAP1 SWAP2 SHL PUSH1 0xFF PUSH1 0xA0 SHL AND SWAP2 SWAP1 SWAP2 OR SWAP4 ISZERO ISZERO PUSH1 0xA8 SHL PUSH1 0xFF PUSH1 0xA8 SHL AND SWAP4 SWAP1 SWAP4 OR SWAP2 ISZERO ISZERO PUSH1 0xB0 SHL PUSH1 0xFF PUSH1 0xB0 SHL AND SWAP2 SWAP1 SWAP2 OR SWAP1 ISZERO ISZERO PUSH1 0xB8 SHL PUSH1 0xFF PUSH1 0xB8 SHL AND OR SWAP1 SSTORE JUMP JUMPDEST PUSH2 0x187A PUSH1 0x40 MLOAD SWAP4 DUP5 SWAP4 PUSH1 0xA0 DUP6 MSTORE PUSH1 0xA0 DUP6 ADD SWAP2 PUSH2 0x3E3A JUMP JUMPDEST PUSH1 0x44 CALLDATALOAD DUP4 DUP12 ADD MSTORE PUSH1 0x64 CALLDATALOAD PUSH1 0x40 DUP5 ADD MSTORE PUSH1 0x84 CALLDATALOAD PUSH1 0x60 DUP5 ADD MSTORE SWAP6 ISZERO ISZERO PUSH1 0x80 DUP4 ADD MSTORE PUSH1 0x1 PUSH1 0x1 PUSH1 0xA0 SHL SUB SWAP1 DUP2 AND SWAP7 AND SWAP5 SUB SWAP1 LOG4 PUSH1 0x40 MLOAD SWAP1 DUP2 MSTORE RETURN JUMPDEST ADD MLOAD SWAP1 POP CODESIZE DUP1 PUSH2 0x1005 JUMP JUMPDEST SWAP8 SWAP3 SWAP2 SWAP1 PUSH1 0x1 DUP4 ADD PUSH1 0x0 MSTORE DUP13 PUSH1 0x0 KECCAK256 SWAP9 PUSH1 0x0 JUMPDEST PUSH1 0x1F NOT DUP5 AND DUP2 LT PUSH2 0x1943 JUMPI POP SWAP3 PUSH1 0x1 DUP4 PUSH32 0x2B284F3763C3F60985F9293B26F40161537C0FCC0BB7250A3EB0C1CB65E849ED SWAP11 SWAP12 PUSH1 0xA SWAP5 PUSH2 0x1863 SWAP9 SWAP8 PUSH2 0x1C0 SWAP8 PUSH1 0x1F NOT DUP2 AND LT PUSH2 0x192A JUMPI JUMPDEST POP POP POP DUP2 SHL ADD PUSH1 0x1 DUP3 ADD SSTORE PUSH2 0x177F JUMP JUMPDEST ADD MLOAD PUSH1 0x0 NOT PUSH1 0xF8 DUP5 PUSH1 0x3 SHL AND SHR NOT AND SWAP1 SSTORE CODESIZE DUP1 DUP1 PUSH2 0x191A JUMP JUMPDEST DUP3 DUP3 ADD MLOAD DUP12 SSTORE PUSH1 0x1 SWAP1 SWAP11 ADD SWAP10 DUP14 SWAP10 POP SWAP2 DUP15 ADD SWAP2 DUP15 ADD PUSH2 0x18D0 JUMP JUMPDEST ADD MLOAD SWAP1 POP DUP12 DUP1 PUSH2 0x1005 JUMP JUMPDEST SWAP2 SWAP1 DUP11 PUSH1 0x0 MSTORE PUSH1 0x20 PUSH1 0x0 KECCAK256 SWAP1 PUSH1 0x0 SWAP4 JUMPDEST PUSH1 0x1F NOT DUP5 AND DUP6 LT PUSH2 0x19B9 JUMPI PUSH1 0x1 SWAP5 POP DUP4 PUSH1 0x1F NOT DUP2 AND LT PUSH2 0x19A0 JUMPI JUMPDEST POP POP POP DUP2 SHL ADD DUP9 SSTORE PUSH2 0x16E7 JUMP JUMPDEST ADD MLOAD PUSH1 0x0 NOT PUSH1 0xF8 DUP5 PUSH1 0x3 SHL AND SHR NOT AND SWAP1 SSTORE DUP11 DUP1 DUP1 PUSH2 0x1993 JUMP JUMPDEST DUP2 DUP2 ADD MLOAD DUP4 SSTORE PUSH1 0x20 SWAP5 DUP6 ADD SWAP5 PUSH1 0x1 SWAP1 SWAP4 ADD SWAP3 SWAP1 SWAP2 ADD SWAP1 PUSH2 0x1978 JUMP JUMPDEST CALLVALUE PUSH2 0x49C JUMPI PUSH2 0x18 PUSH2 0x19E5 CALLDATASIZE PUSH2 0x3C31 JUMP JUMPDEST SWAP1 PUSH2 0x19EE PUSH2 0x4B55 JUMP JUMPDEST PUSH2 0x4960 JUMP JUMPDEST CALLVALUE PUSH2 0x49C JUMPI PUSH1 0x0 CALLDATASIZE PUSH1 0x3 NOT ADD SLT PUSH2 0x49C JUMPI PUSH1 0x40 MLOAD PUSH1 0x3 SLOAD PUSH1 0x0 DUP3 PUSH2 0x1A16 DUP4 PUSH2 0x3A8C JUMP JUMPDEST SWAP2 DUP3 DUP3 MSTORE PUSH1 0x20 SWAP4 PUSH1 0x1 SWAP1 DUP6 PUSH1 0x1 DUP3 AND SWAP2 DUP3 PUSH1 0x0 EQ PUSH2 0x1AB6 JUMPI POP POP PUSH1 0x1 EQ PUSH2 0x1A59 JUMPI JUMPDEST POP PUSH2 0x1A45 SWAP3 POP SUB DUP4 PUSH2 0x3AFC JUMP JUMPDEST PUSH2 0x925 PUSH1 0x40 MLOAD SWAP3 DUP3 DUP5 SWAP4 DUP5 MSTORE DUP4 ADD SWAP1 PUSH2 0x3A4C JUMP JUMPDEST DUP5 SWAP2 POP PUSH1 0x3 PUSH1 0x0 MSTORE PUSH32 0xC2575A0E9E593C00F959F8C92F12DB2869C3395A3B0502D05E2516446F71F85B SWAP1 PUSH1 0x0 SWAP2 JUMPDEST DUP6 DUP4 LT PUSH2 0x1A9E JUMPI POP POP PUSH2 0x1A45 SWAP4 POP DUP3 ADD ADD DUP6 PUSH2 0x1A38 JUMP JUMPDEST DUP1 SLOAD DUP4 DUP10 ADD DUP6 ADD MSTORE DUP8 SWAP5 POP DUP7 SWAP4 SWAP1 SWAP3 ADD SWAP2 DUP2 ADD PUSH2 0x1A87 JUMP JUMPDEST PUSH1 0xFF NOT AND DUP6 DUP3 ADD MSTORE PUSH2 0x1A45 SWAP6 ISZERO ISZERO PUSH1 0x5 SHL DUP6 ADD ADD SWAP3 POP DUP8 SWAP2 POP PUSH2 0x1A38 SWAP1 POP JUMP JUMPDEST CALLVALUE PUSH2 0x49C JUMPI PUSH1 0x40 CALLDATASIZE PUSH1 0x3 NOT ADD SLT PUSH2 0x49C JUMPI PUSH1 0x1 PUSH1 0x1 PUSH1 0x40 SHL SUB PUSH1 0x4 CALLDATALOAD DUP2 DUP2 GT PUSH2 0x49C JUMPI PUSH2 0x1B07 SWAP1 CALLDATASIZE SWAP1 PUSH1 0x4 ADD PUSH2 0x3C47 JUMP JUMPDEST SWAP1 SWAP2 PUSH1 0x24 CALLDATALOAD SWAP1 DUP2 GT PUSH2 0x49C JUMPI PUSH2 0x1B21 SWAP1 CALLDATASIZE SWAP1 PUSH1 0x4 ADD PUSH2 0x3BD1 JUMP JUMPDEST SWAP1 SWAP2 PUSH2 0x1B2B PUSH2 0x4B55 JUMP JUMPDEST PUSH1 0x0 JUMPDEST DUP2 DUP2 LT PUSH2 0x1B37 JUMPI STOP JUMPDEST PUSH1 0x1 SWAP1 PUSH1 0x1 PUSH1 0x1 PUSH1 0xA0 SHL SUB PUSH2 0x1B6C PUSH2 0x1B50 DUP4 DUP7 DUP11 PUSH2 0x3EF6 JUMP JUMPDEST CALLDATALOAD PUSH1 0x0 SWAP1 DUP2 MSTORE PUSH1 0x4 PUSH1 0x20 MSTORE PUSH1 0x40 SWAP1 KECCAK256 SLOAD PUSH1 0x1 PUSH1 0x1 PUSH1 0xA0 SHL SUB AND SWAP1 JUMP JUMPDEST AND PUSH2 0x1B78 JUMPI JUMPDEST ADD PUSH2 0x1B2E JUMP JUMPDEST PUSH2 0x1B98 PUSH2 0x1B86 DUP3 DUP6 DUP10 PUSH2 0x3EF6 JUMP JUMPDEST CALLDATALOAD PUSH2 0x1B92 CALLDATASIZE DUP8 DUP10 PUSH2 0x3D82 JUMP JUMPDEST SWAP1 PUSH2 0x4BBC JUMP JUMPDEST PUSH2 0x1BA3 DUP2 DUP5 DUP9 PUSH2 0x3EF6 JUMP JUMPDEST CALLDATALOAD PUSH32 0xAC6D62CB5D30A7FFF578060CD3DCF46FF2DF7991A71C2D2AABCA7E558F130F78 PUSH1 0x40 MLOAD DUP1 PUSH2 0x1BDA PUSH1 0x20 DUP1 DUP4 MSTORE DUP3 ADD DUP10 DUP12 PUSH2 0x3E3A JUMP JUMPDEST SUB SWAP1 LOG2 PUSH2 0x1B72 JUMP JUMPDEST PUSH2 0x1BEB CALLDATASIZE PUSH2 0x3C31 JUMP JUMPDEST PUSH2 0x1BF3 PUSH2 0x4CEB JUMP JUMPDEST CALLER PUSH1 0x0 MSTORE PUSH1 0x20 SWAP2 PUSH1 0x15 DUP4 MSTORE PUSH1 0xFF SWAP3 PUSH2 0x1C12 DUP5 PUSH1 0x40 PUSH1 0x0 KECCAK256 SLOAD AND ISZERO PUSH2 0x3E5B JUMP JUMPDEST PUSH2 0x1C1A PUSH2 0x4D0C JUMP JUMPDEST DUP2 PUSH1 0x0 MSTORE PUSH1 0x18 DUP2 MSTORE PUSH1 0x40 PUSH1 0x0 KECCAK256 SWAP4 PUSH1 0xA DUP6 ADD PUSH2 0x1C40 DUP3 DUP3 SLOAD PUSH2 0x827 DUP3 DUP3 PUSH1 0xA0 SHR AND PUSH2 0x43B3 JUMP JUMPDEST DUP5 ISZERO ISZERO DUP1 PUSH2 0x1D1E JUMPI JUMPDEST PUSH2 0x1C52 SWAP1 PUSH2 0x44FF JUMP JUMPDEST PUSH2 0x1C69 PUSH1 0x7 DUP8 ADD SLOAD DUP1 ISZERO SWAP1 DUP2 ISZERO PUSH2 0x9EF JUMPI POP PUSH2 0x453E JUMP JUMPDEST PUSH2 0x1C7A PUSH2 0x87B DUP7 PUSH1 0x8 DUP10 ADD SLOAD PUSH2 0x4380 JUMP JUMPDEST PUSH2 0x1C83 DUP6 PUSH2 0x45DB JUMP JUMPDEST SWAP5 PUSH2 0x1C8E DUP2 CALLVALUE PUSH2 0x4393 JUMP JUMPDEST SWAP1 PUSH1 0x0 PUSH1 0x6 DUP10 ADD SWAP1 PUSH1 0x1 SWAP4 PUSH1 0x1 DUP12 ADD SWAP2 JUMPDEST DUP5 DUP2 LT PUSH2 0x1CD1 JUMPI PUSH2 0x925 DUP12 DUP12 PUSH1 0x0 DUP1 MLOAD PUSH1 0x20 PUSH2 0x5A15 DUP4 CODECOPY DUP2 MLOAD SWAP2 MSTORE DUP16 DUP14 DUP2 DUP15 DUP1 DUP16 PUSH1 0x3 PUSH1 0x80 SWAP7 ADD PUSH2 0x8DA CALLVALUE DUP3 SLOAD PUSH2 0x435D JUMP JUMPDEST DUP1 DUP5 DUP5 DUP13 PUSH2 0x1CF7 DUP16 SWAP6 DUP12 SWAP7 DUP16 PUSH1 0x1B SWAP1 PUSH1 0xF SWAP6 PUSH2 0x997 PUSH2 0x991 DUP9 SLOAD SWAP10 DUP11 SWAP10 PUSH2 0x973 DUP12 PUSH2 0x4438 JUMP JUMPDEST MSTORE PUSH1 0x40 MLOAD SWAP2 DUP3 MSTORE DUP5 DUP13 DUP4 ADD MSTORE DUP13 PUSH1 0x0 DUP1 MLOAD PUSH1 0x20 PUSH2 0x59D5 DUP4 CODECOPY DUP2 MLOAD SWAP2 MSTORE PUSH1 0x40 CALLER SWAP5 LOG4 ADD PUSH2 0x1C9F JUMP JUMPDEST POP PUSH1 0x32 DUP6 GT ISZERO PUSH2 0x1C49 JUMP JUMPDEST CALLVALUE PUSH2 0x49C JUMPI PUSH1 0x0 CALLDATASIZE PUSH1 0x3 NOT ADD SLT PUSH2 0x49C JUMPI PUSH1 0xD SLOAD PUSH1 0x40 MLOAD PUSH1 0x1 PUSH1 0x1 PUSH1 0xA0 SHL SUB SWAP1 SWAP2 AND DUP2 MSTORE PUSH1 0x20 SWAP1 RETURN JUMPDEST CALLVALUE PUSH2 0x49C JUMPI PUSH1 0x60 CALLDATASIZE PUSH1 0x3 NOT ADD SLT PUSH2 0x49C JUMPI PUSH2 0x1D6B PUSH2 0x3A20 JUMP JUMPDEST PUSH1 0x24 CALLDATALOAD SWAP1 PUSH1 0x44 CALLDATALOAD PUSH1 0x1 PUSH1 0x1 PUSH1 0x40 SHL SUB DUP2 GT PUSH2 0x49C JUMPI PUSH2 0x1D8E SWAP1 CALLDATASIZE SWAP1 PUSH1 0x4 ADD PUSH2 0x3BD1 JUMP JUMPDEST SWAP1 SWAP2 PUSH2 0x1D98 PUSH2 0x4B55 JUMP JUMPDEST PUSH2 0x1DA0 PUSH2 0x4D0C JUMP JUMPDEST PUSH1 0x1 PUSH1 0x1 PUSH1 0xA0 SHL SUB AND SWAP3 DUP4 ISZERO PUSH2 0x1E98 JUMPI DUP1 ISZERO PUSH2 0x1E62 JUMPI PUSH1 0x12 SLOAD DUP2 DUP2 LT PUSH2 0x1E29 JUMPI PUSH32 0xD24FD04B4A509FAC28AAB0419D3841217C53A8B375B372060993DC15C350EF7F SWAP4 PUSH2 0x1DEF DUP4 PUSH2 0x1E1F SWAP4 PUSH2 0x460D JUMP JUMPDEST PUSH1 0x12 SSTORE PUSH2 0x1E06 PUSH1 0x0 DUP1 DUP1 DUP1 DUP8 DUP12 GAS CALL PUSH2 0x525 PUSH2 0x48F2 JUMP JUMPDEST PUSH1 0x40 MLOAD SWAP4 DUP5 SWAP4 DUP5 MSTORE PUSH1 0x40 PUSH1 0x20 DUP6 ADD MSTORE PUSH1 0x40 DUP5 ADD SWAP2 PUSH2 0x3E3A JUMP JUMPDEST SUB SWAP1 LOG2 PUSH1 0x1 PUSH1 0xE SSTORE STOP JUMPDEST PUSH1 0x40 MLOAD PUSH3 0x461BCD PUSH1 0xE5 SHL DUP2 MSTORE PUSH1 0x20 PUSH1 0x4 DUP3 ADD MSTORE PUSH1 0x11 PUSH1 0x24 DUP3 ADD MSTORE PUSH17 0x125B9CDD59999A58DA595B9D081C1BDBDB PUSH1 0x7A SHL PUSH1 0x44 DUP3 ADD MSTORE PUSH1 0x64 SWAP1 REVERT JUMPDEST PUSH1 0x40 MLOAD PUSH3 0x461BCD PUSH1 0xE5 SHL DUP2 MSTORE PUSH1 0x20 PUSH1 0x4 DUP3 ADD MSTORE PUSH1 0xE PUSH1 0x24 DUP3 ADD MSTORE PUSH14 0x125B9D985B1A5908185B5BDD5B9D PUSH1 0x92 SHL PUSH1 0x44 DUP3 ADD MSTORE PUSH1 0x64 SWAP1 REVERT JUMPDEST PUSH1 0x40 MLOAD PUSH3 0x461BCD PUSH1 0xE5 SHL DUP2 MSTORE PUSH1 0x20 PUSH1 0x4 DUP3 ADD MSTORE PUSH1 0x11 PUSH1 0x24 DUP3 ADD MSTORE PUSH17 0x125B9D985B1A59081C9958DA5C1A595B9D PUSH1 0x7A SHL PUSH1 0x44 DUP3 ADD MSTORE PUSH1 0x64 SWAP1 REVERT JUMPDEST CALLVALUE PUSH2 0x49C JUMPI PUSH1 0x0 CALLDATASIZE PUSH1 0x3 NOT ADD SLT PUSH2 0x49C JUMPI PUSH2 0x1EEA PUSH2 0x4B55 JUMP JUMPDEST PUSH2 0x1EF2 PUSH2 0x4CEB JUMP JUMPDEST PUSH1 0xD DUP1 SLOAD PUSH1 0xFF PUSH1 0xA0 SHL NOT AND PUSH1 0x1 PUSH1 0xA0 SHL OR SWAP1 SSTORE PUSH1 0x40 MLOAD CALLER DUP2 MSTORE PUSH32 0x62E78CEA01BEE320CD4E420270B5EA74000D11B0C9F74754EBDBFC544B05A258 SWAP1 PUSH1 0x20 SWAP1 LOG1 STOP JUMPDEST PUSH1 0x20 DUP1 PUSH1 0x3 NOT CALLDATASIZE ADD SLT PUSH2 0x49C JUMPI PUSH1 0x4 CALLDATALOAD PUSH2 0x1F4B PUSH2 0x4CEB JUMP JUMPDEST CALLER PUSH1 0x0 MSTORE PUSH1 0x15 DUP3 MSTORE PUSH1 0xFF SWAP1 PUSH2 0x1F67 DUP3 PUSH1 0x40 PUSH1 0x0 KECCAK256 SLOAD AND ISZERO PUSH2 0x3E5B JUMP JUMPDEST PUSH2 0x1F6F PUSH2 0x4D0C JUMP JUMPDEST PUSH2 0xB82 PUSH32 0x0 CHAINID EQ PUSH2 0x4485 JUMP JUMPDEST CALLVALUE PUSH2 0x49C JUMPI PUSH1 0x20 CALLDATASIZE PUSH1 0x3 NOT ADD SLT PUSH2 0x49C JUMPI PUSH1 0x4 CALLDATALOAD PUSH1 0x0 MSTORE PUSH1 0x19 PUSH1 0x20 MSTORE PUSH1 0x60 PUSH1 0x40 PUSH1 0x0 KECCAK256 SLOAD PUSH1 0x1A PUSH1 0x20 MSTORE PUSH1 0x40 PUSH1 0x0 KECCAK256 SLOAD DUP2 PUSH1 0x0 MSTORE PUSH1 0x18 PUSH1 0x20 MSTORE PUSH1 0x6 PUSH1 0x40 PUSH1 0x0 KECCAK256 ADD SLOAD SWAP1 PUSH1 0x40 MLOAD SWAP3 DUP4 MSTORE PUSH1 0x20 DUP4 ADD MSTORE PUSH1 0x40 DUP3 ADD MSTORE RETURN JUMPDEST CALLVALUE PUSH2 0x49C JUMPI PUSH1 0x20 CALLDATASIZE PUSH1 0x3 NOT ADD SLT PUSH2 0x49C JUMPI PUSH1 0x4 CALLDATALOAD PUSH2 0x200A PUSH2 0x4B55 JUMP JUMPDEST DUP1 PUSH1 0x0 MSTORE PUSH1 0x18 PUSH1 0x20 MSTORE PUSH1 0xA PUSH1 0x40 PUSH1 0x0 KECCAK256 ADD PUSH1 0xFF PUSH1 0xA0 SHL NOT DUP2 SLOAD AND SWAP1 SSTORE PUSH1 0x0 DUP1 MLOAD PUSH1 0x20 PUSH2 0x59F5 DUP4 CODECOPY DUP2 MLOAD SWAP2 MSTORE PUSH1 0x40 MLOAD DUP1 PUSH2 0x205E DUP2 PUSH1 0x60 SWAP1 PUSH1 0x20 DUP2 MSTORE PUSH1 0x6 PUSH1 0x20 DUP3 ADD MSTORE PUSH6 0x616374697665 PUSH1 0xD0 SHL PUSH1 0x40 DUP3 ADD MSTORE ADD SWAP1 JUMP JUMPDEST SUB SWAP1 LOG2 STOP JUMPDEST CALLVALUE PUSH2 0x49C JUMPI PUSH1 0x20 CALLDATASIZE PUSH1 0x3 NOT ADD SLT PUSH2 0x49C JUMPI PUSH2 0x207C PUSH2 0x3A20 JUMP JUMPDEST PUSH2 0x2084 PUSH2 0x4B55 JUMP JUMPDEST PUSH1 0x1 PUSH1 0x1 PUSH1 0xA0 SHL SUB SWAP1 DUP2 AND SWAP1 DUP2 ISZERO PUSH2 0x20D3 JUMPI PUSH1 0x11 SLOAD DUP3 PUSH1 0x1 PUSH1 0x1 PUSH1 0x60 SHL SUB PUSH1 0xA0 SHL DUP3 AND OR PUSH1 0x11 SSTORE AND PUSH32 0x4AB5BE82436D353E61CA18726E984E561F5C1CC7C6D38B29D2553C790434705A PUSH1 0x0 DUP1 LOG3 STOP JUMPDEST PUSH1 0x40 MLOAD PUSH3 0x461BCD PUSH1 0xE5 SHL DUP2 MSTORE PUSH1 0x20 PUSH1 0x4 DUP3 ADD MSTORE PUSH1 0x10 PUSH1 0x24 DUP3 ADD MSTORE PUSH16 0x496E76616C6964207472656173757279 PUSH1 0x80 SHL PUSH1 0x44 DUP3 ADD MSTORE PUSH1 0x64 SWAP1 REVERT JUMPDEST CALLVALUE PUSH2 0x49C JUMPI PUSH1 0x20 CALLDATASIZE PUSH1 0x3 NOT ADD SLT PUSH2 0x49C JUMPI PUSH1 0x4 CALLDATALOAD PUSH1 0x0 MSTORE PUSH1 0x16 PUSH1 0x20 MSTORE PUSH1 0x20 PUSH1 0xFF PUSH1 0x40 PUSH1 0x0 KECCAK256 SLOAD AND PUSH1 0x40 MLOAD SWAP1 ISZERO ISZERO DUP2 MSTORE RETURN JUMPDEST CALLVALUE PUSH2 0x49C JUMPI PUSH1 0x0 CALLDATASIZE PUSH1 0x3 NOT ADD SLT PUSH2 0x49C JUMPI PUSH2 0x2155 PUSH2 0x4B55 JUMP JUMPDEST PUSH1 0xD DUP1 SLOAD PUSH1 0x1 PUSH1 0x1 PUSH1 0xA0 SHL SUB NOT DUP2 AND SWAP1 SWAP2 SSTORE PUSH1 0x0 SWAP1 PUSH1 0x1 PUSH1 0x1 PUSH1 0xA0 SHL SUB AND PUSH32 0x8BE0079C531659141344CD1FD0A4F28419497F9722A3DAAFE3B4186F6B6457E0 DUP3 DUP1 LOG3 STOP JUMPDEST CALLVALUE PUSH2 0x49C JUMPI PUSH1 0x20 CALLDATASIZE PUSH1 0x3 NOT ADD SLT PUSH2 0x49C JUMPI PUSH1 0x20 PUSH2 0x21BC PUSH2 0x21B7 PUSH2 0x3A20 JUMP JUMPDEST PUSH2 0x48B9 JUMP JUMPDEST PUSH1 0x40 MLOAD SWAP1 DUP2 MSTORE RETURN JUMPDEST CALLVALUE PUSH2 0x49C JUMPI PUSH1 0x40 CALLDATASIZE PUSH1 0x3 NOT ADD SLT PUSH2 0x49C JUMPI PUSH1 0x4 CALLDATALOAD PUSH2 0x21E0 PUSH2 0x3A36 JUMP JUMPDEST PUSH2 0x21E8 PUSH2 0x4B55 JUMP JUMPDEST DUP2 PUSH1 0x0 MSTORE PUSH1 0x18 PUSH1 0x20 MSTORE PUSH1 0xA PUSH1 0x40 PUSH1 0x0 KECCAK256 ADD SWAP1 DUP2 SLOAD SWAP1 PUSH2 0x220D PUSH1 0xFF DUP4 PUSH1 0xA8 SHR AND ISZERO PUSH2 0x3DB9 JUMP JUMPDEST PUSH1 0x1 PUSH1 0x1 PUSH1 0xA0 SHL SUB AND SWAP1 PUSH2 0x2222 DUP3 ISZERO ISZERO PUSH2 0x4879 JUMP JUMPDEST PUSH1 0x1 PUSH1 0x1 PUSH1 0x60 SHL SUB PUSH1 0xA0 SHL AND OR SWAP1 SSTORE PUSH1 0x0 DUP1 MLOAD PUSH1 0x20 PUSH2 0x59F5 DUP4 CODECOPY DUP2 MLOAD SWAP2 MSTORE PUSH1 0x40 MLOAD PUSH1 0x20 DUP2 MSTORE DUP1 PUSH2 0x205E PUSH1 0x20 DUP3 ADD PUSH1 0x40 SWAP1 PUSH1 0x9 DUP2 MSTORE PUSH9 0x39BAB136B4BA3A32B9 PUSH1 0xB9 SHL PUSH1 0x20 DUP3 ADD MSTORE ADD SWAP1 JUMP JUMPDEST CALLVALUE PUSH2 0x49C JUMPI PUSH1 0x40 CALLDATASIZE PUSH1 0x3 NOT ADD SLT PUSH2 0x49C JUMPI PUSH1 0x4 CALLDATALOAD PUSH2 0x2288 PUSH2 0x3A36 JUMP JUMPDEST PUSH2 0x2290 PUSH2 0x4B55 JUMP JUMPDEST DUP2 PUSH1 0x0 MSTORE PUSH1 0x18 PUSH1 0x20 MSTORE PUSH1 0x9 PUSH1 0x40 PUSH1 0x0 KECCAK256 SWAP2 PUSH2 0x22B5 PUSH1 0xFF PUSH1 0xA DUP6 ADD SLOAD PUSH1 0xA8 SHR AND ISZERO PUSH2 0x3DB9 JUMP JUMPDEST PUSH1 0x1 PUSH1 0x1 PUSH1 0xA0 SHL SUB AND SWAP2 PUSH2 0x22CA DUP4 ISZERO ISZERO PUSH2 0x4839 JUMP JUMPDEST ADD SWAP1 PUSH1 0x1 PUSH1 0x1 PUSH1 0x60 SHL SUB PUSH1 0xA0 SHL DUP3 SLOAD AND OR SWAP1 SSTORE PUSH1 0x0 DUP1 MLOAD PUSH1 0x20 PUSH2 0x59F5 DUP4 CODECOPY DUP2 MLOAD SWAP2 MSTORE PUSH1 0x60 PUSH1 0x40 MLOAD PUSH1 0x20 DUP2 MSTORE PUSH1 0x9 PUSH1 0x20 DUP3 ADD MSTORE PUSH9 0x1B9BDB9C1C9BD99A5D PUSH1 0xBA SHL PUSH1 0x40 DUP3 ADD MSTORE LOG2 STOP JUMPDEST CALLVALUE PUSH2 0x49C JUMPI PUSH1 0x20 CALLDATASIZE PUSH1 0x3 NOT ADD SLT PUSH2 0x49C JUMPI PUSH1 0x20 PUSH2 0x232F PUSH1 0x4 CALLDATALOAD PUSH2 0x4B81 JUMP JUMPDEST PUSH1 0x40 MLOAD PUSH1 0x1 PUSH1 0x1 PUSH1 0xA0 SHL SUB SWAP1 SWAP2 AND DUP2 MSTORE RETURN JUMPDEST CALLVALUE PUSH2 0x49C JUMPI PUSH1 0x0 CALLDATASIZE PUSH1 0x3 NOT ADD SLT PUSH2 0x49C JUMPI PUSH1 0x17 SLOAD PUSH1 0x40 DUP1 MLOAD PUSH2 0xFFFF DUP4 AND DUP2 MSTORE PUSH1 0x10 SWAP3 SWAP1 SWAP3 SHR PUSH1 0xFF AND ISZERO ISZERO PUSH1 0x20 DUP4 ADD MSTORE SWAP1 RETURN JUMPDEST CALLVALUE PUSH2 0x49C JUMPI PUSH1 0x0 CALLDATASIZE PUSH1 0x3 NOT ADD SLT PUSH2 0x49C JUMPI PUSH1 0x20 PUSH1 0xFF PUSH1 0xD SLOAD PUSH1 0xA0 SHR AND PUSH1 0x40 MLOAD SWAP1 ISZERO ISZERO DUP2 MSTORE RETURN JUMPDEST CALLVALUE PUSH2 0x49C JUMPI PUSH1 0x60 CALLDATASIZE PUSH1 0x3 NOT ADD SLT PUSH2 0x49C JUMPI PUSH1 0x4 CALLDATALOAD PUSH2 0x23B5 PUSH2 0x3A36 JUMP JUMPDEST PUSH1 0x44 CALLDATALOAD SWAP1 PUSH1 0x1 PUSH1 0x1 PUSH1 0x60 SHL SUB DUP3 AND DUP1 SWAP3 SUB PUSH2 0x49C JUMPI PUSH2 0x23D2 PUSH2 0x4B55 JUMP JUMPDEST PUSH2 0x2710 DUP1 DUP4 GT PUSH2 0x244A JUMPI POP PUSH1 0x1 PUSH1 0x1 PUSH1 0xA0 SHL SUB SWAP1 DUP2 AND SWAP3 DUP4 ISZERO PUSH2 0x242B JUMPI PUSH1 0x40 MLOAD SWAP4 PUSH2 0x23FC DUP6 PUSH2 0x3AC6 JUMP JUMPDEST DUP5 MSTORE PUSH1 0x20 DUP1 DUP6 ADD SWAP4 DUP5 MSTORE PUSH1 0x0 SWAP2 DUP3 MSTORE PUSH1 0x1 SWAP1 MSTORE PUSH1 0x40 SWAP1 KECCAK256 SWAP3 MLOAD SWAP2 MLOAD PUSH1 0xA0 SHL PUSH1 0x1 PUSH1 0x1 PUSH1 0xA0 SHL SUB NOT AND SWAP2 AND OR SWAP1 SSTORE STOP JUMPDEST PUSH1 0x44 SWAP1 PUSH1 0x40 MLOAD SWAP1 PUSH4 0x4B4F8429 PUSH1 0xE1 SHL DUP3 MSTORE PUSH1 0x4 DUP3 ADD MSTORE PUSH1 0x0 PUSH1 0x24 DUP3 ADD MSTORE REVERT JUMPDEST DUP4 PUSH1 0x64 SWAP2 DUP5 PUSH1 0x40 MLOAD SWAP3 PUSH4 0xDFD1FC1B PUSH1 0xE0 SHL DUP5 MSTORE PUSH1 0x4 DUP5 ADD MSTORE PUSH1 0x24 DUP4 ADD MSTORE PUSH1 0x44 DUP3 ADD MSTORE REVERT JUMPDEST CALLVALUE PUSH2 0x49C JUMPI PUSH1 0x20 CALLDATASIZE PUSH1 0x3 NOT ADD SLT PUSH2 0x49C JUMPI PUSH1 0x4 CALLDATALOAD PUSH2 0x248A PUSH2 0x4B55 JUMP JUMPDEST PUSH2 0x2492 PUSH2 0x4D0C JUMP JUMPDEST DUP1 PUSH1 0x0 MSTORE PUSH1 0x18 PUSH1 0x20 MSTORE PUSH1 0x4 PUSH1 0x40 PUSH1 0x0 KECCAK256 ADD SWAP1 DUP2 SLOAD SWAP1 DUP2 ISZERO PUSH2 0x2505 JUMPI DUP2 SELFBALANCE LT PUSH2 0x24C0 JUMPI PUSH1 0x0 PUSH2 0x52B SWAP4 SSTORE PUSH2 0x5463 JUMP JUMPDEST PUSH1 0x40 MLOAD PUSH3 0x461BCD PUSH1 0xE5 SHL DUP2 MSTORE PUSH1 0x20 PUSH1 0x4 DUP3 ADD MSTORE PUSH1 0x1D PUSH1 0x24 DUP3 ADD MSTORE PUSH32 0x496E73756666696369656E7420636F6E74726163742062616C616E6365000000 PUSH1 0x44 DUP3 ADD MSTORE PUSH1 0x64 SWAP1 REVERT JUMPDEST PUSH1 0x40 MLOAD PUSH3 0x461BCD PUSH1 0xE5 SHL DUP2 MSTORE PUSH1 0x20 PUSH1 0x4 DUP3 ADD MSTORE PUSH1 0x10 PUSH1 0x24 DUP3 ADD MSTORE PUSH16 0x4E6F2070656E64696E672066756E6473 PUSH1 0x80 SHL PUSH1 0x44 DUP3 ADD MSTORE PUSH1 0x64 SWAP1 REVERT JUMPDEST CALLVALUE PUSH2 0x49C JUMPI PUSH1 0x20 CALLDATASIZE PUSH1 0x3 NOT ADD SLT PUSH2 0x49C JUMPI PUSH1 0x4 CALLDATALOAD PUSH1 0x0 MSTORE PUSH1 0x1C PUSH1 0x20 MSTORE PUSH1 0x20 PUSH1 0x40 PUSH1 0x0 KECCAK256 SLOAD PUSH1 0x40 MLOAD SWAP1 DUP2 MSTORE RETURN JUMPDEST CALLVALUE PUSH2 0x49C JUMPI PUSH1 0x20 CALLDATASIZE PUSH1 0x3 NOT ADD SLT PUSH2 0x49C JUMPI PUSH1 0x4 CALLDATALOAD PUSH1 0x0 MSTORE PUSH1 0x18 PUSH1 0x20 MSTORE PUSH2 0x25F2 PUSH1 0x40 PUSH1 0x0 KECCAK256 PUSH1 0x2 DUP2 ADD SLOAD PUSH1 0xFF DUP3 PUSH1 0x3 DUP2 ADD SLOAD PUSH1 0x4 DUP3 ADD SLOAD SWAP1 PUSH1 0x6 DUP4 ADD SLOAD PUSH1 0x7 DUP5 ADD SLOAD PUSH1 0x8 DUP6 ADD SLOAD SWAP2 PUSH1 0x1 DUP1 PUSH1 0xA0 SHL SUB SWAP5 DUP6 PUSH1 0x9 DUP9 ADD SLOAD AND SWAP5 PUSH2 0x2600 PUSH2 0x25DD PUSH1 0x1 PUSH2 0x25D6 PUSH1 0xA DUP13 ADD SLOAD SWAP12 PUSH2 0x3B1D JUMP JUMPDEST SWAP14 ADD PUSH2 0x3B1D JUMP JUMPDEST PUSH1 0x40 MLOAD SWAP14 DUP15 SWAP14 DUP15 PUSH2 0x1A0 SWAP1 DUP2 DUP2 MSTORE ADD SWAP1 PUSH2 0x3A4C JUMP JUMPDEST DUP14 DUP2 SUB PUSH1 0x20 DUP16 ADD MSTORE SWAP1 PUSH2 0x3A4C JUMP JUMPDEST SWAP10 PUSH1 0x40 DUP13 ADD MSTORE PUSH1 0x60 DUP12 ADD MSTORE PUSH1 0x80 DUP11 ADD MSTORE PUSH1 0xA0 DUP10 ADD MSTORE PUSH1 0xC0 DUP9 ADD MSTORE PUSH1 0xE0 DUP8 ADD MSTORE PUSH2 0x100 DUP7 ADD MSTORE DUP2 AND PUSH2 0x120 DUP6 ADD MSTORE DUP2 DUP2 PUSH1 0xA0 SHR AND ISZERO ISZERO PUSH2 0x140 DUP6 ADD MSTORE DUP2 DUP2 PUSH1 0xA8 SHR AND ISZERO ISZERO PUSH2 0x160 DUP6 ADD MSTORE PUSH1 0xB8 SHR AND ISZERO ISZERO PUSH2 0x180 DUP4 ADD MSTORE SUB SWAP1 RETURN JUMPDEST CALLVALUE PUSH2 0x49C JUMPI PUSH2 0x2667 CALLDATASIZE PUSH2 0x3C31 JUMP JUMPDEST PUSH2 0x266F PUSH2 0x4B55 JUMP JUMPDEST DUP2 PUSH1 0x0 MSTORE PUSH1 0x18 PUSH1 0x20 MSTORE PUSH1 0x2 PUSH1 0x40 PUSH1 0x0 KECCAK256 PUSH2 0x2693 PUSH1 0xFF PUSH1 0xA DUP4 ADD SLOAD PUSH1 0xA8 SHR AND ISZERO PUSH2 0x3DB9 JUMP JUMPDEST ADD SSTORE PUSH1 0x0 DUP1 MLOAD PUSH1 0x20 PUSH2 0x59F5 DUP4 CODECOPY DUP2 MLOAD SWAP2 MSTORE PUSH1 0x60 PUSH1 0x40 MLOAD PUSH1 0x20 DUP2 MSTORE PUSH1 0x4 PUSH1 0x20 DUP3 ADD MSTORE PUSH4 0x19DBD85B PUSH1 0xE2 SHL PUSH1 0x40 DUP3 ADD MSTORE LOG2 STOP JUMPDEST CALLVALUE PUSH2 0x49C JUMPI PUSH1 0x0 CALLDATASIZE PUSH1 0x3 NOT ADD SLT PUSH2 0x49C JUMPI PUSH1 0x20 PUSH1 0x12 SLOAD PUSH1 0x40 MLOAD SWAP1 DUP2 MSTORE RETURN JUMPDEST CALLVALUE PUSH2 0x49C JUMPI PUSH1 0x20 CALLDATASIZE PUSH1 0x3 NOT ADD SLT PUSH2 0x49C JUMPI PUSH1 0x4 CALLDATALOAD PUSH1 0xA SLOAD DUP2 LT ISZERO PUSH2 0x2719 JUMPI PUSH2 0x270B PUSH1 0x20 SWAP2 PUSH2 0x3CE8 JUMP JUMPDEST SWAP1 SLOAD PUSH1 0x40 MLOAD SWAP2 PUSH1 0x3 SHL SHR DUP2 MSTORE RETURN JUMPDEST PUSH1 0x44 SWAP1 PUSH1 0x40 MLOAD SWAP1 PUSH4 0x295F44F7 PUSH1 0xE2 SHL DUP3 MSTORE PUSH1 0x0 PUSH1 0x4 DUP4 ADD MSTORE PUSH1 0x24 DUP3 ADD MSTORE REVERT JUMPDEST PUSH2 0x925 PUSH2 0x2778 PUSH2 0x2747 CALLDATASIZE PUSH2 0x3D4D JUMP JUMPDEST SWAP2 PUSH2 0x2750 PUSH2 0x4CEB JUMP JUMPDEST CALLER PUSH1 0x0 MSTORE PUSH1 0x15 PUSH1 0x20 MSTORE PUSH2 0x276B PUSH1 0xFF PUSH1 0x40 PUSH1 0x0 KECCAK256 SLOAD AND ISZERO PUSH2 0x3E5B JUMP JUMPDEST PUSH2 0x2773 PUSH2 0x4D0C JUMP JUMPDEST PUSH2 0x462E JUMP JUMPDEST PUSH1 0x1 PUSH1 0xE SSTORE PUSH1 0x40 MLOAD SWAP2 DUP3 SWAP2 DUP3 PUSH2 0x3CAC JUMP JUMPDEST CALLVALUE PUSH2 0x49C JUMPI PUSH1 0x20 CALLDATASIZE PUSH1 0x3 NOT ADD SLT PUSH2 0x49C JUMPI PUSH1 0x4 CALLDATALOAD PUSH2 0x27A5 PUSH2 0x4B55 JUMP JUMPDEST DUP1 PUSH1 0x0 MSTORE PUSH1 0x14 PUSH1 0x20 MSTORE PUSH1 0x40 PUSH1 0x0 KECCAK256 PUSH1 0xFF NOT DUP2 SLOAD AND SWAP1 SSTORE PUSH32 0xBF025F2B09B91DC81D2B137BED7B878FB0BD75A3BFE4708D69989FDA3C63485A PUSH1 0x20 PUSH1 0x40 MLOAD PUSH1 0x0 DUP2 MSTORE LOG2 STOP JUMPDEST PUSH1 0x0 CALLDATASIZE PUSH1 0x3 NOT ADD SLT PUSH2 0x49C JUMPI CALLVALUE ISZERO PUSH2 0x2837 JUMPI PUSH2 0x2806 CALLVALUE PUSH1 0x12 SLOAD PUSH2 0x435D JUMP JUMPDEST PUSH1 0x12 SSTORE PUSH1 0x40 MLOAD CALLVALUE DUP2 MSTORE PUSH32 0x1DA5CC6515D0BF0B6FB40CEDCD4EF3EB9A5B820440278EFC9321A4491B5DD1EF PUSH1 0x20 CALLER SWAP3 LOG2 STOP JUMPDEST PUSH1 0x40 MLOAD PUSH3 0x461BCD PUSH1 0xE5 SHL DUP2 MSTORE PUSH1 0x20 PUSH1 0x4 DUP3 ADD MSTORE PUSH1 0xF PUSH1 0x24 DUP3 ADD MSTORE PUSH15 0x4D7573742073656E642066756E6473 PUSH1 0x88 SHL PUSH1 0x44 DUP3 ADD MSTORE PUSH1 0x64 SWAP1 REVERT JUMPDEST PUSH2 0x925 PUSH2 0x2778 PUSH2 0x287D CALLDATASIZE PUSH2 0x3D4D JUMP JUMPDEST SWAP2 PUSH2 0x2886 PUSH2 0x4CEB JUMP JUMPDEST CALLER PUSH1 0x0 MSTORE PUSH1 0x15 PUSH1 0x20 MSTORE PUSH2 0x28A1 PUSH1 0xFF PUSH1 0x40 PUSH1 0x0 KECCAK256 SLOAD AND ISZERO PUSH2 0x3E5B JUMP JUMPDEST PUSH2 0x28A9 PUSH2 0x4D0C JUMP JUMPDEST PUSH2 0x2773 PUSH32 0x0 CHAINID EQ PUSH2 0x4485 JUMP JUMPDEST CALLVALUE PUSH2 0x49C JUMPI PUSH1 0x20 CALLDATASIZE PUSH1 0x3 NOT ADD SLT PUSH2 0x49C JUMPI PUSH1 0x4 CALLDATALOAD PUSH2 0x28F0 PUSH2 0x4B55 JUMP JUMPDEST DUP1 PUSH1 0x0 MSTORE PUSH1 0x16 PUSH1 0x20 MSTORE PUSH1 0x40 PUSH1 0x0 KECCAK256 PUSH1 0xFF NOT DUP2 SLOAD AND SWAP1 SSTORE PUSH32 0x7FBA17392135B4084A7D689C1F6D77139E1F1C18EE4651BF32DC35AE29CE9301 PUSH1 0x20 PUSH1 0x40 MLOAD PUSH1 0x0 DUP2 MSTORE LOG2 STOP JUMPDEST CALLVALUE PUSH2 0x49C JUMPI PUSH1 0x40 CALLDATASIZE PUSH1 0x3 NOT ADD SLT PUSH2 0x49C JUMPI PUSH1 0x4 CALLDATALOAD PUSH1 0x1 PUSH1 0x1 PUSH1 0x40 SHL SUB DUP2 GT PUSH2 0x49C JUMPI PUSH2 0x2963 SWAP1 CALLDATASIZE SWAP1 PUSH1 0x4 ADD PUSH2 0x3C47 JUMP JUMPDEST PUSH2 0x296B PUSH2 0x3BC2 JUMP JUMPDEST PUSH2 0x2973 PUSH2 0x4B55 JUMP JUMPDEST PUSH1 0x0 JUMPDEST DUP3 DUP2 LT PUSH2 0x297F JUMPI STOP JUMPDEST PUSH1 0x1 SWAP1 PUSH1 0x1 PUSH1 0x1 PUSH1 0xA0 SHL SUB PUSH2 0x2998 PUSH2 0x1B50 DUP4 DUP8 DUP10 PUSH2 0x3EF6 JUMP JUMPDEST AND PUSH2 0x29A4 JUMPI JUMPDEST ADD PUSH2 0x2976 JUMP JUMPDEST PUSH2 0x29AF DUP2 DUP6 DUP8 PUSH2 0x3EF6 JUMP JUMPDEST CALLDATALOAD PUSH1 0x0 MSTORE PUSH1 0x20 PUSH1 0x14 DUP2 MSTORE PUSH2 0x29D3 DUP5 PUSH1 0x40 PUSH1 0x0 KECCAK256 SWAP1 PUSH1 0xFF DUP1 NOT DUP4 SLOAD AND SWAP2 ISZERO ISZERO AND OR SWAP1 SSTORE JUMP JUMPDEST PUSH32 0xBF025F2B09B91DC81D2B137BED7B878FB0BD75A3BFE4708D69989FDA3C63485A PUSH2 0x29FF DUP4 DUP8 DUP10 PUSH2 0x3EF6 JUMP JUMPDEST CALLDATALOAD SWAP2 PUSH1 0x40 MLOAD DUP7 ISZERO ISZERO DUP2 MSTORE LOG2 PUSH2 0x299E JUMP JUMPDEST CALLVALUE PUSH2 0x49C JUMPI PUSH1 0x20 CALLDATASIZE PUSH1 0x3 NOT ADD SLT PUSH2 0x49C JUMPI PUSH1 0x4 CALLDATALOAD DUP1 PUSH1 0x0 MSTORE PUSH1 0x4 PUSH1 0x20 MSTORE PUSH1 0x1 DUP1 PUSH1 0xA0 SHL SUB PUSH1 0x40 PUSH1 0x0 KECCAK256 SLOAD AND CALLER SUB PUSH2 0x2A8D JUMPI DUP1 PUSH1 0x0 MSTORE PUSH1 0x14 PUSH1 0x20 MSTORE PUSH2 0x2A5B PUSH1 0xFF PUSH1 0x40 PUSH1 0x0 KECCAK256 SLOAD AND ISZERO PUSH2 0x4447 JUMP JUMPDEST PUSH2 0x2A64 DUP2 PUSH2 0x5150 JUMP JUMPDEST CALLER SWAP1 PUSH32 0x33631BCD0A4D34A7E2C240AB0753D5ADFB7284D8AC89DAB6876EC785C0CFA0E6 PUSH1 0x0 DUP1 LOG3 STOP JUMPDEST PUSH1 0x40 MLOAD PUSH3 0x461BCD PUSH1 0xE5 SHL DUP2 MSTORE PUSH1 0x20 PUSH1 0x4 DUP3 ADD MSTORE PUSH1 0xF PUSH1 0x24 DUP3 ADD MSTORE PUSH15 0x2737BA103A37B5B2B71037BBB732B9 PUSH1 0x89 SHL PUSH1 0x44 DUP3 ADD MSTORE PUSH1 0x64 SWAP1 REVERT JUMPDEST CALLVALUE PUSH2 0x49C JUMPI PUSH2 0x18 PUSH2 0x2AD5 CALLDATASIZE PUSH2 0x3C77 JUMP JUMPDEST SWAP1 PUSH1 0x40 MLOAD SWAP3 PUSH2 0x2AE3 DUP5 PUSH2 0x3AE1 JUMP JUMPDEST PUSH1 0x0 DUP5 MSTORE PUSH2 0x11EB DUP4 DUP4 DUP4 PUSH2 0x3FA9 JUMP JUMPDEST CALLVALUE PUSH2 0x49C JUMPI PUSH2 0x2B00 CALLDATASIZE PUSH2 0x3C31 JUMP JUMPDEST SWAP1 PUSH1 0x0 MSTORE PUSH1 0x1B PUSH1 0x20 MSTORE PUSH1 0x40 PUSH1 0x0 KECCAK256 DUP1 SLOAD DUP3 LT ISZERO PUSH2 0x49C JUMPI PUSH1 0x20 SWAP2 PUSH2 0x270B SWAP2 PUSH2 0x3D35 JUMP JUMPDEST CALLVALUE PUSH2 0x49C JUMPI PUSH1 0x0 CALLDATASIZE PUSH1 0x3 NOT ADD SLT PUSH2 0x49C JUMPI PUSH2 0x2B3C PUSH2 0x4B55 JUMP JUMPDEST PUSH1 0xD SLOAD PUSH1 0xFF DUP2 PUSH1 0xA0 SHR AND ISZERO PUSH2 0x2B83 JUMPI PUSH1 0xFF PUSH1 0xA0 SHL NOT AND PUSH1 0xD SSTORE PUSH1 0x40 MLOAD CALLER DUP2 MSTORE PUSH32 0x5DB9EE0A495BF2E6FF9C91A7834C1BA4FDD244A5E8AA4E537BD38AEAE4B073AA SWAP1 PUSH1 0x20 SWAP1 LOG1 STOP JUMPDEST PUSH1 0x40 MLOAD PUSH4 0x8DFC202B PUSH1 0xE0 SHL DUP2 MSTORE PUSH1 0x4 SWAP1 REVERT JUMPDEST CALLVALUE PUSH2 0x49C JUMPI PUSH1 0x20 DUP1 PUSH1 0x3 NOT CALLDATASIZE ADD SLT PUSH2 0x49C JUMPI PUSH1 0x4 CALLDATALOAD PUSH1 0x0 MSTORE PUSH1 0x1B PUSH1 0x20 MSTORE PUSH1 0x40 PUSH1 0x0 KECCAK256 SWAP1 PUSH1 0x40 MLOAD SWAP1 DUP2 PUSH1 0x20 DUP5 SLOAD SWAP2 DUP3 DUP2 MSTORE ADD SWAP4 PUSH1 0x0 MSTORE PUSH1 0x20 PUSH1 0x0 KECCAK256 SWAP2 PUSH1 0x0 SWAP1 JUMPDEST DUP3 DUP3 LT PUSH2 0x2BF7 JUMPI PUSH2 0x925 DUP6 PUSH2 0x2BEB DUP2 DUP10 SUB DUP3 PUSH2 0x3AFC JUMP JUMPDEST PUSH1 0x40 MLOAD SWAP2 DUP3 SWAP2 DUP3 PUSH2 0x3CAC JUMP JUMPDEST DUP4 SLOAD DUP7 MSTORE SWAP5 DUP6 ADD SWAP5 PUSH1 0x1 SWAP4 DUP5 ADD SWAP4 SWAP1 SWAP2 ADD SWAP1 PUSH2 0x2BD4 JUMP JUMPDEST CALLVALUE PUSH2 0x49C JUMPI PUSH1 0x20 CALLDATASIZE PUSH1 0x3 NOT ADD SLT PUSH2 0x49C JUMPI PUSH2 0x2C27 PUSH2 0x4B55 JUMP JUMPDEST PUSH32 0xF8E1A15ABA9398E019F0B49DF1A4FDE98EE17AE345CB5F6B5E2C27F5033E8CE7 PUSH1 0x20 PUSH1 0x40 MLOAD PUSH1 0x4 CALLDATALOAD DUP2 MSTORE LOG1 STOP JUMPDEST CALLVALUE PUSH2 0x49C JUMPI PUSH1 0x40 CALLDATASIZE PUSH1 0x3 NOT ADD SLT PUSH2 0x49C JUMPI PUSH2 0x2C6E PUSH2 0x3A20 JUMP JUMPDEST PUSH1 0x24 CALLDATALOAD SWAP1 PUSH2 0x2C7B DUP2 PUSH2 0x48B9 JUMP JUMPDEST DUP3 LT ISZERO PUSH2 0x2CAE JUMPI PUSH1 0x1 DUP1 PUSH1 0xA0 SHL SUB AND PUSH1 0x0 MSTORE PUSH1 0x8 PUSH1 0x20 MSTORE PUSH1 0x40 PUSH1 0x0 KECCAK256 SWAP1 PUSH1 0x0 MSTORE PUSH1 0x20 MSTORE PUSH1 0x20 PUSH1 0x40 PUSH1 0x0 KECCAK256 SLOAD PUSH1 0x40 MLOAD SWAP1 DUP2 MSTORE RETURN JUMPDEST PUSH1 0x40 MLOAD PUSH4 0x295F44F7 PUSH1 0xE2 SHL DUP2 MSTORE PUSH1 0x1 PUSH1 0x1 PUSH1 0xA0 SHL SUB SWAP2 SWAP1 SWAP2 AND PUSH1 0x4 DUP3 ADD MSTORE PUSH1 0x24 DUP2 ADD SWAP2 SWAP1 SWAP2 MSTORE PUSH1 0x44 SWAP1 REVERT JUMPDEST CALLVALUE PUSH2 0x49C JUMPI PUSH1 0x60 CALLDATASIZE PUSH1 0x3 NOT ADD SLT PUSH2 0x49C JUMPI PUSH1 0x4 CALLDATALOAD PUSH1 0x40 PUSH2 0x2CF7 PUSH2 0x3A36 JUMP JUMPDEST SWAP2 PUSH2 0x2D00 PUSH2 0x4B55 JUMP JUMPDEST DUP1 PUSH1 0x0 MSTORE PUSH1 0x20 SWAP3 PUSH1 0x18 DUP5 MSTORE DUP3 PUSH1 0x0 KECCAK256 SWAP2 PUSH2 0x2D32 PUSH1 0xFF PUSH1 0xA DUP6 ADD SLOAD PUSH2 0x2D28 DUP3 DUP3 PUSH1 0xA0 SHR AND PUSH2 0x43B3 JUMP JUMPDEST PUSH1 0xA8 SHR AND ISZERO PUSH2 0x3DB9 JUMP JUMPDEST PUSH2 0x2D49 PUSH1 0x7 DUP5 ADD SLOAD DUP1 ISZERO SWAP1 DUP2 ISZERO PUSH2 0x2DE6 JUMPI POP PUSH2 0x43F5 JUMP JUMPDEST PUSH1 0x0 DUP1 MLOAD PUSH1 0x20 PUSH2 0x59D5 DUP4 CODECOPY DUP2 MLOAD SWAP2 MSTORE PUSH1 0xF SLOAD SWAP5 DUP6 SWAP4 PUSH2 0x2D67 DUP6 PUSH2 0x4438 JUMP JUMPDEST PUSH1 0xF SSTORE PUSH2 0x2D9A PUSH2 0x2D94 PUSH1 0x1 PUSH1 0x6 DUP10 ADD SWAP9 PUSH2 0x2D81 DUP11 SLOAD PUSH2 0x4438 JUMP JUMPDEST DUP1 SWAP11 SSTORE PUSH2 0x2D8E DUP10 DUP7 PUSH2 0x4D2F JUMP JUMPDEST ADD PUSH2 0x3B1D JUMP JUMPDEST DUP7 PUSH2 0x4BBC JUMP JUMPDEST DUP5 PUSH1 0x0 MSTORE PUSH1 0x19 DUP9 MSTORE DUP4 DUP3 PUSH1 0x0 KECCAK256 SSTORE PUSH1 0x1A DUP9 MSTORE DUP6 DUP3 PUSH1 0x0 KECCAK256 SSTORE DUP4 PUSH1 0x0 MSTORE PUSH1 0x1B DUP9 MSTORE PUSH2 0x2DC7 DUP6 DUP4 PUSH1 0x0 KECCAK256 PUSH2 0x3F42 JUMP JUMPDEST DUP2 MLOAD SWAP6 DUP7 MSTORE PUSH1 0x44 CALLDATALOAD DUP9 DUP8 ADD MSTORE PUSH1 0x1 PUSH1 0x1 PUSH1 0xA0 SHL SUB AND SWAP5 LOG4 PUSH1 0x40 MLOAD SWAP1 DUP2 MSTORE RETURN JUMPDEST SWAP1 POP PUSH1 0x6 DUP6 ADD SLOAD LT DUP8 PUSH2 0xBBA JUMP JUMPDEST CALLVALUE PUSH2 0x49C JUMPI PUSH2 0x2E02 CALLDATASIZE PUSH2 0x3C31 JUMP JUMPDEST SWAP1 PUSH1 0x0 MSTORE PUSH1 0x1 PUSH1 0x20 MSTORE PUSH1 0x40 PUSH1 0x0 KECCAK256 PUSH1 0x40 MLOAD SWAP1 PUSH2 0x2E1D DUP3 PUSH2 0x3AC6 JUMP JUMPDEST SLOAD PUSH1 0x1 PUSH1 0x1 PUSH1 0xA0 SHL SUB DUP1 DUP3 AND DUP1 DUP5 MSTORE PUSH1 0xA0 SWAP3 SWAP1 SWAP3 SHR PUSH1 0x20 DUP5 ADD MSTORE SWAP2 SWAP3 SWAP1 ISZERO PUSH2 0x2E79 JUMPI JUMPDEST PUSH2 0x2E5B PUSH2 0x2710 SWAP2 PUSH1 0x1 PUSH1 0x1 PUSH1 0x60 SHL SUB PUSH1 0x20 DUP7 ADD MLOAD AND SWAP1 PUSH2 0x4380 JUMP JUMPDEST SWAP3 MLOAD PUSH1 0x40 DUP1 MLOAD SWAP4 SWAP1 SWAP2 AND PUSH1 0x1 PUSH1 0x1 PUSH1 0xA0 SHL SUB AND DUP4 MSTORE SWAP3 DIV PUSH1 0x20 DUP3 ADD MSTORE RETURN JUMPDEST SWAP2 POP PUSH2 0x2710 PUSH2 0x2E5B PUSH1 0x40 MLOAD PUSH2 0x2E8D DUP2 PUSH2 0x3AC6 JUMP JUMPDEST PUSH1 0x0 SLOAD DUP5 DUP2 AND DUP3 MSTORE PUSH1 0xA0 SHR PUSH1 0x20 DUP3 ADD MSTORE SWAP4 SWAP2 POP POP PUSH2 0x2E40 JUMP JUMPDEST CALLVALUE PUSH2 0x49C JUMPI PUSH1 0xA0 CALLDATASIZE PUSH1 0x3 NOT ADD SLT PUSH2 0x49C JUMPI PUSH1 0x4 CALLDATALOAD PUSH1 0x24 CALLDATALOAD PUSH1 0x44 CALLDATALOAD PUSH1 0x64 CALLDATALOAD SWAP2 PUSH1 0x84 CALLDATALOAD DUP1 ISZERO ISZERO DUP1 SWAP2 SUB PUSH2 0x49C JUMPI PUSH1 0x0 DUP1 MLOAD PUSH1 0x20 PUSH2 0x5A15 DUP4 CODECOPY DUP2 MLOAD SWAP2 MSTORE SWAP4 PUSH1 0x80 SWAP4 PUSH2 0x2EEC PUSH2 0x4B55 JUMP JUMPDEST DUP7 PUSH1 0x0 MSTORE PUSH1 0x18 PUSH1 0x20 MSTORE PUSH1 0x5 PUSH1 0x40 PUSH1 0x0 KECCAK256 PUSH2 0x2F10 PUSH1 0xFF PUSH1 0xA DUP4 ADD SLOAD PUSH1 0xA8 SHR AND ISZERO PUSH2 0x3DB9 JUMP JUMPDEST PUSH2 0x2F1A DUP5 DUP8 PUSH2 0x435D JUMP JUMPDEST PUSH2 0x2F29 PUSH1 0x3 DUP4 ADD SWAP2 DUP3 SLOAD PUSH2 0x435D JUMP JUMPDEST SWAP1 SSTORE PUSH1 0x4 DUP2 ADD PUSH2 0x2F3A DUP5 DUP3 SLOAD PUSH2 0x435D JUMP JUMPDEST SWAP1 SSTORE ADD PUSH2 0x2F48 DUP4 DUP3 SLOAD PUSH2 0x435D JUMP JUMPDEST SWAP1 SSTORE PUSH1 0x40 MLOAD SWAP4 DUP5 MSTORE PUSH1 0x20 DUP5 ADD MSTORE PUSH1 0x40 DUP4 ADD MSTORE PUSH1 0x60 DUP3 ADD MSTORE LOG2 STOP JUMPDEST CALLVALUE PUSH2 0x49C JUMPI PUSH2 0x18 PUSH2 0x2F73 CALLDATASIZE PUSH2 0x3C77 JUMP JUMPDEST SWAP2 PUSH2 0x3FA9 JUMP JUMPDEST CALLVALUE PUSH2 0x49C JUMPI PUSH1 0x20 CALLDATASIZE PUSH1 0x3 NOT ADD SLT PUSH2 0x49C JUMPI PUSH1 0x4 CALLDATALOAD PUSH2 0x2F95 PUSH2 0x4B55 JUMP JUMPDEST DUP1 PUSH1 0x0 MSTORE PUSH1 0x18 PUSH1 0x20 MSTORE PUSH1 0xA PUSH1 0x40 PUSH1 0x0 KECCAK256 ADD DUP1 SLOAD PUSH1 0xFF DUP2 PUSH1 0xA8 SHR AND PUSH2 0x300C JUMPI PUSH2 0x2FC3 PUSH1 0xFF DUP3 PUSH1 0xB0 SHR AND ISZERO PUSH2 0x3F65 JUMP JUMPDEST PUSH1 0xFF PUSH1 0xA0 SHL NOT AND PUSH1 0x1 PUSH1 0xA0 SHL OR SWAP1 SSTORE PUSH1 0x40 DUP1 MLOAD PUSH1 0x20 DUP1 DUP3 MSTORE PUSH1 0x6 SWAP1 DUP3 ADD MSTORE PUSH6 0x616374697665 PUSH1 0xD0 SHL SWAP2 DUP2 ADD SWAP2 SWAP1 SWAP2 MSTORE PUSH1 0x0 DUP1 MLOAD PUSH1 0x20 PUSH2 0x59F5 DUP4 CODECOPY DUP2 MLOAD SWAP2 MSTORE SWAP1 DUP1 PUSH1 0x60 DUP2 ADD PUSH2 0x205E JUMP JUMPDEST PUSH1 0x40 MLOAD PUSH3 0x461BCD PUSH1 0xE5 SHL DUP2 MSTORE PUSH1 0x20 PUSH1 0x4 DUP3 ADD MSTORE PUSH1 0x1B PUSH1 0x24 DUP3 ADD MSTORE PUSH32 0x43616D706169676E207065726D616E656E746C7920636C6F7365640000000000 PUSH1 0x44 DUP3 ADD MSTORE PUSH1 0x64 SWAP1 REVERT JUMPDEST CALLVALUE PUSH2 0x49C JUMPI PUSH1 0x40 CALLDATASIZE PUSH1 0x3 NOT ADD SLT PUSH2 0x49C JUMPI PUSH1 0x4 CALLDATALOAD PUSH1 0x1 PUSH1 0x1 PUSH1 0x40 SHL SUB DUP2 GT PUSH2 0x49C JUMPI PUSH2 0x3081 SWAP1 CALLDATASIZE SWAP1 PUSH1 0x4 ADD PUSH2 0x3C47 JUMP JUMPDEST SWAP1 PUSH1 0x24 CALLDATALOAD SWAP2 PUSH2 0x308E PUSH2 0x4B55 JUMP JUMPDEST PUSH1 0x0 JUMPDEST DUP2 DUP2 LT PUSH2 0x309A JUMPI STOP JUMPDEST PUSH1 0x1 PUSH1 0x1 PUSH1 0xA0 SHL SUB PUSH2 0x30B0 PUSH2 0x1B50 DUP4 DUP6 DUP8 PUSH2 0x3EF6 JUMP JUMPDEST AND PUSH2 0x30BE JUMPI JUMPDEST PUSH1 0x1 ADD PUSH2 0x3091 JUMP JUMPDEST SWAP3 SWAP2 SWAP1 PUSH2 0x30CC DUP5 DUP3 DUP5 PUSH2 0x3EF6 JUMP JUMPDEST CALLDATALOAD PUSH1 0x0 MSTORE PUSH1 0x1B PUSH1 0x20 PUSH1 0x19 DUP2 MSTORE DUP5 PUSH1 0x40 PUSH1 0x0 KECCAK256 SSTORE DUP5 PUSH1 0x0 MSTORE MSTORE PUSH1 0x40 PUSH1 0x0 KECCAK256 SWAP4 PUSH1 0x0 SWAP5 PUSH1 0x0 SWAP6 DUP2 SLOAD SWAP7 JUMPDEST DUP8 DUP2 LT PUSH2 0x312E JUMPI JUMPDEST POP PUSH1 0x1 SWAP4 SWAP5 SWAP6 SWAP7 POP ISZERO PUSH2 0x3112 JUMPI JUMPDEST POP SWAP1 POP PUSH2 0x30B6 JUMP JUMPDEST PUSH2 0x3128 SWAP1 PUSH2 0x3121 DUP4 DUP7 DUP9 PUSH2 0x3EF6 JUMP JUMPDEST CALLDATALOAD SWAP1 PUSH2 0x3F42 JUMP JUMPDEST DUP6 PUSH2 0x310A JUMP JUMPDEST PUSH2 0x3138 DUP2 DUP5 PUSH2 0x3D35 JUMP JUMPDEST SWAP1 SLOAD PUSH2 0x3145 DUP7 DUP9 DUP11 PUSH2 0x3EF6 JUMP JUMPDEST CALLDATALOAD SWAP2 PUSH1 0x3 SHL SHR EQ PUSH2 0x3158 JUMPI PUSH1 0x1 ADD PUSH2 0x30F4 JUMP JUMPDEST POP SWAP5 SWAP6 POP DUP6 SWAP5 POP PUSH1 0x1 DUP1 PUSH2 0x30FC JUMP JUMPDEST CALLVALUE PUSH2 0x49C JUMPI PUSH2 0x3175 CALLDATASIZE PUSH2 0x3BFE JUMP JUMPDEST SWAP1 PUSH2 0x317E PUSH2 0x4B55 JUMP JUMPDEST DUP3 PUSH1 0x0 MSTORE PUSH1 0x20 SWAP1 PUSH1 0x18 DUP3 MSTORE PUSH1 0x40 PUSH1 0x0 KECCAK256 PUSH2 0x31A2 PUSH1 0xFF PUSH1 0xA DUP4 ADD SLOAD PUSH1 0xA8 SHR AND ISZERO PUSH2 0x3DB9 JUMP JUMPDEST PUSH1 0x1 DUP1 SWAP2 ADD PUSH1 0x1 PUSH1 0x1 PUSH1 0x40 SHL SUB DUP6 GT PUSH2 0x10C2 JUMPI PUSH2 0x31C9 DUP6 PUSH2 0x31C3 DUP4 SLOAD PUSH2 0x3A8C JUMP JUMPDEST DUP4 PUSH2 0x3EA0 JUMP JUMPDEST PUSH1 0x0 DUP6 PUSH1 0x1F DUP2 GT PUSH1 0x1 EQ PUSH2 0x3293 JUMPI DUP1 PUSH2 0x31F8 SWAP3 PUSH1 0x0 SWAP2 PUSH2 0x3288 JUMPI JUMPDEST POP DUP2 PUSH1 0x1 SHL SWAP2 PUSH1 0x0 NOT SWAP1 PUSH1 0x3 SHL SHR NOT AND OR SWAP1 JUMP JUMPDEST SWAP1 SSTORE JUMPDEST DUP5 PUSH1 0x0 MSTORE PUSH1 0x1B DUP4 MSTORE PUSH1 0x40 PUSH1 0x0 KECCAK256 DUP2 PUSH1 0x0 SWAP1 JUMPDEST PUSH2 0x324A JUMPI JUMPDEST PUSH1 0x40 MLOAD DUP6 DUP2 MSTORE DUP8 SWAP1 PUSH32 0xD0ED2732DA48175AAAE07FD675A2A78B1700515722F6675D7FF5F0E09F22F309 SWAP1 DUP1 PUSH2 0x205E DUP2 DUP11 ADD DUP12 DUP11 PUSH2 0x3E3A JUMP JUMPDEST DUP2 SLOAD DUP2 LT ISZERO PUSH2 0x3283 JUMPI SWAP1 DUP3 DUP3 PUSH2 0x327B PUSH2 0x3264 DUP4 SWAP6 DUP6 PUSH2 0x3D35 JUMP JUMPDEST SWAP1 SLOAD PUSH2 0x3271 CALLDATASIZE DUP13 DUP12 PUSH2 0x3D82 JUMP JUMPDEST SWAP2 PUSH1 0x3 SHL SHR PUSH2 0x4BBC JUMP JUMPDEST ADD SWAP1 SWAP2 PUSH2 0x320D JUMP JUMPDEST PUSH2 0x3212 JUMP JUMPDEST SWAP1 POP DUP6 ADD CALLDATALOAD DUP10 PUSH2 0x31E4 JUMP JUMPDEST POP PUSH1 0x1F NOT DUP7 AND SWAP1 DUP3 PUSH1 0x0 MSTORE DUP7 DUP7 PUSH1 0x0 KECCAK256 SWAP3 PUSH1 0x0 JUMPDEST DUP9 DUP8 DUP4 DUP4 LT PUSH2 0x32E1 JUMPI POP POP POP LT PUSH2 0x32C7 JUMPI JUMPDEST POP POP DUP2 DUP6 DUP2 SHL ADD SWAP1 SSTORE PUSH2 0x31FB JUMP JUMPDEST DUP5 ADD CALLDATALOAD PUSH1 0x0 NOT PUSH1 0x3 DUP9 SWAP1 SHL PUSH1 0xF8 AND SHR NOT AND SWAP1 SSTORE DUP7 DUP1 PUSH2 0x32B9 JUMP JUMPDEST DUP6 DUP11 ADD CALLDATALOAD DUP8 SSTORE SWAP1 SWAP6 ADD SWAP5 SWAP4 DUP5 ADD SWAP4 DUP11 SWAP4 POP ADD PUSH2 0x32A7 JUMP JUMPDEST CALLVALUE PUSH2 0x49C JUMPI PUSH2 0x3306 CALLDATASIZE PUSH2 0x3C31 JUMP JUMPDEST PUSH2 0x330E PUSH2 0x4B55 JUMP JUMPDEST DUP2 PUSH1 0x0 MSTORE PUSH1 0x18 PUSH1 0x20 MSTORE PUSH1 0x40 PUSH1 0x0 KECCAK256 PUSH2 0x3330 PUSH1 0xFF PUSH1 0xA DUP4 ADD SLOAD PUSH1 0xA8 SHR AND ISZERO PUSH2 0x3DB9 JUMP JUMPDEST DUP2 ISZERO DUP1 ISZERO PUSH2 0x33BD JUMPI JUMPDEST ISZERO PUSH2 0x3378 JUMPI PUSH1 0x7 ADD SSTORE PUSH1 0x0 DUP1 MLOAD PUSH1 0x20 PUSH2 0x59F5 DUP4 CODECOPY DUP2 MLOAD SWAP2 MSTORE PUSH1 0x60 PUSH1 0x40 MLOAD PUSH1 0x20 DUP2 MSTORE PUSH1 0xB PUSH1 0x20 DUP3 ADD MSTORE PUSH11 0x6D617845646974696F6E73 PUSH1 0xA8 SHL PUSH1 0x40 DUP3 ADD MSTORE LOG2 STOP JUMPDEST PUSH1 0x40 MLOAD PUSH3 0x461BCD PUSH1 0xE5 SHL DUP2 MSTORE PUSH1 0x20 PUSH1 0x4 DUP3 ADD MSTORE PUSH1 0x1A PUSH1 0x24 DUP3 ADD MSTORE PUSH32 0x43616E6E6F74207265647563652062656C6F77206D696E746564000000000000 PUSH1 0x44 DUP3 ADD MSTORE PUSH1 0x64 SWAP1 REVERT JUMPDEST POP PUSH1 0x6 DUP2 ADD SLOAD DUP3 LT ISZERO PUSH2 0x3339 JUMP JUMPDEST CALLVALUE PUSH2 0x49C JUMPI PUSH1 0x0 CALLDATASIZE PUSH1 0x3 NOT ADD SLT PUSH2 0x49C JUMPI PUSH1 0x20 PUSH1 0x1 PUSH1 0x1 PUSH1 0x60 SHL SUB PUSH1 0x13 SLOAD AND PUSH1 0x40 MLOAD SWAP1 DUP2 MSTORE RETURN JUMPDEST CALLVALUE PUSH2 0x49C JUMPI PUSH1 0x0 CALLDATASIZE PUSH1 0x3 NOT ADD SLT PUSH2 0x49C JUMPI PUSH1 0x20 PUSH1 0xA SLOAD PUSH1 0x40 MLOAD SWAP1 DUP2 MSTORE RETURN JUMPDEST PUSH1 0x20 PUSH2 0x73B PUSH2 0x341E CALLDATASIZE PUSH2 0x3C31 JUMP JUMPDEST SWAP1 PUSH2 0x3427 PUSH2 0x4CEB JUMP JUMPDEST CALLER PUSH1 0x0 MSTORE PUSH1 0x15 DUP5 MSTORE PUSH2 0x3441 PUSH1 0xFF PUSH1 0x40 PUSH1 0x0 KECCAK256 SLOAD AND ISZERO PUSH2 0x3E5B JUMP JUMPDEST PUSH2 0x736 PUSH2 0x4D0C JUMP JUMPDEST CALLVALUE PUSH2 0x49C JUMPI PUSH32 0xAC6D62CB5D30A7FFF578060CD3DCF46FF2DF7991A71C2D2AABCA7E558F130F78 PUSH2 0x3478 CALLDATASIZE PUSH2 0x3BFE JUMP JUMPDEST PUSH2 0x3483 SWAP4 SWAP3 SWAP4 PUSH2 0x4B55 JUMP JUMPDEST PUSH1 0x0 DUP5 DUP2 MSTORE PUSH1 0x4 PUSH1 0x20 MSTORE PUSH1 0x40 SWAP1 KECCAK256 SLOAD PUSH2 0x34A6 SWAP1 PUSH1 0x1 PUSH1 0x1 PUSH1 0xA0 SHL SUB AND ISZERO ISZERO PUSH2 0x3DF7 JUMP JUMPDEST PUSH2 0x34BA PUSH2 0x34B4 CALLDATASIZE DUP4 DUP6 PUSH2 0x3D82 JUMP JUMPDEST DUP6 PUSH2 0x4BBC JUMP JUMPDEST PUSH2 0x205E PUSH1 0x40 MLOAD SWAP3 DUP4 SWAP3 PUSH1 0x20 DUP5 MSTORE PUSH1 0x20 DUP5 ADD SWAP2 PUSH2 0x3E3A JUMP JUMPDEST CALLVALUE PUSH2 0x49C JUMPI PUSH1 0x40 CALLDATASIZE PUSH1 0x3 NOT ADD SLT PUSH2 0x49C JUMPI PUSH1 0x4 CALLDATALOAD PUSH2 0x3537 PUSH2 0x34F0 PUSH2 0x3BC2 JUMP JUMPDEST PUSH2 0x34F8 PUSH2 0x4B55 JUMP JUMPDEST DUP3 PUSH1 0x0 MSTORE PUSH1 0x18 PUSH1 0x20 MSTORE PUSH1 0xA PUSH1 0x40 PUSH1 0x0 KECCAK256 ADD PUSH2 0x351A PUSH1 0xFF DUP3 SLOAD PUSH1 0xA8 SHR AND ISZERO PUSH2 0x3DB9 JUMP JUMPDEST DUP1 SLOAD PUSH1 0xFF PUSH1 0xB8 SHL NOT AND SWAP2 ISZERO ISZERO PUSH1 0xB8 SHL PUSH1 0xFF PUSH1 0xB8 SHL AND SWAP2 SWAP1 SWAP2 OR SWAP1 SSTORE JUMP JUMPDEST PUSH1 0x0 DUP1 MLOAD PUSH1 0x20 PUSH2 0x59F5 DUP4 CODECOPY DUP2 MLOAD SWAP2 MSTORE PUSH1 0x60 PUSH1 0x40 MLOAD PUSH1 0x20 DUP2 MSTORE PUSH1 0x16 PUSH1 0x20 DUP3 ADD MSTORE PUSH22 0x1A5B5B59591A585D1954185E5BDD5D115B98589B1959 PUSH1 0x52 SHL PUSH1 0x40 DUP3 ADD MSTORE LOG2 STOP JUMPDEST CALLVALUE PUSH2 0x49C JUMPI PUSH1 0x20 CALLDATASIZE PUSH1 0x3 NOT ADD SLT PUSH2 0x49C JUMPI PUSH1 0x4 CALLDATALOAD PUSH1 0x0 MSTORE PUSH1 0x18 PUSH1 0x20 MSTORE PUSH1 0x40 PUSH1 0x0 KECCAK256 PUSH2 0x360A PUSH2 0x35A5 DUP3 PUSH2 0x3B1D JUMP JUMPDEST SWAP2 PUSH1 0xFF PUSH2 0x35B4 PUSH1 0x1 DUP4 ADD PUSH2 0x3B1D JUMP JUMPDEST SWAP4 PUSH1 0x2 DUP4 ADD SLOAD SWAP3 PUSH1 0x3 DUP2 ADD SLOAD SWAP1 PUSH1 0x4 DUP2 ADD SLOAD PUSH1 0x5 DUP3 ADD SLOAD PUSH1 0x6 DUP4 ADD SLOAD PUSH1 0x7 DUP5 ADD SLOAD SWAP2 PUSH1 0x8 DUP6 ADD SLOAD SWAP4 PUSH1 0x1 DUP1 PUSH1 0xA0 SHL SUB SWAP7 PUSH2 0x3618 PUSH1 0xA DUP10 PUSH1 0x9 DUP11 ADD SLOAD AND SWAP9 ADD SLOAD SWAP10 PUSH1 0x40 MLOAD SWAP15 DUP16 SWAP15 DUP16 SWAP3 PUSH2 0x1E0 DUP1 DUP6 MSTORE DUP5 ADD SWAP1 PUSH2 0x3A4C JUMP JUMPDEST SWAP2 PUSH1 0x20 DUP2 DUP5 SUB SWAP2 ADD MSTORE PUSH2 0x3A4C JUMP JUMPDEST SWAP11 PUSH1 0x40 DUP14 ADD MSTORE PUSH1 0x60 DUP13 ADD MSTORE PUSH1 0x80 DUP12 ADD MSTORE PUSH1 0xA0 DUP11 ADD MSTORE PUSH1 0xC0 DUP10 ADD MSTORE PUSH1 0xE0 DUP9 ADD MSTORE PUSH2 0x100 DUP8 ADD MSTORE PUSH2 0x120 DUP7 ADD MSTORE DUP2 AND PUSH2 0x140 DUP6 ADD MSTORE DUP2 DUP2 PUSH1 0xA0 SHR AND ISZERO ISZERO PUSH2 0x160 DUP6 ADD MSTORE DUP2 DUP2 PUSH1 0xA8 SHR AND ISZERO ISZERO PUSH2 0x180 DUP6 ADD MSTORE DUP2 DUP2 PUSH1 0xB0 SHR AND ISZERO ISZERO PUSH2 0x1A0 DUP6 ADD MSTORE PUSH1 0xB8 SHR AND ISZERO ISZERO PUSH2 0x1C0 DUP4 ADD MSTORE SUB SWAP1 RETURN JUMPDEST CALLVALUE PUSH2 0x49C JUMPI PUSH1 0x40 CALLDATASIZE PUSH1 0x3 NOT ADD SLT PUSH2 0x49C JUMPI PUSH2 0x369E PUSH2 0x3A20 JUMP JUMPDEST PUSH1 0x24 CALLDATALOAD PUSH2 0x36AA DUP2 PUSH2 0x4B81 JUMP JUMPDEST CALLER ISZERO ISZERO DUP1 PUSH2 0x3759 JUMPI JUMPDEST DUP1 PUSH2 0x372C JUMPI JUMPDEST PUSH2 0x3714 JUMPI PUSH1 0x1 PUSH1 0x1 PUSH1 0xA0 SHL SUB SWAP3 DUP4 AND SWAP3 DUP3 SWAP2 DUP5 SWAP2 AND PUSH32 0x8C5BE1E5EBEC7D5BD14F71427D1E84F3DD0314C0F7B2291E5B200AC8C7C3B925 PUSH1 0x0 DUP1 LOG4 PUSH1 0x0 SWAP1 DUP2 MSTORE PUSH1 0x6 PUSH1 0x20 MSTORE PUSH1 0x40 SWAP1 KECCAK256 DUP1 SLOAD PUSH1 0x1 PUSH1 0x1 PUSH1 0xA0 SHL SUB NOT AND SWAP1 SWAP2 OR SWAP1 SSTORE STOP JUMPDEST PUSH1 0x40 MLOAD PUSH4 0xA9FBF51F PUSH1 0xE0 SHL DUP2 MSTORE CALLER PUSH1 0x4 DUP3 ADD MSTORE PUSH1 0x24 SWAP1 REVERT JUMPDEST POP PUSH1 0x1 DUP1 PUSH1 0xA0 SHL SUB DUP2 AND PUSH1 0x0 MSTORE PUSH1 0x7 PUSH1 0x20 MSTORE PUSH1 0x40 PUSH1 0x0 KECCAK256 CALLER PUSH1 0x0 MSTORE PUSH1 0x20 MSTORE PUSH1 0xFF PUSH1 0x40 PUSH1 0x0 KECCAK256 SLOAD AND ISZERO PUSH2 0x36B9 JUMP JUMPDEST POP PUSH1 0x1 PUSH1 0x1 PUSH1 0xA0 SHL SUB DUP2 AND CALLER EQ ISZERO PUSH2 0x36B3 JUMP JUMPDEST CALLVALUE PUSH2 0x49C JUMPI PUSH1 0x20 CALLDATASIZE PUSH1 0x3 NOT ADD SLT PUSH2 0x49C JUMPI PUSH1 0x4 CALLDATALOAD PUSH2 0x3789 DUP2 PUSH2 0x4B81 JUMP JUMPDEST POP PUSH1 0x0 MSTORE PUSH1 0x6 PUSH1 0x20 MSTORE PUSH1 0x20 PUSH1 0x1 DUP1 PUSH1 0xA0 SHL SUB PUSH1 0x40 PUSH1 0x0 KECCAK256 SLOAD AND PUSH1 0x40 MLOAD SWAP1 DUP2 MSTORE RETURN JUMPDEST CALLVALUE PUSH2 0x49C JUMPI PUSH1 0x0 CALLDATASIZE PUSH1 0x3 NOT ADD SLT PUSH2 0x49C JUMPI PUSH1 0x40 MLOAD PUSH1 0x2 SLOAD PUSH1 0x0 DUP3 PUSH2 0x37CD DUP4 PUSH2 0x3A8C JUMP JUMPDEST SWAP2 DUP3 DUP3 MSTORE PUSH1 0x20 SWAP4 PUSH1 0x1 SWAP1 DUP6 PUSH1 0x1 DUP3 AND SWAP2 DUP3 PUSH1 0x0 EQ PUSH2 0x1AB6 JUMPI POP POP PUSH1 0x1 EQ PUSH2 0x37FB JUMPI POP PUSH2 0x1A45 SWAP3 POP SUB DUP4 PUSH2 0x3AFC JUMP JUMPDEST DUP5 SWAP2 POP PUSH1 0x2 PUSH1 0x0 MSTORE PUSH32 0x405787FA12A823E0F2B7631CC41B3BA8828B3321CA811111FA75CD3AA3BB5ACE SWAP1 PUSH1 0x0 SWAP2 JUMPDEST DUP6 DUP4 LT PUSH2 0x3840 JUMPI POP POP PUSH2 0x1A45 SWAP4 POP DUP3 ADD ADD DUP6 PUSH2 0x1A38 JUMP JUMPDEST DUP1 SLOAD DUP4 DUP10 ADD DUP6 ADD MSTORE DUP8 SWAP5 POP DUP7 SWAP4 SWAP1 SWAP3 ADD SWAP2 DUP2 ADD PUSH2 0x3829 JUMP JUMPDEST CALLVALUE PUSH2 0x49C JUMPI PUSH1 0x40 CALLDATASIZE PUSH1 0x3 NOT ADD SLT PUSH2 0x49C JUMPI PUSH2 0x3871 PUSH2 0x3A20 JUMP JUMPDEST PUSH1 0x24 CALLDATALOAD PUSH1 0x1 PUSH1 0x1 PUSH1 0x60 SHL SUB DUP2 AND SWAP2 DUP3 DUP3 SUB PUSH2 0x49C JUMPI PUSH2 0x388E PUSH2 0x4B55 JUMP JUMPDEST PUSH2 0x2710 DUP1 DUP5 GT PUSH2 0x392B JUMPI POP PUSH1 0x1 PUSH1 0x1 PUSH1 0xA0 SHL SUB AND SWAP2 DUP3 ISZERO PUSH2 0x3912 JUMPI PUSH32 0x35804D3532228D15C4FE3FA7A4FB8100C86DC285216E9C806F5D6F2CEF552839 SWAP3 PUSH1 0x20 SWAP3 DUP3 DUP5 PUSH1 0x40 MLOAD PUSH2 0x38DC DUP2 PUSH2 0x3AC6 JUMP JUMPDEST DUP5 DUP2 MSTORE ADD MSTORE PUSH1 0xA0 SHL PUSH1 0x1 PUSH1 0x1 PUSH1 0xA0 SHL SUB NOT AND OR PUSH1 0x0 SSTORE PUSH1 0x13 DUP1 SLOAD PUSH12 0xFFFFFFFFFFFFFFFFFFFFFFFF NOT AND DUP3 OR SWAP1 SSTORE PUSH1 0x40 MLOAD SWAP1 DUP2 MSTORE LOG1 STOP JUMPDEST PUSH1 0x40 MLOAD PUSH4 0x5B6CC805 PUSH1 0xE1 SHL DUP2 MSTORE PUSH1 0x0 PUSH1 0x4 DUP3 ADD MSTORE PUSH1 0x24 SWAP1 REVERT JUMPDEST DUP4 PUSH1 0x44 SWAP2 PUSH1 0x40 MLOAD SWAP2 PUSH4 0x6F483D09 PUSH1 0xE0 SHL DUP4 MSTORE PUSH1 0x4 DUP4 ADD MSTORE PUSH1 0x24 DUP3 ADD MSTORE REVERT JUMPDEST CALLVALUE PUSH2 0x49C JUMPI PUSH1 0x0 CALLDATASIZE PUSH1 0x3 NOT ADD SLT PUSH2 0x49C JUMPI PUSH1 0x20 PUSH1 0x10 SLOAD PUSH1 0x40 MLOAD SWAP1 DUP2 MSTORE RETURN JUMPDEST CALLVALUE PUSH2 0x49C JUMPI PUSH1 0x20 CALLDATASIZE PUSH1 0x3 NOT ADD SLT PUSH2 0x49C JUMPI PUSH1 0x4 CALLDATALOAD SWAP1 PUSH4 0xFFFFFFFF PUSH1 0xE0 SHL DUP3 AND DUP1 SWAP3 SUB PUSH2 0x49C JUMPI PUSH1 0x20 SWAP2 PUSH4 0x24832483 PUSH1 0xE1 SHL DUP2 EQ SWAP1 DUP2 ISZERO PUSH2 0x39A9 JUMPI JUMPDEST POP ISZERO ISZERO DUP2 MSTORE RETURN JUMPDEST PUSH4 0x780E9D63 PUSH1 0xE0 SHL DUP2 EQ SWAP2 POP DUP2 ISZERO PUSH2 0x39C3 JUMPI JUMPDEST POP DUP4 PUSH2 0x39A2 JUMP JUMPDEST PUSH4 0x80AC58CD PUSH1 0xE0 SHL DUP2 EQ SWAP2 POP DUP2 ISZERO PUSH2 0x3A0F JUMPI JUMPDEST DUP2 ISZERO PUSH2 0x39E4 JUMPI JUMPDEST POP DUP4 PUSH2 0x39BC JUMP JUMPDEST PUSH4 0x152A902D PUSH1 0xE1 SHL DUP2 EQ SWAP2 POP DUP2 ISZERO PUSH2 0x39FE JUMPI JUMPDEST POP DUP4 PUSH2 0x39DD JUMP JUMPDEST PUSH4 0x1FFC9A7 PUSH1 0xE0 SHL EQ SWAP1 POP DUP4 PUSH2 0x39F7 JUMP JUMPDEST PUSH4 0x5B5E139F PUSH1 0xE0 SHL DUP2 EQ SWAP2 POP PUSH2 0x39D6 JUMP JUMPDEST PUSH1 0x4 CALLDATALOAD SWAP1 PUSH1 0x1 PUSH1 0x1 PUSH1 0xA0 SHL SUB DUP3 AND DUP3 SUB PUSH2 0x49C JUMPI JUMP JUMPDEST PUSH1 0x24 CALLDATALOAD SWAP1 PUSH1 0x1 PUSH1 0x1 PUSH1 0xA0 SHL SUB DUP3 AND DUP3 SUB PUSH2 0x49C JUMPI JUMP JUMPDEST SWAP2 SWAP1 DUP3 MLOAD SWAP3 DUP4 DUP3 MSTORE PUSH1 0x0 JUMPDEST DUP5 DUP2 LT PUSH2 0x3A78 JUMPI POP POP DUP3 PUSH1 0x0 PUSH1 0x20 DUP1 SWAP5 SWAP6 DUP5 ADD ADD MSTORE PUSH1 0x1F DUP1 NOT SWAP2 ADD AND ADD ADD SWAP1 JUMP JUMPDEST PUSH1 0x20 DUP2 DUP4 ADD DUP2 ADD MLOAD DUP5 DUP4 ADD DUP3 ADD MSTORE ADD PUSH2 0x3A57 JUMP JUMPDEST SWAP1 PUSH1 0x1 DUP3 DUP2 SHR SWAP3 AND DUP1 ISZERO PUSH2 0x3ABC JUMPI JUMPDEST PUSH1 0x20 DUP4 LT EQ PUSH2 0x3AA6 JUMPI JUMP JUMPDEST PUSH4 0x4E487B71 PUSH1 0xE0 SHL PUSH1 0x0 MSTORE PUSH1 0x22 PUSH1 0x4 MSTORE PUSH1 0x24 PUSH1 0x0 REVERT JUMPDEST SWAP2 PUSH1 0x7F AND SWAP2 PUSH2 0x3A9B JUMP JUMPDEST PUSH1 0x40 DUP2 ADD SWAP1 DUP2 LT PUSH1 0x1 PUSH1 0x1 PUSH1 0x40 SHL SUB DUP3 GT OR PUSH2 0x10C2 JUMPI PUSH1 0x40 MSTORE JUMP JUMPDEST PUSH1 0x20 DUP2 ADD SWAP1 DUP2 LT PUSH1 0x1 PUSH1 0x1 PUSH1 0x40 SHL SUB DUP3 GT OR PUSH2 0x10C2 JUMPI PUSH1 0x40 MSTORE JUMP JUMPDEST SWAP1 PUSH1 0x1F DUP1 NOT SWAP2 ADD AND DUP2 ADD SWAP1 DUP2 LT PUSH1 0x1 PUSH1 0x1 PUSH1 0x40 SHL SUB DUP3 GT OR PUSH2 0x10C2 JUMPI PUSH1 0x40 MSTORE JUMP JUMPDEST SWAP1 PUSH1 0x40 MLOAD SWAP2 DUP3 PUSH1 0x0 DUP3 SLOAD PUSH2 0x3B30 DUP2 PUSH2 0x3A8C JUMP JUMPDEST SWAP1 DUP2 DUP5 MSTORE PUSH1 0x20 SWAP5 PUSH1 0x1 SWAP2 PUSH1 0x1 DUP2 AND SWAP1 DUP2 PUSH1 0x0 EQ PUSH2 0x3BA0 JUMPI POP PUSH1 0x1 EQ PUSH2 0x3B61 JUMPI JUMPDEST POP POP POP PUSH2 0x3B5F SWAP3 POP SUB DUP4 PUSH2 0x3AFC JUMP JUMPDEST JUMP JUMPDEST PUSH1 0x0 SWAP1 DUP2 MSTORE DUP6 DUP2 KECCAK256 SWAP6 SWAP4 POP SWAP2 SWAP1 JUMPDEST DUP2 DUP4 LT PUSH2 0x3B88 JUMPI POP POP PUSH2 0x3B5F SWAP4 POP DUP3 ADD ADD CODESIZE DUP1 DUP1 PUSH2 0x3B50 JUMP JUMPDEST DUP6 SLOAD DUP9 DUP5 ADD DUP6 ADD MSTORE SWAP5 DUP6 ADD SWAP5 DUP8 SWAP5 POP SWAP2 DUP4 ADD SWAP2 PUSH2 0x3B6F JUMP JUMPDEST SWAP3 POP POP POP PUSH2 0x3B5F SWAP5 SWAP3 POP PUSH1 0xFF NOT AND DUP3 DUP5 ADD MSTORE ISZERO ISZERO PUSH1 0x5 SHL DUP3 ADD ADD CODESIZE DUP1 DUP1 PUSH2 0x3B50 JUMP JUMPDEST PUSH1 0x24 CALLDATALOAD SWAP1 DUP2 ISZERO ISZERO DUP3 SUB PUSH2 0x49C JUMPI JUMP JUMPDEST SWAP2 DUP2 PUSH1 0x1F DUP5 ADD SLT ISZERO PUSH2 0x49C JUMPI DUP3 CALLDATALOAD SWAP2 PUSH1 0x1 PUSH1 0x1 PUSH1 0x40 SHL SUB DUP4 GT PUSH2 0x49C JUMPI PUSH1 0x20 DUP4 DUP2 DUP7 ADD SWAP6 ADD ADD GT PUSH2 0x49C JUMPI JUMP JUMPDEST SWAP1 PUSH1 0x40 PUSH1 0x3 NOT DUP4 ADD SLT PUSH2 0x49C JUMPI PUSH1 0x4 CALLDATALOAD SWAP2 PUSH1 0x24 CALLDATALOAD SWAP1 PUSH1 0x1 PUSH1 0x1 PUSH1 0x40 SHL SUB DUP3 GT PUSH2 0x49C JUMPI PUSH2 0x3C2D SWAP2 PUSH1 0x4 ADD PUSH2 0x3BD1 JUMP JUMPDEST SWAP1 SWAP2 JUMP JUMPDEST PUSH1 0x40 SWAP1 PUSH1 0x3 NOT ADD SLT PUSH2 0x49C JUMPI PUSH1 0x4 CALLDATALOAD SWAP1 PUSH1 0x24 CALLDATALOAD SWAP1 JUMP JUMPDEST SWAP2 DUP2 PUSH1 0x1F DUP5 ADD SLT ISZERO PUSH2 0x49C JUMPI DUP3 CALLDATALOAD SWAP2 PUSH1 0x1 PUSH1 0x1 PUSH1 0x40 SHL SUB DUP4 GT PUSH2 0x49C JUMPI PUSH1 0x20 DUP1 DUP6 ADD SWAP5 DUP5 PUSH1 0x5 SHL ADD ADD GT PUSH2 0x49C JUMPI JUMP JUMPDEST PUSH1 0x60 SWAP1 PUSH1 0x3 NOT ADD SLT PUSH2 0x49C JUMPI PUSH1 0x1 PUSH1 0x1 PUSH1 0xA0 SHL SUB SWAP1 PUSH1 0x4 CALLDATALOAD DUP3 DUP2 AND DUP2 SUB PUSH2 0x49C JUMPI SWAP2 PUSH1 0x24 CALLDATALOAD SWAP1 DUP2 AND DUP2 SUB PUSH2 0x49C JUMPI SWAP1 PUSH1 0x44 CALLDATALOAD SWAP1 JUMP JUMPDEST PUSH1 0x20 SWAP1 PUSH1 0x20 PUSH1 0x40 DUP2 DUP4 ADD SWAP3 DUP3 DUP2 MSTORE DUP6 MLOAD DUP1 SWAP5 MSTORE ADD SWAP4 ADD SWAP2 PUSH1 0x0 JUMPDEST DUP3 DUP2 LT PUSH2 0x3CD4 JUMPI POP POP POP POP SWAP1 JUMP JUMPDEST DUP4 MLOAD DUP6 MSTORE SWAP4 DUP2 ADD SWAP4 SWAP3 DUP2 ADD SWAP3 PUSH1 0x1 ADD PUSH2 0x3CC6 JUMP JUMPDEST PUSH1 0xA SLOAD DUP2 LT ISZERO PUSH2 0x3D1F JUMPI PUSH1 0xA PUSH1 0x0 MSTORE PUSH32 0xC65A7BB8D6351C1CF70C95A316CC6A92839C986682D98BC35F958F4883F9D2A8 ADD SWAP1 PUSH1 0x0 SWAP1 JUMP JUMPDEST PUSH4 0x4E487B71 PUSH1 0xE0 SHL PUSH1 0x0 MSTORE PUSH1 0x32 PUSH1 0x4 MSTORE PUSH1 0x24 PUSH1 0x0 REVERT JUMPDEST DUP1 SLOAD DUP3 LT ISZERO PUSH2 0x3D1F JUMPI PUSH1 0x0 MSTORE PUSH1 0x20 PUSH1 0x0 KECCAK256 ADD SWAP1 PUSH1 0x0 SWAP1 JUMP JUMPDEST PUSH1 0x60 SWAP1 PUSH1 0x3 NOT ADD SLT PUSH2 0x49C JUMPI PUSH1 0x4 CALLDATALOAD SWAP1 PUSH1 0x24 CALLDATALOAD SWAP1 PUSH1 0x44 CALLDATALOAD SWAP1 JUMP JUMPDEST PUSH1 0x1 PUSH1 0x1 PUSH1 0x40 SHL SUB DUP2 GT PUSH2 0x10C2 JUMPI PUSH1 0x1F ADD PUSH1 0x1F NOT AND PUSH1 0x20 ADD SWAP1 JUMP JUMPDEST SWAP3 SWAP2 SWAP3 PUSH2 0x3D8E DUP3 PUSH2 0x3D67 JUMP JUMPDEST SWAP2 PUSH2 0x3D9C PUSH1 0x40 MLOAD SWAP4 DUP5 PUSH2 0x3AFC JUMP JUMPDEST DUP3 SWAP5 DUP2 DUP5 MSTORE DUP2 DUP4 ADD GT PUSH2 0x49C JUMPI DUP3 DUP2 PUSH1 0x20 SWAP4 DUP5 PUSH1 0x0 SWAP7 ADD CALLDATACOPY ADD ADD MSTORE JUMP JUMPDEST ISZERO PUSH2 0x3DC0 JUMPI JUMP JUMPDEST PUSH1 0x40 MLOAD PUSH3 0x461BCD PUSH1 0xE5 SHL DUP2 MSTORE PUSH1 0x20 PUSH1 0x4 DUP3 ADD MSTORE PUSH1 0xF PUSH1 0x24 DUP3 ADD MSTORE PUSH15 0x10D85B5C185A59DB8818DB1BDCD959 PUSH1 0x8A SHL PUSH1 0x44 DUP3 ADD MSTORE PUSH1 0x64 SWAP1 REVERT JUMPDEST ISZERO PUSH2 0x3DFE JUMPI JUMP JUMPDEST PUSH1 0x40 MLOAD PUSH3 0x461BCD PUSH1 0xE5 SHL DUP2 MSTORE PUSH1 0x20 PUSH1 0x4 DUP3 ADD MSTORE PUSH1 0x14 PUSH1 0x24 DUP3 ADD MSTORE PUSH20 0x151BDAD95B88191BD95CC81B9BDD08195E1A5CDD PUSH1 0x62 SHL PUSH1 0x44 DUP3 ADD MSTORE PUSH1 0x64 SWAP1 REVERT JUMPDEST SWAP1 DUP1 PUSH1 0x20 SWAP4 SWAP3 DUP2 DUP5 MSTORE DUP5 DUP5 ADD CALLDATACOPY PUSH1 0x0 DUP3 DUP3 ADD DUP5 ADD MSTORE PUSH1 0x1F ADD PUSH1 0x1F NOT AND ADD ADD SWAP1 JUMP JUMPDEST ISZERO PUSH2 0x3E62 JUMPI JUMP JUMPDEST PUSH1 0x40 MLOAD PUSH3 0x461BCD PUSH1 0xE5 SHL DUP2 MSTORE PUSH1 0x20 PUSH1 0x4 DUP3 ADD MSTORE PUSH1 0x16 PUSH1 0x24 DUP3 ADD MSTORE PUSH22 0x1059191C995CDCC81A5CC8189B1858DADB1A5CDD1959 PUSH1 0x52 SHL PUSH1 0x44 DUP3 ADD MSTORE PUSH1 0x64 SWAP1 REVERT JUMPDEST SWAP1 PUSH1 0x1F DUP2 GT PUSH2 0x3EAE JUMPI POP POP POP JUMP JUMPDEST PUSH1 0x0 SWAP2 PUSH1 0x0 MSTORE PUSH1 0x20 PUSH1 0x0 KECCAK256 SWAP1 PUSH1 0x20 PUSH1 0x1F DUP6 ADD PUSH1 0x5 SHR DUP4 ADD SWAP5 LT PUSH2 0x3EEC JUMPI JUMPDEST PUSH1 0x1F ADD PUSH1 0x5 SHR ADD SWAP2 JUMPDEST DUP3 DUP2 LT PUSH2 0x3EE1 JUMPI POP POP POP JUMP JUMPDEST DUP2 DUP2 SSTORE PUSH1 0x1 ADD PUSH2 0x3ED5 JUMP JUMPDEST SWAP1 SWAP3 POP DUP3 SWAP1 PUSH2 0x3ECC JUMP JUMPDEST SWAP2 SWAP1 DUP2 LT ISZERO PUSH2 0x3D1F JUMPI PUSH1 0x5 SHL ADD SWAP1 JUMP JUMPDEST PUSH1 0xA SLOAD SWAP1 PUSH1 0x1 PUSH1 0x40 SHL DUP3 LT ISZERO PUSH2 0x10C2 JUMPI PUSH2 0x3F29 DUP3 PUSH1 0x1 PUSH2 0x3B5F SWAP5 ADD PUSH1 0xA SSTORE PUSH2 0x3CE8 JUMP JUMPDEST SWAP1 SWAP2 SWAP1 DUP3 SLOAD SWAP1 PUSH1 0x3 SHL SWAP2 DUP3 SHL SWAP2 PUSH1 0x0 NOT SWAP1 SHL NOT AND OR SWAP1 SSTORE JUMP JUMPDEST SWAP1 DUP2 SLOAD SWAP2 PUSH1 0x1 PUSH1 0x40 SHL DUP4 LT ISZERO PUSH2 0x10C2 JUMPI DUP3 PUSH2 0x3F29 SWAP2 PUSH1 0x1 PUSH2 0x3B5F SWAP6 ADD DUP2 SSTORE PUSH2 0x3D35 JUMP JUMPDEST ISZERO PUSH2 0x3F6C JUMPI JUMP JUMPDEST PUSH1 0x40 MLOAD PUSH3 0x461BCD PUSH1 0xE5 SHL DUP2 MSTORE PUSH1 0x20 PUSH1 0x4 DUP3 ADD MSTORE PUSH1 0x15 PUSH1 0x24 DUP3 ADD MSTORE PUSH21 0x10D85B5C185A59DB881DD85CC81C99599D5B991959 PUSH1 0x5A SHL PUSH1 0x44 DUP3 ADD MSTORE PUSH1 0x64 SWAP1 REVERT JUMPDEST PUSH1 0x1 PUSH1 0x1 PUSH1 0xA0 SHL SUB DUP3 DUP2 AND SWAP4 SWAP2 SWAP1 DUP5 ISZERO PUSH2 0x4344 JUMPI PUSH1 0x0 SWAP2 DUP4 DUP4 MSTORE PUSH1 0x4 SWAP6 PUSH1 0x20 SWAP4 DUP8 DUP6 MSTORE PUSH1 0x40 SWAP5 DUP5 DUP7 DUP4 KECCAK256 SLOAD AND DUP1 ISZERO ISZERO DUP1 PUSH2 0x433C JUMPI JUMPDEST PUSH2 0x423E JUMPI JUMPDEST POP DUP7 DUP3 MSTORE DUP9 DUP2 MSTORE DUP5 DUP7 DUP4 KECCAK256 SLOAD AND SWAP8 CALLER ISZERO ISZERO DUP1 PUSH2 0x41AC JUMPI JUMPDEST POP DUP9 ISZERO DUP1 ISZERO PUSH2 0x4179 JUMPI JUMPDEST DUP5 DUP5 MSTORE PUSH1 0x5 DUP4 MSTORE DUP8 DUP5 KECCAK256 DUP1 SLOAD PUSH1 0x1 ADD SWAP1 SSTORE DUP9 DUP5 MSTORE DUP11 DUP4 MSTORE DUP8 DUP5 KECCAK256 DUP1 SLOAD PUSH1 0x1 PUSH1 0x1 PUSH1 0xA0 SHL SUB NOT AND DUP7 OR SWAP1 SSTORE DUP9 DUP6 DUP12 PUSH32 0xDDF252AD1BE2C89B69C2B068FC378DAA952BA7F163C4A11628F55A4DF523B3EF DUP8 DUP1 LOG4 ISZERO PUSH2 0x40FD JUMPI PUSH1 0xA SLOAD DUP9 DUP5 MSTORE PUSH1 0xB DUP4 MSTORE DUP8 DUP5 KECCAK256 SSTORE PUSH2 0x4071 DUP9 PUSH2 0x3F06 JUMP JUMPDEST DUP4 DUP10 SUB PUSH2 0x40AC JUMPI JUMPDEST POP POP POP POP AND SWAP1 DUP2 DUP5 SUB PUSH2 0x408D JUMPI POP POP POP POP POP JUMP JUMPDEST MLOAD PUSH4 0x64283D7B PUSH1 0xE0 SHL DUP2 MSTORE SWAP4 DUP5 ADD MSTORE PUSH1 0x24 DUP4 ADD MSTORE PUSH1 0x44 DUP3 ADD MSTORE PUSH1 0x64 SWAP2 POP REVERT JUMPDEST PUSH2 0x40B5 SWAP1 PUSH2 0x48B9 JUMP JUMPDEST PUSH1 0x0 NOT DUP2 ADD SWAP4 SWAP1 DUP5 GT PUSH2 0x40EA JUMPI DUP3 SWAP2 PUSH1 0x9 SWAP2 DUP9 SWAP5 MSTORE PUSH1 0x8 DUP2 MSTORE DUP4 DUP4 KECCAK256 DUP6 DUP5 MSTORE DUP2 MSTORE DUP9 DUP5 DUP5 KECCAK256 SSTORE DUP9 DUP4 MSTORE MSTORE KECCAK256 SSTORE CODESIZE DUP1 DUP1 DUP1 PUSH2 0x4079 JUMP JUMPDEST PUSH4 0x4E487B71 PUSH1 0xE0 SHL DUP4 MSTORE PUSH1 0x11 DUP11 MSTORE PUSH1 0x24 DUP4 REVERT JUMPDEST DUP9 DUP5 EQ PUSH2 0x4071 JUMPI PUSH2 0x410D DUP10 PUSH2 0x48B9 JUMP JUMPDEST DUP9 DUP5 MSTORE PUSH1 0x9 DUP4 MSTORE DUP8 DUP5 KECCAK256 SLOAD DUP2 DUP2 SUB PUSH2 0x4142 JUMPI JUMPDEST POP DUP9 DUP5 MSTORE DUP4 DUP9 DUP2 KECCAK256 SSTORE DUP10 DUP5 MSTORE PUSH1 0x8 DUP4 MSTORE DUP8 DUP5 KECCAK256 SWAP1 DUP5 MSTORE DUP3 MSTORE DUP3 DUP8 DUP2 KECCAK256 SSTORE PUSH2 0x4071 JUMP JUMPDEST DUP11 DUP6 MSTORE PUSH1 0x8 DUP5 MSTORE DUP9 DUP6 KECCAK256 DUP3 DUP7 MSTORE DUP5 MSTORE DUP9 DUP6 KECCAK256 SLOAD DUP12 DUP7 MSTORE PUSH1 0x8 DUP6 MSTORE DUP10 DUP7 KECCAK256 DUP3 DUP8 MSTORE DUP6 MSTORE DUP1 DUP11 DUP8 KECCAK256 SSTORE DUP6 MSTORE PUSH1 0x9 DUP5 MSTORE DUP9 DUP6 KECCAK256 SSTORE CODESIZE PUSH2 0x4120 JUMP JUMPDEST PUSH1 0x0 DUP10 DUP2 MSTORE PUSH1 0x6 PUSH1 0x20 MSTORE PUSH1 0x40 SWAP1 KECCAK256 DUP1 SLOAD PUSH1 0x1 PUSH1 0x1 PUSH1 0xA0 SHL SUB NOT AND SWAP1 SSTORE DUP10 DUP5 MSTORE PUSH1 0x5 DUP4 MSTORE DUP8 DUP5 KECCAK256 DUP1 SLOAD PUSH1 0x0 NOT ADD SWAP1 SSTORE PUSH2 0x4004 JUMP JUMPDEST DUP1 PUSH2 0x41FD JUMPI JUMPDEST ISZERO PUSH2 0x41BD JUMPI CODESIZE PUSH2 0x3FFA JUMP JUMPDEST DUP8 DUP11 DUP9 DUP12 PUSH2 0x41DA JUMPI SWAP2 PUSH1 0x24 SWAP3 MLOAD SWAP2 PUSH4 0x7E273289 PUSH1 0xE0 SHL DUP4 MSTORE DUP3 ADD MSTORE REVERT JUMPDEST MLOAD PUSH4 0x177E802F PUSH1 0xE0 SHL DUP2 MSTORE CALLER SWAP2 DUP2 ADD SWAP2 DUP3 MSTORE PUSH1 0x20 DUP3 ADD SWAP3 SWAP1 SWAP3 MSTORE DUP2 SWAP1 PUSH1 0x40 ADD SUB SWAP1 REVERT JUMPDEST POP CALLER DUP10 EQ DUP1 ISZERO PUSH2 0x4222 JUMPI JUMPDEST DUP1 PUSH2 0x41B2 JUMPI POP DUP8 DUP4 MSTORE PUSH1 0x6 DUP3 MSTORE CALLER DUP7 DUP9 DUP6 KECCAK256 SLOAD AND EQ PUSH2 0x41B2 JUMP JUMPDEST POP DUP9 DUP4 MSTORE PUSH1 0x7 DUP3 MSTORE DUP7 DUP4 KECCAK256 CALLER DUP5 MSTORE DUP3 MSTORE PUSH1 0xFF DUP8 DUP5 KECCAK256 SLOAD AND PUSH2 0x4208 JUMP JUMPDEST PUSH1 0x14 DUP3 MSTORE PUSH2 0x4252 PUSH1 0xFF DUP9 DUP6 KECCAK256 SLOAD AND ISZERO PUSH2 0x4447 JUMP JUMPDEST DUP8 DUP4 MSTORE PUSH1 0x16 DUP3 MSTORE PUSH1 0xFF DUP8 DUP5 KECCAK256 SLOAD AND PUSH2 0x4304 JUMPI DUP3 MSTORE PUSH1 0x15 DUP2 MSTORE PUSH1 0xFF DUP7 DUP4 KECCAK256 SLOAD AND PUSH2 0x42CA JUMPI DUP3 DUP3 MSTORE PUSH1 0x15 DUP2 MSTORE PUSH1 0xFF DUP7 DUP4 KECCAK256 SLOAD AND PUSH2 0x428D JUMPI CODESIZE PUSH2 0x3FE3 JUMP JUMPDEST DUP9 PUSH1 0x64 SWAP2 DUP8 MLOAD SWAP2 PUSH3 0x461BCD PUSH1 0xE5 SHL DUP4 MSTORE DUP3 ADD MSTORE PUSH1 0x18 PUSH1 0x24 DUP3 ADD MSTORE PUSH24 0x149958DA5C1A595B9D081A5CC8189B1858DADB1A5CDD1959 PUSH1 0x42 SHL PUSH1 0x44 DUP3 ADD MSTORE REVERT JUMPDEST DUP9 PUSH1 0x64 SWAP2 DUP8 MLOAD SWAP2 PUSH3 0x461BCD PUSH1 0xE5 SHL DUP4 MSTORE DUP3 ADD MSTORE PUSH1 0x15 PUSH1 0x24 DUP3 ADD MSTORE PUSH21 0x14D95B99195C881A5CC8189B1858DADB1A5CDD1959 PUSH1 0x5A SHL PUSH1 0x44 DUP3 ADD MSTORE REVERT JUMPDEST DUP7 MLOAD PUSH3 0x461BCD PUSH1 0xE5 SHL DUP2 MSTORE DUP1 DUP12 ADD DUP4 SWAP1 MSTORE PUSH1 0x12 PUSH1 0x24 DUP3 ADD MSTORE PUSH18 0x151BDAD95B881A5CC81CDBDD5B189BDD5B99 PUSH1 0x72 SHL PUSH1 0x44 DUP3 ADD MSTORE PUSH1 0x64 SWAP1 REVERT JUMPDEST POP PUSH1 0x1 PUSH2 0x3FDE JUMP JUMPDEST PUSH1 0x40 MLOAD PUSH4 0x32505749 PUSH1 0xE1 SHL DUP2 MSTORE PUSH1 0x0 PUSH1 0x4 DUP3 ADD MSTORE PUSH1 0x24 SWAP1 REVERT JUMPDEST SWAP2 SWAP1 DUP3 ADD DUP1 SWAP3 GT PUSH2 0x436A JUMPI JUMP JUMPDEST PUSH4 0x4E487B71 PUSH1 0xE0 SHL PUSH1 0x0 MSTORE PUSH1 0x11 PUSH1 0x4 MSTORE PUSH1 0x24 PUSH1 0x0 REVERT JUMPDEST DUP2 DUP2 MUL SWAP3 SWAP2 DUP2 ISZERO SWAP2 DUP5 DIV EQ OR ISZERO PUSH2 0x436A JUMPI JUMP JUMPDEST DUP2 ISZERO PUSH2 0x439D JUMPI DIV SWAP1 JUMP JUMPDEST PUSH4 0x4E487B71 PUSH1 0xE0 SHL PUSH1 0x0 MSTORE PUSH1 0x12 PUSH1 0x4 MSTORE PUSH1 0x24 PUSH1 0x0 REVERT JUMPDEST ISZERO PUSH2 0x43BA JUMPI JUMP JUMPDEST PUSH1 0x40 MLOAD PUSH3 0x461BCD PUSH1 0xE5 SHL DUP2 MSTORE PUSH1 0x20 PUSH1 0x4 DUP3 ADD MSTORE PUSH1 0x13 PUSH1 0x24 DUP3 ADD MSTORE PUSH19 0x43616D706169676E206E6F7420616374697665 PUSH1 0x68 SHL PUSH1 0x44 DUP3 ADD MSTORE PUSH1 0x64 SWAP1 REVERT JUMPDEST ISZERO PUSH2 0x43FC JUMPI JUMP JUMPDEST PUSH1 0x40 MLOAD PUSH3 0x461BCD PUSH1 0xE5 SHL DUP2 MSTORE PUSH1 0x20 PUSH1 0x4 DUP3 ADD MSTORE PUSH1 0x14 PUSH1 0x24 DUP3 ADD MSTORE PUSH20 0x13585E0819591A5D1A5BDB9CC81C995858DA1959 PUSH1 0x62 SHL PUSH1 0x44 DUP3 ADD MSTORE PUSH1 0x64 SWAP1 REVERT JUMPDEST PUSH1 0x0 NOT DUP2 EQ PUSH2 0x436A JUMPI PUSH1 0x1 ADD SWAP1 JUMP JUMPDEST ISZERO PUSH2 0x444E JUMPI JUMP JUMPDEST PUSH1 0x40 MLOAD PUSH3 0x461BCD PUSH1 0xE5 SHL DUP2 MSTORE PUSH1 0x20 PUSH1 0x4 DUP3 ADD MSTORE PUSH1 0xF PUSH1 0x24 DUP3 ADD MSTORE PUSH15 0x2A37B5B2B71034B990333937BD32B7 PUSH1 0x89 SHL PUSH1 0x44 DUP3 ADD MSTORE PUSH1 0x64 SWAP1 REVERT JUMPDEST ISZERO PUSH2 0x448C JUMPI JUMP JUMPDEST PUSH1 0x40 MLOAD PUSH3 0x461BCD PUSH1 0xE5 SHL DUP2 MSTORE PUSH1 0x20 PUSH1 0x4 DUP3 ADD MSTORE PUSH1 0xB PUSH1 0x24 DUP3 ADD MSTORE PUSH11 0x2BB937B7339031B430B4B7 PUSH1 0xA9 SHL PUSH1 0x44 DUP3 ADD MSTORE PUSH1 0x64 SWAP1 REVERT JUMPDEST ISZERO PUSH2 0x44C6 JUMPI JUMP JUMPDEST PUSH1 0x40 MLOAD PUSH3 0x461BCD PUSH1 0xE5 SHL DUP2 MSTORE PUSH1 0x20 PUSH1 0x4 DUP3 ADD MSTORE PUSH1 0x11 PUSH1 0x24 DUP3 ADD MSTORE PUSH17 0x10D85B5C185A59DB881C99599D5B991959 PUSH1 0x7A SHL PUSH1 0x44 DUP3 ADD MSTORE PUSH1 0x64 SWAP1 REVERT JUMPDEST ISZERO PUSH2 0x4506 JUMPI JUMP JUMPDEST PUSH1 0x40 MLOAD PUSH3 0x461BCD PUSH1 0xE5 SHL DUP2 MSTORE PUSH1 0x20 PUSH1 0x4 DUP3 ADD MSTORE PUSH1 0x10 PUSH1 0x24 DUP3 ADD MSTORE PUSH16 0x496E76616C6964207175616E74697479 PUSH1 0x80 SHL PUSH1 0x44 DUP3 ADD MSTORE PUSH1 0x64 SWAP1 REVERT JUMPDEST ISZERO PUSH2 0x4545 JUMPI JUMP JUMPDEST PUSH1 0x40 MLOAD PUSH3 0x461BCD PUSH1 0xE5 SHL DUP2 MSTORE PUSH1 0x20 PUSH1 0x4 DUP3 ADD MSTORE PUSH1 0x14 PUSH1 0x24 DUP3 ADD MSTORE PUSH20 0x45786365656473206D61782065646974696F6E73 PUSH1 0x60 SHL PUSH1 0x44 DUP3 ADD MSTORE PUSH1 0x64 SWAP1 REVERT JUMPDEST ISZERO PUSH2 0x4588 JUMPI JUMP JUMPDEST PUSH1 0x40 MLOAD PUSH3 0x461BCD PUSH1 0xE5 SHL DUP2 MSTORE PUSH1 0x20 PUSH1 0x4 DUP3 ADD MSTORE PUSH1 0x14 PUSH1 0x24 DUP3 ADD MSTORE PUSH20 0x125B9CDD59999A58DA595B9D081C185E5B595B9D PUSH1 0x62 SHL PUSH1 0x44 DUP3 ADD MSTORE PUSH1 0x64 SWAP1 REVERT JUMPDEST PUSH1 0x1 PUSH1 0x1 PUSH1 0x40 SHL SUB DUP2 GT PUSH2 0x10C2 JUMPI PUSH1 0x5 SHL PUSH1 0x20 ADD SWAP1 JUMP JUMPDEST SWAP1 PUSH2 0x45E5 DUP3 PUSH2 0x45C4 JUMP JUMPDEST PUSH2 0x45F2 PUSH1 0x40 MLOAD SWAP2 DUP3 PUSH2 0x3AFC JUMP JUMPDEST DUP3 DUP2 MSTORE DUP1 SWAP3 PUSH2 0x4603 PUSH1 0x1F NOT SWAP2 PUSH2 0x45C4 JUMP JUMPDEST ADD SWAP1 PUSH1 0x20 CALLDATASIZE SWAP2 ADD CALLDATACOPY JUMP JUMPDEST SWAP2 SWAP1 DUP3 SUB SWAP2 DUP3 GT PUSH2 0x436A JUMPI JUMP JUMPDEST DUP1 MLOAD DUP3 LT ISZERO PUSH2 0x3D1F JUMPI PUSH1 0x20 SWAP2 PUSH1 0x5 SHL ADD ADD SWAP1 JUMP JUMPDEST SWAP1 SWAP2 PUSH1 0x0 SWAP1 DUP3 DUP3 MSTORE PUSH1 0x20 SWAP2 PUSH1 0x18 DUP4 MSTORE PUSH1 0x40 SWAP1 DUP2 DUP2 KECCAK256 PUSH1 0xA DUP2 ADD PUSH2 0x465C PUSH1 0xFF DUP3 SLOAD PUSH2 0x827 DUP3 DUP3 PUSH1 0xA0 SHR AND PUSH2 0x43B3 JUMP JUMPDEST DUP8 ISZERO ISZERO DUP1 PUSH2 0x482E JUMPI JUMPDEST PUSH2 0x466E SWAP1 PUSH2 0x44FF JUMP JUMPDEST PUSH2 0x4689 PUSH1 0x7 DUP4 ADD SLOAD DUP1 ISZERO SWAP1 DUP2 ISZERO PUSH2 0x4816 JUMPI JUMPDEST POP SWAP9 SWAP4 SWAP9 PUSH2 0x453E JUMP JUMPDEST PUSH2 0x46A3 PUSH2 0x87B DUP7 PUSH2 0x469E DUP7 PUSH1 0x8 DUP8 ADD SLOAD PUSH2 0x4380 JUMP JUMPDEST PUSH2 0x435D JUMP JUMPDEST PUSH2 0x46AC DUP4 PUSH2 0x45DB JUMP JUMPDEST SWAP8 PUSH2 0x46B7 DUP7 CALLVALUE PUSH2 0x460D JUMP JUMPDEST SWAP4 PUSH2 0x46C2 DUP2 CALLVALUE PUSH2 0x4393 JUMP JUMPDEST PUSH1 0x1 SWAP3 SWAP1 PUSH1 0x6 DUP7 ADD SWAP1 DUP5 DUP8 ADD DUP4 DUP14 DUP16 JUMPDEST DUP8 DUP4 LT PUSH2 0x4774 JUMPI POP POP POP POP POP POP POP POP POP SWAP2 DUP2 PUSH1 0xFF PUSH1 0x80 SWAP7 SWAP5 PUSH1 0x3 PUSH1 0x0 DUP1 MLOAD PUSH1 0x20 PUSH2 0x5A15 DUP4 CODECOPY DUP2 MLOAD SWAP2 MSTORE SWAP10 SWAP8 SWAP6 ADD PUSH2 0x470A CALLVALUE DUP3 SLOAD PUSH2 0x435D JUMP JUMPDEST SWAP1 SSTORE PUSH1 0x5 DUP4 ADD PUSH2 0x471B DUP8 DUP3 SLOAD PUSH2 0x435D JUMP JUMPDEST SWAP1 SSTORE SLOAD PUSH1 0xB8 SHR AND DUP1 PUSH2 0x4765 JUMPI JUMPDEST ISZERO PUSH2 0x4750 JUMPI POP PUSH2 0x4739 DUP4 DUP3 DUP10 PUSH2 0x567D JUMP JUMPDEST DUP2 MLOAD SWAP4 CALLVALUE DUP6 MSTORE DUP5 ADD MSTORE DUP3 ADD MSTORE PUSH1 0x1 PUSH1 0x60 DUP3 ADD MSTORE LOG2 SWAP1 JUMP JUMPDEST PUSH1 0x4 ADD PUSH2 0x475E DUP3 DUP3 SLOAD PUSH2 0x435D JUMP JUMPDEST SWAP1 SSTORE PUSH2 0x4739 JUMP JUMPDEST POP PUSH1 0xFF PUSH1 0x17 SLOAD PUSH1 0x10 SHR AND PUSH2 0x4728 JUMP JUMPDEST DUP7 DUP16 SWAP3 DUP8 DUP16 SWAP4 DUP7 SWAP6 DUP9 DUP11 SWAP3 DUP16 SWAP10 PUSH1 0xF DUP10 DUP2 SLOAD SWAP10 DUP11 SWAP6 DUP7 SWAP4 PUSH2 0x4794 DUP6 PUSH2 0x4438 JUMP JUMPDEST SWAP1 SSTORE DUP10 SLOAD PUSH2 0x47A1 SWAP1 PUSH2 0x4438 JUMP JUMPDEST SWAP10 DUP11 SWAP1 SSTORE PUSH2 0x47AF DUP5 CALLER PUSH2 0x4D2F JUMP JUMPDEST PUSH2 0x47B8 SWAP1 PUSH2 0x3B1D JUMP JUMPDEST PUSH2 0x47C2 SWAP1 DUP5 PUSH2 0x4BBC JUMP JUMPDEST DUP3 DUP2 MSTORE PUSH1 0x19 DUP8 MSTORE DUP10 DUP3 DUP3 KECCAK256 SSTORE PUSH1 0x1A DUP8 MSTORE DUP9 DUP3 DUP3 KECCAK256 SSTORE DUP10 DUP2 MSTORE PUSH1 0x1B DUP8 MSTORE KECCAK256 SWAP1 PUSH2 0x47E9 SWAP2 PUSH2 0x3F42 JUMP JUMPDEST PUSH2 0x47F2 SWAP2 PUSH2 0x461A JUMP JUMPDEST MSTORE DUP6 MLOAD SWAP3 DUP4 MSTORE DUP3 ADD MSTORE CALLER SWAP4 PUSH1 0x0 DUP1 MLOAD PUSH1 0x20 PUSH2 0x59D5 DUP4 CODECOPY DUP2 MLOAD SWAP2 MSTORE SWAP2 LOG4 ADD DUP14 DUP16 PUSH2 0x46D2 JUMP JUMPDEST SWAP1 POP PUSH2 0x4826 DUP11 PUSH1 0x6 DUP7 ADD SLOAD PUSH2 0x435D JUMP JUMPDEST GT ISZERO CODESIZE PUSH2 0x4680 JUMP JUMPDEST POP PUSH1 0x32 DUP9 GT ISZERO PUSH2 0x4665 JUMP JUMPDEST ISZERO PUSH2 0x4840 JUMPI JUMP JUMPDEST PUSH1 0x40 MLOAD PUSH3 0x461BCD PUSH1 0xE5 SHL DUP2 MSTORE PUSH1 0x20 PUSH1 0x4 DUP3 ADD MSTORE PUSH1 0x11 PUSH1 0x24 DUP3 ADD MSTORE PUSH17 0x125B9D985B1A59081B9BDB9C1C9BD99A5D PUSH1 0x7A SHL PUSH1 0x44 DUP3 ADD MSTORE PUSH1 0x64 SWAP1 REVERT JUMPDEST ISZERO PUSH2 0x4880 JUMPI JUMP JUMPDEST PUSH1 0x40 MLOAD PUSH3 0x461BCD PUSH1 0xE5 SHL DUP2 MSTORE PUSH1 0x20 PUSH1 0x4 DUP3 ADD MSTORE PUSH1 0x11 PUSH1 0x24 DUP3 ADD MSTORE PUSH17 0x24B73B30B634B21039BAB136B4BA3A32B9 PUSH1 0x79 SHL PUSH1 0x44 DUP3 ADD MSTORE PUSH1 0x64 SWAP1 REVERT JUMPDEST PUSH1 0x1 PUSH1 0x1 PUSH1 0xA0 SHL SUB AND DUP1 ISZERO PUSH2 0x48D9 JUMPI PUSH1 0x0 MSTORE PUSH1 0x5 PUSH1 0x20 MSTORE PUSH1 0x40 PUSH1 0x0 KECCAK256 SLOAD SWAP1 JUMP JUMPDEST PUSH1 0x40 MLOAD PUSH4 0x22718AD9 PUSH1 0xE2 SHL DUP2 MSTORE PUSH1 0x0 PUSH1 0x4 DUP3 ADD MSTORE PUSH1 0x24 SWAP1 REVERT JUMPDEST RETURNDATASIZE ISZERO PUSH2 0x491D JUMPI RETURNDATASIZE SWAP1 PUSH2 0x4903 DUP3 PUSH2 0x3D67 JUMP JUMPDEST SWAP2 PUSH2 0x4911 PUSH1 0x40 MLOAD SWAP4 DUP5 PUSH2 0x3AFC JUMP JUMPDEST DUP3 MSTORE RETURNDATASIZE PUSH1 0x0 PUSH1 0x20 DUP5 ADD RETURNDATACOPY JUMP JUMPDEST PUSH1 0x60 SWAP1 JUMP JUMPDEST ISZERO PUSH2 0x4929 JUMPI JUMP JUMPDEST PUSH1 0x40 MLOAD PUSH3 0x461BCD PUSH1 0xE5 SHL DUP2 MSTORE PUSH1 0x20 PUSH1 0x4 DUP3 ADD MSTORE PUSH1 0xF PUSH1 0x24 DUP3 ADD MSTORE PUSH15 0x151C985B9CD9995C8819985A5B1959 PUSH1 0x8A SHL PUSH1 0x44 DUP3 ADD MSTORE PUSH1 0x64 SWAP1 REVERT JUMPDEST PUSH1 0x0 DUP2 DUP2 MSTORE PUSH1 0x4 PUSH1 0x20 MSTORE PUSH1 0x40 DUP2 KECCAK256 SLOAD SWAP1 SWAP3 SWAP1 PUSH2 0x4986 SWAP1 PUSH1 0x1 PUSH1 0x1 PUSH1 0xA0 SHL SUB AND ISZERO ISZERO PUSH2 0x3DF7 JUMP JUMPDEST DUP2 DUP4 MSTORE PUSH1 0x19 PUSH1 0x20 MSTORE DUP1 PUSH1 0x40 DUP5 KECCAK256 SSTORE DUP3 MSTORE PUSH1 0x1B PUSH1 0x20 MSTORE PUSH1 0x40 DUP3 KECCAK256 DUP1 SLOAD SWAP3 JUMPDEST DUP4 DUP2 LT PUSH2 0x49B5 JUMPI POP PUSH2 0x3B5F SWAP3 POP PUSH2 0x3F42 JUMP JUMPDEST DUP3 PUSH2 0x49C0 DUP3 DUP5 PUSH2 0x3D35 JUMP JUMPDEST SWAP1 SLOAD SWAP1 PUSH1 0x3 SHL SHR EQ PUSH2 0x49D4 JUMPI PUSH1 0x1 ADD PUSH2 0x49A3 JUMP JUMPDEST POP POP POP POP JUMP JUMPDEST PUSH1 0x0 DUP1 MLOAD PUSH1 0x20 PUSH2 0x5A15 DUP4 CODECOPY DUP2 MLOAD SWAP2 MSTORE PUSH1 0x80 PUSH1 0x0 SWAP4 DUP4 DUP6 MSTORE PUSH1 0x20 SWAP1 PUSH1 0x18 DUP3 MSTORE PUSH1 0x40 DUP6 DUP2 DUP9 KECCAK256 SWAP8 PUSH1 0xA DUP10 ADD SWAP9 PUSH2 0x4A19 PUSH1 0xFF DUP12 SLOAD PUSH2 0x827 DUP3 DUP3 PUSH1 0xA0 SHR AND PUSH2 0x43B3 JUMP JUMPDEST PUSH2 0x4A30 PUSH1 0x7 DUP3 ADD SLOAD DUP1 ISZERO SWAP1 DUP2 ISZERO PUSH2 0x4B47 JUMPI POP PUSH2 0x43F5 JUMP JUMPDEST PUSH2 0x4A41 PUSH2 0x87B DUP7 PUSH1 0x8 DUP5 ADD SLOAD PUSH2 0x435D JUMP JUMPDEST PUSH1 0xFF PUSH1 0xF SLOAD SWAP11 PUSH2 0x4A50 DUP13 PUSH2 0x4438 JUMP JUMPDEST PUSH1 0xF SSTORE PUSH2 0x4AAF DUP13 DUP8 PUSH1 0x6 DUP7 ADD SWAP7 PUSH2 0x4A67 DUP9 SLOAD PUSH2 0x4438 JUMP JUMPDEST DUP1 SWAP9 SSTORE PUSH2 0x4A74 DUP12 CALLVALUE PUSH2 0x460D JUMP JUMPDEST SWAP9 PUSH2 0x4A7F DUP5 CALLER PUSH2 0x4D2F JUMP JUMPDEST PUSH2 0x4A8E PUSH2 0x34B4 PUSH1 0x1 DUP11 ADD PUSH2 0x3B1D JUMP JUMPDEST DUP4 DUP3 MSTORE PUSH1 0x19 DUP14 MSTORE DUP1 DUP4 DUP4 KECCAK256 SSTORE PUSH1 0x1A DUP14 MSTORE DUP9 DUP4 DUP4 KECCAK256 SSTORE DUP2 MSTORE PUSH1 0x1B DUP13 MSTORE KECCAK256 PUSH2 0x3F42 JUMP JUMPDEST PUSH1 0x3 DUP4 ADD PUSH2 0x4ABE CALLVALUE DUP3 SLOAD PUSH2 0x435D JUMP JUMPDEST SWAP1 SSTORE PUSH1 0x5 DUP4 ADD PUSH2 0x4ACF DUP9 DUP3 SLOAD PUSH2 0x435D JUMP JUMPDEST SWAP1 SSTORE SLOAD PUSH1 0xB8 SHR AND DUP1 PUSH2 0x4B38 JUMPI JUMPDEST ISZERO PUSH2 0x4B23 JUMPI POP PUSH2 0x4AED DUP5 DUP4 DUP11 PUSH2 0x567D JUMP JUMPDEST DUP3 MLOAD SWAP1 DUP2 MSTORE CALLVALUE DUP6 DUP3 ADD MSTORE DUP9 DUP9 PUSH1 0x0 DUP1 MLOAD PUSH1 0x20 PUSH2 0x59D5 DUP4 CODECOPY DUP2 MLOAD SWAP2 MSTORE DUP6 CALLER SWAP5 LOG4 DUP2 MLOAD SWAP4 CALLVALUE DUP6 MSTORE DUP5 ADD MSTORE DUP3 ADD MSTORE PUSH1 0x1 PUSH1 0x60 DUP3 ADD MSTORE LOG2 SWAP1 JUMP JUMPDEST PUSH1 0x4 ADD PUSH2 0x4B31 DUP4 DUP3 SLOAD PUSH2 0x435D JUMP JUMPDEST SWAP1 SSTORE PUSH2 0x4AED JUMP JUMPDEST POP PUSH1 0xFF PUSH1 0x17 SLOAD PUSH1 0x10 SHR AND PUSH2 0x4ADC JUMP JUMPDEST SWAP1 POP PUSH1 0x6 DUP4 ADD SLOAD LT CODESIZE PUSH2 0xBBA JUMP JUMPDEST PUSH1 0xD SLOAD PUSH1 0x1 PUSH1 0x1 PUSH1 0xA0 SHL SUB AND CALLER SUB PUSH2 0x4B69 JUMPI JUMP JUMPDEST PUSH1 0x40 MLOAD PUSH4 0x118CDAA7 PUSH1 0xE0 SHL DUP2 MSTORE CALLER PUSH1 0x4 DUP3 ADD MSTORE PUSH1 0x24 SWAP1 REVERT JUMPDEST PUSH1 0x0 DUP2 DUP2 MSTORE PUSH1 0x4 PUSH1 0x20 MSTORE PUSH1 0x40 SWAP1 KECCAK256 SLOAD PUSH1 0x1 PUSH1 0x1 PUSH1 0xA0 SHL SUB AND SWAP1 DUP2 ISZERO PUSH2 0x4BA4 JUMPI POP SWAP1 JUMP JUMPDEST PUSH1 0x24 SWAP1 PUSH1 0x40 MLOAD SWAP1 PUSH4 0x7E273289 PUSH1 0xE0 SHL DUP3 MSTORE PUSH1 0x4 DUP3 ADD MSTORE REVERT JUMPDEST SWAP2 SWAP1 SWAP2 PUSH1 0x0 SWAP1 DUP1 DUP3 MSTORE PUSH1 0x20 SWAP2 PUSH1 0xC DUP4 MSTORE PUSH1 0x40 DUP2 KECCAK256 SWAP1 DUP6 MLOAD SWAP6 PUSH1 0x1 PUSH1 0x1 PUSH1 0x40 SHL SUB DUP8 GT PUSH2 0x4CD7 JUMPI PUSH2 0x4BF6 DUP8 PUSH2 0x4BF0 DUP6 SLOAD PUSH2 0x3A8C JUMP JUMPDEST DUP6 PUSH2 0x3EA0 JUMP JUMPDEST DUP5 SWAP2 PUSH1 0x1F DUP9 GT PUSH1 0x1 EQ PUSH2 0x4C53 JUMPI SWAP7 PUSH2 0x4C47 SWAP3 DUP2 SWAP3 PUSH32 0xF8E1A15ABA9398E019F0B49DF1A4FDE98EE17AE345CB5F6B5E2C27F5033E8CE7 SWAP9 SWAP10 SWAP3 PUSH2 0x18B2 JUMPI POP POP DUP2 PUSH1 0x1 SHL SWAP2 PUSH1 0x0 NOT SWAP1 PUSH1 0x3 SHL SHR NOT AND OR SWAP1 JUMP JUMPDEST SWAP1 SSTORE JUMPDEST PUSH1 0x40 MLOAD SWAP1 DUP2 MSTORE LOG1 JUMP JUMPDEST SWAP2 SWAP1 PUSH1 0x1F NOT DUP9 AND DUP5 DUP5 MSTORE DUP7 DUP5 KECCAK256 SWAP4 JUMPDEST DUP2 DUP2 LT PUSH2 0x4CC0 JUMPI POP SWAP2 PUSH1 0x1 SWAP4 SWAP2 DUP10 PUSH32 0xF8E1A15ABA9398E019F0B49DF1A4FDE98EE17AE345CB5F6B5E2C27F5033E8CE7 SWAP10 SWAP11 SWAP5 LT PUSH2 0x4CA7 JUMPI JUMPDEST POP POP POP DUP2 SHL ADD SWAP1 SSTORE PUSH2 0x4C4A JUMP JUMPDEST ADD MLOAD PUSH1 0x0 NOT PUSH1 0xF8 DUP5 PUSH1 0x3 SHL AND SHR NOT AND SWAP1 SSTORE CODESIZE DUP1 DUP1 PUSH2 0x4C9A JUMP JUMPDEST SWAP3 SWAP4 DUP8 PUSH1 0x1 DUP2 SWAP3 DUP8 DUP7 ADD MLOAD DUP2 SSTORE ADD SWAP6 ADD SWAP4 ADD PUSH2 0x4C62 JUMP JUMPDEST PUSH4 0x4E487B71 PUSH1 0xE0 SHL DUP3 MSTORE PUSH1 0x41 PUSH1 0x4 MSTORE PUSH1 0x24 DUP3 REVERT JUMPDEST PUSH1 0xFF PUSH1 0xD SLOAD PUSH1 0xA0 SHR AND PUSH2 0x4CFA JUMPI JUMP JUMPDEST PUSH1 0x40 MLOAD PUSH4 0xD93C0665 PUSH1 0xE0 SHL DUP2 MSTORE PUSH1 0x4 SWAP1 REVERT JUMPDEST PUSH1 0x2 PUSH1 0xE SLOAD EQ PUSH2 0x4D1D JUMPI PUSH1 0x2 PUSH1 0xE SSTORE JUMP JUMPDEST PUSH1 0x40 MLOAD PUSH4 0x3EE5AEB5 PUSH1 0xE0 SHL DUP2 MSTORE PUSH1 0x4 SWAP1 REVERT JUMPDEST PUSH1 0x40 DUP1 MLOAD SWAP1 PUSH2 0x4D3D DUP3 PUSH2 0x3AE1 JUMP JUMPDEST PUSH1 0x0 DUP1 DUP4 MSTORE PUSH1 0x1 PUSH1 0x1 PUSH1 0xA0 SHL SUB SWAP5 DUP5 DUP7 AND SWAP4 SWAP1 SWAP2 SWAP1 DUP5 ISZERO PUSH2 0x5138 JUMPI DUP3 DUP3 MSTORE PUSH1 0x4 SWAP6 PUSH1 0x20 SWAP8 DUP8 DUP10 MSTORE DUP1 DUP7 DUP6 KECCAK256 SLOAD AND DUP1 ISZERO ISZERO DUP1 PUSH2 0x5130 JUMPI JUMPDEST PUSH2 0x5030 JUMPI JUMPDEST POP DUP5 DUP5 MSTORE DUP8 DUP10 MSTORE DUP6 DUP5 KECCAK256 SLOAD AND DUP7 DUP2 ISZERO SWAP2 DUP3 ISZERO SWAP3 DUP4 PUSH2 0x4FFD JUMPI JUMPDEST DUP3 DUP8 MSTORE PUSH1 0x5 DUP13 MSTORE DUP9 DUP8 KECCAK256 DUP1 SLOAD PUSH1 0x1 ADD SWAP1 SSTORE DUP8 DUP8 MSTORE DUP11 DUP13 MSTORE DUP9 DUP8 KECCAK256 DUP1 SLOAD PUSH1 0x1 PUSH1 0x1 PUSH1 0xA0 SHL SUB NOT AND DUP5 OR SWAP1 SSTORE DUP8 DUP4 DUP4 PUSH32 0xDDF252AD1BE2C89B69C2B068FC378DAA952BA7F163C4A11628F55A4DF523B3EF DUP11 DUP1 LOG4 ISZERO PUSH2 0x4F7F JUMPI PUSH1 0xA SLOAD DUP8 DUP8 MSTORE PUSH1 0xB DUP13 MSTORE DUP9 DUP8 KECCAK256 SSTORE PUSH2 0x4DFE DUP8 PUSH2 0x3F06 JUMP JUMPDEST SUB PUSH2 0x4F33 JUMPI JUMPDEST PUSH2 0x4F1C JUMPI EXTCODESIZE PUSH2 0x4E17 JUMPI JUMPDEST POP POP POP POP POP POP POP JUMP JUMPDEST DUP7 PUSH2 0x4E54 SWAP2 DUP6 SWAP7 SWAP8 SWAP9 SWAP10 SWAP6 MLOAD DUP1 SWAP4 DUP2 SWAP3 PUSH4 0xA85BD01 PUSH1 0xE1 SHL SWAP8 DUP9 DUP5 MSTORE CALLER DUP14 DUP6 ADD MSTORE DUP8 PUSH1 0x24 DUP6 ADD MSTORE PUSH1 0x44 DUP5 ADD MSTORE PUSH1 0x80 PUSH1 0x64 DUP5 ADD MSTORE PUSH1 0x84 DUP4 ADD SWAP1 PUSH2 0x3A4C JUMP JUMPDEST SUB DUP2 DUP6 DUP11 GAS CALL SWAP1 DUP3 SWAP1 DUP3 PUSH2 0x4ED1 JUMPI JUMPDEST POP POP PUSH2 0x4E99 JUMPI POP POP POP PUSH2 0x4E74 PUSH2 0x48F2 JUMP JUMPDEST DUP1 MLOAD SWAP5 DUP6 PUSH2 0x4E93 JUMPI POP POP MLOAD PUSH4 0x32505749 PUSH1 0xE1 SHL DUP2 MSTORE SWAP2 DUP3 ADD MSTORE PUSH1 0x24 SWAP2 POP REVERT JUMPDEST DUP6 SWAP3 POP ADD REVERT JUMPDEST SWAP2 SWAP6 POP PUSH1 0x1 PUSH1 0x1 PUSH1 0xE0 SHL SUB NOT SWAP1 SWAP2 AND SUB PUSH2 0x4EBC JUMPI POP POP POP CODESIZE DUP1 DUP1 DUP1 DUP1 DUP1 DUP1 PUSH2 0x4E0E JUMP JUMPDEST MLOAD PUSH4 0x32505749 PUSH1 0xE1 SHL DUP2 MSTORE SWAP2 DUP3 ADD MSTORE PUSH1 0x24 SWAP2 POP REVERT JUMPDEST SWAP1 SWAP2 SWAP3 POP DUP9 DUP2 DUP2 RETURNDATASIZE DUP4 GT PUSH2 0x4F15 JUMPI JUMPDEST PUSH2 0x4EEA DUP2 DUP4 PUSH2 0x3AFC JUMP JUMPDEST DUP2 ADD SUB SLT PUSH2 0x4F11 JUMPI MLOAD SWAP1 PUSH1 0x1 PUSH1 0x1 PUSH1 0xE0 SHL SUB NOT DUP3 AND DUP3 SUB PUSH2 0x4F0E JUMPI POP SWAP1 CODESIZE DUP1 PUSH2 0x4E63 JUMP JUMPDEST DUP1 REVERT JUMPDEST POP DUP1 REVERT JUMPDEST POP RETURNDATASIZE PUSH2 0x4EE0 JUMP JUMPDEST DUP5 MLOAD PUSH4 0x39E35637 PUSH1 0xE1 SHL DUP2 MSTORE DUP1 DUP9 ADD DUP5 SWAP1 MSTORE PUSH1 0x24 SWAP1 REVERT JUMPDEST PUSH2 0x4F3C DUP3 PUSH2 0x48B9 JUMP JUMPDEST PUSH1 0x0 NOT DUP2 ADD SWAP1 DUP2 GT PUSH2 0x4F6C JUMPI DUP8 DUP6 MSTORE PUSH1 0x8 DUP11 MSTORE DUP7 DUP6 KECCAK256 DUP2 DUP7 MSTORE DUP11 MSTORE DUP6 DUP8 DUP7 KECCAK256 SSTORE DUP6 DUP6 MSTORE PUSH1 0x9 DUP11 MSTORE DUP7 DUP6 KECCAK256 SSTORE PUSH2 0x4E04 JUMP JUMPDEST PUSH4 0x4E487B71 PUSH1 0xE0 SHL DUP6 MSTORE PUSH1 0x11 DUP10 MSTORE PUSH1 0x24 DUP6 REVERT JUMPDEST DUP1 DUP3 EQ PUSH2 0x4DFE JUMPI PUSH2 0x4F8F DUP2 PUSH2 0x48B9 JUMP JUMPDEST DUP8 DUP8 MSTORE PUSH1 0x9 DUP13 MSTORE DUP9 DUP8 KECCAK256 SLOAD DUP2 DUP2 SUB PUSH2 0x4FC4 JUMPI JUMPDEST POP DUP8 DUP8 MSTORE DUP7 DUP10 DUP2 KECCAK256 SSTORE DUP2 DUP8 MSTORE PUSH1 0x8 DUP13 MSTORE DUP9 DUP8 KECCAK256 SWAP1 DUP8 MSTORE DUP12 MSTORE DUP6 DUP9 DUP2 KECCAK256 SSTORE PUSH2 0x4DFE JUMP JUMPDEST DUP3 DUP9 MSTORE PUSH1 0x8 DUP14 MSTORE DUP10 DUP9 KECCAK256 DUP3 DUP10 MSTORE DUP14 MSTORE DUP13 PUSH1 0x8 DUP12 DUP11 KECCAK256 SLOAD SWAP2 DUP6 DUP12 MSTORE MSTORE DUP14 DUP12 DUP11 KECCAK256 SWAP1 DUP4 DUP12 MSTORE MSTORE DUP1 DUP12 DUP11 KECCAK256 SSTORE DUP9 MSTORE PUSH1 0x9 DUP14 MSTORE DUP10 DUP9 KECCAK256 SSTORE CODESIZE PUSH2 0x4FA2 JUMP JUMPDEST PUSH1 0x0 DUP9 DUP2 MSTORE PUSH1 0x6 PUSH1 0x20 MSTORE PUSH1 0x40 SWAP1 KECCAK256 DUP1 SLOAD PUSH1 0x1 PUSH1 0x1 PUSH1 0xA0 SHL SUB NOT AND SWAP1 SSTORE DUP2 DUP8 MSTORE PUSH1 0x5 DUP13 MSTORE DUP9 DUP8 KECCAK256 DUP1 SLOAD PUSH1 0x0 NOT ADD SWAP1 SSTORE PUSH2 0x4D91 JUMP JUMPDEST PUSH1 0x14 DUP11 MSTORE PUSH2 0x5044 PUSH1 0xFF DUP9 DUP8 KECCAK256 SLOAD AND ISZERO PUSH2 0x4447 JUMP JUMPDEST DUP6 DUP6 MSTORE PUSH1 0x16 DUP11 MSTORE PUSH1 0xFF DUP8 DUP7 KECCAK256 SLOAD AND PUSH2 0x50F8 JUMPI DUP5 MSTORE PUSH1 0x15 DUP10 MSTORE PUSH1 0xFF DUP7 DUP6 KECCAK256 SLOAD AND PUSH2 0x50BD JUMPI DUP7 DUP5 MSTORE PUSH1 0x15 DUP10 MSTORE PUSH1 0xFF DUP7 DUP6 KECCAK256 SLOAD AND PUSH2 0x507F JUMPI CODESIZE PUSH2 0x4D78 JUMP JUMPDEST DUP6 MLOAD PUSH3 0x461BCD PUSH1 0xE5 SHL DUP2 MSTORE DUP1 DUP10 ADD DUP11 SWAP1 MSTORE PUSH1 0x18 PUSH1 0x24 DUP3 ADD MSTORE PUSH24 0x149958DA5C1A595B9D081A5CC8189B1858DADB1A5CDD1959 PUSH1 0x42 SHL PUSH1 0x44 DUP3 ADD MSTORE PUSH1 0x64 SWAP1 REVERT JUMPDEST DUP6 MLOAD PUSH3 0x461BCD PUSH1 0xE5 SHL DUP2 MSTORE DUP1 DUP10 ADD DUP11 SWAP1 MSTORE PUSH1 0x15 PUSH1 0x24 DUP3 ADD MSTORE PUSH21 0x14D95B99195C881A5CC8189B1858DADB1A5CDD1959 PUSH1 0x5A SHL PUSH1 0x44 DUP3 ADD MSTORE PUSH1 0x64 SWAP1 REVERT JUMPDEST DUP7 MLOAD PUSH3 0x461BCD PUSH1 0xE5 SHL DUP2 MSTORE DUP1 DUP11 ADD DUP12 SWAP1 MSTORE PUSH1 0x12 PUSH1 0x24 DUP3 ADD MSTORE PUSH18 0x151BDAD95B881A5CC81CDBDD5B189BDD5B99 PUSH1 0x72 SHL PUSH1 0x44 DUP3 ADD MSTORE PUSH1 0x64 SWAP1 REVERT JUMPDEST POP PUSH1 0x1 PUSH2 0x4D73 JUMP JUMPDEST DUP4 MLOAD PUSH4 0x32505749 PUSH1 0xE1 SHL DUP2 MSTORE PUSH1 0x4 DUP2 ADD DUP4 SWAP1 MSTORE PUSH1 0x24 SWAP1 REVERT JUMPDEST PUSH1 0x0 SWAP1 DUP1 DUP3 MSTORE PUSH1 0x4 SWAP2 PUSH1 0x20 SWAP1 DUP4 DUP3 MSTORE PUSH1 0x1 DUP1 PUSH1 0xA0 SHL SUB SWAP2 PUSH1 0x40 SWAP3 DUP1 DUP5 DUP5 KECCAK256 SLOAD AND DUP1 ISZERO ISZERO DUP1 PUSH2 0x545C JUMPI JUMPDEST PUSH2 0x535C JUMPI JUMPDEST POP DUP5 DUP4 MSTORE DUP6 DUP3 MSTORE DUP4 DUP4 KECCAK256 SLOAD AND SWAP2 DUP3 ISZERO SWAP3 DUP4 ISZERO DUP1 PUSH2 0x5329 JUMPI JUMPDEST DUP7 DUP4 MSTORE DUP8 DUP5 MSTORE DUP6 DUP4 KECCAK256 DUP1 SLOAD PUSH1 0x1 PUSH1 0x1 PUSH1 0xA0 SHL SUB NOT AND SWAP1 SSTORE DUP7 DUP4 DUP4 PUSH32 0xDDF252AD1BE2C89B69C2B068FC378DAA952BA7F163C4A11628F55A4DF523B3EF DUP3 DUP1 LOG4 DUP5 ISZERO PUSH2 0x52A8 JUMPI POP POP PUSH1 0xA SLOAD DUP6 DUP3 MSTORE PUSH1 0xB DUP4 MSTORE DUP5 DUP3 KECCAK256 SSTORE PUSH2 0x51F3 DUP6 PUSH2 0x3F06 JUMP JUMPDEST PUSH1 0xA SLOAD PUSH1 0x0 NOT SWAP3 DUP4 DUP3 ADD SWAP2 DUP3 GT PUSH2 0x5295 JUMPI PUSH1 0xB SWAP1 DUP8 DUP5 MSTORE DUP2 DUP2 MSTORE PUSH2 0x521A DUP8 DUP6 KECCAK256 SLOAD SWAP4 PUSH2 0x3CE8 JUMP JUMPDEST SWAP1 SLOAD SWAP1 PUSH1 0x3 SHL SHR PUSH2 0x522E DUP2 PUSH2 0x3F29 DUP7 PUSH2 0x3CE8 JUMP JUMPDEST DUP5 MSTORE MSTORE DUP5 DUP3 KECCAK256 SSTORE DUP5 DUP2 MSTORE DUP1 DUP5 DUP2 KECCAK256 SSTORE PUSH1 0xA SLOAD SWAP1 DUP2 ISZERO PUSH2 0x5282 JUMPI POP DUP2 ADD SWAP1 PUSH2 0x5254 DUP3 PUSH2 0x3CE8 JUMP JUMPDEST SWAP1 SWAP2 DUP3 SLOAD SWAP2 PUSH1 0x3 SHL SHL NOT AND SWAP1 SSTORE PUSH1 0xA SSTORE PUSH2 0x526D JUMPI POP POP POP JUMP JUMPDEST MLOAD PUSH4 0x7E273289 PUSH1 0xE0 SHL DUP2 MSTORE SWAP2 DUP3 ADD MSTORE PUSH1 0x24 SWAP2 POP REVERT JUMPDEST PUSH4 0x4E487B71 PUSH1 0xE0 SHL DUP2 MSTORE PUSH1 0x31 DUP8 MSTORE PUSH1 0x24 SWAP1 REVERT JUMPDEST PUSH4 0x4E487B71 PUSH1 0xE0 SHL DUP4 MSTORE PUSH1 0x11 DUP9 MSTORE PUSH1 0x24 DUP4 REVERT JUMPDEST PUSH2 0x52B3 JUMPI JUMPDEST POP PUSH2 0x51F3 JUMP JUMPDEST PUSH2 0x52BC DUP2 PUSH2 0x48B9 JUMP JUMPDEST SWAP1 DUP7 DUP4 MSTORE PUSH1 0x9 DUP5 MSTORE DUP6 DUP4 KECCAK256 SLOAD DUP3 DUP2 SUB PUSH2 0x52F2 JUMPI JUMPDEST POP DUP7 DUP4 MSTORE DUP3 DUP7 DUP2 KECCAK256 SSTORE DUP3 MSTORE PUSH1 0x8 DUP4 MSTORE DUP5 DUP3 KECCAK256 SWAP1 DUP3 MSTORE DUP3 MSTORE DUP1 DUP5 DUP2 KECCAK256 SSTORE CODESIZE PUSH2 0x52AD JUMP JUMPDEST DUP2 DUP5 MSTORE PUSH1 0x8 DUP6 MSTORE DUP7 DUP5 KECCAK256 DUP4 DUP6 MSTORE DUP6 MSTORE DUP7 DUP5 KECCAK256 SLOAD DUP3 DUP6 MSTORE PUSH1 0x8 DUP7 MSTORE DUP8 DUP6 KECCAK256 DUP3 DUP7 MSTORE DUP7 MSTORE DUP1 DUP9 DUP7 KECCAK256 SSTORE DUP5 MSTORE PUSH1 0x9 DUP6 MSTORE DUP7 DUP5 KECCAK256 SSTORE CODESIZE PUSH2 0x52D0 JUMP JUMPDEST PUSH1 0x0 DUP8 DUP2 MSTORE PUSH1 0x6 PUSH1 0x20 MSTORE PUSH1 0x40 SWAP1 KECCAK256 DUP1 SLOAD PUSH1 0x1 PUSH1 0x1 PUSH1 0xA0 SHL SUB NOT AND SWAP1 SSTORE DUP2 DUP4 MSTORE PUSH1 0x5 DUP5 MSTORE DUP6 DUP4 KECCAK256 DUP1 SLOAD PUSH1 0x0 NOT ADD SWAP1 SSTORE PUSH2 0x5196 JUMP JUMPDEST PUSH1 0x14 DUP4 MSTORE PUSH2 0x5370 PUSH1 0xFF DUP7 DUP7 KECCAK256 SLOAD AND ISZERO PUSH2 0x4447 JUMP JUMPDEST DUP6 DUP5 MSTORE PUSH1 0x16 DUP4 MSTORE PUSH1 0xFF DUP6 DUP6 KECCAK256 SLOAD AND PUSH2 0x5424 JUMPI DUP4 MSTORE PUSH1 0x15 DUP3 MSTORE PUSH1 0xFF DUP5 DUP5 KECCAK256 SLOAD AND PUSH2 0x53E9 JUMPI DUP3 DUP1 MSTORE PUSH1 0x15 DUP3 MSTORE PUSH1 0xFF DUP5 DUP5 KECCAK256 SLOAD AND PUSH2 0x53AB JUMPI CODESIZE PUSH2 0x517E JUMP JUMPDEST DUP4 MLOAD PUSH3 0x461BCD PUSH1 0xE5 SHL DUP2 MSTORE DUP1 DUP8 ADD DUP4 SWAP1 MSTORE PUSH1 0x18 PUSH1 0x24 DUP3 ADD MSTORE PUSH24 0x149958DA5C1A595B9D081A5CC8189B1858DADB1A5CDD1959 PUSH1 0x42 SHL PUSH1 0x44 DUP3 ADD MSTORE PUSH1 0x64 SWAP1 REVERT JUMPDEST DUP4 MLOAD PUSH3 0x461BCD PUSH1 0xE5 SHL DUP2 MSTORE DUP1 DUP8 ADD DUP4 SWAP1 MSTORE PUSH1 0x15 PUSH1 0x24 DUP3 ADD MSTORE PUSH21 0x14D95B99195C881A5CC8189B1858DADB1A5CDD1959 PUSH1 0x5A SHL PUSH1 0x44 DUP3 ADD MSTORE PUSH1 0x64 SWAP1 REVERT JUMPDEST DUP5 MLOAD PUSH3 0x461BCD PUSH1 0xE5 SHL DUP2 MSTORE DUP1 DUP9 ADD DUP5 SWAP1 MSTORE PUSH1 0x12 PUSH1 0x24 DUP3 ADD MSTORE PUSH18 0x151BDAD95B881A5CC81CDBDD5B189BDD5B99 PUSH1 0x72 SHL PUSH1 0x44 DUP3 ADD MSTORE PUSH1 0x64 SWAP1 REVERT JUMPDEST POP DUP4 PUSH2 0x5179 JUMP JUMPDEST PUSH1 0x0 SWAP2 DUP2 DUP4 MSTORE PUSH1 0x20 SWAP3 PUSH1 0x18 DUP5 MSTORE PUSH1 0x40 DUP1 DUP3 KECCAK256 PUSH2 0x2710 PUSH2 0x5488 PUSH2 0xFFFF PUSH1 0x17 SLOAD AND DUP7 PUSH2 0x4380 JUMP JUMPDEST DIV SWAP1 PUSH2 0x54B5 DUP3 PUSH2 0x5498 DUP2 DUP9 PUSH2 0x460D JUMP JUMPDEST SWAP7 DUP9 DUP8 MSTORE PUSH1 0x1C DUP11 MSTORE DUP6 DUP8 KECCAK256 PUSH2 0x54AE DUP3 DUP3 SLOAD PUSH2 0x435D JUMP JUMPDEST SWAP1 SSTORE PUSH2 0x460D JUMP JUMPDEST PUSH2 0x54C4 PUSH1 0x4 DUP4 ADD SWAP2 DUP3 SLOAD PUSH2 0x435D JUMP JUMPDEST SWAP1 SSTORE DUP2 PUSH2 0x55DB JUMPI JUMPDEST DUP5 PUSH2 0x550B JUMPI JUMPDEST PUSH1 0xA ADD SLOAD DUP3 MLOAD SWAP5 DUP6 MSTORE SWAP6 DUP5 ADD MSTORE DUP3 ADD DUP2 SWAP1 MSTORE PUSH1 0x60 DUP3 ADD MSTORE PUSH1 0x1 PUSH1 0x1 PUSH1 0xA0 SHL SUB SWAP1 SWAP3 AND SWAP2 PUSH1 0x0 DUP1 MLOAD PUSH1 0x20 PUSH2 0x5A35 DUP4 CODECOPY DUP2 MLOAD SWAP2 MSTORE SWAP1 PUSH1 0x80 SWAP1 LOG3 JUMP JUMPDEST PUSH1 0xA DUP2 ADD PUSH1 0x1 DUP1 PUSH1 0xA0 SHL SUB SWAP1 DUP6 DUP1 DUP1 DUP1 DUP11 DUP7 DUP7 SLOAD AND GAS CALL PUSH2 0x552A PUSH2 0x48F2 JUMP JUMPDEST POP ISZERO PUSH2 0x559B JUMPI SWAP3 DUP6 SWAP4 SWAP3 PUSH1 0x0 DUP1 MLOAD PUSH1 0x20 PUSH2 0x5A35 DUP4 CODECOPY DUP2 MLOAD SWAP2 MSTORE SWAP8 SWAP6 SWAP3 PUSH1 0x80 SWAP8 SWAP5 SLOAD AND DUP10 PUSH1 0x0 DUP1 MLOAD PUSH1 0x20 PUSH2 0x59B5 DUP4 CODECOPY DUP2 MLOAD SWAP2 MSTORE DUP13 DUP7 DUP1 MLOAD SWAP2 DUP12 DUP4 MSTORE DUP3 ADD MSTORE DUP1 PUSH2 0x558B DUP9 DUP3 ADD PUSH1 0x40 SWAP1 PUSH1 0x9 DUP2 MSTORE PUSH9 0x39BAB136B4BA3A32B9 PUSH1 0xB9 SHL PUSH1 0x20 DUP3 ADD MSTORE ADD SWAP1 JUMP JUMPDEST SUB SWAP1 LOG3 SWAP3 POP SWAP3 SWAP5 POP SWAP3 SWAP5 POP PUSH2 0x54D2 JUMP JUMPDEST DUP5 MLOAD PUSH3 0x461BCD PUSH1 0xE5 SHL DUP2 MSTORE PUSH1 0x4 DUP2 ADD DUP11 SWAP1 MSTORE PUSH1 0x19 PUSH1 0x24 DUP3 ADD MSTORE PUSH25 0x14DD589B5A5D1D195C881D1C985B9CD9995C8819985A5B1959 PUSH1 0x3A SHL PUSH1 0x44 DUP3 ADD MSTORE PUSH1 0x64 SWAP1 REVERT JUMPDEST PUSH1 0x1 DUP1 PUSH1 0xA0 SHL SUB DUP5 DUP1 DUP1 DUP1 DUP7 DUP6 PUSH1 0x11 SLOAD AND GAS CALL PUSH2 0x55F6 PUSH2 0x48F2 JUMP JUMPDEST POP ISZERO PUSH2 0x5639 JUMPI PUSH1 0x11 SLOAD AND DUP7 PUSH1 0x0 DUP1 MLOAD PUSH1 0x20 PUSH2 0x59B5 DUP4 CODECOPY DUP2 MLOAD SWAP2 MSTORE PUSH1 0x80 DUP7 MLOAD DUP7 DUP2 MSTORE DUP8 DUP13 DUP3 ADD MSTORE PUSH1 0x8 DUP9 DUP3 ADD MSTORE PUSH8 0x706C6174666F726D PUSH1 0xC0 SHL PUSH1 0x60 DUP3 ADD MSTORE LOG3 PUSH2 0x54CC JUMP JUMPDEST DUP4 MLOAD PUSH3 0x461BCD PUSH1 0xE5 SHL DUP2 MSTORE PUSH1 0x4 DUP2 ADD DUP10 SWAP1 MSTORE PUSH1 0x1C PUSH1 0x24 DUP3 ADD MSTORE PUSH32 0x506C6174666F726D20666565207472616E73666572206661696C656400000000 PUSH1 0x44 DUP3 ADD MSTORE PUSH1 0x64 SWAP1 REVERT JUMPDEST SWAP1 PUSH1 0x0 SWAP3 DUP3 DUP5 MSTORE PUSH1 0x20 SWAP4 PUSH1 0x18 DUP6 MSTORE PUSH1 0x40 DUP1 DUP3 KECCAK256 PUSH2 0x2710 PUSH2 0x56A3 PUSH2 0xFFFF PUSH1 0x17 SLOAD AND DUP8 PUSH2 0x4380 JUMP JUMPDEST DIV SWAP1 PUSH2 0x56D7 DUP3 PUSH2 0x56B7 DUP8 PUSH2 0x469E DUP4 DUP12 PUSH2 0x460D JUMP JUMPDEST SWAP8 PUSH2 0x56C2 DUP9 DUP3 PUSH2 0x435D JUMP JUMPDEST DUP11 DUP9 MSTORE PUSH1 0x1C DUP13 MSTORE PUSH2 0x54AE DUP8 DUP10 KECCAK256 SWAP2 DUP3 SLOAD PUSH2 0x435D JUMP JUMPDEST PUSH2 0x56E6 PUSH1 0x4 DUP4 ADD SWAP2 DUP3 SLOAD PUSH2 0x435D JUMP JUMPDEST SWAP1 SSTORE DUP2 PUSH2 0x57FA JUMPI JUMPDEST DUP6 PUSH2 0x572B JUMPI JUMPDEST PUSH1 0xA ADD SLOAD DUP3 MLOAD SWAP6 DUP7 MSTORE SWAP7 DUP6 ADD MSTORE DUP4 ADD MSTORE PUSH1 0x60 DUP3 ADD MSTORE PUSH1 0x1 PUSH1 0x1 PUSH1 0xA0 SHL SUB SWAP1 SWAP3 AND SWAP2 PUSH1 0x0 DUP1 MLOAD PUSH1 0x20 PUSH2 0x5A35 DUP4 CODECOPY DUP2 MLOAD SWAP2 MSTORE SWAP1 PUSH1 0x80 SWAP1 LOG3 JUMP JUMPDEST PUSH1 0xA DUP2 ADD PUSH1 0x1 DUP1 PUSH1 0xA0 SHL SUB SWAP1 DUP6 DUP1 DUP1 DUP1 DUP12 DUP7 DUP7 SLOAD AND GAS CALL PUSH2 0x574A PUSH2 0x48F2 JUMP JUMPDEST POP ISZERO PUSH2 0x57BA JUMPI SWAP2 PUSH1 0x0 DUP1 MLOAD PUSH1 0x20 PUSH2 0x5A35 DUP4 CODECOPY DUP2 MLOAD SWAP2 MSTORE SWAP8 SWAP6 SWAP4 SWAP2 PUSH1 0x80 SWAP8 SWAP6 SWAP4 SLOAD AND DUP10 PUSH1 0x0 DUP1 MLOAD PUSH1 0x20 PUSH2 0x59B5 DUP4 CODECOPY DUP2 MLOAD SWAP2 MSTORE DUP13 DUP7 DUP1 MLOAD SWAP2 DUP12 DUP4 MSTORE DUP3 ADD MSTORE DUP1 PUSH2 0x57AA DUP9 DUP3 ADD PUSH1 0x40 SWAP1 PUSH1 0x9 DUP2 MSTORE PUSH9 0x39BAB136B4BA3A32B9 PUSH1 0xB9 SHL PUSH1 0x20 DUP3 ADD MSTORE ADD SWAP1 JUMP JUMPDEST SUB SWAP1 LOG3 SWAP2 SWAP4 SWAP6 POP SWAP2 SWAP4 SWAP6 POP PUSH2 0x56F4 JUMP JUMPDEST DUP5 MLOAD PUSH3 0x461BCD PUSH1 0xE5 SHL DUP2 MSTORE PUSH1 0x4 DUP2 ADD DUP12 SWAP1 MSTORE PUSH1 0x19 PUSH1 0x24 DUP3 ADD MSTORE PUSH25 0x14DD589B5A5D1D195C881D1C985B9CD9995C8819985A5B1959 PUSH1 0x3A SHL PUSH1 0x44 DUP3 ADD MSTORE PUSH1 0x64 SWAP1 REVERT JUMPDEST PUSH1 0x1 DUP1 PUSH1 0xA0 SHL SUB DUP5 DUP1 DUP1 DUP1 DUP7 DUP6 PUSH1 0x11 SLOAD AND GAS CALL PUSH2 0x5815 PUSH2 0x48F2 JUMP JUMPDEST POP ISZERO PUSH2 0x5858 JUMPI PUSH1 0x11 SLOAD AND DUP8 PUSH1 0x0 DUP1 MLOAD PUSH1 0x20 PUSH2 0x59B5 DUP4 CODECOPY DUP2 MLOAD SWAP2 MSTORE PUSH1 0x80 DUP7 MLOAD DUP7 DUP2 MSTORE DUP8 DUP14 DUP3 ADD MSTORE PUSH1 0x8 DUP9 DUP3 ADD MSTORE PUSH8 0x706C6174666F726D PUSH1 0xC0 SHL PUSH1 0x60 DUP3 ADD MSTORE LOG3 PUSH2 0x56EE JUMP JUMPDEST DUP4 MLOAD PUSH3 0x461BCD PUSH1 0xE5 SHL DUP2 MSTORE PUSH1 0x4 DUP2 ADD DUP11 SWAP1 MSTORE PUSH1 0x1C PUSH1 0x24 DUP3 ADD MSTORE PUSH32 0x506C6174666F726D20666565207472616E73666572206661696C656400000000 PUSH1 0x44 DUP3 ADD MSTORE PUSH1 0x64 SWAP1 REVERT JUMPDEST SWAP2 SWAP1 DUP1 EXTCODESIZE PUSH2 0x58AA JUMPI POP POP POP POP JUMP JUMPDEST PUSH2 0x58EC PUSH1 0x1 DUP1 PUSH1 0xA0 SHL SUB DUP1 SWAP3 AND SWAP5 PUSH1 0x40 MLOAD SWAP4 DUP5 SWAP4 PUSH4 0xA85BD01 PUSH1 0xE1 SHL SWAP7 DUP8 DUP7 MSTORE CALLER PUSH1 0x4 DUP8 ADD MSTORE AND PUSH1 0x24 DUP6 ADD MSTORE PUSH1 0x44 DUP5 ADD MSTORE PUSH1 0x80 PUSH1 0x64 DUP5 ADD MSTORE PUSH1 0x84 DUP4 ADD SWAP1 PUSH2 0x3A4C JUMP JUMPDEST SUB SWAP1 PUSH1 0x20 DUP2 PUSH1 0x0 SWAP4 DUP2 DUP6 DUP9 GAS CALL SWAP1 DUP3 SWAP1 DUP3 PUSH2 0x596B JUMPI JUMPDEST POP POP PUSH2 0x593A JUMPI DUP3 PUSH2 0x5911 PUSH2 0x48F2 JUMP JUMPDEST DUP1 MLOAD SWAP2 SWAP1 DUP3 PUSH2 0x5933 JUMPI PUSH1 0x40 MLOAD PUSH4 0x32505749 PUSH1 0xE1 SHL DUP2 MSTORE PUSH1 0x4 DUP2 ADD DUP4 SWAP1 MSTORE PUSH1 0x24 SWAP1 REVERT JUMPDEST SWAP1 POP PUSH1 0x20 ADD REVERT JUMPDEST PUSH1 0x1 PUSH1 0x1 PUSH1 0xE0 SHL SUB NOT AND SUB PUSH2 0x5953 JUMPI POP CODESIZE DUP1 DUP1 DUP1 PUSH2 0x49D4 JUMP JUMPDEST PUSH1 0x24 SWAP1 PUSH1 0x40 MLOAD SWAP1 PUSH4 0x32505749 PUSH1 0xE1 SHL DUP3 MSTORE PUSH1 0x4 DUP3 ADD MSTORE REVERT JUMPDEST SWAP1 SWAP2 SWAP3 POP PUSH1 0x20 DUP2 RETURNDATASIZE PUSH1 0x20 GT PUSH2 0x59AC JUMPI JUMPDEST DUP2 PUSH2 0x5988 PUSH1 0x20 SWAP4 DUP4 PUSH2 0x3AFC JUMP JUMPDEST DUP2 ADD SUB SLT PUSH2 0x4F11 JUMPI MLOAD SWAP1 PUSH1 0x1 PUSH1 0x1 PUSH1 0xE0 SHL SUB NOT DUP3 AND DUP3 SUB PUSH2 0x4F0E JUMPI POP SWAP1 CODESIZE DUP1 PUSH2 0x5902 JUMP JUMPDEST RETURNDATASIZE SWAP2 POP PUSH2 0x597B JUMP INVALID 0xC5 GT PUSH14 0xBFF033DAA6DB9B6CF401237EF4F DUP6 LOG0 0xA6 0xCB 0xE3 0x2B 0xFB MSTORE8 0xD1 DUP10 0xB3 0xE6 0xC4 0xBA 0xD6 PREVRANDAO 0xA7 CALLVALUE 0x22 DUP9 EXTCODEHASH 0xD5 0xAA 0xC8 0xDD 0xE6 0xEF CALLDATASIZE DUP9 0xC6 0x2F 0x25 LOG4 0xFB 0x22 0xE7 LOG3 SWAP6 0xBA 0xFB COINBASE 0x1E 0xC4 DUP1 GASPRICE 0xB1 0xBD PUSH27 0x9A4F151CC0B6349BD7062416B8F68D1D73C3F457EFC221520EB554 PUSH22 0x95D2D8F1A038A86C47446D2A26B7852348EEE74E6D63 0xD5 0xA7 OR SWAP3 0xDF ADD 0xE4 0xC 0x2E PUSH14 0xE1CA21459509071E134F17A1632 DUP10 0xD2 0x28 PUSH7 0x72B4E8C1AF62C9 0xCD 0xD2 0x2E 0xAB 0xDC PUSH12 0xEE9217F3A264697066735822 SLT KECCAK256 GASLIMIT PUSH9 0x3DDFEACC8388EAFFF2 RETURN PUSH20 0xF7F91D301F443A888FFBC66B48166D750599C964 PUSH20 0x6F6C634300081800330000000000000000000000 "},"methodIdentifiers":{"BPS_DENOMINATOR()":"e1a45218","MAX_BATCH_SIZE()":"cfdbf254","MAX_FEE_BPS()":"d55be8c6","adminBurn(uint256)":"badb97ff","approve(address,uint256)":"095ea7b3","balanceOf(address)":"70a08231","batchFixTokenCampaignLink(uint256[],uint256)":"1e2b8983","batchFreezeTokens(uint256[],bool)":"4639cfaa","batchSetTokenURI(uint256[],string)":"8f52d21a","blacklistAddress(address)":"f3290d75","blacklisted(address)":"dbac26e9","bugBountyPool()":"5049e52f","burn(uint256)":"42966c68","campaignDistributed(uint256)":"573a2427","campaignEditions(uint256,uint256)":"407de9df","campaigns(uint256)":"141961bc","closeCampaign(uint256)":"b0e1c1e1","createCampaign(string,string,uint256,uint256,uint256,address,address,bool)":"9b640d43","deactivateCampaign(uint256)":"7eca30fe","defaultRoyaltyBps()":"18d33e41","deleteDefaultRoyalty()":"aa1b103f","deploymentChainId()":"cd0d0096","distributePendingFunds(uint256)":"57487aa5","emergencyWithdraw()":"db2e21bc","emitBatchMetadataUpdate(uint256,uint256)":"a4830114","emitMetadataUpdate(uint256)":"3190b9ea","feeConfig()":"1e5eb1d0","fixTokenCampaignLink(uint256,uint256)":"96ab0493","freezeToken(uint256)":"b6854f96","frozenTokens(uint256)":"f401f8a0","fundBugBountyPool()":"4cbdbfa9","getApproved(uint256)":"081812fc","getCampaign(uint256)":"5598f8cc","getCampaignEditions(uint256)":"3705f2a8","getEditionInfo(uint256)":"8079ca0c","getFeeConfig()":"5fbbc0d2","isApprovedForAll(address,address)":"e985e9c5","makeSoulbound(uint256)":"a591eea1","markCampaignRefunded(uint256)":"a0a441bb","mintBatchWithBDAG(uint256,uint256)":"8e20f98c","mintBatchWithBDAGAndTip(uint256,uint256,uint256)":"4db7bfff","mintBatchWithImmediatePayout(uint256,uint256)":"e2ec62f9","mintBatchWithImmediatePayoutAndTip(uint256,uint256,uint256)":"49942b0f","mintEditionToDonor(uint256,address,uint256)":"2a76d553","mintWithBDAG(uint256)":"d88d6ef3","mintWithBDAGAndTip(uint256,uint256)":"1797c8f2","mintWithImmediatePayout(uint256)":"80b2f18d","mintWithImmediatePayoutAndTip(uint256,uint256)":"eb4d68fd","name()":"06fdde03","owner()":"8da5cb5b","ownerOf(uint256)":"6352211e","pause()":"8456cb59","paused()":"5c975abb","payBugBounty(address,uint256,string)":"8583d7c0","platformTreasury()":"e138818c","reactivateCampaign(uint256)":"1fdc217c","recordContribution(uint256,uint256,uint256,uint256,bool)":"25532ecd","removeBlacklist(address)":"eb91e651","removeSoulbound(uint256)":"47c735fc","renounceOwnership()":"715018a6","reopenCampaign(uint256)":"c9d5084c","royaltyInfo(uint256,uint256)":"2a55205a","safeTransferFrom(address,address,uint256)":"42842e0e","safeTransferFrom(address,address,uint256,bytes)":"b88d4fde","setApprovalForAll(address,bool)":"a22cb465","setCampaignImmediatePayout(uint256,bool)":"15e5b793","setDefaultRoyalty(address,uint96)":"04634d8d","setFeeConfig(uint16,bool)":"d83b4f99","setPlatformTreasury(address)":"7cd86d60","setTokenRoyalty(uint256,address,uint96)":"5944c753","setTokenURI(uint256,string)":"162094c4","soulbound(uint256)":"7a181597","supportsInterface(bytes4)":"01ffc9a7","symbol()":"95d89b41","tokenByIndex(uint256)":"4f6ccce7","tokenEditionNumber(uint256)":"b6358d99","tokenOfOwnerByIndex(address,uint256)":"2f745c59","tokenToCampaign(uint256)":"c1692213","tokenURI(uint256)":"c87b56dd","totalCampaigns()":"02932f56","totalSupply()":"18160ddd","transferFrom(address,address,uint256)":"23b872dd","transferOwnership(address)":"f2fde38b","unfreezeToken(uint256)":"4d787ea9","unpause()":"3f4ba83a","updateCampaignCategory(uint256,string)":"c608e72a","updateCampaignGoal(uint256,uint256)":"51a0bbb2","updateCampaignMaxEditions(uint256,uint256)":"1cc76d75","updateCampaignMetadata(uint256,string)":"1dda279b","updateCampaignNonprofit(uint256,address)":"64094ced","updateCampaignPrice(uint256,uint256)":"fb77211c","updateCampaignSubmitter(uint256,address)":"6fb8696c","withdraw(address,uint256)":"f3fef3a3"}}}}}