{"contracts/PatriotPledgeNFTV5.sol":{"PatriotPledgeNFTV5":{"abi":[{"inputs":[],"stateMutability":"nonpayable","type":"constructor"},{"inputs":[],"name":"ERC721EnumerableForbiddenBatchMint","type":"error"},{"inputs":[{"internalType":"address","name":"sender","type":"address"},{"internalType":"uint256","name":"tokenId","type":"uint256"},{"internalType":"address","name":"owner","type":"address"}],"name":"ERC721IncorrectOwner","type":"error"},{"inputs":[{"internalType":"address","name":"operator","type":"address"},{"internalType":"uint256","name":"tokenId","type":"uint256"}],"name":"ERC721InsufficientApproval","type":"error"},{"inputs":[{"internalType":"address","name":"approver","type":"address"}],"name":"ERC721InvalidApprover","type":"error"},{"inputs":[{"internalType":"address","name":"operator","type":"address"}],"name":"ERC721InvalidOperator","type":"error"},{"inputs":[{"internalType":"address","name":"owner","type":"address"}],"name":"ERC721InvalidOwner","type":"error"},{"inputs":[{"internalType":"address","name":"receiver","type":"address"}],"name":"ERC721InvalidReceiver","type":"error"},{"inputs":[{"internalType":"address","name":"sender","type":"address"}],"name":"ERC721InvalidSender","type":"error"},{"inputs":[{"internalType":"uint256","name":"tokenId","type":"uint256"}],"name":"ERC721NonexistentToken","type":"error"},{"inputs":[{"internalType":"address","name":"owner","type":"address"},{"internalType":"uint256","name":"index","type":"uint256"}],"name":"ERC721OutOfBoundsIndex","type":"error"},{"inputs":[{"internalType":"address","name":"owner","type":"address"}],"name":"OwnableInvalidOwner","type":"error"},{"inputs":[{"internalType":"address","name":"account","type":"address"}],"name":"OwnableUnauthorizedAccount","type":"error"},{"anonymous":false,"inputs":[{"indexed":true,"internalType":"address","name":"owner","type":"address"},{"indexed":true,"internalType":"address","name":"approved","type":"address"},{"indexed":true,"internalType":"uint256","name":"tokenId","type":"uint256"}],"name":"Approval","type":"event"},{"anonymous":false,"inputs":[{"indexed":true,"internalType":"address","name":"owner","type":"address"},{"indexed":true,"internalType":"address","name":"operator","type":"address"},{"indexed":false,"internalType":"bool","name":"approved","type":"bool"}],"name":"ApprovalForAll","type":"event"},{"anonymous":false,"inputs":[{"indexed":false,"internalType":"uint256","name":"_fromTokenId","type":"uint256"},{"indexed":false,"internalType":"uint256","name":"_toTokenId","type":"uint256"}],"name":"BatchMetadataUpdate","type":"event"},{"anonymous":false,"inputs":[{"indexed":true,"internalType":"uint256","name":"campaignId","type":"uint256"}],"name":"CampaignClosed","type":"event"},{"anonymous":false,"inputs":[{"indexed":true,"internalType":"uint256","name":"campaignId","type":"uint256"},{"indexed":true,"internalType":"address","name":"nonprofit","type":"address"},{"indexed":false,"internalType":"string","name":"category","type":"string"},{"indexed":false,"internalType":"uint256","name":"goal","type":"uint256"},{"indexed":false,"internalType":"uint256","name":"maxEditions","type":"uint256"},{"indexed":false,"internalType":"uint256","name":"pricePerEdition","type":"uint256"}],"name":"CampaignCreated","type":"event"},{"anonymous":false,"inputs":[{"indexed":true,"internalType":"uint256","name":"campaignId","type":"uint256"},{"indexed":false,"internalType":"string","name":"newBaseURI","type":"string"}],"name":"CampaignMetadataUpdated","type":"event"},{"anonymous":false,"inputs":[{"indexed":true,"internalType":"uint256","name":"campaignId","type":"uint256"},{"indexed":false,"internalType":"uint256","name":"gross","type":"uint256"},{"indexed":false,"internalType":"uint256","name":"net","type":"uint256"},{"indexed":false,"internalType":"uint256","name":"tip","type":"uint256"},{"indexed":false,"internalType":"bool","name":"isOnchain","type":"bool"}],"name":"ContributionRecorded","type":"event"},{"anonymous":false,"inputs":[{"indexed":true,"internalType":"uint256","name":"campaignId","type":"uint256"},{"indexed":true,"internalType":"uint256","name":"tokenId","type":"uint256"},{"indexed":true,"internalType":"address","name":"donor","type":"address"},{"indexed":false,"internalType":"uint256","name":"editionNumber","type":"uint256"},{"indexed":false,"internalType":"uint256","name":"amountPaid","type":"uint256"}],"name":"EditionMinted","type":"event"},{"anonymous":false,"inputs":[{"indexed":false,"internalType":"uint256","name":"_tokenId","type":"uint256"}],"name":"MetadataUpdate","type":"event"},{"anonymous":false,"inputs":[{"indexed":true,"internalType":"address","name":"previousOwner","type":"address"},{"indexed":true,"internalType":"address","name":"newOwner","type":"address"}],"name":"OwnershipTransferred","type":"event"},{"anonymous":false,"inputs":[{"indexed":true,"internalType":"address","name":"from","type":"address"},{"indexed":true,"internalType":"address","name":"to","type":"address"},{"indexed":true,"internalType":"uint256","name":"tokenId","type":"uint256"}],"name":"Transfer","type":"event"},{"stateMutability":"payable","type":"fallback"},{"inputs":[{"internalType":"address","name":"to","type":"address"},{"internalType":"uint256","name":"tokenId","type":"uint256"}],"name":"approve","outputs":[],"stateMutability":"nonpayable","type":"function"},{"inputs":[{"internalType":"address","name":"owner","type":"address"}],"name":"balanceOf","outputs":[{"internalType":"uint256","name":"","type":"uint256"}],"stateMutability":"view","type":"function"},{"inputs":[{"internalType":"uint256","name":"","type":"uint256"},{"internalType":"uint256","name":"","type":"uint256"}],"name":"campaignEditions","outputs":[{"internalType":"uint256","name":"","type":"uint256"}],"stateMutability":"view","type":"function"},{"inputs":[{"internalType":"uint256","name":"","type":"uint256"}],"name":"campaigns","outputs":[{"internalType":"string","name":"category","type":"string"},{"internalType":"string","name":"baseURI","type":"string"},{"internalType":"uint256","name":"goal","type":"uint256"},{"internalType":"uint256","name":"grossRaised","type":"uint256"},{"internalType":"uint256","name":"netRaised","type":"uint256"},{"internalType":"uint256","name":"tipsReceived","type":"uint256"},{"internalType":"uint256","name":"editionsMinted","type":"uint256"},{"internalType":"uint256","name":"maxEditions","type":"uint256"},{"internalType":"uint256","name":"pricePerEdition","type":"uint256"},{"internalType":"uint256","name":"nonprofitFeeRate","type":"uint256"},{"internalType":"address","name":"nonprofit","type":"address"},{"internalType":"address","name":"submitter","type":"address"},{"internalType":"bool","name":"active","type":"bool"},{"internalType":"bool","name":"closed","type":"bool"}],"stateMutability":"view","type":"function"},{"inputs":[{"internalType":"uint256","name":"campaignId","type":"uint256"}],"name":"closeCampaign","outputs":[],"stateMutability":"nonpayable","type":"function"},{"inputs":[{"internalType":"string","name":"category","type":"string"},{"internalType":"string","name":"baseURI","type":"string"},{"internalType":"uint256","name":"goal","type":"uint256"},{"internalType":"uint256","name":"maxEditions","type":"uint256"},{"internalType":"uint256","name":"pricePerEdition","type":"uint256"},{"internalType":"uint256","name":"feeRate","type":"uint256"},{"internalType":"address","name":"submitter","type":"address"}],"name":"createCampaign","outputs":[{"internalType":"uint256","name":"","type":"uint256"}],"stateMutability":"nonpayable","type":"function"},{"inputs":[{"internalType":"uint256","name":"campaignId","type":"uint256"}],"name":"deactivateCampaign","outputs":[],"stateMutability":"nonpayable","type":"function"},{"inputs":[{"internalType":"uint256","name":"tokenId","type":"uint256"}],"name":"getApproved","outputs":[{"internalType":"address","name":"","type":"address"}],"stateMutability":"view","type":"function"},{"inputs":[{"internalType":"uint256","name":"campaignId","type":"uint256"}],"name":"getCampaign","outputs":[{"internalType":"string","name":"category","type":"string"},{"internalType":"string","name":"baseURI","type":"string"},{"internalType":"uint256","name":"goal","type":"uint256"},{"internalType":"uint256","name":"grossRaised","type":"uint256"},{"internalType":"uint256","name":"netRaised","type":"uint256"},{"internalType":"uint256","name":"editionsMinted","type":"uint256"},{"internalType":"uint256","name":"maxEditions","type":"uint256"},{"internalType":"uint256","name":"pricePerEdition","type":"uint256"},{"internalType":"bool","name":"active","type":"bool"},{"internalType":"bool","name":"closed","type":"bool"}],"stateMutability":"view","type":"function"},{"inputs":[{"internalType":"uint256","name":"campaignId","type":"uint256"}],"name":"getCampaignEditions","outputs":[{"internalType":"uint256[]","name":"","type":"uint256[]"}],"stateMutability":"view","type":"function"},{"inputs":[{"internalType":"uint256","name":"tokenId","type":"uint256"}],"name":"getEditionInfo","outputs":[{"internalType":"uint256","name":"campaignId","type":"uint256"},{"internalType":"uint256","name":"editionNumber","type":"uint256"},{"internalType":"uint256","name":"totalEditions","type":"uint256"}],"stateMutability":"view","type":"function"},{"inputs":[{"internalType":"address","name":"owner","type":"address"},{"internalType":"address","name":"operator","type":"address"}],"name":"isApprovedForAll","outputs":[{"internalType":"bool","name":"","type":"bool"}],"stateMutability":"view","type":"function"},{"inputs":[{"internalType":"uint256","name":"campaignId","type":"uint256"},{"internalType":"address","name":"donor","type":"address"},{"internalType":"uint256","name":"amountPaid","type":"uint256"}],"name":"mintEditionToDonor","outputs":[{"internalType":"uint256","name":"","type":"uint256"}],"stateMutability":"nonpayable","type":"function"},{"inputs":[{"internalType":"uint256","name":"campaignId","type":"uint256"}],"name":"mintWithBDAG","outputs":[{"internalType":"uint256","name":"","type":"uint256"}],"stateMutability":"payable","type":"function"},{"inputs":[{"internalType":"uint256","name":"campaignId","type":"uint256"},{"internalType":"uint256","name":"tipAmount","type":"uint256"}],"name":"mintWithBDAGAndTip","outputs":[{"internalType":"uint256","name":"","type":"uint256"}],"stateMutability":"payable","type":"function"},{"inputs":[],"name":"name","outputs":[{"internalType":"string","name":"","type":"string"}],"stateMutability":"view","type":"function"},{"inputs":[],"name":"owner","outputs":[{"internalType":"address","name":"","type":"address"}],"stateMutability":"view","type":"function"},{"inputs":[{"internalType":"uint256","name":"tokenId","type":"uint256"}],"name":"ownerOf","outputs":[{"internalType":"address","name":"","type":"address"}],"stateMutability":"view","type":"function"},{"inputs":[{"internalType":"uint256","name":"campaignId","type":"uint256"}],"name":"reactivateCampaign","outputs":[],"stateMutability":"nonpayable","type":"function"},{"inputs":[{"internalType":"uint256","name":"campaignId","type":"uint256"},{"internalType":"uint256","name":"gross","type":"uint256"},{"internalType":"uint256","name":"net","type":"uint256"},{"internalType":"uint256","name":"tip","type":"uint256"},{"internalType":"bool","name":"isOnchain","type":"bool"}],"name":"recordContribution","outputs":[],"stateMutability":"nonpayable","type":"function"},{"inputs":[],"name":"renounceOwnership","outputs":[],"stateMutability":"nonpayable","type":"function"},{"inputs":[{"internalType":"address","name":"from","type":"address"},{"internalType":"address","name":"to","type":"address"},{"internalType":"uint256","name":"tokenId","type":"uint256"}],"name":"safeTransferFrom","outputs":[],"stateMutability":"nonpayable","type":"function"},{"inputs":[{"internalType":"address","name":"from","type":"address"},{"internalType":"address","name":"to","type":"address"},{"internalType":"uint256","name":"tokenId","type":"uint256"},{"internalType":"bytes","name":"data","type":"bytes"}],"name":"safeTransferFrom","outputs":[],"stateMutability":"nonpayable","type":"function"},{"inputs":[{"internalType":"address","name":"operator","type":"address"},{"internalType":"bool","name":"approved","type":"bool"}],"name":"setApprovalForAll","outputs":[],"stateMutability":"nonpayable","type":"function"},{"inputs":[{"internalType":"bytes4","name":"interfaceId","type":"bytes4"}],"name":"supportsInterface","outputs":[{"internalType":"bool","name":"","type":"bool"}],"stateMutability":"view","type":"function"},{"inputs":[],"name":"symbol","outputs":[{"internalType":"string","name":"","type":"string"}],"stateMutability":"view","type":"function"},{"inputs":[{"internalType":"uint256","name":"index","type":"uint256"}],"name":"tokenByIndex","outputs":[{"internalType":"uint256","name":"","type":"uint256"}],"stateMutability":"view","type":"function"},{"inputs":[{"internalType":"uint256","name":"","type":"uint256"}],"name":"tokenEditionNumber","outputs":[{"internalType":"uint256","name":"","type":"uint256"}],"stateMutability":"view","type":"function"},{"inputs":[{"internalType":"address","name":"owner","type":"address"},{"internalType":"uint256","name":"index","type":"uint256"}],"name":"tokenOfOwnerByIndex","outputs":[{"internalType":"uint256","name":"","type":"uint256"}],"stateMutability":"view","type":"function"},{"inputs":[{"internalType":"uint256","name":"","type":"uint256"}],"name":"tokenToCampaign","outputs":[{"internalType":"uint256","name":"","type":"uint256"}],"stateMutability":"view","type":"function"},{"inputs":[{"internalType":"uint256","name":"tokenId","type":"uint256"}],"name":"tokenURI","outputs":[{"internalType":"string","name":"","type":"string"}],"stateMutability":"view","type":"function"},{"inputs":[],"name":"totalCampaigns","outputs":[{"internalType":"uint256","name":"","type":"uint256"}],"stateMutability":"view","type":"function"},{"inputs":[],"name":"totalSupply","outputs":[{"internalType":"uint256","name":"","type":"uint256"}],"stateMutability":"view","type":"function"},{"inputs":[{"internalType":"address","name":"from","type":"address"},{"internalType":"address","name":"to","type":"address"},{"internalType":"uint256","name":"tokenId","type":"uint256"}],"name":"transferFrom","outputs":[],"stateMutability":"nonpayable","type":"function"},{"inputs":[{"internalType":"address","name":"newOwner","type":"address"}],"name":"transferOwnership","outputs":[],"stateMutability":"nonpayable","type":"function"},{"inputs":[{"internalType":"uint256","name":"campaignId","type":"uint256"},{"internalType":"string","name":"newBaseURI","type":"string"}],"name":"updateCampaignMetadata","outputs":[],"stateMutability":"nonpayable","type":"function"},{"inputs":[{"internalType":"address payable","name":"to","type":"address"},{"internalType":"uint256","name":"amount","type":"uint256"}],"name":"withdraw","outputs":[],"stateMutability":"nonpayable","type":"function"},{"stateMutability":"payable","type":"receive"}],"evm":{"bytecode":{"linkReferences":{},"object":"60803462000389576001600160401b039060408181018381118382101762000373578152601582526020917f50617472696f74506c656467652045646974696f6e0000000000000000000000838201528151938285018581108282111762000373578352600385526250504560e81b84860152815181811162000373576000948554916001948584811c9416801562000368575b8385101462000354578190601f9485811162000301575b5083908583116001146200029d57899262000291575b5050600019600383901b1c191690851b1786555b86519283116200027d5783548481811c9116801562000272575b828210146200025e5782811162000216575b5080918311600114620001af575084958293949592620001a3575b5050600019600383901b1c191690821b1790555b33156200018b57600b8054336001600160a01b03198216811790925591519290916001600160a01b0316907f8be0079c531659141344cd1fd0a4f28419497f9722a3daafe3b4186f6b6457e09080a361278190816200038f8239f35b51631e4fbdf760e01b81526004810191909152602490fd5b0151905038806200011b565b90601f198316968487528287209287905b898210620001fe575050838596979810620001e4575b505050811b0190556200012f565b015160001960f88460031b161c19169055388080620001d6565b808785968294968601518155019501930190620001c0565b8487528187208380860160051c82019284871062000254575b0160051c019085905b8281106200024857505062000100565b88815501859062000238565b925081926200022f565b634e487b7160e01b87526022600452602487fd5b90607f1690620000ee565b634e487b7160e01b86526041600452602486fd5b015190503880620000c0565b898052848a208894509190601f1984168b5b87828210620002ea5750508411620002d0575b505050811b018655620000d4565b015160001960f88460031b161c19169055388080620002c2565b8385015186558b97909501949384019301620002af565b9091508880528389208580850160051c8201928686106200034a575b918991869594930160051c01915b8281106200033b575050620000aa565b8b81558594508991016200032b565b925081926200031d565b634e487b7160e01b88526022600452602488fd5b93607f169362000093565b634e487b7160e01b600052604160045260246000fd5b600080fdfe608080604052600436101561001a575b50361561001857005b005b60003560e01c90816301ffc9a71461192f5750806302932f561461191157806306fdde0314611866578063081812fc14611828578063095ea7b314611741578063141961bc146116435780631797c8f21461149d57806318160ddd1461147f5780631dda279b146112c75780631fdc217c1461123857806323b872dd1461122157806325532ecd146111535780632a76d553146110365780632f745c5914610fb25780633705f2a814610f0c578063407de9df14610edb57806342842e0e14610ead5780634f6ccce714610e575780635598f8cc14610d935780636352211e14610d6357806370a0823114610d38578063715018a614610cdb5780637eca30fe14610ca15780638079ca0c14610c4d5780638da5cb5b14610c2457806395d89b4114610b41578063a22cb46514610a9c578063b0e1c1e114610a37578063b6358d9914610a0b578063b88d4fde146109a0578063c169221314610974578063c87b56dd14610917578063cc3c3008146104c8578063d88d6ef314610348578063e985e9c5146102f2578063f2fde38b146102645763f3fef3a3146101be573861000f565b3461025f57604036600319011261025f576004356001600160a01b0381169081900361025f57602435906101f06125db565b814710610223576000808093819382821561021a575bf11561020e57005b6040513d6000823e3d90fd5b506108fc610206565b60405162461bcd60e51b8152602060048201526014602482015273496e73756666696369656e742062616c616e636560601b6044820152606490fd5b600080fd5b3461025f57602036600319011261025f5761027d611a0e565b6102856125db565b6001600160a01b039081169081156102d957600b54826bffffffffffffffffffffffff60a01b821617600b55167f8be0079c531659141344cd1fd0a4f28419497f9722a3daafe3b4186f6b6457e0600080a3005b604051631e4fbdf760e01b815260006004820152602490fd5b3461025f57604036600319011261025f5761030b611a0e565b610313611a24565b9060018060a01b03809116600052600560205260406000209116600052602052602060ff604060002054166040519015158152f35b60208060031936011261025f5760043580600052600e825260406000209061038860ff600b84015461037e828260a01c16611c88565b60a81c1615611cca565b6103a0600783015480159081156104ba575b50611d08565b6103b06008830154341015611d58565b600c54916103bd83611d9b565b600c5561041261040c600160068401936103d78554611d9b565b809555600381016103e9348254611d4b565b9055600481016103fa348254611d4b565b90556104068733612183565b01611ab2565b846124a0565b82600052600f84528160406000205560108452806040600020558160005260118452610442836040600020611de6565b604051908152348482015282827f44a73422883fd5aac8dde6ef3688c62f25a4fb22e7a395bafb411ec4803ab1bd60403394a47ff1a038a86c47446d2a26b7852348eee74e6d63d5a71792df01e40c2e6d0e1ca2608060405134815234868201526000604082015260016060820152a2604051908152f35b90506006840154108561039a565b3461025f5760e036600319011261025f5760043567ffffffffffffffff811161025f576104f9903690600401611b6d565b60243567ffffffffffffffff811161025f57610519903690600401611b6d565b919060c4356001600160a01b038116810361025f576105366125db565b600d549361054385611d9b565b600d55604051926101c084019184831067ffffffffffffffff84111761088a5761057e9260405261057536878a611c51565b85523691611c51565b602083015260443560408301526000606083015260006080830152600060a0830152600060c083015260643560e083015260843561010083015260a4356101208301523361014083015260018060a01b0316610160820152600161018082015260006101a082015282600052600e602052604060002093815180519067ffffffffffffffff821161088a5761061d826106178954611a3a565b89611e09565b602090601f83116001146108ab5761064e9291600091836108a0575b50508160011b916000199060031b1c19161790565b85555b60208201519182519567ffffffffffffffff871161088a5786869461068860209961067f6001860154611a3a565b60018601611e09565b8890601f83116001146107f057926106e1836107bf9694600b947f9a6f279818b6c3ecad22dd882c63460a80cee0df2841c888adb08588aff26c2299976000926107e55750508160011b916000199060031b1c19161790565b60018201555b60408301516002820155606083015160038201556080830151600482015560a0830151600582015560c0830151600682015560e0830151600782015561010083015160088201556101208301516009820155600a810160018060a01b03610140850151166bffffffffffffffffffffffff60a01b825416179055019060018060a01b03610160820151169082549160ff60a01b610180830151151560a01b16916101a060ff60a81b910151151560a81b169269ffffffffffffffffffff60b01b16171717905560405194608086526080860191611e5f565b9260443586820152606435604082015260843560608201528033940390a3604051908152f35b015190508d80610639565b9060018401600052896000209160005b601f1985168110610870575083600b937f9a6f279818b6c3ecad22dd882c63460a80cee0df2841c888adb08588aff26c229896936001936107bf9997601f19811610610857575b505050811b0160018201556106e7565b015160001960f88460031b161c191690558c8080610847565b8183015184558a9850600190930192918b01918b01610800565b634e487b7160e01b600052604160045260246000fd5b015190508880610639565b9190876000526020600020906000935b601f19841685106108fc576001945083601f198116106108e3575b505050811b018555610651565b015160001960f88460031b161c191690558780806108d6565b818101518355602094850194600190930192909101906108bb565b3461025f57602036600319011261025f5760043561093481612148565b50600052600a60205261097061094d6040600020611ab2565b600060405161095b81611a74565b526040519182916020835260208301906119ce565b0390f35b3461025f57602036600319011261025f57600435600052600f6020526020604060002054604051908152f35b3461025f57608036600319011261025f576109b9611a0e565b6109c1611a24565b906044356064359267ffffffffffffffff841161025f573660238501121561025f576109fa610018943690602481600401359101611c51565b92610a06838383611e80565b612607565b3461025f57602036600319011261025f5760043560005260106020526020604060002054604051908152f35b3461025f57602036600319011261025f57600435610a536125db565b6000818152600e60205260408120600b01805461ffff60a01b1916600160a81b1790557f5e6eb33a418de5dbbc17f989f7ae362cdfbb1748c5d603137c767027a354edbc9080a2005b3461025f57604036600319011261025f57610ab5611a0e565b6024359081151580920361025f576001600160a01b0316908115610b2857336000526005602052604060002082600052602052604060002060ff1981541660ff83161790556040519081527f17307eab39ab6107e8899845ad3d59bd9653f200f220920489ca2b5937696c3160203392a3005b604051630b61174360e31b815260048101839052602490fd5b3461025f57600036600319011261025f57604051600060018260015492610b6784611a3a565b9283835260209485600182169182600014610c04575050600114610ba7575b50610b9392500383611a90565b6109706040519282849384528301906119ce565b84915060016000527fb10e2d527612073b26eecdfd717e6a320cf44b4afac2b0732d9fcbe2b7fa0cf6906000915b858310610bec575050610b93935082010185610b86565b80548389018501528794508693909201918101610bd5565b60ff191685820152610b9395151560051b8501019250879150610b869050565b3461025f57600036600319011261025f57600b546040516001600160a01b039091168152602090f35b3461025f57602036600319011261025f57600435600052600f6020526060604060002054601060205260406000205481600052600e6020526006604060002001549060405192835260208301526040820152f35b3461025f57602036600319011261025f57610cba6125db565b6004356000908152600e60205260409020600b01805460ff60a01b19169055005b3461025f57600036600319011261025f57610cf46125db565b600b80546001600160a01b031981169091556000906001600160a01b03167f8be0079c531659141344cd1fd0a4f28419497f9722a3daafe3b4186f6b6457e08280a3005b3461025f57602036600319011261025f576020610d5b610d56611a0e565b61210f565b604051908152f35b3461025f57602036600319011261025f576020610d81600435612148565b6040516001600160a01b039091168152f35b3461025f57602036600319011261025f57600435600052600e602052610e0c6040600020600281015460ff600383015460048401546006850154600786015490600887015492600b88015494610e1a610df76001610df08c611ab2565b9b01611ab2565b6040519b8c9b8c6101408091528d01906119ce565b908b820360208d01526119ce565b9760408a01526060890152608088015260a087015260c086015260e0850152818160a01c16151561010085015260a81c1615156101208301520390f35b3461025f57602036600319011261025f57600435600854811015610e8e57610e80602091611bd0565b90546040519160031b1c8152f35b6044906040519063295f44f760e21b8252600060048301526024820152fd5b3461025f57610018610ebe36611b9b565b9060405192610ecc84611a74565b60008452610a06838383611e80565b3461025f57610ee936611b57565b9060005260116020526040600020805482101561025f57602091610e8091611c1d565b3461025f5760208060031936011261025f5760043560005260118152604060002060405190818382549182815201908192600052846000209060005b86828210610f9e578686610f5e82880383611a90565b604051928392818401908285525180915260408401929160005b828110610f8757505050500390f35b835185528695509381019392810192600101610f78565b835485529093019260019283019201610f48565b3461025f57604036600319011261025f57610fcb611a0e565b60243590610fd88161210f565b82101561100b5760018060a01b031660005260066020526040600020906000526020526020604060002054604051908152f35b60405163295f44f760e21b81526001600160a01b039190911660048201526024810191909152604490fd5b3461025f57606036600319011261025f576004356040611054611a24565b9161105d6125db565b80600052602092600e8452826000209161108560ff600b85015461037e828260a01c16611c88565b61109c600784015480159081156111455750611d08565b7f44a73422883fd5aac8dde6ef3688c62f25a4fb22e7a395bafb411ec4803ab1bd600c549485936110cc85611d9b565b600c556110f96110f3600160068901986110e68a54611d9b565b809a556104068986612183565b866124a0565b84600052600f88528382600020556010885285826000205583600052601188526111268583600020611de6565b8151958652604435888701526001600160a01b031694a4604051908152f35b90506006850154108761039a565b3461025f5760a036600319011261025f576004356024356044356064359160843580151580910361025f577ff1a038a86c47446d2a26b7852348eee74e6d63d5a71792df01e40c2e6d0e1ca2936080936111ab6125db565b86600052600e602052600560406000206111cf60ff600b83015460a81c1615611cca565b6111d98487611d4b565b6111e860038301918254611d4b565b9055600481016111f9848254611d4b565b905501611207838254611d4b565b9055604051938452602084015260408301526060820152a2005b3461025f5761001861123236611b9b565b91611e80565b3461025f57602036600319011261025f576112516125db565b600435600052600e602052600b604060002001805460ff8160a81c166112825760ff60a01b1916600160a01b179055005b60405162461bcd60e51b815260206004820152601b60248201527f43616d706169676e207065726d616e656e746c7920636c6f73656400000000006044820152606490fd5b3461025f57604036600319011261025f5760043567ffffffffffffffff60243581811161025f576112fc903690600401611b6d565b91906113066125db565b83600052602091600e835260406000209061132b60ff600b84015460a81c1615611cca565b600180920190851161088a5761134b856113458354611a3a565b83611e09565b600085601f811160011461141a578061137a9260009161140f575b508160011b916000199060031b1c19161790565b90555b84600052601183526040600020816000905b6113d1575b60405185815287907fd0ed2732da48175aaae07fd675a2a78b1700515722f6675d7ff5f0e09f22f30990806113cc818a018b8a611e5f565b0390a2005b815481101561140a579082826114026113eb839585611c1d565b90546113f8368c8b611c51565b9160031b1c6124a0565b01909161138f565b611394565b905085013589611366565b50601f198616908260005286866000209260005b8887838310611468575050501061144e575b50508185811b01905561137d565b840135600019600388901b60f8161c191690558680611440565b858a0135875590950194938401938a93500161142e565b3461025f57600036600319011261025f576020600854604051908152f35b6114a636611b57565b81600052602091600e83526040600020916114cf60ff600b85015461037e828260a01c16611c88565b6114e6600784015480159081156116355750611d08565b6114ff6114f7826008860154611d4b565b341015611d58565b600c549261150c84611d9b565b600c55600681019161151e8354611d9b565b8093558034039034821161161f577ff1a038a86c47446d2a26b7852348eee74e6d63d5a71792df01e40c2e6d0e1ca29361159c611596600186600360809801611568348254611d4b565b905560048101611579888254611d4b565b90556005810161158a878254611d4b565b90556104068b33612183565b886124a0565b86600052600f885285604060002055601088528060406000205585600052601188526115cc876040600020611de6565b604051908152348882015286867f44a73422883fd5aac8dde6ef3688c62f25a4fb22e7a395bafb411ec4803ab1bd60403394a46040519134835287830152604082015260016060820152a2604051908152f35b634e487b7160e01b600052601160045260246000fd5b90506006850154108661039a565b3461025f57602036600319011261025f57600435600052600e602052604060002061166d81611ab2565b61167960018301611ab2565b91600281015490600381015490600481015490600581015460068201546007830154600884015491600985015493600160a01b600190039687600a8801541696600b0154986040519c8d9c8d6101c090818152016116d6916119ce565b8d810360208f01526116e7916119ce565b9a60408d015260608c015260808b015260a08a015260c089015260e088015261010087015261012086015261014085015281166101608401528060a01c60ff16151561018084015260a81c60ff1615156101a08301520390f35b3461025f57604036600319011261025f5761175a611a0e565b60243561176681612148565b33151580611815575b806117e8575b6117d0576001600160a01b039283169282918491167f8c5be1e5ebec7d5bd14f71427d1e84f3dd0314c0f7b2291e5b200ac8c7c3b925600080a4600090815260046020526040902080546001600160a01b0319169091179055005b60405163a9fbf51f60e01b8152336004820152602490fd5b5060018060a01b038116600052600560205260406000203360005260205260ff6040600020541615611775565b506001600160a01b03811633141561176f565b3461025f57602036600319011261025f5760043561184581612148565b506000526004602052602060018060a01b0360406000205416604051908152f35b3461025f57600036600319011261025f5760405160008054908261188983611a3a565b9182825260209360019085600182169182600014610c045750506001146118b75750610b9392500383611a90565b6000808052859250907f290decd9548b62a8d60345a988386fc84ba6bc95484008f6362f93160ef3e5635b8583106118f9575050610b93935082010185610b86565b805483890185015287945086939092019181016118e2565b3461025f57600036600319011261025f576020600d54604051908152f35b3461025f57602036600319011261025f576004359063ffffffff60e01b821680920361025f57602091632483248360e11b8114908115611971575b5015158152f35b63780e9d6360e01b81149150811561198b575b508361196a565b6380ac58cd60e01b8114915081156119bd575b81156119ac575b5083611984565b6301ffc9a760e01b149050836119a5565b635b5e139f60e01b8114915061199e565b919082519283825260005b8481106119fa575050826000602080949584010152601f8019910116010190565b6020818301810151848301820152016119d9565b600435906001600160a01b038216820361025f57565b602435906001600160a01b038216820361025f57565b90600182811c92168015611a6a575b6020831014611a5457565b634e487b7160e01b600052602260045260246000fd5b91607f1691611a49565b6020810190811067ffffffffffffffff82111761088a57604052565b90601f8019910116810190811067ffffffffffffffff82111761088a57604052565b90604051918260008254611ac581611a3a565b90818452602094600191600181169081600014611b355750600114611af6575b505050611af492500383611a90565b565b600090815285812095935091905b818310611b1d575050611af49350820101388080611ae5565b85548884018501529485019487945091830191611b04565b92505050611af494925060ff191682840152151560051b820101388080611ae5565b604090600319011261025f576004359060243590565b9181601f8401121561025f5782359167ffffffffffffffff831161025f576020838186019501011161025f57565b606090600319011261025f576001600160a01b0390600435828116810361025f5791602435908116810361025f579060443590565b600854811015611c075760086000527ff3f7a9fe364faab93b216da50a3214154f22a0a2b415b23a84c8169e8b636ee30190600090565b634e487b7160e01b600052603260045260246000fd5b8054821015611c075760005260206000200190600090565b67ffffffffffffffff811161088a57601f01601f191660200190565b929192611c5d82611c35565b91611c6b6040519384611a90565b82948184528183011161025f578281602093846000960137010152565b15611c8f57565b60405162461bcd60e51b815260206004820152601360248201527243616d706169676e206e6f742061637469766560681b6044820152606490fd5b15611cd157565b60405162461bcd60e51b815260206004820152600f60248201526e10d85b5c185a59db8818db1bdcd959608a1b6044820152606490fd5b15611d0f57565b60405162461bcd60e51b815260206004820152601460248201527313585e0819591a5d1a5bdb9cc81c995858da195960621b6044820152606490fd5b9190820180921161161f57565b15611d5f57565b60405162461bcd60e51b8152602060048201526014602482015273125b9cdd59999a58da595b9d081c185e5b595b9d60621b6044820152606490fd5b600019811461161f5760010190565b60085490600160401b82101561088a57611dcd826001611af49401600855611bd0565b90919082549060031b91821b91600019901b1916179055565b90815491600160401b83101561088a5782611dcd916001611af495018155611c1d565b90601f8111611e1757505050565b6000916000526020600020906020601f850160051c83019410611e55575b601f0160051c01915b828110611e4a57505050565b818155600101611e3e565b9092508290611e35565b908060209392818452848401376000828201840152601f01601f1916010190565b6001600160a01b03828116939184156120f657600094838652602095600287526040968488832054169633151580612068575b5087158015612035575b84845260038352898420805460010190558784526002835289842080546001600160a01b0319168617905587858a7fddf252ad1be2c89b69c2b068fc378daa952ba7f163c4a11628f55a4df523b3ef8780a415611fb9576008548784526009835289842055611f2b87611daa565b838803611f67575b505050501692838303611f465750505050565b6064945051926364283d7b60e01b8452600484015260248301526044820152fd5b611f709061210f565b600019810193908411611fa55782916007918a9452600681528383208584528152878484205587835252205538808080611f33565b634e487b7160e01b83526011600452602483fd5b878414611f2b57611fc98861210f565b8784526007835289842054818103611ffe575b50878452838a8120558884526006835289842090845282528289812055611f2b565b898552600684528a852082865284528a8520548a8652600685528b86208287528552808c8720558552600784528a85205538611fdc565b600088815260046020526040902080546001600160a01b0319169055888452600383528984208054600019019055611ebd565b806120b5575b156120795738611eb3565b888789612096576024915190637e27328960e01b82526004820152fd5b905163177e802f60e01b81523360048201526024810191909152604490fd5b5033881480156120da575b8061206e57508683526004825233868a852054161461206e565b5087835260058252888320338452825260ff89842054166120c0565b604051633250574960e11b815260006004820152602490fd5b6001600160a01b0316801561212f57600052600360205260406000205490565b6040516322718ad960e21b815260006004820152602490fd5b6000818152600260205260409020546001600160a01b031690811561216b575090565b60249060405190637e27328960e01b82526004820152fd5b604080519261219184611a74565b60008085526001600160a01b0394848616949192918515612488578284526020966002885285852054168681159182159283612455575b82885260038b528888208054600101905586885260028b5288882080546001600160a01b031916841790558683837fddf252ad1be2c89b69c2b068fc378daa952ba7f163c4a11628f55a4df523b3ef8b80a4156123d95760085486885260098b528888205561223686611daa565b0361238c575b612374573b61224e575b505050505050565b8561228c918596979894955180938192630a85bd0160e11b9687845233600485015289602485015260448401526080606484015260848301906119ce565b0381878a5af1849181612330575b506122f9575050503d6000146122f1573d6122b481611c35565b906122c184519283611a90565b81528091853d92013e5b805193846122eb578251633250574960e11b815260048101859052602490fd5b84925001fd5b5060606122cb565b919550915063ffffffff60e01b1603612319575050388080808080612246565b602492505190633250574960e11b82526004820152fd5b9091508781813d831161236d575b6123488183611a90565b8101031261236957516001600160e01b03198116810361236957903861229a565b8480fd5b503d61233e565b84516339e3563760e11b815260048101859052602490fd5b6123958261210f565b60001981019081116123c5578786526006895286862081875289528487872055848652600789528686205561223c565b634e487b7160e01b86526011600452602486fd5b808214612236576123e98161210f565b86885260078b528888205481810361241e575b50868852878981205581885260068b528888209088528a528688812055612236565b82895260068c52898920828a528c5289892054838a5260068d528a8a20828b528d52808b8b2055895260078c5289892055386123fc565b600087815260046020526040902080546001600160a01b031916905581885260038b5288882080546000190190556121c8565b8451633250574960e11b815260048101859052602490fd5b919091600090808252602091600a8352604081209085519567ffffffffffffffff87116125c7576124db876124d58554611a3a565b85611e09565b8491601f8811600114612543579661252c9281927ff8e1a15aba9398e019f0b49df1a4fde98ee17ae345cb5f6b5e2c27f5033e8ce79899926125385750508160011b916000199060031b1c19161790565b90555b604051908152a1565b015190503880610639565b9190601f198816848452868420935b8181106125b057509160019391897ff8e1a15aba9398e019f0b49df1a4fde98ee17ae345cb5f6b5e2c27f5033e8ce7999a9410612597575b505050811b01905561252f565b015160001960f88460031b161c1916905538808061258a565b929387600181928786015181550195019301612552565b634e487b7160e01b82526041600452602482fd5b600b546001600160a01b031633036125ef57565b60405163118cdaa760e01b8152336004820152602490fd5b813b612614575b50505050565b604051630a85bd0160e11b8082523360048301526001600160a01b039283166024830152604482019490945260806064820152602095929091169390929083906126629060848301906119ce565b039285816000958187895af184918161270b575b506126d6575050503d6000146126ce573d61269081611c35565b9061269e6040519283611a90565b81528091843d92013e5b805192836126c957604051633250574960e11b815260048101849052602490fd5b019050fd5b5060606126a8565b919450915063ffffffff60e01b16036126f357503880808061260e565b60249060405190633250574960e11b82526004820152fd5b9091508681813d8311612744575b6127238183611a90565b8101031261236957516001600160e01b031981168103612369579038612676565b503d61271956fea2646970667358221220c5e1552d84e82e298981dcc70cc25efc1592283e7a07655042386fb87a65f24c64736f6c63430008180033","opcodes":"PUSH1 0x80 CALLVALUE PUSH3 0x389 JUMPI PUSH1 0x1 PUSH1 0x1 PUSH1 0x40 SHL SUB SWAP1 PUSH1 0x40 DUP2 DUP2 ADD DUP4 DUP2 GT DUP4 DUP3 LT OR PUSH3 0x373 JUMPI DUP2 MSTORE PUSH1 0x15 DUP3 MSTORE PUSH1 0x20 SWAP2 PUSH32 0x50617472696F74506C656467652045646974696F6E0000000000000000000000 DUP4 DUP3 ADD MSTORE DUP2 MLOAD SWAP4 DUP3 DUP6 ADD DUP6 DUP2 LT DUP3 DUP3 GT OR PUSH3 0x373 JUMPI DUP4 MSTORE PUSH1 0x3 DUP6 MSTORE PUSH3 0x505045 PUSH1 0xE8 SHL DUP5 DUP7 ADD MSTORE DUP2 MLOAD DUP2 DUP2 GT PUSH3 0x373 JUMPI PUSH1 0x0 SWAP5 DUP6 SLOAD SWAP2 PUSH1 0x1 SWAP5 DUP6 DUP5 DUP2 SHR SWAP5 AND DUP1 ISZERO PUSH3 0x368 JUMPI JUMPDEST DUP4 DUP6 LT EQ PUSH3 0x354 JUMPI DUP2 SWAP1 PUSH1 0x1F SWAP5 DUP6 DUP2 GT PUSH3 0x301 JUMPI JUMPDEST POP DUP4 SWAP1 DUP6 DUP4 GT PUSH1 0x1 EQ PUSH3 0x29D JUMPI DUP10 SWAP3 PUSH3 0x291 JUMPI JUMPDEST POP POP PUSH1 0x0 NOT PUSH1 0x3 DUP4 SWAP1 SHL SHR NOT AND SWAP1 DUP6 SHL OR DUP7 SSTORE JUMPDEST DUP7 MLOAD SWAP3 DUP4 GT PUSH3 0x27D JUMPI DUP4 SLOAD DUP5 DUP2 DUP2 SHR SWAP2 AND DUP1 ISZERO PUSH3 0x272 JUMPI JUMPDEST DUP3 DUP3 LT EQ PUSH3 0x25E JUMPI DUP3 DUP2 GT PUSH3 0x216 JUMPI JUMPDEST POP DUP1 SWAP2 DUP4 GT PUSH1 0x1 EQ PUSH3 0x1AF JUMPI POP DUP5 SWAP6 DUP3 SWAP4 SWAP5 SWAP6 SWAP3 PUSH3 0x1A3 JUMPI JUMPDEST POP POP PUSH1 0x0 NOT PUSH1 0x3 DUP4 SWAP1 SHL SHR NOT AND SWAP1 DUP3 SHL OR SWAP1 SSTORE JUMPDEST CALLER ISZERO PUSH3 0x18B JUMPI PUSH1 0xB DUP1 SLOAD CALLER PUSH1 0x1 PUSH1 0x1 PUSH1 0xA0 SHL SUB NOT DUP3 AND DUP2 OR SWAP1 SWAP3 SSTORE SWAP2 MLOAD SWAP3 SWAP1 SWAP2 PUSH1 0x1 PUSH1 0x1 PUSH1 0xA0 SHL SUB AND SWAP1 PUSH32 0x8BE0079C531659141344CD1FD0A4F28419497F9722A3DAAFE3B4186F6B6457E0 SWAP1 DUP1 LOG3 PUSH2 0x2781 SWAP1 DUP2 PUSH3 0x38F DUP3 CODECOPY RETURN JUMPDEST MLOAD PUSH4 0x1E4FBDF7 PUSH1 0xE0 SHL DUP2 MSTORE PUSH1 0x4 DUP2 ADD SWAP2 SWAP1 SWAP2 MSTORE PUSH1 0x24 SWAP1 REVERT JUMPDEST ADD MLOAD SWAP1 POP CODESIZE DUP1 PUSH3 0x11B JUMP JUMPDEST SWAP1 PUSH1 0x1F NOT DUP4 AND SWAP7 DUP5 DUP8 MSTORE DUP3 DUP8 KECCAK256 SWAP3 DUP8 SWAP1 JUMPDEST DUP10 DUP3 LT PUSH3 0x1FE JUMPI POP POP DUP4 DUP6 SWAP7 SWAP8 SWAP9 LT PUSH3 0x1E4 JUMPI JUMPDEST POP POP POP DUP2 SHL ADD SWAP1 SSTORE PUSH3 0x12F JUMP JUMPDEST ADD MLOAD PUSH1 0x0 NOT PUSH1 0xF8 DUP5 PUSH1 0x3 SHL AND SHR NOT AND SWAP1 SSTORE CODESIZE DUP1 DUP1 PUSH3 0x1D6 JUMP JUMPDEST DUP1 DUP8 DUP6 SWAP7 DUP3 SWAP5 SWAP7 DUP7 ADD MLOAD DUP2 SSTORE ADD SWAP6 ADD SWAP4 ADD SWAP1 PUSH3 0x1C0 JUMP JUMPDEST DUP5 DUP8 MSTORE DUP2 DUP8 KECCAK256 DUP4 DUP1 DUP7 ADD PUSH1 0x5 SHR DUP3 ADD SWAP3 DUP5 DUP8 LT PUSH3 0x254 JUMPI JUMPDEST ADD PUSH1 0x5 SHR ADD SWAP1 DUP6 SWAP1 JUMPDEST DUP3 DUP2 LT PUSH3 0x248 JUMPI POP POP PUSH3 0x100 JUMP JUMPDEST DUP9 DUP2 SSTORE ADD DUP6 SWAP1 PUSH3 0x238 JUMP JUMPDEST SWAP3 POP DUP2 SWAP3 PUSH3 0x22F JUMP JUMPDEST PUSH4 0x4E487B71 PUSH1 0xE0 SHL DUP8 MSTORE PUSH1 0x22 PUSH1 0x4 MSTORE PUSH1 0x24 DUP8 REVERT JUMPDEST SWAP1 PUSH1 0x7F AND SWAP1 PUSH3 0xEE JUMP JUMPDEST PUSH4 0x4E487B71 PUSH1 0xE0 SHL DUP7 MSTORE PUSH1 0x41 PUSH1 0x4 MSTORE PUSH1 0x24 DUP7 REVERT JUMPDEST ADD MLOAD SWAP1 POP CODESIZE DUP1 PUSH3 0xC0 JUMP JUMPDEST DUP10 DUP1 MSTORE DUP5 DUP11 KECCAK256 DUP9 SWAP5 POP SWAP2 SWAP1 PUSH1 0x1F NOT DUP5 AND DUP12 JUMPDEST DUP8 DUP3 DUP3 LT PUSH3 0x2EA JUMPI POP POP DUP5 GT PUSH3 0x2D0 JUMPI JUMPDEST POP POP POP DUP2 SHL ADD DUP7 SSTORE PUSH3 0xD4 JUMP JUMPDEST ADD MLOAD PUSH1 0x0 NOT PUSH1 0xF8 DUP5 PUSH1 0x3 SHL AND SHR NOT AND SWAP1 SSTORE CODESIZE DUP1 DUP1 PUSH3 0x2C2 JUMP JUMPDEST DUP4 DUP6 ADD MLOAD DUP7 SSTORE DUP12 SWAP8 SWAP1 SWAP6 ADD SWAP5 SWAP4 DUP5 ADD SWAP4 ADD PUSH3 0x2AF JUMP JUMPDEST SWAP1 SWAP2 POP DUP9 DUP1 MSTORE DUP4 DUP10 KECCAK256 DUP6 DUP1 DUP6 ADD PUSH1 0x5 SHR DUP3 ADD SWAP3 DUP7 DUP7 LT PUSH3 0x34A JUMPI JUMPDEST SWAP2 DUP10 SWAP2 DUP7 SWAP6 SWAP5 SWAP4 ADD PUSH1 0x5 SHR ADD SWAP2 JUMPDEST DUP3 DUP2 LT PUSH3 0x33B JUMPI POP POP PUSH3 0xAA JUMP JUMPDEST DUP12 DUP2 SSTORE DUP6 SWAP5 POP DUP10 SWAP2 ADD PUSH3 0x32B JUMP JUMPDEST SWAP3 POP DUP2 SWAP3 PUSH3 0x31D JUMP JUMPDEST PUSH4 0x4E487B71 PUSH1 0xE0 SHL DUP9 MSTORE PUSH1 0x22 PUSH1 0x4 MSTORE PUSH1 0x24 DUP9 REVERT JUMPDEST SWAP4 PUSH1 0x7F AND SWAP4 PUSH3 0x93 JUMP JUMPDEST PUSH4 0x4E487B71 PUSH1 0xE0 SHL PUSH1 0x0 MSTORE PUSH1 0x41 PUSH1 0x4 MSTORE PUSH1 0x24 PUSH1 0x0 REVERT JUMPDEST PUSH1 0x0 DUP1 REVERT INVALID PUSH1 0x80 DUP1 PUSH1 0x40 MSTORE PUSH1 0x4 CALLDATASIZE LT ISZERO PUSH2 0x1A JUMPI JUMPDEST POP CALLDATASIZE ISZERO PUSH2 0x18 JUMPI STOP JUMPDEST STOP JUMPDEST PUSH1 0x0 CALLDATALOAD PUSH1 0xE0 SHR SWAP1 DUP2 PUSH4 0x1FFC9A7 EQ PUSH2 0x192F JUMPI POP DUP1 PUSH4 0x2932F56 EQ PUSH2 0x1911 JUMPI DUP1 PUSH4 0x6FDDE03 EQ PUSH2 0x1866 JUMPI DUP1 PUSH4 0x81812FC EQ PUSH2 0x1828 JUMPI DUP1 PUSH4 0x95EA7B3 EQ PUSH2 0x1741 JUMPI DUP1 PUSH4 0x141961BC EQ PUSH2 0x1643 JUMPI DUP1 PUSH4 0x1797C8F2 EQ PUSH2 0x149D JUMPI DUP1 PUSH4 0x18160DDD EQ PUSH2 0x147F JUMPI DUP1 PUSH4 0x1DDA279B EQ PUSH2 0x12C7 JUMPI DUP1 PUSH4 0x1FDC217C EQ PUSH2 0x1238 JUMPI DUP1 PUSH4 0x23B872DD EQ PUSH2 0x1221 JUMPI DUP1 PUSH4 0x25532ECD EQ PUSH2 0x1153 JUMPI DUP1 PUSH4 0x2A76D553 EQ PUSH2 0x1036 JUMPI DUP1 PUSH4 0x2F745C59 EQ PUSH2 0xFB2 JUMPI DUP1 PUSH4 0x3705F2A8 EQ PUSH2 0xF0C JUMPI DUP1 PUSH4 0x407DE9DF EQ PUSH2 0xEDB JUMPI DUP1 PUSH4 0x42842E0E EQ PUSH2 0xEAD JUMPI DUP1 PUSH4 0x4F6CCCE7 EQ PUSH2 0xE57 JUMPI DUP1 PUSH4 0x5598F8CC EQ PUSH2 0xD93 JUMPI DUP1 PUSH4 0x6352211E EQ PUSH2 0xD63 JUMPI DUP1 PUSH4 0x70A08231 EQ PUSH2 0xD38 JUMPI DUP1 PUSH4 0x715018A6 EQ PUSH2 0xCDB JUMPI DUP1 PUSH4 0x7ECA30FE EQ PUSH2 0xCA1 JUMPI DUP1 PUSH4 0x8079CA0C EQ PUSH2 0xC4D JUMPI DUP1 PUSH4 0x8DA5CB5B EQ PUSH2 0xC24 JUMPI DUP1 PUSH4 0x95D89B41 EQ PUSH2 0xB41 JUMPI DUP1 PUSH4 0xA22CB465 EQ PUSH2 0xA9C JUMPI DUP1 PUSH4 0xB0E1C1E1 EQ PUSH2 0xA37 JUMPI DUP1 PUSH4 0xB6358D99 EQ PUSH2 0xA0B JUMPI DUP1 PUSH4 0xB88D4FDE EQ PUSH2 0x9A0 JUMPI DUP1 PUSH4 0xC1692213 EQ PUSH2 0x974 JUMPI DUP1 PUSH4 0xC87B56DD EQ PUSH2 0x917 JUMPI DUP1 PUSH4 0xCC3C3008 EQ PUSH2 0x4C8 JUMPI DUP1 PUSH4 0xD88D6EF3 EQ PUSH2 0x348 JUMPI DUP1 PUSH4 0xE985E9C5 EQ PUSH2 0x2F2 JUMPI DUP1 PUSH4 0xF2FDE38B EQ PUSH2 0x264 JUMPI PUSH4 0xF3FEF3A3 EQ PUSH2 0x1BE JUMPI CODESIZE PUSH2 0xF JUMP JUMPDEST CALLVALUE PUSH2 0x25F JUMPI PUSH1 0x40 CALLDATASIZE PUSH1 0x3 NOT ADD SLT PUSH2 0x25F JUMPI PUSH1 0x4 CALLDATALOAD PUSH1 0x1 PUSH1 0x1 PUSH1 0xA0 SHL SUB DUP2 AND SWAP1 DUP2 SWAP1 SUB PUSH2 0x25F JUMPI PUSH1 0x24 CALLDATALOAD SWAP1 PUSH2 0x1F0 PUSH2 0x25DB JUMP JUMPDEST DUP2 SELFBALANCE LT PUSH2 0x223 JUMPI PUSH1 0x0 DUP1 DUP1 SWAP4 DUP2 SWAP4 DUP3 DUP3 ISZERO PUSH2 0x21A JUMPI JUMPDEST CALL ISZERO PUSH2 0x20E JUMPI STOP JUMPDEST PUSH1 0x40 MLOAD RETURNDATASIZE PUSH1 0x0 DUP3 RETURNDATACOPY RETURNDATASIZE SWAP1 REVERT JUMPDEST POP PUSH2 0x8FC PUSH2 0x206 JUMP JUMPDEST PUSH1 0x40 MLOAD PUSH3 0x461BCD PUSH1 0xE5 SHL DUP2 MSTORE PUSH1 0x20 PUSH1 0x4 DUP3 ADD MSTORE PUSH1 0x14 PUSH1 0x24 DUP3 ADD MSTORE PUSH20 0x496E73756666696369656E742062616C616E6365 PUSH1 0x60 SHL PUSH1 0x44 DUP3 ADD MSTORE PUSH1 0x64 SWAP1 REVERT JUMPDEST PUSH1 0x0 DUP1 REVERT JUMPDEST CALLVALUE PUSH2 0x25F JUMPI PUSH1 0x20 CALLDATASIZE PUSH1 0x3 NOT ADD SLT PUSH2 0x25F JUMPI PUSH2 0x27D PUSH2 0x1A0E JUMP JUMPDEST PUSH2 0x285 PUSH2 0x25DB JUMP JUMPDEST PUSH1 0x1 PUSH1 0x1 PUSH1 0xA0 SHL SUB SWAP1 DUP2 AND SWAP1 DUP2 ISZERO PUSH2 0x2D9 JUMPI PUSH1 0xB SLOAD DUP3 PUSH12 0xFFFFFFFFFFFFFFFFFFFFFFFF PUSH1 0xA0 SHL DUP3 AND OR PUSH1 0xB SSTORE AND PUSH32 0x8BE0079C531659141344CD1FD0A4F28419497F9722A3DAAFE3B4186F6B6457E0 PUSH1 0x0 DUP1 LOG3 STOP JUMPDEST PUSH1 0x40 MLOAD PUSH4 0x1E4FBDF7 PUSH1 0xE0 SHL DUP2 MSTORE PUSH1 0x0 PUSH1 0x4 DUP3 ADD MSTORE PUSH1 0x24 SWAP1 REVERT JUMPDEST CALLVALUE PUSH2 0x25F JUMPI PUSH1 0x40 CALLDATASIZE PUSH1 0x3 NOT ADD SLT PUSH2 0x25F JUMPI PUSH2 0x30B PUSH2 0x1A0E JUMP JUMPDEST PUSH2 0x313 PUSH2 0x1A24 JUMP JUMPDEST SWAP1 PUSH1 0x1 DUP1 PUSH1 0xA0 SHL SUB DUP1 SWAP2 AND PUSH1 0x0 MSTORE PUSH1 0x5 PUSH1 0x20 MSTORE PUSH1 0x40 PUSH1 0x0 KECCAK256 SWAP2 AND PUSH1 0x0 MSTORE PUSH1 0x20 MSTORE PUSH1 0x20 PUSH1 0xFF PUSH1 0x40 PUSH1 0x0 KECCAK256 SLOAD AND PUSH1 0x40 MLOAD SWAP1 ISZERO ISZERO DUP2 MSTORE RETURN JUMPDEST PUSH1 0x20 DUP1 PUSH1 0x3 NOT CALLDATASIZE ADD SLT PUSH2 0x25F JUMPI PUSH1 0x4 CALLDATALOAD DUP1 PUSH1 0x0 MSTORE PUSH1 0xE DUP3 MSTORE PUSH1 0x40 PUSH1 0x0 KECCAK256 SWAP1 PUSH2 0x388 PUSH1 0xFF PUSH1 0xB DUP5 ADD SLOAD PUSH2 0x37E DUP3 DUP3 PUSH1 0xA0 SHR AND PUSH2 0x1C88 JUMP JUMPDEST PUSH1 0xA8 SHR AND ISZERO PUSH2 0x1CCA JUMP JUMPDEST PUSH2 0x3A0 PUSH1 0x7 DUP4 ADD SLOAD DUP1 ISZERO SWAP1 DUP2 ISZERO PUSH2 0x4BA JUMPI JUMPDEST POP PUSH2 0x1D08 JUMP JUMPDEST PUSH2 0x3B0 PUSH1 0x8 DUP4 ADD SLOAD CALLVALUE LT ISZERO PUSH2 0x1D58 JUMP JUMPDEST PUSH1 0xC SLOAD SWAP2 PUSH2 0x3BD DUP4 PUSH2 0x1D9B JUMP JUMPDEST PUSH1 0xC SSTORE PUSH2 0x412 PUSH2 0x40C PUSH1 0x1 PUSH1 0x6 DUP5 ADD SWAP4 PUSH2 0x3D7 DUP6 SLOAD PUSH2 0x1D9B JUMP JUMPDEST DUP1 SWAP6 SSTORE PUSH1 0x3 DUP2 ADD PUSH2 0x3E9 CALLVALUE DUP3 SLOAD PUSH2 0x1D4B JUMP JUMPDEST SWAP1 SSTORE PUSH1 0x4 DUP2 ADD PUSH2 0x3FA CALLVALUE DUP3 SLOAD PUSH2 0x1D4B JUMP JUMPDEST SWAP1 SSTORE PUSH2 0x406 DUP8 CALLER PUSH2 0x2183 JUMP JUMPDEST ADD PUSH2 0x1AB2 JUMP JUMPDEST DUP5 PUSH2 0x24A0 JUMP JUMPDEST DUP3 PUSH1 0x0 MSTORE PUSH1 0xF DUP5 MSTORE DUP2 PUSH1 0x40 PUSH1 0x0 KECCAK256 SSTORE PUSH1 0x10 DUP5 MSTORE DUP1 PUSH1 0x40 PUSH1 0x0 KECCAK256 SSTORE DUP2 PUSH1 0x0 MSTORE PUSH1 0x11 DUP5 MSTORE PUSH2 0x442 DUP4 PUSH1 0x40 PUSH1 0x0 KECCAK256 PUSH2 0x1DE6 JUMP JUMPDEST PUSH1 0x40 MLOAD SWAP1 DUP2 MSTORE CALLVALUE DUP5 DUP3 ADD MSTORE DUP3 DUP3 PUSH32 0x44A73422883FD5AAC8DDE6EF3688C62F25A4FB22E7A395BAFB411EC4803AB1BD PUSH1 0x40 CALLER SWAP5 LOG4 PUSH32 0xF1A038A86C47446D2A26B7852348EEE74E6D63D5A71792DF01E40C2E6D0E1CA2 PUSH1 0x80 PUSH1 0x40 MLOAD CALLVALUE DUP2 MSTORE CALLVALUE DUP7 DUP3 ADD MSTORE PUSH1 0x0 PUSH1 0x40 DUP3 ADD MSTORE PUSH1 0x1 PUSH1 0x60 DUP3 ADD MSTORE LOG2 PUSH1 0x40 MLOAD SWAP1 DUP2 MSTORE RETURN JUMPDEST SWAP1 POP PUSH1 0x6 DUP5 ADD SLOAD LT DUP6 PUSH2 0x39A JUMP JUMPDEST CALLVALUE PUSH2 0x25F JUMPI PUSH1 0xE0 CALLDATASIZE PUSH1 0x3 NOT ADD SLT PUSH2 0x25F JUMPI PUSH1 0x4 CALLDATALOAD PUSH8 0xFFFFFFFFFFFFFFFF DUP2 GT PUSH2 0x25F JUMPI PUSH2 0x4F9 SWAP1 CALLDATASIZE SWAP1 PUSH1 0x4 ADD PUSH2 0x1B6D JUMP JUMPDEST PUSH1 0x24 CALLDATALOAD PUSH8 0xFFFFFFFFFFFFFFFF DUP2 GT PUSH2 0x25F JUMPI PUSH2 0x519 SWAP1 CALLDATASIZE SWAP1 PUSH1 0x4 ADD PUSH2 0x1B6D JUMP JUMPDEST SWAP2 SWAP1 PUSH1 0xC4 CALLDATALOAD PUSH1 0x1 PUSH1 0x1 PUSH1 0xA0 SHL SUB DUP2 AND DUP2 SUB PUSH2 0x25F JUMPI PUSH2 0x536 PUSH2 0x25DB JUMP JUMPDEST PUSH1 0xD SLOAD SWAP4 PUSH2 0x543 DUP6 PUSH2 0x1D9B JUMP JUMPDEST PUSH1 0xD SSTORE PUSH1 0x40 MLOAD SWAP3 PUSH2 0x1C0 DUP5 ADD SWAP2 DUP5 DUP4 LT PUSH8 0xFFFFFFFFFFFFFFFF DUP5 GT OR PUSH2 0x88A JUMPI PUSH2 0x57E SWAP3 PUSH1 0x40 MSTORE PUSH2 0x575 CALLDATASIZE DUP8 DUP11 PUSH2 0x1C51 JUMP JUMPDEST DUP6 MSTORE CALLDATASIZE SWAP2 PUSH2 0x1C51 JUMP JUMPDEST PUSH1 0x20 DUP4 ADD MSTORE PUSH1 0x44 CALLDATALOAD PUSH1 0x40 DUP4 ADD MSTORE PUSH1 0x0 PUSH1 0x60 DUP4 ADD MSTORE PUSH1 0x0 PUSH1 0x80 DUP4 ADD MSTORE PUSH1 0x0 PUSH1 0xA0 DUP4 ADD MSTORE PUSH1 0x0 PUSH1 0xC0 DUP4 ADD MSTORE PUSH1 0x64 CALLDATALOAD PUSH1 0xE0 DUP4 ADD MSTORE PUSH1 0x84 CALLDATALOAD PUSH2 0x100 DUP4 ADD MSTORE PUSH1 0xA4 CALLDATALOAD PUSH2 0x120 DUP4 ADD MSTORE CALLER PUSH2 0x140 DUP4 ADD MSTORE PUSH1 0x1 DUP1 PUSH1 0xA0 SHL SUB AND PUSH2 0x160 DUP3 ADD MSTORE PUSH1 0x1 PUSH2 0x180 DUP3 ADD MSTORE PUSH1 0x0 PUSH2 0x1A0 DUP3 ADD MSTORE DUP3 PUSH1 0x0 MSTORE PUSH1 0xE PUSH1 0x20 MSTORE PUSH1 0x40 PUSH1 0x0 KECCAK256 SWAP4 DUP2 MLOAD DUP1 MLOAD SWAP1 PUSH8 0xFFFFFFFFFFFFFFFF DUP3 GT PUSH2 0x88A JUMPI PUSH2 0x61D DUP3 PUSH2 0x617 DUP10 SLOAD PUSH2 0x1A3A JUMP JUMPDEST DUP10 PUSH2 0x1E09 JUMP JUMPDEST PUSH1 0x20 SWAP1 PUSH1 0x1F DUP4 GT PUSH1 0x1 EQ PUSH2 0x8AB JUMPI PUSH2 0x64E SWAP3 SWAP2 PUSH1 0x0 SWAP2 DUP4 PUSH2 0x8A0 JUMPI JUMPDEST POP POP DUP2 PUSH1 0x1 SHL SWAP2 PUSH1 0x0 NOT SWAP1 PUSH1 0x3 SHL SHR NOT AND OR SWAP1 JUMP JUMPDEST DUP6 SSTORE JUMPDEST PUSH1 0x20 DUP3 ADD MLOAD SWAP2 DUP3 MLOAD SWAP6 PUSH8 0xFFFFFFFFFFFFFFFF DUP8 GT PUSH2 0x88A JUMPI DUP7 DUP7 SWAP5 PUSH2 0x688 PUSH1 0x20 SWAP10 PUSH2 0x67F PUSH1 0x1 DUP7 ADD SLOAD PUSH2 0x1A3A JUMP JUMPDEST PUSH1 0x1 DUP7 ADD PUSH2 0x1E09 JUMP JUMPDEST DUP9 SWAP1 PUSH1 0x1F DUP4 GT PUSH1 0x1 EQ PUSH2 0x7F0 JUMPI SWAP3 PUSH2 0x6E1 DUP4 PUSH2 0x7BF SWAP7 SWAP5 PUSH1 0xB SWAP5 PUSH32 0x9A6F279818B6C3ECAD22DD882C63460A80CEE0DF2841C888ADB08588AFF26C22 SWAP10 SWAP8 PUSH1 0x0 SWAP3 PUSH2 0x7E5 JUMPI POP POP DUP2 PUSH1 0x1 SHL SWAP2 PUSH1 0x0 NOT SWAP1 PUSH1 0x3 SHL SHR NOT AND OR SWAP1 JUMP JUMPDEST PUSH1 0x1 DUP3 ADD SSTORE JUMPDEST PUSH1 0x40 DUP4 ADD MLOAD PUSH1 0x2 DUP3 ADD SSTORE PUSH1 0x60 DUP4 ADD MLOAD PUSH1 0x3 DUP3 ADD SSTORE PUSH1 0x80 DUP4 ADD MLOAD PUSH1 0x4 DUP3 ADD SSTORE PUSH1 0xA0 DUP4 ADD MLOAD PUSH1 0x5 DUP3 ADD SSTORE PUSH1 0xC0 DUP4 ADD MLOAD PUSH1 0x6 DUP3 ADD SSTORE PUSH1 0xE0 DUP4 ADD MLOAD PUSH1 0x7 DUP3 ADD SSTORE PUSH2 0x100 DUP4 ADD MLOAD PUSH1 0x8 DUP3 ADD SSTORE PUSH2 0x120 DUP4 ADD MLOAD PUSH1 0x9 DUP3 ADD SSTORE PUSH1 0xA DUP2 ADD PUSH1 0x1 DUP1 PUSH1 0xA0 SHL SUB PUSH2 0x140 DUP6 ADD MLOAD AND PUSH12 0xFFFFFFFFFFFFFFFFFFFFFFFF PUSH1 0xA0 SHL DUP3 SLOAD AND OR SWAP1 SSTORE ADD SWAP1 PUSH1 0x1 DUP1 PUSH1 0xA0 SHL SUB PUSH2 0x160 DUP3 ADD MLOAD AND SWAP1 DUP3 SLOAD SWAP2 PUSH1 0xFF PUSH1 0xA0 SHL PUSH2 0x180 DUP4 ADD MLOAD ISZERO ISZERO PUSH1 0xA0 SHL AND SWAP2 PUSH2 0x1A0 PUSH1 0xFF PUSH1 0xA8 SHL SWAP2 ADD MLOAD ISZERO ISZERO PUSH1 0xA8 SHL AND SWAP3 PUSH10 0xFFFFFFFFFFFFFFFFFFFF PUSH1 0xB0 SHL AND OR OR OR SWAP1 SSTORE PUSH1 0x40 MLOAD SWAP5 PUSH1 0x80 DUP7 MSTORE PUSH1 0x80 DUP7 ADD SWAP2 PUSH2 0x1E5F JUMP JUMPDEST SWAP3 PUSH1 0x44 CALLDATALOAD DUP7 DUP3 ADD MSTORE PUSH1 0x64 CALLDATALOAD PUSH1 0x40 DUP3 ADD MSTORE PUSH1 0x84 CALLDATALOAD PUSH1 0x60 DUP3 ADD MSTORE DUP1 CALLER SWAP5 SUB SWAP1 LOG3 PUSH1 0x40 MLOAD SWAP1 DUP2 MSTORE RETURN JUMPDEST ADD MLOAD SWAP1 POP DUP14 DUP1 PUSH2 0x639 JUMP JUMPDEST SWAP1 PUSH1 0x1 DUP5 ADD PUSH1 0x0 MSTORE DUP10 PUSH1 0x0 KECCAK256 SWAP2 PUSH1 0x0 JUMPDEST PUSH1 0x1F NOT DUP6 AND DUP2 LT PUSH2 0x870 JUMPI POP DUP4 PUSH1 0xB SWAP4 PUSH32 0x9A6F279818B6C3ECAD22DD882C63460A80CEE0DF2841C888ADB08588AFF26C22 SWAP9 SWAP7 SWAP4 PUSH1 0x1 SWAP4 PUSH2 0x7BF SWAP10 SWAP8 PUSH1 0x1F NOT DUP2 AND LT PUSH2 0x857 JUMPI JUMPDEST POP POP POP DUP2 SHL ADD PUSH1 0x1 DUP3 ADD SSTORE PUSH2 0x6E7 JUMP JUMPDEST ADD MLOAD PUSH1 0x0 NOT PUSH1 0xF8 DUP5 PUSH1 0x3 SHL AND SHR NOT AND SWAP1 SSTORE DUP13 DUP1 DUP1 PUSH2 0x847 JUMP JUMPDEST DUP2 DUP4 ADD MLOAD DUP5 SSTORE DUP11 SWAP9 POP PUSH1 0x1 SWAP1 SWAP4 ADD SWAP3 SWAP2 DUP12 ADD SWAP2 DUP12 ADD PUSH2 0x800 JUMP JUMPDEST PUSH4 0x4E487B71 PUSH1 0xE0 SHL PUSH1 0x0 MSTORE PUSH1 0x41 PUSH1 0x4 MSTORE PUSH1 0x24 PUSH1 0x0 REVERT JUMPDEST ADD MLOAD SWAP1 POP DUP9 DUP1 PUSH2 0x639 JUMP JUMPDEST SWAP2 SWAP1 DUP8 PUSH1 0x0 MSTORE PUSH1 0x20 PUSH1 0x0 KECCAK256 SWAP1 PUSH1 0x0 SWAP4 JUMPDEST PUSH1 0x1F NOT DUP5 AND DUP6 LT PUSH2 0x8FC JUMPI PUSH1 0x1 SWAP5 POP DUP4 PUSH1 0x1F NOT DUP2 AND LT PUSH2 0x8E3 JUMPI JUMPDEST POP POP POP DUP2 SHL ADD DUP6 SSTORE PUSH2 0x651 JUMP JUMPDEST ADD MLOAD PUSH1 0x0 NOT PUSH1 0xF8 DUP5 PUSH1 0x3 SHL AND SHR NOT AND SWAP1 SSTORE DUP8 DUP1 DUP1 PUSH2 0x8D6 JUMP JUMPDEST DUP2 DUP2 ADD MLOAD DUP4 SSTORE PUSH1 0x20 SWAP5 DUP6 ADD SWAP5 PUSH1 0x1 SWAP1 SWAP4 ADD SWAP3 SWAP1 SWAP2 ADD SWAP1 PUSH2 0x8BB JUMP JUMPDEST CALLVALUE PUSH2 0x25F JUMPI PUSH1 0x20 CALLDATASIZE PUSH1 0x3 NOT ADD SLT PUSH2 0x25F JUMPI PUSH1 0x4 CALLDATALOAD PUSH2 0x934 DUP2 PUSH2 0x2148 JUMP JUMPDEST POP PUSH1 0x0 MSTORE PUSH1 0xA PUSH1 0x20 MSTORE PUSH2 0x970 PUSH2 0x94D PUSH1 0x40 PUSH1 0x0 KECCAK256 PUSH2 0x1AB2 JUMP JUMPDEST PUSH1 0x0 PUSH1 0x40 MLOAD PUSH2 0x95B DUP2 PUSH2 0x1A74 JUMP JUMPDEST MSTORE PUSH1 0x40 MLOAD SWAP2 DUP3 SWAP2 PUSH1 0x20 DUP4 MSTORE PUSH1 0x20 DUP4 ADD SWAP1 PUSH2 0x19CE JUMP JUMPDEST SUB SWAP1 RETURN JUMPDEST CALLVALUE PUSH2 0x25F JUMPI PUSH1 0x20 CALLDATASIZE PUSH1 0x3 NOT ADD SLT PUSH2 0x25F JUMPI PUSH1 0x4 CALLDATALOAD PUSH1 0x0 MSTORE PUSH1 0xF PUSH1 0x20 MSTORE PUSH1 0x20 PUSH1 0x40 PUSH1 0x0 KECCAK256 SLOAD PUSH1 0x40 MLOAD SWAP1 DUP2 MSTORE RETURN JUMPDEST CALLVALUE PUSH2 0x25F JUMPI PUSH1 0x80 CALLDATASIZE PUSH1 0x3 NOT ADD SLT PUSH2 0x25F JUMPI PUSH2 0x9B9 PUSH2 0x1A0E JUMP JUMPDEST PUSH2 0x9C1 PUSH2 0x1A24 JUMP JUMPDEST SWAP1 PUSH1 0x44 CALLDATALOAD PUSH1 0x64 CALLDATALOAD SWAP3 PUSH8 0xFFFFFFFFFFFFFFFF DUP5 GT PUSH2 0x25F JUMPI CALLDATASIZE PUSH1 0x23 DUP6 ADD SLT ISZERO PUSH2 0x25F JUMPI PUSH2 0x9FA PUSH2 0x18 SWAP5 CALLDATASIZE SWAP1 PUSH1 0x24 DUP2 PUSH1 0x4 ADD CALLDATALOAD SWAP2 ADD PUSH2 0x1C51 JUMP JUMPDEST SWAP3 PUSH2 0xA06 DUP4 DUP4 DUP4 PUSH2 0x1E80 JUMP JUMPDEST PUSH2 0x2607 JUMP JUMPDEST CALLVALUE PUSH2 0x25F JUMPI PUSH1 0x20 CALLDATASIZE PUSH1 0x3 NOT ADD SLT PUSH2 0x25F JUMPI PUSH1 0x4 CALLDATALOAD PUSH1 0x0 MSTORE PUSH1 0x10 PUSH1 0x20 MSTORE PUSH1 0x20 PUSH1 0x40 PUSH1 0x0 KECCAK256 SLOAD PUSH1 0x40 MLOAD SWAP1 DUP2 MSTORE RETURN JUMPDEST CALLVALUE PUSH2 0x25F JUMPI PUSH1 0x20 CALLDATASIZE PUSH1 0x3 NOT ADD SLT PUSH2 0x25F JUMPI PUSH1 0x4 CALLDATALOAD PUSH2 0xA53 PUSH2 0x25DB JUMP JUMPDEST PUSH1 0x0 DUP2 DUP2 MSTORE PUSH1 0xE PUSH1 0x20 MSTORE PUSH1 0x40 DUP2 KECCAK256 PUSH1 0xB ADD DUP1 SLOAD PUSH2 0xFFFF PUSH1 0xA0 SHL NOT AND PUSH1 0x1 PUSH1 0xA8 SHL OR SWAP1 SSTORE PUSH32 0x5E6EB33A418DE5DBBC17F989F7AE362CDFBB1748C5D603137C767027A354EDBC SWAP1 DUP1 LOG2 STOP JUMPDEST CALLVALUE PUSH2 0x25F JUMPI PUSH1 0x40 CALLDATASIZE PUSH1 0x3 NOT ADD SLT PUSH2 0x25F JUMPI PUSH2 0xAB5 PUSH2 0x1A0E JUMP JUMPDEST PUSH1 0x24 CALLDATALOAD SWAP1 DUP2 ISZERO ISZERO DUP1 SWAP3 SUB PUSH2 0x25F JUMPI PUSH1 0x1 PUSH1 0x1 PUSH1 0xA0 SHL SUB AND SWAP1 DUP2 ISZERO PUSH2 0xB28 JUMPI CALLER PUSH1 0x0 MSTORE PUSH1 0x5 PUSH1 0x20 MSTORE PUSH1 0x40 PUSH1 0x0 KECCAK256 DUP3 PUSH1 0x0 MSTORE PUSH1 0x20 MSTORE PUSH1 0x40 PUSH1 0x0 KECCAK256 PUSH1 0xFF NOT DUP2 SLOAD AND PUSH1 0xFF DUP4 AND OR SWAP1 SSTORE PUSH1 0x40 MLOAD SWAP1 DUP2 MSTORE PUSH32 0x17307EAB39AB6107E8899845AD3D59BD9653F200F220920489CA2B5937696C31 PUSH1 0x20 CALLER SWAP3 LOG3 STOP JUMPDEST PUSH1 0x40 MLOAD PUSH4 0xB611743 PUSH1 0xE3 SHL DUP2 MSTORE PUSH1 0x4 DUP2 ADD DUP4 SWAP1 MSTORE PUSH1 0x24 SWAP1 REVERT JUMPDEST CALLVALUE PUSH2 0x25F JUMPI PUSH1 0x0 CALLDATASIZE PUSH1 0x3 NOT ADD SLT PUSH2 0x25F JUMPI PUSH1 0x40 MLOAD PUSH1 0x0 PUSH1 0x1 DUP3 PUSH1 0x1 SLOAD SWAP3 PUSH2 0xB67 DUP5 PUSH2 0x1A3A JUMP JUMPDEST SWAP3 DUP4 DUP4 MSTORE PUSH1 0x20 SWAP5 DUP6 PUSH1 0x1 DUP3 AND SWAP2 DUP3 PUSH1 0x0 EQ PUSH2 0xC04 JUMPI POP POP PUSH1 0x1 EQ PUSH2 0xBA7 JUMPI JUMPDEST POP PUSH2 0xB93 SWAP3 POP SUB DUP4 PUSH2 0x1A90 JUMP JUMPDEST PUSH2 0x970 PUSH1 0x40 MLOAD SWAP3 DUP3 DUP5 SWAP4 DUP5 MSTORE DUP4 ADD SWAP1 PUSH2 0x19CE JUMP JUMPDEST DUP5 SWAP2 POP PUSH1 0x1 PUSH1 0x0 MSTORE PUSH32 0xB10E2D527612073B26EECDFD717E6A320CF44B4AFAC2B0732D9FCBE2B7FA0CF6 SWAP1 PUSH1 0x0 SWAP2 JUMPDEST DUP6 DUP4 LT PUSH2 0xBEC JUMPI POP POP PUSH2 0xB93 SWAP4 POP DUP3 ADD ADD DUP6 PUSH2 0xB86 JUMP JUMPDEST DUP1 SLOAD DUP4 DUP10 ADD DUP6 ADD MSTORE DUP8 SWAP5 POP DUP7 SWAP4 SWAP1 SWAP3 ADD SWAP2 DUP2 ADD PUSH2 0xBD5 JUMP JUMPDEST PUSH1 0xFF NOT AND DUP6 DUP3 ADD MSTORE PUSH2 0xB93 SWAP6 ISZERO ISZERO PUSH1 0x5 SHL DUP6 ADD ADD SWAP3 POP DUP8 SWAP2 POP PUSH2 0xB86 SWAP1 POP JUMP JUMPDEST CALLVALUE PUSH2 0x25F JUMPI PUSH1 0x0 CALLDATASIZE PUSH1 0x3 NOT ADD SLT PUSH2 0x25F JUMPI PUSH1 0xB SLOAD PUSH1 0x40 MLOAD PUSH1 0x1 PUSH1 0x1 PUSH1 0xA0 SHL SUB SWAP1 SWAP2 AND DUP2 MSTORE PUSH1 0x20 SWAP1 RETURN JUMPDEST CALLVALUE PUSH2 0x25F JUMPI PUSH1 0x20 CALLDATASIZE PUSH1 0x3 NOT ADD SLT PUSH2 0x25F JUMPI PUSH1 0x4 CALLDATALOAD PUSH1 0x0 MSTORE PUSH1 0xF PUSH1 0x20 MSTORE PUSH1 0x60 PUSH1 0x40 PUSH1 0x0 KECCAK256 SLOAD PUSH1 0x10 PUSH1 0x20 MSTORE PUSH1 0x40 PUSH1 0x0 KECCAK256 SLOAD DUP2 PUSH1 0x0 MSTORE PUSH1 0xE PUSH1 0x20 MSTORE PUSH1 0x6 PUSH1 0x40 PUSH1 0x0 KECCAK256 ADD SLOAD SWAP1 PUSH1 0x40 MLOAD SWAP3 DUP4 MSTORE PUSH1 0x20 DUP4 ADD MSTORE PUSH1 0x40 DUP3 ADD MSTORE RETURN JUMPDEST CALLVALUE PUSH2 0x25F JUMPI PUSH1 0x20 CALLDATASIZE PUSH1 0x3 NOT ADD SLT PUSH2 0x25F JUMPI PUSH2 0xCBA PUSH2 0x25DB JUMP JUMPDEST PUSH1 0x4 CALLDATALOAD PUSH1 0x0 SWAP1 DUP2 MSTORE PUSH1 0xE PUSH1 0x20 MSTORE PUSH1 0x40 SWAP1 KECCAK256 PUSH1 0xB ADD DUP1 SLOAD PUSH1 0xFF PUSH1 0xA0 SHL NOT AND SWAP1 SSTORE STOP JUMPDEST CALLVALUE PUSH2 0x25F JUMPI PUSH1 0x0 CALLDATASIZE PUSH1 0x3 NOT ADD SLT PUSH2 0x25F JUMPI PUSH2 0xCF4 PUSH2 0x25DB JUMP JUMPDEST PUSH1 0xB DUP1 SLOAD PUSH1 0x1 PUSH1 0x1 PUSH1 0xA0 SHL SUB NOT DUP2 AND SWAP1 SWAP2 SSTORE PUSH1 0x0 SWAP1 PUSH1 0x1 PUSH1 0x1 PUSH1 0xA0 SHL SUB AND PUSH32 0x8BE0079C531659141344CD1FD0A4F28419497F9722A3DAAFE3B4186F6B6457E0 DUP3 DUP1 LOG3 STOP JUMPDEST CALLVALUE PUSH2 0x25F JUMPI PUSH1 0x20 CALLDATASIZE PUSH1 0x3 NOT ADD SLT PUSH2 0x25F JUMPI PUSH1 0x20 PUSH2 0xD5B PUSH2 0xD56 PUSH2 0x1A0E JUMP JUMPDEST PUSH2 0x210F JUMP JUMPDEST PUSH1 0x40 MLOAD SWAP1 DUP2 MSTORE RETURN JUMPDEST CALLVALUE PUSH2 0x25F JUMPI PUSH1 0x20 CALLDATASIZE PUSH1 0x3 NOT ADD SLT PUSH2 0x25F JUMPI PUSH1 0x20 PUSH2 0xD81 PUSH1 0x4 CALLDATALOAD PUSH2 0x2148 JUMP JUMPDEST PUSH1 0x40 MLOAD PUSH1 0x1 PUSH1 0x1 PUSH1 0xA0 SHL SUB SWAP1 SWAP2 AND DUP2 MSTORE RETURN JUMPDEST CALLVALUE PUSH2 0x25F JUMPI PUSH1 0x20 CALLDATASIZE PUSH1 0x3 NOT ADD SLT PUSH2 0x25F JUMPI PUSH1 0x4 CALLDATALOAD PUSH1 0x0 MSTORE PUSH1 0xE PUSH1 0x20 MSTORE PUSH2 0xE0C PUSH1 0x40 PUSH1 0x0 KECCAK256 PUSH1 0x2 DUP2 ADD SLOAD PUSH1 0xFF PUSH1 0x3 DUP4 ADD SLOAD PUSH1 0x4 DUP5 ADD SLOAD PUSH1 0x6 DUP6 ADD SLOAD PUSH1 0x7 DUP7 ADD SLOAD SWAP1 PUSH1 0x8 DUP8 ADD SLOAD SWAP3 PUSH1 0xB DUP9 ADD SLOAD SWAP5 PUSH2 0xE1A PUSH2 0xDF7 PUSH1 0x1 PUSH2 0xDF0 DUP13 PUSH2 0x1AB2 JUMP JUMPDEST SWAP12 ADD PUSH2 0x1AB2 JUMP JUMPDEST PUSH1 0x40 MLOAD SWAP12 DUP13 SWAP12 DUP13 PUSH2 0x140 DUP1 SWAP2 MSTORE DUP14 ADD SWAP1 PUSH2 0x19CE JUMP JUMPDEST SWAP1 DUP12 DUP3 SUB PUSH1 0x20 DUP14 ADD MSTORE PUSH2 0x19CE JUMP JUMPDEST SWAP8 PUSH1 0x40 DUP11 ADD MSTORE PUSH1 0x60 DUP10 ADD MSTORE PUSH1 0x80 DUP9 ADD MSTORE PUSH1 0xA0 DUP8 ADD MSTORE PUSH1 0xC0 DUP7 ADD MSTORE PUSH1 0xE0 DUP6 ADD MSTORE DUP2 DUP2 PUSH1 0xA0 SHR AND ISZERO ISZERO PUSH2 0x100 DUP6 ADD MSTORE PUSH1 0xA8 SHR AND ISZERO ISZERO PUSH2 0x120 DUP4 ADD MSTORE SUB SWAP1 RETURN JUMPDEST CALLVALUE PUSH2 0x25F JUMPI PUSH1 0x20 CALLDATASIZE PUSH1 0x3 NOT ADD SLT PUSH2 0x25F JUMPI PUSH1 0x4 CALLDATALOAD PUSH1 0x8 SLOAD DUP2 LT ISZERO PUSH2 0xE8E JUMPI PUSH2 0xE80 PUSH1 0x20 SWAP2 PUSH2 0x1BD0 JUMP JUMPDEST SWAP1 SLOAD PUSH1 0x40 MLOAD SWAP2 PUSH1 0x3 SHL SHR DUP2 MSTORE RETURN JUMPDEST PUSH1 0x44 SWAP1 PUSH1 0x40 MLOAD SWAP1 PUSH4 0x295F44F7 PUSH1 0xE2 SHL DUP3 MSTORE PUSH1 0x0 PUSH1 0x4 DUP4 ADD MSTORE PUSH1 0x24 DUP3 ADD MSTORE REVERT JUMPDEST CALLVALUE PUSH2 0x25F JUMPI PUSH2 0x18 PUSH2 0xEBE CALLDATASIZE PUSH2 0x1B9B JUMP JUMPDEST SWAP1 PUSH1 0x40 MLOAD SWAP3 PUSH2 0xECC DUP5 PUSH2 0x1A74 JUMP JUMPDEST PUSH1 0x0 DUP5 MSTORE PUSH2 0xA06 DUP4 DUP4 DUP4 PUSH2 0x1E80 JUMP JUMPDEST CALLVALUE PUSH2 0x25F JUMPI PUSH2 0xEE9 CALLDATASIZE PUSH2 0x1B57 JUMP JUMPDEST SWAP1 PUSH1 0x0 MSTORE PUSH1 0x11 PUSH1 0x20 MSTORE PUSH1 0x40 PUSH1 0x0 KECCAK256 DUP1 SLOAD DUP3 LT ISZERO PUSH2 0x25F JUMPI PUSH1 0x20 SWAP2 PUSH2 0xE80 SWAP2 PUSH2 0x1C1D JUMP JUMPDEST CALLVALUE PUSH2 0x25F JUMPI PUSH1 0x20 DUP1 PUSH1 0x3 NOT CALLDATASIZE ADD SLT PUSH2 0x25F JUMPI PUSH1 0x4 CALLDATALOAD PUSH1 0x0 MSTORE PUSH1 0x11 DUP2 MSTORE PUSH1 0x40 PUSH1 0x0 KECCAK256 PUSH1 0x40 MLOAD SWAP1 DUP2 DUP4 DUP3 SLOAD SWAP2 DUP3 DUP2 MSTORE ADD SWAP1 DUP2 SWAP3 PUSH1 0x0 MSTORE DUP5 PUSH1 0x0 KECCAK256 SWAP1 PUSH1 0x0 JUMPDEST DUP7 DUP3 DUP3 LT PUSH2 0xF9E JUMPI DUP7 DUP7 PUSH2 0xF5E DUP3 DUP9 SUB DUP4 PUSH2 0x1A90 JUMP JUMPDEST PUSH1 0x40 MLOAD SWAP3 DUP4 SWAP3 DUP2 DUP5 ADD SWAP1 DUP3 DUP6 MSTORE MLOAD DUP1 SWAP2 MSTORE PUSH1 0x40 DUP5 ADD SWAP3 SWAP2 PUSH1 0x0 JUMPDEST DUP3 DUP2 LT PUSH2 0xF87 JUMPI POP POP POP POP SUB SWAP1 RETURN JUMPDEST DUP4 MLOAD DUP6 MSTORE DUP7 SWAP6 POP SWAP4 DUP2 ADD SWAP4 SWAP3 DUP2 ADD SWAP3 PUSH1 0x1 ADD PUSH2 0xF78 JUMP JUMPDEST DUP4 SLOAD DUP6 MSTORE SWAP1 SWAP4 ADD SWAP3 PUSH1 0x1 SWAP3 DUP4 ADD SWAP3 ADD PUSH2 0xF48 JUMP JUMPDEST CALLVALUE PUSH2 0x25F JUMPI PUSH1 0x40 CALLDATASIZE PUSH1 0x3 NOT ADD SLT PUSH2 0x25F JUMPI PUSH2 0xFCB PUSH2 0x1A0E JUMP JUMPDEST PUSH1 0x24 CALLDATALOAD SWAP1 PUSH2 0xFD8 DUP2 PUSH2 0x210F JUMP JUMPDEST DUP3 LT ISZERO PUSH2 0x100B JUMPI PUSH1 0x1 DUP1 PUSH1 0xA0 SHL SUB AND PUSH1 0x0 MSTORE PUSH1 0x6 PUSH1 0x20 MSTORE PUSH1 0x40 PUSH1 0x0 KECCAK256 SWAP1 PUSH1 0x0 MSTORE PUSH1 0x20 MSTORE PUSH1 0x20 PUSH1 0x40 PUSH1 0x0 KECCAK256 SLOAD PUSH1 0x40 MLOAD SWAP1 DUP2 MSTORE RETURN JUMPDEST PUSH1 0x40 MLOAD PUSH4 0x295F44F7 PUSH1 0xE2 SHL DUP2 MSTORE PUSH1 0x1 PUSH1 0x1 PUSH1 0xA0 SHL SUB SWAP2 SWAP1 SWAP2 AND PUSH1 0x4 DUP3 ADD MSTORE PUSH1 0x24 DUP2 ADD SWAP2 SWAP1 SWAP2 MSTORE PUSH1 0x44 SWAP1 REVERT JUMPDEST CALLVALUE PUSH2 0x25F JUMPI PUSH1 0x60 CALLDATASIZE PUSH1 0x3 NOT ADD SLT PUSH2 0x25F JUMPI PUSH1 0x4 CALLDATALOAD PUSH1 0x40 PUSH2 0x1054 PUSH2 0x1A24 JUMP JUMPDEST SWAP2 PUSH2 0x105D PUSH2 0x25DB JUMP JUMPDEST DUP1 PUSH1 0x0 MSTORE PUSH1 0x20 SWAP3 PUSH1 0xE DUP5 MSTORE DUP3 PUSH1 0x0 KECCAK256 SWAP2 PUSH2 0x1085 PUSH1 0xFF PUSH1 0xB DUP6 ADD SLOAD PUSH2 0x37E DUP3 DUP3 PUSH1 0xA0 SHR AND PUSH2 0x1C88 JUMP JUMPDEST PUSH2 0x109C PUSH1 0x7 DUP5 ADD SLOAD DUP1 ISZERO SWAP1 DUP2 ISZERO PUSH2 0x1145 JUMPI POP PUSH2 0x1D08 JUMP JUMPDEST PUSH32 0x44A73422883FD5AAC8DDE6EF3688C62F25A4FB22E7A395BAFB411EC4803AB1BD PUSH1 0xC SLOAD SWAP5 DUP6 SWAP4 PUSH2 0x10CC DUP6 PUSH2 0x1D9B JUMP JUMPDEST PUSH1 0xC SSTORE PUSH2 0x10F9 PUSH2 0x10F3 PUSH1 0x1 PUSH1 0x6 DUP10 ADD SWAP9 PUSH2 0x10E6 DUP11 SLOAD PUSH2 0x1D9B JUMP JUMPDEST DUP1 SWAP11 SSTORE PUSH2 0x406 DUP10 DUP7 PUSH2 0x2183 JUMP JUMPDEST DUP7 PUSH2 0x24A0 JUMP JUMPDEST DUP5 PUSH1 0x0 MSTORE PUSH1 0xF DUP9 MSTORE DUP4 DUP3 PUSH1 0x0 KECCAK256 SSTORE PUSH1 0x10 DUP9 MSTORE DUP6 DUP3 PUSH1 0x0 KECCAK256 SSTORE DUP4 PUSH1 0x0 MSTORE PUSH1 0x11 DUP9 MSTORE PUSH2 0x1126 DUP6 DUP4 PUSH1 0x0 KECCAK256 PUSH2 0x1DE6 JUMP JUMPDEST DUP2 MLOAD SWAP6 DUP7 MSTORE PUSH1 0x44 CALLDATALOAD DUP9 DUP8 ADD MSTORE PUSH1 0x1 PUSH1 0x1 PUSH1 0xA0 SHL SUB AND SWAP5 LOG4 PUSH1 0x40 MLOAD SWAP1 DUP2 MSTORE RETURN JUMPDEST SWAP1 POP PUSH1 0x6 DUP6 ADD SLOAD LT DUP8 PUSH2 0x39A JUMP JUMPDEST CALLVALUE PUSH2 0x25F JUMPI PUSH1 0xA0 CALLDATASIZE PUSH1 0x3 NOT ADD SLT PUSH2 0x25F JUMPI PUSH1 0x4 CALLDATALOAD PUSH1 0x24 CALLDATALOAD PUSH1 0x44 CALLDATALOAD PUSH1 0x64 CALLDATALOAD SWAP2 PUSH1 0x84 CALLDATALOAD DUP1 ISZERO ISZERO DUP1 SWAP2 SUB PUSH2 0x25F JUMPI PUSH32 0xF1A038A86C47446D2A26B7852348EEE74E6D63D5A71792DF01E40C2E6D0E1CA2 SWAP4 PUSH1 0x80 SWAP4 PUSH2 0x11AB PUSH2 0x25DB JUMP JUMPDEST DUP7 PUSH1 0x0 MSTORE PUSH1 0xE PUSH1 0x20 MSTORE PUSH1 0x5 PUSH1 0x40 PUSH1 0x0 KECCAK256 PUSH2 0x11CF PUSH1 0xFF PUSH1 0xB DUP4 ADD SLOAD PUSH1 0xA8 SHR AND ISZERO PUSH2 0x1CCA JUMP JUMPDEST PUSH2 0x11D9 DUP5 DUP8 PUSH2 0x1D4B JUMP JUMPDEST PUSH2 0x11E8 PUSH1 0x3 DUP4 ADD SWAP2 DUP3 SLOAD PUSH2 0x1D4B JUMP JUMPDEST SWAP1 SSTORE PUSH1 0x4 DUP2 ADD PUSH2 0x11F9 DUP5 DUP3 SLOAD PUSH2 0x1D4B JUMP JUMPDEST SWAP1 SSTORE ADD PUSH2 0x1207 DUP4 DUP3 SLOAD PUSH2 0x1D4B JUMP JUMPDEST SWAP1 SSTORE PUSH1 0x40 MLOAD SWAP4 DUP5 MSTORE PUSH1 0x20 DUP5 ADD MSTORE PUSH1 0x40 DUP4 ADD MSTORE PUSH1 0x60 DUP3 ADD MSTORE LOG2 STOP JUMPDEST CALLVALUE PUSH2 0x25F JUMPI PUSH2 0x18 PUSH2 0x1232 CALLDATASIZE PUSH2 0x1B9B JUMP JUMPDEST SWAP2 PUSH2 0x1E80 JUMP JUMPDEST CALLVALUE PUSH2 0x25F JUMPI PUSH1 0x20 CALLDATASIZE PUSH1 0x3 NOT ADD SLT PUSH2 0x25F JUMPI PUSH2 0x1251 PUSH2 0x25DB JUMP JUMPDEST PUSH1 0x4 CALLDATALOAD PUSH1 0x0 MSTORE PUSH1 0xE PUSH1 0x20 MSTORE PUSH1 0xB PUSH1 0x40 PUSH1 0x0 KECCAK256 ADD DUP1 SLOAD PUSH1 0xFF DUP2 PUSH1 0xA8 SHR AND PUSH2 0x1282 JUMPI PUSH1 0xFF PUSH1 0xA0 SHL NOT AND PUSH1 0x1 PUSH1 0xA0 SHL OR SWAP1 SSTORE STOP JUMPDEST PUSH1 0x40 MLOAD PUSH3 0x461BCD PUSH1 0xE5 SHL DUP2 MSTORE PUSH1 0x20 PUSH1 0x4 DUP3 ADD MSTORE PUSH1 0x1B PUSH1 0x24 DUP3 ADD MSTORE PUSH32 0x43616D706169676E207065726D616E656E746C7920636C6F7365640000000000 PUSH1 0x44 DUP3 ADD MSTORE PUSH1 0x64 SWAP1 REVERT JUMPDEST CALLVALUE PUSH2 0x25F JUMPI PUSH1 0x40 CALLDATASIZE PUSH1 0x3 NOT ADD SLT PUSH2 0x25F JUMPI PUSH1 0x4 CALLDATALOAD PUSH8 0xFFFFFFFFFFFFFFFF PUSH1 0x24 CALLDATALOAD DUP2 DUP2 GT PUSH2 0x25F JUMPI PUSH2 0x12FC SWAP1 CALLDATASIZE SWAP1 PUSH1 0x4 ADD PUSH2 0x1B6D JUMP JUMPDEST SWAP2 SWAP1 PUSH2 0x1306 PUSH2 0x25DB JUMP JUMPDEST DUP4 PUSH1 0x0 MSTORE PUSH1 0x20 SWAP2 PUSH1 0xE DUP4 MSTORE PUSH1 0x40 PUSH1 0x0 KECCAK256 SWAP1 PUSH2 0x132B PUSH1 0xFF PUSH1 0xB DUP5 ADD SLOAD PUSH1 0xA8 SHR AND ISZERO PUSH2 0x1CCA JUMP JUMPDEST PUSH1 0x1 DUP1 SWAP3 ADD SWAP1 DUP6 GT PUSH2 0x88A JUMPI PUSH2 0x134B DUP6 PUSH2 0x1345 DUP4 SLOAD PUSH2 0x1A3A JUMP JUMPDEST DUP4 PUSH2 0x1E09 JUMP JUMPDEST PUSH1 0x0 DUP6 PUSH1 0x1F DUP2 GT PUSH1 0x1 EQ PUSH2 0x141A JUMPI DUP1 PUSH2 0x137A SWAP3 PUSH1 0x0 SWAP2 PUSH2 0x140F JUMPI JUMPDEST POP DUP2 PUSH1 0x1 SHL SWAP2 PUSH1 0x0 NOT SWAP1 PUSH1 0x3 SHL SHR NOT AND OR SWAP1 JUMP JUMPDEST SWAP1 SSTORE JUMPDEST DUP5 PUSH1 0x0 MSTORE PUSH1 0x11 DUP4 MSTORE PUSH1 0x40 PUSH1 0x0 KECCAK256 DUP2 PUSH1 0x0 SWAP1 JUMPDEST PUSH2 0x13D1 JUMPI JUMPDEST PUSH1 0x40 MLOAD DUP6 DUP2 MSTORE DUP8 SWAP1 PUSH32 0xD0ED2732DA48175AAAE07FD675A2A78B1700515722F6675D7FF5F0E09F22F309 SWAP1 DUP1 PUSH2 0x13CC DUP2 DUP11 ADD DUP12 DUP11 PUSH2 0x1E5F JUMP JUMPDEST SUB SWAP1 LOG2 STOP JUMPDEST DUP2 SLOAD DUP2 LT ISZERO PUSH2 0x140A JUMPI SWAP1 DUP3 DUP3 PUSH2 0x1402 PUSH2 0x13EB DUP4 SWAP6 DUP6 PUSH2 0x1C1D JUMP JUMPDEST SWAP1 SLOAD PUSH2 0x13F8 CALLDATASIZE DUP13 DUP12 PUSH2 0x1C51 JUMP JUMPDEST SWAP2 PUSH1 0x3 SHL SHR PUSH2 0x24A0 JUMP JUMPDEST ADD SWAP1 SWAP2 PUSH2 0x138F JUMP JUMPDEST PUSH2 0x1394 JUMP JUMPDEST SWAP1 POP DUP6 ADD CALLDATALOAD DUP10 PUSH2 0x1366 JUMP JUMPDEST POP PUSH1 0x1F NOT DUP7 AND SWAP1 DUP3 PUSH1 0x0 MSTORE DUP7 DUP7 PUSH1 0x0 KECCAK256 SWAP3 PUSH1 0x0 JUMPDEST DUP9 DUP8 DUP4 DUP4 LT PUSH2 0x1468 JUMPI POP POP POP LT PUSH2 0x144E JUMPI JUMPDEST POP POP DUP2 DUP6 DUP2 SHL ADD SWAP1 SSTORE PUSH2 0x137D JUMP JUMPDEST DUP5 ADD CALLDATALOAD PUSH1 0x0 NOT PUSH1 0x3 DUP9 SWAP1 SHL PUSH1 0xF8 AND SHR NOT AND SWAP1 SSTORE DUP7 DUP1 PUSH2 0x1440 JUMP JUMPDEST DUP6 DUP11 ADD CALLDATALOAD DUP8 SSTORE SWAP1 SWAP6 ADD SWAP5 SWAP4 DUP5 ADD SWAP4 DUP11 SWAP4 POP ADD PUSH2 0x142E JUMP JUMPDEST CALLVALUE PUSH2 0x25F JUMPI PUSH1 0x0 CALLDATASIZE PUSH1 0x3 NOT ADD SLT PUSH2 0x25F JUMPI PUSH1 0x20 PUSH1 0x8 SLOAD PUSH1 0x40 MLOAD SWAP1 DUP2 MSTORE RETURN JUMPDEST PUSH2 0x14A6 CALLDATASIZE PUSH2 0x1B57 JUMP JUMPDEST DUP2 PUSH1 0x0 MSTORE PUSH1 0x20 SWAP2 PUSH1 0xE DUP4 MSTORE PUSH1 0x40 PUSH1 0x0 KECCAK256 SWAP2 PUSH2 0x14CF PUSH1 0xFF PUSH1 0xB DUP6 ADD SLOAD PUSH2 0x37E DUP3 DUP3 PUSH1 0xA0 SHR AND PUSH2 0x1C88 JUMP JUMPDEST PUSH2 0x14E6 PUSH1 0x7 DUP5 ADD SLOAD DUP1 ISZERO SWAP1 DUP2 ISZERO PUSH2 0x1635 JUMPI POP PUSH2 0x1D08 JUMP JUMPDEST PUSH2 0x14FF PUSH2 0x14F7 DUP3 PUSH1 0x8 DUP7 ADD SLOAD PUSH2 0x1D4B JUMP JUMPDEST CALLVALUE LT ISZERO PUSH2 0x1D58 JUMP JUMPDEST PUSH1 0xC SLOAD SWAP3 PUSH2 0x150C DUP5 PUSH2 0x1D9B JUMP JUMPDEST PUSH1 0xC SSTORE PUSH1 0x6 DUP2 ADD SWAP2 PUSH2 0x151E DUP4 SLOAD PUSH2 0x1D9B JUMP JUMPDEST DUP1 SWAP4 SSTORE DUP1 CALLVALUE SUB SWAP1 CALLVALUE DUP3 GT PUSH2 0x161F JUMPI PUSH32 0xF1A038A86C47446D2A26B7852348EEE74E6D63D5A71792DF01E40C2E6D0E1CA2 SWAP4 PUSH2 0x159C PUSH2 0x1596 PUSH1 0x1 DUP7 PUSH1 0x3 PUSH1 0x80 SWAP9 ADD PUSH2 0x1568 CALLVALUE DUP3 SLOAD PUSH2 0x1D4B JUMP JUMPDEST SWAP1 SSTORE PUSH1 0x4 DUP2 ADD PUSH2 0x1579 DUP9 DUP3 SLOAD PUSH2 0x1D4B JUMP JUMPDEST SWAP1 SSTORE PUSH1 0x5 DUP2 ADD PUSH2 0x158A DUP8 DUP3 SLOAD PUSH2 0x1D4B JUMP JUMPDEST SWAP1 SSTORE PUSH2 0x406 DUP12 CALLER PUSH2 0x2183 JUMP JUMPDEST DUP9 PUSH2 0x24A0 JUMP JUMPDEST DUP7 PUSH1 0x0 MSTORE PUSH1 0xF DUP9 MSTORE DUP6 PUSH1 0x40 PUSH1 0x0 KECCAK256 SSTORE PUSH1 0x10 DUP9 MSTORE DUP1 PUSH1 0x40 PUSH1 0x0 KECCAK256 SSTORE DUP6 PUSH1 0x0 MSTORE PUSH1 0x11 DUP9 MSTORE PUSH2 0x15CC DUP8 PUSH1 0x40 PUSH1 0x0 KECCAK256 PUSH2 0x1DE6 JUMP JUMPDEST PUSH1 0x40 MLOAD SWAP1 DUP2 MSTORE CALLVALUE DUP9 DUP3 ADD MSTORE DUP7 DUP7 PUSH32 0x44A73422883FD5AAC8DDE6EF3688C62F25A4FB22E7A395BAFB411EC4803AB1BD PUSH1 0x40 CALLER SWAP5 LOG4 PUSH1 0x40 MLOAD SWAP2 CALLVALUE DUP4 MSTORE DUP8 DUP4 ADD MSTORE PUSH1 0x40 DUP3 ADD MSTORE PUSH1 0x1 PUSH1 0x60 DUP3 ADD MSTORE LOG2 PUSH1 0x40 MLOAD SWAP1 DUP2 MSTORE RETURN JUMPDEST PUSH4 0x4E487B71 PUSH1 0xE0 SHL PUSH1 0x0 MSTORE PUSH1 0x11 PUSH1 0x4 MSTORE PUSH1 0x24 PUSH1 0x0 REVERT JUMPDEST SWAP1 POP PUSH1 0x6 DUP6 ADD SLOAD LT DUP7 PUSH2 0x39A JUMP JUMPDEST CALLVALUE PUSH2 0x25F JUMPI PUSH1 0x20 CALLDATASIZE PUSH1 0x3 NOT ADD SLT PUSH2 0x25F JUMPI PUSH1 0x4 CALLDATALOAD PUSH1 0x0 MSTORE PUSH1 0xE PUSH1 0x20 MSTORE PUSH1 0x40 PUSH1 0x0 KECCAK256 PUSH2 0x166D DUP2 PUSH2 0x1AB2 JUMP JUMPDEST PUSH2 0x1679 PUSH1 0x1 DUP4 ADD PUSH2 0x1AB2 JUMP JUMPDEST SWAP2 PUSH1 0x2 DUP2 ADD SLOAD SWAP1 PUSH1 0x3 DUP2 ADD SLOAD SWAP1 PUSH1 0x4 DUP2 ADD SLOAD SWAP1 PUSH1 0x5 DUP2 ADD SLOAD PUSH1 0x6 DUP3 ADD SLOAD PUSH1 0x7 DUP4 ADD SLOAD PUSH1 0x8 DUP5 ADD SLOAD SWAP2 PUSH1 0x9 DUP6 ADD SLOAD SWAP4 PUSH1 0x1 PUSH1 0xA0 SHL PUSH1 0x1 SWAP1 SUB SWAP7 DUP8 PUSH1 0xA DUP9 ADD SLOAD AND SWAP7 PUSH1 0xB ADD SLOAD SWAP9 PUSH1 0x40 MLOAD SWAP13 DUP14 SWAP13 DUP14 PUSH2 0x1C0 SWAP1 DUP2 DUP2 MSTORE ADD PUSH2 0x16D6 SWAP2 PUSH2 0x19CE JUMP JUMPDEST DUP14 DUP2 SUB PUSH1 0x20 DUP16 ADD MSTORE PUSH2 0x16E7 SWAP2 PUSH2 0x19CE JUMP JUMPDEST SWAP11 PUSH1 0x40 DUP14 ADD MSTORE PUSH1 0x60 DUP13 ADD MSTORE PUSH1 0x80 DUP12 ADD MSTORE PUSH1 0xA0 DUP11 ADD MSTORE PUSH1 0xC0 DUP10 ADD MSTORE PUSH1 0xE0 DUP9 ADD MSTORE PUSH2 0x100 DUP8 ADD MSTORE PUSH2 0x120 DUP7 ADD MSTORE PUSH2 0x140 DUP6 ADD MSTORE DUP2 AND PUSH2 0x160 DUP5 ADD MSTORE DUP1 PUSH1 0xA0 SHR PUSH1 0xFF AND ISZERO ISZERO PUSH2 0x180 DUP5 ADD MSTORE PUSH1 0xA8 SHR PUSH1 0xFF AND ISZERO ISZERO PUSH2 0x1A0 DUP4 ADD MSTORE SUB SWAP1 RETURN JUMPDEST CALLVALUE PUSH2 0x25F JUMPI PUSH1 0x40 CALLDATASIZE PUSH1 0x3 NOT ADD SLT PUSH2 0x25F JUMPI PUSH2 0x175A PUSH2 0x1A0E JUMP JUMPDEST PUSH1 0x24 CALLDATALOAD PUSH2 0x1766 DUP2 PUSH2 0x2148 JUMP JUMPDEST CALLER ISZERO ISZERO DUP1 PUSH2 0x1815 JUMPI JUMPDEST DUP1 PUSH2 0x17E8 JUMPI JUMPDEST PUSH2 0x17D0 JUMPI PUSH1 0x1 PUSH1 0x1 PUSH1 0xA0 SHL SUB SWAP3 DUP4 AND SWAP3 DUP3 SWAP2 DUP5 SWAP2 AND PUSH32 0x8C5BE1E5EBEC7D5BD14F71427D1E84F3DD0314C0F7B2291E5B200AC8C7C3B925 PUSH1 0x0 DUP1 LOG4 PUSH1 0x0 SWAP1 DUP2 MSTORE PUSH1 0x4 PUSH1 0x20 MSTORE PUSH1 0x40 SWAP1 KECCAK256 DUP1 SLOAD PUSH1 0x1 PUSH1 0x1 PUSH1 0xA0 SHL SUB NOT AND SWAP1 SWAP2 OR SWAP1 SSTORE STOP JUMPDEST PUSH1 0x40 MLOAD PUSH4 0xA9FBF51F PUSH1 0xE0 SHL DUP2 MSTORE CALLER PUSH1 0x4 DUP3 ADD MSTORE PUSH1 0x24 SWAP1 REVERT JUMPDEST POP PUSH1 0x1 DUP1 PUSH1 0xA0 SHL SUB DUP2 AND PUSH1 0x0 MSTORE PUSH1 0x5 PUSH1 0x20 MSTORE PUSH1 0x40 PUSH1 0x0 KECCAK256 CALLER PUSH1 0x0 MSTORE PUSH1 0x20 MSTORE PUSH1 0xFF PUSH1 0x40 PUSH1 0x0 KECCAK256 SLOAD AND ISZERO PUSH2 0x1775 JUMP JUMPDEST POP PUSH1 0x1 PUSH1 0x1 PUSH1 0xA0 SHL SUB DUP2 AND CALLER EQ ISZERO PUSH2 0x176F JUMP JUMPDEST CALLVALUE PUSH2 0x25F JUMPI PUSH1 0x20 CALLDATASIZE PUSH1 0x3 NOT ADD SLT PUSH2 0x25F JUMPI PUSH1 0x4 CALLDATALOAD PUSH2 0x1845 DUP2 PUSH2 0x2148 JUMP JUMPDEST POP PUSH1 0x0 MSTORE PUSH1 0x4 PUSH1 0x20 MSTORE PUSH1 0x20 PUSH1 0x1 DUP1 PUSH1 0xA0 SHL SUB PUSH1 0x40 PUSH1 0x0 KECCAK256 SLOAD AND PUSH1 0x40 MLOAD SWAP1 DUP2 MSTORE RETURN JUMPDEST CALLVALUE PUSH2 0x25F JUMPI PUSH1 0x0 CALLDATASIZE PUSH1 0x3 NOT ADD SLT PUSH2 0x25F JUMPI PUSH1 0x40 MLOAD PUSH1 0x0 DUP1 SLOAD SWAP1 DUP3 PUSH2 0x1889 DUP4 PUSH2 0x1A3A JUMP JUMPDEST SWAP2 DUP3 DUP3 MSTORE PUSH1 0x20 SWAP4 PUSH1 0x1 SWAP1 DUP6 PUSH1 0x1 DUP3 AND SWAP2 DUP3 PUSH1 0x0 EQ PUSH2 0xC04 JUMPI POP POP PUSH1 0x1 EQ PUSH2 0x18B7 JUMPI POP PUSH2 0xB93 SWAP3 POP SUB DUP4 PUSH2 0x1A90 JUMP JUMPDEST PUSH1 0x0 DUP1 DUP1 MSTORE DUP6 SWAP3 POP SWAP1 PUSH32 0x290DECD9548B62A8D60345A988386FC84BA6BC95484008F6362F93160EF3E563 JUMPDEST DUP6 DUP4 LT PUSH2 0x18F9 JUMPI POP POP PUSH2 0xB93 SWAP4 POP DUP3 ADD ADD DUP6 PUSH2 0xB86 JUMP JUMPDEST DUP1 SLOAD DUP4 DUP10 ADD DUP6 ADD MSTORE DUP8 SWAP5 POP DUP7 SWAP4 SWAP1 SWAP3 ADD SWAP2 DUP2 ADD PUSH2 0x18E2 JUMP JUMPDEST CALLVALUE PUSH2 0x25F JUMPI PUSH1 0x0 CALLDATASIZE PUSH1 0x3 NOT ADD SLT PUSH2 0x25F JUMPI PUSH1 0x20 PUSH1 0xD SLOAD PUSH1 0x40 MLOAD SWAP1 DUP2 MSTORE RETURN JUMPDEST CALLVALUE PUSH2 0x25F JUMPI PUSH1 0x20 CALLDATASIZE PUSH1 0x3 NOT ADD SLT PUSH2 0x25F JUMPI PUSH1 0x4 CALLDATALOAD SWAP1 PUSH4 0xFFFFFFFF PUSH1 0xE0 SHL DUP3 AND DUP1 SWAP3 SUB PUSH2 0x25F JUMPI PUSH1 0x20 SWAP2 PUSH4 0x24832483 PUSH1 0xE1 SHL DUP2 EQ SWAP1 DUP2 ISZERO PUSH2 0x1971 JUMPI JUMPDEST POP ISZERO ISZERO DUP2 MSTORE RETURN JUMPDEST PUSH4 0x780E9D63 PUSH1 0xE0 SHL DUP2 EQ SWAP2 POP DUP2 ISZERO PUSH2 0x198B JUMPI JUMPDEST POP DUP4 PUSH2 0x196A JUMP JUMPDEST PUSH4 0x80AC58CD PUSH1 0xE0 SHL DUP2 EQ SWAP2 POP DUP2 ISZERO PUSH2 0x19BD JUMPI JUMPDEST DUP2 ISZERO PUSH2 0x19AC JUMPI JUMPDEST POP DUP4 PUSH2 0x1984 JUMP JUMPDEST PUSH4 0x1FFC9A7 PUSH1 0xE0 SHL EQ SWAP1 POP DUP4 PUSH2 0x19A5 JUMP JUMPDEST PUSH4 0x5B5E139F PUSH1 0xE0 SHL DUP2 EQ SWAP2 POP PUSH2 0x199E JUMP JUMPDEST SWAP2 SWAP1 DUP3 MLOAD SWAP3 DUP4 DUP3 MSTORE PUSH1 0x0 JUMPDEST DUP5 DUP2 LT PUSH2 0x19FA JUMPI POP POP DUP3 PUSH1 0x0 PUSH1 0x20 DUP1 SWAP5 SWAP6 DUP5 ADD ADD MSTORE PUSH1 0x1F DUP1 NOT SWAP2 ADD AND ADD ADD SWAP1 JUMP JUMPDEST PUSH1 0x20 DUP2 DUP4 ADD DUP2 ADD MLOAD DUP5 DUP4 ADD DUP3 ADD MSTORE ADD PUSH2 0x19D9 JUMP JUMPDEST PUSH1 0x4 CALLDATALOAD SWAP1 PUSH1 0x1 PUSH1 0x1 PUSH1 0xA0 SHL SUB DUP3 AND DUP3 SUB PUSH2 0x25F JUMPI JUMP JUMPDEST PUSH1 0x24 CALLDATALOAD SWAP1 PUSH1 0x1 PUSH1 0x1 PUSH1 0xA0 SHL SUB DUP3 AND DUP3 SUB PUSH2 0x25F JUMPI JUMP JUMPDEST SWAP1 PUSH1 0x1 DUP3 DUP2 SHR SWAP3 AND DUP1 ISZERO PUSH2 0x1A6A JUMPI JUMPDEST PUSH1 0x20 DUP4 LT EQ PUSH2 0x1A54 JUMPI JUMP JUMPDEST PUSH4 0x4E487B71 PUSH1 0xE0 SHL PUSH1 0x0 MSTORE PUSH1 0x22 PUSH1 0x4 MSTORE PUSH1 0x24 PUSH1 0x0 REVERT JUMPDEST SWAP2 PUSH1 0x7F AND SWAP2 PUSH2 0x1A49 JUMP JUMPDEST PUSH1 0x20 DUP2 ADD SWAP1 DUP2 LT PUSH8 0xFFFFFFFFFFFFFFFF DUP3 GT OR PUSH2 0x88A JUMPI PUSH1 0x40 MSTORE JUMP JUMPDEST SWAP1 PUSH1 0x1F DUP1 NOT SWAP2 ADD AND DUP2 ADD SWAP1 DUP2 LT PUSH8 0xFFFFFFFFFFFFFFFF DUP3 GT OR PUSH2 0x88A JUMPI PUSH1 0x40 MSTORE JUMP JUMPDEST SWAP1 PUSH1 0x40 MLOAD SWAP2 DUP3 PUSH1 0x0 DUP3 SLOAD PUSH2 0x1AC5 DUP2 PUSH2 0x1A3A JUMP JUMPDEST SWAP1 DUP2 DUP5 MSTORE PUSH1 0x20 SWAP5 PUSH1 0x1 SWAP2 PUSH1 0x1 DUP2 AND SWAP1 DUP2 PUSH1 0x0 EQ PUSH2 0x1B35 JUMPI POP PUSH1 0x1 EQ PUSH2 0x1AF6 JUMPI JUMPDEST POP POP POP PUSH2 0x1AF4 SWAP3 POP SUB DUP4 PUSH2 0x1A90 JUMP JUMPDEST JUMP JUMPDEST PUSH1 0x0 SWAP1 DUP2 MSTORE DUP6 DUP2 KECCAK256 SWAP6 SWAP4 POP SWAP2 SWAP1 JUMPDEST DUP2 DUP4 LT PUSH2 0x1B1D JUMPI POP POP PUSH2 0x1AF4 SWAP4 POP DUP3 ADD ADD CODESIZE DUP1 DUP1 PUSH2 0x1AE5 JUMP JUMPDEST DUP6 SLOAD DUP9 DUP5 ADD DUP6 ADD MSTORE SWAP5 DUP6 ADD SWAP5 DUP8 SWAP5 POP SWAP2 DUP4 ADD SWAP2 PUSH2 0x1B04 JUMP JUMPDEST SWAP3 POP POP POP PUSH2 0x1AF4 SWAP5 SWAP3 POP PUSH1 0xFF NOT AND DUP3 DUP5 ADD MSTORE ISZERO ISZERO PUSH1 0x5 SHL DUP3 ADD ADD CODESIZE DUP1 DUP1 PUSH2 0x1AE5 JUMP JUMPDEST PUSH1 0x40 SWAP1 PUSH1 0x3 NOT ADD SLT PUSH2 0x25F JUMPI PUSH1 0x4 CALLDATALOAD SWAP1 PUSH1 0x24 CALLDATALOAD SWAP1 JUMP JUMPDEST SWAP2 DUP2 PUSH1 0x1F DUP5 ADD SLT ISZERO PUSH2 0x25F JUMPI DUP3 CALLDATALOAD SWAP2 PUSH8 0xFFFFFFFFFFFFFFFF DUP4 GT PUSH2 0x25F JUMPI PUSH1 0x20 DUP4 DUP2 DUP7 ADD SWAP6 ADD ADD GT PUSH2 0x25F JUMPI JUMP JUMPDEST PUSH1 0x60 SWAP1 PUSH1 0x3 NOT ADD SLT PUSH2 0x25F JUMPI PUSH1 0x1 PUSH1 0x1 PUSH1 0xA0 SHL SUB SWAP1 PUSH1 0x4 CALLDATALOAD DUP3 DUP2 AND DUP2 SUB PUSH2 0x25F JUMPI SWAP2 PUSH1 0x24 CALLDATALOAD SWAP1 DUP2 AND DUP2 SUB PUSH2 0x25F JUMPI SWAP1 PUSH1 0x44 CALLDATALOAD SWAP1 JUMP JUMPDEST PUSH1 0x8 SLOAD DUP2 LT ISZERO PUSH2 0x1C07 JUMPI PUSH1 0x8 PUSH1 0x0 MSTORE PUSH32 0xF3F7A9FE364FAAB93B216DA50A3214154F22A0A2B415B23A84C8169E8B636EE3 ADD SWAP1 PUSH1 0x0 SWAP1 JUMP JUMPDEST PUSH4 0x4E487B71 PUSH1 0xE0 SHL PUSH1 0x0 MSTORE PUSH1 0x32 PUSH1 0x4 MSTORE PUSH1 0x24 PUSH1 0x0 REVERT JUMPDEST DUP1 SLOAD DUP3 LT ISZERO PUSH2 0x1C07 JUMPI PUSH1 0x0 MSTORE PUSH1 0x20 PUSH1 0x0 KECCAK256 ADD SWAP1 PUSH1 0x0 SWAP1 JUMP JUMPDEST PUSH8 0xFFFFFFFFFFFFFFFF DUP2 GT PUSH2 0x88A JUMPI PUSH1 0x1F ADD PUSH1 0x1F NOT AND PUSH1 0x20 ADD SWAP1 JUMP JUMPDEST SWAP3 SWAP2 SWAP3 PUSH2 0x1C5D DUP3 PUSH2 0x1C35 JUMP JUMPDEST SWAP2 PUSH2 0x1C6B PUSH1 0x40 MLOAD SWAP4 DUP5 PUSH2 0x1A90 JUMP JUMPDEST DUP3 SWAP5 DUP2 DUP5 MSTORE DUP2 DUP4 ADD GT PUSH2 0x25F JUMPI DUP3 DUP2 PUSH1 0x20 SWAP4 DUP5 PUSH1 0x0 SWAP7 ADD CALLDATACOPY ADD ADD MSTORE JUMP JUMPDEST ISZERO PUSH2 0x1C8F JUMPI JUMP JUMPDEST PUSH1 0x40 MLOAD PUSH3 0x461BCD PUSH1 0xE5 SHL DUP2 MSTORE PUSH1 0x20 PUSH1 0x4 DUP3 ADD MSTORE PUSH1 0x13 PUSH1 0x24 DUP3 ADD MSTORE PUSH19 0x43616D706169676E206E6F7420616374697665 PUSH1 0x68 SHL PUSH1 0x44 DUP3 ADD MSTORE PUSH1 0x64 SWAP1 REVERT JUMPDEST ISZERO PUSH2 0x1CD1 JUMPI JUMP JUMPDEST PUSH1 0x40 MLOAD PUSH3 0x461BCD PUSH1 0xE5 SHL DUP2 MSTORE PUSH1 0x20 PUSH1 0x4 DUP3 ADD MSTORE PUSH1 0xF PUSH1 0x24 DUP3 ADD MSTORE PUSH15 0x10D85B5C185A59DB8818DB1BDCD959 PUSH1 0x8A SHL PUSH1 0x44 DUP3 ADD MSTORE PUSH1 0x64 SWAP1 REVERT JUMPDEST ISZERO PUSH2 0x1D0F JUMPI JUMP JUMPDEST PUSH1 0x40 MLOAD PUSH3 0x461BCD PUSH1 0xE5 SHL DUP2 MSTORE PUSH1 0x20 PUSH1 0x4 DUP3 ADD MSTORE PUSH1 0x14 PUSH1 0x24 DUP3 ADD MSTORE PUSH20 0x13585E0819591A5D1A5BDB9CC81C995858DA1959 PUSH1 0x62 SHL PUSH1 0x44 DUP3 ADD MSTORE PUSH1 0x64 SWAP1 REVERT JUMPDEST SWAP2 SWAP1 DUP3 ADD DUP1 SWAP3 GT PUSH2 0x161F JUMPI JUMP JUMPDEST ISZERO PUSH2 0x1D5F JUMPI JUMP JUMPDEST PUSH1 0x40 MLOAD PUSH3 0x461BCD PUSH1 0xE5 SHL DUP2 MSTORE PUSH1 0x20 PUSH1 0x4 DUP3 ADD MSTORE PUSH1 0x14 PUSH1 0x24 DUP3 ADD MSTORE PUSH20 0x125B9CDD59999A58DA595B9D081C185E5B595B9D PUSH1 0x62 SHL PUSH1 0x44 DUP3 ADD MSTORE PUSH1 0x64 SWAP1 REVERT JUMPDEST PUSH1 0x0 NOT DUP2 EQ PUSH2 0x161F JUMPI PUSH1 0x1 ADD SWAP1 JUMP JUMPDEST PUSH1 0x8 SLOAD SWAP1 PUSH1 0x1 PUSH1 0x40 SHL DUP3 LT ISZERO PUSH2 0x88A JUMPI PUSH2 0x1DCD DUP3 PUSH1 0x1 PUSH2 0x1AF4 SWAP5 ADD PUSH1 0x8 SSTORE PUSH2 0x1BD0 JUMP JUMPDEST SWAP1 SWAP2 SWAP1 DUP3 SLOAD SWAP1 PUSH1 0x3 SHL SWAP2 DUP3 SHL SWAP2 PUSH1 0x0 NOT SWAP1 SHL NOT AND OR SWAP1 SSTORE JUMP JUMPDEST SWAP1 DUP2 SLOAD SWAP2 PUSH1 0x1 PUSH1 0x40 SHL DUP4 LT ISZERO PUSH2 0x88A JUMPI DUP3 PUSH2 0x1DCD SWAP2 PUSH1 0x1 PUSH2 0x1AF4 SWAP6 ADD DUP2 SSTORE PUSH2 0x1C1D JUMP JUMPDEST SWAP1 PUSH1 0x1F DUP2 GT PUSH2 0x1E17 JUMPI POP POP POP JUMP JUMPDEST PUSH1 0x0 SWAP2 PUSH1 0x0 MSTORE PUSH1 0x20 PUSH1 0x0 KECCAK256 SWAP1 PUSH1 0x20 PUSH1 0x1F DUP6 ADD PUSH1 0x5 SHR DUP4 ADD SWAP5 LT PUSH2 0x1E55 JUMPI JUMPDEST PUSH1 0x1F ADD PUSH1 0x5 SHR ADD SWAP2 JUMPDEST DUP3 DUP2 LT PUSH2 0x1E4A JUMPI POP POP POP JUMP JUMPDEST DUP2 DUP2 SSTORE PUSH1 0x1 ADD PUSH2 0x1E3E JUMP JUMPDEST SWAP1 SWAP3 POP DUP3 SWAP1 PUSH2 0x1E35 JUMP JUMPDEST SWAP1 DUP1 PUSH1 0x20 SWAP4 SWAP3 DUP2 DUP5 MSTORE DUP5 DUP5 ADD CALLDATACOPY PUSH1 0x0 DUP3 DUP3 ADD DUP5 ADD MSTORE PUSH1 0x1F ADD PUSH1 0x1F NOT AND ADD ADD SWAP1 JUMP JUMPDEST PUSH1 0x1 PUSH1 0x1 PUSH1 0xA0 SHL SUB DUP3 DUP2 AND SWAP4 SWAP2 DUP5 ISZERO PUSH2 0x20F6 JUMPI PUSH1 0x0 SWAP5 DUP4 DUP7 MSTORE PUSH1 0x20 SWAP6 PUSH1 0x2 DUP8 MSTORE PUSH1 0x40 SWAP7 DUP5 DUP9 DUP4 KECCAK256 SLOAD AND SWAP7 CALLER ISZERO ISZERO DUP1 PUSH2 0x2068 JUMPI JUMPDEST POP DUP8 ISZERO DUP1 ISZERO PUSH2 0x2035 JUMPI JUMPDEST DUP5 DUP5 MSTORE PUSH1 0x3 DUP4 MSTORE DUP10 DUP5 KECCAK256 DUP1 SLOAD PUSH1 0x1 ADD SWAP1 SSTORE DUP8 DUP5 MSTORE PUSH1 0x2 DUP4 MSTORE DUP10 DUP5 KECCAK256 DUP1 SLOAD PUSH1 0x1 PUSH1 0x1 PUSH1 0xA0 SHL SUB NOT AND DUP7 OR SWAP1 SSTORE DUP8 DUP6 DUP11 PUSH32 0xDDF252AD1BE2C89B69C2B068FC378DAA952BA7F163C4A11628F55A4DF523B3EF DUP8 DUP1 LOG4 ISZERO PUSH2 0x1FB9 JUMPI PUSH1 0x8 SLOAD DUP8 DUP5 MSTORE PUSH1 0x9 DUP4 MSTORE DUP10 DUP5 KECCAK256 SSTORE PUSH2 0x1F2B DUP8 PUSH2 0x1DAA JUMP JUMPDEST DUP4 DUP9 SUB PUSH2 0x1F67 JUMPI JUMPDEST POP POP POP POP AND SWAP3 DUP4 DUP4 SUB PUSH2 0x1F46 JUMPI POP POP POP POP JUMP JUMPDEST PUSH1 0x64 SWAP5 POP MLOAD SWAP3 PUSH4 0x64283D7B PUSH1 0xE0 SHL DUP5 MSTORE PUSH1 0x4 DUP5 ADD MSTORE PUSH1 0x24 DUP4 ADD MSTORE PUSH1 0x44 DUP3 ADD MSTORE REVERT JUMPDEST PUSH2 0x1F70 SWAP1 PUSH2 0x210F JUMP JUMPDEST PUSH1 0x0 NOT DUP2 ADD SWAP4 SWAP1 DUP5 GT PUSH2 0x1FA5 JUMPI DUP3 SWAP2 PUSH1 0x7 SWAP2 DUP11 SWAP5 MSTORE PUSH1 0x6 DUP2 MSTORE DUP4 DUP4 KECCAK256 DUP6 DUP5 MSTORE DUP2 MSTORE DUP8 DUP5 DUP5 KECCAK256 SSTORE DUP8 DUP4 MSTORE MSTORE KECCAK256 SSTORE CODESIZE DUP1 DUP1 DUP1 PUSH2 0x1F33 JUMP JUMPDEST PUSH4 0x4E487B71 PUSH1 0xE0 SHL DUP4 MSTORE PUSH1 0x11 PUSH1 0x4 MSTORE PUSH1 0x24 DUP4 REVERT JUMPDEST DUP8 DUP5 EQ PUSH2 0x1F2B JUMPI PUSH2 0x1FC9 DUP9 PUSH2 0x210F JUMP JUMPDEST DUP8 DUP5 MSTORE PUSH1 0x7 DUP4 MSTORE DUP10 DUP5 KECCAK256 SLOAD DUP2 DUP2 SUB PUSH2 0x1FFE JUMPI JUMPDEST POP DUP8 DUP5 MSTORE DUP4 DUP11 DUP2 KECCAK256 SSTORE DUP9 DUP5 MSTORE PUSH1 0x6 DUP4 MSTORE DUP10 DUP5 KECCAK256 SWAP1 DUP5 MSTORE DUP3 MSTORE DUP3 DUP10 DUP2 KECCAK256 SSTORE PUSH2 0x1F2B JUMP JUMPDEST DUP10 DUP6 MSTORE PUSH1 0x6 DUP5 MSTORE DUP11 DUP6 KECCAK256 DUP3 DUP7 MSTORE DUP5 MSTORE DUP11 DUP6 KECCAK256 SLOAD DUP11 DUP7 MSTORE PUSH1 0x6 DUP6 MSTORE DUP12 DUP7 KECCAK256 DUP3 DUP8 MSTORE DUP6 MSTORE DUP1 DUP13 DUP8 KECCAK256 SSTORE DUP6 MSTORE PUSH1 0x7 DUP5 MSTORE DUP11 DUP6 KECCAK256 SSTORE CODESIZE PUSH2 0x1FDC JUMP JUMPDEST PUSH1 0x0 DUP9 DUP2 MSTORE PUSH1 0x4 PUSH1 0x20 MSTORE PUSH1 0x40 SWAP1 KECCAK256 DUP1 SLOAD PUSH1 0x1 PUSH1 0x1 PUSH1 0xA0 SHL SUB NOT AND SWAP1 SSTORE DUP9 DUP5 MSTORE PUSH1 0x3 DUP4 MSTORE DUP10 DUP5 KECCAK256 DUP1 SLOAD PUSH1 0x0 NOT ADD SWAP1 SSTORE PUSH2 0x1EBD JUMP JUMPDEST DUP1 PUSH2 0x20B5 JUMPI JUMPDEST ISZERO PUSH2 0x2079 JUMPI CODESIZE PUSH2 0x1EB3 JUMP JUMPDEST DUP9 DUP8 DUP10 PUSH2 0x2096 JUMPI PUSH1 0x24 SWAP2 MLOAD SWAP1 PUSH4 0x7E273289 PUSH1 0xE0 SHL DUP3 MSTORE PUSH1 0x4 DUP3 ADD MSTORE REVERT JUMPDEST SWAP1 MLOAD PUSH4 0x177E802F PUSH1 0xE0 SHL DUP2 MSTORE CALLER PUSH1 0x4 DUP3 ADD MSTORE PUSH1 0x24 DUP2 ADD SWAP2 SWAP1 SWAP2 MSTORE PUSH1 0x44 SWAP1 REVERT JUMPDEST POP CALLER DUP9 EQ DUP1 ISZERO PUSH2 0x20DA JUMPI JUMPDEST DUP1 PUSH2 0x206E JUMPI POP DUP7 DUP4 MSTORE PUSH1 0x4 DUP3 MSTORE CALLER DUP7 DUP11 DUP6 KECCAK256 SLOAD AND EQ PUSH2 0x206E JUMP JUMPDEST POP DUP8 DUP4 MSTORE PUSH1 0x5 DUP3 MSTORE DUP9 DUP4 KECCAK256 CALLER DUP5 MSTORE DUP3 MSTORE PUSH1 0xFF DUP10 DUP5 KECCAK256 SLOAD AND PUSH2 0x20C0 JUMP JUMPDEST PUSH1 0x40 MLOAD PUSH4 0x32505749 PUSH1 0xE1 SHL DUP2 MSTORE PUSH1 0x0 PUSH1 0x4 DUP3 ADD MSTORE PUSH1 0x24 SWAP1 REVERT JUMPDEST PUSH1 0x1 PUSH1 0x1 PUSH1 0xA0 SHL SUB AND DUP1 ISZERO PUSH2 0x212F JUMPI PUSH1 0x0 MSTORE PUSH1 0x3 PUSH1 0x20 MSTORE PUSH1 0x40 PUSH1 0x0 KECCAK256 SLOAD SWAP1 JUMP JUMPDEST PUSH1 0x40 MLOAD PUSH4 0x22718AD9 PUSH1 0xE2 SHL DUP2 MSTORE PUSH1 0x0 PUSH1 0x4 DUP3 ADD MSTORE PUSH1 0x24 SWAP1 REVERT JUMPDEST PUSH1 0x0 DUP2 DUP2 MSTORE PUSH1 0x2 PUSH1 0x20 MSTORE PUSH1 0x40 SWAP1 KECCAK256 SLOAD PUSH1 0x1 PUSH1 0x1 PUSH1 0xA0 SHL SUB AND SWAP1 DUP2 ISZERO PUSH2 0x216B JUMPI POP SWAP1 JUMP JUMPDEST PUSH1 0x24 SWAP1 PUSH1 0x40 MLOAD SWAP1 PUSH4 0x7E273289 PUSH1 0xE0 SHL DUP3 MSTORE PUSH1 0x4 DUP3 ADD MSTORE REVERT JUMPDEST PUSH1 0x40 DUP1 MLOAD SWAP3 PUSH2 0x2191 DUP5 PUSH2 0x1A74 JUMP JUMPDEST PUSH1 0x0 DUP1 DUP6 MSTORE PUSH1 0x1 PUSH1 0x1 PUSH1 0xA0 SHL SUB SWAP5 DUP5 DUP7 AND SWAP5 SWAP2 SWAP3 SWAP2 DUP6 ISZERO PUSH2 0x2488 JUMPI DUP3 DUP5 MSTORE PUSH1 0x20 SWAP7 PUSH1 0x2 DUP9 MSTORE DUP6 DUP6 KECCAK256 SLOAD AND DUP7 DUP2 ISZERO SWAP2 DUP3 ISZERO SWAP3 DUP4 PUSH2 0x2455 JUMPI JUMPDEST DUP3 DUP9 MSTORE PUSH1 0x3 DUP12 MSTORE DUP9 DUP9 KECCAK256 DUP1 SLOAD PUSH1 0x1 ADD SWAP1 SSTORE DUP7 DUP9 MSTORE PUSH1 0x2 DUP12 MSTORE DUP9 DUP9 KECCAK256 DUP1 SLOAD PUSH1 0x1 PUSH1 0x1 PUSH1 0xA0 SHL SUB NOT AND DUP5 OR SWAP1 SSTORE DUP7 DUP4 DUP4 PUSH32 0xDDF252AD1BE2C89B69C2B068FC378DAA952BA7F163C4A11628F55A4DF523B3EF DUP12 DUP1 LOG4 ISZERO PUSH2 0x23D9 JUMPI PUSH1 0x8 SLOAD DUP7 DUP9 MSTORE PUSH1 0x9 DUP12 MSTORE DUP9 DUP9 KECCAK256 SSTORE PUSH2 0x2236 DUP7 PUSH2 0x1DAA JUMP JUMPDEST SUB PUSH2 0x238C JUMPI JUMPDEST PUSH2 0x2374 JUMPI EXTCODESIZE PUSH2 0x224E JUMPI JUMPDEST POP POP POP POP POP POP JUMP JUMPDEST DUP6 PUSH2 0x228C SWAP2 DUP6 SWAP7 SWAP8 SWAP9 SWAP5 SWAP6 MLOAD DUP1 SWAP4 DUP2 SWAP3 PUSH4 0xA85BD01 PUSH1 0xE1 SHL SWAP7 DUP8 DUP5 MSTORE CALLER PUSH1 0x4 DUP6 ADD MSTORE DUP10 PUSH1 0x24 DUP6 ADD MSTORE PUSH1 0x44 DUP5 ADD MSTORE PUSH1 0x80 PUSH1 0x64 DUP5 ADD MSTORE PUSH1 0x84 DUP4 ADD SWAP1 PUSH2 0x19CE JUMP JUMPDEST SUB DUP2 DUP8 DUP11 GAS CALL DUP5 SWAP2 DUP2 PUSH2 0x2330 JUMPI JUMPDEST POP PUSH2 0x22F9 JUMPI POP POP POP RETURNDATASIZE PUSH1 0x0 EQ PUSH2 0x22F1 JUMPI RETURNDATASIZE PUSH2 0x22B4 DUP2 PUSH2 0x1C35 JUMP JUMPDEST SWAP1 PUSH2 0x22C1 DUP5 MLOAD SWAP3 DUP4 PUSH2 0x1A90 JUMP JUMPDEST DUP2 MSTORE DUP1 SWAP2 DUP6 RETURNDATASIZE SWAP3 ADD RETURNDATACOPY JUMPDEST DUP1 MLOAD SWAP4 DUP5 PUSH2 0x22EB JUMPI DUP3 MLOAD PUSH4 0x32505749 PUSH1 0xE1 SHL DUP2 MSTORE PUSH1 0x4 DUP2 ADD DUP6 SWAP1 MSTORE PUSH1 0x24 SWAP1 REVERT JUMPDEST DUP5 SWAP3 POP ADD REVERT JUMPDEST POP PUSH1 0x60 PUSH2 0x22CB JUMP JUMPDEST SWAP2 SWAP6 POP SWAP2 POP PUSH4 0xFFFFFFFF PUSH1 0xE0 SHL AND SUB PUSH2 0x2319 JUMPI POP POP CODESIZE DUP1 DUP1 DUP1 DUP1 DUP1 PUSH2 0x2246 JUMP JUMPDEST PUSH1 0x24 SWAP3 POP MLOAD SWAP1 PUSH4 0x32505749 PUSH1 0xE1 SHL DUP3 MSTORE PUSH1 0x4 DUP3 ADD MSTORE REVERT JUMPDEST SWAP1 SWAP2 POP DUP8 DUP2 DUP2 RETURNDATASIZE DUP4 GT PUSH2 0x236D JUMPI JUMPDEST PUSH2 0x2348 DUP2 DUP4 PUSH2 0x1A90 JUMP JUMPDEST DUP2 ADD SUB SLT PUSH2 0x2369 JUMPI MLOAD PUSH1 0x1 PUSH1 0x1 PUSH1 0xE0 SHL SUB NOT DUP2 AND DUP2 SUB PUSH2 0x2369 JUMPI SWAP1 CODESIZE PUSH2 0x229A JUMP JUMPDEST DUP5 DUP1 REVERT JUMPDEST POP RETURNDATASIZE PUSH2 0x233E JUMP JUMPDEST DUP5 MLOAD PUSH4 0x39E35637 PUSH1 0xE1 SHL DUP2 MSTORE PUSH1 0x4 DUP2 ADD DUP6 SWAP1 MSTORE PUSH1 0x24 SWAP1 REVERT JUMPDEST PUSH2 0x2395 DUP3 PUSH2 0x210F JUMP JUMPDEST PUSH1 0x0 NOT DUP2 ADD SWAP1 DUP2 GT PUSH2 0x23C5 JUMPI DUP8 DUP7 MSTORE PUSH1 0x6 DUP10 MSTORE DUP7 DUP7 KECCAK256 DUP2 DUP8 MSTORE DUP10 MSTORE DUP5 DUP8 DUP8 KECCAK256 SSTORE DUP5 DUP7 MSTORE PUSH1 0x7 DUP10 MSTORE DUP7 DUP7 KECCAK256 SSTORE PUSH2 0x223C JUMP JUMPDEST PUSH4 0x4E487B71 PUSH1 0xE0 SHL DUP7 MSTORE PUSH1 0x11 PUSH1 0x4 MSTORE PUSH1 0x24 DUP7 REVERT JUMPDEST DUP1 DUP3 EQ PUSH2 0x2236 JUMPI PUSH2 0x23E9 DUP2 PUSH2 0x210F JUMP JUMPDEST DUP7 DUP9 MSTORE PUSH1 0x7 DUP12 MSTORE DUP9 DUP9 KECCAK256 SLOAD DUP2 DUP2 SUB PUSH2 0x241E JUMPI JUMPDEST POP DUP7 DUP9 MSTORE DUP8 DUP10 DUP2 KECCAK256 SSTORE DUP2 DUP9 MSTORE PUSH1 0x6 DUP12 MSTORE DUP9 DUP9 KECCAK256 SWAP1 DUP9 MSTORE DUP11 MSTORE DUP7 DUP9 DUP2 KECCAK256 SSTORE PUSH2 0x2236 JUMP JUMPDEST DUP3 DUP10 MSTORE PUSH1 0x6 DUP13 MSTORE DUP10 DUP10 KECCAK256 DUP3 DUP11 MSTORE DUP13 MSTORE DUP10 DUP10 KECCAK256 SLOAD DUP4 DUP11 MSTORE PUSH1 0x6 DUP14 MSTORE DUP11 DUP11 KECCAK256 DUP3 DUP12 MSTORE DUP14 MSTORE DUP1 DUP12 DUP12 KECCAK256 SSTORE DUP10 MSTORE PUSH1 0x7 DUP13 MSTORE DUP10 DUP10 KECCAK256 SSTORE CODESIZE PUSH2 0x23FC JUMP JUMPDEST PUSH1 0x0 DUP8 DUP2 MSTORE PUSH1 0x4 PUSH1 0x20 MSTORE PUSH1 0x40 SWAP1 KECCAK256 DUP1 SLOAD PUSH1 0x1 PUSH1 0x1 PUSH1 0xA0 SHL SUB NOT AND SWAP1 SSTORE DUP2 DUP9 MSTORE PUSH1 0x3 DUP12 MSTORE DUP9 DUP9 KECCAK256 DUP1 SLOAD PUSH1 0x0 NOT ADD SWAP1 SSTORE PUSH2 0x21C8 JUMP JUMPDEST DUP5 MLOAD PUSH4 0x32505749 PUSH1 0xE1 SHL DUP2 MSTORE PUSH1 0x4 DUP2 ADD DUP6 SWAP1 MSTORE PUSH1 0x24 SWAP1 REVERT JUMPDEST SWAP2 SWAP1 SWAP2 PUSH1 0x0 SWAP1 DUP1 DUP3 MSTORE PUSH1 0x20 SWAP2 PUSH1 0xA DUP4 MSTORE PUSH1 0x40 DUP2 KECCAK256 SWAP1 DUP6 MLOAD SWAP6 PUSH8 0xFFFFFFFFFFFFFFFF DUP8 GT PUSH2 0x25C7 JUMPI PUSH2 0x24DB DUP8 PUSH2 0x24D5 DUP6 SLOAD PUSH2 0x1A3A JUMP JUMPDEST DUP6 PUSH2 0x1E09 JUMP JUMPDEST DUP5 SWAP2 PUSH1 0x1F DUP9 GT PUSH1 0x1 EQ PUSH2 0x2543 JUMPI SWAP7 PUSH2 0x252C SWAP3 DUP2 SWAP3 PUSH32 0xF8E1A15ABA9398E019F0B49DF1A4FDE98EE17AE345CB5F6B5E2C27F5033E8CE7 SWAP9 SWAP10 SWAP3 PUSH2 0x2538 JUMPI POP POP DUP2 PUSH1 0x1 SHL SWAP2 PUSH1 0x0 NOT SWAP1 PUSH1 0x3 SHL SHR NOT AND OR SWAP1 JUMP JUMPDEST SWAP1 SSTORE JUMPDEST PUSH1 0x40 MLOAD SWAP1 DUP2 MSTORE LOG1 JUMP JUMPDEST ADD MLOAD SWAP1 POP CODESIZE DUP1 PUSH2 0x639 JUMP JUMPDEST SWAP2 SWAP1 PUSH1 0x1F NOT DUP9 AND DUP5 DUP5 MSTORE DUP7 DUP5 KECCAK256 SWAP4 JUMPDEST DUP2 DUP2 LT PUSH2 0x25B0 JUMPI POP SWAP2 PUSH1 0x1 SWAP4 SWAP2 DUP10 PUSH32 0xF8E1A15ABA9398E019F0B49DF1A4FDE98EE17AE345CB5F6B5E2C27F5033E8CE7 SWAP10 SWAP11 SWAP5 LT PUSH2 0x2597 JUMPI JUMPDEST POP POP POP DUP2 SHL ADD SWAP1 SSTORE PUSH2 0x252F JUMP JUMPDEST ADD MLOAD PUSH1 0x0 NOT PUSH1 0xF8 DUP5 PUSH1 0x3 SHL AND SHR NOT AND SWAP1 SSTORE CODESIZE DUP1 DUP1 PUSH2 0x258A JUMP JUMPDEST SWAP3 SWAP4 DUP8 PUSH1 0x1 DUP2 SWAP3 DUP8 DUP7 ADD MLOAD DUP2 SSTORE ADD SWAP6 ADD SWAP4 ADD PUSH2 0x2552 JUMP JUMPDEST PUSH4 0x4E487B71 PUSH1 0xE0 SHL DUP3 MSTORE PUSH1 0x41 PUSH1 0x4 MSTORE PUSH1 0x24 DUP3 REVERT JUMPDEST PUSH1 0xB SLOAD PUSH1 0x1 PUSH1 0x1 PUSH1 0xA0 SHL SUB AND CALLER SUB PUSH2 0x25EF JUMPI JUMP JUMPDEST PUSH1 0x40 MLOAD PUSH4 0x118CDAA7 PUSH1 0xE0 SHL DUP2 MSTORE CALLER PUSH1 0x4 DUP3 ADD MSTORE PUSH1 0x24 SWAP1 REVERT JUMPDEST DUP2 EXTCODESIZE PUSH2 0x2614 JUMPI JUMPDEST POP POP POP POP JUMP JUMPDEST PUSH1 0x40 MLOAD PUSH4 0xA85BD01 PUSH1 0xE1 SHL DUP1 DUP3 MSTORE CALLER PUSH1 0x4 DUP4 ADD MSTORE PUSH1 0x1 PUSH1 0x1 PUSH1 0xA0 SHL SUB SWAP3 DUP4 AND PUSH1 0x24 DUP4 ADD MSTORE PUSH1 0x44 DUP3 ADD SWAP5 SWAP1 SWAP5 MSTORE PUSH1 0x80 PUSH1 0x64 DUP3 ADD MSTORE PUSH1 0x20 SWAP6 SWAP3 SWAP1 SWAP2 AND SWAP4 SWAP1 SWAP3 SWAP1 DUP4 SWAP1 PUSH2 0x2662 SWAP1 PUSH1 0x84 DUP4 ADD SWAP1 PUSH2 0x19CE JUMP JUMPDEST SUB SWAP3 DUP6 DUP2 PUSH1 0x0 SWAP6 DUP2 DUP8 DUP10 GAS CALL DUP5 SWAP2 DUP2 PUSH2 0x270B JUMPI JUMPDEST POP PUSH2 0x26D6 JUMPI POP POP POP RETURNDATASIZE PUSH1 0x0 EQ PUSH2 0x26CE JUMPI RETURNDATASIZE PUSH2 0x2690 DUP2 PUSH2 0x1C35 JUMP JUMPDEST SWAP1 PUSH2 0x269E PUSH1 0x40 MLOAD SWAP3 DUP4 PUSH2 0x1A90 JUMP JUMPDEST DUP2 MSTORE DUP1 SWAP2 DUP5 RETURNDATASIZE SWAP3 ADD RETURNDATACOPY JUMPDEST DUP1 MLOAD SWAP3 DUP4 PUSH2 0x26C9 JUMPI PUSH1 0x40 MLOAD PUSH4 0x32505749 PUSH1 0xE1 SHL DUP2 MSTORE PUSH1 0x4 DUP2 ADD DUP5 SWAP1 MSTORE PUSH1 0x24 SWAP1 REVERT JUMPDEST ADD SWAP1 POP REVERT JUMPDEST POP PUSH1 0x60 PUSH2 0x26A8 JUMP JUMPDEST SWAP2 SWAP5 POP SWAP2 POP PUSH4 0xFFFFFFFF PUSH1 0xE0 SHL AND SUB PUSH2 0x26F3 JUMPI POP CODESIZE DUP1 DUP1 DUP1 PUSH2 0x260E JUMP JUMPDEST PUSH1 0x24 SWAP1 PUSH1 0x40 MLOAD SWAP1 PUSH4 0x32505749 PUSH1 0xE1 SHL DUP3 MSTORE PUSH1 0x4 DUP3 ADD MSTORE REVERT JUMPDEST SWAP1 SWAP2 POP DUP7 DUP2 DUP2 RETURNDATASIZE DUP4 GT PUSH2 0x2744 JUMPI JUMPDEST PUSH2 0x2723 DUP2 DUP4 PUSH2 0x1A90 JUMP JUMPDEST DUP2 ADD SUB SLT PUSH2 0x2369 JUMPI MLOAD PUSH1 0x1 PUSH1 0x1 PUSH1 0xE0 SHL SUB NOT DUP2 AND DUP2 SUB PUSH2 0x2369 JUMPI SWAP1 CODESIZE PUSH2 0x2676 JUMP JUMPDEST POP RETURNDATASIZE PUSH2 0x2719 JUMP INVALID LOG2 PUSH5 0x6970667358 0x22 SLT KECCAK256 0xC5 0xE1 SSTORE 0x2D DUP5 0xE8 0x2E 0x29 DUP10 DUP2 0xDC 0xC7 0xC 0xC2 MCOPY 0xFC ISZERO SWAP3 0x28 RETURNDATACOPY PUSH27 0x7655042386FB87A65F24C64736F6C634300081800330000000000 "},"methodIdentifiers":{"approve(address,uint256)":"095ea7b3","balanceOf(address)":"70a08231","campaignEditions(uint256,uint256)":"407de9df","campaigns(uint256)":"141961bc","closeCampaign(uint256)":"b0e1c1e1","createCampaign(string,string,uint256,uint256,uint256,uint256,address)":"cc3c3008","deactivateCampaign(uint256)":"7eca30fe","getApproved(uint256)":"081812fc","getCampaign(uint256)":"5598f8cc","getCampaignEditions(uint256)":"3705f2a8","getEditionInfo(uint256)":"8079ca0c","isApprovedForAll(address,address)":"e985e9c5","mintEditionToDonor(uint256,address,uint256)":"2a76d553","mintWithBDAG(uint256)":"d88d6ef3","mintWithBDAGAndTip(uint256,uint256)":"1797c8f2","name()":"06fdde03","owner()":"8da5cb5b","ownerOf(uint256)":"6352211e","reactivateCampaign(uint256)":"1fdc217c","recordContribution(uint256,uint256,uint256,uint256,bool)":"25532ecd","renounceOwnership()":"715018a6","safeTransferFrom(address,address,uint256)":"42842e0e","safeTransferFrom(address,address,uint256,bytes)":"b88d4fde","setApprovalForAll(address,bool)":"a22cb465","supportsInterface(bytes4)":"01ffc9a7","symbol()":"95d89b41","tokenByIndex(uint256)":"4f6ccce7","tokenEditionNumber(uint256)":"b6358d99","tokenOfOwnerByIndex(address,uint256)":"2f745c59","tokenToCampaign(uint256)":"c1692213","tokenURI(uint256)":"c87b56dd","totalCampaigns()":"02932f56","totalSupply()":"18160ddd","transferFrom(address,address,uint256)":"23b872dd","transferOwnership(address)":"f2fde38b","updateCampaignMetadata(uint256,string)":"1dda279b","withdraw(address,uint256)":"f3fef3a3"}}}}}