{"contracts/PatriotPledgeNFTV2.sol":{"PatriotPledgeNFTV2":{"abi":[{"inputs":[],"stateMutability":"nonpayable","type":"constructor"},{"inputs":[],"name":"ERC721EnumerableForbiddenBatchMint","type":"error"},{"inputs":[{"internalType":"address","name":"sender","type":"address"},{"internalType":"uint256","name":"tokenId","type":"uint256"},{"internalType":"address","name":"owner","type":"address"}],"name":"ERC721IncorrectOwner","type":"error"},{"inputs":[{"internalType":"address","name":"operator","type":"address"},{"internalType":"uint256","name":"tokenId","type":"uint256"}],"name":"ERC721InsufficientApproval","type":"error"},{"inputs":[{"internalType":"address","name":"approver","type":"address"}],"name":"ERC721InvalidApprover","type":"error"},{"inputs":[{"internalType":"address","name":"operator","type":"address"}],"name":"ERC721InvalidOperator","type":"error"},{"inputs":[{"internalType":"address","name":"owner","type":"address"}],"name":"ERC721InvalidOwner","type":"error"},{"inputs":[{"internalType":"address","name":"receiver","type":"address"}],"name":"ERC721InvalidReceiver","type":"error"},{"inputs":[{"internalType":"address","name":"sender","type":"address"}],"name":"ERC721InvalidSender","type":"error"},{"inputs":[{"internalType":"uint256","name":"tokenId","type":"uint256"}],"name":"ERC721NonexistentToken","type":"error"},{"inputs":[{"internalType":"address","name":"owner","type":"address"},{"internalType":"uint256","name":"index","type":"uint256"}],"name":"ERC721OutOfBoundsIndex","type":"error"},{"inputs":[{"internalType":"address","name":"owner","type":"address"}],"name":"OwnableInvalidOwner","type":"error"},{"inputs":[{"internalType":"address","name":"account","type":"address"}],"name":"OwnableUnauthorizedAccount","type":"error"},{"anonymous":false,"inputs":[{"indexed":true,"internalType":"address","name":"owner","type":"address"},{"indexed":true,"internalType":"address","name":"approved","type":"address"},{"indexed":true,"internalType":"uint256","name":"tokenId","type":"uint256"}],"name":"Approval","type":"event"},{"anonymous":false,"inputs":[{"indexed":true,"internalType":"address","name":"owner","type":"address"},{"indexed":true,"internalType":"address","name":"operator","type":"address"},{"indexed":false,"internalType":"bool","name":"approved","type":"bool"}],"name":"ApprovalForAll","type":"event"},{"anonymous":false,"inputs":[{"indexed":false,"internalType":"uint256","name":"_fromTokenId","type":"uint256"},{"indexed":false,"internalType":"uint256","name":"_toTokenId","type":"uint256"}],"name":"BatchMetadataUpdate","type":"event"},{"anonymous":false,"inputs":[{"indexed":false,"internalType":"uint256","name":"_tokenId","type":"uint256"}],"name":"MetadataUpdate","type":"event"},{"anonymous":false,"inputs":[{"indexed":true,"internalType":"address","name":"previousOwner","type":"address"},{"indexed":true,"internalType":"address","name":"newOwner","type":"address"}],"name":"OwnershipTransferred","type":"event"},{"anonymous":false,"inputs":[{"indexed":true,"internalType":"uint256","name":"tokenId","type":"uint256"},{"indexed":false,"internalType":"string","name":"newUri","type":"string"}],"name":"TokenURIUpdated","type":"event"},{"anonymous":false,"inputs":[{"indexed":true,"internalType":"address","name":"from","type":"address"},{"indexed":true,"internalType":"address","name":"to","type":"address"},{"indexed":true,"internalType":"uint256","name":"tokenId","type":"uint256"}],"name":"Transfer","type":"event"},{"inputs":[{"internalType":"uint256","name":"tokenId","type":"uint256"},{"internalType":"uint256","name":"amount","type":"uint256"}],"name":"addRaised","outputs":[],"stateMutability":"nonpayable","type":"function"},{"inputs":[{"internalType":"address","name":"to","type":"address"},{"internalType":"uint256","name":"tokenId","type":"uint256"}],"name":"approve","outputs":[],"stateMutability":"nonpayable","type":"function"},{"inputs":[{"internalType":"address","name":"owner","type":"address"}],"name":"balanceOf","outputs":[{"internalType":"uint256","name":"","type":"uint256"}],"stateMutability":"view","type":"function"},{"inputs":[{"internalType":"uint256","name":"tokenId","type":"uint256"}],"name":"burn","outputs":[],"stateMutability":"nonpayable","type":"function"},{"inputs":[{"internalType":"uint256","name":"","type":"uint256"}],"name":"campaigns","outputs":[{"internalType":"string","name":"category","type":"string"},{"internalType":"uint256","name":"goal","type":"uint256"},{"internalType":"uint256","name":"raised","type":"uint256"}],"stateMutability":"view","type":"function"},{"inputs":[{"internalType":"uint256","name":"tokenId","type":"uint256"}],"name":"getApproved","outputs":[{"internalType":"address","name":"","type":"address"}],"stateMutability":"view","type":"function"},{"inputs":[{"internalType":"address","name":"owner","type":"address"},{"internalType":"address","name":"operator","type":"address"}],"name":"isApprovedForAll","outputs":[{"internalType":"bool","name":"","type":"bool"}],"stateMutability":"view","type":"function"},{"inputs":[{"internalType":"address","name":"to","type":"address"},{"internalType":"string","name":"uri","type":"string"},{"internalType":"string","name":"category","type":"string"},{"internalType":"uint256","name":"goal","type":"uint256"}],"name":"mint","outputs":[{"internalType":"uint256","name":"","type":"uint256"}],"stateMutability":"nonpayable","type":"function"},{"inputs":[],"name":"name","outputs":[{"internalType":"string","name":"","type":"string"}],"stateMutability":"view","type":"function"},{"inputs":[],"name":"owner","outputs":[{"internalType":"address","name":"","type":"address"}],"stateMutability":"view","type":"function"},{"inputs":[{"internalType":"uint256","name":"tokenId","type":"uint256"}],"name":"ownerOf","outputs":[{"internalType":"address","name":"","type":"address"}],"stateMutability":"view","type":"function"},{"inputs":[],"name":"renounceOwnership","outputs":[],"stateMutability":"nonpayable","type":"function"},{"inputs":[{"internalType":"address","name":"from","type":"address"},{"internalType":"address","name":"to","type":"address"},{"internalType":"uint256","name":"tokenId","type":"uint256"}],"name":"safeTransferFrom","outputs":[],"stateMutability":"nonpayable","type":"function"},{"inputs":[{"internalType":"address","name":"from","type":"address"},{"internalType":"address","name":"to","type":"address"},{"internalType":"uint256","name":"tokenId","type":"uint256"},{"internalType":"bytes","name":"data","type":"bytes"}],"name":"safeTransferFrom","outputs":[],"stateMutability":"nonpayable","type":"function"},{"inputs":[{"internalType":"address","name":"operator","type":"address"},{"internalType":"bool","name":"approved","type":"bool"}],"name":"setApprovalForAll","outputs":[],"stateMutability":"nonpayable","type":"function"},{"inputs":[{"internalType":"bytes4","name":"interfaceId","type":"bytes4"}],"name":"supportsInterface","outputs":[{"internalType":"bool","name":"","type":"bool"}],"stateMutability":"view","type":"function"},{"inputs":[],"name":"symbol","outputs":[{"internalType":"string","name":"","type":"string"}],"stateMutability":"view","type":"function"},{"inputs":[{"internalType":"uint256","name":"index","type":"uint256"}],"name":"tokenByIndex","outputs":[{"internalType":"uint256","name":"","type":"uint256"}],"stateMutability":"view","type":"function"},{"inputs":[{"internalType":"address","name":"owner","type":"address"},{"internalType":"uint256","name":"index","type":"uint256"}],"name":"tokenOfOwnerByIndex","outputs":[{"internalType":"uint256","name":"","type":"uint256"}],"stateMutability":"view","type":"function"},{"inputs":[{"internalType":"uint256","name":"tokenId","type":"uint256"}],"name":"tokenURI","outputs":[{"internalType":"string","name":"","type":"string"}],"stateMutability":"view","type":"function"},{"inputs":[],"name":"totalSupply","outputs":[{"internalType":"uint256","name":"","type":"uint256"}],"stateMutability":"view","type":"function"},{"inputs":[{"internalType":"address","name":"from","type":"address"},{"internalType":"address","name":"to","type":"address"},{"internalType":"uint256","name":"tokenId","type":"uint256"}],"name":"transferFrom","outputs":[],"stateMutability":"nonpayable","type":"function"},{"inputs":[{"internalType":"address","name":"newOwner","type":"address"}],"name":"transferOwnership","outputs":[],"stateMutability":"nonpayable","type":"function"},{"inputs":[{"internalType":"uint256","name":"tokenId","type":"uint256"},{"internalType":"string","name":"newUri","type":"string"}],"name":"updateTokenURI","outputs":[],"stateMutability":"nonpayable","type":"function"}],"evm":{"bytecode":{"linkReferences":{},"object":"60803462000380576001600160401b03906040818101838111838210176200036a578152601282526020917114185d1c9a5bdd08141b195919d94813919560721b83820152815193828501858110828211176200036a5783526005855264141413919560da1b8486015281518181116200036a576000948554916001948584811c941680156200035f575b838510146200034b578190601f94858111620002f8575b5083908583116001146200029457899262000288575b5050600019600383901b1c191690851b1786555b8651928311620002745783548481811c9116801562000269575b8282101462000255578281116200020d575b5080918311600114620001a65750849582939495926200019a575b5050600019600383901b1c191690821b1790555b33156200018257600b8054336001600160a01b03198216811790925591519290916001600160a01b0316907f8be0079c531659141344cd1fd0a4f28419497f9722a3daafe3b4186f6b6457e09080a3611b4a9081620003868239f35b51631e4fbdf760e01b81526004810191909152602490fd5b01519050388062000112565b90601f198316968487528287209287905b898210620001f5575050838596979810620001db575b505050811b01905562000126565b015160001960f88460031b161c19169055388080620001cd565b808785968294968601518155019501930190620001b7565b8487528187208380860160051c8201928487106200024b575b0160051c019085905b8281106200023f575050620000f7565b8881550185906200022f565b9250819262000226565b634e487b7160e01b87526022600452602487fd5b90607f1690620000e5565b634e487b7160e01b86526041600452602486fd5b015190503880620000b7565b898052848a208894509190601f1984168b5b87828210620002e15750508411620002c7575b505050811b018655620000cb565b015160001960f88460031b161c19169055388080620002b9565b8385015186558b97909501949384019301620002a6565b9091508880528389208580850160051c82019286861062000341575b918991869594930160051c01915b82811062000332575050620000a1565b8b815585945089910162000322565b9250819262000314565b634e487b7160e01b88526022600452602488fd5b93607f16936200008a565b634e487b7160e01b600052604160045260246000fd5b600080fdfe608080604052600436101561001357600080fd5b60003560e01c90816301ffc9a7146111f75750806306fdde031461114c578063081812fc1461110e578063095ea7b3146110275780630f42949a14610fe9578063141961bc14610f8e57806318160ddd14610f7057806318e97fd114610ed057806323b872dd14610eb95780632f745c5914610e3557806342842e0e14610e0757806342966c6814610b695780634f6ccce714610b135780636352211e14610ae357806370a0823114610ab8578063715018a614610a5b578063853d42ad1461048b5780638da5cb5b1461046257806395d89b411461037f578063a22cb465146102da578063b88d4fde1461026d578063c87b56dd14610210578063e985e9c5146101ba5763f2fde38b1461012757600080fd5b346101b55760203660031901126101b5576101406112d6565b610148611837565b6001600160a01b0390811690811561019c57600b54826bffffffffffffffffffffffff60a01b821617600b55167f8be0079c531659141344cd1fd0a4f28419497f9722a3daafe3b4186f6b6457e0600080a3005b604051631e4fbdf760e01b815260006004820152602490fd5b600080fd5b346101b55760403660031901126101b5576101d36112d6565b6101db6112ec565b9060018060a01b03809116600052600560205260406000209116600052602052602060ff604060002054166040519015158152f35b346101b55760203660031901126101b55760043561022d81611814565b50600052600a602052610269610246604060002061137a565b60006040516102548161133c565b52604051918291602083526020830190611296565b0390f35b346101b55760803660031901126101b5576102866112d6565b61028e6112ec565b906044356064359267ffffffffffffffff84116101b557366023850112156101b5576102c76102d894369060248160040135910161149e565b926102d38383836114d5565b6119cc565b005b346101b55760403660031901126101b5576102f36112d6565b602435908115158092036101b5576001600160a01b031690811561036657336000526005602052604060002082600052602052604060002060ff1981541660ff83161790556040519081527f17307eab39ab6107e8899845ad3d59bd9653f200f220920489ca2b5937696c3160203392a3005b604051630b61174360e31b815260048101839052602490fd5b346101b55760003660031901126101b5576040516000600182600154926103a584611302565b92838352602094856001821691826000146104425750506001146103e5575b506103d192500383611358565b610269604051928284938452830190611296565b84915060016000527fb10e2d527612073b26eecdfd717e6a320cf44b4afac2b0732d9fcbe2b7fa0cf6906000915b85831061042a5750506103d19350820101856103c4565b80548389018501528794508693909201918101610413565b60ff1916858201526103d195151560051b85010192508791506103c49050565b346101b55760003660031901126101b557600b546040516001600160a01b039091168152602090f35b346101b55760803660031901126101b5576104a46112d6565b60243567ffffffffffffffff81116101b5576104c490369060040161141f565b60443567ffffffffffffffff81116101b5576104e490369060040161141f565b90926104ee611837565b600c549260001984146109655760018401600c5560405161050e8161133c565b600081526001600160a01b03871615610a42576000858152600260205260409020546001600160a01b031680610a0b575b6001600160a01b0388166000818152600360209081526040808320805460010190558983526002909152812080546001600160a01b0319168317905587919083907fddf252ad1be2c89b69c2b068fc378daa952ba7f163c4a11628f55a4df523b3ef9080a48061097b5760085486600052600960205280604060002055600160401b81101561079d57866105dc8260016105f5940160085561178e565b90919082549060031b91821b91600019901b1916179055565b6001600160a01b0388168103610911575b6108f857863b6107b3575b5061062c92939495509061062691369161149e565b83611863565b60405192606084019184831067ffffffffffffffff84111761079d5761065692604052369161149e565b825260208201916064358352604081016000815282600052600d6020526040600020915193845167ffffffffffffffff811161079d576020956106998554611302565b601f8111610762575b508690601f83116001146106f85791806106d89260029695946000926106ed575b50508160011b916000199060031b1c19161790565b84555b51600184015551910155604051908152f35b0151905089806106c3565b90601f1983169186600052886000209260005b81811061074b575091600193918560029897969410610732575b505050811b0184556106db565b015160001960f88460031b161c19169055888080610725565b92938a60018192878601518155019501930161070b565b61078d908660005288600020601f850160051c8101918a8610610793575b601f0160051c0190611777565b876106a2565b9091508190610780565b634e487b7160e01b600052604160045260246000fd5b604051602081806107ed630a85bd0160e11b95868352336004840152600060248401528a6044840152608060648401526084830190611296565b038160006001600160a01b038d165af1600091816108b3575b5061086e57873d15610866573d9061081d82611482565b9161082b6040519384611358565b82523d6000602084013e5b8151918261085f57604051633250574960e11b81526001600160a01b0383166004820152602490fd5b9050602001fd5b606090610836565b63ffffffff60e0989394959697981b160361089157508493929190610626610611565b604051633250574960e11b81526001600160a01b039091166004820152602490fd5b9091506020813d6020116108f0575b816108cf60209383611358565b810103126101b557516001600160e01b0319811681036101b5579089610806565b3d91506108c2565b6040516339e3563760e11b815260006004820152602490fd5b61091a886117db565b806000198101116109655760018060a01b0389166000526006602052604060002060001982016000526020528660406000205586600052600760205260001901604060002055610606565b634e487b7160e01b600052601160045260246000fd5b6001600160a01b03881681146105f557610994816117db565b8660005260076020526040600020548181036109d8575b508660005260006040812055816000526006602052604060002090600052602052600060408120556105f5565b600083815260066020908152604080832085845282528083205484845281842081905583526007909152902055896109ab565b600086815260046020526040902080546001600160a01b03191690558060005260036020526040600020600019815401905561053f565b604051633250574960e11b815260006004820152602490fd5b346101b55760003660031901126101b557610a74611837565b600b80546001600160a01b031981169091556000906001600160a01b03167f8be0079c531659141344cd1fd0a4f28419497f9722a3daafe3b4186f6b6457e08280a3005b346101b55760203660031901126101b5576020610adb610ad66112d6565b6117db565b604051908152f35b346101b55760203660031901126101b5576020610b01600435611814565b6040516001600160a01b039091168152f35b346101b55760203660031901126101b557600435600854811015610b4a57610b3c60209161178e565b90546040519160031b1c8152f35b6044906040519063295f44f760e21b8252600060048301526024820152fd5b346101b5576020806003193601126101b55760043590610b87611837565b81600052600d81526000600260408220610ba18154611302565b80610dcb575b5060018101839055015560008281526002825260409020546001600160a01b031680159190821580610d98575b6000858152600284526040812080546001600160a01b03191690558590837fddf252ad1be2c89b69c2b068fc378daa952ba7f163c4a11628f55a4df523b3ef8280a48315610cfc575050600854836000526009825280604060002055600160401b81101561079d57836105dc826001610c50940160085561178e565b600854600019918282019182116109655760099085600052818152610c7a6040600020549361178e565b90549060031b1c610c8e816105dc8661178e565b6000525260406000205582600052600060408120556008548015610ce657810190610cb88261178e565b909182549160031b1b19169055600855610cce57005b60249060405190637e27328960e01b82526004820152fd5b634e487b7160e01b600052603160045260246000fd5b610d07575b50610c50565b610d10816117db565b908460005260078352604060002054828103610d52575b5084600052600060408120556000526006825260406000209060005281526000604081205583610d01565b8160005260068452604060002083600052845260406000205482600052600685526040600020826000528552806040600020556000526007845260406000205585610d27565b60008581526004602052604080822080546001600160a01b03191690558382526003855290208054600019019055610bd4565b601f8111600114610de157508281555b85610ba7565b8390828252610dfe601f878420920160051c820160018301611777565b81835555610ddb565b346101b5576102d8610e183661144d565b9060405192610e268461133c565b600084526102d38383836114d5565b346101b55760403660031901126101b557610e4e6112d6565b60243590610e5b816117db565b821015610e8e5760018060a01b031660005260066020526040600020906000526020526020604060002054604051908152f35b60405163295f44f760e21b81526001600160a01b039190911660048201526024810191909152604490fd5b346101b5576102d8610eca3661144d565b916114d5565b346101b55760403660031901126101b55760043560243567ffffffffffffffff81116101b5576040610f277f931f495b9a8e5d8e61946ea5d61e021f636cfe213a801f97589c18c152e408bd92369060040161141f565b9190610f31611837565b610f45610f3f36858461149e565b86611863565b82825193849260208452816020850152848401376000828201840152601f01601f19168101030190a2005b346101b55760003660031901126101b5576020600854604051908152f35b346101b55760203660031901126101b557600435600052600d602052610fda6040600020610fbb8161137a565b9060026001820154910154604051938493606085526060850190611296565b91602084015260408301520390f35b346101b55760403660031901126101b557611002611837565b600435600052600d602052600260406000200180549060243582018092116109655755005b346101b55760403660031901126101b5576110406112d6565b60243561104c81611814565b331515806110fb575b806110ce575b6110b6576001600160a01b039283169282918491167f8c5be1e5ebec7d5bd14f71427d1e84f3dd0314c0f7b2291e5b200ac8c7c3b925600080a4600090815260046020526040902080546001600160a01b0319169091179055005b60405163a9fbf51f60e01b8152336004820152602490fd5b5060018060a01b038116600052600560205260406000203360005260205260ff604060002054161561105b565b506001600160a01b038116331415611055565b346101b55760203660031901126101b55760043561112b81611814565b506000526004602052602060018060a01b0360406000205416604051908152f35b346101b55760003660031901126101b55760405160008054908261116f83611302565b918282526020936001908560018216918260001461044257505060011461119d57506103d192500383611358565b6000808052859250907f290decd9548b62a8d60345a988386fc84ba6bc95484008f6362f93160ef3e5635b8583106111df5750506103d19350820101856103c4565b805483890185015287945086939092019181016111c8565b346101b55760203660031901126101b5576004359063ffffffff60e01b82168092036101b557602091632483248360e11b8114908115611239575b5015158152f35b63780e9d6360e01b811491508115611253575b5083611232565b6380ac58cd60e01b811491508115611285575b8115611274575b508361124c565b6301ffc9a760e01b1490508361126d565b635b5e139f60e01b81149150611266565b919082519283825260005b8481106112c2575050826000602080949584010152601f8019910116010190565b6020818301810151848301820152016112a1565b600435906001600160a01b03821682036101b557565b602435906001600160a01b03821682036101b557565b90600182811c92168015611332575b602083101461131c57565b634e487b7160e01b600052602260045260246000fd5b91607f1691611311565b6020810190811067ffffffffffffffff82111761079d57604052565b90601f8019910116810190811067ffffffffffffffff82111761079d57604052565b9060405191826000825461138d81611302565b908184526020946001916001811690816000146113fd57506001146113be575b5050506113bc92500383611358565b565b600090815285812095935091905b8183106113e55750506113bc93508201013880806113ad565b855488840185015294850194879450918301916113cc565b925050506113bc94925060ff191682840152151560051b8201013880806113ad565b9181601f840112156101b55782359167ffffffffffffffff83116101b557602083818601950101116101b557565b60609060031901126101b5576001600160a01b039060043582811681036101b5579160243590811681036101b5579060443590565b67ffffffffffffffff811161079d57601f01601f191660200190565b9291926114aa82611482565b916114b86040519384611358565b8294818452818301116101b5578281602093846000960137010152565b6001600160a01b0382811693918415610a42576000948386526020956002875260409684888320541696331515806116e9575b50871580156116b6575b84845260038352898420805460010190558784526002835289842080546001600160a01b0319168617905587858a7fddf252ad1be2c89b69c2b068fc378daa952ba7f163c4a11628f55a4df523b3ef8780a41561163a5760085487845260098352808a852055600160401b81101561162657876105dc826001611598940160085561178e565b8388036115d4575b5050505016928383036115b35750505050565b6064945051926364283d7b60e01b8452600484015260248301526044820152fd5b6115dd906117db565b6000198101939084116116125782916007918a94526006815283832085845281528784842055878352522055388080806115a0565b634e487b7160e01b83526011600452602483fd5b634e487b7160e01b84526041600452602484fd5b8784146115985761164a886117db565b878452600783528984205481810361167f575b50878452838a8120558884526006835289842090845282528289812055611598565b898552600684528a852082865284528a8520548a8652600685528b86208287528552808c8720558552600784528a8520553861165d565b600088815260046020526040902080546001600160a01b0319169055888452600383528984208054600019019055611512565b80611736575b156116fa5738611508565b888789611717576024915190637e27328960e01b82526004820152fd5b905163177e802f60e01b81523360048201526024810191909152604490fd5b50338814801561175b575b806116ef57508683526004825233868a85205416146116ef565b5087835260058252888320338452825260ff8984205416611741565b818110611782575050565b60008155600101611777565b6008548110156117c55760086000527ff3f7a9fe364faab93b216da50a3214154f22a0a2b415b23a84c8169e8b636ee30190600090565b634e487b7160e01b600052603260045260246000fd5b6001600160a01b031680156117fb57600052600360205260406000205490565b6040516322718ad960e21b815260006004820152602490fd5b6000818152600260205260409020546001600160a01b0316908115610cce575090565b600b546001600160a01b0316330361184b57565b60405163118cdaa760e01b8152336004820152602490fd5b919091600090808252602091600a8352604081209085519567ffffffffffffffff87116119b8576118948354611302565b601f811161198a575b508491601f881160011461190657966118ef9281927ff8e1a15aba9398e019f0b49df1a4fde98ee17ae345cb5f6b5e2c27f5033e8ce79899926118fb5750508160011b916000199060031b1c19161790565b90555b604051908152a1565b0151905038806106c3565b9190601f198816848452868420935b81811061197357509160019391897ff8e1a15aba9398e019f0b49df1a4fde98ee17ae345cb5f6b5e2c27f5033e8ce7999a941061195a575b505050811b0190556118f2565b015160001960f88460031b161c1916905538808061194d565b929387600181928786015181550195019301611915565b6119b290848452868420601f8a0160051c810191888b1061079357601f0160051c0190611777565b3861189d565b634e487b7160e01b82526041600452602482fd5b813b6119d9575b50505050565b604051630a85bd0160e11b8082523360048301526001600160a01b03928316602483015260448201949094526080606482015260209592909116939092908390611a27906084830190611296565b039285816000958187895af1849181611ad0575b50611a9b575050503d600014611a93573d611a5581611482565b90611a636040519283611358565b81528091843d92013e5b80519283611a8e57604051633250574960e11b815260048101849052602490fd5b019050fd5b506060611a6d565b919450915063ffffffff60e01b1603611ab85750388080806119d3565b60249060405190633250574960e11b82526004820152fd5b9091508681813d8311611b0d575b611ae88183611358565b81010312611b0957516001600160e01b031981168103611b09579038611a3b565b8480fd5b503d611ade56fea2646970667358221220cedbcf138f4f0f639da0ba98e11479b4e25485ccd31fbb7fca6e95e86f700bd264736f6c63430008180033","opcodes":"PUSH1 0x80 CALLVALUE PUSH3 0x380 JUMPI PUSH1 0x1 PUSH1 0x1 PUSH1 0x40 SHL SUB SWAP1 PUSH1 0x40 DUP2 DUP2 ADD DUP4 DUP2 GT DUP4 DUP3 LT OR PUSH3 0x36A JUMPI DUP2 MSTORE PUSH1 0x12 DUP3 MSTORE PUSH1 0x20 SWAP2 PUSH18 0x14185D1C9A5BDD08141B195919D948139195 PUSH1 0x72 SHL DUP4 DUP3 ADD MSTORE DUP2 MLOAD SWAP4 DUP3 DUP6 ADD DUP6 DUP2 LT DUP3 DUP3 GT OR PUSH3 0x36A JUMPI DUP4 MSTORE PUSH1 0x5 DUP6 MSTORE PUSH5 0x1414139195 PUSH1 0xDA SHL DUP5 DUP7 ADD MSTORE DUP2 MLOAD DUP2 DUP2 GT PUSH3 0x36A JUMPI PUSH1 0x0 SWAP5 DUP6 SLOAD SWAP2 PUSH1 0x1 SWAP5 DUP6 DUP5 DUP2 SHR SWAP5 AND DUP1 ISZERO PUSH3 0x35F JUMPI JUMPDEST DUP4 DUP6 LT EQ PUSH3 0x34B JUMPI DUP2 SWAP1 PUSH1 0x1F SWAP5 DUP6 DUP2 GT PUSH3 0x2F8 JUMPI JUMPDEST POP DUP4 SWAP1 DUP6 DUP4 GT PUSH1 0x1 EQ PUSH3 0x294 JUMPI DUP10 SWAP3 PUSH3 0x288 JUMPI JUMPDEST POP POP PUSH1 0x0 NOT PUSH1 0x3 DUP4 SWAP1 SHL SHR NOT AND SWAP1 DUP6 SHL OR DUP7 SSTORE JUMPDEST DUP7 MLOAD SWAP3 DUP4 GT PUSH3 0x274 JUMPI DUP4 SLOAD DUP5 DUP2 DUP2 SHR SWAP2 AND DUP1 ISZERO PUSH3 0x269 JUMPI JUMPDEST DUP3 DUP3 LT EQ PUSH3 0x255 JUMPI DUP3 DUP2 GT PUSH3 0x20D JUMPI JUMPDEST POP DUP1 SWAP2 DUP4 GT PUSH1 0x1 EQ PUSH3 0x1A6 JUMPI POP DUP5 SWAP6 DUP3 SWAP4 SWAP5 SWAP6 SWAP3 PUSH3 0x19A JUMPI JUMPDEST POP POP PUSH1 0x0 NOT PUSH1 0x3 DUP4 SWAP1 SHL SHR NOT AND SWAP1 DUP3 SHL OR SWAP1 SSTORE JUMPDEST CALLER ISZERO PUSH3 0x182 JUMPI PUSH1 0xB DUP1 SLOAD CALLER PUSH1 0x1 PUSH1 0x1 PUSH1 0xA0 SHL SUB NOT DUP3 AND DUP2 OR SWAP1 SWAP3 SSTORE SWAP2 MLOAD SWAP3 SWAP1 SWAP2 PUSH1 0x1 PUSH1 0x1 PUSH1 0xA0 SHL SUB AND SWAP1 PUSH32 0x8BE0079C531659141344CD1FD0A4F28419497F9722A3DAAFE3B4186F6B6457E0 SWAP1 DUP1 LOG3 PUSH2 0x1B4A SWAP1 DUP2 PUSH3 0x386 DUP3 CODECOPY RETURN JUMPDEST MLOAD PUSH4 0x1E4FBDF7 PUSH1 0xE0 SHL DUP2 MSTORE PUSH1 0x4 DUP2 ADD SWAP2 SWAP1 SWAP2 MSTORE PUSH1 0x24 SWAP1 REVERT JUMPDEST ADD MLOAD SWAP1 POP CODESIZE DUP1 PUSH3 0x112 JUMP JUMPDEST SWAP1 PUSH1 0x1F NOT DUP4 AND SWAP7 DUP5 DUP8 MSTORE DUP3 DUP8 KECCAK256 SWAP3 DUP8 SWAP1 JUMPDEST DUP10 DUP3 LT PUSH3 0x1F5 JUMPI POP POP DUP4 DUP6 SWAP7 SWAP8 SWAP9 LT PUSH3 0x1DB JUMPI JUMPDEST POP POP POP DUP2 SHL ADD SWAP1 SSTORE PUSH3 0x126 JUMP JUMPDEST ADD MLOAD PUSH1 0x0 NOT PUSH1 0xF8 DUP5 PUSH1 0x3 SHL AND SHR NOT AND SWAP1 SSTORE CODESIZE DUP1 DUP1 PUSH3 0x1CD JUMP JUMPDEST DUP1 DUP8 DUP6 SWAP7 DUP3 SWAP5 SWAP7 DUP7 ADD MLOAD DUP2 SSTORE ADD SWAP6 ADD SWAP4 ADD SWAP1 PUSH3 0x1B7 JUMP JUMPDEST DUP5 DUP8 MSTORE DUP2 DUP8 KECCAK256 DUP4 DUP1 DUP7 ADD PUSH1 0x5 SHR DUP3 ADD SWAP3 DUP5 DUP8 LT PUSH3 0x24B JUMPI JUMPDEST ADD PUSH1 0x5 SHR ADD SWAP1 DUP6 SWAP1 JUMPDEST DUP3 DUP2 LT PUSH3 0x23F JUMPI POP POP PUSH3 0xF7 JUMP JUMPDEST DUP9 DUP2 SSTORE ADD DUP6 SWAP1 PUSH3 0x22F JUMP JUMPDEST SWAP3 POP DUP2 SWAP3 PUSH3 0x226 JUMP JUMPDEST PUSH4 0x4E487B71 PUSH1 0xE0 SHL DUP8 MSTORE PUSH1 0x22 PUSH1 0x4 MSTORE PUSH1 0x24 DUP8 REVERT JUMPDEST SWAP1 PUSH1 0x7F AND SWAP1 PUSH3 0xE5 JUMP JUMPDEST PUSH4 0x4E487B71 PUSH1 0xE0 SHL DUP7 MSTORE PUSH1 0x41 PUSH1 0x4 MSTORE PUSH1 0x24 DUP7 REVERT JUMPDEST ADD MLOAD SWAP1 POP CODESIZE DUP1 PUSH3 0xB7 JUMP JUMPDEST DUP10 DUP1 MSTORE DUP5 DUP11 KECCAK256 DUP9 SWAP5 POP SWAP2 SWAP1 PUSH1 0x1F NOT DUP5 AND DUP12 JUMPDEST DUP8 DUP3 DUP3 LT PUSH3 0x2E1 JUMPI POP POP DUP5 GT PUSH3 0x2C7 JUMPI JUMPDEST POP POP POP DUP2 SHL ADD DUP7 SSTORE PUSH3 0xCB JUMP JUMPDEST ADD MLOAD PUSH1 0x0 NOT PUSH1 0xF8 DUP5 PUSH1 0x3 SHL AND SHR NOT AND SWAP1 SSTORE CODESIZE DUP1 DUP1 PUSH3 0x2B9 JUMP JUMPDEST DUP4 DUP6 ADD MLOAD DUP7 SSTORE DUP12 SWAP8 SWAP1 SWAP6 ADD SWAP5 SWAP4 DUP5 ADD SWAP4 ADD PUSH3 0x2A6 JUMP JUMPDEST SWAP1 SWAP2 POP DUP9 DUP1 MSTORE DUP4 DUP10 KECCAK256 DUP6 DUP1 DUP6 ADD PUSH1 0x5 SHR DUP3 ADD SWAP3 DUP7 DUP7 LT PUSH3 0x341 JUMPI JUMPDEST SWAP2 DUP10 SWAP2 DUP7 SWAP6 SWAP5 SWAP4 ADD PUSH1 0x5 SHR ADD SWAP2 JUMPDEST DUP3 DUP2 LT PUSH3 0x332 JUMPI POP POP PUSH3 0xA1 JUMP JUMPDEST DUP12 DUP2 SSTORE DUP6 SWAP5 POP DUP10 SWAP2 ADD PUSH3 0x322 JUMP JUMPDEST SWAP3 POP DUP2 SWAP3 PUSH3 0x314 JUMP JUMPDEST PUSH4 0x4E487B71 PUSH1 0xE0 SHL DUP9 MSTORE PUSH1 0x22 PUSH1 0x4 MSTORE PUSH1 0x24 DUP9 REVERT JUMPDEST SWAP4 PUSH1 0x7F AND SWAP4 PUSH3 0x8A JUMP JUMPDEST PUSH4 0x4E487B71 PUSH1 0xE0 SHL PUSH1 0x0 MSTORE PUSH1 0x41 PUSH1 0x4 MSTORE PUSH1 0x24 PUSH1 0x0 REVERT JUMPDEST PUSH1 0x0 DUP1 REVERT INVALID PUSH1 0x80 DUP1 PUSH1 0x40 MSTORE PUSH1 0x4 CALLDATASIZE LT ISZERO PUSH2 0x13 JUMPI PUSH1 0x0 DUP1 REVERT JUMPDEST PUSH1 0x0 CALLDATALOAD PUSH1 0xE0 SHR SWAP1 DUP2 PUSH4 0x1FFC9A7 EQ PUSH2 0x11F7 JUMPI POP DUP1 PUSH4 0x6FDDE03 EQ PUSH2 0x114C JUMPI DUP1 PUSH4 0x81812FC EQ PUSH2 0x110E JUMPI DUP1 PUSH4 0x95EA7B3 EQ PUSH2 0x1027 JUMPI DUP1 PUSH4 0xF42949A EQ PUSH2 0xFE9 JUMPI DUP1 PUSH4 0x141961BC EQ PUSH2 0xF8E JUMPI DUP1 PUSH4 0x18160DDD EQ PUSH2 0xF70 JUMPI DUP1 PUSH4 0x18E97FD1 EQ PUSH2 0xED0 JUMPI DUP1 PUSH4 0x23B872DD EQ PUSH2 0xEB9 JUMPI DUP1 PUSH4 0x2F745C59 EQ PUSH2 0xE35 JUMPI DUP1 PUSH4 0x42842E0E EQ PUSH2 0xE07 JUMPI DUP1 PUSH4 0x42966C68 EQ PUSH2 0xB69 JUMPI DUP1 PUSH4 0x4F6CCCE7 EQ PUSH2 0xB13 JUMPI DUP1 PUSH4 0x6352211E EQ PUSH2 0xAE3 JUMPI DUP1 PUSH4 0x70A08231 EQ PUSH2 0xAB8 JUMPI DUP1 PUSH4 0x715018A6 EQ PUSH2 0xA5B JUMPI DUP1 PUSH4 0x853D42AD EQ PUSH2 0x48B JUMPI DUP1 PUSH4 0x8DA5CB5B EQ PUSH2 0x462 JUMPI DUP1 PUSH4 0x95D89B41 EQ PUSH2 0x37F JUMPI DUP1 PUSH4 0xA22CB465 EQ PUSH2 0x2DA JUMPI DUP1 PUSH4 0xB88D4FDE EQ PUSH2 0x26D JUMPI DUP1 PUSH4 0xC87B56DD EQ PUSH2 0x210 JUMPI DUP1 PUSH4 0xE985E9C5 EQ PUSH2 0x1BA JUMPI PUSH4 0xF2FDE38B EQ PUSH2 0x127 JUMPI PUSH1 0x0 DUP1 REVERT JUMPDEST CALLVALUE PUSH2 0x1B5 JUMPI PUSH1 0x20 CALLDATASIZE PUSH1 0x3 NOT ADD SLT PUSH2 0x1B5 JUMPI PUSH2 0x140 PUSH2 0x12D6 JUMP JUMPDEST PUSH2 0x148 PUSH2 0x1837 JUMP JUMPDEST PUSH1 0x1 PUSH1 0x1 PUSH1 0xA0 SHL SUB SWAP1 DUP2 AND SWAP1 DUP2 ISZERO PUSH2 0x19C JUMPI PUSH1 0xB SLOAD DUP3 PUSH12 0xFFFFFFFFFFFFFFFFFFFFFFFF PUSH1 0xA0 SHL DUP3 AND OR PUSH1 0xB SSTORE AND PUSH32 0x8BE0079C531659141344CD1FD0A4F28419497F9722A3DAAFE3B4186F6B6457E0 PUSH1 0x0 DUP1 LOG3 STOP JUMPDEST PUSH1 0x40 MLOAD PUSH4 0x1E4FBDF7 PUSH1 0xE0 SHL DUP2 MSTORE PUSH1 0x0 PUSH1 0x4 DUP3 ADD MSTORE PUSH1 0x24 SWAP1 REVERT JUMPDEST PUSH1 0x0 DUP1 REVERT JUMPDEST CALLVALUE PUSH2 0x1B5 JUMPI PUSH1 0x40 CALLDATASIZE PUSH1 0x3 NOT ADD SLT PUSH2 0x1B5 JUMPI PUSH2 0x1D3 PUSH2 0x12D6 JUMP JUMPDEST PUSH2 0x1DB PUSH2 0x12EC JUMP JUMPDEST SWAP1 PUSH1 0x1 DUP1 PUSH1 0xA0 SHL SUB DUP1 SWAP2 AND PUSH1 0x0 MSTORE PUSH1 0x5 PUSH1 0x20 MSTORE PUSH1 0x40 PUSH1 0x0 KECCAK256 SWAP2 AND PUSH1 0x0 MSTORE PUSH1 0x20 MSTORE PUSH1 0x20 PUSH1 0xFF PUSH1 0x40 PUSH1 0x0 KECCAK256 SLOAD AND PUSH1 0x40 MLOAD SWAP1 ISZERO ISZERO DUP2 MSTORE RETURN JUMPDEST CALLVALUE PUSH2 0x1B5 JUMPI PUSH1 0x20 CALLDATASIZE PUSH1 0x3 NOT ADD SLT PUSH2 0x1B5 JUMPI PUSH1 0x4 CALLDATALOAD PUSH2 0x22D DUP2 PUSH2 0x1814 JUMP JUMPDEST POP PUSH1 0x0 MSTORE PUSH1 0xA PUSH1 0x20 MSTORE PUSH2 0x269 PUSH2 0x246 PUSH1 0x40 PUSH1 0x0 KECCAK256 PUSH2 0x137A JUMP JUMPDEST PUSH1 0x0 PUSH1 0x40 MLOAD PUSH2 0x254 DUP2 PUSH2 0x133C JUMP JUMPDEST MSTORE PUSH1 0x40 MLOAD SWAP2 DUP3 SWAP2 PUSH1 0x20 DUP4 MSTORE PUSH1 0x20 DUP4 ADD SWAP1 PUSH2 0x1296 JUMP JUMPDEST SUB SWAP1 RETURN JUMPDEST CALLVALUE PUSH2 0x1B5 JUMPI PUSH1 0x80 CALLDATASIZE PUSH1 0x3 NOT ADD SLT PUSH2 0x1B5 JUMPI PUSH2 0x286 PUSH2 0x12D6 JUMP JUMPDEST PUSH2 0x28E PUSH2 0x12EC JUMP JUMPDEST SWAP1 PUSH1 0x44 CALLDATALOAD PUSH1 0x64 CALLDATALOAD SWAP3 PUSH8 0xFFFFFFFFFFFFFFFF DUP5 GT PUSH2 0x1B5 JUMPI CALLDATASIZE PUSH1 0x23 DUP6 ADD SLT ISZERO PUSH2 0x1B5 JUMPI PUSH2 0x2C7 PUSH2 0x2D8 SWAP5 CALLDATASIZE SWAP1 PUSH1 0x24 DUP2 PUSH1 0x4 ADD CALLDATALOAD SWAP2 ADD PUSH2 0x149E JUMP JUMPDEST SWAP3 PUSH2 0x2D3 DUP4 DUP4 DUP4 PUSH2 0x14D5 JUMP JUMPDEST PUSH2 0x19CC JUMP JUMPDEST STOP JUMPDEST CALLVALUE PUSH2 0x1B5 JUMPI PUSH1 0x40 CALLDATASIZE PUSH1 0x3 NOT ADD SLT PUSH2 0x1B5 JUMPI PUSH2 0x2F3 PUSH2 0x12D6 JUMP JUMPDEST PUSH1 0x24 CALLDATALOAD SWAP1 DUP2 ISZERO ISZERO DUP1 SWAP3 SUB PUSH2 0x1B5 JUMPI PUSH1 0x1 PUSH1 0x1 PUSH1 0xA0 SHL SUB AND SWAP1 DUP2 ISZERO PUSH2 0x366 JUMPI CALLER PUSH1 0x0 MSTORE PUSH1 0x5 PUSH1 0x20 MSTORE PUSH1 0x40 PUSH1 0x0 KECCAK256 DUP3 PUSH1 0x0 MSTORE PUSH1 0x20 MSTORE PUSH1 0x40 PUSH1 0x0 KECCAK256 PUSH1 0xFF NOT DUP2 SLOAD AND PUSH1 0xFF DUP4 AND OR SWAP1 SSTORE PUSH1 0x40 MLOAD SWAP1 DUP2 MSTORE PUSH32 0x17307EAB39AB6107E8899845AD3D59BD9653F200F220920489CA2B5937696C31 PUSH1 0x20 CALLER SWAP3 LOG3 STOP JUMPDEST PUSH1 0x40 MLOAD PUSH4 0xB611743 PUSH1 0xE3 SHL DUP2 MSTORE PUSH1 0x4 DUP2 ADD DUP4 SWAP1 MSTORE PUSH1 0x24 SWAP1 REVERT JUMPDEST CALLVALUE PUSH2 0x1B5 JUMPI PUSH1 0x0 CALLDATASIZE PUSH1 0x3 NOT ADD SLT PUSH2 0x1B5 JUMPI PUSH1 0x40 MLOAD PUSH1 0x0 PUSH1 0x1 DUP3 PUSH1 0x1 SLOAD SWAP3 PUSH2 0x3A5 DUP5 PUSH2 0x1302 JUMP JUMPDEST SWAP3 DUP4 DUP4 MSTORE PUSH1 0x20 SWAP5 DUP6 PUSH1 0x1 DUP3 AND SWAP2 DUP3 PUSH1 0x0 EQ PUSH2 0x442 JUMPI POP POP PUSH1 0x1 EQ PUSH2 0x3E5 JUMPI JUMPDEST POP PUSH2 0x3D1 SWAP3 POP SUB DUP4 PUSH2 0x1358 JUMP JUMPDEST PUSH2 0x269 PUSH1 0x40 MLOAD SWAP3 DUP3 DUP5 SWAP4 DUP5 MSTORE DUP4 ADD SWAP1 PUSH2 0x1296 JUMP JUMPDEST DUP5 SWAP2 POP PUSH1 0x1 PUSH1 0x0 MSTORE PUSH32 0xB10E2D527612073B26EECDFD717E6A320CF44B4AFAC2B0732D9FCBE2B7FA0CF6 SWAP1 PUSH1 0x0 SWAP2 JUMPDEST DUP6 DUP4 LT PUSH2 0x42A JUMPI POP POP PUSH2 0x3D1 SWAP4 POP DUP3 ADD ADD DUP6 PUSH2 0x3C4 JUMP JUMPDEST DUP1 SLOAD DUP4 DUP10 ADD DUP6 ADD MSTORE DUP8 SWAP5 POP DUP7 SWAP4 SWAP1 SWAP3 ADD SWAP2 DUP2 ADD PUSH2 0x413 JUMP JUMPDEST PUSH1 0xFF NOT AND DUP6 DUP3 ADD MSTORE PUSH2 0x3D1 SWAP6 ISZERO ISZERO PUSH1 0x5 SHL DUP6 ADD ADD SWAP3 POP DUP8 SWAP2 POP PUSH2 0x3C4 SWAP1 POP JUMP JUMPDEST CALLVALUE PUSH2 0x1B5 JUMPI PUSH1 0x0 CALLDATASIZE PUSH1 0x3 NOT ADD SLT PUSH2 0x1B5 JUMPI PUSH1 0xB SLOAD PUSH1 0x40 MLOAD PUSH1 0x1 PUSH1 0x1 PUSH1 0xA0 SHL SUB SWAP1 SWAP2 AND DUP2 MSTORE PUSH1 0x20 SWAP1 RETURN JUMPDEST CALLVALUE PUSH2 0x1B5 JUMPI PUSH1 0x80 CALLDATASIZE PUSH1 0x3 NOT ADD SLT PUSH2 0x1B5 JUMPI PUSH2 0x4A4 PUSH2 0x12D6 JUMP JUMPDEST PUSH1 0x24 CALLDATALOAD PUSH8 0xFFFFFFFFFFFFFFFF DUP2 GT PUSH2 0x1B5 JUMPI PUSH2 0x4C4 SWAP1 CALLDATASIZE SWAP1 PUSH1 0x4 ADD PUSH2 0x141F JUMP JUMPDEST PUSH1 0x44 CALLDATALOAD PUSH8 0xFFFFFFFFFFFFFFFF DUP2 GT PUSH2 0x1B5 JUMPI PUSH2 0x4E4 SWAP1 CALLDATASIZE SWAP1 PUSH1 0x4 ADD PUSH2 0x141F JUMP JUMPDEST SWAP1 SWAP3 PUSH2 0x4EE PUSH2 0x1837 JUMP JUMPDEST PUSH1 0xC SLOAD SWAP3 PUSH1 0x0 NOT DUP5 EQ PUSH2 0x965 JUMPI PUSH1 0x1 DUP5 ADD PUSH1 0xC SSTORE PUSH1 0x40 MLOAD PUSH2 0x50E DUP2 PUSH2 0x133C JUMP JUMPDEST PUSH1 0x0 DUP2 MSTORE PUSH1 0x1 PUSH1 0x1 PUSH1 0xA0 SHL SUB DUP8 AND ISZERO PUSH2 0xA42 JUMPI PUSH1 0x0 DUP6 DUP2 MSTORE PUSH1 0x2 PUSH1 0x20 MSTORE PUSH1 0x40 SWAP1 KECCAK256 SLOAD PUSH1 0x1 PUSH1 0x1 PUSH1 0xA0 SHL SUB AND DUP1 PUSH2 0xA0B JUMPI JUMPDEST PUSH1 0x1 PUSH1 0x1 PUSH1 0xA0 SHL SUB DUP9 AND PUSH1 0x0 DUP2 DUP2 MSTORE PUSH1 0x3 PUSH1 0x20 SWAP1 DUP2 MSTORE PUSH1 0x40 DUP1 DUP4 KECCAK256 DUP1 SLOAD PUSH1 0x1 ADD SWAP1 SSTORE DUP10 DUP4 MSTORE PUSH1 0x2 SWAP1 SWAP2 MSTORE DUP2 KECCAK256 DUP1 SLOAD PUSH1 0x1 PUSH1 0x1 PUSH1 0xA0 SHL SUB NOT AND DUP4 OR SWAP1 SSTORE DUP8 SWAP2 SWAP1 DUP4 SWAP1 PUSH32 0xDDF252AD1BE2C89B69C2B068FC378DAA952BA7F163C4A11628F55A4DF523B3EF SWAP1 DUP1 LOG4 DUP1 PUSH2 0x97B JUMPI PUSH1 0x8 SLOAD DUP7 PUSH1 0x0 MSTORE PUSH1 0x9 PUSH1 0x20 MSTORE DUP1 PUSH1 0x40 PUSH1 0x0 KECCAK256 SSTORE PUSH1 0x1 PUSH1 0x40 SHL DUP2 LT ISZERO PUSH2 0x79D JUMPI DUP7 PUSH2 0x5DC DUP3 PUSH1 0x1 PUSH2 0x5F5 SWAP5 ADD PUSH1 0x8 SSTORE PUSH2 0x178E JUMP JUMPDEST SWAP1 SWAP2 SWAP1 DUP3 SLOAD SWAP1 PUSH1 0x3 SHL SWAP2 DUP3 SHL SWAP2 PUSH1 0x0 NOT SWAP1 SHL NOT AND OR SWAP1 SSTORE JUMP JUMPDEST PUSH1 0x1 PUSH1 0x1 PUSH1 0xA0 SHL SUB DUP9 AND DUP2 SUB PUSH2 0x911 JUMPI JUMPDEST PUSH2 0x8F8 JUMPI DUP7 EXTCODESIZE PUSH2 0x7B3 JUMPI JUMPDEST POP PUSH2 0x62C SWAP3 SWAP4 SWAP5 SWAP6 POP SWAP1 PUSH2 0x626 SWAP2 CALLDATASIZE SWAP2 PUSH2 0x149E JUMP JUMPDEST DUP4 PUSH2 0x1863 JUMP JUMPDEST PUSH1 0x40 MLOAD SWAP3 PUSH1 0x60 DUP5 ADD SWAP2 DUP5 DUP4 LT PUSH8 0xFFFFFFFFFFFFFFFF DUP5 GT OR PUSH2 0x79D JUMPI PUSH2 0x656 SWAP3 PUSH1 0x40 MSTORE CALLDATASIZE SWAP2 PUSH2 0x149E JUMP JUMPDEST DUP3 MSTORE PUSH1 0x20 DUP3 ADD SWAP2 PUSH1 0x64 CALLDATALOAD DUP4 MSTORE PUSH1 0x40 DUP2 ADD PUSH1 0x0 DUP2 MSTORE DUP3 PUSH1 0x0 MSTORE PUSH1 0xD PUSH1 0x20 MSTORE PUSH1 0x40 PUSH1 0x0 KECCAK256 SWAP2 MLOAD SWAP4 DUP5 MLOAD PUSH8 0xFFFFFFFFFFFFFFFF DUP2 GT PUSH2 0x79D JUMPI PUSH1 0x20 SWAP6 PUSH2 0x699 DUP6 SLOAD PUSH2 0x1302 JUMP JUMPDEST PUSH1 0x1F DUP2 GT PUSH2 0x762 JUMPI JUMPDEST POP DUP7 SWAP1 PUSH1 0x1F DUP4 GT PUSH1 0x1 EQ PUSH2 0x6F8 JUMPI SWAP2 DUP1 PUSH2 0x6D8 SWAP3 PUSH1 0x2 SWAP7 SWAP6 SWAP5 PUSH1 0x0 SWAP3 PUSH2 0x6ED JUMPI JUMPDEST POP POP DUP2 PUSH1 0x1 SHL SWAP2 PUSH1 0x0 NOT SWAP1 PUSH1 0x3 SHL SHR NOT AND OR SWAP1 JUMP JUMPDEST DUP5 SSTORE JUMPDEST MLOAD PUSH1 0x1 DUP5 ADD SSTORE MLOAD SWAP2 ADD SSTORE PUSH1 0x40 MLOAD SWAP1 DUP2 MSTORE RETURN JUMPDEST ADD MLOAD SWAP1 POP DUP10 DUP1 PUSH2 0x6C3 JUMP JUMPDEST SWAP1 PUSH1 0x1F NOT DUP4 AND SWAP2 DUP7 PUSH1 0x0 MSTORE DUP9 PUSH1 0x0 KECCAK256 SWAP3 PUSH1 0x0 JUMPDEST DUP2 DUP2 LT PUSH2 0x74B JUMPI POP SWAP2 PUSH1 0x1 SWAP4 SWAP2 DUP6 PUSH1 0x2 SWAP9 SWAP8 SWAP7 SWAP5 LT PUSH2 0x732 JUMPI JUMPDEST POP POP POP DUP2 SHL ADD DUP5 SSTORE PUSH2 0x6DB JUMP JUMPDEST ADD MLOAD PUSH1 0x0 NOT PUSH1 0xF8 DUP5 PUSH1 0x3 SHL AND SHR NOT AND SWAP1 SSTORE DUP9 DUP1 DUP1 PUSH2 0x725 JUMP JUMPDEST SWAP3 SWAP4 DUP11 PUSH1 0x1 DUP2 SWAP3 DUP8 DUP7 ADD MLOAD DUP2 SSTORE ADD SWAP6 ADD SWAP4 ADD PUSH2 0x70B JUMP JUMPDEST PUSH2 0x78D SWAP1 DUP7 PUSH1 0x0 MSTORE DUP9 PUSH1 0x0 KECCAK256 PUSH1 0x1F DUP6 ADD PUSH1 0x5 SHR DUP2 ADD SWAP2 DUP11 DUP7 LT PUSH2 0x793 JUMPI JUMPDEST PUSH1 0x1F ADD PUSH1 0x5 SHR ADD SWAP1 PUSH2 0x1777 JUMP JUMPDEST DUP8 PUSH2 0x6A2 JUMP JUMPDEST SWAP1 SWAP2 POP DUP2 SWAP1 PUSH2 0x780 JUMP JUMPDEST PUSH4 0x4E487B71 PUSH1 0xE0 SHL PUSH1 0x0 MSTORE PUSH1 0x41 PUSH1 0x4 MSTORE PUSH1 0x24 PUSH1 0x0 REVERT JUMPDEST PUSH1 0x40 MLOAD PUSH1 0x20 DUP2 DUP1 PUSH2 0x7ED PUSH4 0xA85BD01 PUSH1 0xE1 SHL SWAP6 DUP7 DUP4 MSTORE CALLER PUSH1 0x4 DUP5 ADD MSTORE PUSH1 0x0 PUSH1 0x24 DUP5 ADD MSTORE DUP11 PUSH1 0x44 DUP5 ADD MSTORE PUSH1 0x80 PUSH1 0x64 DUP5 ADD MSTORE PUSH1 0x84 DUP4 ADD SWAP1 PUSH2 0x1296 JUMP JUMPDEST SUB DUP2 PUSH1 0x0 PUSH1 0x1 PUSH1 0x1 PUSH1 0xA0 SHL SUB DUP14 AND GAS CALL PUSH1 0x0 SWAP2 DUP2 PUSH2 0x8B3 JUMPI JUMPDEST POP PUSH2 0x86E JUMPI DUP8 RETURNDATASIZE ISZERO PUSH2 0x866 JUMPI RETURNDATASIZE SWAP1 PUSH2 0x81D DUP3 PUSH2 0x1482 JUMP JUMPDEST SWAP2 PUSH2 0x82B PUSH1 0x40 MLOAD SWAP4 DUP5 PUSH2 0x1358 JUMP JUMPDEST DUP3 MSTORE RETURNDATASIZE PUSH1 0x0 PUSH1 0x20 DUP5 ADD RETURNDATACOPY JUMPDEST DUP2 MLOAD SWAP2 DUP3 PUSH2 0x85F JUMPI PUSH1 0x40 MLOAD PUSH4 0x32505749 PUSH1 0xE1 SHL DUP2 MSTORE PUSH1 0x1 PUSH1 0x1 PUSH1 0xA0 SHL SUB DUP4 AND PUSH1 0x4 DUP3 ADD MSTORE PUSH1 0x24 SWAP1 REVERT JUMPDEST SWAP1 POP PUSH1 0x20 ADD REVERT JUMPDEST PUSH1 0x60 SWAP1 PUSH2 0x836 JUMP JUMPDEST PUSH4 0xFFFFFFFF PUSH1 0xE0 SWAP9 SWAP4 SWAP5 SWAP6 SWAP7 SWAP8 SWAP9 SHL AND SUB PUSH2 0x891 JUMPI POP DUP5 SWAP4 SWAP3 SWAP2 SWAP1 PUSH2 0x626 PUSH2 0x611 JUMP JUMPDEST PUSH1 0x40 MLOAD PUSH4 0x32505749 PUSH1 0xE1 SHL DUP2 MSTORE PUSH1 0x1 PUSH1 0x1 PUSH1 0xA0 SHL SUB SWAP1 SWAP2 AND PUSH1 0x4 DUP3 ADD MSTORE PUSH1 0x24 SWAP1 REVERT JUMPDEST SWAP1 SWAP2 POP PUSH1 0x20 DUP2 RETURNDATASIZE PUSH1 0x20 GT PUSH2 0x8F0 JUMPI JUMPDEST DUP2 PUSH2 0x8CF PUSH1 0x20 SWAP4 DUP4 PUSH2 0x1358 JUMP JUMPDEST DUP2 ADD SUB SLT PUSH2 0x1B5 JUMPI MLOAD PUSH1 0x1 PUSH1 0x1 PUSH1 0xE0 SHL SUB NOT DUP2 AND DUP2 SUB PUSH2 0x1B5 JUMPI SWAP1 DUP10 PUSH2 0x806 JUMP JUMPDEST RETURNDATASIZE SWAP2 POP PUSH2 0x8C2 JUMP JUMPDEST PUSH1 0x40 MLOAD PUSH4 0x39E35637 PUSH1 0xE1 SHL DUP2 MSTORE PUSH1 0x0 PUSH1 0x4 DUP3 ADD MSTORE PUSH1 0x24 SWAP1 REVERT JUMPDEST PUSH2 0x91A DUP9 PUSH2 0x17DB JUMP JUMPDEST DUP1 PUSH1 0x0 NOT DUP2 ADD GT PUSH2 0x965 JUMPI PUSH1 0x1 DUP1 PUSH1 0xA0 SHL SUB DUP10 AND PUSH1 0x0 MSTORE PUSH1 0x6 PUSH1 0x20 MSTORE PUSH1 0x40 PUSH1 0x0 KECCAK256 PUSH1 0x0 NOT DUP3 ADD PUSH1 0x0 MSTORE PUSH1 0x20 MSTORE DUP7 PUSH1 0x40 PUSH1 0x0 KECCAK256 SSTORE DUP7 PUSH1 0x0 MSTORE PUSH1 0x7 PUSH1 0x20 MSTORE PUSH1 0x0 NOT ADD PUSH1 0x40 PUSH1 0x0 KECCAK256 SSTORE PUSH2 0x606 JUMP JUMPDEST PUSH4 0x4E487B71 PUSH1 0xE0 SHL PUSH1 0x0 MSTORE PUSH1 0x11 PUSH1 0x4 MSTORE PUSH1 0x24 PUSH1 0x0 REVERT JUMPDEST PUSH1 0x1 PUSH1 0x1 PUSH1 0xA0 SHL SUB DUP9 AND DUP2 EQ PUSH2 0x5F5 JUMPI PUSH2 0x994 DUP2 PUSH2 0x17DB JUMP JUMPDEST DUP7 PUSH1 0x0 MSTORE PUSH1 0x7 PUSH1 0x20 MSTORE PUSH1 0x40 PUSH1 0x0 KECCAK256 SLOAD DUP2 DUP2 SUB PUSH2 0x9D8 JUMPI JUMPDEST POP DUP7 PUSH1 0x0 MSTORE PUSH1 0x0 PUSH1 0x40 DUP2 KECCAK256 SSTORE DUP2 PUSH1 0x0 MSTORE PUSH1 0x6 PUSH1 0x20 MSTORE PUSH1 0x40 PUSH1 0x0 KECCAK256 SWAP1 PUSH1 0x0 MSTORE PUSH1 0x20 MSTORE PUSH1 0x0 PUSH1 0x40 DUP2 KECCAK256 SSTORE PUSH2 0x5F5 JUMP JUMPDEST PUSH1 0x0 DUP4 DUP2 MSTORE PUSH1 0x6 PUSH1 0x20 SWAP1 DUP2 MSTORE PUSH1 0x40 DUP1 DUP4 KECCAK256 DUP6 DUP5 MSTORE DUP3 MSTORE DUP1 DUP4 KECCAK256 SLOAD DUP5 DUP5 MSTORE DUP2 DUP5 KECCAK256 DUP2 SWAP1 SSTORE DUP4 MSTORE PUSH1 0x7 SWAP1 SWAP2 MSTORE SWAP1 KECCAK256 SSTORE DUP10 PUSH2 0x9AB JUMP JUMPDEST PUSH1 0x0 DUP7 DUP2 MSTORE PUSH1 0x4 PUSH1 0x20 MSTORE PUSH1 0x40 SWAP1 KECCAK256 DUP1 SLOAD PUSH1 0x1 PUSH1 0x1 PUSH1 0xA0 SHL SUB NOT AND SWAP1 SSTORE DUP1 PUSH1 0x0 MSTORE PUSH1 0x3 PUSH1 0x20 MSTORE PUSH1 0x40 PUSH1 0x0 KECCAK256 PUSH1 0x0 NOT DUP2 SLOAD ADD SWAP1 SSTORE PUSH2 0x53F JUMP JUMPDEST PUSH1 0x40 MLOAD PUSH4 0x32505749 PUSH1 0xE1 SHL DUP2 MSTORE PUSH1 0x0 PUSH1 0x4 DUP3 ADD MSTORE PUSH1 0x24 SWAP1 REVERT JUMPDEST CALLVALUE PUSH2 0x1B5 JUMPI PUSH1 0x0 CALLDATASIZE PUSH1 0x3 NOT ADD SLT PUSH2 0x1B5 JUMPI PUSH2 0xA74 PUSH2 0x1837 JUMP JUMPDEST PUSH1 0xB DUP1 SLOAD PUSH1 0x1 PUSH1 0x1 PUSH1 0xA0 SHL SUB NOT DUP2 AND SWAP1 SWAP2 SSTORE PUSH1 0x0 SWAP1 PUSH1 0x1 PUSH1 0x1 PUSH1 0xA0 SHL SUB AND PUSH32 0x8BE0079C531659141344CD1FD0A4F28419497F9722A3DAAFE3B4186F6B6457E0 DUP3 DUP1 LOG3 STOP JUMPDEST CALLVALUE PUSH2 0x1B5 JUMPI PUSH1 0x20 CALLDATASIZE PUSH1 0x3 NOT ADD SLT PUSH2 0x1B5 JUMPI PUSH1 0x20 PUSH2 0xADB PUSH2 0xAD6 PUSH2 0x12D6 JUMP JUMPDEST PUSH2 0x17DB JUMP JUMPDEST PUSH1 0x40 MLOAD SWAP1 DUP2 MSTORE RETURN JUMPDEST CALLVALUE PUSH2 0x1B5 JUMPI PUSH1 0x20 CALLDATASIZE PUSH1 0x3 NOT ADD SLT PUSH2 0x1B5 JUMPI PUSH1 0x20 PUSH2 0xB01 PUSH1 0x4 CALLDATALOAD PUSH2 0x1814 JUMP JUMPDEST PUSH1 0x40 MLOAD PUSH1 0x1 PUSH1 0x1 PUSH1 0xA0 SHL SUB SWAP1 SWAP2 AND DUP2 MSTORE RETURN JUMPDEST CALLVALUE PUSH2 0x1B5 JUMPI PUSH1 0x20 CALLDATASIZE PUSH1 0x3 NOT ADD SLT PUSH2 0x1B5 JUMPI PUSH1 0x4 CALLDATALOAD PUSH1 0x8 SLOAD DUP2 LT ISZERO PUSH2 0xB4A JUMPI PUSH2 0xB3C PUSH1 0x20 SWAP2 PUSH2 0x178E JUMP JUMPDEST SWAP1 SLOAD PUSH1 0x40 MLOAD SWAP2 PUSH1 0x3 SHL SHR DUP2 MSTORE RETURN JUMPDEST PUSH1 0x44 SWAP1 PUSH1 0x40 MLOAD SWAP1 PUSH4 0x295F44F7 PUSH1 0xE2 SHL DUP3 MSTORE PUSH1 0x0 PUSH1 0x4 DUP4 ADD MSTORE PUSH1 0x24 DUP3 ADD MSTORE REVERT JUMPDEST CALLVALUE PUSH2 0x1B5 JUMPI PUSH1 0x20 DUP1 PUSH1 0x3 NOT CALLDATASIZE ADD SLT PUSH2 0x1B5 JUMPI PUSH1 0x4 CALLDATALOAD SWAP1 PUSH2 0xB87 PUSH2 0x1837 JUMP JUMPDEST DUP2 PUSH1 0x0 MSTORE PUSH1 0xD DUP2 MSTORE PUSH1 0x0 PUSH1 0x2 PUSH1 0x40 DUP3 KECCAK256 PUSH2 0xBA1 DUP2 SLOAD PUSH2 0x1302 JUMP JUMPDEST DUP1 PUSH2 0xDCB JUMPI JUMPDEST POP PUSH1 0x1 DUP2 ADD DUP4 SWAP1 SSTORE ADD SSTORE PUSH1 0x0 DUP3 DUP2 MSTORE PUSH1 0x2 DUP3 MSTORE PUSH1 0x40 SWAP1 KECCAK256 SLOAD PUSH1 0x1 PUSH1 0x1 PUSH1 0xA0 SHL SUB AND DUP1 ISZERO SWAP2 SWAP1 DUP3 ISZERO DUP1 PUSH2 0xD98 JUMPI JUMPDEST PUSH1 0x0 DUP6 DUP2 MSTORE PUSH1 0x2 DUP5 MSTORE PUSH1 0x40 DUP2 KECCAK256 DUP1 SLOAD PUSH1 0x1 PUSH1 0x1 PUSH1 0xA0 SHL SUB NOT AND SWAP1 SSTORE DUP6 SWAP1 DUP4 PUSH32 0xDDF252AD1BE2C89B69C2B068FC378DAA952BA7F163C4A11628F55A4DF523B3EF DUP3 DUP1 LOG4 DUP4 ISZERO PUSH2 0xCFC JUMPI POP POP PUSH1 0x8 SLOAD DUP4 PUSH1 0x0 MSTORE PUSH1 0x9 DUP3 MSTORE DUP1 PUSH1 0x40 PUSH1 0x0 KECCAK256 SSTORE PUSH1 0x1 PUSH1 0x40 SHL DUP2 LT ISZERO PUSH2 0x79D JUMPI DUP4 PUSH2 0x5DC DUP3 PUSH1 0x1 PUSH2 0xC50 SWAP5 ADD PUSH1 0x8 SSTORE PUSH2 0x178E JUMP JUMPDEST PUSH1 0x8 SLOAD PUSH1 0x0 NOT SWAP2 DUP3 DUP3 ADD SWAP2 DUP3 GT PUSH2 0x965 JUMPI PUSH1 0x9 SWAP1 DUP6 PUSH1 0x0 MSTORE DUP2 DUP2 MSTORE PUSH2 0xC7A PUSH1 0x40 PUSH1 0x0 KECCAK256 SLOAD SWAP4 PUSH2 0x178E JUMP JUMPDEST SWAP1 SLOAD SWAP1 PUSH1 0x3 SHL SHR PUSH2 0xC8E DUP2 PUSH2 0x5DC DUP7 PUSH2 0x178E JUMP JUMPDEST PUSH1 0x0 MSTORE MSTORE PUSH1 0x40 PUSH1 0x0 KECCAK256 SSTORE DUP3 PUSH1 0x0 MSTORE PUSH1 0x0 PUSH1 0x40 DUP2 KECCAK256 SSTORE PUSH1 0x8 SLOAD DUP1 ISZERO PUSH2 0xCE6 JUMPI DUP2 ADD SWAP1 PUSH2 0xCB8 DUP3 PUSH2 0x178E JUMP JUMPDEST SWAP1 SWAP2 DUP3 SLOAD SWAP2 PUSH1 0x3 SHL SHL NOT AND SWAP1 SSTORE PUSH1 0x8 SSTORE PUSH2 0xCCE JUMPI STOP JUMPDEST PUSH1 0x24 SWAP1 PUSH1 0x40 MLOAD SWAP1 PUSH4 0x7E273289 PUSH1 0xE0 SHL DUP3 MSTORE PUSH1 0x4 DUP3 ADD MSTORE REVERT JUMPDEST PUSH4 0x4E487B71 PUSH1 0xE0 SHL PUSH1 0x0 MSTORE PUSH1 0x31 PUSH1 0x4 MSTORE PUSH1 0x24 PUSH1 0x0 REVERT JUMPDEST PUSH2 0xD07 JUMPI JUMPDEST POP PUSH2 0xC50 JUMP JUMPDEST PUSH2 0xD10 DUP2 PUSH2 0x17DB JUMP JUMPDEST SWAP1 DUP5 PUSH1 0x0 MSTORE PUSH1 0x7 DUP4 MSTORE PUSH1 0x40 PUSH1 0x0 KECCAK256 SLOAD DUP3 DUP2 SUB PUSH2 0xD52 JUMPI JUMPDEST POP DUP5 PUSH1 0x0 MSTORE PUSH1 0x0 PUSH1 0x40 DUP2 KECCAK256 SSTORE PUSH1 0x0 MSTORE PUSH1 0x6 DUP3 MSTORE PUSH1 0x40 PUSH1 0x0 KECCAK256 SWAP1 PUSH1 0x0 MSTORE DUP2 MSTORE PUSH1 0x0 PUSH1 0x40 DUP2 KECCAK256 SSTORE DUP4 PUSH2 0xD01 JUMP JUMPDEST DUP2 PUSH1 0x0 MSTORE PUSH1 0x6 DUP5 MSTORE PUSH1 0x40 PUSH1 0x0 KECCAK256 DUP4 PUSH1 0x0 MSTORE DUP5 MSTORE PUSH1 0x40 PUSH1 0x0 KECCAK256 SLOAD DUP3 PUSH1 0x0 MSTORE PUSH1 0x6 DUP6 MSTORE PUSH1 0x40 PUSH1 0x0 KECCAK256 DUP3 PUSH1 0x0 MSTORE DUP6 MSTORE DUP1 PUSH1 0x40 PUSH1 0x0 KECCAK256 SSTORE PUSH1 0x0 MSTORE PUSH1 0x7 DUP5 MSTORE PUSH1 0x40 PUSH1 0x0 KECCAK256 SSTORE DUP6 PUSH2 0xD27 JUMP JUMPDEST PUSH1 0x0 DUP6 DUP2 MSTORE PUSH1 0x4 PUSH1 0x20 MSTORE PUSH1 0x40 DUP1 DUP3 KECCAK256 DUP1 SLOAD PUSH1 0x1 PUSH1 0x1 PUSH1 0xA0 SHL SUB NOT AND SWAP1 SSTORE DUP4 DUP3 MSTORE PUSH1 0x3 DUP6 MSTORE SWAP1 KECCAK256 DUP1 SLOAD PUSH1 0x0 NOT ADD SWAP1 SSTORE PUSH2 0xBD4 JUMP JUMPDEST PUSH1 0x1F DUP2 GT PUSH1 0x1 EQ PUSH2 0xDE1 JUMPI POP DUP3 DUP2 SSTORE JUMPDEST DUP6 PUSH2 0xBA7 JUMP JUMPDEST DUP4 SWAP1 DUP3 DUP3 MSTORE PUSH2 0xDFE PUSH1 0x1F DUP8 DUP5 KECCAK256 SWAP3 ADD PUSH1 0x5 SHR DUP3 ADD PUSH1 0x1 DUP4 ADD PUSH2 0x1777 JUMP JUMPDEST DUP2 DUP4 SSTORE SSTORE PUSH2 0xDDB JUMP JUMPDEST CALLVALUE PUSH2 0x1B5 JUMPI PUSH2 0x2D8 PUSH2 0xE18 CALLDATASIZE PUSH2 0x144D JUMP JUMPDEST SWAP1 PUSH1 0x40 MLOAD SWAP3 PUSH2 0xE26 DUP5 PUSH2 0x133C JUMP JUMPDEST PUSH1 0x0 DUP5 MSTORE PUSH2 0x2D3 DUP4 DUP4 DUP4 PUSH2 0x14D5 JUMP JUMPDEST CALLVALUE PUSH2 0x1B5 JUMPI PUSH1 0x40 CALLDATASIZE PUSH1 0x3 NOT ADD SLT PUSH2 0x1B5 JUMPI PUSH2 0xE4E PUSH2 0x12D6 JUMP JUMPDEST PUSH1 0x24 CALLDATALOAD SWAP1 PUSH2 0xE5B DUP2 PUSH2 0x17DB JUMP JUMPDEST DUP3 LT ISZERO PUSH2 0xE8E JUMPI PUSH1 0x1 DUP1 PUSH1 0xA0 SHL SUB AND PUSH1 0x0 MSTORE PUSH1 0x6 PUSH1 0x20 MSTORE PUSH1 0x40 PUSH1 0x0 KECCAK256 SWAP1 PUSH1 0x0 MSTORE PUSH1 0x20 MSTORE PUSH1 0x20 PUSH1 0x40 PUSH1 0x0 KECCAK256 SLOAD PUSH1 0x40 MLOAD SWAP1 DUP2 MSTORE RETURN JUMPDEST PUSH1 0x40 MLOAD PUSH4 0x295F44F7 PUSH1 0xE2 SHL DUP2 MSTORE PUSH1 0x1 PUSH1 0x1 PUSH1 0xA0 SHL SUB SWAP2 SWAP1 SWAP2 AND PUSH1 0x4 DUP3 ADD MSTORE PUSH1 0x24 DUP2 ADD SWAP2 SWAP1 SWAP2 MSTORE PUSH1 0x44 SWAP1 REVERT JUMPDEST CALLVALUE PUSH2 0x1B5 JUMPI PUSH2 0x2D8 PUSH2 0xECA CALLDATASIZE PUSH2 0x144D JUMP JUMPDEST SWAP2 PUSH2 0x14D5 JUMP JUMPDEST CALLVALUE PUSH2 0x1B5 JUMPI PUSH1 0x40 CALLDATASIZE PUSH1 0x3 NOT ADD SLT PUSH2 0x1B5 JUMPI PUSH1 0x4 CALLDATALOAD PUSH1 0x24 CALLDATALOAD PUSH8 0xFFFFFFFFFFFFFFFF DUP2 GT PUSH2 0x1B5 JUMPI PUSH1 0x40 PUSH2 0xF27 PUSH32 0x931F495B9A8E5D8E61946EA5D61E021F636CFE213A801F97589C18C152E408BD SWAP3 CALLDATASIZE SWAP1 PUSH1 0x4 ADD PUSH2 0x141F JUMP JUMPDEST SWAP2 SWAP1 PUSH2 0xF31 PUSH2 0x1837 JUMP JUMPDEST PUSH2 0xF45 PUSH2 0xF3F CALLDATASIZE DUP6 DUP5 PUSH2 0x149E JUMP JUMPDEST DUP7 PUSH2 0x1863 JUMP JUMPDEST DUP3 DUP3 MLOAD SWAP4 DUP5 SWAP3 PUSH1 0x20 DUP5 MSTORE DUP2 PUSH1 0x20 DUP6 ADD MSTORE DUP5 DUP5 ADD CALLDATACOPY PUSH1 0x0 DUP3 DUP3 ADD DUP5 ADD MSTORE PUSH1 0x1F ADD PUSH1 0x1F NOT AND DUP2 ADD SUB ADD SWAP1 LOG2 STOP JUMPDEST CALLVALUE PUSH2 0x1B5 JUMPI PUSH1 0x0 CALLDATASIZE PUSH1 0x3 NOT ADD SLT PUSH2 0x1B5 JUMPI PUSH1 0x20 PUSH1 0x8 SLOAD PUSH1 0x40 MLOAD SWAP1 DUP2 MSTORE RETURN JUMPDEST CALLVALUE PUSH2 0x1B5 JUMPI PUSH1 0x20 CALLDATASIZE PUSH1 0x3 NOT ADD SLT PUSH2 0x1B5 JUMPI PUSH1 0x4 CALLDATALOAD PUSH1 0x0 MSTORE PUSH1 0xD PUSH1 0x20 MSTORE PUSH2 0xFDA PUSH1 0x40 PUSH1 0x0 KECCAK256 PUSH2 0xFBB DUP2 PUSH2 0x137A JUMP JUMPDEST SWAP1 PUSH1 0x2 PUSH1 0x1 DUP3 ADD SLOAD SWAP2 ADD SLOAD PUSH1 0x40 MLOAD SWAP4 DUP5 SWAP4 PUSH1 0x60 DUP6 MSTORE PUSH1 0x60 DUP6 ADD SWAP1 PUSH2 0x1296 JUMP JUMPDEST SWAP2 PUSH1 0x20 DUP5 ADD MSTORE PUSH1 0x40 DUP4 ADD MSTORE SUB SWAP1 RETURN JUMPDEST CALLVALUE PUSH2 0x1B5 JUMPI PUSH1 0x40 CALLDATASIZE PUSH1 0x3 NOT ADD SLT PUSH2 0x1B5 JUMPI PUSH2 0x1002 PUSH2 0x1837 JUMP JUMPDEST PUSH1 0x4 CALLDATALOAD PUSH1 0x0 MSTORE PUSH1 0xD PUSH1 0x20 MSTORE PUSH1 0x2 PUSH1 0x40 PUSH1 0x0 KECCAK256 ADD DUP1 SLOAD SWAP1 PUSH1 0x24 CALLDATALOAD DUP3 ADD DUP1 SWAP3 GT PUSH2 0x965 JUMPI SSTORE STOP JUMPDEST CALLVALUE PUSH2 0x1B5 JUMPI PUSH1 0x40 CALLDATASIZE PUSH1 0x3 NOT ADD SLT PUSH2 0x1B5 JUMPI PUSH2 0x1040 PUSH2 0x12D6 JUMP JUMPDEST PUSH1 0x24 CALLDATALOAD PUSH2 0x104C DUP2 PUSH2 0x1814 JUMP JUMPDEST CALLER ISZERO ISZERO DUP1 PUSH2 0x10FB JUMPI JUMPDEST DUP1 PUSH2 0x10CE JUMPI JUMPDEST PUSH2 0x10B6 JUMPI PUSH1 0x1 PUSH1 0x1 PUSH1 0xA0 SHL SUB SWAP3 DUP4 AND SWAP3 DUP3 SWAP2 DUP5 SWAP2 AND PUSH32 0x8C5BE1E5EBEC7D5BD14F71427D1E84F3DD0314C0F7B2291E5B200AC8C7C3B925 PUSH1 0x0 DUP1 LOG4 PUSH1 0x0 SWAP1 DUP2 MSTORE PUSH1 0x4 PUSH1 0x20 MSTORE PUSH1 0x40 SWAP1 KECCAK256 DUP1 SLOAD PUSH1 0x1 PUSH1 0x1 PUSH1 0xA0 SHL SUB NOT AND SWAP1 SWAP2 OR SWAP1 SSTORE STOP JUMPDEST PUSH1 0x40 MLOAD PUSH4 0xA9FBF51F PUSH1 0xE0 SHL DUP2 MSTORE CALLER PUSH1 0x4 DUP3 ADD MSTORE PUSH1 0x24 SWAP1 REVERT JUMPDEST POP PUSH1 0x1 DUP1 PUSH1 0xA0 SHL SUB DUP2 AND PUSH1 0x0 MSTORE PUSH1 0x5 PUSH1 0x20 MSTORE PUSH1 0x40 PUSH1 0x0 KECCAK256 CALLER PUSH1 0x0 MSTORE PUSH1 0x20 MSTORE PUSH1 0xFF PUSH1 0x40 PUSH1 0x0 KECCAK256 SLOAD AND ISZERO PUSH2 0x105B JUMP JUMPDEST POP PUSH1 0x1 PUSH1 0x1 PUSH1 0xA0 SHL SUB DUP2 AND CALLER EQ ISZERO PUSH2 0x1055 JUMP JUMPDEST CALLVALUE PUSH2 0x1B5 JUMPI PUSH1 0x20 CALLDATASIZE PUSH1 0x3 NOT ADD SLT PUSH2 0x1B5 JUMPI PUSH1 0x4 CALLDATALOAD PUSH2 0x112B DUP2 PUSH2 0x1814 JUMP JUMPDEST POP PUSH1 0x0 MSTORE PUSH1 0x4 PUSH1 0x20 MSTORE PUSH1 0x20 PUSH1 0x1 DUP1 PUSH1 0xA0 SHL SUB PUSH1 0x40 PUSH1 0x0 KECCAK256 SLOAD AND PUSH1 0x40 MLOAD SWAP1 DUP2 MSTORE RETURN JUMPDEST CALLVALUE PUSH2 0x1B5 JUMPI PUSH1 0x0 CALLDATASIZE PUSH1 0x3 NOT ADD SLT PUSH2 0x1B5 JUMPI PUSH1 0x40 MLOAD PUSH1 0x0 DUP1 SLOAD SWAP1 DUP3 PUSH2 0x116F DUP4 PUSH2 0x1302 JUMP JUMPDEST SWAP2 DUP3 DUP3 MSTORE PUSH1 0x20 SWAP4 PUSH1 0x1 SWAP1 DUP6 PUSH1 0x1 DUP3 AND SWAP2 DUP3 PUSH1 0x0 EQ PUSH2 0x442 JUMPI POP POP PUSH1 0x1 EQ PUSH2 0x119D JUMPI POP PUSH2 0x3D1 SWAP3 POP SUB DUP4 PUSH2 0x1358 JUMP JUMPDEST PUSH1 0x0 DUP1 DUP1 MSTORE DUP6 SWAP3 POP SWAP1 PUSH32 0x290DECD9548B62A8D60345A988386FC84BA6BC95484008F6362F93160EF3E563 JUMPDEST DUP6 DUP4 LT PUSH2 0x11DF JUMPI POP POP PUSH2 0x3D1 SWAP4 POP DUP3 ADD ADD DUP6 PUSH2 0x3C4 JUMP JUMPDEST DUP1 SLOAD DUP4 DUP10 ADD DUP6 ADD MSTORE DUP8 SWAP5 POP DUP7 SWAP4 SWAP1 SWAP3 ADD SWAP2 DUP2 ADD PUSH2 0x11C8 JUMP JUMPDEST CALLVALUE PUSH2 0x1B5 JUMPI PUSH1 0x20 CALLDATASIZE PUSH1 0x3 NOT ADD SLT PUSH2 0x1B5 JUMPI PUSH1 0x4 CALLDATALOAD SWAP1 PUSH4 0xFFFFFFFF PUSH1 0xE0 SHL DUP3 AND DUP1 SWAP3 SUB PUSH2 0x1B5 JUMPI PUSH1 0x20 SWAP2 PUSH4 0x24832483 PUSH1 0xE1 SHL DUP2 EQ SWAP1 DUP2 ISZERO PUSH2 0x1239 JUMPI JUMPDEST POP ISZERO ISZERO DUP2 MSTORE RETURN JUMPDEST PUSH4 0x780E9D63 PUSH1 0xE0 SHL DUP2 EQ SWAP2 POP DUP2 ISZERO PUSH2 0x1253 JUMPI JUMPDEST POP DUP4 PUSH2 0x1232 JUMP JUMPDEST PUSH4 0x80AC58CD PUSH1 0xE0 SHL DUP2 EQ SWAP2 POP DUP2 ISZERO PUSH2 0x1285 JUMPI JUMPDEST DUP2 ISZERO PUSH2 0x1274 JUMPI JUMPDEST POP DUP4 PUSH2 0x124C JUMP JUMPDEST PUSH4 0x1FFC9A7 PUSH1 0xE0 SHL EQ SWAP1 POP DUP4 PUSH2 0x126D JUMP JUMPDEST PUSH4 0x5B5E139F PUSH1 0xE0 SHL DUP2 EQ SWAP2 POP PUSH2 0x1266 JUMP JUMPDEST SWAP2 SWAP1 DUP3 MLOAD SWAP3 DUP4 DUP3 MSTORE PUSH1 0x0 JUMPDEST DUP5 DUP2 LT PUSH2 0x12C2 JUMPI POP POP DUP3 PUSH1 0x0 PUSH1 0x20 DUP1 SWAP5 SWAP6 DUP5 ADD ADD MSTORE PUSH1 0x1F DUP1 NOT SWAP2 ADD AND ADD ADD SWAP1 JUMP JUMPDEST PUSH1 0x20 DUP2 DUP4 ADD DUP2 ADD MLOAD DUP5 DUP4 ADD DUP3 ADD MSTORE ADD PUSH2 0x12A1 JUMP JUMPDEST PUSH1 0x4 CALLDATALOAD SWAP1 PUSH1 0x1 PUSH1 0x1 PUSH1 0xA0 SHL SUB DUP3 AND DUP3 SUB PUSH2 0x1B5 JUMPI JUMP JUMPDEST PUSH1 0x24 CALLDATALOAD SWAP1 PUSH1 0x1 PUSH1 0x1 PUSH1 0xA0 SHL SUB DUP3 AND DUP3 SUB PUSH2 0x1B5 JUMPI JUMP JUMPDEST SWAP1 PUSH1 0x1 DUP3 DUP2 SHR SWAP3 AND DUP1 ISZERO PUSH2 0x1332 JUMPI JUMPDEST PUSH1 0x20 DUP4 LT EQ PUSH2 0x131C JUMPI JUMP JUMPDEST PUSH4 0x4E487B71 PUSH1 0xE0 SHL PUSH1 0x0 MSTORE PUSH1 0x22 PUSH1 0x4 MSTORE PUSH1 0x24 PUSH1 0x0 REVERT JUMPDEST SWAP2 PUSH1 0x7F AND SWAP2 PUSH2 0x1311 JUMP JUMPDEST PUSH1 0x20 DUP2 ADD SWAP1 DUP2 LT PUSH8 0xFFFFFFFFFFFFFFFF DUP3 GT OR PUSH2 0x79D JUMPI PUSH1 0x40 MSTORE JUMP JUMPDEST SWAP1 PUSH1 0x1F DUP1 NOT SWAP2 ADD AND DUP2 ADD SWAP1 DUP2 LT PUSH8 0xFFFFFFFFFFFFFFFF DUP3 GT OR PUSH2 0x79D JUMPI PUSH1 0x40 MSTORE JUMP JUMPDEST SWAP1 PUSH1 0x40 MLOAD SWAP2 DUP3 PUSH1 0x0 DUP3 SLOAD PUSH2 0x138D DUP2 PUSH2 0x1302 JUMP JUMPDEST SWAP1 DUP2 DUP5 MSTORE PUSH1 0x20 SWAP5 PUSH1 0x1 SWAP2 PUSH1 0x1 DUP2 AND SWAP1 DUP2 PUSH1 0x0 EQ PUSH2 0x13FD JUMPI POP PUSH1 0x1 EQ PUSH2 0x13BE JUMPI JUMPDEST POP POP POP PUSH2 0x13BC SWAP3 POP SUB DUP4 PUSH2 0x1358 JUMP JUMPDEST JUMP JUMPDEST PUSH1 0x0 SWAP1 DUP2 MSTORE DUP6 DUP2 KECCAK256 SWAP6 SWAP4 POP SWAP2 SWAP1 JUMPDEST DUP2 DUP4 LT PUSH2 0x13E5 JUMPI POP POP PUSH2 0x13BC SWAP4 POP DUP3 ADD ADD CODESIZE DUP1 DUP1 PUSH2 0x13AD JUMP JUMPDEST DUP6 SLOAD DUP9 DUP5 ADD DUP6 ADD MSTORE SWAP5 DUP6 ADD SWAP5 DUP8 SWAP5 POP SWAP2 DUP4 ADD SWAP2 PUSH2 0x13CC JUMP JUMPDEST SWAP3 POP POP POP PUSH2 0x13BC SWAP5 SWAP3 POP PUSH1 0xFF NOT AND DUP3 DUP5 ADD MSTORE ISZERO ISZERO PUSH1 0x5 SHL DUP3 ADD ADD CODESIZE DUP1 DUP1 PUSH2 0x13AD JUMP JUMPDEST SWAP2 DUP2 PUSH1 0x1F DUP5 ADD SLT ISZERO PUSH2 0x1B5 JUMPI DUP3 CALLDATALOAD SWAP2 PUSH8 0xFFFFFFFFFFFFFFFF DUP4 GT PUSH2 0x1B5 JUMPI PUSH1 0x20 DUP4 DUP2 DUP7 ADD SWAP6 ADD ADD GT PUSH2 0x1B5 JUMPI JUMP JUMPDEST PUSH1 0x60 SWAP1 PUSH1 0x3 NOT ADD SLT PUSH2 0x1B5 JUMPI PUSH1 0x1 PUSH1 0x1 PUSH1 0xA0 SHL SUB SWAP1 PUSH1 0x4 CALLDATALOAD DUP3 DUP2 AND DUP2 SUB PUSH2 0x1B5 JUMPI SWAP2 PUSH1 0x24 CALLDATALOAD SWAP1 DUP2 AND DUP2 SUB PUSH2 0x1B5 JUMPI SWAP1 PUSH1 0x44 CALLDATALOAD SWAP1 JUMP JUMPDEST PUSH8 0xFFFFFFFFFFFFFFFF DUP2 GT PUSH2 0x79D JUMPI PUSH1 0x1F ADD PUSH1 0x1F NOT AND PUSH1 0x20 ADD SWAP1 JUMP JUMPDEST SWAP3 SWAP2 SWAP3 PUSH2 0x14AA DUP3 PUSH2 0x1482 JUMP JUMPDEST SWAP2 PUSH2 0x14B8 PUSH1 0x40 MLOAD SWAP4 DUP5 PUSH2 0x1358 JUMP JUMPDEST DUP3 SWAP5 DUP2 DUP5 MSTORE DUP2 DUP4 ADD GT PUSH2 0x1B5 JUMPI DUP3 DUP2 PUSH1 0x20 SWAP4 DUP5 PUSH1 0x0 SWAP7 ADD CALLDATACOPY ADD ADD MSTORE JUMP JUMPDEST PUSH1 0x1 PUSH1 0x1 PUSH1 0xA0 SHL SUB DUP3 DUP2 AND SWAP4 SWAP2 DUP5 ISZERO PUSH2 0xA42 JUMPI PUSH1 0x0 SWAP5 DUP4 DUP7 MSTORE PUSH1 0x20 SWAP6 PUSH1 0x2 DUP8 MSTORE PUSH1 0x40 SWAP7 DUP5 DUP9 DUP4 KECCAK256 SLOAD AND SWAP7 CALLER ISZERO ISZERO DUP1 PUSH2 0x16E9 JUMPI JUMPDEST POP DUP8 ISZERO DUP1 ISZERO PUSH2 0x16B6 JUMPI JUMPDEST DUP5 DUP5 MSTORE PUSH1 0x3 DUP4 MSTORE DUP10 DUP5 KECCAK256 DUP1 SLOAD PUSH1 0x1 ADD SWAP1 SSTORE DUP8 DUP5 MSTORE PUSH1 0x2 DUP4 MSTORE DUP10 DUP5 KECCAK256 DUP1 SLOAD PUSH1 0x1 PUSH1 0x1 PUSH1 0xA0 SHL SUB NOT AND DUP7 OR SWAP1 SSTORE DUP8 DUP6 DUP11 PUSH32 0xDDF252AD1BE2C89B69C2B068FC378DAA952BA7F163C4A11628F55A4DF523B3EF DUP8 DUP1 LOG4 ISZERO PUSH2 0x163A JUMPI PUSH1 0x8 SLOAD DUP8 DUP5 MSTORE PUSH1 0x9 DUP4 MSTORE DUP1 DUP11 DUP6 KECCAK256 SSTORE PUSH1 0x1 PUSH1 0x40 SHL DUP2 LT ISZERO PUSH2 0x1626 JUMPI DUP8 PUSH2 0x5DC DUP3 PUSH1 0x1 PUSH2 0x1598 SWAP5 ADD PUSH1 0x8 SSTORE PUSH2 0x178E JUMP JUMPDEST DUP4 DUP9 SUB PUSH2 0x15D4 JUMPI JUMPDEST POP POP POP POP AND SWAP3 DUP4 DUP4 SUB PUSH2 0x15B3 JUMPI POP POP POP POP JUMP JUMPDEST PUSH1 0x64 SWAP5 POP MLOAD SWAP3 PUSH4 0x64283D7B PUSH1 0xE0 SHL DUP5 MSTORE PUSH1 0x4 DUP5 ADD MSTORE PUSH1 0x24 DUP4 ADD MSTORE PUSH1 0x44 DUP3 ADD MSTORE REVERT JUMPDEST PUSH2 0x15DD SWAP1 PUSH2 0x17DB JUMP JUMPDEST PUSH1 0x0 NOT DUP2 ADD SWAP4 SWAP1 DUP5 GT PUSH2 0x1612 JUMPI DUP3 SWAP2 PUSH1 0x7 SWAP2 DUP11 SWAP5 MSTORE PUSH1 0x6 DUP2 MSTORE DUP4 DUP4 KECCAK256 DUP6 DUP5 MSTORE DUP2 MSTORE DUP8 DUP5 DUP5 KECCAK256 SSTORE DUP8 DUP4 MSTORE MSTORE KECCAK256 SSTORE CODESIZE DUP1 DUP1 DUP1 PUSH2 0x15A0 JUMP JUMPDEST PUSH4 0x4E487B71 PUSH1 0xE0 SHL DUP4 MSTORE PUSH1 0x11 PUSH1 0x4 MSTORE PUSH1 0x24 DUP4 REVERT JUMPDEST PUSH4 0x4E487B71 PUSH1 0xE0 SHL DUP5 MSTORE PUSH1 0x41 PUSH1 0x4 MSTORE PUSH1 0x24 DUP5 REVERT JUMPDEST DUP8 DUP5 EQ PUSH2 0x1598 JUMPI PUSH2 0x164A DUP9 PUSH2 0x17DB JUMP JUMPDEST DUP8 DUP5 MSTORE PUSH1 0x7 DUP4 MSTORE DUP10 DUP5 KECCAK256 SLOAD DUP2 DUP2 SUB PUSH2 0x167F JUMPI JUMPDEST POP DUP8 DUP5 MSTORE DUP4 DUP11 DUP2 KECCAK256 SSTORE DUP9 DUP5 MSTORE PUSH1 0x6 DUP4 MSTORE DUP10 DUP5 KECCAK256 SWAP1 DUP5 MSTORE DUP3 MSTORE DUP3 DUP10 DUP2 KECCAK256 SSTORE PUSH2 0x1598 JUMP JUMPDEST DUP10 DUP6 MSTORE PUSH1 0x6 DUP5 MSTORE DUP11 DUP6 KECCAK256 DUP3 DUP7 MSTORE DUP5 MSTORE DUP11 DUP6 KECCAK256 SLOAD DUP11 DUP7 MSTORE PUSH1 0x6 DUP6 MSTORE DUP12 DUP7 KECCAK256 DUP3 DUP8 MSTORE DUP6 MSTORE DUP1 DUP13 DUP8 KECCAK256 SSTORE DUP6 MSTORE PUSH1 0x7 DUP5 MSTORE DUP11 DUP6 KECCAK256 SSTORE CODESIZE PUSH2 0x165D JUMP JUMPDEST PUSH1 0x0 DUP9 DUP2 MSTORE PUSH1 0x4 PUSH1 0x20 MSTORE PUSH1 0x40 SWAP1 KECCAK256 DUP1 SLOAD PUSH1 0x1 PUSH1 0x1 PUSH1 0xA0 SHL SUB NOT AND SWAP1 SSTORE DUP9 DUP5 MSTORE PUSH1 0x3 DUP4 MSTORE DUP10 DUP5 KECCAK256 DUP1 SLOAD PUSH1 0x0 NOT ADD SWAP1 SSTORE PUSH2 0x1512 JUMP JUMPDEST DUP1 PUSH2 0x1736 JUMPI JUMPDEST ISZERO PUSH2 0x16FA JUMPI CODESIZE PUSH2 0x1508 JUMP JUMPDEST DUP9 DUP8 DUP10 PUSH2 0x1717 JUMPI PUSH1 0x24 SWAP2 MLOAD SWAP1 PUSH4 0x7E273289 PUSH1 0xE0 SHL DUP3 MSTORE PUSH1 0x4 DUP3 ADD MSTORE REVERT JUMPDEST SWAP1 MLOAD PUSH4 0x177E802F PUSH1 0xE0 SHL DUP2 MSTORE CALLER PUSH1 0x4 DUP3 ADD MSTORE PUSH1 0x24 DUP2 ADD SWAP2 SWAP1 SWAP2 MSTORE PUSH1 0x44 SWAP1 REVERT JUMPDEST POP CALLER DUP9 EQ DUP1 ISZERO PUSH2 0x175B JUMPI JUMPDEST DUP1 PUSH2 0x16EF JUMPI POP DUP7 DUP4 MSTORE PUSH1 0x4 DUP3 MSTORE CALLER DUP7 DUP11 DUP6 KECCAK256 SLOAD AND EQ PUSH2 0x16EF JUMP JUMPDEST POP DUP8 DUP4 MSTORE PUSH1 0x5 DUP3 MSTORE DUP9 DUP4 KECCAK256 CALLER DUP5 MSTORE DUP3 MSTORE PUSH1 0xFF DUP10 DUP5 KECCAK256 SLOAD AND PUSH2 0x1741 JUMP JUMPDEST DUP2 DUP2 LT PUSH2 0x1782 JUMPI POP POP JUMP JUMPDEST PUSH1 0x0 DUP2 SSTORE PUSH1 0x1 ADD PUSH2 0x1777 JUMP JUMPDEST PUSH1 0x8 SLOAD DUP2 LT ISZERO PUSH2 0x17C5 JUMPI PUSH1 0x8 PUSH1 0x0 MSTORE PUSH32 0xF3F7A9FE364FAAB93B216DA50A3214154F22A0A2B415B23A84C8169E8B636EE3 ADD SWAP1 PUSH1 0x0 SWAP1 JUMP JUMPDEST PUSH4 0x4E487B71 PUSH1 0xE0 SHL PUSH1 0x0 MSTORE PUSH1 0x32 PUSH1 0x4 MSTORE PUSH1 0x24 PUSH1 0x0 REVERT JUMPDEST PUSH1 0x1 PUSH1 0x1 PUSH1 0xA0 SHL SUB AND DUP1 ISZERO PUSH2 0x17FB JUMPI PUSH1 0x0 MSTORE PUSH1 0x3 PUSH1 0x20 MSTORE PUSH1 0x40 PUSH1 0x0 KECCAK256 SLOAD SWAP1 JUMP JUMPDEST PUSH1 0x40 MLOAD PUSH4 0x22718AD9 PUSH1 0xE2 SHL DUP2 MSTORE PUSH1 0x0 PUSH1 0x4 DUP3 ADD MSTORE PUSH1 0x24 SWAP1 REVERT JUMPDEST PUSH1 0x0 DUP2 DUP2 MSTORE PUSH1 0x2 PUSH1 0x20 MSTORE PUSH1 0x40 SWAP1 KECCAK256 SLOAD PUSH1 0x1 PUSH1 0x1 PUSH1 0xA0 SHL SUB AND SWAP1 DUP2 ISZERO PUSH2 0xCCE JUMPI POP SWAP1 JUMP JUMPDEST PUSH1 0xB SLOAD PUSH1 0x1 PUSH1 0x1 PUSH1 0xA0 SHL SUB AND CALLER SUB PUSH2 0x184B JUMPI JUMP JUMPDEST PUSH1 0x40 MLOAD PUSH4 0x118CDAA7 PUSH1 0xE0 SHL DUP2 MSTORE CALLER PUSH1 0x4 DUP3 ADD MSTORE PUSH1 0x24 SWAP1 REVERT JUMPDEST SWAP2 SWAP1 SWAP2 PUSH1 0x0 SWAP1 DUP1 DUP3 MSTORE PUSH1 0x20 SWAP2 PUSH1 0xA DUP4 MSTORE PUSH1 0x40 DUP2 KECCAK256 SWAP1 DUP6 MLOAD SWAP6 PUSH8 0xFFFFFFFFFFFFFFFF DUP8 GT PUSH2 0x19B8 JUMPI PUSH2 0x1894 DUP4 SLOAD PUSH2 0x1302 JUMP JUMPDEST PUSH1 0x1F DUP2 GT PUSH2 0x198A JUMPI JUMPDEST POP DUP5 SWAP2 PUSH1 0x1F DUP9 GT PUSH1 0x1 EQ PUSH2 0x1906 JUMPI SWAP7 PUSH2 0x18EF SWAP3 DUP2 SWAP3 PUSH32 0xF8E1A15ABA9398E019F0B49DF1A4FDE98EE17AE345CB5F6B5E2C27F5033E8CE7 SWAP9 SWAP10 SWAP3 PUSH2 0x18FB JUMPI POP POP DUP2 PUSH1 0x1 SHL SWAP2 PUSH1 0x0 NOT SWAP1 PUSH1 0x3 SHL SHR NOT AND OR SWAP1 JUMP JUMPDEST SWAP1 SSTORE JUMPDEST PUSH1 0x40 MLOAD SWAP1 DUP2 MSTORE LOG1 JUMP JUMPDEST ADD MLOAD SWAP1 POP CODESIZE DUP1 PUSH2 0x6C3 JUMP JUMPDEST SWAP2 SWAP1 PUSH1 0x1F NOT DUP9 AND DUP5 DUP5 MSTORE DUP7 DUP5 KECCAK256 SWAP4 JUMPDEST DUP2 DUP2 LT PUSH2 0x1973 JUMPI POP SWAP2 PUSH1 0x1 SWAP4 SWAP2 DUP10 PUSH32 0xF8E1A15ABA9398E019F0B49DF1A4FDE98EE17AE345CB5F6B5E2C27F5033E8CE7 SWAP10 SWAP11 SWAP5 LT PUSH2 0x195A JUMPI JUMPDEST POP POP POP DUP2 SHL ADD SWAP1 SSTORE PUSH2 0x18F2 JUMP JUMPDEST ADD MLOAD PUSH1 0x0 NOT PUSH1 0xF8 DUP5 PUSH1 0x3 SHL AND SHR NOT AND SWAP1 SSTORE CODESIZE DUP1 DUP1 PUSH2 0x194D JUMP JUMPDEST SWAP3 SWAP4 DUP8 PUSH1 0x1 DUP2 SWAP3 DUP8 DUP7 ADD MLOAD DUP2 SSTORE ADD SWAP6 ADD SWAP4 ADD PUSH2 0x1915 JUMP JUMPDEST PUSH2 0x19B2 SWAP1 DUP5 DUP5 MSTORE DUP7 DUP5 KECCAK256 PUSH1 0x1F DUP11 ADD PUSH1 0x5 SHR DUP2 ADD SWAP2 DUP9 DUP12 LT PUSH2 0x793 JUMPI PUSH1 0x1F ADD PUSH1 0x5 SHR ADD SWAP1 PUSH2 0x1777 JUMP JUMPDEST CODESIZE PUSH2 0x189D JUMP JUMPDEST PUSH4 0x4E487B71 PUSH1 0xE0 SHL DUP3 MSTORE PUSH1 0x41 PUSH1 0x4 MSTORE PUSH1 0x24 DUP3 REVERT JUMPDEST DUP2 EXTCODESIZE PUSH2 0x19D9 JUMPI JUMPDEST POP POP POP POP JUMP JUMPDEST PUSH1 0x40 MLOAD PUSH4 0xA85BD01 PUSH1 0xE1 SHL DUP1 DUP3 MSTORE CALLER PUSH1 0x4 DUP4 ADD MSTORE PUSH1 0x1 PUSH1 0x1 PUSH1 0xA0 SHL SUB SWAP3 DUP4 AND PUSH1 0x24 DUP4 ADD MSTORE PUSH1 0x44 DUP3 ADD SWAP5 SWAP1 SWAP5 MSTORE PUSH1 0x80 PUSH1 0x64 DUP3 ADD MSTORE PUSH1 0x20 SWAP6 SWAP3 SWAP1 SWAP2 AND SWAP4 SWAP1 SWAP3 SWAP1 DUP4 SWAP1 PUSH2 0x1A27 SWAP1 PUSH1 0x84 DUP4 ADD SWAP1 PUSH2 0x1296 JUMP JUMPDEST SUB SWAP3 DUP6 DUP2 PUSH1 0x0 SWAP6 DUP2 DUP8 DUP10 GAS CALL DUP5 SWAP2 DUP2 PUSH2 0x1AD0 JUMPI JUMPDEST POP PUSH2 0x1A9B JUMPI POP POP POP RETURNDATASIZE PUSH1 0x0 EQ PUSH2 0x1A93 JUMPI RETURNDATASIZE PUSH2 0x1A55 DUP2 PUSH2 0x1482 JUMP JUMPDEST SWAP1 PUSH2 0x1A63 PUSH1 0x40 MLOAD SWAP3 DUP4 PUSH2 0x1358 JUMP JUMPDEST DUP2 MSTORE DUP1 SWAP2 DUP5 RETURNDATASIZE SWAP3 ADD RETURNDATACOPY JUMPDEST DUP1 MLOAD SWAP3 DUP4 PUSH2 0x1A8E JUMPI PUSH1 0x40 MLOAD PUSH4 0x32505749 PUSH1 0xE1 SHL DUP2 MSTORE PUSH1 0x4 DUP2 ADD DUP5 SWAP1 MSTORE PUSH1 0x24 SWAP1 REVERT JUMPDEST ADD SWAP1 POP REVERT JUMPDEST POP PUSH1 0x60 PUSH2 0x1A6D JUMP JUMPDEST SWAP2 SWAP5 POP SWAP2 POP PUSH4 0xFFFFFFFF PUSH1 0xE0 SHL AND SUB PUSH2 0x1AB8 JUMPI POP CODESIZE DUP1 DUP1 DUP1 PUSH2 0x19D3 JUMP JUMPDEST PUSH1 0x24 SWAP1 PUSH1 0x40 MLOAD SWAP1 PUSH4 0x32505749 PUSH1 0xE1 SHL DUP3 MSTORE PUSH1 0x4 DUP3 ADD MSTORE REVERT JUMPDEST SWAP1 SWAP2 POP DUP7 DUP2 DUP2 RETURNDATASIZE DUP4 GT PUSH2 0x1B0D JUMPI JUMPDEST PUSH2 0x1AE8 DUP2 DUP4 PUSH2 0x1358 JUMP JUMPDEST DUP2 ADD SUB SLT PUSH2 0x1B09 JUMPI MLOAD PUSH1 0x1 PUSH1 0x1 PUSH1 0xE0 SHL SUB NOT DUP2 AND DUP2 SUB PUSH2 0x1B09 JUMPI SWAP1 CODESIZE PUSH2 0x1A3B JUMP JUMPDEST DUP5 DUP1 REVERT JUMPDEST POP RETURNDATASIZE PUSH2 0x1ADE JUMP INVALID LOG2 PUSH5 0x6970667358 0x22 SLT KECCAK256 0xCE 0xDB 0xCF SGT DUP16 0x4F 0xF PUSH4 0x9DA0BA98 0xE1 EQ PUSH26 0xB4E25485CCD31FBB7FCA6E95E86F700BD264736F6C6343000818 STOP CALLER "},"methodIdentifiers":{"addRaised(uint256,uint256)":"0f42949a","approve(address,uint256)":"095ea7b3","balanceOf(address)":"70a08231","burn(uint256)":"42966c68","campaigns(uint256)":"141961bc","getApproved(uint256)":"081812fc","isApprovedForAll(address,address)":"e985e9c5","mint(address,string,string,uint256)":"853d42ad","name()":"06fdde03","owner()":"8da5cb5b","ownerOf(uint256)":"6352211e","renounceOwnership()":"715018a6","safeTransferFrom(address,address,uint256)":"42842e0e","safeTransferFrom(address,address,uint256,bytes)":"b88d4fde","setApprovalForAll(address,bool)":"a22cb465","supportsInterface(bytes4)":"01ffc9a7","symbol()":"95d89b41","tokenByIndex(uint256)":"4f6ccce7","tokenOfOwnerByIndex(address,uint256)":"2f745c59","tokenURI(uint256)":"c87b56dd","totalSupply()":"18160ddd","transferFrom(address,address,uint256)":"23b872dd","transferOwnership(address)":"f2fde38b","updateTokenURI(uint256,string)":"18e97fd1"}}}}}