{"contracts/PatriotPledgeGovernance.sol":{"PatriotPledgeGovernance":{"abi":[{"inputs":[{"internalType":"address","name":"_govToken","type":"address"}],"stateMutability":"nonpayable","type":"constructor"},{"inputs":[{"internalType":"address","name":"owner","type":"address"}],"name":"OwnableInvalidOwner","type":"error"},{"inputs":[{"internalType":"address","name":"account","type":"address"}],"name":"OwnableUnauthorizedAccount","type":"error"},{"anonymous":false,"inputs":[{"indexed":true,"internalType":"uint256","name":"id","type":"uint256"}],"name":"Closed","type":"event"},{"anonymous":false,"inputs":[{"indexed":true,"internalType":"uint256","name":"id","type":"uint256"},{"indexed":false,"internalType":"bool","name":"open","type":"bool"}],"name":"Moderated","type":"event"},{"anonymous":false,"inputs":[{"indexed":true,"internalType":"address","name":"previousOwner","type":"address"},{"indexed":true,"internalType":"address","name":"newOwner","type":"address"}],"name":"OwnershipTransferred","type":"event"},{"anonymous":false,"inputs":[{"indexed":true,"internalType":"uint256","name":"id","type":"uint256"},{"indexed":true,"internalType":"address","name":"creator","type":"address"},{"indexed":false,"internalType":"string","name":"title","type":"string"},{"indexed":false,"internalType":"string","name":"category","type":"string"}],"name":"ProposalCreated","type":"event"},{"anonymous":false,"inputs":[{"indexed":true,"internalType":"uint256","name":"id","type":"uint256"},{"indexed":true,"internalType":"address","name":"voter","type":"address"},{"indexed":false,"internalType":"bool","name":"support","type":"bool"},{"indexed":false,"internalType":"uint256","name":"weight","type":"uint256"}],"name":"Voted","type":"event"},{"inputs":[{"internalType":"uint256","name":"id","type":"uint256"}],"name":"close","outputs":[],"stateMutability":"nonpayable","type":"function"},{"inputs":[{"internalType":"string","name":"title","type":"string"},{"internalType":"string","name":"description","type":"string"},{"internalType":"string","name":"category","type":"string"}],"name":"createProposal","outputs":[{"internalType":"uint256","name":"","type":"uint256"}],"stateMutability":"nonpayable","type":"function"},{"inputs":[],"name":"govToken","outputs":[{"internalType":"contract IERC20","name":"","type":"address"}],"stateMutability":"view","type":"function"},{"inputs":[{"internalType":"uint256","name":"","type":"uint256"},{"internalType":"address","name":"","type":"address"}],"name":"hasVoted","outputs":[{"internalType":"bool","name":"","type":"bool"}],"stateMutability":"view","type":"function"},{"inputs":[{"internalType":"uint256","name":"id","type":"uint256"},{"internalType":"bool","name":"open","type":"bool"}],"name":"moderate","outputs":[],"stateMutability":"nonpayable","type":"function"},{"inputs":[],"name":"nextId","outputs":[{"internalType":"uint256","name":"","type":"uint256"}],"stateMutability":"view","type":"function"},{"inputs":[],"name":"owner","outputs":[{"internalType":"address","name":"","type":"address"}],"stateMutability":"view","type":"function"},{"inputs":[{"internalType":"uint256","name":"","type":"uint256"}],"name":"proposals","outputs":[{"internalType":"uint256","name":"id","type":"uint256"},{"internalType":"address","name":"creator","type":"address"},{"internalType":"string","name":"title","type":"string"},{"internalType":"string","name":"description","type":"string"},{"internalType":"string","name":"category","type":"string"},{"internalType":"uint256","name":"yesVotes","type":"uint256"},{"internalType":"uint256","name":"noVotes","type":"uint256"},{"internalType":"bool","name":"open","type":"bool"},{"internalType":"uint256","name":"createdAt","type":"uint256"}],"stateMutability":"view","type":"function"},{"inputs":[],"name":"renounceOwnership","outputs":[],"stateMutability":"nonpayable","type":"function"},{"inputs":[{"internalType":"address","name":"newOwner","type":"address"}],"name":"transferOwnership","outputs":[],"stateMutability":"nonpayable","type":"function"},{"inputs":[{"internalType":"uint256","name":"id","type":"uint256"},{"internalType":"bool","name":"support","type":"bool"}],"name":"vote","outputs":[],"stateMutability":"nonpayable","type":"function"}],"evm":{"bytecode":{"linkReferences":{},"object":"6080346100c657601f610e5b38819003918201601f19168301916001600160401b038311848410176100cb578084926020946040528339810103126100c657516001600160a01b0390818116908190036100c65733156100ad5760005460018060a01b0319903382821617600055604051933391167f8be0079c531659141344cd1fd0a4f28419497f9722a3daafe3b4186f6b6457e0600080a36001541617600155610d7990816100e28239f35b604051631e4fbdf760e01b815260006004820152602490fd5b600080fd5b634e487b7160e01b600052604160045260246000fdfe6080604052600436101561001257600080fd5b60003560e01c8063013cf08b14610a8157806305268cff14610a585780630aebeb4e146109c45780634385963214610972578063583cf3791461040d57806361b8ce8c146103ef578063715018a6146103965780638da5cb5b1461036d578063c9d27afe14610196578063eb07a5c61461012a5763f2fde38b1461009557600080fd5b34610125576020366003190112610125576004356001600160a01b0381811691829003610125576100c4610d17565b811561010c57600054826bffffffffffffffffffffffff60a01b821617600055167f8be0079c531659141344cd1fd0a4f28419497f9722a3daafe3b4186f6b6457e0600080a3005b604051631e4fbdf760e01b815260006004820152602490fd5b600080fd5b346101255760207faf25038e48af5f441876ef4cc93ce6fe35d6e17da08b794873f222d5aa05989961015b36610ceb565b610166939193610d17565b836000526003825261018b8160076040600020019060ff801983541691151516179055565b6040519015158152a2005b34610125576101a436610ceb565b9080600052602060038152604060002060ff6007820154161561033f578260005260048252604060002033600052825260ff60406000205416610312576001546040516370a0823160e01b81523360048201529291908290849060249082906001600160a01b03165afa928315610306576000936102d7575b5082156102a657841561029157600501610238838254610d0a565b90555b826000526004815260406000203360005281526040600020600160ff1982541617905560405193151584528301527f7c2de587c00d75474a0c6c6fa96fd3b45dc974cd4e8a75f712bb84c950dce1b560403393a3005b60060161029f838254610d0a565b905561023b565b60405162461bcd60e51b81526004810183905260096024820152681b9bc81dd95a59da1d60ba1b6044820152606490fd5b9092508181813d83116102ff575b6102ef8183610b8d565b810103126101255751918561021d565b503d6102e5565b6040513d6000823e3d90fd5b60405162461bcd60e51b81526004810183905260056024820152641d9bdd195960da1b6044820152606490fd5b60405162461bcd60e51b815260048101839052600660248201526518db1bdcd95960d21b6044820152606490fd5b34610125576000366003190112610125576000546040516001600160a01b039091168152602090f35b34610125576000366003190112610125576103af610d17565b600080546001600160a01b0319811682556001600160a01b03167f8be0079c531659141344cd1fd0a4f28419497f9722a3daafe3b4186f6b6457e08280a3005b34610125576000366003190112610125576020600254604051908152f35b346101255760603660031901126101255760043567ffffffffffffffff81116101255761043e903690600401610c94565b60243567ffffffffffffffff81116101255761045e903690600401610c94565b9060443567ffffffffffffffff81116101255761047f903690600401610c94565b6002549190600019831461095c576001830160025560405193610120850185811067ffffffffffffffff8211176107a657604052600184018552602085019033825260408601908482526060870152826080870152600060a0870152600060c0870152600160e08701524261010087015260018501600052600360205260406000209186518355600183019060018060a01b039051166bffffffffffffffffffffffff60a01b8254161790555180519067ffffffffffffffff82116107a657819061054d6002850154610b53565b601f8111610909575b50602090601f83116001146108975760009261088c575b50508160011b916000199060031b1c19161760028201555b606085015180519067ffffffffffffffff82116107a65781906105ab6003850154610b53565b601f8111610839575b50602090601f83116001146107c7576000926107bc575b50508160011b916000199060031b1c19161760038201555b608085015194855167ffffffffffffffff81116107a6576106076004840154610b53565b96601f881161075f575b602097508790601f83116001146106eb57918060089492610100946000926106e0575b50508160011b916000199060031b1c19161760048501555b60a0810151600585015560c0810151600685015561067f60e08201511515600786019060ff801983541691151516179055565b01519101557fe1a39bb955c12c02b24074e4d2e09a80ed84a64ce9b4454b47456e8a26f96e756106ba60405193604085526040850190610c54565b9280840386820152806106d233956001880195610c54565b0390a3600160405191018152f35b015190508a80610634565b9060048501600052886000209160005b601f1985168110610748575092600894926001926101009583601f1981161061072f575b505050811b01600485015561064c565b015160001960f88460031b161c191690558a808061071f565b91928a6001819286850151815501940192016106fb565b600484016000526020600020601f830160051c81016020841061079f575b601f8a0160051c82018110610793575050610611565b6000815560010161077d565b508061077d565b634e487b7160e01b600052604160045260246000fd5b0151905087806105cb565b9250600384016000526020600020906000935b601f198416851061081e576001945083601f19811610610805575b505050811b0160038201556105e3565b015160001960f88460031b161c191690558780806107f5565b818101518355602094850194600190930192909101906107da565b909150600384016000526020600020601f840160051c810160208510610885575b90849392915b601f830160051c820181106108765750506105b4565b60008155859450600101610860565b508061085a565b01519050878061056d565b9250600284016000526020600020906000935b601f19841685106108ee576001945083601f198116106108d5575b505050811b016002820155610585565b015160001960f88460031b161c191690558780806108c5565b818101518355602094850194600190930192909101906108aa565b909150600284016000526020600020601f840160051c810160208510610955575b90849392915b601f830160051c82018110610946575050610556565b60008155859450600101610930565b508061092a565b634e487b7160e01b600052601160045260246000fd5b34610125576040366003190112610125576024356001600160a01b03811690819003610125576004356000526004602052604060002090600052602052602060ff604060002054166040519015158152f35b34610125576020366003190112610125576004356109e0610d17565b8060005260036020526007604060002001805460ff811615610a295760ff191690557f6cc09e7b5c3e49861ebe8f6867e1618fbfc14c8d0e968fde37c4243ca02a6f83600080a2005b60405162461bcd60e51b8152602060048201526007602482015266616c726561647960c81b6044820152606490fd5b34610125576000366003190112610125576001546040516001600160a01b039091168152602090f35b34610125576020366003190112610125576004356000526003602052604060002080549060018060a01b0360018201541690610abf60028201610baf565b610acb60038301610baf565b91610ad860048201610baf565b92610b37600583015494610b29600685015493610b1b600860ff600789015416970154976040519b8c9b610120918d5260208d01528060408d01528b0190610c54565b9089820360608b0152610c54565b908782036080890152610c54565b9360a086015260c0850152151560e08401526101008301520390f35b90600182811c92168015610b83575b6020831014610b6d57565b634e487b7160e01b600052602260045260246000fd5b91607f1691610b62565b90601f8019910116810190811067ffffffffffffffff8211176107a657604052565b90604051918260008254610bc281610b53565b90818452602094600191600181169081600014610c325750600114610bf3575b505050610bf192500383610b8d565b565b600090815285812095935091905b818310610c1a575050610bf19350820101388080610be2565b85548884018501529485019487945091830191610c01565b92505050610bf194925060ff191682840152151560051b820101388080610be2565b919082519283825260005b848110610c80575050826000602080949584010152601f8019910116010190565b602081830181015184830182015201610c5f565b81601f820112156101255780359067ffffffffffffffff82116107a65760405192610cc9601f8401601f191660200185610b8d565b8284526020838301011161012557816000926020809301838601378301015290565b6040906003190112610125576004359060243580151581036101255790565b9190820180921161095c57565b6000546001600160a01b03163303610d2b57565b60405163118cdaa760e01b8152336004820152602490fdfea2646970667358221220a162722b400b2196e125c66e201e51ae72b1886bd8b6825307cd40c84d945f3c64736f6c63430008180033","opcodes":"PUSH1 0x80 CALLVALUE PUSH2 0xC6 JUMPI PUSH1 0x1F PUSH2 0xE5B CODESIZE DUP2 SWAP1 SUB SWAP2 DUP3 ADD PUSH1 0x1F NOT AND DUP4 ADD SWAP2 PUSH1 0x1 PUSH1 0x1 PUSH1 0x40 SHL SUB DUP4 GT DUP5 DUP5 LT OR PUSH2 0xCB JUMPI DUP1 DUP5 SWAP3 PUSH1 0x20 SWAP5 PUSH1 0x40 MSTORE DUP4 CODECOPY DUP2 ADD SUB SLT PUSH2 0xC6 JUMPI MLOAD PUSH1 0x1 PUSH1 0x1 PUSH1 0xA0 SHL SUB SWAP1 DUP2 DUP2 AND SWAP1 DUP2 SWAP1 SUB PUSH2 0xC6 JUMPI CALLER ISZERO PUSH2 0xAD JUMPI PUSH1 0x0 SLOAD PUSH1 0x1 DUP1 PUSH1 0xA0 SHL SUB NOT SWAP1 CALLER DUP3 DUP3 AND OR PUSH1 0x0 SSTORE PUSH1 0x40 MLOAD SWAP4 CALLER SWAP2 AND PUSH32 0x8BE0079C531659141344CD1FD0A4F28419497F9722A3DAAFE3B4186F6B6457E0 PUSH1 0x0 DUP1 LOG3 PUSH1 0x1 SLOAD AND OR PUSH1 0x1 SSTORE PUSH2 0xD79 SWAP1 DUP2 PUSH2 0xE2 DUP3 CODECOPY RETURN JUMPDEST PUSH1 0x40 MLOAD PUSH4 0x1E4FBDF7 PUSH1 0xE0 SHL DUP2 MSTORE PUSH1 0x0 PUSH1 0x4 DUP3 ADD MSTORE PUSH1 0x24 SWAP1 REVERT JUMPDEST PUSH1 0x0 DUP1 REVERT JUMPDEST PUSH4 0x4E487B71 PUSH1 0xE0 SHL PUSH1 0x0 MSTORE PUSH1 0x41 PUSH1 0x4 MSTORE PUSH1 0x24 PUSH1 0x0 REVERT INVALID PUSH1 0x80 PUSH1 0x40 MSTORE PUSH1 0x4 CALLDATASIZE LT ISZERO PUSH2 0x12 JUMPI PUSH1 0x0 DUP1 REVERT JUMPDEST PUSH1 0x0 CALLDATALOAD PUSH1 0xE0 SHR DUP1 PUSH4 0x13CF08B EQ PUSH2 0xA81 JUMPI DUP1 PUSH4 0x5268CFF EQ PUSH2 0xA58 JUMPI DUP1 PUSH4 0xAEBEB4E EQ PUSH2 0x9C4 JUMPI DUP1 PUSH4 0x43859632 EQ PUSH2 0x972 JUMPI DUP1 PUSH4 0x583CF379 EQ PUSH2 0x40D JUMPI DUP1 PUSH4 0x61B8CE8C EQ PUSH2 0x3EF JUMPI DUP1 PUSH4 0x715018A6 EQ PUSH2 0x396 JUMPI DUP1 PUSH4 0x8DA5CB5B EQ PUSH2 0x36D JUMPI DUP1 PUSH4 0xC9D27AFE EQ PUSH2 0x196 JUMPI DUP1 PUSH4 0xEB07A5C6 EQ PUSH2 0x12A JUMPI PUSH4 0xF2FDE38B EQ PUSH2 0x95 JUMPI PUSH1 0x0 DUP1 REVERT JUMPDEST CALLVALUE PUSH2 0x125 JUMPI PUSH1 0x20 CALLDATASIZE PUSH1 0x3 NOT ADD SLT PUSH2 0x125 JUMPI PUSH1 0x4 CALLDATALOAD PUSH1 0x1 PUSH1 0x1 PUSH1 0xA0 SHL SUB DUP2 DUP2 AND SWAP2 DUP3 SWAP1 SUB PUSH2 0x125 JUMPI PUSH2 0xC4 PUSH2 0xD17 JUMP JUMPDEST DUP2 ISZERO PUSH2 0x10C JUMPI PUSH1 0x0 SLOAD DUP3 PUSH12 0xFFFFFFFFFFFFFFFFFFFFFFFF PUSH1 0xA0 SHL DUP3 AND OR PUSH1 0x0 SSTORE AND PUSH32 0x8BE0079C531659141344CD1FD0A4F28419497F9722A3DAAFE3B4186F6B6457E0 PUSH1 0x0 DUP1 LOG3 STOP JUMPDEST PUSH1 0x40 MLOAD PUSH4 0x1E4FBDF7 PUSH1 0xE0 SHL DUP2 MSTORE PUSH1 0x0 PUSH1 0x4 DUP3 ADD MSTORE PUSH1 0x24 SWAP1 REVERT JUMPDEST PUSH1 0x0 DUP1 REVERT JUMPDEST CALLVALUE PUSH2 0x125 JUMPI PUSH1 0x20 PUSH32 0xAF25038E48AF5F441876EF4CC93CE6FE35D6E17DA08B794873F222D5AA059899 PUSH2 0x15B CALLDATASIZE PUSH2 0xCEB JUMP JUMPDEST PUSH2 0x166 SWAP4 SWAP2 SWAP4 PUSH2 0xD17 JUMP JUMPDEST DUP4 PUSH1 0x0 MSTORE PUSH1 0x3 DUP3 MSTORE PUSH2 0x18B DUP2 PUSH1 0x7 PUSH1 0x40 PUSH1 0x0 KECCAK256 ADD SWAP1 PUSH1 0xFF DUP1 NOT DUP4 SLOAD AND SWAP2 ISZERO ISZERO AND OR SWAP1 SSTORE JUMP JUMPDEST PUSH1 0x40 MLOAD SWAP1 ISZERO ISZERO DUP2 MSTORE LOG2 STOP JUMPDEST CALLVALUE PUSH2 0x125 JUMPI PUSH2 0x1A4 CALLDATASIZE PUSH2 0xCEB JUMP JUMPDEST SWAP1 DUP1 PUSH1 0x0 MSTORE PUSH1 0x20 PUSH1 0x3 DUP2 MSTORE PUSH1 0x40 PUSH1 0x0 KECCAK256 PUSH1 0xFF PUSH1 0x7 DUP3 ADD SLOAD AND ISZERO PUSH2 0x33F JUMPI DUP3 PUSH1 0x0 MSTORE PUSH1 0x4 DUP3 MSTORE PUSH1 0x40 PUSH1 0x0 KECCAK256 CALLER PUSH1 0x0 MSTORE DUP3 MSTORE PUSH1 0xFF PUSH1 0x40 PUSH1 0x0 KECCAK256 SLOAD AND PUSH2 0x312 JUMPI PUSH1 0x1 SLOAD PUSH1 0x40 MLOAD PUSH4 0x70A08231 PUSH1 0xE0 SHL DUP2 MSTORE CALLER PUSH1 0x4 DUP3 ADD MSTORE SWAP3 SWAP2 SWAP1 DUP3 SWAP1 DUP5 SWAP1 PUSH1 0x24 SWAP1 DUP3 SWAP1 PUSH1 0x1 PUSH1 0x1 PUSH1 0xA0 SHL SUB AND GAS STATICCALL SWAP3 DUP4 ISZERO PUSH2 0x306 JUMPI PUSH1 0x0 SWAP4 PUSH2 0x2D7 JUMPI JUMPDEST POP DUP3 ISZERO PUSH2 0x2A6 JUMPI DUP5 ISZERO PUSH2 0x291 JUMPI PUSH1 0x5 ADD PUSH2 0x238 DUP4 DUP3 SLOAD PUSH2 0xD0A JUMP JUMPDEST SWAP1 SSTORE JUMPDEST DUP3 PUSH1 0x0 MSTORE PUSH1 0x4 DUP2 MSTORE PUSH1 0x40 PUSH1 0x0 KECCAK256 CALLER PUSH1 0x0 MSTORE DUP2 MSTORE PUSH1 0x40 PUSH1 0x0 KECCAK256 PUSH1 0x1 PUSH1 0xFF NOT DUP3 SLOAD AND OR SWAP1 SSTORE PUSH1 0x40 MLOAD SWAP4 ISZERO ISZERO DUP5 MSTORE DUP4 ADD MSTORE PUSH32 0x7C2DE587C00D75474A0C6C6FA96FD3B45DC974CD4E8A75F712BB84C950DCE1B5 PUSH1 0x40 CALLER SWAP4 LOG3 STOP JUMPDEST PUSH1 0x6 ADD PUSH2 0x29F DUP4 DUP3 SLOAD PUSH2 0xD0A JUMP JUMPDEST SWAP1 SSTORE PUSH2 0x23B JUMP JUMPDEST PUSH1 0x40 MLOAD PUSH3 0x461BCD PUSH1 0xE5 SHL DUP2 MSTORE PUSH1 0x4 DUP2 ADD DUP4 SWAP1 MSTORE PUSH1 0x9 PUSH1 0x24 DUP3 ADD MSTORE PUSH9 0x1B9BC81DD95A59DA1D PUSH1 0xBA SHL PUSH1 0x44 DUP3 ADD MSTORE PUSH1 0x64 SWAP1 REVERT JUMPDEST SWAP1 SWAP3 POP DUP2 DUP2 DUP2 RETURNDATASIZE DUP4 GT PUSH2 0x2FF JUMPI JUMPDEST PUSH2 0x2EF DUP2 DUP4 PUSH2 0xB8D JUMP JUMPDEST DUP2 ADD SUB SLT PUSH2 0x125 JUMPI MLOAD SWAP2 DUP6 PUSH2 0x21D JUMP JUMPDEST POP RETURNDATASIZE PUSH2 0x2E5 JUMP JUMPDEST PUSH1 0x40 MLOAD RETURNDATASIZE PUSH1 0x0 DUP3 RETURNDATACOPY RETURNDATASIZE SWAP1 REVERT JUMPDEST PUSH1 0x40 MLOAD PUSH3 0x461BCD PUSH1 0xE5 SHL DUP2 MSTORE PUSH1 0x4 DUP2 ADD DUP4 SWAP1 MSTORE PUSH1 0x5 PUSH1 0x24 DUP3 ADD MSTORE PUSH5 0x1D9BDD1959 PUSH1 0xDA SHL PUSH1 0x44 DUP3 ADD MSTORE PUSH1 0x64 SWAP1 REVERT JUMPDEST PUSH1 0x40 MLOAD PUSH3 0x461BCD PUSH1 0xE5 SHL DUP2 MSTORE PUSH1 0x4 DUP2 ADD DUP4 SWAP1 MSTORE PUSH1 0x6 PUSH1 0x24 DUP3 ADD MSTORE PUSH6 0x18DB1BDCD959 PUSH1 0xD2 SHL PUSH1 0x44 DUP3 ADD MSTORE PUSH1 0x64 SWAP1 REVERT JUMPDEST CALLVALUE PUSH2 0x125 JUMPI PUSH1 0x0 CALLDATASIZE PUSH1 0x3 NOT ADD SLT PUSH2 0x125 JUMPI PUSH1 0x0 SLOAD PUSH1 0x40 MLOAD PUSH1 0x1 PUSH1 0x1 PUSH1 0xA0 SHL SUB SWAP1 SWAP2 AND DUP2 MSTORE PUSH1 0x20 SWAP1 RETURN JUMPDEST CALLVALUE PUSH2 0x125 JUMPI PUSH1 0x0 CALLDATASIZE PUSH1 0x3 NOT ADD SLT PUSH2 0x125 JUMPI PUSH2 0x3AF PUSH2 0xD17 JUMP JUMPDEST PUSH1 0x0 DUP1 SLOAD PUSH1 0x1 PUSH1 0x1 PUSH1 0xA0 SHL SUB NOT DUP2 AND DUP3 SSTORE PUSH1 0x1 PUSH1 0x1 PUSH1 0xA0 SHL SUB AND PUSH32 0x8BE0079C531659141344CD1FD0A4F28419497F9722A3DAAFE3B4186F6B6457E0 DUP3 DUP1 LOG3 STOP JUMPDEST CALLVALUE PUSH2 0x125 JUMPI PUSH1 0x0 CALLDATASIZE PUSH1 0x3 NOT ADD SLT PUSH2 0x125 JUMPI PUSH1 0x20 PUSH1 0x2 SLOAD PUSH1 0x40 MLOAD SWAP1 DUP2 MSTORE RETURN JUMPDEST CALLVALUE PUSH2 0x125 JUMPI PUSH1 0x60 CALLDATASIZE PUSH1 0x3 NOT ADD SLT PUSH2 0x125 JUMPI PUSH1 0x4 CALLDATALOAD PUSH8 0xFFFFFFFFFFFFFFFF DUP2 GT PUSH2 0x125 JUMPI PUSH2 0x43E SWAP1 CALLDATASIZE SWAP1 PUSH1 0x4 ADD PUSH2 0xC94 JUMP JUMPDEST PUSH1 0x24 CALLDATALOAD PUSH8 0xFFFFFFFFFFFFFFFF DUP2 GT PUSH2 0x125 JUMPI PUSH2 0x45E SWAP1 CALLDATASIZE SWAP1 PUSH1 0x4 ADD PUSH2 0xC94 JUMP JUMPDEST SWAP1 PUSH1 0x44 CALLDATALOAD PUSH8 0xFFFFFFFFFFFFFFFF DUP2 GT PUSH2 0x125 JUMPI PUSH2 0x47F SWAP1 CALLDATASIZE SWAP1 PUSH1 0x4 ADD PUSH2 0xC94 JUMP JUMPDEST PUSH1 0x2 SLOAD SWAP2 SWAP1 PUSH1 0x0 NOT DUP4 EQ PUSH2 0x95C JUMPI PUSH1 0x1 DUP4 ADD PUSH1 0x2 SSTORE PUSH1 0x40 MLOAD SWAP4 PUSH2 0x120 DUP6 ADD DUP6 DUP2 LT PUSH8 0xFFFFFFFFFFFFFFFF DUP3 GT OR PUSH2 0x7A6 JUMPI PUSH1 0x40 MSTORE PUSH1 0x1 DUP5 ADD DUP6 MSTORE PUSH1 0x20 DUP6 ADD SWAP1 CALLER DUP3 MSTORE PUSH1 0x40 DUP7 ADD SWAP1 DUP5 DUP3 MSTORE PUSH1 0x60 DUP8 ADD MSTORE DUP3 PUSH1 0x80 DUP8 ADD MSTORE PUSH1 0x0 PUSH1 0xA0 DUP8 ADD MSTORE PUSH1 0x0 PUSH1 0xC0 DUP8 ADD MSTORE PUSH1 0x1 PUSH1 0xE0 DUP8 ADD MSTORE TIMESTAMP PUSH2 0x100 DUP8 ADD MSTORE PUSH1 0x1 DUP6 ADD PUSH1 0x0 MSTORE PUSH1 0x3 PUSH1 0x20 MSTORE PUSH1 0x40 PUSH1 0x0 KECCAK256 SWAP2 DUP7 MLOAD DUP4 SSTORE PUSH1 0x1 DUP4 ADD SWAP1 PUSH1 0x1 DUP1 PUSH1 0xA0 SHL SUB SWAP1 MLOAD AND PUSH12 0xFFFFFFFFFFFFFFFFFFFFFFFF PUSH1 0xA0 SHL DUP3 SLOAD AND OR SWAP1 SSTORE MLOAD DUP1 MLOAD SWAP1 PUSH8 0xFFFFFFFFFFFFFFFF DUP3 GT PUSH2 0x7A6 JUMPI DUP2 SWAP1 PUSH2 0x54D PUSH1 0x2 DUP6 ADD SLOAD PUSH2 0xB53 JUMP JUMPDEST PUSH1 0x1F DUP2 GT PUSH2 0x909 JUMPI JUMPDEST POP PUSH1 0x20 SWAP1 PUSH1 0x1F DUP4 GT PUSH1 0x1 EQ PUSH2 0x897 JUMPI PUSH1 0x0 SWAP3 PUSH2 0x88C JUMPI JUMPDEST POP POP DUP2 PUSH1 0x1 SHL SWAP2 PUSH1 0x0 NOT SWAP1 PUSH1 0x3 SHL SHR NOT AND OR PUSH1 0x2 DUP3 ADD SSTORE JUMPDEST PUSH1 0x60 DUP6 ADD MLOAD DUP1 MLOAD SWAP1 PUSH8 0xFFFFFFFFFFFFFFFF DUP3 GT PUSH2 0x7A6 JUMPI DUP2 SWAP1 PUSH2 0x5AB PUSH1 0x3 DUP6 ADD SLOAD PUSH2 0xB53 JUMP JUMPDEST PUSH1 0x1F DUP2 GT PUSH2 0x839 JUMPI JUMPDEST POP PUSH1 0x20 SWAP1 PUSH1 0x1F DUP4 GT PUSH1 0x1 EQ PUSH2 0x7C7 JUMPI PUSH1 0x0 SWAP3 PUSH2 0x7BC JUMPI JUMPDEST POP POP DUP2 PUSH1 0x1 SHL SWAP2 PUSH1 0x0 NOT SWAP1 PUSH1 0x3 SHL SHR NOT AND OR PUSH1 0x3 DUP3 ADD SSTORE JUMPDEST PUSH1 0x80 DUP6 ADD MLOAD SWAP5 DUP6 MLOAD PUSH8 0xFFFFFFFFFFFFFFFF DUP2 GT PUSH2 0x7A6 JUMPI PUSH2 0x607 PUSH1 0x4 DUP5 ADD SLOAD PUSH2 0xB53 JUMP JUMPDEST SWAP7 PUSH1 0x1F DUP9 GT PUSH2 0x75F JUMPI JUMPDEST PUSH1 0x20 SWAP8 POP DUP8 SWAP1 PUSH1 0x1F DUP4 GT PUSH1 0x1 EQ PUSH2 0x6EB JUMPI SWAP2 DUP1 PUSH1 0x8 SWAP5 SWAP3 PUSH2 0x100 SWAP5 PUSH1 0x0 SWAP3 PUSH2 0x6E0 JUMPI JUMPDEST POP POP DUP2 PUSH1 0x1 SHL SWAP2 PUSH1 0x0 NOT SWAP1 PUSH1 0x3 SHL SHR NOT AND OR PUSH1 0x4 DUP6 ADD SSTORE JUMPDEST PUSH1 0xA0 DUP2 ADD MLOAD PUSH1 0x5 DUP6 ADD SSTORE PUSH1 0xC0 DUP2 ADD MLOAD PUSH1 0x6 DUP6 ADD SSTORE PUSH2 0x67F PUSH1 0xE0 DUP3 ADD MLOAD ISZERO ISZERO PUSH1 0x7 DUP7 ADD SWAP1 PUSH1 0xFF DUP1 NOT DUP4 SLOAD AND SWAP2 ISZERO ISZERO AND OR SWAP1 SSTORE JUMP JUMPDEST ADD MLOAD SWAP2 ADD SSTORE PUSH32 0xE1A39BB955C12C02B24074E4D2E09A80ED84A64CE9B4454B47456E8A26F96E75 PUSH2 0x6BA PUSH1 0x40 MLOAD SWAP4 PUSH1 0x40 DUP6 MSTORE PUSH1 0x40 DUP6 ADD SWAP1 PUSH2 0xC54 JUMP JUMPDEST SWAP3 DUP1 DUP5 SUB DUP7 DUP3 ADD MSTORE DUP1 PUSH2 0x6D2 CALLER SWAP6 PUSH1 0x1 DUP9 ADD SWAP6 PUSH2 0xC54 JUMP JUMPDEST SUB SWAP1 LOG3 PUSH1 0x1 PUSH1 0x40 MLOAD SWAP2 ADD DUP2 MSTORE RETURN JUMPDEST ADD MLOAD SWAP1 POP DUP11 DUP1 PUSH2 0x634 JUMP JUMPDEST SWAP1 PUSH1 0x4 DUP6 ADD PUSH1 0x0 MSTORE DUP9 PUSH1 0x0 KECCAK256 SWAP2 PUSH1 0x0 JUMPDEST PUSH1 0x1F NOT DUP6 AND DUP2 LT PUSH2 0x748 JUMPI POP SWAP3 PUSH1 0x8 SWAP5 SWAP3 PUSH1 0x1 SWAP3 PUSH2 0x100 SWAP6 DUP4 PUSH1 0x1F NOT DUP2 AND LT PUSH2 0x72F JUMPI JUMPDEST POP POP POP DUP2 SHL ADD PUSH1 0x4 DUP6 ADD SSTORE PUSH2 0x64C JUMP JUMPDEST ADD MLOAD PUSH1 0x0 NOT PUSH1 0xF8 DUP5 PUSH1 0x3 SHL AND SHR NOT AND SWAP1 SSTORE DUP11 DUP1 DUP1 PUSH2 0x71F JUMP JUMPDEST SWAP2 SWAP3 DUP11 PUSH1 0x1 DUP2 SWAP3 DUP7 DUP6 ADD MLOAD DUP2 SSTORE ADD SWAP5 ADD SWAP3 ADD PUSH2 0x6FB JUMP JUMPDEST PUSH1 0x4 DUP5 ADD PUSH1 0x0 MSTORE PUSH1 0x20 PUSH1 0x0 KECCAK256 PUSH1 0x1F DUP4 ADD PUSH1 0x5 SHR DUP2 ADD PUSH1 0x20 DUP5 LT PUSH2 0x79F JUMPI JUMPDEST PUSH1 0x1F DUP11 ADD PUSH1 0x5 SHR DUP3 ADD DUP2 LT PUSH2 0x793 JUMPI POP POP PUSH2 0x611 JUMP JUMPDEST PUSH1 0x0 DUP2 SSTORE PUSH1 0x1 ADD PUSH2 0x77D JUMP JUMPDEST POP DUP1 PUSH2 0x77D JUMP JUMPDEST PUSH4 0x4E487B71 PUSH1 0xE0 SHL PUSH1 0x0 MSTORE PUSH1 0x41 PUSH1 0x4 MSTORE PUSH1 0x24 PUSH1 0x0 REVERT JUMPDEST ADD MLOAD SWAP1 POP DUP8 DUP1 PUSH2 0x5CB JUMP JUMPDEST SWAP3 POP PUSH1 0x3 DUP5 ADD PUSH1 0x0 MSTORE PUSH1 0x20 PUSH1 0x0 KECCAK256 SWAP1 PUSH1 0x0 SWAP4 JUMPDEST PUSH1 0x1F NOT DUP5 AND DUP6 LT PUSH2 0x81E JUMPI PUSH1 0x1 SWAP5 POP DUP4 PUSH1 0x1F NOT DUP2 AND LT PUSH2 0x805 JUMPI JUMPDEST POP POP POP DUP2 SHL ADD PUSH1 0x3 DUP3 ADD SSTORE PUSH2 0x5E3 JUMP JUMPDEST ADD MLOAD PUSH1 0x0 NOT PUSH1 0xF8 DUP5 PUSH1 0x3 SHL AND SHR NOT AND SWAP1 SSTORE DUP8 DUP1 DUP1 PUSH2 0x7F5 JUMP JUMPDEST DUP2 DUP2 ADD MLOAD DUP4 SSTORE PUSH1 0x20 SWAP5 DUP6 ADD SWAP5 PUSH1 0x1 SWAP1 SWAP4 ADD SWAP3 SWAP1 SWAP2 ADD SWAP1 PUSH2 0x7DA JUMP JUMPDEST SWAP1 SWAP2 POP PUSH1 0x3 DUP5 ADD PUSH1 0x0 MSTORE PUSH1 0x20 PUSH1 0x0 KECCAK256 PUSH1 0x1F DUP5 ADD PUSH1 0x5 SHR DUP2 ADD PUSH1 0x20 DUP6 LT PUSH2 0x885 JUMPI JUMPDEST SWAP1 DUP5 SWAP4 SWAP3 SWAP2 JUMPDEST PUSH1 0x1F DUP4 ADD PUSH1 0x5 SHR DUP3 ADD DUP2 LT PUSH2 0x876 JUMPI POP POP PUSH2 0x5B4 JUMP JUMPDEST PUSH1 0x0 DUP2 SSTORE DUP6 SWAP5 POP PUSH1 0x1 ADD PUSH2 0x860 JUMP JUMPDEST POP DUP1 PUSH2 0x85A JUMP JUMPDEST ADD MLOAD SWAP1 POP DUP8 DUP1 PUSH2 0x56D JUMP JUMPDEST SWAP3 POP PUSH1 0x2 DUP5 ADD PUSH1 0x0 MSTORE PUSH1 0x20 PUSH1 0x0 KECCAK256 SWAP1 PUSH1 0x0 SWAP4 JUMPDEST PUSH1 0x1F NOT DUP5 AND DUP6 LT PUSH2 0x8EE JUMPI PUSH1 0x1 SWAP5 POP DUP4 PUSH1 0x1F NOT DUP2 AND LT PUSH2 0x8D5 JUMPI JUMPDEST POP POP POP DUP2 SHL ADD PUSH1 0x2 DUP3 ADD SSTORE PUSH2 0x585 JUMP JUMPDEST ADD MLOAD PUSH1 0x0 NOT PUSH1 0xF8 DUP5 PUSH1 0x3 SHL AND SHR NOT AND SWAP1 SSTORE DUP8 DUP1 DUP1 PUSH2 0x8C5 JUMP JUMPDEST DUP2 DUP2 ADD MLOAD DUP4 SSTORE PUSH1 0x20 SWAP5 DUP6 ADD SWAP5 PUSH1 0x1 SWAP1 SWAP4 ADD SWAP3 SWAP1 SWAP2 ADD SWAP1 PUSH2 0x8AA JUMP JUMPDEST SWAP1 SWAP2 POP PUSH1 0x2 DUP5 ADD PUSH1 0x0 MSTORE PUSH1 0x20 PUSH1 0x0 KECCAK256 PUSH1 0x1F DUP5 ADD PUSH1 0x5 SHR DUP2 ADD PUSH1 0x20 DUP6 LT PUSH2 0x955 JUMPI JUMPDEST SWAP1 DUP5 SWAP4 SWAP3 SWAP2 JUMPDEST PUSH1 0x1F DUP4 ADD PUSH1 0x5 SHR DUP3 ADD DUP2 LT PUSH2 0x946 JUMPI POP POP PUSH2 0x556 JUMP JUMPDEST PUSH1 0x0 DUP2 SSTORE DUP6 SWAP5 POP PUSH1 0x1 ADD PUSH2 0x930 JUMP JUMPDEST POP DUP1 PUSH2 0x92A JUMP JUMPDEST PUSH4 0x4E487B71 PUSH1 0xE0 SHL PUSH1 0x0 MSTORE PUSH1 0x11 PUSH1 0x4 MSTORE PUSH1 0x24 PUSH1 0x0 REVERT JUMPDEST CALLVALUE PUSH2 0x125 JUMPI PUSH1 0x40 CALLDATASIZE PUSH1 0x3 NOT ADD SLT PUSH2 0x125 JUMPI PUSH1 0x24 CALLDATALOAD PUSH1 0x1 PUSH1 0x1 PUSH1 0xA0 SHL SUB DUP2 AND SWAP1 DUP2 SWAP1 SUB PUSH2 0x125 JUMPI PUSH1 0x4 CALLDATALOAD PUSH1 0x0 MSTORE PUSH1 0x4 PUSH1 0x20 MSTORE PUSH1 0x40 PUSH1 0x0 KECCAK256 SWAP1 PUSH1 0x0 MSTORE PUSH1 0x20 MSTORE PUSH1 0x20 PUSH1 0xFF PUSH1 0x40 PUSH1 0x0 KECCAK256 SLOAD AND PUSH1 0x40 MLOAD SWAP1 ISZERO ISZERO DUP2 MSTORE RETURN JUMPDEST CALLVALUE PUSH2 0x125 JUMPI PUSH1 0x20 CALLDATASIZE PUSH1 0x3 NOT ADD SLT PUSH2 0x125 JUMPI PUSH1 0x4 CALLDATALOAD PUSH2 0x9E0 PUSH2 0xD17 JUMP JUMPDEST DUP1 PUSH1 0x0 MSTORE PUSH1 0x3 PUSH1 0x20 MSTORE PUSH1 0x7 PUSH1 0x40 PUSH1 0x0 KECCAK256 ADD DUP1 SLOAD PUSH1 0xFF DUP2 AND ISZERO PUSH2 0xA29 JUMPI PUSH1 0xFF NOT AND SWAP1 SSTORE PUSH32 0x6CC09E7B5C3E49861EBE8F6867E1618FBFC14C8D0E968FDE37C4243CA02A6F83 PUSH1 0x0 DUP1 LOG2 STOP JUMPDEST PUSH1 0x40 MLOAD PUSH3 0x461BCD PUSH1 0xE5 SHL DUP2 MSTORE PUSH1 0x20 PUSH1 0x4 DUP3 ADD MSTORE PUSH1 0x7 PUSH1 0x24 DUP3 ADD MSTORE PUSH7 0x616C7265616479 PUSH1 0xC8 SHL PUSH1 0x44 DUP3 ADD MSTORE PUSH1 0x64 SWAP1 REVERT JUMPDEST CALLVALUE PUSH2 0x125 JUMPI PUSH1 0x0 CALLDATASIZE PUSH1 0x3 NOT ADD SLT PUSH2 0x125 JUMPI PUSH1 0x1 SLOAD PUSH1 0x40 MLOAD PUSH1 0x1 PUSH1 0x1 PUSH1 0xA0 SHL SUB SWAP1 SWAP2 AND DUP2 MSTORE PUSH1 0x20 SWAP1 RETURN JUMPDEST CALLVALUE PUSH2 0x125 JUMPI PUSH1 0x20 CALLDATASIZE PUSH1 0x3 NOT ADD SLT PUSH2 0x125 JUMPI PUSH1 0x4 CALLDATALOAD PUSH1 0x0 MSTORE PUSH1 0x3 PUSH1 0x20 MSTORE PUSH1 0x40 PUSH1 0x0 KECCAK256 DUP1 SLOAD SWAP1 PUSH1 0x1 DUP1 PUSH1 0xA0 SHL SUB PUSH1 0x1 DUP3 ADD SLOAD AND SWAP1 PUSH2 0xABF PUSH1 0x2 DUP3 ADD PUSH2 0xBAF JUMP JUMPDEST PUSH2 0xACB PUSH1 0x3 DUP4 ADD PUSH2 0xBAF JUMP JUMPDEST SWAP2 PUSH2 0xAD8 PUSH1 0x4 DUP3 ADD PUSH2 0xBAF JUMP JUMPDEST SWAP3 PUSH2 0xB37 PUSH1 0x5 DUP4 ADD SLOAD SWAP5 PUSH2 0xB29 PUSH1 0x6 DUP6 ADD SLOAD SWAP4 PUSH2 0xB1B PUSH1 0x8 PUSH1 0xFF PUSH1 0x7 DUP10 ADD SLOAD AND SWAP8 ADD SLOAD SWAP8 PUSH1 0x40 MLOAD SWAP12 DUP13 SWAP12 PUSH2 0x120 SWAP2 DUP14 MSTORE PUSH1 0x20 DUP14 ADD MSTORE DUP1 PUSH1 0x40 DUP14 ADD MSTORE DUP12 ADD SWAP1 PUSH2 0xC54 JUMP JUMPDEST SWAP1 DUP10 DUP3 SUB PUSH1 0x60 DUP12 ADD MSTORE PUSH2 0xC54 JUMP JUMPDEST SWAP1 DUP8 DUP3 SUB PUSH1 0x80 DUP10 ADD MSTORE PUSH2 0xC54 JUMP JUMPDEST SWAP4 PUSH1 0xA0 DUP7 ADD MSTORE PUSH1 0xC0 DUP6 ADD MSTORE ISZERO ISZERO PUSH1 0xE0 DUP5 ADD MSTORE PUSH2 0x100 DUP4 ADD MSTORE SUB SWAP1 RETURN JUMPDEST SWAP1 PUSH1 0x1 DUP3 DUP2 SHR SWAP3 AND DUP1 ISZERO PUSH2 0xB83 JUMPI JUMPDEST PUSH1 0x20 DUP4 LT EQ PUSH2 0xB6D JUMPI JUMP JUMPDEST PUSH4 0x4E487B71 PUSH1 0xE0 SHL PUSH1 0x0 MSTORE PUSH1 0x22 PUSH1 0x4 MSTORE PUSH1 0x24 PUSH1 0x0 REVERT JUMPDEST SWAP2 PUSH1 0x7F AND SWAP2 PUSH2 0xB62 JUMP JUMPDEST SWAP1 PUSH1 0x1F DUP1 NOT SWAP2 ADD AND DUP2 ADD SWAP1 DUP2 LT PUSH8 0xFFFFFFFFFFFFFFFF DUP3 GT OR PUSH2 0x7A6 JUMPI PUSH1 0x40 MSTORE JUMP JUMPDEST SWAP1 PUSH1 0x40 MLOAD SWAP2 DUP3 PUSH1 0x0 DUP3 SLOAD PUSH2 0xBC2 DUP2 PUSH2 0xB53 JUMP JUMPDEST SWAP1 DUP2 DUP5 MSTORE PUSH1 0x20 SWAP5 PUSH1 0x1 SWAP2 PUSH1 0x1 DUP2 AND SWAP1 DUP2 PUSH1 0x0 EQ PUSH2 0xC32 JUMPI POP PUSH1 0x1 EQ PUSH2 0xBF3 JUMPI JUMPDEST POP POP POP PUSH2 0xBF1 SWAP3 POP SUB DUP4 PUSH2 0xB8D JUMP JUMPDEST JUMP JUMPDEST PUSH1 0x0 SWAP1 DUP2 MSTORE DUP6 DUP2 KECCAK256 SWAP6 SWAP4 POP SWAP2 SWAP1 JUMPDEST DUP2 DUP4 LT PUSH2 0xC1A JUMPI POP POP PUSH2 0xBF1 SWAP4 POP DUP3 ADD ADD CODESIZE DUP1 DUP1 PUSH2 0xBE2 JUMP JUMPDEST DUP6 SLOAD DUP9 DUP5 ADD DUP6 ADD MSTORE SWAP5 DUP6 ADD SWAP5 DUP8 SWAP5 POP SWAP2 DUP4 ADD SWAP2 PUSH2 0xC01 JUMP JUMPDEST SWAP3 POP POP POP PUSH2 0xBF1 SWAP5 SWAP3 POP PUSH1 0xFF NOT AND DUP3 DUP5 ADD MSTORE ISZERO ISZERO PUSH1 0x5 SHL DUP3 ADD ADD CODESIZE DUP1 DUP1 PUSH2 0xBE2 JUMP JUMPDEST SWAP2 SWAP1 DUP3 MLOAD SWAP3 DUP4 DUP3 MSTORE PUSH1 0x0 JUMPDEST DUP5 DUP2 LT PUSH2 0xC80 JUMPI POP POP DUP3 PUSH1 0x0 PUSH1 0x20 DUP1 SWAP5 SWAP6 DUP5 ADD ADD MSTORE PUSH1 0x1F DUP1 NOT SWAP2 ADD AND ADD ADD SWAP1 JUMP JUMPDEST PUSH1 0x20 DUP2 DUP4 ADD DUP2 ADD MLOAD DUP5 DUP4 ADD DUP3 ADD MSTORE ADD PUSH2 0xC5F JUMP JUMPDEST DUP2 PUSH1 0x1F DUP3 ADD SLT ISZERO PUSH2 0x125 JUMPI DUP1 CALLDATALOAD SWAP1 PUSH8 0xFFFFFFFFFFFFFFFF DUP3 GT PUSH2 0x7A6 JUMPI PUSH1 0x40 MLOAD SWAP3 PUSH2 0xCC9 PUSH1 0x1F DUP5 ADD PUSH1 0x1F NOT AND PUSH1 0x20 ADD DUP6 PUSH2 0xB8D JUMP JUMPDEST DUP3 DUP5 MSTORE PUSH1 0x20 DUP4 DUP4 ADD ADD GT PUSH2 0x125 JUMPI DUP2 PUSH1 0x0 SWAP3 PUSH1 0x20 DUP1 SWAP4 ADD DUP4 DUP7 ADD CALLDATACOPY DUP4 ADD ADD MSTORE SWAP1 JUMP JUMPDEST PUSH1 0x40 SWAP1 PUSH1 0x3 NOT ADD SLT PUSH2 0x125 JUMPI PUSH1 0x4 CALLDATALOAD SWAP1 PUSH1 0x24 CALLDATALOAD DUP1 ISZERO ISZERO DUP2 SUB PUSH2 0x125 JUMPI SWAP1 JUMP JUMPDEST SWAP2 SWAP1 DUP3 ADD DUP1 SWAP3 GT PUSH2 0x95C JUMPI JUMP JUMPDEST PUSH1 0x0 SLOAD PUSH1 0x1 PUSH1 0x1 PUSH1 0xA0 SHL SUB AND CALLER SUB PUSH2 0xD2B JUMPI JUMP JUMPDEST PUSH1 0x40 MLOAD PUSH4 0x118CDAA7 PUSH1 0xE0 SHL DUP2 MSTORE CALLER PUSH1 0x4 DUP3 ADD MSTORE PUSH1 0x24 SWAP1 REVERT INVALID LOG2 PUSH5 0x6970667358 0x22 SLT KECCAK256 LOG1 PUSH3 0x722B40 SIGNEXTEND 0x21 SWAP7 0xE1 0x25 0xC6 PUSH15 0x201E51AE72B1886BD8B6825307CD40 0xC8 0x4D SWAP5 PUSH0 EXTCODECOPY PUSH5 0x736F6C6343 STOP ADDMOD XOR STOP CALLER "},"methodIdentifiers":{"close(uint256)":"0aebeb4e","createProposal(string,string,string)":"583cf379","govToken()":"05268cff","hasVoted(uint256,address)":"43859632","moderate(uint256,bool)":"eb07a5c6","nextId()":"61b8ce8c","owner()":"8da5cb5b","proposals(uint256)":"013cf08b","renounceOwnership()":"715018a6","transferOwnership(address)":"f2fde38b","vote(uint256,bool)":"c9d27afe"}}}}}