{"contracts/PatriotPledgeNFT.sol":{"PatriotPledgeNFT":{"abi":[{"inputs":[{"internalType":"address","name":"_nonprofit","type":"address"},{"internalType":"uint96","name":"_feeBps","type":"uint96"}],"stateMutability":"nonpayable","type":"constructor"},{"inputs":[],"name":"ERC721EnumerableForbiddenBatchMint","type":"error"},{"inputs":[{"internalType":"address","name":"sender","type":"address"},{"internalType":"uint256","name":"tokenId","type":"uint256"},{"internalType":"address","name":"owner","type":"address"}],"name":"ERC721IncorrectOwner","type":"error"},{"inputs":[{"internalType":"address","name":"operator","type":"address"},{"internalType":"uint256","name":"tokenId","type":"uint256"}],"name":"ERC721InsufficientApproval","type":"error"},{"inputs":[{"internalType":"address","name":"approver","type":"address"}],"name":"ERC721InvalidApprover","type":"error"},{"inputs":[{"internalType":"address","name":"operator","type":"address"}],"name":"ERC721InvalidOperator","type":"error"},{"inputs":[{"internalType":"address","name":"owner","type":"address"}],"name":"ERC721InvalidOwner","type":"error"},{"inputs":[{"internalType":"address","name":"receiver","type":"address"}],"name":"ERC721InvalidReceiver","type":"error"},{"inputs":[{"internalType":"address","name":"sender","type":"address"}],"name":"ERC721InvalidSender","type":"error"},{"inputs":[{"internalType":"uint256","name":"tokenId","type":"uint256"}],"name":"ERC721NonexistentToken","type":"error"},{"inputs":[{"internalType":"address","name":"owner","type":"address"},{"internalType":"uint256","name":"index","type":"uint256"}],"name":"ERC721OutOfBoundsIndex","type":"error"},{"inputs":[{"internalType":"address","name":"owner","type":"address"}],"name":"OwnableInvalidOwner","type":"error"},{"inputs":[{"internalType":"address","name":"account","type":"address"}],"name":"OwnableUnauthorizedAccount","type":"error"},{"inputs":[],"name":"ReentrancyGuardReentrantCall","type":"error"},{"anonymous":false,"inputs":[{"indexed":true,"internalType":"address","name":"owner","type":"address"},{"indexed":true,"internalType":"address","name":"approved","type":"address"},{"indexed":true,"internalType":"uint256","name":"tokenId","type":"uint256"}],"name":"Approval","type":"event"},{"anonymous":false,"inputs":[{"indexed":true,"internalType":"address","name":"owner","type":"address"},{"indexed":true,"internalType":"address","name":"operator","type":"address"},{"indexed":false,"internalType":"bool","name":"approved","type":"bool"}],"name":"ApprovalForAll","type":"event"},{"anonymous":false,"inputs":[{"indexed":false,"internalType":"uint256","name":"_fromTokenId","type":"uint256"},{"indexed":false,"internalType":"uint256","name":"_toTokenId","type":"uint256"}],"name":"BatchMetadataUpdate","type":"event"},{"anonymous":false,"inputs":[{"indexed":true,"internalType":"uint256","name":"campaignId","type":"uint256"},{"indexed":false,"internalType":"uint256","name":"startTokenId","type":"uint256"},{"indexed":false,"internalType":"uint256","name":"size","type":"uint256"},{"indexed":false,"internalType":"uint256","name":"priceWei","type":"uint256"},{"indexed":false,"internalType":"uint256","name":"goalWei","type":"uint256"},{"indexed":true,"internalType":"address","name":"creator","type":"address"},{"indexed":false,"internalType":"string","name":"category","type":"string"}],"name":"CampaignCreated","type":"event"},{"anonymous":false,"inputs":[{"indexed":true,"internalType":"uint256","name":"campaignId","type":"uint256"},{"indexed":false,"internalType":"uint8","name":"progress","type":"uint8"}],"name":"CampaignProgressUpdated","type":"event"},{"anonymous":false,"inputs":[{"indexed":true,"internalType":"uint256","name":"campaignId","type":"uint256"},{"indexed":true,"internalType":"address","name":"to","type":"address"},{"indexed":false,"internalType":"uint256","name":"amountWei","type":"uint256"},{"indexed":false,"internalType":"uint256","name":"feeWei","type":"uint256"},{"indexed":false,"internalType":"uint256","name":"netWei","type":"uint256"},{"indexed":false,"internalType":"uint8","name":"milestone","type":"uint8"}],"name":"FundsReleased","type":"event"},{"anonymous":false,"inputs":[{"indexed":true,"internalType":"uint256","name":"tokenId","type":"uint256"},{"indexed":false,"internalType":"string","name":"uri","type":"string"}],"name":"ImageAdded","type":"event"},{"anonymous":false,"inputs":[{"indexed":false,"internalType":"uint256","name":"_tokenId","type":"uint256"}],"name":"MetadataUpdate","type":"event"},{"anonymous":false,"inputs":[{"indexed":true,"internalType":"uint256","name":"tokenId","type":"uint256"},{"indexed":false,"internalType":"uint8","name":"milestone","type":"uint8"},{"indexed":false,"internalType":"uint256","name":"timestamp","type":"uint256"}],"name":"MilestoneReleased","type":"event"},{"anonymous":false,"inputs":[{"indexed":true,"internalType":"address","name":"creator","type":"address"},{"indexed":true,"internalType":"uint256","name":"tokenId","type":"uint256"},{"indexed":false,"internalType":"string","name":"uri","type":"string"},{"indexed":false,"internalType":"string","name":"category","type":"string"}],"name":"Minted","type":"event"},{"anonymous":false,"inputs":[{"indexed":true,"internalType":"uint256","name":"campaignId","type":"uint256"},{"indexed":true,"internalType":"uint256","name":"tokenId","type":"uint256"},{"indexed":true,"internalType":"address","name":"buyer","type":"address"},{"indexed":false,"internalType":"uint256","name":"priceWei","type":"uint256"}],"name":"NFTPurchased","type":"event"},{"anonymous":false,"inputs":[{"indexed":true,"internalType":"address","name":"previousOwner","type":"address"},{"indexed":true,"internalType":"address","name":"newOwner","type":"address"}],"name":"OwnershipTransferred","type":"event"},{"anonymous":false,"inputs":[{"indexed":true,"internalType":"uint256","name":"tokenId","type":"uint256"},{"indexed":false,"internalType":"uint8","name":"progress","type":"uint8"}],"name":"ProgressUpdated","type":"event"},{"anonymous":false,"inputs":[{"indexed":true,"internalType":"uint256","name":"tokenId","type":"uint256"},{"indexed":true,"internalType":"uint256","name":"campaignId","type":"uint256"}],"name":"TokenLinkedToCampaign","type":"event"},{"anonymous":false,"inputs":[{"indexed":true,"internalType":"address","name":"from","type":"address"},{"indexed":true,"internalType":"address","name":"to","type":"address"},{"indexed":true,"internalType":"uint256","name":"tokenId","type":"uint256"}],"name":"Transfer","type":"event"},{"anonymous":false,"inputs":[{"indexed":true,"internalType":"uint256","name":"tokenId","type":"uint256"},{"indexed":false,"internalType":"string","name":"uri","type":"string"}],"name":"UriUpdated","type":"event"},{"inputs":[{"internalType":"uint256","name":"tokenId","type":"uint256"},{"internalType":"string","name":"uri","type":"string"}],"name":"addImage","outputs":[],"stateMutability":"nonpayable","type":"function"},{"inputs":[{"internalType":"address","name":"to","type":"address"},{"internalType":"uint256","name":"tokenId","type":"uint256"}],"name":"approve","outputs":[],"stateMutability":"nonpayable","type":"function"},{"inputs":[{"internalType":"address","name":"owner","type":"address"}],"name":"balanceOf","outputs":[{"internalType":"uint256","name":"","type":"uint256"}],"stateMutability":"view","type":"function"},{"inputs":[{"internalType":"uint256","name":"campaignId","type":"uint256"}],"name":"buy","outputs":[{"internalType":"uint256","name":"tokenId","type":"uint256"}],"stateMutability":"payable","type":"function"},{"inputs":[{"internalType":"uint256","name":"","type":"uint256"}],"name":"campaignProgress","outputs":[{"internalType":"uint8","name":"","type":"uint8"}],"stateMutability":"view","type":"function"},{"inputs":[{"internalType":"uint256","name":"","type":"uint256"}],"name":"campaigns","outputs":[{"internalType":"uint256","name":"priceWei","type":"uint256"},{"internalType":"uint256","name":"goalWei","type":"uint256"},{"internalType":"uint256","name":"raisedWei","type":"uint256"},{"internalType":"uint256","name":"releasedWei","type":"uint256"},{"internalType":"uint256","name":"startTokenId","type":"uint256"},{"internalType":"uint256","name":"size","type":"uint256"},{"internalType":"uint256","name":"sold","type":"uint256"},{"internalType":"address","name":"creator","type":"address"},{"internalType":"string","name":"baseURI","type":"string"},{"internalType":"string","name":"cat","type":"string"},{"internalType":"bool","name":"active","type":"bool"}],"stateMutability":"view","type":"function"},{"inputs":[{"internalType":"uint256","name":"","type":"uint256"}],"name":"category","outputs":[{"internalType":"string","name":"","type":"string"}],"stateMutability":"view","type":"function"},{"inputs":[],"name":"feeBps","outputs":[{"internalType":"uint96","name":"","type":"uint96"}],"stateMutability":"view","type":"function"},{"inputs":[{"internalType":"uint256","name":"tokenId","type":"uint256"}],"name":"getApproved","outputs":[{"internalType":"address","name":"","type":"address"}],"stateMutability":"view","type":"function"},{"inputs":[{"internalType":"uint256","name":"campaignId","type":"uint256"}],"name":"getCampaignProgress","outputs":[{"internalType":"uint8","name":"","type":"uint8"}],"stateMutability":"view","type":"function"},{"inputs":[{"internalType":"uint256","name":"","type":"uint256"},{"internalType":"uint256","name":"","type":"uint256"}],"name":"images","outputs":[{"internalType":"string","name":"","type":"string"}],"stateMutability":"view","type":"function"},{"inputs":[{"internalType":"address","name":"owner","type":"address"},{"internalType":"address","name":"operator","type":"address"}],"name":"isApprovedForAll","outputs":[{"internalType":"bool","name":"","type":"bool"}],"stateMutability":"view","type":"function"},{"inputs":[{"internalType":"address","name":"to","type":"address"},{"internalType":"string","name":"uri","type":"string"},{"internalType":"string","name":"cat","type":"string"}],"name":"mint","outputs":[{"internalType":"uint256","name":"","type":"uint256"}],"stateMutability":"nonpayable","type":"function"},{"inputs":[{"internalType":"uint256","name":"size","type":"uint256"},{"internalType":"uint256","name":"priceWei","type":"uint256"},{"internalType":"uint256","name":"goalWei","type":"uint256"},{"internalType":"address","name":"creator","type":"address"},{"internalType":"string","name":"baseURI","type":"string"},{"internalType":"string","name":"cat","type":"string"}],"name":"mintSeries","outputs":[{"internalType":"uint256","name":"campaignId","type":"uint256"}],"stateMutability":"nonpayable","type":"function"},{"inputs":[],"name":"name","outputs":[{"internalType":"string","name":"","type":"string"}],"stateMutability":"view","type":"function"},{"inputs":[],"name":"nextCampaignId","outputs":[{"internalType":"uint256","name":"","type":"uint256"}],"stateMutability":"view","type":"function"},{"inputs":[],"name":"nextTokenId","outputs":[{"internalType":"uint256","name":"","type":"uint256"}],"stateMutability":"view","type":"function"},{"inputs":[],"name":"nonprofit","outputs":[{"internalType":"address","name":"","type":"address"}],"stateMutability":"view","type":"function"},{"inputs":[{"internalType":"address","name":"","type":"address"},{"internalType":"address","name":"","type":"address"},{"internalType":"uint256","name":"","type":"uint256"},{"internalType":"bytes","name":"","type":"bytes"}],"name":"onERC721Received","outputs":[{"internalType":"bytes4","name":"","type":"bytes4"}],"stateMutability":"nonpayable","type":"function"},{"inputs":[{"internalType":"address","name":"","type":"address"}],"name":"oracle","outputs":[{"internalType":"bool","name":"","type":"bool"}],"stateMutability":"view","type":"function"},{"inputs":[{"internalType":"uint256","name":"tokenId","type":"uint256"},{"internalType":"uint8","name":"p","type":"uint8"}],"name":"oracleSetProgress","outputs":[],"stateMutability":"nonpayable","type":"function"},{"inputs":[],"name":"owner","outputs":[{"internalType":"address","name":"","type":"address"}],"stateMutability":"view","type":"function"},{"inputs":[{"internalType":"uint256","name":"tokenId","type":"uint256"}],"name":"ownerOf","outputs":[{"internalType":"address","name":"","type":"address"}],"stateMutability":"view","type":"function"},{"inputs":[{"internalType":"uint256","name":"","type":"uint256"}],"name":"progress","outputs":[{"internalType":"uint8","name":"","type":"uint8"}],"stateMutability":"view","type":"function"},{"inputs":[{"internalType":"uint256","name":"campaignId","type":"uint256"},{"internalType":"uint256","name":"amountWei","type":"uint256"},{"internalType":"uint8","name":"milestone","type":"uint8"}],"name":"releaseFunds","outputs":[],"stateMutability":"nonpayable","type":"function"},{"inputs":[],"name":"renounceOwnership","outputs":[],"stateMutability":"nonpayable","type":"function"},{"inputs":[{"internalType":"address","name":"from","type":"address"},{"internalType":"address","name":"to","type":"address"},{"internalType":"uint256","name":"tokenId","type":"uint256"}],"name":"safeTransferFrom","outputs":[],"stateMutability":"nonpayable","type":"function"},{"inputs":[{"internalType":"address","name":"from","type":"address"},{"internalType":"address","name":"to","type":"address"},{"internalType":"uint256","name":"tokenId","type":"uint256"},{"internalType":"bytes","name":"data","type":"bytes"}],"name":"safeTransferFrom","outputs":[],"stateMutability":"nonpayable","type":"function"},{"inputs":[{"internalType":"address","name":"operator","type":"address"},{"internalType":"bool","name":"approved","type":"bool"}],"name":"setApprovalForAll","outputs":[],"stateMutability":"nonpayable","type":"function"},{"inputs":[{"internalType":"uint256","name":"campaignId","type":"uint256"},{"internalType":"bool","name":"active","type":"bool"}],"name":"setCampaignActive","outputs":[],"stateMutability":"nonpayable","type":"function"},{"inputs":[{"internalType":"uint96","name":"bps","type":"uint96"}],"name":"setFeeBps","outputs":[],"stateMutability":"nonpayable","type":"function"},{"inputs":[{"internalType":"address","name":"a","type":"address"}],"name":"setNonprofit","outputs":[],"stateMutability":"nonpayable","type":"function"},{"inputs":[{"internalType":"address","name":"a","type":"address"},{"internalType":"bool","name":"v","type":"bool"}],"name":"setOracle","outputs":[],"stateMutability":"nonpayable","type":"function"},{"inputs":[{"internalType":"uint256","name":"tokenId","type":"uint256"},{"internalType":"uint8","name":"p","type":"uint8"}],"name":"setProgress","outputs":[],"stateMutability":"nonpayable","type":"function"},{"inputs":[{"internalType":"bytes4","name":"interfaceId","type":"bytes4"}],"name":"supportsInterface","outputs":[{"internalType":"bool","name":"","type":"bool"}],"stateMutability":"view","type":"function"},{"inputs":[],"name":"symbol","outputs":[{"internalType":"string","name":"","type":"string"}],"stateMutability":"view","type":"function"},{"inputs":[{"internalType":"uint256","name":"index","type":"uint256"}],"name":"tokenByIndex","outputs":[{"internalType":"uint256","name":"","type":"uint256"}],"stateMutability":"view","type":"function"},{"inputs":[{"internalType":"uint256","name":"","type":"uint256"}],"name":"tokenCampaign","outputs":[{"internalType":"uint256","name":"","type":"uint256"}],"stateMutability":"view","type":"function"},{"inputs":[{"internalType":"uint256","name":"campaignId","type":"uint256"},{"internalType":"uint256","name":"index","type":"uint256"}],"name":"tokenIdInCampaignByIndex","outputs":[{"internalType":"uint256","name":"","type":"uint256"}],"stateMutability":"view","type":"function"},{"inputs":[{"internalType":"address","name":"owner","type":"address"},{"internalType":"uint256","name":"index","type":"uint256"}],"name":"tokenOfOwnerByIndex","outputs":[{"internalType":"uint256","name":"","type":"uint256"}],"stateMutability":"view","type":"function"},{"inputs":[{"internalType":"uint256","name":"tokenId","type":"uint256"}],"name":"tokenURI","outputs":[{"internalType":"string","name":"","type":"string"}],"stateMutability":"view","type":"function"},{"inputs":[{"internalType":"uint256","name":"campaignId","type":"uint256"},{"internalType":"uint256","name":"offset","type":"uint256"},{"internalType":"uint256","name":"limit","type":"uint256"}],"name":"tokensOfCampaign","outputs":[{"internalType":"uint256[]","name":"ids","type":"uint256[]"}],"stateMutability":"view","type":"function"},{"inputs":[{"internalType":"address","name":"owner_","type":"address"},{"internalType":"uint256","name":"campaignId","type":"uint256"},{"internalType":"uint256","name":"offset","type":"uint256"},{"internalType":"uint256","name":"limit","type":"uint256"}],"name":"tokensOfOwnerInCampaign","outputs":[{"internalType":"uint256[]","name":"ids","type":"uint256[]"}],"stateMutability":"view","type":"function"},{"inputs":[],"name":"totalSupply","outputs":[{"internalType":"uint256","name":"","type":"uint256"}],"stateMutability":"view","type":"function"},{"inputs":[{"internalType":"uint256","name":"campaignId","type":"uint256"}],"name":"totalSupplyInCampaign","outputs":[{"internalType":"uint256","name":"","type":"uint256"}],"stateMutability":"view","type":"function"},{"inputs":[{"internalType":"address","name":"from","type":"address"},{"internalType":"address","name":"to","type":"address"},{"internalType":"uint256","name":"tokenId","type":"uint256"}],"name":"transferFrom","outputs":[],"stateMutability":"nonpayable","type":"function"},{"inputs":[{"internalType":"address","name":"newOwner","type":"address"}],"name":"transferOwnership","outputs":[],"stateMutability":"nonpayable","type":"function"},{"inputs":[{"internalType":"uint256","name":"campaignId","type":"uint256"},{"internalType":"uint8","name":"p","type":"uint8"}],"name":"updateCampaignProgress","outputs":[],"stateMutability":"nonpayable","type":"function"},{"inputs":[{"internalType":"uint256","name":"tokenId","type":"uint256"},{"internalType":"string","name":"uri","type":"string"}],"name":"updateTokenURI","outputs":[],"stateMutability":"nonpayable","type":"function"}],"evm":{"bytecode":{"linkReferences":{},"object":"608034620003de576001600160401b0390601f19601f62002f1d3881900382810184168501919086831186841017620003c8578086926040948552833981010312620003de5782516001600160a01b03948582169491859003620003de57602091820151926001600160601b0384168403620003de576200007f620003e3565b92600d84526c50617472696f74506c6564676560981b81850152620000a3620003e3565b90600782526650504c4544474560c81b81830152845196848811620003c8576000978854966001978881811c91168015620003bd575b85821014620003a95790818784931162000356575b508490878311600114620002f5578b92620002e9575b5050600019600383901b1c191690871b1788555b8251948511620002d55785548681811c91168015620002ca575b83821014620002b6579081858796959493116200025d575b5081938511600114620001f85750508692620001ec575b5050600019600383901b1c191690821b1781555b3315620001d357600b5460018060a01b0319933385831617600b557f8be0079c531659141344cd1fd0a4f28419497f9722a3daafe3b4186f6b6457e0604051973393169180a3600c5560a01b1617600f55612b199081620004048239f35b604051631e4fbdf760e01b815260048101849052602490fd5b01519050388062000161565b869593929193168589528389209389905b82821062000243575050841162000229575b505050811b01815562000175565b015160001960f88460031b161c191690553880806200021b565b848401518655889790950194938401939081019062000209565b9091929394508689528289208580880160051c820192858910620002ac575b9188978a9297969594930160051c01915b8281106200029d5750506200014a565b8b81558897508991016200028d565b925081926200027c565b634e487b7160e01b89526022600452602489fd5b90607f169062000132565b634e487b7160e01b88526041600452602488fd5b01519050388062000104565b90848a9416918c8052868d20928d5b888282106200033f575050841162000325575b505050811b01885562000118565b015160001960f88460031b161c1916905538808062000317565b8385015186558d9790950194938401930162000304565b9091508a8052848b208780850160051c8201928786106200039f575b918b91869594930160051c01915b82811062000390575050620000ee565b8d81558594508b910162000380565b9250819262000372565b634e487b7160e01b8b52602260045260248bfd5b90607f1690620000d9565b634e487b7160e01b600052604160045260246000fd5b600080fd5b60408051919082016001600160401b03811183821017620003c85760405256fe608080604052600436101561001357600080fd5b600090813560e01c90816301ffc9a714611a0e5750806306fdde03146119635780630722fb621461190e578063081812fc146118ef5780630845fff51461184e578063095ea7b31461176b578063141961bc14611697578063150b7a021461167357806318160ddd1461165557806318e97fd1146116095780631baf5146146115c957806323b872dd146115b157806324a9d85314611590578063253eca1f146115655780632f745c59146114e057806342842e0e146114b25780634ab7b7b1146114635780634b1cef85146114015780634f6ccce7146113ab5780636352211e1461137a5780636536084314611328578063659706e61461125857806369826a941461122b57806370a08231146111ff578063710df4fc1461115f578063715018a61461110257806375794a3c146110e45780637903a756146110c65780637b276ae914610ea25780638ab9b92a146108725780638da5cb5b14610e7957806395d89b4114610d95578063966f77d414610a77578063990711901461099f578063a22cb465146108f6578063a3056bf9146108c9578063a7801db61461089f578063a944af2d14610872578063ab2258a2146107b1578063ad11728b1461076a578063b7f1564e14610713578063b88d4fde146106ea578063be51fa1a146105b8578063bfe30d5e1461058f578063c87b56dd14610533578063d96a094a14610362578063e985e9c514610307578063eb37d349146102c85763f2fde38b1461023c57600080fd5b346102c55760203660031901126102c557610255611cde565b61025d61259a565b6001600160a01b039081169081156102ac57600b54826001600160601b0360a01b821617600b55167f8be0079c531659141344cd1fd0a4f28419497f9722a3daafe3b4186f6b6457e08380a380f35b604051631e4fbdf760e01b815260048101849052602490fd5b80fd5b50346102c55760203660031901126102c55760209060ff906040906001600160a01b036102f3611cde565b168152601384522054166040519015158152f35b50346102c55760403660031901126102c557610321611cde565b6001600160a01b03602435818116929083900361035e579260ff926040926020951682526005855282822090825284522054166040519015158152f35b8380fd5b50602090816003193601126102c55760043561037c6125c6565b80825260158352604082209160ff600a8401541615610503576006830192835460058201548110156104d3576103b482543414612322565b6103c2816004840154611f14565b94600182018092116104bf575560020180546103df903490611f14565b9055604051906103ee82611ba9565b80825233156104a757506104028333612862565b6001600160a01b0381168061042a57604051637e27328960e01b815260048101869052602490fd5b3003610477575061043d90833330612761565b81604051913483527f5228aeaf7727cc737b9ae986be18ef1ab61f0976f5513ab4e6160454eaf082b3853394a46001600c55604051908152f35b6040516364283d7b60e01b8152306004820152602481018590526001600160a01b03919091166044820152606490fd5b60249060405190633250574960e11b82526004820152fd5b634e487b7160e01b84526011600452602484fd5b60405162461bcd60e51b81526004810187905260086024820152671cdbdb19081bdd5d60c21b6044820152606490fd5b60405162461bcd60e51b8152600481018590526008602482015267696e61637469766560c01b6044820152606490fd5b50346102c55760203660031901126102c55761058b906004356105558161249d565b508152600a60205261056960408220611bfd565b9060405161057681611ba9565b52604051918291602083526020830190611aaf565b0390f35b50346102c557806003193601126102c557600f546040516001600160a01b039091168152602090f35b50346102c55760803660031901126102c5576105d2611cde565b906044356064359160243581526020936015602052610614604083209361060e6004600587015496610605888510611e72565b01549586611f14565b94611f14565b91926001600160a01b0391821692849190805b828110806106e1575b1561066d5780845260028952858560408620541614610658575b61065390612356565b610627565b9561066561065391612356565b96905061064a565b50949690955061067c87611ee2565b9682955b878110806106d8575b156106ca57806106ab918552600284528686604087205416146106b057612356565b610680565b806106c46106bd8a612356565b998c611f21565b52612356565b6040518061058b8b82611ca2565b50818710610689565b50878710610630565b50346102c5576107106106fc36611d47565b9261070b828483959495611f6c565b612761565b80f35b50346102c55760203660031901126102c5576004356001600160601b03811681036107665761074061259a565b600f80546001600160a01b031660a09290921b6001600160a01b03191691909117905580f35b5080fd5b50346102c55760403660031901126102c557610710610787611e3e565b61078f61259a565b60043583526015602052600a60408420019060ff801983541691151516179055565b50346102c5576107c036611dc9565b6107d26107cd83336124d8565b611f35565b818352601160205260408320805490600160401b82101561085e57906107fd91600182018155611b57565b61084a57816108307f9e91988b4e615159c412500179db71d2c90f69abbd10034b51e6b7c343a61ace9361084493612365565b604051918291602083526020830190611aaf565b0390a280f35b634e487b7160e01b84526004849052602484fd5b634e487b7160e01b85526041600452602485fd5b50346102c55760203660031901126102c55760ff6040602092600435815260148452205416604051908152f35b50346102c55760203660031901126102c55760406020916004358152601683522054604051908152f35b50346102c55760203660031901126102c55760056040602092600435815260158452200154604051908152f35b50346102c55760403660031901126102c557610910611cde565b610918611e3e565b6001600160a01b039091169081156109865733835260056020526040832082845260205261095581604085209060ff801983541691151516179055565b60405190151581527f17307eab39ab6107e8899845ad3d59bd9653f200f220920489ca2b5937696c3160203392a380f35b604051630b61174360e31b815260048101839052602490fd5b50346102c55760603660031901126102c5576109b9611cde565b67ffffffffffffffff9060243582811161035e576109db903690600401611dae565b9160443590811161035e57917fe2406cfd356cfbe4e42d452bde96d27f48c423e5f02b5d78695893308399519d60209492610a1c6040953690600401611dae565b90610a5482610a2c600d54612356565b97889788600d55610a3d89866125e9565b610a47888a612557565b88815260128b5220612365565b610a6c60405192839260018060a01b03169583612478565b0390a3604051908152f35b50346102c55760c03660031901126102c557606435906001600160a01b03821682036102c55767ffffffffffffffff91608435838111610d9157610abf903690600401611dae565b9060a43584811161035e57610ad8903690600401611dae565b91610ae161259a565b60043515610d6657610af66024351515612322565b610b01600e54612356565b9384600e55600d5495600187018711610d525760405190610160820190811182821017610d3e576040526024358152858560208301604435815260408401858152606085018681526080860160018d01815260a0870190600435825260c088019289845260e0890194600160a01b600190038d1686526101008a01968c88526101208b019889526101408b019960018b528c52601560205260408c209a518b555160018b01555160028a01555160038901555160048801555160058701555160068601556007850190600160a01b600190039051166001600160601b0360a01b825416179055516008840190610bf691612365565b51610c049060098401612365565b51151590600a0190610c21919060ff801983541691151516179055565b805b6004358110610c94575050507f980148007406a901ee582d50925dd005b8e1001decf89a97a9b3c6a8c00fed3c6001602095610a6c8694604051938493018352600435898401526024356040840152604435606084015260a0608084015260018060a01b03169560a0830190611aaf565b60019086610ca3600d54612356565b80600d55610cb181306125e9565b610cbb8682612557565b8085526012602052610cd08860408720612365565b8085526016602052816040862055806040517fe2406cfd356cfbe4e42d452bde96d27f48c423e5f02b5d78695893308399519d309180610d118d8c83612478565b0390a37f527094531bf06442bcb3d3012a8f7df28ff05336a35fc2b21586161e3ecaedaa8580a301610c23565b634e487b7160e01b83526041600452602483fd5b634e487b7160e01b82526011600452602482fd5b606460405162461bcd60e51b815260206004820152600460248201526373697a6560e01b6044820152fd5b8280fd5b50346102c557806003193601126102c55760405190808260019260015493610dbc85611b6f565b9384845260209586600182169182600014610e57575050600114610dfd575b5050610de992500383611bdb565b61058b604051928284938452830190611aaf565b90859250600182527fb10e2d527612073b26eecdfd717e6a320cf44b4afac2b0732d9fcbe2b7fa0cf65b858310610e3f575050610de993508201013880610ddb565b80548389018501528794508693909201918101610e27565b9250935050610de994915060ff191682840152151560051b8201013880610ddb565b50346102c557806003193601126102c557600b546040516001600160a01b039091168152602090f35b50346102c55760603660031901126102c557600435602435906044359060ff821680920361035e57610ed26125c6565b3384526020926013845260ff60408620541680156110b2575b610ef490612280565b8185526015845260408520916002830154916003840192610f1784548092611ea7565b821161107e57600f5460a01c80830290838204148315171561106a57612710900493610f4d83610f478782611ea7565b93611f14565b905560018060a01b03888080808885600f54165af1610f6a6122f2565b501561103a57600786018980808086868654165af1610f876122f2565b501561100a576080604097947fb5e7231814419e5a5e888606251cb3b5325a5339501a127b8f728e49a0d86660999794600497947f884b08fa7db2ae8fe3f81203cbffbb0c1def041173fc080064c31dd02c00ac65945416958a519283528c83015289820152876060820152a301549382519182524290820152a26001600c5580f35b60405162461bcd60e51b8152600481018a905260086024820152673732ba103c3332b960c11b6044820152606490fd5b60405162461bcd60e51b81526004810189905260086024820152673332b2903c3332b960c11b6044820152606490fd5b634e487b7160e01b89526011600452602489fd5b60405162461bcd60e51b815260048101889052600c60248201526b1a5b9cdd59999a58da595b9d60a21b6044820152606490fd5b50600b546001600160a01b03163314610eeb565b50346102c557806003193601126102c5576020600e54604051908152f35b50346102c557806003193601126102c5576020600d54604051908152f35b50346102c557806003193601126102c55761111b61259a565b600b80546001600160a01b0319811690915581906001600160a01b03167f8be0079c531659141344cd1fd0a4f28419497f9722a3daafe3b4186f6b6457e08280a380f35b50346102c55760403660031901126102c5576004357f884019c0c70102251222e94dbdcfe9c7a24a3727f73c568086f9b72d6e32a354602060ff6111a1611e2e565b338652601383528160408720541680156111eb575b6111bf90612280565b166111cd606482111561224c565b838552601082526040808620805460ff19168317905551908152a280f35b50600b546001600160a01b031633146111b6565b50346102c55760203660031901126102c557602061122361121e611cde565b6122b9565b604051908152f35b50346102c55760203660031901126102c55760ff6040602092600435815260108452205416604051908152f35b50346102c55760403660031901126102c5576004357ff55ac563519213a224ae53aedf3b9b2d260693848a69e724323dbd3ae9cfd325602060ff61129a611e2e565b33865260138352816040872054168015611314575b6112b890612280565b166112c6606482111561224c565b838552601482526040852060ff19908282825416179055601583526004604087200154806112fb575b5050604051908152a280f35b86526010835281604087209182541617905538806112ef565b50600b546001600160a01b031633146112af565b50346102c55760403660031901126102c557610710611345611cde565b61134d611e3e565b9061135661259a565b60018060a01b031683526013602052604083209060ff801983541691151516179055565b50346102c55760203660031901126102c557602061139960043561249d565b6040516001600160a01b039091168152f35b50346102c55760203660031901126102c557600435906008548210156113e45760206113d683611b0a565b90546040519160031b1c8152f35b6044916040519163295f44f760e21b835260048301526024820152fd5b50346102c557604061141236611aef565b929081526015602052206005810154821015611438576020916004611223920154611f14565b60405162461bcd60e51b815260206004820152600360248201526237b7b160e91b6044820152606490fd5b50346102c55760403660031901126102c5576004357f884019c0c70102251222e94dbdcfe9c7a24a3727f73c568086f9b72d6e32a354602060ff6114a5611e2e565b6111bf6107cd86336124d8565b50346102c5576107106114c436611df9565b90604051926114d284611ba9565b85845261070b838383611f6c565b50346102c55760403660031901126102c5576114fa611cde565b9060243591611508816122b9565b831015611539576001600160a01b031681526006602090815260408083209383529281529082902054915191825290f35b60405163295f44f760e21b81526001600160a01b03919091166004820152602481019290925250604490fd5b50346102c55760203660031901126102c557610830604061058b926004358152601260205220611bfd565b50346102c557806003193601126102c5576020600f5460a01c604051908152f35b50346102c5576107106115c336611df9565b91611f6c565b50346102c55760203660031901126102c5576115e3611cde565b6115eb61259a565b60018060a01b03166001600160601b0360a01b600f541617600f5580f35b50346102c5576108447fa21868eaf3c7f76e3920b694616a9b525dabdac615d6e3da5f3890aac442e05d61163c36611dc9565b61164b6107cd839593336124d8565b6108308185612557565b50346102c557806003193601126102c5576020600854604051908152f35b50346102c55761168236611d47565b505050506020604051630a85bd0160e11b8152f35b50346102c55760203660031901126102c55760409060043581526015602052206020815461175e60018401549361174f6002820154936003830154906004840154600585015460068601549060018060a01b03600788015416926116fd60088901611bfd565b9560ff600a61170e60098c01611bfd565b9a0154169a6040519d8e9d8e610160998152015260408d015260608c015260808b015260a08a015260c089015260e088015280610100880152860190611aaf565b90848203610120860152611aaf565b9015156101408301520390f35b50346102c55760403660031901126102c557611785611cde565b6024356117918161249d565b3315158061183b575b80611810575b6117f8576001600160a01b039283169282918491167f8c5be1e5ebec7d5bd14f71427d1e84f3dd0314c0f7b2291e5b200ac8c7c3b9258680a4825260046020526040822080546001600160a01b031916909117905580f35b60405163a9fbf51f60e01b8152336004820152602490fd5b506001600160a01b038116845260056020908152604080862033875290915284205460ff16156117a0565b506001600160a01b03811633141561179a565b50346102c55760603660031901126102c5576024356044359060043583526015602052604083209161188f82600585015461188a818310611e72565b611ea7565b908082116118e7575b509160046118a584611ee2565b94910154905b8381106118c0576040518061058b8782611ca2565b806118d66001926118d18686611f14565b611f14565b6118e08288611f21565b52016118ab565b905038611898565b50346102c55760203660031901126102c5576020611399600435611e4d565b50346102c55761191d36611aef565b908252601160205260408220908154811015610d915761193c91611b57565b91909161194f5761058b61083083611bfd565b634e487b7160e01b81526004819052602490fd5b50346102c557806003193601126102c55760405190808282549161198683611b6f565b9283835260209460019186600182169182600014610e575750506001146119b5575050610de992500383611bdb565b908592508180527f290decd9548b62a8d60345a988386fc84ba6bc95484008f6362f93160ef3e5635b8583106119f6575050610de993508201013880610ddb565b805483890185015287945086939092019181016119de565b9050346107665760203660031901126107665760043563ffffffff60e01b8116809103610d915760209250632483248360e11b8114908115611a52575b5015158152f35b63780e9d6360e01b811491508115611a6c575b5038611a4b565b6380ac58cd60e01b811491508115611a9e575b8115611a8d575b5038611a65565b6301ffc9a760e01b14905038611a86565b635b5e139f60e01b81149150611a7f565b919082519283825260005b848110611adb575050826000602080949584010152601f8019910116010190565b602081830181015184830182015201611aba565b6040906003190112611b05576004359060243590565b600080fd5b600854811015611b415760086000527ff3f7a9fe364faab93b216da50a3214154f22a0a2b415b23a84c8169e8b636ee30190600090565b634e487b7160e01b600052603260045260246000fd5b8054821015611b415760005260206000200190600090565b90600182811c92168015611b9f575b6020831014611b8957565b634e487b7160e01b600052602260045260246000fd5b91607f1691611b7e565b6020810190811067ffffffffffffffff821117611bc557604052565b634e487b7160e01b600052604160045260246000fd5b90601f8019910116810190811067ffffffffffffffff821117611bc557604052565b90604051918260008254611c1081611b6f565b90818452602094600191600181169081600014611c805750600114611c41575b505050611c3f92500383611bdb565b565b600090815285812095935091905b818310611c68575050611c3f9350820101388080611c30565b85548884018501529485019487945091830191611c4f565b92505050611c3f94925060ff191682840152151560051b820101388080611c30565b602090602060408183019282815285518094520193019160005b828110611cca575050505090565b835185529381019392810192600101611cbc565b600435906001600160a01b0382168203611b0557565b67ffffffffffffffff8111611bc557601f01601f191660200190565b929192611d1c82611cf4565b91611d2a6040519384611bdb565b829481845281830111611b05578281602093846000960137010152565b906080600319830112611b05576001600160a01b03916004358381168103611b0557926024359081168103611b055791604435916064359067ffffffffffffffff8211611b055780602383011215611b0557816024611dab93600401359101611d10565b90565b9080601f83011215611b0557816020611dab93359101611d10565b906040600319830112611b0557600435916024359067ffffffffffffffff8211611b0557611dab91600401611dae565b6060906003190112611b05576001600160a01b03906004358281168103611b0557916024359081168103611b05579060443590565b6024359060ff82168203611b0557565b602435908115158203611b0557565b611e568161249d565b506000908152600460205260409020546001600160a01b031690565b15611e7957565b60405162461bcd60e51b81526020600482015260066024820152651bd9999cd95d60d21b6044820152606490fd5b91908203918211611eb457565b634e487b7160e01b600052601160045260246000fd5b67ffffffffffffffff8111611bc55760051b60200190565b90611eec82611eca565b611ef96040519182611bdb565b8281528092611f0a601f1991611eca565b0190602036910137565b91908201809211611eb457565b8051821015611b415760209160051b010190565b15611f3c57565b60405162461bcd60e51b81526020600482015260086024820152670dcdee840c2eae8d60c31b6044820152606490fd5b906001600160a01b03808216908115612233576000918583526020926002845260409383858320541695331515806121a5575b5086158015612172575b84845260038352868420805460010190558984526002835286842080546001600160a01b031916861790558985897fddf252ad1be2c89b69c2b068fc378daa952ba7f163c4a11628f55a4df523b3ef8780a4156120f657600854898452600983528087852055600160401b8110156120e2578961202f8260016120489401600855611b0a565b90919082549060031b91821b91600019901b1916179055565b838703612090575b50505050831682036120625750505050565b516364283d7b60e01b81526001600160a01b0392831660048201526024810193909352166044820152606490fd5b612099906122b9565b6000198101939084116120ce578291600791879452600681528383208584528152898484205589835252205538808080612050565b634e487b7160e01b83526011600452602483fd5b634e487b7160e01b84526041600452602484fd5b86841461204857612106876122b9565b898452600783528684205481810361213b575b5089845283878120558784526006835286842090845282528286812055612048565b8885526006845287852082865284528785205489865260068552888620828752855280898720558552600784528785205538612119565b60008a815260046020526040902080546001600160a01b0319169055878452600383528684208054600019019055611fa9565b806121f2575b156121b65738611f9f565b8589886121d3576024915190637e27328960e01b82526004820152fd5b905163177e802f60e01b81523360048201526024810191909152604490fd5b503387148015612217575b806121ab57508883526004825233858785205416146121ab565b5086835260058252858320338452825260ff86842054166121fd565b604051633250574960e11b815260006004820152602490fd5b1561225357565b60405162461bcd60e51b815260206004820152600560248201526472616e676560d81b6044820152606490fd5b1561228757565b60405162461bcd60e51b815260206004820152600a6024820152696e6f74206f7261636c6560b01b6044820152606490fd5b6001600160a01b031680156122d957600052600360205260406000205490565b6040516322718ad960e21b815260006004820152602490fd5b3d1561231d573d9061230382611cf4565b916123116040519384611bdb565b82523d6000602084013e565b606090565b1561232957565b60405162461bcd60e51b8152602060048201526005602482015264707269636560d81b6044820152606490fd5b6000198114611eb45760010190565b919091825167ffffffffffffffff8111611bc5576123838254611b6f565b601f811161242e575b50602080601f83116001146123c95750819293946000926123be575b50508160011b916000199060031b1c1916179055565b0151905038806123a8565b90601f19831695846000526020600020926000905b888210612416575050836001959697106123fd575b505050811b019055565b015160001960f88460031b161c191690553880806123f3565b806001859682949686015181550195019301906123de565b6000836000526020600020601f840160051c8101926020851061246e575b601f0160051c01915b82811061246357505061238c565b818155600101612455565b909250829061244c565b909161248f611dab93604084526040840190611aaf565b916020818403910152611aaf565b6000818152600260205260409020546001600160a01b03169081156124c0575090565b60249060405190637e27328960e01b82526004820152fd5b6001600160a01b039081806124ec8561249d565b16911691818314938415612549575b8415612532575b5050821561250f57505090565b909150600052600560205260406000209060005260205260ff6040600020541690565b8392945061253f90611e4d565b1614913880612502565b600b548216841494506124fb565b6020906125917ff8e1a15aba9398e019f0b49df1a4fde98ee17ae345cb5f6b5e2c27f5033e8ce79382600052600a84526040600020612365565b604051908152a1565b600b546001600160a01b031633036125ae57565b60405163118cdaa760e01b8152336004820152602490fd5b6002600c54146125d7576002600c55565b604051633ee5aeb560e01b8152600490fd5b60409182516125f781611ba9565b60008082526001600160a01b03848116949192919085156127495761261c8583612862565b16612731573b61262e575b5050505050565b602061266b91869795965180938192630a85bd0160e11b978884523360048501528760248501526044840152608060648401526084830190611aaf565b038185895af1908290826126e8575b50506126b35750505061268b6122f2565b80519290836126ac578151633250574960e11b815260048101849052602490fd5b8390602001fd5b9193916001600160e01b031916036126d15750503880808080612627565b602492505190633250574960e11b82526004820152fd5b909192506020813d602011612729575b8161270560209383611bdb565b810103126107665751906001600160e01b0319821682036102c5575090388061267a565b3d91506126f8565b85516339e3563760e11b815260048101849052602490fd5b8651633250574960e11b815260048101859052602490fd5b9190803b612770575b50505050565b6127b260018060a01b0380921694604051938493630a85bd0160e11b968786523360048701521660248501526044840152608060648401526084830190611aaf565b03906020816000938185885af190829082612819575b505061280057826127d76122f2565b80519190826127f957604051633250574960e11b815260048101839052602490fd5b9050602001fd5b6001600160e01b031916036104a757503880808061276a565b909192506020813d60201161285a575b8161283660209383611bdb565b810103126107665751906001600160e01b0319821682036102c557509038806127c8565b3d9150612829565b6000828152600260209081526040808320546001600160a01b039081169592949192918615918215612ab0575b8116918215908115612a9a575b8487526002885285872080546001600160a01b0319168517905584848a7fddf252ad1be2c89b69c2b068fc378daa952ba7f163c4a11628f55a4df523b3ef8a80a415612a1e57600854848752600988528086882055600160401b811015612a0a578461202f8260016129119401600855611b0a565b156129b5575050600854600019948582019182116129a157906009839286959486528181526129438587205493611b0a565b90549060031b1c6129578161202f86611b0a565b86525282842055825281205560085490811561298d575081019061297a82611b0a565b909182549160031b1b1916905560085590565b634e487b7160e01b81526031600452602490fd5b634e487b7160e01b85526011600452602485fd5b818796939296959495036129cd575b50505050505090565b6129d6906122b9565b6000198101959086116104bf57835260068252838320858452825283832081905582526007905220553880808080806129c4565b634e487b7160e01b87526041600452602487fd5b87831461291157612a2e886122b9565b8487526007885285872054818103612a63575b5084875286868120558887526006885285872090875287528585812055612911565b898852600689528688208289528952868820548a895260068a52878920828a528a5280888a20558852600789528688205538612a41565b838752600388528587206001815401905561289c565b600084815260046020526040902080546001600160a01b031916905587865260038752848620805460001901905561288f56fea26469706673582212200da478ab94cdb69d1479264d39c66faf741f97899df3db41fbe6341838d237ba64736f6c63430008180033","opcodes":"PUSH1 0x80 CALLVALUE PUSH3 0x3DE JUMPI PUSH1 0x1 PUSH1 0x1 PUSH1 0x40 SHL SUB SWAP1 PUSH1 0x1F NOT PUSH1 0x1F PUSH3 0x2F1D CODESIZE DUP2 SWAP1 SUB DUP3 DUP2 ADD DUP5 AND DUP6 ADD SWAP2 SWAP1 DUP7 DUP4 GT DUP7 DUP5 LT OR PUSH3 0x3C8 JUMPI DUP1 DUP7 SWAP3 PUSH1 0x40 SWAP5 DUP6 MSTORE DUP4 CODECOPY DUP2 ADD SUB SLT PUSH3 0x3DE JUMPI DUP3 MLOAD PUSH1 0x1 PUSH1 0x1 PUSH1 0xA0 SHL SUB SWAP5 DUP6 DUP3 AND SWAP5 SWAP2 DUP6 SWAP1 SUB PUSH3 0x3DE JUMPI PUSH1 0x20 SWAP2 DUP3 ADD MLOAD SWAP3 PUSH1 0x1 PUSH1 0x1 PUSH1 0x60 SHL SUB DUP5 AND DUP5 SUB PUSH3 0x3DE JUMPI PUSH3 0x7F PUSH3 0x3E3 JUMP JUMPDEST SWAP3 PUSH1 0xD DUP5 MSTORE PUSH13 0x50617472696F74506C65646765 PUSH1 0x98 SHL DUP2 DUP6 ADD MSTORE PUSH3 0xA3 PUSH3 0x3E3 JUMP JUMPDEST SWAP1 PUSH1 0x7 DUP3 MSTORE PUSH7 0x50504C45444745 PUSH1 0xC8 SHL DUP2 DUP4 ADD MSTORE DUP5 MLOAD SWAP7 DUP5 DUP9 GT PUSH3 0x3C8 JUMPI PUSH1 0x0 SWAP8 DUP9 SLOAD SWAP7 PUSH1 0x1 SWAP8 DUP9 DUP2 DUP2 SHR SWAP2 AND DUP1 ISZERO PUSH3 0x3BD JUMPI JUMPDEST DUP6 DUP3 LT EQ PUSH3 0x3A9 JUMPI SWAP1 DUP2 DUP8 DUP5 SWAP4 GT PUSH3 0x356 JUMPI JUMPDEST POP DUP5 SWAP1 DUP8 DUP4 GT PUSH1 0x1 EQ PUSH3 0x2F5 JUMPI DUP12 SWAP3 PUSH3 0x2E9 JUMPI JUMPDEST POP POP PUSH1 0x0 NOT PUSH1 0x3 DUP4 SWAP1 SHL SHR NOT AND SWAP1 DUP8 SHL OR DUP9 SSTORE JUMPDEST DUP3 MLOAD SWAP5 DUP6 GT PUSH3 0x2D5 JUMPI DUP6 SLOAD DUP7 DUP2 DUP2 SHR SWAP2 AND DUP1 ISZERO PUSH3 0x2CA JUMPI JUMPDEST DUP4 DUP3 LT EQ PUSH3 0x2B6 JUMPI SWAP1 DUP2 DUP6 DUP8 SWAP7 SWAP6 SWAP5 SWAP4 GT PUSH3 0x25D JUMPI JUMPDEST POP DUP2 SWAP4 DUP6 GT PUSH1 0x1 EQ PUSH3 0x1F8 JUMPI POP POP DUP7 SWAP3 PUSH3 0x1EC JUMPI JUMPDEST POP POP PUSH1 0x0 NOT PUSH1 0x3 DUP4 SWAP1 SHL SHR NOT AND SWAP1 DUP3 SHL OR DUP2 SSTORE JUMPDEST CALLER ISZERO PUSH3 0x1D3 JUMPI PUSH1 0xB SLOAD PUSH1 0x1 DUP1 PUSH1 0xA0 SHL SUB NOT SWAP4 CALLER DUP6 DUP4 AND OR PUSH1 0xB SSTORE PUSH32 0x8BE0079C531659141344CD1FD0A4F28419497F9722A3DAAFE3B4186F6B6457E0 PUSH1 0x40 MLOAD SWAP8 CALLER SWAP4 AND SWAP2 DUP1 LOG3 PUSH1 0xC SSTORE PUSH1 0xA0 SHL AND OR PUSH1 0xF SSTORE PUSH2 0x2B19 SWAP1 DUP2 PUSH3 0x404 DUP3 CODECOPY RETURN JUMPDEST PUSH1 0x40 MLOAD PUSH4 0x1E4FBDF7 PUSH1 0xE0 SHL DUP2 MSTORE PUSH1 0x4 DUP2 ADD DUP5 SWAP1 MSTORE PUSH1 0x24 SWAP1 REVERT JUMPDEST ADD MLOAD SWAP1 POP CODESIZE DUP1 PUSH3 0x161 JUMP JUMPDEST DUP7 SWAP6 SWAP4 SWAP3 SWAP2 SWAP4 AND DUP6 DUP10 MSTORE DUP4 DUP10 KECCAK256 SWAP4 DUP10 SWAP1 JUMPDEST DUP3 DUP3 LT PUSH3 0x243 JUMPI POP POP DUP5 GT PUSH3 0x229 JUMPI JUMPDEST POP POP POP DUP2 SHL ADD DUP2 SSTORE PUSH3 0x175 JUMP JUMPDEST ADD MLOAD PUSH1 0x0 NOT PUSH1 0xF8 DUP5 PUSH1 0x3 SHL AND SHR NOT AND SWAP1 SSTORE CODESIZE DUP1 DUP1 PUSH3 0x21B JUMP JUMPDEST DUP5 DUP5 ADD MLOAD DUP7 SSTORE DUP9 SWAP8 SWAP1 SWAP6 ADD SWAP5 SWAP4 DUP5 ADD SWAP4 SWAP1 DUP2 ADD SWAP1 PUSH3 0x209 JUMP JUMPDEST SWAP1 SWAP2 SWAP3 SWAP4 SWAP5 POP DUP7 DUP10 MSTORE DUP3 DUP10 KECCAK256 DUP6 DUP1 DUP9 ADD PUSH1 0x5 SHR DUP3 ADD SWAP3 DUP6 DUP10 LT PUSH3 0x2AC JUMPI JUMPDEST SWAP2 DUP9 SWAP8 DUP11 SWAP3 SWAP8 SWAP7 SWAP6 SWAP5 SWAP4 ADD PUSH1 0x5 SHR ADD SWAP2 JUMPDEST DUP3 DUP2 LT PUSH3 0x29D JUMPI POP POP PUSH3 0x14A JUMP JUMPDEST DUP12 DUP2 SSTORE DUP9 SWAP8 POP DUP10 SWAP2 ADD PUSH3 0x28D JUMP JUMPDEST SWAP3 POP DUP2 SWAP3 PUSH3 0x27C JUMP JUMPDEST PUSH4 0x4E487B71 PUSH1 0xE0 SHL DUP10 MSTORE PUSH1 0x22 PUSH1 0x4 MSTORE PUSH1 0x24 DUP10 REVERT JUMPDEST SWAP1 PUSH1 0x7F AND SWAP1 PUSH3 0x132 JUMP JUMPDEST PUSH4 0x4E487B71 PUSH1 0xE0 SHL DUP9 MSTORE PUSH1 0x41 PUSH1 0x4 MSTORE PUSH1 0x24 DUP9 REVERT JUMPDEST ADD MLOAD SWAP1 POP CODESIZE DUP1 PUSH3 0x104 JUMP JUMPDEST SWAP1 DUP5 DUP11 SWAP5 AND SWAP2 DUP13 DUP1 MSTORE DUP7 DUP14 KECCAK256 SWAP3 DUP14 JUMPDEST DUP9 DUP3 DUP3 LT PUSH3 0x33F JUMPI POP POP DUP5 GT PUSH3 0x325 JUMPI JUMPDEST POP POP POP DUP2 SHL ADD DUP9 SSTORE PUSH3 0x118 JUMP JUMPDEST ADD MLOAD PUSH1 0x0 NOT PUSH1 0xF8 DUP5 PUSH1 0x3 SHL AND SHR NOT AND SWAP1 SSTORE CODESIZE DUP1 DUP1 PUSH3 0x317 JUMP JUMPDEST DUP4 DUP6 ADD MLOAD DUP7 SSTORE DUP14 SWAP8 SWAP1 SWAP6 ADD SWAP5 SWAP4 DUP5 ADD SWAP4 ADD PUSH3 0x304 JUMP JUMPDEST SWAP1 SWAP2 POP DUP11 DUP1 MSTORE DUP5 DUP12 KECCAK256 DUP8 DUP1 DUP6 ADD PUSH1 0x5 SHR DUP3 ADD SWAP3 DUP8 DUP7 LT PUSH3 0x39F JUMPI JUMPDEST SWAP2 DUP12 SWAP2 DUP7 SWAP6 SWAP5 SWAP4 ADD PUSH1 0x5 SHR ADD SWAP2 JUMPDEST DUP3 DUP2 LT PUSH3 0x390 JUMPI POP POP PUSH3 0xEE JUMP JUMPDEST DUP14 DUP2 SSTORE DUP6 SWAP5 POP DUP12 SWAP2 ADD PUSH3 0x380 JUMP JUMPDEST SWAP3 POP DUP2 SWAP3 PUSH3 0x372 JUMP JUMPDEST PUSH4 0x4E487B71 PUSH1 0xE0 SHL DUP12 MSTORE PUSH1 0x22 PUSH1 0x4 MSTORE PUSH1 0x24 DUP12 REVERT JUMPDEST SWAP1 PUSH1 0x7F AND SWAP1 PUSH3 0xD9 JUMP JUMPDEST PUSH4 0x4E487B71 PUSH1 0xE0 SHL PUSH1 0x0 MSTORE PUSH1 0x41 PUSH1 0x4 MSTORE PUSH1 0x24 PUSH1 0x0 REVERT JUMPDEST PUSH1 0x0 DUP1 REVERT JUMPDEST PUSH1 0x40 DUP1 MLOAD SWAP2 SWAP1 DUP3 ADD PUSH1 0x1 PUSH1 0x1 PUSH1 0x40 SHL SUB DUP2 GT DUP4 DUP3 LT OR PUSH3 0x3C8 JUMPI PUSH1 0x40 MSTORE JUMP INVALID PUSH1 0x80 DUP1 PUSH1 0x40 MSTORE PUSH1 0x4 CALLDATASIZE LT ISZERO PUSH2 0x13 JUMPI PUSH1 0x0 DUP1 REVERT JUMPDEST PUSH1 0x0 SWAP1 DUP2 CALLDATALOAD PUSH1 0xE0 SHR SWAP1 DUP2 PUSH4 0x1FFC9A7 EQ PUSH2 0x1A0E JUMPI POP DUP1 PUSH4 0x6FDDE03 EQ PUSH2 0x1963 JUMPI DUP1 PUSH4 0x722FB62 EQ PUSH2 0x190E JUMPI DUP1 PUSH4 0x81812FC EQ PUSH2 0x18EF JUMPI DUP1 PUSH4 0x845FFF5 EQ PUSH2 0x184E JUMPI DUP1 PUSH4 0x95EA7B3 EQ PUSH2 0x176B JUMPI DUP1 PUSH4 0x141961BC EQ PUSH2 0x1697 JUMPI DUP1 PUSH4 0x150B7A02 EQ PUSH2 0x1673 JUMPI DUP1 PUSH4 0x18160DDD EQ PUSH2 0x1655 JUMPI DUP1 PUSH4 0x18E97FD1 EQ PUSH2 0x1609 JUMPI DUP1 PUSH4 0x1BAF5146 EQ PUSH2 0x15C9 JUMPI DUP1 PUSH4 0x23B872DD EQ PUSH2 0x15B1 JUMPI DUP1 PUSH4 0x24A9D853 EQ PUSH2 0x1590 JUMPI DUP1 PUSH4 0x253ECA1F EQ PUSH2 0x1565 JUMPI DUP1 PUSH4 0x2F745C59 EQ PUSH2 0x14E0 JUMPI DUP1 PUSH4 0x42842E0E EQ PUSH2 0x14B2 JUMPI DUP1 PUSH4 0x4AB7B7B1 EQ PUSH2 0x1463 JUMPI DUP1 PUSH4 0x4B1CEF85 EQ PUSH2 0x1401 JUMPI DUP1 PUSH4 0x4F6CCCE7 EQ PUSH2 0x13AB JUMPI DUP1 PUSH4 0x6352211E EQ PUSH2 0x137A JUMPI DUP1 PUSH4 0x65360843 EQ PUSH2 0x1328 JUMPI DUP1 PUSH4 0x659706E6 EQ PUSH2 0x1258 JUMPI DUP1 PUSH4 0x69826A94 EQ PUSH2 0x122B JUMPI DUP1 PUSH4 0x70A08231 EQ PUSH2 0x11FF JUMPI DUP1 PUSH4 0x710DF4FC EQ PUSH2 0x115F JUMPI DUP1 PUSH4 0x715018A6 EQ PUSH2 0x1102 JUMPI DUP1 PUSH4 0x75794A3C EQ PUSH2 0x10E4 JUMPI DUP1 PUSH4 0x7903A756 EQ PUSH2 0x10C6 JUMPI DUP1 PUSH4 0x7B276AE9 EQ PUSH2 0xEA2 JUMPI DUP1 PUSH4 0x8AB9B92A EQ PUSH2 0x872 JUMPI DUP1 PUSH4 0x8DA5CB5B EQ PUSH2 0xE79 JUMPI DUP1 PUSH4 0x95D89B41 EQ PUSH2 0xD95 JUMPI DUP1 PUSH4 0x966F77D4 EQ PUSH2 0xA77 JUMPI DUP1 PUSH4 0x99071190 EQ PUSH2 0x99F JUMPI DUP1 PUSH4 0xA22CB465 EQ PUSH2 0x8F6 JUMPI DUP1 PUSH4 0xA3056BF9 EQ PUSH2 0x8C9 JUMPI DUP1 PUSH4 0xA7801DB6 EQ PUSH2 0x89F JUMPI DUP1 PUSH4 0xA944AF2D EQ PUSH2 0x872 JUMPI DUP1 PUSH4 0xAB2258A2 EQ PUSH2 0x7B1 JUMPI DUP1 PUSH4 0xAD11728B EQ PUSH2 0x76A JUMPI DUP1 PUSH4 0xB7F1564E EQ PUSH2 0x713 JUMPI DUP1 PUSH4 0xB88D4FDE EQ PUSH2 0x6EA JUMPI DUP1 PUSH4 0xBE51FA1A EQ PUSH2 0x5B8 JUMPI DUP1 PUSH4 0xBFE30D5E EQ PUSH2 0x58F JUMPI DUP1 PUSH4 0xC87B56DD EQ PUSH2 0x533 JUMPI DUP1 PUSH4 0xD96A094A EQ PUSH2 0x362 JUMPI DUP1 PUSH4 0xE985E9C5 EQ PUSH2 0x307 JUMPI DUP1 PUSH4 0xEB37D349 EQ PUSH2 0x2C8 JUMPI PUSH4 0xF2FDE38B EQ PUSH2 0x23C JUMPI PUSH1 0x0 DUP1 REVERT JUMPDEST CALLVALUE PUSH2 0x2C5 JUMPI PUSH1 0x20 CALLDATASIZE PUSH1 0x3 NOT ADD SLT PUSH2 0x2C5 JUMPI PUSH2 0x255 PUSH2 0x1CDE JUMP JUMPDEST PUSH2 0x25D PUSH2 0x259A JUMP JUMPDEST PUSH1 0x1 PUSH1 0x1 PUSH1 0xA0 SHL SUB SWAP1 DUP2 AND SWAP1 DUP2 ISZERO PUSH2 0x2AC JUMPI PUSH1 0xB SLOAD DUP3 PUSH1 0x1 PUSH1 0x1 PUSH1 0x60 SHL SUB PUSH1 0xA0 SHL DUP3 AND OR PUSH1 0xB SSTORE AND PUSH32 0x8BE0079C531659141344CD1FD0A4F28419497F9722A3DAAFE3B4186F6B6457E0 DUP4 DUP1 LOG3 DUP1 RETURN JUMPDEST PUSH1 0x40 MLOAD PUSH4 0x1E4FBDF7 PUSH1 0xE0 SHL DUP2 MSTORE PUSH1 0x4 DUP2 ADD DUP5 SWAP1 MSTORE PUSH1 0x24 SWAP1 REVERT JUMPDEST DUP1 REVERT JUMPDEST POP CALLVALUE PUSH2 0x2C5 JUMPI PUSH1 0x20 CALLDATASIZE PUSH1 0x3 NOT ADD SLT PUSH2 0x2C5 JUMPI PUSH1 0x20 SWAP1 PUSH1 0xFF SWAP1 PUSH1 0x40 SWAP1 PUSH1 0x1 PUSH1 0x1 PUSH1 0xA0 SHL SUB PUSH2 0x2F3 PUSH2 0x1CDE JUMP JUMPDEST AND DUP2 MSTORE PUSH1 0x13 DUP5 MSTORE KECCAK256 SLOAD AND PUSH1 0x40 MLOAD SWAP1 ISZERO ISZERO DUP2 MSTORE RETURN JUMPDEST POP CALLVALUE PUSH2 0x2C5 JUMPI PUSH1 0x40 CALLDATASIZE PUSH1 0x3 NOT ADD SLT PUSH2 0x2C5 JUMPI PUSH2 0x321 PUSH2 0x1CDE JUMP JUMPDEST PUSH1 0x1 PUSH1 0x1 PUSH1 0xA0 SHL SUB PUSH1 0x24 CALLDATALOAD DUP2 DUP2 AND SWAP3 SWAP1 DUP4 SWAP1 SUB PUSH2 0x35E JUMPI SWAP3 PUSH1 0xFF SWAP3 PUSH1 0x40 SWAP3 PUSH1 0x20 SWAP6 AND DUP3 MSTORE PUSH1 0x5 DUP6 MSTORE DUP3 DUP3 KECCAK256 SWAP1 DUP3 MSTORE DUP5 MSTORE KECCAK256 SLOAD AND PUSH1 0x40 MLOAD SWAP1 ISZERO ISZERO DUP2 MSTORE RETURN JUMPDEST DUP4 DUP1 REVERT JUMPDEST POP PUSH1 0x20 SWAP1 DUP2 PUSH1 0x3 NOT CALLDATASIZE ADD SLT PUSH2 0x2C5 JUMPI PUSH1 0x4 CALLDATALOAD PUSH2 0x37C PUSH2 0x25C6 JUMP JUMPDEST DUP1 DUP3 MSTORE PUSH1 0x15 DUP4 MSTORE PUSH1 0x40 DUP3 KECCAK256 SWAP2 PUSH1 0xFF PUSH1 0xA DUP5 ADD SLOAD AND ISZERO PUSH2 0x503 JUMPI PUSH1 0x6 DUP4 ADD SWAP3 DUP4 SLOAD PUSH1 0x5 DUP3 ADD SLOAD DUP2 LT ISZERO PUSH2 0x4D3 JUMPI PUSH2 0x3B4 DUP3 SLOAD CALLVALUE EQ PUSH2 0x2322 JUMP JUMPDEST PUSH2 0x3C2 DUP2 PUSH1 0x4 DUP5 ADD SLOAD PUSH2 0x1F14 JUMP JUMPDEST SWAP5 PUSH1 0x1 DUP3 ADD DUP1 SWAP3 GT PUSH2 0x4BF JUMPI SSTORE PUSH1 0x2 ADD DUP1 SLOAD PUSH2 0x3DF SWAP1 CALLVALUE SWAP1 PUSH2 0x1F14 JUMP JUMPDEST SWAP1 SSTORE PUSH1 0x40 MLOAD SWAP1 PUSH2 0x3EE DUP3 PUSH2 0x1BA9 JUMP JUMPDEST DUP1 DUP3 MSTORE CALLER ISZERO PUSH2 0x4A7 JUMPI POP PUSH2 0x402 DUP4 CALLER PUSH2 0x2862 JUMP JUMPDEST PUSH1 0x1 PUSH1 0x1 PUSH1 0xA0 SHL SUB DUP2 AND DUP1 PUSH2 0x42A JUMPI PUSH1 0x40 MLOAD PUSH4 0x7E273289 PUSH1 0xE0 SHL DUP2 MSTORE PUSH1 0x4 DUP2 ADD DUP7 SWAP1 MSTORE PUSH1 0x24 SWAP1 REVERT JUMPDEST ADDRESS SUB PUSH2 0x477 JUMPI POP PUSH2 0x43D SWAP1 DUP4 CALLER ADDRESS PUSH2 0x2761 JUMP JUMPDEST DUP2 PUSH1 0x40 MLOAD SWAP2 CALLVALUE DUP4 MSTORE PUSH32 0x5228AEAF7727CC737B9AE986BE18EF1AB61F0976F5513AB4E6160454EAF082B3 DUP6 CALLER SWAP5 LOG4 PUSH1 0x1 PUSH1 0xC SSTORE PUSH1 0x40 MLOAD SWAP1 DUP2 MSTORE RETURN JUMPDEST PUSH1 0x40 MLOAD PUSH4 0x64283D7B PUSH1 0xE0 SHL DUP2 MSTORE ADDRESS PUSH1 0x4 DUP3 ADD MSTORE PUSH1 0x24 DUP2 ADD DUP6 SWAP1 MSTORE PUSH1 0x1 PUSH1 0x1 PUSH1 0xA0 SHL SUB SWAP2 SWAP1 SWAP2 AND PUSH1 0x44 DUP3 ADD MSTORE PUSH1 0x64 SWAP1 REVERT JUMPDEST PUSH1 0x24 SWAP1 PUSH1 0x40 MLOAD SWAP1 PUSH4 0x32505749 PUSH1 0xE1 SHL DUP3 MSTORE PUSH1 0x4 DUP3 ADD MSTORE REVERT JUMPDEST PUSH4 0x4E487B71 PUSH1 0xE0 SHL DUP5 MSTORE PUSH1 0x11 PUSH1 0x4 MSTORE PUSH1 0x24 DUP5 REVERT JUMPDEST PUSH1 0x40 MLOAD PUSH3 0x461BCD PUSH1 0xE5 SHL DUP2 MSTORE PUSH1 0x4 DUP2 ADD DUP8 SWAP1 MSTORE PUSH1 0x8 PUSH1 0x24 DUP3 ADD MSTORE PUSH8 0x1CDBDB19081BDD5D PUSH1 0xC2 SHL PUSH1 0x44 DUP3 ADD MSTORE PUSH1 0x64 SWAP1 REVERT JUMPDEST PUSH1 0x40 MLOAD PUSH3 0x461BCD PUSH1 0xE5 SHL DUP2 MSTORE PUSH1 0x4 DUP2 ADD DUP6 SWAP1 MSTORE PUSH1 0x8 PUSH1 0x24 DUP3 ADD MSTORE PUSH8 0x696E616374697665 PUSH1 0xC0 SHL PUSH1 0x44 DUP3 ADD MSTORE PUSH1 0x64 SWAP1 REVERT JUMPDEST POP CALLVALUE PUSH2 0x2C5 JUMPI PUSH1 0x20 CALLDATASIZE PUSH1 0x3 NOT ADD SLT PUSH2 0x2C5 JUMPI PUSH2 0x58B SWAP1 PUSH1 0x4 CALLDATALOAD PUSH2 0x555 DUP2 PUSH2 0x249D JUMP JUMPDEST POP DUP2 MSTORE PUSH1 0xA PUSH1 0x20 MSTORE PUSH2 0x569 PUSH1 0x40 DUP3 KECCAK256 PUSH2 0x1BFD JUMP JUMPDEST SWAP1 PUSH1 0x40 MLOAD PUSH2 0x576 DUP2 PUSH2 0x1BA9 JUMP JUMPDEST MSTORE PUSH1 0x40 MLOAD SWAP2 DUP3 SWAP2 PUSH1 0x20 DUP4 MSTORE PUSH1 0x20 DUP4 ADD SWAP1 PUSH2 0x1AAF JUMP JUMPDEST SUB SWAP1 RETURN JUMPDEST POP CALLVALUE PUSH2 0x2C5 JUMPI DUP1 PUSH1 0x3 NOT CALLDATASIZE ADD SLT PUSH2 0x2C5 JUMPI PUSH1 0xF SLOAD PUSH1 0x40 MLOAD PUSH1 0x1 PUSH1 0x1 PUSH1 0xA0 SHL SUB SWAP1 SWAP2 AND DUP2 MSTORE PUSH1 0x20 SWAP1 RETURN JUMPDEST POP CALLVALUE PUSH2 0x2C5 JUMPI PUSH1 0x80 CALLDATASIZE PUSH1 0x3 NOT ADD SLT PUSH2 0x2C5 JUMPI PUSH2 0x5D2 PUSH2 0x1CDE JUMP JUMPDEST SWAP1 PUSH1 0x44 CALLDATALOAD PUSH1 0x64 CALLDATALOAD SWAP2 PUSH1 0x24 CALLDATALOAD DUP2 MSTORE PUSH1 0x20 SWAP4 PUSH1 0x15 PUSH1 0x20 MSTORE PUSH2 0x614 PUSH1 0x40 DUP4 KECCAK256 SWAP4 PUSH2 0x60E PUSH1 0x4 PUSH1 0x5 DUP8 ADD SLOAD SWAP7 PUSH2 0x605 DUP9 DUP6 LT PUSH2 0x1E72 JUMP JUMPDEST ADD SLOAD SWAP6 DUP7 PUSH2 0x1F14 JUMP JUMPDEST SWAP5 PUSH2 0x1F14 JUMP JUMPDEST SWAP2 SWAP3 PUSH1 0x1 PUSH1 0x1 PUSH1 0xA0 SHL SUB SWAP2 DUP3 AND SWAP3 DUP5 SWAP2 SWAP1 DUP1 JUMPDEST DUP3 DUP2 LT DUP1 PUSH2 0x6E1 JUMPI JUMPDEST ISZERO PUSH2 0x66D JUMPI DUP1 DUP5 MSTORE PUSH1 0x2 DUP10 MSTORE DUP6 DUP6 PUSH1 0x40 DUP7 KECCAK256 SLOAD AND EQ PUSH2 0x658 JUMPI JUMPDEST PUSH2 0x653 SWAP1 PUSH2 0x2356 JUMP JUMPDEST PUSH2 0x627 JUMP JUMPDEST SWAP6 PUSH2 0x665 PUSH2 0x653 SWAP2 PUSH2 0x2356 JUMP JUMPDEST SWAP7 SWAP1 POP PUSH2 0x64A JUMP JUMPDEST POP SWAP5 SWAP7 SWAP1 SWAP6 POP PUSH2 0x67C DUP8 PUSH2 0x1EE2 JUMP JUMPDEST SWAP7 DUP3 SWAP6 JUMPDEST DUP8 DUP2 LT DUP1 PUSH2 0x6D8 JUMPI JUMPDEST ISZERO PUSH2 0x6CA JUMPI DUP1 PUSH2 0x6AB SWAP2 DUP6 MSTORE PUSH1 0x2 DUP5 MSTORE DUP7 DUP7 PUSH1 0x40 DUP8 KECCAK256 SLOAD AND EQ PUSH2 0x6B0 JUMPI PUSH2 0x2356 JUMP JUMPDEST PUSH2 0x680 JUMP JUMPDEST DUP1 PUSH2 0x6C4 PUSH2 0x6BD DUP11 PUSH2 0x2356 JUMP JUMPDEST SWAP10 DUP13 PUSH2 0x1F21 JUMP JUMPDEST MSTORE PUSH2 0x2356 JUMP JUMPDEST PUSH1 0x40 MLOAD DUP1 PUSH2 0x58B DUP12 DUP3 PUSH2 0x1CA2 JUMP JUMPDEST POP DUP2 DUP8 LT PUSH2 0x689 JUMP JUMPDEST POP DUP8 DUP8 LT PUSH2 0x630 JUMP JUMPDEST POP CALLVALUE PUSH2 0x2C5 JUMPI PUSH2 0x710 PUSH2 0x6FC CALLDATASIZE PUSH2 0x1D47 JUMP JUMPDEST SWAP3 PUSH2 0x70B DUP3 DUP5 DUP4 SWAP6 SWAP5 SWAP6 PUSH2 0x1F6C JUMP JUMPDEST PUSH2 0x2761 JUMP JUMPDEST DUP1 RETURN JUMPDEST POP CALLVALUE PUSH2 0x2C5 JUMPI PUSH1 0x20 CALLDATASIZE PUSH1 0x3 NOT ADD SLT PUSH2 0x2C5 JUMPI PUSH1 0x4 CALLDATALOAD PUSH1 0x1 PUSH1 0x1 PUSH1 0x60 SHL SUB DUP2 AND DUP2 SUB PUSH2 0x766 JUMPI PUSH2 0x740 PUSH2 0x259A JUMP JUMPDEST PUSH1 0xF DUP1 SLOAD PUSH1 0x1 PUSH1 0x1 PUSH1 0xA0 SHL SUB AND PUSH1 0xA0 SWAP3 SWAP1 SWAP3 SHL PUSH1 0x1 PUSH1 0x1 PUSH1 0xA0 SHL SUB NOT AND SWAP2 SWAP1 SWAP2 OR SWAP1 SSTORE DUP1 RETURN JUMPDEST POP DUP1 REVERT JUMPDEST POP CALLVALUE PUSH2 0x2C5 JUMPI PUSH1 0x40 CALLDATASIZE PUSH1 0x3 NOT ADD SLT PUSH2 0x2C5 JUMPI PUSH2 0x710 PUSH2 0x787 PUSH2 0x1E3E JUMP JUMPDEST PUSH2 0x78F PUSH2 0x259A JUMP JUMPDEST PUSH1 0x4 CALLDATALOAD DUP4 MSTORE PUSH1 0x15 PUSH1 0x20 MSTORE PUSH1 0xA PUSH1 0x40 DUP5 KECCAK256 ADD SWAP1 PUSH1 0xFF DUP1 NOT DUP4 SLOAD AND SWAP2 ISZERO ISZERO AND OR SWAP1 SSTORE JUMP JUMPDEST POP CALLVALUE PUSH2 0x2C5 JUMPI PUSH2 0x7C0 CALLDATASIZE PUSH2 0x1DC9 JUMP JUMPDEST PUSH2 0x7D2 PUSH2 0x7CD DUP4 CALLER PUSH2 0x24D8 JUMP JUMPDEST PUSH2 0x1F35 JUMP JUMPDEST DUP2 DUP4 MSTORE PUSH1 0x11 PUSH1 0x20 MSTORE PUSH1 0x40 DUP4 KECCAK256 DUP1 SLOAD SWAP1 PUSH1 0x1 PUSH1 0x40 SHL DUP3 LT ISZERO PUSH2 0x85E JUMPI SWAP1 PUSH2 0x7FD SWAP2 PUSH1 0x1 DUP3 ADD DUP2 SSTORE PUSH2 0x1B57 JUMP JUMPDEST PUSH2 0x84A JUMPI DUP2 PUSH2 0x830 PUSH32 0x9E91988B4E615159C412500179DB71D2C90F69ABBD10034B51E6B7C343A61ACE SWAP4 PUSH2 0x844 SWAP4 PUSH2 0x2365 JUMP JUMPDEST PUSH1 0x40 MLOAD SWAP2 DUP3 SWAP2 PUSH1 0x20 DUP4 MSTORE PUSH1 0x20 DUP4 ADD SWAP1 PUSH2 0x1AAF JUMP JUMPDEST SUB SWAP1 LOG2 DUP1 RETURN JUMPDEST PUSH4 0x4E487B71 PUSH1 0xE0 SHL DUP5 MSTORE PUSH1 0x4 DUP5 SWAP1 MSTORE PUSH1 0x24 DUP5 REVERT JUMPDEST PUSH4 0x4E487B71 PUSH1 0xE0 SHL DUP6 MSTORE PUSH1 0x41 PUSH1 0x4 MSTORE PUSH1 0x24 DUP6 REVERT JUMPDEST POP CALLVALUE PUSH2 0x2C5 JUMPI PUSH1 0x20 CALLDATASIZE PUSH1 0x3 NOT ADD SLT PUSH2 0x2C5 JUMPI PUSH1 0xFF PUSH1 0x40 PUSH1 0x20 SWAP3 PUSH1 0x4 CALLDATALOAD DUP2 MSTORE PUSH1 0x14 DUP5 MSTORE KECCAK256 SLOAD AND PUSH1 0x40 MLOAD SWAP1 DUP2 MSTORE RETURN JUMPDEST POP CALLVALUE PUSH2 0x2C5 JUMPI PUSH1 0x20 CALLDATASIZE PUSH1 0x3 NOT ADD SLT PUSH2 0x2C5 JUMPI PUSH1 0x40 PUSH1 0x20 SWAP2 PUSH1 0x4 CALLDATALOAD DUP2 MSTORE PUSH1 0x16 DUP4 MSTORE KECCAK256 SLOAD PUSH1 0x40 MLOAD SWAP1 DUP2 MSTORE RETURN JUMPDEST POP CALLVALUE PUSH2 0x2C5 JUMPI PUSH1 0x20 CALLDATASIZE PUSH1 0x3 NOT ADD SLT PUSH2 0x2C5 JUMPI PUSH1 0x5 PUSH1 0x40 PUSH1 0x20 SWAP3 PUSH1 0x4 CALLDATALOAD DUP2 MSTORE PUSH1 0x15 DUP5 MSTORE KECCAK256 ADD SLOAD PUSH1 0x40 MLOAD SWAP1 DUP2 MSTORE RETURN JUMPDEST POP CALLVALUE PUSH2 0x2C5 JUMPI PUSH1 0x40 CALLDATASIZE PUSH1 0x3 NOT ADD SLT PUSH2 0x2C5 JUMPI PUSH2 0x910 PUSH2 0x1CDE JUMP JUMPDEST PUSH2 0x918 PUSH2 0x1E3E JUMP JUMPDEST PUSH1 0x1 PUSH1 0x1 PUSH1 0xA0 SHL SUB SWAP1 SWAP2 AND SWAP1 DUP2 ISZERO PUSH2 0x986 JUMPI CALLER DUP4 MSTORE PUSH1 0x5 PUSH1 0x20 MSTORE PUSH1 0x40 DUP4 KECCAK256 DUP3 DUP5 MSTORE PUSH1 0x20 MSTORE PUSH2 0x955 DUP2 PUSH1 0x40 DUP6 KECCAK256 SWAP1 PUSH1 0xFF DUP1 NOT DUP4 SLOAD AND SWAP2 ISZERO ISZERO AND OR SWAP1 SSTORE JUMP JUMPDEST PUSH1 0x40 MLOAD SWAP1 ISZERO ISZERO DUP2 MSTORE PUSH32 0x17307EAB39AB6107E8899845AD3D59BD9653F200F220920489CA2B5937696C31 PUSH1 0x20 CALLER SWAP3 LOG3 DUP1 RETURN JUMPDEST PUSH1 0x40 MLOAD PUSH4 0xB611743 PUSH1 0xE3 SHL DUP2 MSTORE PUSH1 0x4 DUP2 ADD DUP4 SWAP1 MSTORE PUSH1 0x24 SWAP1 REVERT JUMPDEST POP CALLVALUE PUSH2 0x2C5 JUMPI PUSH1 0x60 CALLDATASIZE PUSH1 0x3 NOT ADD SLT PUSH2 0x2C5 JUMPI PUSH2 0x9B9 PUSH2 0x1CDE JUMP JUMPDEST PUSH8 0xFFFFFFFFFFFFFFFF SWAP1 PUSH1 0x24 CALLDATALOAD DUP3 DUP2 GT PUSH2 0x35E JUMPI PUSH2 0x9DB SWAP1 CALLDATASIZE SWAP1 PUSH1 0x4 ADD PUSH2 0x1DAE JUMP JUMPDEST SWAP2 PUSH1 0x44 CALLDATALOAD SWAP1 DUP2 GT PUSH2 0x35E JUMPI SWAP2 PUSH32 0xE2406CFD356CFBE4E42D452BDE96D27F48C423E5F02B5D78695893308399519D PUSH1 0x20 SWAP5 SWAP3 PUSH2 0xA1C PUSH1 0x40 SWAP6 CALLDATASIZE SWAP1 PUSH1 0x4 ADD PUSH2 0x1DAE JUMP JUMPDEST SWAP1 PUSH2 0xA54 DUP3 PUSH2 0xA2C PUSH1 0xD SLOAD PUSH2 0x2356 JUMP JUMPDEST SWAP8 DUP9 SWAP8 DUP9 PUSH1 0xD SSTORE PUSH2 0xA3D DUP10 DUP7 PUSH2 0x25E9 JUMP JUMPDEST PUSH2 0xA47 DUP9 DUP11 PUSH2 0x2557 JUMP JUMPDEST DUP9 DUP2 MSTORE PUSH1 0x12 DUP12 MSTORE KECCAK256 PUSH2 0x2365 JUMP JUMPDEST PUSH2 0xA6C PUSH1 0x40 MLOAD SWAP3 DUP4 SWAP3 PUSH1 0x1 DUP1 PUSH1 0xA0 SHL SUB AND SWAP6 DUP4 PUSH2 0x2478 JUMP JUMPDEST SUB SWAP1 LOG3 PUSH1 0x40 MLOAD SWAP1 DUP2 MSTORE RETURN JUMPDEST POP CALLVALUE PUSH2 0x2C5 JUMPI PUSH1 0xC0 CALLDATASIZE PUSH1 0x3 NOT ADD SLT PUSH2 0x2C5 JUMPI PUSH1 0x64 CALLDATALOAD SWAP1 PUSH1 0x1 PUSH1 0x1 PUSH1 0xA0 SHL SUB DUP3 AND DUP3 SUB PUSH2 0x2C5 JUMPI PUSH8 0xFFFFFFFFFFFFFFFF SWAP2 PUSH1 0x84 CALLDATALOAD DUP4 DUP2 GT PUSH2 0xD91 JUMPI PUSH2 0xABF SWAP1 CALLDATASIZE SWAP1 PUSH1 0x4 ADD PUSH2 0x1DAE JUMP JUMPDEST SWAP1 PUSH1 0xA4 CALLDATALOAD DUP5 DUP2 GT PUSH2 0x35E JUMPI PUSH2 0xAD8 SWAP1 CALLDATASIZE SWAP1 PUSH1 0x4 ADD PUSH2 0x1DAE JUMP JUMPDEST SWAP2 PUSH2 0xAE1 PUSH2 0x259A JUMP JUMPDEST PUSH1 0x4 CALLDATALOAD ISZERO PUSH2 0xD66 JUMPI PUSH2 0xAF6 PUSH1 0x24 CALLDATALOAD ISZERO ISZERO PUSH2 0x2322 JUMP JUMPDEST PUSH2 0xB01 PUSH1 0xE SLOAD PUSH2 0x2356 JUMP JUMPDEST SWAP4 DUP5 PUSH1 0xE SSTORE PUSH1 0xD SLOAD SWAP6 PUSH1 0x1 DUP8 ADD DUP8 GT PUSH2 0xD52 JUMPI PUSH1 0x40 MLOAD SWAP1 PUSH2 0x160 DUP3 ADD SWAP1 DUP2 GT DUP3 DUP3 LT OR PUSH2 0xD3E JUMPI PUSH1 0x40 MSTORE PUSH1 0x24 CALLDATALOAD DUP2 MSTORE DUP6 DUP6 PUSH1 0x20 DUP4 ADD PUSH1 0x44 CALLDATALOAD DUP2 MSTORE PUSH1 0x40 DUP5 ADD DUP6 DUP2 MSTORE PUSH1 0x60 DUP6 ADD DUP7 DUP2 MSTORE PUSH1 0x80 DUP7 ADD PUSH1 0x1 DUP14 ADD DUP2 MSTORE PUSH1 0xA0 DUP8 ADD SWAP1 PUSH1 0x4 CALLDATALOAD DUP3 MSTORE PUSH1 0xC0 DUP9 ADD SWAP3 DUP10 DUP5 MSTORE PUSH1 0xE0 DUP10 ADD SWAP5 PUSH1 0x1 PUSH1 0xA0 SHL PUSH1 0x1 SWAP1 SUB DUP14 AND DUP7 MSTORE PUSH2 0x100 DUP11 ADD SWAP7 DUP13 DUP9 MSTORE PUSH2 0x120 DUP12 ADD SWAP9 DUP10 MSTORE PUSH2 0x140 DUP12 ADD SWAP10 PUSH1 0x1 DUP12 MSTORE DUP13 MSTORE PUSH1 0x15 PUSH1 0x20 MSTORE PUSH1 0x40 DUP13 KECCAK256 SWAP11 MLOAD DUP12 SSTORE MLOAD PUSH1 0x1 DUP12 ADD SSTORE MLOAD PUSH1 0x2 DUP11 ADD SSTORE MLOAD PUSH1 0x3 DUP10 ADD SSTORE MLOAD PUSH1 0x4 DUP9 ADD SSTORE MLOAD PUSH1 0x5 DUP8 ADD SSTORE MLOAD PUSH1 0x6 DUP7 ADD SSTORE PUSH1 0x7 DUP6 ADD SWAP1 PUSH1 0x1 PUSH1 0xA0 SHL PUSH1 0x1 SWAP1 SUB SWAP1 MLOAD AND PUSH1 0x1 PUSH1 0x1 PUSH1 0x60 SHL SUB PUSH1 0xA0 SHL DUP3 SLOAD AND OR SWAP1 SSTORE MLOAD PUSH1 0x8 DUP5 ADD SWAP1 PUSH2 0xBF6 SWAP2 PUSH2 0x2365 JUMP JUMPDEST MLOAD PUSH2 0xC04 SWAP1 PUSH1 0x9 DUP5 ADD PUSH2 0x2365 JUMP JUMPDEST MLOAD ISZERO ISZERO SWAP1 PUSH1 0xA ADD SWAP1 PUSH2 0xC21 SWAP2 SWAP1 PUSH1 0xFF DUP1 NOT DUP4 SLOAD AND SWAP2 ISZERO ISZERO AND OR SWAP1 SSTORE JUMP JUMPDEST DUP1 JUMPDEST PUSH1 0x4 CALLDATALOAD DUP2 LT PUSH2 0xC94 JUMPI POP POP POP PUSH32 0x980148007406A901EE582D50925DD005B8E1001DECF89A97A9B3C6A8C00FED3C PUSH1 0x1 PUSH1 0x20 SWAP6 PUSH2 0xA6C DUP7 SWAP5 PUSH1 0x40 MLOAD SWAP4 DUP5 SWAP4 ADD DUP4 MSTORE PUSH1 0x4 CALLDATALOAD DUP10 DUP5 ADD MSTORE PUSH1 0x24 CALLDATALOAD PUSH1 0x40 DUP5 ADD MSTORE PUSH1 0x44 CALLDATALOAD PUSH1 0x60 DUP5 ADD MSTORE PUSH1 0xA0 PUSH1 0x80 DUP5 ADD MSTORE PUSH1 0x1 DUP1 PUSH1 0xA0 SHL SUB AND SWAP6 PUSH1 0xA0 DUP4 ADD SWAP1 PUSH2 0x1AAF JUMP JUMPDEST PUSH1 0x1 SWAP1 DUP7 PUSH2 0xCA3 PUSH1 0xD SLOAD PUSH2 0x2356 JUMP JUMPDEST DUP1 PUSH1 0xD SSTORE PUSH2 0xCB1 DUP2 ADDRESS PUSH2 0x25E9 JUMP JUMPDEST PUSH2 0xCBB DUP7 DUP3 PUSH2 0x2557 JUMP JUMPDEST DUP1 DUP6 MSTORE PUSH1 0x12 PUSH1 0x20 MSTORE PUSH2 0xCD0 DUP9 PUSH1 0x40 DUP8 KECCAK256 PUSH2 0x2365 JUMP JUMPDEST DUP1 DUP6 MSTORE PUSH1 0x16 PUSH1 0x20 MSTORE DUP2 PUSH1 0x40 DUP7 KECCAK256 SSTORE DUP1 PUSH1 0x40 MLOAD PUSH32 0xE2406CFD356CFBE4E42D452BDE96D27F48C423E5F02B5D78695893308399519D ADDRESS SWAP2 DUP1 PUSH2 0xD11 DUP14 DUP13 DUP4 PUSH2 0x2478 JUMP JUMPDEST SUB SWAP1 LOG3 PUSH32 0x527094531BF06442BCB3D3012A8F7DF28FF05336A35FC2B21586161E3ECAEDAA DUP6 DUP1 LOG3 ADD PUSH2 0xC23 JUMP JUMPDEST PUSH4 0x4E487B71 PUSH1 0xE0 SHL DUP4 MSTORE PUSH1 0x41 PUSH1 0x4 MSTORE PUSH1 0x24 DUP4 REVERT JUMPDEST PUSH4 0x4E487B71 PUSH1 0xE0 SHL DUP3 MSTORE PUSH1 0x11 PUSH1 0x4 MSTORE PUSH1 0x24 DUP3 REVERT JUMPDEST PUSH1 0x64 PUSH1 0x40 MLOAD PUSH3 0x461BCD PUSH1 0xE5 SHL DUP2 MSTORE PUSH1 0x20 PUSH1 0x4 DUP3 ADD MSTORE PUSH1 0x4 PUSH1 0x24 DUP3 ADD MSTORE PUSH4 0x73697A65 PUSH1 0xE0 SHL PUSH1 0x44 DUP3 ADD MSTORE REVERT JUMPDEST DUP3 DUP1 REVERT JUMPDEST POP CALLVALUE PUSH2 0x2C5 JUMPI DUP1 PUSH1 0x3 NOT CALLDATASIZE ADD SLT PUSH2 0x2C5 JUMPI PUSH1 0x40 MLOAD SWAP1 DUP1 DUP3 PUSH1 0x1 SWAP3 PUSH1 0x1 SLOAD SWAP4 PUSH2 0xDBC DUP6 PUSH2 0x1B6F JUMP JUMPDEST SWAP4 DUP5 DUP5 MSTORE PUSH1 0x20 SWAP6 DUP7 PUSH1 0x1 DUP3 AND SWAP2 DUP3 PUSH1 0x0 EQ PUSH2 0xE57 JUMPI POP POP PUSH1 0x1 EQ PUSH2 0xDFD JUMPI JUMPDEST POP POP PUSH2 0xDE9 SWAP3 POP SUB DUP4 PUSH2 0x1BDB JUMP JUMPDEST PUSH2 0x58B PUSH1 0x40 MLOAD SWAP3 DUP3 DUP5 SWAP4 DUP5 MSTORE DUP4 ADD SWAP1 PUSH2 0x1AAF JUMP JUMPDEST SWAP1 DUP6 SWAP3 POP PUSH1 0x1 DUP3 MSTORE PUSH32 0xB10E2D527612073B26EECDFD717E6A320CF44B4AFAC2B0732D9FCBE2B7FA0CF6 JUMPDEST DUP6 DUP4 LT PUSH2 0xE3F JUMPI POP POP PUSH2 0xDE9 SWAP4 POP DUP3 ADD ADD CODESIZE DUP1 PUSH2 0xDDB JUMP JUMPDEST DUP1 SLOAD DUP4 DUP10 ADD DUP6 ADD MSTORE DUP8 SWAP5 POP DUP7 SWAP4 SWAP1 SWAP3 ADD SWAP2 DUP2 ADD PUSH2 0xE27 JUMP JUMPDEST SWAP3 POP SWAP4 POP POP PUSH2 0xDE9 SWAP5 SWAP2 POP PUSH1 0xFF NOT AND DUP3 DUP5 ADD MSTORE ISZERO ISZERO PUSH1 0x5 SHL DUP3 ADD ADD CODESIZE DUP1 PUSH2 0xDDB JUMP JUMPDEST POP CALLVALUE PUSH2 0x2C5 JUMPI DUP1 PUSH1 0x3 NOT CALLDATASIZE ADD SLT PUSH2 0x2C5 JUMPI PUSH1 0xB SLOAD PUSH1 0x40 MLOAD PUSH1 0x1 PUSH1 0x1 PUSH1 0xA0 SHL SUB SWAP1 SWAP2 AND DUP2 MSTORE PUSH1 0x20 SWAP1 RETURN JUMPDEST POP CALLVALUE PUSH2 0x2C5 JUMPI PUSH1 0x60 CALLDATASIZE PUSH1 0x3 NOT ADD SLT PUSH2 0x2C5 JUMPI PUSH1 0x4 CALLDATALOAD PUSH1 0x24 CALLDATALOAD SWAP1 PUSH1 0x44 CALLDATALOAD SWAP1 PUSH1 0xFF DUP3 AND DUP1 SWAP3 SUB PUSH2 0x35E JUMPI PUSH2 0xED2 PUSH2 0x25C6 JUMP JUMPDEST CALLER DUP5 MSTORE PUSH1 0x20 SWAP3 PUSH1 0x13 DUP5 MSTORE PUSH1 0xFF PUSH1 0x40 DUP7 KECCAK256 SLOAD AND DUP1 ISZERO PUSH2 0x10B2 JUMPI JUMPDEST PUSH2 0xEF4 SWAP1 PUSH2 0x2280 JUMP JUMPDEST DUP2 DUP6 MSTORE PUSH1 0x15 DUP5 MSTORE PUSH1 0x40 DUP6 KECCAK256 SWAP2 PUSH1 0x2 DUP4 ADD SLOAD SWAP2 PUSH1 0x3 DUP5 ADD SWAP3 PUSH2 0xF17 DUP5 SLOAD DUP1 SWAP3 PUSH2 0x1EA7 JUMP JUMPDEST DUP3 GT PUSH2 0x107E JUMPI PUSH1 0xF SLOAD PUSH1 0xA0 SHR DUP1 DUP4 MUL SWAP1 DUP4 DUP3 DIV EQ DUP4 ISZERO OR ISZERO PUSH2 0x106A JUMPI PUSH2 0x2710 SWAP1 DIV SWAP4 PUSH2 0xF4D DUP4 PUSH2 0xF47 DUP8 DUP3 PUSH2 0x1EA7 JUMP JUMPDEST SWAP4 PUSH2 0x1F14 JUMP JUMPDEST SWAP1 SSTORE PUSH1 0x1 DUP1 PUSH1 0xA0 SHL SUB DUP9 DUP1 DUP1 DUP1 DUP9 DUP6 PUSH1 0xF SLOAD AND GAS CALL PUSH2 0xF6A PUSH2 0x22F2 JUMP JUMPDEST POP ISZERO PUSH2 0x103A JUMPI PUSH1 0x7 DUP7 ADD DUP10 DUP1 DUP1 DUP1 DUP7 DUP7 DUP7 SLOAD AND GAS CALL PUSH2 0xF87 PUSH2 0x22F2 JUMP JUMPDEST POP ISZERO PUSH2 0x100A JUMPI PUSH1 0x80 PUSH1 0x40 SWAP8 SWAP5 PUSH32 0xB5E7231814419E5A5E888606251CB3B5325A5339501A127B8F728E49A0D86660 SWAP10 SWAP8 SWAP5 PUSH1 0x4 SWAP8 SWAP5 PUSH32 0x884B08FA7DB2AE8FE3F81203CBFFBB0C1DEF041173FC080064C31DD02C00AC65 SWAP5 SLOAD AND SWAP6 DUP11 MLOAD SWAP3 DUP4 MSTORE DUP13 DUP4 ADD MSTORE DUP10 DUP3 ADD MSTORE DUP8 PUSH1 0x60 DUP3 ADD MSTORE LOG3 ADD SLOAD SWAP4 DUP3 MLOAD SWAP2 DUP3 MSTORE TIMESTAMP SWAP1 DUP3 ADD MSTORE LOG2 PUSH1 0x1 PUSH1 0xC SSTORE DUP1 RETURN JUMPDEST PUSH1 0x40 MLOAD PUSH3 0x461BCD PUSH1 0xE5 SHL DUP2 MSTORE PUSH1 0x4 DUP2 ADD DUP11 SWAP1 MSTORE PUSH1 0x8 PUSH1 0x24 DUP3 ADD MSTORE PUSH8 0x3732BA103C3332B9 PUSH1 0xC1 SHL PUSH1 0x44 DUP3 ADD MSTORE PUSH1 0x64 SWAP1 REVERT JUMPDEST PUSH1 0x40 MLOAD PUSH3 0x461BCD PUSH1 0xE5 SHL DUP2 MSTORE PUSH1 0x4 DUP2 ADD DUP10 SWAP1 MSTORE PUSH1 0x8 PUSH1 0x24 DUP3 ADD MSTORE PUSH8 0x3332B2903C3332B9 PUSH1 0xC1 SHL PUSH1 0x44 DUP3 ADD MSTORE PUSH1 0x64 SWAP1 REVERT JUMPDEST PUSH4 0x4E487B71 PUSH1 0xE0 SHL DUP10 MSTORE PUSH1 0x11 PUSH1 0x4 MSTORE PUSH1 0x24 DUP10 REVERT JUMPDEST PUSH1 0x40 MLOAD PUSH3 0x461BCD PUSH1 0xE5 SHL DUP2 MSTORE PUSH1 0x4 DUP2 ADD DUP9 SWAP1 MSTORE PUSH1 0xC PUSH1 0x24 DUP3 ADD MSTORE PUSH12 0x1A5B9CDD59999A58DA595B9D PUSH1 0xA2 SHL PUSH1 0x44 DUP3 ADD MSTORE PUSH1 0x64 SWAP1 REVERT JUMPDEST POP PUSH1 0xB SLOAD PUSH1 0x1 PUSH1 0x1 PUSH1 0xA0 SHL SUB AND CALLER EQ PUSH2 0xEEB JUMP JUMPDEST POP CALLVALUE PUSH2 0x2C5 JUMPI DUP1 PUSH1 0x3 NOT CALLDATASIZE ADD SLT PUSH2 0x2C5 JUMPI PUSH1 0x20 PUSH1 0xE SLOAD PUSH1 0x40 MLOAD SWAP1 DUP2 MSTORE RETURN JUMPDEST POP CALLVALUE PUSH2 0x2C5 JUMPI DUP1 PUSH1 0x3 NOT CALLDATASIZE ADD SLT PUSH2 0x2C5 JUMPI PUSH1 0x20 PUSH1 0xD SLOAD PUSH1 0x40 MLOAD SWAP1 DUP2 MSTORE RETURN JUMPDEST POP CALLVALUE PUSH2 0x2C5 JUMPI DUP1 PUSH1 0x3 NOT CALLDATASIZE ADD SLT PUSH2 0x2C5 JUMPI PUSH2 0x111B PUSH2 0x259A JUMP JUMPDEST PUSH1 0xB DUP1 SLOAD PUSH1 0x1 PUSH1 0x1 PUSH1 0xA0 SHL SUB NOT DUP2 AND SWAP1 SWAP2 SSTORE DUP2 SWAP1 PUSH1 0x1 PUSH1 0x1 PUSH1 0xA0 SHL SUB AND PUSH32 0x8BE0079C531659141344CD1FD0A4F28419497F9722A3DAAFE3B4186F6B6457E0 DUP3 DUP1 LOG3 DUP1 RETURN JUMPDEST POP CALLVALUE PUSH2 0x2C5 JUMPI PUSH1 0x40 CALLDATASIZE PUSH1 0x3 NOT ADD SLT PUSH2 0x2C5 JUMPI PUSH1 0x4 CALLDATALOAD PUSH32 0x884019C0C70102251222E94DBDCFE9C7A24A3727F73C568086F9B72D6E32A354 PUSH1 0x20 PUSH1 0xFF PUSH2 0x11A1 PUSH2 0x1E2E JUMP JUMPDEST CALLER DUP7 MSTORE PUSH1 0x13 DUP4 MSTORE DUP2 PUSH1 0x40 DUP8 KECCAK256 SLOAD AND DUP1 ISZERO PUSH2 0x11EB JUMPI JUMPDEST PUSH2 0x11BF SWAP1 PUSH2 0x2280 JUMP JUMPDEST AND PUSH2 0x11CD PUSH1 0x64 DUP3 GT ISZERO PUSH2 0x224C JUMP JUMPDEST DUP4 DUP6 MSTORE PUSH1 0x10 DUP3 MSTORE PUSH1 0x40 DUP1 DUP7 KECCAK256 DUP1 SLOAD PUSH1 0xFF NOT AND DUP4 OR SWAP1 SSTORE MLOAD SWAP1 DUP2 MSTORE LOG2 DUP1 RETURN JUMPDEST POP PUSH1 0xB SLOAD PUSH1 0x1 PUSH1 0x1 PUSH1 0xA0 SHL SUB AND CALLER EQ PUSH2 0x11B6 JUMP JUMPDEST POP CALLVALUE PUSH2 0x2C5 JUMPI PUSH1 0x20 CALLDATASIZE PUSH1 0x3 NOT ADD SLT PUSH2 0x2C5 JUMPI PUSH1 0x20 PUSH2 0x1223 PUSH2 0x121E PUSH2 0x1CDE JUMP JUMPDEST PUSH2 0x22B9 JUMP JUMPDEST PUSH1 0x40 MLOAD SWAP1 DUP2 MSTORE RETURN JUMPDEST POP CALLVALUE PUSH2 0x2C5 JUMPI PUSH1 0x20 CALLDATASIZE PUSH1 0x3 NOT ADD SLT PUSH2 0x2C5 JUMPI PUSH1 0xFF PUSH1 0x40 PUSH1 0x20 SWAP3 PUSH1 0x4 CALLDATALOAD DUP2 MSTORE PUSH1 0x10 DUP5 MSTORE KECCAK256 SLOAD AND PUSH1 0x40 MLOAD SWAP1 DUP2 MSTORE RETURN JUMPDEST POP CALLVALUE PUSH2 0x2C5 JUMPI PUSH1 0x40 CALLDATASIZE PUSH1 0x3 NOT ADD SLT PUSH2 0x2C5 JUMPI PUSH1 0x4 CALLDATALOAD PUSH32 0xF55AC563519213A224AE53AEDF3B9B2D260693848A69E724323DBD3AE9CFD325 PUSH1 0x20 PUSH1 0xFF PUSH2 0x129A PUSH2 0x1E2E JUMP JUMPDEST CALLER DUP7 MSTORE PUSH1 0x13 DUP4 MSTORE DUP2 PUSH1 0x40 DUP8 KECCAK256 SLOAD AND DUP1 ISZERO PUSH2 0x1314 JUMPI JUMPDEST PUSH2 0x12B8 SWAP1 PUSH2 0x2280 JUMP JUMPDEST AND PUSH2 0x12C6 PUSH1 0x64 DUP3 GT ISZERO PUSH2 0x224C JUMP JUMPDEST DUP4 DUP6 MSTORE PUSH1 0x14 DUP3 MSTORE PUSH1 0x40 DUP6 KECCAK256 PUSH1 0xFF NOT SWAP1 DUP3 DUP3 DUP3 SLOAD AND OR SWAP1 SSTORE PUSH1 0x15 DUP4 MSTORE PUSH1 0x4 PUSH1 0x40 DUP8 KECCAK256 ADD SLOAD DUP1 PUSH2 0x12FB JUMPI JUMPDEST POP POP PUSH1 0x40 MLOAD SWAP1 DUP2 MSTORE LOG2 DUP1 RETURN JUMPDEST DUP7 MSTORE PUSH1 0x10 DUP4 MSTORE DUP2 PUSH1 0x40 DUP8 KECCAK256 SWAP2 DUP3 SLOAD AND OR SWAP1 SSTORE CODESIZE DUP1 PUSH2 0x12EF JUMP JUMPDEST POP PUSH1 0xB SLOAD PUSH1 0x1 PUSH1 0x1 PUSH1 0xA0 SHL SUB AND CALLER EQ PUSH2 0x12AF JUMP JUMPDEST POP CALLVALUE PUSH2 0x2C5 JUMPI PUSH1 0x40 CALLDATASIZE PUSH1 0x3 NOT ADD SLT PUSH2 0x2C5 JUMPI PUSH2 0x710 PUSH2 0x1345 PUSH2 0x1CDE JUMP JUMPDEST PUSH2 0x134D PUSH2 0x1E3E JUMP JUMPDEST SWAP1 PUSH2 0x1356 PUSH2 0x259A JUMP JUMPDEST PUSH1 0x1 DUP1 PUSH1 0xA0 SHL SUB AND DUP4 MSTORE PUSH1 0x13 PUSH1 0x20 MSTORE PUSH1 0x40 DUP4 KECCAK256 SWAP1 PUSH1 0xFF DUP1 NOT DUP4 SLOAD AND SWAP2 ISZERO ISZERO AND OR SWAP1 SSTORE JUMP JUMPDEST POP CALLVALUE PUSH2 0x2C5 JUMPI PUSH1 0x20 CALLDATASIZE PUSH1 0x3 NOT ADD SLT PUSH2 0x2C5 JUMPI PUSH1 0x20 PUSH2 0x1399 PUSH1 0x4 CALLDATALOAD PUSH2 0x249D JUMP JUMPDEST PUSH1 0x40 MLOAD PUSH1 0x1 PUSH1 0x1 PUSH1 0xA0 SHL SUB SWAP1 SWAP2 AND DUP2 MSTORE RETURN JUMPDEST POP CALLVALUE PUSH2 0x2C5 JUMPI PUSH1 0x20 CALLDATASIZE PUSH1 0x3 NOT ADD SLT PUSH2 0x2C5 JUMPI PUSH1 0x4 CALLDATALOAD SWAP1 PUSH1 0x8 SLOAD DUP3 LT ISZERO PUSH2 0x13E4 JUMPI PUSH1 0x20 PUSH2 0x13D6 DUP4 PUSH2 0x1B0A JUMP JUMPDEST SWAP1 SLOAD PUSH1 0x40 MLOAD SWAP2 PUSH1 0x3 SHL SHR DUP2 MSTORE RETURN JUMPDEST PUSH1 0x44 SWAP2 PUSH1 0x40 MLOAD SWAP2 PUSH4 0x295F44F7 PUSH1 0xE2 SHL DUP4 MSTORE PUSH1 0x4 DUP4 ADD MSTORE PUSH1 0x24 DUP3 ADD MSTORE REVERT JUMPDEST POP CALLVALUE PUSH2 0x2C5 JUMPI PUSH1 0x40 PUSH2 0x1412 CALLDATASIZE PUSH2 0x1AEF JUMP JUMPDEST SWAP3 SWAP1 DUP2 MSTORE PUSH1 0x15 PUSH1 0x20 MSTORE KECCAK256 PUSH1 0x5 DUP2 ADD SLOAD DUP3 LT ISZERO PUSH2 0x1438 JUMPI PUSH1 0x20 SWAP2 PUSH1 0x4 PUSH2 0x1223 SWAP3 ADD SLOAD PUSH2 0x1F14 JUMP JUMPDEST PUSH1 0x40 MLOAD PUSH3 0x461BCD PUSH1 0xE5 SHL DUP2 MSTORE PUSH1 0x20 PUSH1 0x4 DUP3 ADD MSTORE PUSH1 0x3 PUSH1 0x24 DUP3 ADD MSTORE PUSH3 0x37B7B1 PUSH1 0xE9 SHL PUSH1 0x44 DUP3 ADD MSTORE PUSH1 0x64 SWAP1 REVERT JUMPDEST POP CALLVALUE PUSH2 0x2C5 JUMPI PUSH1 0x40 CALLDATASIZE PUSH1 0x3 NOT ADD SLT PUSH2 0x2C5 JUMPI PUSH1 0x4 CALLDATALOAD PUSH32 0x884019C0C70102251222E94DBDCFE9C7A24A3727F73C568086F9B72D6E32A354 PUSH1 0x20 PUSH1 0xFF PUSH2 0x14A5 PUSH2 0x1E2E JUMP JUMPDEST PUSH2 0x11BF PUSH2 0x7CD DUP7 CALLER PUSH2 0x24D8 JUMP JUMPDEST POP CALLVALUE PUSH2 0x2C5 JUMPI PUSH2 0x710 PUSH2 0x14C4 CALLDATASIZE PUSH2 0x1DF9 JUMP JUMPDEST SWAP1 PUSH1 0x40 MLOAD SWAP3 PUSH2 0x14D2 DUP5 PUSH2 0x1BA9 JUMP JUMPDEST DUP6 DUP5 MSTORE PUSH2 0x70B DUP4 DUP4 DUP4 PUSH2 0x1F6C JUMP JUMPDEST POP CALLVALUE PUSH2 0x2C5 JUMPI PUSH1 0x40 CALLDATASIZE PUSH1 0x3 NOT ADD SLT PUSH2 0x2C5 JUMPI PUSH2 0x14FA PUSH2 0x1CDE JUMP JUMPDEST SWAP1 PUSH1 0x24 CALLDATALOAD SWAP2 PUSH2 0x1508 DUP2 PUSH2 0x22B9 JUMP JUMPDEST DUP4 LT ISZERO PUSH2 0x1539 JUMPI PUSH1 0x1 PUSH1 0x1 PUSH1 0xA0 SHL SUB AND DUP2 MSTORE PUSH1 0x6 PUSH1 0x20 SWAP1 DUP2 MSTORE PUSH1 0x40 DUP1 DUP4 KECCAK256 SWAP4 DUP4 MSTORE SWAP3 DUP2 MSTORE SWAP1 DUP3 SWAP1 KECCAK256 SLOAD SWAP2 MLOAD SWAP2 DUP3 MSTORE SWAP1 RETURN JUMPDEST PUSH1 0x40 MLOAD PUSH4 0x295F44F7 PUSH1 0xE2 SHL DUP2 MSTORE PUSH1 0x1 PUSH1 0x1 PUSH1 0xA0 SHL SUB SWAP2 SWAP1 SWAP2 AND PUSH1 0x4 DUP3 ADD MSTORE PUSH1 0x24 DUP2 ADD SWAP3 SWAP1 SWAP3 MSTORE POP PUSH1 0x44 SWAP1 REVERT JUMPDEST POP CALLVALUE PUSH2 0x2C5 JUMPI PUSH1 0x20 CALLDATASIZE PUSH1 0x3 NOT ADD SLT PUSH2 0x2C5 JUMPI PUSH2 0x830 PUSH1 0x40 PUSH2 0x58B SWAP3 PUSH1 0x4 CALLDATALOAD DUP2 MSTORE PUSH1 0x12 PUSH1 0x20 MSTORE KECCAK256 PUSH2 0x1BFD JUMP JUMPDEST POP CALLVALUE PUSH2 0x2C5 JUMPI DUP1 PUSH1 0x3 NOT CALLDATASIZE ADD SLT PUSH2 0x2C5 JUMPI PUSH1 0x20 PUSH1 0xF SLOAD PUSH1 0xA0 SHR PUSH1 0x40 MLOAD SWAP1 DUP2 MSTORE RETURN JUMPDEST POP CALLVALUE PUSH2 0x2C5 JUMPI PUSH2 0x710 PUSH2 0x15C3 CALLDATASIZE PUSH2 0x1DF9 JUMP JUMPDEST SWAP2 PUSH2 0x1F6C JUMP JUMPDEST POP CALLVALUE PUSH2 0x2C5 JUMPI PUSH1 0x20 CALLDATASIZE PUSH1 0x3 NOT ADD SLT PUSH2 0x2C5 JUMPI PUSH2 0x15E3 PUSH2 0x1CDE JUMP JUMPDEST PUSH2 0x15EB PUSH2 0x259A JUMP JUMPDEST PUSH1 0x1 DUP1 PUSH1 0xA0 SHL SUB AND PUSH1 0x1 PUSH1 0x1 PUSH1 0x60 SHL SUB PUSH1 0xA0 SHL PUSH1 0xF SLOAD AND OR PUSH1 0xF SSTORE DUP1 RETURN JUMPDEST POP CALLVALUE PUSH2 0x2C5 JUMPI PUSH2 0x844 PUSH32 0xA21868EAF3C7F76E3920B694616A9B525DABDAC615D6E3DA5F3890AAC442E05D PUSH2 0x163C CALLDATASIZE PUSH2 0x1DC9 JUMP JUMPDEST PUSH2 0x164B PUSH2 0x7CD DUP4 SWAP6 SWAP4 CALLER PUSH2 0x24D8 JUMP JUMPDEST PUSH2 0x830 DUP2 DUP6 PUSH2 0x2557 JUMP JUMPDEST POP CALLVALUE PUSH2 0x2C5 JUMPI DUP1 PUSH1 0x3 NOT CALLDATASIZE ADD SLT PUSH2 0x2C5 JUMPI PUSH1 0x20 PUSH1 0x8 SLOAD PUSH1 0x40 MLOAD SWAP1 DUP2 MSTORE RETURN JUMPDEST POP CALLVALUE PUSH2 0x2C5 JUMPI PUSH2 0x1682 CALLDATASIZE PUSH2 0x1D47 JUMP JUMPDEST POP POP POP POP PUSH1 0x20 PUSH1 0x40 MLOAD PUSH4 0xA85BD01 PUSH1 0xE1 SHL DUP2 MSTORE RETURN JUMPDEST POP CALLVALUE PUSH2 0x2C5 JUMPI PUSH1 0x20 CALLDATASIZE PUSH1 0x3 NOT ADD SLT PUSH2 0x2C5 JUMPI PUSH1 0x40 SWAP1 PUSH1 0x4 CALLDATALOAD DUP2 MSTORE PUSH1 0x15 PUSH1 0x20 MSTORE KECCAK256 PUSH1 0x20 DUP2 SLOAD PUSH2 0x175E PUSH1 0x1 DUP5 ADD SLOAD SWAP4 PUSH2 0x174F PUSH1 0x2 DUP3 ADD SLOAD SWAP4 PUSH1 0x3 DUP4 ADD SLOAD SWAP1 PUSH1 0x4 DUP5 ADD SLOAD PUSH1 0x5 DUP6 ADD SLOAD PUSH1 0x6 DUP7 ADD SLOAD SWAP1 PUSH1 0x1 DUP1 PUSH1 0xA0 SHL SUB PUSH1 0x7 DUP9 ADD SLOAD AND SWAP3 PUSH2 0x16FD PUSH1 0x8 DUP10 ADD PUSH2 0x1BFD JUMP JUMPDEST SWAP6 PUSH1 0xFF PUSH1 0xA PUSH2 0x170E PUSH1 0x9 DUP13 ADD PUSH2 0x1BFD JUMP JUMPDEST SWAP11 ADD SLOAD AND SWAP11 PUSH1 0x40 MLOAD SWAP14 DUP15 SWAP14 DUP15 PUSH2 0x160 SWAP10 DUP2 MSTORE ADD MSTORE PUSH1 0x40 DUP14 ADD MSTORE PUSH1 0x60 DUP13 ADD MSTORE PUSH1 0x80 DUP12 ADD MSTORE PUSH1 0xA0 DUP11 ADD MSTORE PUSH1 0xC0 DUP10 ADD MSTORE PUSH1 0xE0 DUP9 ADD MSTORE DUP1 PUSH2 0x100 DUP9 ADD MSTORE DUP7 ADD SWAP1 PUSH2 0x1AAF JUMP JUMPDEST SWAP1 DUP5 DUP3 SUB PUSH2 0x120 DUP7 ADD MSTORE PUSH2 0x1AAF JUMP JUMPDEST SWAP1 ISZERO ISZERO PUSH2 0x140 DUP4 ADD MSTORE SUB SWAP1 RETURN JUMPDEST POP CALLVALUE PUSH2 0x2C5 JUMPI PUSH1 0x40 CALLDATASIZE PUSH1 0x3 NOT ADD SLT PUSH2 0x2C5 JUMPI PUSH2 0x1785 PUSH2 0x1CDE JUMP JUMPDEST PUSH1 0x24 CALLDATALOAD PUSH2 0x1791 DUP2 PUSH2 0x249D JUMP JUMPDEST CALLER ISZERO ISZERO DUP1 PUSH2 0x183B JUMPI JUMPDEST DUP1 PUSH2 0x1810 JUMPI JUMPDEST PUSH2 0x17F8 JUMPI PUSH1 0x1 PUSH1 0x1 PUSH1 0xA0 SHL SUB SWAP3 DUP4 AND SWAP3 DUP3 SWAP2 DUP5 SWAP2 AND PUSH32 0x8C5BE1E5EBEC7D5BD14F71427D1E84F3DD0314C0F7B2291E5B200AC8C7C3B925 DUP7 DUP1 LOG4 DUP3 MSTORE PUSH1 0x4 PUSH1 0x20 MSTORE PUSH1 0x40 DUP3 KECCAK256 DUP1 SLOAD PUSH1 0x1 PUSH1 0x1 PUSH1 0xA0 SHL SUB NOT AND SWAP1 SWAP2 OR SWAP1 SSTORE DUP1 RETURN JUMPDEST PUSH1 0x40 MLOAD PUSH4 0xA9FBF51F PUSH1 0xE0 SHL DUP2 MSTORE CALLER PUSH1 0x4 DUP3 ADD MSTORE PUSH1 0x24 SWAP1 REVERT JUMPDEST POP PUSH1 0x1 PUSH1 0x1 PUSH1 0xA0 SHL SUB DUP2 AND DUP5 MSTORE PUSH1 0x5 PUSH1 0x20 SWAP1 DUP2 MSTORE PUSH1 0x40 DUP1 DUP7 KECCAK256 CALLER DUP8 MSTORE SWAP1 SWAP2 MSTORE DUP5 KECCAK256 SLOAD PUSH1 0xFF AND ISZERO PUSH2 0x17A0 JUMP JUMPDEST POP PUSH1 0x1 PUSH1 0x1 PUSH1 0xA0 SHL SUB DUP2 AND CALLER EQ ISZERO PUSH2 0x179A JUMP JUMPDEST POP CALLVALUE PUSH2 0x2C5 JUMPI PUSH1 0x60 CALLDATASIZE PUSH1 0x3 NOT ADD SLT PUSH2 0x2C5 JUMPI PUSH1 0x24 CALLDATALOAD PUSH1 0x44 CALLDATALOAD SWAP1 PUSH1 0x4 CALLDATALOAD DUP4 MSTORE PUSH1 0x15 PUSH1 0x20 MSTORE PUSH1 0x40 DUP4 KECCAK256 SWAP2 PUSH2 0x188F DUP3 PUSH1 0x5 DUP6 ADD SLOAD PUSH2 0x188A DUP2 DUP4 LT PUSH2 0x1E72 JUMP JUMPDEST PUSH2 0x1EA7 JUMP JUMPDEST SWAP1 DUP1 DUP3 GT PUSH2 0x18E7 JUMPI JUMPDEST POP SWAP2 PUSH1 0x4 PUSH2 0x18A5 DUP5 PUSH2 0x1EE2 JUMP JUMPDEST SWAP5 SWAP2 ADD SLOAD SWAP1 JUMPDEST DUP4 DUP2 LT PUSH2 0x18C0 JUMPI PUSH1 0x40 MLOAD DUP1 PUSH2 0x58B DUP8 DUP3 PUSH2 0x1CA2 JUMP JUMPDEST DUP1 PUSH2 0x18D6 PUSH1 0x1 SWAP3 PUSH2 0x18D1 DUP7 DUP7 PUSH2 0x1F14 JUMP JUMPDEST PUSH2 0x1F14 JUMP JUMPDEST PUSH2 0x18E0 DUP3 DUP9 PUSH2 0x1F21 JUMP JUMPDEST MSTORE ADD PUSH2 0x18AB JUMP JUMPDEST SWAP1 POP CODESIZE PUSH2 0x1898 JUMP JUMPDEST POP CALLVALUE PUSH2 0x2C5 JUMPI PUSH1 0x20 CALLDATASIZE PUSH1 0x3 NOT ADD SLT PUSH2 0x2C5 JUMPI PUSH1 0x20 PUSH2 0x1399 PUSH1 0x4 CALLDATALOAD PUSH2 0x1E4D JUMP JUMPDEST POP CALLVALUE PUSH2 0x2C5 JUMPI PUSH2 0x191D CALLDATASIZE PUSH2 0x1AEF JUMP JUMPDEST SWAP1 DUP3 MSTORE PUSH1 0x11 PUSH1 0x20 MSTORE PUSH1 0x40 DUP3 KECCAK256 SWAP1 DUP2 SLOAD DUP2 LT ISZERO PUSH2 0xD91 JUMPI PUSH2 0x193C SWAP2 PUSH2 0x1B57 JUMP JUMPDEST SWAP2 SWAP1 SWAP2 PUSH2 0x194F JUMPI PUSH2 0x58B PUSH2 0x830 DUP4 PUSH2 0x1BFD JUMP JUMPDEST PUSH4 0x4E487B71 PUSH1 0xE0 SHL DUP2 MSTORE PUSH1 0x4 DUP2 SWAP1 MSTORE PUSH1 0x24 SWAP1 REVERT JUMPDEST POP CALLVALUE PUSH2 0x2C5 JUMPI DUP1 PUSH1 0x3 NOT CALLDATASIZE ADD SLT PUSH2 0x2C5 JUMPI PUSH1 0x40 MLOAD SWAP1 DUP1 DUP3 DUP3 SLOAD SWAP2 PUSH2 0x1986 DUP4 PUSH2 0x1B6F JUMP JUMPDEST SWAP3 DUP4 DUP4 MSTORE PUSH1 0x20 SWAP5 PUSH1 0x1 SWAP2 DUP7 PUSH1 0x1 DUP3 AND SWAP2 DUP3 PUSH1 0x0 EQ PUSH2 0xE57 JUMPI POP POP PUSH1 0x1 EQ PUSH2 0x19B5 JUMPI POP POP PUSH2 0xDE9 SWAP3 POP SUB DUP4 PUSH2 0x1BDB JUMP JUMPDEST SWAP1 DUP6 SWAP3 POP DUP2 DUP1 MSTORE PUSH32 0x290DECD9548B62A8D60345A988386FC84BA6BC95484008F6362F93160EF3E563 JUMPDEST DUP6 DUP4 LT PUSH2 0x19F6 JUMPI POP POP PUSH2 0xDE9 SWAP4 POP DUP3 ADD ADD CODESIZE DUP1 PUSH2 0xDDB JUMP JUMPDEST DUP1 SLOAD DUP4 DUP10 ADD DUP6 ADD MSTORE DUP8 SWAP5 POP DUP7 SWAP4 SWAP1 SWAP3 ADD SWAP2 DUP2 ADD PUSH2 0x19DE JUMP JUMPDEST SWAP1 POP CALLVALUE PUSH2 0x766 JUMPI PUSH1 0x20 CALLDATASIZE PUSH1 0x3 NOT ADD SLT PUSH2 0x766 JUMPI PUSH1 0x4 CALLDATALOAD PUSH4 0xFFFFFFFF PUSH1 0xE0 SHL DUP2 AND DUP1 SWAP2 SUB PUSH2 0xD91 JUMPI PUSH1 0x20 SWAP3 POP PUSH4 0x24832483 PUSH1 0xE1 SHL DUP2 EQ SWAP1 DUP2 ISZERO PUSH2 0x1A52 JUMPI JUMPDEST POP ISZERO ISZERO DUP2 MSTORE RETURN JUMPDEST PUSH4 0x780E9D63 PUSH1 0xE0 SHL DUP2 EQ SWAP2 POP DUP2 ISZERO PUSH2 0x1A6C JUMPI JUMPDEST POP CODESIZE PUSH2 0x1A4B JUMP JUMPDEST PUSH4 0x80AC58CD PUSH1 0xE0 SHL DUP2 EQ SWAP2 POP DUP2 ISZERO PUSH2 0x1A9E JUMPI JUMPDEST DUP2 ISZERO PUSH2 0x1A8D JUMPI JUMPDEST POP CODESIZE PUSH2 0x1A65 JUMP JUMPDEST PUSH4 0x1FFC9A7 PUSH1 0xE0 SHL EQ SWAP1 POP CODESIZE PUSH2 0x1A86 JUMP JUMPDEST PUSH4 0x5B5E139F PUSH1 0xE0 SHL DUP2 EQ SWAP2 POP PUSH2 0x1A7F JUMP JUMPDEST SWAP2 SWAP1 DUP3 MLOAD SWAP3 DUP4 DUP3 MSTORE PUSH1 0x0 JUMPDEST DUP5 DUP2 LT PUSH2 0x1ADB JUMPI POP POP DUP3 PUSH1 0x0 PUSH1 0x20 DUP1 SWAP5 SWAP6 DUP5 ADD ADD MSTORE PUSH1 0x1F DUP1 NOT SWAP2 ADD AND ADD ADD SWAP1 JUMP JUMPDEST PUSH1 0x20 DUP2 DUP4 ADD DUP2 ADD MLOAD DUP5 DUP4 ADD DUP3 ADD MSTORE ADD PUSH2 0x1ABA JUMP JUMPDEST PUSH1 0x40 SWAP1 PUSH1 0x3 NOT ADD SLT PUSH2 0x1B05 JUMPI PUSH1 0x4 CALLDATALOAD SWAP1 PUSH1 0x24 CALLDATALOAD SWAP1 JUMP JUMPDEST PUSH1 0x0 DUP1 REVERT JUMPDEST PUSH1 0x8 SLOAD DUP2 LT ISZERO PUSH2 0x1B41 JUMPI PUSH1 0x8 PUSH1 0x0 MSTORE PUSH32 0xF3F7A9FE364FAAB93B216DA50A3214154F22A0A2B415B23A84C8169E8B636EE3 ADD SWAP1 PUSH1 0x0 SWAP1 JUMP JUMPDEST PUSH4 0x4E487B71 PUSH1 0xE0 SHL PUSH1 0x0 MSTORE PUSH1 0x32 PUSH1 0x4 MSTORE PUSH1 0x24 PUSH1 0x0 REVERT JUMPDEST DUP1 SLOAD DUP3 LT ISZERO PUSH2 0x1B41 JUMPI PUSH1 0x0 MSTORE PUSH1 0x20 PUSH1 0x0 KECCAK256 ADD SWAP1 PUSH1 0x0 SWAP1 JUMP JUMPDEST SWAP1 PUSH1 0x1 DUP3 DUP2 SHR SWAP3 AND DUP1 ISZERO PUSH2 0x1B9F JUMPI JUMPDEST PUSH1 0x20 DUP4 LT EQ PUSH2 0x1B89 JUMPI JUMP JUMPDEST PUSH4 0x4E487B71 PUSH1 0xE0 SHL PUSH1 0x0 MSTORE PUSH1 0x22 PUSH1 0x4 MSTORE PUSH1 0x24 PUSH1 0x0 REVERT JUMPDEST SWAP2 PUSH1 0x7F AND SWAP2 PUSH2 0x1B7E JUMP JUMPDEST PUSH1 0x20 DUP2 ADD SWAP1 DUP2 LT PUSH8 0xFFFFFFFFFFFFFFFF DUP3 GT OR PUSH2 0x1BC5 JUMPI PUSH1 0x40 MSTORE JUMP JUMPDEST PUSH4 0x4E487B71 PUSH1 0xE0 SHL PUSH1 0x0 MSTORE PUSH1 0x41 PUSH1 0x4 MSTORE PUSH1 0x24 PUSH1 0x0 REVERT JUMPDEST SWAP1 PUSH1 0x1F DUP1 NOT SWAP2 ADD AND DUP2 ADD SWAP1 DUP2 LT PUSH8 0xFFFFFFFFFFFFFFFF DUP3 GT OR PUSH2 0x1BC5 JUMPI PUSH1 0x40 MSTORE JUMP JUMPDEST SWAP1 PUSH1 0x40 MLOAD SWAP2 DUP3 PUSH1 0x0 DUP3 SLOAD PUSH2 0x1C10 DUP2 PUSH2 0x1B6F JUMP JUMPDEST SWAP1 DUP2 DUP5 MSTORE PUSH1 0x20 SWAP5 PUSH1 0x1 SWAP2 PUSH1 0x1 DUP2 AND SWAP1 DUP2 PUSH1 0x0 EQ PUSH2 0x1C80 JUMPI POP PUSH1 0x1 EQ PUSH2 0x1C41 JUMPI JUMPDEST POP POP POP PUSH2 0x1C3F SWAP3 POP SUB DUP4 PUSH2 0x1BDB JUMP JUMPDEST JUMP JUMPDEST PUSH1 0x0 SWAP1 DUP2 MSTORE DUP6 DUP2 KECCAK256 SWAP6 SWAP4 POP SWAP2 SWAP1 JUMPDEST DUP2 DUP4 LT PUSH2 0x1C68 JUMPI POP POP PUSH2 0x1C3F SWAP4 POP DUP3 ADD ADD CODESIZE DUP1 DUP1 PUSH2 0x1C30 JUMP JUMPDEST DUP6 SLOAD DUP9 DUP5 ADD DUP6 ADD MSTORE SWAP5 DUP6 ADD SWAP5 DUP8 SWAP5 POP SWAP2 DUP4 ADD SWAP2 PUSH2 0x1C4F JUMP JUMPDEST SWAP3 POP POP POP PUSH2 0x1C3F SWAP5 SWAP3 POP PUSH1 0xFF NOT AND DUP3 DUP5 ADD MSTORE ISZERO ISZERO PUSH1 0x5 SHL DUP3 ADD ADD CODESIZE DUP1 DUP1 PUSH2 0x1C30 JUMP JUMPDEST PUSH1 0x20 SWAP1 PUSH1 0x20 PUSH1 0x40 DUP2 DUP4 ADD SWAP3 DUP3 DUP2 MSTORE DUP6 MLOAD DUP1 SWAP5 MSTORE ADD SWAP4 ADD SWAP2 PUSH1 0x0 JUMPDEST DUP3 DUP2 LT PUSH2 0x1CCA JUMPI POP POP POP POP SWAP1 JUMP JUMPDEST DUP4 MLOAD DUP6 MSTORE SWAP4 DUP2 ADD SWAP4 SWAP3 DUP2 ADD SWAP3 PUSH1 0x1 ADD PUSH2 0x1CBC JUMP JUMPDEST PUSH1 0x4 CALLDATALOAD SWAP1 PUSH1 0x1 PUSH1 0x1 PUSH1 0xA0 SHL SUB DUP3 AND DUP3 SUB PUSH2 0x1B05 JUMPI JUMP JUMPDEST PUSH8 0xFFFFFFFFFFFFFFFF DUP2 GT PUSH2 0x1BC5 JUMPI PUSH1 0x1F ADD PUSH1 0x1F NOT AND PUSH1 0x20 ADD SWAP1 JUMP JUMPDEST SWAP3 SWAP2 SWAP3 PUSH2 0x1D1C DUP3 PUSH2 0x1CF4 JUMP JUMPDEST SWAP2 PUSH2 0x1D2A PUSH1 0x40 MLOAD SWAP4 DUP5 PUSH2 0x1BDB JUMP JUMPDEST DUP3 SWAP5 DUP2 DUP5 MSTORE DUP2 DUP4 ADD GT PUSH2 0x1B05 JUMPI DUP3 DUP2 PUSH1 0x20 SWAP4 DUP5 PUSH1 0x0 SWAP7 ADD CALLDATACOPY ADD ADD MSTORE JUMP JUMPDEST SWAP1 PUSH1 0x80 PUSH1 0x3 NOT DUP4 ADD SLT PUSH2 0x1B05 JUMPI PUSH1 0x1 PUSH1 0x1 PUSH1 0xA0 SHL SUB SWAP2 PUSH1 0x4 CALLDATALOAD DUP4 DUP2 AND DUP2 SUB PUSH2 0x1B05 JUMPI SWAP3 PUSH1 0x24 CALLDATALOAD SWAP1 DUP2 AND DUP2 SUB PUSH2 0x1B05 JUMPI SWAP2 PUSH1 0x44 CALLDATALOAD SWAP2 PUSH1 0x64 CALLDATALOAD SWAP1 PUSH8 0xFFFFFFFFFFFFFFFF DUP3 GT PUSH2 0x1B05 JUMPI DUP1 PUSH1 0x23 DUP4 ADD SLT ISZERO PUSH2 0x1B05 JUMPI DUP2 PUSH1 0x24 PUSH2 0x1DAB SWAP4 PUSH1 0x4 ADD CALLDATALOAD SWAP2 ADD PUSH2 0x1D10 JUMP JUMPDEST SWAP1 JUMP JUMPDEST SWAP1 DUP1 PUSH1 0x1F DUP4 ADD SLT ISZERO PUSH2 0x1B05 JUMPI DUP2 PUSH1 0x20 PUSH2 0x1DAB SWAP4 CALLDATALOAD SWAP2 ADD PUSH2 0x1D10 JUMP JUMPDEST SWAP1 PUSH1 0x40 PUSH1 0x3 NOT DUP4 ADD SLT PUSH2 0x1B05 JUMPI PUSH1 0x4 CALLDATALOAD SWAP2 PUSH1 0x24 CALLDATALOAD SWAP1 PUSH8 0xFFFFFFFFFFFFFFFF DUP3 GT PUSH2 0x1B05 JUMPI PUSH2 0x1DAB SWAP2 PUSH1 0x4 ADD PUSH2 0x1DAE JUMP JUMPDEST PUSH1 0x60 SWAP1 PUSH1 0x3 NOT ADD SLT PUSH2 0x1B05 JUMPI PUSH1 0x1 PUSH1 0x1 PUSH1 0xA0 SHL SUB SWAP1 PUSH1 0x4 CALLDATALOAD DUP3 DUP2 AND DUP2 SUB PUSH2 0x1B05 JUMPI SWAP2 PUSH1 0x24 CALLDATALOAD SWAP1 DUP2 AND DUP2 SUB PUSH2 0x1B05 JUMPI SWAP1 PUSH1 0x44 CALLDATALOAD SWAP1 JUMP JUMPDEST PUSH1 0x24 CALLDATALOAD SWAP1 PUSH1 0xFF DUP3 AND DUP3 SUB PUSH2 0x1B05 JUMPI JUMP JUMPDEST PUSH1 0x24 CALLDATALOAD SWAP1 DUP2 ISZERO ISZERO DUP3 SUB PUSH2 0x1B05 JUMPI JUMP JUMPDEST PUSH2 0x1E56 DUP2 PUSH2 0x249D JUMP JUMPDEST POP PUSH1 0x0 SWAP1 DUP2 MSTORE PUSH1 0x4 PUSH1 0x20 MSTORE PUSH1 0x40 SWAP1 KECCAK256 SLOAD PUSH1 0x1 PUSH1 0x1 PUSH1 0xA0 SHL SUB AND SWAP1 JUMP JUMPDEST ISZERO PUSH2 0x1E79 JUMPI JUMP JUMPDEST PUSH1 0x40 MLOAD PUSH3 0x461BCD PUSH1 0xE5 SHL DUP2 MSTORE PUSH1 0x20 PUSH1 0x4 DUP3 ADD MSTORE PUSH1 0x6 PUSH1 0x24 DUP3 ADD MSTORE PUSH6 0x1BD9999CD95D PUSH1 0xD2 SHL PUSH1 0x44 DUP3 ADD MSTORE PUSH1 0x64 SWAP1 REVERT JUMPDEST SWAP2 SWAP1 DUP3 SUB SWAP2 DUP3 GT PUSH2 0x1EB4 JUMPI JUMP JUMPDEST PUSH4 0x4E487B71 PUSH1 0xE0 SHL PUSH1 0x0 MSTORE PUSH1 0x11 PUSH1 0x4 MSTORE PUSH1 0x24 PUSH1 0x0 REVERT JUMPDEST PUSH8 0xFFFFFFFFFFFFFFFF DUP2 GT PUSH2 0x1BC5 JUMPI PUSH1 0x5 SHL PUSH1 0x20 ADD SWAP1 JUMP JUMPDEST SWAP1 PUSH2 0x1EEC DUP3 PUSH2 0x1ECA JUMP JUMPDEST PUSH2 0x1EF9 PUSH1 0x40 MLOAD SWAP2 DUP3 PUSH2 0x1BDB JUMP JUMPDEST DUP3 DUP2 MSTORE DUP1 SWAP3 PUSH2 0x1F0A PUSH1 0x1F NOT SWAP2 PUSH2 0x1ECA JUMP JUMPDEST ADD SWAP1 PUSH1 0x20 CALLDATASIZE SWAP2 ADD CALLDATACOPY JUMP JUMPDEST SWAP2 SWAP1 DUP3 ADD DUP1 SWAP3 GT PUSH2 0x1EB4 JUMPI JUMP JUMPDEST DUP1 MLOAD DUP3 LT ISZERO PUSH2 0x1B41 JUMPI PUSH1 0x20 SWAP2 PUSH1 0x5 SHL ADD ADD SWAP1 JUMP JUMPDEST ISZERO PUSH2 0x1F3C JUMPI JUMP JUMPDEST PUSH1 0x40 MLOAD PUSH3 0x461BCD PUSH1 0xE5 SHL DUP2 MSTORE PUSH1 0x20 PUSH1 0x4 DUP3 ADD MSTORE PUSH1 0x8 PUSH1 0x24 DUP3 ADD MSTORE PUSH8 0xDCDEE840C2EAE8D PUSH1 0xC3 SHL PUSH1 0x44 DUP3 ADD MSTORE PUSH1 0x64 SWAP1 REVERT JUMPDEST SWAP1 PUSH1 0x1 PUSH1 0x1 PUSH1 0xA0 SHL SUB DUP1 DUP3 AND SWAP1 DUP2 ISZERO PUSH2 0x2233 JUMPI PUSH1 0x0 SWAP2 DUP6 DUP4 MSTORE PUSH1 0x20 SWAP3 PUSH1 0x2 DUP5 MSTORE PUSH1 0x40 SWAP4 DUP4 DUP6 DUP4 KECCAK256 SLOAD AND SWAP6 CALLER ISZERO ISZERO DUP1 PUSH2 0x21A5 JUMPI JUMPDEST POP DUP7 ISZERO DUP1 ISZERO PUSH2 0x2172 JUMPI JUMPDEST DUP5 DUP5 MSTORE PUSH1 0x3 DUP4 MSTORE DUP7 DUP5 KECCAK256 DUP1 SLOAD PUSH1 0x1 ADD SWAP1 SSTORE DUP10 DUP5 MSTORE PUSH1 0x2 DUP4 MSTORE DUP7 DUP5 KECCAK256 DUP1 SLOAD PUSH1 0x1 PUSH1 0x1 PUSH1 0xA0 SHL SUB NOT AND DUP7 OR SWAP1 SSTORE DUP10 DUP6 DUP10 PUSH32 0xDDF252AD1BE2C89B69C2B068FC378DAA952BA7F163C4A11628F55A4DF523B3EF DUP8 DUP1 LOG4 ISZERO PUSH2 0x20F6 JUMPI PUSH1 0x8 SLOAD DUP10 DUP5 MSTORE PUSH1 0x9 DUP4 MSTORE DUP1 DUP8 DUP6 KECCAK256 SSTORE PUSH1 0x1 PUSH1 0x40 SHL DUP2 LT ISZERO PUSH2 0x20E2 JUMPI DUP10 PUSH2 0x202F DUP3 PUSH1 0x1 PUSH2 0x2048 SWAP5 ADD PUSH1 0x8 SSTORE PUSH2 0x1B0A JUMP JUMPDEST SWAP1 SWAP2 SWAP1 DUP3 SLOAD SWAP1 PUSH1 0x3 SHL SWAP2 DUP3 SHL SWAP2 PUSH1 0x0 NOT SWAP1 SHL NOT AND OR SWAP1 SSTORE JUMP JUMPDEST DUP4 DUP8 SUB PUSH2 0x2090 JUMPI JUMPDEST POP POP POP POP DUP4 AND DUP3 SUB PUSH2 0x2062 JUMPI POP POP POP POP JUMP JUMPDEST MLOAD PUSH4 0x64283D7B PUSH1 0xE0 SHL DUP2 MSTORE PUSH1 0x1 PUSH1 0x1 PUSH1 0xA0 SHL SUB SWAP3 DUP4 AND PUSH1 0x4 DUP3 ADD MSTORE PUSH1 0x24 DUP2 ADD SWAP4 SWAP1 SWAP4 MSTORE AND PUSH1 0x44 DUP3 ADD MSTORE PUSH1 0x64 SWAP1 REVERT JUMPDEST PUSH2 0x2099 SWAP1 PUSH2 0x22B9 JUMP JUMPDEST PUSH1 0x0 NOT DUP2 ADD SWAP4 SWAP1 DUP5 GT PUSH2 0x20CE JUMPI DUP3 SWAP2 PUSH1 0x7 SWAP2 DUP8 SWAP5 MSTORE PUSH1 0x6 DUP2 MSTORE DUP4 DUP4 KECCAK256 DUP6 DUP5 MSTORE DUP2 MSTORE DUP10 DUP5 DUP5 KECCAK256 SSTORE DUP10 DUP4 MSTORE MSTORE KECCAK256 SSTORE CODESIZE DUP1 DUP1 DUP1 PUSH2 0x2050 JUMP JUMPDEST PUSH4 0x4E487B71 PUSH1 0xE0 SHL DUP4 MSTORE PUSH1 0x11 PUSH1 0x4 MSTORE PUSH1 0x24 DUP4 REVERT JUMPDEST PUSH4 0x4E487B71 PUSH1 0xE0 SHL DUP5 MSTORE PUSH1 0x41 PUSH1 0x4 MSTORE PUSH1 0x24 DUP5 REVERT JUMPDEST DUP7 DUP5 EQ PUSH2 0x2048 JUMPI PUSH2 0x2106 DUP8 PUSH2 0x22B9 JUMP JUMPDEST DUP10 DUP5 MSTORE PUSH1 0x7 DUP4 MSTORE DUP7 DUP5 KECCAK256 SLOAD DUP2 DUP2 SUB PUSH2 0x213B JUMPI JUMPDEST POP DUP10 DUP5 MSTORE DUP4 DUP8 DUP2 KECCAK256 SSTORE DUP8 DUP5 MSTORE PUSH1 0x6 DUP4 MSTORE DUP7 DUP5 KECCAK256 SWAP1 DUP5 MSTORE DUP3 MSTORE DUP3 DUP7 DUP2 KECCAK256 SSTORE PUSH2 0x2048 JUMP JUMPDEST DUP9 DUP6 MSTORE PUSH1 0x6 DUP5 MSTORE DUP8 DUP6 KECCAK256 DUP3 DUP7 MSTORE DUP5 MSTORE DUP8 DUP6 KECCAK256 SLOAD DUP10 DUP7 MSTORE PUSH1 0x6 DUP6 MSTORE DUP9 DUP7 KECCAK256 DUP3 DUP8 MSTORE DUP6 MSTORE DUP1 DUP10 DUP8 KECCAK256 SSTORE DUP6 MSTORE PUSH1 0x7 DUP5 MSTORE DUP8 DUP6 KECCAK256 SSTORE CODESIZE PUSH2 0x2119 JUMP JUMPDEST PUSH1 0x0 DUP11 DUP2 MSTORE PUSH1 0x4 PUSH1 0x20 MSTORE PUSH1 0x40 SWAP1 KECCAK256 DUP1 SLOAD PUSH1 0x1 PUSH1 0x1 PUSH1 0xA0 SHL SUB NOT AND SWAP1 SSTORE DUP8 DUP5 MSTORE PUSH1 0x3 DUP4 MSTORE DUP7 DUP5 KECCAK256 DUP1 SLOAD PUSH1 0x0 NOT ADD SWAP1 SSTORE PUSH2 0x1FA9 JUMP JUMPDEST DUP1 PUSH2 0x21F2 JUMPI JUMPDEST ISZERO PUSH2 0x21B6 JUMPI CODESIZE PUSH2 0x1F9F JUMP JUMPDEST DUP6 DUP10 DUP9 PUSH2 0x21D3 JUMPI PUSH1 0x24 SWAP2 MLOAD SWAP1 PUSH4 0x7E273289 PUSH1 0xE0 SHL DUP3 MSTORE PUSH1 0x4 DUP3 ADD MSTORE REVERT JUMPDEST SWAP1 MLOAD PUSH4 0x177E802F PUSH1 0xE0 SHL DUP2 MSTORE CALLER PUSH1 0x4 DUP3 ADD MSTORE PUSH1 0x24 DUP2 ADD SWAP2 SWAP1 SWAP2 MSTORE PUSH1 0x44 SWAP1 REVERT JUMPDEST POP CALLER DUP8 EQ DUP1 ISZERO PUSH2 0x2217 JUMPI JUMPDEST DUP1 PUSH2 0x21AB JUMPI POP DUP9 DUP4 MSTORE PUSH1 0x4 DUP3 MSTORE CALLER DUP6 DUP8 DUP6 KECCAK256 SLOAD AND EQ PUSH2 0x21AB JUMP JUMPDEST POP DUP7 DUP4 MSTORE PUSH1 0x5 DUP3 MSTORE DUP6 DUP4 KECCAK256 CALLER DUP5 MSTORE DUP3 MSTORE PUSH1 0xFF DUP7 DUP5 KECCAK256 SLOAD AND PUSH2 0x21FD JUMP JUMPDEST PUSH1 0x40 MLOAD PUSH4 0x32505749 PUSH1 0xE1 SHL DUP2 MSTORE PUSH1 0x0 PUSH1 0x4 DUP3 ADD MSTORE PUSH1 0x24 SWAP1 REVERT JUMPDEST ISZERO PUSH2 0x2253 JUMPI JUMP JUMPDEST PUSH1 0x40 MLOAD PUSH3 0x461BCD PUSH1 0xE5 SHL DUP2 MSTORE PUSH1 0x20 PUSH1 0x4 DUP3 ADD MSTORE PUSH1 0x5 PUSH1 0x24 DUP3 ADD MSTORE PUSH5 0x72616E6765 PUSH1 0xD8 SHL PUSH1 0x44 DUP3 ADD MSTORE PUSH1 0x64 SWAP1 REVERT JUMPDEST ISZERO PUSH2 0x2287 JUMPI JUMP JUMPDEST PUSH1 0x40 MLOAD PUSH3 0x461BCD PUSH1 0xE5 SHL DUP2 MSTORE PUSH1 0x20 PUSH1 0x4 DUP3 ADD MSTORE PUSH1 0xA PUSH1 0x24 DUP3 ADD MSTORE PUSH10 0x6E6F74206F7261636C65 PUSH1 0xB0 SHL PUSH1 0x44 DUP3 ADD MSTORE PUSH1 0x64 SWAP1 REVERT JUMPDEST PUSH1 0x1 PUSH1 0x1 PUSH1 0xA0 SHL SUB AND DUP1 ISZERO PUSH2 0x22D9 JUMPI PUSH1 0x0 MSTORE PUSH1 0x3 PUSH1 0x20 MSTORE PUSH1 0x40 PUSH1 0x0 KECCAK256 SLOAD SWAP1 JUMP JUMPDEST PUSH1 0x40 MLOAD PUSH4 0x22718AD9 PUSH1 0xE2 SHL DUP2 MSTORE PUSH1 0x0 PUSH1 0x4 DUP3 ADD MSTORE PUSH1 0x24 SWAP1 REVERT JUMPDEST RETURNDATASIZE ISZERO PUSH2 0x231D JUMPI RETURNDATASIZE SWAP1 PUSH2 0x2303 DUP3 PUSH2 0x1CF4 JUMP JUMPDEST SWAP2 PUSH2 0x2311 PUSH1 0x40 MLOAD SWAP4 DUP5 PUSH2 0x1BDB JUMP JUMPDEST DUP3 MSTORE RETURNDATASIZE PUSH1 0x0 PUSH1 0x20 DUP5 ADD RETURNDATACOPY JUMP JUMPDEST PUSH1 0x60 SWAP1 JUMP JUMPDEST ISZERO PUSH2 0x2329 JUMPI JUMP JUMPDEST PUSH1 0x40 MLOAD PUSH3 0x461BCD PUSH1 0xE5 SHL DUP2 MSTORE PUSH1 0x20 PUSH1 0x4 DUP3 ADD MSTORE PUSH1 0x5 PUSH1 0x24 DUP3 ADD MSTORE PUSH5 0x7072696365 PUSH1 0xD8 SHL PUSH1 0x44 DUP3 ADD MSTORE PUSH1 0x64 SWAP1 REVERT JUMPDEST PUSH1 0x0 NOT DUP2 EQ PUSH2 0x1EB4 JUMPI PUSH1 0x1 ADD SWAP1 JUMP JUMPDEST SWAP2 SWAP1 SWAP2 DUP3 MLOAD PUSH8 0xFFFFFFFFFFFFFFFF DUP2 GT PUSH2 0x1BC5 JUMPI PUSH2 0x2383 DUP3 SLOAD PUSH2 0x1B6F JUMP JUMPDEST PUSH1 0x1F DUP2 GT PUSH2 0x242E JUMPI JUMPDEST POP PUSH1 0x20 DUP1 PUSH1 0x1F DUP4 GT PUSH1 0x1 EQ PUSH2 0x23C9 JUMPI POP DUP2 SWAP3 SWAP4 SWAP5 PUSH1 0x0 SWAP3 PUSH2 0x23BE JUMPI JUMPDEST POP POP DUP2 PUSH1 0x1 SHL SWAP2 PUSH1 0x0 NOT SWAP1 PUSH1 0x3 SHL SHR NOT AND OR SWAP1 SSTORE JUMP JUMPDEST ADD MLOAD SWAP1 POP CODESIZE DUP1 PUSH2 0x23A8 JUMP JUMPDEST SWAP1 PUSH1 0x1F NOT DUP4 AND SWAP6 DUP5 PUSH1 0x0 MSTORE PUSH1 0x20 PUSH1 0x0 KECCAK256 SWAP3 PUSH1 0x0 SWAP1 JUMPDEST DUP9 DUP3 LT PUSH2 0x2416 JUMPI POP POP DUP4 PUSH1 0x1 SWAP6 SWAP7 SWAP8 LT PUSH2 0x23FD JUMPI JUMPDEST POP POP POP DUP2 SHL ADD SWAP1 SSTORE JUMP JUMPDEST ADD MLOAD PUSH1 0x0 NOT PUSH1 0xF8 DUP5 PUSH1 0x3 SHL AND SHR NOT AND SWAP1 SSTORE CODESIZE DUP1 DUP1 PUSH2 0x23F3 JUMP JUMPDEST DUP1 PUSH1 0x1 DUP6 SWAP7 DUP3 SWAP5 SWAP7 DUP7 ADD MLOAD DUP2 SSTORE ADD SWAP6 ADD SWAP4 ADD SWAP1 PUSH2 0x23DE JUMP JUMPDEST PUSH1 0x0 DUP4 PUSH1 0x0 MSTORE PUSH1 0x20 PUSH1 0x0 KECCAK256 PUSH1 0x1F DUP5 ADD PUSH1 0x5 SHR DUP2 ADD SWAP3 PUSH1 0x20 DUP6 LT PUSH2 0x246E JUMPI JUMPDEST PUSH1 0x1F ADD PUSH1 0x5 SHR ADD SWAP2 JUMPDEST DUP3 DUP2 LT PUSH2 0x2463 JUMPI POP POP PUSH2 0x238C JUMP JUMPDEST DUP2 DUP2 SSTORE PUSH1 0x1 ADD PUSH2 0x2455 JUMP JUMPDEST SWAP1 SWAP3 POP DUP3 SWAP1 PUSH2 0x244C JUMP JUMPDEST SWAP1 SWAP2 PUSH2 0x248F PUSH2 0x1DAB SWAP4 PUSH1 0x40 DUP5 MSTORE PUSH1 0x40 DUP5 ADD SWAP1 PUSH2 0x1AAF JUMP JUMPDEST SWAP2 PUSH1 0x20 DUP2 DUP5 SUB SWAP2 ADD MSTORE PUSH2 0x1AAF JUMP JUMPDEST PUSH1 0x0 DUP2 DUP2 MSTORE PUSH1 0x2 PUSH1 0x20 MSTORE PUSH1 0x40 SWAP1 KECCAK256 SLOAD PUSH1 0x1 PUSH1 0x1 PUSH1 0xA0 SHL SUB AND SWAP1 DUP2 ISZERO PUSH2 0x24C0 JUMPI POP SWAP1 JUMP JUMPDEST PUSH1 0x24 SWAP1 PUSH1 0x40 MLOAD SWAP1 PUSH4 0x7E273289 PUSH1 0xE0 SHL DUP3 MSTORE PUSH1 0x4 DUP3 ADD MSTORE REVERT JUMPDEST PUSH1 0x1 PUSH1 0x1 PUSH1 0xA0 SHL SUB SWAP1 DUP2 DUP1 PUSH2 0x24EC DUP6 PUSH2 0x249D JUMP JUMPDEST AND SWAP2 AND SWAP2 DUP2 DUP4 EQ SWAP4 DUP5 ISZERO PUSH2 0x2549 JUMPI JUMPDEST DUP5 ISZERO PUSH2 0x2532 JUMPI JUMPDEST POP POP DUP3 ISZERO PUSH2 0x250F JUMPI POP POP SWAP1 JUMP JUMPDEST SWAP1 SWAP2 POP PUSH1 0x0 MSTORE PUSH1 0x5 PUSH1 0x20 MSTORE PUSH1 0x40 PUSH1 0x0 KECCAK256 SWAP1 PUSH1 0x0 MSTORE PUSH1 0x20 MSTORE PUSH1 0xFF PUSH1 0x40 PUSH1 0x0 KECCAK256 SLOAD AND SWAP1 JUMP JUMPDEST DUP4 SWAP3 SWAP5 POP PUSH2 0x253F SWAP1 PUSH2 0x1E4D JUMP JUMPDEST AND EQ SWAP2 CODESIZE DUP1 PUSH2 0x2502 JUMP JUMPDEST PUSH1 0xB SLOAD DUP3 AND DUP5 EQ SWAP5 POP PUSH2 0x24FB JUMP JUMPDEST PUSH1 0x20 SWAP1 PUSH2 0x2591 PUSH32 0xF8E1A15ABA9398E019F0B49DF1A4FDE98EE17AE345CB5F6B5E2C27F5033E8CE7 SWAP4 DUP3 PUSH1 0x0 MSTORE PUSH1 0xA DUP5 MSTORE PUSH1 0x40 PUSH1 0x0 KECCAK256 PUSH2 0x2365 JUMP JUMPDEST PUSH1 0x40 MLOAD SWAP1 DUP2 MSTORE LOG1 JUMP JUMPDEST PUSH1 0xB SLOAD PUSH1 0x1 PUSH1 0x1 PUSH1 0xA0 SHL SUB AND CALLER SUB PUSH2 0x25AE JUMPI JUMP JUMPDEST PUSH1 0x40 MLOAD PUSH4 0x118CDAA7 PUSH1 0xE0 SHL DUP2 MSTORE CALLER PUSH1 0x4 DUP3 ADD MSTORE PUSH1 0x24 SWAP1 REVERT JUMPDEST PUSH1 0x2 PUSH1 0xC SLOAD EQ PUSH2 0x25D7 JUMPI PUSH1 0x2 PUSH1 0xC SSTORE JUMP JUMPDEST PUSH1 0x40 MLOAD PUSH4 0x3EE5AEB5 PUSH1 0xE0 SHL DUP2 MSTORE PUSH1 0x4 SWAP1 REVERT JUMPDEST PUSH1 0x40 SWAP2 DUP3 MLOAD PUSH2 0x25F7 DUP2 PUSH2 0x1BA9 JUMP JUMPDEST PUSH1 0x0 DUP1 DUP3 MSTORE PUSH1 0x1 PUSH1 0x1 PUSH1 0xA0 SHL SUB DUP5 DUP2 AND SWAP5 SWAP2 SWAP3 SWAP2 SWAP1 DUP6 ISZERO PUSH2 0x2749 JUMPI PUSH2 0x261C DUP6 DUP4 PUSH2 0x2862 JUMP JUMPDEST AND PUSH2 0x2731 JUMPI EXTCODESIZE PUSH2 0x262E JUMPI JUMPDEST POP POP POP POP POP JUMP JUMPDEST PUSH1 0x20 PUSH2 0x266B SWAP2 DUP7 SWAP8 SWAP6 SWAP7 MLOAD DUP1 SWAP4 DUP2 SWAP3 PUSH4 0xA85BD01 PUSH1 0xE1 SHL SWAP8 DUP9 DUP5 MSTORE CALLER PUSH1 0x4 DUP6 ADD MSTORE DUP8 PUSH1 0x24 DUP6 ADD MSTORE PUSH1 0x44 DUP5 ADD MSTORE PUSH1 0x80 PUSH1 0x64 DUP5 ADD MSTORE PUSH1 0x84 DUP4 ADD SWAP1 PUSH2 0x1AAF JUMP JUMPDEST SUB DUP2 DUP6 DUP10 GAS CALL SWAP1 DUP3 SWAP1 DUP3 PUSH2 0x26E8 JUMPI JUMPDEST POP POP PUSH2 0x26B3 JUMPI POP POP POP PUSH2 0x268B PUSH2 0x22F2 JUMP JUMPDEST DUP1 MLOAD SWAP3 SWAP1 DUP4 PUSH2 0x26AC JUMPI DUP2 MLOAD PUSH4 0x32505749 PUSH1 0xE1 SHL DUP2 MSTORE PUSH1 0x4 DUP2 ADD DUP5 SWAP1 MSTORE PUSH1 0x24 SWAP1 REVERT JUMPDEST DUP4 SWAP1 PUSH1 0x20 ADD REVERT JUMPDEST SWAP2 SWAP4 SWAP2 PUSH1 0x1 PUSH1 0x1 PUSH1 0xE0 SHL SUB NOT AND SUB PUSH2 0x26D1 JUMPI POP POP CODESIZE DUP1 DUP1 DUP1 DUP1 PUSH2 0x2627 JUMP JUMPDEST PUSH1 0x24 SWAP3 POP MLOAD SWAP1 PUSH4 0x32505749 PUSH1 0xE1 SHL DUP3 MSTORE PUSH1 0x4 DUP3 ADD MSTORE REVERT JUMPDEST SWAP1 SWAP2 SWAP3 POP PUSH1 0x20 DUP2 RETURNDATASIZE PUSH1 0x20 GT PUSH2 0x2729 JUMPI JUMPDEST DUP2 PUSH2 0x2705 PUSH1 0x20 SWAP4 DUP4 PUSH2 0x1BDB JUMP JUMPDEST DUP2 ADD SUB SLT PUSH2 0x766 JUMPI MLOAD SWAP1 PUSH1 0x1 PUSH1 0x1 PUSH1 0xE0 SHL SUB NOT DUP3 AND DUP3 SUB PUSH2 0x2C5 JUMPI POP SWAP1 CODESIZE DUP1 PUSH2 0x267A JUMP JUMPDEST RETURNDATASIZE SWAP2 POP PUSH2 0x26F8 JUMP JUMPDEST DUP6 MLOAD PUSH4 0x39E35637 PUSH1 0xE1 SHL DUP2 MSTORE PUSH1 0x4 DUP2 ADD DUP5 SWAP1 MSTORE PUSH1 0x24 SWAP1 REVERT JUMPDEST DUP7 MLOAD PUSH4 0x32505749 PUSH1 0xE1 SHL DUP2 MSTORE PUSH1 0x4 DUP2 ADD DUP6 SWAP1 MSTORE PUSH1 0x24 SWAP1 REVERT JUMPDEST SWAP2 SWAP1 DUP1 EXTCODESIZE PUSH2 0x2770 JUMPI JUMPDEST POP POP POP POP JUMP JUMPDEST PUSH2 0x27B2 PUSH1 0x1 DUP1 PUSH1 0xA0 SHL SUB DUP1 SWAP3 AND SWAP5 PUSH1 0x40 MLOAD SWAP4 DUP5 SWAP4 PUSH4 0xA85BD01 PUSH1 0xE1 SHL SWAP7 DUP8 DUP7 MSTORE CALLER PUSH1 0x4 DUP8 ADD MSTORE AND PUSH1 0x24 DUP6 ADD MSTORE PUSH1 0x44 DUP5 ADD MSTORE PUSH1 0x80 PUSH1 0x64 DUP5 ADD MSTORE PUSH1 0x84 DUP4 ADD SWAP1 PUSH2 0x1AAF JUMP JUMPDEST SUB SWAP1 PUSH1 0x20 DUP2 PUSH1 0x0 SWAP4 DUP2 DUP6 DUP9 GAS CALL SWAP1 DUP3 SWAP1 DUP3 PUSH2 0x2819 JUMPI JUMPDEST POP POP PUSH2 0x2800 JUMPI DUP3 PUSH2 0x27D7 PUSH2 0x22F2 JUMP JUMPDEST DUP1 MLOAD SWAP2 SWAP1 DUP3 PUSH2 0x27F9 JUMPI PUSH1 0x40 MLOAD PUSH4 0x32505749 PUSH1 0xE1 SHL DUP2 MSTORE PUSH1 0x4 DUP2 ADD DUP4 SWAP1 MSTORE PUSH1 0x24 SWAP1 REVERT JUMPDEST SWAP1 POP PUSH1 0x20 ADD REVERT JUMPDEST PUSH1 0x1 PUSH1 0x1 PUSH1 0xE0 SHL SUB NOT AND SUB PUSH2 0x4A7 JUMPI POP CODESIZE DUP1 DUP1 DUP1 PUSH2 0x276A JUMP JUMPDEST SWAP1 SWAP2 SWAP3 POP PUSH1 0x20 DUP2 RETURNDATASIZE PUSH1 0x20 GT PUSH2 0x285A JUMPI JUMPDEST DUP2 PUSH2 0x2836 PUSH1 0x20 SWAP4 DUP4 PUSH2 0x1BDB JUMP JUMPDEST DUP2 ADD SUB SLT PUSH2 0x766 JUMPI MLOAD SWAP1 PUSH1 0x1 PUSH1 0x1 PUSH1 0xE0 SHL SUB NOT DUP3 AND DUP3 SUB PUSH2 0x2C5 JUMPI POP SWAP1 CODESIZE DUP1 PUSH2 0x27C8 JUMP JUMPDEST RETURNDATASIZE SWAP2 POP PUSH2 0x2829 JUMP JUMPDEST PUSH1 0x0 DUP3 DUP2 MSTORE PUSH1 0x2 PUSH1 0x20 SWAP1 DUP2 MSTORE PUSH1 0x40 DUP1 DUP4 KECCAK256 SLOAD PUSH1 0x1 PUSH1 0x1 PUSH1 0xA0 SHL SUB SWAP1 DUP2 AND SWAP6 SWAP3 SWAP5 SWAP2 SWAP3 SWAP2 DUP7 ISZERO SWAP2 DUP3 ISZERO PUSH2 0x2AB0 JUMPI JUMPDEST DUP2 AND SWAP2 DUP3 ISZERO SWAP1 DUP2 ISZERO PUSH2 0x2A9A JUMPI JUMPDEST DUP5 DUP8 MSTORE PUSH1 0x2 DUP9 MSTORE DUP6 DUP8 KECCAK256 DUP1 SLOAD PUSH1 0x1 PUSH1 0x1 PUSH1 0xA0 SHL SUB NOT AND DUP6 OR SWAP1 SSTORE DUP5 DUP5 DUP11 PUSH32 0xDDF252AD1BE2C89B69C2B068FC378DAA952BA7F163C4A11628F55A4DF523B3EF DUP11 DUP1 LOG4 ISZERO PUSH2 0x2A1E JUMPI PUSH1 0x8 SLOAD DUP5 DUP8 MSTORE PUSH1 0x9 DUP9 MSTORE DUP1 DUP7 DUP9 KECCAK256 SSTORE PUSH1 0x1 PUSH1 0x40 SHL DUP2 LT ISZERO PUSH2 0x2A0A JUMPI DUP5 PUSH2 0x202F DUP3 PUSH1 0x1 PUSH2 0x2911 SWAP5 ADD PUSH1 0x8 SSTORE PUSH2 0x1B0A JUMP JUMPDEST ISZERO PUSH2 0x29B5 JUMPI POP POP PUSH1 0x8 SLOAD PUSH1 0x0 NOT SWAP5 DUP6 DUP3 ADD SWAP2 DUP3 GT PUSH2 0x29A1 JUMPI SWAP1 PUSH1 0x9 DUP4 SWAP3 DUP7 SWAP6 SWAP5 DUP7 MSTORE DUP2 DUP2 MSTORE PUSH2 0x2943 DUP6 DUP8 KECCAK256 SLOAD SWAP4 PUSH2 0x1B0A JUMP JUMPDEST SWAP1 SLOAD SWAP1 PUSH1 0x3 SHL SHR PUSH2 0x2957 DUP2 PUSH2 0x202F DUP7 PUSH2 0x1B0A JUMP JUMPDEST DUP7 MSTORE MSTORE DUP3 DUP5 KECCAK256 SSTORE DUP3 MSTORE DUP2 KECCAK256 SSTORE PUSH1 0x8 SLOAD SWAP1 DUP2 ISZERO PUSH2 0x298D JUMPI POP DUP2 ADD SWAP1 PUSH2 0x297A DUP3 PUSH2 0x1B0A JUMP JUMPDEST SWAP1 SWAP2 DUP3 SLOAD SWAP2 PUSH1 0x3 SHL SHL NOT AND SWAP1 SSTORE PUSH1 0x8 SSTORE SWAP1 JUMP JUMPDEST PUSH4 0x4E487B71 PUSH1 0xE0 SHL DUP2 MSTORE PUSH1 0x31 PUSH1 0x4 MSTORE PUSH1 0x24 SWAP1 REVERT JUMPDEST PUSH4 0x4E487B71 PUSH1 0xE0 SHL DUP6 MSTORE PUSH1 0x11 PUSH1 0x4 MSTORE PUSH1 0x24 DUP6 REVERT JUMPDEST DUP2 DUP8 SWAP7 SWAP4 SWAP3 SWAP7 SWAP6 SWAP5 SWAP6 SUB PUSH2 0x29CD JUMPI JUMPDEST POP POP POP POP POP POP SWAP1 JUMP JUMPDEST PUSH2 0x29D6 SWAP1 PUSH2 0x22B9 JUMP JUMPDEST PUSH1 0x0 NOT DUP2 ADD SWAP6 SWAP1 DUP7 GT PUSH2 0x4BF JUMPI DUP4 MSTORE PUSH1 0x6 DUP3 MSTORE DUP4 DUP4 KECCAK256 DUP6 DUP5 MSTORE DUP3 MSTORE DUP4 DUP4 KECCAK256 DUP2 SWAP1 SSTORE DUP3 MSTORE PUSH1 0x7 SWAP1 MSTORE KECCAK256 SSTORE CODESIZE DUP1 DUP1 DUP1 DUP1 DUP1 PUSH2 0x29C4 JUMP JUMPDEST PUSH4 0x4E487B71 PUSH1 0xE0 SHL DUP8 MSTORE PUSH1 0x41 PUSH1 0x4 MSTORE PUSH1 0x24 DUP8 REVERT JUMPDEST DUP8 DUP4 EQ PUSH2 0x2911 JUMPI PUSH2 0x2A2E DUP9 PUSH2 0x22B9 JUMP JUMPDEST DUP5 DUP8 MSTORE PUSH1 0x7 DUP9 MSTORE DUP6 DUP8 KECCAK256 SLOAD DUP2 DUP2 SUB PUSH2 0x2A63 JUMPI JUMPDEST POP DUP5 DUP8 MSTORE DUP7 DUP7 DUP2 KECCAK256 SSTORE DUP9 DUP8 MSTORE PUSH1 0x6 DUP9 MSTORE DUP6 DUP8 KECCAK256 SWAP1 DUP8 MSTORE DUP8 MSTORE DUP6 DUP6 DUP2 KECCAK256 SSTORE PUSH2 0x2911 JUMP JUMPDEST DUP10 DUP9 MSTORE PUSH1 0x6 DUP10 MSTORE DUP7 DUP9 KECCAK256 DUP3 DUP10 MSTORE DUP10 MSTORE DUP7 DUP9 KECCAK256 SLOAD DUP11 DUP10 MSTORE PUSH1 0x6 DUP11 MSTORE DUP8 DUP10 KECCAK256 DUP3 DUP11 MSTORE DUP11 MSTORE DUP1 DUP9 DUP11 KECCAK256 SSTORE DUP9 MSTORE PUSH1 0x7 DUP10 MSTORE DUP7 DUP9 KECCAK256 SSTORE CODESIZE PUSH2 0x2A41 JUMP JUMPDEST DUP4 DUP8 MSTORE PUSH1 0x3 DUP9 MSTORE DUP6 DUP8 KECCAK256 PUSH1 0x1 DUP2 SLOAD ADD SWAP1 SSTORE PUSH2 0x289C JUMP JUMPDEST PUSH1 0x0 DUP5 DUP2 MSTORE PUSH1 0x4 PUSH1 0x20 MSTORE PUSH1 0x40 SWAP1 KECCAK256 DUP1 SLOAD PUSH1 0x1 PUSH1 0x1 PUSH1 0xA0 SHL SUB NOT AND SWAP1 SSTORE DUP8 DUP7 MSTORE PUSH1 0x3 DUP8 MSTORE DUP5 DUP7 KECCAK256 DUP1 SLOAD PUSH1 0x0 NOT ADD SWAP1 SSTORE PUSH2 0x288F JUMP INVALID LOG2 PUSH5 0x6970667358 0x22 SLT KECCAK256 0xD LOG4 PUSH25 0xAB94CDB69D1479264D39C66FAF741F97899DF3DB41FBE63418 CODESIZE 0xD2 CALLDATACOPY 0xBA PUSH5 0x736F6C6343 STOP ADDMOD XOR STOP CALLER "},"methodIdentifiers":{"addImage(uint256,string)":"ab2258a2","approve(address,uint256)":"095ea7b3","balanceOf(address)":"70a08231","buy(uint256)":"d96a094a","campaignProgress(uint256)":"a944af2d","campaigns(uint256)":"141961bc","category(uint256)":"253eca1f","feeBps()":"24a9d853","getApproved(uint256)":"081812fc","getCampaignProgress(uint256)":"8ab9b92a","images(uint256,uint256)":"0722fb62","isApprovedForAll(address,address)":"e985e9c5","mint(address,string,string)":"99071190","mintSeries(uint256,uint256,uint256,address,string,string)":"966f77d4","name()":"06fdde03","nextCampaignId()":"7903a756","nextTokenId()":"75794a3c","nonprofit()":"bfe30d5e","onERC721Received(address,address,uint256,bytes)":"150b7a02","oracle(address)":"eb37d349","oracleSetProgress(uint256,uint8)":"710df4fc","owner()":"8da5cb5b","ownerOf(uint256)":"6352211e","progress(uint256)":"69826a94","releaseFunds(uint256,uint256,uint8)":"7b276ae9","renounceOwnership()":"715018a6","safeTransferFrom(address,address,uint256)":"42842e0e","safeTransferFrom(address,address,uint256,bytes)":"b88d4fde","setApprovalForAll(address,bool)":"a22cb465","setCampaignActive(uint256,bool)":"ad11728b","setFeeBps(uint96)":"b7f1564e","setNonprofit(address)":"1baf5146","setOracle(address,bool)":"65360843","setProgress(uint256,uint8)":"4ab7b7b1","supportsInterface(bytes4)":"01ffc9a7","symbol()":"95d89b41","tokenByIndex(uint256)":"4f6ccce7","tokenCampaign(uint256)":"a7801db6","tokenIdInCampaignByIndex(uint256,uint256)":"4b1cef85","tokenOfOwnerByIndex(address,uint256)":"2f745c59","tokenURI(uint256)":"c87b56dd","tokensOfCampaign(uint256,uint256,uint256)":"0845fff5","tokensOfOwnerInCampaign(address,uint256,uint256,uint256)":"be51fa1a","totalSupply()":"18160ddd","totalSupplyInCampaign(uint256)":"a3056bf9","transferFrom(address,address,uint256)":"23b872dd","transferOwnership(address)":"f2fde38b","updateCampaignProgress(uint256,uint8)":"659706e6","updateTokenURI(uint256,string)":"18e97fd1"}}}}}