{"contracts/PatriotPledgeNFTV7.sol":{"PatriotPledgeNFTV7":{"abi":[{"inputs":[{"internalType":"address","name":"_platformTreasury","type":"address"},{"internalType":"uint16","name":"_platformFeeBps","type":"uint16"}],"stateMutability":"nonpayable","type":"constructor"},{"inputs":[{"internalType":"uint256","name":"numerator","type":"uint256"},{"internalType":"uint256","name":"denominator","type":"uint256"}],"name":"ERC2981InvalidDefaultRoyalty","type":"error"},{"inputs":[{"internalType":"address","name":"receiver","type":"address"}],"name":"ERC2981InvalidDefaultRoyaltyReceiver","type":"error"},{"inputs":[{"internalType":"uint256","name":"tokenId","type":"uint256"},{"internalType":"uint256","name":"numerator","type":"uint256"},{"internalType":"uint256","name":"denominator","type":"uint256"}],"name":"ERC2981InvalidTokenRoyalty","type":"error"},{"inputs":[{"internalType":"uint256","name":"tokenId","type":"uint256"},{"internalType":"address","name":"receiver","type":"address"}],"name":"ERC2981InvalidTokenRoyaltyReceiver","type":"error"},{"inputs":[],"name":"ERC721EnumerableForbiddenBatchMint","type":"error"},{"inputs":[{"internalType":"address","name":"sender","type":"address"},{"internalType":"uint256","name":"tokenId","type":"uint256"},{"internalType":"address","name":"owner","type":"address"}],"name":"ERC721IncorrectOwner","type":"error"},{"inputs":[{"internalType":"address","name":"operator","type":"address"},{"internalType":"uint256","name":"tokenId","type":"uint256"}],"name":"ERC721InsufficientApproval","type":"error"},{"inputs":[{"internalType":"address","name":"approver","type":"address"}],"name":"ERC721InvalidApprover","type":"error"},{"inputs":[{"internalType":"address","name":"operator","type":"address"}],"name":"ERC721InvalidOperator","type":"error"},{"inputs":[{"internalType":"address","name":"owner","type":"address"}],"name":"ERC721InvalidOwner","type":"error"},{"inputs":[{"internalType":"address","name":"receiver","type":"address"}],"name":"ERC721InvalidReceiver","type":"error"},{"inputs":[{"internalType":"address","name":"sender","type":"address"}],"name":"ERC721InvalidSender","type":"error"},{"inputs":[{"internalType":"uint256","name":"tokenId","type":"uint256"}],"name":"ERC721NonexistentToken","type":"error"},{"inputs":[{"internalType":"address","name":"owner","type":"address"},{"internalType":"uint256","name":"index","type":"uint256"}],"name":"ERC721OutOfBoundsIndex","type":"error"},{"inputs":[],"name":"EnforcedPause","type":"error"},{"inputs":[],"name":"ExpectedPause","type":"error"},{"inputs":[{"internalType":"address","name":"owner","type":"address"}],"name":"OwnableInvalidOwner","type":"error"},{"inputs":[{"internalType":"address","name":"account","type":"address"}],"name":"OwnableUnauthorizedAccount","type":"error"},{"inputs":[],"name":"ReentrancyGuardReentrantCall","type":"error"},{"anonymous":false,"inputs":[{"indexed":true,"internalType":"address","name":"addr","type":"address"},{"indexed":false,"internalType":"bool","name":"blacklisted","type":"bool"}],"name":"AddressBlacklisted","type":"event"},{"anonymous":false,"inputs":[{"indexed":true,"internalType":"address","name":"owner","type":"address"},{"indexed":true,"internalType":"address","name":"approved","type":"address"},{"indexed":true,"internalType":"uint256","name":"tokenId","type":"uint256"}],"name":"Approval","type":"event"},{"anonymous":false,"inputs":[{"indexed":true,"internalType":"address","name":"owner","type":"address"},{"indexed":true,"internalType":"address","name":"operator","type":"address"},{"indexed":false,"internalType":"bool","name":"approved","type":"bool"}],"name":"ApprovalForAll","type":"event"},{"anonymous":false,"inputs":[{"indexed":false,"internalType":"uint256","name":"_fromTokenId","type":"uint256"},{"indexed":false,"internalType":"uint256","name":"_toTokenId","type":"uint256"}],"name":"BatchMetadataUpdate","type":"event"},{"anonymous":false,"inputs":[{"indexed":true,"internalType":"address","name":"funder","type":"address"},{"indexed":false,"internalType":"uint256","name":"amount","type":"uint256"}],"name":"BugBountyFunded","type":"event"},{"anonymous":false,"inputs":[{"indexed":true,"internalType":"address","name":"recipient","type":"address"},{"indexed":false,"internalType":"uint256","name":"amount","type":"uint256"},{"indexed":false,"internalType":"string","name":"reportId","type":"string"}],"name":"BugBountyPaid","type":"event"},{"anonymous":false,"inputs":[{"indexed":true,"internalType":"uint256","name":"campaignId","type":"uint256"}],"name":"CampaignClosed","type":"event"},{"anonymous":false,"inputs":[{"indexed":true,"internalType":"uint256","name":"campaignId","type":"uint256"},{"indexed":true,"internalType":"address","name":"nonprofit","type":"address"},{"indexed":true,"internalType":"address","name":"submitter","type":"address"},{"indexed":false,"internalType":"string","name":"category","type":"string"},{"indexed":false,"internalType":"uint256","name":"goal","type":"uint256"},{"indexed":false,"internalType":"uint256","name":"maxEditions","type":"uint256"},{"indexed":false,"internalType":"uint256","name":"pricePerEdition","type":"uint256"},{"indexed":false,"internalType":"bool","name":"immediatePayoutEnabled","type":"bool"}],"name":"CampaignCreated","type":"event"},{"anonymous":false,"inputs":[{"indexed":true,"internalType":"uint256","name":"campaignId","type":"uint256"},{"indexed":false,"internalType":"string","name":"newBaseURI","type":"string"}],"name":"CampaignMetadataUpdated","type":"event"},{"anonymous":false,"inputs":[{"indexed":true,"internalType":"uint256","name":"campaignId","type":"uint256"}],"name":"CampaignRefunded","type":"event"},{"anonymous":false,"inputs":[{"indexed":true,"internalType":"uint256","name":"campaignId","type":"uint256"},{"indexed":false,"internalType":"string","name":"field","type":"string"}],"name":"CampaignUpdated","type":"event"},{"anonymous":false,"inputs":[{"indexed":true,"internalType":"uint256","name":"campaignId","type":"uint256"},{"indexed":false,"internalType":"uint256","name":"gross","type":"uint256"},{"indexed":false,"internalType":"uint256","name":"net","type":"uint256"},{"indexed":false,"internalType":"uint256","name":"tip","type":"uint256"},{"indexed":false,"internalType":"bool","name":"isOnchain","type":"bool"}],"name":"ContributionRecorded","type":"event"},{"anonymous":false,"inputs":[{"indexed":false,"internalType":"uint96","name":"newRoyaltyBps","type":"uint96"}],"name":"DefaultRoyaltyUpdated","type":"event"},{"anonymous":false,"inputs":[{"indexed":true,"internalType":"uint256","name":"campaignId","type":"uint256"},{"indexed":true,"internalType":"uint256","name":"tokenId","type":"uint256"},{"indexed":true,"internalType":"address","name":"donor","type":"address"},{"indexed":false,"internalType":"uint256","name":"editionNumber","type":"uint256"},{"indexed":false,"internalType":"uint256","name":"amountPaid","type":"uint256"}],"name":"EditionMinted","type":"event"},{"anonymous":false,"inputs":[{"indexed":true,"internalType":"address","name":"to","type":"address"},{"indexed":false,"internalType":"uint256","name":"amount","type":"uint256"}],"name":"EmergencyWithdraw","type":"event"},{"anonymous":false,"inputs":[{"indexed":false,"internalType":"uint16","name":"platformFeeBps","type":"uint16"},{"indexed":false,"internalType":"bool","name":"immediatePayout","type":"bool"}],"name":"FeeConfigUpdated","type":"event"},{"anonymous":false,"inputs":[{"indexed":true,"internalType":"uint256","name":"campaignId","type":"uint256"},{"indexed":true,"internalType":"address","name":"submitter","type":"address"},{"indexed":false,"internalType":"uint256","name":"submitterAmount","type":"uint256"},{"indexed":false,"internalType":"uint256","name":"platformFee","type":"uint256"},{"indexed":false,"internalType":"uint256","name":"nonprofitFee","type":"uint256"},{"indexed":false,"internalType":"uint256","name":"tipAmount","type":"uint256"}],"name":"FundsDistributed","type":"event"},{"anonymous":false,"inputs":[{"indexed":true,"internalType":"uint256","name":"campaignId","type":"uint256"},{"indexed":true,"internalType":"address","name":"recipient","type":"address"},{"indexed":false,"internalType":"uint256","name":"amount","type":"uint256"},{"indexed":false,"internalType":"string","name":"recipientType","type":"string"}],"name":"ImmediatePayoutSent","type":"event"},{"anonymous":false,"inputs":[{"indexed":false,"internalType":"uint256","name":"_tokenId","type":"uint256"}],"name":"MetadataUpdate","type":"event"},{"anonymous":false,"inputs":[{"indexed":true,"internalType":"address","name":"previousOwner","type":"address"},{"indexed":true,"internalType":"address","name":"newOwner","type":"address"}],"name":"OwnershipTransferred","type":"event"},{"anonymous":false,"inputs":[{"indexed":false,"internalType":"address","name":"account","type":"address"}],"name":"Paused","type":"event"},{"anonymous":false,"inputs":[{"indexed":true,"internalType":"uint256","name":"tokenId","type":"uint256"},{"indexed":true,"internalType":"address","name":"burner","type":"address"}],"name":"TokenBurned","type":"event"},{"anonymous":false,"inputs":[{"indexed":true,"internalType":"uint256","name":"tokenId","type":"uint256"},{"indexed":false,"internalType":"bool","name":"frozen","type":"bool"}],"name":"TokenFrozen","type":"event"},{"anonymous":false,"inputs":[{"indexed":true,"internalType":"uint256","name":"tokenId","type":"uint256"},{"indexed":false,"internalType":"bool","name":"soulbound","type":"bool"}],"name":"TokenSoulbound","type":"event"},{"anonymous":false,"inputs":[{"indexed":true,"internalType":"uint256","name":"tokenId","type":"uint256"},{"indexed":false,"internalType":"string","name":"newURI","type":"string"}],"name":"TokenURIFixed","type":"event"},{"anonymous":false,"inputs":[{"indexed":true,"internalType":"address","name":"from","type":"address"},{"indexed":true,"internalType":"address","name":"to","type":"address"},{"indexed":true,"internalType":"uint256","name":"tokenId","type":"uint256"}],"name":"Transfer","type":"event"},{"anonymous":false,"inputs":[{"indexed":true,"internalType":"address","name":"oldTreasury","type":"address"},{"indexed":true,"internalType":"address","name":"newTreasury","type":"address"}],"name":"TreasuryUpdated","type":"event"},{"anonymous":false,"inputs":[{"indexed":false,"internalType":"address","name":"account","type":"address"}],"name":"Unpaused","type":"event"},{"stateMutability":"payable","type":"fallback"},{"inputs":[],"name":"BPS_DENOMINATOR","outputs":[{"internalType":"uint256","name":"","type":"uint256"}],"stateMutability":"view","type":"function"},{"inputs":[],"name":"MAX_BATCH_SIZE","outputs":[{"internalType":"uint256","name":"","type":"uint256"}],"stateMutability":"view","type":"function"},{"inputs":[],"name":"MAX_FEE_BPS","outputs":[{"internalType":"uint256","name":"","type":"uint256"}],"stateMutability":"view","type":"function"},{"inputs":[{"internalType":"uint256","name":"tokenId","type":"uint256"}],"name":"adminBurn","outputs":[],"stateMutability":"nonpayable","type":"function"},{"inputs":[{"internalType":"address","name":"to","type":"address"},{"internalType":"uint256","name":"tokenId","type":"uint256"}],"name":"approve","outputs":[],"stateMutability":"nonpayable","type":"function"},{"inputs":[{"internalType":"address","name":"owner","type":"address"}],"name":"balanceOf","outputs":[{"internalType":"uint256","name":"","type":"uint256"}],"stateMutability":"view","type":"function"},{"inputs":[{"internalType":"uint256[]","name":"tokenIds","type":"uint256[]"},{"internalType":"uint256","name":"campaignId","type":"uint256"}],"name":"batchFixTokenCampaignLink","outputs":[],"stateMutability":"nonpayable","type":"function"},{"inputs":[{"internalType":"uint256[]","name":"tokenIds","type":"uint256[]"},{"internalType":"bool","name":"freeze","type":"bool"}],"name":"batchFreezeTokens","outputs":[],"stateMutability":"nonpayable","type":"function"},{"inputs":[{"internalType":"uint256[]","name":"tokenIds","type":"uint256[]"},{"internalType":"string","name":"uri","type":"string"}],"name":"batchSetTokenURI","outputs":[],"stateMutability":"nonpayable","type":"function"},{"inputs":[{"internalType":"address","name":"addr","type":"address"}],"name":"blacklistAddress","outputs":[],"stateMutability":"nonpayable","type":"function"},{"inputs":[{"internalType":"address","name":"","type":"address"}],"name":"blacklisted","outputs":[{"internalType":"bool","name":"","type":"bool"}],"stateMutability":"view","type":"function"},{"inputs":[],"name":"bugBountyPool","outputs":[{"internalType":"uint256","name":"","type":"uint256"}],"stateMutability":"view","type":"function"},{"inputs":[{"internalType":"uint256","name":"tokenId","type":"uint256"}],"name":"burn","outputs":[],"stateMutability":"nonpayable","type":"function"},{"inputs":[{"internalType":"uint256","name":"","type":"uint256"}],"name":"campaignDistributed","outputs":[{"internalType":"uint256","name":"","type":"uint256"}],"stateMutability":"view","type":"function"},{"inputs":[{"internalType":"uint256","name":"","type":"uint256"},{"internalType":"uint256","name":"","type":"uint256"}],"name":"campaignEditions","outputs":[{"internalType":"uint256","name":"","type":"uint256"}],"stateMutability":"view","type":"function"},{"inputs":[{"internalType":"uint256","name":"","type":"uint256"}],"name":"campaigns","outputs":[{"internalType":"string","name":"category","type":"string"},{"internalType":"string","name":"baseURI","type":"string"},{"internalType":"uint256","name":"goal","type":"uint256"},{"internalType":"uint256","name":"grossRaised","type":"uint256"},{"internalType":"uint256","name":"netRaised","type":"uint256"},{"internalType":"uint256","name":"tipsReceived","type":"uint256"},{"internalType":"uint256","name":"editionsMinted","type":"uint256"},{"internalType":"uint256","name":"maxEditions","type":"uint256"},{"internalType":"uint256","name":"pricePerEdition","type":"uint256"},{"internalType":"address","name":"nonprofit","type":"address"},{"internalType":"address","name":"submitter","type":"address"},{"internalType":"bool","name":"active","type":"bool"},{"internalType":"bool","name":"closed","type":"bool"},{"internalType":"bool","name":"refunded","type":"bool"},{"internalType":"bool","name":"immediatePayoutEnabled","type":"bool"}],"stateMutability":"view","type":"function"},{"inputs":[{"internalType":"uint256","name":"campaignId","type":"uint256"}],"name":"closeCampaign","outputs":[],"stateMutability":"nonpayable","type":"function"},{"inputs":[{"internalType":"string","name":"category","type":"string"},{"internalType":"string","name":"baseURI","type":"string"},{"internalType":"uint256","name":"goal","type":"uint256"},{"internalType":"uint256","name":"maxEditions","type":"uint256"},{"internalType":"uint256","name":"pricePerEdition","type":"uint256"},{"internalType":"address","name":"nonprofit","type":"address"},{"internalType":"address","name":"submitter","type":"address"},{"internalType":"bool","name":"immediatePayoutEnabled","type":"bool"}],"name":"createCampaign","outputs":[{"internalType":"uint256","name":"","type":"uint256"}],"stateMutability":"nonpayable","type":"function"},{"inputs":[{"internalType":"uint256","name":"campaignId","type":"uint256"}],"name":"deactivateCampaign","outputs":[],"stateMutability":"nonpayable","type":"function"},{"inputs":[],"name":"defaultRoyaltyBps","outputs":[{"internalType":"uint96","name":"","type":"uint96"}],"stateMutability":"view","type":"function"},{"inputs":[],"name":"deleteDefaultRoyalty","outputs":[],"stateMutability":"nonpayable","type":"function"},{"inputs":[],"name":"deploymentChainId","outputs":[{"internalType":"uint256","name":"","type":"uint256"}],"stateMutability":"view","type":"function"},{"inputs":[{"internalType":"uint256","name":"campaignId","type":"uint256"}],"name":"distributePendingFunds","outputs":[],"stateMutability":"nonpayable","type":"function"},{"inputs":[],"name":"emergencyWithdraw","outputs":[],"stateMutability":"nonpayable","type":"function"},{"inputs":[{"internalType":"uint256","name":"fromTokenId","type":"uint256"},{"internalType":"uint256","name":"toTokenId","type":"uint256"}],"name":"emitBatchMetadataUpdate","outputs":[],"stateMutability":"nonpayable","type":"function"},{"inputs":[{"internalType":"uint256","name":"tokenId","type":"uint256"}],"name":"emitMetadataUpdate","outputs":[],"stateMutability":"nonpayable","type":"function"},{"inputs":[],"name":"feeConfig","outputs":[{"internalType":"uint16","name":"platformFeeBps","type":"uint16"},{"internalType":"bool","name":"immediatePayout","type":"bool"}],"stateMutability":"view","type":"function"},{"inputs":[{"internalType":"uint256","name":"tokenId","type":"uint256"},{"internalType":"uint256","name":"campaignId","type":"uint256"}],"name":"fixTokenCampaignLink","outputs":[],"stateMutability":"nonpayable","type":"function"},{"inputs":[{"internalType":"uint256","name":"tokenId","type":"uint256"}],"name":"freezeToken","outputs":[],"stateMutability":"nonpayable","type":"function"},{"inputs":[{"internalType":"uint256","name":"","type":"uint256"}],"name":"frozenTokens","outputs":[{"internalType":"bool","name":"","type":"bool"}],"stateMutability":"view","type":"function"},{"inputs":[],"name":"fundBugBountyPool","outputs":[],"stateMutability":"payable","type":"function"},{"inputs":[{"internalType":"uint256","name":"tokenId","type":"uint256"}],"name":"getApproved","outputs":[{"internalType":"address","name":"","type":"address"}],"stateMutability":"view","type":"function"},{"inputs":[{"internalType":"uint256","name":"campaignId","type":"uint256"}],"name":"getCampaign","outputs":[{"internalType":"string","name":"category","type":"string"},{"internalType":"string","name":"baseURI","type":"string"},{"internalType":"uint256","name":"goal","type":"uint256"},{"internalType":"uint256","name":"grossRaised","type":"uint256"},{"internalType":"uint256","name":"netRaised","type":"uint256"},{"internalType":"uint256","name":"editionsMinted","type":"uint256"},{"internalType":"uint256","name":"maxEditions","type":"uint256"},{"internalType":"uint256","name":"pricePerEdition","type":"uint256"},{"internalType":"address","name":"nonprofit","type":"address"},{"internalType":"address","name":"submitter","type":"address"},{"internalType":"bool","name":"active","type":"bool"},{"internalType":"bool","name":"closed","type":"bool"},{"internalType":"bool","name":"immediatePayoutEnabled","type":"bool"}],"stateMutability":"view","type":"function"},{"inputs":[{"internalType":"uint256","name":"campaignId","type":"uint256"}],"name":"getCampaignEditions","outputs":[{"internalType":"uint256[]","name":"","type":"uint256[]"}],"stateMutability":"view","type":"function"},{"inputs":[{"internalType":"uint256","name":"tokenId","type":"uint256"}],"name":"getEditionInfo","outputs":[{"internalType":"uint256","name":"campaignId","type":"uint256"},{"internalType":"uint256","name":"editionNumber","type":"uint256"},{"internalType":"uint256","name":"totalEditions","type":"uint256"}],"stateMutability":"view","type":"function"},{"inputs":[],"name":"getFeeConfig","outputs":[{"internalType":"uint16","name":"platformFeeBps","type":"uint16"},{"internalType":"bool","name":"immediatePayout","type":"bool"}],"stateMutability":"view","type":"function"},{"inputs":[{"internalType":"address","name":"owner","type":"address"},{"internalType":"address","name":"operator","type":"address"}],"name":"isApprovedForAll","outputs":[{"internalType":"bool","name":"","type":"bool"}],"stateMutability":"view","type":"function"},{"inputs":[{"internalType":"uint256","name":"tokenId","type":"uint256"}],"name":"makeSoulbound","outputs":[],"stateMutability":"nonpayable","type":"function"},{"inputs":[{"internalType":"uint256","name":"campaignId","type":"uint256"}],"name":"markCampaignRefunded","outputs":[],"stateMutability":"nonpayable","type":"function"},{"inputs":[{"internalType":"uint256","name":"campaignId","type":"uint256"},{"internalType":"uint256","name":"quantity","type":"uint256"}],"name":"mintBatchWithBDAG","outputs":[{"internalType":"uint256[]","name":"","type":"uint256[]"}],"stateMutability":"payable","type":"function"},{"inputs":[{"internalType":"uint256","name":"campaignId","type":"uint256"},{"internalType":"uint256","name":"quantity","type":"uint256"},{"internalType":"uint256","name":"tipAmount","type":"uint256"}],"name":"mintBatchWithBDAGAndTip","outputs":[{"internalType":"uint256[]","name":"","type":"uint256[]"}],"stateMutability":"payable","type":"function"},{"inputs":[{"internalType":"uint256","name":"campaignId","type":"uint256"},{"internalType":"uint256","name":"quantity","type":"uint256"}],"name":"mintBatchWithImmediatePayout","outputs":[{"internalType":"uint256[]","name":"tokenIds","type":"uint256[]"}],"stateMutability":"payable","type":"function"},{"inputs":[{"internalType":"uint256","name":"campaignId","type":"uint256"},{"internalType":"uint256","name":"quantity","type":"uint256"},{"internalType":"uint256","name":"tipAmount","type":"uint256"}],"name":"mintBatchWithImmediatePayoutAndTip","outputs":[{"internalType":"uint256[]","name":"tokenIds","type":"uint256[]"}],"stateMutability":"payable","type":"function"},{"inputs":[{"internalType":"uint256","name":"campaignId","type":"uint256"},{"internalType":"address","name":"donor","type":"address"},{"internalType":"uint256","name":"amountPaid","type":"uint256"}],"name":"mintEditionToDonor","outputs":[{"internalType":"uint256","name":"","type":"uint256"}],"stateMutability":"nonpayable","type":"function"},{"inputs":[{"internalType":"uint256","name":"campaignId","type":"uint256"}],"name":"mintWithBDAG","outputs":[{"internalType":"uint256","name":"","type":"uint256"}],"stateMutability":"payable","type":"function"},{"inputs":[{"internalType":"uint256","name":"campaignId","type":"uint256"},{"internalType":"uint256","name":"tipAmount","type":"uint256"}],"name":"mintWithBDAGAndTip","outputs":[{"internalType":"uint256","name":"","type":"uint256"}],"stateMutability":"payable","type":"function"},{"inputs":[{"internalType":"uint256","name":"campaignId","type":"uint256"}],"name":"mintWithImmediatePayout","outputs":[{"internalType":"uint256","name":"","type":"uint256"}],"stateMutability":"payable","type":"function"},{"inputs":[{"internalType":"uint256","name":"campaignId","type":"uint256"},{"internalType":"uint256","name":"tipAmount","type":"uint256"}],"name":"mintWithImmediatePayoutAndTip","outputs":[{"internalType":"uint256","name":"","type":"uint256"}],"stateMutability":"payable","type":"function"},{"inputs":[],"name":"name","outputs":[{"internalType":"string","name":"","type":"string"}],"stateMutability":"view","type":"function"},{"inputs":[],"name":"owner","outputs":[{"internalType":"address","name":"","type":"address"}],"stateMutability":"view","type":"function"},{"inputs":[{"internalType":"uint256","name":"tokenId","type":"uint256"}],"name":"ownerOf","outputs":[{"internalType":"address","name":"","type":"address"}],"stateMutability":"view","type":"function"},{"inputs":[],"name":"pause","outputs":[],"stateMutability":"nonpayable","type":"function"},{"inputs":[],"name":"paused","outputs":[{"internalType":"bool","name":"","type":"bool"}],"stateMutability":"view","type":"function"},{"inputs":[{"internalType":"address payable","name":"recipient","type":"address"},{"internalType":"uint256","name":"amount","type":"uint256"},{"internalType":"string","name":"reportId","type":"string"}],"name":"payBugBounty","outputs":[],"stateMutability":"nonpayable","type":"function"},{"inputs":[],"name":"platformTreasury","outputs":[{"internalType":"address","name":"","type":"address"}],"stateMutability":"view","type":"function"},{"inputs":[{"internalType":"uint256","name":"campaignId","type":"uint256"}],"name":"reactivateCampaign","outputs":[],"stateMutability":"nonpayable","type":"function"},{"inputs":[{"internalType":"uint256","name":"campaignId","type":"uint256"},{"internalType":"uint256","name":"gross","type":"uint256"},{"internalType":"uint256","name":"net","type":"uint256"},{"internalType":"uint256","name":"tip","type":"uint256"},{"internalType":"bool","name":"isOnchain","type":"bool"}],"name":"recordContribution","outputs":[],"stateMutability":"nonpayable","type":"function"},{"inputs":[{"internalType":"address","name":"addr","type":"address"}],"name":"removeBlacklist","outputs":[],"stateMutability":"nonpayable","type":"function"},{"inputs":[{"internalType":"uint256","name":"tokenId","type":"uint256"}],"name":"removeSoulbound","outputs":[],"stateMutability":"nonpayable","type":"function"},{"inputs":[],"name":"renounceOwnership","outputs":[],"stateMutability":"nonpayable","type":"function"},{"inputs":[{"internalType":"uint256","name":"tokenId","type":"uint256"},{"internalType":"uint256","name":"salePrice","type":"uint256"}],"name":"royaltyInfo","outputs":[{"internalType":"address","name":"","type":"address"},{"internalType":"uint256","name":"","type":"uint256"}],"stateMutability":"view","type":"function"},{"inputs":[{"internalType":"address","name":"from","type":"address"},{"internalType":"address","name":"to","type":"address"},{"internalType":"uint256","name":"tokenId","type":"uint256"}],"name":"safeTransferFrom","outputs":[],"stateMutability":"nonpayable","type":"function"},{"inputs":[{"internalType":"address","name":"from","type":"address"},{"internalType":"address","name":"to","type":"address"},{"internalType":"uint256","name":"tokenId","type":"uint256"},{"internalType":"bytes","name":"data","type":"bytes"}],"name":"safeTransferFrom","outputs":[],"stateMutability":"nonpayable","type":"function"},{"inputs":[{"internalType":"address","name":"operator","type":"address"},{"internalType":"bool","name":"approved","type":"bool"}],"name":"setApprovalForAll","outputs":[],"stateMutability":"nonpayable","type":"function"},{"inputs":[{"internalType":"uint256","name":"campaignId","type":"uint256"},{"internalType":"bool","name":"enabled","type":"bool"}],"name":"setCampaignImmediatePayout","outputs":[],"stateMutability":"nonpayable","type":"function"},{"inputs":[{"internalType":"address","name":"receiver","type":"address"},{"internalType":"uint96","name":"feeNumerator","type":"uint96"}],"name":"setDefaultRoyalty","outputs":[],"stateMutability":"nonpayable","type":"function"},{"inputs":[{"internalType":"uint16","name":"_platformFeeBps","type":"uint16"},{"internalType":"bool","name":"_immediatePayout","type":"bool"}],"name":"setFeeConfig","outputs":[],"stateMutability":"nonpayable","type":"function"},{"inputs":[{"internalType":"address","name":"newTreasury","type":"address"}],"name":"setPlatformTreasury","outputs":[],"stateMutability":"nonpayable","type":"function"},{"inputs":[{"internalType":"uint256","name":"tokenId","type":"uint256"},{"internalType":"address","name":"receiver","type":"address"},{"internalType":"uint96","name":"feeNumerator","type":"uint96"}],"name":"setTokenRoyalty","outputs":[],"stateMutability":"nonpayable","type":"function"},{"inputs":[{"internalType":"uint256","name":"tokenId","type":"uint256"},{"internalType":"string","name":"uri","type":"string"}],"name":"setTokenURI","outputs":[],"stateMutability":"nonpayable","type":"function"},{"inputs":[{"internalType":"uint256","name":"","type":"uint256"}],"name":"soulbound","outputs":[{"internalType":"bool","name":"","type":"bool"}],"stateMutability":"view","type":"function"},{"inputs":[{"internalType":"bytes4","name":"interfaceId","type":"bytes4"}],"name":"supportsInterface","outputs":[{"internalType":"bool","name":"","type":"bool"}],"stateMutability":"view","type":"function"},{"inputs":[],"name":"symbol","outputs":[{"internalType":"string","name":"","type":"string"}],"stateMutability":"view","type":"function"},{"inputs":[{"internalType":"uint256","name":"index","type":"uint256"}],"name":"tokenByIndex","outputs":[{"internalType":"uint256","name":"","type":"uint256"}],"stateMutability":"view","type":"function"},{"inputs":[{"internalType":"uint256","name":"","type":"uint256"}],"name":"tokenEditionNumber","outputs":[{"internalType":"uint256","name":"","type":"uint256"}],"stateMutability":"view","type":"function"},{"inputs":[{"internalType":"address","name":"owner","type":"address"},{"internalType":"uint256","name":"index","type":"uint256"}],"name":"tokenOfOwnerByIndex","outputs":[{"internalType":"uint256","name":"","type":"uint256"}],"stateMutability":"view","type":"function"},{"inputs":[{"internalType":"uint256","name":"","type":"uint256"}],"name":"tokenToCampaign","outputs":[{"internalType":"uint256","name":"","type":"uint256"}],"stateMutability":"view","type":"function"},{"inputs":[{"internalType":"uint256","name":"tokenId","type":"uint256"}],"name":"tokenURI","outputs":[{"internalType":"string","name":"","type":"string"}],"stateMutability":"view","type":"function"},{"inputs":[],"name":"totalCampaigns","outputs":[{"internalType":"uint256","name":"","type":"uint256"}],"stateMutability":"view","type":"function"},{"inputs":[],"name":"totalSupply","outputs":[{"internalType":"uint256","name":"","type":"uint256"}],"stateMutability":"view","type":"function"},{"inputs":[{"internalType":"address","name":"from","type":"address"},{"internalType":"address","name":"to","type":"address"},{"internalType":"uint256","name":"tokenId","type":"uint256"}],"name":"transferFrom","outputs":[],"stateMutability":"nonpayable","type":"function"},{"inputs":[{"internalType":"address","name":"newOwner","type":"address"}],"name":"transferOwnership","outputs":[],"stateMutability":"nonpayable","type":"function"},{"inputs":[{"internalType":"uint256","name":"tokenId","type":"uint256"}],"name":"unfreezeToken","outputs":[],"stateMutability":"nonpayable","type":"function"},{"inputs":[],"name":"unpause","outputs":[],"stateMutability":"nonpayable","type":"function"},{"inputs":[{"internalType":"uint256","name":"campaignId","type":"uint256"},{"internalType":"string","name":"newCategory","type":"string"}],"name":"updateCampaignCategory","outputs":[],"stateMutability":"nonpayable","type":"function"},{"inputs":[{"internalType":"uint256","name":"campaignId","type":"uint256"},{"internalType":"uint256","name":"newGoal","type":"uint256"}],"name":"updateCampaignGoal","outputs":[],"stateMutability":"nonpayable","type":"function"},{"inputs":[{"internalType":"uint256","name":"campaignId","type":"uint256"},{"internalType":"uint256","name":"newMax","type":"uint256"}],"name":"updateCampaignMaxEditions","outputs":[],"stateMutability":"nonpayable","type":"function"},{"inputs":[{"internalType":"uint256","name":"campaignId","type":"uint256"},{"internalType":"string","name":"newBaseURI","type":"string"}],"name":"updateCampaignMetadata","outputs":[],"stateMutability":"nonpayable","type":"function"},{"inputs":[{"internalType":"uint256","name":"campaignId","type":"uint256"},{"internalType":"address","name":"newNonprofit","type":"address"}],"name":"updateCampaignNonprofit","outputs":[],"stateMutability":"nonpayable","type":"function"},{"inputs":[{"internalType":"uint256","name":"campaignId","type":"uint256"},{"internalType":"uint256","name":"newPrice","type":"uint256"}],"name":"updateCampaignPrice","outputs":[],"stateMutability":"nonpayable","type":"function"},{"inputs":[{"internalType":"uint256","name":"campaignId","type":"uint256"},{"internalType":"address","name":"newSubmitter","type":"address"}],"name":"updateCampaignSubmitter","outputs":[],"stateMutability":"nonpayable","type":"function"},{"inputs":[{"internalType":"address payable","name":"to","type":"address"},{"internalType":"uint256","name":"amount","type":"uint256"}],"name":"withdraw","outputs":[],"stateMutability":"nonpayable","type":"function"},{"stateMutability":"payable","type":"receive"}],"evm":{"bytecode":{"linkReferences":{},"object":"60a034620004cc5762005e9b90601f19906001600160401b03601f38859003818101851684019083821185831017620003de5780859160409889948552833981010312620004cc5782516001600160a01b038082169590929091869003620004cc576020809501519361ffff8516809503620004cc576200007f620004d1565b92601584527f50617472696f74506c656467652045646974696f6e000000000000000000000087850152620000b3620004d1565b926003938481526250504560e81b898201528551848111620003de576002546001978882811c92168015620004c1575b8c831014620003bd578b828685941162000467575b50508b908583116001146200040057600092620003f4575b505060001982881b1c191690871b176002555b8051938411620003de578454928684811c94168015620003d3575b8a851014620003bd57838386951162000363575b5089928411600114620002ff5750600092620002f3575b505060001982841b1c191690831b1790555b3315620002db57600d54865192339082167f8be0079c531659141344cd1fd0a4f28419497f9722a3daafe3b4186f6b6457e0600080a36001600160a81b0319163360ff60a01b191617600d55600e55601380546001600160601b03191660fa1790558315620002a65750610bb881116200027357601180546001600160a01b031916841790554660805260fa919060008262000216620004d1565b838152015262ffffff19601754161760175562000232620004d1565b8381520152607d60a11b17600055516159a99081620004f28239608051818181610705015281816107d001528181610e2401528181611e9f01526127d90152f35b835162461bcd60e51b815260048101839052600c60248201526b08ccaca40e8dede40d0d2ced60a31b6044820152606490fd5b62461bcd60e51b815260048101839052601060248201526f496e76616c696420747265617375727960801b6044820152606490fd5b8551631e4fbdf760e01b815260006004820152602490fd5b01519050388062000169565b8694929192169185600052896000209260005b8b8282106200034c575050841162000333575b505050811b0190556200017b565b015160001983861b60f8161c1916905538808062000325565b838501518655899790950194938401930162000312565b909192935085600052896000208480870160051c8201928c8810620003b3575b9187968a92969594930160051c01915b828110620003a357505062000152565b6000815587965089910162000393565b9250819262000383565b634e487b7160e01b600052602260045260246000fd5b93607f16936200013e565b634e487b7160e01b600052604160045260246000fd5b01519050388062000110565b908c91878b9516600260005283600020936000905b8282106200044f575050841162000436575b505050811b0160025562000123565b0151600019838a1b60f8161c1916905538808062000427565b8385015186558d979095019493840193018f62000415565b90919250600260005285826000209181860160051c8301938610620004b7575b918b91869594930160051c01915b828110620004a757508d9150620000f8565b600081558594508b910162000495565b9250819262000487565b91607f1691620000e3565b600080fd5b60408051919082016001600160401b03811183821017620003de5760405256fe608080604052600436101561001a575b50361561001857005b005b60003560e01c90816301ffc9a7146138ca5750806302932f56146138ac57806304634d8d146137bb57806306fdde031461370d578063081812fc146136cf578063095ea7b3146135e8578063141961bc146134db57806315e5b79314613434578063162094c4146133ac5780631797c8f21461337357806318160ddd1461335557806318d33e411461332e5780631cc76d751461325b5780631dda279b146130ca5780631e2b898314612fb45780631e5eb1d01461226c5780631fdc217c14612ea457806323b872dd14612e8d57806325532ecd14612dd15780632a55205a14612d1f5780632a76d55314612c045780632f745c5914612b805780633190b9ea14612b395780633705f2a814612ac05780633f4ba83a14612a4e578063407de9df14612a1d57806342842e0e146129ef57806342966c681461293a5780634639cfaa1461285e57806347c735fc146127ff57806349942b0f146127995780634cbdbfa9146127135780634d787ea9146126b45780634db7bfff146126635780634f6ccce71461260d5780635049e52f146125ef57806351a0bbb2146125845780635598f8cc14612494578063573a24271461246857806357487aa5146123995780635944c753146122c45780635c975abb1461229e5780635fbbc0d21461226c5780636352211e1461223c57806364094ced146121975780636fb8696c146120ef57806370a08231146120c4578063715018a6146120675780637a181597146120365780637cd86d6014611f8e5780637eca30fe14611f195780638079ca0c14611ec557806380b2f18d14611e5e5780638456cb5914611dfc5780638583d7c014611c7d5780638da5cb5b14611c545780638e20f98c14611b0d5780638f52d21a14611a0157806395d89b411461191e57806396ab0493146118ff5780639b640d431461142c578063a0a441bb146113c6578063a22cb4651461131b578063a4830114146112d5578063a591eea114611250578063aa1b103f14611231578063b0e1c1e1146111cc578063b6358d99146111a0578063b6854f961461111b578063b88d4fde146110b1578063badb97ff1461102f578063c169221314611003578063c608e72a14610ea0578063c87b56dd14610e47578063cd0d009614610e0c578063cfdbf25414610df0578063d55be8c614610dd3578063d83b4f9914610cea578063d88d6ef314610b3b578063db2e21bc14610a8c578063dbac26e914610a4d578063e138818c14610a24578063e1a4521814610a07578063e2ec62f914610793578063e985e9c51461073d578063eb4d68fd146106c7578063eb91e6511461065b578063f2fde38b146105d2578063f3290d7514610563578063f3fef3a3146104c7578063f401f8a0146104965763fb77211c1461041b573861000f565b346104915761042936613b94565b610431614a74565b8160005260186020526008604060002061045560ff600a83015460a81c1615613d1c565b0155600080516020615914833981519152606060405160208152600f60208201526e383934b1b2a832b922b234ba34b7b760891b6040820152a2005b600080fd5b34610491576020366003190112610491576004356000526014602052602060ff604060002054166040519015158152f35b34610491576040366003190112610491576104e0613983565b6024356104eb614a74565b6104f3614c2b565b80471061052757610520916000918291829182916001600160a01b03165af161051a614811565b50614841565b6001600e55005b60405162461bcd60e51b8152602060048201526014602482015273496e73756666696369656e742062616c616e636560601b6044820152606490fd5b346104915760203660031901126104915761057c613983565b610584614a74565b60018060a01b03168060005260156020526040600020600160ff198254161790557f97b7af35c8c05eca90f543eb78b16fdf2664d3e6c9a907286f310647d9813b71602060405160018152a2005b34610491576020366003190112610491576105eb613983565b6105f3614a74565b6001600160a01b0390811690811561064257600d54826001600160601b0360a01b821617600d55167f8be0079c531659141344cd1fd0a4f28419497f9722a3daafe3b4186f6b6457e0600080a3005b604051631e4fbdf760e01b815260006004820152602490fd5b3461049157602036600319011261049157610674613983565b61067c614a74565b6001600160a01b03166000818152601560209081526040808320805460ff19169055519182527f97b7af35c8c05eca90f543eb78b16fdf2664d3e6c9a907286f310647d9813b7191a2005b60206107306106d536613b94565b906106de614c0a565b33600052601584526106f860ff6040600020541615613dbe565b610700614c2b565b61072b7f000000000000000000000000000000000000000000000000000000000000000046146143a4565b6148f9565b6001600e55604051908152f35b3461049157604036600319011261049157610756613983565b61075e613999565b9060018060a01b03809116600052600760205260406000209116600052602052602060ff604060002054166040519015158152f35b61079c36613b94565b6107a4614c0a565b336000526020916015835260ff926107c3846040600020541615613dbe565b6107cb614c2b565b6107f67f000000000000000000000000000000000000000000000000000000000000000046146143a4565b8160005260188152604060002093600a850161083582825461081c828260a01c166142d2565b61082b828260a81c1615613d1c565b60b01c16156143de565b841515806109fc575b6108479061441e565b61085f600787015480159081156109e4575b5061445d565b61087861087086600889015461429f565b3410156144a0565b610881856144fa565b9461088c81346142b2565b906000600689019060019360018b01915b8481106109425761091a8b8b6000805160206159348339815191528f8d818e808f6003608096016108cf34825461427c565b90555460b81c169081610933575b501561091e57506108ee3485615382565b6040519034825234908201526000604082015260016060820152a26001600e5560405191829182613c0f565b0390f35b60040161092c34825461427c565b90556108ee565b905060175460101c16886108dd565b8084848c6109bd8f958b968f601b90600f9561098c6109868854998a996109688b614357565b90556109748c54614357565b809c556109818a33614c4e565b613a80565b88614adb565b866000526019825280604060002055601a825288604060002055600052526109b8846040600020613ea5565b614539565b52604051918252848c8301528c6000805160206158f483398151915260403394a40161089d565b90506109f48760068a015461427c565b111588610859565b50603285111561083e565b346104915760003660031901126104915760206040516127108152f35b34610491576000366003190112610491576011546040516001600160a01b039091168152602090f35b34610491576020366003190112610491576001600160a01b03610a6e613983565b166000526015602052602060ff604060002054166040519015158152f35b3461049157600036600319011261049157610aa5614a74565b610aad614c2b565b478015610b09577f5fafa99d0643513820be26656b45130b01e1c03062e1266bf36f88cbd3bd9695602060018060a01b03610af660008080808886601154165af161051a614811565b6011541692604051908152a26001600e55005b60405162461bcd60e51b815260206004820152600a6024820152694e6f2062616c616e636560b01b6044820152606490fd5b60208060031936011261049157600435610b53614c0a565b336000526015825260ff90610b6f826040600020541615613dbe565b610b77614c2b565b80600052601883526040600020600a810190610b9d84835461081c828260a01c166142d2565b610bb560078201548015908115610cdc575b50614314565b610bc560088201543410156144a0565b600f5493610bd285614357565b600f55806006830193610be58554614357565b809555610bf28733614c4e565b610c0161098660018601613a80565b866000526019885285604060002055601a88528460406000205585600052601b8852610c31876040600020613ea5565b60038401610c4034825461427c565b90555460b81c169081610ccd575b5015610cb85750610c5f3483615382565b604051908152348482015282826000805160206158f483398151915260403394a4600080516020615934833981519152608060405134815234868201526000604082015260016060820152a26001600e55604051908152f35b600401610cc634825461427c565b9055610c5f565b905060175460101c1686610c4e565b905060068301541087610baf565b346104915760403660031901126104915760043561ffff81169081810361049157610d13613b25565b90610d1c614a74565b610bb88311610d9f5760207f910a28ccd5b8f99f5cbc7d92ef87e3f7ec688263eba2ae9ebb65d0b327a89c0093604051610d5581613a29565b818152841515928391015262ff00006017549260101b169162ffffff19161717601755610d9a6040519283928390929160209061ffff60408401951683521515910152565b0390a1005b60405162461bcd60e51b815260206004820152600c60248201526b08ccaca40e8dede40d0d2ced60a31b6044820152606490fd5b34610491576000366003190112610491576020604051610bb88152f35b3461049157600036600319011261049157602060405160328152f35b346104915760003660031901126104915760206040517f00000000000000000000000000000000000000000000000000000000000000008152f35b3461049157602036600319011261049157600435610e6481614aa0565b50600052600c60205261091a610e7d6040600020613a80565b6000604051610e8b81613a44565b526040519182916020835260208301906139af565b3461049157610eae36613b61565b610eb9929192614a74565b8160005260209060188252604060002090610ede60ff600a84015460a81c1615613d1c565b6001600160401b038111610fed57610f0081610efa84546139ef565b84613e03565b6000601f8211600114610f7357816060949392610f45926000805160206159148339815191529798600092610f68575b50508160011b916000199060031b1c19161790565b90555b6008604051918083528201526763617465676f727960c01b6040820152a2005b013590508880610f30565b601f1982169083600052846000209160005b818110610fd657509160008051602061591483398151915296978492606097969560019510610fbc575b505050811b019055610f48565b0135600019600384901b60f8161c19169055878080610faf565b91928660018192868c013581550194019201610f85565b634e487b7160e01b600052604160045260246000fd5b346104915760203660031901126104915760043560005260196020526020604060002054604051908152f35b346104915760203660031901126104915760043561104b614a74565b6000818152600460205260409020546001600160a01b03906110709082161515613d5a565b816000526004602052604060002054169061108a8161506f565b7f33631bcd0a4d34a7e2c240ab0753d5adfb7284d8ac89dab6876ec785c0cfa0e6600080a3005b34610491576080366003190112610491576110ca613983565b6110d2613999565b90604435606435926001600160401b03841161049157366023850112156104915761110a610018943690602481600401359101613ce5565b92611116838383613ec8565b6157bb565b3461049157602036600319011261049157600435611137614a74565b60008181526004602052604090205461115a906001600160a01b03161515613d5a565b8060005260146020526040600020600160ff198254161790557fbf025f2b09b91dc81d2b137bed7b878fb0bd75a3bfe4708d69989fda3c63485a602060405160018152a2005b3461049157602036600319011261049157600435600052601a6020526020604060002054604051908152f35b34610491576020366003190112610491576004356111e8614a74565b6000818152601860205260408120600a01805461ffff60a01b1916600160a81b1790557f5e6eb33a418de5dbbc17f989f7ae362cdfbb1748c5d603137c767027a354edbc9080a2005b346104915760003660031901126104915761124a614a74565b60008055005b346104915760203660031901126104915760043561126c614a74565b60008181526004602052604090205461128f906001600160a01b03161515613d5a565b8060005260166020526040600020600160ff198254161790557f7fba17392135b4084a7d689c1f6d77139e1f1c18ee4651bf32dc35ae29ce9301602060405160018152a2005b34610491577f6bd5c950a8d8df17f772f5af37cb3655737899cbf903264b9795592da439661c604061130636613b94565b61130e614a74565b82519182526020820152a1005b3461049157604036600319011261049157611334613983565b61133c613b25565b6001600160a01b039091169081156113ad5733600052600760205260406000208260005260205261137d8160406000209060ff801983541691151516179055565b60405190151581527f17307eab39ab6107e8899845ad3d59bd9653f200f220920489ca2b5937696c3160203392a3005b604051630b61174360e31b815260048101839052602490fd5b34610491576020366003190112610491576004356113e2614a74565b6000818152601860205260408120600a01805462ff00ff60a01b1916600160b01b1790557f4825b022b52da7a8de8063d9ea8fd654176315fff40077d4c0374f8e1d8a245b9080a2005b3461049157610100366003190112610491576004356001600160401b0381116104915761145d903690600401613b34565b906024356001600160401b0381116104915761147d903690600401613b34565b9160a435916001600160a01b03831683036104915760c4356001600160a01b03811681036104915760e435928315158403610491576114ba614a74565b6114ce6001600160a01b0383161515614798565b6114e26001600160a01b0386161515614758565b601054956114ef87614357565b60105560405193846101e08101106001600160401b036101e087011117610fed57611530916101e08601604052611527368b86613ce5565b86523691613ce5565b602084015260443560408401526000606084015260006080840152600060a0840152600060c084015260643560e084015260843561010084015260018060a01b03851661012084015260018060a01b0382166101408401526001610160840152600061018084015260006101a08401528315156101c084015285600052601860205260406000209683518051906001600160401b038211610fed576115df826115d98c546139ef565b8c613e03565b602090601f83116001146118935761160f9291600091836118885750508160011b916000199060031b1c19161790565b88555b6020840151928351986001600160401b038a11610fed5789899561164860209c61163f60018601546139ef565b60018601613e03565b8b90601f83116001146117e85761178e936116a4847f2b284f3763c3f60985f9293b26f40161537c0fcc0bb7250a3eb0c1cb65e849ed9a9b956101c095600a956000926117dd5750508160011b916000199060031b1c19161790565b60018201555b60408401516002820155606084015160038201556080840151600482015560a080850151600583015560c0850151600683015560e0850151600783015561010085015160088301556101208501516009830180546001600160a01b0319166001600160a01b039283161790556101408601519390920180546101608701516101808801516101a089015197909801516001600160c01b0319909216959094169490941792151590911b60ff60a01b169190911793151560a81b60ff60a81b169390931791151560b01b60ff60b01b169190911790151560b81b60ff60b81b16179055565b6117a560405193849360a0855260a0850191613d9d565b604435838b01526064356040840152608435606084015295151560808301526001600160a01b039081169616940390a4604051908152f35b015190503880610f30565b97929190600183016000528c6000209860005b601f198416811061186e5750926001837f2b284f3763c3f60985f9293b26f40161537c0fcc0bb7250a3eb0c1cb65e849ed9a9b600a9461178e98976101c097601f19811610611855575b505050811b0160018201556116aa565b015160001960f88460031b161c19169055388080611845565b828201518b556001909a01998d9950918e01918e016117fb565b015190508b80610f30565b91908a6000526020600020906000935b601f19841685106118e4576001945083601f198116106118cb575b505050811b018855611612565b015160001960f88460031b161c191690558a80806118be565b818101518355602094850194600190930192909101906118a3565b346104915761001861191036613b94565b90611919614a74565b61487f565b3461049157600036600319011261049157604051600354600082611941836139ef565b91828252602093600190856001821691826000146119e1575050600114611984575b5061197092500383613a5f565b61091a6040519282849384528301906139af565b84915060036000527fc2575a0e9e593c00f959f8c92f12db2869c3395a3b0502d05e2516446f71f85b906000915b8583106119c9575050611970935082010185611963565b805483890185015287945086939092019181016119b2565b60ff19168582015261197095151560051b85010192508791506119639050565b34610491576040366003190112610491576001600160401b0360043581811161049157611a32903690600401613baa565b909160243590811161049157611a4c903690600401613b34565b9091611a56614a74565b60005b818110611a6257005b6001906001600160a01b03611a97611a7b83868a613e59565b356000908152600460205260409020546001600160a01b031690565b16611aa3575b01611a59565b611ac3611ab1828589613e59565b35611abd368789613ce5565b90614adb565b611ace818488613e59565b357fac6d62cb5d30a7fff578060cd3dcf46ff2df7991a71c2d2aabca7e558f130f7860405180611b0560208083528201898b613d9d565b0390a2611a9d565b611b1636613b94565b611b1e614c0a565b336000526020916015835260ff92611b3d846040600020541615613dbe565b611b45614c2b565b8160005260188152604060002093600a8501611b6b82825461081c828260a01c166142d2565b84151580611c49575b611b7d9061441e565b611b94600787015480159081156109e4575061445d565b611ba561087086600889015461429f565b611bae856144fa565b94611bb981346142b2565b906000600689019060019360018b01915b848110611bfc5761091a8b8b6000805160206159348339815191528f8d818e808f6003608096016108cf34825461427c565b8084848c611c228f958b968f601b90600f9561098c6109868854998a996109688b614357565b52604051918252848c8301528c6000805160206158f483398151915260403394a401611bca565b506032851115611b74565b3461049157600036600319011261049157600d546040516001600160a01b039091168152602090f35b3461049157606036600319011261049157611c96613983565b602435906044356001600160401b03811161049157611cb9903690600401613b34565b9091611cc3614a74565b611ccb614c2b565b6001600160a01b0316928315611dc3578015611d8d57601254818110611d54577fd24fd04b4a509fac28aab0419d3841217c53a8b375b372060993dc15c350ef7f93611d1a83611d4a9361452c565b601255611d316000808080878b5af161051a614811565b6040519384938452604060208501526040840191613d9d565b0390a26001600e55005b60405162461bcd60e51b8152602060048201526011602482015270125b9cdd59999a58da595b9d081c1bdbdb607a1b6044820152606490fd5b60405162461bcd60e51b815260206004820152600e60248201526d125b9d985b1a5908185b5bdd5b9d60921b6044820152606490fd5b60405162461bcd60e51b8152602060048201526011602482015270125b9d985b1a59081c9958da5c1a595b9d607a1b6044820152606490fd5b3461049157600036600319011261049157611e15614a74565b611e1d614c0a565b600d805460ff60a01b1916600160a01b1790556040513381527f62e78cea01bee320cd4e420270b5ea74000d11b0c9f74754ebdbfc544b05a25890602090a1005b60208060031936011261049157600435611e76614c0a565b336000526015825260ff90611e92826040600020541615613dbe565b611e9a614c2b565b610b777f000000000000000000000000000000000000000000000000000000000000000046146143a4565b346104915760203660031901126104915760043560005260196020526060604060002054601a6020526040600020548160005260186020526006604060002001549060405192835260208301526040820152f35b3461049157602036600319011261049157600435611f35614a74565b806000526018602052600a60406000200160ff60a01b19815416905560008051602061591483398151915260405180611f898160609060208152600660208201526561637469766560d01b60408201520190565b0390a2005b3461049157602036600319011261049157611fa7613983565b611faf614a74565b6001600160a01b03908116908115611ffe57601154826001600160601b0360a01b821617601155167f4ab5be82436d353e61ca18726e984e561f5c1cc7c6d38b29d2553c790434705a600080a3005b60405162461bcd60e51b815260206004820152601060248201526f496e76616c696420747265617375727960801b6044820152606490fd5b34610491576020366003190112610491576004356000526016602052602060ff604060002054166040519015158152f35b3461049157600036600319011261049157612080614a74565b600d80546001600160a01b031981169091556000906001600160a01b03167f8be0079c531659141344cd1fd0a4f28419497f9722a3daafe3b4186f6b6457e08280a3005b346104915760203660031901126104915760206120e76120e2613983565b6147d8565b604051908152f35b346104915760403660031901126104915760043561210b613999565b612113614a74565b816000526018602052600a6040600020019081549061213860ff8360a81c1615613d1c565b6001600160a01b03169061214d821515614798565b6001600160601b0360a01b161790556000805160206159148339815191526040516020815280611f8960208201604090600981526839bab136b4ba3a32b960b91b60208201520190565b34610491576040366003190112610491576004356121b3613999565b6121bb614a74565b81600052601860205260096040600020916121e060ff600a85015460a81c1615613d1c565b6001600160a01b0316916121f5831515614758565b01906001600160601b0360a01b82541617905560008051602061591483398151915260606040516020815260096020820152681b9bdb9c1c9bd99a5d60ba1b6040820152a2005b3461049157602036600319011261049157602061225a600435614aa0565b6040516001600160a01b039091168152f35b34610491576000366003190112610491576017546040805161ffff8316815260109290921c60ff161515602083015290f35b3461049157600036600319011261049157602060ff600d5460a01c166040519015158152f35b34610491576060366003190112610491576004356122e0613999565b604435906001600160601b038216809203610491576122fd614a74565b61271080831161237557506001600160a01b03908116928315612356576040519361232785613a29565b84526020808501938452600091825260019052604090209251915160a01b6001600160a01b0319169116179055005b60449060405190634b4f842960e11b8252600482015260006024820152fd5b83606491846040519263dfd1fc1b60e01b8452600484015260248301526044820152fd5b34610491576020366003190112610491576004356123b5614a74565b6123bd614c2b565b8060005260186020526004604060002001908154908115612430578147106123eb5760006105209355615382565b60405162461bcd60e51b815260206004820152601d60248201527f496e73756666696369656e7420636f6e74726163742062616c616e63650000006044820152606490fd5b60405162461bcd60e51b815260206004820152601060248201526f4e6f2070656e64696e672066756e647360801b6044820152606490fd5b3461049157602036600319011261049157600435600052601c6020526020604060002054604051908152f35b3461049157602036600319011261049157600435600052601860205261251d6040600020600281015460ff8260038101546004820154906006830154600784015460088501549160018060a01b0394856009880154169461252b6125086001612501600a8c01549b613a80565b9d01613a80565b6040519d8e9d8e6101a09081815201906139af565b8d810360208f0152906139af565b9960408c015260608b015260808a015260a089015260c088015260e08701526101008601528116610120850152818160a01c161515610140850152818160a81c16151561016085015260b81c1615156101808301520390f35b346104915761259236613b94565b61259a614a74565b816000526018602052600260406000206125be60ff600a83015460a81c1615613d1c565b0155600080516020615914833981519152606060405160208152600460208201526319dbd85b60e21b6040820152a2005b34610491576000366003190112610491576020601254604051908152f35b3461049157602036600319011261049157600435600a5481101561264457612636602091613c4b565b90546040519160031b1c8152f35b6044906040519063295f44f760e21b8252600060048301526024820152fd5b61091a6126a361267236613cb0565b9161267b614c0a565b33600052601560205261269660ff6040600020541615613dbe565b61269e614c2b565b61454d565b6001600e5560405191829182613c0f565b34610491576020366003190112610491576004356126d0614a74565b806000526014602052604060002060ff1981541690557fbf025f2b09b91dc81d2b137bed7b878fb0bd75a3bfe4708d69989fda3c63485a602060405160008152a2005b6000366003190112610491573415612762576127313460125461427c565b6012556040513481527f1da5cc6515d0bf0b6fb40cedcd4ef3eb9a5b820440278efc9321a4491b5dd1ef60203392a2005b60405162461bcd60e51b815260206004820152600f60248201526e4d7573742073656e642066756e647360881b6044820152606490fd5b61091a6126a36127a836613cb0565b916127b1614c0a565b3360005260156020526127cc60ff6040600020541615613dbe565b6127d4614c2b565b61269e7f000000000000000000000000000000000000000000000000000000000000000046146143a4565b346104915760203660031901126104915760043561281b614a74565b806000526016602052604060002060ff1981541690557f7fba17392135b4084a7d689c1f6d77139e1f1c18ee4651bf32dc35ae29ce9301602060405160008152a2005b34610491576040366003190112610491576004356001600160401b0381116104915761288e903690600401613baa565b612896613b25565b61289e614a74565b60005b8281106128aa57005b6001906001600160a01b036128c3611a7b838789613e59565b166128cf575b016128a1565b6128da818587613e59565b356000526020601481526128fe8460406000209060ff801983541691151516179055565b7fbf025f2b09b91dc81d2b137bed7b878fb0bd75a3bfe4708d69989fda3c63485a61292a838789613e59565b35916040518615158152a26128c9565b346104915760203660031901126104915760043580600052600460205260018060a01b036040600020541633036129b85780600052601460205261298660ff6040600020541615614366565b61298f8161506f565b33907f33631bcd0a4d34a7e2c240ab0753d5adfb7284d8ac89dab6876ec785c0cfa0e6600080a3005b60405162461bcd60e51b815260206004820152600f60248201526e2737ba103a37b5b2b71037bbb732b960891b6044820152606490fd5b3461049157610018612a0036613bda565b9060405192612a0e84613a44565b60008452611116838383613ec8565b3461049157612a2b36613b94565b90600052601b602052604060002080548210156104915760209161263691613c98565b3461049157600036600319011261049157612a67614a74565b600d5460ff8160a01c1615612aae5760ff60a01b1916600d556040513381527f5db9ee0a495bf2e6ff9c91a7834c1ba4fdd244a5e8aa4e537bd38aeae4b073aa90602090a1005b604051638dfc202b60e01b8152600490fd5b346104915760208060031936011261049157600435600052601b6020526040600020906040519081602084549182815201936000526020600020916000905b828210612b225761091a85612b1681890382613a5f565b60405191829182613c0f565b835486529485019460019384019390910190612aff565b3461049157602036600319011261049157612b52614a74565b7ff8e1a15aba9398e019f0b49df1a4fde98ee17ae345cb5f6b5e2c27f5033e8ce760206040516004358152a1005b3461049157604036600319011261049157612b99613983565b60243590612ba6816147d8565b821015612bd95760018060a01b031660005260086020526040600020906000526020526020604060002054604051908152f35b60405163295f44f760e21b81526001600160a01b039190911660048201526024810191909152604490fd5b34610491576060366003190112610491576004356040612c22613999565b91612c2b614a74565b80600052602092601884528260002091612c5d60ff600a850154612c53828260a01c166142d2565b60a81c1615613d1c565b612c7460078401548015908115612d115750614314565b6000805160206158f4833981519152600f54948593612c9285614357565b600f55612cc5612cbf60016006890198612cac8a54614357565b809a55612cb98986614c4e565b01613a80565b86614adb565b8460005260198852838260002055601a885285826000205583600052601b8852612cf28583600020613ea5565b8151958652604435888701526001600160a01b031694a4604051908152f35b905060068501541087610baf565b3461049157612d2d36613b94565b906000526001602052604060002060405190612d4882613a29565b546001600160a01b0380821680845260a09290921c602084015291929015612da4575b612d86612710916001600160601b036020860151169061429f565b925160408051939091166001600160a01b0316835292046020820152f35b9150612710612d86604051612db881613a29565b600054848116825260a01c602082015293915050612d6b565b346104915760a036600319011261049157600435602435604435606435916084358015158091036104915760008051602061593483398151915293608093612e17614a74565b86600052601860205260056040600020612e3b60ff600a83015460a81c1615613d1c565b612e45848761427c565b612e546003830191825461427c565b905560048101612e6584825461427c565b905501612e7383825461427c565b9055604051938452602084015260408301526060820152a2005b3461049157610018612e9e36613bda565b91613ec8565b3461049157602036600319011261049157600435612ec0614a74565b806000526018602052600a604060002001805460ff8160a81c16612f6f5760ff8160b01c16612f325760ff60a01b1916600160a01b1790556040805160208082526006908201526561637469766560d01b91810191909152600080516020615914833981519152908060608101611f89565b60405162461bcd60e51b815260206004820152601560248201527410d85b5c185a59db881dd85cc81c99599d5b991959605a1b6044820152606490fd5b60405162461bcd60e51b815260206004820152601b60248201527f43616d706169676e207065726d616e656e746c7920636c6f73656400000000006044820152606490fd5b34610491576040366003190112610491576004356001600160401b03811161049157612fe4903690600401613baa565b9060243591612ff1614a74565b60005b818110612ffd57005b6001600160a01b03613013611a7b838587613e59565b16613021575b600101612ff4565b92919061302f848284613e59565b35600052601b6020601981528460406000205584600052526040600020936000946000958154965b878110613091575b506001939495965015613075575b509050613019565b61308b90613084838688613e59565b3590613ea5565b8561306d565b61309b8184613c98565b90546130a886888a613e59565b359160031b1c146130bb57600101613057565b5094955085945060018061305f565b34610491576130d836613b61565b906130e1614a74565b8260005260209060188252604060002061310560ff600a83015460a81c1615613d1c565b60018091016001600160401b038511610fed5761312c8561312683546139ef565b83613e03565b600085601f81116001146131f6578061315b926000916131eb575b508160011b916000199060031b1c19161790565b90555b84600052601b83526040600020816000905b6131ad575b60405185815287907fd0ed2732da48175aaae07fd675a2a78b1700515722f6675d7ff5f0e09f22f3099080611f89818a018b8a613d9d565b81548110156131e6579082826131de6131c7839585613c98565b90546131d4368c8b613ce5565b9160031b1c614adb565b019091613170565b613175565b905085013589613147565b50601f198616908260005286866000209260005b8887838310613244575050501061322a575b50508185811b01905561315e565b840135600019600388901b60f8161c19169055868061321c565b858a0135875590950194938401938a93500161320a565b346104915761326936613b94565b613271614a74565b816000526018602052604060002061329360ff600a83015460a81c1615613d1c565b81158015613320575b156132db5760070155600080516020615914833981519152606060405160208152600b60208201526a6d617845646974696f6e7360a81b6040820152a2005b60405162461bcd60e51b815260206004820152601a60248201527f43616e6e6f74207265647563652062656c6f77206d696e7465640000000000006044820152606490fd5b50600681015482101561329c565b346104915760003660031901126104915760206001600160601b0360135416604051908152f35b34610491576000366003190112610491576020600a54604051908152f35b602061073061338136613b94565b9061338a614c0a565b33600052601584526133a460ff6040600020541615613dbe565b61072b614c2b565b34610491577fac6d62cb5d30a7fff578060cd3dcf46ff2df7991a71c2d2aabca7e558f130f786133db36613b61565b6133e6939293614a74565b600084815260046020526040902054613409906001600160a01b03161515613d5a565b61341d613417368385613ce5565b85614adb565b611f89604051928392602084526020840191613d9d565b346104915760403660031901126104915760043561349a613453613b25565b61345b614a74565b826000526018602052600a60406000200161347d60ff825460a81c1615613d1c565b805460ff60b81b191691151560b81b60ff60b81b16919091179055565b60008051602061591483398151915260606040516020815260166020820152751a5b5b59591a585d1954185e5bdd5d115b98589b195960521b6040820152a2005b34610491576020366003190112610491576004356000526018602052604060002061356d61350882613a80565b9160ff61351760018301613a80565b9360028301549260038101549060048101546005820154600683015460078401549160088501549360018060a01b039661357b600a8960098a015416980154996040519e8f9e8f926101e08085528401906139af565b9160208184039101526139af565b9a60408d015260608c015260808b015260a08a015260c089015260e08801526101008701526101208601528116610140850152818160a01c161515610160850152818160a81c161515610180850152818160b01c1615156101a085015260b81c1615156101c08301520390f35b3461049157604036600319011261049157613601613983565b60243561360d81614aa0565b331515806136bc575b8061368f575b613677576001600160a01b039283169282918491167f8c5be1e5ebec7d5bd14f71427d1e84f3dd0314c0f7b2291e5b200ac8c7c3b925600080a4600090815260066020526040902080546001600160a01b0319169091179055005b60405163a9fbf51f60e01b8152336004820152602490fd5b5060018060a01b038116600052600760205260406000203360005260205260ff604060002054161561361c565b506001600160a01b038116331415613616565b34610491576020366003190112610491576004356136ec81614aa0565b506000526006602052602060018060a01b0360406000205416604051908152f35b3461049157600036600319011261049157604051600254600082613730836139ef565b91828252602093600190856001821691826000146119e157505060011461375e575061197092500383613a5f565b84915060026000527f405787fa12a823e0f2b7631cc41b3ba8828b3321ca811111fa75cd3aa3bb5ace906000915b8583106137a3575050611970935082010185611963565b8054838901850152879450869390920191810161378c565b34610491576040366003190112610491576137d4613983565b6024356001600160601b03811691828203610491576137f1614a74565b61271080841161388e57506001600160a01b0316918215613875577f35804d3532228d15c4fe3fa7a4fb8100c86dc285216e9c806f5d6f2cef55283992602092828460405161383f81613a29565b848152015260a01b6001600160a01b03191617600055601380546bffffffffffffffffffffffff191682179055604051908152a1005b604051635b6cc80560e11b815260006004820152602490fd5b8360449160405191636f483d0960e01b835260048301526024820152fd5b34610491576000366003190112610491576020601054604051908152f35b34610491576020366003190112610491576004359063ffffffff60e01b821680920361049157602091632483248360e11b811490811561390c575b5015158152f35b63780e9d6360e01b811491508115613926575b5083613905565b6380ac58cd60e01b811491508115613972575b8115613947575b508361391f565b63152a902d60e11b811491508115613961575b5083613940565b6301ffc9a760e01b1490508361395a565b635b5e139f60e01b81149150613939565b600435906001600160a01b038216820361049157565b602435906001600160a01b038216820361049157565b919082519283825260005b8481106139db575050826000602080949584010152601f8019910116010190565b6020818301810151848301820152016139ba565b90600182811c92168015613a1f575b6020831014613a0957565b634e487b7160e01b600052602260045260246000fd5b91607f16916139fe565b604081019081106001600160401b03821117610fed57604052565b602081019081106001600160401b03821117610fed57604052565b90601f801991011681019081106001600160401b03821117610fed57604052565b90604051918260008254613a93816139ef565b90818452602094600191600181169081600014613b035750600114613ac4575b505050613ac292500383613a5f565b565b600090815285812095935091905b818310613aeb575050613ac29350820101388080613ab3565b85548884018501529485019487945091830191613ad2565b92505050613ac294925060ff191682840152151560051b820101388080613ab3565b60243590811515820361049157565b9181601f84011215610491578235916001600160401b038311610491576020838186019501011161049157565b9060406003198301126104915760043591602435906001600160401b03821161049157613b9091600401613b34565b9091565b6040906003190112610491576004359060243590565b9181601f84011215610491578235916001600160401b038311610491576020808501948460051b01011161049157565b6060906003190112610491576001600160a01b0390600435828116810361049157916024359081168103610491579060443590565b602090602060408183019282815285518094520193019160005b828110613c37575050505090565b835185529381019392810192600101613c29565b600a54811015613c8257600a6000527fc65a7bb8d6351c1cf70c95a316cc6a92839c986682d98bc35f958f4883f9d2a80190600090565b634e487b7160e01b600052603260045260246000fd5b8054821015613c825760005260206000200190600090565b606090600319011261049157600435906024359060443590565b6001600160401b038111610fed57601f01601f191660200190565b929192613cf182613cca565b91613cff6040519384613a5f565b829481845281830111610491578281602093846000960137010152565b15613d2357565b60405162461bcd60e51b815260206004820152600f60248201526e10d85b5c185a59db8818db1bdcd959608a1b6044820152606490fd5b15613d6157565b60405162461bcd60e51b8152602060048201526014602482015273151bdad95b88191bd95cc81b9bdd08195e1a5cdd60621b6044820152606490fd5b908060209392818452848401376000828201840152601f01601f1916010190565b15613dc557565b60405162461bcd60e51b81526020600482015260166024820152751059191c995cdcc81a5cc8189b1858dadb1a5cdd195960521b6044820152606490fd5b90601f8111613e1157505050565b6000916000526020600020906020601f850160051c83019410613e4f575b601f0160051c01915b828110613e4457505050565b818155600101613e38565b9092508290613e2f565b9190811015613c825760051b0190565b600a5490600160401b821015610fed57613e8c826001613ac29401600a55613c4b565b90919082549060031b91821b91600019901b1916179055565b90815491600160401b831015610fed5782613e8c916001613ac295018155613c98565b6001600160a01b038281169391908415614263576000918383526004956020938785526040948486832054168015158061425b575b61415d575b5086825288815284868320541697331515806140cb575b5088158015614098575b84845260058352878420805460010190558884528a835287842080546001600160a01b0319168617905588858b7fddf252ad1be2c89b69c2b068fc378daa952ba7f163c4a11628f55a4df523b3ef8780a41561401c57600a54888452600b835287842055613f9088613e69565b838903613fcb575b505050501690818403613fac575050505050565b516364283d7b60e01b8152938401526024830152604482015260649150fd5b613fd4906147d8565b600019810193908411614009578291600991889452600881528383208584528152888484205588835252205538808080613f98565b634e487b7160e01b835260118a52602483fd5b888414613f905761402c896147d8565b8884526009835287842054818103614061575b5088845283888120558984526008835287842090845282528287812055613f90565b8a8552600884528885208286528452888520548b8652600885528986208287528552808a872055855260098452888520553861403f565b600089815260066020526040902080546001600160a01b0319169055898452600583528784208054600019019055613f23565b8061411c575b156140dc5738613f19565b878a888b6140f957916024925191637e27328960e01b8352820152fd5b5163177e802f60e01b815233918101918252602082019290925281906040010390fd5b503389148015614141575b806140d157508783526006825233868885205416146140d1565b5088835260078252868320338452825260ff8784205416614127565b6014825261417160ff888520541615614366565b8783526016825260ff87842054166142235782526015815260ff86832054166141e9578282526015815260ff86832054166141ac5738613f02565b8860649187519162461bcd60e51b83528201526018602482015277149958da5c1a595b9d081a5cc8189b1858dadb1a5cdd195960421b6044820152fd5b8860649187519162461bcd60e51b8352820152601560248201527414d95b99195c881a5cc8189b1858dadb1a5cdd1959605a1b6044820152fd5b865162461bcd60e51b8152808b018390526012602482015271151bdad95b881a5cc81cdbdd5b189bdd5b9960721b6044820152606490fd5b506001613efd565b604051633250574960e11b815260006004820152602490fd5b9190820180921161428957565b634e487b7160e01b600052601160045260246000fd5b8181029291811591840414171561428957565b81156142bc570490565b634e487b7160e01b600052601260045260246000fd5b156142d957565b60405162461bcd60e51b815260206004820152601360248201527243616d706169676e206e6f742061637469766560681b6044820152606490fd5b1561431b57565b60405162461bcd60e51b815260206004820152601460248201527313585e0819591a5d1a5bdb9cc81c995858da195960621b6044820152606490fd5b60001981146142895760010190565b1561436d57565b60405162461bcd60e51b815260206004820152600f60248201526e2a37b5b2b71034b990333937bd32b760891b6044820152606490fd5b156143ab57565b60405162461bcd60e51b815260206004820152600b60248201526a2bb937b7339031b430b4b760a91b6044820152606490fd5b156143e557565b60405162461bcd60e51b815260206004820152601160248201527010d85b5c185a59db881c99599d5b991959607a1b6044820152606490fd5b1561442557565b60405162461bcd60e51b815260206004820152601060248201526f496e76616c6964207175616e7469747960801b6044820152606490fd5b1561446457565b60405162461bcd60e51b815260206004820152601460248201527345786365656473206d61782065646974696f6e7360601b6044820152606490fd5b156144a757565b60405162461bcd60e51b8152602060048201526014602482015273125b9cdd59999a58da595b9d081c185e5b595b9d60621b6044820152606490fd5b6001600160401b038111610fed5760051b60200190565b90614504826144e3565b6145116040519182613a5f565b8281528092614522601f19916144e3565b0190602036910137565b9190820391821161428957565b8051821015613c825760209160051b010190565b909160009082825260209160188352604090818120600a810161457b60ff825461081c828260a01c166142d2565b8715158061474d575b61458d9061441e565b6145a860078301548015908115614735575b5098939861445d565b6145c2610870866145bd86600887015461429f565b61427c565b6145cb836144fa565b976145d6863461452c565b936145e181346142b2565b600192906006860190848701838d8f5b87831061469357505050505050505050918160ff6080969460036000805160206159348339815191529997950161462934825461427c565b90556005830161463a87825461427c565b90555460b81c1680614684575b1561466f575061465883828961559c565b81519334855284015282015260016060820152a290565b60040161467d82825461427c565b9055614658565b5060ff60175460101c16614647565b868f92878f938695888a928f99600f898154998a9586936146b385614357565b905589546146c090614357565b998a90556146ce8433614c4e565b6146d790613a80565b6146e19084614adb565b828152601987528982822055601a87528882822055898152601b8752209061470891613ea5565b61471191614539565b52855192835282015233936000805160206158f483398151915291a4018d8f6145f1565b90506147458a600686015461427c565b11153861459f565b506032881115614584565b1561475f57565b60405162461bcd60e51b8152602060048201526011602482015270125b9d985b1a59081b9bdb9c1c9bd99a5d607a1b6044820152606490fd5b1561479f57565b60405162461bcd60e51b815260206004820152601160248201527024b73b30b634b21039bab136b4ba3a32b960791b6044820152606490fd5b6001600160a01b031680156147f857600052600560205260406000205490565b6040516322718ad960e21b815260006004820152602490fd5b3d1561483c573d9061482282613cca565b916148306040519384613a5f565b82523d6000602084013e565b606090565b1561484857565b60405162461bcd60e51b815260206004820152600f60248201526e151c985b9cd9995c8819985a5b1959608a1b6044820152606490fd5b6000818152600460205260408120549092906148a5906001600160a01b03161515613d5a565b81835260196020528060408420558252601b602052604082208054925b8381106148d45750613ac29250613ea5565b826148df8284613c98565b90549060031b1c146148f3576001016148c2565b50505050565b60008051602061593483398151915260806000938385526020906018825260408581882097600a89019861493860ff8b5461081c828260a01c166142d2565b61494f60078201548015908115614a665750614314565b61496061087086600884015461427c565b60ff600f549a61496f8c614357565b600f556149ce8c8760068601966149868854614357565b8098556149938b3461452c565b9861499e8433614c4e565b6149ad61341760018a01613a80565b83825260198d528083832055601a8d5288838320558152601b8c5220613ea5565b600383016149dd34825461427c565b9055600583016149ee88825461427c565b90555460b81c1680614a57575b15614a425750614a0c84838a61559c565b8251908152348582015288886000805160206158f4833981519152853394a481519334855284015282015260016060820152a290565b600401614a5083825461427c565b9055614a0c565b5060ff60175460101c166149fb565b905060068301541038610baf565b600d546001600160a01b03163303614a8857565b60405163118cdaa760e01b8152336004820152602490fd5b6000818152600460205260409020546001600160a01b0316908115614ac3575090565b60249060405190637e27328960e01b82526004820152fd5b919091600090808252602091600c835260408120908551956001600160401b038711614bf657614b1587614b0f85546139ef565b85613e03565b8491601f8811600114614b725796614b669281927ff8e1a15aba9398e019f0b49df1a4fde98ee17ae345cb5f6b5e2c27f5033e8ce79899926117dd5750508160011b916000199060031b1c19161790565b90555b604051908152a1565b9190601f198816848452868420935b818110614bdf57509160019391897ff8e1a15aba9398e019f0b49df1a4fde98ee17ae345cb5f6b5e2c27f5033e8ce7999a9410614bc6575b505050811b019055614b69565b015160001960f88460031b161c19169055388080614bb9565b929387600181928786015181550195019301614b81565b634e487b7160e01b82526041600452602482fd5b60ff600d5460a01c16614c1957565b60405163d93c066560e01b8152600490fd5b6002600e5414614c3c576002600e55565b604051633ee5aeb560e01b8152600490fd5b6040805190614c5c82613a44565b60008083526001600160a01b0394848616939091908415615057578282526004956020978789528086852054168015158061504f575b614f4f575b5084845287895285842054168681159182159283614f1c575b82875260058c52888720805460010190558787528a8c5288872080546001600160a01b031916841790558783837fddf252ad1be2c89b69c2b068fc378daa952ba7f163c4a11628f55a4df523b3ef8a80a415614e9e57600a54878752600b8c5288872055614d1d87613e69565b03614e52575b614e3b573b614d36575b50505050505050565b86614d73918596979899955180938192630a85bd0160e11b97888452338d85015287602485015260448401526080606484015260848301906139af565b0381858a5af190829082614df0575b5050614db857505050614d93614811565b80519485614db257505051633250574960e11b81529182015260249150fd5b85925001fd5b9195506001600160e01b031990911603614ddb5750505038808080808080614d2d565b51633250574960e11b81529182015260249150fd5b909192508881813d8311614e34575b614e098183613a5f565b81010312614e305751906001600160e01b031982168203614e2d5750903880614d82565b80fd5b5080fd5b503d614dff565b84516339e3563760e11b8152808801849052602490fd5b614e5b826147d8565b6000198101908111614e8b5787855260088a528685208186528a52858786205585855260098a5286852055614d23565b634e487b7160e01b855260118952602485fd5b808214614d1d57614eae816147d8565b87875260098c5288872054818103614ee3575b50878752868981205581875260088c528887209087528b528588812055614d1d565b82885260088d528988208289528d528c60088b8a205491858b52528d8b8a2090838b5252808b8a2055885260098d528988205538614ec1565b600088815260066020526040902080546001600160a01b031916905581875260058c528887208054600019019055614cb0565b60148a52614f6360ff888720541615614366565b85855260168a5260ff87862054166150175784526015895260ff8685205416614fdc578684526015895260ff8685205416614f9e5738614c97565b855162461bcd60e51b81528089018a90526018602482015277149958da5c1a595b9d081a5cc8189b1858dadb1a5cdd195960421b6044820152606490fd5b855162461bcd60e51b81528089018a9052601560248201527414d95b99195c881a5cc8189b1858dadb1a5cdd1959605a1b6044820152606490fd5b865162461bcd60e51b8152808a018b90526012602482015271151bdad95b881a5cc81cdbdd5b189bdd5b9960721b6044820152606490fd5b506001614c92565b8351633250574960e11b815260048101839052602490fd5b60009080825260049160209083825260018060a01b03916040928084842054168015158061537b575b61527b575b50848352858252838320541691821592831580615248575b86835287845285832080546001600160a01b03191690558683837fddf252ad1be2c89b69c2b068fc378daa952ba7f163c4a11628f55a4df523b3ef8280a484156151c7575050600a54858252600b83528482205561511285613e69565b600a54600019928382019182116151b457600b908784528181526151398785205493613c4b565b90549060031b1c61514d81613e8c86613c4b565b845252848220558481528084812055600a549081156151a1575081019061517382613c4b565b909182549160031b1b19169055600a5561518c57505050565b51637e27328960e01b81529182015260249150fd5b634e487b7160e01b815260318752602490fd5b634e487b7160e01b835260118852602483fd5b6151d2575b50615112565b6151db816147d8565b908683526009845285832054828103615211575b50868352828681205582526008835284822090825282528084812055386151cc565b81845260088552868420838552855286842054828552600886528785208286528652808886205584526009855286842055386151ef565b600087815260066020526040902080546001600160a01b03191690558183526005845285832080546000190190556150b5565b6014835261528f60ff868620541615614366565b8584526016835260ff85852054166153435783526015825260ff8484205416615308578280526015825260ff84842054166152ca573861509d565b835162461bcd60e51b81528087018390526018602482015277149958da5c1a595b9d081a5cc8189b1858dadb1a5cdd195960421b6044820152606490fd5b835162461bcd60e51b8152808701839052601560248201527414d95b99195c881a5cc8189b1858dadb1a5cdd1959605a1b6044820152606490fd5b845162461bcd60e51b81528088018490526012602482015271151bdad95b881a5cc81cdbdd5b189bdd5b9960721b6044820152606490fd5b5083615098565b6000918183526020926018845260408082206127106153a761ffff601754168661429f565b04906153d4826153b7818861452c565b96888752601c8a528587206153cd82825461427c565b905561452c565b6153e36004830191825461427c565b9055816154fa575b8461542a575b600a0154825194855295840152820181905260608201526001600160a01b039092169160008051602061595483398151915290608090a3565b600a810160018060a01b0390858080808a868654165af1615449614811565b50156154ba5792859392600080516020615954833981519152979592608097945416896000805160206158d48339815191528c868051918b8352820152806154aa888201604090600981526839bab136b4ba3a32b960b91b60208201520190565b0390a392509294509294506153f1565b845162461bcd60e51b8152600481018a9052601960248201527814dd589b5a5d1d195c881d1c985b9cd9995c8819985a5b1959603a1b6044820152606490fd5b60018060a01b03848080808685601154165af1615515614811565b50156155585760115416866000805160206158d483398151915260808651868152878c82015260088882015267706c6174666f726d60c01b6060820152a36153eb565b835162461bcd60e51b815260048101899052601c60248201527f506c6174666f726d20666565207472616e73666572206661696c6564000000006044820152606490fd5b906000928284526020936018855260408082206127106155c261ffff601754168761429f565b04906155f6826155d6876145bd838b61452c565b976155e1888261427c565b8a8852601c8c526153cd87892091825461427c565b6156056004830191825461427c565b905581615719575b8561564a575b600a015482519586529685015283015260608201526001600160a01b039092169160008051602061595483398151915290608090a3565b600a810160018060a01b0390858080808b868654165af1615669614811565b50156156d957916000805160206159548339815191529795939160809795935416896000805160206158d48339815191528c868051918b8352820152806156c9888201604090600981526839bab136b4ba3a32b960b91b60208201520190565b0390a39193955091939550615613565b845162461bcd60e51b8152600481018b9052601960248201527814dd589b5a5d1d195c881d1c985b9cd9995c8819985a5b1959603a1b6044820152606490fd5b60018060a01b03848080808685601154165af1615734614811565b50156157775760115416876000805160206158d483398151915260808651868152878d82015260088882015267706c6174666f726d60c01b6060820152a361560d565b835162461bcd60e51b8152600481018a9052601c60248201527f506c6174666f726d20666565207472616e73666572206661696c6564000000006044820152606490fd5b9190803b6157c95750505050565b61580b60018060a01b0380921694604051938493630a85bd0160e11b9687865233600487015216602485015260448401526080606484015260848301906139af565b03906020816000938185885af19082908261588a575b50506158595782615830614811565b805191908261585257604051633250574960e11b815260048101839052602490fd5b9050602001fd5b6001600160e01b031916036158725750388080806148f3565b60249060405190633250574960e11b82526004820152fd5b909192506020813d6020116158cb575b816158a760209383613a5f565b81010312614e305751906001600160e01b031982168203614e2d5750903880615821565b3d915061589a56fec5116d0bff033daa6db9b6cf401237ef4f85a0a6cbe32bfb53d189b3e6c4bad644a73422883fd5aac8dde6ef3688c62f25a4fb22e7a395bafb411ec4803ab1bd7a9a4f151cc0b6349bd7062416b8f68d1d73c3f457efc221520eb5547595d2d8f1a038a86c47446d2a26b7852348eee74e6d63d5a71792df01e40c2e6d0e1ca21459509071e134f17a163289d2286672b4e8c1af62c9cdd22eabdc6bee9217f3a2646970667358221220772a418294acbd2ac2618fe1294cd93f385e92a210e9f453eb373fc31a97535764736f6c63430008180033","opcodes":"PUSH1 0xA0 CALLVALUE PUSH3 0x4CC JUMPI PUSH3 0x5E9B SWAP1 PUSH1 0x1F NOT SWAP1 PUSH1 0x1 PUSH1 0x1 PUSH1 0x40 SHL SUB PUSH1 0x1F CODESIZE DUP6 SWAP1 SUB DUP2 DUP2 ADD DUP6 AND DUP5 ADD SWAP1 DUP4 DUP3 GT DUP6 DUP4 LT OR PUSH3 0x3DE JUMPI DUP1 DUP6 SWAP2 PUSH1 0x40 SWAP9 DUP10 SWAP5 DUP6 MSTORE DUP4 CODECOPY DUP2 ADD SUB SLT PUSH3 0x4CC JUMPI DUP3 MLOAD PUSH1 0x1 PUSH1 0x1 PUSH1 0xA0 SHL SUB DUP1 DUP3 AND SWAP6 SWAP1 SWAP3 SWAP1 SWAP2 DUP7 SWAP1 SUB PUSH3 0x4CC JUMPI PUSH1 0x20 DUP1 SWAP6 ADD MLOAD SWAP4 PUSH2 0xFFFF DUP6 AND DUP1 SWAP6 SUB PUSH3 0x4CC JUMPI PUSH3 0x7F PUSH3 0x4D1 JUMP JUMPDEST SWAP3 PUSH1 0x15 DUP5 MSTORE PUSH32 0x50617472696F74506C656467652045646974696F6E0000000000000000000000 DUP8 DUP6 ADD MSTORE PUSH3 0xB3 PUSH3 0x4D1 JUMP JUMPDEST SWAP3 PUSH1 0x3 SWAP4 DUP5 DUP2 MSTORE PUSH3 0x505045 PUSH1 0xE8 SHL DUP10 DUP3 ADD MSTORE DUP6 MLOAD DUP5 DUP2 GT PUSH3 0x3DE JUMPI PUSH1 0x2 SLOAD PUSH1 0x1 SWAP8 DUP9 DUP3 DUP2 SHR SWAP3 AND DUP1 ISZERO PUSH3 0x4C1 JUMPI JUMPDEST DUP13 DUP4 LT EQ PUSH3 0x3BD JUMPI DUP12 DUP3 DUP7 DUP6 SWAP5 GT PUSH3 0x467 JUMPI JUMPDEST POP POP DUP12 SWAP1 DUP6 DUP4 GT PUSH1 0x1 EQ PUSH3 0x400 JUMPI PUSH1 0x0 SWAP3 PUSH3 0x3F4 JUMPI JUMPDEST POP POP PUSH1 0x0 NOT DUP3 DUP9 SHL SHR NOT AND SWAP1 DUP8 SHL OR PUSH1 0x2 SSTORE JUMPDEST DUP1 MLOAD SWAP4 DUP5 GT PUSH3 0x3DE JUMPI DUP5 SLOAD SWAP3 DUP7 DUP5 DUP2 SHR SWAP5 AND DUP1 ISZERO PUSH3 0x3D3 JUMPI JUMPDEST DUP11 DUP6 LT EQ PUSH3 0x3BD JUMPI DUP4 DUP4 DUP7 SWAP6 GT PUSH3 0x363 JUMPI JUMPDEST POP DUP10 SWAP3 DUP5 GT PUSH1 0x1 EQ PUSH3 0x2FF JUMPI POP PUSH1 0x0 SWAP3 PUSH3 0x2F3 JUMPI JUMPDEST POP POP PUSH1 0x0 NOT DUP3 DUP5 SHL SHR NOT AND SWAP1 DUP4 SHL OR SWAP1 SSTORE JUMPDEST CALLER ISZERO PUSH3 0x2DB JUMPI PUSH1 0xD SLOAD DUP7 MLOAD SWAP3 CALLER SWAP1 DUP3 AND PUSH32 0x8BE0079C531659141344CD1FD0A4F28419497F9722A3DAAFE3B4186F6B6457E0 PUSH1 0x0 DUP1 LOG3 PUSH1 0x1 PUSH1 0x1 PUSH1 0xA8 SHL SUB NOT AND CALLER PUSH1 0xFF PUSH1 0xA0 SHL NOT AND OR PUSH1 0xD SSTORE PUSH1 0xE SSTORE PUSH1 0x13 DUP1 SLOAD PUSH1 0x1 PUSH1 0x1 PUSH1 0x60 SHL SUB NOT AND PUSH1 0xFA OR SWAP1 SSTORE DUP4 ISZERO PUSH3 0x2A6 JUMPI POP PUSH2 0xBB8 DUP2 GT PUSH3 0x273 JUMPI PUSH1 0x11 DUP1 SLOAD PUSH1 0x1 PUSH1 0x1 PUSH1 0xA0 SHL SUB NOT AND DUP5 OR SWAP1 SSTORE CHAINID PUSH1 0x80 MSTORE PUSH1 0xFA SWAP2 SWAP1 PUSH1 0x0 DUP3 PUSH3 0x216 PUSH3 0x4D1 JUMP JUMPDEST DUP4 DUP2 MSTORE ADD MSTORE PUSH3 0xFFFFFF NOT PUSH1 0x17 SLOAD AND OR PUSH1 0x17 SSTORE PUSH3 0x232 PUSH3 0x4D1 JUMP JUMPDEST DUP4 DUP2 MSTORE ADD MSTORE PUSH1 0x7D PUSH1 0xA1 SHL OR PUSH1 0x0 SSTORE MLOAD PUSH2 0x59A9 SWAP1 DUP2 PUSH3 0x4F2 DUP3 CODECOPY PUSH1 0x80 MLOAD DUP2 DUP2 DUP2 PUSH2 0x705 ADD MSTORE DUP2 DUP2 PUSH2 0x7D0 ADD MSTORE DUP2 DUP2 PUSH2 0xE24 ADD MSTORE DUP2 DUP2 PUSH2 0x1E9F ADD MSTORE PUSH2 0x27D9 ADD MSTORE RETURN JUMPDEST DUP4 MLOAD PUSH3 0x461BCD PUSH1 0xE5 SHL DUP2 MSTORE PUSH1 0x4 DUP2 ADD DUP4 SWAP1 MSTORE PUSH1 0xC PUSH1 0x24 DUP3 ADD MSTORE PUSH12 0x8CCACA40E8DEDE40D0D2CED PUSH1 0xA3 SHL PUSH1 0x44 DUP3 ADD MSTORE PUSH1 0x64 SWAP1 REVERT JUMPDEST PUSH3 0x461BCD PUSH1 0xE5 SHL DUP2 MSTORE PUSH1 0x4 DUP2 ADD DUP4 SWAP1 MSTORE PUSH1 0x10 PUSH1 0x24 DUP3 ADD MSTORE PUSH16 0x496E76616C6964207472656173757279 PUSH1 0x80 SHL PUSH1 0x44 DUP3 ADD MSTORE PUSH1 0x64 SWAP1 REVERT JUMPDEST DUP6 MLOAD PUSH4 0x1E4FBDF7 PUSH1 0xE0 SHL DUP2 MSTORE PUSH1 0x0 PUSH1 0x4 DUP3 ADD MSTORE PUSH1 0x24 SWAP1 REVERT JUMPDEST ADD MLOAD SWAP1 POP CODESIZE DUP1 PUSH3 0x169 JUMP JUMPDEST DUP7 SWAP5 SWAP3 SWAP2 SWAP3 AND SWAP2 DUP6 PUSH1 0x0 MSTORE DUP10 PUSH1 0x0 KECCAK256 SWAP3 PUSH1 0x0 JUMPDEST DUP12 DUP3 DUP3 LT PUSH3 0x34C JUMPI POP POP DUP5 GT PUSH3 0x333 JUMPI JUMPDEST POP POP POP DUP2 SHL ADD SWAP1 SSTORE PUSH3 0x17B JUMP JUMPDEST ADD MLOAD PUSH1 0x0 NOT DUP4 DUP7 SHL PUSH1 0xF8 AND SHR NOT AND SWAP1 SSTORE CODESIZE DUP1 DUP1 PUSH3 0x325 JUMP JUMPDEST DUP4 DUP6 ADD MLOAD DUP7 SSTORE DUP10 SWAP8 SWAP1 SWAP6 ADD SWAP5 SWAP4 DUP5 ADD SWAP4 ADD PUSH3 0x312 JUMP JUMPDEST SWAP1 SWAP2 SWAP3 SWAP4 POP DUP6 PUSH1 0x0 MSTORE DUP10 PUSH1 0x0 KECCAK256 DUP5 DUP1 DUP8 ADD PUSH1 0x5 SHR DUP3 ADD SWAP3 DUP13 DUP9 LT PUSH3 0x3B3 JUMPI JUMPDEST SWAP2 DUP8 SWAP7 DUP11 SWAP3 SWAP7 SWAP6 SWAP5 SWAP4 ADD PUSH1 0x5 SHR ADD SWAP2 JUMPDEST DUP3 DUP2 LT PUSH3 0x3A3 JUMPI POP POP PUSH3 0x152 JUMP JUMPDEST PUSH1 0x0 DUP2 SSTORE DUP8 SWAP7 POP DUP10 SWAP2 ADD PUSH3 0x393 JUMP JUMPDEST SWAP3 POP DUP2 SWAP3 PUSH3 0x383 JUMP JUMPDEST PUSH4 0x4E487B71 PUSH1 0xE0 SHL PUSH1 0x0 MSTORE PUSH1 0x22 PUSH1 0x4 MSTORE PUSH1 0x24 PUSH1 0x0 REVERT JUMPDEST SWAP4 PUSH1 0x7F AND SWAP4 PUSH3 0x13E JUMP JUMPDEST PUSH4 0x4E487B71 PUSH1 0xE0 SHL PUSH1 0x0 MSTORE PUSH1 0x41 PUSH1 0x4 MSTORE PUSH1 0x24 PUSH1 0x0 REVERT JUMPDEST ADD MLOAD SWAP1 POP CODESIZE DUP1 PUSH3 0x110 JUMP JUMPDEST SWAP1 DUP13 SWAP2 DUP8 DUP12 SWAP6 AND PUSH1 0x2 PUSH1 0x0 MSTORE DUP4 PUSH1 0x0 KECCAK256 SWAP4 PUSH1 0x0 SWAP1 JUMPDEST DUP3 DUP3 LT PUSH3 0x44F JUMPI POP POP DUP5 GT PUSH3 0x436 JUMPI JUMPDEST POP POP POP DUP2 SHL ADD PUSH1 0x2 SSTORE PUSH3 0x123 JUMP JUMPDEST ADD MLOAD PUSH1 0x0 NOT DUP4 DUP11 SHL PUSH1 0xF8 AND SHR NOT AND SWAP1 SSTORE CODESIZE DUP1 DUP1 PUSH3 0x427 JUMP JUMPDEST DUP4 DUP6 ADD MLOAD DUP7 SSTORE DUP14 SWAP8 SWAP1 SWAP6 ADD SWAP5 SWAP4 DUP5 ADD SWAP4 ADD DUP16 PUSH3 0x415 JUMP JUMPDEST SWAP1 SWAP2 SWAP3 POP PUSH1 0x2 PUSH1 0x0 MSTORE DUP6 DUP3 PUSH1 0x0 KECCAK256 SWAP2 DUP2 DUP7 ADD PUSH1 0x5 SHR DUP4 ADD SWAP4 DUP7 LT PUSH3 0x4B7 JUMPI JUMPDEST SWAP2 DUP12 SWAP2 DUP7 SWAP6 SWAP5 SWAP4 ADD PUSH1 0x5 SHR ADD SWAP2 JUMPDEST DUP3 DUP2 LT PUSH3 0x4A7 JUMPI POP DUP14 SWAP2 POP PUSH3 0xF8 JUMP JUMPDEST PUSH1 0x0 DUP2 SSTORE DUP6 SWAP5 POP DUP12 SWAP2 ADD PUSH3 0x495 JUMP JUMPDEST SWAP3 POP DUP2 SWAP3 PUSH3 0x487 JUMP JUMPDEST SWAP2 PUSH1 0x7F AND SWAP2 PUSH3 0xE3 JUMP JUMPDEST PUSH1 0x0 DUP1 REVERT JUMPDEST PUSH1 0x40 DUP1 MLOAD SWAP2 SWAP1 DUP3 ADD PUSH1 0x1 PUSH1 0x1 PUSH1 0x40 SHL SUB DUP2 GT DUP4 DUP3 LT OR PUSH3 0x3DE JUMPI PUSH1 0x40 MSTORE JUMP INVALID PUSH1 0x80 DUP1 PUSH1 0x40 MSTORE PUSH1 0x4 CALLDATASIZE LT ISZERO PUSH2 0x1A JUMPI JUMPDEST POP CALLDATASIZE ISZERO PUSH2 0x18 JUMPI STOP JUMPDEST STOP JUMPDEST PUSH1 0x0 CALLDATALOAD PUSH1 0xE0 SHR SWAP1 DUP2 PUSH4 0x1FFC9A7 EQ PUSH2 0x38CA JUMPI POP DUP1 PUSH4 0x2932F56 EQ PUSH2 0x38AC JUMPI DUP1 PUSH4 0x4634D8D EQ PUSH2 0x37BB JUMPI DUP1 PUSH4 0x6FDDE03 EQ PUSH2 0x370D JUMPI DUP1 PUSH4 0x81812FC EQ PUSH2 0x36CF JUMPI DUP1 PUSH4 0x95EA7B3 EQ PUSH2 0x35E8 JUMPI DUP1 PUSH4 0x141961BC EQ PUSH2 0x34DB JUMPI DUP1 PUSH4 0x15E5B793 EQ PUSH2 0x3434 JUMPI DUP1 PUSH4 0x162094C4 EQ PUSH2 0x33AC JUMPI DUP1 PUSH4 0x1797C8F2 EQ PUSH2 0x3373 JUMPI DUP1 PUSH4 0x18160DDD EQ PUSH2 0x3355 JUMPI DUP1 PUSH4 0x18D33E41 EQ PUSH2 0x332E JUMPI DUP1 PUSH4 0x1CC76D75 EQ PUSH2 0x325B JUMPI DUP1 PUSH4 0x1DDA279B EQ PUSH2 0x30CA JUMPI DUP1 PUSH4 0x1E2B8983 EQ PUSH2 0x2FB4 JUMPI DUP1 PUSH4 0x1E5EB1D0 EQ PUSH2 0x226C JUMPI DUP1 PUSH4 0x1FDC217C EQ PUSH2 0x2EA4 JUMPI DUP1 PUSH4 0x23B872DD EQ PUSH2 0x2E8D JUMPI DUP1 PUSH4 0x25532ECD EQ PUSH2 0x2DD1 JUMPI DUP1 PUSH4 0x2A55205A EQ PUSH2 0x2D1F JUMPI DUP1 PUSH4 0x2A76D553 EQ PUSH2 0x2C04 JUMPI DUP1 PUSH4 0x2F745C59 EQ PUSH2 0x2B80 JUMPI DUP1 PUSH4 0x3190B9EA EQ PUSH2 0x2B39 JUMPI DUP1 PUSH4 0x3705F2A8 EQ PUSH2 0x2AC0 JUMPI DUP1 PUSH4 0x3F4BA83A EQ PUSH2 0x2A4E JUMPI DUP1 PUSH4 0x407DE9DF EQ PUSH2 0x2A1D JUMPI DUP1 PUSH4 0x42842E0E EQ PUSH2 0x29EF JUMPI DUP1 PUSH4 0x42966C68 EQ PUSH2 0x293A JUMPI DUP1 PUSH4 0x4639CFAA EQ PUSH2 0x285E JUMPI DUP1 PUSH4 0x47C735FC EQ PUSH2 0x27FF JUMPI DUP1 PUSH4 0x49942B0F EQ PUSH2 0x2799 JUMPI DUP1 PUSH4 0x4CBDBFA9 EQ PUSH2 0x2713 JUMPI DUP1 PUSH4 0x4D787EA9 EQ PUSH2 0x26B4 JUMPI DUP1 PUSH4 0x4DB7BFFF EQ PUSH2 0x2663 JUMPI DUP1 PUSH4 0x4F6CCCE7 EQ PUSH2 0x260D JUMPI DUP1 PUSH4 0x5049E52F EQ PUSH2 0x25EF JUMPI DUP1 PUSH4 0x51A0BBB2 EQ PUSH2 0x2584 JUMPI DUP1 PUSH4 0x5598F8CC EQ PUSH2 0x2494 JUMPI DUP1 PUSH4 0x573A2427 EQ PUSH2 0x2468 JUMPI DUP1 PUSH4 0x57487AA5 EQ PUSH2 0x2399 JUMPI DUP1 PUSH4 0x5944C753 EQ PUSH2 0x22C4 JUMPI DUP1 PUSH4 0x5C975ABB EQ PUSH2 0x229E JUMPI DUP1 PUSH4 0x5FBBC0D2 EQ PUSH2 0x226C JUMPI DUP1 PUSH4 0x6352211E EQ PUSH2 0x223C JUMPI DUP1 PUSH4 0x64094CED EQ PUSH2 0x2197 JUMPI DUP1 PUSH4 0x6FB8696C EQ PUSH2 0x20EF JUMPI DUP1 PUSH4 0x70A08231 EQ PUSH2 0x20C4 JUMPI DUP1 PUSH4 0x715018A6 EQ PUSH2 0x2067 JUMPI DUP1 PUSH4 0x7A181597 EQ PUSH2 0x2036 JUMPI DUP1 PUSH4 0x7CD86D60 EQ PUSH2 0x1F8E JUMPI DUP1 PUSH4 0x7ECA30FE EQ PUSH2 0x1F19 JUMPI DUP1 PUSH4 0x8079CA0C EQ PUSH2 0x1EC5 JUMPI DUP1 PUSH4 0x80B2F18D EQ PUSH2 0x1E5E JUMPI DUP1 PUSH4 0x8456CB59 EQ PUSH2 0x1DFC JUMPI DUP1 PUSH4 0x8583D7C0 EQ PUSH2 0x1C7D JUMPI DUP1 PUSH4 0x8DA5CB5B EQ PUSH2 0x1C54 JUMPI DUP1 PUSH4 0x8E20F98C EQ PUSH2 0x1B0D JUMPI DUP1 PUSH4 0x8F52D21A EQ PUSH2 0x1A01 JUMPI DUP1 PUSH4 0x95D89B41 EQ PUSH2 0x191E JUMPI DUP1 PUSH4 0x96AB0493 EQ PUSH2 0x18FF JUMPI DUP1 PUSH4 0x9B640D43 EQ PUSH2 0x142C JUMPI DUP1 PUSH4 0xA0A441BB EQ PUSH2 0x13C6 JUMPI DUP1 PUSH4 0xA22CB465 EQ PUSH2 0x131B JUMPI DUP1 PUSH4 0xA4830114 EQ PUSH2 0x12D5 JUMPI DUP1 PUSH4 0xA591EEA1 EQ PUSH2 0x1250 JUMPI DUP1 PUSH4 0xAA1B103F EQ PUSH2 0x1231 JUMPI DUP1 PUSH4 0xB0E1C1E1 EQ PUSH2 0x11CC JUMPI DUP1 PUSH4 0xB6358D99 EQ PUSH2 0x11A0 JUMPI DUP1 PUSH4 0xB6854F96 EQ PUSH2 0x111B JUMPI DUP1 PUSH4 0xB88D4FDE EQ PUSH2 0x10B1 JUMPI DUP1 PUSH4 0xBADB97FF EQ PUSH2 0x102F JUMPI DUP1 PUSH4 0xC1692213 EQ PUSH2 0x1003 JUMPI DUP1 PUSH4 0xC608E72A EQ PUSH2 0xEA0 JUMPI DUP1 PUSH4 0xC87B56DD EQ PUSH2 0xE47 JUMPI DUP1 PUSH4 0xCD0D0096 EQ PUSH2 0xE0C JUMPI DUP1 PUSH4 0xCFDBF254 EQ PUSH2 0xDF0 JUMPI DUP1 PUSH4 0xD55BE8C6 EQ PUSH2 0xDD3 JUMPI DUP1 PUSH4 0xD83B4F99 EQ PUSH2 0xCEA JUMPI DUP1 PUSH4 0xD88D6EF3 EQ PUSH2 0xB3B JUMPI DUP1 PUSH4 0xDB2E21BC EQ PUSH2 0xA8C JUMPI DUP1 PUSH4 0xDBAC26E9 EQ PUSH2 0xA4D JUMPI DUP1 PUSH4 0xE138818C EQ PUSH2 0xA24 JUMPI DUP1 PUSH4 0xE1A45218 EQ PUSH2 0xA07 JUMPI DUP1 PUSH4 0xE2EC62F9 EQ PUSH2 0x793 JUMPI DUP1 PUSH4 0xE985E9C5 EQ PUSH2 0x73D JUMPI DUP1 PUSH4 0xEB4D68FD EQ PUSH2 0x6C7 JUMPI DUP1 PUSH4 0xEB91E651 EQ PUSH2 0x65B JUMPI DUP1 PUSH4 0xF2FDE38B EQ PUSH2 0x5D2 JUMPI DUP1 PUSH4 0xF3290D75 EQ PUSH2 0x563 JUMPI DUP1 PUSH4 0xF3FEF3A3 EQ PUSH2 0x4C7 JUMPI DUP1 PUSH4 0xF401F8A0 EQ PUSH2 0x496 JUMPI PUSH4 0xFB77211C EQ PUSH2 0x41B JUMPI CODESIZE PUSH2 0xF JUMP JUMPDEST CALLVALUE PUSH2 0x491 JUMPI PUSH2 0x429 CALLDATASIZE PUSH2 0x3B94 JUMP JUMPDEST PUSH2 0x431 PUSH2 0x4A74 JUMP JUMPDEST DUP2 PUSH1 0x0 MSTORE PUSH1 0x18 PUSH1 0x20 MSTORE PUSH1 0x8 PUSH1 0x40 PUSH1 0x0 KECCAK256 PUSH2 0x455 PUSH1 0xFF PUSH1 0xA DUP4 ADD SLOAD PUSH1 0xA8 SHR AND ISZERO PUSH2 0x3D1C JUMP JUMPDEST ADD SSTORE PUSH1 0x0 DUP1 MLOAD PUSH1 0x20 PUSH2 0x5914 DUP4 CODECOPY DUP2 MLOAD SWAP2 MSTORE PUSH1 0x60 PUSH1 0x40 MLOAD PUSH1 0x20 DUP2 MSTORE PUSH1 0xF PUSH1 0x20 DUP3 ADD MSTORE PUSH15 0x383934B1B2A832B922B234BA34B7B7 PUSH1 0x89 SHL PUSH1 0x40 DUP3 ADD MSTORE LOG2 STOP JUMPDEST PUSH1 0x0 DUP1 REVERT JUMPDEST CALLVALUE PUSH2 0x491 JUMPI PUSH1 0x20 CALLDATASIZE PUSH1 0x3 NOT ADD SLT PUSH2 0x491 JUMPI PUSH1 0x4 CALLDATALOAD PUSH1 0x0 MSTORE PUSH1 0x14 PUSH1 0x20 MSTORE PUSH1 0x20 PUSH1 0xFF PUSH1 0x40 PUSH1 0x0 KECCAK256 SLOAD AND PUSH1 0x40 MLOAD SWAP1 ISZERO ISZERO DUP2 MSTORE RETURN JUMPDEST CALLVALUE PUSH2 0x491 JUMPI PUSH1 0x40 CALLDATASIZE PUSH1 0x3 NOT ADD SLT PUSH2 0x491 JUMPI PUSH2 0x4E0 PUSH2 0x3983 JUMP JUMPDEST PUSH1 0x24 CALLDATALOAD PUSH2 0x4EB PUSH2 0x4A74 JUMP JUMPDEST PUSH2 0x4F3 PUSH2 0x4C2B JUMP JUMPDEST DUP1 SELFBALANCE LT PUSH2 0x527 JUMPI PUSH2 0x520 SWAP2 PUSH1 0x0 SWAP2 DUP3 SWAP2 DUP3 SWAP2 DUP3 SWAP2 PUSH1 0x1 PUSH1 0x1 PUSH1 0xA0 SHL SUB AND GAS CALL PUSH2 0x51A PUSH2 0x4811 JUMP JUMPDEST POP PUSH2 0x4841 JUMP JUMPDEST PUSH1 0x1 PUSH1 0xE SSTORE STOP JUMPDEST PUSH1 0x40 MLOAD PUSH3 0x461BCD PUSH1 0xE5 SHL DUP2 MSTORE PUSH1 0x20 PUSH1 0x4 DUP3 ADD MSTORE PUSH1 0x14 PUSH1 0x24 DUP3 ADD MSTORE PUSH20 0x496E73756666696369656E742062616C616E6365 PUSH1 0x60 SHL PUSH1 0x44 DUP3 ADD MSTORE PUSH1 0x64 SWAP1 REVERT JUMPDEST CALLVALUE PUSH2 0x491 JUMPI PUSH1 0x20 CALLDATASIZE PUSH1 0x3 NOT ADD SLT PUSH2 0x491 JUMPI PUSH2 0x57C PUSH2 0x3983 JUMP JUMPDEST PUSH2 0x584 PUSH2 0x4A74 JUMP JUMPDEST PUSH1 0x1 DUP1 PUSH1 0xA0 SHL SUB AND DUP1 PUSH1 0x0 MSTORE PUSH1 0x15 PUSH1 0x20 MSTORE PUSH1 0x40 PUSH1 0x0 KECCAK256 PUSH1 0x1 PUSH1 0xFF NOT DUP3 SLOAD AND OR SWAP1 SSTORE PUSH32 0x97B7AF35C8C05ECA90F543EB78B16FDF2664D3E6C9A907286F310647D9813B71 PUSH1 0x20 PUSH1 0x40 MLOAD PUSH1 0x1 DUP2 MSTORE LOG2 STOP JUMPDEST CALLVALUE PUSH2 0x491 JUMPI PUSH1 0x20 CALLDATASIZE PUSH1 0x3 NOT ADD SLT PUSH2 0x491 JUMPI PUSH2 0x5EB PUSH2 0x3983 JUMP JUMPDEST PUSH2 0x5F3 PUSH2 0x4A74 JUMP JUMPDEST PUSH1 0x1 PUSH1 0x1 PUSH1 0xA0 SHL SUB SWAP1 DUP2 AND SWAP1 DUP2 ISZERO PUSH2 0x642 JUMPI PUSH1 0xD SLOAD DUP3 PUSH1 0x1 PUSH1 0x1 PUSH1 0x60 SHL SUB PUSH1 0xA0 SHL DUP3 AND OR PUSH1 0xD SSTORE AND PUSH32 0x8BE0079C531659141344CD1FD0A4F28419497F9722A3DAAFE3B4186F6B6457E0 PUSH1 0x0 DUP1 LOG3 STOP JUMPDEST PUSH1 0x40 MLOAD PUSH4 0x1E4FBDF7 PUSH1 0xE0 SHL DUP2 MSTORE PUSH1 0x0 PUSH1 0x4 DUP3 ADD MSTORE PUSH1 0x24 SWAP1 REVERT JUMPDEST CALLVALUE PUSH2 0x491 JUMPI PUSH1 0x20 CALLDATASIZE PUSH1 0x3 NOT ADD SLT PUSH2 0x491 JUMPI PUSH2 0x674 PUSH2 0x3983 JUMP JUMPDEST PUSH2 0x67C PUSH2 0x4A74 JUMP JUMPDEST PUSH1 0x1 PUSH1 0x1 PUSH1 0xA0 SHL SUB AND PUSH1 0x0 DUP2 DUP2 MSTORE PUSH1 0x15 PUSH1 0x20 SWAP1 DUP2 MSTORE PUSH1 0x40 DUP1 DUP4 KECCAK256 DUP1 SLOAD PUSH1 0xFF NOT AND SWAP1 SSTORE MLOAD SWAP2 DUP3 MSTORE PUSH32 0x97B7AF35C8C05ECA90F543EB78B16FDF2664D3E6C9A907286F310647D9813B71 SWAP2 LOG2 STOP JUMPDEST PUSH1 0x20 PUSH2 0x730 PUSH2 0x6D5 CALLDATASIZE PUSH2 0x3B94 JUMP JUMPDEST SWAP1 PUSH2 0x6DE PUSH2 0x4C0A JUMP JUMPDEST CALLER PUSH1 0x0 MSTORE PUSH1 0x15 DUP5 MSTORE PUSH2 0x6F8 PUSH1 0xFF PUSH1 0x40 PUSH1 0x0 KECCAK256 SLOAD AND ISZERO PUSH2 0x3DBE JUMP JUMPDEST PUSH2 0x700 PUSH2 0x4C2B JUMP JUMPDEST PUSH2 0x72B PUSH32 0x0 CHAINID EQ PUSH2 0x43A4 JUMP JUMPDEST PUSH2 0x48F9 JUMP JUMPDEST PUSH1 0x1 PUSH1 0xE SSTORE PUSH1 0x40 MLOAD SWAP1 DUP2 MSTORE RETURN JUMPDEST CALLVALUE PUSH2 0x491 JUMPI PUSH1 0x40 CALLDATASIZE PUSH1 0x3 NOT ADD SLT PUSH2 0x491 JUMPI PUSH2 0x756 PUSH2 0x3983 JUMP JUMPDEST PUSH2 0x75E PUSH2 0x3999 JUMP JUMPDEST SWAP1 PUSH1 0x1 DUP1 PUSH1 0xA0 SHL SUB DUP1 SWAP2 AND PUSH1 0x0 MSTORE PUSH1 0x7 PUSH1 0x20 MSTORE PUSH1 0x40 PUSH1 0x0 KECCAK256 SWAP2 AND PUSH1 0x0 MSTORE PUSH1 0x20 MSTORE PUSH1 0x20 PUSH1 0xFF PUSH1 0x40 PUSH1 0x0 KECCAK256 SLOAD AND PUSH1 0x40 MLOAD SWAP1 ISZERO ISZERO DUP2 MSTORE RETURN JUMPDEST PUSH2 0x79C CALLDATASIZE PUSH2 0x3B94 JUMP JUMPDEST PUSH2 0x7A4 PUSH2 0x4C0A JUMP JUMPDEST CALLER PUSH1 0x0 MSTORE PUSH1 0x20 SWAP2 PUSH1 0x15 DUP4 MSTORE PUSH1 0xFF SWAP3 PUSH2 0x7C3 DUP5 PUSH1 0x40 PUSH1 0x0 KECCAK256 SLOAD AND ISZERO PUSH2 0x3DBE JUMP JUMPDEST PUSH2 0x7CB PUSH2 0x4C2B JUMP JUMPDEST PUSH2 0x7F6 PUSH32 0x0 CHAINID EQ PUSH2 0x43A4 JUMP JUMPDEST DUP2 PUSH1 0x0 MSTORE PUSH1 0x18 DUP2 MSTORE PUSH1 0x40 PUSH1 0x0 KECCAK256 SWAP4 PUSH1 0xA DUP6 ADD PUSH2 0x835 DUP3 DUP3 SLOAD PUSH2 0x81C DUP3 DUP3 PUSH1 0xA0 SHR AND PUSH2 0x42D2 JUMP JUMPDEST PUSH2 0x82B DUP3 DUP3 PUSH1 0xA8 SHR AND ISZERO PUSH2 0x3D1C JUMP JUMPDEST PUSH1 0xB0 SHR AND ISZERO PUSH2 0x43DE JUMP JUMPDEST DUP5 ISZERO ISZERO DUP1 PUSH2 0x9FC JUMPI JUMPDEST PUSH2 0x847 SWAP1 PUSH2 0x441E JUMP JUMPDEST PUSH2 0x85F PUSH1 0x7 DUP8 ADD SLOAD DUP1 ISZERO SWAP1 DUP2 ISZERO PUSH2 0x9E4 JUMPI JUMPDEST POP PUSH2 0x445D JUMP JUMPDEST PUSH2 0x878 PUSH2 0x870 DUP7 PUSH1 0x8 DUP10 ADD SLOAD PUSH2 0x429F JUMP JUMPDEST CALLVALUE LT ISZERO PUSH2 0x44A0 JUMP JUMPDEST PUSH2 0x881 DUP6 PUSH2 0x44FA JUMP JUMPDEST SWAP5 PUSH2 0x88C DUP2 CALLVALUE PUSH2 0x42B2 JUMP JUMPDEST SWAP1 PUSH1 0x0 PUSH1 0x6 DUP10 ADD SWAP1 PUSH1 0x1 SWAP4 PUSH1 0x1 DUP12 ADD SWAP2 JUMPDEST DUP5 DUP2 LT PUSH2 0x942 JUMPI PUSH2 0x91A DUP12 DUP12 PUSH1 0x0 DUP1 MLOAD PUSH1 0x20 PUSH2 0x5934 DUP4 CODECOPY DUP2 MLOAD SWAP2 MSTORE DUP16 DUP14 DUP2 DUP15 DUP1 DUP16 PUSH1 0x3 PUSH1 0x80 SWAP7 ADD PUSH2 0x8CF CALLVALUE DUP3 SLOAD PUSH2 0x427C JUMP JUMPDEST SWAP1 SSTORE SLOAD PUSH1 0xB8 SHR AND SWAP1 DUP2 PUSH2 0x933 JUMPI JUMPDEST POP ISZERO PUSH2 0x91E JUMPI POP PUSH2 0x8EE CALLVALUE DUP6 PUSH2 0x5382 JUMP JUMPDEST PUSH1 0x40 MLOAD SWAP1 CALLVALUE DUP3 MSTORE CALLVALUE SWAP1 DUP3 ADD MSTORE PUSH1 0x0 PUSH1 0x40 DUP3 ADD MSTORE PUSH1 0x1 PUSH1 0x60 DUP3 ADD MSTORE LOG2 PUSH1 0x1 PUSH1 0xE SSTORE PUSH1 0x40 MLOAD SWAP2 DUP3 SWAP2 DUP3 PUSH2 0x3C0F JUMP JUMPDEST SUB SWAP1 RETURN JUMPDEST PUSH1 0x4 ADD PUSH2 0x92C CALLVALUE DUP3 SLOAD PUSH2 0x427C JUMP JUMPDEST SWAP1 SSTORE PUSH2 0x8EE JUMP JUMPDEST SWAP1 POP PUSH1 0x17 SLOAD PUSH1 0x10 SHR AND DUP9 PUSH2 0x8DD JUMP JUMPDEST DUP1 DUP5 DUP5 DUP13 PUSH2 0x9BD DUP16 SWAP6 DUP12 SWAP7 DUP16 PUSH1 0x1B SWAP1 PUSH1 0xF SWAP6 PUSH2 0x98C PUSH2 0x986 DUP9 SLOAD SWAP10 DUP11 SWAP10 PUSH2 0x968 DUP12 PUSH2 0x4357 JUMP JUMPDEST SWAP1 SSTORE PUSH2 0x974 DUP13 SLOAD PUSH2 0x4357 JUMP JUMPDEST DUP1 SWAP13 SSTORE PUSH2 0x981 DUP11 CALLER PUSH2 0x4C4E JUMP JUMPDEST PUSH2 0x3A80 JUMP JUMPDEST DUP9 PUSH2 0x4ADB JUMP JUMPDEST DUP7 PUSH1 0x0 MSTORE PUSH1 0x19 DUP3 MSTORE DUP1 PUSH1 0x40 PUSH1 0x0 KECCAK256 SSTORE PUSH1 0x1A DUP3 MSTORE DUP9 PUSH1 0x40 PUSH1 0x0 KECCAK256 SSTORE PUSH1 0x0 MSTORE MSTORE PUSH2 0x9B8 DUP5 PUSH1 0x40 PUSH1 0x0 KECCAK256 PUSH2 0x3EA5 JUMP JUMPDEST PUSH2 0x4539 JUMP JUMPDEST MSTORE PUSH1 0x40 MLOAD SWAP2 DUP3 MSTORE DUP5 DUP13 DUP4 ADD MSTORE DUP13 PUSH1 0x0 DUP1 MLOAD PUSH1 0x20 PUSH2 0x58F4 DUP4 CODECOPY DUP2 MLOAD SWAP2 MSTORE PUSH1 0x40 CALLER SWAP5 LOG4 ADD PUSH2 0x89D JUMP JUMPDEST SWAP1 POP PUSH2 0x9F4 DUP8 PUSH1 0x6 DUP11 ADD SLOAD PUSH2 0x427C JUMP JUMPDEST GT ISZERO DUP9 PUSH2 0x859 JUMP JUMPDEST POP PUSH1 0x32 DUP6 GT ISZERO PUSH2 0x83E JUMP JUMPDEST CALLVALUE PUSH2 0x491 JUMPI PUSH1 0x0 CALLDATASIZE PUSH1 0x3 NOT ADD SLT PUSH2 0x491 JUMPI PUSH1 0x20 PUSH1 0x40 MLOAD PUSH2 0x2710 DUP2 MSTORE RETURN JUMPDEST CALLVALUE PUSH2 0x491 JUMPI PUSH1 0x0 CALLDATASIZE PUSH1 0x3 NOT ADD SLT PUSH2 0x491 JUMPI PUSH1 0x11 SLOAD PUSH1 0x40 MLOAD PUSH1 0x1 PUSH1 0x1 PUSH1 0xA0 SHL SUB SWAP1 SWAP2 AND DUP2 MSTORE PUSH1 0x20 SWAP1 RETURN JUMPDEST CALLVALUE PUSH2 0x491 JUMPI PUSH1 0x20 CALLDATASIZE PUSH1 0x3 NOT ADD SLT PUSH2 0x491 JUMPI PUSH1 0x1 PUSH1 0x1 PUSH1 0xA0 SHL SUB PUSH2 0xA6E PUSH2 0x3983 JUMP JUMPDEST AND PUSH1 0x0 MSTORE PUSH1 0x15 PUSH1 0x20 MSTORE PUSH1 0x20 PUSH1 0xFF PUSH1 0x40 PUSH1 0x0 KECCAK256 SLOAD AND PUSH1 0x40 MLOAD SWAP1 ISZERO ISZERO DUP2 MSTORE RETURN JUMPDEST CALLVALUE PUSH2 0x491 JUMPI PUSH1 0x0 CALLDATASIZE PUSH1 0x3 NOT ADD SLT PUSH2 0x491 JUMPI PUSH2 0xAA5 PUSH2 0x4A74 JUMP JUMPDEST PUSH2 0xAAD PUSH2 0x4C2B JUMP JUMPDEST SELFBALANCE DUP1 ISZERO PUSH2 0xB09 JUMPI PUSH32 0x5FAFA99D0643513820BE26656B45130B01E1C03062E1266BF36F88CBD3BD9695 PUSH1 0x20 PUSH1 0x1 DUP1 PUSH1 0xA0 SHL SUB PUSH2 0xAF6 PUSH1 0x0 DUP1 DUP1 DUP1 DUP9 DUP7 PUSH1 0x11 SLOAD AND GAS CALL PUSH2 0x51A PUSH2 0x4811 JUMP JUMPDEST PUSH1 0x11 SLOAD AND SWAP3 PUSH1 0x40 MLOAD SWAP1 DUP2 MSTORE LOG2 PUSH1 0x1 PUSH1 0xE SSTORE STOP JUMPDEST PUSH1 0x40 MLOAD PUSH3 0x461BCD PUSH1 0xE5 SHL DUP2 MSTORE PUSH1 0x20 PUSH1 0x4 DUP3 ADD MSTORE PUSH1 0xA PUSH1 0x24 DUP3 ADD MSTORE PUSH10 0x4E6F2062616C616E6365 PUSH1 0xB0 SHL PUSH1 0x44 DUP3 ADD MSTORE PUSH1 0x64 SWAP1 REVERT JUMPDEST PUSH1 0x20 DUP1 PUSH1 0x3 NOT CALLDATASIZE ADD SLT PUSH2 0x491 JUMPI PUSH1 0x4 CALLDATALOAD PUSH2 0xB53 PUSH2 0x4C0A JUMP JUMPDEST CALLER PUSH1 0x0 MSTORE PUSH1 0x15 DUP3 MSTORE PUSH1 0xFF SWAP1 PUSH2 0xB6F DUP3 PUSH1 0x40 PUSH1 0x0 KECCAK256 SLOAD AND ISZERO PUSH2 0x3DBE JUMP JUMPDEST PUSH2 0xB77 PUSH2 0x4C2B JUMP JUMPDEST DUP1 PUSH1 0x0 MSTORE PUSH1 0x18 DUP4 MSTORE PUSH1 0x40 PUSH1 0x0 KECCAK256 PUSH1 0xA DUP2 ADD SWAP1 PUSH2 0xB9D DUP5 DUP4 SLOAD PUSH2 0x81C DUP3 DUP3 PUSH1 0xA0 SHR AND PUSH2 0x42D2 JUMP JUMPDEST PUSH2 0xBB5 PUSH1 0x7 DUP3 ADD SLOAD DUP1 ISZERO SWAP1 DUP2 ISZERO PUSH2 0xCDC JUMPI JUMPDEST POP PUSH2 0x4314 JUMP JUMPDEST PUSH2 0xBC5 PUSH1 0x8 DUP3 ADD SLOAD CALLVALUE LT ISZERO PUSH2 0x44A0 JUMP JUMPDEST PUSH1 0xF SLOAD SWAP4 PUSH2 0xBD2 DUP6 PUSH2 0x4357 JUMP JUMPDEST PUSH1 0xF SSTORE DUP1 PUSH1 0x6 DUP4 ADD SWAP4 PUSH2 0xBE5 DUP6 SLOAD PUSH2 0x4357 JUMP JUMPDEST DUP1 SWAP6 SSTORE PUSH2 0xBF2 DUP8 CALLER PUSH2 0x4C4E JUMP JUMPDEST PUSH2 0xC01 PUSH2 0x986 PUSH1 0x1 DUP7 ADD PUSH2 0x3A80 JUMP JUMPDEST DUP7 PUSH1 0x0 MSTORE PUSH1 0x19 DUP9 MSTORE DUP6 PUSH1 0x40 PUSH1 0x0 KECCAK256 SSTORE PUSH1 0x1A DUP9 MSTORE DUP5 PUSH1 0x40 PUSH1 0x0 KECCAK256 SSTORE DUP6 PUSH1 0x0 MSTORE PUSH1 0x1B DUP9 MSTORE PUSH2 0xC31 DUP8 PUSH1 0x40 PUSH1 0x0 KECCAK256 PUSH2 0x3EA5 JUMP JUMPDEST PUSH1 0x3 DUP5 ADD PUSH2 0xC40 CALLVALUE DUP3 SLOAD PUSH2 0x427C JUMP JUMPDEST SWAP1 SSTORE SLOAD PUSH1 0xB8 SHR AND SWAP1 DUP2 PUSH2 0xCCD JUMPI JUMPDEST POP ISZERO PUSH2 0xCB8 JUMPI POP PUSH2 0xC5F CALLVALUE DUP4 PUSH2 0x5382 JUMP JUMPDEST PUSH1 0x40 MLOAD SWAP1 DUP2 MSTORE CALLVALUE DUP5 DUP3 ADD MSTORE DUP3 DUP3 PUSH1 0x0 DUP1 MLOAD PUSH1 0x20 PUSH2 0x58F4 DUP4 CODECOPY DUP2 MLOAD SWAP2 MSTORE PUSH1 0x40 CALLER SWAP5 LOG4 PUSH1 0x0 DUP1 MLOAD PUSH1 0x20 PUSH2 0x5934 DUP4 CODECOPY DUP2 MLOAD SWAP2 MSTORE PUSH1 0x80 PUSH1 0x40 MLOAD CALLVALUE DUP2 MSTORE CALLVALUE DUP7 DUP3 ADD MSTORE PUSH1 0x0 PUSH1 0x40 DUP3 ADD MSTORE PUSH1 0x1 PUSH1 0x60 DUP3 ADD MSTORE LOG2 PUSH1 0x1 PUSH1 0xE SSTORE PUSH1 0x40 MLOAD SWAP1 DUP2 MSTORE RETURN JUMPDEST PUSH1 0x4 ADD PUSH2 0xCC6 CALLVALUE DUP3 SLOAD PUSH2 0x427C JUMP JUMPDEST SWAP1 SSTORE PUSH2 0xC5F JUMP JUMPDEST SWAP1 POP PUSH1 0x17 SLOAD PUSH1 0x10 SHR AND DUP7 PUSH2 0xC4E JUMP JUMPDEST SWAP1 POP PUSH1 0x6 DUP4 ADD SLOAD LT DUP8 PUSH2 0xBAF JUMP JUMPDEST CALLVALUE PUSH2 0x491 JUMPI PUSH1 0x40 CALLDATASIZE PUSH1 0x3 NOT ADD SLT PUSH2 0x491 JUMPI PUSH1 0x4 CALLDATALOAD PUSH2 0xFFFF DUP2 AND SWAP1 DUP2 DUP2 SUB PUSH2 0x491 JUMPI PUSH2 0xD13 PUSH2 0x3B25 JUMP JUMPDEST SWAP1 PUSH2 0xD1C PUSH2 0x4A74 JUMP JUMPDEST PUSH2 0xBB8 DUP4 GT PUSH2 0xD9F JUMPI PUSH1 0x20 PUSH32 0x910A28CCD5B8F99F5CBC7D92EF87E3F7EC688263EBA2AE9EBB65D0B327A89C00 SWAP4 PUSH1 0x40 MLOAD PUSH2 0xD55 DUP2 PUSH2 0x3A29 JUMP JUMPDEST DUP2 DUP2 MSTORE DUP5 ISZERO ISZERO SWAP3 DUP4 SWAP2 ADD MSTORE PUSH3 0xFF0000 PUSH1 0x17 SLOAD SWAP3 PUSH1 0x10 SHL AND SWAP2 PUSH3 0xFFFFFF NOT AND OR OR PUSH1 0x17 SSTORE PUSH2 0xD9A PUSH1 0x40 MLOAD SWAP3 DUP4 SWAP3 DUP4 SWAP1 SWAP3 SWAP2 PUSH1 0x20 SWAP1 PUSH2 0xFFFF PUSH1 0x40 DUP5 ADD SWAP6 AND DUP4 MSTORE ISZERO ISZERO SWAP2 ADD MSTORE JUMP JUMPDEST SUB SWAP1 LOG1 STOP JUMPDEST PUSH1 0x40 MLOAD PUSH3 0x461BCD PUSH1 0xE5 SHL DUP2 MSTORE PUSH1 0x20 PUSH1 0x4 DUP3 ADD MSTORE PUSH1 0xC PUSH1 0x24 DUP3 ADD MSTORE PUSH12 0x8CCACA40E8DEDE40D0D2CED PUSH1 0xA3 SHL PUSH1 0x44 DUP3 ADD MSTORE PUSH1 0x64 SWAP1 REVERT JUMPDEST CALLVALUE PUSH2 0x491 JUMPI PUSH1 0x0 CALLDATASIZE PUSH1 0x3 NOT ADD SLT PUSH2 0x491 JUMPI PUSH1 0x20 PUSH1 0x40 MLOAD PUSH2 0xBB8 DUP2 MSTORE RETURN JUMPDEST CALLVALUE PUSH2 0x491 JUMPI PUSH1 0x0 CALLDATASIZE PUSH1 0x3 NOT ADD SLT PUSH2 0x491 JUMPI PUSH1 0x20 PUSH1 0x40 MLOAD PUSH1 0x32 DUP2 MSTORE RETURN JUMPDEST CALLVALUE PUSH2 0x491 JUMPI PUSH1 0x0 CALLDATASIZE PUSH1 0x3 NOT ADD SLT PUSH2 0x491 JUMPI PUSH1 0x20 PUSH1 0x40 MLOAD PUSH32 0x0 DUP2 MSTORE RETURN JUMPDEST CALLVALUE PUSH2 0x491 JUMPI PUSH1 0x20 CALLDATASIZE PUSH1 0x3 NOT ADD SLT PUSH2 0x491 JUMPI PUSH1 0x4 CALLDATALOAD PUSH2 0xE64 DUP2 PUSH2 0x4AA0 JUMP JUMPDEST POP PUSH1 0x0 MSTORE PUSH1 0xC PUSH1 0x20 MSTORE PUSH2 0x91A PUSH2 0xE7D PUSH1 0x40 PUSH1 0x0 KECCAK256 PUSH2 0x3A80 JUMP JUMPDEST PUSH1 0x0 PUSH1 0x40 MLOAD PUSH2 0xE8B DUP2 PUSH2 0x3A44 JUMP JUMPDEST MSTORE PUSH1 0x40 MLOAD SWAP2 DUP3 SWAP2 PUSH1 0x20 DUP4 MSTORE PUSH1 0x20 DUP4 ADD SWAP1 PUSH2 0x39AF JUMP JUMPDEST CALLVALUE PUSH2 0x491 JUMPI PUSH2 0xEAE CALLDATASIZE PUSH2 0x3B61 JUMP JUMPDEST PUSH2 0xEB9 SWAP3 SWAP2 SWAP3 PUSH2 0x4A74 JUMP JUMPDEST DUP2 PUSH1 0x0 MSTORE PUSH1 0x20 SWAP1 PUSH1 0x18 DUP3 MSTORE PUSH1 0x40 PUSH1 0x0 KECCAK256 SWAP1 PUSH2 0xEDE PUSH1 0xFF PUSH1 0xA DUP5 ADD SLOAD PUSH1 0xA8 SHR AND ISZERO PUSH2 0x3D1C JUMP JUMPDEST PUSH1 0x1 PUSH1 0x1 PUSH1 0x40 SHL SUB DUP2 GT PUSH2 0xFED JUMPI PUSH2 0xF00 DUP2 PUSH2 0xEFA DUP5 SLOAD PUSH2 0x39EF JUMP JUMPDEST DUP5 PUSH2 0x3E03 JUMP JUMPDEST PUSH1 0x0 PUSH1 0x1F DUP3 GT PUSH1 0x1 EQ PUSH2 0xF73 JUMPI DUP2 PUSH1 0x60 SWAP5 SWAP4 SWAP3 PUSH2 0xF45 SWAP3 PUSH1 0x0 DUP1 MLOAD PUSH1 0x20 PUSH2 0x5914 DUP4 CODECOPY DUP2 MLOAD SWAP2 MSTORE SWAP8 SWAP9 PUSH1 0x0 SWAP3 PUSH2 0xF68 JUMPI JUMPDEST POP POP DUP2 PUSH1 0x1 SHL SWAP2 PUSH1 0x0 NOT SWAP1 PUSH1 0x3 SHL SHR NOT AND OR SWAP1 JUMP JUMPDEST SWAP1 SSTORE JUMPDEST PUSH1 0x8 PUSH1 0x40 MLOAD SWAP2 DUP1 DUP4 MSTORE DUP3 ADD MSTORE PUSH8 0x63617465676F7279 PUSH1 0xC0 SHL PUSH1 0x40 DUP3 ADD MSTORE LOG2 STOP JUMPDEST ADD CALLDATALOAD SWAP1 POP DUP9 DUP1 PUSH2 0xF30 JUMP JUMPDEST PUSH1 0x1F NOT DUP3 AND SWAP1 DUP4 PUSH1 0x0 MSTORE DUP5 PUSH1 0x0 KECCAK256 SWAP2 PUSH1 0x0 JUMPDEST DUP2 DUP2 LT PUSH2 0xFD6 JUMPI POP SWAP2 PUSH1 0x0 DUP1 MLOAD PUSH1 0x20 PUSH2 0x5914 DUP4 CODECOPY DUP2 MLOAD SWAP2 MSTORE SWAP7 SWAP8 DUP5 SWAP3 PUSH1 0x60 SWAP8 SWAP7 SWAP6 PUSH1 0x1 SWAP6 LT PUSH2 0xFBC JUMPI JUMPDEST POP POP POP DUP2 SHL ADD SWAP1 SSTORE PUSH2 0xF48 JUMP JUMPDEST ADD CALLDATALOAD PUSH1 0x0 NOT PUSH1 0x3 DUP5 SWAP1 SHL PUSH1 0xF8 AND SHR NOT AND SWAP1 SSTORE DUP8 DUP1 DUP1 PUSH2 0xFAF JUMP JUMPDEST SWAP2 SWAP3 DUP7 PUSH1 0x1 DUP2 SWAP3 DUP7 DUP13 ADD CALLDATALOAD DUP2 SSTORE ADD SWAP5 ADD SWAP3 ADD PUSH2 0xF85 JUMP JUMPDEST PUSH4 0x4E487B71 PUSH1 0xE0 SHL PUSH1 0x0 MSTORE PUSH1 0x41 PUSH1 0x4 MSTORE PUSH1 0x24 PUSH1 0x0 REVERT JUMPDEST CALLVALUE PUSH2 0x491 JUMPI PUSH1 0x20 CALLDATASIZE PUSH1 0x3 NOT ADD SLT PUSH2 0x491 JUMPI PUSH1 0x4 CALLDATALOAD PUSH1 0x0 MSTORE PUSH1 0x19 PUSH1 0x20 MSTORE PUSH1 0x20 PUSH1 0x40 PUSH1 0x0 KECCAK256 SLOAD PUSH1 0x40 MLOAD SWAP1 DUP2 MSTORE RETURN JUMPDEST CALLVALUE PUSH2 0x491 JUMPI PUSH1 0x20 CALLDATASIZE PUSH1 0x3 NOT ADD SLT PUSH2 0x491 JUMPI PUSH1 0x4 CALLDATALOAD PUSH2 0x104B PUSH2 0x4A74 JUMP JUMPDEST PUSH1 0x0 DUP2 DUP2 MSTORE PUSH1 0x4 PUSH1 0x20 MSTORE PUSH1 0x40 SWAP1 KECCAK256 SLOAD PUSH1 0x1 PUSH1 0x1 PUSH1 0xA0 SHL SUB SWAP1 PUSH2 0x1070 SWAP1 DUP3 AND ISZERO ISZERO PUSH2 0x3D5A JUMP JUMPDEST DUP2 PUSH1 0x0 MSTORE PUSH1 0x4 PUSH1 0x20 MSTORE PUSH1 0x40 PUSH1 0x0 KECCAK256 SLOAD AND SWAP1 PUSH2 0x108A DUP2 PUSH2 0x506F JUMP JUMPDEST PUSH32 0x33631BCD0A4D34A7E2C240AB0753D5ADFB7284D8AC89DAB6876EC785C0CFA0E6 PUSH1 0x0 DUP1 LOG3 STOP JUMPDEST CALLVALUE PUSH2 0x491 JUMPI PUSH1 0x80 CALLDATASIZE PUSH1 0x3 NOT ADD SLT PUSH2 0x491 JUMPI PUSH2 0x10CA PUSH2 0x3983 JUMP JUMPDEST PUSH2 0x10D2 PUSH2 0x3999 JUMP JUMPDEST SWAP1 PUSH1 0x44 CALLDATALOAD PUSH1 0x64 CALLDATALOAD SWAP3 PUSH1 0x1 PUSH1 0x1 PUSH1 0x40 SHL SUB DUP5 GT PUSH2 0x491 JUMPI CALLDATASIZE PUSH1 0x23 DUP6 ADD SLT ISZERO PUSH2 0x491 JUMPI PUSH2 0x110A PUSH2 0x18 SWAP5 CALLDATASIZE SWAP1 PUSH1 0x24 DUP2 PUSH1 0x4 ADD CALLDATALOAD SWAP2 ADD PUSH2 0x3CE5 JUMP JUMPDEST SWAP3 PUSH2 0x1116 DUP4 DUP4 DUP4 PUSH2 0x3EC8 JUMP JUMPDEST PUSH2 0x57BB JUMP JUMPDEST CALLVALUE PUSH2 0x491 JUMPI PUSH1 0x20 CALLDATASIZE PUSH1 0x3 NOT ADD SLT PUSH2 0x491 JUMPI PUSH1 0x4 CALLDATALOAD PUSH2 0x1137 PUSH2 0x4A74 JUMP JUMPDEST PUSH1 0x0 DUP2 DUP2 MSTORE PUSH1 0x4 PUSH1 0x20 MSTORE PUSH1 0x40 SWAP1 KECCAK256 SLOAD PUSH2 0x115A SWAP1 PUSH1 0x1 PUSH1 0x1 PUSH1 0xA0 SHL SUB AND ISZERO ISZERO PUSH2 0x3D5A JUMP JUMPDEST DUP1 PUSH1 0x0 MSTORE PUSH1 0x14 PUSH1 0x20 MSTORE PUSH1 0x40 PUSH1 0x0 KECCAK256 PUSH1 0x1 PUSH1 0xFF NOT DUP3 SLOAD AND OR SWAP1 SSTORE PUSH32 0xBF025F2B09B91DC81D2B137BED7B878FB0BD75A3BFE4708D69989FDA3C63485A PUSH1 0x20 PUSH1 0x40 MLOAD PUSH1 0x1 DUP2 MSTORE LOG2 STOP JUMPDEST CALLVALUE PUSH2 0x491 JUMPI PUSH1 0x20 CALLDATASIZE PUSH1 0x3 NOT ADD SLT PUSH2 0x491 JUMPI PUSH1 0x4 CALLDATALOAD PUSH1 0x0 MSTORE PUSH1 0x1A PUSH1 0x20 MSTORE PUSH1 0x20 PUSH1 0x40 PUSH1 0x0 KECCAK256 SLOAD PUSH1 0x40 MLOAD SWAP1 DUP2 MSTORE RETURN JUMPDEST CALLVALUE PUSH2 0x491 JUMPI PUSH1 0x20 CALLDATASIZE PUSH1 0x3 NOT ADD SLT PUSH2 0x491 JUMPI PUSH1 0x4 CALLDATALOAD PUSH2 0x11E8 PUSH2 0x4A74 JUMP JUMPDEST PUSH1 0x0 DUP2 DUP2 MSTORE PUSH1 0x18 PUSH1 0x20 MSTORE PUSH1 0x40 DUP2 KECCAK256 PUSH1 0xA ADD DUP1 SLOAD PUSH2 0xFFFF PUSH1 0xA0 SHL NOT AND PUSH1 0x1 PUSH1 0xA8 SHL OR SWAP1 SSTORE PUSH32 0x5E6EB33A418DE5DBBC17F989F7AE362CDFBB1748C5D603137C767027A354EDBC SWAP1 DUP1 LOG2 STOP JUMPDEST CALLVALUE PUSH2 0x491 JUMPI PUSH1 0x0 CALLDATASIZE PUSH1 0x3 NOT ADD SLT PUSH2 0x491 JUMPI PUSH2 0x124A PUSH2 0x4A74 JUMP JUMPDEST PUSH1 0x0 DUP1 SSTORE STOP JUMPDEST CALLVALUE PUSH2 0x491 JUMPI PUSH1 0x20 CALLDATASIZE PUSH1 0x3 NOT ADD SLT PUSH2 0x491 JUMPI PUSH1 0x4 CALLDATALOAD PUSH2 0x126C PUSH2 0x4A74 JUMP JUMPDEST PUSH1 0x0 DUP2 DUP2 MSTORE PUSH1 0x4 PUSH1 0x20 MSTORE PUSH1 0x40 SWAP1 KECCAK256 SLOAD PUSH2 0x128F SWAP1 PUSH1 0x1 PUSH1 0x1 PUSH1 0xA0 SHL SUB AND ISZERO ISZERO PUSH2 0x3D5A JUMP JUMPDEST DUP1 PUSH1 0x0 MSTORE PUSH1 0x16 PUSH1 0x20 MSTORE PUSH1 0x40 PUSH1 0x0 KECCAK256 PUSH1 0x1 PUSH1 0xFF NOT DUP3 SLOAD AND OR SWAP1 SSTORE PUSH32 0x7FBA17392135B4084A7D689C1F6D77139E1F1C18EE4651BF32DC35AE29CE9301 PUSH1 0x20 PUSH1 0x40 MLOAD PUSH1 0x1 DUP2 MSTORE LOG2 STOP JUMPDEST CALLVALUE PUSH2 0x491 JUMPI PUSH32 0x6BD5C950A8D8DF17F772F5AF37CB3655737899CBF903264B9795592DA439661C PUSH1 0x40 PUSH2 0x1306 CALLDATASIZE PUSH2 0x3B94 JUMP JUMPDEST PUSH2 0x130E PUSH2 0x4A74 JUMP JUMPDEST DUP3 MLOAD SWAP2 DUP3 MSTORE PUSH1 0x20 DUP3 ADD MSTORE LOG1 STOP JUMPDEST CALLVALUE PUSH2 0x491 JUMPI PUSH1 0x40 CALLDATASIZE PUSH1 0x3 NOT ADD SLT PUSH2 0x491 JUMPI PUSH2 0x1334 PUSH2 0x3983 JUMP JUMPDEST PUSH2 0x133C PUSH2 0x3B25 JUMP JUMPDEST PUSH1 0x1 PUSH1 0x1 PUSH1 0xA0 SHL SUB SWAP1 SWAP2 AND SWAP1 DUP2 ISZERO PUSH2 0x13AD JUMPI CALLER PUSH1 0x0 MSTORE PUSH1 0x7 PUSH1 0x20 MSTORE PUSH1 0x40 PUSH1 0x0 KECCAK256 DUP3 PUSH1 0x0 MSTORE PUSH1 0x20 MSTORE PUSH2 0x137D DUP2 PUSH1 0x40 PUSH1 0x0 KECCAK256 SWAP1 PUSH1 0xFF DUP1 NOT DUP4 SLOAD AND SWAP2 ISZERO ISZERO AND OR SWAP1 SSTORE JUMP JUMPDEST PUSH1 0x40 MLOAD SWAP1 ISZERO ISZERO DUP2 MSTORE PUSH32 0x17307EAB39AB6107E8899845AD3D59BD9653F200F220920489CA2B5937696C31 PUSH1 0x20 CALLER SWAP3 LOG3 STOP JUMPDEST PUSH1 0x40 MLOAD PUSH4 0xB611743 PUSH1 0xE3 SHL DUP2 MSTORE PUSH1 0x4 DUP2 ADD DUP4 SWAP1 MSTORE PUSH1 0x24 SWAP1 REVERT JUMPDEST CALLVALUE PUSH2 0x491 JUMPI PUSH1 0x20 CALLDATASIZE PUSH1 0x3 NOT ADD SLT PUSH2 0x491 JUMPI PUSH1 0x4 CALLDATALOAD PUSH2 0x13E2 PUSH2 0x4A74 JUMP JUMPDEST PUSH1 0x0 DUP2 DUP2 MSTORE PUSH1 0x18 PUSH1 0x20 MSTORE PUSH1 0x40 DUP2 KECCAK256 PUSH1 0xA ADD DUP1 SLOAD PUSH3 0xFF00FF PUSH1 0xA0 SHL NOT AND PUSH1 0x1 PUSH1 0xB0 SHL OR SWAP1 SSTORE PUSH32 0x4825B022B52DA7A8DE8063D9EA8FD654176315FFF40077D4C0374F8E1D8A245B SWAP1 DUP1 LOG2 STOP JUMPDEST CALLVALUE PUSH2 0x491 JUMPI PUSH2 0x100 CALLDATASIZE PUSH1 0x3 NOT ADD SLT PUSH2 0x491 JUMPI PUSH1 0x4 CALLDATALOAD PUSH1 0x1 PUSH1 0x1 PUSH1 0x40 SHL SUB DUP2 GT PUSH2 0x491 JUMPI PUSH2 0x145D SWAP1 CALLDATASIZE SWAP1 PUSH1 0x4 ADD PUSH2 0x3B34 JUMP JUMPDEST SWAP1 PUSH1 0x24 CALLDATALOAD PUSH1 0x1 PUSH1 0x1 PUSH1 0x40 SHL SUB DUP2 GT PUSH2 0x491 JUMPI PUSH2 0x147D SWAP1 CALLDATASIZE SWAP1 PUSH1 0x4 ADD PUSH2 0x3B34 JUMP JUMPDEST SWAP2 PUSH1 0xA4 CALLDATALOAD SWAP2 PUSH1 0x1 PUSH1 0x1 PUSH1 0xA0 SHL SUB DUP4 AND DUP4 SUB PUSH2 0x491 JUMPI PUSH1 0xC4 CALLDATALOAD PUSH1 0x1 PUSH1 0x1 PUSH1 0xA0 SHL SUB DUP2 AND DUP2 SUB PUSH2 0x491 JUMPI PUSH1 0xE4 CALLDATALOAD SWAP3 DUP4 ISZERO ISZERO DUP5 SUB PUSH2 0x491 JUMPI PUSH2 0x14BA PUSH2 0x4A74 JUMP JUMPDEST PUSH2 0x14CE PUSH1 0x1 PUSH1 0x1 PUSH1 0xA0 SHL SUB DUP4 AND ISZERO ISZERO PUSH2 0x4798 JUMP JUMPDEST PUSH2 0x14E2 PUSH1 0x1 PUSH1 0x1 PUSH1 0xA0 SHL SUB DUP7 AND ISZERO ISZERO PUSH2 0x4758 JUMP JUMPDEST PUSH1 0x10 SLOAD SWAP6 PUSH2 0x14EF DUP8 PUSH2 0x4357 JUMP JUMPDEST PUSH1 0x10 SSTORE PUSH1 0x40 MLOAD SWAP4 DUP5 PUSH2 0x1E0 DUP2 ADD LT PUSH1 0x1 PUSH1 0x1 PUSH1 0x40 SHL SUB PUSH2 0x1E0 DUP8 ADD GT OR PUSH2 0xFED JUMPI PUSH2 0x1530 SWAP2 PUSH2 0x1E0 DUP7 ADD PUSH1 0x40 MSTORE PUSH2 0x1527 CALLDATASIZE DUP12 DUP7 PUSH2 0x3CE5 JUMP JUMPDEST DUP7 MSTORE CALLDATASIZE SWAP2 PUSH2 0x3CE5 JUMP JUMPDEST PUSH1 0x20 DUP5 ADD MSTORE PUSH1 0x44 CALLDATALOAD PUSH1 0x40 DUP5 ADD MSTORE PUSH1 0x0 PUSH1 0x60 DUP5 ADD MSTORE PUSH1 0x0 PUSH1 0x80 DUP5 ADD MSTORE PUSH1 0x0 PUSH1 0xA0 DUP5 ADD MSTORE PUSH1 0x0 PUSH1 0xC0 DUP5 ADD MSTORE PUSH1 0x64 CALLDATALOAD PUSH1 0xE0 DUP5 ADD MSTORE PUSH1 0x84 CALLDATALOAD PUSH2 0x100 DUP5 ADD MSTORE PUSH1 0x1 DUP1 PUSH1 0xA0 SHL SUB DUP6 AND PUSH2 0x120 DUP5 ADD MSTORE PUSH1 0x1 DUP1 PUSH1 0xA0 SHL SUB DUP3 AND PUSH2 0x140 DUP5 ADD MSTORE PUSH1 0x1 PUSH2 0x160 DUP5 ADD MSTORE PUSH1 0x0 PUSH2 0x180 DUP5 ADD MSTORE PUSH1 0x0 PUSH2 0x1A0 DUP5 ADD MSTORE DUP4 ISZERO ISZERO PUSH2 0x1C0 DUP5 ADD MSTORE DUP6 PUSH1 0x0 MSTORE PUSH1 0x18 PUSH1 0x20 MSTORE PUSH1 0x40 PUSH1 0x0 KECCAK256 SWAP7 DUP4 MLOAD DUP1 MLOAD SWAP1 PUSH1 0x1 PUSH1 0x1 PUSH1 0x40 SHL SUB DUP3 GT PUSH2 0xFED JUMPI PUSH2 0x15DF DUP3 PUSH2 0x15D9 DUP13 SLOAD PUSH2 0x39EF JUMP JUMPDEST DUP13 PUSH2 0x3E03 JUMP JUMPDEST PUSH1 0x20 SWAP1 PUSH1 0x1F DUP4 GT PUSH1 0x1 EQ PUSH2 0x1893 JUMPI PUSH2 0x160F SWAP3 SWAP2 PUSH1 0x0 SWAP2 DUP4 PUSH2 0x1888 JUMPI POP POP DUP2 PUSH1 0x1 SHL SWAP2 PUSH1 0x0 NOT SWAP1 PUSH1 0x3 SHL SHR NOT AND OR SWAP1 JUMP JUMPDEST DUP9 SSTORE JUMPDEST PUSH1 0x20 DUP5 ADD MLOAD SWAP3 DUP4 MLOAD SWAP9 PUSH1 0x1 PUSH1 0x1 PUSH1 0x40 SHL SUB DUP11 GT PUSH2 0xFED JUMPI DUP10 DUP10 SWAP6 PUSH2 0x1648 PUSH1 0x20 SWAP13 PUSH2 0x163F PUSH1 0x1 DUP7 ADD SLOAD PUSH2 0x39EF JUMP JUMPDEST PUSH1 0x1 DUP7 ADD PUSH2 0x3E03 JUMP JUMPDEST DUP12 SWAP1 PUSH1 0x1F DUP4 GT PUSH1 0x1 EQ PUSH2 0x17E8 JUMPI PUSH2 0x178E SWAP4 PUSH2 0x16A4 DUP5 PUSH32 0x2B284F3763C3F60985F9293B26F40161537C0FCC0BB7250A3EB0C1CB65E849ED SWAP11 SWAP12 SWAP6 PUSH2 0x1C0 SWAP6 PUSH1 0xA SWAP6 PUSH1 0x0 SWAP3 PUSH2 0x17DD JUMPI POP POP DUP2 PUSH1 0x1 SHL SWAP2 PUSH1 0x0 NOT SWAP1 PUSH1 0x3 SHL SHR NOT AND OR SWAP1 JUMP JUMPDEST PUSH1 0x1 DUP3 ADD SSTORE JUMPDEST PUSH1 0x40 DUP5 ADD MLOAD PUSH1 0x2 DUP3 ADD SSTORE PUSH1 0x60 DUP5 ADD MLOAD PUSH1 0x3 DUP3 ADD SSTORE PUSH1 0x80 DUP5 ADD MLOAD PUSH1 0x4 DUP3 ADD SSTORE PUSH1 0xA0 DUP1 DUP6 ADD MLOAD PUSH1 0x5 DUP4 ADD SSTORE PUSH1 0xC0 DUP6 ADD MLOAD PUSH1 0x6 DUP4 ADD SSTORE PUSH1 0xE0 DUP6 ADD MLOAD PUSH1 0x7 DUP4 ADD SSTORE PUSH2 0x100 DUP6 ADD MLOAD PUSH1 0x8 DUP4 ADD SSTORE PUSH2 0x120 DUP6 ADD MLOAD PUSH1 0x9 DUP4 ADD DUP1 SLOAD PUSH1 0x1 PUSH1 0x1 PUSH1 0xA0 SHL SUB NOT AND PUSH1 0x1 PUSH1 0x1 PUSH1 0xA0 SHL SUB SWAP3 DUP4 AND OR SWAP1 SSTORE PUSH2 0x140 DUP7 ADD MLOAD SWAP4 SWAP1 SWAP3 ADD DUP1 SLOAD PUSH2 0x160 DUP8 ADD MLOAD PUSH2 0x180 DUP9 ADD MLOAD PUSH2 0x1A0 DUP10 ADD MLOAD SWAP8 SWAP1 SWAP9 ADD MLOAD PUSH1 0x1 PUSH1 0x1 PUSH1 0xC0 SHL SUB NOT SWAP1 SWAP3 AND SWAP6 SWAP1 SWAP5 AND SWAP5 SWAP1 SWAP5 OR SWAP3 ISZERO ISZERO SWAP1 SWAP2 SHL PUSH1 0xFF PUSH1 0xA0 SHL AND SWAP2 SWAP1 SWAP2 OR SWAP4 ISZERO ISZERO PUSH1 0xA8 SHL PUSH1 0xFF PUSH1 0xA8 SHL AND SWAP4 SWAP1 SWAP4 OR SWAP2 ISZERO ISZERO PUSH1 0xB0 SHL PUSH1 0xFF PUSH1 0xB0 SHL AND SWAP2 SWAP1 SWAP2 OR SWAP1 ISZERO ISZERO PUSH1 0xB8 SHL PUSH1 0xFF PUSH1 0xB8 SHL AND OR SWAP1 SSTORE JUMP JUMPDEST PUSH2 0x17A5 PUSH1 0x40 MLOAD SWAP4 DUP5 SWAP4 PUSH1 0xA0 DUP6 MSTORE PUSH1 0xA0 DUP6 ADD SWAP2 PUSH2 0x3D9D JUMP JUMPDEST PUSH1 0x44 CALLDATALOAD DUP4 DUP12 ADD MSTORE PUSH1 0x64 CALLDATALOAD PUSH1 0x40 DUP5 ADD MSTORE PUSH1 0x84 CALLDATALOAD PUSH1 0x60 DUP5 ADD MSTORE SWAP6 ISZERO ISZERO PUSH1 0x80 DUP4 ADD MSTORE PUSH1 0x1 PUSH1 0x1 PUSH1 0xA0 SHL SUB SWAP1 DUP2 AND SWAP7 AND SWAP5 SUB SWAP1 LOG4 PUSH1 0x40 MLOAD SWAP1 DUP2 MSTORE RETURN JUMPDEST ADD MLOAD SWAP1 POP CODESIZE DUP1 PUSH2 0xF30 JUMP JUMPDEST SWAP8 SWAP3 SWAP2 SWAP1 PUSH1 0x1 DUP4 ADD PUSH1 0x0 MSTORE DUP13 PUSH1 0x0 KECCAK256 SWAP9 PUSH1 0x0 JUMPDEST PUSH1 0x1F NOT DUP5 AND DUP2 LT PUSH2 0x186E JUMPI POP SWAP3 PUSH1 0x1 DUP4 PUSH32 0x2B284F3763C3F60985F9293B26F40161537C0FCC0BB7250A3EB0C1CB65E849ED SWAP11 SWAP12 PUSH1 0xA SWAP5 PUSH2 0x178E SWAP9 SWAP8 PUSH2 0x1C0 SWAP8 PUSH1 0x1F NOT DUP2 AND LT PUSH2 0x1855 JUMPI JUMPDEST POP POP POP DUP2 SHL ADD PUSH1 0x1 DUP3 ADD SSTORE PUSH2 0x16AA JUMP JUMPDEST ADD MLOAD PUSH1 0x0 NOT PUSH1 0xF8 DUP5 PUSH1 0x3 SHL AND SHR NOT AND SWAP1 SSTORE CODESIZE DUP1 DUP1 PUSH2 0x1845 JUMP JUMPDEST DUP3 DUP3 ADD MLOAD DUP12 SSTORE PUSH1 0x1 SWAP1 SWAP11 ADD SWAP10 DUP14 SWAP10 POP SWAP2 DUP15 ADD SWAP2 DUP15 ADD PUSH2 0x17FB JUMP JUMPDEST ADD MLOAD SWAP1 POP DUP12 DUP1 PUSH2 0xF30 JUMP JUMPDEST SWAP2 SWAP1 DUP11 PUSH1 0x0 MSTORE PUSH1 0x20 PUSH1 0x0 KECCAK256 SWAP1 PUSH1 0x0 SWAP4 JUMPDEST PUSH1 0x1F NOT DUP5 AND DUP6 LT PUSH2 0x18E4 JUMPI PUSH1 0x1 SWAP5 POP DUP4 PUSH1 0x1F NOT DUP2 AND LT PUSH2 0x18CB JUMPI JUMPDEST POP POP POP DUP2 SHL ADD DUP9 SSTORE PUSH2 0x1612 JUMP JUMPDEST ADD MLOAD PUSH1 0x0 NOT PUSH1 0xF8 DUP5 PUSH1 0x3 SHL AND SHR NOT AND SWAP1 SSTORE DUP11 DUP1 DUP1 PUSH2 0x18BE JUMP JUMPDEST DUP2 DUP2 ADD MLOAD DUP4 SSTORE PUSH1 0x20 SWAP5 DUP6 ADD SWAP5 PUSH1 0x1 SWAP1 SWAP4 ADD SWAP3 SWAP1 SWAP2 ADD SWAP1 PUSH2 0x18A3 JUMP JUMPDEST CALLVALUE PUSH2 0x491 JUMPI PUSH2 0x18 PUSH2 0x1910 CALLDATASIZE PUSH2 0x3B94 JUMP JUMPDEST SWAP1 PUSH2 0x1919 PUSH2 0x4A74 JUMP JUMPDEST PUSH2 0x487F JUMP JUMPDEST CALLVALUE PUSH2 0x491 JUMPI PUSH1 0x0 CALLDATASIZE PUSH1 0x3 NOT ADD SLT PUSH2 0x491 JUMPI PUSH1 0x40 MLOAD PUSH1 0x3 SLOAD PUSH1 0x0 DUP3 PUSH2 0x1941 DUP4 PUSH2 0x39EF JUMP JUMPDEST SWAP2 DUP3 DUP3 MSTORE PUSH1 0x20 SWAP4 PUSH1 0x1 SWAP1 DUP6 PUSH1 0x1 DUP3 AND SWAP2 DUP3 PUSH1 0x0 EQ PUSH2 0x19E1 JUMPI POP POP PUSH1 0x1 EQ PUSH2 0x1984 JUMPI JUMPDEST POP PUSH2 0x1970 SWAP3 POP SUB DUP4 PUSH2 0x3A5F JUMP JUMPDEST PUSH2 0x91A PUSH1 0x40 MLOAD SWAP3 DUP3 DUP5 SWAP4 DUP5 MSTORE DUP4 ADD SWAP1 PUSH2 0x39AF JUMP JUMPDEST DUP5 SWAP2 POP PUSH1 0x3 PUSH1 0x0 MSTORE PUSH32 0xC2575A0E9E593C00F959F8C92F12DB2869C3395A3B0502D05E2516446F71F85B SWAP1 PUSH1 0x0 SWAP2 JUMPDEST DUP6 DUP4 LT PUSH2 0x19C9 JUMPI POP POP PUSH2 0x1970 SWAP4 POP DUP3 ADD ADD DUP6 PUSH2 0x1963 JUMP JUMPDEST DUP1 SLOAD DUP4 DUP10 ADD DUP6 ADD MSTORE DUP8 SWAP5 POP DUP7 SWAP4 SWAP1 SWAP3 ADD SWAP2 DUP2 ADD PUSH2 0x19B2 JUMP JUMPDEST PUSH1 0xFF NOT AND DUP6 DUP3 ADD MSTORE PUSH2 0x1970 SWAP6 ISZERO ISZERO PUSH1 0x5 SHL DUP6 ADD ADD SWAP3 POP DUP8 SWAP2 POP PUSH2 0x1963 SWAP1 POP JUMP JUMPDEST CALLVALUE PUSH2 0x491 JUMPI PUSH1 0x40 CALLDATASIZE PUSH1 0x3 NOT ADD SLT PUSH2 0x491 JUMPI PUSH1 0x1 PUSH1 0x1 PUSH1 0x40 SHL SUB PUSH1 0x4 CALLDATALOAD DUP2 DUP2 GT PUSH2 0x491 JUMPI PUSH2 0x1A32 SWAP1 CALLDATASIZE SWAP1 PUSH1 0x4 ADD PUSH2 0x3BAA JUMP JUMPDEST SWAP1 SWAP2 PUSH1 0x24 CALLDATALOAD SWAP1 DUP2 GT PUSH2 0x491 JUMPI PUSH2 0x1A4C SWAP1 CALLDATASIZE SWAP1 PUSH1 0x4 ADD PUSH2 0x3B34 JUMP JUMPDEST SWAP1 SWAP2 PUSH2 0x1A56 PUSH2 0x4A74 JUMP JUMPDEST PUSH1 0x0 JUMPDEST DUP2 DUP2 LT PUSH2 0x1A62 JUMPI STOP JUMPDEST PUSH1 0x1 SWAP1 PUSH1 0x1 PUSH1 0x1 PUSH1 0xA0 SHL SUB PUSH2 0x1A97 PUSH2 0x1A7B DUP4 DUP7 DUP11 PUSH2 0x3E59 JUMP JUMPDEST CALLDATALOAD PUSH1 0x0 SWAP1 DUP2 MSTORE PUSH1 0x4 PUSH1 0x20 MSTORE PUSH1 0x40 SWAP1 KECCAK256 SLOAD PUSH1 0x1 PUSH1 0x1 PUSH1 0xA0 SHL SUB AND SWAP1 JUMP JUMPDEST AND PUSH2 0x1AA3 JUMPI JUMPDEST ADD PUSH2 0x1A59 JUMP JUMPDEST PUSH2 0x1AC3 PUSH2 0x1AB1 DUP3 DUP6 DUP10 PUSH2 0x3E59 JUMP JUMPDEST CALLDATALOAD PUSH2 0x1ABD CALLDATASIZE DUP8 DUP10 PUSH2 0x3CE5 JUMP JUMPDEST SWAP1 PUSH2 0x4ADB JUMP JUMPDEST PUSH2 0x1ACE DUP2 DUP5 DUP9 PUSH2 0x3E59 JUMP JUMPDEST CALLDATALOAD PUSH32 0xAC6D62CB5D30A7FFF578060CD3DCF46FF2DF7991A71C2D2AABCA7E558F130F78 PUSH1 0x40 MLOAD DUP1 PUSH2 0x1B05 PUSH1 0x20 DUP1 DUP4 MSTORE DUP3 ADD DUP10 DUP12 PUSH2 0x3D9D JUMP JUMPDEST SUB SWAP1 LOG2 PUSH2 0x1A9D JUMP JUMPDEST PUSH2 0x1B16 CALLDATASIZE PUSH2 0x3B94 JUMP JUMPDEST PUSH2 0x1B1E PUSH2 0x4C0A JUMP JUMPDEST CALLER PUSH1 0x0 MSTORE PUSH1 0x20 SWAP2 PUSH1 0x15 DUP4 MSTORE PUSH1 0xFF SWAP3 PUSH2 0x1B3D DUP5 PUSH1 0x40 PUSH1 0x0 KECCAK256 SLOAD AND ISZERO PUSH2 0x3DBE JUMP JUMPDEST PUSH2 0x1B45 PUSH2 0x4C2B JUMP JUMPDEST DUP2 PUSH1 0x0 MSTORE PUSH1 0x18 DUP2 MSTORE PUSH1 0x40 PUSH1 0x0 KECCAK256 SWAP4 PUSH1 0xA DUP6 ADD PUSH2 0x1B6B DUP3 DUP3 SLOAD PUSH2 0x81C DUP3 DUP3 PUSH1 0xA0 SHR AND PUSH2 0x42D2 JUMP JUMPDEST DUP5 ISZERO ISZERO DUP1 PUSH2 0x1C49 JUMPI JUMPDEST PUSH2 0x1B7D SWAP1 PUSH2 0x441E JUMP JUMPDEST PUSH2 0x1B94 PUSH1 0x7 DUP8 ADD SLOAD DUP1 ISZERO SWAP1 DUP2 ISZERO PUSH2 0x9E4 JUMPI POP PUSH2 0x445D JUMP JUMPDEST PUSH2 0x1BA5 PUSH2 0x870 DUP7 PUSH1 0x8 DUP10 ADD SLOAD PUSH2 0x429F JUMP JUMPDEST PUSH2 0x1BAE DUP6 PUSH2 0x44FA JUMP JUMPDEST SWAP5 PUSH2 0x1BB9 DUP2 CALLVALUE PUSH2 0x42B2 JUMP JUMPDEST SWAP1 PUSH1 0x0 PUSH1 0x6 DUP10 ADD SWAP1 PUSH1 0x1 SWAP4 PUSH1 0x1 DUP12 ADD SWAP2 JUMPDEST DUP5 DUP2 LT PUSH2 0x1BFC JUMPI PUSH2 0x91A DUP12 DUP12 PUSH1 0x0 DUP1 MLOAD PUSH1 0x20 PUSH2 0x5934 DUP4 CODECOPY DUP2 MLOAD SWAP2 MSTORE DUP16 DUP14 DUP2 DUP15 DUP1 DUP16 PUSH1 0x3 PUSH1 0x80 SWAP7 ADD PUSH2 0x8CF CALLVALUE DUP3 SLOAD PUSH2 0x427C JUMP JUMPDEST DUP1 DUP5 DUP5 DUP13 PUSH2 0x1C22 DUP16 SWAP6 DUP12 SWAP7 DUP16 PUSH1 0x1B SWAP1 PUSH1 0xF SWAP6 PUSH2 0x98C PUSH2 0x986 DUP9 SLOAD SWAP10 DUP11 SWAP10 PUSH2 0x968 DUP12 PUSH2 0x4357 JUMP JUMPDEST MSTORE PUSH1 0x40 MLOAD SWAP2 DUP3 MSTORE DUP5 DUP13 DUP4 ADD MSTORE DUP13 PUSH1 0x0 DUP1 MLOAD PUSH1 0x20 PUSH2 0x58F4 DUP4 CODECOPY DUP2 MLOAD SWAP2 MSTORE PUSH1 0x40 CALLER SWAP5 LOG4 ADD PUSH2 0x1BCA JUMP JUMPDEST POP PUSH1 0x32 DUP6 GT ISZERO PUSH2 0x1B74 JUMP JUMPDEST CALLVALUE PUSH2 0x491 JUMPI PUSH1 0x0 CALLDATASIZE PUSH1 0x3 NOT ADD SLT PUSH2 0x491 JUMPI PUSH1 0xD SLOAD PUSH1 0x40 MLOAD PUSH1 0x1 PUSH1 0x1 PUSH1 0xA0 SHL SUB SWAP1 SWAP2 AND DUP2 MSTORE PUSH1 0x20 SWAP1 RETURN JUMPDEST CALLVALUE PUSH2 0x491 JUMPI PUSH1 0x60 CALLDATASIZE PUSH1 0x3 NOT ADD SLT PUSH2 0x491 JUMPI PUSH2 0x1C96 PUSH2 0x3983 JUMP JUMPDEST PUSH1 0x24 CALLDATALOAD SWAP1 PUSH1 0x44 CALLDATALOAD PUSH1 0x1 PUSH1 0x1 PUSH1 0x40 SHL SUB DUP2 GT PUSH2 0x491 JUMPI PUSH2 0x1CB9 SWAP1 CALLDATASIZE SWAP1 PUSH1 0x4 ADD PUSH2 0x3B34 JUMP JUMPDEST SWAP1 SWAP2 PUSH2 0x1CC3 PUSH2 0x4A74 JUMP JUMPDEST PUSH2 0x1CCB PUSH2 0x4C2B JUMP JUMPDEST PUSH1 0x1 PUSH1 0x1 PUSH1 0xA0 SHL SUB AND SWAP3 DUP4 ISZERO PUSH2 0x1DC3 JUMPI DUP1 ISZERO PUSH2 0x1D8D JUMPI PUSH1 0x12 SLOAD DUP2 DUP2 LT PUSH2 0x1D54 JUMPI PUSH32 0xD24FD04B4A509FAC28AAB0419D3841217C53A8B375B372060993DC15C350EF7F SWAP4 PUSH2 0x1D1A DUP4 PUSH2 0x1D4A SWAP4 PUSH2 0x452C JUMP JUMPDEST PUSH1 0x12 SSTORE PUSH2 0x1D31 PUSH1 0x0 DUP1 DUP1 DUP1 DUP8 DUP12 GAS CALL PUSH2 0x51A PUSH2 0x4811 JUMP JUMPDEST PUSH1 0x40 MLOAD SWAP4 DUP5 SWAP4 DUP5 MSTORE PUSH1 0x40 PUSH1 0x20 DUP6 ADD MSTORE PUSH1 0x40 DUP5 ADD SWAP2 PUSH2 0x3D9D JUMP JUMPDEST SUB SWAP1 LOG2 PUSH1 0x1 PUSH1 0xE SSTORE STOP JUMPDEST PUSH1 0x40 MLOAD PUSH3 0x461BCD PUSH1 0xE5 SHL DUP2 MSTORE PUSH1 0x20 PUSH1 0x4 DUP3 ADD MSTORE PUSH1 0x11 PUSH1 0x24 DUP3 ADD MSTORE PUSH17 0x125B9CDD59999A58DA595B9D081C1BDBDB PUSH1 0x7A SHL PUSH1 0x44 DUP3 ADD MSTORE PUSH1 0x64 SWAP1 REVERT JUMPDEST PUSH1 0x40 MLOAD PUSH3 0x461BCD PUSH1 0xE5 SHL DUP2 MSTORE PUSH1 0x20 PUSH1 0x4 DUP3 ADD MSTORE PUSH1 0xE PUSH1 0x24 DUP3 ADD MSTORE PUSH14 0x125B9D985B1A5908185B5BDD5B9D PUSH1 0x92 SHL PUSH1 0x44 DUP3 ADD MSTORE PUSH1 0x64 SWAP1 REVERT JUMPDEST PUSH1 0x40 MLOAD PUSH3 0x461BCD PUSH1 0xE5 SHL DUP2 MSTORE PUSH1 0x20 PUSH1 0x4 DUP3 ADD MSTORE PUSH1 0x11 PUSH1 0x24 DUP3 ADD MSTORE PUSH17 0x125B9D985B1A59081C9958DA5C1A595B9D PUSH1 0x7A SHL PUSH1 0x44 DUP3 ADD MSTORE PUSH1 0x64 SWAP1 REVERT JUMPDEST CALLVALUE PUSH2 0x491 JUMPI PUSH1 0x0 CALLDATASIZE PUSH1 0x3 NOT ADD SLT PUSH2 0x491 JUMPI PUSH2 0x1E15 PUSH2 0x4A74 JUMP JUMPDEST PUSH2 0x1E1D PUSH2 0x4C0A JUMP JUMPDEST PUSH1 0xD DUP1 SLOAD PUSH1 0xFF PUSH1 0xA0 SHL NOT AND PUSH1 0x1 PUSH1 0xA0 SHL OR SWAP1 SSTORE PUSH1 0x40 MLOAD CALLER DUP2 MSTORE PUSH32 0x62E78CEA01BEE320CD4E420270B5EA74000D11B0C9F74754EBDBFC544B05A258 SWAP1 PUSH1 0x20 SWAP1 LOG1 STOP JUMPDEST PUSH1 0x20 DUP1 PUSH1 0x3 NOT CALLDATASIZE ADD SLT PUSH2 0x491 JUMPI PUSH1 0x4 CALLDATALOAD PUSH2 0x1E76 PUSH2 0x4C0A JUMP JUMPDEST CALLER PUSH1 0x0 MSTORE PUSH1 0x15 DUP3 MSTORE PUSH1 0xFF SWAP1 PUSH2 0x1E92 DUP3 PUSH1 0x40 PUSH1 0x0 KECCAK256 SLOAD AND ISZERO PUSH2 0x3DBE JUMP JUMPDEST PUSH2 0x1E9A PUSH2 0x4C2B JUMP JUMPDEST PUSH2 0xB77 PUSH32 0x0 CHAINID EQ PUSH2 0x43A4 JUMP JUMPDEST CALLVALUE PUSH2 0x491 JUMPI PUSH1 0x20 CALLDATASIZE PUSH1 0x3 NOT ADD SLT PUSH2 0x491 JUMPI PUSH1 0x4 CALLDATALOAD PUSH1 0x0 MSTORE PUSH1 0x19 PUSH1 0x20 MSTORE PUSH1 0x60 PUSH1 0x40 PUSH1 0x0 KECCAK256 SLOAD PUSH1 0x1A PUSH1 0x20 MSTORE PUSH1 0x40 PUSH1 0x0 KECCAK256 SLOAD DUP2 PUSH1 0x0 MSTORE PUSH1 0x18 PUSH1 0x20 MSTORE PUSH1 0x6 PUSH1 0x40 PUSH1 0x0 KECCAK256 ADD SLOAD SWAP1 PUSH1 0x40 MLOAD SWAP3 DUP4 MSTORE PUSH1 0x20 DUP4 ADD MSTORE PUSH1 0x40 DUP3 ADD MSTORE RETURN JUMPDEST CALLVALUE PUSH2 0x491 JUMPI PUSH1 0x20 CALLDATASIZE PUSH1 0x3 NOT ADD SLT PUSH2 0x491 JUMPI PUSH1 0x4 CALLDATALOAD PUSH2 0x1F35 PUSH2 0x4A74 JUMP JUMPDEST DUP1 PUSH1 0x0 MSTORE PUSH1 0x18 PUSH1 0x20 MSTORE PUSH1 0xA PUSH1 0x40 PUSH1 0x0 KECCAK256 ADD PUSH1 0xFF PUSH1 0xA0 SHL NOT DUP2 SLOAD AND SWAP1 SSTORE PUSH1 0x0 DUP1 MLOAD PUSH1 0x20 PUSH2 0x5914 DUP4 CODECOPY DUP2 MLOAD SWAP2 MSTORE PUSH1 0x40 MLOAD DUP1 PUSH2 0x1F89 DUP2 PUSH1 0x60 SWAP1 PUSH1 0x20 DUP2 MSTORE PUSH1 0x6 PUSH1 0x20 DUP3 ADD MSTORE PUSH6 0x616374697665 PUSH1 0xD0 SHL PUSH1 0x40 DUP3 ADD MSTORE ADD SWAP1 JUMP JUMPDEST SUB SWAP1 LOG2 STOP JUMPDEST CALLVALUE PUSH2 0x491 JUMPI PUSH1 0x20 CALLDATASIZE PUSH1 0x3 NOT ADD SLT PUSH2 0x491 JUMPI PUSH2 0x1FA7 PUSH2 0x3983 JUMP JUMPDEST PUSH2 0x1FAF PUSH2 0x4A74 JUMP JUMPDEST PUSH1 0x1 PUSH1 0x1 PUSH1 0xA0 SHL SUB SWAP1 DUP2 AND SWAP1 DUP2 ISZERO PUSH2 0x1FFE JUMPI PUSH1 0x11 SLOAD DUP3 PUSH1 0x1 PUSH1 0x1 PUSH1 0x60 SHL SUB PUSH1 0xA0 SHL DUP3 AND OR PUSH1 0x11 SSTORE AND PUSH32 0x4AB5BE82436D353E61CA18726E984E561F5C1CC7C6D38B29D2553C790434705A PUSH1 0x0 DUP1 LOG3 STOP JUMPDEST PUSH1 0x40 MLOAD PUSH3 0x461BCD PUSH1 0xE5 SHL DUP2 MSTORE PUSH1 0x20 PUSH1 0x4 DUP3 ADD MSTORE PUSH1 0x10 PUSH1 0x24 DUP3 ADD MSTORE PUSH16 0x496E76616C6964207472656173757279 PUSH1 0x80 SHL PUSH1 0x44 DUP3 ADD MSTORE PUSH1 0x64 SWAP1 REVERT JUMPDEST CALLVALUE PUSH2 0x491 JUMPI PUSH1 0x20 CALLDATASIZE PUSH1 0x3 NOT ADD SLT PUSH2 0x491 JUMPI PUSH1 0x4 CALLDATALOAD PUSH1 0x0 MSTORE PUSH1 0x16 PUSH1 0x20 MSTORE PUSH1 0x20 PUSH1 0xFF PUSH1 0x40 PUSH1 0x0 KECCAK256 SLOAD AND PUSH1 0x40 MLOAD SWAP1 ISZERO ISZERO DUP2 MSTORE RETURN JUMPDEST CALLVALUE PUSH2 0x491 JUMPI PUSH1 0x0 CALLDATASIZE PUSH1 0x3 NOT ADD SLT PUSH2 0x491 JUMPI PUSH2 0x2080 PUSH2 0x4A74 JUMP JUMPDEST PUSH1 0xD DUP1 SLOAD PUSH1 0x1 PUSH1 0x1 PUSH1 0xA0 SHL SUB NOT DUP2 AND SWAP1 SWAP2 SSTORE PUSH1 0x0 SWAP1 PUSH1 0x1 PUSH1 0x1 PUSH1 0xA0 SHL SUB AND PUSH32 0x8BE0079C531659141344CD1FD0A4F28419497F9722A3DAAFE3B4186F6B6457E0 DUP3 DUP1 LOG3 STOP JUMPDEST CALLVALUE PUSH2 0x491 JUMPI PUSH1 0x20 CALLDATASIZE PUSH1 0x3 NOT ADD SLT PUSH2 0x491 JUMPI PUSH1 0x20 PUSH2 0x20E7 PUSH2 0x20E2 PUSH2 0x3983 JUMP JUMPDEST PUSH2 0x47D8 JUMP JUMPDEST PUSH1 0x40 MLOAD SWAP1 DUP2 MSTORE RETURN JUMPDEST CALLVALUE PUSH2 0x491 JUMPI PUSH1 0x40 CALLDATASIZE PUSH1 0x3 NOT ADD SLT PUSH2 0x491 JUMPI PUSH1 0x4 CALLDATALOAD PUSH2 0x210B PUSH2 0x3999 JUMP JUMPDEST PUSH2 0x2113 PUSH2 0x4A74 JUMP JUMPDEST DUP2 PUSH1 0x0 MSTORE PUSH1 0x18 PUSH1 0x20 MSTORE PUSH1 0xA PUSH1 0x40 PUSH1 0x0 KECCAK256 ADD SWAP1 DUP2 SLOAD SWAP1 PUSH2 0x2138 PUSH1 0xFF DUP4 PUSH1 0xA8 SHR AND ISZERO PUSH2 0x3D1C JUMP JUMPDEST PUSH1 0x1 PUSH1 0x1 PUSH1 0xA0 SHL SUB AND SWAP1 PUSH2 0x214D DUP3 ISZERO ISZERO PUSH2 0x4798 JUMP JUMPDEST PUSH1 0x1 PUSH1 0x1 PUSH1 0x60 SHL SUB PUSH1 0xA0 SHL AND OR SWAP1 SSTORE PUSH1 0x0 DUP1 MLOAD PUSH1 0x20 PUSH2 0x5914 DUP4 CODECOPY DUP2 MLOAD SWAP2 MSTORE PUSH1 0x40 MLOAD PUSH1 0x20 DUP2 MSTORE DUP1 PUSH2 0x1F89 PUSH1 0x20 DUP3 ADD PUSH1 0x40 SWAP1 PUSH1 0x9 DUP2 MSTORE PUSH9 0x39BAB136B4BA3A32B9 PUSH1 0xB9 SHL PUSH1 0x20 DUP3 ADD MSTORE ADD SWAP1 JUMP JUMPDEST CALLVALUE PUSH2 0x491 JUMPI PUSH1 0x40 CALLDATASIZE PUSH1 0x3 NOT ADD SLT PUSH2 0x491 JUMPI PUSH1 0x4 CALLDATALOAD PUSH2 0x21B3 PUSH2 0x3999 JUMP JUMPDEST PUSH2 0x21BB PUSH2 0x4A74 JUMP JUMPDEST DUP2 PUSH1 0x0 MSTORE PUSH1 0x18 PUSH1 0x20 MSTORE PUSH1 0x9 PUSH1 0x40 PUSH1 0x0 KECCAK256 SWAP2 PUSH2 0x21E0 PUSH1 0xFF PUSH1 0xA DUP6 ADD SLOAD PUSH1 0xA8 SHR AND ISZERO PUSH2 0x3D1C JUMP JUMPDEST PUSH1 0x1 PUSH1 0x1 PUSH1 0xA0 SHL SUB AND SWAP2 PUSH2 0x21F5 DUP4 ISZERO ISZERO PUSH2 0x4758 JUMP JUMPDEST ADD SWAP1 PUSH1 0x1 PUSH1 0x1 PUSH1 0x60 SHL SUB PUSH1 0xA0 SHL DUP3 SLOAD AND OR SWAP1 SSTORE PUSH1 0x0 DUP1 MLOAD PUSH1 0x20 PUSH2 0x5914 DUP4 CODECOPY DUP2 MLOAD SWAP2 MSTORE PUSH1 0x60 PUSH1 0x40 MLOAD PUSH1 0x20 DUP2 MSTORE PUSH1 0x9 PUSH1 0x20 DUP3 ADD MSTORE PUSH9 0x1B9BDB9C1C9BD99A5D PUSH1 0xBA SHL PUSH1 0x40 DUP3 ADD MSTORE LOG2 STOP JUMPDEST CALLVALUE PUSH2 0x491 JUMPI PUSH1 0x20 CALLDATASIZE PUSH1 0x3 NOT ADD SLT PUSH2 0x491 JUMPI PUSH1 0x20 PUSH2 0x225A PUSH1 0x4 CALLDATALOAD PUSH2 0x4AA0 JUMP JUMPDEST PUSH1 0x40 MLOAD PUSH1 0x1 PUSH1 0x1 PUSH1 0xA0 SHL SUB SWAP1 SWAP2 AND DUP2 MSTORE RETURN JUMPDEST CALLVALUE PUSH2 0x491 JUMPI PUSH1 0x0 CALLDATASIZE PUSH1 0x3 NOT ADD SLT PUSH2 0x491 JUMPI PUSH1 0x17 SLOAD PUSH1 0x40 DUP1 MLOAD PUSH2 0xFFFF DUP4 AND DUP2 MSTORE PUSH1 0x10 SWAP3 SWAP1 SWAP3 SHR PUSH1 0xFF AND ISZERO ISZERO PUSH1 0x20 DUP4 ADD MSTORE SWAP1 RETURN JUMPDEST CALLVALUE PUSH2 0x491 JUMPI PUSH1 0x0 CALLDATASIZE PUSH1 0x3 NOT ADD SLT PUSH2 0x491 JUMPI PUSH1 0x20 PUSH1 0xFF PUSH1 0xD SLOAD PUSH1 0xA0 SHR AND PUSH1 0x40 MLOAD SWAP1 ISZERO ISZERO DUP2 MSTORE RETURN JUMPDEST CALLVALUE PUSH2 0x491 JUMPI PUSH1 0x60 CALLDATASIZE PUSH1 0x3 NOT ADD SLT PUSH2 0x491 JUMPI PUSH1 0x4 CALLDATALOAD PUSH2 0x22E0 PUSH2 0x3999 JUMP JUMPDEST PUSH1 0x44 CALLDATALOAD SWAP1 PUSH1 0x1 PUSH1 0x1 PUSH1 0x60 SHL SUB DUP3 AND DUP1 SWAP3 SUB PUSH2 0x491 JUMPI PUSH2 0x22FD PUSH2 0x4A74 JUMP JUMPDEST PUSH2 0x2710 DUP1 DUP4 GT PUSH2 0x2375 JUMPI POP PUSH1 0x1 PUSH1 0x1 PUSH1 0xA0 SHL SUB SWAP1 DUP2 AND SWAP3 DUP4 ISZERO PUSH2 0x2356 JUMPI PUSH1 0x40 MLOAD SWAP4 PUSH2 0x2327 DUP6 PUSH2 0x3A29 JUMP JUMPDEST DUP5 MSTORE PUSH1 0x20 DUP1 DUP6 ADD SWAP4 DUP5 MSTORE PUSH1 0x0 SWAP2 DUP3 MSTORE PUSH1 0x1 SWAP1 MSTORE PUSH1 0x40 SWAP1 KECCAK256 SWAP3 MLOAD SWAP2 MLOAD PUSH1 0xA0 SHL PUSH1 0x1 PUSH1 0x1 PUSH1 0xA0 SHL SUB NOT AND SWAP2 AND OR SWAP1 SSTORE STOP JUMPDEST PUSH1 0x44 SWAP1 PUSH1 0x40 MLOAD SWAP1 PUSH4 0x4B4F8429 PUSH1 0xE1 SHL DUP3 MSTORE PUSH1 0x4 DUP3 ADD MSTORE PUSH1 0x0 PUSH1 0x24 DUP3 ADD MSTORE REVERT JUMPDEST DUP4 PUSH1 0x64 SWAP2 DUP5 PUSH1 0x40 MLOAD SWAP3 PUSH4 0xDFD1FC1B PUSH1 0xE0 SHL DUP5 MSTORE PUSH1 0x4 DUP5 ADD MSTORE PUSH1 0x24 DUP4 ADD MSTORE PUSH1 0x44 DUP3 ADD MSTORE REVERT JUMPDEST CALLVALUE PUSH2 0x491 JUMPI PUSH1 0x20 CALLDATASIZE PUSH1 0x3 NOT ADD SLT PUSH2 0x491 JUMPI PUSH1 0x4 CALLDATALOAD PUSH2 0x23B5 PUSH2 0x4A74 JUMP JUMPDEST PUSH2 0x23BD PUSH2 0x4C2B JUMP JUMPDEST DUP1 PUSH1 0x0 MSTORE PUSH1 0x18 PUSH1 0x20 MSTORE PUSH1 0x4 PUSH1 0x40 PUSH1 0x0 KECCAK256 ADD SWAP1 DUP2 SLOAD SWAP1 DUP2 ISZERO PUSH2 0x2430 JUMPI DUP2 SELFBALANCE LT PUSH2 0x23EB JUMPI PUSH1 0x0 PUSH2 0x520 SWAP4 SSTORE PUSH2 0x5382 JUMP JUMPDEST PUSH1 0x40 MLOAD PUSH3 0x461BCD PUSH1 0xE5 SHL DUP2 MSTORE PUSH1 0x20 PUSH1 0x4 DUP3 ADD MSTORE PUSH1 0x1D PUSH1 0x24 DUP3 ADD MSTORE PUSH32 0x496E73756666696369656E7420636F6E74726163742062616C616E6365000000 PUSH1 0x44 DUP3 ADD MSTORE PUSH1 0x64 SWAP1 REVERT JUMPDEST PUSH1 0x40 MLOAD PUSH3 0x461BCD PUSH1 0xE5 SHL DUP2 MSTORE PUSH1 0x20 PUSH1 0x4 DUP3 ADD MSTORE PUSH1 0x10 PUSH1 0x24 DUP3 ADD MSTORE PUSH16 0x4E6F2070656E64696E672066756E6473 PUSH1 0x80 SHL PUSH1 0x44 DUP3 ADD MSTORE PUSH1 0x64 SWAP1 REVERT JUMPDEST CALLVALUE PUSH2 0x491 JUMPI PUSH1 0x20 CALLDATASIZE PUSH1 0x3 NOT ADD SLT PUSH2 0x491 JUMPI PUSH1 0x4 CALLDATALOAD PUSH1 0x0 MSTORE PUSH1 0x1C PUSH1 0x20 MSTORE PUSH1 0x20 PUSH1 0x40 PUSH1 0x0 KECCAK256 SLOAD PUSH1 0x40 MLOAD SWAP1 DUP2 MSTORE RETURN JUMPDEST CALLVALUE PUSH2 0x491 JUMPI PUSH1 0x20 CALLDATASIZE PUSH1 0x3 NOT ADD SLT PUSH2 0x491 JUMPI PUSH1 0x4 CALLDATALOAD PUSH1 0x0 MSTORE PUSH1 0x18 PUSH1 0x20 MSTORE PUSH2 0x251D PUSH1 0x40 PUSH1 0x0 KECCAK256 PUSH1 0x2 DUP2 ADD SLOAD PUSH1 0xFF DUP3 PUSH1 0x3 DUP2 ADD SLOAD PUSH1 0x4 DUP3 ADD SLOAD SWAP1 PUSH1 0x6 DUP4 ADD SLOAD PUSH1 0x7 DUP5 ADD SLOAD PUSH1 0x8 DUP6 ADD SLOAD SWAP2 PUSH1 0x1 DUP1 PUSH1 0xA0 SHL SUB SWAP5 DUP6 PUSH1 0x9 DUP9 ADD SLOAD AND SWAP5 PUSH2 0x252B PUSH2 0x2508 PUSH1 0x1 PUSH2 0x2501 PUSH1 0xA DUP13 ADD SLOAD SWAP12 PUSH2 0x3A80 JUMP JUMPDEST SWAP14 ADD PUSH2 0x3A80 JUMP JUMPDEST PUSH1 0x40 MLOAD SWAP14 DUP15 SWAP14 DUP15 PUSH2 0x1A0 SWAP1 DUP2 DUP2 MSTORE ADD SWAP1 PUSH2 0x39AF JUMP JUMPDEST DUP14 DUP2 SUB PUSH1 0x20 DUP16 ADD MSTORE SWAP1 PUSH2 0x39AF JUMP JUMPDEST SWAP10 PUSH1 0x40 DUP13 ADD MSTORE PUSH1 0x60 DUP12 ADD MSTORE PUSH1 0x80 DUP11 ADD MSTORE PUSH1 0xA0 DUP10 ADD MSTORE PUSH1 0xC0 DUP9 ADD MSTORE PUSH1 0xE0 DUP8 ADD MSTORE PUSH2 0x100 DUP7 ADD MSTORE DUP2 AND PUSH2 0x120 DUP6 ADD MSTORE DUP2 DUP2 PUSH1 0xA0 SHR AND ISZERO ISZERO PUSH2 0x140 DUP6 ADD MSTORE DUP2 DUP2 PUSH1 0xA8 SHR AND ISZERO ISZERO PUSH2 0x160 DUP6 ADD MSTORE PUSH1 0xB8 SHR AND ISZERO ISZERO PUSH2 0x180 DUP4 ADD MSTORE SUB SWAP1 RETURN JUMPDEST CALLVALUE PUSH2 0x491 JUMPI PUSH2 0x2592 CALLDATASIZE PUSH2 0x3B94 JUMP JUMPDEST PUSH2 0x259A PUSH2 0x4A74 JUMP JUMPDEST DUP2 PUSH1 0x0 MSTORE PUSH1 0x18 PUSH1 0x20 MSTORE PUSH1 0x2 PUSH1 0x40 PUSH1 0x0 KECCAK256 PUSH2 0x25BE PUSH1 0xFF PUSH1 0xA DUP4 ADD SLOAD PUSH1 0xA8 SHR AND ISZERO PUSH2 0x3D1C JUMP JUMPDEST ADD SSTORE PUSH1 0x0 DUP1 MLOAD PUSH1 0x20 PUSH2 0x5914 DUP4 CODECOPY DUP2 MLOAD SWAP2 MSTORE PUSH1 0x60 PUSH1 0x40 MLOAD PUSH1 0x20 DUP2 MSTORE PUSH1 0x4 PUSH1 0x20 DUP3 ADD MSTORE PUSH4 0x19DBD85B PUSH1 0xE2 SHL PUSH1 0x40 DUP3 ADD MSTORE LOG2 STOP JUMPDEST CALLVALUE PUSH2 0x491 JUMPI PUSH1 0x0 CALLDATASIZE PUSH1 0x3 NOT ADD SLT PUSH2 0x491 JUMPI PUSH1 0x20 PUSH1 0x12 SLOAD PUSH1 0x40 MLOAD SWAP1 DUP2 MSTORE RETURN JUMPDEST CALLVALUE PUSH2 0x491 JUMPI PUSH1 0x20 CALLDATASIZE PUSH1 0x3 NOT ADD SLT PUSH2 0x491 JUMPI PUSH1 0x4 CALLDATALOAD PUSH1 0xA SLOAD DUP2 LT ISZERO PUSH2 0x2644 JUMPI PUSH2 0x2636 PUSH1 0x20 SWAP2 PUSH2 0x3C4B JUMP JUMPDEST SWAP1 SLOAD PUSH1 0x40 MLOAD SWAP2 PUSH1 0x3 SHL SHR DUP2 MSTORE RETURN JUMPDEST PUSH1 0x44 SWAP1 PUSH1 0x40 MLOAD SWAP1 PUSH4 0x295F44F7 PUSH1 0xE2 SHL DUP3 MSTORE PUSH1 0x0 PUSH1 0x4 DUP4 ADD MSTORE PUSH1 0x24 DUP3 ADD MSTORE REVERT JUMPDEST PUSH2 0x91A PUSH2 0x26A3 PUSH2 0x2672 CALLDATASIZE PUSH2 0x3CB0 JUMP JUMPDEST SWAP2 PUSH2 0x267B PUSH2 0x4C0A JUMP JUMPDEST CALLER PUSH1 0x0 MSTORE PUSH1 0x15 PUSH1 0x20 MSTORE PUSH2 0x2696 PUSH1 0xFF PUSH1 0x40 PUSH1 0x0 KECCAK256 SLOAD AND ISZERO PUSH2 0x3DBE JUMP JUMPDEST PUSH2 0x269E PUSH2 0x4C2B JUMP JUMPDEST PUSH2 0x454D JUMP JUMPDEST PUSH1 0x1 PUSH1 0xE SSTORE PUSH1 0x40 MLOAD SWAP2 DUP3 SWAP2 DUP3 PUSH2 0x3C0F JUMP JUMPDEST CALLVALUE PUSH2 0x491 JUMPI PUSH1 0x20 CALLDATASIZE PUSH1 0x3 NOT ADD SLT PUSH2 0x491 JUMPI PUSH1 0x4 CALLDATALOAD PUSH2 0x26D0 PUSH2 0x4A74 JUMP JUMPDEST DUP1 PUSH1 0x0 MSTORE PUSH1 0x14 PUSH1 0x20 MSTORE PUSH1 0x40 PUSH1 0x0 KECCAK256 PUSH1 0xFF NOT DUP2 SLOAD AND SWAP1 SSTORE PUSH32 0xBF025F2B09B91DC81D2B137BED7B878FB0BD75A3BFE4708D69989FDA3C63485A PUSH1 0x20 PUSH1 0x40 MLOAD PUSH1 0x0 DUP2 MSTORE LOG2 STOP JUMPDEST PUSH1 0x0 CALLDATASIZE PUSH1 0x3 NOT ADD SLT PUSH2 0x491 JUMPI CALLVALUE ISZERO PUSH2 0x2762 JUMPI PUSH2 0x2731 CALLVALUE PUSH1 0x12 SLOAD PUSH2 0x427C JUMP JUMPDEST PUSH1 0x12 SSTORE PUSH1 0x40 MLOAD CALLVALUE DUP2 MSTORE PUSH32 0x1DA5CC6515D0BF0B6FB40CEDCD4EF3EB9A5B820440278EFC9321A4491B5DD1EF PUSH1 0x20 CALLER SWAP3 LOG2 STOP JUMPDEST PUSH1 0x40 MLOAD PUSH3 0x461BCD PUSH1 0xE5 SHL DUP2 MSTORE PUSH1 0x20 PUSH1 0x4 DUP3 ADD MSTORE PUSH1 0xF PUSH1 0x24 DUP3 ADD MSTORE PUSH15 0x4D7573742073656E642066756E6473 PUSH1 0x88 SHL PUSH1 0x44 DUP3 ADD MSTORE PUSH1 0x64 SWAP1 REVERT JUMPDEST PUSH2 0x91A PUSH2 0x26A3 PUSH2 0x27A8 CALLDATASIZE PUSH2 0x3CB0 JUMP JUMPDEST SWAP2 PUSH2 0x27B1 PUSH2 0x4C0A JUMP JUMPDEST CALLER PUSH1 0x0 MSTORE PUSH1 0x15 PUSH1 0x20 MSTORE PUSH2 0x27CC PUSH1 0xFF PUSH1 0x40 PUSH1 0x0 KECCAK256 SLOAD AND ISZERO PUSH2 0x3DBE JUMP JUMPDEST PUSH2 0x27D4 PUSH2 0x4C2B JUMP JUMPDEST PUSH2 0x269E PUSH32 0x0 CHAINID EQ PUSH2 0x43A4 JUMP JUMPDEST CALLVALUE PUSH2 0x491 JUMPI PUSH1 0x20 CALLDATASIZE PUSH1 0x3 NOT ADD SLT PUSH2 0x491 JUMPI PUSH1 0x4 CALLDATALOAD PUSH2 0x281B PUSH2 0x4A74 JUMP JUMPDEST DUP1 PUSH1 0x0 MSTORE PUSH1 0x16 PUSH1 0x20 MSTORE PUSH1 0x40 PUSH1 0x0 KECCAK256 PUSH1 0xFF NOT DUP2 SLOAD AND SWAP1 SSTORE PUSH32 0x7FBA17392135B4084A7D689C1F6D77139E1F1C18EE4651BF32DC35AE29CE9301 PUSH1 0x20 PUSH1 0x40 MLOAD PUSH1 0x0 DUP2 MSTORE LOG2 STOP JUMPDEST CALLVALUE PUSH2 0x491 JUMPI PUSH1 0x40 CALLDATASIZE PUSH1 0x3 NOT ADD SLT PUSH2 0x491 JUMPI PUSH1 0x4 CALLDATALOAD PUSH1 0x1 PUSH1 0x1 PUSH1 0x40 SHL SUB DUP2 GT PUSH2 0x491 JUMPI PUSH2 0x288E SWAP1 CALLDATASIZE SWAP1 PUSH1 0x4 ADD PUSH2 0x3BAA JUMP JUMPDEST PUSH2 0x2896 PUSH2 0x3B25 JUMP JUMPDEST PUSH2 0x289E PUSH2 0x4A74 JUMP JUMPDEST PUSH1 0x0 JUMPDEST DUP3 DUP2 LT PUSH2 0x28AA JUMPI STOP JUMPDEST PUSH1 0x1 SWAP1 PUSH1 0x1 PUSH1 0x1 PUSH1 0xA0 SHL SUB PUSH2 0x28C3 PUSH2 0x1A7B DUP4 DUP8 DUP10 PUSH2 0x3E59 JUMP JUMPDEST AND PUSH2 0x28CF JUMPI JUMPDEST ADD PUSH2 0x28A1 JUMP JUMPDEST PUSH2 0x28DA DUP2 DUP6 DUP8 PUSH2 0x3E59 JUMP JUMPDEST CALLDATALOAD PUSH1 0x0 MSTORE PUSH1 0x20 PUSH1 0x14 DUP2 MSTORE PUSH2 0x28FE DUP5 PUSH1 0x40 PUSH1 0x0 KECCAK256 SWAP1 PUSH1 0xFF DUP1 NOT DUP4 SLOAD AND SWAP2 ISZERO ISZERO AND OR SWAP1 SSTORE JUMP JUMPDEST PUSH32 0xBF025F2B09B91DC81D2B137BED7B878FB0BD75A3BFE4708D69989FDA3C63485A PUSH2 0x292A DUP4 DUP8 DUP10 PUSH2 0x3E59 JUMP JUMPDEST CALLDATALOAD SWAP2 PUSH1 0x40 MLOAD DUP7 ISZERO ISZERO DUP2 MSTORE LOG2 PUSH2 0x28C9 JUMP JUMPDEST CALLVALUE PUSH2 0x491 JUMPI PUSH1 0x20 CALLDATASIZE PUSH1 0x3 NOT ADD SLT PUSH2 0x491 JUMPI PUSH1 0x4 CALLDATALOAD DUP1 PUSH1 0x0 MSTORE PUSH1 0x4 PUSH1 0x20 MSTORE PUSH1 0x1 DUP1 PUSH1 0xA0 SHL SUB PUSH1 0x40 PUSH1 0x0 KECCAK256 SLOAD AND CALLER SUB PUSH2 0x29B8 JUMPI DUP1 PUSH1 0x0 MSTORE PUSH1 0x14 PUSH1 0x20 MSTORE PUSH2 0x2986 PUSH1 0xFF PUSH1 0x40 PUSH1 0x0 KECCAK256 SLOAD AND ISZERO PUSH2 0x4366 JUMP JUMPDEST PUSH2 0x298F DUP2 PUSH2 0x506F JUMP JUMPDEST CALLER SWAP1 PUSH32 0x33631BCD0A4D34A7E2C240AB0753D5ADFB7284D8AC89DAB6876EC785C0CFA0E6 PUSH1 0x0 DUP1 LOG3 STOP JUMPDEST PUSH1 0x40 MLOAD PUSH3 0x461BCD PUSH1 0xE5 SHL DUP2 MSTORE PUSH1 0x20 PUSH1 0x4 DUP3 ADD MSTORE PUSH1 0xF PUSH1 0x24 DUP3 ADD MSTORE PUSH15 0x2737BA103A37B5B2B71037BBB732B9 PUSH1 0x89 SHL PUSH1 0x44 DUP3 ADD MSTORE PUSH1 0x64 SWAP1 REVERT JUMPDEST CALLVALUE PUSH2 0x491 JUMPI PUSH2 0x18 PUSH2 0x2A00 CALLDATASIZE PUSH2 0x3BDA JUMP JUMPDEST SWAP1 PUSH1 0x40 MLOAD SWAP3 PUSH2 0x2A0E DUP5 PUSH2 0x3A44 JUMP JUMPDEST PUSH1 0x0 DUP5 MSTORE PUSH2 0x1116 DUP4 DUP4 DUP4 PUSH2 0x3EC8 JUMP JUMPDEST CALLVALUE PUSH2 0x491 JUMPI PUSH2 0x2A2B CALLDATASIZE PUSH2 0x3B94 JUMP JUMPDEST SWAP1 PUSH1 0x0 MSTORE PUSH1 0x1B PUSH1 0x20 MSTORE PUSH1 0x40 PUSH1 0x0 KECCAK256 DUP1 SLOAD DUP3 LT ISZERO PUSH2 0x491 JUMPI PUSH1 0x20 SWAP2 PUSH2 0x2636 SWAP2 PUSH2 0x3C98 JUMP JUMPDEST CALLVALUE PUSH2 0x491 JUMPI PUSH1 0x0 CALLDATASIZE PUSH1 0x3 NOT ADD SLT PUSH2 0x491 JUMPI PUSH2 0x2A67 PUSH2 0x4A74 JUMP JUMPDEST PUSH1 0xD SLOAD PUSH1 0xFF DUP2 PUSH1 0xA0 SHR AND ISZERO PUSH2 0x2AAE JUMPI PUSH1 0xFF PUSH1 0xA0 SHL NOT AND PUSH1 0xD SSTORE PUSH1 0x40 MLOAD CALLER DUP2 MSTORE PUSH32 0x5DB9EE0A495BF2E6FF9C91A7834C1BA4FDD244A5E8AA4E537BD38AEAE4B073AA SWAP1 PUSH1 0x20 SWAP1 LOG1 STOP JUMPDEST PUSH1 0x40 MLOAD PUSH4 0x8DFC202B PUSH1 0xE0 SHL DUP2 MSTORE PUSH1 0x4 SWAP1 REVERT JUMPDEST CALLVALUE PUSH2 0x491 JUMPI PUSH1 0x20 DUP1 PUSH1 0x3 NOT CALLDATASIZE ADD SLT PUSH2 0x491 JUMPI PUSH1 0x4 CALLDATALOAD PUSH1 0x0 MSTORE PUSH1 0x1B PUSH1 0x20 MSTORE PUSH1 0x40 PUSH1 0x0 KECCAK256 SWAP1 PUSH1 0x40 MLOAD SWAP1 DUP2 PUSH1 0x20 DUP5 SLOAD SWAP2 DUP3 DUP2 MSTORE ADD SWAP4 PUSH1 0x0 MSTORE PUSH1 0x20 PUSH1 0x0 KECCAK256 SWAP2 PUSH1 0x0 SWAP1 JUMPDEST DUP3 DUP3 LT PUSH2 0x2B22 JUMPI PUSH2 0x91A DUP6 PUSH2 0x2B16 DUP2 DUP10 SUB DUP3 PUSH2 0x3A5F JUMP JUMPDEST PUSH1 0x40 MLOAD SWAP2 DUP3 SWAP2 DUP3 PUSH2 0x3C0F JUMP JUMPDEST DUP4 SLOAD DUP7 MSTORE SWAP5 DUP6 ADD SWAP5 PUSH1 0x1 SWAP4 DUP5 ADD SWAP4 SWAP1 SWAP2 ADD SWAP1 PUSH2 0x2AFF JUMP JUMPDEST CALLVALUE PUSH2 0x491 JUMPI PUSH1 0x20 CALLDATASIZE PUSH1 0x3 NOT ADD SLT PUSH2 0x491 JUMPI PUSH2 0x2B52 PUSH2 0x4A74 JUMP JUMPDEST PUSH32 0xF8E1A15ABA9398E019F0B49DF1A4FDE98EE17AE345CB5F6B5E2C27F5033E8CE7 PUSH1 0x20 PUSH1 0x40 MLOAD PUSH1 0x4 CALLDATALOAD DUP2 MSTORE LOG1 STOP JUMPDEST CALLVALUE PUSH2 0x491 JUMPI PUSH1 0x40 CALLDATASIZE PUSH1 0x3 NOT ADD SLT PUSH2 0x491 JUMPI PUSH2 0x2B99 PUSH2 0x3983 JUMP JUMPDEST PUSH1 0x24 CALLDATALOAD SWAP1 PUSH2 0x2BA6 DUP2 PUSH2 0x47D8 JUMP JUMPDEST DUP3 LT ISZERO PUSH2 0x2BD9 JUMPI PUSH1 0x1 DUP1 PUSH1 0xA0 SHL SUB AND PUSH1 0x0 MSTORE PUSH1 0x8 PUSH1 0x20 MSTORE PUSH1 0x40 PUSH1 0x0 KECCAK256 SWAP1 PUSH1 0x0 MSTORE PUSH1 0x20 MSTORE PUSH1 0x20 PUSH1 0x40 PUSH1 0x0 KECCAK256 SLOAD PUSH1 0x40 MLOAD SWAP1 DUP2 MSTORE RETURN JUMPDEST PUSH1 0x40 MLOAD PUSH4 0x295F44F7 PUSH1 0xE2 SHL DUP2 MSTORE PUSH1 0x1 PUSH1 0x1 PUSH1 0xA0 SHL SUB SWAP2 SWAP1 SWAP2 AND PUSH1 0x4 DUP3 ADD MSTORE PUSH1 0x24 DUP2 ADD SWAP2 SWAP1 SWAP2 MSTORE PUSH1 0x44 SWAP1 REVERT JUMPDEST CALLVALUE PUSH2 0x491 JUMPI PUSH1 0x60 CALLDATASIZE PUSH1 0x3 NOT ADD SLT PUSH2 0x491 JUMPI PUSH1 0x4 CALLDATALOAD PUSH1 0x40 PUSH2 0x2C22 PUSH2 0x3999 JUMP JUMPDEST SWAP2 PUSH2 0x2C2B PUSH2 0x4A74 JUMP JUMPDEST DUP1 PUSH1 0x0 MSTORE PUSH1 0x20 SWAP3 PUSH1 0x18 DUP5 MSTORE DUP3 PUSH1 0x0 KECCAK256 SWAP2 PUSH2 0x2C5D PUSH1 0xFF PUSH1 0xA DUP6 ADD SLOAD PUSH2 0x2C53 DUP3 DUP3 PUSH1 0xA0 SHR AND PUSH2 0x42D2 JUMP JUMPDEST PUSH1 0xA8 SHR AND ISZERO PUSH2 0x3D1C JUMP JUMPDEST PUSH2 0x2C74 PUSH1 0x7 DUP5 ADD SLOAD DUP1 ISZERO SWAP1 DUP2 ISZERO PUSH2 0x2D11 JUMPI POP PUSH2 0x4314 JUMP JUMPDEST PUSH1 0x0 DUP1 MLOAD PUSH1 0x20 PUSH2 0x58F4 DUP4 CODECOPY DUP2 MLOAD SWAP2 MSTORE PUSH1 0xF SLOAD SWAP5 DUP6 SWAP4 PUSH2 0x2C92 DUP6 PUSH2 0x4357 JUMP JUMPDEST PUSH1 0xF SSTORE PUSH2 0x2CC5 PUSH2 0x2CBF PUSH1 0x1 PUSH1 0x6 DUP10 ADD SWAP9 PUSH2 0x2CAC DUP11 SLOAD PUSH2 0x4357 JUMP JUMPDEST DUP1 SWAP11 SSTORE PUSH2 0x2CB9 DUP10 DUP7 PUSH2 0x4C4E JUMP JUMPDEST ADD PUSH2 0x3A80 JUMP JUMPDEST DUP7 PUSH2 0x4ADB JUMP JUMPDEST DUP5 PUSH1 0x0 MSTORE PUSH1 0x19 DUP9 MSTORE DUP4 DUP3 PUSH1 0x0 KECCAK256 SSTORE PUSH1 0x1A DUP9 MSTORE DUP6 DUP3 PUSH1 0x0 KECCAK256 SSTORE DUP4 PUSH1 0x0 MSTORE PUSH1 0x1B DUP9 MSTORE PUSH2 0x2CF2 DUP6 DUP4 PUSH1 0x0 KECCAK256 PUSH2 0x3EA5 JUMP JUMPDEST DUP2 MLOAD SWAP6 DUP7 MSTORE PUSH1 0x44 CALLDATALOAD DUP9 DUP8 ADD MSTORE PUSH1 0x1 PUSH1 0x1 PUSH1 0xA0 SHL SUB AND SWAP5 LOG4 PUSH1 0x40 MLOAD SWAP1 DUP2 MSTORE RETURN JUMPDEST SWAP1 POP PUSH1 0x6 DUP6 ADD SLOAD LT DUP8 PUSH2 0xBAF JUMP JUMPDEST CALLVALUE PUSH2 0x491 JUMPI PUSH2 0x2D2D CALLDATASIZE PUSH2 0x3B94 JUMP JUMPDEST SWAP1 PUSH1 0x0 MSTORE PUSH1 0x1 PUSH1 0x20 MSTORE PUSH1 0x40 PUSH1 0x0 KECCAK256 PUSH1 0x40 MLOAD SWAP1 PUSH2 0x2D48 DUP3 PUSH2 0x3A29 JUMP JUMPDEST SLOAD PUSH1 0x1 PUSH1 0x1 PUSH1 0xA0 SHL SUB DUP1 DUP3 AND DUP1 DUP5 MSTORE PUSH1 0xA0 SWAP3 SWAP1 SWAP3 SHR PUSH1 0x20 DUP5 ADD MSTORE SWAP2 SWAP3 SWAP1 ISZERO PUSH2 0x2DA4 JUMPI JUMPDEST PUSH2 0x2D86 PUSH2 0x2710 SWAP2 PUSH1 0x1 PUSH1 0x1 PUSH1 0x60 SHL SUB PUSH1 0x20 DUP7 ADD MLOAD AND SWAP1 PUSH2 0x429F JUMP JUMPDEST SWAP3 MLOAD PUSH1 0x40 DUP1 MLOAD SWAP4 SWAP1 SWAP2 AND PUSH1 0x1 PUSH1 0x1 PUSH1 0xA0 SHL SUB AND DUP4 MSTORE SWAP3 DIV PUSH1 0x20 DUP3 ADD MSTORE RETURN JUMPDEST SWAP2 POP PUSH2 0x2710 PUSH2 0x2D86 PUSH1 0x40 MLOAD PUSH2 0x2DB8 DUP2 PUSH2 0x3A29 JUMP JUMPDEST PUSH1 0x0 SLOAD DUP5 DUP2 AND DUP3 MSTORE PUSH1 0xA0 SHR PUSH1 0x20 DUP3 ADD MSTORE SWAP4 SWAP2 POP POP PUSH2 0x2D6B JUMP JUMPDEST CALLVALUE PUSH2 0x491 JUMPI PUSH1 0xA0 CALLDATASIZE PUSH1 0x3 NOT ADD SLT PUSH2 0x491 JUMPI PUSH1 0x4 CALLDATALOAD PUSH1 0x24 CALLDATALOAD PUSH1 0x44 CALLDATALOAD PUSH1 0x64 CALLDATALOAD SWAP2 PUSH1 0x84 CALLDATALOAD DUP1 ISZERO ISZERO DUP1 SWAP2 SUB PUSH2 0x491 JUMPI PUSH1 0x0 DUP1 MLOAD PUSH1 0x20 PUSH2 0x5934 DUP4 CODECOPY DUP2 MLOAD SWAP2 MSTORE SWAP4 PUSH1 0x80 SWAP4 PUSH2 0x2E17 PUSH2 0x4A74 JUMP JUMPDEST DUP7 PUSH1 0x0 MSTORE PUSH1 0x18 PUSH1 0x20 MSTORE PUSH1 0x5 PUSH1 0x40 PUSH1 0x0 KECCAK256 PUSH2 0x2E3B PUSH1 0xFF PUSH1 0xA DUP4 ADD SLOAD PUSH1 0xA8 SHR AND ISZERO PUSH2 0x3D1C JUMP JUMPDEST PUSH2 0x2E45 DUP5 DUP8 PUSH2 0x427C JUMP JUMPDEST PUSH2 0x2E54 PUSH1 0x3 DUP4 ADD SWAP2 DUP3 SLOAD PUSH2 0x427C JUMP JUMPDEST SWAP1 SSTORE PUSH1 0x4 DUP2 ADD PUSH2 0x2E65 DUP5 DUP3 SLOAD PUSH2 0x427C JUMP JUMPDEST SWAP1 SSTORE ADD PUSH2 0x2E73 DUP4 DUP3 SLOAD PUSH2 0x427C JUMP JUMPDEST SWAP1 SSTORE PUSH1 0x40 MLOAD SWAP4 DUP5 MSTORE PUSH1 0x20 DUP5 ADD MSTORE PUSH1 0x40 DUP4 ADD MSTORE PUSH1 0x60 DUP3 ADD MSTORE LOG2 STOP JUMPDEST CALLVALUE PUSH2 0x491 JUMPI PUSH2 0x18 PUSH2 0x2E9E CALLDATASIZE PUSH2 0x3BDA JUMP JUMPDEST SWAP2 PUSH2 0x3EC8 JUMP JUMPDEST CALLVALUE PUSH2 0x491 JUMPI PUSH1 0x20 CALLDATASIZE PUSH1 0x3 NOT ADD SLT PUSH2 0x491 JUMPI PUSH1 0x4 CALLDATALOAD PUSH2 0x2EC0 PUSH2 0x4A74 JUMP JUMPDEST DUP1 PUSH1 0x0 MSTORE PUSH1 0x18 PUSH1 0x20 MSTORE PUSH1 0xA PUSH1 0x40 PUSH1 0x0 KECCAK256 ADD DUP1 SLOAD PUSH1 0xFF DUP2 PUSH1 0xA8 SHR AND PUSH2 0x2F6F JUMPI PUSH1 0xFF DUP2 PUSH1 0xB0 SHR AND PUSH2 0x2F32 JUMPI PUSH1 0xFF PUSH1 0xA0 SHL NOT AND PUSH1 0x1 PUSH1 0xA0 SHL OR SWAP1 SSTORE PUSH1 0x40 DUP1 MLOAD PUSH1 0x20 DUP1 DUP3 MSTORE PUSH1 0x6 SWAP1 DUP3 ADD MSTORE PUSH6 0x616374697665 PUSH1 0xD0 SHL SWAP2 DUP2 ADD SWAP2 SWAP1 SWAP2 MSTORE PUSH1 0x0 DUP1 MLOAD PUSH1 0x20 PUSH2 0x5914 DUP4 CODECOPY DUP2 MLOAD SWAP2 MSTORE SWAP1 DUP1 PUSH1 0x60 DUP2 ADD PUSH2 0x1F89 JUMP JUMPDEST PUSH1 0x40 MLOAD PUSH3 0x461BCD PUSH1 0xE5 SHL DUP2 MSTORE PUSH1 0x20 PUSH1 0x4 DUP3 ADD MSTORE PUSH1 0x15 PUSH1 0x24 DUP3 ADD MSTORE PUSH21 0x10D85B5C185A59DB881DD85CC81C99599D5B991959 PUSH1 0x5A SHL PUSH1 0x44 DUP3 ADD MSTORE PUSH1 0x64 SWAP1 REVERT JUMPDEST PUSH1 0x40 MLOAD PUSH3 0x461BCD PUSH1 0xE5 SHL DUP2 MSTORE PUSH1 0x20 PUSH1 0x4 DUP3 ADD MSTORE PUSH1 0x1B PUSH1 0x24 DUP3 ADD MSTORE PUSH32 0x43616D706169676E207065726D616E656E746C7920636C6F7365640000000000 PUSH1 0x44 DUP3 ADD MSTORE PUSH1 0x64 SWAP1 REVERT JUMPDEST CALLVALUE PUSH2 0x491 JUMPI PUSH1 0x40 CALLDATASIZE PUSH1 0x3 NOT ADD SLT PUSH2 0x491 JUMPI PUSH1 0x4 CALLDATALOAD PUSH1 0x1 PUSH1 0x1 PUSH1 0x40 SHL SUB DUP2 GT PUSH2 0x491 JUMPI PUSH2 0x2FE4 SWAP1 CALLDATASIZE SWAP1 PUSH1 0x4 ADD PUSH2 0x3BAA JUMP JUMPDEST SWAP1 PUSH1 0x24 CALLDATALOAD SWAP2 PUSH2 0x2FF1 PUSH2 0x4A74 JUMP JUMPDEST PUSH1 0x0 JUMPDEST DUP2 DUP2 LT PUSH2 0x2FFD JUMPI STOP JUMPDEST PUSH1 0x1 PUSH1 0x1 PUSH1 0xA0 SHL SUB PUSH2 0x3013 PUSH2 0x1A7B DUP4 DUP6 DUP8 PUSH2 0x3E59 JUMP JUMPDEST AND PUSH2 0x3021 JUMPI JUMPDEST PUSH1 0x1 ADD PUSH2 0x2FF4 JUMP JUMPDEST SWAP3 SWAP2 SWAP1 PUSH2 0x302F DUP5 DUP3 DUP5 PUSH2 0x3E59 JUMP JUMPDEST CALLDATALOAD PUSH1 0x0 MSTORE PUSH1 0x1B PUSH1 0x20 PUSH1 0x19 DUP2 MSTORE DUP5 PUSH1 0x40 PUSH1 0x0 KECCAK256 SSTORE DUP5 PUSH1 0x0 MSTORE MSTORE PUSH1 0x40 PUSH1 0x0 KECCAK256 SWAP4 PUSH1 0x0 SWAP5 PUSH1 0x0 SWAP6 DUP2 SLOAD SWAP7 JUMPDEST DUP8 DUP2 LT PUSH2 0x3091 JUMPI JUMPDEST POP PUSH1 0x1 SWAP4 SWAP5 SWAP6 SWAP7 POP ISZERO PUSH2 0x3075 JUMPI JUMPDEST POP SWAP1 POP PUSH2 0x3019 JUMP JUMPDEST PUSH2 0x308B SWAP1 PUSH2 0x3084 DUP4 DUP7 DUP9 PUSH2 0x3E59 JUMP JUMPDEST CALLDATALOAD SWAP1 PUSH2 0x3EA5 JUMP JUMPDEST DUP6 PUSH2 0x306D JUMP JUMPDEST PUSH2 0x309B DUP2 DUP5 PUSH2 0x3C98 JUMP JUMPDEST SWAP1 SLOAD PUSH2 0x30A8 DUP7 DUP9 DUP11 PUSH2 0x3E59 JUMP JUMPDEST CALLDATALOAD SWAP2 PUSH1 0x3 SHL SHR EQ PUSH2 0x30BB JUMPI PUSH1 0x1 ADD PUSH2 0x3057 JUMP JUMPDEST POP SWAP5 SWAP6 POP DUP6 SWAP5 POP PUSH1 0x1 DUP1 PUSH2 0x305F JUMP JUMPDEST CALLVALUE PUSH2 0x491 JUMPI PUSH2 0x30D8 CALLDATASIZE PUSH2 0x3B61 JUMP JUMPDEST SWAP1 PUSH2 0x30E1 PUSH2 0x4A74 JUMP JUMPDEST DUP3 PUSH1 0x0 MSTORE PUSH1 0x20 SWAP1 PUSH1 0x18 DUP3 MSTORE PUSH1 0x40 PUSH1 0x0 KECCAK256 PUSH2 0x3105 PUSH1 0xFF PUSH1 0xA DUP4 ADD SLOAD PUSH1 0xA8 SHR AND ISZERO PUSH2 0x3D1C JUMP JUMPDEST PUSH1 0x1 DUP1 SWAP2 ADD PUSH1 0x1 PUSH1 0x1 PUSH1 0x40 SHL SUB DUP6 GT PUSH2 0xFED JUMPI PUSH2 0x312C DUP6 PUSH2 0x3126 DUP4 SLOAD PUSH2 0x39EF JUMP JUMPDEST DUP4 PUSH2 0x3E03 JUMP JUMPDEST PUSH1 0x0 DUP6 PUSH1 0x1F DUP2 GT PUSH1 0x1 EQ PUSH2 0x31F6 JUMPI DUP1 PUSH2 0x315B SWAP3 PUSH1 0x0 SWAP2 PUSH2 0x31EB JUMPI JUMPDEST POP DUP2 PUSH1 0x1 SHL SWAP2 PUSH1 0x0 NOT SWAP1 PUSH1 0x3 SHL SHR NOT AND OR SWAP1 JUMP JUMPDEST SWAP1 SSTORE JUMPDEST DUP5 PUSH1 0x0 MSTORE PUSH1 0x1B DUP4 MSTORE PUSH1 0x40 PUSH1 0x0 KECCAK256 DUP2 PUSH1 0x0 SWAP1 JUMPDEST PUSH2 0x31AD JUMPI JUMPDEST PUSH1 0x40 MLOAD DUP6 DUP2 MSTORE DUP8 SWAP1 PUSH32 0xD0ED2732DA48175AAAE07FD675A2A78B1700515722F6675D7FF5F0E09F22F309 SWAP1 DUP1 PUSH2 0x1F89 DUP2 DUP11 ADD DUP12 DUP11 PUSH2 0x3D9D JUMP JUMPDEST DUP2 SLOAD DUP2 LT ISZERO PUSH2 0x31E6 JUMPI SWAP1 DUP3 DUP3 PUSH2 0x31DE PUSH2 0x31C7 DUP4 SWAP6 DUP6 PUSH2 0x3C98 JUMP JUMPDEST SWAP1 SLOAD PUSH2 0x31D4 CALLDATASIZE DUP13 DUP12 PUSH2 0x3CE5 JUMP JUMPDEST SWAP2 PUSH1 0x3 SHL SHR PUSH2 0x4ADB JUMP JUMPDEST ADD SWAP1 SWAP2 PUSH2 0x3170 JUMP JUMPDEST PUSH2 0x3175 JUMP JUMPDEST SWAP1 POP DUP6 ADD CALLDATALOAD DUP10 PUSH2 0x3147 JUMP JUMPDEST POP PUSH1 0x1F NOT DUP7 AND SWAP1 DUP3 PUSH1 0x0 MSTORE DUP7 DUP7 PUSH1 0x0 KECCAK256 SWAP3 PUSH1 0x0 JUMPDEST DUP9 DUP8 DUP4 DUP4 LT PUSH2 0x3244 JUMPI POP POP POP LT PUSH2 0x322A JUMPI JUMPDEST POP POP DUP2 DUP6 DUP2 SHL ADD SWAP1 SSTORE PUSH2 0x315E JUMP JUMPDEST DUP5 ADD CALLDATALOAD PUSH1 0x0 NOT PUSH1 0x3 DUP9 SWAP1 SHL PUSH1 0xF8 AND SHR NOT AND SWAP1 SSTORE DUP7 DUP1 PUSH2 0x321C JUMP JUMPDEST DUP6 DUP11 ADD CALLDATALOAD DUP8 SSTORE SWAP1 SWAP6 ADD SWAP5 SWAP4 DUP5 ADD SWAP4 DUP11 SWAP4 POP ADD PUSH2 0x320A JUMP JUMPDEST CALLVALUE PUSH2 0x491 JUMPI PUSH2 0x3269 CALLDATASIZE PUSH2 0x3B94 JUMP JUMPDEST PUSH2 0x3271 PUSH2 0x4A74 JUMP JUMPDEST DUP2 PUSH1 0x0 MSTORE PUSH1 0x18 PUSH1 0x20 MSTORE PUSH1 0x40 PUSH1 0x0 KECCAK256 PUSH2 0x3293 PUSH1 0xFF PUSH1 0xA DUP4 ADD SLOAD PUSH1 0xA8 SHR AND ISZERO PUSH2 0x3D1C JUMP JUMPDEST DUP2 ISZERO DUP1 ISZERO PUSH2 0x3320 JUMPI JUMPDEST ISZERO PUSH2 0x32DB JUMPI PUSH1 0x7 ADD SSTORE PUSH1 0x0 DUP1 MLOAD PUSH1 0x20 PUSH2 0x5914 DUP4 CODECOPY DUP2 MLOAD SWAP2 MSTORE PUSH1 0x60 PUSH1 0x40 MLOAD PUSH1 0x20 DUP2 MSTORE PUSH1 0xB PUSH1 0x20 DUP3 ADD MSTORE PUSH11 0x6D617845646974696F6E73 PUSH1 0xA8 SHL PUSH1 0x40 DUP3 ADD MSTORE LOG2 STOP JUMPDEST PUSH1 0x40 MLOAD PUSH3 0x461BCD PUSH1 0xE5 SHL DUP2 MSTORE PUSH1 0x20 PUSH1 0x4 DUP3 ADD MSTORE PUSH1 0x1A PUSH1 0x24 DUP3 ADD MSTORE PUSH32 0x43616E6E6F74207265647563652062656C6F77206D696E746564000000000000 PUSH1 0x44 DUP3 ADD MSTORE PUSH1 0x64 SWAP1 REVERT JUMPDEST POP PUSH1 0x6 DUP2 ADD SLOAD DUP3 LT ISZERO PUSH2 0x329C JUMP JUMPDEST CALLVALUE PUSH2 0x491 JUMPI PUSH1 0x0 CALLDATASIZE PUSH1 0x3 NOT ADD SLT PUSH2 0x491 JUMPI PUSH1 0x20 PUSH1 0x1 PUSH1 0x1 PUSH1 0x60 SHL SUB PUSH1 0x13 SLOAD AND PUSH1 0x40 MLOAD SWAP1 DUP2 MSTORE RETURN JUMPDEST CALLVALUE PUSH2 0x491 JUMPI PUSH1 0x0 CALLDATASIZE PUSH1 0x3 NOT ADD SLT PUSH2 0x491 JUMPI PUSH1 0x20 PUSH1 0xA SLOAD PUSH1 0x40 MLOAD SWAP1 DUP2 MSTORE RETURN JUMPDEST PUSH1 0x20 PUSH2 0x730 PUSH2 0x3381 CALLDATASIZE PUSH2 0x3B94 JUMP JUMPDEST SWAP1 PUSH2 0x338A PUSH2 0x4C0A JUMP JUMPDEST CALLER PUSH1 0x0 MSTORE PUSH1 0x15 DUP5 MSTORE PUSH2 0x33A4 PUSH1 0xFF PUSH1 0x40 PUSH1 0x0 KECCAK256 SLOAD AND ISZERO PUSH2 0x3DBE JUMP JUMPDEST PUSH2 0x72B PUSH2 0x4C2B JUMP JUMPDEST CALLVALUE PUSH2 0x491 JUMPI PUSH32 0xAC6D62CB5D30A7FFF578060CD3DCF46FF2DF7991A71C2D2AABCA7E558F130F78 PUSH2 0x33DB CALLDATASIZE PUSH2 0x3B61 JUMP JUMPDEST PUSH2 0x33E6 SWAP4 SWAP3 SWAP4 PUSH2 0x4A74 JUMP JUMPDEST PUSH1 0x0 DUP5 DUP2 MSTORE PUSH1 0x4 PUSH1 0x20 MSTORE PUSH1 0x40 SWAP1 KECCAK256 SLOAD PUSH2 0x3409 SWAP1 PUSH1 0x1 PUSH1 0x1 PUSH1 0xA0 SHL SUB AND ISZERO ISZERO PUSH2 0x3D5A JUMP JUMPDEST PUSH2 0x341D PUSH2 0x3417 CALLDATASIZE DUP4 DUP6 PUSH2 0x3CE5 JUMP JUMPDEST DUP6 PUSH2 0x4ADB JUMP JUMPDEST PUSH2 0x1F89 PUSH1 0x40 MLOAD SWAP3 DUP4 SWAP3 PUSH1 0x20 DUP5 MSTORE PUSH1 0x20 DUP5 ADD SWAP2 PUSH2 0x3D9D JUMP JUMPDEST CALLVALUE PUSH2 0x491 JUMPI PUSH1 0x40 CALLDATASIZE PUSH1 0x3 NOT ADD SLT PUSH2 0x491 JUMPI PUSH1 0x4 CALLDATALOAD PUSH2 0x349A PUSH2 0x3453 PUSH2 0x3B25 JUMP JUMPDEST PUSH2 0x345B PUSH2 0x4A74 JUMP JUMPDEST DUP3 PUSH1 0x0 MSTORE PUSH1 0x18 PUSH1 0x20 MSTORE PUSH1 0xA PUSH1 0x40 PUSH1 0x0 KECCAK256 ADD PUSH2 0x347D PUSH1 0xFF DUP3 SLOAD PUSH1 0xA8 SHR AND ISZERO PUSH2 0x3D1C JUMP JUMPDEST DUP1 SLOAD PUSH1 0xFF PUSH1 0xB8 SHL NOT AND SWAP2 ISZERO ISZERO PUSH1 0xB8 SHL PUSH1 0xFF PUSH1 0xB8 SHL AND SWAP2 SWAP1 SWAP2 OR SWAP1 SSTORE JUMP JUMPDEST PUSH1 0x0 DUP1 MLOAD PUSH1 0x20 PUSH2 0x5914 DUP4 CODECOPY DUP2 MLOAD SWAP2 MSTORE PUSH1 0x60 PUSH1 0x40 MLOAD PUSH1 0x20 DUP2 MSTORE PUSH1 0x16 PUSH1 0x20 DUP3 ADD MSTORE PUSH22 0x1A5B5B59591A585D1954185E5BDD5D115B98589B1959 PUSH1 0x52 SHL PUSH1 0x40 DUP3 ADD MSTORE LOG2 STOP JUMPDEST CALLVALUE PUSH2 0x491 JUMPI PUSH1 0x20 CALLDATASIZE PUSH1 0x3 NOT ADD SLT PUSH2 0x491 JUMPI PUSH1 0x4 CALLDATALOAD PUSH1 0x0 MSTORE PUSH1 0x18 PUSH1 0x20 MSTORE PUSH1 0x40 PUSH1 0x0 KECCAK256 PUSH2 0x356D PUSH2 0x3508 DUP3 PUSH2 0x3A80 JUMP JUMPDEST SWAP2 PUSH1 0xFF PUSH2 0x3517 PUSH1 0x1 DUP4 ADD PUSH2 0x3A80 JUMP JUMPDEST SWAP4 PUSH1 0x2 DUP4 ADD SLOAD SWAP3 PUSH1 0x3 DUP2 ADD SLOAD SWAP1 PUSH1 0x4 DUP2 ADD SLOAD PUSH1 0x5 DUP3 ADD SLOAD PUSH1 0x6 DUP4 ADD SLOAD PUSH1 0x7 DUP5 ADD SLOAD SWAP2 PUSH1 0x8 DUP6 ADD SLOAD SWAP4 PUSH1 0x1 DUP1 PUSH1 0xA0 SHL SUB SWAP7 PUSH2 0x357B PUSH1 0xA DUP10 PUSH1 0x9 DUP11 ADD SLOAD AND SWAP9 ADD SLOAD SWAP10 PUSH1 0x40 MLOAD SWAP15 DUP16 SWAP15 DUP16 SWAP3 PUSH2 0x1E0 DUP1 DUP6 MSTORE DUP5 ADD SWAP1 PUSH2 0x39AF JUMP JUMPDEST SWAP2 PUSH1 0x20 DUP2 DUP5 SUB SWAP2 ADD MSTORE PUSH2 0x39AF JUMP JUMPDEST SWAP11 PUSH1 0x40 DUP14 ADD MSTORE PUSH1 0x60 DUP13 ADD MSTORE PUSH1 0x80 DUP12 ADD MSTORE PUSH1 0xA0 DUP11 ADD MSTORE PUSH1 0xC0 DUP10 ADD MSTORE PUSH1 0xE0 DUP9 ADD MSTORE PUSH2 0x100 DUP8 ADD MSTORE PUSH2 0x120 DUP7 ADD MSTORE DUP2 AND PUSH2 0x140 DUP6 ADD MSTORE DUP2 DUP2 PUSH1 0xA0 SHR AND ISZERO ISZERO PUSH2 0x160 DUP6 ADD MSTORE DUP2 DUP2 PUSH1 0xA8 SHR AND ISZERO ISZERO PUSH2 0x180 DUP6 ADD MSTORE DUP2 DUP2 PUSH1 0xB0 SHR AND ISZERO ISZERO PUSH2 0x1A0 DUP6 ADD MSTORE PUSH1 0xB8 SHR AND ISZERO ISZERO PUSH2 0x1C0 DUP4 ADD MSTORE SUB SWAP1 RETURN JUMPDEST CALLVALUE PUSH2 0x491 JUMPI PUSH1 0x40 CALLDATASIZE PUSH1 0x3 NOT ADD SLT PUSH2 0x491 JUMPI PUSH2 0x3601 PUSH2 0x3983 JUMP JUMPDEST PUSH1 0x24 CALLDATALOAD PUSH2 0x360D DUP2 PUSH2 0x4AA0 JUMP JUMPDEST CALLER ISZERO ISZERO DUP1 PUSH2 0x36BC JUMPI JUMPDEST DUP1 PUSH2 0x368F JUMPI JUMPDEST PUSH2 0x3677 JUMPI PUSH1 0x1 PUSH1 0x1 PUSH1 0xA0 SHL SUB SWAP3 DUP4 AND SWAP3 DUP3 SWAP2 DUP5 SWAP2 AND PUSH32 0x8C5BE1E5EBEC7D5BD14F71427D1E84F3DD0314C0F7B2291E5B200AC8C7C3B925 PUSH1 0x0 DUP1 LOG4 PUSH1 0x0 SWAP1 DUP2 MSTORE PUSH1 0x6 PUSH1 0x20 MSTORE PUSH1 0x40 SWAP1 KECCAK256 DUP1 SLOAD PUSH1 0x1 PUSH1 0x1 PUSH1 0xA0 SHL SUB NOT AND SWAP1 SWAP2 OR SWAP1 SSTORE STOP JUMPDEST PUSH1 0x40 MLOAD PUSH4 0xA9FBF51F PUSH1 0xE0 SHL DUP2 MSTORE CALLER PUSH1 0x4 DUP3 ADD MSTORE PUSH1 0x24 SWAP1 REVERT JUMPDEST POP PUSH1 0x1 DUP1 PUSH1 0xA0 SHL SUB DUP2 AND PUSH1 0x0 MSTORE PUSH1 0x7 PUSH1 0x20 MSTORE PUSH1 0x40 PUSH1 0x0 KECCAK256 CALLER PUSH1 0x0 MSTORE PUSH1 0x20 MSTORE PUSH1 0xFF PUSH1 0x40 PUSH1 0x0 KECCAK256 SLOAD AND ISZERO PUSH2 0x361C JUMP JUMPDEST POP PUSH1 0x1 PUSH1 0x1 PUSH1 0xA0 SHL SUB DUP2 AND CALLER EQ ISZERO PUSH2 0x3616 JUMP JUMPDEST CALLVALUE PUSH2 0x491 JUMPI PUSH1 0x20 CALLDATASIZE PUSH1 0x3 NOT ADD SLT PUSH2 0x491 JUMPI PUSH1 0x4 CALLDATALOAD PUSH2 0x36EC DUP2 PUSH2 0x4AA0 JUMP JUMPDEST POP PUSH1 0x0 MSTORE PUSH1 0x6 PUSH1 0x20 MSTORE PUSH1 0x20 PUSH1 0x1 DUP1 PUSH1 0xA0 SHL SUB PUSH1 0x40 PUSH1 0x0 KECCAK256 SLOAD AND PUSH1 0x40 MLOAD SWAP1 DUP2 MSTORE RETURN JUMPDEST CALLVALUE PUSH2 0x491 JUMPI PUSH1 0x0 CALLDATASIZE PUSH1 0x3 NOT ADD SLT PUSH2 0x491 JUMPI PUSH1 0x40 MLOAD PUSH1 0x2 SLOAD PUSH1 0x0 DUP3 PUSH2 0x3730 DUP4 PUSH2 0x39EF JUMP JUMPDEST SWAP2 DUP3 DUP3 MSTORE PUSH1 0x20 SWAP4 PUSH1 0x1 SWAP1 DUP6 PUSH1 0x1 DUP3 AND SWAP2 DUP3 PUSH1 0x0 EQ PUSH2 0x19E1 JUMPI POP POP PUSH1 0x1 EQ PUSH2 0x375E JUMPI POP PUSH2 0x1970 SWAP3 POP SUB DUP4 PUSH2 0x3A5F JUMP JUMPDEST DUP5 SWAP2 POP PUSH1 0x2 PUSH1 0x0 MSTORE PUSH32 0x405787FA12A823E0F2B7631CC41B3BA8828B3321CA811111FA75CD3AA3BB5ACE SWAP1 PUSH1 0x0 SWAP2 JUMPDEST DUP6 DUP4 LT PUSH2 0x37A3 JUMPI POP POP PUSH2 0x1970 SWAP4 POP DUP3 ADD ADD DUP6 PUSH2 0x1963 JUMP JUMPDEST DUP1 SLOAD DUP4 DUP10 ADD DUP6 ADD MSTORE DUP8 SWAP5 POP DUP7 SWAP4 SWAP1 SWAP3 ADD SWAP2 DUP2 ADD PUSH2 0x378C JUMP JUMPDEST CALLVALUE PUSH2 0x491 JUMPI PUSH1 0x40 CALLDATASIZE PUSH1 0x3 NOT ADD SLT PUSH2 0x491 JUMPI PUSH2 0x37D4 PUSH2 0x3983 JUMP JUMPDEST PUSH1 0x24 CALLDATALOAD PUSH1 0x1 PUSH1 0x1 PUSH1 0x60 SHL SUB DUP2 AND SWAP2 DUP3 DUP3 SUB PUSH2 0x491 JUMPI PUSH2 0x37F1 PUSH2 0x4A74 JUMP JUMPDEST PUSH2 0x2710 DUP1 DUP5 GT PUSH2 0x388E JUMPI POP PUSH1 0x1 PUSH1 0x1 PUSH1 0xA0 SHL SUB AND SWAP2 DUP3 ISZERO PUSH2 0x3875 JUMPI PUSH32 0x35804D3532228D15C4FE3FA7A4FB8100C86DC285216E9C806F5D6F2CEF552839 SWAP3 PUSH1 0x20 SWAP3 DUP3 DUP5 PUSH1 0x40 MLOAD PUSH2 0x383F DUP2 PUSH2 0x3A29 JUMP JUMPDEST DUP5 DUP2 MSTORE ADD MSTORE PUSH1 0xA0 SHL PUSH1 0x1 PUSH1 0x1 PUSH1 0xA0 SHL SUB NOT AND OR PUSH1 0x0 SSTORE PUSH1 0x13 DUP1 SLOAD PUSH12 0xFFFFFFFFFFFFFFFFFFFFFFFF NOT AND DUP3 OR SWAP1 SSTORE PUSH1 0x40 MLOAD SWAP1 DUP2 MSTORE LOG1 STOP JUMPDEST PUSH1 0x40 MLOAD PUSH4 0x5B6CC805 PUSH1 0xE1 SHL DUP2 MSTORE PUSH1 0x0 PUSH1 0x4 DUP3 ADD MSTORE PUSH1 0x24 SWAP1 REVERT JUMPDEST DUP4 PUSH1 0x44 SWAP2 PUSH1 0x40 MLOAD SWAP2 PUSH4 0x6F483D09 PUSH1 0xE0 SHL DUP4 MSTORE PUSH1 0x4 DUP4 ADD MSTORE PUSH1 0x24 DUP3 ADD MSTORE REVERT JUMPDEST CALLVALUE PUSH2 0x491 JUMPI PUSH1 0x0 CALLDATASIZE PUSH1 0x3 NOT ADD SLT PUSH2 0x491 JUMPI PUSH1 0x20 PUSH1 0x10 SLOAD PUSH1 0x40 MLOAD SWAP1 DUP2 MSTORE RETURN JUMPDEST CALLVALUE PUSH2 0x491 JUMPI PUSH1 0x20 CALLDATASIZE PUSH1 0x3 NOT ADD SLT PUSH2 0x491 JUMPI PUSH1 0x4 CALLDATALOAD SWAP1 PUSH4 0xFFFFFFFF PUSH1 0xE0 SHL DUP3 AND DUP1 SWAP3 SUB PUSH2 0x491 JUMPI PUSH1 0x20 SWAP2 PUSH4 0x24832483 PUSH1 0xE1 SHL DUP2 EQ SWAP1 DUP2 ISZERO PUSH2 0x390C JUMPI JUMPDEST POP ISZERO ISZERO DUP2 MSTORE RETURN JUMPDEST PUSH4 0x780E9D63 PUSH1 0xE0 SHL DUP2 EQ SWAP2 POP DUP2 ISZERO PUSH2 0x3926 JUMPI JUMPDEST POP DUP4 PUSH2 0x3905 JUMP JUMPDEST PUSH4 0x80AC58CD PUSH1 0xE0 SHL DUP2 EQ SWAP2 POP DUP2 ISZERO PUSH2 0x3972 JUMPI JUMPDEST DUP2 ISZERO PUSH2 0x3947 JUMPI JUMPDEST POP DUP4 PUSH2 0x391F JUMP JUMPDEST PUSH4 0x152A902D PUSH1 0xE1 SHL DUP2 EQ SWAP2 POP DUP2 ISZERO PUSH2 0x3961 JUMPI JUMPDEST POP DUP4 PUSH2 0x3940 JUMP JUMPDEST PUSH4 0x1FFC9A7 PUSH1 0xE0 SHL EQ SWAP1 POP DUP4 PUSH2 0x395A JUMP JUMPDEST PUSH4 0x5B5E139F PUSH1 0xE0 SHL DUP2 EQ SWAP2 POP PUSH2 0x3939 JUMP JUMPDEST PUSH1 0x4 CALLDATALOAD SWAP1 PUSH1 0x1 PUSH1 0x1 PUSH1 0xA0 SHL SUB DUP3 AND DUP3 SUB PUSH2 0x491 JUMPI JUMP JUMPDEST PUSH1 0x24 CALLDATALOAD SWAP1 PUSH1 0x1 PUSH1 0x1 PUSH1 0xA0 SHL SUB DUP3 AND DUP3 SUB PUSH2 0x491 JUMPI JUMP JUMPDEST SWAP2 SWAP1 DUP3 MLOAD SWAP3 DUP4 DUP3 MSTORE PUSH1 0x0 JUMPDEST DUP5 DUP2 LT PUSH2 0x39DB JUMPI POP POP DUP3 PUSH1 0x0 PUSH1 0x20 DUP1 SWAP5 SWAP6 DUP5 ADD ADD MSTORE PUSH1 0x1F DUP1 NOT SWAP2 ADD AND ADD ADD SWAP1 JUMP JUMPDEST PUSH1 0x20 DUP2 DUP4 ADD DUP2 ADD MLOAD DUP5 DUP4 ADD DUP3 ADD MSTORE ADD PUSH2 0x39BA JUMP JUMPDEST SWAP1 PUSH1 0x1 DUP3 DUP2 SHR SWAP3 AND DUP1 ISZERO PUSH2 0x3A1F JUMPI JUMPDEST PUSH1 0x20 DUP4 LT EQ PUSH2 0x3A09 JUMPI JUMP JUMPDEST PUSH4 0x4E487B71 PUSH1 0xE0 SHL PUSH1 0x0 MSTORE PUSH1 0x22 PUSH1 0x4 MSTORE PUSH1 0x24 PUSH1 0x0 REVERT JUMPDEST SWAP2 PUSH1 0x7F AND SWAP2 PUSH2 0x39FE JUMP JUMPDEST PUSH1 0x40 DUP2 ADD SWAP1 DUP2 LT PUSH1 0x1 PUSH1 0x1 PUSH1 0x40 SHL SUB DUP3 GT OR PUSH2 0xFED JUMPI PUSH1 0x40 MSTORE JUMP JUMPDEST PUSH1 0x20 DUP2 ADD SWAP1 DUP2 LT PUSH1 0x1 PUSH1 0x1 PUSH1 0x40 SHL SUB DUP3 GT OR PUSH2 0xFED JUMPI PUSH1 0x40 MSTORE JUMP JUMPDEST SWAP1 PUSH1 0x1F DUP1 NOT SWAP2 ADD AND DUP2 ADD SWAP1 DUP2 LT PUSH1 0x1 PUSH1 0x1 PUSH1 0x40 SHL SUB DUP3 GT OR PUSH2 0xFED JUMPI PUSH1 0x40 MSTORE JUMP JUMPDEST SWAP1 PUSH1 0x40 MLOAD SWAP2 DUP3 PUSH1 0x0 DUP3 SLOAD PUSH2 0x3A93 DUP2 PUSH2 0x39EF JUMP JUMPDEST SWAP1 DUP2 DUP5 MSTORE PUSH1 0x20 SWAP5 PUSH1 0x1 SWAP2 PUSH1 0x1 DUP2 AND SWAP1 DUP2 PUSH1 0x0 EQ PUSH2 0x3B03 JUMPI POP PUSH1 0x1 EQ PUSH2 0x3AC4 JUMPI JUMPDEST POP POP POP PUSH2 0x3AC2 SWAP3 POP SUB DUP4 PUSH2 0x3A5F JUMP JUMPDEST JUMP JUMPDEST PUSH1 0x0 SWAP1 DUP2 MSTORE DUP6 DUP2 KECCAK256 SWAP6 SWAP4 POP SWAP2 SWAP1 JUMPDEST DUP2 DUP4 LT PUSH2 0x3AEB JUMPI POP POP PUSH2 0x3AC2 SWAP4 POP DUP3 ADD ADD CODESIZE DUP1 DUP1 PUSH2 0x3AB3 JUMP JUMPDEST DUP6 SLOAD DUP9 DUP5 ADD DUP6 ADD MSTORE SWAP5 DUP6 ADD SWAP5 DUP8 SWAP5 POP SWAP2 DUP4 ADD SWAP2 PUSH2 0x3AD2 JUMP JUMPDEST SWAP3 POP POP POP PUSH2 0x3AC2 SWAP5 SWAP3 POP PUSH1 0xFF NOT AND DUP3 DUP5 ADD MSTORE ISZERO ISZERO PUSH1 0x5 SHL DUP3 ADD ADD CODESIZE DUP1 DUP1 PUSH2 0x3AB3 JUMP JUMPDEST PUSH1 0x24 CALLDATALOAD SWAP1 DUP2 ISZERO ISZERO DUP3 SUB PUSH2 0x491 JUMPI JUMP JUMPDEST SWAP2 DUP2 PUSH1 0x1F DUP5 ADD SLT ISZERO PUSH2 0x491 JUMPI DUP3 CALLDATALOAD SWAP2 PUSH1 0x1 PUSH1 0x1 PUSH1 0x40 SHL SUB DUP4 GT PUSH2 0x491 JUMPI PUSH1 0x20 DUP4 DUP2 DUP7 ADD SWAP6 ADD ADD GT PUSH2 0x491 JUMPI JUMP JUMPDEST SWAP1 PUSH1 0x40 PUSH1 0x3 NOT DUP4 ADD SLT PUSH2 0x491 JUMPI PUSH1 0x4 CALLDATALOAD SWAP2 PUSH1 0x24 CALLDATALOAD SWAP1 PUSH1 0x1 PUSH1 0x1 PUSH1 0x40 SHL SUB DUP3 GT PUSH2 0x491 JUMPI PUSH2 0x3B90 SWAP2 PUSH1 0x4 ADD PUSH2 0x3B34 JUMP JUMPDEST SWAP1 SWAP2 JUMP JUMPDEST PUSH1 0x40 SWAP1 PUSH1 0x3 NOT ADD SLT PUSH2 0x491 JUMPI PUSH1 0x4 CALLDATALOAD SWAP1 PUSH1 0x24 CALLDATALOAD SWAP1 JUMP JUMPDEST SWAP2 DUP2 PUSH1 0x1F DUP5 ADD SLT ISZERO PUSH2 0x491 JUMPI DUP3 CALLDATALOAD SWAP2 PUSH1 0x1 PUSH1 0x1 PUSH1 0x40 SHL SUB DUP4 GT PUSH2 0x491 JUMPI PUSH1 0x20 DUP1 DUP6 ADD SWAP5 DUP5 PUSH1 0x5 SHL ADD ADD GT PUSH2 0x491 JUMPI JUMP JUMPDEST PUSH1 0x60 SWAP1 PUSH1 0x3 NOT ADD SLT PUSH2 0x491 JUMPI PUSH1 0x1 PUSH1 0x1 PUSH1 0xA0 SHL SUB SWAP1 PUSH1 0x4 CALLDATALOAD DUP3 DUP2 AND DUP2 SUB PUSH2 0x491 JUMPI SWAP2 PUSH1 0x24 CALLDATALOAD SWAP1 DUP2 AND DUP2 SUB PUSH2 0x491 JUMPI SWAP1 PUSH1 0x44 CALLDATALOAD SWAP1 JUMP JUMPDEST PUSH1 0x20 SWAP1 PUSH1 0x20 PUSH1 0x40 DUP2 DUP4 ADD SWAP3 DUP3 DUP2 MSTORE DUP6 MLOAD DUP1 SWAP5 MSTORE ADD SWAP4 ADD SWAP2 PUSH1 0x0 JUMPDEST DUP3 DUP2 LT PUSH2 0x3C37 JUMPI POP POP POP POP SWAP1 JUMP JUMPDEST DUP4 MLOAD DUP6 MSTORE SWAP4 DUP2 ADD SWAP4 SWAP3 DUP2 ADD SWAP3 PUSH1 0x1 ADD PUSH2 0x3C29 JUMP JUMPDEST PUSH1 0xA SLOAD DUP2 LT ISZERO PUSH2 0x3C82 JUMPI PUSH1 0xA PUSH1 0x0 MSTORE PUSH32 0xC65A7BB8D6351C1CF70C95A316CC6A92839C986682D98BC35F958F4883F9D2A8 ADD SWAP1 PUSH1 0x0 SWAP1 JUMP JUMPDEST PUSH4 0x4E487B71 PUSH1 0xE0 SHL PUSH1 0x0 MSTORE PUSH1 0x32 PUSH1 0x4 MSTORE PUSH1 0x24 PUSH1 0x0 REVERT JUMPDEST DUP1 SLOAD DUP3 LT ISZERO PUSH2 0x3C82 JUMPI PUSH1 0x0 MSTORE PUSH1 0x20 PUSH1 0x0 KECCAK256 ADD SWAP1 PUSH1 0x0 SWAP1 JUMP JUMPDEST PUSH1 0x60 SWAP1 PUSH1 0x3 NOT ADD SLT PUSH2 0x491 JUMPI PUSH1 0x4 CALLDATALOAD SWAP1 PUSH1 0x24 CALLDATALOAD SWAP1 PUSH1 0x44 CALLDATALOAD SWAP1 JUMP JUMPDEST PUSH1 0x1 PUSH1 0x1 PUSH1 0x40 SHL SUB DUP2 GT PUSH2 0xFED JUMPI PUSH1 0x1F ADD PUSH1 0x1F NOT AND PUSH1 0x20 ADD SWAP1 JUMP JUMPDEST SWAP3 SWAP2 SWAP3 PUSH2 0x3CF1 DUP3 PUSH2 0x3CCA JUMP JUMPDEST SWAP2 PUSH2 0x3CFF PUSH1 0x40 MLOAD SWAP4 DUP5 PUSH2 0x3A5F JUMP JUMPDEST DUP3 SWAP5 DUP2 DUP5 MSTORE DUP2 DUP4 ADD GT PUSH2 0x491 JUMPI DUP3 DUP2 PUSH1 0x20 SWAP4 DUP5 PUSH1 0x0 SWAP7 ADD CALLDATACOPY ADD ADD MSTORE JUMP JUMPDEST ISZERO PUSH2 0x3D23 JUMPI JUMP JUMPDEST PUSH1 0x40 MLOAD PUSH3 0x461BCD PUSH1 0xE5 SHL DUP2 MSTORE PUSH1 0x20 PUSH1 0x4 DUP3 ADD MSTORE PUSH1 0xF PUSH1 0x24 DUP3 ADD MSTORE PUSH15 0x10D85B5C185A59DB8818DB1BDCD959 PUSH1 0x8A SHL PUSH1 0x44 DUP3 ADD MSTORE PUSH1 0x64 SWAP1 REVERT JUMPDEST ISZERO PUSH2 0x3D61 JUMPI JUMP JUMPDEST PUSH1 0x40 MLOAD PUSH3 0x461BCD PUSH1 0xE5 SHL DUP2 MSTORE PUSH1 0x20 PUSH1 0x4 DUP3 ADD MSTORE PUSH1 0x14 PUSH1 0x24 DUP3 ADD MSTORE PUSH20 0x151BDAD95B88191BD95CC81B9BDD08195E1A5CDD PUSH1 0x62 SHL PUSH1 0x44 DUP3 ADD MSTORE PUSH1 0x64 SWAP1 REVERT JUMPDEST SWAP1 DUP1 PUSH1 0x20 SWAP4 SWAP3 DUP2 DUP5 MSTORE DUP5 DUP5 ADD CALLDATACOPY PUSH1 0x0 DUP3 DUP3 ADD DUP5 ADD MSTORE PUSH1 0x1F ADD PUSH1 0x1F NOT AND ADD ADD SWAP1 JUMP JUMPDEST ISZERO PUSH2 0x3DC5 JUMPI JUMP JUMPDEST PUSH1 0x40 MLOAD PUSH3 0x461BCD PUSH1 0xE5 SHL DUP2 MSTORE PUSH1 0x20 PUSH1 0x4 DUP3 ADD MSTORE PUSH1 0x16 PUSH1 0x24 DUP3 ADD MSTORE PUSH22 0x1059191C995CDCC81A5CC8189B1858DADB1A5CDD1959 PUSH1 0x52 SHL PUSH1 0x44 DUP3 ADD MSTORE PUSH1 0x64 SWAP1 REVERT JUMPDEST SWAP1 PUSH1 0x1F DUP2 GT PUSH2 0x3E11 JUMPI POP POP POP JUMP JUMPDEST PUSH1 0x0 SWAP2 PUSH1 0x0 MSTORE PUSH1 0x20 PUSH1 0x0 KECCAK256 SWAP1 PUSH1 0x20 PUSH1 0x1F DUP6 ADD PUSH1 0x5 SHR DUP4 ADD SWAP5 LT PUSH2 0x3E4F JUMPI JUMPDEST PUSH1 0x1F ADD PUSH1 0x5 SHR ADD SWAP2 JUMPDEST DUP3 DUP2 LT PUSH2 0x3E44 JUMPI POP POP POP JUMP JUMPDEST DUP2 DUP2 SSTORE PUSH1 0x1 ADD PUSH2 0x3E38 JUMP JUMPDEST SWAP1 SWAP3 POP DUP3 SWAP1 PUSH2 0x3E2F JUMP JUMPDEST SWAP2 SWAP1 DUP2 LT ISZERO PUSH2 0x3C82 JUMPI PUSH1 0x5 SHL ADD SWAP1 JUMP JUMPDEST PUSH1 0xA SLOAD SWAP1 PUSH1 0x1 PUSH1 0x40 SHL DUP3 LT ISZERO PUSH2 0xFED JUMPI PUSH2 0x3E8C DUP3 PUSH1 0x1 PUSH2 0x3AC2 SWAP5 ADD PUSH1 0xA SSTORE PUSH2 0x3C4B JUMP JUMPDEST SWAP1 SWAP2 SWAP1 DUP3 SLOAD SWAP1 PUSH1 0x3 SHL SWAP2 DUP3 SHL SWAP2 PUSH1 0x0 NOT SWAP1 SHL NOT AND OR SWAP1 SSTORE JUMP JUMPDEST SWAP1 DUP2 SLOAD SWAP2 PUSH1 0x1 PUSH1 0x40 SHL DUP4 LT ISZERO PUSH2 0xFED JUMPI DUP3 PUSH2 0x3E8C SWAP2 PUSH1 0x1 PUSH2 0x3AC2 SWAP6 ADD DUP2 SSTORE PUSH2 0x3C98 JUMP JUMPDEST PUSH1 0x1 PUSH1 0x1 PUSH1 0xA0 SHL SUB DUP3 DUP2 AND SWAP4 SWAP2 SWAP1 DUP5 ISZERO PUSH2 0x4263 JUMPI PUSH1 0x0 SWAP2 DUP4 DUP4 MSTORE PUSH1 0x4 SWAP6 PUSH1 0x20 SWAP4 DUP8 DUP6 MSTORE PUSH1 0x40 SWAP5 DUP5 DUP7 DUP4 KECCAK256 SLOAD AND DUP1 ISZERO ISZERO DUP1 PUSH2 0x425B JUMPI JUMPDEST PUSH2 0x415D JUMPI JUMPDEST POP DUP7 DUP3 MSTORE DUP9 DUP2 MSTORE DUP5 DUP7 DUP4 KECCAK256 SLOAD AND SWAP8 CALLER ISZERO ISZERO DUP1 PUSH2 0x40CB JUMPI JUMPDEST POP DUP9 ISZERO DUP1 ISZERO PUSH2 0x4098 JUMPI JUMPDEST DUP5 DUP5 MSTORE PUSH1 0x5 DUP4 MSTORE DUP8 DUP5 KECCAK256 DUP1 SLOAD PUSH1 0x1 ADD SWAP1 SSTORE DUP9 DUP5 MSTORE DUP11 DUP4 MSTORE DUP8 DUP5 KECCAK256 DUP1 SLOAD PUSH1 0x1 PUSH1 0x1 PUSH1 0xA0 SHL SUB NOT AND DUP7 OR SWAP1 SSTORE DUP9 DUP6 DUP12 PUSH32 0xDDF252AD1BE2C89B69C2B068FC378DAA952BA7F163C4A11628F55A4DF523B3EF DUP8 DUP1 LOG4 ISZERO PUSH2 0x401C JUMPI PUSH1 0xA SLOAD DUP9 DUP5 MSTORE PUSH1 0xB DUP4 MSTORE DUP8 DUP5 KECCAK256 SSTORE PUSH2 0x3F90 DUP9 PUSH2 0x3E69 JUMP JUMPDEST DUP4 DUP10 SUB PUSH2 0x3FCB JUMPI JUMPDEST POP POP POP POP AND SWAP1 DUP2 DUP5 SUB PUSH2 0x3FAC JUMPI POP POP POP POP POP JUMP JUMPDEST MLOAD PUSH4 0x64283D7B PUSH1 0xE0 SHL DUP2 MSTORE SWAP4 DUP5 ADD MSTORE PUSH1 0x24 DUP4 ADD MSTORE PUSH1 0x44 DUP3 ADD MSTORE PUSH1 0x64 SWAP2 POP REVERT JUMPDEST PUSH2 0x3FD4 SWAP1 PUSH2 0x47D8 JUMP JUMPDEST PUSH1 0x0 NOT DUP2 ADD SWAP4 SWAP1 DUP5 GT PUSH2 0x4009 JUMPI DUP3 SWAP2 PUSH1 0x9 SWAP2 DUP9 SWAP5 MSTORE PUSH1 0x8 DUP2 MSTORE DUP4 DUP4 KECCAK256 DUP6 DUP5 MSTORE DUP2 MSTORE DUP9 DUP5 DUP5 KECCAK256 SSTORE DUP9 DUP4 MSTORE MSTORE KECCAK256 SSTORE CODESIZE DUP1 DUP1 DUP1 PUSH2 0x3F98 JUMP JUMPDEST PUSH4 0x4E487B71 PUSH1 0xE0 SHL DUP4 MSTORE PUSH1 0x11 DUP11 MSTORE PUSH1 0x24 DUP4 REVERT JUMPDEST DUP9 DUP5 EQ PUSH2 0x3F90 JUMPI PUSH2 0x402C DUP10 PUSH2 0x47D8 JUMP JUMPDEST DUP9 DUP5 MSTORE PUSH1 0x9 DUP4 MSTORE DUP8 DUP5 KECCAK256 SLOAD DUP2 DUP2 SUB PUSH2 0x4061 JUMPI JUMPDEST POP DUP9 DUP5 MSTORE DUP4 DUP9 DUP2 KECCAK256 SSTORE DUP10 DUP5 MSTORE PUSH1 0x8 DUP4 MSTORE DUP8 DUP5 KECCAK256 SWAP1 DUP5 MSTORE DUP3 MSTORE DUP3 DUP8 DUP2 KECCAK256 SSTORE PUSH2 0x3F90 JUMP JUMPDEST DUP11 DUP6 MSTORE PUSH1 0x8 DUP5 MSTORE DUP9 DUP6 KECCAK256 DUP3 DUP7 MSTORE DUP5 MSTORE DUP9 DUP6 KECCAK256 SLOAD DUP12 DUP7 MSTORE PUSH1 0x8 DUP6 MSTORE DUP10 DUP7 KECCAK256 DUP3 DUP8 MSTORE DUP6 MSTORE DUP1 DUP11 DUP8 KECCAK256 SSTORE DUP6 MSTORE PUSH1 0x9 DUP5 MSTORE DUP9 DUP6 KECCAK256 SSTORE CODESIZE PUSH2 0x403F JUMP JUMPDEST PUSH1 0x0 DUP10 DUP2 MSTORE PUSH1 0x6 PUSH1 0x20 MSTORE PUSH1 0x40 SWAP1 KECCAK256 DUP1 SLOAD PUSH1 0x1 PUSH1 0x1 PUSH1 0xA0 SHL SUB NOT AND SWAP1 SSTORE DUP10 DUP5 MSTORE PUSH1 0x5 DUP4 MSTORE DUP8 DUP5 KECCAK256 DUP1 SLOAD PUSH1 0x0 NOT ADD SWAP1 SSTORE PUSH2 0x3F23 JUMP JUMPDEST DUP1 PUSH2 0x411C JUMPI JUMPDEST ISZERO PUSH2 0x40DC JUMPI CODESIZE PUSH2 0x3F19 JUMP JUMPDEST DUP8 DUP11 DUP9 DUP12 PUSH2 0x40F9 JUMPI SWAP2 PUSH1 0x24 SWAP3 MLOAD SWAP2 PUSH4 0x7E273289 PUSH1 0xE0 SHL DUP4 MSTORE DUP3 ADD MSTORE REVERT JUMPDEST MLOAD PUSH4 0x177E802F PUSH1 0xE0 SHL DUP2 MSTORE CALLER SWAP2 DUP2 ADD SWAP2 DUP3 MSTORE PUSH1 0x20 DUP3 ADD SWAP3 SWAP1 SWAP3 MSTORE DUP2 SWAP1 PUSH1 0x40 ADD SUB SWAP1 REVERT JUMPDEST POP CALLER DUP10 EQ DUP1 ISZERO PUSH2 0x4141 JUMPI JUMPDEST DUP1 PUSH2 0x40D1 JUMPI POP DUP8 DUP4 MSTORE PUSH1 0x6 DUP3 MSTORE CALLER DUP7 DUP9 DUP6 KECCAK256 SLOAD AND EQ PUSH2 0x40D1 JUMP JUMPDEST POP DUP9 DUP4 MSTORE PUSH1 0x7 DUP3 MSTORE DUP7 DUP4 KECCAK256 CALLER DUP5 MSTORE DUP3 MSTORE PUSH1 0xFF DUP8 DUP5 KECCAK256 SLOAD AND PUSH2 0x4127 JUMP JUMPDEST PUSH1 0x14 DUP3 MSTORE PUSH2 0x4171 PUSH1 0xFF DUP9 DUP6 KECCAK256 SLOAD AND ISZERO PUSH2 0x4366 JUMP JUMPDEST DUP8 DUP4 MSTORE PUSH1 0x16 DUP3 MSTORE PUSH1 0xFF DUP8 DUP5 KECCAK256 SLOAD AND PUSH2 0x4223 JUMPI DUP3 MSTORE PUSH1 0x15 DUP2 MSTORE PUSH1 0xFF DUP7 DUP4 KECCAK256 SLOAD AND PUSH2 0x41E9 JUMPI DUP3 DUP3 MSTORE PUSH1 0x15 DUP2 MSTORE PUSH1 0xFF DUP7 DUP4 KECCAK256 SLOAD AND PUSH2 0x41AC JUMPI CODESIZE PUSH2 0x3F02 JUMP JUMPDEST DUP9 PUSH1 0x64 SWAP2 DUP8 MLOAD SWAP2 PUSH3 0x461BCD PUSH1 0xE5 SHL DUP4 MSTORE DUP3 ADD MSTORE PUSH1 0x18 PUSH1 0x24 DUP3 ADD MSTORE PUSH24 0x149958DA5C1A595B9D081A5CC8189B1858DADB1A5CDD1959 PUSH1 0x42 SHL PUSH1 0x44 DUP3 ADD MSTORE REVERT JUMPDEST DUP9 PUSH1 0x64 SWAP2 DUP8 MLOAD SWAP2 PUSH3 0x461BCD PUSH1 0xE5 SHL DUP4 MSTORE DUP3 ADD MSTORE PUSH1 0x15 PUSH1 0x24 DUP3 ADD MSTORE PUSH21 0x14D95B99195C881A5CC8189B1858DADB1A5CDD1959 PUSH1 0x5A SHL PUSH1 0x44 DUP3 ADD MSTORE REVERT JUMPDEST DUP7 MLOAD PUSH3 0x461BCD PUSH1 0xE5 SHL DUP2 MSTORE DUP1 DUP12 ADD DUP4 SWAP1 MSTORE PUSH1 0x12 PUSH1 0x24 DUP3 ADD MSTORE PUSH18 0x151BDAD95B881A5CC81CDBDD5B189BDD5B99 PUSH1 0x72 SHL PUSH1 0x44 DUP3 ADD MSTORE PUSH1 0x64 SWAP1 REVERT JUMPDEST POP PUSH1 0x1 PUSH2 0x3EFD JUMP JUMPDEST PUSH1 0x40 MLOAD PUSH4 0x32505749 PUSH1 0xE1 SHL DUP2 MSTORE PUSH1 0x0 PUSH1 0x4 DUP3 ADD MSTORE PUSH1 0x24 SWAP1 REVERT JUMPDEST SWAP2 SWAP1 DUP3 ADD DUP1 SWAP3 GT PUSH2 0x4289 JUMPI JUMP JUMPDEST PUSH4 0x4E487B71 PUSH1 0xE0 SHL PUSH1 0x0 MSTORE PUSH1 0x11 PUSH1 0x4 MSTORE PUSH1 0x24 PUSH1 0x0 REVERT JUMPDEST DUP2 DUP2 MUL SWAP3 SWAP2 DUP2 ISZERO SWAP2 DUP5 DIV EQ OR ISZERO PUSH2 0x4289 JUMPI JUMP JUMPDEST DUP2 ISZERO PUSH2 0x42BC JUMPI DIV SWAP1 JUMP JUMPDEST PUSH4 0x4E487B71 PUSH1 0xE0 SHL PUSH1 0x0 MSTORE PUSH1 0x12 PUSH1 0x4 MSTORE PUSH1 0x24 PUSH1 0x0 REVERT JUMPDEST ISZERO PUSH2 0x42D9 JUMPI JUMP JUMPDEST PUSH1 0x40 MLOAD PUSH3 0x461BCD PUSH1 0xE5 SHL DUP2 MSTORE PUSH1 0x20 PUSH1 0x4 DUP3 ADD MSTORE PUSH1 0x13 PUSH1 0x24 DUP3 ADD MSTORE PUSH19 0x43616D706169676E206E6F7420616374697665 PUSH1 0x68 SHL PUSH1 0x44 DUP3 ADD MSTORE PUSH1 0x64 SWAP1 REVERT JUMPDEST ISZERO PUSH2 0x431B JUMPI JUMP JUMPDEST PUSH1 0x40 MLOAD PUSH3 0x461BCD PUSH1 0xE5 SHL DUP2 MSTORE PUSH1 0x20 PUSH1 0x4 DUP3 ADD MSTORE PUSH1 0x14 PUSH1 0x24 DUP3 ADD MSTORE PUSH20 0x13585E0819591A5D1A5BDB9CC81C995858DA1959 PUSH1 0x62 SHL PUSH1 0x44 DUP3 ADD MSTORE PUSH1 0x64 SWAP1 REVERT JUMPDEST PUSH1 0x0 NOT DUP2 EQ PUSH2 0x4289 JUMPI PUSH1 0x1 ADD SWAP1 JUMP JUMPDEST ISZERO PUSH2 0x436D JUMPI JUMP JUMPDEST PUSH1 0x40 MLOAD PUSH3 0x461BCD PUSH1 0xE5 SHL DUP2 MSTORE PUSH1 0x20 PUSH1 0x4 DUP3 ADD MSTORE PUSH1 0xF PUSH1 0x24 DUP3 ADD MSTORE PUSH15 0x2A37B5B2B71034B990333937BD32B7 PUSH1 0x89 SHL PUSH1 0x44 DUP3 ADD MSTORE PUSH1 0x64 SWAP1 REVERT JUMPDEST ISZERO PUSH2 0x43AB JUMPI JUMP JUMPDEST PUSH1 0x40 MLOAD PUSH3 0x461BCD PUSH1 0xE5 SHL DUP2 MSTORE PUSH1 0x20 PUSH1 0x4 DUP3 ADD MSTORE PUSH1 0xB PUSH1 0x24 DUP3 ADD MSTORE PUSH11 0x2BB937B7339031B430B4B7 PUSH1 0xA9 SHL PUSH1 0x44 DUP3 ADD MSTORE PUSH1 0x64 SWAP1 REVERT JUMPDEST ISZERO PUSH2 0x43E5 JUMPI JUMP JUMPDEST PUSH1 0x40 MLOAD PUSH3 0x461BCD PUSH1 0xE5 SHL DUP2 MSTORE PUSH1 0x20 PUSH1 0x4 DUP3 ADD MSTORE PUSH1 0x11 PUSH1 0x24 DUP3 ADD MSTORE PUSH17 0x10D85B5C185A59DB881C99599D5B991959 PUSH1 0x7A SHL PUSH1 0x44 DUP3 ADD MSTORE PUSH1 0x64 SWAP1 REVERT JUMPDEST ISZERO PUSH2 0x4425 JUMPI JUMP JUMPDEST PUSH1 0x40 MLOAD PUSH3 0x461BCD PUSH1 0xE5 SHL DUP2 MSTORE PUSH1 0x20 PUSH1 0x4 DUP3 ADD MSTORE PUSH1 0x10 PUSH1 0x24 DUP3 ADD MSTORE PUSH16 0x496E76616C6964207175616E74697479 PUSH1 0x80 SHL PUSH1 0x44 DUP3 ADD MSTORE PUSH1 0x64 SWAP1 REVERT JUMPDEST ISZERO PUSH2 0x4464 JUMPI JUMP JUMPDEST PUSH1 0x40 MLOAD PUSH3 0x461BCD PUSH1 0xE5 SHL DUP2 MSTORE PUSH1 0x20 PUSH1 0x4 DUP3 ADD MSTORE PUSH1 0x14 PUSH1 0x24 DUP3 ADD MSTORE PUSH20 0x45786365656473206D61782065646974696F6E73 PUSH1 0x60 SHL PUSH1 0x44 DUP3 ADD MSTORE PUSH1 0x64 SWAP1 REVERT JUMPDEST ISZERO PUSH2 0x44A7 JUMPI JUMP JUMPDEST PUSH1 0x40 MLOAD PUSH3 0x461BCD PUSH1 0xE5 SHL DUP2 MSTORE PUSH1 0x20 PUSH1 0x4 DUP3 ADD MSTORE PUSH1 0x14 PUSH1 0x24 DUP3 ADD MSTORE PUSH20 0x125B9CDD59999A58DA595B9D081C185E5B595B9D PUSH1 0x62 SHL PUSH1 0x44 DUP3 ADD MSTORE PUSH1 0x64 SWAP1 REVERT JUMPDEST PUSH1 0x1 PUSH1 0x1 PUSH1 0x40 SHL SUB DUP2 GT PUSH2 0xFED JUMPI PUSH1 0x5 SHL PUSH1 0x20 ADD SWAP1 JUMP JUMPDEST SWAP1 PUSH2 0x4504 DUP3 PUSH2 0x44E3 JUMP JUMPDEST PUSH2 0x4511 PUSH1 0x40 MLOAD SWAP2 DUP3 PUSH2 0x3A5F JUMP JUMPDEST DUP3 DUP2 MSTORE DUP1 SWAP3 PUSH2 0x4522 PUSH1 0x1F NOT SWAP2 PUSH2 0x44E3 JUMP JUMPDEST ADD SWAP1 PUSH1 0x20 CALLDATASIZE SWAP2 ADD CALLDATACOPY JUMP JUMPDEST SWAP2 SWAP1 DUP3 SUB SWAP2 DUP3 GT PUSH2 0x4289 JUMPI JUMP JUMPDEST DUP1 MLOAD DUP3 LT ISZERO PUSH2 0x3C82 JUMPI PUSH1 0x20 SWAP2 PUSH1 0x5 SHL ADD ADD SWAP1 JUMP JUMPDEST SWAP1 SWAP2 PUSH1 0x0 SWAP1 DUP3 DUP3 MSTORE PUSH1 0x20 SWAP2 PUSH1 0x18 DUP4 MSTORE PUSH1 0x40 SWAP1 DUP2 DUP2 KECCAK256 PUSH1 0xA DUP2 ADD PUSH2 0x457B PUSH1 0xFF DUP3 SLOAD PUSH2 0x81C DUP3 DUP3 PUSH1 0xA0 SHR AND PUSH2 0x42D2 JUMP JUMPDEST DUP8 ISZERO ISZERO DUP1 PUSH2 0x474D JUMPI JUMPDEST PUSH2 0x458D SWAP1 PUSH2 0x441E JUMP JUMPDEST PUSH2 0x45A8 PUSH1 0x7 DUP4 ADD SLOAD DUP1 ISZERO SWAP1 DUP2 ISZERO PUSH2 0x4735 JUMPI JUMPDEST POP SWAP9 SWAP4 SWAP9 PUSH2 0x445D JUMP JUMPDEST PUSH2 0x45C2 PUSH2 0x870 DUP7 PUSH2 0x45BD DUP7 PUSH1 0x8 DUP8 ADD SLOAD PUSH2 0x429F JUMP JUMPDEST PUSH2 0x427C JUMP JUMPDEST PUSH2 0x45CB DUP4 PUSH2 0x44FA JUMP JUMPDEST SWAP8 PUSH2 0x45D6 DUP7 CALLVALUE PUSH2 0x452C JUMP JUMPDEST SWAP4 PUSH2 0x45E1 DUP2 CALLVALUE PUSH2 0x42B2 JUMP JUMPDEST PUSH1 0x1 SWAP3 SWAP1 PUSH1 0x6 DUP7 ADD SWAP1 DUP5 DUP8 ADD DUP4 DUP14 DUP16 JUMPDEST DUP8 DUP4 LT PUSH2 0x4693 JUMPI POP POP POP POP POP POP POP POP POP SWAP2 DUP2 PUSH1 0xFF PUSH1 0x80 SWAP7 SWAP5 PUSH1 0x3 PUSH1 0x0 DUP1 MLOAD PUSH1 0x20 PUSH2 0x5934 DUP4 CODECOPY DUP2 MLOAD SWAP2 MSTORE SWAP10 SWAP8 SWAP6 ADD PUSH2 0x4629 CALLVALUE DUP3 SLOAD PUSH2 0x427C JUMP JUMPDEST SWAP1 SSTORE PUSH1 0x5 DUP4 ADD PUSH2 0x463A DUP8 DUP3 SLOAD PUSH2 0x427C JUMP JUMPDEST SWAP1 SSTORE SLOAD PUSH1 0xB8 SHR AND DUP1 PUSH2 0x4684 JUMPI JUMPDEST ISZERO PUSH2 0x466F JUMPI POP PUSH2 0x4658 DUP4 DUP3 DUP10 PUSH2 0x559C JUMP JUMPDEST DUP2 MLOAD SWAP4 CALLVALUE DUP6 MSTORE DUP5 ADD MSTORE DUP3 ADD MSTORE PUSH1 0x1 PUSH1 0x60 DUP3 ADD MSTORE LOG2 SWAP1 JUMP JUMPDEST PUSH1 0x4 ADD PUSH2 0x467D DUP3 DUP3 SLOAD PUSH2 0x427C JUMP JUMPDEST SWAP1 SSTORE PUSH2 0x4658 JUMP JUMPDEST POP PUSH1 0xFF PUSH1 0x17 SLOAD PUSH1 0x10 SHR AND PUSH2 0x4647 JUMP JUMPDEST DUP7 DUP16 SWAP3 DUP8 DUP16 SWAP4 DUP7 SWAP6 DUP9 DUP11 SWAP3 DUP16 SWAP10 PUSH1 0xF DUP10 DUP2 SLOAD SWAP10 DUP11 SWAP6 DUP7 SWAP4 PUSH2 0x46B3 DUP6 PUSH2 0x4357 JUMP JUMPDEST SWAP1 SSTORE DUP10 SLOAD PUSH2 0x46C0 SWAP1 PUSH2 0x4357 JUMP JUMPDEST SWAP10 DUP11 SWAP1 SSTORE PUSH2 0x46CE DUP5 CALLER PUSH2 0x4C4E JUMP JUMPDEST PUSH2 0x46D7 SWAP1 PUSH2 0x3A80 JUMP JUMPDEST PUSH2 0x46E1 SWAP1 DUP5 PUSH2 0x4ADB JUMP JUMPDEST DUP3 DUP2 MSTORE PUSH1 0x19 DUP8 MSTORE DUP10 DUP3 DUP3 KECCAK256 SSTORE PUSH1 0x1A DUP8 MSTORE DUP9 DUP3 DUP3 KECCAK256 SSTORE DUP10 DUP2 MSTORE PUSH1 0x1B DUP8 MSTORE KECCAK256 SWAP1 PUSH2 0x4708 SWAP2 PUSH2 0x3EA5 JUMP JUMPDEST PUSH2 0x4711 SWAP2 PUSH2 0x4539 JUMP JUMPDEST MSTORE DUP6 MLOAD SWAP3 DUP4 MSTORE DUP3 ADD MSTORE CALLER SWAP4 PUSH1 0x0 DUP1 MLOAD PUSH1 0x20 PUSH2 0x58F4 DUP4 CODECOPY DUP2 MLOAD SWAP2 MSTORE SWAP2 LOG4 ADD DUP14 DUP16 PUSH2 0x45F1 JUMP JUMPDEST SWAP1 POP PUSH2 0x4745 DUP11 PUSH1 0x6 DUP7 ADD SLOAD PUSH2 0x427C JUMP JUMPDEST GT ISZERO CODESIZE PUSH2 0x459F JUMP JUMPDEST POP PUSH1 0x32 DUP9 GT ISZERO PUSH2 0x4584 JUMP JUMPDEST ISZERO PUSH2 0x475F JUMPI JUMP JUMPDEST PUSH1 0x40 MLOAD PUSH3 0x461BCD PUSH1 0xE5 SHL DUP2 MSTORE PUSH1 0x20 PUSH1 0x4 DUP3 ADD MSTORE PUSH1 0x11 PUSH1 0x24 DUP3 ADD MSTORE PUSH17 0x125B9D985B1A59081B9BDB9C1C9BD99A5D PUSH1 0x7A SHL PUSH1 0x44 DUP3 ADD MSTORE PUSH1 0x64 SWAP1 REVERT JUMPDEST ISZERO PUSH2 0x479F JUMPI JUMP JUMPDEST PUSH1 0x40 MLOAD PUSH3 0x461BCD PUSH1 0xE5 SHL DUP2 MSTORE PUSH1 0x20 PUSH1 0x4 DUP3 ADD MSTORE PUSH1 0x11 PUSH1 0x24 DUP3 ADD MSTORE PUSH17 0x24B73B30B634B21039BAB136B4BA3A32B9 PUSH1 0x79 SHL PUSH1 0x44 DUP3 ADD MSTORE PUSH1 0x64 SWAP1 REVERT JUMPDEST PUSH1 0x1 PUSH1 0x1 PUSH1 0xA0 SHL SUB AND DUP1 ISZERO PUSH2 0x47F8 JUMPI PUSH1 0x0 MSTORE PUSH1 0x5 PUSH1 0x20 MSTORE PUSH1 0x40 PUSH1 0x0 KECCAK256 SLOAD SWAP1 JUMP JUMPDEST PUSH1 0x40 MLOAD PUSH4 0x22718AD9 PUSH1 0xE2 SHL DUP2 MSTORE PUSH1 0x0 PUSH1 0x4 DUP3 ADD MSTORE PUSH1 0x24 SWAP1 REVERT JUMPDEST RETURNDATASIZE ISZERO PUSH2 0x483C JUMPI RETURNDATASIZE SWAP1 PUSH2 0x4822 DUP3 PUSH2 0x3CCA JUMP JUMPDEST SWAP2 PUSH2 0x4830 PUSH1 0x40 MLOAD SWAP4 DUP5 PUSH2 0x3A5F JUMP JUMPDEST DUP3 MSTORE RETURNDATASIZE PUSH1 0x0 PUSH1 0x20 DUP5 ADD RETURNDATACOPY JUMP JUMPDEST PUSH1 0x60 SWAP1 JUMP JUMPDEST ISZERO PUSH2 0x4848 JUMPI JUMP JUMPDEST PUSH1 0x40 MLOAD PUSH3 0x461BCD PUSH1 0xE5 SHL DUP2 MSTORE PUSH1 0x20 PUSH1 0x4 DUP3 ADD MSTORE PUSH1 0xF PUSH1 0x24 DUP3 ADD MSTORE PUSH15 0x151C985B9CD9995C8819985A5B1959 PUSH1 0x8A SHL PUSH1 0x44 DUP3 ADD MSTORE PUSH1 0x64 SWAP1 REVERT JUMPDEST PUSH1 0x0 DUP2 DUP2 MSTORE PUSH1 0x4 PUSH1 0x20 MSTORE PUSH1 0x40 DUP2 KECCAK256 SLOAD SWAP1 SWAP3 SWAP1 PUSH2 0x48A5 SWAP1 PUSH1 0x1 PUSH1 0x1 PUSH1 0xA0 SHL SUB AND ISZERO ISZERO PUSH2 0x3D5A JUMP JUMPDEST DUP2 DUP4 MSTORE PUSH1 0x19 PUSH1 0x20 MSTORE DUP1 PUSH1 0x40 DUP5 KECCAK256 SSTORE DUP3 MSTORE PUSH1 0x1B PUSH1 0x20 MSTORE PUSH1 0x40 DUP3 KECCAK256 DUP1 SLOAD SWAP3 JUMPDEST DUP4 DUP2 LT PUSH2 0x48D4 JUMPI POP PUSH2 0x3AC2 SWAP3 POP PUSH2 0x3EA5 JUMP JUMPDEST DUP3 PUSH2 0x48DF DUP3 DUP5 PUSH2 0x3C98 JUMP JUMPDEST SWAP1 SLOAD SWAP1 PUSH1 0x3 SHL SHR EQ PUSH2 0x48F3 JUMPI PUSH1 0x1 ADD PUSH2 0x48C2 JUMP JUMPDEST POP POP POP POP JUMP JUMPDEST PUSH1 0x0 DUP1 MLOAD PUSH1 0x20 PUSH2 0x5934 DUP4 CODECOPY DUP2 MLOAD SWAP2 MSTORE PUSH1 0x80 PUSH1 0x0 SWAP4 DUP4 DUP6 MSTORE PUSH1 0x20 SWAP1 PUSH1 0x18 DUP3 MSTORE PUSH1 0x40 DUP6 DUP2 DUP9 KECCAK256 SWAP8 PUSH1 0xA DUP10 ADD SWAP9 PUSH2 0x4938 PUSH1 0xFF DUP12 SLOAD PUSH2 0x81C DUP3 DUP3 PUSH1 0xA0 SHR AND PUSH2 0x42D2 JUMP JUMPDEST PUSH2 0x494F PUSH1 0x7 DUP3 ADD SLOAD DUP1 ISZERO SWAP1 DUP2 ISZERO PUSH2 0x4A66 JUMPI POP PUSH2 0x4314 JUMP JUMPDEST PUSH2 0x4960 PUSH2 0x870 DUP7 PUSH1 0x8 DUP5 ADD SLOAD PUSH2 0x427C JUMP JUMPDEST PUSH1 0xFF PUSH1 0xF SLOAD SWAP11 PUSH2 0x496F DUP13 PUSH2 0x4357 JUMP JUMPDEST PUSH1 0xF SSTORE PUSH2 0x49CE DUP13 DUP8 PUSH1 0x6 DUP7 ADD SWAP7 PUSH2 0x4986 DUP9 SLOAD PUSH2 0x4357 JUMP JUMPDEST DUP1 SWAP9 SSTORE PUSH2 0x4993 DUP12 CALLVALUE PUSH2 0x452C JUMP JUMPDEST SWAP9 PUSH2 0x499E DUP5 CALLER PUSH2 0x4C4E JUMP JUMPDEST PUSH2 0x49AD PUSH2 0x3417 PUSH1 0x1 DUP11 ADD PUSH2 0x3A80 JUMP JUMPDEST DUP4 DUP3 MSTORE PUSH1 0x19 DUP14 MSTORE DUP1 DUP4 DUP4 KECCAK256 SSTORE PUSH1 0x1A DUP14 MSTORE DUP9 DUP4 DUP4 KECCAK256 SSTORE DUP2 MSTORE PUSH1 0x1B DUP13 MSTORE KECCAK256 PUSH2 0x3EA5 JUMP JUMPDEST PUSH1 0x3 DUP4 ADD PUSH2 0x49DD CALLVALUE DUP3 SLOAD PUSH2 0x427C JUMP JUMPDEST SWAP1 SSTORE PUSH1 0x5 DUP4 ADD PUSH2 0x49EE DUP9 DUP3 SLOAD PUSH2 0x427C JUMP JUMPDEST SWAP1 SSTORE SLOAD PUSH1 0xB8 SHR AND DUP1 PUSH2 0x4A57 JUMPI JUMPDEST ISZERO PUSH2 0x4A42 JUMPI POP PUSH2 0x4A0C DUP5 DUP4 DUP11 PUSH2 0x559C JUMP JUMPDEST DUP3 MLOAD SWAP1 DUP2 MSTORE CALLVALUE DUP6 DUP3 ADD MSTORE DUP9 DUP9 PUSH1 0x0 DUP1 MLOAD PUSH1 0x20 PUSH2 0x58F4 DUP4 CODECOPY DUP2 MLOAD SWAP2 MSTORE DUP6 CALLER SWAP5 LOG4 DUP2 MLOAD SWAP4 CALLVALUE DUP6 MSTORE DUP5 ADD MSTORE DUP3 ADD MSTORE PUSH1 0x1 PUSH1 0x60 DUP3 ADD MSTORE LOG2 SWAP1 JUMP JUMPDEST PUSH1 0x4 ADD PUSH2 0x4A50 DUP4 DUP3 SLOAD PUSH2 0x427C JUMP JUMPDEST SWAP1 SSTORE PUSH2 0x4A0C JUMP JUMPDEST POP PUSH1 0xFF PUSH1 0x17 SLOAD PUSH1 0x10 SHR AND PUSH2 0x49FB JUMP JUMPDEST SWAP1 POP PUSH1 0x6 DUP4 ADD SLOAD LT CODESIZE PUSH2 0xBAF JUMP JUMPDEST PUSH1 0xD SLOAD PUSH1 0x1 PUSH1 0x1 PUSH1 0xA0 SHL SUB AND CALLER SUB PUSH2 0x4A88 JUMPI JUMP JUMPDEST PUSH1 0x40 MLOAD PUSH4 0x118CDAA7 PUSH1 0xE0 SHL DUP2 MSTORE CALLER PUSH1 0x4 DUP3 ADD MSTORE PUSH1 0x24 SWAP1 REVERT JUMPDEST PUSH1 0x0 DUP2 DUP2 MSTORE PUSH1 0x4 PUSH1 0x20 MSTORE PUSH1 0x40 SWAP1 KECCAK256 SLOAD PUSH1 0x1 PUSH1 0x1 PUSH1 0xA0 SHL SUB AND SWAP1 DUP2 ISZERO PUSH2 0x4AC3 JUMPI POP SWAP1 JUMP JUMPDEST PUSH1 0x24 SWAP1 PUSH1 0x40 MLOAD SWAP1 PUSH4 0x7E273289 PUSH1 0xE0 SHL DUP3 MSTORE PUSH1 0x4 DUP3 ADD MSTORE REVERT JUMPDEST SWAP2 SWAP1 SWAP2 PUSH1 0x0 SWAP1 DUP1 DUP3 MSTORE PUSH1 0x20 SWAP2 PUSH1 0xC DUP4 MSTORE PUSH1 0x40 DUP2 KECCAK256 SWAP1 DUP6 MLOAD SWAP6 PUSH1 0x1 PUSH1 0x1 PUSH1 0x40 SHL SUB DUP8 GT PUSH2 0x4BF6 JUMPI PUSH2 0x4B15 DUP8 PUSH2 0x4B0F DUP6 SLOAD PUSH2 0x39EF JUMP JUMPDEST DUP6 PUSH2 0x3E03 JUMP JUMPDEST DUP5 SWAP2 PUSH1 0x1F DUP9 GT PUSH1 0x1 EQ PUSH2 0x4B72 JUMPI SWAP7 PUSH2 0x4B66 SWAP3 DUP2 SWAP3 PUSH32 0xF8E1A15ABA9398E019F0B49DF1A4FDE98EE17AE345CB5F6B5E2C27F5033E8CE7 SWAP9 SWAP10 SWAP3 PUSH2 0x17DD JUMPI POP POP DUP2 PUSH1 0x1 SHL SWAP2 PUSH1 0x0 NOT SWAP1 PUSH1 0x3 SHL SHR NOT AND OR SWAP1 JUMP JUMPDEST SWAP1 SSTORE JUMPDEST PUSH1 0x40 MLOAD SWAP1 DUP2 MSTORE LOG1 JUMP JUMPDEST SWAP2 SWAP1 PUSH1 0x1F NOT DUP9 AND DUP5 DUP5 MSTORE DUP7 DUP5 KECCAK256 SWAP4 JUMPDEST DUP2 DUP2 LT PUSH2 0x4BDF JUMPI POP SWAP2 PUSH1 0x1 SWAP4 SWAP2 DUP10 PUSH32 0xF8E1A15ABA9398E019F0B49DF1A4FDE98EE17AE345CB5F6B5E2C27F5033E8CE7 SWAP10 SWAP11 SWAP5 LT PUSH2 0x4BC6 JUMPI JUMPDEST POP POP POP DUP2 SHL ADD SWAP1 SSTORE PUSH2 0x4B69 JUMP JUMPDEST ADD MLOAD PUSH1 0x0 NOT PUSH1 0xF8 DUP5 PUSH1 0x3 SHL AND SHR NOT AND SWAP1 SSTORE CODESIZE DUP1 DUP1 PUSH2 0x4BB9 JUMP JUMPDEST SWAP3 SWAP4 DUP8 PUSH1 0x1 DUP2 SWAP3 DUP8 DUP7 ADD MLOAD DUP2 SSTORE ADD SWAP6 ADD SWAP4 ADD PUSH2 0x4B81 JUMP JUMPDEST PUSH4 0x4E487B71 PUSH1 0xE0 SHL DUP3 MSTORE PUSH1 0x41 PUSH1 0x4 MSTORE PUSH1 0x24 DUP3 REVERT JUMPDEST PUSH1 0xFF PUSH1 0xD SLOAD PUSH1 0xA0 SHR AND PUSH2 0x4C19 JUMPI JUMP JUMPDEST PUSH1 0x40 MLOAD PUSH4 0xD93C0665 PUSH1 0xE0 SHL DUP2 MSTORE PUSH1 0x4 SWAP1 REVERT JUMPDEST PUSH1 0x2 PUSH1 0xE SLOAD EQ PUSH2 0x4C3C JUMPI PUSH1 0x2 PUSH1 0xE SSTORE JUMP JUMPDEST PUSH1 0x40 MLOAD PUSH4 0x3EE5AEB5 PUSH1 0xE0 SHL DUP2 MSTORE PUSH1 0x4 SWAP1 REVERT JUMPDEST PUSH1 0x40 DUP1 MLOAD SWAP1 PUSH2 0x4C5C DUP3 PUSH2 0x3A44 JUMP JUMPDEST PUSH1 0x0 DUP1 DUP4 MSTORE PUSH1 0x1 PUSH1 0x1 PUSH1 0xA0 SHL SUB SWAP5 DUP5 DUP7 AND SWAP4 SWAP1 SWAP2 SWAP1 DUP5 ISZERO PUSH2 0x5057 JUMPI DUP3 DUP3 MSTORE PUSH1 0x4 SWAP6 PUSH1 0x20 SWAP8 DUP8 DUP10 MSTORE DUP1 DUP7 DUP6 KECCAK256 SLOAD AND DUP1 ISZERO ISZERO DUP1 PUSH2 0x504F JUMPI JUMPDEST PUSH2 0x4F4F JUMPI JUMPDEST POP DUP5 DUP5 MSTORE DUP8 DUP10 MSTORE DUP6 DUP5 KECCAK256 SLOAD AND DUP7 DUP2 ISZERO SWAP2 DUP3 ISZERO SWAP3 DUP4 PUSH2 0x4F1C JUMPI JUMPDEST DUP3 DUP8 MSTORE PUSH1 0x5 DUP13 MSTORE DUP9 DUP8 KECCAK256 DUP1 SLOAD PUSH1 0x1 ADD SWAP1 SSTORE DUP8 DUP8 MSTORE DUP11 DUP13 MSTORE DUP9 DUP8 KECCAK256 DUP1 SLOAD PUSH1 0x1 PUSH1 0x1 PUSH1 0xA0 SHL SUB NOT AND DUP5 OR SWAP1 SSTORE DUP8 DUP4 DUP4 PUSH32 0xDDF252AD1BE2C89B69C2B068FC378DAA952BA7F163C4A11628F55A4DF523B3EF DUP11 DUP1 LOG4 ISZERO PUSH2 0x4E9E JUMPI PUSH1 0xA SLOAD DUP8 DUP8 MSTORE PUSH1 0xB DUP13 MSTORE DUP9 DUP8 KECCAK256 SSTORE PUSH2 0x4D1D DUP8 PUSH2 0x3E69 JUMP JUMPDEST SUB PUSH2 0x4E52 JUMPI JUMPDEST PUSH2 0x4E3B JUMPI EXTCODESIZE PUSH2 0x4D36 JUMPI JUMPDEST POP POP POP POP POP POP POP JUMP JUMPDEST DUP7 PUSH2 0x4D73 SWAP2 DUP6 SWAP7 SWAP8 SWAP9 SWAP10 SWAP6 MLOAD DUP1 SWAP4 DUP2 SWAP3 PUSH4 0xA85BD01 PUSH1 0xE1 SHL SWAP8 DUP9 DUP5 MSTORE CALLER DUP14 DUP6 ADD MSTORE DUP8 PUSH1 0x24 DUP6 ADD MSTORE PUSH1 0x44 DUP5 ADD MSTORE PUSH1 0x80 PUSH1 0x64 DUP5 ADD MSTORE PUSH1 0x84 DUP4 ADD SWAP1 PUSH2 0x39AF JUMP JUMPDEST SUB DUP2 DUP6 DUP11 GAS CALL SWAP1 DUP3 SWAP1 DUP3 PUSH2 0x4DF0 JUMPI JUMPDEST POP POP PUSH2 0x4DB8 JUMPI POP POP POP PUSH2 0x4D93 PUSH2 0x4811 JUMP JUMPDEST DUP1 MLOAD SWAP5 DUP6 PUSH2 0x4DB2 JUMPI POP POP MLOAD PUSH4 0x32505749 PUSH1 0xE1 SHL DUP2 MSTORE SWAP2 DUP3 ADD MSTORE PUSH1 0x24 SWAP2 POP REVERT JUMPDEST DUP6 SWAP3 POP ADD REVERT JUMPDEST SWAP2 SWAP6 POP PUSH1 0x1 PUSH1 0x1 PUSH1 0xE0 SHL SUB NOT SWAP1 SWAP2 AND SUB PUSH2 0x4DDB JUMPI POP POP POP CODESIZE DUP1 DUP1 DUP1 DUP1 DUP1 DUP1 PUSH2 0x4D2D JUMP JUMPDEST MLOAD PUSH4 0x32505749 PUSH1 0xE1 SHL DUP2 MSTORE SWAP2 DUP3 ADD MSTORE PUSH1 0x24 SWAP2 POP REVERT JUMPDEST SWAP1 SWAP2 SWAP3 POP DUP9 DUP2 DUP2 RETURNDATASIZE DUP4 GT PUSH2 0x4E34 JUMPI JUMPDEST PUSH2 0x4E09 DUP2 DUP4 PUSH2 0x3A5F JUMP JUMPDEST DUP2 ADD SUB SLT PUSH2 0x4E30 JUMPI MLOAD SWAP1 PUSH1 0x1 PUSH1 0x1 PUSH1 0xE0 SHL SUB NOT DUP3 AND DUP3 SUB PUSH2 0x4E2D JUMPI POP SWAP1 CODESIZE DUP1 PUSH2 0x4D82 JUMP JUMPDEST DUP1 REVERT JUMPDEST POP DUP1 REVERT JUMPDEST POP RETURNDATASIZE PUSH2 0x4DFF JUMP JUMPDEST DUP5 MLOAD PUSH4 0x39E35637 PUSH1 0xE1 SHL DUP2 MSTORE DUP1 DUP9 ADD DUP5 SWAP1 MSTORE PUSH1 0x24 SWAP1 REVERT JUMPDEST PUSH2 0x4E5B DUP3 PUSH2 0x47D8 JUMP JUMPDEST PUSH1 0x0 NOT DUP2 ADD SWAP1 DUP2 GT PUSH2 0x4E8B JUMPI DUP8 DUP6 MSTORE PUSH1 0x8 DUP11 MSTORE DUP7 DUP6 KECCAK256 DUP2 DUP7 MSTORE DUP11 MSTORE DUP6 DUP8 DUP7 KECCAK256 SSTORE DUP6 DUP6 MSTORE PUSH1 0x9 DUP11 MSTORE DUP7 DUP6 KECCAK256 SSTORE PUSH2 0x4D23 JUMP JUMPDEST PUSH4 0x4E487B71 PUSH1 0xE0 SHL DUP6 MSTORE PUSH1 0x11 DUP10 MSTORE PUSH1 0x24 DUP6 REVERT JUMPDEST DUP1 DUP3 EQ PUSH2 0x4D1D JUMPI PUSH2 0x4EAE DUP2 PUSH2 0x47D8 JUMP JUMPDEST DUP8 DUP8 MSTORE PUSH1 0x9 DUP13 MSTORE DUP9 DUP8 KECCAK256 SLOAD DUP2 DUP2 SUB PUSH2 0x4EE3 JUMPI JUMPDEST POP DUP8 DUP8 MSTORE DUP7 DUP10 DUP2 KECCAK256 SSTORE DUP2 DUP8 MSTORE PUSH1 0x8 DUP13 MSTORE DUP9 DUP8 KECCAK256 SWAP1 DUP8 MSTORE DUP12 MSTORE DUP6 DUP9 DUP2 KECCAK256 SSTORE PUSH2 0x4D1D JUMP JUMPDEST DUP3 DUP9 MSTORE PUSH1 0x8 DUP14 MSTORE DUP10 DUP9 KECCAK256 DUP3 DUP10 MSTORE DUP14 MSTORE DUP13 PUSH1 0x8 DUP12 DUP11 KECCAK256 SLOAD SWAP2 DUP6 DUP12 MSTORE MSTORE DUP14 DUP12 DUP11 KECCAK256 SWAP1 DUP4 DUP12 MSTORE MSTORE DUP1 DUP12 DUP11 KECCAK256 SSTORE DUP9 MSTORE PUSH1 0x9 DUP14 MSTORE DUP10 DUP9 KECCAK256 SSTORE CODESIZE PUSH2 0x4EC1 JUMP JUMPDEST PUSH1 0x0 DUP9 DUP2 MSTORE PUSH1 0x6 PUSH1 0x20 MSTORE PUSH1 0x40 SWAP1 KECCAK256 DUP1 SLOAD PUSH1 0x1 PUSH1 0x1 PUSH1 0xA0 SHL SUB NOT AND SWAP1 SSTORE DUP2 DUP8 MSTORE PUSH1 0x5 DUP13 MSTORE DUP9 DUP8 KECCAK256 DUP1 SLOAD PUSH1 0x0 NOT ADD SWAP1 SSTORE PUSH2 0x4CB0 JUMP JUMPDEST PUSH1 0x14 DUP11 MSTORE PUSH2 0x4F63 PUSH1 0xFF DUP9 DUP8 KECCAK256 SLOAD AND ISZERO PUSH2 0x4366 JUMP JUMPDEST DUP6 DUP6 MSTORE PUSH1 0x16 DUP11 MSTORE PUSH1 0xFF DUP8 DUP7 KECCAK256 SLOAD AND PUSH2 0x5017 JUMPI DUP5 MSTORE PUSH1 0x15 DUP10 MSTORE PUSH1 0xFF DUP7 DUP6 KECCAK256 SLOAD AND PUSH2 0x4FDC JUMPI DUP7 DUP5 MSTORE PUSH1 0x15 DUP10 MSTORE PUSH1 0xFF DUP7 DUP6 KECCAK256 SLOAD AND PUSH2 0x4F9E JUMPI CODESIZE PUSH2 0x4C97 JUMP JUMPDEST DUP6 MLOAD PUSH3 0x461BCD PUSH1 0xE5 SHL DUP2 MSTORE DUP1 DUP10 ADD DUP11 SWAP1 MSTORE PUSH1 0x18 PUSH1 0x24 DUP3 ADD MSTORE PUSH24 0x149958DA5C1A595B9D081A5CC8189B1858DADB1A5CDD1959 PUSH1 0x42 SHL PUSH1 0x44 DUP3 ADD MSTORE PUSH1 0x64 SWAP1 REVERT JUMPDEST DUP6 MLOAD PUSH3 0x461BCD PUSH1 0xE5 SHL DUP2 MSTORE DUP1 DUP10 ADD DUP11 SWAP1 MSTORE PUSH1 0x15 PUSH1 0x24 DUP3 ADD MSTORE PUSH21 0x14D95B99195C881A5CC8189B1858DADB1A5CDD1959 PUSH1 0x5A SHL PUSH1 0x44 DUP3 ADD MSTORE PUSH1 0x64 SWAP1 REVERT JUMPDEST DUP7 MLOAD PUSH3 0x461BCD PUSH1 0xE5 SHL DUP2 MSTORE DUP1 DUP11 ADD DUP12 SWAP1 MSTORE PUSH1 0x12 PUSH1 0x24 DUP3 ADD MSTORE PUSH18 0x151BDAD95B881A5CC81CDBDD5B189BDD5B99 PUSH1 0x72 SHL PUSH1 0x44 DUP3 ADD MSTORE PUSH1 0x64 SWAP1 REVERT JUMPDEST POP PUSH1 0x1 PUSH2 0x4C92 JUMP JUMPDEST DUP4 MLOAD PUSH4 0x32505749 PUSH1 0xE1 SHL DUP2 MSTORE PUSH1 0x4 DUP2 ADD DUP4 SWAP1 MSTORE PUSH1 0x24 SWAP1 REVERT JUMPDEST PUSH1 0x0 SWAP1 DUP1 DUP3 MSTORE PUSH1 0x4 SWAP2 PUSH1 0x20 SWAP1 DUP4 DUP3 MSTORE PUSH1 0x1 DUP1 PUSH1 0xA0 SHL SUB SWAP2 PUSH1 0x40 SWAP3 DUP1 DUP5 DUP5 KECCAK256 SLOAD AND DUP1 ISZERO ISZERO DUP1 PUSH2 0x537B JUMPI JUMPDEST PUSH2 0x527B JUMPI JUMPDEST POP DUP5 DUP4 MSTORE DUP6 DUP3 MSTORE DUP4 DUP4 KECCAK256 SLOAD AND SWAP2 DUP3 ISZERO SWAP3 DUP4 ISZERO DUP1 PUSH2 0x5248 JUMPI JUMPDEST DUP7 DUP4 MSTORE DUP8 DUP5 MSTORE DUP6 DUP4 KECCAK256 DUP1 SLOAD PUSH1 0x1 PUSH1 0x1 PUSH1 0xA0 SHL SUB NOT AND SWAP1 SSTORE DUP7 DUP4 DUP4 PUSH32 0xDDF252AD1BE2C89B69C2B068FC378DAA952BA7F163C4A11628F55A4DF523B3EF DUP3 DUP1 LOG4 DUP5 ISZERO PUSH2 0x51C7 JUMPI POP POP PUSH1 0xA SLOAD DUP6 DUP3 MSTORE PUSH1 0xB DUP4 MSTORE DUP5 DUP3 KECCAK256 SSTORE PUSH2 0x5112 DUP6 PUSH2 0x3E69 JUMP JUMPDEST PUSH1 0xA SLOAD PUSH1 0x0 NOT SWAP3 DUP4 DUP3 ADD SWAP2 DUP3 GT PUSH2 0x51B4 JUMPI PUSH1 0xB SWAP1 DUP8 DUP5 MSTORE DUP2 DUP2 MSTORE PUSH2 0x5139 DUP8 DUP6 KECCAK256 SLOAD SWAP4 PUSH2 0x3C4B JUMP JUMPDEST SWAP1 SLOAD SWAP1 PUSH1 0x3 SHL SHR PUSH2 0x514D DUP2 PUSH2 0x3E8C DUP7 PUSH2 0x3C4B JUMP JUMPDEST DUP5 MSTORE MSTORE DUP5 DUP3 KECCAK256 SSTORE DUP5 DUP2 MSTORE DUP1 DUP5 DUP2 KECCAK256 SSTORE PUSH1 0xA SLOAD SWAP1 DUP2 ISZERO PUSH2 0x51A1 JUMPI POP DUP2 ADD SWAP1 PUSH2 0x5173 DUP3 PUSH2 0x3C4B JUMP JUMPDEST SWAP1 SWAP2 DUP3 SLOAD SWAP2 PUSH1 0x3 SHL SHL NOT AND SWAP1 SSTORE PUSH1 0xA SSTORE PUSH2 0x518C JUMPI POP POP POP JUMP JUMPDEST MLOAD PUSH4 0x7E273289 PUSH1 0xE0 SHL DUP2 MSTORE SWAP2 DUP3 ADD MSTORE PUSH1 0x24 SWAP2 POP REVERT JUMPDEST PUSH4 0x4E487B71 PUSH1 0xE0 SHL DUP2 MSTORE PUSH1 0x31 DUP8 MSTORE PUSH1 0x24 SWAP1 REVERT JUMPDEST PUSH4 0x4E487B71 PUSH1 0xE0 SHL DUP4 MSTORE PUSH1 0x11 DUP9 MSTORE PUSH1 0x24 DUP4 REVERT JUMPDEST PUSH2 0x51D2 JUMPI JUMPDEST POP PUSH2 0x5112 JUMP JUMPDEST PUSH2 0x51DB DUP2 PUSH2 0x47D8 JUMP JUMPDEST SWAP1 DUP7 DUP4 MSTORE PUSH1 0x9 DUP5 MSTORE DUP6 DUP4 KECCAK256 SLOAD DUP3 DUP2 SUB PUSH2 0x5211 JUMPI JUMPDEST POP DUP7 DUP4 MSTORE DUP3 DUP7 DUP2 KECCAK256 SSTORE DUP3 MSTORE PUSH1 0x8 DUP4 MSTORE DUP5 DUP3 KECCAK256 SWAP1 DUP3 MSTORE DUP3 MSTORE DUP1 DUP5 DUP2 KECCAK256 SSTORE CODESIZE PUSH2 0x51CC JUMP JUMPDEST DUP2 DUP5 MSTORE PUSH1 0x8 DUP6 MSTORE DUP7 DUP5 KECCAK256 DUP4 DUP6 MSTORE DUP6 MSTORE DUP7 DUP5 KECCAK256 SLOAD DUP3 DUP6 MSTORE PUSH1 0x8 DUP7 MSTORE DUP8 DUP6 KECCAK256 DUP3 DUP7 MSTORE DUP7 MSTORE DUP1 DUP9 DUP7 KECCAK256 SSTORE DUP5 MSTORE PUSH1 0x9 DUP6 MSTORE DUP7 DUP5 KECCAK256 SSTORE CODESIZE PUSH2 0x51EF JUMP JUMPDEST PUSH1 0x0 DUP8 DUP2 MSTORE PUSH1 0x6 PUSH1 0x20 MSTORE PUSH1 0x40 SWAP1 KECCAK256 DUP1 SLOAD PUSH1 0x1 PUSH1 0x1 PUSH1 0xA0 SHL SUB NOT AND SWAP1 SSTORE DUP2 DUP4 MSTORE PUSH1 0x5 DUP5 MSTORE DUP6 DUP4 KECCAK256 DUP1 SLOAD PUSH1 0x0 NOT ADD SWAP1 SSTORE PUSH2 0x50B5 JUMP JUMPDEST PUSH1 0x14 DUP4 MSTORE PUSH2 0x528F PUSH1 0xFF DUP7 DUP7 KECCAK256 SLOAD AND ISZERO PUSH2 0x4366 JUMP JUMPDEST DUP6 DUP5 MSTORE PUSH1 0x16 DUP4 MSTORE PUSH1 0xFF DUP6 DUP6 KECCAK256 SLOAD AND PUSH2 0x5343 JUMPI DUP4 MSTORE PUSH1 0x15 DUP3 MSTORE PUSH1 0xFF DUP5 DUP5 KECCAK256 SLOAD AND PUSH2 0x5308 JUMPI DUP3 DUP1 MSTORE PUSH1 0x15 DUP3 MSTORE PUSH1 0xFF DUP5 DUP5 KECCAK256 SLOAD AND PUSH2 0x52CA JUMPI CODESIZE PUSH2 0x509D JUMP JUMPDEST DUP4 MLOAD PUSH3 0x461BCD PUSH1 0xE5 SHL DUP2 MSTORE DUP1 DUP8 ADD DUP4 SWAP1 MSTORE PUSH1 0x18 PUSH1 0x24 DUP3 ADD MSTORE PUSH24 0x149958DA5C1A595B9D081A5CC8189B1858DADB1A5CDD1959 PUSH1 0x42 SHL PUSH1 0x44 DUP3 ADD MSTORE PUSH1 0x64 SWAP1 REVERT JUMPDEST DUP4 MLOAD PUSH3 0x461BCD PUSH1 0xE5 SHL DUP2 MSTORE DUP1 DUP8 ADD DUP4 SWAP1 MSTORE PUSH1 0x15 PUSH1 0x24 DUP3 ADD MSTORE PUSH21 0x14D95B99195C881A5CC8189B1858DADB1A5CDD1959 PUSH1 0x5A SHL PUSH1 0x44 DUP3 ADD MSTORE PUSH1 0x64 SWAP1 REVERT JUMPDEST DUP5 MLOAD PUSH3 0x461BCD PUSH1 0xE5 SHL DUP2 MSTORE DUP1 DUP9 ADD DUP5 SWAP1 MSTORE PUSH1 0x12 PUSH1 0x24 DUP3 ADD MSTORE PUSH18 0x151BDAD95B881A5CC81CDBDD5B189BDD5B99 PUSH1 0x72 SHL PUSH1 0x44 DUP3 ADD MSTORE PUSH1 0x64 SWAP1 REVERT JUMPDEST POP DUP4 PUSH2 0x5098 JUMP JUMPDEST PUSH1 0x0 SWAP2 DUP2 DUP4 MSTORE PUSH1 0x20 SWAP3 PUSH1 0x18 DUP5 MSTORE PUSH1 0x40 DUP1 DUP3 KECCAK256 PUSH2 0x2710 PUSH2 0x53A7 PUSH2 0xFFFF PUSH1 0x17 SLOAD AND DUP7 PUSH2 0x429F JUMP JUMPDEST DIV SWAP1 PUSH2 0x53D4 DUP3 PUSH2 0x53B7 DUP2 DUP9 PUSH2 0x452C JUMP JUMPDEST SWAP7 DUP9 DUP8 MSTORE PUSH1 0x1C DUP11 MSTORE DUP6 DUP8 KECCAK256 PUSH2 0x53CD DUP3 DUP3 SLOAD PUSH2 0x427C JUMP JUMPDEST SWAP1 SSTORE PUSH2 0x452C JUMP JUMPDEST PUSH2 0x53E3 PUSH1 0x4 DUP4 ADD SWAP2 DUP3 SLOAD PUSH2 0x427C JUMP JUMPDEST SWAP1 SSTORE DUP2 PUSH2 0x54FA JUMPI JUMPDEST DUP5 PUSH2 0x542A JUMPI JUMPDEST PUSH1 0xA ADD SLOAD DUP3 MLOAD SWAP5 DUP6 MSTORE SWAP6 DUP5 ADD MSTORE DUP3 ADD DUP2 SWAP1 MSTORE PUSH1 0x60 DUP3 ADD MSTORE PUSH1 0x1 PUSH1 0x1 PUSH1 0xA0 SHL SUB SWAP1 SWAP3 AND SWAP2 PUSH1 0x0 DUP1 MLOAD PUSH1 0x20 PUSH2 0x5954 DUP4 CODECOPY DUP2 MLOAD SWAP2 MSTORE SWAP1 PUSH1 0x80 SWAP1 LOG3 JUMP JUMPDEST PUSH1 0xA DUP2 ADD PUSH1 0x1 DUP1 PUSH1 0xA0 SHL SUB SWAP1 DUP6 DUP1 DUP1 DUP1 DUP11 DUP7 DUP7 SLOAD AND GAS CALL PUSH2 0x5449 PUSH2 0x4811 JUMP JUMPDEST POP ISZERO PUSH2 0x54BA JUMPI SWAP3 DUP6 SWAP4 SWAP3 PUSH1 0x0 DUP1 MLOAD PUSH1 0x20 PUSH2 0x5954 DUP4 CODECOPY DUP2 MLOAD SWAP2 MSTORE SWAP8 SWAP6 SWAP3 PUSH1 0x80 SWAP8 SWAP5 SLOAD AND DUP10 PUSH1 0x0 DUP1 MLOAD PUSH1 0x20 PUSH2 0x58D4 DUP4 CODECOPY DUP2 MLOAD SWAP2 MSTORE DUP13 DUP7 DUP1 MLOAD SWAP2 DUP12 DUP4 MSTORE DUP3 ADD MSTORE DUP1 PUSH2 0x54AA DUP9 DUP3 ADD PUSH1 0x40 SWAP1 PUSH1 0x9 DUP2 MSTORE PUSH9 0x39BAB136B4BA3A32B9 PUSH1 0xB9 SHL PUSH1 0x20 DUP3 ADD MSTORE ADD SWAP1 JUMP JUMPDEST SUB SWAP1 LOG3 SWAP3 POP SWAP3 SWAP5 POP SWAP3 SWAP5 POP PUSH2 0x53F1 JUMP JUMPDEST DUP5 MLOAD PUSH3 0x461BCD PUSH1 0xE5 SHL DUP2 MSTORE PUSH1 0x4 DUP2 ADD DUP11 SWAP1 MSTORE PUSH1 0x19 PUSH1 0x24 DUP3 ADD MSTORE PUSH25 0x14DD589B5A5D1D195C881D1C985B9CD9995C8819985A5B1959 PUSH1 0x3A SHL PUSH1 0x44 DUP3 ADD MSTORE PUSH1 0x64 SWAP1 REVERT JUMPDEST PUSH1 0x1 DUP1 PUSH1 0xA0 SHL SUB DUP5 DUP1 DUP1 DUP1 DUP7 DUP6 PUSH1 0x11 SLOAD AND GAS CALL PUSH2 0x5515 PUSH2 0x4811 JUMP JUMPDEST POP ISZERO PUSH2 0x5558 JUMPI PUSH1 0x11 SLOAD AND DUP7 PUSH1 0x0 DUP1 MLOAD PUSH1 0x20 PUSH2 0x58D4 DUP4 CODECOPY DUP2 MLOAD SWAP2 MSTORE PUSH1 0x80 DUP7 MLOAD DUP7 DUP2 MSTORE DUP8 DUP13 DUP3 ADD MSTORE PUSH1 0x8 DUP9 DUP3 ADD MSTORE PUSH8 0x706C6174666F726D PUSH1 0xC0 SHL PUSH1 0x60 DUP3 ADD MSTORE LOG3 PUSH2 0x53EB JUMP JUMPDEST DUP4 MLOAD PUSH3 0x461BCD PUSH1 0xE5 SHL DUP2 MSTORE PUSH1 0x4 DUP2 ADD DUP10 SWAP1 MSTORE PUSH1 0x1C PUSH1 0x24 DUP3 ADD MSTORE PUSH32 0x506C6174666F726D20666565207472616E73666572206661696C656400000000 PUSH1 0x44 DUP3 ADD MSTORE PUSH1 0x64 SWAP1 REVERT JUMPDEST SWAP1 PUSH1 0x0 SWAP3 DUP3 DUP5 MSTORE PUSH1 0x20 SWAP4 PUSH1 0x18 DUP6 MSTORE PUSH1 0x40 DUP1 DUP3 KECCAK256 PUSH2 0x2710 PUSH2 0x55C2 PUSH2 0xFFFF PUSH1 0x17 SLOAD AND DUP8 PUSH2 0x429F JUMP JUMPDEST DIV SWAP1 PUSH2 0x55F6 DUP3 PUSH2 0x55D6 DUP8 PUSH2 0x45BD DUP4 DUP12 PUSH2 0x452C JUMP JUMPDEST SWAP8 PUSH2 0x55E1 DUP9 DUP3 PUSH2 0x427C JUMP JUMPDEST DUP11 DUP9 MSTORE PUSH1 0x1C DUP13 MSTORE PUSH2 0x53CD DUP8 DUP10 KECCAK256 SWAP2 DUP3 SLOAD PUSH2 0x427C JUMP JUMPDEST PUSH2 0x5605 PUSH1 0x4 DUP4 ADD SWAP2 DUP3 SLOAD PUSH2 0x427C JUMP JUMPDEST SWAP1 SSTORE DUP2 PUSH2 0x5719 JUMPI JUMPDEST DUP6 PUSH2 0x564A JUMPI JUMPDEST PUSH1 0xA ADD SLOAD DUP3 MLOAD SWAP6 DUP7 MSTORE SWAP7 DUP6 ADD MSTORE DUP4 ADD MSTORE PUSH1 0x60 DUP3 ADD MSTORE PUSH1 0x1 PUSH1 0x1 PUSH1 0xA0 SHL SUB SWAP1 SWAP3 AND SWAP2 PUSH1 0x0 DUP1 MLOAD PUSH1 0x20 PUSH2 0x5954 DUP4 CODECOPY DUP2 MLOAD SWAP2 MSTORE SWAP1 PUSH1 0x80 SWAP1 LOG3 JUMP JUMPDEST PUSH1 0xA DUP2 ADD PUSH1 0x1 DUP1 PUSH1 0xA0 SHL SUB SWAP1 DUP6 DUP1 DUP1 DUP1 DUP12 DUP7 DUP7 SLOAD AND GAS CALL PUSH2 0x5669 PUSH2 0x4811 JUMP JUMPDEST POP ISZERO PUSH2 0x56D9 JUMPI SWAP2 PUSH1 0x0 DUP1 MLOAD PUSH1 0x20 PUSH2 0x5954 DUP4 CODECOPY DUP2 MLOAD SWAP2 MSTORE SWAP8 SWAP6 SWAP4 SWAP2 PUSH1 0x80 SWAP8 SWAP6 SWAP4 SLOAD AND DUP10 PUSH1 0x0 DUP1 MLOAD PUSH1 0x20 PUSH2 0x58D4 DUP4 CODECOPY DUP2 MLOAD SWAP2 MSTORE DUP13 DUP7 DUP1 MLOAD SWAP2 DUP12 DUP4 MSTORE DUP3 ADD MSTORE DUP1 PUSH2 0x56C9 DUP9 DUP3 ADD PUSH1 0x40 SWAP1 PUSH1 0x9 DUP2 MSTORE PUSH9 0x39BAB136B4BA3A32B9 PUSH1 0xB9 SHL PUSH1 0x20 DUP3 ADD MSTORE ADD SWAP1 JUMP JUMPDEST SUB SWAP1 LOG3 SWAP2 SWAP4 SWAP6 POP SWAP2 SWAP4 SWAP6 POP PUSH2 0x5613 JUMP JUMPDEST DUP5 MLOAD PUSH3 0x461BCD PUSH1 0xE5 SHL DUP2 MSTORE PUSH1 0x4 DUP2 ADD DUP12 SWAP1 MSTORE PUSH1 0x19 PUSH1 0x24 DUP3 ADD MSTORE PUSH25 0x14DD589B5A5D1D195C881D1C985B9CD9995C8819985A5B1959 PUSH1 0x3A SHL PUSH1 0x44 DUP3 ADD MSTORE PUSH1 0x64 SWAP1 REVERT JUMPDEST PUSH1 0x1 DUP1 PUSH1 0xA0 SHL SUB DUP5 DUP1 DUP1 DUP1 DUP7 DUP6 PUSH1 0x11 SLOAD AND GAS CALL PUSH2 0x5734 PUSH2 0x4811 JUMP JUMPDEST POP ISZERO PUSH2 0x5777 JUMPI PUSH1 0x11 SLOAD AND DUP8 PUSH1 0x0 DUP1 MLOAD PUSH1 0x20 PUSH2 0x58D4 DUP4 CODECOPY DUP2 MLOAD SWAP2 MSTORE PUSH1 0x80 DUP7 MLOAD DUP7 DUP2 MSTORE DUP8 DUP14 DUP3 ADD MSTORE PUSH1 0x8 DUP9 DUP3 ADD MSTORE PUSH8 0x706C6174666F726D PUSH1 0xC0 SHL PUSH1 0x60 DUP3 ADD MSTORE LOG3 PUSH2 0x560D JUMP JUMPDEST DUP4 MLOAD PUSH3 0x461BCD PUSH1 0xE5 SHL DUP2 MSTORE PUSH1 0x4 DUP2 ADD DUP11 SWAP1 MSTORE PUSH1 0x1C PUSH1 0x24 DUP3 ADD MSTORE PUSH32 0x506C6174666F726D20666565207472616E73666572206661696C656400000000 PUSH1 0x44 DUP3 ADD MSTORE PUSH1 0x64 SWAP1 REVERT JUMPDEST SWAP2 SWAP1 DUP1 EXTCODESIZE PUSH2 0x57C9 JUMPI POP POP POP POP JUMP JUMPDEST PUSH2 0x580B PUSH1 0x1 DUP1 PUSH1 0xA0 SHL SUB DUP1 SWAP3 AND SWAP5 PUSH1 0x40 MLOAD SWAP4 DUP5 SWAP4 PUSH4 0xA85BD01 PUSH1 0xE1 SHL SWAP7 DUP8 DUP7 MSTORE CALLER PUSH1 0x4 DUP8 ADD MSTORE AND PUSH1 0x24 DUP6 ADD MSTORE PUSH1 0x44 DUP5 ADD MSTORE PUSH1 0x80 PUSH1 0x64 DUP5 ADD MSTORE PUSH1 0x84 DUP4 ADD SWAP1 PUSH2 0x39AF JUMP JUMPDEST SUB SWAP1 PUSH1 0x20 DUP2 PUSH1 0x0 SWAP4 DUP2 DUP6 DUP9 GAS CALL SWAP1 DUP3 SWAP1 DUP3 PUSH2 0x588A JUMPI JUMPDEST POP POP PUSH2 0x5859 JUMPI DUP3 PUSH2 0x5830 PUSH2 0x4811 JUMP JUMPDEST DUP1 MLOAD SWAP2 SWAP1 DUP3 PUSH2 0x5852 JUMPI PUSH1 0x40 MLOAD PUSH4 0x32505749 PUSH1 0xE1 SHL DUP2 MSTORE PUSH1 0x4 DUP2 ADD DUP4 SWAP1 MSTORE PUSH1 0x24 SWAP1 REVERT JUMPDEST SWAP1 POP PUSH1 0x20 ADD REVERT JUMPDEST PUSH1 0x1 PUSH1 0x1 PUSH1 0xE0 SHL SUB NOT AND SUB PUSH2 0x5872 JUMPI POP CODESIZE DUP1 DUP1 DUP1 PUSH2 0x48F3 JUMP JUMPDEST PUSH1 0x24 SWAP1 PUSH1 0x40 MLOAD SWAP1 PUSH4 0x32505749 PUSH1 0xE1 SHL DUP3 MSTORE PUSH1 0x4 DUP3 ADD MSTORE REVERT JUMPDEST SWAP1 SWAP2 SWAP3 POP PUSH1 0x20 DUP2 RETURNDATASIZE PUSH1 0x20 GT PUSH2 0x58CB JUMPI JUMPDEST DUP2 PUSH2 0x58A7 PUSH1 0x20 SWAP4 DUP4 PUSH2 0x3A5F JUMP JUMPDEST DUP2 ADD SUB SLT PUSH2 0x4E30 JUMPI MLOAD SWAP1 PUSH1 0x1 PUSH1 0x1 PUSH1 0xE0 SHL SUB NOT DUP3 AND DUP3 SUB PUSH2 0x4E2D JUMPI POP SWAP1 CODESIZE DUP1 PUSH2 0x5821 JUMP JUMPDEST RETURNDATASIZE SWAP2 POP PUSH2 0x589A JUMP INVALID 0xC5 GT PUSH14 0xBFF033DAA6DB9B6CF401237EF4F DUP6 LOG0 0xA6 0xCB 0xE3 0x2B 0xFB MSTORE8 0xD1 DUP10 0xB3 0xE6 0xC4 0xBA 0xD6 PREVRANDAO 0xA7 CALLVALUE 0x22 DUP9 EXTCODEHASH 0xD5 0xAA 0xC8 0xDD 0xE6 0xEF CALLDATASIZE DUP9 0xC6 0x2F 0x25 LOG4 0xFB 0x22 0xE7 LOG3 SWAP6 0xBA 0xFB COINBASE 0x1E 0xC4 DUP1 GASPRICE 0xB1 0xBD PUSH27 0x9A4F151CC0B6349BD7062416B8F68D1D73C3F457EFC221520EB554 PUSH22 0x95D2D8F1A038A86C47446D2A26B7852348EEE74E6D63 0xD5 0xA7 OR SWAP3 0xDF ADD 0xE4 0xC 0x2E PUSH14 0xE1CA21459509071E134F17A1632 DUP10 0xD2 0x28 PUSH7 0x72B4E8C1AF62C9 0xCD 0xD2 0x2E 0xAB 0xDC PUSH12 0xEE9217F3A264697066735822 SLT KECCAK256 PUSH24 0x2A418294ACBD2AC2618FE1294CD93F385E92A210E9F453EB CALLDATACOPY EXTCODEHASH 0xC3 BYTE SWAP8 MSTORE8 JUMPI PUSH5 0x736F6C6343 STOP ADDMOD XOR STOP CALLER "},"methodIdentifiers":{"BPS_DENOMINATOR()":"e1a45218","MAX_BATCH_SIZE()":"cfdbf254","MAX_FEE_BPS()":"d55be8c6","adminBurn(uint256)":"badb97ff","approve(address,uint256)":"095ea7b3","balanceOf(address)":"70a08231","batchFixTokenCampaignLink(uint256[],uint256)":"1e2b8983","batchFreezeTokens(uint256[],bool)":"4639cfaa","batchSetTokenURI(uint256[],string)":"8f52d21a","blacklistAddress(address)":"f3290d75","blacklisted(address)":"dbac26e9","bugBountyPool()":"5049e52f","burn(uint256)":"42966c68","campaignDistributed(uint256)":"573a2427","campaignEditions(uint256,uint256)":"407de9df","campaigns(uint256)":"141961bc","closeCampaign(uint256)":"b0e1c1e1","createCampaign(string,string,uint256,uint256,uint256,address,address,bool)":"9b640d43","deactivateCampaign(uint256)":"7eca30fe","defaultRoyaltyBps()":"18d33e41","deleteDefaultRoyalty()":"aa1b103f","deploymentChainId()":"cd0d0096","distributePendingFunds(uint256)":"57487aa5","emergencyWithdraw()":"db2e21bc","emitBatchMetadataUpdate(uint256,uint256)":"a4830114","emitMetadataUpdate(uint256)":"3190b9ea","feeConfig()":"1e5eb1d0","fixTokenCampaignLink(uint256,uint256)":"96ab0493","freezeToken(uint256)":"b6854f96","frozenTokens(uint256)":"f401f8a0","fundBugBountyPool()":"4cbdbfa9","getApproved(uint256)":"081812fc","getCampaign(uint256)":"5598f8cc","getCampaignEditions(uint256)":"3705f2a8","getEditionInfo(uint256)":"8079ca0c","getFeeConfig()":"5fbbc0d2","isApprovedForAll(address,address)":"e985e9c5","makeSoulbound(uint256)":"a591eea1","markCampaignRefunded(uint256)":"a0a441bb","mintBatchWithBDAG(uint256,uint256)":"8e20f98c","mintBatchWithBDAGAndTip(uint256,uint256,uint256)":"4db7bfff","mintBatchWithImmediatePayout(uint256,uint256)":"e2ec62f9","mintBatchWithImmediatePayoutAndTip(uint256,uint256,uint256)":"49942b0f","mintEditionToDonor(uint256,address,uint256)":"2a76d553","mintWithBDAG(uint256)":"d88d6ef3","mintWithBDAGAndTip(uint256,uint256)":"1797c8f2","mintWithImmediatePayout(uint256)":"80b2f18d","mintWithImmediatePayoutAndTip(uint256,uint256)":"eb4d68fd","name()":"06fdde03","owner()":"8da5cb5b","ownerOf(uint256)":"6352211e","pause()":"8456cb59","paused()":"5c975abb","payBugBounty(address,uint256,string)":"8583d7c0","platformTreasury()":"e138818c","reactivateCampaign(uint256)":"1fdc217c","recordContribution(uint256,uint256,uint256,uint256,bool)":"25532ecd","removeBlacklist(address)":"eb91e651","removeSoulbound(uint256)":"47c735fc","renounceOwnership()":"715018a6","royaltyInfo(uint256,uint256)":"2a55205a","safeTransferFrom(address,address,uint256)":"42842e0e","safeTransferFrom(address,address,uint256,bytes)":"b88d4fde","setApprovalForAll(address,bool)":"a22cb465","setCampaignImmediatePayout(uint256,bool)":"15e5b793","setDefaultRoyalty(address,uint96)":"04634d8d","setFeeConfig(uint16,bool)":"d83b4f99","setPlatformTreasury(address)":"7cd86d60","setTokenRoyalty(uint256,address,uint96)":"5944c753","setTokenURI(uint256,string)":"162094c4","soulbound(uint256)":"7a181597","supportsInterface(bytes4)":"01ffc9a7","symbol()":"95d89b41","tokenByIndex(uint256)":"4f6ccce7","tokenEditionNumber(uint256)":"b6358d99","tokenOfOwnerByIndex(address,uint256)":"2f745c59","tokenToCampaign(uint256)":"c1692213","tokenURI(uint256)":"c87b56dd","totalCampaigns()":"02932f56","totalSupply()":"18160ddd","transferFrom(address,address,uint256)":"23b872dd","transferOwnership(address)":"f2fde38b","unfreezeToken(uint256)":"4d787ea9","unpause()":"3f4ba83a","updateCampaignCategory(uint256,string)":"c608e72a","updateCampaignGoal(uint256,uint256)":"51a0bbb2","updateCampaignMaxEditions(uint256,uint256)":"1cc76d75","updateCampaignMetadata(uint256,string)":"1dda279b","updateCampaignNonprofit(uint256,address)":"64094ced","updateCampaignPrice(uint256,uint256)":"fb77211c","updateCampaignSubmitter(uint256,address)":"6fb8696c","withdraw(address,uint256)":"f3fef3a3"}}}}}