{
  "_format": "hh-sol-artifact-1",
  "contractName": "PatriotPledgeGovernance",
  "sourceName": "contracts/PatriotPledgeGovernance.sol",
  "abi": [
    {
      "inputs": [
        {
          "internalType": "address",
          "name": "_govToken",
          "type": "address"
        }
      ],
      "stateMutability": "nonpayable",
      "type": "constructor"
    },
    {
      "inputs": [
        {
          "internalType": "address",
          "name": "owner",
          "type": "address"
        }
      ],
      "name": "OwnableInvalidOwner",
      "type": "error"
    },
    {
      "inputs": [
        {
          "internalType": "address",
          "name": "account",
          "type": "address"
        }
      ],
      "name": "OwnableUnauthorizedAccount",
      "type": "error"
    },
    {
      "anonymous": false,
      "inputs": [
        {
          "indexed": true,
          "internalType": "uint256",
          "name": "id",
          "type": "uint256"
        }
      ],
      "name": "Closed",
      "type": "event"
    },
    {
      "anonymous": false,
      "inputs": [
        {
          "indexed": true,
          "internalType": "uint256",
          "name": "id",
          "type": "uint256"
        },
        {
          "indexed": false,
          "internalType": "bool",
          "name": "open",
          "type": "bool"
        }
      ],
      "name": "Moderated",
      "type": "event"
    },
    {
      "anonymous": false,
      "inputs": [
        {
          "indexed": true,
          "internalType": "address",
          "name": "previousOwner",
          "type": "address"
        },
        {
          "indexed": true,
          "internalType": "address",
          "name": "newOwner",
          "type": "address"
        }
      ],
      "name": "OwnershipTransferred",
      "type": "event"
    },
    {
      "anonymous": false,
      "inputs": [
        {
          "indexed": true,
          "internalType": "uint256",
          "name": "id",
          "type": "uint256"
        },
        {
          "indexed": true,
          "internalType": "address",
          "name": "creator",
          "type": "address"
        },
        {
          "indexed": false,
          "internalType": "string",
          "name": "title",
          "type": "string"
        },
        {
          "indexed": false,
          "internalType": "string",
          "name": "category",
          "type": "string"
        }
      ],
      "name": "ProposalCreated",
      "type": "event"
    },
    {
      "anonymous": false,
      "inputs": [
        {
          "indexed": true,
          "internalType": "uint256",
          "name": "id",
          "type": "uint256"
        },
        {
          "indexed": true,
          "internalType": "address",
          "name": "voter",
          "type": "address"
        },
        {
          "indexed": false,
          "internalType": "bool",
          "name": "support",
          "type": "bool"
        },
        {
          "indexed": false,
          "internalType": "uint256",
          "name": "weight",
          "type": "uint256"
        }
      ],
      "name": "Voted",
      "type": "event"
    },
    {
      "inputs": [
        {
          "internalType": "uint256",
          "name": "id",
          "type": "uint256"
        }
      ],
      "name": "close",
      "outputs": [],
      "stateMutability": "nonpayable",
      "type": "function"
    },
    {
      "inputs": [
        {
          "internalType": "string",
          "name": "title",
          "type": "string"
        },
        {
          "internalType": "string",
          "name": "description",
          "type": "string"
        },
        {
          "internalType": "string",
          "name": "category",
          "type": "string"
        }
      ],
      "name": "createProposal",
      "outputs": [
        {
          "internalType": "uint256",
          "name": "",
          "type": "uint256"
        }
      ],
      "stateMutability": "nonpayable",
      "type": "function"
    },
    {
      "inputs": [],
      "name": "govToken",
      "outputs": [
        {
          "internalType": "contract IERC20",
          "name": "",
          "type": "address"
        }
      ],
      "stateMutability": "view",
      "type": "function"
    },
    {
      "inputs": [
        {
          "internalType": "uint256",
          "name": "",
          "type": "uint256"
        },
        {
          "internalType": "address",
          "name": "",
          "type": "address"
        }
      ],
      "name": "hasVoted",
      "outputs": [
        {
          "internalType": "bool",
          "name": "",
          "type": "bool"
        }
      ],
      "stateMutability": "view",
      "type": "function"
    },
    {
      "inputs": [
        {
          "internalType": "uint256",
          "name": "id",
          "type": "uint256"
        },
        {
          "internalType": "bool",
          "name": "open",
          "type": "bool"
        }
      ],
      "name": "moderate",
      "outputs": [],
      "stateMutability": "nonpayable",
      "type": "function"
    },
    {
      "inputs": [],
      "name": "nextId",
      "outputs": [
        {
          "internalType": "uint256",
          "name": "",
          "type": "uint256"
        }
      ],
      "stateMutability": "view",
      "type": "function"
    },
    {
      "inputs": [],
      "name": "owner",
      "outputs": [
        {
          "internalType": "address",
          "name": "",
          "type": "address"
        }
      ],
      "stateMutability": "view",
      "type": "function"
    },
    {
      "inputs": [
        {
          "internalType": "uint256",
          "name": "",
          "type": "uint256"
        }
      ],
      "name": "proposals",
      "outputs": [
        {
          "internalType": "uint256",
          "name": "id",
          "type": "uint256"
        },
        {
          "internalType": "address",
          "name": "creator",
          "type": "address"
        },
        {
          "internalType": "string",
          "name": "title",
          "type": "string"
        },
        {
          "internalType": "string",
          "name": "description",
          "type": "string"
        },
        {
          "internalType": "string",
          "name": "category",
          "type": "string"
        },
        {
          "internalType": "uint256",
          "name": "yesVotes",
          "type": "uint256"
        },
        {
          "internalType": "uint256",
          "name": "noVotes",
          "type": "uint256"
        },
        {
          "internalType": "bool",
          "name": "open",
          "type": "bool"
        },
        {
          "internalType": "uint256",
          "name": "createdAt",
          "type": "uint256"
        }
      ],
      "stateMutability": "view",
      "type": "function"
    },
    {
      "inputs": [],
      "name": "renounceOwnership",
      "outputs": [],
      "stateMutability": "nonpayable",
      "type": "function"
    },
    {
      "inputs": [
        {
          "internalType": "address",
          "name": "newOwner",
          "type": "address"
        }
      ],
      "name": "transferOwnership",
      "outputs": [],
      "stateMutability": "nonpayable",
      "type": "function"
    },
    {
      "inputs": [
        {
          "internalType": "uint256",
          "name": "id",
          "type": "uint256"
        },
        {
          "internalType": "bool",
          "name": "support",
          "type": "bool"
        }
      ],
      "name": "vote",
      "outputs": [],
      "stateMutability": "nonpayable",
      "type": "function"
    }
  ],
  "bytecode": "0x6080346100c657601f610e5b38819003918201601f19168301916001600160401b038311848410176100cb578084926020946040528339810103126100c657516001600160a01b0390818116908190036100c65733156100ad5760005460018060a01b0319903382821617600055604051933391167f8be0079c531659141344cd1fd0a4f28419497f9722a3daafe3b4186f6b6457e0600080a36001541617600155610d7990816100e28239f35b604051631e4fbdf760e01b815260006004820152602490fd5b600080fd5b634e487b7160e01b600052604160045260246000fdfe6080604052600436101561001257600080fd5b60003560e01c8063013cf08b14610a8157806305268cff14610a585780630aebeb4e146109c45780634385963214610972578063583cf3791461040d57806361b8ce8c146103ef578063715018a6146103965780638da5cb5b1461036d578063c9d27afe14610196578063eb07a5c61461012a5763f2fde38b1461009557600080fd5b34610125576020366003190112610125576004356001600160a01b0381811691829003610125576100c4610d17565b811561010c57600054826bffffffffffffffffffffffff60a01b821617600055167f8be0079c531659141344cd1fd0a4f28419497f9722a3daafe3b4186f6b6457e0600080a3005b604051631e4fbdf760e01b815260006004820152602490fd5b600080fd5b346101255760207faf25038e48af5f441876ef4cc93ce6fe35d6e17da08b794873f222d5aa05989961015b36610ceb565b610166939193610d17565b836000526003825261018b8160076040600020019060ff801983541691151516179055565b6040519015158152a2005b34610125576101a436610ceb565b9080600052602060038152604060002060ff6007820154161561033f578260005260048252604060002033600052825260ff60406000205416610312576001546040516370a0823160e01b81523360048201529291908290849060249082906001600160a01b03165afa928315610306576000936102d7575b5082156102a657841561029157600501610238838254610d0a565b90555b826000526004815260406000203360005281526040600020600160ff1982541617905560405193151584528301527f7c2de587c00d75474a0c6c6fa96fd3b45dc974cd4e8a75f712bb84c950dce1b560403393a3005b60060161029f838254610d0a565b905561023b565b60405162461bcd60e51b81526004810183905260096024820152681b9bc81dd95a59da1d60ba1b6044820152606490fd5b9092508181813d83116102ff575b6102ef8183610b8d565b810103126101255751918561021d565b503d6102e5565b6040513d6000823e3d90fd5b60405162461bcd60e51b81526004810183905260056024820152641d9bdd195960da1b6044820152606490fd5b60405162461bcd60e51b815260048101839052600660248201526518db1bdcd95960d21b6044820152606490fd5b34610125576000366003190112610125576000546040516001600160a01b039091168152602090f35b34610125576000366003190112610125576103af610d17565b600080546001600160a01b0319811682556001600160a01b03167f8be0079c531659141344cd1fd0a4f28419497f9722a3daafe3b4186f6b6457e08280a3005b34610125576000366003190112610125576020600254604051908152f35b346101255760603660031901126101255760043567ffffffffffffffff81116101255761043e903690600401610c94565b60243567ffffffffffffffff81116101255761045e903690600401610c94565b9060443567ffffffffffffffff81116101255761047f903690600401610c94565b6002549190600019831461095c576001830160025560405193610120850185811067ffffffffffffffff8211176107a657604052600184018552602085019033825260408601908482526060870152826080870152600060a0870152600060c0870152600160e08701524261010087015260018501600052600360205260406000209186518355600183019060018060a01b039051166bffffffffffffffffffffffff60a01b8254161790555180519067ffffffffffffffff82116107a657819061054d6002850154610b53565b601f8111610909575b50602090601f83116001146108975760009261088c575b50508160011b916000199060031b1c19161760028201555b606085015180519067ffffffffffffffff82116107a65781906105ab6003850154610b53565b601f8111610839575b50602090601f83116001146107c7576000926107bc575b50508160011b916000199060031b1c19161760038201555b608085015194855167ffffffffffffffff81116107a6576106076004840154610b53565b96601f881161075f575b602097508790601f83116001146106eb57918060089492610100946000926106e0575b50508160011b916000199060031b1c19161760048501555b60a0810151600585015560c0810151600685015561067f60e08201511515600786019060ff801983541691151516179055565b01519101557fe1a39bb955c12c02b24074e4d2e09a80ed84a64ce9b4454b47456e8a26f96e756106ba60405193604085526040850190610c54565b9280840386820152806106d233956001880195610c54565b0390a3600160405191018152f35b015190508a80610634565b9060048501600052886000209160005b601f1985168110610748575092600894926001926101009583601f1981161061072f575b505050811b01600485015561064c565b015160001960f88460031b161c191690558a808061071f565b91928a6001819286850151815501940192016106fb565b600484016000526020600020601f830160051c81016020841061079f575b601f8a0160051c82018110610793575050610611565b6000815560010161077d565b508061077d565b634e487b7160e01b600052604160045260246000fd5b0151905087806105cb565b9250600384016000526020600020906000935b601f198416851061081e576001945083601f19811610610805575b505050811b0160038201556105e3565b015160001960f88460031b161c191690558780806107f5565b818101518355602094850194600190930192909101906107da565b909150600384016000526020600020601f840160051c810160208510610885575b90849392915b601f830160051c820181106108765750506105b4565b60008155859450600101610860565b508061085a565b01519050878061056d565b9250600284016000526020600020906000935b601f19841685106108ee576001945083601f198116106108d5575b505050811b016002820155610585565b015160001960f88460031b161c191690558780806108c5565b818101518355602094850194600190930192909101906108aa565b909150600284016000526020600020601f840160051c810160208510610955575b90849392915b601f830160051c82018110610946575050610556565b60008155859450600101610930565b508061092a565b634e487b7160e01b600052601160045260246000fd5b34610125576040366003190112610125576024356001600160a01b03811690819003610125576004356000526004602052604060002090600052602052602060ff604060002054166040519015158152f35b34610125576020366003190112610125576004356109e0610d17565b8060005260036020526007604060002001805460ff811615610a295760ff191690557f6cc09e7b5c3e49861ebe8f6867e1618fbfc14c8d0e968fde37c4243ca02a6f83600080a2005b60405162461bcd60e51b8152602060048201526007602482015266616c726561647960c81b6044820152606490fd5b34610125576000366003190112610125576001546040516001600160a01b039091168152602090f35b34610125576020366003190112610125576004356000526003602052604060002080549060018060a01b0360018201541690610abf60028201610baf565b610acb60038301610baf565b91610ad860048201610baf565b92610b37600583015494610b29600685015493610b1b600860ff600789015416970154976040519b8c9b610120918d5260208d01528060408d01528b0190610c54565b9089820360608b0152610c54565b908782036080890152610c54565b9360a086015260c0850152151560e08401526101008301520390f35b90600182811c92168015610b83575b6020831014610b6d57565b634e487b7160e01b600052602260045260246000fd5b91607f1691610b62565b90601f8019910116810190811067ffffffffffffffff8211176107a657604052565b90604051918260008254610bc281610b53565b90818452602094600191600181169081600014610c325750600114610bf3575b505050610bf192500383610b8d565b565b600090815285812095935091905b818310610c1a575050610bf19350820101388080610be2565b85548884018501529485019487945091830191610c01565b92505050610bf194925060ff191682840152151560051b820101388080610be2565b919082519283825260005b848110610c80575050826000602080949584010152601f8019910116010190565b602081830181015184830182015201610c5f565b81601f820112156101255780359067ffffffffffffffff82116107a65760405192610cc9601f8401601f191660200185610b8d565b8284526020838301011161012557816000926020809301838601378301015290565b6040906003190112610125576004359060243580151581036101255790565b9190820180921161095c57565b6000546001600160a01b03163303610d2b57565b60405163118cdaa760e01b8152336004820152602490fdfea2646970667358221220a162722b400b2196e125c66e201e51ae72b1886bd8b6825307cd40c84d945f3c64736f6c63430008180033",
  "linkReferences": {},
  "deployedLinkReferences": {}
}