{
  "_format": "hh-sol-artifact-1",
  "contractName": "PatriotPledgeNFTV2",
  "sourceName": "contracts/PatriotPledgeNFTV2.sol",
  "abi": [
    {
      "inputs": [],
      "stateMutability": "nonpayable",
      "type": "constructor"
    },
    {
      "inputs": [],
      "name": "ERC721EnumerableForbiddenBatchMint",
      "type": "error"
    },
    {
      "inputs": [
        {
          "internalType": "address",
          "name": "sender",
          "type": "address"
        },
        {
          "internalType": "uint256",
          "name": "tokenId",
          "type": "uint256"
        },
        {
          "internalType": "address",
          "name": "owner",
          "type": "address"
        }
      ],
      "name": "ERC721IncorrectOwner",
      "type": "error"
    },
    {
      "inputs": [
        {
          "internalType": "address",
          "name": "operator",
          "type": "address"
        },
        {
          "internalType": "uint256",
          "name": "tokenId",
          "type": "uint256"
        }
      ],
      "name": "ERC721InsufficientApproval",
      "type": "error"
    },
    {
      "inputs": [
        {
          "internalType": "address",
          "name": "approver",
          "type": "address"
        }
      ],
      "name": "ERC721InvalidApprover",
      "type": "error"
    },
    {
      "inputs": [
        {
          "internalType": "address",
          "name": "operator",
          "type": "address"
        }
      ],
      "name": "ERC721InvalidOperator",
      "type": "error"
    },
    {
      "inputs": [
        {
          "internalType": "address",
          "name": "owner",
          "type": "address"
        }
      ],
      "name": "ERC721InvalidOwner",
      "type": "error"
    },
    {
      "inputs": [
        {
          "internalType": "address",
          "name": "receiver",
          "type": "address"
        }
      ],
      "name": "ERC721InvalidReceiver",
      "type": "error"
    },
    {
      "inputs": [
        {
          "internalType": "address",
          "name": "sender",
          "type": "address"
        }
      ],
      "name": "ERC721InvalidSender",
      "type": "error"
    },
    {
      "inputs": [
        {
          "internalType": "uint256",
          "name": "tokenId",
          "type": "uint256"
        }
      ],
      "name": "ERC721NonexistentToken",
      "type": "error"
    },
    {
      "inputs": [
        {
          "internalType": "address",
          "name": "owner",
          "type": "address"
        },
        {
          "internalType": "uint256",
          "name": "index",
          "type": "uint256"
        }
      ],
      "name": "ERC721OutOfBoundsIndex",
      "type": "error"
    },
    {
      "inputs": [
        {
          "internalType": "address",
          "name": "owner",
          "type": "address"
        }
      ],
      "name": "OwnableInvalidOwner",
      "type": "error"
    },
    {
      "inputs": [
        {
          "internalType": "address",
          "name": "account",
          "type": "address"
        }
      ],
      "name": "OwnableUnauthorizedAccount",
      "type": "error"
    },
    {
      "anonymous": false,
      "inputs": [
        {
          "indexed": true,
          "internalType": "address",
          "name": "owner",
          "type": "address"
        },
        {
          "indexed": true,
          "internalType": "address",
          "name": "approved",
          "type": "address"
        },
        {
          "indexed": true,
          "internalType": "uint256",
          "name": "tokenId",
          "type": "uint256"
        }
      ],
      "name": "Approval",
      "type": "event"
    },
    {
      "anonymous": false,
      "inputs": [
        {
          "indexed": true,
          "internalType": "address",
          "name": "owner",
          "type": "address"
        },
        {
          "indexed": true,
          "internalType": "address",
          "name": "operator",
          "type": "address"
        },
        {
          "indexed": false,
          "internalType": "bool",
          "name": "approved",
          "type": "bool"
        }
      ],
      "name": "ApprovalForAll",
      "type": "event"
    },
    {
      "anonymous": false,
      "inputs": [
        {
          "indexed": false,
          "internalType": "uint256",
          "name": "_fromTokenId",
          "type": "uint256"
        },
        {
          "indexed": false,
          "internalType": "uint256",
          "name": "_toTokenId",
          "type": "uint256"
        }
      ],
      "name": "BatchMetadataUpdate",
      "type": "event"
    },
    {
      "anonymous": false,
      "inputs": [
        {
          "indexed": false,
          "internalType": "uint256",
          "name": "_tokenId",
          "type": "uint256"
        }
      ],
      "name": "MetadataUpdate",
      "type": "event"
    },
    {
      "anonymous": false,
      "inputs": [
        {
          "indexed": true,
          "internalType": "address",
          "name": "previousOwner",
          "type": "address"
        },
        {
          "indexed": true,
          "internalType": "address",
          "name": "newOwner",
          "type": "address"
        }
      ],
      "name": "OwnershipTransferred",
      "type": "event"
    },
    {
      "anonymous": false,
      "inputs": [
        {
          "indexed": true,
          "internalType": "uint256",
          "name": "tokenId",
          "type": "uint256"
        },
        {
          "indexed": false,
          "internalType": "string",
          "name": "newUri",
          "type": "string"
        }
      ],
      "name": "TokenURIUpdated",
      "type": "event"
    },
    {
      "anonymous": false,
      "inputs": [
        {
          "indexed": true,
          "internalType": "address",
          "name": "from",
          "type": "address"
        },
        {
          "indexed": true,
          "internalType": "address",
          "name": "to",
          "type": "address"
        },
        {
          "indexed": true,
          "internalType": "uint256",
          "name": "tokenId",
          "type": "uint256"
        }
      ],
      "name": "Transfer",
      "type": "event"
    },
    {
      "inputs": [
        {
          "internalType": "uint256",
          "name": "tokenId",
          "type": "uint256"
        },
        {
          "internalType": "uint256",
          "name": "amount",
          "type": "uint256"
        }
      ],
      "name": "addRaised",
      "outputs": [],
      "stateMutability": "nonpayable",
      "type": "function"
    },
    {
      "inputs": [
        {
          "internalType": "address",
          "name": "to",
          "type": "address"
        },
        {
          "internalType": "uint256",
          "name": "tokenId",
          "type": "uint256"
        }
      ],
      "name": "approve",
      "outputs": [],
      "stateMutability": "nonpayable",
      "type": "function"
    },
    {
      "inputs": [
        {
          "internalType": "address",
          "name": "owner",
          "type": "address"
        }
      ],
      "name": "balanceOf",
      "outputs": [
        {
          "internalType": "uint256",
          "name": "",
          "type": "uint256"
        }
      ],
      "stateMutability": "view",
      "type": "function"
    },
    {
      "inputs": [
        {
          "internalType": "uint256",
          "name": "tokenId",
          "type": "uint256"
        }
      ],
      "name": "burn",
      "outputs": [],
      "stateMutability": "nonpayable",
      "type": "function"
    },
    {
      "inputs": [
        {
          "internalType": "uint256",
          "name": "",
          "type": "uint256"
        }
      ],
      "name": "campaigns",
      "outputs": [
        {
          "internalType": "string",
          "name": "category",
          "type": "string"
        },
        {
          "internalType": "uint256",
          "name": "goal",
          "type": "uint256"
        },
        {
          "internalType": "uint256",
          "name": "raised",
          "type": "uint256"
        }
      ],
      "stateMutability": "view",
      "type": "function"
    },
    {
      "inputs": [
        {
          "internalType": "uint256",
          "name": "tokenId",
          "type": "uint256"
        }
      ],
      "name": "getApproved",
      "outputs": [
        {
          "internalType": "address",
          "name": "",
          "type": "address"
        }
      ],
      "stateMutability": "view",
      "type": "function"
    },
    {
      "inputs": [
        {
          "internalType": "address",
          "name": "owner",
          "type": "address"
        },
        {
          "internalType": "address",
          "name": "operator",
          "type": "address"
        }
      ],
      "name": "isApprovedForAll",
      "outputs": [
        {
          "internalType": "bool",
          "name": "",
          "type": "bool"
        }
      ],
      "stateMutability": "view",
      "type": "function"
    },
    {
      "inputs": [
        {
          "internalType": "address",
          "name": "to",
          "type": "address"
        },
        {
          "internalType": "string",
          "name": "uri",
          "type": "string"
        },
        {
          "internalType": "string",
          "name": "category",
          "type": "string"
        },
        {
          "internalType": "uint256",
          "name": "goal",
          "type": "uint256"
        }
      ],
      "name": "mint",
      "outputs": [
        {
          "internalType": "uint256",
          "name": "",
          "type": "uint256"
        }
      ],
      "stateMutability": "nonpayable",
      "type": "function"
    },
    {
      "inputs": [],
      "name": "name",
      "outputs": [
        {
          "internalType": "string",
          "name": "",
          "type": "string"
        }
      ],
      "stateMutability": "view",
      "type": "function"
    },
    {
      "inputs": [],
      "name": "owner",
      "outputs": [
        {
          "internalType": "address",
          "name": "",
          "type": "address"
        }
      ],
      "stateMutability": "view",
      "type": "function"
    },
    {
      "inputs": [
        {
          "internalType": "uint256",
          "name": "tokenId",
          "type": "uint256"
        }
      ],
      "name": "ownerOf",
      "outputs": [
        {
          "internalType": "address",
          "name": "",
          "type": "address"
        }
      ],
      "stateMutability": "view",
      "type": "function"
    },
    {
      "inputs": [],
      "name": "renounceOwnership",
      "outputs": [],
      "stateMutability": "nonpayable",
      "type": "function"
    },
    {
      "inputs": [
        {
          "internalType": "address",
          "name": "from",
          "type": "address"
        },
        {
          "internalType": "address",
          "name": "to",
          "type": "address"
        },
        {
          "internalType": "uint256",
          "name": "tokenId",
          "type": "uint256"
        }
      ],
      "name": "safeTransferFrom",
      "outputs": [],
      "stateMutability": "nonpayable",
      "type": "function"
    },
    {
      "inputs": [
        {
          "internalType": "address",
          "name": "from",
          "type": "address"
        },
        {
          "internalType": "address",
          "name": "to",
          "type": "address"
        },
        {
          "internalType": "uint256",
          "name": "tokenId",
          "type": "uint256"
        },
        {
          "internalType": "bytes",
          "name": "data",
          "type": "bytes"
        }
      ],
      "name": "safeTransferFrom",
      "outputs": [],
      "stateMutability": "nonpayable",
      "type": "function"
    },
    {
      "inputs": [
        {
          "internalType": "address",
          "name": "operator",
          "type": "address"
        },
        {
          "internalType": "bool",
          "name": "approved",
          "type": "bool"
        }
      ],
      "name": "setApprovalForAll",
      "outputs": [],
      "stateMutability": "nonpayable",
      "type": "function"
    },
    {
      "inputs": [
        {
          "internalType": "bytes4",
          "name": "interfaceId",
          "type": "bytes4"
        }
      ],
      "name": "supportsInterface",
      "outputs": [
        {
          "internalType": "bool",
          "name": "",
          "type": "bool"
        }
      ],
      "stateMutability": "view",
      "type": "function"
    },
    {
      "inputs": [],
      "name": "symbol",
      "outputs": [
        {
          "internalType": "string",
          "name": "",
          "type": "string"
        }
      ],
      "stateMutability": "view",
      "type": "function"
    },
    {
      "inputs": [
        {
          "internalType": "uint256",
          "name": "index",
          "type": "uint256"
        }
      ],
      "name": "tokenByIndex",
      "outputs": [
        {
          "internalType": "uint256",
          "name": "",
          "type": "uint256"
        }
      ],
      "stateMutability": "view",
      "type": "function"
    },
    {
      "inputs": [
        {
          "internalType": "address",
          "name": "owner",
          "type": "address"
        },
        {
          "internalType": "uint256",
          "name": "index",
          "type": "uint256"
        }
      ],
      "name": "tokenOfOwnerByIndex",
      "outputs": [
        {
          "internalType": "uint256",
          "name": "",
          "type": "uint256"
        }
      ],
      "stateMutability": "view",
      "type": "function"
    },
    {
      "inputs": [
        {
          "internalType": "uint256",
          "name": "tokenId",
          "type": "uint256"
        }
      ],
      "name": "tokenURI",
      "outputs": [
        {
          "internalType": "string",
          "name": "",
          "type": "string"
        }
      ],
      "stateMutability": "view",
      "type": "function"
    },
    {
      "inputs": [],
      "name": "totalSupply",
      "outputs": [
        {
          "internalType": "uint256",
          "name": "",
          "type": "uint256"
        }
      ],
      "stateMutability": "view",
      "type": "function"
    },
    {
      "inputs": [
        {
          "internalType": "address",
          "name": "from",
          "type": "address"
        },
        {
          "internalType": "address",
          "name": "to",
          "type": "address"
        },
        {
          "internalType": "uint256",
          "name": "tokenId",
          "type": "uint256"
        }
      ],
      "name": "transferFrom",
      "outputs": [],
      "stateMutability": "nonpayable",
      "type": "function"
    },
    {
      "inputs": [
        {
          "internalType": "address",
          "name": "newOwner",
          "type": "address"
        }
      ],
      "name": "transferOwnership",
      "outputs": [],
      "stateMutability": "nonpayable",
      "type": "function"
    },
    {
      "inputs": [
        {
          "internalType": "uint256",
          "name": "tokenId",
          "type": "uint256"
        },
        {
          "internalType": "string",
          "name": "newUri",
          "type": "string"
        }
      ],
      "name": "updateTokenURI",
      "outputs": [],
      "stateMutability": "nonpayable",
      "type": "function"
    }
  ],
  "bytecode": "0x60803462000380576001600160401b03906040818101838111838210176200036a578152601282526020917114185d1c9a5bdd08141b195919d94813919560721b83820152815193828501858110828211176200036a5783526005855264141413919560da1b8486015281518181116200036a576000948554916001948584811c941680156200035f575b838510146200034b578190601f94858111620002f8575b5083908583116001146200029457899262000288575b5050600019600383901b1c191690851b1786555b8651928311620002745783548481811c9116801562000269575b8282101462000255578281116200020d575b5080918311600114620001a65750849582939495926200019a575b5050600019600383901b1c191690821b1790555b33156200018257600b8054336001600160a01b03198216811790925591519290916001600160a01b0316907f8be0079c531659141344cd1fd0a4f28419497f9722a3daafe3b4186f6b6457e09080a3611b4a9081620003868239f35b51631e4fbdf760e01b81526004810191909152602490fd5b01519050388062000112565b90601f198316968487528287209287905b898210620001f5575050838596979810620001db575b505050811b01905562000126565b015160001960f88460031b161c19169055388080620001cd565b808785968294968601518155019501930190620001b7565b8487528187208380860160051c8201928487106200024b575b0160051c019085905b8281106200023f575050620000f7565b8881550185906200022f565b9250819262000226565b634e487b7160e01b87526022600452602487fd5b90607f1690620000e5565b634e487b7160e01b86526041600452602486fd5b015190503880620000b7565b898052848a208894509190601f1984168b5b87828210620002e15750508411620002c7575b505050811b018655620000cb565b015160001960f88460031b161c19169055388080620002b9565b8385015186558b97909501949384019301620002a6565b9091508880528389208580850160051c82019286861062000341575b918991869594930160051c01915b82811062000332575050620000a1565b8b815585945089910162000322565b9250819262000314565b634e487b7160e01b88526022600452602488fd5b93607f16936200008a565b634e487b7160e01b600052604160045260246000fd5b600080fdfe608080604052600436101561001357600080fd5b60003560e01c90816301ffc9a7146111f75750806306fdde031461114c578063081812fc1461110e578063095ea7b3146110275780630f42949a14610fe9578063141961bc14610f8e57806318160ddd14610f7057806318e97fd114610ed057806323b872dd14610eb95780632f745c5914610e3557806342842e0e14610e0757806342966c6814610b695780634f6ccce714610b135780636352211e14610ae357806370a0823114610ab8578063715018a614610a5b578063853d42ad1461048b5780638da5cb5b1461046257806395d89b411461037f578063a22cb465146102da578063b88d4fde1461026d578063c87b56dd14610210578063e985e9c5146101ba5763f2fde38b1461012757600080fd5b346101b55760203660031901126101b5576101406112d6565b610148611837565b6001600160a01b0390811690811561019c57600b54826bffffffffffffffffffffffff60a01b821617600b55167f8be0079c531659141344cd1fd0a4f28419497f9722a3daafe3b4186f6b6457e0600080a3005b604051631e4fbdf760e01b815260006004820152602490fd5b600080fd5b346101b55760403660031901126101b5576101d36112d6565b6101db6112ec565b9060018060a01b03809116600052600560205260406000209116600052602052602060ff604060002054166040519015158152f35b346101b55760203660031901126101b55760043561022d81611814565b50600052600a602052610269610246604060002061137a565b60006040516102548161133c565b52604051918291602083526020830190611296565b0390f35b346101b55760803660031901126101b5576102866112d6565b61028e6112ec565b906044356064359267ffffffffffffffff84116101b557366023850112156101b5576102c76102d894369060248160040135910161149e565b926102d38383836114d5565b6119cc565b005b346101b55760403660031901126101b5576102f36112d6565b602435908115158092036101b5576001600160a01b031690811561036657336000526005602052604060002082600052602052604060002060ff1981541660ff83161790556040519081527f17307eab39ab6107e8899845ad3d59bd9653f200f220920489ca2b5937696c3160203392a3005b604051630b61174360e31b815260048101839052602490fd5b346101b55760003660031901126101b5576040516000600182600154926103a584611302565b92838352602094856001821691826000146104425750506001146103e5575b506103d192500383611358565b610269604051928284938452830190611296565b84915060016000527fb10e2d527612073b26eecdfd717e6a320cf44b4afac2b0732d9fcbe2b7fa0cf6906000915b85831061042a5750506103d19350820101856103c4565b80548389018501528794508693909201918101610413565b60ff1916858201526103d195151560051b85010192508791506103c49050565b346101b55760003660031901126101b557600b546040516001600160a01b039091168152602090f35b346101b55760803660031901126101b5576104a46112d6565b60243567ffffffffffffffff81116101b5576104c490369060040161141f565b60443567ffffffffffffffff81116101b5576104e490369060040161141f565b90926104ee611837565b600c549260001984146109655760018401600c5560405161050e8161133c565b600081526001600160a01b03871615610a42576000858152600260205260409020546001600160a01b031680610a0b575b6001600160a01b0388166000818152600360209081526040808320805460010190558983526002909152812080546001600160a01b0319168317905587919083907fddf252ad1be2c89b69c2b068fc378daa952ba7f163c4a11628f55a4df523b3ef9080a48061097b5760085486600052600960205280604060002055600160401b81101561079d57866105dc8260016105f5940160085561178e565b90919082549060031b91821b91600019901b1916179055565b6001600160a01b0388168103610911575b6108f857863b6107b3575b5061062c92939495509061062691369161149e565b83611863565b60405192606084019184831067ffffffffffffffff84111761079d5761065692604052369161149e565b825260208201916064358352604081016000815282600052600d6020526040600020915193845167ffffffffffffffff811161079d576020956106998554611302565b601f8111610762575b508690601f83116001146106f85791806106d89260029695946000926106ed575b50508160011b916000199060031b1c19161790565b84555b51600184015551910155604051908152f35b0151905089806106c3565b90601f1983169186600052886000209260005b81811061074b575091600193918560029897969410610732575b505050811b0184556106db565b015160001960f88460031b161c19169055888080610725565b92938a60018192878601518155019501930161070b565b61078d908660005288600020601f850160051c8101918a8610610793575b601f0160051c0190611777565b876106a2565b9091508190610780565b634e487b7160e01b600052604160045260246000fd5b604051602081806107ed630a85bd0160e11b95868352336004840152600060248401528a6044840152608060648401526084830190611296565b038160006001600160a01b038d165af1600091816108b3575b5061086e57873d15610866573d9061081d82611482565b9161082b6040519384611358565b82523d6000602084013e5b8151918261085f57604051633250574960e11b81526001600160a01b0383166004820152602490fd5b9050602001fd5b606090610836565b63ffffffff60e0989394959697981b160361089157508493929190610626610611565b604051633250574960e11b81526001600160a01b039091166004820152602490fd5b9091506020813d6020116108f0575b816108cf60209383611358565b810103126101b557516001600160e01b0319811681036101b5579089610806565b3d91506108c2565b6040516339e3563760e11b815260006004820152602490fd5b61091a886117db565b806000198101116109655760018060a01b0389166000526006602052604060002060001982016000526020528660406000205586600052600760205260001901604060002055610606565b634e487b7160e01b600052601160045260246000fd5b6001600160a01b03881681146105f557610994816117db565b8660005260076020526040600020548181036109d8575b508660005260006040812055816000526006602052604060002090600052602052600060408120556105f5565b600083815260066020908152604080832085845282528083205484845281842081905583526007909152902055896109ab565b600086815260046020526040902080546001600160a01b03191690558060005260036020526040600020600019815401905561053f565b604051633250574960e11b815260006004820152602490fd5b346101b55760003660031901126101b557610a74611837565b600b80546001600160a01b031981169091556000906001600160a01b03167f8be0079c531659141344cd1fd0a4f28419497f9722a3daafe3b4186f6b6457e08280a3005b346101b55760203660031901126101b5576020610adb610ad66112d6565b6117db565b604051908152f35b346101b55760203660031901126101b5576020610b01600435611814565b6040516001600160a01b039091168152f35b346101b55760203660031901126101b557600435600854811015610b4a57610b3c60209161178e565b90546040519160031b1c8152f35b6044906040519063295f44f760e21b8252600060048301526024820152fd5b346101b5576020806003193601126101b55760043590610b87611837565b81600052600d81526000600260408220610ba18154611302565b80610dcb575b5060018101839055015560008281526002825260409020546001600160a01b031680159190821580610d98575b6000858152600284526040812080546001600160a01b03191690558590837fddf252ad1be2c89b69c2b068fc378daa952ba7f163c4a11628f55a4df523b3ef8280a48315610cfc575050600854836000526009825280604060002055600160401b81101561079d57836105dc826001610c50940160085561178e565b600854600019918282019182116109655760099085600052818152610c7a6040600020549361178e565b90549060031b1c610c8e816105dc8661178e565b6000525260406000205582600052600060408120556008548015610ce657810190610cb88261178e565b909182549160031b1b19169055600855610cce57005b60249060405190637e27328960e01b82526004820152fd5b634e487b7160e01b600052603160045260246000fd5b610d07575b50610c50565b610d10816117db565b908460005260078352604060002054828103610d52575b5084600052600060408120556000526006825260406000209060005281526000604081205583610d01565b8160005260068452604060002083600052845260406000205482600052600685526040600020826000528552806040600020556000526007845260406000205585610d27565b60008581526004602052604080822080546001600160a01b03191690558382526003855290208054600019019055610bd4565b601f8111600114610de157508281555b85610ba7565b8390828252610dfe601f878420920160051c820160018301611777565b81835555610ddb565b346101b5576102d8610e183661144d565b9060405192610e268461133c565b600084526102d38383836114d5565b346101b55760403660031901126101b557610e4e6112d6565b60243590610e5b816117db565b821015610e8e5760018060a01b031660005260066020526040600020906000526020526020604060002054604051908152f35b60405163295f44f760e21b81526001600160a01b039190911660048201526024810191909152604490fd5b346101b5576102d8610eca3661144d565b916114d5565b346101b55760403660031901126101b55760043560243567ffffffffffffffff81116101b5576040610f277f931f495b9a8e5d8e61946ea5d61e021f636cfe213a801f97589c18c152e408bd92369060040161141f565b9190610f31611837565b610f45610f3f36858461149e565b86611863565b82825193849260208452816020850152848401376000828201840152601f01601f19168101030190a2005b346101b55760003660031901126101b5576020600854604051908152f35b346101b55760203660031901126101b557600435600052600d602052610fda6040600020610fbb8161137a565b9060026001820154910154604051938493606085526060850190611296565b91602084015260408301520390f35b346101b55760403660031901126101b557611002611837565b600435600052600d602052600260406000200180549060243582018092116109655755005b346101b55760403660031901126101b5576110406112d6565b60243561104c81611814565b331515806110fb575b806110ce575b6110b6576001600160a01b039283169282918491167f8c5be1e5ebec7d5bd14f71427d1e84f3dd0314c0f7b2291e5b200ac8c7c3b925600080a4600090815260046020526040902080546001600160a01b0319169091179055005b60405163a9fbf51f60e01b8152336004820152602490fd5b5060018060a01b038116600052600560205260406000203360005260205260ff604060002054161561105b565b506001600160a01b038116331415611055565b346101b55760203660031901126101b55760043561112b81611814565b506000526004602052602060018060a01b0360406000205416604051908152f35b346101b55760003660031901126101b55760405160008054908261116f83611302565b918282526020936001908560018216918260001461044257505060011461119d57506103d192500383611358565b6000808052859250907f290decd9548b62a8d60345a988386fc84ba6bc95484008f6362f93160ef3e5635b8583106111df5750506103d19350820101856103c4565b805483890185015287945086939092019181016111c8565b346101b55760203660031901126101b5576004359063ffffffff60e01b82168092036101b557602091632483248360e11b8114908115611239575b5015158152f35b63780e9d6360e01b811491508115611253575b5083611232565b6380ac58cd60e01b811491508115611285575b8115611274575b508361124c565b6301ffc9a760e01b1490508361126d565b635b5e139f60e01b81149150611266565b919082519283825260005b8481106112c2575050826000602080949584010152601f8019910116010190565b6020818301810151848301820152016112a1565b600435906001600160a01b03821682036101b557565b602435906001600160a01b03821682036101b557565b90600182811c92168015611332575b602083101461131c57565b634e487b7160e01b600052602260045260246000fd5b91607f1691611311565b6020810190811067ffffffffffffffff82111761079d57604052565b90601f8019910116810190811067ffffffffffffffff82111761079d57604052565b9060405191826000825461138d81611302565b908184526020946001916001811690816000146113fd57506001146113be575b5050506113bc92500383611358565b565b600090815285812095935091905b8183106113e55750506113bc93508201013880806113ad565b855488840185015294850194879450918301916113cc565b925050506113bc94925060ff191682840152151560051b8201013880806113ad565b9181601f840112156101b55782359167ffffffffffffffff83116101b557602083818601950101116101b557565b60609060031901126101b5576001600160a01b039060043582811681036101b5579160243590811681036101b5579060443590565b67ffffffffffffffff811161079d57601f01601f191660200190565b9291926114aa82611482565b916114b86040519384611358565b8294818452818301116101b5578281602093846000960137010152565b6001600160a01b0382811693918415610a42576000948386526020956002875260409684888320541696331515806116e9575b50871580156116b6575b84845260038352898420805460010190558784526002835289842080546001600160a01b0319168617905587858a7fddf252ad1be2c89b69c2b068fc378daa952ba7f163c4a11628f55a4df523b3ef8780a41561163a5760085487845260098352808a852055600160401b81101561162657876105dc826001611598940160085561178e565b8388036115d4575b5050505016928383036115b35750505050565b6064945051926364283d7b60e01b8452600484015260248301526044820152fd5b6115dd906117db565b6000198101939084116116125782916007918a94526006815283832085845281528784842055878352522055388080806115a0565b634e487b7160e01b83526011600452602483fd5b634e487b7160e01b84526041600452602484fd5b8784146115985761164a886117db565b878452600783528984205481810361167f575b50878452838a8120558884526006835289842090845282528289812055611598565b898552600684528a852082865284528a8520548a8652600685528b86208287528552808c8720558552600784528a8520553861165d565b600088815260046020526040902080546001600160a01b0319169055888452600383528984208054600019019055611512565b80611736575b156116fa5738611508565b888789611717576024915190637e27328960e01b82526004820152fd5b905163177e802f60e01b81523360048201526024810191909152604490fd5b50338814801561175b575b806116ef57508683526004825233868a85205416146116ef565b5087835260058252888320338452825260ff8984205416611741565b818110611782575050565b60008155600101611777565b6008548110156117c55760086000527ff3f7a9fe364faab93b216da50a3214154f22a0a2b415b23a84c8169e8b636ee30190600090565b634e487b7160e01b600052603260045260246000fd5b6001600160a01b031680156117fb57600052600360205260406000205490565b6040516322718ad960e21b815260006004820152602490fd5b6000818152600260205260409020546001600160a01b0316908115610cce575090565b600b546001600160a01b0316330361184b57565b60405163118cdaa760e01b8152336004820152602490fd5b919091600090808252602091600a8352604081209085519567ffffffffffffffff87116119b8576118948354611302565b601f811161198a575b508491601f881160011461190657966118ef9281927ff8e1a15aba9398e019f0b49df1a4fde98ee17ae345cb5f6b5e2c27f5033e8ce79899926118fb5750508160011b916000199060031b1c19161790565b90555b604051908152a1565b0151905038806106c3565b9190601f198816848452868420935b81811061197357509160019391897ff8e1a15aba9398e019f0b49df1a4fde98ee17ae345cb5f6b5e2c27f5033e8ce7999a941061195a575b505050811b0190556118f2565b015160001960f88460031b161c1916905538808061194d565b929387600181928786015181550195019301611915565b6119b290848452868420601f8a0160051c810191888b1061079357601f0160051c0190611777565b3861189d565b634e487b7160e01b82526041600452602482fd5b813b6119d9575b50505050565b604051630a85bd0160e11b8082523360048301526001600160a01b03928316602483015260448201949094526080606482015260209592909116939092908390611a27906084830190611296565b039285816000958187895af1849181611ad0575b50611a9b575050503d600014611a93573d611a5581611482565b90611a636040519283611358565b81528091843d92013e5b80519283611a8e57604051633250574960e11b815260048101849052602490fd5b019050fd5b506060611a6d565b919450915063ffffffff60e01b1603611ab85750388080806119d3565b60249060405190633250574960e11b82526004820152fd5b9091508681813d8311611b0d575b611ae88183611358565b81010312611b0957516001600160e01b031981168103611b09579038611a3b565b8480fd5b503d611ade56fea2646970667358221220cedbcf138f4f0f639da0ba98e11479b4e25485ccd31fbb7fca6e95e86f700bd264736f6c63430008180033",
  "linkReferences": {},
  "deployedLinkReferences": {}
}