{
  "_format": "hh-sol-artifact-1",
  "contractName": "PatriotPledgeNFTV2",
  "sourceName": "contracts/PatriotPledgeNFTV2.sol",
  "abi": [
    {
      "inputs": [],
      "stateMutability": "nonpayable",
      "type": "constructor"
    },
    {
      "inputs": [],
      "name": "ERC721EnumerableForbiddenBatchMint",
      "type": "error"
    },
    {
      "inputs": [
        {
          "internalType": "address",
          "name": "sender",
          "type": "address"
        },
        {
          "internalType": "uint256",
          "name": "tokenId",
          "type": "uint256"
        },
        {
          "internalType": "address",
          "name": "owner",
          "type": "address"
        }
      ],
      "name": "ERC721IncorrectOwner",
      "type": "error"
    },
    {
      "inputs": [
        {
          "internalType": "address",
          "name": "operator",
          "type": "address"
        },
        {
          "internalType": "uint256",
          "name": "tokenId",
          "type": "uint256"
        }
      ],
      "name": "ERC721InsufficientApproval",
      "type": "error"
    },
    {
      "inputs": [
        {
          "internalType": "address",
          "name": "approver",
          "type": "address"
        }
      ],
      "name": "ERC721InvalidApprover",
      "type": "error"
    },
    {
      "inputs": [
        {
          "internalType": "address",
          "name": "operator",
          "type": "address"
        }
      ],
      "name": "ERC721InvalidOperator",
      "type": "error"
    },
    {
      "inputs": [
        {
          "internalType": "address",
          "name": "owner",
          "type": "address"
        }
      ],
      "name": "ERC721InvalidOwner",
      "type": "error"
    },
    {
      "inputs": [
        {
          "internalType": "address",
          "name": "receiver",
          "type": "address"
        }
      ],
      "name": "ERC721InvalidReceiver",
      "type": "error"
    },
    {
      "inputs": [
        {
          "internalType": "address",
          "name": "sender",
          "type": "address"
        }
      ],
      "name": "ERC721InvalidSender",
      "type": "error"
    },
    {
      "inputs": [
        {
          "internalType": "uint256",
          "name": "tokenId",
          "type": "uint256"
        }
      ],
      "name": "ERC721NonexistentToken",
      "type": "error"
    },
    {
      "inputs": [
        {
          "internalType": "address",
          "name": "owner",
          "type": "address"
        },
        {
          "internalType": "uint256",
          "name": "index",
          "type": "uint256"
        }
      ],
      "name": "ERC721OutOfBoundsIndex",
      "type": "error"
    },
    {
      "inputs": [
        {
          "internalType": "address",
          "name": "owner",
          "type": "address"
        }
      ],
      "name": "OwnableInvalidOwner",
      "type": "error"
    },
    {
      "inputs": [
        {
          "internalType": "address",
          "name": "account",
          "type": "address"
        }
      ],
      "name": "OwnableUnauthorizedAccount",
      "type": "error"
    },
    {
      "anonymous": false,
      "inputs": [
        {
          "indexed": true,
          "internalType": "address",
          "name": "owner",
          "type": "address"
        },
        {
          "indexed": true,
          "internalType": "address",
          "name": "approved",
          "type": "address"
        },
        {
          "indexed": true,
          "internalType": "uint256",
          "name": "tokenId",
          "type": "uint256"
        }
      ],
      "name": "Approval",
      "type": "event"
    },
    {
      "anonymous": false,
      "inputs": [
        {
          "indexed": true,
          "internalType": "address",
          "name": "owner",
          "type": "address"
        },
        {
          "indexed": true,
          "internalType": "address",
          "name": "operator",
          "type": "address"
        },
        {
          "indexed": false,
          "internalType": "bool",
          "name": "approved",
          "type": "bool"
        }
      ],
      "name": "ApprovalForAll",
      "type": "event"
    },
    {
      "anonymous": false,
      "inputs": [
        {
          "indexed": false,
          "internalType": "uint256",
          "name": "_fromTokenId",
          "type": "uint256"
        },
        {
          "indexed": false,
          "internalType": "uint256",
          "name": "_toTokenId",
          "type": "uint256"
        }
      ],
      "name": "BatchMetadataUpdate",
      "type": "event"
    },
    {
      "anonymous": false,
      "inputs": [
        {
          "indexed": false,
          "internalType": "uint256",
          "name": "_tokenId",
          "type": "uint256"
        }
      ],
      "name": "MetadataUpdate",
      "type": "event"
    },
    {
      "anonymous": false,
      "inputs": [
        {
          "indexed": true,
          "internalType": "address",
          "name": "previousOwner",
          "type": "address"
        },
        {
          "indexed": true,
          "internalType": "address",
          "name": "newOwner",
          "type": "address"
        }
      ],
      "name": "OwnershipTransferred",
      "type": "event"
    },
    {
      "anonymous": false,
      "inputs": [
        {
          "indexed": true,
          "internalType": "uint256",
          "name": "tokenId",
          "type": "uint256"
        },
        {
          "indexed": false,
          "internalType": "string",
          "name": "newUri",
          "type": "string"
        }
      ],
      "name": "TokenURIUpdated",
      "type": "event"
    },
    {
      "anonymous": false,
      "inputs": [
        {
          "indexed": true,
          "internalType": "address",
          "name": "from",
          "type": "address"
        },
        {
          "indexed": true,
          "internalType": "address",
          "name": "to",
          "type": "address"
        },
        {
          "indexed": true,
          "internalType": "uint256",
          "name": "tokenId",
          "type": "uint256"
        }
      ],
      "name": "Transfer",
      "type": "event"
    },
    {
      "inputs": [
        {
          "internalType": "uint256",
          "name": "tokenId",
          "type": "uint256"
        },
        {
          "internalType": "uint256",
          "name": "amount",
          "type": "uint256"
        }
      ],
      "name": "addRaised",
      "outputs": [],
      "stateMutability": "nonpayable",
      "type": "function"
    },
    {
      "inputs": [
        {
          "internalType": "address",
          "name": "to",
          "type": "address"
        },
        {
          "internalType": "uint256",
          "name": "tokenId",
          "type": "uint256"
        }
      ],
      "name": "approve",
      "outputs": [],
      "stateMutability": "nonpayable",
      "type": "function"
    },
    {
      "inputs": [
        {
          "internalType": "address",
          "name": "owner",
          "type": "address"
        }
      ],
      "name": "balanceOf",
      "outputs": [
        {
          "internalType": "uint256",
          "name": "",
          "type": "uint256"
        }
      ],
      "stateMutability": "view",
      "type": "function"
    },
    {
      "inputs": [
        {
          "internalType": "uint256",
          "name": "tokenId",
          "type": "uint256"
        }
      ],
      "name": "burn",
      "outputs": [],
      "stateMutability": "nonpayable",
      "type": "function"
    },
    {
      "inputs": [
        {
          "internalType": "uint256",
          "name": "",
          "type": "uint256"
        }
      ],
      "name": "campaigns",
      "outputs": [
        {
          "internalType": "string",
          "name": "category",
          "type": "string"
        },
        {
          "internalType": "uint256",
          "name": "goal",
          "type": "uint256"
        },
        {
          "internalType": "uint256",
          "name": "raised",
          "type": "uint256"
        }
      ],
      "stateMutability": "view",
      "type": "function"
    },
    {
      "inputs": [
        {
          "internalType": "uint256",
          "name": "tokenId",
          "type": "uint256"
        }
      ],
      "name": "getApproved",
      "outputs": [
        {
          "internalType": "address",
          "name": "",
          "type": "address"
        }
      ],
      "stateMutability": "view",
      "type": "function"
    },
    {
      "inputs": [
        {
          "internalType": "address",
          "name": "owner",
          "type": "address"
        },
        {
          "internalType": "address",
          "name": "operator",
          "type": "address"
        }
      ],
      "name": "isApprovedForAll",
      "outputs": [
        {
          "internalType": "bool",
          "name": "",
          "type": "bool"
        }
      ],
      "stateMutability": "view",
      "type": "function"
    },
    {
      "inputs": [
        {
          "internalType": "address",
          "name": "to",
          "type": "address"
        },
        {
          "internalType": "string",
          "name": "uri",
          "type": "string"
        },
        {
          "internalType": "string",
          "name": "category",
          "type": "string"
        },
        {
          "internalType": "uint256",
          "name": "goal",
          "type": "uint256"
        }
      ],
      "name": "mint",
      "outputs": [
        {
          "internalType": "uint256",
          "name": "",
          "type": "uint256"
        }
      ],
      "stateMutability": "nonpayable",
      "type": "function"
    },
    {
      "inputs": [],
      "name": "name",
      "outputs": [
        {
          "internalType": "string",
          "name": "",
          "type": "string"
        }
      ],
      "stateMutability": "view",
      "type": "function"
    },
    {
      "inputs": [],
      "name": "owner",
      "outputs": [
        {
          "internalType": "address",
          "name": "",
          "type": "address"
        }
      ],
      "stateMutability": "view",
      "type": "function"
    },
    {
      "inputs": [
        {
          "internalType": "uint256",
          "name": "tokenId",
          "type": "uint256"
        }
      ],
      "name": "ownerOf",
      "outputs": [
        {
          "internalType": "address",
          "name": "",
          "type": "address"
        }
      ],
      "stateMutability": "view",
      "type": "function"
    },
    {
      "inputs": [],
      "name": "renounceOwnership",
      "outputs": [],
      "stateMutability": "nonpayable",
      "type": "function"
    },
    {
      "inputs": [
        {
          "internalType": "address",
          "name": "from",
          "type": "address"
        },
        {
          "internalType": "address",
          "name": "to",
          "type": "address"
        },
        {
          "internalType": "uint256",
          "name": "tokenId",
          "type": "uint256"
        }
      ],
      "name": "safeTransferFrom",
      "outputs": [],
      "stateMutability": "nonpayable",
      "type": "function"
    },
    {
      "inputs": [
        {
          "internalType": "address",
          "name": "from",
          "type": "address"
        },
        {
          "internalType": "address",
          "name": "to",
          "type": "address"
        },
        {
          "internalType": "uint256",
          "name": "tokenId",
          "type": "uint256"
        },
        {
          "internalType": "bytes",
          "name": "data",
          "type": "bytes"
        }
      ],
      "name": "safeTransferFrom",
      "outputs": [],
      "stateMutability": "nonpayable",
      "type": "function"
    },
    {
      "inputs": [
        {
          "internalType": "address",
          "name": "operator",
          "type": "address"
        },
        {
          "internalType": "bool",
          "name": "approved",
          "type": "bool"
        }
      ],
      "name": "setApprovalForAll",
      "outputs": [],
      "stateMutability": "nonpayable",
      "type": "function"
    },
    {
      "inputs": [
        {
          "internalType": "bytes4",
          "name": "interfaceId",
          "type": "bytes4"
        }
      ],
      "name": "supportsInterface",
      "outputs": [
        {
          "internalType": "bool",
          "name": "",
          "type": "bool"
        }
      ],
      "stateMutability": "view",
      "type": "function"
    },
    {
      "inputs": [],
      "name": "symbol",
      "outputs": [
        {
          "internalType": "string",
          "name": "",
          "type": "string"
        }
      ],
      "stateMutability": "view",
      "type": "function"
    },
    {
      "inputs": [
        {
          "internalType": "uint256",
          "name": "index",
          "type": "uint256"
        }
      ],
      "name": "tokenByIndex",
      "outputs": [
        {
          "internalType": "uint256",
          "name": "",
          "type": "uint256"
        }
      ],
      "stateMutability": "view",
      "type": "function"
    },
    {
      "inputs": [
        {
          "internalType": "address",
          "name": "owner",
          "type": "address"
        },
        {
          "internalType": "uint256",
          "name": "index",
          "type": "uint256"
        }
      ],
      "name": "tokenOfOwnerByIndex",
      "outputs": [
        {
          "internalType": "uint256",
          "name": "",
          "type": "uint256"
        }
      ],
      "stateMutability": "view",
      "type": "function"
    },
    {
      "inputs": [
        {
          "internalType": "uint256",
          "name": "tokenId",
          "type": "uint256"
        }
      ],
      "name": "tokenURI",
      "outputs": [
        {
          "internalType": "string",
          "name": "",
          "type": "string"
        }
      ],
      "stateMutability": "view",
      "type": "function"
    },
    {
      "inputs": [],
      "name": "totalSupply",
      "outputs": [
        {
          "internalType": "uint256",
          "name": "",
          "type": "uint256"
        }
      ],
      "stateMutability": "view",
      "type": "function"
    },
    {
      "inputs": [
        {
          "internalType": "address",
          "name": "from",
          "type": "address"
        },
        {
          "internalType": "address",
          "name": "to",
          "type": "address"
        },
        {
          "internalType": "uint256",
          "name": "tokenId",
          "type": "uint256"
        }
      ],
      "name": "transferFrom",
      "outputs": [],
      "stateMutability": "nonpayable",
      "type": "function"
    },
    {
      "inputs": [
        {
          "internalType": "address",
          "name": "newOwner",
          "type": "address"
        }
      ],
      "name": "transferOwnership",
      "outputs": [],
      "stateMutability": "nonpayable",
      "type": "function"
    },
    {
      "inputs": [
        {
          "internalType": "uint256",
          "name": "tokenId",
          "type": "uint256"
        },
        {
          "internalType": "string",
          "name": "newUri",
          "type": "string"
        }
      ],
      "name": "updateTokenURI",
      "outputs": [],
      "stateMutability": "nonpayable",
      "type": "function"
    }
  ],
  "bytecode": "0x60806040523480156200001157600080fd5b50336040518060400160405280601281526020017114185d1c9a5bdd08141b195919d94813919560721b81525060405180604001604052806005815260200164141413919560da1b81525081600090816200006d9190620001b9565b5060016200007c8282620001b9565b5050506001600160a01b038116620000ae57604051631e4fbdf760e01b81526000600482015260240160405180910390fd5b620000b981620000c0565b5062000285565b600b80546001600160a01b038381166001600160a01b0319831681179093556040519116919082907f8be0079c531659141344cd1fd0a4f28419497f9722a3daafe3b4186f6b6457e090600090a35050565b634e487b7160e01b600052604160045260246000fd5b600181811c908216806200013d57607f821691505b6020821081036200015e57634e487b7160e01b600052602260045260246000fd5b50919050565b601f821115620001b4576000816000526020600020601f850160051c810160208610156200018f5750805b601f850160051c820191505b81811015620001b0578281556001016200019b565b5050505b505050565b81516001600160401b03811115620001d557620001d562000112565b620001ed81620001e6845462000128565b8462000164565b602080601f8311600181146200022557600084156200020c5750858301515b600019600386901b1c1916600185901b178555620001b0565b600085815260208120601f198616915b82811015620002565788860151825594840194600190910190840162000235565b5085821015620002755787850151600019600388901b60f8161c191681555b5050505050600190811b01905550565b611cb980620002956000396000f3fe608060405234801561001057600080fd5b50600436106101585760003560e01c80634f6ccce7116100c357806395d89b411161007c57806395d89b41146102e5578063a22cb465146102ed578063b88d4fde14610300578063c87b56dd14610313578063e985e9c514610326578063f2fde38b1461033957600080fd5b80634f6ccce7146102805780636352211e1461029357806370a08231146102a6578063715018a6146102b9578063853d42ad146102c15780638da5cb5b146102d457600080fd5b806318160ddd1161011557806318160ddd1461020f57806318e97fd11461022157806323b872dd146102345780632f745c591461024757806342842e0e1461025a57806342966c681461026d57600080fd5b806301ffc9a71461015d57806306fdde0314610185578063081812fc1461019a578063095ea7b3146101c55780630f42949a146101da578063141961bc146101ed575b600080fd5b61017061016b366004611604565b61034c565b60405190151581526020015b60405180910390f35b61018d61035d565b60405161017c9190611671565b6101ad6101a8366004611684565b6103ef565b6040516001600160a01b03909116815260200161017c565b6101d86101d33660046116b9565b610418565b005b6101d86101e83660046116e3565b610427565b6102006101fb366004611684565b610459565b60405161017c93929190611705565b6008545b60405190815260200161017c565b6101d861022f366004611773565b610503565b6101d86102423660046117bf565b61058a565b6102136102553660046116b9565b61061a565b6101d86102683660046117bf565b61067f565b6101d861027b366004611684565b61069f565b61021361028e366004611684565b6106dc565b6101ad6102a1366004611684565b610735565b6102136102b43660046117fb565b610740565b6101d8610788565b6102136102cf366004611816565b61079c565b600b546001600160a01b03166101ad565b61018d610892565b6101d86102fb36600461189f565b6108a1565b6101d861030e3660046118f1565b6108ac565b61018d610321366004611684565b6108c3565b6101706103343660046119cd565b6108ce565b6101d86103473660046117fb565b6108fc565b600061035782610937565b92915050565b60606000805461036c90611a00565b80601f016020809104026020016040519081016040528092919081815260200182805461039890611a00565b80156103e55780601f106103ba576101008083540402835291602001916103e5565b820191906000526020600020905b8154815290600101906020018083116103c857829003601f168201915b5050505050905090565b60006103fa8261095c565b506000828152600460205260409020546001600160a01b0316610357565b610423828233610995565b5050565b61042f6109a2565b6000828152600d602052604081206002018054839290610450908490611a50565b90915550505050565b600d6020526000908152604090208054819061047490611a00565b80601f01602080910402602001604051908101604052809291908181526020018280546104a090611a00565b80156104ed5780601f106104c2576101008083540402835291602001916104ed565b820191906000526020600020905b8154815290600101906020018083116104d057829003601f168201915b5050505050908060010154908060020154905083565b61050b6109a2565b61054b8383838080601f0160208091040260200160405190810160405280939291908181526020018383808284376000920191909152506109cf92505050565b827f931f495b9a8e5d8e61946ea5d61e021f636cfe213a801f97589c18c152e408bd838360405161057d929190611a63565b60405180910390a2505050565b6001600160a01b0382166105b957604051633250574960e11b8152600060048201526024015b60405180910390fd5b60006105c6838333610a1f565b9050836001600160a01b0316816001600160a01b031614610614576040516364283d7b60e01b81526001600160a01b03808616600483015260248201849052821660448201526064016105b0565b50505050565b600061062583610740565b82106106565760405163295f44f760e21b81526001600160a01b0384166004820152602481018390526044016105b0565b506001600160a01b03919091166000908152600660209081526040808320938352929052205490565b61069a838383604051806020016040528060008152506108ac565b505050565b6106a76109a2565b6000818152600d60205260408120906106c082826115a0565b506000600182018190556002909101556106d981610a34565b50565b60006106e760085490565b82106107105760405163295f44f760e21b815260006004820152602481018390526044016105b0565b6008828154811061072357610723611a92565b90600052602060002001549050919050565b60006103578261095c565b60006001600160a01b03821661076c576040516322718ad960e21b8152600060048201526024016105b0565b506001600160a01b031660009081526003602052604090205490565b6107906109a2565b61079a6000610a6f565b565b60006107a66109a2565b600c8054600091826107b783611aa8565b9190505590506107c78882610ac1565b6108078188888080601f0160208091040260200160405190810160405280939291908181526020018383808284376000920191909152506109cf92505050565b604051806060016040528086868080601f016020809104026020016040519081016040528093929190818152602001838380828437600092018290525093855250505060208083018790526040928301829052848252600d905220815181906108709082611b11565b5060208201516001820155604090910151600290910155979650505050505050565b60606001805461036c90611a00565b610423338383610adb565b6108b784848461058a565b61061484848484610b7a565b606061035782610ca3565b6001600160a01b03918216600090815260056020908152604080832093909416825291909152205460ff1690565b6109046109a2565b6001600160a01b03811661092e57604051631e4fbdf760e01b8152600060048201526024016105b0565b6106d981610a6f565b60006001600160e01b03198216632483248360e11b1480610357575061035782610dac565b6000818152600260205260408120546001600160a01b03168061035757604051637e27328960e01b8152600481018490526024016105b0565b61069a8383836001610dd1565b600b546001600160a01b0316331461079a5760405163118cdaa760e01b81523360048201526024016105b0565b6000828152600a602052604090206109e78282611b11565b506040518281527ff8e1a15aba9398e019f0b49df1a4fde98ee17ae345cb5f6b5e2c27f5033e8ce79060200160405180910390a15050565b6000610a2c848484610ed7565b949350505050565b6000610a436000836000610a1f565b90506001600160a01b03811661042357604051637e27328960e01b8152600481018390526024016105b0565b600b80546001600160a01b038381166001600160a01b0319831681179093556040519116919082907f8be0079c531659141344cd1fd0a4f28419497f9722a3daafe3b4186f6b6457e090600090a35050565b610423828260405180602001604052806000815250610fa4565b6001600160a01b038216610b0d57604051630b61174360e31b81526001600160a01b03831660048201526024016105b0565b6001600160a01b03838116600081815260056020908152604080832094871680845294825291829020805460ff191686151590811790915591519182527f17307eab39ab6107e8899845ad3d59bd9653f200f220920489ca2b5937696c31910160405180910390a3505050565b6001600160a01b0383163b1561061457604051630a85bd0160e11b81526001600160a01b0384169063150b7a0290610bbc903390889087908790600401611bd1565b6020604051808303816000875af1925050508015610bf7575060408051601f3d908101601f19168201909252610bf491810190611c0e565b60015b610c60573d808015610c25576040519150601f19603f3d011682016040523d82523d6000602084013e610c2a565b606091505b508051600003610c5857604051633250574960e11b81526001600160a01b03851660048201526024016105b0565b805181602001fd5b6001600160e01b03198116630a85bd0160e11b14610c9c57604051633250574960e11b81526001600160a01b03851660048201526024016105b0565b5050505050565b6060610cae8261095c565b506000828152600a602052604081208054610cc890611a00565b80601f0160208091040260200160405190810160405280929190818152602001828054610cf490611a00565b8015610d415780601f10610d1657610100808354040283529160200191610d41565b820191906000526020600020905b815481529060010190602001808311610d2457829003601f168201915b505050505090506000610d5f60408051602081019091526000815290565b90508051600003610d71575092915050565b815115610da3578082604051602001610d8b929190611c2b565b60405160208183030381529060405292505050919050565b610a2c84610fbb565b60006001600160e01b0319821663780e9d6360e01b1480610357575061035782611030565b8080610de557506001600160a01b03821615155b15610ea7576000610df58461095c565b90506001600160a01b03831615801590610e215750826001600160a01b0316816001600160a01b031614155b8015610e345750610e3281846108ce565b155b15610e5d5760405163a9fbf51f60e01b81526001600160a01b03841660048201526024016105b0565b8115610ea55783856001600160a01b0316826001600160a01b03167f8c5be1e5ebec7d5bd14f71427d1e84f3dd0314c0f7b2291e5b200ac8c7c3b92560405160405180910390a45b505b5050600090815260046020526040902080546001600160a01b0319166001600160a01b0392909216919091179055565b600080610ee5858585611080565b90506001600160a01b038116610f4257610f3d84600880546000838152600960205260408120829055600182018355919091527ff3f7a9fe364faab93b216da50a3214154f22a0a2b415b23a84c8169e8b636ee30155565b610f65565b846001600160a01b0316816001600160a01b031614610f6557610f658185611179565b6001600160a01b038516610f8157610f7c8461120a565b610a2c565b846001600160a01b0316816001600160a01b031614610a2c57610a2c85856112b9565b610fae8383611309565b61069a6000848484610b7a565b6060610fc68261095c565b506000610fde60408051602081019091526000815290565b90506000815111610ffe5760405180602001604052806000815250611029565b806110088461136e565b604051602001611019929190611c2b565b6040516020818303038152906040525b9392505050565b60006001600160e01b031982166380ac58cd60e01b148061106157506001600160e01b03198216635b5e139f60e01b145b8061035757506301ffc9a760e01b6001600160e01b0319831614610357565b6000828152600260205260408120546001600160a01b03908116908316156110ad576110ad818486611401565b6001600160a01b038116156110eb576110ca600085600080610dd1565b6001600160a01b038116600090815260036020526040902080546000190190555b6001600160a01b0385161561111a576001600160a01b0385166000908152600360205260409020805460010190555b60008481526002602052604080822080546001600160a01b0319166001600160a01b0389811691821790925591518793918516917fddf252ad1be2c89b69c2b068fc378daa952ba7f163c4a11628f55a4df523b3ef91a4949350505050565b600061118483610740565b6000838152600760205260409020549091508082146111d7576001600160a01b03841660009081526006602090815260408083208584528252808320548484528184208190558352600790915290208190555b5060009182526007602090815260408084208490556001600160a01b039094168352600681528383209183525290812055565b60085460009061121c90600190611c5a565b6000838152600960205260408120546008805493945090928490811061124457611244611a92565b90600052602060002001549050806008838154811061126557611265611a92565b600091825260208083209091019290925582815260099091526040808220849055858252812055600880548061129d5761129d611c6d565b6001900381819060005260206000200160009055905550505050565b600060016112c684610740565b6112d09190611c5a565b6001600160a01b039093166000908152600660209081526040808320868452825280832085905593825260079052919091209190915550565b6001600160a01b03821661133357604051633250574960e11b8152600060048201526024016105b0565b600061134183836000610a1f565b90506001600160a01b0381161561069a576040516339e3563760e11b8152600060048201526024016105b0565b6060600061137b83611465565b600101905060008167ffffffffffffffff81111561139b5761139b6118db565b6040519080825280601f01601f1916602001820160405280156113c5576020820181803683370190505b5090508181016020015b600019016f181899199a1a9b1b9c1cb0b131b232b360811b600a86061a8153600a85049450846113cf57509392505050565b61140c83838361153d565b61069a576001600160a01b03831661143a57604051637e27328960e01b8152600481018290526024016105b0565b60405163177e802f60e01b81526001600160a01b0383166004820152602481018290526044016105b0565b60008072184f03e93ff9f4daa797ed6e38ed64bf6a1f0160401b83106114a45772184f03e93ff9f4daa797ed6e38ed64bf6a1f0160401b830492506040015b6d04ee2d6d415b85acef810000000083106114d0576d04ee2d6d415b85acef8100000000830492506020015b662386f26fc1000083106114ee57662386f26fc10000830492506010015b6305f5e1008310611506576305f5e100830492506008015b612710831061151a57612710830492506004015b6064831061152c576064830492506002015b600a83106103575760010192915050565b60006001600160a01b03831615801590610a2c5750826001600160a01b0316846001600160a01b03161480611577575061157784846108ce565b80610a2c5750506000908152600460205260409020546001600160a01b03908116911614919050565b5080546115ac90611a00565b6000825580601f106115bc575050565b601f0160209004906000526020600020908101906106d991905b808211156115ea57600081556001016115d6565b5090565b6001600160e01b0319811681146106d957600080fd5b60006020828403121561161657600080fd5b8135611029816115ee565b60005b8381101561163c578181015183820152602001611624565b50506000910152565b6000815180845261165d816020860160208601611621565b601f01601f19169290920160200192915050565b6020815260006110296020830184611645565b60006020828403121561169657600080fd5b5035919050565b80356001600160a01b03811681146116b457600080fd5b919050565b600080604083850312156116cc57600080fd5b6116d58361169d565b946020939093013593505050565b600080604083850312156116f657600080fd5b50508035926020909101359150565b6060815260006117186060830186611645565b60208301949094525060400152919050565b60008083601f84011261173c57600080fd5b50813567ffffffffffffffff81111561175457600080fd5b60208301915083602082850101111561176c57600080fd5b9250929050565b60008060006040848603121561178857600080fd5b83359250602084013567ffffffffffffffff8111156117a657600080fd5b6117b28682870161172a565b9497909650939450505050565b6000806000606084860312156117d457600080fd5b6117dd8461169d565b92506117eb6020850161169d565b9150604084013590509250925092565b60006020828403121561180d57600080fd5b6110298261169d565b6000806000806000806080878903121561182f57600080fd5b6118388761169d565b9550602087013567ffffffffffffffff8082111561185557600080fd5b6118618a838b0161172a565b9097509550604089013591508082111561187a57600080fd5b5061188789828a0161172a565b979a9699509497949695606090950135949350505050565b600080604083850312156118b257600080fd5b6118bb8361169d565b9150602083013580151581146118d057600080fd5b809150509250929050565b634e487b7160e01b600052604160045260246000fd5b6000806000806080858703121561190757600080fd5b6119108561169d565b935061191e6020860161169d565b925060408501359150606085013567ffffffffffffffff8082111561194257600080fd5b818701915087601f83011261195657600080fd5b813581811115611968576119686118db565b604051601f8201601f19908116603f01168101908382118183101715611990576119906118db565b816040528281528a60208487010111156119a957600080fd5b82602086016020830137600060208483010152809550505050505092959194509250565b600080604083850312156119e057600080fd5b6119e98361169d565b91506119f76020840161169d565b90509250929050565b600181811c90821680611a1457607f821691505b602082108103611a3457634e487b7160e01b600052602260045260246000fd5b50919050565b634e487b7160e01b600052601160045260246000fd5b8082018082111561035757610357611a3a565b60208152816020820152818360408301376000818301604090810191909152601f909201601f19160101919050565b634e487b7160e01b600052603260045260246000fd5b600060018201611aba57611aba611a3a565b5060010190565b601f82111561069a576000816000526020600020601f850160051c81016020861015611aea5750805b601f850160051c820191505b81811015611b0957828155600101611af6565b505050505050565b815167ffffffffffffffff811115611b2b57611b2b6118db565b611b3f81611b398454611a00565b84611ac1565b602080601f831160018114611b745760008415611b5c5750858301515b600019600386901b1c1916600185901b178555611b09565b600085815260208120601f198616915b82811015611ba357888601518255948401946001909101908401611b84565b5085821015611bc15787850151600019600388901b60f8161c191681555b5050505050600190811b01905550565b6001600160a01b0385811682528416602082015260408101839052608060608201819052600090611c0490830184611645565b9695505050505050565b600060208284031215611c2057600080fd5b8151611029816115ee565b60008351611c3d818460208801611621565b835190830190611c51818360208801611621565b01949350505050565b8181038181111561035757610357611a3a565b634e487b7160e01b600052603160045260246000fdfea26469706673582212202a3ab040eaae55207c9f1036c9fb3683e6aaa37bc57fc80a576fc6077ba7cbb764736f6c63430008180033",
  "linkReferences": {},
  "deployedLinkReferences": {}
}