{
  "_format": "hh-sol-artifact-1",
  "contractName": "PatriotPledgeNFTV6",
  "sourceName": "contracts/PatriotPledgeNFTV6.sol",
  "abi": [
    {
      "inputs": [],
      "stateMutability": "nonpayable",
      "type": "constructor"
    },
    {
      "inputs": [
        {
          "internalType": "uint256",
          "name": "numerator",
          "type": "uint256"
        },
        {
          "internalType": "uint256",
          "name": "denominator",
          "type": "uint256"
        }
      ],
      "name": "ERC2981InvalidDefaultRoyalty",
      "type": "error"
    },
    {
      "inputs": [
        {
          "internalType": "address",
          "name": "receiver",
          "type": "address"
        }
      ],
      "name": "ERC2981InvalidDefaultRoyaltyReceiver",
      "type": "error"
    },
    {
      "inputs": [
        {
          "internalType": "uint256",
          "name": "tokenId",
          "type": "uint256"
        },
        {
          "internalType": "uint256",
          "name": "numerator",
          "type": "uint256"
        },
        {
          "internalType": "uint256",
          "name": "denominator",
          "type": "uint256"
        }
      ],
      "name": "ERC2981InvalidTokenRoyalty",
      "type": "error"
    },
    {
      "inputs": [
        {
          "internalType": "uint256",
          "name": "tokenId",
          "type": "uint256"
        },
        {
          "internalType": "address",
          "name": "receiver",
          "type": "address"
        }
      ],
      "name": "ERC2981InvalidTokenRoyaltyReceiver",
      "type": "error"
    },
    {
      "inputs": [],
      "name": "ERC721EnumerableForbiddenBatchMint",
      "type": "error"
    },
    {
      "inputs": [
        {
          "internalType": "address",
          "name": "sender",
          "type": "address"
        },
        {
          "internalType": "uint256",
          "name": "tokenId",
          "type": "uint256"
        },
        {
          "internalType": "address",
          "name": "owner",
          "type": "address"
        }
      ],
      "name": "ERC721IncorrectOwner",
      "type": "error"
    },
    {
      "inputs": [
        {
          "internalType": "address",
          "name": "operator",
          "type": "address"
        },
        {
          "internalType": "uint256",
          "name": "tokenId",
          "type": "uint256"
        }
      ],
      "name": "ERC721InsufficientApproval",
      "type": "error"
    },
    {
      "inputs": [
        {
          "internalType": "address",
          "name": "approver",
          "type": "address"
        }
      ],
      "name": "ERC721InvalidApprover",
      "type": "error"
    },
    {
      "inputs": [
        {
          "internalType": "address",
          "name": "operator",
          "type": "address"
        }
      ],
      "name": "ERC721InvalidOperator",
      "type": "error"
    },
    {
      "inputs": [
        {
          "internalType": "address",
          "name": "owner",
          "type": "address"
        }
      ],
      "name": "ERC721InvalidOwner",
      "type": "error"
    },
    {
      "inputs": [
        {
          "internalType": "address",
          "name": "receiver",
          "type": "address"
        }
      ],
      "name": "ERC721InvalidReceiver",
      "type": "error"
    },
    {
      "inputs": [
        {
          "internalType": "address",
          "name": "sender",
          "type": "address"
        }
      ],
      "name": "ERC721InvalidSender",
      "type": "error"
    },
    {
      "inputs": [
        {
          "internalType": "uint256",
          "name": "tokenId",
          "type": "uint256"
        }
      ],
      "name": "ERC721NonexistentToken",
      "type": "error"
    },
    {
      "inputs": [
        {
          "internalType": "address",
          "name": "owner",
          "type": "address"
        },
        {
          "internalType": "uint256",
          "name": "index",
          "type": "uint256"
        }
      ],
      "name": "ERC721OutOfBoundsIndex",
      "type": "error"
    },
    {
      "inputs": [],
      "name": "EnforcedPause",
      "type": "error"
    },
    {
      "inputs": [],
      "name": "ExpectedPause",
      "type": "error"
    },
    {
      "inputs": [
        {
          "internalType": "address",
          "name": "owner",
          "type": "address"
        }
      ],
      "name": "OwnableInvalidOwner",
      "type": "error"
    },
    {
      "inputs": [
        {
          "internalType": "address",
          "name": "account",
          "type": "address"
        }
      ],
      "name": "OwnableUnauthorizedAccount",
      "type": "error"
    },
    {
      "inputs": [],
      "name": "ReentrancyGuardReentrantCall",
      "type": "error"
    },
    {
      "anonymous": false,
      "inputs": [
        {
          "indexed": true,
          "internalType": "address",
          "name": "addr",
          "type": "address"
        },
        {
          "indexed": false,
          "internalType": "bool",
          "name": "blacklisted",
          "type": "bool"
        }
      ],
      "name": "AddressBlacklisted",
      "type": "event"
    },
    {
      "anonymous": false,
      "inputs": [
        {
          "indexed": true,
          "internalType": "address",
          "name": "owner",
          "type": "address"
        },
        {
          "indexed": true,
          "internalType": "address",
          "name": "approved",
          "type": "address"
        },
        {
          "indexed": true,
          "internalType": "uint256",
          "name": "tokenId",
          "type": "uint256"
        }
      ],
      "name": "Approval",
      "type": "event"
    },
    {
      "anonymous": false,
      "inputs": [
        {
          "indexed": true,
          "internalType": "address",
          "name": "owner",
          "type": "address"
        },
        {
          "indexed": true,
          "internalType": "address",
          "name": "operator",
          "type": "address"
        },
        {
          "indexed": false,
          "internalType": "bool",
          "name": "approved",
          "type": "bool"
        }
      ],
      "name": "ApprovalForAll",
      "type": "event"
    },
    {
      "anonymous": false,
      "inputs": [
        {
          "indexed": false,
          "internalType": "uint256",
          "name": "_fromTokenId",
          "type": "uint256"
        },
        {
          "indexed": false,
          "internalType": "uint256",
          "name": "_toTokenId",
          "type": "uint256"
        }
      ],
      "name": "BatchMetadataUpdate",
      "type": "event"
    },
    {
      "anonymous": false,
      "inputs": [
        {
          "indexed": true,
          "internalType": "uint256",
          "name": "campaignId",
          "type": "uint256"
        }
      ],
      "name": "CampaignClosed",
      "type": "event"
    },
    {
      "anonymous": false,
      "inputs": [
        {
          "indexed": true,
          "internalType": "uint256",
          "name": "campaignId",
          "type": "uint256"
        },
        {
          "indexed": true,
          "internalType": "address",
          "name": "nonprofit",
          "type": "address"
        },
        {
          "indexed": false,
          "internalType": "string",
          "name": "category",
          "type": "string"
        },
        {
          "indexed": false,
          "internalType": "uint256",
          "name": "goal",
          "type": "uint256"
        },
        {
          "indexed": false,
          "internalType": "uint256",
          "name": "maxEditions",
          "type": "uint256"
        },
        {
          "indexed": false,
          "internalType": "uint256",
          "name": "pricePerEdition",
          "type": "uint256"
        }
      ],
      "name": "CampaignCreated",
      "type": "event"
    },
    {
      "anonymous": false,
      "inputs": [
        {
          "indexed": true,
          "internalType": "uint256",
          "name": "campaignId",
          "type": "uint256"
        },
        {
          "indexed": false,
          "internalType": "string",
          "name": "newBaseURI",
          "type": "string"
        }
      ],
      "name": "CampaignMetadataUpdated",
      "type": "event"
    },
    {
      "anonymous": false,
      "inputs": [
        {
          "indexed": true,
          "internalType": "uint256",
          "name": "campaignId",
          "type": "uint256"
        }
      ],
      "name": "CampaignRefunded",
      "type": "event"
    },
    {
      "anonymous": false,
      "inputs": [
        {
          "indexed": true,
          "internalType": "uint256",
          "name": "campaignId",
          "type": "uint256"
        },
        {
          "indexed": false,
          "internalType": "string",
          "name": "field",
          "type": "string"
        }
      ],
      "name": "CampaignUpdated",
      "type": "event"
    },
    {
      "anonymous": false,
      "inputs": [
        {
          "indexed": true,
          "internalType": "uint256",
          "name": "campaignId",
          "type": "uint256"
        },
        {
          "indexed": false,
          "internalType": "uint256",
          "name": "gross",
          "type": "uint256"
        },
        {
          "indexed": false,
          "internalType": "uint256",
          "name": "net",
          "type": "uint256"
        },
        {
          "indexed": false,
          "internalType": "uint256",
          "name": "tip",
          "type": "uint256"
        },
        {
          "indexed": false,
          "internalType": "bool",
          "name": "isOnchain",
          "type": "bool"
        }
      ],
      "name": "ContributionRecorded",
      "type": "event"
    },
    {
      "anonymous": false,
      "inputs": [
        {
          "indexed": false,
          "internalType": "uint96",
          "name": "newRoyaltyBps",
          "type": "uint96"
        }
      ],
      "name": "DefaultRoyaltyUpdated",
      "type": "event"
    },
    {
      "anonymous": false,
      "inputs": [
        {
          "indexed": true,
          "internalType": "uint256",
          "name": "campaignId",
          "type": "uint256"
        },
        {
          "indexed": true,
          "internalType": "uint256",
          "name": "tokenId",
          "type": "uint256"
        },
        {
          "indexed": true,
          "internalType": "address",
          "name": "donor",
          "type": "address"
        },
        {
          "indexed": false,
          "internalType": "uint256",
          "name": "editionNumber",
          "type": "uint256"
        },
        {
          "indexed": false,
          "internalType": "uint256",
          "name": "amountPaid",
          "type": "uint256"
        }
      ],
      "name": "EditionMinted",
      "type": "event"
    },
    {
      "anonymous": false,
      "inputs": [
        {
          "indexed": true,
          "internalType": "address",
          "name": "to",
          "type": "address"
        },
        {
          "indexed": false,
          "internalType": "uint256",
          "name": "amount",
          "type": "uint256"
        }
      ],
      "name": "EmergencyWithdraw",
      "type": "event"
    },
    {
      "anonymous": false,
      "inputs": [
        {
          "indexed": false,
          "internalType": "uint256",
          "name": "_tokenId",
          "type": "uint256"
        }
      ],
      "name": "MetadataUpdate",
      "type": "event"
    },
    {
      "anonymous": false,
      "inputs": [
        {
          "indexed": true,
          "internalType": "address",
          "name": "previousOwner",
          "type": "address"
        },
        {
          "indexed": true,
          "internalType": "address",
          "name": "newOwner",
          "type": "address"
        }
      ],
      "name": "OwnershipTransferred",
      "type": "event"
    },
    {
      "anonymous": false,
      "inputs": [
        {
          "indexed": false,
          "internalType": "address",
          "name": "account",
          "type": "address"
        }
      ],
      "name": "Paused",
      "type": "event"
    },
    {
      "anonymous": false,
      "inputs": [
        {
          "indexed": true,
          "internalType": "uint256",
          "name": "tokenId",
          "type": "uint256"
        },
        {
          "indexed": true,
          "internalType": "address",
          "name": "burner",
          "type": "address"
        }
      ],
      "name": "TokenBurned",
      "type": "event"
    },
    {
      "anonymous": false,
      "inputs": [
        {
          "indexed": true,
          "internalType": "uint256",
          "name": "tokenId",
          "type": "uint256"
        },
        {
          "indexed": false,
          "internalType": "bool",
          "name": "frozen",
          "type": "bool"
        }
      ],
      "name": "TokenFrozen",
      "type": "event"
    },
    {
      "anonymous": false,
      "inputs": [
        {
          "indexed": true,
          "internalType": "uint256",
          "name": "tokenId",
          "type": "uint256"
        },
        {
          "indexed": false,
          "internalType": "bool",
          "name": "soulbound",
          "type": "bool"
        }
      ],
      "name": "TokenSoulbound",
      "type": "event"
    },
    {
      "anonymous": false,
      "inputs": [
        {
          "indexed": true,
          "internalType": "uint256",
          "name": "tokenId",
          "type": "uint256"
        },
        {
          "indexed": false,
          "internalType": "string",
          "name": "newURI",
          "type": "string"
        }
      ],
      "name": "TokenURIFixed",
      "type": "event"
    },
    {
      "anonymous": false,
      "inputs": [
        {
          "indexed": true,
          "internalType": "address",
          "name": "from",
          "type": "address"
        },
        {
          "indexed": true,
          "internalType": "address",
          "name": "to",
          "type": "address"
        },
        {
          "indexed": true,
          "internalType": "uint256",
          "name": "tokenId",
          "type": "uint256"
        }
      ],
      "name": "Transfer",
      "type": "event"
    },
    {
      "anonymous": false,
      "inputs": [
        {
          "indexed": true,
          "internalType": "address",
          "name": "oldTreasury",
          "type": "address"
        },
        {
          "indexed": true,
          "internalType": "address",
          "name": "newTreasury",
          "type": "address"
        }
      ],
      "name": "TreasuryUpdated",
      "type": "event"
    },
    {
      "anonymous": false,
      "inputs": [
        {
          "indexed": false,
          "internalType": "address",
          "name": "account",
          "type": "address"
        }
      ],
      "name": "Unpaused",
      "type": "event"
    },
    {
      "stateMutability": "payable",
      "type": "fallback"
    },
    {
      "inputs": [
        {
          "internalType": "uint256",
          "name": "tokenId",
          "type": "uint256"
        }
      ],
      "name": "adminBurn",
      "outputs": [],
      "stateMutability": "nonpayable",
      "type": "function"
    },
    {
      "inputs": [
        {
          "internalType": "address",
          "name": "to",
          "type": "address"
        },
        {
          "internalType": "uint256",
          "name": "tokenId",
          "type": "uint256"
        }
      ],
      "name": "approve",
      "outputs": [],
      "stateMutability": "nonpayable",
      "type": "function"
    },
    {
      "inputs": [
        {
          "internalType": "address",
          "name": "owner",
          "type": "address"
        }
      ],
      "name": "balanceOf",
      "outputs": [
        {
          "internalType": "uint256",
          "name": "",
          "type": "uint256"
        }
      ],
      "stateMutability": "view",
      "type": "function"
    },
    {
      "inputs": [
        {
          "internalType": "uint256[]",
          "name": "tokenIds",
          "type": "uint256[]"
        },
        {
          "internalType": "uint256",
          "name": "campaignId",
          "type": "uint256"
        }
      ],
      "name": "batchFixTokenCampaignLink",
      "outputs": [],
      "stateMutability": "nonpayable",
      "type": "function"
    },
    {
      "inputs": [
        {
          "internalType": "uint256[]",
          "name": "tokenIds",
          "type": "uint256[]"
        },
        {
          "internalType": "bool",
          "name": "freeze",
          "type": "bool"
        }
      ],
      "name": "batchFreezeTokens",
      "outputs": [],
      "stateMutability": "nonpayable",
      "type": "function"
    },
    {
      "inputs": [
        {
          "internalType": "uint256[]",
          "name": "tokenIds",
          "type": "uint256[]"
        },
        {
          "internalType": "string",
          "name": "uri",
          "type": "string"
        }
      ],
      "name": "batchSetTokenURI",
      "outputs": [],
      "stateMutability": "nonpayable",
      "type": "function"
    },
    {
      "inputs": [
        {
          "internalType": "address",
          "name": "addr",
          "type": "address"
        }
      ],
      "name": "blacklistAddress",
      "outputs": [],
      "stateMutability": "nonpayable",
      "type": "function"
    },
    {
      "inputs": [
        {
          "internalType": "address",
          "name": "",
          "type": "address"
        }
      ],
      "name": "blacklisted",
      "outputs": [
        {
          "internalType": "bool",
          "name": "",
          "type": "bool"
        }
      ],
      "stateMutability": "view",
      "type": "function"
    },
    {
      "inputs": [
        {
          "internalType": "uint256",
          "name": "tokenId",
          "type": "uint256"
        }
      ],
      "name": "burn",
      "outputs": [],
      "stateMutability": "nonpayable",
      "type": "function"
    },
    {
      "inputs": [
        {
          "internalType": "uint256",
          "name": "",
          "type": "uint256"
        },
        {
          "internalType": "uint256",
          "name": "",
          "type": "uint256"
        }
      ],
      "name": "campaignEditions",
      "outputs": [
        {
          "internalType": "uint256",
          "name": "",
          "type": "uint256"
        }
      ],
      "stateMutability": "view",
      "type": "function"
    },
    {
      "inputs": [
        {
          "internalType": "uint256",
          "name": "",
          "type": "uint256"
        }
      ],
      "name": "campaigns",
      "outputs": [
        {
          "internalType": "string",
          "name": "category",
          "type": "string"
        },
        {
          "internalType": "string",
          "name": "baseURI",
          "type": "string"
        },
        {
          "internalType": "uint256",
          "name": "goal",
          "type": "uint256"
        },
        {
          "internalType": "uint256",
          "name": "grossRaised",
          "type": "uint256"
        },
        {
          "internalType": "uint256",
          "name": "netRaised",
          "type": "uint256"
        },
        {
          "internalType": "uint256",
          "name": "tipsReceived",
          "type": "uint256"
        },
        {
          "internalType": "uint256",
          "name": "editionsMinted",
          "type": "uint256"
        },
        {
          "internalType": "uint256",
          "name": "maxEditions",
          "type": "uint256"
        },
        {
          "internalType": "uint256",
          "name": "pricePerEdition",
          "type": "uint256"
        },
        {
          "internalType": "uint256",
          "name": "nonprofitFeeRate",
          "type": "uint256"
        },
        {
          "internalType": "address",
          "name": "nonprofit",
          "type": "address"
        },
        {
          "internalType": "address",
          "name": "submitter",
          "type": "address"
        },
        {
          "internalType": "bool",
          "name": "active",
          "type": "bool"
        },
        {
          "internalType": "bool",
          "name": "closed",
          "type": "bool"
        },
        {
          "internalType": "bool",
          "name": "refunded",
          "type": "bool"
        }
      ],
      "stateMutability": "view",
      "type": "function"
    },
    {
      "inputs": [
        {
          "internalType": "uint256",
          "name": "campaignId",
          "type": "uint256"
        }
      ],
      "name": "closeCampaign",
      "outputs": [],
      "stateMutability": "nonpayable",
      "type": "function"
    },
    {
      "inputs": [
        {
          "internalType": "string",
          "name": "category",
          "type": "string"
        },
        {
          "internalType": "string",
          "name": "baseURI",
          "type": "string"
        },
        {
          "internalType": "uint256",
          "name": "goal",
          "type": "uint256"
        },
        {
          "internalType": "uint256",
          "name": "maxEditions",
          "type": "uint256"
        },
        {
          "internalType": "uint256",
          "name": "pricePerEdition",
          "type": "uint256"
        },
        {
          "internalType": "uint256",
          "name": "feeRate",
          "type": "uint256"
        },
        {
          "internalType": "address",
          "name": "submitter",
          "type": "address"
        }
      ],
      "name": "createCampaign",
      "outputs": [
        {
          "internalType": "uint256",
          "name": "",
          "type": "uint256"
        }
      ],
      "stateMutability": "nonpayable",
      "type": "function"
    },
    {
      "inputs": [
        {
          "internalType": "uint256",
          "name": "campaignId",
          "type": "uint256"
        }
      ],
      "name": "deactivateCampaign",
      "outputs": [],
      "stateMutability": "nonpayable",
      "type": "function"
    },
    {
      "inputs": [],
      "name": "defaultRoyaltyBps",
      "outputs": [
        {
          "internalType": "uint96",
          "name": "",
          "type": "uint96"
        }
      ],
      "stateMutability": "view",
      "type": "function"
    },
    {
      "inputs": [],
      "name": "deleteDefaultRoyalty",
      "outputs": [],
      "stateMutability": "nonpayable",
      "type": "function"
    },
    {
      "inputs": [],
      "name": "emergencyWithdraw",
      "outputs": [],
      "stateMutability": "nonpayable",
      "type": "function"
    },
    {
      "inputs": [
        {
          "internalType": "uint256",
          "name": "fromTokenId",
          "type": "uint256"
        },
        {
          "internalType": "uint256",
          "name": "toTokenId",
          "type": "uint256"
        }
      ],
      "name": "emitBatchMetadataUpdate",
      "outputs": [],
      "stateMutability": "nonpayable",
      "type": "function"
    },
    {
      "inputs": [
        {
          "internalType": "uint256",
          "name": "tokenId",
          "type": "uint256"
        }
      ],
      "name": "emitMetadataUpdate",
      "outputs": [],
      "stateMutability": "nonpayable",
      "type": "function"
    },
    {
      "inputs": [
        {
          "internalType": "uint256",
          "name": "tokenId",
          "type": "uint256"
        },
        {
          "internalType": "uint256",
          "name": "campaignId",
          "type": "uint256"
        }
      ],
      "name": "fixTokenCampaignLink",
      "outputs": [],
      "stateMutability": "nonpayable",
      "type": "function"
    },
    {
      "inputs": [
        {
          "internalType": "uint256",
          "name": "tokenId",
          "type": "uint256"
        }
      ],
      "name": "freezeToken",
      "outputs": [],
      "stateMutability": "nonpayable",
      "type": "function"
    },
    {
      "inputs": [
        {
          "internalType": "uint256",
          "name": "",
          "type": "uint256"
        }
      ],
      "name": "frozenTokens",
      "outputs": [
        {
          "internalType": "bool",
          "name": "",
          "type": "bool"
        }
      ],
      "stateMutability": "view",
      "type": "function"
    },
    {
      "inputs": [
        {
          "internalType": "uint256",
          "name": "tokenId",
          "type": "uint256"
        }
      ],
      "name": "getApproved",
      "outputs": [
        {
          "internalType": "address",
          "name": "",
          "type": "address"
        }
      ],
      "stateMutability": "view",
      "type": "function"
    },
    {
      "inputs": [
        {
          "internalType": "uint256",
          "name": "campaignId",
          "type": "uint256"
        }
      ],
      "name": "getCampaign",
      "outputs": [
        {
          "internalType": "string",
          "name": "category",
          "type": "string"
        },
        {
          "internalType": "string",
          "name": "baseURI",
          "type": "string"
        },
        {
          "internalType": "uint256",
          "name": "goal",
          "type": "uint256"
        },
        {
          "internalType": "uint256",
          "name": "grossRaised",
          "type": "uint256"
        },
        {
          "internalType": "uint256",
          "name": "netRaised",
          "type": "uint256"
        },
        {
          "internalType": "uint256",
          "name": "editionsMinted",
          "type": "uint256"
        },
        {
          "internalType": "uint256",
          "name": "maxEditions",
          "type": "uint256"
        },
        {
          "internalType": "uint256",
          "name": "pricePerEdition",
          "type": "uint256"
        },
        {
          "internalType": "bool",
          "name": "active",
          "type": "bool"
        },
        {
          "internalType": "bool",
          "name": "closed",
          "type": "bool"
        }
      ],
      "stateMutability": "view",
      "type": "function"
    },
    {
      "inputs": [
        {
          "internalType": "uint256",
          "name": "campaignId",
          "type": "uint256"
        }
      ],
      "name": "getCampaignEditions",
      "outputs": [
        {
          "internalType": "uint256[]",
          "name": "",
          "type": "uint256[]"
        }
      ],
      "stateMutability": "view",
      "type": "function"
    },
    {
      "inputs": [
        {
          "internalType": "uint256",
          "name": "tokenId",
          "type": "uint256"
        }
      ],
      "name": "getEditionInfo",
      "outputs": [
        {
          "internalType": "uint256",
          "name": "campaignId",
          "type": "uint256"
        },
        {
          "internalType": "uint256",
          "name": "editionNumber",
          "type": "uint256"
        },
        {
          "internalType": "uint256",
          "name": "totalEditions",
          "type": "uint256"
        }
      ],
      "stateMutability": "view",
      "type": "function"
    },
    {
      "inputs": [
        {
          "internalType": "address",
          "name": "owner",
          "type": "address"
        },
        {
          "internalType": "address",
          "name": "operator",
          "type": "address"
        }
      ],
      "name": "isApprovedForAll",
      "outputs": [
        {
          "internalType": "bool",
          "name": "",
          "type": "bool"
        }
      ],
      "stateMutability": "view",
      "type": "function"
    },
    {
      "inputs": [
        {
          "internalType": "uint256",
          "name": "tokenId",
          "type": "uint256"
        }
      ],
      "name": "makeSoulbound",
      "outputs": [],
      "stateMutability": "nonpayable",
      "type": "function"
    },
    {
      "inputs": [
        {
          "internalType": "uint256",
          "name": "campaignId",
          "type": "uint256"
        }
      ],
      "name": "markCampaignRefunded",
      "outputs": [],
      "stateMutability": "nonpayable",
      "type": "function"
    },
    {
      "inputs": [
        {
          "internalType": "uint256",
          "name": "campaignId",
          "type": "uint256"
        },
        {
          "internalType": "uint256",
          "name": "quantity",
          "type": "uint256"
        }
      ],
      "name": "mintBatchWithBDAG",
      "outputs": [
        {
          "internalType": "uint256[]",
          "name": "tokenIds",
          "type": "uint256[]"
        }
      ],
      "stateMutability": "payable",
      "type": "function"
    },
    {
      "inputs": [
        {
          "internalType": "uint256",
          "name": "campaignId",
          "type": "uint256"
        },
        {
          "internalType": "uint256",
          "name": "quantity",
          "type": "uint256"
        },
        {
          "internalType": "uint256",
          "name": "tipAmount",
          "type": "uint256"
        }
      ],
      "name": "mintBatchWithBDAGAndTip",
      "outputs": [
        {
          "internalType": "uint256[]",
          "name": "tokenIds",
          "type": "uint256[]"
        }
      ],
      "stateMutability": "payable",
      "type": "function"
    },
    {
      "inputs": [
        {
          "internalType": "uint256",
          "name": "campaignId",
          "type": "uint256"
        },
        {
          "internalType": "address",
          "name": "donor",
          "type": "address"
        },
        {
          "internalType": "uint256",
          "name": "amountPaid",
          "type": "uint256"
        }
      ],
      "name": "mintEditionToDonor",
      "outputs": [
        {
          "internalType": "uint256",
          "name": "",
          "type": "uint256"
        }
      ],
      "stateMutability": "nonpayable",
      "type": "function"
    },
    {
      "inputs": [
        {
          "internalType": "uint256",
          "name": "campaignId",
          "type": "uint256"
        }
      ],
      "name": "mintWithBDAG",
      "outputs": [
        {
          "internalType": "uint256",
          "name": "",
          "type": "uint256"
        }
      ],
      "stateMutability": "payable",
      "type": "function"
    },
    {
      "inputs": [
        {
          "internalType": "uint256",
          "name": "campaignId",
          "type": "uint256"
        },
        {
          "internalType": "uint256",
          "name": "tipAmount",
          "type": "uint256"
        }
      ],
      "name": "mintWithBDAGAndTip",
      "outputs": [
        {
          "internalType": "uint256",
          "name": "",
          "type": "uint256"
        }
      ],
      "stateMutability": "payable",
      "type": "function"
    },
    {
      "inputs": [],
      "name": "name",
      "outputs": [
        {
          "internalType": "string",
          "name": "",
          "type": "string"
        }
      ],
      "stateMutability": "view",
      "type": "function"
    },
    {
      "inputs": [],
      "name": "owner",
      "outputs": [
        {
          "internalType": "address",
          "name": "",
          "type": "address"
        }
      ],
      "stateMutability": "view",
      "type": "function"
    },
    {
      "inputs": [
        {
          "internalType": "uint256",
          "name": "tokenId",
          "type": "uint256"
        }
      ],
      "name": "ownerOf",
      "outputs": [
        {
          "internalType": "address",
          "name": "",
          "type": "address"
        }
      ],
      "stateMutability": "view",
      "type": "function"
    },
    {
      "inputs": [],
      "name": "pause",
      "outputs": [],
      "stateMutability": "nonpayable",
      "type": "function"
    },
    {
      "inputs": [],
      "name": "paused",
      "outputs": [
        {
          "internalType": "bool",
          "name": "",
          "type": "bool"
        }
      ],
      "stateMutability": "view",
      "type": "function"
    },
    {
      "inputs": [
        {
          "internalType": "uint256",
          "name": "campaignId",
          "type": "uint256"
        }
      ],
      "name": "reactivateCampaign",
      "outputs": [],
      "stateMutability": "nonpayable",
      "type": "function"
    },
    {
      "inputs": [
        {
          "internalType": "uint256",
          "name": "campaignId",
          "type": "uint256"
        },
        {
          "internalType": "uint256",
          "name": "gross",
          "type": "uint256"
        },
        {
          "internalType": "uint256",
          "name": "net",
          "type": "uint256"
        },
        {
          "internalType": "uint256",
          "name": "tip",
          "type": "uint256"
        },
        {
          "internalType": "bool",
          "name": "isOnchain",
          "type": "bool"
        }
      ],
      "name": "recordContribution",
      "outputs": [],
      "stateMutability": "nonpayable",
      "type": "function"
    },
    {
      "inputs": [
        {
          "internalType": "address",
          "name": "addr",
          "type": "address"
        }
      ],
      "name": "removeBlacklist",
      "outputs": [],
      "stateMutability": "nonpayable",
      "type": "function"
    },
    {
      "inputs": [
        {
          "internalType": "uint256",
          "name": "tokenId",
          "type": "uint256"
        }
      ],
      "name": "removeSoulbound",
      "outputs": [],
      "stateMutability": "nonpayable",
      "type": "function"
    },
    {
      "inputs": [],
      "name": "renounceOwnership",
      "outputs": [],
      "stateMutability": "nonpayable",
      "type": "function"
    },
    {
      "inputs": [
        {
          "internalType": "uint256",
          "name": "tokenId",
          "type": "uint256"
        },
        {
          "internalType": "uint256",
          "name": "salePrice",
          "type": "uint256"
        }
      ],
      "name": "royaltyInfo",
      "outputs": [
        {
          "internalType": "address",
          "name": "",
          "type": "address"
        },
        {
          "internalType": "uint256",
          "name": "",
          "type": "uint256"
        }
      ],
      "stateMutability": "view",
      "type": "function"
    },
    {
      "inputs": [
        {
          "internalType": "address",
          "name": "from",
          "type": "address"
        },
        {
          "internalType": "address",
          "name": "to",
          "type": "address"
        },
        {
          "internalType": "uint256",
          "name": "tokenId",
          "type": "uint256"
        }
      ],
      "name": "safeTransferFrom",
      "outputs": [],
      "stateMutability": "nonpayable",
      "type": "function"
    },
    {
      "inputs": [
        {
          "internalType": "address",
          "name": "from",
          "type": "address"
        },
        {
          "internalType": "address",
          "name": "to",
          "type": "address"
        },
        {
          "internalType": "uint256",
          "name": "tokenId",
          "type": "uint256"
        },
        {
          "internalType": "bytes",
          "name": "data",
          "type": "bytes"
        }
      ],
      "name": "safeTransferFrom",
      "outputs": [],
      "stateMutability": "nonpayable",
      "type": "function"
    },
    {
      "inputs": [
        {
          "internalType": "address",
          "name": "operator",
          "type": "address"
        },
        {
          "internalType": "bool",
          "name": "approved",
          "type": "bool"
        }
      ],
      "name": "setApprovalForAll",
      "outputs": [],
      "stateMutability": "nonpayable",
      "type": "function"
    },
    {
      "inputs": [
        {
          "internalType": "address",
          "name": "receiver",
          "type": "address"
        },
        {
          "internalType": "uint96",
          "name": "feeNumerator",
          "type": "uint96"
        }
      ],
      "name": "setDefaultRoyalty",
      "outputs": [],
      "stateMutability": "nonpayable",
      "type": "function"
    },
    {
      "inputs": [
        {
          "internalType": "uint256",
          "name": "tokenId",
          "type": "uint256"
        },
        {
          "internalType": "address",
          "name": "receiver",
          "type": "address"
        },
        {
          "internalType": "uint96",
          "name": "feeNumerator",
          "type": "uint96"
        }
      ],
      "name": "setTokenRoyalty",
      "outputs": [],
      "stateMutability": "nonpayable",
      "type": "function"
    },
    {
      "inputs": [
        {
          "internalType": "uint256",
          "name": "tokenId",
          "type": "uint256"
        },
        {
          "internalType": "string",
          "name": "uri",
          "type": "string"
        }
      ],
      "name": "setTokenURI",
      "outputs": [],
      "stateMutability": "nonpayable",
      "type": "function"
    },
    {
      "inputs": [
        {
          "internalType": "address",
          "name": "newTreasury",
          "type": "address"
        }
      ],
      "name": "setTreasury",
      "outputs": [],
      "stateMutability": "nonpayable",
      "type": "function"
    },
    {
      "inputs": [
        {
          "internalType": "uint256",
          "name": "",
          "type": "uint256"
        }
      ],
      "name": "soulbound",
      "outputs": [
        {
          "internalType": "bool",
          "name": "",
          "type": "bool"
        }
      ],
      "stateMutability": "view",
      "type": "function"
    },
    {
      "inputs": [
        {
          "internalType": "bytes4",
          "name": "interfaceId",
          "type": "bytes4"
        }
      ],
      "name": "supportsInterface",
      "outputs": [
        {
          "internalType": "bool",
          "name": "",
          "type": "bool"
        }
      ],
      "stateMutability": "view",
      "type": "function"
    },
    {
      "inputs": [],
      "name": "symbol",
      "outputs": [
        {
          "internalType": "string",
          "name": "",
          "type": "string"
        }
      ],
      "stateMutability": "view",
      "type": "function"
    },
    {
      "inputs": [
        {
          "internalType": "uint256",
          "name": "index",
          "type": "uint256"
        }
      ],
      "name": "tokenByIndex",
      "outputs": [
        {
          "internalType": "uint256",
          "name": "",
          "type": "uint256"
        }
      ],
      "stateMutability": "view",
      "type": "function"
    },
    {
      "inputs": [
        {
          "internalType": "uint256",
          "name": "",
          "type": "uint256"
        }
      ],
      "name": "tokenEditionNumber",
      "outputs": [
        {
          "internalType": "uint256",
          "name": "",
          "type": "uint256"
        }
      ],
      "stateMutability": "view",
      "type": "function"
    },
    {
      "inputs": [
        {
          "internalType": "address",
          "name": "owner",
          "type": "address"
        },
        {
          "internalType": "uint256",
          "name": "index",
          "type": "uint256"
        }
      ],
      "name": "tokenOfOwnerByIndex",
      "outputs": [
        {
          "internalType": "uint256",
          "name": "",
          "type": "uint256"
        }
      ],
      "stateMutability": "view",
      "type": "function"
    },
    {
      "inputs": [
        {
          "internalType": "uint256",
          "name": "",
          "type": "uint256"
        }
      ],
      "name": "tokenToCampaign",
      "outputs": [
        {
          "internalType": "uint256",
          "name": "",
          "type": "uint256"
        }
      ],
      "stateMutability": "view",
      "type": "function"
    },
    {
      "inputs": [
        {
          "internalType": "uint256",
          "name": "tokenId",
          "type": "uint256"
        }
      ],
      "name": "tokenURI",
      "outputs": [
        {
          "internalType": "string",
          "name": "",
          "type": "string"
        }
      ],
      "stateMutability": "view",
      "type": "function"
    },
    {
      "inputs": [],
      "name": "totalCampaigns",
      "outputs": [
        {
          "internalType": "uint256",
          "name": "",
          "type": "uint256"
        }
      ],
      "stateMutability": "view",
      "type": "function"
    },
    {
      "inputs": [],
      "name": "totalSupply",
      "outputs": [
        {
          "internalType": "uint256",
          "name": "",
          "type": "uint256"
        }
      ],
      "stateMutability": "view",
      "type": "function"
    },
    {
      "inputs": [
        {
          "internalType": "address",
          "name": "from",
          "type": "address"
        },
        {
          "internalType": "address",
          "name": "to",
          "type": "address"
        },
        {
          "internalType": "uint256",
          "name": "tokenId",
          "type": "uint256"
        }
      ],
      "name": "transferFrom",
      "outputs": [],
      "stateMutability": "nonpayable",
      "type": "function"
    },
    {
      "inputs": [
        {
          "internalType": "address",
          "name": "newOwner",
          "type": "address"
        }
      ],
      "name": "transferOwnership",
      "outputs": [],
      "stateMutability": "nonpayable",
      "type": "function"
    },
    {
      "inputs": [],
      "name": "treasury",
      "outputs": [
        {
          "internalType": "address",
          "name": "",
          "type": "address"
        }
      ],
      "stateMutability": "view",
      "type": "function"
    },
    {
      "inputs": [
        {
          "internalType": "uint256",
          "name": "tokenId",
          "type": "uint256"
        }
      ],
      "name": "unfreezeToken",
      "outputs": [],
      "stateMutability": "nonpayable",
      "type": "function"
    },
    {
      "inputs": [],
      "name": "unpause",
      "outputs": [],
      "stateMutability": "nonpayable",
      "type": "function"
    },
    {
      "inputs": [
        {
          "internalType": "uint256",
          "name": "campaignId",
          "type": "uint256"
        },
        {
          "internalType": "string",
          "name": "newCategory",
          "type": "string"
        }
      ],
      "name": "updateCampaignCategory",
      "outputs": [],
      "stateMutability": "nonpayable",
      "type": "function"
    },
    {
      "inputs": [
        {
          "internalType": "uint256",
          "name": "campaignId",
          "type": "uint256"
        },
        {
          "internalType": "uint256",
          "name": "newFeeRate",
          "type": "uint256"
        }
      ],
      "name": "updateCampaignFeeRate",
      "outputs": [],
      "stateMutability": "nonpayable",
      "type": "function"
    },
    {
      "inputs": [
        {
          "internalType": "uint256",
          "name": "campaignId",
          "type": "uint256"
        },
        {
          "internalType": "uint256",
          "name": "newGoal",
          "type": "uint256"
        }
      ],
      "name": "updateCampaignGoal",
      "outputs": [],
      "stateMutability": "nonpayable",
      "type": "function"
    },
    {
      "inputs": [
        {
          "internalType": "uint256",
          "name": "campaignId",
          "type": "uint256"
        },
        {
          "internalType": "uint256",
          "name": "newMax",
          "type": "uint256"
        }
      ],
      "name": "updateCampaignMaxEditions",
      "outputs": [],
      "stateMutability": "nonpayable",
      "type": "function"
    },
    {
      "inputs": [
        {
          "internalType": "uint256",
          "name": "campaignId",
          "type": "uint256"
        },
        {
          "internalType": "string",
          "name": "newBaseURI",
          "type": "string"
        }
      ],
      "name": "updateCampaignMetadata",
      "outputs": [],
      "stateMutability": "nonpayable",
      "type": "function"
    },
    {
      "inputs": [
        {
          "internalType": "uint256",
          "name": "campaignId",
          "type": "uint256"
        },
        {
          "internalType": "uint256",
          "name": "newPrice",
          "type": "uint256"
        }
      ],
      "name": "updateCampaignPrice",
      "outputs": [],
      "stateMutability": "nonpayable",
      "type": "function"
    },
    {
      "inputs": [
        {
          "internalType": "uint256",
          "name": "campaignId",
          "type": "uint256"
        },
        {
          "internalType": "address",
          "name": "newSubmitter",
          "type": "address"
        }
      ],
      "name": "updateCampaignSubmitter",
      "outputs": [],
      "stateMutability": "nonpayable",
      "type": "function"
    },
    {
      "inputs": [
        {
          "internalType": "address payable",
          "name": "to",
          "type": "address"
        },
        {
          "internalType": "uint256",
          "name": "amount",
          "type": "uint256"
        }
      ],
      "name": "withdraw",
      "outputs": [],
      "stateMutability": "nonpayable",
      "type": "function"
    },
    {
      "stateMutability": "payable",
      "type": "receive"
    }
  ],
  "bytecode": "0x60406080815234620003dc5762000015620003e1565b601581526020907f50617472696f74506c656467652045646974696f6e0000000000000000000000828201526200004b620003e1565b60038082526250504560e81b8483015282516001600160401b039492858211620001cf57600254916001958684811c94168015620003d1575b86851014620002e4578190601f948581116200037a575b508690858311600114620003115760009262000305575b505060001982861b1c191690861b176002555b805191868311620001cf578354918683811c93168015620002fa575b86841014620002e45782828594116200028c575b5085918311600114620002255760009262000219575b505060001982841b1c191690841b1790555b33156200020157600d5484519290336001600160a01b0382167f8be0079c531659141344cd1fd0a4f28419497f9722a3daafe3b4186f6b6457e0600080a36001600160a81b0319163360ff60a01b19811691909117600d55600e91909155607d60a11b1760118190559260a084901c92612710808511620001e557505084519081860190811182821017620001cf578552338152015260018060a01b0319163317600055516149799081620004028239f35b634e487b7160e01b600052604160045260246000fd5b636f483d0960e01b825260048201859052602482015260449150fd5b8351631e4fbdf760e01b815260006004820152602490fd5b0151905038806200010b565b90869350601f1983169185600052866000209260005b888282106200027557505084116200025c575b505050811b0190556200011d565b015160001983861b60f8161c191690553880806200024e565b8385015186558a979095019493840193016200023b565b9091925084600052856000208380860160051c820192888710620002da575b9186958a929594930160051c01915b828110620002ca575050620000f5565b60008155869550899101620002ba565b92508192620002ab565b634e487b7160e01b600052602260045260246000fd5b92607f1692620000e1565b015190503880620000b2565b90889350601f198316916002600052886000209260005b8a8282106200036357505084116200034a575b505050811b01600255620000c5565b015160001983881b60f8161c191690553880806200033b565b8385015186558c9790950194938401930162000328565b9091506002600052866000208580850160051c820192898610620003c7575b918a91869594930160051c01915b828110620003b75750506200009b565b600081558594508a9101620003a7565b9250819262000399565b93607f169362000084565b600080fd5b60408051919082016001600160401b03811183821017620001cf5760405256fe608080604052600436101561001a575b50361561001857005b005b60003560e01c90816301ffc9a71461317b5750806302932f561461315d57806304634d8d1461307657806306fdde0314612fc8578063081812fc14612f8a578063095ea7b314612ea35780630d6f0d2b14612dde578063141961bc14612cd1578063162094c414612c495780631797c8f214612ac057806318160ddd14612aa257806318d33e4114612a815780631cc76d75146129ae5780631dda279b1461281d5780631e2b8983146127075780631fdc217c146125f757806323b872dd146125e057806325532ecd146125245780632a55205a146124725780632a76d5531461235d5780632f745c59146122d95780633190b9ea146122925780633705f2a8146122195780633f4ba83a146121a7578063407de9df1461217657806342842e0e1461214857806342966c68146120935780634639cfaa14611fb757806347c735fc14611f585780634d787ea914611ef95780634db7bfff14611d335780634f6ccce714611cdd57806351a0bbb214611c725780635598f8cc14611bae5780635944c75314611ad95780635c975abb14611ab357806361d027b314611a8a5780636352211e14611a5a5780636fb8696c146119c557806370a082311461199a578063715018a61461193d5780637a1815971461190c5780637eca30fe146118975780638079ca0c146118435780638456cb59146117e15780638da5cb5b146117b85780638e20f98c146115c45780638f52d21a146114b857806395d89b41146113d557806396ab0493146113b6578063a0a441bb14611350578063a22cb465146112a5578063a48301141461125f578063a591eea1146111da578063aa1b103f146111bb578063b0e1c1e114611156578063b6358d991461112a578063b6854f96146110a5578063b88d4fde1461103b578063badb97ff14610fb9578063c169221314610f8d578063c608e72a14610e41578063c87b56dd14610de4578063cc3c300814610985578063d88d6ef3146107eb578063db2e21bc1461074e578063dbac26e91461070f578063e985e9c5146106b9578063eb91e6511461064d578063f0f44260146105a5578063f2fde38b1461051c578063f3290d75146104ad578063f3fef3a31461040c578063f401f8a0146103db5763fb77211c14610360573861000f565b346103d65761036e366132a0565b610376613e6a565b8160005260156020526008604060002061039a60ff600b83015460a81c16156135b3565b0155600080516020614904833981519152606060405160208152600f60208201526e383934b1b2a832b922b234ba34b7b760891b6040820152a2005b600080fd5b346103d65760203660031901126103d6576004356000526012602052602060ff604060002054166040519015158152f35b346103d65760403660031901126103d6576004356001600160a01b038116908190036103d6576024359061043e613e6a565b8147106104715760008080938193828215610468575bf11561045c57005b6040513d6000823e3d90fd5b506108fc610454565b60405162461bcd60e51b8152602060048201526014602482015273496e73756666696369656e742062616c616e636560601b6044820152606490fd5b346103d65760203660031901126103d6576104c6613234565b6104ce613e6a565b60018060a01b03168060005260136020526040600020600160ff198254161790557f97b7af35c8c05eca90f543eb78b16fdf2664d3e6c9a907286f310647d9813b71602060405160018152a2005b346103d65760203660031901126103d657610535613234565b61053d613e6a565b6001600160a01b0390811690811561058c57600d54826001600160601b0360a01b821617600d55167f8be0079c531659141344cd1fd0a4f28419497f9722a3daafe3b4186f6b6457e0600080a3005b604051631e4fbdf760e01b815260006004820152602490fd5b346103d65760203660031901126103d6576105be613234565b6105c6613e6a565b6001600160a01b0390811690811561061557601154826001600160601b0360a01b821617601155167f4ab5be82436d353e61ca18726e984e561f5c1cc7c6d38b29d2553c790434705a600080a3005b60405162461bcd60e51b815260206004820152601060248201526f496e76616c696420747265617375727960801b6044820152606490fd5b346103d65760203660031901126103d657610666613234565b61066e613e6a565b6001600160a01b03166000818152601360209081526040808320805460ff19169055519182527f97b7af35c8c05eca90f543eb78b16fdf2664d3e6c9a907286f310647d9813b7191a2005b346103d65760403660031901126103d6576106d2613234565b6106da61324a565b9060018060a01b03809116600052600760205260406000209116600052602052602060ff604060002054166040519015158152f35b346103d65760203660031901126103d6576001600160a01b03610730613234565b166000526013602052602060ff604060002054166040519015158152f35b346103d65760003660031901126103d657610767613e6a565b4780156107b95760018060a01b03600080808085856011541682f11561045c5760207f5fafa99d0643513820be26656b45130b01e1c03062e1266bf36f88cbd3bd9695916011541692604051908152a2005b60405162461bcd60e51b815260206004820152600a6024820152694e6f2062616c616e636560b01b6044820152606490fd5b6020806003193601126103d65760043561080361400b565b336000526013825261081d60ff6040600020541615613655565b61082561402c565b806000526015825260406000209061086460ff600b84015461084b828260a01c1661369a565b61085a828260a81c16156135b3565b60b01c16156136dc565b61087c60078301548015908115610977575b5061371c565b61088c6008830154341015613782565b600f5491610899836137c5565b600f556108ee6108e8600160068401936108b385546137c5565b809555600381016108c534825461375f565b9055600481016108d634825461375f565b90556108e2873361404f565b01613347565b84613ed1565b8260005260168452816040600020556017845280604060002055816000526018845261091e83604060002061381d565b604051908152348482015282826000805160206148e483398151915260403394a4600080516020614924833981519152608060405134815234868201526000604082015260016060820152a26001600e55604051908152f35b905060068401541085610876565b346103d65760e03660031901126103d6576004356001600160401b0381116103d6576109b59036906004016133ec565b6024356001600160401b0381116103d6576109d49036906004016133ec565b919060c4356001600160a01b03811681036103d6576109f1613e6a565b601054936109fe856137c5565b601055604051926101e08401918483106001600160401b03841117610d5757610a3892604052610a2f36878a61357c565b8552369161357c565b602083015260443560408301526000606083015260006080830152600060a0830152600060c083015260643560e083015260843561010083015260a4356101208301523361014083015260018060a01b0316610160820152600161018082015260006101a082015260006101c082015282600052601560205260406000209381518051906001600160401b038211610d5757610ade82610ad889546132b6565b89613840565b602090601f8311600114610d7857610b0f929160009183610d6d575b50508160011b916000199060031b1c19161790565b85555b6020820151918251956001600160401b038711610d5757868694610b48602099610b3f60018601546132b6565b60018601613840565b8890601f8311600114610cbd5792610ba183610c8c9694600b947f9a6f279818b6c3ecad22dd882c63460a80cee0df2841c888adb08588aff26c229997600092610cb25750508160011b916000199060031b1c19161790565b60018201555b60408301516002820155606083015160038201556080830151600482015560a0830151600582015560c0830151600682015560e0830151600782015561010083015160088201556101208301516009820155600a810160018060a01b03610140850151166001600160601b0360a01b825416179055019060018060a01b03610160820151169082549160ff60a01b610180830151151560a01b169060ff60a81b6101a0840151151560a81b16926101c060ff60b01b910151151560b01b169368ffffffffffffffffff60b81b1617171717905560405194608086526080860191613634565b9260443586820152606435604082015260843560608201528033940390a3604051908152f35b015190508d80610afa565b9060018401600052896000209160005b601f1985168110610d3d575083600b937f9a6f279818b6c3ecad22dd882c63460a80cee0df2841c888adb08588aff26c22989693600193610c8c9997601f19811610610d24575b505050811b016001820155610ba7565b015160001960f88460031b161c191690558c8080610d14565b8183015184558a9850600190930192918b01918b01610ccd565b634e487b7160e01b600052604160045260246000fd5b015190508880610afa565b9190876000526020600020906000935b601f1984168510610dc9576001945083601f19811610610db0575b505050811b018555610b12565b015160001960f88460031b161c19169055878080610da3565b81810151835560209485019460019093019290910190610d88565b346103d65760203660031901126103d657600435610e0181613e96565b50600052600c602052610e3d610e1a6040600020613347565b6000604051610e288161330b565b52604051918291602083526020830190613260565b0390f35b346103d657610e4f36613419565b610e5a929192613e6a565b8160005260209060158252604060002090610e7f60ff600b84015460a81c16156135b3565b6001600160401b038111610d5757610ea181610e9b84546132b6565b84613840565b6000601f8211600114610f1357816060949392610ee5926000805160206149048339815191529798600092610f085750508160011b916000199060031b1c19161790565b90555b6008604051918083528201526763617465676f727960c01b6040820152a2005b013590508880610afa565b601f1982169083600052846000209160005b818110610f7657509160008051602061490483398151915296978492606097969560019510610f5c575b505050811b019055610ee8565b0135600019600384901b60f8161c19169055878080610f4f565b91928660018192868c013581550194019201610f25565b346103d65760203660031901126103d65760043560005260166020526020604060002054604051908152f35b346103d65760203660031901126103d657600435610fd5613e6a565b6000818152600460205260409020546001600160a01b0390610ffa90821615156135f1565b81600052600460205260406000205416906110148161448d565b7f33631bcd0a4d34a7e2c240ab0753d5adfb7284d8ac89dab6876ec785c0cfa0e6600080a3005b346103d65760803660031901126103d657611054613234565b61105c61324a565b90604435606435926001600160401b0384116103d657366023850112156103d65761109461001894369060248160040135910161357c565b926110a08383836138a6565b6147a0565b346103d65760203660031901126103d6576004356110c1613e6a565b6000818152600460205260409020546110e4906001600160a01b031615156135f1565b8060005260126020526040600020600160ff198254161790557fbf025f2b09b91dc81d2b137bed7b878fb0bd75a3bfe4708d69989fda3c63485a602060405160018152a2005b346103d65760203660031901126103d65760043560005260176020526020604060002054604051908152f35b346103d65760203660031901126103d657600435611172613e6a565b6000818152601560205260408120600b01805461ffff60a01b1916600160a81b1790557f5e6eb33a418de5dbbc17f989f7ae362cdfbb1748c5d603137c767027a354edbc9080a2005b346103d65760003660031901126103d6576111d4613e6a565b60008055005b346103d65760203660031901126103d6576004356111f6613e6a565b600081815260046020526040902054611219906001600160a01b031615156135f1565b8060005260146020526040600020600160ff198254161790557f7fba17392135b4084a7d689c1f6d77139e1f1c18ee4651bf32dc35ae29ce9301602060405160018152a2005b346103d6577f6bd5c950a8d8df17f772f5af37cb3655737899cbf903264b9795592da439661c6040611290366132a0565b611298613e6a565b82519182526020820152a1005b346103d65760403660031901126103d6576112be613234565b6112c66134b1565b6001600160a01b03909116908115611337573360005260076020526040600020826000526020526113078160406000209060ff801983541691151516179055565b60405190151581527f17307eab39ab6107e8899845ad3d59bd9653f200f220920489ca2b5937696c3160203392a3005b604051630b61174360e31b815260048101839052602490fd5b346103d65760203660031901126103d65760043561136c613e6a565b6000818152601560205260408120600b01805462ff00ff60a01b1916600160b01b1790557f4825b022b52da7a8de8063d9ea8fd654176315fff40077d4c0374f8e1d8a245b9080a2005b346103d6576100186113c7366132a0565b906113d0613e6a565b613df0565b346103d65760003660031901126103d6576040516003546000826113f8836132b6565b918282526020936001908560018216918260001461149857505060011461143b575b5061142792500383613326565b610e3d604051928284938452830190613260565b84915060036000527fc2575a0e9e593c00f959f8c92f12db2869c3395a3b0502d05e2516446f71f85b906000915b85831061148057505061142793508201018561141a565b80548389018501528794508693909201918101611469565b60ff19168582015261142795151560051b850101925087915061141a9050565b346103d65760403660031901126103d6576001600160401b036004358181116103d6576114e990369060040161344c565b90916024359081116103d6576115039036906004016133ec565b909161150d613e6a565b60005b81811061151957005b6001906001600160a01b0361154e61153283868a613896565b356000908152600460205260409020546001600160a01b031690565b1661155a575b01611510565b61157a611568828589613896565b3561157436878961357c565b90613ed1565b611585818488613896565b357fac6d62cb5d30a7fff578060cd3dcf46ff2df7991a71c2d2aabca7e558f130f78604051806115bc60208083528201898b613634565b0390a2611554565b6115cd366132a0565b6115d561400b565b33600052602091601383526115f260ff6040600020541615613655565b6115fa61402c565b806000526015835260406000209261162060ff600b86015461084b828260a01c1661369a565b821515806117ad575b61163290613ccb565b61164a60078501548015908115611795575b50613d17565b61166361165b846008870154613c5a565b341015613782565b61166c83613d71565b926116778134613c6d565b906000600687019060019360018901915b8481106116f55750610e3d888860008051602061492483398151915260808a60048f600381016116b934825461375f565b9055016116c734825461375f565b90556040519034825234908201526000604082015260016060820152a26001600e55604051918291826134c0565b8084848a61176e8a958e60188e600f9561173d6117378854998a996117198b6137c5565b90556117258c546137c5565b809c556117328a3361404f565b613347565b88613ed1565b86600052601682528060406000205560178252886040600020556000525261176984604060002061381d565b613da3565b52604051918252848a8301528a6000805160206148e483398151915260403394a401611688565b90506117a585600688015461375f565b111586611644565b506032831115611629565b346103d65760003660031901126103d657600d546040516001600160a01b039091168152602090f35b346103d65760003660031901126103d6576117fa613e6a565b61180261400b565b600d805460ff60a01b1916600160a01b1790556040513381527f62e78cea01bee320cd4e420270b5ea74000d11b0c9f74754ebdbfc544b05a25890602090a1005b346103d65760203660031901126103d6576004356000526016602052606060406000205460176020526040600020548160005260156020526006604060002001549060405192835260208301526040820152f35b346103d65760203660031901126103d6576004356118b3613e6a565b806000526015602052600b60406000200160ff60a01b198154169055600080516020614904833981519152604051806119078160609060208152600660208201526561637469766560d01b60408201520190565b0390a2005b346103d65760203660031901126103d6576004356000526014602052602060ff604060002054166040519015158152f35b346103d65760003660031901126103d657611956613e6a565b600d80546001600160a01b031981169091556000906001600160a01b03167f8be0079c531659141344cd1fd0a4f28419497f9722a3daafe3b4186f6b6457e08280a3005b346103d65760203660031901126103d65760206119bd6119b8613234565b613db7565b604051908152f35b346103d65760403660031901126103d6576004356119e161324a565b6119e9613e6a565b816000526015602052600b60406000200190815490611a0e60ff8360a81c16156135b3565b60018060a01b0316906001600160601b0360a01b16179055600080516020614904833981519152606060405160208152600960208201526839bab136b4ba3a32b960b91b6040820152a2005b346103d65760203660031901126103d6576020611a78600435613e96565b6040516001600160a01b039091168152f35b346103d65760003660031901126103d6576011546040516001600160a01b039091168152602090f35b346103d65760003660031901126103d657602060ff600d5460a01c166040519015158152f35b346103d65760603660031901126103d657600435611af561324a565b604435906001600160601b0382168092036103d657611b12613e6a565b612710808311611b8a57506001600160a01b03908116928315611b6b5760405193611b3c856132f0565b84526020808501938452600091825260019052604090209251915160a01b6001600160a01b0319169116179055005b60449060405190634b4f842960e11b8252600482015260006024820152fd5b83606491846040519263dfd1fc1b60e01b8452600484015260248301526044820152fd5b346103d65760203660031901126103d6576004356000526015602052611c276040600020600281015460ff600383015460048401546006850154600786015490600887015492600b88015494611c35611c126001611c0b8c613347565b9b01613347565b6040519b8c9b8c6101408091528d0190613260565b908b820360208d0152613260565b9760408a01526060890152608088015260a087015260c086015260e0850152818160a01c16151561010085015260a81c1615156101208301520390f35b346103d657611c80366132a0565b611c88613e6a565b81600052601560205260026040600020611cac60ff600b83015460a81c16156135b3565b0155600080516020614904833981519152606060405160208152600460208201526319dbd85b60e21b6040820152a2005b346103d65760203660031901126103d657600435600a54811015611d1457611d066020916134fc565b90546040519160031b1c8152f35b6044906040519063295f44f760e21b8252600060048301526024820152fd5b60603660031901126103d657604435602435600435611d5061400b565b33600052602060138152611d6c60ff6040600020541615613655565b611d7461402c565b8160005260158152604060002092611d9a60ff600b86015461084b828260a01c1661369a565b80151580611eee575b611dac90613ccb565b611dc360078501548015908115611ed65750613d17565b611ddd61165b86611dd8846008890154613c5a565b61375f565b611de681613d71565b93611df186346137d4565b91611dfc8134613c6d565b906000600684019060019360018601915b848110611e8957610e3d8b8b6000805160206149248339815191528f8d6080918e60058f60038101611e4034825461375f565b905560048101611e5184825461375f565b905501611e5f83825461375f565b905560405192348452830152604082015260016060820152a26001600e55604051918291826134c0565b8084848c611eaf8f958b968f601890600f9561173d6117378854998a996117198b6137c5565b52604051918252848c8301528c6000805160206148e483398151915260403394a401611e0d565b9050611ee683600688015461375f565b111587611644565b506032811115611da3565b346103d65760203660031901126103d657600435611f15613e6a565b806000526012602052604060002060ff1981541690557fbf025f2b09b91dc81d2b137bed7b878fb0bd75a3bfe4708d69989fda3c63485a602060405160008152a2005b346103d65760203660031901126103d657600435611f74613e6a565b806000526014602052604060002060ff1981541690557f7fba17392135b4084a7d689c1f6d77139e1f1c18ee4651bf32dc35ae29ce9301602060405160008152a2005b346103d65760403660031901126103d6576004356001600160401b0381116103d657611fe790369060040161344c565b611fef6134b1565b611ff7613e6a565b60005b82811061200357005b6001906001600160a01b0361201c611532838789613896565b16612028575b01611ffa565b612033818587613896565b356000526020601281526120578460406000209060ff801983541691151516179055565b7fbf025f2b09b91dc81d2b137bed7b878fb0bd75a3bfe4708d69989fda3c63485a612083838789613896565b35916040518615158152a2612022565b346103d65760203660031901126103d65760043580600052600460205260018060a01b03604060002054163303612111578060005260126020526120df60ff6040600020541615613c8d565b6120e88161448d565b33907f33631bcd0a4d34a7e2c240ab0753d5adfb7284d8ac89dab6876ec785c0cfa0e6600080a3005b60405162461bcd60e51b815260206004820152600f60248201526e2737ba103a37b5b2b71037bbb732b960891b6044820152606490fd5b346103d6576100186121593661347c565b90604051926121678461330b565b600084526110a08383836138a6565b346103d657612184366132a0565b906000526018602052604060002080548210156103d657602091611d0691613549565b346103d65760003660031901126103d6576121c0613e6a565b600d5460ff8160a01c16156122075760ff60a01b1916600d556040513381527f5db9ee0a495bf2e6ff9c91a7834c1ba4fdd244a5e8aa4e537bd38aeae4b073aa90602090a1005b604051638dfc202b60e01b8152600490fd5b346103d6576020806003193601126103d65760043560005260186020526040600020906040519081602084549182815201936000526020600020916000905b82821061227b57610e3d8561226f81890382613326565b604051918291826134c0565b835486529485019460019384019390910190612258565b346103d65760203660031901126103d6576122ab613e6a565b7ff8e1a15aba9398e019f0b49df1a4fde98ee17ae345cb5f6b5e2c27f5033e8ce760206040516004358152a1005b346103d65760403660031901126103d6576122f2613234565b602435906122ff81613db7565b8210156123325760018060a01b031660005260086020526040600020906000526020526020604060002054604051908152f35b60405163295f44f760e21b81526001600160a01b039190911660048201526024810191909152604490fd5b346103d65760603660031901126103d657600435604061237b61324a565b91612384613e6a565b806000526020926015845282600020916123b660ff600b8501546123ac828260a01c1661369a565b60a81c16156135b3565b6123cd60078401548015908115612464575061371c565b6000805160206148e4833981519152600f549485936123eb856137c5565b600f55612418612412600160068901986124058a546137c5565b809a556108e2898661404f565b86613ed1565b8460005260168852838260002055601788528582600020558360005260188852612445858360002061381d565b8151958652604435888701526001600160a01b031694a4604051908152f35b905060068501541087610876565b346103d657612480366132a0565b90600052600160205260406000206040519061249b826132f0565b546001600160a01b0380821680845260a09290921c6020840152919290156124f7575b6124d9612710916001600160601b0360208601511690613c5a565b925160408051939091166001600160a01b0316835292046020820152f35b91506127106124d960405161250b816132f0565b600054848116825260a01c6020820152939150506124be565b346103d65760a03660031901126103d657600435602435604435606435916084358015158091036103d6576000805160206149248339815191529360809361256a613e6a565b8660005260156020526005604060002061258e60ff600b83015460a81c16156135b3565b612598848761375f565b6125a76003830191825461375f565b9055600481016125b884825461375f565b9055016125c683825461375f565b9055604051938452602084015260408301526060820152a2005b346103d6576100186125f13661347c565b916138a6565b346103d65760203660031901126103d657600435612613613e6a565b806000526015602052600b604060002001805460ff8160a81c166126c25760ff8160b01c166126855760ff60a01b1916600160a01b1790556040805160208082526006908201526561637469766560d01b91810191909152600080516020614904833981519152908060608101611907565b60405162461bcd60e51b815260206004820152601560248201527410d85b5c185a59db881dd85cc81c99599d5b991959605a1b6044820152606490fd5b60405162461bcd60e51b815260206004820152601b60248201527f43616d706169676e207065726d616e656e746c7920636c6f73656400000000006044820152606490fd5b346103d65760403660031901126103d6576004356001600160401b0381116103d65761273790369060040161344c565b9060243591612744613e6a565b60005b81811061275057005b6001600160a01b03612766611532838587613896565b16612774575b600101612747565b929190612782848284613896565b3560005260186020601681528460406000205584600052526040600020936000946000958154965b8781106127e4575b5060019394959650156127c8575b50905061276c565b6127de906127d7838688613896565b359061381d565b856127c0565b6127ee8184613549565b90546127fb86888a613896565b359160031b1c1461280e576001016127aa565b509495508594506001806127b2565b346103d65761282b36613419565b90612834613e6a565b8260005260209060158252604060002061285860ff600b83015460a81c16156135b3565b60018091016001600160401b038511610d575761287f8561287983546132b6565b83613840565b600085601f811160011461294957806128ae9260009161293e575b508160011b916000199060031b1c19161790565b90555b84600052601883526040600020816000905b612900575b60405185815287907fd0ed2732da48175aaae07fd675a2a78b1700515722f6675d7ff5f0e09f22f3099080611907818a018b8a613634565b81548110156129395790828261293161291a839585613549565b9054612927368c8b61357c565b9160031b1c613ed1565b0190916128c3565b6128c8565b90508501358961289a565b50601f198616908260005286866000209260005b8887838310612997575050501061297d575b50508185811b0190556128b1565b840135600019600388901b60f8161c19169055868061296f565b858a0135875590950194938401938a93500161295d565b346103d6576129bc366132a0565b6129c4613e6a565b81600052601560205260406000206129e660ff600b83015460a81c16156135b3565b81158015612a73575b15612a2e5760070155600080516020614904833981519152606060405160208152600b60208201526a6d617845646974696f6e7360a81b6040820152a2005b60405162461bcd60e51b815260206004820152601a60248201527f43616e6e6f74207265647563652062656c6f77206d696e7465640000000000006044820152606490fd5b5060068101548210156129ef565b346103d65760003660031901126103d657602060115460a01c604051908152f35b346103d65760003660031901126103d6576020600a54604051908152f35b612ac9366132a0565b612ad161400b565b3360005260209160138352612aee60ff6040600020541615613655565b612af661402c565b806000526015835260008051602061492483398151915260806040600020612b2c60ff600b83015461084b828260a01c1661369a565b612b4360078201548015908115612c3b575061371c565b612b5461165b86600884015461375f565b600f5494612b61866137c5565b600f5560068201612b7281546137c5565b809155612bc56117376001612b8785346137d4565b9560038101612b9734825461375f565b905560048101612ba888825461375f565b905560058101612bb987825461375f565b90556108e28b3361404f565b86600052601688528560406000205560178852806040600020558560005260188852612bf587604060002061381d565b604051908152348882015286866000805160206148e483398151915260403394a46040519134835287830152604082015260016060820152a26001600e55604051908152f35b905060068301541088610876565b346103d6577fac6d62cb5d30a7fff578060cd3dcf46ff2df7991a71c2d2aabca7e558f130f78612c7836613419565b612c83939293613e6a565b600084815260046020526040902054612ca6906001600160a01b031615156135f1565b612cba612cb436838561357c565b85613ed1565b611907604051928392602084526020840191613634565b346103d65760203660031901126103d65760043560005260156020526040600020612cfb81613347565b612d0760018301613347565b91600281015490600381015490600481015490600581015460068201546007830154600884015491600985015493600160a01b600190039687600a8801541696600b0154986040519c8d9c8d6101e09081815201612d6491613260565b8d810360208f0152612d7591613260565b9a60408d015260608c015260808b015260a08a015260c089015260e088015261010087015261012086015261014085015281166101608401528060a01c60ff1615156101808401528060a81c60ff1615156101a084015260b01c60ff1615156101c08301520390f35b346103d657612dec366132a0565b612df4613e6a565b8160005260156020526040600020612e1660ff600b83015460a81c16156135b3565b6127108211612e5e5760090155600080516020614904833981519152606060405160208152601060208201526f6e6f6e70726f6669744665655261746560801b6040820152a2005b60405162461bcd60e51b815260206004820152601b60248201527f46656520726174652063616e6e6f7420657863656564203130302500000000006044820152606490fd5b346103d65760403660031901126103d657612ebc613234565b602435612ec881613e96565b33151580612f77575b80612f4a575b612f32576001600160a01b039283169282918491167f8c5be1e5ebec7d5bd14f71427d1e84f3dd0314c0f7b2291e5b200ac8c7c3b925600080a4600090815260066020526040902080546001600160a01b0319169091179055005b60405163a9fbf51f60e01b8152336004820152602490fd5b5060018060a01b038116600052600760205260406000203360005260205260ff6040600020541615612ed7565b506001600160a01b038116331415612ed1565b346103d65760203660031901126103d657600435612fa781613e96565b506000526006602052602060018060a01b0360406000205416604051908152f35b346103d65760003660031901126103d657604051600254600082612feb836132b6565b9182825260209360019085600182169182600014611498575050600114613019575061142792500383613326565b84915060026000527f405787fa12a823e0f2b7631cc41b3ba8828b3321ca811111fa75cd3aa3bb5ace906000915b85831061305e57505061142793508201018561141a565b80548389018501528794508693909201918101613047565b346103d65760403660031901126103d65761308f613234565b6024356001600160601b0381168082036103d6576130ab613e6a565b61271080821161313f57506001600160a01b039283168015613126577f35804d3532228d15c4fe3fa7a4fb8100c86dc285216e9c806f5d6f2cef5528399360209383856040516130fa816132f0565b85815201526001600160601b0360a01b9060a01b168092176000556011541617601155604051908152a1005b604051635b6cc80560e11b815260006004820152602490fd5b6044925060405191636f483d0960e01b835260048301526024820152fd5b346103d65760003660031901126103d6576020601054604051908152f35b346103d65760203660031901126103d6576004359063ffffffff60e01b82168092036103d657602091632483248360e11b81149081156131bd575b5015158152f35b63780e9d6360e01b8114915081156131d7575b50836131b6565b6380ac58cd60e01b811491508115613223575b81156131f8575b50836131d0565b63152a902d60e11b811491508115613212575b50836131f1565b6301ffc9a760e01b1490508361320b565b635b5e139f60e01b811491506131ea565b600435906001600160a01b03821682036103d657565b602435906001600160a01b03821682036103d657565b919082519283825260005b84811061328c575050826000602080949584010152601f8019910116010190565b60208183018101518483018201520161326b565b60409060031901126103d6576004359060243590565b90600182811c921680156132e6575b60208310146132d057565b634e487b7160e01b600052602260045260246000fd5b91607f16916132c5565b604081019081106001600160401b03821117610d5757604052565b602081019081106001600160401b03821117610d5757604052565b90601f801991011681019081106001600160401b03821117610d5757604052565b9060405191826000825461335a816132b6565b908184526020946001916001811690816000146133ca575060011461338b575b50505061338992500383613326565b565b600090815285812095935091905b8183106133b2575050613389935082010138808061337a565b85548884018501529485019487945091830191613399565b9250505061338994925060ff191682840152151560051b82010138808061337a565b9181601f840112156103d6578235916001600160401b0383116103d657602083818601950101116103d657565b9060406003198301126103d65760043591602435906001600160401b0382116103d657613448916004016133ec565b9091565b9181601f840112156103d6578235916001600160401b0383116103d6576020808501948460051b0101116103d657565b60609060031901126103d6576001600160a01b039060043582811681036103d6579160243590811681036103d6579060443590565b6024359081151582036103d657565b602090602060408183019282815285518094520193019160005b8281106134e8575050505090565b8351855293810193928101926001016134da565b600a5481101561353357600a6000527fc65a7bb8d6351c1cf70c95a316cc6a92839c986682d98bc35f958f4883f9d2a80190600090565b634e487b7160e01b600052603260045260246000fd5b80548210156135335760005260206000200190600090565b6001600160401b038111610d5757601f01601f191660200190565b92919261358882613561565b916135966040519384613326565b8294818452818301116103d6578281602093846000960137010152565b156135ba57565b60405162461bcd60e51b815260206004820152600f60248201526e10d85b5c185a59db8818db1bdcd959608a1b6044820152606490fd5b156135f857565b60405162461bcd60e51b8152602060048201526014602482015273151bdad95b88191bd95cc81b9bdd08195e1a5cdd60621b6044820152606490fd5b908060209392818452848401376000828201840152601f01601f1916010190565b1561365c57565b60405162461bcd60e51b81526020600482015260166024820152751059191c995cdcc81a5cc8189b1858dadb1a5cdd195960521b6044820152606490fd5b156136a157565b60405162461bcd60e51b815260206004820152601360248201527243616d706169676e206e6f742061637469766560681b6044820152606490fd5b156136e357565b60405162461bcd60e51b815260206004820152601160248201527010d85b5c185a59db881c99599d5b991959607a1b6044820152606490fd5b1561372357565b60405162461bcd60e51b815260206004820152601460248201527313585e0819591a5d1a5bdb9cc81c995858da195960621b6044820152606490fd5b9190820180921161376c57565b634e487b7160e01b600052601160045260246000fd5b1561378957565b60405162461bcd60e51b8152602060048201526014602482015273125b9cdd59999a58da595b9d081c185e5b595b9d60621b6044820152606490fd5b600019811461376c5760010190565b9190820391821161376c57565b600a5490600160401b821015610d57576138048260016133899401600a556134fc565b90919082549060031b91821b91600019901b1916179055565b90815491600160401b831015610d57578261380491600161338995018155613549565b90601f811161384e57505050565b6000916000526020600020906020601f850160051c8301941061388c575b601f0160051c01915b82811061388157505050565b818155600101613875565b909250829061386c565b91908110156135335760051b0190565b6001600160a01b038281169391908415613c415760009183835260049560209387855260409484868320541680151580613c39575b613b3b575b508682528881528486832054169733151580613aa9575b5088158015613a76575b84845260058352878420805460010190558884528a835287842080546001600160a01b0319168617905588858b7fddf252ad1be2c89b69c2b068fc378daa952ba7f163c4a11628f55a4df523b3ef8780a4156139fa57600a54888452600b83528784205561396e886137e1565b8389036139a9575b50505050169081840361398a575050505050565b516364283d7b60e01b8152938401526024830152604482015260649150fd5b6139b290613db7565b6000198101939084116139e7578291600991889452600881528383208584528152888484205588835252205538808080613976565b634e487b7160e01b835260118a52602483fd5b88841461396e57613a0a89613db7565b8884526009835287842054818103613a3f575b508884528388812055898452600883528784209084528252828781205561396e565b8a8552600884528885208286528452888520548b8652600885528986208287528552808a8720558552600984528885205538613a1d565b600089815260066020526040902080546001600160a01b0319169055898452600583528784208054600019019055613901565b80613afa575b15613aba57386138f7565b878a888b613ad757916024925191637e27328960e01b8352820152fd5b5163177e802f60e01b815233918101918252602082019290925281906040010390fd5b503389148015613b1f575b80613aaf5750878352600682523386888520541614613aaf565b5088835260078252868320338452825260ff8784205416613b05565b60128252613b4f60ff888520541615613c8d565b8783526014825260ff8784205416613c015782526013815260ff8683205416613bc7578282526013815260ff8683205416613b8a57386138e0565b8860649187519162461bcd60e51b83528201526018602482015277149958da5c1a595b9d081a5cc8189b1858dadb1a5cdd195960421b6044820152fd5b8860649187519162461bcd60e51b8352820152601560248201527414d95b99195c881a5cc8189b1858dadb1a5cdd1959605a1b6044820152fd5b865162461bcd60e51b8152808b018390526012602482015271151bdad95b881a5cc81cdbdd5b189bdd5b9960721b6044820152606490fd5b5060016138db565b604051633250574960e11b815260006004820152602490fd5b8181029291811591840414171561376c57565b8115613c77570490565b634e487b7160e01b600052601260045260246000fd5b15613c9457565b60405162461bcd60e51b815260206004820152600f60248201526e2a37b5b2b71034b990333937bd32b760891b6044820152606490fd5b15613cd257565b60405162461bcd60e51b815260206004820152601760248201527f496e76616c6964207175616e746974792028312d3530290000000000000000006044820152606490fd5b15613d1e57565b60405162461bcd60e51b815260206004820152601460248201527345786365656473206d61782065646974696f6e7360601b6044820152606490fd5b6001600160401b038111610d575760051b60200190565b90613d7b82613d5a565b613d886040519182613326565b8281528092613d99601f1991613d5a565b0190602036910137565b80518210156135335760209160051b010190565b6001600160a01b03168015613dd757600052600560205260406000205490565b6040516322718ad960e21b815260006004820152602490fd5b600081815260046020526040812054909290613e16906001600160a01b031615156135f1565b818352601660205280604084205582526018602052604082208054925b838110613e455750613389925061381d565b82613e508284613549565b90549060031b1c14613e6457600101613e33565b50505050565b600d546001600160a01b03163303613e7e57565b60405163118cdaa760e01b8152336004820152602490fd5b6000818152600460205260409020546001600160a01b0316908115613eb9575090565b60249060405190637e27328960e01b82526004820152fd5b919091600090808252602091600c835260408120908551956001600160401b038711613ff757613f0b87613f0585546132b6565b85613840565b8491601f8811600114613f735796613f5c9281927ff8e1a15aba9398e019f0b49df1a4fde98ee17ae345cb5f6b5e2c27f5033e8ce7989992613f685750508160011b916000199060031b1c19161790565b90555b604051908152a1565b015190503880610afa565b9190601f198816848452868420935b818110613fe057509160019391897ff8e1a15aba9398e019f0b49df1a4fde98ee17ae345cb5f6b5e2c27f5033e8ce7999a9410613fc7575b505050811b019055613f5f565b015160001960f88460031b161c19169055388080613fba565b929387600181928786015181550195019301613f82565b634e487b7160e01b82526041600452602482fd5b60ff600d5460a01c1661401a57565b60405163d93c066560e01b8152600490fd5b6002600e541461403d576002600e55565b604051633ee5aeb560e01b8152600490fd5b604080519061405d8261330b565b60008083526001600160a01b0394848616938415614475578183526004956020978789528086862054168015158061446d575b61436d575b508385528789528585205416868115918215928361433a575b82885260058c52888820805460010190558688528a8c5288882080546001600160a01b031916841790558683837fddf252ad1be2c89b69c2b068fc378daa952ba7f163c4a11628f55a4df523b3ef8b80a4156142bc57600a54868852600b8c528888205561411b866137e1565b03614270575b614259573b614134575b50505050505050565b8661417291859697989994955180938192630a85bd0160e11b96878452338d8501528960248501526044840152608060648401526084830190613260565b0381878a5af1849181614215575b506141de575050503d6000146141d6573d61419a81613561565b906141a784519283613326565b81528091863d92013e5b805194856141d057505051633250574960e11b81529182015260249150fd5b85925001fd5b5060606141b1565b919650915063ffffffff60e01b1603614200575050503880808080808061412b565b51633250574960e11b81529182015260249150fd5b9091508881813d8311614252575b61422d8183613326565b8101031261424e57516001600160e01b03198116810361424e579038614180565b8480fd5b503d614223565b84516339e3563760e11b8152808801859052602490fd5b61427982613db7565b60001981019081116142a95787865260088a528686208187528a52848787205584865260098a5286862055614121565b634e487b7160e01b865260118952602486fd5b80821461411b576142cc81613db7565b86885260098c5288882054818103614301575b50868852878981205581885260088c528888209088528b52868881205561411b565b82895260088d52898920828a528d528c60088b8b205491858c52528d8b8b2090838c5252808b8b2055895260098d5289892055386142df565b600087815260066020526040902080546001600160a01b031916905581885260058c5288882080546000190190556140ae565b60128a5261438160ff888820541615613c8d565b84865260148a5260ff87872054166144355785526013895260ff86862054166143fa578685526013895260ff86862054166143bc5738614095565b855162461bcd60e51b81528089018a90526018602482015277149958da5c1a595b9d081a5cc8189b1858dadb1a5cdd195960421b6044820152606490fd5b855162461bcd60e51b81528089018a9052601560248201527414d95b99195c881a5cc8189b1858dadb1a5cdd1959605a1b6044820152606490fd5b865162461bcd60e51b8152808a018b90526012602482015271151bdad95b881a5cc81cdbdd5b189bdd5b9960721b6044820152606490fd5b506001614090565b8351633250574960e11b815260048101849052602490fd5b60009080825260049160209083825260018060a01b039160409280848420541680151580614799575b614699575b50848352858252838320541691821592831580614666575b86835287845285832080546001600160a01b03191690558683837fddf252ad1be2c89b69c2b068fc378daa952ba7f163c4a11628f55a4df523b3ef8280a484156145e5575050600a54858252600b835284822055614530856137e1565b600a54600019928382019182116145d257600b9087845281815261455787852054936134fc565b90549060031b1c61456b81613804866134fc565b845252848220558481528084812055600a549081156145bf5750810190614591826134fc565b909182549160031b1b19169055600a556145aa57505050565b51637e27328960e01b81529182015260249150fd5b634e487b7160e01b815260318752602490fd5b634e487b7160e01b835260118852602483fd5b6145f0575b50614530565b6145f981613db7565b90868352600984528583205482810361462f575b50868352828681205582526008835284822090825282528084812055386145ea565b818452600885528684208385528552868420548285526008865287852082865286528088862055845260098552868420553861460d565b600087815260066020526040902080546001600160a01b03191690558183526005845285832080546000190190556144d3565b601283526146ad60ff868620541615613c8d565b8584526014835260ff85852054166147615783526013825260ff8484205416614726578280526013825260ff84842054166146e857386144bb565b835162461bcd60e51b81528087018390526018602482015277149958da5c1a595b9d081a5cc8189b1858dadb1a5cdd195960421b6044820152606490fd5b835162461bcd60e51b8152808701839052601560248201527414d95b99195c881a5cc8189b1858dadb1a5cdd1959605a1b6044820152606490fd5b845162461bcd60e51b81528088018490526012602482015271151bdad95b881a5cc81cdbdd5b189bdd5b9960721b6044820152606490fd5b50836144b6565b813b6147ac5750505050565b604051630a85bd0160e11b8082523360048301526001600160a01b039283166024830152604482019490945260806064820152602095929091169390929083906147fa906084830190613260565b039285816000958187895af18491816148a3575b5061486e575050503d600014614866573d61482881613561565b906148366040519283613326565b81528091843d92013e5b8051928361486157604051633250574960e11b815260048101849052602490fd5b019050fd5b506060614840565b919450915063ffffffff60e01b160361488b575038808080613e64565b60249060405190633250574960e11b82526004820152fd5b9091508681813d83116148dc575b6148bb8183613326565b8101031261424e57516001600160e01b03198116810361424e57903861480e565b503d6148b156fe44a73422883fd5aac8dde6ef3688c62f25a4fb22e7a395bafb411ec4803ab1bd7a9a4f151cc0b6349bd7062416b8f68d1d73c3f457efc221520eb5547595d2d8f1a038a86c47446d2a26b7852348eee74e6d63d5a71792df01e40c2e6d0e1ca2a2646970667358221220e28863923bb3d83e3d4f1993603e7cfc2c6aa2488432817e00d70cb2af61a82e64736f6c63430008180033",
  "linkReferences": {},
  "deployedLinkReferences": {}
}