{
  "_format": "hh-sol-artifact-1",
  "contractName": "PatriotPledgeNFTV3",
  "sourceName": "contracts/PatriotPledgeNFTV3.sol",
  "abi": [
    {
      "inputs": [],
      "stateMutability": "nonpayable",
      "type": "constructor"
    },
    {
      "inputs": [],
      "name": "ERC721EnumerableForbiddenBatchMint",
      "type": "error"
    },
    {
      "inputs": [
        {
          "internalType": "address",
          "name": "sender",
          "type": "address"
        },
        {
          "internalType": "uint256",
          "name": "tokenId",
          "type": "uint256"
        },
        {
          "internalType": "address",
          "name": "owner",
          "type": "address"
        }
      ],
      "name": "ERC721IncorrectOwner",
      "type": "error"
    },
    {
      "inputs": [
        {
          "internalType": "address",
          "name": "operator",
          "type": "address"
        },
        {
          "internalType": "uint256",
          "name": "tokenId",
          "type": "uint256"
        }
      ],
      "name": "ERC721InsufficientApproval",
      "type": "error"
    },
    {
      "inputs": [
        {
          "internalType": "address",
          "name": "approver",
          "type": "address"
        }
      ],
      "name": "ERC721InvalidApprover",
      "type": "error"
    },
    {
      "inputs": [
        {
          "internalType": "address",
          "name": "operator",
          "type": "address"
        }
      ],
      "name": "ERC721InvalidOperator",
      "type": "error"
    },
    {
      "inputs": [
        {
          "internalType": "address",
          "name": "owner",
          "type": "address"
        }
      ],
      "name": "ERC721InvalidOwner",
      "type": "error"
    },
    {
      "inputs": [
        {
          "internalType": "address",
          "name": "receiver",
          "type": "address"
        }
      ],
      "name": "ERC721InvalidReceiver",
      "type": "error"
    },
    {
      "inputs": [
        {
          "internalType": "address",
          "name": "sender",
          "type": "address"
        }
      ],
      "name": "ERC721InvalidSender",
      "type": "error"
    },
    {
      "inputs": [
        {
          "internalType": "uint256",
          "name": "tokenId",
          "type": "uint256"
        }
      ],
      "name": "ERC721NonexistentToken",
      "type": "error"
    },
    {
      "inputs": [
        {
          "internalType": "address",
          "name": "owner",
          "type": "address"
        },
        {
          "internalType": "uint256",
          "name": "index",
          "type": "uint256"
        }
      ],
      "name": "ERC721OutOfBoundsIndex",
      "type": "error"
    },
    {
      "inputs": [
        {
          "internalType": "address",
          "name": "owner",
          "type": "address"
        }
      ],
      "name": "OwnableInvalidOwner",
      "type": "error"
    },
    {
      "inputs": [
        {
          "internalType": "address",
          "name": "account",
          "type": "address"
        }
      ],
      "name": "OwnableUnauthorizedAccount",
      "type": "error"
    },
    {
      "anonymous": false,
      "inputs": [
        {
          "indexed": true,
          "internalType": "address",
          "name": "owner",
          "type": "address"
        },
        {
          "indexed": true,
          "internalType": "address",
          "name": "approved",
          "type": "address"
        },
        {
          "indexed": true,
          "internalType": "uint256",
          "name": "tokenId",
          "type": "uint256"
        }
      ],
      "name": "Approval",
      "type": "event"
    },
    {
      "anonymous": false,
      "inputs": [
        {
          "indexed": true,
          "internalType": "address",
          "name": "owner",
          "type": "address"
        },
        {
          "indexed": true,
          "internalType": "address",
          "name": "operator",
          "type": "address"
        },
        {
          "indexed": false,
          "internalType": "bool",
          "name": "approved",
          "type": "bool"
        }
      ],
      "name": "ApprovalForAll",
      "type": "event"
    },
    {
      "anonymous": false,
      "inputs": [
        {
          "indexed": false,
          "internalType": "uint256",
          "name": "_fromTokenId",
          "type": "uint256"
        },
        {
          "indexed": false,
          "internalType": "uint256",
          "name": "_toTokenId",
          "type": "uint256"
        }
      ],
      "name": "BatchMetadataUpdate",
      "type": "event"
    },
    {
      "anonymous": false,
      "inputs": [
        {
          "indexed": true,
          "internalType": "uint256",
          "name": "tokenId",
          "type": "uint256"
        }
      ],
      "name": "CampaignClosed",
      "type": "event"
    },
    {
      "anonymous": false,
      "inputs": [
        {
          "indexed": true,
          "internalType": "uint256",
          "name": "tokenId",
          "type": "uint256"
        },
        {
          "indexed": true,
          "internalType": "address",
          "name": "to",
          "type": "address"
        },
        {
          "indexed": false,
          "internalType": "string",
          "name": "uri",
          "type": "string"
        },
        {
          "indexed": false,
          "internalType": "string",
          "name": "category",
          "type": "string"
        },
        {
          "indexed": false,
          "internalType": "uint256",
          "name": "goal",
          "type": "uint256"
        },
        {
          "indexed": false,
          "internalType": "uint256",
          "name": "feeRate",
          "type": "uint256"
        }
      ],
      "name": "CampaignMinted",
      "type": "event"
    },
    {
      "anonymous": false,
      "inputs": [
        {
          "indexed": true,
          "internalType": "uint256",
          "name": "tokenId",
          "type": "uint256"
        },
        {
          "indexed": false,
          "internalType": "uint256",
          "name": "gross",
          "type": "uint256"
        },
        {
          "indexed": false,
          "internalType": "uint256",
          "name": "net",
          "type": "uint256"
        },
        {
          "indexed": false,
          "internalType": "uint256",
          "name": "cardFees",
          "type": "uint256"
        },
        {
          "indexed": false,
          "internalType": "uint256",
          "name": "nonprofitFee",
          "type": "uint256"
        },
        {
          "indexed": false,
          "internalType": "bool",
          "name": "isOnchain",
          "type": "bool"
        }
      ],
      "name": "ContributionRecorded",
      "type": "event"
    },
    {
      "anonymous": false,
      "inputs": [
        {
          "indexed": true,
          "internalType": "uint256",
          "name": "tokenId",
          "type": "uint256"
        },
        {
          "indexed": true,
          "internalType": "address",
          "name": "from",
          "type": "address"
        },
        {
          "indexed": true,
          "internalType": "address",
          "name": "to",
          "type": "address"
        }
      ],
      "name": "CustodialTransfer",
      "type": "event"
    },
    {
      "anonymous": false,
      "inputs": [
        {
          "indexed": false,
          "internalType": "uint256",
          "name": "_tokenId",
          "type": "uint256"
        }
      ],
      "name": "MetadataUpdate",
      "type": "event"
    },
    {
      "anonymous": false,
      "inputs": [
        {
          "indexed": true,
          "internalType": "address",
          "name": "previousOwner",
          "type": "address"
        },
        {
          "indexed": true,
          "internalType": "address",
          "name": "newOwner",
          "type": "address"
        }
      ],
      "name": "OwnershipTransferred",
      "type": "event"
    },
    {
      "anonymous": false,
      "inputs": [
        {
          "indexed": true,
          "internalType": "uint256",
          "name": "tokenId",
          "type": "uint256"
        },
        {
          "indexed": false,
          "internalType": "uint256",
          "name": "oldEligible",
          "type": "uint256"
        },
        {
          "indexed": false,
          "internalType": "uint256",
          "name": "newEligible",
          "type": "uint256"
        }
      ],
      "name": "PayoutEligibleAdjusted",
      "type": "event"
    },
    {
      "anonymous": false,
      "inputs": [
        {
          "indexed": true,
          "internalType": "uint256",
          "name": "tokenId",
          "type": "uint256"
        },
        {
          "indexed": true,
          "internalType": "address",
          "name": "recipient",
          "type": "address"
        },
        {
          "indexed": false,
          "internalType": "uint256",
          "name": "amount",
          "type": "uint256"
        },
        {
          "indexed": false,
          "internalType": "bool",
          "name": "onchain",
          "type": "bool"
        }
      ],
      "name": "PayoutReleased",
      "type": "event"
    },
    {
      "anonymous": false,
      "inputs": [
        {
          "indexed": true,
          "internalType": "address",
          "name": "from",
          "type": "address"
        },
        {
          "indexed": true,
          "internalType": "address",
          "name": "to",
          "type": "address"
        },
        {
          "indexed": true,
          "internalType": "uint256",
          "name": "tokenId",
          "type": "uint256"
        }
      ],
      "name": "Transfer",
      "type": "event"
    },
    {
      "anonymous": false,
      "inputs": [
        {
          "indexed": true,
          "internalType": "address",
          "name": "recipient",
          "type": "address"
        },
        {
          "indexed": false,
          "internalType": "uint256",
          "name": "amount",
          "type": "uint256"
        }
      ],
      "name": "WithdrawToCentral",
      "type": "event"
    },
    {
      "stateMutability": "payable",
      "type": "fallback"
    },
    {
      "inputs": [
        {
          "internalType": "uint256",
          "name": "tokenId",
          "type": "uint256"
        },
        {
          "internalType": "uint256",
          "name": "amount",
          "type": "uint256"
        }
      ],
      "name": "addRaised",
      "outputs": [],
      "stateMutability": "nonpayable",
      "type": "function"
    },
    {
      "inputs": [
        {
          "internalType": "uint256",
          "name": "tokenId",
          "type": "uint256"
        },
        {
          "internalType": "uint256",
          "name": "newEligible",
          "type": "uint256"
        }
      ],
      "name": "adjustPayoutEligible",
      "outputs": [],
      "stateMutability": "nonpayable",
      "type": "function"
    },
    {
      "inputs": [
        {
          "internalType": "address",
          "name": "to",
          "type": "address"
        },
        {
          "internalType": "uint256",
          "name": "tokenId",
          "type": "uint256"
        }
      ],
      "name": "approve",
      "outputs": [],
      "stateMutability": "nonpayable",
      "type": "function"
    },
    {
      "inputs": [
        {
          "internalType": "address",
          "name": "owner",
          "type": "address"
        }
      ],
      "name": "balanceOf",
      "outputs": [
        {
          "internalType": "uint256",
          "name": "",
          "type": "uint256"
        }
      ],
      "stateMutability": "view",
      "type": "function"
    },
    {
      "inputs": [
        {
          "internalType": "uint256",
          "name": "",
          "type": "uint256"
        }
      ],
      "name": "campaigns",
      "outputs": [
        {
          "internalType": "string",
          "name": "category",
          "type": "string"
        },
        {
          "internalType": "uint256",
          "name": "goal",
          "type": "uint256"
        },
        {
          "internalType": "uint256",
          "name": "grossRaised",
          "type": "uint256"
        },
        {
          "internalType": "uint256",
          "name": "netRaised",
          "type": "uint256"
        },
        {
          "internalType": "uint256",
          "name": "payoutEligible",
          "type": "uint256"
        },
        {
          "internalType": "uint256",
          "name": "payoutReleased",
          "type": "uint256"
        },
        {
          "internalType": "uint256",
          "name": "nonprofitFeeRate",
          "type": "uint256"
        },
        {
          "internalType": "address",
          "name": "nonprofit",
          "type": "address"
        },
        {
          "internalType": "address",
          "name": "submitter",
          "type": "address"
        },
        {
          "internalType": "bool",
          "name": "closed",
          "type": "bool"
        }
      ],
      "stateMutability": "view",
      "type": "function"
    },
    {
      "inputs": [
        {
          "internalType": "uint256",
          "name": "tokenId",
          "type": "uint256"
        }
      ],
      "name": "closeCampaign",
      "outputs": [],
      "stateMutability": "nonpayable",
      "type": "function"
    },
    {
      "inputs": [
        {
          "internalType": "uint256",
          "name": "tokenId",
          "type": "uint256"
        }
      ],
      "name": "getApproved",
      "outputs": [
        {
          "internalType": "address",
          "name": "",
          "type": "address"
        }
      ],
      "stateMutability": "view",
      "type": "function"
    },
    {
      "inputs": [
        {
          "internalType": "address",
          "name": "owner",
          "type": "address"
        },
        {
          "internalType": "address",
          "name": "operator",
          "type": "address"
        }
      ],
      "name": "isApprovedForAll",
      "outputs": [
        {
          "internalType": "bool",
          "name": "",
          "type": "bool"
        }
      ],
      "stateMutability": "view",
      "type": "function"
    },
    {
      "inputs": [
        {
          "internalType": "uint256",
          "name": "tokenId",
          "type": "uint256"
        },
        {
          "internalType": "uint256",
          "name": "amount",
          "type": "uint256"
        },
        {
          "internalType": "address payable",
          "name": "recipient",
          "type": "address"
        },
        {
          "internalType": "bool",
          "name": "onchain",
          "type": "bool"
        }
      ],
      "name": "markPayoutReleased",
      "outputs": [],
      "stateMutability": "nonpayable",
      "type": "function"
    },
    {
      "inputs": [
        {
          "internalType": "address",
          "name": "to",
          "type": "address"
        },
        {
          "internalType": "string",
          "name": "uri",
          "type": "string"
        },
        {
          "internalType": "string",
          "name": "category",
          "type": "string"
        },
        {
          "internalType": "uint256",
          "name": "goal",
          "type": "uint256"
        },
        {
          "internalType": "uint256",
          "name": "feeRate",
          "type": "uint256"
        }
      ],
      "name": "mint",
      "outputs": [
        {
          "internalType": "uint256",
          "name": "",
          "type": "uint256"
        }
      ],
      "stateMutability": "nonpayable",
      "type": "function"
    },
    {
      "inputs": [],
      "name": "name",
      "outputs": [
        {
          "internalType": "string",
          "name": "",
          "type": "string"
        }
      ],
      "stateMutability": "view",
      "type": "function"
    },
    {
      "inputs": [],
      "name": "owner",
      "outputs": [
        {
          "internalType": "address",
          "name": "",
          "type": "address"
        }
      ],
      "stateMutability": "view",
      "type": "function"
    },
    {
      "inputs": [
        {
          "internalType": "uint256",
          "name": "tokenId",
          "type": "uint256"
        }
      ],
      "name": "ownerOf",
      "outputs": [
        {
          "internalType": "address",
          "name": "",
          "type": "address"
        }
      ],
      "stateMutability": "view",
      "type": "function"
    },
    {
      "inputs": [
        {
          "internalType": "uint256",
          "name": "tokenId",
          "type": "uint256"
        },
        {
          "internalType": "uint256",
          "name": "gross",
          "type": "uint256"
        },
        {
          "internalType": "uint256",
          "name": "net",
          "type": "uint256"
        },
        {
          "internalType": "uint256",
          "name": "cardFees",
          "type": "uint256"
        },
        {
          "internalType": "uint256",
          "name": "nonprofitFee",
          "type": "uint256"
        },
        {
          "internalType": "bool",
          "name": "isOnchain",
          "type": "bool"
        }
      ],
      "name": "recordContribution",
      "outputs": [],
      "stateMutability": "nonpayable",
      "type": "function"
    },
    {
      "inputs": [],
      "name": "renounceOwnership",
      "outputs": [],
      "stateMutability": "nonpayable",
      "type": "function"
    },
    {
      "inputs": [
        {
          "internalType": "address",
          "name": "from",
          "type": "address"
        },
        {
          "internalType": "address",
          "name": "to",
          "type": "address"
        },
        {
          "internalType": "uint256",
          "name": "tokenId",
          "type": "uint256"
        }
      ],
      "name": "safeTransferFrom",
      "outputs": [],
      "stateMutability": "nonpayable",
      "type": "function"
    },
    {
      "inputs": [
        {
          "internalType": "address",
          "name": "from",
          "type": "address"
        },
        {
          "internalType": "address",
          "name": "to",
          "type": "address"
        },
        {
          "internalType": "uint256",
          "name": "tokenId",
          "type": "uint256"
        },
        {
          "internalType": "bytes",
          "name": "data",
          "type": "bytes"
        }
      ],
      "name": "safeTransferFrom",
      "outputs": [],
      "stateMutability": "nonpayable",
      "type": "function"
    },
    {
      "inputs": [
        {
          "internalType": "address",
          "name": "operator",
          "type": "address"
        },
        {
          "internalType": "bool",
          "name": "approved",
          "type": "bool"
        }
      ],
      "name": "setApprovalForAll",
      "outputs": [],
      "stateMutability": "nonpayable",
      "type": "function"
    },
    {
      "inputs": [
        {
          "internalType": "uint256",
          "name": "tokenId",
          "type": "uint256"
        },
        {
          "internalType": "address",
          "name": "submitter",
          "type": "address"
        }
      ],
      "name": "setSubmitter",
      "outputs": [],
      "stateMutability": "nonpayable",
      "type": "function"
    },
    {
      "inputs": [
        {
          "internalType": "bytes4",
          "name": "interfaceId",
          "type": "bytes4"
        }
      ],
      "name": "supportsInterface",
      "outputs": [
        {
          "internalType": "bool",
          "name": "",
          "type": "bool"
        }
      ],
      "stateMutability": "view",
      "type": "function"
    },
    {
      "inputs": [],
      "name": "symbol",
      "outputs": [
        {
          "internalType": "string",
          "name": "",
          "type": "string"
        }
      ],
      "stateMutability": "view",
      "type": "function"
    },
    {
      "inputs": [
        {
          "internalType": "uint256",
          "name": "index",
          "type": "uint256"
        }
      ],
      "name": "tokenByIndex",
      "outputs": [
        {
          "internalType": "uint256",
          "name": "",
          "type": "uint256"
        }
      ],
      "stateMutability": "view",
      "type": "function"
    },
    {
      "inputs": [
        {
          "internalType": "address",
          "name": "owner",
          "type": "address"
        },
        {
          "internalType": "uint256",
          "name": "index",
          "type": "uint256"
        }
      ],
      "name": "tokenOfOwnerByIndex",
      "outputs": [
        {
          "internalType": "uint256",
          "name": "",
          "type": "uint256"
        }
      ],
      "stateMutability": "view",
      "type": "function"
    },
    {
      "inputs": [
        {
          "internalType": "uint256",
          "name": "tokenId",
          "type": "uint256"
        }
      ],
      "name": "tokenURI",
      "outputs": [
        {
          "internalType": "string",
          "name": "",
          "type": "string"
        }
      ],
      "stateMutability": "view",
      "type": "function"
    },
    {
      "inputs": [],
      "name": "totalSupply",
      "outputs": [
        {
          "internalType": "uint256",
          "name": "",
          "type": "uint256"
        }
      ],
      "stateMutability": "view",
      "type": "function"
    },
    {
      "inputs": [
        {
          "internalType": "address",
          "name": "from",
          "type": "address"
        },
        {
          "internalType": "address",
          "name": "to",
          "type": "address"
        },
        {
          "internalType": "uint256",
          "name": "tokenId",
          "type": "uint256"
        }
      ],
      "name": "transferFrom",
      "outputs": [],
      "stateMutability": "nonpayable",
      "type": "function"
    },
    {
      "inputs": [
        {
          "internalType": "uint256",
          "name": "tokenId",
          "type": "uint256"
        },
        {
          "internalType": "address",
          "name": "newOwner",
          "type": "address"
        }
      ],
      "name": "transferNFT",
      "outputs": [],
      "stateMutability": "nonpayable",
      "type": "function"
    },
    {
      "inputs": [
        {
          "internalType": "address",
          "name": "newOwner",
          "type": "address"
        }
      ],
      "name": "transferOwnership",
      "outputs": [],
      "stateMutability": "nonpayable",
      "type": "function"
    },
    {
      "inputs": [
        {
          "internalType": "uint256",
          "name": "amount",
          "type": "uint256"
        },
        {
          "internalType": "address payable",
          "name": "recipient",
          "type": "address"
        }
      ],
      "name": "withdrawToCentral",
      "outputs": [],
      "stateMutability": "nonpayable",
      "type": "function"
    },
    {
      "stateMutability": "payable",
      "type": "receive"
    }
  ],
  "bytecode": "0x60803462000380576001600160401b03906040818101838111838210176200036a578152601282526020917114185d1c9a5bdd08141b195919d94813919560721b83820152815193828501858110828211176200036a5783526005855264141413919560da1b8486015281518181116200036a576000948554916001948584811c941680156200035f575b838510146200034b578190601f94858111620002f8575b5083908583116001146200029457899262000288575b5050600019600383901b1c191690851b1786555b8651928311620002745783548481811c9116801562000269575b8282101462000255578281116200020d575b5080918311600114620001a65750849582939495926200019a575b5050600019600383901b1c191690821b1790555b33156200018257600b8054336001600160a01b03198216811790925591519290916001600160a01b0316907f8be0079c531659141344cd1fd0a4f28419497f9722a3daafe3b4186f6b6457e09080a361201e9081620003868239f35b51631e4fbdf760e01b81526004810191909152602490fd5b01519050388062000112565b90601f198316968487528287209287905b898210620001f5575050838596979810620001db575b505050811b01905562000126565b015160001960f88460031b161c19169055388080620001cd565b808785968294968601518155019501930190620001b7565b8487528187208380860160051c8201928487106200024b575b0160051c019085905b8281106200023f575050620000f7565b8881550185906200022f565b9250819262000226565b634e487b7160e01b87526022600452602487fd5b90607f1690620000e5565b634e487b7160e01b86526041600452602486fd5b015190503880620000b7565b898052848a208894509190601f1984168b5b87828210620002e15750508411620002c7575b505050811b018655620000cb565b015160001960f88460031b161c19169055388080620002b9565b8385015186558b97909501949384019301620002a6565b9091508880528389208580850160051c82019286861062000341575b918991869594930160051c01915b82811062000332575050620000a1565b8b815585945089910162000322565b9250819262000314565b634e487b7160e01b88526022600452602488fd5b93607f16936200008a565b634e487b7160e01b600052604160045260246000fd5b600080fdfe608080604052600436101561001a575b50361561001857005b005b60003560e01c90816301ffc9a7146116965750806306fdde03146115eb578063081812fc146115ad578063095ea7b3146114c65780630f42949a1461146e578063141961bc146113b657806318160ddd146113985780631a9e9f081461134457806323b872dd1461132d5780632833cdb5146111de57806329867dac1461097a5780632f745c59146108f657806342842e0e146108c85780634888fe66146107be5780634f6ccce7146107685780636352211e1461073857806370a082311461070d578063715018a6146106b0578063896b3883146105fb5780638da5cb5b146105d25780639036c0501461056257806395d89b411461047f578063a1a3ad1814610420578063a22cb4651461037b578063b0e1c1e114610317578063b88d4fde146102ac578063c87b56dd1461024f578063e985e9c5146101f95763f2fde38b14610166573861000f565b346101f45760203660031901126101f45761017f611775565b610187611b56565b6001600160a01b039081169081156101db57600b54826bffffffffffffffffffffffff60a01b821617600b55167f8be0079c531659141344cd1fd0a4f28419497f9722a3daafe3b4186f6b6457e0600080a3005b604051631e4fbdf760e01b815260006004820152602490fd5b600080fd5b346101f45760403660031901126101f457610212611775565b61021a61178b565b9060018060a01b03809116600052600560205260406000209116600052602052602060ff604060002054166040519015158152f35b346101f45760203660031901126101f45760043561026c81611b1b565b50600052600a6020526102a8610285604060002061182f565b6000604051610293816117f1565b52604051918291602083526020830190611735565b0390f35b346101f45760803660031901126101f4576102c5611775565b6102cd61178b565b906044356064359267ffffffffffffffff84116101f457366023850112156101f457610306610018943690602481600401359101611953565b92610312838383611997565b611b82565b346101f45760203660031901126101f457600435610333611b56565b6000818152600d60205260408120600801805460ff60a01b1916600160a01b1790557f5e6eb33a418de5dbbc17f989f7ae362cdfbb1748c5d603137c767027a354edbc9080a2005b346101f45760403660031901126101f457610394611775565b602435908115158092036101f4576001600160a01b031690811561040757336000526005602052604060002082600052602052604060002060ff1981541660ff83161790556040519081527f17307eab39ab6107e8899845ad3d59bd9653f200f220920489ca2b5937696c3160203392a3005b604051630b61174360e31b815260048101839052602490fd5b346101f45760407f5e00e510786ad881a097a1746d1dbeef56fb641982af03716d8a57a297f6769d610451366117a1565b61045c939193611b56565b83600052600d6020526004826000200190808254925582519182526020820152a2005b346101f45760003660031901126101f4576040516000600182600154926104a5846117b7565b92838352602094856001821691826000146105425750506001146104e5575b506104d19250038361180d565b6102a8604051928284938452830190611735565b84915060016000527fb10e2d527612073b26eecdfd717e6a320cf44b4afac2b0732d9fcbe2b7fa0cf6906000915b85831061052a5750506104d19350820101856104c4565b80548389018501528794508693909201918101610513565b60ff1916858201526104d195151560051b85010192508791506104c49050565b346101f45760403660031901126101f45760043561057e61178b565b90610587611b56565b61059081611b1b565b9161059c838383611c9b565b506001600160a01b039081169216907f1c082f1ad7788972b2a1b0a6c285d326e5943b69ae227e24eb32249bc8471de3600080a4005b346101f45760003660031901126101f457600b546040516001600160a01b039091168152602090f35b346101f45760403660031901126101f45760043561061761178b565b61061f611b56565b61062b824710156119f8565b6001600160a01b031690600080808084865af1610646611a44565b50156106795760207f98464fe32c2306f6843b0fb2e01328a0b37f5d926900f2165b39fc37825de68e91604051908152a2005b60405162461bcd60e51b815260206004820152600f60248201526e1dda5d1a191c985dc819985a5b1959608a1b6044820152606490fd5b346101f45760003660031901126101f4576106c9611b56565b600b80546001600160a01b031981169091556000906001600160a01b03167f8be0079c531659141344cd1fd0a4f28419497f9722a3daafe3b4186f6b6457e08280a3005b346101f45760203660031901126101f457602061073061072b611775565b611ae2565b604051908152f35b346101f45760203660031901126101f4576020610756600435611b1b565b6040516001600160a01b039091168152f35b346101f45760203660031901126101f45760043560085481101561079f57610791602091611a95565b90546040519160031b1c8152f35b6044906040519063295f44f760e21b8252600060048301526024820152fd5b346101f45760c03660031901126101f45760043560443560843560243560a435801515908190036101f4576107f1611b56565b84600052600d60205260406000209260ff600885015460a01c16610891577fdd4045d4f9777f7c212a99e66725c7286158c0207fbe67cfdf233d331d5824979484600260a0960161084386825461198a565b90556003810161085483825461198a565b905561086f600461086585856119eb565b920191825461198a565b90556040519384526020840152606435604084015260608301526080820152a2005b60405162461bcd60e51b815260206004820152600f60248201526e18d85b5c185a59db8818db1bdcd959608a1b6044820152606490fd5b346101f4576100186108d9366118d4565b90604051926108e7846117f1565b60008452610312838383611997565b346101f45760403660031901126101f45761090f611775565b6024359061091c81611ae2565b82101561094f5760018060a01b031660005260066020526040600020906000526020526020604060002054604051908152f35b60405163295f44f760e21b81526001600160a01b039190911660048201526024810191909152604490fd5b346101f45760a03660031901126101f457610993611775565b60243567ffffffffffffffff81116101f4576109b3903690600401611909565b909160443567ffffffffffffffff81116101f4576109d5903690600401611909565b90926109df611b56565b600c549360001985146110e85760018501600c556040516109ff816117f1565b600081526001600160a01b038516156111c5576000868152600260205260409020546001600160a01b03168061118e575b6001600160a01b0386166000818152600360209081526040808320805460010190558a83526002909152812080546001600160a01b0319168317905588919083907fddf252ad1be2c89b69c2b068fc378daa952ba7f163c4a11628f55a4df523b3ef9080a4806110fe5760085487600052600960205280604060002055600160401b811015610e805787610acd826001610ae69401600855611a95565b90919082549060031b91821b91600019901b1916179055565b6001600160a01b0386168103611094575b61107b57843b610f5d575b50610b0e368388611953565b85600052600a60205260406000209080519067ffffffffffffffff8211610e80578190610b3b84546117b7565b601f8111610f0d575b50602090601f8311600114610ea157600092610e96575b50508160011b916000199060031b1c19161790555b7ff8e1a15aba9398e019f0b49df1a4fde98ee17ae345cb5f6b5e2c27f5033e8ce76020604051878152a16040518061014081011067ffffffffffffffff61014083011117610e80576101408101604052610bcb368584611953565b81526064356020820152600060408201526000606082015260006080820152600060a082015260843560c082015260018060a01b03851660e08201526000610100820152600061012082015285600052600d6020526040600020815180519067ffffffffffffffff8211610e8057610c4383546117b7565b601f8111610e3c575b50918895939160209a95938b90601f8311600114610da1579282610d6f9695936008937f4d6a1e44269afc0046dfd92bf864ba448d4e14736a0a63c8839b10c5e6c565599b9c96600092610d96575b50508160011b916000199060031b1c19161781555b8c830151600182015560408301516002820155606083015160038201556080830151600482015560a0830151600582015560c083015160068201556007810160018060a01b0360e0850151166bffffffffffffffffffffffff60a01b825416179055019060018060a01b036101008201511682549161012060ff60a01b910151151560a01b16916affffffffffffffffffffff60a81b1617179055610d62604051958695608087526080870191611a74565b918483038b860152611a74565b606435604083015260843560608301526001600160a01b03909516940390a3604051908152f35b015190508f80610c9b565b8360009a959493929a528c6000209060005b601f1984168110610e22575082610d6f97969594927f4d6a1e44269afc0046dfd92bf864ba448d4e14736a0a63c8839b10c5e6c565599b9c600193600896601f19811610610e09575b505050811b018155610cb0565b015160001960f88460031b161c191690558f8080610dfc565b818c015183559a8e019a8d9a506001909201918e01610db3565b836000526020600020601f840160051c810160208510610e79575b601f830160051c82018110610e6d575050610c4c565b60008155600101610e57565b5080610e57565b634e487b7160e01b600052604160045260246000fd5b015190508980610b5b565b9250836000526020600020906000935b601f1984168510610ef2576001945083601f19811610610ed9575b505050811b019055610b70565b015160001960f88460031b161c19169055898080610ecc565b81810151835560209485019460019093019290910190610eb1565b909150836000526020600020601f840160051c810160208510610f56575b90849392915b601f830160051c82018110610f47575050610b44565b60008155859450600101610f31565b5080610f2b565b6020610f9c916040989796985180938192630a85bd0160e11b835233600484015260006024840152896044840152608060648401526084830190611735565b038160006001600160a01b038c165af160009181611036575b50610ff45786610fc3611a44565b8051919082610fed57604051633250574960e11b81526001600160a01b0383166004820152602490fd5b9050602001fd5b949593946001600160e01b03191663757a42ff60e11b016110155786610b02565b604051633250574960e11b81526001600160a01b0385166004820152602490fd5b9091506020813d602011611073575b816110526020938361180d565b810103126101f457516001600160e01b0319811681036101f4579088610fb5565b3d9150611045565b6040516339e3563760e11b815260006004820152602490fd5b61109d86611ae2565b806000198101116110e85760018060a01b0387166000526006602052604060002060001982016000526020528760406000205587600052600760205260001901604060002055610af7565b634e487b7160e01b600052601160045260246000fd5b6001600160a01b0386168114610ae65761111781611ae2565b87600052600760205260406000205481810361115b575b50876000526000604081205581600052600660205260406000209060005260205260006040812055610ae6565b6000838152600660209081526040808320858452825280832054848452818420819055835260079091529020558961112e565b600087815260046020526040902080546001600160a01b031916905580600052600360205260406000206000198154019055610a30565b604051633250574960e11b815260006004820152602490fd5b346101f45760803660031901126101f4576044356001600160a01b0381169060043590602435908390036101f457606435801515908181036101f457611222611b56565b83600052600d602052604060002060056004820154910190611246825480926119eb565b85116112e857846112569161198a565b905561128f575b7f5e49488aff4a8c628e201b40191a8d228e9c900d577f0168dc1b6e12df8e71469160409182519182526020820152a3005b61129b824710156119f8565b600080808085885af16112ac611a44565b5061125d5760405162461bcd60e51b815260206004820152600f60248201526e1d1c985b9cd9995c8819985a5b1959608a1b6044820152606490fd5b60405162461bcd60e51b815260206004820152601760248201527f616d6f756e74206578636565647320656c696769626c650000000000000000006044820152606490fd5b346101f45761001861133e366118d4565b91611997565b346101f45760403660031901126101f45761135d61178b565b611365611b56565b6004356000908152600d6020526040902060080180546001600160a01b0319166001600160a01b03909216919091179055005b346101f45760003660031901126101f4576020600854604051908152f35b346101f45760203660031901126101f457600435600052600d60205261143260406000206113e38161182f565b9060ff6001820154916002810154906003810154906004810154600582015460068301549160018060a01b0394600886600787015416950154966040519b8c9b8c6101408091528d0190611735565b9960208c015260408b015260608a0152608089015260a088015260c087015260e0860152811661010085015260a01c1615156101208301520390f35b346101f45761147c366117a1565b90611485611b56565b600052600d6020526114c260046040600020600281016114a685825461198a565b9055600381016114b785825461198a565b90550191825461198a565b9055005b346101f45760403660031901126101f4576114df611775565b6024356114eb81611b1b565b3315158061159a575b8061156d575b611555576001600160a01b039283169282918491167f8c5be1e5ebec7d5bd14f71427d1e84f3dd0314c0f7b2291e5b200ac8c7c3b925600080a4600090815260046020526040902080546001600160a01b0319169091179055005b60405163a9fbf51f60e01b8152336004820152602490fd5b5060018060a01b038116600052600560205260406000203360005260205260ff60406000205416156114fa565b506001600160a01b0381163314156114f4565b346101f45760203660031901126101f4576004356115ca81611b1b565b506000526004602052602060018060a01b0360406000205416604051908152f35b346101f45760003660031901126101f45760405160008054908261160e836117b7565b918282526020936001908560018216918260001461054257505060011461163c57506104d19250038361180d565b6000808052859250907f290decd9548b62a8d60345a988386fc84ba6bc95484008f6362f93160ef3e5635b85831061167e5750506104d19350820101856104c4565b80548389018501528794508693909201918101611667565b346101f45760203660031901126101f4576004359063ffffffff60e01b82168092036101f457602091632483248360e11b81149081156116d8575b5015158152f35b63780e9d6360e01b8114915081156116f2575b50836116d1565b6380ac58cd60e01b811491508115611724575b8115611713575b50836116eb565b6301ffc9a760e01b1490508361170c565b635b5e139f60e01b81149150611705565b919082519283825260005b848110611761575050826000602080949584010152601f8019910116010190565b602081830181015184830182015201611740565b600435906001600160a01b03821682036101f457565b602435906001600160a01b03821682036101f457565b60409060031901126101f4576004359060243590565b90600182811c921680156117e7575b60208310146117d157565b634e487b7160e01b600052602260045260246000fd5b91607f16916117c6565b6020810190811067ffffffffffffffff821117610e8057604052565b90601f8019910116810190811067ffffffffffffffff821117610e8057604052565b90604051918260008254611842816117b7565b908184526020946001916001811690816000146118b25750600114611873575b5050506118719250038361180d565b565b600090815285812095935091905b81831061189a5750506118719350820101388080611862565b85548884018501529485019487945091830191611881565b9250505061187194925060ff191682840152151560051b820101388080611862565b60609060031901126101f4576001600160a01b039060043582811681036101f4579160243590811681036101f4579060443590565b9181601f840112156101f45782359167ffffffffffffffff83116101f457602083818601950101116101f457565b67ffffffffffffffff8111610e8057601f01601f191660200190565b92919261195f82611937565b9161196d604051938461180d565b8294818452818301116101f4578281602093846000960137010152565b919082018092116110e857565b91906001600160a01b0390818116156111c5576119b78291843391611c9b565b93169216908282036119c857505050565b60649350604051926364283d7b60e01b8452600484015260248301526044820152fd5b919082039182116110e857565b156119ff57565b60405162461bcd60e51b815260206004820152601d60248201527f696e73756666696369656e7420636f6e74726163742062616c616e63650000006044820152606490fd5b3d15611a6f573d90611a5582611937565b91611a63604051938461180d565b82523d6000602084013e565b606090565b908060209392818452848401376000828201840152601f01601f1916010190565b600854811015611acc5760086000527ff3f7a9fe364faab93b216da50a3214154f22a0a2b415b23a84c8169e8b636ee30190600090565b634e487b7160e01b600052603260045260246000fd5b6001600160a01b03168015611b0257600052600360205260406000205490565b6040516322718ad960e21b815260006004820152602490fd5b6000818152600260205260409020546001600160a01b0316908115611b3e575090565b60249060405190637e27328960e01b82526004820152fd5b600b546001600160a01b03163303611b6a57565b60405163118cdaa760e01b8152336004820152602490fd5b9190803b611b91575b50505050565b611bd360018060a01b0380921694604051938493630a85bd0160e11b968786523360048701521660248501526044840152608060648401526084830190611735565b03906020816000938185885af190829082611c4b575b5050611c1a5782611bf8611a44565b8051919082610fed57604051633250574960e11b815260048101839052602490fd5b6001600160e01b03191603611c33575038808080611b8b565b60249060405190633250574960e11b82526004820152fd5b909192506020813d602011611c93575b81611c686020938361180d565b81010312611c8f5751906001600160e01b031982168203611c8c5750903880611be9565b80fd5b5080fd5b3d9150611c5b565b6000908282526020926002845260018060a01b03604092818486205416968281168015159081611f3b575b5050508615918215611f08575b8116918215908115611ef2575b8487526002885285872080546001600160a01b0319168517905584848a7fddf252ad1be2c89b69c2b068fc378daa952ba7f163c4a11628f55a4df523b3ef8a80a415611e7657600854848752600988528086882055600160401b811015611e625784610acd826001611d559401600855611a95565b15611df957505060085460001994858201918211611de55790600983928695948652818152611d878587205493611a95565b90549060031b1c611d9b81610acd86611a95565b865252828420558252812055600854908115611dd15750810190611dbe82611a95565b909182549160031b1b1916905560085590565b634e487b7160e01b81526031600452602490fd5b634e487b7160e01b85526011600452602485fd5b81879693929695949503611e11575b50505050505090565b611e1a90611ae2565b600019810195908611611e4e5783526006825283832085845282528383208190558252600790522055388080808080611e08565b634e487b7160e01b84526011600452602484fd5b634e487b7160e01b87526041600452602487fd5b878314611d5557611e8688611ae2565b8487526007885285872054818103611ebb575b5084875286868120558887526006885285872090875287528585812055611d55565b898852600689528688208289528952868820548a895260068a52878920828a528a5280888a20558852600789528688205538611e99565b8387526003885285872060018154019055611ce0565b600084815260046020526040902080546001600160a01b0319169055878652600387528486208054600019019055611cd3565b81611f9b575b5015611f4e578080611cc6565b8484918915600014611f72578151637e27328960e01b815260048101849052602490fd5b905163177e802f60e01b81526001600160a01b0390911660048201526024810191909152604490fd5b89811491508115611fcb575b8115611fb5575b5038611f41565b9050848752600488528386882054161438611fae565b8988526005895286882081895289528688205460ff169150611fa756fea264697066735822122032148d53490e5ba1579b68f8f508d380638ab973bb995eabee4c2a09335681d764736f6c63430008180033",
  "linkReferences": {},
  "deployedLinkReferences": {}
}