{
  "_format": "hh-sol-artifact-1",
  "contractName": "PatriotPledgeNFTV4",
  "sourceName": "contracts/PatriotPledgeNFTV4.sol",
  "abi": [
    {
      "inputs": [],
      "stateMutability": "nonpayable",
      "type": "constructor"
    },
    {
      "inputs": [],
      "name": "ERC721EnumerableForbiddenBatchMint",
      "type": "error"
    },
    {
      "inputs": [
        {
          "internalType": "address",
          "name": "sender",
          "type": "address"
        },
        {
          "internalType": "uint256",
          "name": "tokenId",
          "type": "uint256"
        },
        {
          "internalType": "address",
          "name": "owner",
          "type": "address"
        }
      ],
      "name": "ERC721IncorrectOwner",
      "type": "error"
    },
    {
      "inputs": [
        {
          "internalType": "address",
          "name": "operator",
          "type": "address"
        },
        {
          "internalType": "uint256",
          "name": "tokenId",
          "type": "uint256"
        }
      ],
      "name": "ERC721InsufficientApproval",
      "type": "error"
    },
    {
      "inputs": [
        {
          "internalType": "address",
          "name": "approver",
          "type": "address"
        }
      ],
      "name": "ERC721InvalidApprover",
      "type": "error"
    },
    {
      "inputs": [
        {
          "internalType": "address",
          "name": "operator",
          "type": "address"
        }
      ],
      "name": "ERC721InvalidOperator",
      "type": "error"
    },
    {
      "inputs": [
        {
          "internalType": "address",
          "name": "owner",
          "type": "address"
        }
      ],
      "name": "ERC721InvalidOwner",
      "type": "error"
    },
    {
      "inputs": [
        {
          "internalType": "address",
          "name": "receiver",
          "type": "address"
        }
      ],
      "name": "ERC721InvalidReceiver",
      "type": "error"
    },
    {
      "inputs": [
        {
          "internalType": "address",
          "name": "sender",
          "type": "address"
        }
      ],
      "name": "ERC721InvalidSender",
      "type": "error"
    },
    {
      "inputs": [
        {
          "internalType": "uint256",
          "name": "tokenId",
          "type": "uint256"
        }
      ],
      "name": "ERC721NonexistentToken",
      "type": "error"
    },
    {
      "inputs": [
        {
          "internalType": "address",
          "name": "owner",
          "type": "address"
        },
        {
          "internalType": "uint256",
          "name": "index",
          "type": "uint256"
        }
      ],
      "name": "ERC721OutOfBoundsIndex",
      "type": "error"
    },
    {
      "inputs": [
        {
          "internalType": "address",
          "name": "owner",
          "type": "address"
        }
      ],
      "name": "OwnableInvalidOwner",
      "type": "error"
    },
    {
      "inputs": [
        {
          "internalType": "address",
          "name": "account",
          "type": "address"
        }
      ],
      "name": "OwnableUnauthorizedAccount",
      "type": "error"
    },
    {
      "anonymous": false,
      "inputs": [
        {
          "indexed": true,
          "internalType": "address",
          "name": "owner",
          "type": "address"
        },
        {
          "indexed": true,
          "internalType": "address",
          "name": "approved",
          "type": "address"
        },
        {
          "indexed": true,
          "internalType": "uint256",
          "name": "tokenId",
          "type": "uint256"
        }
      ],
      "name": "Approval",
      "type": "event"
    },
    {
      "anonymous": false,
      "inputs": [
        {
          "indexed": true,
          "internalType": "address",
          "name": "owner",
          "type": "address"
        },
        {
          "indexed": true,
          "internalType": "address",
          "name": "operator",
          "type": "address"
        },
        {
          "indexed": false,
          "internalType": "bool",
          "name": "approved",
          "type": "bool"
        }
      ],
      "name": "ApprovalForAll",
      "type": "event"
    },
    {
      "anonymous": false,
      "inputs": [
        {
          "indexed": false,
          "internalType": "uint256",
          "name": "_fromTokenId",
          "type": "uint256"
        },
        {
          "indexed": false,
          "internalType": "uint256",
          "name": "_toTokenId",
          "type": "uint256"
        }
      ],
      "name": "BatchMetadataUpdate",
      "type": "event"
    },
    {
      "anonymous": false,
      "inputs": [
        {
          "indexed": true,
          "internalType": "uint256",
          "name": "tokenId",
          "type": "uint256"
        }
      ],
      "name": "CampaignClosed",
      "type": "event"
    },
    {
      "anonymous": false,
      "inputs": [
        {
          "indexed": true,
          "internalType": "uint256",
          "name": "tokenId",
          "type": "uint256"
        },
        {
          "indexed": true,
          "internalType": "address",
          "name": "to",
          "type": "address"
        },
        {
          "indexed": false,
          "internalType": "string",
          "name": "uri",
          "type": "string"
        },
        {
          "indexed": false,
          "internalType": "string",
          "name": "category",
          "type": "string"
        },
        {
          "indexed": false,
          "internalType": "uint256",
          "name": "goal",
          "type": "uint256"
        },
        {
          "indexed": false,
          "internalType": "uint256",
          "name": "feeRate",
          "type": "uint256"
        }
      ],
      "name": "CampaignMinted",
      "type": "event"
    },
    {
      "anonymous": false,
      "inputs": [
        {
          "indexed": true,
          "internalType": "uint256",
          "name": "tokenId",
          "type": "uint256"
        },
        {
          "indexed": false,
          "internalType": "uint256",
          "name": "gross",
          "type": "uint256"
        },
        {
          "indexed": false,
          "internalType": "uint256",
          "name": "net",
          "type": "uint256"
        },
        {
          "indexed": false,
          "internalType": "uint256",
          "name": "cardFees",
          "type": "uint256"
        },
        {
          "indexed": false,
          "internalType": "uint256",
          "name": "nonprofitFee",
          "type": "uint256"
        },
        {
          "indexed": false,
          "internalType": "bool",
          "name": "isOnchain",
          "type": "bool"
        }
      ],
      "name": "ContributionRecorded",
      "type": "event"
    },
    {
      "anonymous": false,
      "inputs": [
        {
          "indexed": true,
          "internalType": "uint256",
          "name": "tokenId",
          "type": "uint256"
        },
        {
          "indexed": true,
          "internalType": "address",
          "name": "from",
          "type": "address"
        },
        {
          "indexed": true,
          "internalType": "address",
          "name": "to",
          "type": "address"
        }
      ],
      "name": "CustodialTransfer",
      "type": "event"
    },
    {
      "anonymous": false,
      "inputs": [
        {
          "indexed": false,
          "internalType": "uint256",
          "name": "_tokenId",
          "type": "uint256"
        }
      ],
      "name": "MetadataUpdate",
      "type": "event"
    },
    {
      "anonymous": false,
      "inputs": [
        {
          "indexed": true,
          "internalType": "address",
          "name": "previousOwner",
          "type": "address"
        },
        {
          "indexed": true,
          "internalType": "address",
          "name": "newOwner",
          "type": "address"
        }
      ],
      "name": "OwnershipTransferred",
      "type": "event"
    },
    {
      "anonymous": false,
      "inputs": [
        {
          "indexed": true,
          "internalType": "uint256",
          "name": "tokenId",
          "type": "uint256"
        },
        {
          "indexed": false,
          "internalType": "uint256",
          "name": "oldEligible",
          "type": "uint256"
        },
        {
          "indexed": false,
          "internalType": "uint256",
          "name": "newEligible",
          "type": "uint256"
        }
      ],
      "name": "PayoutEligibleAdjusted",
      "type": "event"
    },
    {
      "anonymous": false,
      "inputs": [
        {
          "indexed": true,
          "internalType": "uint256",
          "name": "tokenId",
          "type": "uint256"
        },
        {
          "indexed": true,
          "internalType": "address",
          "name": "recipient",
          "type": "address"
        },
        {
          "indexed": false,
          "internalType": "uint256",
          "name": "amount",
          "type": "uint256"
        },
        {
          "indexed": false,
          "internalType": "bool",
          "name": "onchain",
          "type": "bool"
        }
      ],
      "name": "PayoutReleased",
      "type": "event"
    },
    {
      "anonymous": false,
      "inputs": [
        {
          "indexed": true,
          "internalType": "uint256",
          "name": "tokenId",
          "type": "uint256"
        },
        {
          "indexed": false,
          "internalType": "uint256",
          "name": "tipAmount",
          "type": "uint256"
        },
        {
          "indexed": false,
          "internalType": "bool",
          "name": "isOnchain",
          "type": "bool"
        }
      ],
      "name": "TipRecorded",
      "type": "event"
    },
    {
      "anonymous": false,
      "inputs": [
        {
          "indexed": true,
          "internalType": "uint256",
          "name": "tokenId",
          "type": "uint256"
        },
        {
          "indexed": true,
          "internalType": "address",
          "name": "fundee",
          "type": "address"
        },
        {
          "indexed": false,
          "internalType": "uint256",
          "name": "amount",
          "type": "uint256"
        }
      ],
      "name": "TipReleasedToFundee",
      "type": "event"
    },
    {
      "anonymous": false,
      "inputs": [
        {
          "indexed": true,
          "internalType": "address",
          "name": "from",
          "type": "address"
        },
        {
          "indexed": true,
          "internalType": "address",
          "name": "to",
          "type": "address"
        },
        {
          "indexed": true,
          "internalType": "uint256",
          "name": "tokenId",
          "type": "uint256"
        }
      ],
      "name": "Transfer",
      "type": "event"
    },
    {
      "anonymous": false,
      "inputs": [
        {
          "indexed": true,
          "internalType": "address",
          "name": "recipient",
          "type": "address"
        },
        {
          "indexed": false,
          "internalType": "uint256",
          "name": "amount",
          "type": "uint256"
        }
      ],
      "name": "WithdrawToCentral",
      "type": "event"
    },
    {
      "stateMutability": "payable",
      "type": "fallback"
    },
    {
      "inputs": [
        {
          "internalType": "uint256",
          "name": "tokenId",
          "type": "uint256"
        },
        {
          "internalType": "uint256",
          "name": "newEligible",
          "type": "uint256"
        }
      ],
      "name": "adjustPayoutEligible",
      "outputs": [],
      "stateMutability": "nonpayable",
      "type": "function"
    },
    {
      "inputs": [
        {
          "internalType": "address",
          "name": "to",
          "type": "address"
        },
        {
          "internalType": "uint256",
          "name": "tokenId",
          "type": "uint256"
        }
      ],
      "name": "approve",
      "outputs": [],
      "stateMutability": "nonpayable",
      "type": "function"
    },
    {
      "inputs": [
        {
          "internalType": "address",
          "name": "owner",
          "type": "address"
        }
      ],
      "name": "balanceOf",
      "outputs": [
        {
          "internalType": "uint256",
          "name": "",
          "type": "uint256"
        }
      ],
      "stateMutability": "view",
      "type": "function"
    },
    {
      "inputs": [
        {
          "internalType": "uint256",
          "name": "",
          "type": "uint256"
        }
      ],
      "name": "campaigns",
      "outputs": [
        {
          "internalType": "string",
          "name": "category",
          "type": "string"
        },
        {
          "internalType": "uint256",
          "name": "goal",
          "type": "uint256"
        },
        {
          "internalType": "uint256",
          "name": "grossRaised",
          "type": "uint256"
        },
        {
          "internalType": "uint256",
          "name": "netRaised",
          "type": "uint256"
        },
        {
          "internalType": "uint256",
          "name": "payoutEligible",
          "type": "uint256"
        },
        {
          "internalType": "uint256",
          "name": "payoutReleased",
          "type": "uint256"
        },
        {
          "internalType": "uint256",
          "name": "nonprofitFeeRate",
          "type": "uint256"
        },
        {
          "internalType": "uint256",
          "name": "tipsReceived",
          "type": "uint256"
        },
        {
          "internalType": "uint256",
          "name": "tipsReleasedToFundee",
          "type": "uint256"
        },
        {
          "internalType": "address",
          "name": "nonprofit",
          "type": "address"
        },
        {
          "internalType": "address",
          "name": "submitter",
          "type": "address"
        },
        {
          "internalType": "bool",
          "name": "closed",
          "type": "bool"
        }
      ],
      "stateMutability": "view",
      "type": "function"
    },
    {
      "inputs": [
        {
          "internalType": "uint256",
          "name": "tokenId",
          "type": "uint256"
        }
      ],
      "name": "closeCampaign",
      "outputs": [],
      "stateMutability": "nonpayable",
      "type": "function"
    },
    {
      "inputs": [
        {
          "internalType": "uint256",
          "name": "tokenId",
          "type": "uint256"
        }
      ],
      "name": "contributeNative",
      "outputs": [],
      "stateMutability": "payable",
      "type": "function"
    },
    {
      "inputs": [
        {
          "internalType": "uint256",
          "name": "tokenId",
          "type": "uint256"
        },
        {
          "internalType": "uint256",
          "name": "tipAmount",
          "type": "uint256"
        }
      ],
      "name": "contributeNativeWithTip",
      "outputs": [],
      "stateMutability": "payable",
      "type": "function"
    },
    {
      "inputs": [
        {
          "internalType": "uint256",
          "name": "tokenId",
          "type": "uint256"
        },
        {
          "internalType": "address",
          "name": "newOwner",
          "type": "address"
        }
      ],
      "name": "custodialTransfer",
      "outputs": [],
      "stateMutability": "nonpayable",
      "type": "function"
    },
    {
      "inputs": [
        {
          "internalType": "uint256",
          "name": "tokenId",
          "type": "uint256"
        }
      ],
      "name": "getApproved",
      "outputs": [
        {
          "internalType": "address",
          "name": "",
          "type": "address"
        }
      ],
      "stateMutability": "view",
      "type": "function"
    },
    {
      "inputs": [
        {
          "internalType": "uint256",
          "name": "tokenId",
          "type": "uint256"
        }
      ],
      "name": "getAvailablePayout",
      "outputs": [
        {
          "internalType": "uint256",
          "name": "",
          "type": "uint256"
        }
      ],
      "stateMutability": "view",
      "type": "function"
    },
    {
      "inputs": [
        {
          "internalType": "uint256",
          "name": "tokenId",
          "type": "uint256"
        }
      ],
      "name": "getAvailableTips",
      "outputs": [
        {
          "internalType": "uint256",
          "name": "",
          "type": "uint256"
        }
      ],
      "stateMutability": "view",
      "type": "function"
    },
    {
      "inputs": [
        {
          "internalType": "uint256",
          "name": "tokenId",
          "type": "uint256"
        }
      ],
      "name": "getCampaign",
      "outputs": [
        {
          "components": [
            {
              "internalType": "string",
              "name": "category",
              "type": "string"
            },
            {
              "internalType": "uint256",
              "name": "goal",
              "type": "uint256"
            },
            {
              "internalType": "uint256",
              "name": "grossRaised",
              "type": "uint256"
            },
            {
              "internalType": "uint256",
              "name": "netRaised",
              "type": "uint256"
            },
            {
              "internalType": "uint256",
              "name": "payoutEligible",
              "type": "uint256"
            },
            {
              "internalType": "uint256",
              "name": "payoutReleased",
              "type": "uint256"
            },
            {
              "internalType": "uint256",
              "name": "nonprofitFeeRate",
              "type": "uint256"
            },
            {
              "internalType": "uint256",
              "name": "tipsReceived",
              "type": "uint256"
            },
            {
              "internalType": "uint256",
              "name": "tipsReleasedToFundee",
              "type": "uint256"
            },
            {
              "internalType": "address",
              "name": "nonprofit",
              "type": "address"
            },
            {
              "internalType": "address",
              "name": "submitter",
              "type": "address"
            },
            {
              "internalType": "bool",
              "name": "closed",
              "type": "bool"
            }
          ],
          "internalType": "struct PatriotPledgeNFTV4.Campaign",
          "name": "",
          "type": "tuple"
        }
      ],
      "stateMutability": "view",
      "type": "function"
    },
    {
      "inputs": [
        {
          "internalType": "address",
          "name": "owner",
          "type": "address"
        },
        {
          "internalType": "address",
          "name": "operator",
          "type": "address"
        }
      ],
      "name": "isApprovedForAll",
      "outputs": [
        {
          "internalType": "bool",
          "name": "",
          "type": "bool"
        }
      ],
      "stateMutability": "view",
      "type": "function"
    },
    {
      "inputs": [
        {
          "internalType": "address",
          "name": "to",
          "type": "address"
        },
        {
          "internalType": "string",
          "name": "uri",
          "type": "string"
        },
        {
          "internalType": "string",
          "name": "category",
          "type": "string"
        },
        {
          "internalType": "uint256",
          "name": "goal",
          "type": "uint256"
        },
        {
          "internalType": "uint256",
          "name": "feeRate",
          "type": "uint256"
        }
      ],
      "name": "mint",
      "outputs": [
        {
          "internalType": "uint256",
          "name": "",
          "type": "uint256"
        }
      ],
      "stateMutability": "nonpayable",
      "type": "function"
    },
    {
      "inputs": [],
      "name": "name",
      "outputs": [
        {
          "internalType": "string",
          "name": "",
          "type": "string"
        }
      ],
      "stateMutability": "view",
      "type": "function"
    },
    {
      "inputs": [],
      "name": "owner",
      "outputs": [
        {
          "internalType": "address",
          "name": "",
          "type": "address"
        }
      ],
      "stateMutability": "view",
      "type": "function"
    },
    {
      "inputs": [
        {
          "internalType": "uint256",
          "name": "tokenId",
          "type": "uint256"
        }
      ],
      "name": "ownerOf",
      "outputs": [
        {
          "internalType": "address",
          "name": "",
          "type": "address"
        }
      ],
      "stateMutability": "view",
      "type": "function"
    },
    {
      "inputs": [
        {
          "internalType": "uint256",
          "name": "tokenId",
          "type": "uint256"
        },
        {
          "internalType": "uint256",
          "name": "gross",
          "type": "uint256"
        },
        {
          "internalType": "uint256",
          "name": "net",
          "type": "uint256"
        },
        {
          "internalType": "uint256",
          "name": "cardFees",
          "type": "uint256"
        },
        {
          "internalType": "uint256",
          "name": "nonprofitFee",
          "type": "uint256"
        },
        {
          "internalType": "bool",
          "name": "isOnchain",
          "type": "bool"
        }
      ],
      "name": "recordContribution",
      "outputs": [],
      "stateMutability": "nonpayable",
      "type": "function"
    },
    {
      "inputs": [
        {
          "internalType": "uint256",
          "name": "tokenId",
          "type": "uint256"
        },
        {
          "internalType": "uint256",
          "name": "gross",
          "type": "uint256"
        },
        {
          "internalType": "uint256",
          "name": "net",
          "type": "uint256"
        },
        {
          "internalType": "uint256",
          "name": "cardFees",
          "type": "uint256"
        },
        {
          "internalType": "uint256",
          "name": "nonprofitFee",
          "type": "uint256"
        },
        {
          "internalType": "uint256",
          "name": "tipAmount",
          "type": "uint256"
        },
        {
          "internalType": "bool",
          "name": "isOnchain",
          "type": "bool"
        }
      ],
      "name": "recordContributionWithTip",
      "outputs": [],
      "stateMutability": "nonpayable",
      "type": "function"
    },
    {
      "inputs": [
        {
          "internalType": "uint256",
          "name": "tokenId",
          "type": "uint256"
        },
        {
          "internalType": "uint256",
          "name": "tipAmount",
          "type": "uint256"
        },
        {
          "internalType": "bool",
          "name": "isOnchain",
          "type": "bool"
        }
      ],
      "name": "recordTip",
      "outputs": [],
      "stateMutability": "nonpayable",
      "type": "function"
    },
    {
      "inputs": [
        {
          "internalType": "uint256",
          "name": "tokenId",
          "type": "uint256"
        },
        {
          "internalType": "uint256",
          "name": "amount",
          "type": "uint256"
        },
        {
          "internalType": "bool",
          "name": "onchain",
          "type": "bool"
        }
      ],
      "name": "releasePayout",
      "outputs": [],
      "stateMutability": "nonpayable",
      "type": "function"
    },
    {
      "inputs": [
        {
          "internalType": "uint256",
          "name": "tokenId",
          "type": "uint256"
        },
        {
          "internalType": "uint256",
          "name": "amount",
          "type": "uint256"
        }
      ],
      "name": "releaseTipToFundee",
      "outputs": [],
      "stateMutability": "nonpayable",
      "type": "function"
    },
    {
      "inputs": [],
      "name": "renounceOwnership",
      "outputs": [],
      "stateMutability": "nonpayable",
      "type": "function"
    },
    {
      "inputs": [
        {
          "internalType": "address",
          "name": "from",
          "type": "address"
        },
        {
          "internalType": "address",
          "name": "to",
          "type": "address"
        },
        {
          "internalType": "uint256",
          "name": "tokenId",
          "type": "uint256"
        }
      ],
      "name": "safeTransferFrom",
      "outputs": [],
      "stateMutability": "nonpayable",
      "type": "function"
    },
    {
      "inputs": [
        {
          "internalType": "address",
          "name": "from",
          "type": "address"
        },
        {
          "internalType": "address",
          "name": "to",
          "type": "address"
        },
        {
          "internalType": "uint256",
          "name": "tokenId",
          "type": "uint256"
        },
        {
          "internalType": "bytes",
          "name": "data",
          "type": "bytes"
        }
      ],
      "name": "safeTransferFrom",
      "outputs": [],
      "stateMutability": "nonpayable",
      "type": "function"
    },
    {
      "inputs": [
        {
          "internalType": "address",
          "name": "operator",
          "type": "address"
        },
        {
          "internalType": "bool",
          "name": "approved",
          "type": "bool"
        }
      ],
      "name": "setApprovalForAll",
      "outputs": [],
      "stateMutability": "nonpayable",
      "type": "function"
    },
    {
      "inputs": [
        {
          "internalType": "uint256",
          "name": "tokenId",
          "type": "uint256"
        },
        {
          "internalType": "address",
          "name": "submitter",
          "type": "address"
        }
      ],
      "name": "setSubmitter",
      "outputs": [],
      "stateMutability": "nonpayable",
      "type": "function"
    },
    {
      "inputs": [
        {
          "internalType": "bytes4",
          "name": "interfaceId",
          "type": "bytes4"
        }
      ],
      "name": "supportsInterface",
      "outputs": [
        {
          "internalType": "bool",
          "name": "",
          "type": "bool"
        }
      ],
      "stateMutability": "view",
      "type": "function"
    },
    {
      "inputs": [],
      "name": "symbol",
      "outputs": [
        {
          "internalType": "string",
          "name": "",
          "type": "string"
        }
      ],
      "stateMutability": "view",
      "type": "function"
    },
    {
      "inputs": [
        {
          "internalType": "uint256",
          "name": "index",
          "type": "uint256"
        }
      ],
      "name": "tokenByIndex",
      "outputs": [
        {
          "internalType": "uint256",
          "name": "",
          "type": "uint256"
        }
      ],
      "stateMutability": "view",
      "type": "function"
    },
    {
      "inputs": [
        {
          "internalType": "address",
          "name": "owner",
          "type": "address"
        },
        {
          "internalType": "uint256",
          "name": "index",
          "type": "uint256"
        }
      ],
      "name": "tokenOfOwnerByIndex",
      "outputs": [
        {
          "internalType": "uint256",
          "name": "",
          "type": "uint256"
        }
      ],
      "stateMutability": "view",
      "type": "function"
    },
    {
      "inputs": [
        {
          "internalType": "uint256",
          "name": "tokenId",
          "type": "uint256"
        }
      ],
      "name": "tokenURI",
      "outputs": [
        {
          "internalType": "string",
          "name": "",
          "type": "string"
        }
      ],
      "stateMutability": "view",
      "type": "function"
    },
    {
      "inputs": [],
      "name": "totalCampaigns",
      "outputs": [
        {
          "internalType": "uint256",
          "name": "",
          "type": "uint256"
        }
      ],
      "stateMutability": "view",
      "type": "function"
    },
    {
      "inputs": [],
      "name": "totalSupply",
      "outputs": [
        {
          "internalType": "uint256",
          "name": "",
          "type": "uint256"
        }
      ],
      "stateMutability": "view",
      "type": "function"
    },
    {
      "inputs": [
        {
          "internalType": "address",
          "name": "from",
          "type": "address"
        },
        {
          "internalType": "address",
          "name": "to",
          "type": "address"
        },
        {
          "internalType": "uint256",
          "name": "tokenId",
          "type": "uint256"
        }
      ],
      "name": "transferFrom",
      "outputs": [],
      "stateMutability": "nonpayable",
      "type": "function"
    },
    {
      "inputs": [
        {
          "internalType": "address",
          "name": "newOwner",
          "type": "address"
        }
      ],
      "name": "transferOwnership",
      "outputs": [],
      "stateMutability": "nonpayable",
      "type": "function"
    },
    {
      "inputs": [
        {
          "internalType": "address payable",
          "name": "recipient",
          "type": "address"
        },
        {
          "internalType": "uint256",
          "name": "amount",
          "type": "uint256"
        }
      ],
      "name": "withdrawToCentral",
      "outputs": [],
      "stateMutability": "nonpayable",
      "type": "function"
    },
    {
      "stateMutability": "payable",
      "type": "receive"
    }
  ],
  "bytecode": "0x60803462000380576001600160401b03906040818101838111838210176200036a578152601282526020917114185d1c9a5bdd08141b195919d94813919560721b83820152815193828501858110828211176200036a5783526005855264141413919560da1b8486015281518181116200036a576000948554916001948584811c941680156200035f575b838510146200034b578190601f94858111620002f8575b5083908583116001146200029457899262000288575b5050600019600383901b1c191690851b1786555b8651928311620002745783548481811c9116801562000269575b8282101462000255578281116200020d575b5080918311600114620001a65750849582939495926200019a575b5050600019600383901b1c191690821b1790555b33156200018257600b8054336001600160a01b03198216811790925591519290916001600160a01b0316907f8be0079c531659141344cd1fd0a4f28419497f9722a3daafe3b4186f6b6457e09080a36128bf9081620003868239f35b51631e4fbdf760e01b81526004810191909152602490fd5b01519050388062000112565b90601f198316968487528287209287905b898210620001f5575050838596979810620001db575b505050811b01905562000126565b015160001960f88460031b161c19169055388080620001cd565b808785968294968601518155019501930190620001b7565b8487528187208380860160051c8201928487106200024b575b0160051c019085905b8281106200023f575050620000f7565b8881550185906200022f565b9250819262000226565b634e487b7160e01b87526022600452602487fd5b90607f1690620000e5565b634e487b7160e01b86526041600452602486fd5b015190503880620000b7565b898052848a208894509190601f1984168b5b87828210620002e15750508411620002c7575b505050811b018655620000cb565b015160001960f88460031b161c19169055388080620002b9565b8385015186558b97909501949384019301620002a6565b9091508880528389208580850160051c82019286861062000341575b918991869594930160051c01915b82811062000332575050620000a1565b8b815585945089910162000322565b9250819262000314565b634e487b7160e01b88526022600452602488fd5b93607f16936200008a565b634e487b7160e01b600052604160045260246000fd5b600080fdfe608080604052600436101561001a575b50361561001857005b005b60003560e01c90816301ffc9a714611c595750806302932f5614611c3b57806306fdde0314611b90578063081812fc14611b52578063095ea7b314611a6b578063141961bc1461199b57806318160ddd1461197d5780631a9e9f081461192957806323b872dd1461191257806329867dac146112b65780632a32c45a146111cf5780632f745c591461114b5780633445bd2a1461111557806342842e0e146110e75780634888fe66146110305780634f6ccce714610fda57806353cfc04b14610eeb5780635598f8cc14610d2b5780636352211e14610cfb57806368008d2f14610c6457806370a0823114610c41578063715018a614610be45780637f238bc514610a975780638af200cc1461098a5780638da5cb5b1461096157806394ba3305146107d757806395d89b41146106f4578063a1a3ad1814610695578063a22cb465146105f0578063a7abf462146105b2578063b0e1c1e11461054e578063b88d4fde146104e3578063c87b56dd14610486578063d18831a7146103b3578063e985e9c51461035d578063f2e1a02d1461024c5763f2fde38b146101be573861000f565b34610247576020366003190112610247576101d7611d38565b6101df61248f565b6001600160a01b0390811690811561022e57600b54826001600160601b0360a01b821617600b55167f8be0079c531659141344cd1fd0a4f28419497f9722a3daafe3b4186f6b6457e0600080a3005b604051631e4fbdf760e01b815260006004820152602490fd5b600080fd5b346102475760e03660031901126102475760043560a43560c435604435602435821515830361024757849160008051602061286a8339815191529161028f61248f565b83600052600d602052600760406000206102b360ff600a83015460a01c16156122b8565b6102bd8884612352565b6102cc60028301918254612352565b9055600381016102dd858254612352565b9055016102eb878254612352565b9055604080519182526020820192909252606435918101919091526084356060820152831515608082015260a090a28161032157005b6040805192835290151560208301527f6971617f5668e2f4bd89bbec522becabb21d518eab8cd06e1b5a9a21999210b89190819081015b0390a2005b3461024757604036600319011261024757610376611d38565b61037e611d4e565b9060018060a01b03809116600052600560205260406000209116600052602052602060ff604060002054166040519015158152f35b34610247576103c136611f24565b906103ca61248f565b6000818152600d60205260409020600a8101546001600160a01b031692906103f3841515612415565b6008600782015491019161040983548093612345565b8111610448577f8d4fd9e24bdf16b83075e309d223d81f7c142362145de268d731e6a9ea11a9669261043d82602094612352565b9055604051908152a3005b60405162461bcd60e51b81526020600482015260166024820152754578636565647320617661696c61626c65207469707360501b6044820152606490fd5b34610247576020366003190112610247576004356104a381612454565b50600052600a6020526104df6104bc6040600020611df9565b60006040516104ca81611dbb565b52604051918291602083526020830190611cf8565b0390f35b34610247576080366003190112610247576104fc611d38565b610504611d4e565b906044356064359267ffffffffffffffff841161024757366023850112156102475761053d610018943690602481600401359101611f56565b92610549838383611f8d565b6124bb565b346102475760203660031901126102475760043561056a61248f565b6000818152600d60205260408120600a01805460ff60a01b1916600160a01b1790557f5e6eb33a418de5dbbc17f989f7ae362cdfbb1748c5d603137c767027a354edbc9080a2005b3461024757602036600319011261024757600435600052600d60205260206105e860406000206005600482015491015490612345565b604051908152f35b3461024757604036600319011261024757610609611d38565b60243590811515809203610247576001600160a01b031690811561067c57336000526005602052604060002082600052602052604060002060ff1981541660ff83161790556040519081527f17307eab39ab6107e8899845ad3d59bd9653f200f220920489ca2b5937696c3160203392a3005b604051630b61174360e31b815260048101839052602490fd5b346102475760407f5e00e510786ad881a097a1746d1dbeef56fb641982af03716d8a57a297f6769d6106c636611f24565b6106d193919361248f565b83600052600d6020526004826000200190808254925582519182526020820152a2005b346102475760003660031901126102475760405160006001826001549261071a84611d64565b92838352602094856001821691826000146107b757505060011461075a575b5061074692500383611dd7565b6104df604051928284938452830190611cf8565b84915060016000527fb10e2d527612073b26eecdfd717e6a320cf44b4afac2b0732d9fcbe2b7fa0cf6906000915b85831061079f575050610746935082010185610739565b80548389018501528794508693909201918101610788565b60ff19168582015261074695151560051b85010192508791506107399050565b6107e036611f24565b81600052600d6020526040600020600260205261080b60018060a01b03604060002054161515612275565b61081f60ff600a83015460a01c16156122b8565b61082a3415156122f6565b8134106109285760008051602061286a833981519152839161084c8434612345565b801561091e576108e1612710610866600685015484612332565b045b60076108748285612345565b9460028101610884348254612352565b905560038101610895878254612352565b9055600481016108a6878254612352565b9055016108b4888254612352565b905560405193849384608091949360019360a0830196835260208301526000604083015260608201520152565b0390a2806108eb57005b60407f6971617f5668e2f4bd89bbec522becabb21d518eab8cd06e1b5a9a21999210b891815190815260016020820152a2005b6108e16000610868565b60405162461bcd60e51b815260206004820152601160248201527054697020657863656564732076616c756560781b6044820152606490fd5b3461024757600036600319011261024757600b546040516001600160a01b039091168152602090f35b34610247576040366003190112610247576004356109a6611d4e565b906109af61248f565b6109b881612454565b6001600160a01b03838116939091908415610a7e57836109d7916125d4565b808316806109f857604051637e27328960e01b815260048101869052602490fd5b83831603610a4d575082600052600d6020526009604060002001846001600160601b0360a01b82541617905516907f1c082f1ad7788972b2a1b0a6c285d326e5943b69ae227e24eb32249bc8471de3600080a4005b6040516364283d7b60e01b81526001600160a01b039283166004820152602481019490945216604483015250606490fd5b604051633250574960e11b815260006004820152602490fd5b3461024757610aa536611f01565b610ab092919261248f565b6000828152600d60205260409020600a810180549092916001600160a01b03918216610add811515612415565b600560048301549201610af281548094612345565b8811610bac57610b03888094612352565b90558380610ba3575b610b4e575b50509154604080519586529115156020860152909116927f5e49488aff4a8c628e201b40191a8d228e9c900d577f0168dc1b6e12df8e71469190a3005b600080809381935af1610b5f6123ac565b5015610b6c578486610b11565b60405162461bcd60e51b815260206004820152600f60248201526e151c985b9cd9995c8819985a5b1959608a1b6044820152606490fd5b50811515610b0c565b60405162461bcd60e51b815260206004820152601060248201526f4578636565647320656c696769626c6560801b6044820152606490fd5b3461024757600036600319011261024757610bfd61248f565b600b80546001600160a01b031981169091556000906001600160a01b03167f8be0079c531659141344cd1fd0a4f28419497f9722a3daafe3b4186f6b6457e08280a3005b346102475760203660031901126102475760206105e8610c5f611d38565b6123dc565b34610247577f6971617f5668e2f4bd89bbec522becabb21d518eab8cd06e1b5a9a21999210b8610c9336611f01565b90610c9f93929361248f565b83600052600d60205260026040600020610cc360ff600a83015460a01c16156122b8565b60078101610cd2848254612352565b905501610ce0828254612352565b90556040805191825291151560208201529081908101610358565b34610247576020366003190112610247576020610d19600435612454565b6040516001600160a01b039091168152f35b34610247576020366003190112610247576000610160604051610d4d81611d9e565b606081528260208201528260408201528260608201528260808201528260a08201528260c08201528260e08201528261010082015282610120820152826101408201520152600435600052600d602052604060002060ff600a60405192610db384611d9e565b610dbc81611df9565b845260018101546020850152600281015460408501526003810154606085015260048101546080850152600581015460a0850152600681015460c0850152600781015460e0850152600881015461010085015260018060a01b03600982015416610120850152015460018060a01b03811661014084015260a01c161515610160820152604051809160208252610160610e63825161018060208601526101a0850190611cf8565b91602081015160408501526040810151606085015260608101516080850152608081015160a085015260a081015160c085015260c081015160e085015260e081015161010085015261010081015161012085015260018060a01b036101208201511661014085015260018060a01b036101408201511682850152015115156101808301520390f35b34610247576040366003190112610247576004356001600160a01b0381169081900361024757602435610f1c61248f565b478111610f9e57600080808084865af1610f346123ac565b5015610f675760207f98464fe32c2306f6843b0fb2e01328a0b37f5d926900f2165b39fc37825de68e91604051908152a2005b60405162461bcd60e51b815260206004820152600f60248201526e15da5d1a191c985dc819985a5b1959608a1b6044820152606490fd5b60405162461bcd60e51b8152602060048201526014602482015273496e73756666696369656e742062616c616e636560601b6044820152606490fd5b34610247576020366003190112610247576004356008548110156110115761100360209161235f565b90546040519160031b1c8152f35b6044906040519063295f44f760e21b8252600060048301526024820152fd5b346102475760c03660031901126102475760043560a43560443560243582151583036102475761035860008051602061286a8339815191529361107161248f565b85600052600d6020526003604060002061109560ff600a83015460a01c16156122b8565b600281016110a4868254612352565b9055016110b2858254612352565b9055604080519384526020840194909452606435938301939093526084356060830152911515608082015290819060a0820190565b34610247576100186110f836611e9e565b906040519261110684611dbb565b60008452610549838383611f8d565b3461024757602036600319011261024757600435600052600d60205260206105e860406000206008600782015491015490612345565b3461024757604036600319011261024757611164611d38565b60243590611171816123dc565b8210156111a45760018060a01b031660005260066020526040600020906000526020526020604060002054604051908152f35b60405163295f44f760e21b81526001600160a01b039190911660048201526024810191909152604490fd5b60203660031901126102475760043580600052600d60205260008051602061286a8339815191526040600020600260205261121860018060a01b03604060002054161515612275565b61122c60ff600a83015460a01c16156122b8565b6112373415156122f6565b612710611248600683015434612332565b049060046112568334612345565b9160028101611266348254612352565b905560038101611277848254612352565b905501611285828254612352565b90556103586040519283923484608091949360019360a0830196835260208301526000604083015260608201520152565b346102475760a0366003190112610247576112cf611d38565b60243567ffffffffffffffff8111610247576112ef903690600401611ed3565b909160443567ffffffffffffffff811161024757611311903690600401611ed3565b909261131b61248f565b600c549360001985146118fc5760018501600c5560405161133b81611dbb565b600081526001600160a01b03851615610a7e576001600160a01b0361136087876125d4565b166118e357843b6117ce575b50611378368388611f56565b85600052600a60205260406000209080519067ffffffffffffffff82116116f15781906113a58454611d64565b601f811161177e575b50602090601f831160011461171257600092611707575b50508160011b916000199060031b1c19161790555b7ff8e1a15aba9398e019f0b49df1a4fde98ee17ae345cb5f6b5e2c27f5033e8ce76020604051878152a160405161141081611d9e565b61141b368584611f56565b81526064356020820152600060408201526000606082015260006080820152600060a082015260843560c0820152600060e0820152600061010082015260018060a01b0385166101208201526000610140820152600061016082015285600052600d6020526040600020815180519067ffffffffffffffff82116116f1576114a38354611d64565b601f81116116ad575b50918895939160209a95938b90601f83116001146116125792826115e0969593600a937f4d6a1e44269afc0046dfd92bf864ba448d4e14736a0a63c8839b10c5e6c565599b9c96600092611607575b50508160011b916000199060031b1c19161781555b8c830151600182015560408301516002820155606083015160038201556080830151600482015560a0830151600582015560c0830151600682015560e0830151600782015561010083015160088201556009810160018060a01b03610120850151166001600160601b0360a01b825416179055019060018060a01b036101408201511682549161016060ff60a01b910151151560a01b16916affffffffffffffffffffff60a81b16171790556115d3604051958695608087526080870191612254565b918483038b860152612254565b606435604083015260843560608301526001600160a01b03909516940390a3604051908152f35b015190508f806114fb565b8360009a959493929a528c6000209060005b601f19841681106116935750826115e097969594927f4d6a1e44269afc0046dfd92bf864ba448d4e14736a0a63c8839b10c5e6c565599b9c600193600a96601f1981161061167a575b505050811b018155611510565b015160001960f88460031b161c191690558f808061166d565b818c015183559a8e019a8d9a506001909201918e01611624565b836000526020600020601f840160051c8101602085106116ea575b601f830160051c820181106116de5750506114ac565b600081556001016116c8565b50806116c8565b634e487b7160e01b600052604160045260246000fd5b0151905089806113c5565b9250836000526020600020906000935b601f1984168510611763576001945083601f1981161061174a575b505050811b0190556113da565b015160001960f88460031b161c1916905589808061173d565b81810151835560209485019460019093019290910190611722565b909150836000526020600020601f840160051c8101602085106117c7575b90849392915b601f830160051c820181106117b85750506113ae565b600081558594506001016117a2565b508061179c565b604096959496516020818061180c630a85bd0160e11b95868352336004840152600060248401528a6044840152608060648401526084830190611cf8565b038160006001600160a01b038d165af16000918161189e575b5061186457876118336123ac565b805191908261185d57604051633250574960e11b81526001600160a01b0383166004820152602490fd5b9050602001fd5b959694956001600160e01b0319160361187d578661136c565b604051633250574960e11b81526001600160a01b0385166004820152602490fd5b9091506020813d6020116118db575b816118ba60209383611dd7565b8101031261024757516001600160e01b031981168103610247579089611825565b3d91506118ad565b6040516339e3563760e11b815260006004820152602490fd5b634e487b7160e01b600052601160045260246000fd5b346102475761001861192336611e9e565b91611f8d565b3461024757604036600319011261024757611942611d4e565b61194a61248f565b6004356000908152600d60205260409020600a0180546001600160a01b0319166001600160a01b03909216919091179055005b34610247576000366003190112610247576020600854604051908152f35b3461024757602036600319011261024757600435600052600d6020526020611a26604060002060ff6119cc82611df9565b9160018101549060028101549060038101546004820154600583015460068401549060078501549260088601549460018060a01b0397600a8960098a015416980154996040519e8f9e8f9e8f610180908181520190611cf8565b9d015260408d015260608c015260808b015260a08a015260c089015260e0880152610100870152610120860152811661014085015260a01c1615156101608301520390f35b3461024757604036600319011261024757611a84611d38565b602435611a9081612454565b33151580611b3f575b80611b12575b611afa576001600160a01b039283169282918491167f8c5be1e5ebec7d5bd14f71427d1e84f3dd0314c0f7b2291e5b200ac8c7c3b925600080a4600090815260046020526040902080546001600160a01b0319169091179055005b60405163a9fbf51f60e01b8152336004820152602490fd5b5060018060a01b038116600052600560205260406000203360005260205260ff6040600020541615611a9f565b506001600160a01b038116331415611a99565b3461024757602036600319011261024757600435611b6f81612454565b506000526004602052602060018060a01b0360406000205416604051908152f35b3461024757600036600319011261024757604051600080549082611bb383611d64565b91828252602093600190856001821691826000146107b7575050600114611be1575061074692500383611dd7565b6000808052859250907f290decd9548b62a8d60345a988386fc84ba6bc95484008f6362f93160ef3e5635b858310611c23575050610746935082010185610739565b80548389018501528794508693909201918101611c0c565b34610247576000366003190112610247576020600c54604051908152f35b34610247576020366003190112610247576004359063ffffffff60e01b821680920361024757602091632483248360e11b8114908115611c9b575b5015158152f35b63780e9d6360e01b811491508115611cb5575b5083611c94565b6380ac58cd60e01b811491508115611ce7575b8115611cd6575b5083611cae565b6301ffc9a760e01b14905083611ccf565b635b5e139f60e01b81149150611cc8565b919082519283825260005b848110611d24575050826000602080949584010152601f8019910116010190565b602081830181015184830182015201611d03565b600435906001600160a01b038216820361024757565b602435906001600160a01b038216820361024757565b90600182811c92168015611d94575b6020831014611d7e57565b634e487b7160e01b600052602260045260246000fd5b91607f1691611d73565b610180810190811067ffffffffffffffff8211176116f157604052565b6020810190811067ffffffffffffffff8211176116f157604052565b90601f8019910116810190811067ffffffffffffffff8211176116f157604052565b90604051918260008254611e0c81611d64565b90818452602094600191600181169081600014611e7c5750600114611e3d575b505050611e3b92500383611dd7565b565b600090815285812095935091905b818310611e64575050611e3b9350820101388080611e2c565b85548884018501529485019487945091830191611e4b565b92505050611e3b94925060ff191682840152151560051b820101388080611e2c565b6060906003190112610247576001600160a01b0390600435828116810361024757916024359081168103610247579060443590565b9181601f840112156102475782359167ffffffffffffffff8311610247576020838186019501011161024757565b606090600319011261024757600435906024359060443580151581036102475790565b6040906003190112610247576004359060243590565b67ffffffffffffffff81116116f157601f01601f191660200190565b929192611f6282611f3a565b91611f706040519384611dd7565b829481845281830111610247578281602093846000960137010152565b906001600160a01b03808216908115610a7e576000918583526020926002845260409383858320541695331515806121c6575b5086158015612193575b84845260038352868420805460010190558984526002835286842080546001600160a01b031916861790558985897fddf252ad1be2c89b69c2b068fc378daa952ba7f163c4a11628f55a4df523b3ef8780a41561211757600854898452600983528087852055600160401b8110156121035789612050826001612069940160085561235f565b90919082549060031b91821b91600019901b1916179055565b8387036120b1575b50505050831682036120835750505050565b516364283d7b60e01b81526001600160a01b0392831660048201526024810193909352166044820152606490fd5b6120ba906123dc565b6000198101939084116120ef578291600791879452600681528383208584528152898484205589835252205538808080612071565b634e487b7160e01b83526011600452602483fd5b634e487b7160e01b84526041600452602484fd5b86841461206957612127876123dc565b898452600783528684205481810361215c575b5089845283878120558784526006835286842090845282528286812055612069565b888552600684528785208286528452878520548986526006855288862082875285528089872055855260078452878520553861213a565b60008a815260046020526040902080546001600160a01b0319169055878452600383528684208054600019019055611fca565b80612213575b156121d75738611fc0565b8589886121f4576024915190637e27328960e01b82526004820152fd5b905163177e802f60e01b81523360048201526024810191909152604490fd5b503387148015612238575b806121cc57508883526004825233858785205416146121cc565b5086835260058252858320338452825260ff868420541661221e565b908060209392818452848401376000828201840152601f01601f1916010190565b1561227c57565b60405162461bcd60e51b8152602060048201526014602482015273151bdad95b88191bd95cc81b9bdd08195e1a5cdd60621b6044820152606490fd5b156122bf57565b60405162461bcd60e51b815260206004820152600f60248201526e10d85b5c185a59db8818db1bdcd959608a1b6044820152606490fd5b156122fd57565b60405162461bcd60e51b815260206004820152600d60248201526c139bc81d985b1d59481cd95b9d609a1b6044820152606490fd5b818102929181159184041417156118fc57565b919082039182116118fc57565b919082018092116118fc57565b6008548110156123965760086000527ff3f7a9fe364faab93b216da50a3214154f22a0a2b415b23a84c8169e8b636ee30190600090565b634e487b7160e01b600052603260045260246000fd5b3d156123d7573d906123bd82611f3a565b916123cb6040519384611dd7565b82523d6000602084013e565b606090565b6001600160a01b031680156123fc57600052600360205260406000205490565b6040516322718ad960e21b815260006004820152602490fd5b1561241c57565b60405162461bcd60e51b815260206004820152601060248201526f139bc81cdd589b5a5d1d195c881cd95d60821b6044820152606490fd5b6000818152600260205260409020546001600160a01b0316908115612477575090565b60249060405190637e27328960e01b82526004820152fd5b600b546001600160a01b031633036124a357565b60405163118cdaa760e01b8152336004820152602490fd5b9190803b6124ca575b50505050565b61250c60018060a01b0380921694604051938493630a85bd0160e11b968786523360048701521660248501526044840152608060648401526084830190611cf8565b03906020816000938185885af190829082612584575b505061255357826125316123ac565b805191908261185d57604051633250574960e11b815260048101839052602490fd5b6001600160e01b0319160361256c5750388080806124c4565b60249060405190633250574960e11b82526004820152fd5b909192506020813d6020116125cc575b816125a160209383611dd7565b810103126125c85751906001600160e01b0319821682036125c55750903880612522565b80fd5b5080fd5b3d9150612594565b6000828152600260209081526040808320546001600160a01b039081169592949192918615918215612836575b8116918215908115612820575b8487526002885285872080546001600160a01b0319168517905584848a7fddf252ad1be2c89b69c2b068fc378daa952ba7f163c4a11628f55a4df523b3ef8a80a4156127a457600854848752600988528086882055600160401b8110156127905784612050826001612683940160085561235f565b156127275750506008546000199485820191821161271357906009839286959486528181526126b5858720549361235f565b90549060031b1c6126c9816120508661235f565b8652528284205582528120556008549081156126ff57508101906126ec8261235f565b909182549160031b1b1916905560085590565b634e487b7160e01b81526031600452602490fd5b634e487b7160e01b85526011600452602485fd5b8187969392969594950361273f575b50505050505090565b612748906123dc565b60001981019590861161277c5783526006825283832085845282528383208190558252600790522055388080808080612736565b634e487b7160e01b84526011600452602484fd5b634e487b7160e01b87526041600452602487fd5b878314612683576127b4886123dc565b84875260078852858720548181036127e9575b5084875286868120558887526006885285872090875287528585812055612683565b898852600689528688208289528952868820548a895260068a52878920828a528a5280888a205588526007895286882055386127c7565b838752600388528587206001815401905561260e565b600084815260046020526040902080546001600160a01b031916905587865260038752848620805460001901905561260156fedd4045d4f9777f7c212a99e66725c7286158c0207fbe67cfdf233d331d582497a2646970667358221220a9b4627c8db1ad4e886712183ba36d9a52d4c360d5afadba285927212ebb872d64736f6c63430008180033",
  "linkReferences": {},
  "deployedLinkReferences": {}
}