{
  "_format": "hh-sol-artifact-1",
  "contractName": "PatriotPledgeNFT",
  "sourceName": "contracts/PatriotPledgeNFT.sol",
  "abi": [
    {
      "inputs": [
        {
          "internalType": "address",
          "name": "_nonprofit",
          "type": "address"
        },
        {
          "internalType": "uint96",
          "name": "_feeBps",
          "type": "uint96"
        }
      ],
      "stateMutability": "nonpayable",
      "type": "constructor"
    },
    {
      "inputs": [],
      "name": "ERC721EnumerableForbiddenBatchMint",
      "type": "error"
    },
    {
      "inputs": [
        {
          "internalType": "address",
          "name": "sender",
          "type": "address"
        },
        {
          "internalType": "uint256",
          "name": "tokenId",
          "type": "uint256"
        },
        {
          "internalType": "address",
          "name": "owner",
          "type": "address"
        }
      ],
      "name": "ERC721IncorrectOwner",
      "type": "error"
    },
    {
      "inputs": [
        {
          "internalType": "address",
          "name": "operator",
          "type": "address"
        },
        {
          "internalType": "uint256",
          "name": "tokenId",
          "type": "uint256"
        }
      ],
      "name": "ERC721InsufficientApproval",
      "type": "error"
    },
    {
      "inputs": [
        {
          "internalType": "address",
          "name": "approver",
          "type": "address"
        }
      ],
      "name": "ERC721InvalidApprover",
      "type": "error"
    },
    {
      "inputs": [
        {
          "internalType": "address",
          "name": "operator",
          "type": "address"
        }
      ],
      "name": "ERC721InvalidOperator",
      "type": "error"
    },
    {
      "inputs": [
        {
          "internalType": "address",
          "name": "owner",
          "type": "address"
        }
      ],
      "name": "ERC721InvalidOwner",
      "type": "error"
    },
    {
      "inputs": [
        {
          "internalType": "address",
          "name": "receiver",
          "type": "address"
        }
      ],
      "name": "ERC721InvalidReceiver",
      "type": "error"
    },
    {
      "inputs": [
        {
          "internalType": "address",
          "name": "sender",
          "type": "address"
        }
      ],
      "name": "ERC721InvalidSender",
      "type": "error"
    },
    {
      "inputs": [
        {
          "internalType": "uint256",
          "name": "tokenId",
          "type": "uint256"
        }
      ],
      "name": "ERC721NonexistentToken",
      "type": "error"
    },
    {
      "inputs": [
        {
          "internalType": "address",
          "name": "owner",
          "type": "address"
        },
        {
          "internalType": "uint256",
          "name": "index",
          "type": "uint256"
        }
      ],
      "name": "ERC721OutOfBoundsIndex",
      "type": "error"
    },
    {
      "inputs": [
        {
          "internalType": "address",
          "name": "owner",
          "type": "address"
        }
      ],
      "name": "OwnableInvalidOwner",
      "type": "error"
    },
    {
      "inputs": [
        {
          "internalType": "address",
          "name": "account",
          "type": "address"
        }
      ],
      "name": "OwnableUnauthorizedAccount",
      "type": "error"
    },
    {
      "inputs": [],
      "name": "ReentrancyGuardReentrantCall",
      "type": "error"
    },
    {
      "anonymous": false,
      "inputs": [
        {
          "indexed": true,
          "internalType": "address",
          "name": "owner",
          "type": "address"
        },
        {
          "indexed": true,
          "internalType": "address",
          "name": "approved",
          "type": "address"
        },
        {
          "indexed": true,
          "internalType": "uint256",
          "name": "tokenId",
          "type": "uint256"
        }
      ],
      "name": "Approval",
      "type": "event"
    },
    {
      "anonymous": false,
      "inputs": [
        {
          "indexed": true,
          "internalType": "address",
          "name": "owner",
          "type": "address"
        },
        {
          "indexed": true,
          "internalType": "address",
          "name": "operator",
          "type": "address"
        },
        {
          "indexed": false,
          "internalType": "bool",
          "name": "approved",
          "type": "bool"
        }
      ],
      "name": "ApprovalForAll",
      "type": "event"
    },
    {
      "anonymous": false,
      "inputs": [
        {
          "indexed": false,
          "internalType": "uint256",
          "name": "_fromTokenId",
          "type": "uint256"
        },
        {
          "indexed": false,
          "internalType": "uint256",
          "name": "_toTokenId",
          "type": "uint256"
        }
      ],
      "name": "BatchMetadataUpdate",
      "type": "event"
    },
    {
      "anonymous": false,
      "inputs": [
        {
          "indexed": true,
          "internalType": "uint256",
          "name": "campaignId",
          "type": "uint256"
        },
        {
          "indexed": false,
          "internalType": "uint256",
          "name": "startTokenId",
          "type": "uint256"
        },
        {
          "indexed": false,
          "internalType": "uint256",
          "name": "size",
          "type": "uint256"
        },
        {
          "indexed": false,
          "internalType": "uint256",
          "name": "priceWei",
          "type": "uint256"
        },
        {
          "indexed": false,
          "internalType": "uint256",
          "name": "goalWei",
          "type": "uint256"
        },
        {
          "indexed": true,
          "internalType": "address",
          "name": "creator",
          "type": "address"
        },
        {
          "indexed": false,
          "internalType": "string",
          "name": "category",
          "type": "string"
        }
      ],
      "name": "CampaignCreated",
      "type": "event"
    },
    {
      "anonymous": false,
      "inputs": [
        {
          "indexed": true,
          "internalType": "uint256",
          "name": "campaignId",
          "type": "uint256"
        },
        {
          "indexed": false,
          "internalType": "uint8",
          "name": "progress",
          "type": "uint8"
        }
      ],
      "name": "CampaignProgressUpdated",
      "type": "event"
    },
    {
      "anonymous": false,
      "inputs": [
        {
          "indexed": true,
          "internalType": "uint256",
          "name": "campaignId",
          "type": "uint256"
        },
        {
          "indexed": true,
          "internalType": "address",
          "name": "to",
          "type": "address"
        },
        {
          "indexed": false,
          "internalType": "uint256",
          "name": "amountWei",
          "type": "uint256"
        },
        {
          "indexed": false,
          "internalType": "uint256",
          "name": "feeWei",
          "type": "uint256"
        },
        {
          "indexed": false,
          "internalType": "uint256",
          "name": "netWei",
          "type": "uint256"
        },
        {
          "indexed": false,
          "internalType": "uint8",
          "name": "milestone",
          "type": "uint8"
        }
      ],
      "name": "FundsReleased",
      "type": "event"
    },
    {
      "anonymous": false,
      "inputs": [
        {
          "indexed": true,
          "internalType": "uint256",
          "name": "tokenId",
          "type": "uint256"
        },
        {
          "indexed": false,
          "internalType": "string",
          "name": "uri",
          "type": "string"
        }
      ],
      "name": "ImageAdded",
      "type": "event"
    },
    {
      "anonymous": false,
      "inputs": [
        {
          "indexed": false,
          "internalType": "uint256",
          "name": "_tokenId",
          "type": "uint256"
        }
      ],
      "name": "MetadataUpdate",
      "type": "event"
    },
    {
      "anonymous": false,
      "inputs": [
        {
          "indexed": true,
          "internalType": "uint256",
          "name": "tokenId",
          "type": "uint256"
        },
        {
          "indexed": false,
          "internalType": "uint8",
          "name": "milestone",
          "type": "uint8"
        },
        {
          "indexed": false,
          "internalType": "uint256",
          "name": "timestamp",
          "type": "uint256"
        }
      ],
      "name": "MilestoneReleased",
      "type": "event"
    },
    {
      "anonymous": false,
      "inputs": [
        {
          "indexed": true,
          "internalType": "address",
          "name": "creator",
          "type": "address"
        },
        {
          "indexed": true,
          "internalType": "uint256",
          "name": "tokenId",
          "type": "uint256"
        },
        {
          "indexed": false,
          "internalType": "string",
          "name": "uri",
          "type": "string"
        },
        {
          "indexed": false,
          "internalType": "string",
          "name": "category",
          "type": "string"
        }
      ],
      "name": "Minted",
      "type": "event"
    },
    {
      "anonymous": false,
      "inputs": [
        {
          "indexed": true,
          "internalType": "uint256",
          "name": "campaignId",
          "type": "uint256"
        },
        {
          "indexed": true,
          "internalType": "uint256",
          "name": "tokenId",
          "type": "uint256"
        },
        {
          "indexed": true,
          "internalType": "address",
          "name": "buyer",
          "type": "address"
        },
        {
          "indexed": false,
          "internalType": "uint256",
          "name": "priceWei",
          "type": "uint256"
        }
      ],
      "name": "NFTPurchased",
      "type": "event"
    },
    {
      "anonymous": false,
      "inputs": [
        {
          "indexed": true,
          "internalType": "address",
          "name": "previousOwner",
          "type": "address"
        },
        {
          "indexed": true,
          "internalType": "address",
          "name": "newOwner",
          "type": "address"
        }
      ],
      "name": "OwnershipTransferred",
      "type": "event"
    },
    {
      "anonymous": false,
      "inputs": [
        {
          "indexed": true,
          "internalType": "uint256",
          "name": "tokenId",
          "type": "uint256"
        },
        {
          "indexed": false,
          "internalType": "uint8",
          "name": "progress",
          "type": "uint8"
        }
      ],
      "name": "ProgressUpdated",
      "type": "event"
    },
    {
      "anonymous": false,
      "inputs": [
        {
          "indexed": true,
          "internalType": "uint256",
          "name": "tokenId",
          "type": "uint256"
        },
        {
          "indexed": true,
          "internalType": "uint256",
          "name": "campaignId",
          "type": "uint256"
        }
      ],
      "name": "TokenLinkedToCampaign",
      "type": "event"
    },
    {
      "anonymous": false,
      "inputs": [
        {
          "indexed": true,
          "internalType": "address",
          "name": "from",
          "type": "address"
        },
        {
          "indexed": true,
          "internalType": "address",
          "name": "to",
          "type": "address"
        },
        {
          "indexed": true,
          "internalType": "uint256",
          "name": "tokenId",
          "type": "uint256"
        }
      ],
      "name": "Transfer",
      "type": "event"
    },
    {
      "anonymous": false,
      "inputs": [
        {
          "indexed": true,
          "internalType": "uint256",
          "name": "tokenId",
          "type": "uint256"
        },
        {
          "indexed": false,
          "internalType": "string",
          "name": "uri",
          "type": "string"
        }
      ],
      "name": "UriUpdated",
      "type": "event"
    },
    {
      "inputs": [
        {
          "internalType": "uint256",
          "name": "tokenId",
          "type": "uint256"
        },
        {
          "internalType": "string",
          "name": "uri",
          "type": "string"
        }
      ],
      "name": "addImage",
      "outputs": [],
      "stateMutability": "nonpayable",
      "type": "function"
    },
    {
      "inputs": [
        {
          "internalType": "address",
          "name": "to",
          "type": "address"
        },
        {
          "internalType": "uint256",
          "name": "tokenId",
          "type": "uint256"
        }
      ],
      "name": "approve",
      "outputs": [],
      "stateMutability": "nonpayable",
      "type": "function"
    },
    {
      "inputs": [
        {
          "internalType": "address",
          "name": "owner",
          "type": "address"
        }
      ],
      "name": "balanceOf",
      "outputs": [
        {
          "internalType": "uint256",
          "name": "",
          "type": "uint256"
        }
      ],
      "stateMutability": "view",
      "type": "function"
    },
    {
      "inputs": [
        {
          "internalType": "uint256",
          "name": "campaignId",
          "type": "uint256"
        }
      ],
      "name": "buy",
      "outputs": [
        {
          "internalType": "uint256",
          "name": "tokenId",
          "type": "uint256"
        }
      ],
      "stateMutability": "payable",
      "type": "function"
    },
    {
      "inputs": [
        {
          "internalType": "uint256",
          "name": "",
          "type": "uint256"
        }
      ],
      "name": "campaignProgress",
      "outputs": [
        {
          "internalType": "uint8",
          "name": "",
          "type": "uint8"
        }
      ],
      "stateMutability": "view",
      "type": "function"
    },
    {
      "inputs": [
        {
          "internalType": "uint256",
          "name": "",
          "type": "uint256"
        }
      ],
      "name": "campaigns",
      "outputs": [
        {
          "internalType": "uint256",
          "name": "priceWei",
          "type": "uint256"
        },
        {
          "internalType": "uint256",
          "name": "goalWei",
          "type": "uint256"
        },
        {
          "internalType": "uint256",
          "name": "raisedWei",
          "type": "uint256"
        },
        {
          "internalType": "uint256",
          "name": "releasedWei",
          "type": "uint256"
        },
        {
          "internalType": "uint256",
          "name": "startTokenId",
          "type": "uint256"
        },
        {
          "internalType": "uint256",
          "name": "size",
          "type": "uint256"
        },
        {
          "internalType": "uint256",
          "name": "sold",
          "type": "uint256"
        },
        {
          "internalType": "address",
          "name": "creator",
          "type": "address"
        },
        {
          "internalType": "string",
          "name": "baseURI",
          "type": "string"
        },
        {
          "internalType": "string",
          "name": "cat",
          "type": "string"
        },
        {
          "internalType": "bool",
          "name": "active",
          "type": "bool"
        }
      ],
      "stateMutability": "view",
      "type": "function"
    },
    {
      "inputs": [
        {
          "internalType": "uint256",
          "name": "",
          "type": "uint256"
        }
      ],
      "name": "category",
      "outputs": [
        {
          "internalType": "string",
          "name": "",
          "type": "string"
        }
      ],
      "stateMutability": "view",
      "type": "function"
    },
    {
      "inputs": [],
      "name": "feeBps",
      "outputs": [
        {
          "internalType": "uint96",
          "name": "",
          "type": "uint96"
        }
      ],
      "stateMutability": "view",
      "type": "function"
    },
    {
      "inputs": [
        {
          "internalType": "uint256",
          "name": "tokenId",
          "type": "uint256"
        }
      ],
      "name": "getApproved",
      "outputs": [
        {
          "internalType": "address",
          "name": "",
          "type": "address"
        }
      ],
      "stateMutability": "view",
      "type": "function"
    },
    {
      "inputs": [
        {
          "internalType": "uint256",
          "name": "campaignId",
          "type": "uint256"
        }
      ],
      "name": "getCampaignProgress",
      "outputs": [
        {
          "internalType": "uint8",
          "name": "",
          "type": "uint8"
        }
      ],
      "stateMutability": "view",
      "type": "function"
    },
    {
      "inputs": [
        {
          "internalType": "uint256",
          "name": "",
          "type": "uint256"
        },
        {
          "internalType": "uint256",
          "name": "",
          "type": "uint256"
        }
      ],
      "name": "images",
      "outputs": [
        {
          "internalType": "string",
          "name": "",
          "type": "string"
        }
      ],
      "stateMutability": "view",
      "type": "function"
    },
    {
      "inputs": [
        {
          "internalType": "address",
          "name": "owner",
          "type": "address"
        },
        {
          "internalType": "address",
          "name": "operator",
          "type": "address"
        }
      ],
      "name": "isApprovedForAll",
      "outputs": [
        {
          "internalType": "bool",
          "name": "",
          "type": "bool"
        }
      ],
      "stateMutability": "view",
      "type": "function"
    },
    {
      "inputs": [
        {
          "internalType": "address",
          "name": "to",
          "type": "address"
        },
        {
          "internalType": "string",
          "name": "uri",
          "type": "string"
        },
        {
          "internalType": "string",
          "name": "cat",
          "type": "string"
        }
      ],
      "name": "mint",
      "outputs": [
        {
          "internalType": "uint256",
          "name": "",
          "type": "uint256"
        }
      ],
      "stateMutability": "nonpayable",
      "type": "function"
    },
    {
      "inputs": [
        {
          "internalType": "uint256",
          "name": "size",
          "type": "uint256"
        },
        {
          "internalType": "uint256",
          "name": "priceWei",
          "type": "uint256"
        },
        {
          "internalType": "uint256",
          "name": "goalWei",
          "type": "uint256"
        },
        {
          "internalType": "address",
          "name": "creator",
          "type": "address"
        },
        {
          "internalType": "string",
          "name": "baseURI",
          "type": "string"
        },
        {
          "internalType": "string",
          "name": "cat",
          "type": "string"
        }
      ],
      "name": "mintSeries",
      "outputs": [
        {
          "internalType": "uint256",
          "name": "campaignId",
          "type": "uint256"
        }
      ],
      "stateMutability": "nonpayable",
      "type": "function"
    },
    {
      "inputs": [],
      "name": "name",
      "outputs": [
        {
          "internalType": "string",
          "name": "",
          "type": "string"
        }
      ],
      "stateMutability": "view",
      "type": "function"
    },
    {
      "inputs": [],
      "name": "nextCampaignId",
      "outputs": [
        {
          "internalType": "uint256",
          "name": "",
          "type": "uint256"
        }
      ],
      "stateMutability": "view",
      "type": "function"
    },
    {
      "inputs": [],
      "name": "nextTokenId",
      "outputs": [
        {
          "internalType": "uint256",
          "name": "",
          "type": "uint256"
        }
      ],
      "stateMutability": "view",
      "type": "function"
    },
    {
      "inputs": [],
      "name": "nonprofit",
      "outputs": [
        {
          "internalType": "address",
          "name": "",
          "type": "address"
        }
      ],
      "stateMutability": "view",
      "type": "function"
    },
    {
      "inputs": [
        {
          "internalType": "address",
          "name": "",
          "type": "address"
        },
        {
          "internalType": "address",
          "name": "",
          "type": "address"
        },
        {
          "internalType": "uint256",
          "name": "",
          "type": "uint256"
        },
        {
          "internalType": "bytes",
          "name": "",
          "type": "bytes"
        }
      ],
      "name": "onERC721Received",
      "outputs": [
        {
          "internalType": "bytes4",
          "name": "",
          "type": "bytes4"
        }
      ],
      "stateMutability": "nonpayable",
      "type": "function"
    },
    {
      "inputs": [
        {
          "internalType": "address",
          "name": "",
          "type": "address"
        }
      ],
      "name": "oracle",
      "outputs": [
        {
          "internalType": "bool",
          "name": "",
          "type": "bool"
        }
      ],
      "stateMutability": "view",
      "type": "function"
    },
    {
      "inputs": [
        {
          "internalType": "uint256",
          "name": "tokenId",
          "type": "uint256"
        },
        {
          "internalType": "uint8",
          "name": "p",
          "type": "uint8"
        }
      ],
      "name": "oracleSetProgress",
      "outputs": [],
      "stateMutability": "nonpayable",
      "type": "function"
    },
    {
      "inputs": [],
      "name": "owner",
      "outputs": [
        {
          "internalType": "address",
          "name": "",
          "type": "address"
        }
      ],
      "stateMutability": "view",
      "type": "function"
    },
    {
      "inputs": [
        {
          "internalType": "uint256",
          "name": "tokenId",
          "type": "uint256"
        }
      ],
      "name": "ownerOf",
      "outputs": [
        {
          "internalType": "address",
          "name": "",
          "type": "address"
        }
      ],
      "stateMutability": "view",
      "type": "function"
    },
    {
      "inputs": [
        {
          "internalType": "uint256",
          "name": "",
          "type": "uint256"
        }
      ],
      "name": "progress",
      "outputs": [
        {
          "internalType": "uint8",
          "name": "",
          "type": "uint8"
        }
      ],
      "stateMutability": "view",
      "type": "function"
    },
    {
      "inputs": [
        {
          "internalType": "uint256",
          "name": "campaignId",
          "type": "uint256"
        },
        {
          "internalType": "uint256",
          "name": "amountWei",
          "type": "uint256"
        },
        {
          "internalType": "uint8",
          "name": "milestone",
          "type": "uint8"
        }
      ],
      "name": "releaseFunds",
      "outputs": [],
      "stateMutability": "nonpayable",
      "type": "function"
    },
    {
      "inputs": [],
      "name": "renounceOwnership",
      "outputs": [],
      "stateMutability": "nonpayable",
      "type": "function"
    },
    {
      "inputs": [
        {
          "internalType": "address",
          "name": "from",
          "type": "address"
        },
        {
          "internalType": "address",
          "name": "to",
          "type": "address"
        },
        {
          "internalType": "uint256",
          "name": "tokenId",
          "type": "uint256"
        }
      ],
      "name": "safeTransferFrom",
      "outputs": [],
      "stateMutability": "nonpayable",
      "type": "function"
    },
    {
      "inputs": [
        {
          "internalType": "address",
          "name": "from",
          "type": "address"
        },
        {
          "internalType": "address",
          "name": "to",
          "type": "address"
        },
        {
          "internalType": "uint256",
          "name": "tokenId",
          "type": "uint256"
        },
        {
          "internalType": "bytes",
          "name": "data",
          "type": "bytes"
        }
      ],
      "name": "safeTransferFrom",
      "outputs": [],
      "stateMutability": "nonpayable",
      "type": "function"
    },
    {
      "inputs": [
        {
          "internalType": "address",
          "name": "operator",
          "type": "address"
        },
        {
          "internalType": "bool",
          "name": "approved",
          "type": "bool"
        }
      ],
      "name": "setApprovalForAll",
      "outputs": [],
      "stateMutability": "nonpayable",
      "type": "function"
    },
    {
      "inputs": [
        {
          "internalType": "uint256",
          "name": "campaignId",
          "type": "uint256"
        },
        {
          "internalType": "bool",
          "name": "active",
          "type": "bool"
        }
      ],
      "name": "setCampaignActive",
      "outputs": [],
      "stateMutability": "nonpayable",
      "type": "function"
    },
    {
      "inputs": [
        {
          "internalType": "uint96",
          "name": "bps",
          "type": "uint96"
        }
      ],
      "name": "setFeeBps",
      "outputs": [],
      "stateMutability": "nonpayable",
      "type": "function"
    },
    {
      "inputs": [
        {
          "internalType": "address",
          "name": "a",
          "type": "address"
        }
      ],
      "name": "setNonprofit",
      "outputs": [],
      "stateMutability": "nonpayable",
      "type": "function"
    },
    {
      "inputs": [
        {
          "internalType": "address",
          "name": "a",
          "type": "address"
        },
        {
          "internalType": "bool",
          "name": "v",
          "type": "bool"
        }
      ],
      "name": "setOracle",
      "outputs": [],
      "stateMutability": "nonpayable",
      "type": "function"
    },
    {
      "inputs": [
        {
          "internalType": "uint256",
          "name": "tokenId",
          "type": "uint256"
        },
        {
          "internalType": "uint8",
          "name": "p",
          "type": "uint8"
        }
      ],
      "name": "setProgress",
      "outputs": [],
      "stateMutability": "nonpayable",
      "type": "function"
    },
    {
      "inputs": [
        {
          "internalType": "bytes4",
          "name": "interfaceId",
          "type": "bytes4"
        }
      ],
      "name": "supportsInterface",
      "outputs": [
        {
          "internalType": "bool",
          "name": "",
          "type": "bool"
        }
      ],
      "stateMutability": "view",
      "type": "function"
    },
    {
      "inputs": [],
      "name": "symbol",
      "outputs": [
        {
          "internalType": "string",
          "name": "",
          "type": "string"
        }
      ],
      "stateMutability": "view",
      "type": "function"
    },
    {
      "inputs": [
        {
          "internalType": "uint256",
          "name": "index",
          "type": "uint256"
        }
      ],
      "name": "tokenByIndex",
      "outputs": [
        {
          "internalType": "uint256",
          "name": "",
          "type": "uint256"
        }
      ],
      "stateMutability": "view",
      "type": "function"
    },
    {
      "inputs": [
        {
          "internalType": "uint256",
          "name": "",
          "type": "uint256"
        }
      ],
      "name": "tokenCampaign",
      "outputs": [
        {
          "internalType": "uint256",
          "name": "",
          "type": "uint256"
        }
      ],
      "stateMutability": "view",
      "type": "function"
    },
    {
      "inputs": [
        {
          "internalType": "uint256",
          "name": "campaignId",
          "type": "uint256"
        },
        {
          "internalType": "uint256",
          "name": "index",
          "type": "uint256"
        }
      ],
      "name": "tokenIdInCampaignByIndex",
      "outputs": [
        {
          "internalType": "uint256",
          "name": "",
          "type": "uint256"
        }
      ],
      "stateMutability": "view",
      "type": "function"
    },
    {
      "inputs": [
        {
          "internalType": "address",
          "name": "owner",
          "type": "address"
        },
        {
          "internalType": "uint256",
          "name": "index",
          "type": "uint256"
        }
      ],
      "name": "tokenOfOwnerByIndex",
      "outputs": [
        {
          "internalType": "uint256",
          "name": "",
          "type": "uint256"
        }
      ],
      "stateMutability": "view",
      "type": "function"
    },
    {
      "inputs": [
        {
          "internalType": "uint256",
          "name": "tokenId",
          "type": "uint256"
        }
      ],
      "name": "tokenURI",
      "outputs": [
        {
          "internalType": "string",
          "name": "",
          "type": "string"
        }
      ],
      "stateMutability": "view",
      "type": "function"
    },
    {
      "inputs": [
        {
          "internalType": "uint256",
          "name": "campaignId",
          "type": "uint256"
        },
        {
          "internalType": "uint256",
          "name": "offset",
          "type": "uint256"
        },
        {
          "internalType": "uint256",
          "name": "limit",
          "type": "uint256"
        }
      ],
      "name": "tokensOfCampaign",
      "outputs": [
        {
          "internalType": "uint256[]",
          "name": "ids",
          "type": "uint256[]"
        }
      ],
      "stateMutability": "view",
      "type": "function"
    },
    {
      "inputs": [
        {
          "internalType": "address",
          "name": "owner_",
          "type": "address"
        },
        {
          "internalType": "uint256",
          "name": "campaignId",
          "type": "uint256"
        },
        {
          "internalType": "uint256",
          "name": "offset",
          "type": "uint256"
        },
        {
          "internalType": "uint256",
          "name": "limit",
          "type": "uint256"
        }
      ],
      "name": "tokensOfOwnerInCampaign",
      "outputs": [
        {
          "internalType": "uint256[]",
          "name": "ids",
          "type": "uint256[]"
        }
      ],
      "stateMutability": "view",
      "type": "function"
    },
    {
      "inputs": [],
      "name": "totalSupply",
      "outputs": [
        {
          "internalType": "uint256",
          "name": "",
          "type": "uint256"
        }
      ],
      "stateMutability": "view",
      "type": "function"
    },
    {
      "inputs": [
        {
          "internalType": "uint256",
          "name": "campaignId",
          "type": "uint256"
        }
      ],
      "name": "totalSupplyInCampaign",
      "outputs": [
        {
          "internalType": "uint256",
          "name": "",
          "type": "uint256"
        }
      ],
      "stateMutability": "view",
      "type": "function"
    },
    {
      "inputs": [
        {
          "internalType": "address",
          "name": "from",
          "type": "address"
        },
        {
          "internalType": "address",
          "name": "to",
          "type": "address"
        },
        {
          "internalType": "uint256",
          "name": "tokenId",
          "type": "uint256"
        }
      ],
      "name": "transferFrom",
      "outputs": [],
      "stateMutability": "nonpayable",
      "type": "function"
    },
    {
      "inputs": [
        {
          "internalType": "address",
          "name": "newOwner",
          "type": "address"
        }
      ],
      "name": "transferOwnership",
      "outputs": [],
      "stateMutability": "nonpayable",
      "type": "function"
    },
    {
      "inputs": [
        {
          "internalType": "uint256",
          "name": "campaignId",
          "type": "uint256"
        },
        {
          "internalType": "uint8",
          "name": "p",
          "type": "uint8"
        }
      ],
      "name": "updateCampaignProgress",
      "outputs": [],
      "stateMutability": "nonpayable",
      "type": "function"
    },
    {
      "inputs": [
        {
          "internalType": "uint256",
          "name": "tokenId",
          "type": "uint256"
        },
        {
          "internalType": "string",
          "name": "uri",
          "type": "string"
        }
      ],
      "name": "updateTokenURI",
      "outputs": [],
      "stateMutability": "nonpayable",
      "type": "function"
    }
  ],
  "bytecode": "0x6080604052600f80546001600160a01b0316601960a21b1790553480156200002657600080fd5b506040516200381e3803806200381e833981016040819052620000499162000169565b336040518060400160405280600d81526020016c50617472696f74506c6564676560981b8152506040518060400160405280600781526020016650504c4544474560c81b8152508160009081620000a1919062000265565b506001620000b0828262000265565b5050506001600160a01b038116620000e257604051631e4fbdf760e01b81526000600482015260240160405180910390fd5b620000ed8162000117565b506001600c556001600160601b0316600160a01b026001600160a01b0390911617600f5562000331565b600b80546001600160a01b038381166001600160a01b0319831681179093556040519116919082907f8be0079c531659141344cd1fd0a4f28419497f9722a3daafe3b4186f6b6457e090600090a35050565b600080604083850312156200017d57600080fd5b82516001600160a01b03811681146200019557600080fd5b60208401519092506001600160601b0381168114620001b357600080fd5b809150509250929050565b634e487b7160e01b600052604160045260246000fd5b600181811c90821680620001e957607f821691505b6020821081036200020a57634e487b7160e01b600052602260045260246000fd5b50919050565b601f82111562000260576000816000526020600020601f850160051c810160208610156200023b5750805b601f850160051c820191505b818110156200025c5782815560010162000247565b5050505b505050565b81516001600160401b03811115620002815762000281620001be565b6200029981620002928454620001d4565b8462000210565b602080601f831160018114620002d15760008415620002b85750858301515b600019600386901b1c1916600185901b1785556200025c565b600085815260208120601f198616915b828110156200030257888601518255948401946001909101908401620002e1565b5085821015620003215787850151600019600388901b60f8161c191681555b5050505050600190811b01905550565b6134dd80620003416000396000f3fe6080604052600436106102ae5760003560e01c8063710df4fc11610175578063a7801db6116100dc578063be51fa1a11610095578063d96a094a1161006f578063d96a094a1461091d578063e985e9c514610930578063eb37d34914610950578063f2fde38b1461098057600080fd5b8063be51fa1a146108bd578063bfe30d5e146108dd578063c87b56dd146108fd57600080fd5b8063a7801db6146107e0578063a944af2d1461080d578063ab2258a21461083d578063ad11728b1461085d578063b7f1564e1461087d578063b88d4fde1461089d57600080fd5b80638da5cb5b1161012e5780638da5cb5b1461071d57806395d89b411461073b578063966f77d4146107505780639907119014610770578063a22cb46514610790578063a3056bf9146107b057600080fd5b8063710df4fc1461066c578063715018a61461068c57806375794a3c146106a15780637903a756146106b75780637b276ae9146106cd5780638ab9b92a146106ed57600080fd5b806324a9d853116102195780634f6ccce7116101d25780634f6ccce71461058a5780636352211e146105aa57806365360843146105ca578063659706e6146105ea57806369826a941461060a57806370a082311461064c57600080fd5b806324a9d853146104ab578063253eca1f146104ea5780632f745c591461050a57806342842e0e1461052a5780634ab7b7b11461054a5780634b1cef851461056a57600080fd5b8063141961bc1161026b578063141961bc146103b1578063150b7a02146103e857806318160ddd1461042c57806318e97fd11461044b5780631baf51461461046b57806323b872dd1461048b57600080fd5b806301ffc9a7146102b357806306fdde03146102e85780630722fb621461030a578063081812fc1461032a5780630845fff514610362578063095ea7b31461038f575b600080fd5b3480156102bf57600080fd5b506102d36102ce366004612b61565b6109a0565b60405190151581526020015b60405180910390f35b3480156102f457600080fd5b506102fd6109b1565b6040516102df9190612bce565b34801561031657600080fd5b506102fd610325366004612be1565b610a43565b34801561033657600080fd5b5061034a610345366004612c03565b610afc565b6040516001600160a01b0390911681526020016102df565b34801561036e57600080fd5b5061038261037d366004612c1c565b610b25565b6040516102df9190612c48565b34801561039b57600080fd5b506103af6103aa366004612ca3565b610c31565b005b3480156103bd57600080fd5b506103d16103cc366004612c03565b610c40565b6040516102df9b9a99989796959493929190612ccd565b3480156103f457600080fd5b50610413610403366004612dd7565b630a85bd0160e11b949350505050565b6040516001600160e01b031990911681526020016102df565b34801561043857600080fd5b506008545b6040519081526020016102df565b34801561045757600080fd5b506103af610466366004612e73565b610db6565b34801561047757600080fd5b506103af610486366004612eba565b610e22565b34801561049757600080fd5b506103af6104a6366004612ed5565b610e4c565b3480156104b757600080fd5b50600f546104d290600160a01b90046001600160601b031681565b6040516001600160601b0390911681526020016102df565b3480156104f657600080fd5b506102fd610505366004612c03565b610ed7565b34801561051657600080fd5b5061043d610525366004612ca3565b610ef0565b34801561053657600080fd5b506103af610545366004612ed5565b610f55565b34801561055657600080fd5b506103af610565366004612f22565b610f75565b34801561057657600080fd5b5061043d610585366004612be1565b611028565b34801561059657600080fd5b5061043d6105a5366004612c03565b611087565b3480156105b657600080fd5b5061034a6105c5366004612c03565b6110e0565b3480156105d657600080fd5b506103af6105e5366004612f5e565b6110eb565b3480156105f657600080fd5b506103af610605366004612f22565b61111e565b34801561061657600080fd5b5061063a610625366004612c03565b60106020526000908152604090205460ff1681565b60405160ff90911681526020016102df565b34801561065857600080fd5b5061043d610667366004612eba565b611226565b34801561067857600080fd5b506103af610687366004612f22565b61126e565b34801561069857600080fd5b506103af6112b2565b3480156106ad57600080fd5b5061043d600d5481565b3480156106c357600080fd5b5061043d600e5481565b3480156106d957600080fd5b506103af6106e8366004612f88565b6112c6565b3480156106f957600080fd5b5061063a610708366004612c03565b60009081526014602052604090205460ff1690565b34801561072957600080fd5b50600b546001600160a01b031661034a565b34801561074757600080fd5b506102fd61159a565b34801561075c57600080fd5b5061043d61076b366004612fbd565b6115a9565b34801561077c57600080fd5b5061043d61078b36600461304d565b6118a3565b34801561079c57600080fd5b506103af6107ab366004612f5e565b611935565b3480156107bc57600080fd5b5061043d6107cb366004612c03565b60009081526015602052604090206005015490565b3480156107ec57600080fd5b5061043d6107fb366004612c03565b60166020526000908152604090205481565b34801561081957600080fd5b5061063a610828366004612c03565b60146020526000908152604090205460ff1681565b34801561084957600080fd5b506103af610858366004612e73565b611940565b34801561086957600080fd5b506103af6108783660046130c1565b6119bf565b34801561088957600080fd5b506103af6108983660046130e4565b6119ea565b3480156108a957600080fd5b506103af6108b8366004612dd7565b611a1a565b3480156108c957600080fd5b506103826108d836600461310d565b611a31565b3480156108e957600080fd5b50600f5461034a906001600160a01b031681565b34801561090957600080fd5b506102fd610918366004612c03565b611bcc565b61043d61092b366004612c03565b611bd7565b34801561093c57600080fd5b506102d361094b366004613146565b611d65565b34801561095c57600080fd5b506102d361096b366004612eba565b60136020526000908152604090205460ff1681565b34801561098c57600080fd5b506103af61099b366004612eba565b611d93565b60006109ab82611dd1565b92915050565b6060600080546109c090613170565b80601f01602080910402602001604051908101604052809291908181526020018280546109ec90613170565b8015610a395780601f10610a0e57610100808354040283529160200191610a39565b820191906000526020600020905b815481529060010190602001808311610a1c57829003601f168201915b5050505050905090565b60116020528160005260406000208181548110610a5f57600080fd5b90600052602060002001600091509150508054610a7b90613170565b80601f0160208091040260200160405190810160405280929190818152602001828054610aa790613170565b8015610af45780601f10610ac957610100808354040283529160200191610af4565b820191906000526020600020905b815481529060010190602001808311610ad757829003601f168201915b505050505081565b6000610b0782611df6565b506000828152600460205260409020546001600160a01b03166109ab565b60008381526015602052604090206005810154606091908410610b785760405162461bcd60e51b81526020600482015260066024820152651bd9999cd95d60d21b60448201526064015b60405180910390fd5b6000848260050154610b8a91906131c0565b905083811115610b975750825b8067ffffffffffffffff811115610bb057610bb0612d4b565b604051908082528060200260200182016040528015610bd9578160200160208202803683370190505b50925060005b81811015610c275780868460040154610bf891906131d3565b610c0291906131d3565b848281518110610c1457610c146131e6565b6020908102919091010152600101610bdf565b5050509392505050565b610c3c828233611e2f565b5050565b60156020526000908152604090208054600182015460028301546003840154600485015460058601546006870154600788015460088901805498999798969795969495939492936001600160a01b0390921692610c9c90613170565b80601f0160208091040260200160405190810160405280929190818152602001828054610cc890613170565b8015610d155780601f10610cea57610100808354040283529160200191610d15565b820191906000526020600020905b815481529060010190602001808311610cf857829003601f168201915b505050505090806009018054610d2a90613170565b80601f0160208091040260200160405190810160405280929190818152602001828054610d5690613170565b8015610da35780601f10610d7857610100808354040283529160200191610da3565b820191906000526020600020905b815481529060010190602001808311610d8657829003601f168201915b505050600a909301549192505060ff168b565b610dc03383611e3c565b610ddc5760405162461bcd60e51b8152600401610b6f906131fc565b610de68282611eab565b817fa21868eaf3c7f76e3920b694616a9b525dabdac615d6e3da5f3890aac442e05d82604051610e169190612bce565b60405180910390a25050565b610e2a611efb565b600f80546001600160a01b0319166001600160a01b0392909216919091179055565b6001600160a01b038216610e7657604051633250574960e11b815260006004820152602401610b6f565b6000610e83838333611f28565b9050836001600160a01b0316816001600160a01b031614610ed1576040516364283d7b60e01b81526001600160a01b0380861660048301526024820184905282166044820152606401610b6f565b50505050565b60126020526000908152604090208054610a7b90613170565b6000610efb83611226565b8210610f2c5760405163295f44f760e21b81526001600160a01b038416600482015260248101839052604401610b6f565b506001600160a01b03919091166000908152600660209081526040808320938352929052205490565b610f7083838360405180602001604052806000815250611a1a565b505050565b610f7f3383611e3c565b610f9b5760405162461bcd60e51b8152600401610b6f906131fc565b60648160ff161115610fd75760405162461bcd60e51b815260206004820152600560248201526472616e676560d81b6044820152606401610b6f565b600082815260106020908152604091829020805460ff191660ff8516908117909155915191825283917f884019c0c70102251222e94dbdcfe9c7a24a3727f73c568086f9b72d6e32a3549101610e16565b60008281526015602052604081206005810154831061106f5760405162461bcd60e51b815260206004820152600360248201526237b7b160e91b6044820152606401610b6f565b82816004015461107f91906131d3565b949350505050565b600061109260085490565b82106110bb5760405163295f44f760e21b81526000600482015260248101839052604401610b6f565b600882815481106110ce576110ce6131e6565b90600052602060002001549050919050565b60006109ab82611df6565b6110f3611efb565b6001600160a01b03919091166000908152601360205260409020805460ff1916911515919091179055565b3360009081526013602052604090205460ff16806111465750600b546001600160a01b031633145b6111625760405162461bcd60e51b8152600401610b6f9061321e565b60648160ff16111561119e5760405162461bcd60e51b815260206004820152600560248201526472616e676560d81b6044820152606401610b6f565b6000828152601460209081526040808320805460ff191660ff8616179055601590915290206004015480156111e9576000818152601060205260409020805460ff191660ff84161790555b60405160ff8316815283907ff55ac563519213a224ae53aedf3b9b2d260693848a69e724323dbd3ae9cfd3259060200160405180910390a2505050565b60006001600160a01b038216611252576040516322718ad960e21b815260006004820152602401610b6f565b506001600160a01b031660009081526003602052604090205490565b3360009081526013602052604090205460ff16806112965750600b546001600160a01b031633145b610f9b5760405162461bcd60e51b8152600401610b6f9061321e565b6112ba611efb565b6112c46000611f35565b565b6112ce611f87565b3360009081526013602052604090205460ff16806112f65750600b546001600160a01b031633145b6113125760405162461bcd60e51b8152600401610b6f9061321e565b60008381526015602052604081206003810154600282015491929161133791906131c0565b9050808411156113785760405162461bcd60e51b815260206004820152600c60248201526b1a5b9cdd59999a58da595b9d60a21b6044820152606401610b6f565b600f546000906127109061139c90600160a01b90046001600160601b031687613242565b6113a69190613259565b905060006113b482876131c0565b9050858460030160008282546113ca91906131d3565b9091555050600f546040516000916001600160a01b03169084908381818185875af1925050503d806000811461141c576040519150601f19603f3d011682016040523d82523d6000602084013e611421565b606091505b505090508061145d5760405162461bcd60e51b81526020600482015260086024820152673332b2903c3332b960c11b6044820152606401610b6f565b60078501546040516000916001600160a01b03169084908381818185875af1925050503d80600081146114ac576040519150601f19603f3d011682016040523d82523d6000602084013e6114b1565b606091505b50509050806114ed5760405162461bcd60e51b81526020600482015260086024820152673732ba103c3332b960c11b6044820152606401610b6f565b6007860154604080518a81526020810187905290810185905260ff891660608201526001600160a01b03909116908a907f884b08fa7db2ae8fe3f81203cbffbb0c1def041173fc080064c31dd02c00ac659060800160405180910390a360048601546040805160ff8a1681524260208201527fb5e7231814419e5a5e888606251cb3b5325a5339501a127b8f728e49a0d86660910160405180910390a2505050505050610f706001600c55565b6060600180546109c090613170565b60006115b3611efb565b600087116115ec5760405162461bcd60e51b8152600401610b6f9060208082526004908201526373697a6560e01b604082015260600190565b600086116116245760405162461bcd60e51b8152602060048201526005602482015264707269636560d81b6044820152606401610b6f565b600e600081546116339061327b565b91905081905590506000600d54600161164c91906131d3565b9050604051806101600160405280888152602001878152602001600081526020016000815260200182815260200189815260200160008152602001866001600160a01b031681526020018581526020018481526020016001151581525060156000848152602001908152602001600020600082015181600001556020820151816001015560408201518160020155606082015181600301556080820151816004015560a0820151816005015560c0820151816006015560e08201518160070160006101000a8154816001600160a01b0302191690836001600160a01b0316021790555061010082015181600801908161174591906132e4565b50610120820151600982019061175b90826132e4565b506101409190910151600a909101805460ff191691151591909117905560005b8881101561184d576000600d600081546117949061327b565b918290555090506117a53082611fb1565b6117af8187611eab565b60008181526012602052604090206117c786826132e4565b506000818152601660205260409081902085905551819030907fe2406cfd356cfbe4e42d452bde96d27f48c423e5f02b5d78695893308399519d9061180f908a908a906133a4565b60405180910390a3604051849082907f527094531bf06442bcb3d3012a8f7df28ff05336a35fc2b21586161e3ecaedaa90600090a35060010161177b565b50846001600160a01b0316827f980148007406a901ee582d50925dd005b8e1001decf89a97a9b3c6a8c00fed3c838b8b8b896040516118909594939291906133d2565b60405180910390a3509695505050505050565b600080600d600081546118b59061327b565b918290555090506118c68582611fb1565b6118d08185611eab565b60008181526012602052604090206118e884826132e4565b5080856001600160a01b03167fe2406cfd356cfbe4e42d452bde96d27f48c423e5f02b5d78695893308399519d86866040516119259291906133a4565b60405180910390a3949350505050565b610c3c338383611fcb565b61194a3383611e3c565b6119665760405162461bcd60e51b8152600401610b6f906131fc565b60008281526011602090815260408220805460018101825590835291200161198e82826132e4565b50817f9e91988b4e615159c412500179db71d2c90f69abbd10034b51e6b7c343a61ace82604051610e169190612bce565b6119c7611efb565b600091825260156020526040909120600a01805460ff1916911515919091179055565b6119f2611efb565b600f80546001600160601b03909216600160a01b026001600160a01b03909216919091179055565b611a25848484610e4c565b610ed18484848461206a565b60008381526015602052604090206005810154606091908410611a7f5760405162461bcd60e51b81526020600482015260066024820152651bd9999cd95d60d21b6044820152606401610b6f565b600081600501548260040154611a9591906131d3565b90506000858360040154611aa991906131d3565b90506000815b8381108015611abd57508682105b15611b03576000818152600260205260409020546001600160a01b038b8116911603611af15781611aed8161327b565b9250505b80611afb8161327b565b915050611aaf565b508067ffffffffffffffff811115611b1d57611b1d612d4b565b604051908082528060200260200182016040528015611b46578160200160208202803683370190505b5094506000825b8481108015611b5b57508282105b15611bbe576000818152600260205260409020546001600160a01b038c8116911603611bac57808783611b8d8161327b565b945081518110611b9f57611b9f6131e6565b6020026020010181815250505b80611bb68161327b565b915050611b4d565b505050505050949350505050565b60606109ab82612193565b6000611be1611f87565b6000828152601560205260409020600a81015460ff16611c2e5760405162461bcd60e51b8152602060048201526008602482015267696e61637469766560c01b6044820152606401610b6f565b8060050154816006015410611c705760405162461bcd60e51b81526020600482015260086024820152671cdbdb19081bdd5d60c21b6044820152606401610b6f565b80543414611ca85760405162461bcd60e51b8152602060048201526005602482015264707269636560d81b6044820152606401610b6f565b80600601548160040154611cbc91906131d3565b91506001816006016000828254611cd391906131d3565b9250508190555034816002016000828254611cee91906131d3565b92505081905550611d103033846040518060200160405280600081525061229c565b336001600160a01b031682847f5228aeaf7727cc737b9ae986be18ef1ab61f0976f5513ab4e6160454eaf082b334604051611d4d91815260200190565b60405180910390a450611d606001600c55565b919050565b6001600160a01b03918216600090815260056020908152604080832093909416825291909152205460ff1690565b611d9b611efb565b6001600160a01b038116611dc557604051631e4fbdf760e01b815260006004820152602401610b6f565b611dce81611f35565b50565b60006001600160e01b03198216632483248360e11b14806109ab57506109ab826122a7565b6000818152600260205260408120546001600160a01b0316806109ab57604051637e27328960e01b815260048101849052602401610b6f565b610f7083838360016122cc565b600080611e48836110e0565b9050806001600160a01b0316846001600160a01b03161480611e775750600b546001600160a01b038581169116145b80611e9b5750836001600160a01b0316611e9084610afc565b6001600160a01b0316145b8061107f575061107f8185611d65565b6000828152600a60205260409020611ec382826132e4565b506040518281527ff8e1a15aba9398e019f0b49df1a4fde98ee17ae345cb5f6b5e2c27f5033e8ce79060200160405180910390a15050565b600b546001600160a01b031633146112c45760405163118cdaa760e01b8152336004820152602401610b6f565b600061107f8484846123d2565b600b80546001600160a01b038381166001600160a01b0319831681179093556040519116919082907f8be0079c531659141344cd1fd0a4f28419497f9722a3daafe3b4186f6b6457e090600090a35050565b6002600c5403611faa57604051633ee5aeb560e01b815260040160405180910390fd5b6002600c55565b610c3c82826040518060200160405280600081525061249f565b6001600160a01b038216611ffd57604051630b61174360e31b81526001600160a01b0383166004820152602401610b6f565b6001600160a01b03838116600081815260056020908152604080832094871680845294825291829020805460ff191686151590811790915591519182527f17307eab39ab6107e8899845ad3d59bd9653f200f220920489ca2b5937696c31910160405180910390a3505050565b6001600160a01b0383163b15610ed157604051630a85bd0160e11b81526001600160a01b0384169063150b7a02906120ac903390889087908790600401613408565b6020604051808303816000875af19250505080156120e7575060408051601f3d908101601f191682019092526120e491810190613445565b60015b612150573d808015612115576040519150601f19603f3d011682016040523d82523d6000602084013e61211a565b606091505b50805160000361214857604051633250574960e11b81526001600160a01b0385166004820152602401610b6f565b805181602001fd5b6001600160e01b03198116630a85bd0160e11b1461218c57604051633250574960e11b81526001600160a01b0385166004820152602401610b6f565b5050505050565b606061219e82611df6565b506000828152600a6020526040812080546121b890613170565b80601f01602080910402602001604051908101604052809291908181526020018280546121e490613170565b80156122315780601f1061220657610100808354040283529160200191612231565b820191906000526020600020905b81548152906001019060200180831161221457829003601f168201915b50505050509050600061224f60408051602081019091526000815290565b90508051600003612261575092915050565b81511561229357808260405160200161227b929190613462565b60405160208183030381529060405292505050919050565b61107f846124b6565b611a2584848461252b565b60006001600160e01b0319821663780e9d6360e01b14806109ab57506109ab826125db565b80806122e057506001600160a01b03821615155b156123a25760006122f084611df6565b90506001600160a01b0383161580159061231c5750826001600160a01b0316816001600160a01b031614155b801561232f575061232d8184611d65565b155b156123585760405163a9fbf51f60e01b81526001600160a01b0384166004820152602401610b6f565b81156123a05783856001600160a01b0316826001600160a01b03167f8c5be1e5ebec7d5bd14f71427d1e84f3dd0314c0f7b2291e5b200ac8c7c3b92560405160405180910390a45b505b5050600090815260046020526040902080546001600160a01b0319166001600160a01b0392909216919091179055565b6000806123e085858561262b565b90506001600160a01b03811661243d5761243884600880546000838152600960205260408120829055600182018355919091527ff3f7a9fe364faab93b216da50a3214154f22a0a2b415b23a84c8169e8b636ee30155565b612460565b846001600160a01b0316816001600160a01b031614612460576124608185612724565b6001600160a01b03851661247c57612477846127b5565b61107f565b846001600160a01b0316816001600160a01b03161461107f5761107f8585612864565b6124a983836128b4565b610f70600084848461206a565b60606124c182611df6565b5060006124d960408051602081019091526000815290565b905060008151116124f95760405180602001604052806000815250612524565b8061250384612919565b604051602001612514929190613462565b6040516020818303038152906040525b9392505050565b6001600160a01b03821661255557604051633250574960e11b815260006004820152602401610b6f565b600061256383836000611f28565b90506001600160a01b03811661258f57604051637e27328960e01b815260048101839052602401610b6f565b836001600160a01b0316816001600160a01b031614610ed1576040516364283d7b60e01b81526001600160a01b0380861660048301526024820184905282166044820152606401610b6f565b60006001600160e01b031982166380ac58cd60e01b148061260c57506001600160e01b03198216635b5e139f60e01b145b806109ab57506301ffc9a760e01b6001600160e01b03198316146109ab565b6000828152600260205260408120546001600160a01b0390811690831615612658576126588184866129ac565b6001600160a01b03811615612696576126756000856000806122cc565b6001600160a01b038116600090815260036020526040902080546000190190555b6001600160a01b038516156126c5576001600160a01b0385166000908152600360205260409020805460010190555b60008481526002602052604080822080546001600160a01b0319166001600160a01b0389811691821790925591518793918516917fddf252ad1be2c89b69c2b068fc378daa952ba7f163c4a11628f55a4df523b3ef91a4949350505050565b600061272f83611226565b600083815260076020526040902054909150808214612782576001600160a01b03841660009081526006602090815260408083208584528252808320548484528184208190558352600790915290208190555b5060009182526007602090815260408084208490556001600160a01b039094168352600681528383209183525290812055565b6008546000906127c7906001906131c0565b600083815260096020526040812054600880549394509092849081106127ef576127ef6131e6565b906000526020600020015490508060088381548110612810576128106131e6565b600091825260208083209091019290925582815260099091526040808220849055858252812055600880548061284857612848613491565b6001900381819060005260206000200160009055905550505050565b6000600161287184611226565b61287b91906131c0565b6001600160a01b039093166000908152600660209081526040808320868452825280832085905593825260079052919091209190915550565b6001600160a01b0382166128de57604051633250574960e11b815260006004820152602401610b6f565b60006128ec83836000611f28565b90506001600160a01b03811615610f70576040516339e3563760e11b815260006004820152602401610b6f565b6060600061292683612a10565b600101905060008167ffffffffffffffff81111561294657612946612d4b565b6040519080825280601f01601f191660200182016040528015612970576020820181803683370190505b5090508181016020015b600019016f181899199a1a9b1b9c1cb0b131b232b360811b600a86061a8153600a850494508461297a57509392505050565b6129b7838383612ae8565b610f70576001600160a01b0383166129e557604051637e27328960e01b815260048101829052602401610b6f565b60405163177e802f60e01b81526001600160a01b038316600482015260248101829052604401610b6f565b60008072184f03e93ff9f4daa797ed6e38ed64bf6a1f0160401b8310612a4f5772184f03e93ff9f4daa797ed6e38ed64bf6a1f0160401b830492506040015b6d04ee2d6d415b85acef81000000008310612a7b576d04ee2d6d415b85acef8100000000830492506020015b662386f26fc100008310612a9957662386f26fc10000830492506010015b6305f5e1008310612ab1576305f5e100830492506008015b6127108310612ac557612710830492506004015b60648310612ad7576064830492506002015b600a83106109ab5760010192915050565b60006001600160a01b0383161580159061107f5750826001600160a01b0316846001600160a01b03161480612b225750612b228484611d65565b8061107f5750506000908152600460205260409020546001600160a01b03908116911614919050565b6001600160e01b031981168114611dce57600080fd5b600060208284031215612b7357600080fd5b813561252481612b4b565b60005b83811015612b99578181015183820152602001612b81565b50506000910152565b60008151808452612bba816020860160208601612b7e565b601f01601f19169290920160200192915050565b6020815260006125246020830184612ba2565b60008060408385031215612bf457600080fd5b50508035926020909101359150565b600060208284031215612c1557600080fd5b5035919050565b600080600060608486031215612c3157600080fd5b505081359360208301359350604090920135919050565b6020808252825182820181905260009190848201906040850190845b81811015612c8057835183529284019291840191600101612c64565b50909695505050505050565b80356001600160a01b0381168114611d6057600080fd5b60008060408385031215612cb657600080fd5b612cbf83612c8c565b946020939093013593505050565b60006101608d83528c60208401528b60408401528a60608401528960808401528860a08401528760c084015260018060a01b03871660e084015280610100840152612d1a81840187612ba2565b9050828103610120840152612d2f8186612ba2565b9150508215156101408301529c9b505050505050505050505050565b634e487b7160e01b600052604160045260246000fd5b600067ffffffffffffffff80841115612d7c57612d7c612d4b565b604051601f8501601f19908116603f01168101908282118183101715612da457612da4612d4b565b81604052809350858152868686011115612dbd57600080fd5b858560208301376000602087830101525050509392505050565b60008060008060808587031215612ded57600080fd5b612df685612c8c565b9350612e0460208601612c8c565b925060408501359150606085013567ffffffffffffffff811115612e2757600080fd5b8501601f81018713612e3857600080fd5b612e4787823560208401612d61565b91505092959194509250565b600082601f830112612e6457600080fd5b61252483833560208501612d61565b60008060408385031215612e8657600080fd5b82359150602083013567ffffffffffffffff811115612ea457600080fd5b612eb085828601612e53565b9150509250929050565b600060208284031215612ecc57600080fd5b61252482612c8c565b600080600060608486031215612eea57600080fd5b612ef384612c8c565b9250612f0160208501612c8c565b9150604084013590509250925092565b803560ff81168114611d6057600080fd5b60008060408385031215612f3557600080fd5b82359150612f4560208401612f11565b90509250929050565b80358015158114611d6057600080fd5b60008060408385031215612f7157600080fd5b612f7a83612c8c565b9150612f4560208401612f4e565b600080600060608486031215612f9d57600080fd5b8335925060208401359150612fb460408501612f11565b90509250925092565b60008060008060008060c08789031215612fd657600080fd5b863595506020870135945060408701359350612ff460608801612c8c565b9250608087013567ffffffffffffffff8082111561301157600080fd5b61301d8a838b01612e53565b935060a089013591508082111561303357600080fd5b5061304089828a01612e53565b9150509295509295509295565b60008060006060848603121561306257600080fd5b61306b84612c8c565b9250602084013567ffffffffffffffff8082111561308857600080fd5b61309487838801612e53565b935060408601359150808211156130aa57600080fd5b506130b786828701612e53565b9150509250925092565b600080604083850312156130d457600080fd5b82359150612f4560208401612f4e565b6000602082840312156130f657600080fd5b81356001600160601b038116811461252457600080fd5b6000806000806080858703121561312357600080fd5b61312c85612c8c565b966020860135965060408601359560600135945092505050565b6000806040838503121561315957600080fd5b61316283612c8c565b9150612f4560208401612c8c565b600181811c9082168061318457607f821691505b6020821081036131a457634e487b7160e01b600052602260045260246000fd5b50919050565b634e487b7160e01b600052601160045260246000fd5b818103818111156109ab576109ab6131aa565b808201808211156109ab576109ab6131aa565b634e487b7160e01b600052603260045260246000fd5b6020808252600890820152670dcdee840c2eae8d60c31b604082015260600190565b6020808252600a90820152696e6f74206f7261636c6560b01b604082015260600190565b80820281158282048414176109ab576109ab6131aa565b60008261327657634e487b7160e01b600052601260045260246000fd5b500490565b60006001820161328d5761328d6131aa565b5060010190565b601f821115610f70576000816000526020600020601f850160051c810160208610156132bd5750805b601f850160051c820191505b818110156132dc578281556001016132c9565b505050505050565b815167ffffffffffffffff8111156132fe576132fe612d4b565b6133128161330c8454613170565b84613294565b602080601f831160018114613347576000841561332f5750858301515b600019600386901b1c1916600185901b1785556132dc565b600085815260208120601f198616915b8281101561337657888601518255948401946001909101908401613357565b50858210156133945787850151600019600388901b60f8161c191681555b5050505050600190811b01905550565b6040815260006133b76040830185612ba2565b82810360208401526133c98185612ba2565b95945050505050565b85815284602082015283604082015282606082015260a0608082015260006133fd60a0830184612ba2565b979650505050505050565b6001600160a01b038581168252841660208201526040810183905260806060820181905260009061343b90830184612ba2565b9695505050505050565b60006020828403121561345757600080fd5b815161252481612b4b565b60008351613474818460208801612b7e565b835190830190613488818360208801612b7e565b01949350505050565b634e487b7160e01b600052603160045260246000fdfea2646970667358221220a653f20414f24f54c36c0f7066233e3cfb2a79b8d2193486a6943f3c806d82a264736f6c63430008180033",
  "linkReferences": {},
  "deployedLinkReferences": {}
}