{
  "_format": "hh-sol-artifact-1",
  "contractName": "PatriotPledgeNFT",
  "sourceName": "contracts/PatriotPledgeNFT.sol",
  "abi": [
    {
      "inputs": [
        {
          "internalType": "address",
          "name": "_nonprofit",
          "type": "address"
        },
        {
          "internalType": "uint96",
          "name": "_feeBps",
          "type": "uint96"
        }
      ],
      "stateMutability": "nonpayable",
      "type": "constructor"
    },
    {
      "inputs": [],
      "name": "ERC721EnumerableForbiddenBatchMint",
      "type": "error"
    },
    {
      "inputs": [
        {
          "internalType": "address",
          "name": "sender",
          "type": "address"
        },
        {
          "internalType": "uint256",
          "name": "tokenId",
          "type": "uint256"
        },
        {
          "internalType": "address",
          "name": "owner",
          "type": "address"
        }
      ],
      "name": "ERC721IncorrectOwner",
      "type": "error"
    },
    {
      "inputs": [
        {
          "internalType": "address",
          "name": "operator",
          "type": "address"
        },
        {
          "internalType": "uint256",
          "name": "tokenId",
          "type": "uint256"
        }
      ],
      "name": "ERC721InsufficientApproval",
      "type": "error"
    },
    {
      "inputs": [
        {
          "internalType": "address",
          "name": "approver",
          "type": "address"
        }
      ],
      "name": "ERC721InvalidApprover",
      "type": "error"
    },
    {
      "inputs": [
        {
          "internalType": "address",
          "name": "operator",
          "type": "address"
        }
      ],
      "name": "ERC721InvalidOperator",
      "type": "error"
    },
    {
      "inputs": [
        {
          "internalType": "address",
          "name": "owner",
          "type": "address"
        }
      ],
      "name": "ERC721InvalidOwner",
      "type": "error"
    },
    {
      "inputs": [
        {
          "internalType": "address",
          "name": "receiver",
          "type": "address"
        }
      ],
      "name": "ERC721InvalidReceiver",
      "type": "error"
    },
    {
      "inputs": [
        {
          "internalType": "address",
          "name": "sender",
          "type": "address"
        }
      ],
      "name": "ERC721InvalidSender",
      "type": "error"
    },
    {
      "inputs": [
        {
          "internalType": "uint256",
          "name": "tokenId",
          "type": "uint256"
        }
      ],
      "name": "ERC721NonexistentToken",
      "type": "error"
    },
    {
      "inputs": [
        {
          "internalType": "address",
          "name": "owner",
          "type": "address"
        },
        {
          "internalType": "uint256",
          "name": "index",
          "type": "uint256"
        }
      ],
      "name": "ERC721OutOfBoundsIndex",
      "type": "error"
    },
    {
      "inputs": [
        {
          "internalType": "address",
          "name": "owner",
          "type": "address"
        }
      ],
      "name": "OwnableInvalidOwner",
      "type": "error"
    },
    {
      "inputs": [
        {
          "internalType": "address",
          "name": "account",
          "type": "address"
        }
      ],
      "name": "OwnableUnauthorizedAccount",
      "type": "error"
    },
    {
      "inputs": [],
      "name": "ReentrancyGuardReentrantCall",
      "type": "error"
    },
    {
      "anonymous": false,
      "inputs": [
        {
          "indexed": true,
          "internalType": "address",
          "name": "owner",
          "type": "address"
        },
        {
          "indexed": true,
          "internalType": "address",
          "name": "approved",
          "type": "address"
        },
        {
          "indexed": true,
          "internalType": "uint256",
          "name": "tokenId",
          "type": "uint256"
        }
      ],
      "name": "Approval",
      "type": "event"
    },
    {
      "anonymous": false,
      "inputs": [
        {
          "indexed": true,
          "internalType": "address",
          "name": "owner",
          "type": "address"
        },
        {
          "indexed": true,
          "internalType": "address",
          "name": "operator",
          "type": "address"
        },
        {
          "indexed": false,
          "internalType": "bool",
          "name": "approved",
          "type": "bool"
        }
      ],
      "name": "ApprovalForAll",
      "type": "event"
    },
    {
      "anonymous": false,
      "inputs": [
        {
          "indexed": false,
          "internalType": "uint256",
          "name": "_fromTokenId",
          "type": "uint256"
        },
        {
          "indexed": false,
          "internalType": "uint256",
          "name": "_toTokenId",
          "type": "uint256"
        }
      ],
      "name": "BatchMetadataUpdate",
      "type": "event"
    },
    {
      "anonymous": false,
      "inputs": [
        {
          "indexed": true,
          "internalType": "uint256",
          "name": "campaignId",
          "type": "uint256"
        },
        {
          "indexed": false,
          "internalType": "uint256",
          "name": "startTokenId",
          "type": "uint256"
        },
        {
          "indexed": false,
          "internalType": "uint256",
          "name": "size",
          "type": "uint256"
        },
        {
          "indexed": false,
          "internalType": "uint256",
          "name": "priceWei",
          "type": "uint256"
        },
        {
          "indexed": false,
          "internalType": "uint256",
          "name": "goalWei",
          "type": "uint256"
        },
        {
          "indexed": true,
          "internalType": "address",
          "name": "creator",
          "type": "address"
        },
        {
          "indexed": false,
          "internalType": "string",
          "name": "category",
          "type": "string"
        }
      ],
      "name": "CampaignCreated",
      "type": "event"
    },
    {
      "anonymous": false,
      "inputs": [
        {
          "indexed": true,
          "internalType": "uint256",
          "name": "campaignId",
          "type": "uint256"
        },
        {
          "indexed": false,
          "internalType": "uint8",
          "name": "progress",
          "type": "uint8"
        }
      ],
      "name": "CampaignProgressUpdated",
      "type": "event"
    },
    {
      "anonymous": false,
      "inputs": [
        {
          "indexed": true,
          "internalType": "uint256",
          "name": "campaignId",
          "type": "uint256"
        },
        {
          "indexed": true,
          "internalType": "address",
          "name": "to",
          "type": "address"
        },
        {
          "indexed": false,
          "internalType": "uint256",
          "name": "amountWei",
          "type": "uint256"
        },
        {
          "indexed": false,
          "internalType": "uint256",
          "name": "feeWei",
          "type": "uint256"
        },
        {
          "indexed": false,
          "internalType": "uint256",
          "name": "netWei",
          "type": "uint256"
        },
        {
          "indexed": false,
          "internalType": "uint8",
          "name": "milestone",
          "type": "uint8"
        }
      ],
      "name": "FundsReleased",
      "type": "event"
    },
    {
      "anonymous": false,
      "inputs": [
        {
          "indexed": true,
          "internalType": "uint256",
          "name": "tokenId",
          "type": "uint256"
        },
        {
          "indexed": false,
          "internalType": "string",
          "name": "uri",
          "type": "string"
        }
      ],
      "name": "ImageAdded",
      "type": "event"
    },
    {
      "anonymous": false,
      "inputs": [
        {
          "indexed": false,
          "internalType": "uint256",
          "name": "_tokenId",
          "type": "uint256"
        }
      ],
      "name": "MetadataUpdate",
      "type": "event"
    },
    {
      "anonymous": false,
      "inputs": [
        {
          "indexed": true,
          "internalType": "uint256",
          "name": "tokenId",
          "type": "uint256"
        },
        {
          "indexed": false,
          "internalType": "uint8",
          "name": "milestone",
          "type": "uint8"
        },
        {
          "indexed": false,
          "internalType": "uint256",
          "name": "timestamp",
          "type": "uint256"
        }
      ],
      "name": "MilestoneReleased",
      "type": "event"
    },
    {
      "anonymous": false,
      "inputs": [
        {
          "indexed": true,
          "internalType": "address",
          "name": "creator",
          "type": "address"
        },
        {
          "indexed": true,
          "internalType": "uint256",
          "name": "tokenId",
          "type": "uint256"
        },
        {
          "indexed": false,
          "internalType": "string",
          "name": "uri",
          "type": "string"
        },
        {
          "indexed": false,
          "internalType": "string",
          "name": "category",
          "type": "string"
        }
      ],
      "name": "Minted",
      "type": "event"
    },
    {
      "anonymous": false,
      "inputs": [
        {
          "indexed": true,
          "internalType": "uint256",
          "name": "campaignId",
          "type": "uint256"
        },
        {
          "indexed": true,
          "internalType": "uint256",
          "name": "tokenId",
          "type": "uint256"
        },
        {
          "indexed": true,
          "internalType": "address",
          "name": "buyer",
          "type": "address"
        },
        {
          "indexed": false,
          "internalType": "uint256",
          "name": "priceWei",
          "type": "uint256"
        }
      ],
      "name": "NFTPurchased",
      "type": "event"
    },
    {
      "anonymous": false,
      "inputs": [
        {
          "indexed": true,
          "internalType": "address",
          "name": "previousOwner",
          "type": "address"
        },
        {
          "indexed": true,
          "internalType": "address",
          "name": "newOwner",
          "type": "address"
        }
      ],
      "name": "OwnershipTransferred",
      "type": "event"
    },
    {
      "anonymous": false,
      "inputs": [
        {
          "indexed": true,
          "internalType": "uint256",
          "name": "tokenId",
          "type": "uint256"
        },
        {
          "indexed": false,
          "internalType": "uint8",
          "name": "progress",
          "type": "uint8"
        }
      ],
      "name": "ProgressUpdated",
      "type": "event"
    },
    {
      "anonymous": false,
      "inputs": [
        {
          "indexed": true,
          "internalType": "uint256",
          "name": "tokenId",
          "type": "uint256"
        },
        {
          "indexed": true,
          "internalType": "uint256",
          "name": "campaignId",
          "type": "uint256"
        }
      ],
      "name": "TokenLinkedToCampaign",
      "type": "event"
    },
    {
      "anonymous": false,
      "inputs": [
        {
          "indexed": true,
          "internalType": "address",
          "name": "from",
          "type": "address"
        },
        {
          "indexed": true,
          "internalType": "address",
          "name": "to",
          "type": "address"
        },
        {
          "indexed": true,
          "internalType": "uint256",
          "name": "tokenId",
          "type": "uint256"
        }
      ],
      "name": "Transfer",
      "type": "event"
    },
    {
      "anonymous": false,
      "inputs": [
        {
          "indexed": true,
          "internalType": "uint256",
          "name": "tokenId",
          "type": "uint256"
        },
        {
          "indexed": false,
          "internalType": "string",
          "name": "uri",
          "type": "string"
        }
      ],
      "name": "UriUpdated",
      "type": "event"
    },
    {
      "inputs": [
        {
          "internalType": "uint256",
          "name": "tokenId",
          "type": "uint256"
        },
        {
          "internalType": "string",
          "name": "uri",
          "type": "string"
        }
      ],
      "name": "addImage",
      "outputs": [],
      "stateMutability": "nonpayable",
      "type": "function"
    },
    {
      "inputs": [
        {
          "internalType": "address",
          "name": "to",
          "type": "address"
        },
        {
          "internalType": "uint256",
          "name": "tokenId",
          "type": "uint256"
        }
      ],
      "name": "approve",
      "outputs": [],
      "stateMutability": "nonpayable",
      "type": "function"
    },
    {
      "inputs": [
        {
          "internalType": "address",
          "name": "owner",
          "type": "address"
        }
      ],
      "name": "balanceOf",
      "outputs": [
        {
          "internalType": "uint256",
          "name": "",
          "type": "uint256"
        }
      ],
      "stateMutability": "view",
      "type": "function"
    },
    {
      "inputs": [
        {
          "internalType": "uint256",
          "name": "campaignId",
          "type": "uint256"
        }
      ],
      "name": "buy",
      "outputs": [
        {
          "internalType": "uint256",
          "name": "tokenId",
          "type": "uint256"
        }
      ],
      "stateMutability": "payable",
      "type": "function"
    },
    {
      "inputs": [
        {
          "internalType": "uint256",
          "name": "",
          "type": "uint256"
        }
      ],
      "name": "campaignProgress",
      "outputs": [
        {
          "internalType": "uint8",
          "name": "",
          "type": "uint8"
        }
      ],
      "stateMutability": "view",
      "type": "function"
    },
    {
      "inputs": [
        {
          "internalType": "uint256",
          "name": "",
          "type": "uint256"
        }
      ],
      "name": "campaigns",
      "outputs": [
        {
          "internalType": "uint256",
          "name": "priceWei",
          "type": "uint256"
        },
        {
          "internalType": "uint256",
          "name": "goalWei",
          "type": "uint256"
        },
        {
          "internalType": "uint256",
          "name": "raisedWei",
          "type": "uint256"
        },
        {
          "internalType": "uint256",
          "name": "releasedWei",
          "type": "uint256"
        },
        {
          "internalType": "uint256",
          "name": "startTokenId",
          "type": "uint256"
        },
        {
          "internalType": "uint256",
          "name": "size",
          "type": "uint256"
        },
        {
          "internalType": "uint256",
          "name": "sold",
          "type": "uint256"
        },
        {
          "internalType": "address",
          "name": "creator",
          "type": "address"
        },
        {
          "internalType": "string",
          "name": "baseURI",
          "type": "string"
        },
        {
          "internalType": "string",
          "name": "cat",
          "type": "string"
        },
        {
          "internalType": "bool",
          "name": "active",
          "type": "bool"
        }
      ],
      "stateMutability": "view",
      "type": "function"
    },
    {
      "inputs": [
        {
          "internalType": "uint256",
          "name": "",
          "type": "uint256"
        }
      ],
      "name": "category",
      "outputs": [
        {
          "internalType": "string",
          "name": "",
          "type": "string"
        }
      ],
      "stateMutability": "view",
      "type": "function"
    },
    {
      "inputs": [],
      "name": "feeBps",
      "outputs": [
        {
          "internalType": "uint96",
          "name": "",
          "type": "uint96"
        }
      ],
      "stateMutability": "view",
      "type": "function"
    },
    {
      "inputs": [
        {
          "internalType": "uint256",
          "name": "tokenId",
          "type": "uint256"
        }
      ],
      "name": "getApproved",
      "outputs": [
        {
          "internalType": "address",
          "name": "",
          "type": "address"
        }
      ],
      "stateMutability": "view",
      "type": "function"
    },
    {
      "inputs": [
        {
          "internalType": "uint256",
          "name": "campaignId",
          "type": "uint256"
        }
      ],
      "name": "getCampaignProgress",
      "outputs": [
        {
          "internalType": "uint8",
          "name": "",
          "type": "uint8"
        }
      ],
      "stateMutability": "view",
      "type": "function"
    },
    {
      "inputs": [
        {
          "internalType": "uint256",
          "name": "",
          "type": "uint256"
        },
        {
          "internalType": "uint256",
          "name": "",
          "type": "uint256"
        }
      ],
      "name": "images",
      "outputs": [
        {
          "internalType": "string",
          "name": "",
          "type": "string"
        }
      ],
      "stateMutability": "view",
      "type": "function"
    },
    {
      "inputs": [
        {
          "internalType": "address",
          "name": "owner",
          "type": "address"
        },
        {
          "internalType": "address",
          "name": "operator",
          "type": "address"
        }
      ],
      "name": "isApprovedForAll",
      "outputs": [
        {
          "internalType": "bool",
          "name": "",
          "type": "bool"
        }
      ],
      "stateMutability": "view",
      "type": "function"
    },
    {
      "inputs": [
        {
          "internalType": "address",
          "name": "to",
          "type": "address"
        },
        {
          "internalType": "string",
          "name": "uri",
          "type": "string"
        },
        {
          "internalType": "string",
          "name": "cat",
          "type": "string"
        }
      ],
      "name": "mint",
      "outputs": [
        {
          "internalType": "uint256",
          "name": "",
          "type": "uint256"
        }
      ],
      "stateMutability": "nonpayable",
      "type": "function"
    },
    {
      "inputs": [
        {
          "internalType": "uint256",
          "name": "size",
          "type": "uint256"
        },
        {
          "internalType": "uint256",
          "name": "priceWei",
          "type": "uint256"
        },
        {
          "internalType": "uint256",
          "name": "goalWei",
          "type": "uint256"
        },
        {
          "internalType": "address",
          "name": "creator",
          "type": "address"
        },
        {
          "internalType": "string",
          "name": "baseURI",
          "type": "string"
        },
        {
          "internalType": "string",
          "name": "cat",
          "type": "string"
        }
      ],
      "name": "mintSeries",
      "outputs": [
        {
          "internalType": "uint256",
          "name": "campaignId",
          "type": "uint256"
        }
      ],
      "stateMutability": "nonpayable",
      "type": "function"
    },
    {
      "inputs": [],
      "name": "name",
      "outputs": [
        {
          "internalType": "string",
          "name": "",
          "type": "string"
        }
      ],
      "stateMutability": "view",
      "type": "function"
    },
    {
      "inputs": [],
      "name": "nextCampaignId",
      "outputs": [
        {
          "internalType": "uint256",
          "name": "",
          "type": "uint256"
        }
      ],
      "stateMutability": "view",
      "type": "function"
    },
    {
      "inputs": [],
      "name": "nextTokenId",
      "outputs": [
        {
          "internalType": "uint256",
          "name": "",
          "type": "uint256"
        }
      ],
      "stateMutability": "view",
      "type": "function"
    },
    {
      "inputs": [],
      "name": "nonprofit",
      "outputs": [
        {
          "internalType": "address",
          "name": "",
          "type": "address"
        }
      ],
      "stateMutability": "view",
      "type": "function"
    },
    {
      "inputs": [
        {
          "internalType": "address",
          "name": "",
          "type": "address"
        },
        {
          "internalType": "address",
          "name": "",
          "type": "address"
        },
        {
          "internalType": "uint256",
          "name": "",
          "type": "uint256"
        },
        {
          "internalType": "bytes",
          "name": "",
          "type": "bytes"
        }
      ],
      "name": "onERC721Received",
      "outputs": [
        {
          "internalType": "bytes4",
          "name": "",
          "type": "bytes4"
        }
      ],
      "stateMutability": "nonpayable",
      "type": "function"
    },
    {
      "inputs": [
        {
          "internalType": "address",
          "name": "",
          "type": "address"
        }
      ],
      "name": "oracle",
      "outputs": [
        {
          "internalType": "bool",
          "name": "",
          "type": "bool"
        }
      ],
      "stateMutability": "view",
      "type": "function"
    },
    {
      "inputs": [
        {
          "internalType": "uint256",
          "name": "tokenId",
          "type": "uint256"
        },
        {
          "internalType": "uint8",
          "name": "p",
          "type": "uint8"
        }
      ],
      "name": "oracleSetProgress",
      "outputs": [],
      "stateMutability": "nonpayable",
      "type": "function"
    },
    {
      "inputs": [],
      "name": "owner",
      "outputs": [
        {
          "internalType": "address",
          "name": "",
          "type": "address"
        }
      ],
      "stateMutability": "view",
      "type": "function"
    },
    {
      "inputs": [
        {
          "internalType": "uint256",
          "name": "tokenId",
          "type": "uint256"
        }
      ],
      "name": "ownerOf",
      "outputs": [
        {
          "internalType": "address",
          "name": "",
          "type": "address"
        }
      ],
      "stateMutability": "view",
      "type": "function"
    },
    {
      "inputs": [
        {
          "internalType": "uint256",
          "name": "",
          "type": "uint256"
        }
      ],
      "name": "progress",
      "outputs": [
        {
          "internalType": "uint8",
          "name": "",
          "type": "uint8"
        }
      ],
      "stateMutability": "view",
      "type": "function"
    },
    {
      "inputs": [
        {
          "internalType": "uint256",
          "name": "campaignId",
          "type": "uint256"
        },
        {
          "internalType": "uint256",
          "name": "amountWei",
          "type": "uint256"
        },
        {
          "internalType": "uint8",
          "name": "milestone",
          "type": "uint8"
        }
      ],
      "name": "releaseFunds",
      "outputs": [],
      "stateMutability": "nonpayable",
      "type": "function"
    },
    {
      "inputs": [],
      "name": "renounceOwnership",
      "outputs": [],
      "stateMutability": "nonpayable",
      "type": "function"
    },
    {
      "inputs": [
        {
          "internalType": "address",
          "name": "from",
          "type": "address"
        },
        {
          "internalType": "address",
          "name": "to",
          "type": "address"
        },
        {
          "internalType": "uint256",
          "name": "tokenId",
          "type": "uint256"
        }
      ],
      "name": "safeTransferFrom",
      "outputs": [],
      "stateMutability": "nonpayable",
      "type": "function"
    },
    {
      "inputs": [
        {
          "internalType": "address",
          "name": "from",
          "type": "address"
        },
        {
          "internalType": "address",
          "name": "to",
          "type": "address"
        },
        {
          "internalType": "uint256",
          "name": "tokenId",
          "type": "uint256"
        },
        {
          "internalType": "bytes",
          "name": "data",
          "type": "bytes"
        }
      ],
      "name": "safeTransferFrom",
      "outputs": [],
      "stateMutability": "nonpayable",
      "type": "function"
    },
    {
      "inputs": [
        {
          "internalType": "address",
          "name": "operator",
          "type": "address"
        },
        {
          "internalType": "bool",
          "name": "approved",
          "type": "bool"
        }
      ],
      "name": "setApprovalForAll",
      "outputs": [],
      "stateMutability": "nonpayable",
      "type": "function"
    },
    {
      "inputs": [
        {
          "internalType": "uint256",
          "name": "campaignId",
          "type": "uint256"
        },
        {
          "internalType": "bool",
          "name": "active",
          "type": "bool"
        }
      ],
      "name": "setCampaignActive",
      "outputs": [],
      "stateMutability": "nonpayable",
      "type": "function"
    },
    {
      "inputs": [
        {
          "internalType": "uint96",
          "name": "bps",
          "type": "uint96"
        }
      ],
      "name": "setFeeBps",
      "outputs": [],
      "stateMutability": "nonpayable",
      "type": "function"
    },
    {
      "inputs": [
        {
          "internalType": "address",
          "name": "a",
          "type": "address"
        }
      ],
      "name": "setNonprofit",
      "outputs": [],
      "stateMutability": "nonpayable",
      "type": "function"
    },
    {
      "inputs": [
        {
          "internalType": "address",
          "name": "a",
          "type": "address"
        },
        {
          "internalType": "bool",
          "name": "v",
          "type": "bool"
        }
      ],
      "name": "setOracle",
      "outputs": [],
      "stateMutability": "nonpayable",
      "type": "function"
    },
    {
      "inputs": [
        {
          "internalType": "uint256",
          "name": "tokenId",
          "type": "uint256"
        },
        {
          "internalType": "uint8",
          "name": "p",
          "type": "uint8"
        }
      ],
      "name": "setProgress",
      "outputs": [],
      "stateMutability": "nonpayable",
      "type": "function"
    },
    {
      "inputs": [
        {
          "internalType": "bytes4",
          "name": "interfaceId",
          "type": "bytes4"
        }
      ],
      "name": "supportsInterface",
      "outputs": [
        {
          "internalType": "bool",
          "name": "",
          "type": "bool"
        }
      ],
      "stateMutability": "view",
      "type": "function"
    },
    {
      "inputs": [],
      "name": "symbol",
      "outputs": [
        {
          "internalType": "string",
          "name": "",
          "type": "string"
        }
      ],
      "stateMutability": "view",
      "type": "function"
    },
    {
      "inputs": [
        {
          "internalType": "uint256",
          "name": "index",
          "type": "uint256"
        }
      ],
      "name": "tokenByIndex",
      "outputs": [
        {
          "internalType": "uint256",
          "name": "",
          "type": "uint256"
        }
      ],
      "stateMutability": "view",
      "type": "function"
    },
    {
      "inputs": [
        {
          "internalType": "uint256",
          "name": "",
          "type": "uint256"
        }
      ],
      "name": "tokenCampaign",
      "outputs": [
        {
          "internalType": "uint256",
          "name": "",
          "type": "uint256"
        }
      ],
      "stateMutability": "view",
      "type": "function"
    },
    {
      "inputs": [
        {
          "internalType": "uint256",
          "name": "campaignId",
          "type": "uint256"
        },
        {
          "internalType": "uint256",
          "name": "index",
          "type": "uint256"
        }
      ],
      "name": "tokenIdInCampaignByIndex",
      "outputs": [
        {
          "internalType": "uint256",
          "name": "",
          "type": "uint256"
        }
      ],
      "stateMutability": "view",
      "type": "function"
    },
    {
      "inputs": [
        {
          "internalType": "address",
          "name": "owner",
          "type": "address"
        },
        {
          "internalType": "uint256",
          "name": "index",
          "type": "uint256"
        }
      ],
      "name": "tokenOfOwnerByIndex",
      "outputs": [
        {
          "internalType": "uint256",
          "name": "",
          "type": "uint256"
        }
      ],
      "stateMutability": "view",
      "type": "function"
    },
    {
      "inputs": [
        {
          "internalType": "uint256",
          "name": "tokenId",
          "type": "uint256"
        }
      ],
      "name": "tokenURI",
      "outputs": [
        {
          "internalType": "string",
          "name": "",
          "type": "string"
        }
      ],
      "stateMutability": "view",
      "type": "function"
    },
    {
      "inputs": [
        {
          "internalType": "uint256",
          "name": "campaignId",
          "type": "uint256"
        },
        {
          "internalType": "uint256",
          "name": "offset",
          "type": "uint256"
        },
        {
          "internalType": "uint256",
          "name": "limit",
          "type": "uint256"
        }
      ],
      "name": "tokensOfCampaign",
      "outputs": [
        {
          "internalType": "uint256[]",
          "name": "ids",
          "type": "uint256[]"
        }
      ],
      "stateMutability": "view",
      "type": "function"
    },
    {
      "inputs": [
        {
          "internalType": "address",
          "name": "owner_",
          "type": "address"
        },
        {
          "internalType": "uint256",
          "name": "campaignId",
          "type": "uint256"
        },
        {
          "internalType": "uint256",
          "name": "offset",
          "type": "uint256"
        },
        {
          "internalType": "uint256",
          "name": "limit",
          "type": "uint256"
        }
      ],
      "name": "tokensOfOwnerInCampaign",
      "outputs": [
        {
          "internalType": "uint256[]",
          "name": "ids",
          "type": "uint256[]"
        }
      ],
      "stateMutability": "view",
      "type": "function"
    },
    {
      "inputs": [],
      "name": "totalSupply",
      "outputs": [
        {
          "internalType": "uint256",
          "name": "",
          "type": "uint256"
        }
      ],
      "stateMutability": "view",
      "type": "function"
    },
    {
      "inputs": [
        {
          "internalType": "uint256",
          "name": "campaignId",
          "type": "uint256"
        }
      ],
      "name": "totalSupplyInCampaign",
      "outputs": [
        {
          "internalType": "uint256",
          "name": "",
          "type": "uint256"
        }
      ],
      "stateMutability": "view",
      "type": "function"
    },
    {
      "inputs": [
        {
          "internalType": "address",
          "name": "from",
          "type": "address"
        },
        {
          "internalType": "address",
          "name": "to",
          "type": "address"
        },
        {
          "internalType": "uint256",
          "name": "tokenId",
          "type": "uint256"
        }
      ],
      "name": "transferFrom",
      "outputs": [],
      "stateMutability": "nonpayable",
      "type": "function"
    },
    {
      "inputs": [
        {
          "internalType": "address",
          "name": "newOwner",
          "type": "address"
        }
      ],
      "name": "transferOwnership",
      "outputs": [],
      "stateMutability": "nonpayable",
      "type": "function"
    },
    {
      "inputs": [
        {
          "internalType": "uint256",
          "name": "campaignId",
          "type": "uint256"
        },
        {
          "internalType": "uint8",
          "name": "p",
          "type": "uint8"
        }
      ],
      "name": "updateCampaignProgress",
      "outputs": [],
      "stateMutability": "nonpayable",
      "type": "function"
    },
    {
      "inputs": [
        {
          "internalType": "uint256",
          "name": "tokenId",
          "type": "uint256"
        },
        {
          "internalType": "string",
          "name": "uri",
          "type": "string"
        }
      ],
      "name": "updateTokenURI",
      "outputs": [],
      "stateMutability": "nonpayable",
      "type": "function"
    }
  ],
  "bytecode": "0x608034620003de576001600160401b0390601f19601f62002f1d3881900382810184168501919086831186841017620003c8578086926040948552833981010312620003de5782516001600160a01b03948582169491859003620003de57602091820151926001600160601b0384168403620003de576200007f620003e3565b92600d84526c50617472696f74506c6564676560981b81850152620000a3620003e3565b90600782526650504c4544474560c81b81830152845196848811620003c8576000978854966001978881811c91168015620003bd575b85821014620003a95790818784931162000356575b508490878311600114620002f5578b92620002e9575b5050600019600383901b1c191690871b1788555b8251948511620002d55785548681811c91168015620002ca575b83821014620002b6579081858796959493116200025d575b5081938511600114620001f85750508692620001ec575b5050600019600383901b1c191690821b1781555b3315620001d357600b5460018060a01b0319933385831617600b557f8be0079c531659141344cd1fd0a4f28419497f9722a3daafe3b4186f6b6457e0604051973393169180a3600c5560a01b1617600f55612b199081620004048239f35b604051631e4fbdf760e01b815260048101849052602490fd5b01519050388062000161565b869593929193168589528389209389905b82821062000243575050841162000229575b505050811b01815562000175565b015160001960f88460031b161c191690553880806200021b565b848401518655889790950194938401939081019062000209565b9091929394508689528289208580880160051c820192858910620002ac575b9188978a9297969594930160051c01915b8281106200029d5750506200014a565b8b81558897508991016200028d565b925081926200027c565b634e487b7160e01b89526022600452602489fd5b90607f169062000132565b634e487b7160e01b88526041600452602488fd5b01519050388062000104565b90848a9416918c8052868d20928d5b888282106200033f575050841162000325575b505050811b01885562000118565b015160001960f88460031b161c1916905538808062000317565b8385015186558d9790950194938401930162000304565b9091508a8052848b208780850160051c8201928786106200039f575b918b91869594930160051c01915b82811062000390575050620000ee565b8d81558594508b910162000380565b9250819262000372565b634e487b7160e01b8b52602260045260248bfd5b90607f1690620000d9565b634e487b7160e01b600052604160045260246000fd5b600080fd5b60408051919082016001600160401b03811183821017620003c85760405256fe608080604052600436101561001357600080fd5b600090813560e01c90816301ffc9a714611a0e5750806306fdde03146119635780630722fb621461190e578063081812fc146118ef5780630845fff51461184e578063095ea7b31461176b578063141961bc14611697578063150b7a021461167357806318160ddd1461165557806318e97fd1146116095780631baf5146146115c957806323b872dd146115b157806324a9d85314611590578063253eca1f146115655780632f745c59146114e057806342842e0e146114b25780634ab7b7b1146114635780634b1cef85146114015780634f6ccce7146113ab5780636352211e1461137a5780636536084314611328578063659706e61461125857806369826a941461122b57806370a08231146111ff578063710df4fc1461115f578063715018a61461110257806375794a3c146110e45780637903a756146110c65780637b276ae914610ea25780638ab9b92a146108725780638da5cb5b14610e7957806395d89b4114610d95578063966f77d414610a77578063990711901461099f578063a22cb465146108f6578063a3056bf9146108c9578063a7801db61461089f578063a944af2d14610872578063ab2258a2146107b1578063ad11728b1461076a578063b7f1564e14610713578063b88d4fde146106ea578063be51fa1a146105b8578063bfe30d5e1461058f578063c87b56dd14610533578063d96a094a14610362578063e985e9c514610307578063eb37d349146102c85763f2fde38b1461023c57600080fd5b346102c55760203660031901126102c557610255611cde565b61025d61259a565b6001600160a01b039081169081156102ac57600b54826001600160601b0360a01b821617600b55167f8be0079c531659141344cd1fd0a4f28419497f9722a3daafe3b4186f6b6457e08380a380f35b604051631e4fbdf760e01b815260048101849052602490fd5b80fd5b50346102c55760203660031901126102c55760209060ff906040906001600160a01b036102f3611cde565b168152601384522054166040519015158152f35b50346102c55760403660031901126102c557610321611cde565b6001600160a01b03602435818116929083900361035e579260ff926040926020951682526005855282822090825284522054166040519015158152f35b8380fd5b50602090816003193601126102c55760043561037c6125c6565b80825260158352604082209160ff600a8401541615610503576006830192835460058201548110156104d3576103b482543414612322565b6103c2816004840154611f14565b94600182018092116104bf575560020180546103df903490611f14565b9055604051906103ee82611ba9565b80825233156104a757506104028333612862565b6001600160a01b0381168061042a57604051637e27328960e01b815260048101869052602490fd5b3003610477575061043d90833330612761565b81604051913483527f5228aeaf7727cc737b9ae986be18ef1ab61f0976f5513ab4e6160454eaf082b3853394a46001600c55604051908152f35b6040516364283d7b60e01b8152306004820152602481018590526001600160a01b03919091166044820152606490fd5b60249060405190633250574960e11b82526004820152fd5b634e487b7160e01b84526011600452602484fd5b60405162461bcd60e51b81526004810187905260086024820152671cdbdb19081bdd5d60c21b6044820152606490fd5b60405162461bcd60e51b8152600481018590526008602482015267696e61637469766560c01b6044820152606490fd5b50346102c55760203660031901126102c55761058b906004356105558161249d565b508152600a60205261056960408220611bfd565b9060405161057681611ba9565b52604051918291602083526020830190611aaf565b0390f35b50346102c557806003193601126102c557600f546040516001600160a01b039091168152602090f35b50346102c55760803660031901126102c5576105d2611cde565b906044356064359160243581526020936015602052610614604083209361060e6004600587015496610605888510611e72565b01549586611f14565b94611f14565b91926001600160a01b0391821692849190805b828110806106e1575b1561066d5780845260028952858560408620541614610658575b61065390612356565b610627565b9561066561065391612356565b96905061064a565b50949690955061067c87611ee2565b9682955b878110806106d8575b156106ca57806106ab918552600284528686604087205416146106b057612356565b610680565b806106c46106bd8a612356565b998c611f21565b52612356565b6040518061058b8b82611ca2565b50818710610689565b50878710610630565b50346102c5576107106106fc36611d47565b9261070b828483959495611f6c565b612761565b80f35b50346102c55760203660031901126102c5576004356001600160601b03811681036107665761074061259a565b600f80546001600160a01b031660a09290921b6001600160a01b03191691909117905580f35b5080fd5b50346102c55760403660031901126102c557610710610787611e3e565b61078f61259a565b60043583526015602052600a60408420019060ff801983541691151516179055565b50346102c5576107c036611dc9565b6107d26107cd83336124d8565b611f35565b818352601160205260408320805490600160401b82101561085e57906107fd91600182018155611b57565b61084a57816108307f9e91988b4e615159c412500179db71d2c90f69abbd10034b51e6b7c343a61ace9361084493612365565b604051918291602083526020830190611aaf565b0390a280f35b634e487b7160e01b84526004849052602484fd5b634e487b7160e01b85526041600452602485fd5b50346102c55760203660031901126102c55760ff6040602092600435815260148452205416604051908152f35b50346102c55760203660031901126102c55760406020916004358152601683522054604051908152f35b50346102c55760203660031901126102c55760056040602092600435815260158452200154604051908152f35b50346102c55760403660031901126102c557610910611cde565b610918611e3e565b6001600160a01b039091169081156109865733835260056020526040832082845260205261095581604085209060ff801983541691151516179055565b60405190151581527f17307eab39ab6107e8899845ad3d59bd9653f200f220920489ca2b5937696c3160203392a380f35b604051630b61174360e31b815260048101839052602490fd5b50346102c55760603660031901126102c5576109b9611cde565b67ffffffffffffffff9060243582811161035e576109db903690600401611dae565b9160443590811161035e57917fe2406cfd356cfbe4e42d452bde96d27f48c423e5f02b5d78695893308399519d60209492610a1c6040953690600401611dae565b90610a5482610a2c600d54612356565b97889788600d55610a3d89866125e9565b610a47888a612557565b88815260128b5220612365565b610a6c60405192839260018060a01b03169583612478565b0390a3604051908152f35b50346102c55760c03660031901126102c557606435906001600160a01b03821682036102c55767ffffffffffffffff91608435838111610d9157610abf903690600401611dae565b9060a43584811161035e57610ad8903690600401611dae565b91610ae161259a565b60043515610d6657610af66024351515612322565b610b01600e54612356565b9384600e55600d5495600187018711610d525760405190610160820190811182821017610d3e576040526024358152858560208301604435815260408401858152606085018681526080860160018d01815260a0870190600435825260c088019289845260e0890194600160a01b600190038d1686526101008a01968c88526101208b019889526101408b019960018b528c52601560205260408c209a518b555160018b01555160028a01555160038901555160048801555160058701555160068601556007850190600160a01b600190039051166001600160601b0360a01b825416179055516008840190610bf691612365565b51610c049060098401612365565b51151590600a0190610c21919060ff801983541691151516179055565b805b6004358110610c94575050507f980148007406a901ee582d50925dd005b8e1001decf89a97a9b3c6a8c00fed3c6001602095610a6c8694604051938493018352600435898401526024356040840152604435606084015260a0608084015260018060a01b03169560a0830190611aaf565b60019086610ca3600d54612356565b80600d55610cb181306125e9565b610cbb8682612557565b8085526012602052610cd08860408720612365565b8085526016602052816040862055806040517fe2406cfd356cfbe4e42d452bde96d27f48c423e5f02b5d78695893308399519d309180610d118d8c83612478565b0390a37f527094531bf06442bcb3d3012a8f7df28ff05336a35fc2b21586161e3ecaedaa8580a301610c23565b634e487b7160e01b83526041600452602483fd5b634e487b7160e01b82526011600452602482fd5b606460405162461bcd60e51b815260206004820152600460248201526373697a6560e01b6044820152fd5b8280fd5b50346102c557806003193601126102c55760405190808260019260015493610dbc85611b6f565b9384845260209586600182169182600014610e57575050600114610dfd575b5050610de992500383611bdb565b61058b604051928284938452830190611aaf565b90859250600182527fb10e2d527612073b26eecdfd717e6a320cf44b4afac2b0732d9fcbe2b7fa0cf65b858310610e3f575050610de993508201013880610ddb565b80548389018501528794508693909201918101610e27565b9250935050610de994915060ff191682840152151560051b8201013880610ddb565b50346102c557806003193601126102c557600b546040516001600160a01b039091168152602090f35b50346102c55760603660031901126102c557600435602435906044359060ff821680920361035e57610ed26125c6565b3384526020926013845260ff60408620541680156110b2575b610ef490612280565b8185526015845260408520916002830154916003840192610f1784548092611ea7565b821161107e57600f5460a01c80830290838204148315171561106a57612710900493610f4d83610f478782611ea7565b93611f14565b905560018060a01b03888080808885600f54165af1610f6a6122f2565b501561103a57600786018980808086868654165af1610f876122f2565b501561100a576080604097947fb5e7231814419e5a5e888606251cb3b5325a5339501a127b8f728e49a0d86660999794600497947f884b08fa7db2ae8fe3f81203cbffbb0c1def041173fc080064c31dd02c00ac65945416958a519283528c83015289820152876060820152a301549382519182524290820152a26001600c5580f35b60405162461bcd60e51b8152600481018a905260086024820152673732ba103c3332b960c11b6044820152606490fd5b60405162461bcd60e51b81526004810189905260086024820152673332b2903c3332b960c11b6044820152606490fd5b634e487b7160e01b89526011600452602489fd5b60405162461bcd60e51b815260048101889052600c60248201526b1a5b9cdd59999a58da595b9d60a21b6044820152606490fd5b50600b546001600160a01b03163314610eeb565b50346102c557806003193601126102c5576020600e54604051908152f35b50346102c557806003193601126102c5576020600d54604051908152f35b50346102c557806003193601126102c55761111b61259a565b600b80546001600160a01b0319811690915581906001600160a01b03167f8be0079c531659141344cd1fd0a4f28419497f9722a3daafe3b4186f6b6457e08280a380f35b50346102c55760403660031901126102c5576004357f884019c0c70102251222e94dbdcfe9c7a24a3727f73c568086f9b72d6e32a354602060ff6111a1611e2e565b338652601383528160408720541680156111eb575b6111bf90612280565b166111cd606482111561224c565b838552601082526040808620805460ff19168317905551908152a280f35b50600b546001600160a01b031633146111b6565b50346102c55760203660031901126102c557602061122361121e611cde565b6122b9565b604051908152f35b50346102c55760203660031901126102c55760ff6040602092600435815260108452205416604051908152f35b50346102c55760403660031901126102c5576004357ff55ac563519213a224ae53aedf3b9b2d260693848a69e724323dbd3ae9cfd325602060ff61129a611e2e565b33865260138352816040872054168015611314575b6112b890612280565b166112c6606482111561224c565b838552601482526040852060ff19908282825416179055601583526004604087200154806112fb575b5050604051908152a280f35b86526010835281604087209182541617905538806112ef565b50600b546001600160a01b031633146112af565b50346102c55760403660031901126102c557610710611345611cde565b61134d611e3e565b9061135661259a565b60018060a01b031683526013602052604083209060ff801983541691151516179055565b50346102c55760203660031901126102c557602061139960043561249d565b6040516001600160a01b039091168152f35b50346102c55760203660031901126102c557600435906008548210156113e45760206113d683611b0a565b90546040519160031b1c8152f35b6044916040519163295f44f760e21b835260048301526024820152fd5b50346102c557604061141236611aef565b929081526015602052206005810154821015611438576020916004611223920154611f14565b60405162461bcd60e51b815260206004820152600360248201526237b7b160e91b6044820152606490fd5b50346102c55760403660031901126102c5576004357f884019c0c70102251222e94dbdcfe9c7a24a3727f73c568086f9b72d6e32a354602060ff6114a5611e2e565b6111bf6107cd86336124d8565b50346102c5576107106114c436611df9565b90604051926114d284611ba9565b85845261070b838383611f6c565b50346102c55760403660031901126102c5576114fa611cde565b9060243591611508816122b9565b831015611539576001600160a01b031681526006602090815260408083209383529281529082902054915191825290f35b60405163295f44f760e21b81526001600160a01b03919091166004820152602481019290925250604490fd5b50346102c55760203660031901126102c557610830604061058b926004358152601260205220611bfd565b50346102c557806003193601126102c5576020600f5460a01c604051908152f35b50346102c5576107106115c336611df9565b91611f6c565b50346102c55760203660031901126102c5576115e3611cde565b6115eb61259a565b60018060a01b03166001600160601b0360a01b600f541617600f5580f35b50346102c5576108447fa21868eaf3c7f76e3920b694616a9b525dabdac615d6e3da5f3890aac442e05d61163c36611dc9565b61164b6107cd839593336124d8565b6108308185612557565b50346102c557806003193601126102c5576020600854604051908152f35b50346102c55761168236611d47565b505050506020604051630a85bd0160e11b8152f35b50346102c55760203660031901126102c55760409060043581526015602052206020815461175e60018401549361174f6002820154936003830154906004840154600585015460068601549060018060a01b03600788015416926116fd60088901611bfd565b9560ff600a61170e60098c01611bfd565b9a0154169a6040519d8e9d8e610160998152015260408d015260608c015260808b015260a08a015260c089015260e088015280610100880152860190611aaf565b90848203610120860152611aaf565b9015156101408301520390f35b50346102c55760403660031901126102c557611785611cde565b6024356117918161249d565b3315158061183b575b80611810575b6117f8576001600160a01b039283169282918491167f8c5be1e5ebec7d5bd14f71427d1e84f3dd0314c0f7b2291e5b200ac8c7c3b9258680a4825260046020526040822080546001600160a01b031916909117905580f35b60405163a9fbf51f60e01b8152336004820152602490fd5b506001600160a01b038116845260056020908152604080862033875290915284205460ff16156117a0565b506001600160a01b03811633141561179a565b50346102c55760603660031901126102c5576024356044359060043583526015602052604083209161188f82600585015461188a818310611e72565b611ea7565b908082116118e7575b509160046118a584611ee2565b94910154905b8381106118c0576040518061058b8782611ca2565b806118d66001926118d18686611f14565b611f14565b6118e08288611f21565b52016118ab565b905038611898565b50346102c55760203660031901126102c5576020611399600435611e4d565b50346102c55761191d36611aef565b908252601160205260408220908154811015610d915761193c91611b57565b91909161194f5761058b61083083611bfd565b634e487b7160e01b81526004819052602490fd5b50346102c557806003193601126102c55760405190808282549161198683611b6f565b9283835260209460019186600182169182600014610e575750506001146119b5575050610de992500383611bdb565b908592508180527f290decd9548b62a8d60345a988386fc84ba6bc95484008f6362f93160ef3e5635b8583106119f6575050610de993508201013880610ddb565b805483890185015287945086939092019181016119de565b9050346107665760203660031901126107665760043563ffffffff60e01b8116809103610d915760209250632483248360e11b8114908115611a52575b5015158152f35b63780e9d6360e01b811491508115611a6c575b5038611a4b565b6380ac58cd60e01b811491508115611a9e575b8115611a8d575b5038611a65565b6301ffc9a760e01b14905038611a86565b635b5e139f60e01b81149150611a7f565b919082519283825260005b848110611adb575050826000602080949584010152601f8019910116010190565b602081830181015184830182015201611aba565b6040906003190112611b05576004359060243590565b600080fd5b600854811015611b415760086000527ff3f7a9fe364faab93b216da50a3214154f22a0a2b415b23a84c8169e8b636ee30190600090565b634e487b7160e01b600052603260045260246000fd5b8054821015611b415760005260206000200190600090565b90600182811c92168015611b9f575b6020831014611b8957565b634e487b7160e01b600052602260045260246000fd5b91607f1691611b7e565b6020810190811067ffffffffffffffff821117611bc557604052565b634e487b7160e01b600052604160045260246000fd5b90601f8019910116810190811067ffffffffffffffff821117611bc557604052565b90604051918260008254611c1081611b6f565b90818452602094600191600181169081600014611c805750600114611c41575b505050611c3f92500383611bdb565b565b600090815285812095935091905b818310611c68575050611c3f9350820101388080611c30565b85548884018501529485019487945091830191611c4f565b92505050611c3f94925060ff191682840152151560051b820101388080611c30565b602090602060408183019282815285518094520193019160005b828110611cca575050505090565b835185529381019392810192600101611cbc565b600435906001600160a01b0382168203611b0557565b67ffffffffffffffff8111611bc557601f01601f191660200190565b929192611d1c82611cf4565b91611d2a6040519384611bdb565b829481845281830111611b05578281602093846000960137010152565b906080600319830112611b05576001600160a01b03916004358381168103611b0557926024359081168103611b055791604435916064359067ffffffffffffffff8211611b055780602383011215611b0557816024611dab93600401359101611d10565b90565b9080601f83011215611b0557816020611dab93359101611d10565b906040600319830112611b0557600435916024359067ffffffffffffffff8211611b0557611dab91600401611dae565b6060906003190112611b05576001600160a01b03906004358281168103611b0557916024359081168103611b05579060443590565b6024359060ff82168203611b0557565b602435908115158203611b0557565b611e568161249d565b506000908152600460205260409020546001600160a01b031690565b15611e7957565b60405162461bcd60e51b81526020600482015260066024820152651bd9999cd95d60d21b6044820152606490fd5b91908203918211611eb457565b634e487b7160e01b600052601160045260246000fd5b67ffffffffffffffff8111611bc55760051b60200190565b90611eec82611eca565b611ef96040519182611bdb565b8281528092611f0a601f1991611eca565b0190602036910137565b91908201809211611eb457565b8051821015611b415760209160051b010190565b15611f3c57565b60405162461bcd60e51b81526020600482015260086024820152670dcdee840c2eae8d60c31b6044820152606490fd5b906001600160a01b03808216908115612233576000918583526020926002845260409383858320541695331515806121a5575b5086158015612172575b84845260038352868420805460010190558984526002835286842080546001600160a01b031916861790558985897fddf252ad1be2c89b69c2b068fc378daa952ba7f163c4a11628f55a4df523b3ef8780a4156120f657600854898452600983528087852055600160401b8110156120e2578961202f8260016120489401600855611b0a565b90919082549060031b91821b91600019901b1916179055565b838703612090575b50505050831682036120625750505050565b516364283d7b60e01b81526001600160a01b0392831660048201526024810193909352166044820152606490fd5b612099906122b9565b6000198101939084116120ce578291600791879452600681528383208584528152898484205589835252205538808080612050565b634e487b7160e01b83526011600452602483fd5b634e487b7160e01b84526041600452602484fd5b86841461204857612106876122b9565b898452600783528684205481810361213b575b5089845283878120558784526006835286842090845282528286812055612048565b8885526006845287852082865284528785205489865260068552888620828752855280898720558552600784528785205538612119565b60008a815260046020526040902080546001600160a01b0319169055878452600383528684208054600019019055611fa9565b806121f2575b156121b65738611f9f565b8589886121d3576024915190637e27328960e01b82526004820152fd5b905163177e802f60e01b81523360048201526024810191909152604490fd5b503387148015612217575b806121ab57508883526004825233858785205416146121ab565b5086835260058252858320338452825260ff86842054166121fd565b604051633250574960e11b815260006004820152602490fd5b1561225357565b60405162461bcd60e51b815260206004820152600560248201526472616e676560d81b6044820152606490fd5b1561228757565b60405162461bcd60e51b815260206004820152600a6024820152696e6f74206f7261636c6560b01b6044820152606490fd5b6001600160a01b031680156122d957600052600360205260406000205490565b6040516322718ad960e21b815260006004820152602490fd5b3d1561231d573d9061230382611cf4565b916123116040519384611bdb565b82523d6000602084013e565b606090565b1561232957565b60405162461bcd60e51b8152602060048201526005602482015264707269636560d81b6044820152606490fd5b6000198114611eb45760010190565b919091825167ffffffffffffffff8111611bc5576123838254611b6f565b601f811161242e575b50602080601f83116001146123c95750819293946000926123be575b50508160011b916000199060031b1c1916179055565b0151905038806123a8565b90601f19831695846000526020600020926000905b888210612416575050836001959697106123fd575b505050811b019055565b015160001960f88460031b161c191690553880806123f3565b806001859682949686015181550195019301906123de565b6000836000526020600020601f840160051c8101926020851061246e575b601f0160051c01915b82811061246357505061238c565b818155600101612455565b909250829061244c565b909161248f611dab93604084526040840190611aaf565b916020818403910152611aaf565b6000818152600260205260409020546001600160a01b03169081156124c0575090565b60249060405190637e27328960e01b82526004820152fd5b6001600160a01b039081806124ec8561249d565b16911691818314938415612549575b8415612532575b5050821561250f57505090565b909150600052600560205260406000209060005260205260ff6040600020541690565b8392945061253f90611e4d565b1614913880612502565b600b548216841494506124fb565b6020906125917ff8e1a15aba9398e019f0b49df1a4fde98ee17ae345cb5f6b5e2c27f5033e8ce79382600052600a84526040600020612365565b604051908152a1565b600b546001600160a01b031633036125ae57565b60405163118cdaa760e01b8152336004820152602490fd5b6002600c54146125d7576002600c55565b604051633ee5aeb560e01b8152600490fd5b60409182516125f781611ba9565b60008082526001600160a01b03848116949192919085156127495761261c8583612862565b16612731573b61262e575b5050505050565b602061266b91869795965180938192630a85bd0160e11b978884523360048501528760248501526044840152608060648401526084830190611aaf565b038185895af1908290826126e8575b50506126b35750505061268b6122f2565b80519290836126ac578151633250574960e11b815260048101849052602490fd5b8390602001fd5b9193916001600160e01b031916036126d15750503880808080612627565b602492505190633250574960e11b82526004820152fd5b909192506020813d602011612729575b8161270560209383611bdb565b810103126107665751906001600160e01b0319821682036102c5575090388061267a565b3d91506126f8565b85516339e3563760e11b815260048101849052602490fd5b8651633250574960e11b815260048101859052602490fd5b9190803b612770575b50505050565b6127b260018060a01b0380921694604051938493630a85bd0160e11b968786523360048701521660248501526044840152608060648401526084830190611aaf565b03906020816000938185885af190829082612819575b505061280057826127d76122f2565b80519190826127f957604051633250574960e11b815260048101839052602490fd5b9050602001fd5b6001600160e01b031916036104a757503880808061276a565b909192506020813d60201161285a575b8161283660209383611bdb565b810103126107665751906001600160e01b0319821682036102c557509038806127c8565b3d9150612829565b6000828152600260209081526040808320546001600160a01b039081169592949192918615918215612ab0575b8116918215908115612a9a575b8487526002885285872080546001600160a01b0319168517905584848a7fddf252ad1be2c89b69c2b068fc378daa952ba7f163c4a11628f55a4df523b3ef8a80a415612a1e57600854848752600988528086882055600160401b811015612a0a578461202f8260016129119401600855611b0a565b156129b5575050600854600019948582019182116129a157906009839286959486528181526129438587205493611b0a565b90549060031b1c6129578161202f86611b0a565b86525282842055825281205560085490811561298d575081019061297a82611b0a565b909182549160031b1b1916905560085590565b634e487b7160e01b81526031600452602490fd5b634e487b7160e01b85526011600452602485fd5b818796939296959495036129cd575b50505050505090565b6129d6906122b9565b6000198101959086116104bf57835260068252838320858452825283832081905582526007905220553880808080806129c4565b634e487b7160e01b87526041600452602487fd5b87831461291157612a2e886122b9565b8487526007885285872054818103612a63575b5084875286868120558887526006885285872090875287528585812055612911565b898852600689528688208289528952868820548a895260068a52878920828a528a5280888a20558852600789528688205538612a41565b838752600388528587206001815401905561289c565b600084815260046020526040902080546001600160a01b031916905587865260038752848620805460001901905561288f56fea26469706673582212200da478ab94cdb69d1479264d39c66faf741f97899df3db41fbe6341838d237ba64736f6c63430008180033",
  "linkReferences": {},
  "deployedLinkReferences": {}
}